{
	"USDTFlash/contracts/USDTFlash.sol": {
		"USDTFlash": {
			"abi": [
				{
					"inputs": [],
					"stateMutability": "nonpayable",
					"type": "constructor"
				},
				{
					"inputs": [
						{
							"internalType": "address",
							"name": "spender",
							"type": "address"
						},
						{
							"internalType": "uint256",
							"name": "allowance",
							"type": "uint256"
						},
						{
							"internalType": "uint256",
							"name": "needed",
							"type": "uint256"
						}
					],
					"name": "ERC20InsufficientAllowance",
					"type": "error"
				},
				{
					"inputs": [
						{
							"internalType": "address",
							"name": "sender",
							"type": "address"
						},
						{
							"internalType": "uint256",
							"name": "balance",
							"type": "uint256"
						},
						{
							"internalType": "uint256",
							"name": "needed",
							"type": "uint256"
						}
					],
					"name": "ERC20InsufficientBalance",
					"type": "error"
				},
				{
					"inputs": [
						{
							"internalType": "address",
							"name": "approver",
							"type": "address"
						}
					],
					"name": "ERC20InvalidApprover",
					"type": "error"
				},
				{
					"inputs": [
						{
							"internalType": "address",
							"name": "receiver",
							"type": "address"
						}
					],
					"name": "ERC20InvalidReceiver",
					"type": "error"
				},
				{
					"inputs": [
						{
							"internalType": "address",
							"name": "sender",
							"type": "address"
						}
					],
					"name": "ERC20InvalidSender",
					"type": "error"
				},
				{
					"inputs": [
						{
							"internalType": "address",
							"name": "spender",
							"type": "address"
						}
					],
					"name": "ERC20InvalidSpender",
					"type": "error"
				},
				{
					"anonymous": false,
					"inputs": [
						{
							"indexed": true,
							"internalType": "address",
							"name": "owner",
							"type": "address"
						},
						{
							"indexed": true,
							"internalType": "address",
							"name": "spender",
							"type": "address"
						},
						{
							"indexed": false,
							"internalType": "uint256",
							"name": "value",
							"type": "uint256"
						}
					],
					"name": "Approval",
					"type": "event"
				},
				{
					"anonymous": false,
					"inputs": [
						{
							"indexed": true,
							"internalType": "address",
							"name": "from",
							"type": "address"
						},
						{
							"indexed": true,
							"internalType": "address",
							"name": "to",
							"type": "address"
						},
						{
							"indexed": false,
							"internalType": "uint256",
							"name": "value",
							"type": "uint256"
						}
					],
					"name": "Transfer",
					"type": "event"
				},
				{
					"inputs": [
						{
							"internalType": "address",
							"name": "owner",
							"type": "address"
						},
						{
							"internalType": "address",
							"name": "spender",
							"type": "address"
						}
					],
					"name": "allowance",
					"outputs": [
						{
							"internalType": "uint256",
							"name": "",
							"type": "uint256"
						}
					],
					"stateMutability": "view",
					"type": "function"
				},
				{
					"inputs": [
						{
							"internalType": "address",
							"name": "spender",
							"type": "address"
						},
						{
							"internalType": "uint256",
							"name": "value",
							"type": "uint256"
						}
					],
					"name": "approve",
					"outputs": [
						{
							"internalType": "bool",
							"name": "",
							"type": "bool"
						}
					],
					"stateMutability": "nonpayable",
					"type": "function"
				},
				{
					"inputs": [
						{
							"internalType": "address",
							"name": "account",
							"type": "address"
						}
					],
					"name": "balanceOf",
					"outputs": [
						{
							"internalType": "uint256",
							"name": "",
							"type": "uint256"
						}
					],
					"stateMutability": "view",
					"type": "function"
				},
				{
					"inputs": [],
					"name": "decimals",
					"outputs": [
						{
							"internalType": "uint8",
							"name": "",
							"type": "uint8"
						}
					],
					"stateMutability": "view",
					"type": "function"
				},
				{
					"inputs": [
						{
							"internalType": "address",
							"name": "spender",
							"type": "address"
						},
						{
							"internalType": "uint256",
							"name": "subtractedValue",
							"type": "uint256"
						}
					],
					"name": "decreaseAllowance",
					"outputs": [
						{
							"internalType": "bool",
							"name": "",
							"type": "bool"
						}
					],
					"stateMutability": "nonpayable",
					"type": "function"
				},
				{
					"inputs": [
						{
							"internalType": "address",
							"name": "spender",
							"type": "address"
						},
						{
							"internalType": "uint256",
							"name": "addedValue",
							"type": "uint256"
						}
					],
					"name": "increaseAllowance",
					"outputs": [
						{
							"internalType": "bool",
							"name": "",
							"type": "bool"
						}
					],
					"stateMutability": "nonpayable",
					"type": "function"
				},
				{
					"inputs": [],
					"name": "maxSupply",
					"outputs": [
						{
							"internalType": "uint256",
							"name": "",
							"type": "uint256"
						}
					],
					"stateMutability": "view",
					"type": "function"
				},
				{
					"inputs": [
						{
							"internalType": "uint256",
							"name": "amount",
							"type": "uint256"
						}
					],
					"name": "mint",
					"outputs": [
						{
							"internalType": "bool",
							"name": "",
							"type": "bool"
						}
					],
					"stateMutability": "nonpayable",
					"type": "function"
				},
				{
					"inputs": [],
					"name": "name",
					"outputs": [
						{
							"internalType": "string",
							"name": "",
							"type": "string"
						}
					],
					"stateMutability": "view",
					"type": "function"
				},
				{
					"inputs": [
						{
							"internalType": "address",
							"name": "flashLoanContract",
							"type": "address"
						}
					],
					"name": "setFlashLoanContract",
					"outputs": [],
					"stateMutability": "nonpayable",
					"type": "function"
				},
				{
					"inputs": [],
					"name": "symbol",
					"outputs": [
						{
							"internalType": "string",
							"name": "",
							"type": "string"
						}
					],
					"stateMutability": "view",
					"type": "function"
				},
				{
					"inputs": [],
					"name": "totalSupply",
					"outputs": [
						{
							"internalType": "uint256",
							"name": "",
							"type": "uint256"
						}
					],
					"stateMutability": "view",
					"type": "function"
				},
				{
					"inputs": [
						{
							"internalType": "address",
							"name": "to",
							"type": "address"
						},
						{
							"internalType": "uint256",
							"name": "value",
							"type": "uint256"
						}
					],
					"name": "transfer",
					"outputs": [
						{
							"internalType": "bool",
							"name": "",
							"type": "bool"
						}
					],
					"stateMutability": "nonpayable",
					"type": "function"
				},
				{
					"inputs": [
						{
							"internalType": "address",
							"name": "from",
							"type": "address"
						},
						{
							"internalType": "address",
							"name": "to",
							"type": "address"
						},
						{
							"internalType": "uint256",
							"name": "value",
							"type": "uint256"
						}
					],
					"name": "transferFrom",
					"outputs": [
						{
							"internalType": "bool",
							"name": "",
							"type": "bool"
						}
					],
					"stateMutability": "nonpayable",
					"type": "function"
				}
			],
			"devdoc": {
				"kind": "dev",
				"methods": {
					"decimals()": {
						"details": "Returns the decimals places of the token."
					},
					"name()": {
						"details": "Returns the name of the token."
					},
					"symbol()": {
						"details": "Returns the symbol of the token."
					}
				},
				"version": 1
			},
			"evm": {
				"assembly": "    /* \"USDTFlash/contracts/USDTFlash.sol\":341:6095  contract USDTFlash is Context, IERC20, IERC20Metadata, IERC20Errors {... */\n  mstore(0x40, 0x80)\n    /* \"USDTFlash/contracts/USDTFlash.sol\":731:889  constructor() {... */\n  callvalue\n  dup1\n  iszero\n  tag_1\n  jumpi\n  revert(0x00, 0x00)\ntag_1:\n  pop\n    /* \"USDTFlash/contracts/USDTFlash.sol\":755:775  _name = \"USDT Flash\" */\n  mload(0x40)\n  dup1\n  0x40\n  add\n  0x40\n  mstore\n  dup1\n  0x0a\n  dup2\n  mstore\n  0x20\n  add\n  0x5553445420466c61736800000000000000000000000000000000000000000000\n  dup2\n  mstore\n  pop\n    /* \"USDTFlash/contracts/USDTFlash.sol\":755:760  _name */\n  0x04\n    /* \"USDTFlash/contracts/USDTFlash.sol\":755:775  _name = \"USDT Flash\" */\n  swap1\n  dup2\n  tag_4\n  swap2\n  swap1\n  tag_5\n  jump\t// in\ntag_4:\n  pop\n    /* \"USDTFlash/contracts/USDTFlash.sol\":785:801  _symbol = \"USDT\" */\n  mload(0x40)\n  dup1\n  0x40\n  add\n  0x40\n  mstore\n  dup1\n  0x04\n  dup2\n  mstore\n  0x20\n  add\n  0x5553445400000000000000000000000000000000000000000000000000000000\n  dup2\n  mstore\n  pop\n    /* \"USDTFlash/contracts/USDTFlash.sol\":785:792  _symbol */\n  0x05\n    /* \"USDTFlash/contracts/USDTFlash.sol\":785:801  _symbol = \"USDT\" */\n  swap1\n  dup2\n  tag_6\n  swap2\n  swap1\n  tag_5\n  jump\t// in\ntag_6:\n  pop\n    /* \"USDTFlash/contracts/USDTFlash.sol\":824:851  600000000000000000000000000 */\n  0x01f04ef12cb04cf158000000\n    /* \"USDTFlash/contracts/USDTFlash.sol\":811:821  _maxSupply */\n  0x03\n    /* \"USDTFlash/contracts/USDTFlash.sol\":811:851  _maxSupply = 600000000000000000000000000 */\n  dup2\n  swap1\n  sstore\n  pop\n    /* \"USDTFlash/contracts/USDTFlash.sol\":870:882  _msgSender() */\n  tag_7\n    /* \"USDTFlash/contracts/USDTFlash.sol\":870:880  _msgSender */\n  shl(0x20, tag_8)\n    /* \"USDTFlash/contracts/USDTFlash.sol\":870:882  _msgSender() */\n  0x20\n  shr\n  jump\t// in\ntag_7:\n    /* \"USDTFlash/contracts/USDTFlash.sol\":861:867  _owner */\n  0x06\n  0x00\n    /* \"USDTFlash/contracts/USDTFlash.sol\":861:882  _owner = _msgSender() */\n  0x0100\n  exp\n  dup2\n  sload\n  dup2\n  0xffffffffffffffffffffffffffffffffffffffff\n  mul\n  not\n  and\n  swap1\n  dup4\n  0xffffffffffffffffffffffffffffffffffffffff\n  and\n  mul\n  or\n  swap1\n  sstore\n  pop\n    /* \"USDTFlash/contracts/USDTFlash.sol\":341:6095  contract USDTFlash is Context, IERC20, IERC20Metadata, IERC20Errors {... */\n  jump(tag_9)\n    /* \"USDTFlash/contracts/utils/Context.sol\":657:753  function _msgSender() internal view virtual returns (address) {... */\ntag_8:\n    /* \"USDTFlash/contracts/utils/Context.sol\":710:717  address */\n  0x00\n    /* \"USDTFlash/contracts/utils/Context.sol\":736:746  msg.sender */\n  caller\n    /* \"USDTFlash/contracts/utils/Context.sol\":729:746  return msg.sender */\n  swap1\n  pop\n    /* \"USDTFlash/contracts/utils/Context.sol\":657:753  function _msgSender() internal view virtual returns (address) {... */\n  swap1\n  jump\t// out\n    /* \"#utility.yul\":7:106   */\ntag_11:\n    /* \"#utility.yul\":59:65   */\n  0x00\n    /* \"#utility.yul\":93:98   */\n  dup2\n    /* \"#utility.yul\":87:99   */\n  mload\n    /* \"#utility.yul\":77:99   */\n  swap1\n  pop\n    /* \"#utility.yul\":7:106   */\n  swap2\n  swap1\n  pop\n  jump\t// out\n    /* \"#utility.yul\":112:292   */\ntag_12:\n    /* \"#utility.yul\":160:237   */\n  0x4e487b7100000000000000000000000000000000000000000000000000000000\n    /* \"#utility.yul\":157:158   */\n  0x00\n    /* \"#utility.yul\":150:238   */\n  mstore\n    /* \"#utility.yul\":257:261   */\n  0x41\n    /* \"#utility.yul\":254:255   */\n  0x04\n    /* \"#utility.yul\":247:262   */\n  mstore\n    /* \"#utility.yul\":281:285   */\n  0x24\n    /* \"#utility.yul\":278:279   */\n  0x00\n    /* \"#utility.yul\":271:286   */\n  revert\n    /* \"#utility.yul\":298:478   */\ntag_13:\n    /* \"#utility.yul\":346:423   */\n  0x4e487b7100000000000000000000000000000000000000000000000000000000\n    /* \"#utility.yul\":343:344   */\n  0x00\n    /* \"#utility.yul\":336:424   */\n  mstore\n    /* \"#utility.yul\":443:447   */\n  0x22\n    /* \"#utility.yul\":440:441   */\n  0x04\n    /* \"#utility.yul\":433:448   */\n  mstore\n    /* \"#utility.yul\":467:471   */\n  0x24\n    /* \"#utility.yul\":464:465   */\n  0x00\n    /* \"#utility.yul\":457:472   */\n  revert\n    /* \"#utility.yul\":484:804   */\ntag_14:\n    /* \"#utility.yul\":528:534   */\n  0x00\n    /* \"#utility.yul\":565:566   */\n  0x02\n    /* \"#utility.yul\":559:563   */\n  dup3\n    /* \"#utility.yul\":555:567   */\n  div\n    /* \"#utility.yul\":545:567   */\n  swap1\n  pop\n    /* \"#utility.yul\":612:613   */\n  0x01\n    /* \"#utility.yul\":606:610   */\n  dup3\n    /* \"#utility.yul\":602:614   */\n  and\n    /* \"#utility.yul\":633:651   */\n  dup1\n    /* \"#utility.yul\":623:704   */\n  tag_36\n  jumpi\n    /* \"#utility.yul\":689:693   */\n  0x7f\n    /* \"#utility.yul\":681:687   */\n  dup3\n    /* \"#utility.yul\":677:694   */\n  and\n    /* \"#utility.yul\":667:694   */\n  swap2\n  pop\n    /* \"#utility.yul\":623:704   */\ntag_36:\n    /* \"#utility.yul\":751:753   */\n  0x20\n    /* \"#utility.yul\":743:749   */\n  dup3\n    /* \"#utility.yul\":740:754   */\n  lt\n    /* \"#utility.yul\":720:738   */\n  dup2\n    /* \"#utility.yul\":717:755   */\n  sub\n    /* \"#utility.yul\":714:798   */\n  tag_37\n  jumpi\n    /* \"#utility.yul\":770:788   */\n  tag_38\n  tag_13\n  jump\t// in\ntag_38:\n    /* \"#utility.yul\":714:798   */\ntag_37:\n    /* \"#utility.yul\":535:804   */\n  pop\n    /* \"#utility.yul\":484:804   */\n  swap2\n  swap1\n  pop\n  jump\t// out\n    /* \"#utility.yul\":810:951   */\ntag_15:\n    /* \"#utility.yul\":859:863   */\n  0x00\n    /* \"#utility.yul\":882:885   */\n  dup2\n    /* \"#utility.yul\":874:885   */\n  swap1\n  pop\n    /* \"#utility.yul\":905:908   */\n  dup2\n    /* \"#utility.yul\":902:903   */\n  0x00\n    /* \"#utility.yul\":895:909   */\n  mstore\n    /* \"#utility.yul\":939:943   */\n  0x20\n    /* \"#utility.yul\":936:937   */\n  0x00\n    /* \"#utility.yul\":926:944   */\n  keccak256\n    /* \"#utility.yul\":918:944   */\n  swap1\n  pop\n    /* \"#utility.yul\":810:951   */\n  swap2\n  swap1\n  pop\n  jump\t// out\n    /* \"#utility.yul\":957:1050   */\ntag_16:\n    /* \"#utility.yul\":994:1000   */\n  0x00\n    /* \"#utility.yul\":1041:1043   */\n  0x20\n    /* \"#utility.yul\":1036:1038   */\n  0x1f\n    /* \"#utility.yul\":1029:1034   */\n  dup4\n    /* \"#utility.yul\":1025:1039   */\n  add\n    /* \"#utility.yul\":1021:1044   */\n  div\n    /* \"#utility.yul\":1011:1044   */\n  swap1\n  pop\n    /* \"#utility.yul\":957:1050   */\n  swap2\n  swap1\n  pop\n  jump\t// out\n    /* \"#utility.yul\":1056:1163   */\ntag_17:\n    /* \"#utility.yul\":1100:1108   */\n  0x00\n    /* \"#utility.yul\":1150:1155   */\n  dup3\n    /* \"#utility.yul\":1144:1148   */\n  dup3\n    /* \"#utility.yul\":1140:1156   */\n  shl\n    /* \"#utility.yul\":1119:1156   */\n  swap1\n  pop\n    /* \"#utility.yul\":1056:1163   */\n  swap3\n  swap2\n  pop\n  pop\n  jump\t// out\n    /* \"#utility.yul\":1169:1562   */\ntag_18:\n    /* \"#utility.yul\":1238:1244   */\n  0x00\n    /* \"#utility.yul\":1288:1289   */\n  0x08\n    /* \"#utility.yul\":1276:1286   */\n  dup4\n    /* \"#utility.yul\":1272:1290   */\n  mul\n    /* \"#utility.yul\":1311:1408   */\n  tag_43\n    /* \"#utility.yul\":1341:1407   */\n  0xffffffffffffffffffffffffffffffffffffffffffffffffffffffffffffffff\n    /* \"#utility.yul\":1330:1339   */\n  dup3\n    /* \"#utility.yul\":1311:1408   */\n  tag_17\n  jump\t// in\ntag_43:\n    /* \"#utility.yul\":1429:1468   */\n  tag_44\n    /* \"#utility.yul\":1459:1467   */\n  dup7\n    /* \"#utility.yul\":1448:1457   */\n  dup4\n    /* \"#utility.yul\":1429:1468   */\n  tag_17\n  jump\t// in\ntag_44:\n    /* \"#utility.yul\":1417:1468   */\n  swap6\n  pop\n    /* \"#utility.yul\":1501:1505   */\n  dup1\n    /* \"#utility.yul\":1497:1506   */\n  not\n    /* \"#utility.yul\":1490:1495   */\n  dup5\n    /* \"#utility.yul\":1486:1507   */\n  and\n    /* \"#utility.yul\":1477:1507   */\n  swap4\n  pop\n    /* \"#utility.yul\":1550:1554   */\n  dup1\n    /* \"#utility.yul\":1540:1548   */\n  dup7\n    /* \"#utility.yul\":1536:1555   */\n  and\n    /* \"#utility.yul\":1529:1534   */\n  dup5\n    /* \"#utility.yul\":1526:1556   */\n  or\n    /* \"#utility.yul\":1516:1556   */\n  swap3\n  pop\n    /* \"#utility.yul\":1245:1562   */\n  pop\n  pop\n    /* \"#utility.yul\":1169:1562   */\n  swap4\n  swap3\n  pop\n  pop\n  pop\n  jump\t// out\n    /* \"#utility.yul\":1568:1645   */\ntag_19:\n    /* \"#utility.yul\":1605:1612   */\n  0x00\n    /* \"#utility.yul\":1634:1639   */\n  dup2\n    /* \"#utility.yul\":1623:1639   */\n  swap1\n  pop\n    /* \"#utility.yul\":1568:1645   */\n  swap2\n  swap1\n  pop\n  jump\t// out\n    /* \"#utility.yul\":1651:1711   */\ntag_20:\n    /* \"#utility.yul\":1679:1682   */\n  0x00\n    /* \"#utility.yul\":1700:1705   */\n  dup2\n    /* \"#utility.yul\":1693:1705   */\n  swap1\n  pop\n    /* \"#utility.yul\":1651:1711   */\n  swap2\n  swap1\n  pop\n  jump\t// out\n    /* \"#utility.yul\":1717:1859   */\ntag_21:\n    /* \"#utility.yul\":1767:1776   */\n  0x00\n    /* \"#utility.yul\":1800:1853   */\n  tag_48\n    /* \"#utility.yul\":1818:1852   */\n  tag_49\n    /* \"#utility.yul\":1827:1851   */\n  tag_50\n    /* \"#utility.yul\":1845:1850   */\n  dup5\n    /* \"#utility.yul\":1827:1851   */\n  tag_19\n  jump\t// in\ntag_50:\n    /* \"#utility.yul\":1818:1852   */\n  tag_20\n  jump\t// in\ntag_49:\n    /* \"#utility.yul\":1800:1853   */\n  tag_19\n  jump\t// in\ntag_48:\n    /* \"#utility.yul\":1787:1853   */\n  swap1\n  pop\n    /* \"#utility.yul\":1717:1859   */\n  swap2\n  swap1\n  pop\n  jump\t// out\n    /* \"#utility.yul\":1865:1940   */\ntag_22:\n    /* \"#utility.yul\":1908:1911   */\n  0x00\n    /* \"#utility.yul\":1929:1934   */\n  dup2\n    /* \"#utility.yul\":1922:1934   */\n  swap1\n  pop\n    /* \"#utility.yul\":1865:1940   */\n  swap2\n  swap1\n  pop\n  jump\t// out\n    /* \"#utility.yul\":1946:2215   */\ntag_23:\n    /* \"#utility.yul\":2056:2095   */\n  tag_53\n    /* \"#utility.yul\":2087:2094   */\n  dup4\n    /* \"#utility.yul\":2056:2095   */\n  tag_21\n  jump\t// in\ntag_53:\n    /* \"#utility.yul\":2117:2208   */\n  tag_54\n    /* \"#utility.yul\":2166:2207   */\n  tag_55\n    /* \"#utility.yul\":2190:2206   */\n  dup3\n    /* \"#utility.yul\":2166:2207   */\n  tag_22\n  jump\t// in\ntag_55:\n    /* \"#utility.yul\":2158:2164   */\n  dup5\n    /* \"#utility.yul\":2151:2155   */\n  dup5\n    /* \"#utility.yul\":2145:2156   */\n  sload\n    /* \"#utility.yul\":2117:2208   */\n  tag_18\n  jump\t// in\ntag_54:\n    /* \"#utility.yul\":2111:2115   */\n  dup3\n    /* \"#utility.yul\":2104:2209   */\n  sstore\n    /* \"#utility.yul\":2022:2215   */\n  pop\n    /* \"#utility.yul\":1946:2215   */\n  pop\n  pop\n  pop\n  jump\t// out\n    /* \"#utility.yul\":2221:2294   */\ntag_24:\n    /* \"#utility.yul\":2266:2269   */\n  0x00\n    /* \"#utility.yul\":2287:2288   */\n  0x00\n    /* \"#utility.yul\":2280:2288   */\n  swap1\n  pop\n    /* \"#utility.yul\":2221:2294   */\n  swap1\n  jump\t// out\n    /* \"#utility.yul\":2300:2489   */\ntag_25:\n    /* \"#utility.yul\":2377:2409   */\n  tag_58\n  tag_24\n  jump\t// in\ntag_58:\n    /* \"#utility.yul\":2418:2483   */\n  tag_59\n    /* \"#utility.yul\":2476:2482   */\n  dup2\n    /* \"#utility.yul\":2468:2474   */\n  dup5\n    /* \"#utility.yul\":2462:2466   */\n  dup5\n    /* \"#utility.yul\":2418:2483   */\n  tag_23\n  jump\t// in\ntag_59:\n    /* \"#utility.yul\":2353:2489   */\n  pop\n    /* \"#utility.yul\":2300:2489   */\n  pop\n  pop\n  jump\t// out\n    /* \"#utility.yul\":2495:2681   */\ntag_26:\n    /* \"#utility.yul\":2555:2675   */\ntag_61:\n    /* \"#utility.yul\":2572:2575   */\n  dup2\n    /* \"#utility.yul\":2565:2570   */\n  dup2\n    /* \"#utility.yul\":2562:2576   */\n  lt\n    /* \"#utility.yul\":2555:2675   */\n  iszero\n  tag_63\n  jumpi\n    /* \"#utility.yul\":2626:2665   */\n  tag_64\n    /* \"#utility.yul\":2663:2664   */\n  0x00\n    /* \"#utility.yul\":2656:2661   */\n  dup3\n    /* \"#utility.yul\":2626:2665   */\n  tag_25\n  jump\t// in\ntag_64:\n    /* \"#utility.yul\":2599:2600   */\n  0x01\n    /* \"#utility.yul\":2592:2597   */\n  dup2\n    /* \"#utility.yul\":2588:2601   */\n  add\n    /* \"#utility.yul\":2579:2601   */\n  swap1\n  pop\n    /* \"#utility.yul\":2555:2675   */\n  jump(tag_61)\ntag_63:\n    /* \"#utility.yul\":2495:2681   */\n  pop\n  pop\n  jump\t// out\n    /* \"#utility.yul\":2687:3230   */\ntag_27:\n    /* \"#utility.yul\":2788:2790   */\n  0x1f\n    /* \"#utility.yul\":2783:2786   */\n  dup3\n    /* \"#utility.yul\":2780:2791   */\n  gt\n    /* \"#utility.yul\":2777:3223   */\n  iszero\n  tag_66\n  jumpi\n    /* \"#utility.yul\":2822:2860   */\n  tag_67\n    /* \"#utility.yul\":2854:2859   */\n  dup2\n    /* \"#utility.yul\":2822:2860   */\n  tag_15\n  jump\t// in\ntag_67:\n    /* \"#utility.yul\":2906:2935   */\n  tag_68\n    /* \"#utility.yul\":2924:2934   */\n  dup5\n    /* \"#utility.yul\":2906:2935   */\n  tag_16\n  jump\t// in\ntag_68:\n    /* \"#utility.yul\":2896:2904   */\n  dup2\n    /* \"#utility.yul\":2892:2936   */\n  add\n    /* \"#utility.yul\":3089:3091   */\n  0x20\n    /* \"#utility.yul\":3077:3087   */\n  dup6\n    /* \"#utility.yul\":3074:3092   */\n  lt\n    /* \"#utility.yul\":3071:3120   */\n  iszero\n  tag_69\n  jumpi\n    /* \"#utility.yul\":3110:3118   */\n  dup2\n    /* \"#utility.yul\":3095:3118   */\n  swap1\n  pop\n    /* \"#utility.yul\":3071:3120   */\ntag_69:\n    /* \"#utility.yul\":3133:3213   */\n  tag_70\n    /* \"#utility.yul\":3189:3211   */\n  tag_71\n    /* \"#utility.yul\":3207:3210   */\n  dup6\n    /* \"#utility.yul\":3189:3211   */\n  tag_16\n  jump\t// in\ntag_71:\n    /* \"#utility.yul\":3179:3187   */\n  dup4\n    /* \"#utility.yul\":3175:3212   */\n  add\n    /* \"#utility.yul\":3162:3173   */\n  dup3\n    /* \"#utility.yul\":3133:3213   */\n  tag_26\n  jump\t// in\ntag_70:\n    /* \"#utility.yul\":2792:3223   */\n  pop\n  pop\n    /* \"#utility.yul\":2777:3223   */\ntag_66:\n    /* \"#utility.yul\":2687:3230   */\n  pop\n  pop\n  pop\n  jump\t// out\n    /* \"#utility.yul\":3236:3353   */\ntag_28:\n    /* \"#utility.yul\":3290:3298   */\n  0x00\n    /* \"#utility.yul\":3340:3345   */\n  dup3\n    /* \"#utility.yul\":3334:3338   */\n  dup3\n    /* \"#utility.yul\":3330:3346   */\n  shr\n    /* \"#utility.yul\":3309:3346   */\n  swap1\n  pop\n    /* \"#utility.yul\":3236:3353   */\n  swap3\n  swap2\n  pop\n  pop\n  jump\t// out\n    /* \"#utility.yul\":3359:3528   */\ntag_29:\n    /* \"#utility.yul\":3403:3409   */\n  0x00\n    /* \"#utility.yul\":3436:3487   */\n  tag_74\n    /* \"#utility.yul\":3484:3485   */\n  0x00\n    /* \"#utility.yul\":3480:3486   */\n  not\n    /* \"#utility.yul\":3472:3477   */\n  dup5\n    /* \"#utility.yul\":3469:3470   */\n  0x08\n    /* \"#utility.yul\":3465:3478   */\n  mul\n    /* \"#utility.yul\":3436:3487   */\n  tag_28\n  jump\t// in\ntag_74:\n    /* \"#utility.yul\":3432:3488   */\n  not\n    /* \"#utility.yul\":3517:3521   */\n  dup1\n    /* \"#utility.yul\":3511:3515   */\n  dup4\n    /* \"#utility.yul\":3507:3522   */\n  and\n    /* \"#utility.yul\":3497:3522   */\n  swap2\n  pop\n    /* \"#utility.yul\":3410:3528   */\n  pop\n    /* \"#utility.yul\":3359:3528   */\n  swap3\n  swap2\n  pop\n  pop\n  jump\t// out\n    /* \"#utility.yul\":3533:3828   */\ntag_30:\n    /* \"#utility.yul\":3609:3613   */\n  0x00\n    /* \"#utility.yul\":3755:3784   */\n  tag_76\n    /* \"#utility.yul\":3780:3783   */\n  dup4\n    /* \"#utility.yul\":3774:3778   */\n  dup4\n    /* \"#utility.yul\":3755:3784   */\n  tag_29\n  jump\t// in\ntag_76:\n    /* \"#utility.yul\":3747:3784   */\n  swap2\n  pop\n    /* \"#utility.yul\":3817:3820   */\n  dup3\n    /* \"#utility.yul\":3814:3815   */\n  0x02\n    /* \"#utility.yul\":3810:3821   */\n  mul\n    /* \"#utility.yul\":3804:3808   */\n  dup3\n    /* \"#utility.yul\":3801:3822   */\n  or\n    /* \"#utility.yul\":3793:3822   */\n  swap1\n  pop\n    /* \"#utility.yul\":3533:3828   */\n  swap3\n  swap2\n  pop\n  pop\n  jump\t// out\n    /* \"#utility.yul\":3833:5228   */\ntag_5:\n    /* \"#utility.yul\":3950:3987   */\n  tag_78\n    /* \"#utility.yul\":3983:3986   */\n  dup3\n    /* \"#utility.yul\":3950:3987   */\n  tag_11\n  jump\t// in\ntag_78:\n    /* \"#utility.yul\":4052:4070   */\n  0xffffffffffffffff\n    /* \"#utility.yul\":4044:4050   */\n  dup2\n    /* \"#utility.yul\":4041:4071   */\n  gt\n    /* \"#utility.yul\":4038:4094   */\n  iszero\n  tag_79\n  jumpi\n    /* \"#utility.yul\":4074:4092   */\n  tag_80\n  tag_12\n  jump\t// in\ntag_80:\n    /* \"#utility.yul\":4038:4094   */\ntag_79:\n    /* \"#utility.yul\":4118:4156   */\n  tag_81\n    /* \"#utility.yul\":4150:4154   */\n  dup3\n    /* \"#utility.yul\":4144:4155   */\n  sload\n    /* \"#utility.yul\":4118:4156   */\n  tag_14\n  jump\t// in\ntag_81:\n    /* \"#utility.yul\":4203:4270   */\n  tag_82\n    /* \"#utility.yul\":4263:4269   */\n  dup3\n    /* \"#utility.yul\":4255:4261   */\n  dup3\n    /* \"#utility.yul\":4249:4253   */\n  dup6\n    /* \"#utility.yul\":4203:4270   */\n  tag_27\n  jump\t// in\ntag_82:\n    /* \"#utility.yul\":4297:4298   */\n  0x00\n    /* \"#utility.yul\":4321:4325   */\n  0x20\n    /* \"#utility.yul\":4308:4325   */\n  swap1\n  pop\n    /* \"#utility.yul\":4353:4355   */\n  0x1f\n    /* \"#utility.yul\":4345:4351   */\n  dup4\n    /* \"#utility.yul\":4342:4356   */\n  gt\n    /* \"#utility.yul\":4370:4371   */\n  0x01\n    /* \"#utility.yul\":4365:4983   */\n  dup2\n  eq\n  tag_84\n  jumpi\n    /* \"#utility.yul\":5027:5028   */\n  0x00\n    /* \"#utility.yul\":5044:5050   */\n  dup5\n    /* \"#utility.yul\":5041:5118   */\n  iszero\n  tag_85\n  jumpi\n    /* \"#utility.yul\":5093:5102   */\n  dup3\n    /* \"#utility.yul\":5088:5091   */\n  dup8\n    /* \"#utility.yul\":5084:5103   */\n  add\n    /* \"#utility.yul\":5078:5104   */\n  mload\n    /* \"#utility.yul\":5069:5104   */\n  swap1\n  pop\n    /* \"#utility.yul\":5041:5118   */\ntag_85:\n    /* \"#utility.yul\":5144:5211   */\n  tag_86\n    /* \"#utility.yul\":5204:5210   */\n  dup6\n    /* \"#utility.yul\":5197:5202   */\n  dup3\n    /* \"#utility.yul\":5144:5211   */\n  tag_30\n  jump\t// in\ntag_86:\n    /* \"#utility.yul\":5138:5142   */\n  dup7\n    /* \"#utility.yul\":5131:5212   */\n  sstore\n    /* \"#utility.yul\":5000:5222   */\n  pop\n    /* \"#utility.yul\":4335:5222   */\n  jump(tag_83)\n    /* \"#utility.yul\":4365:4983   */\ntag_84:\n    /* \"#utility.yul\":4417:4421   */\n  0x1f\n    /* \"#utility.yul\":4413:4422   */\n  not\n    /* \"#utility.yul\":4405:4411   */\n  dup5\n    /* \"#utility.yul\":4401:4423   */\n  and\n    /* \"#utility.yul\":4451:4488   */\n  tag_87\n    /* \"#utility.yul\":4483:4487   */\n  dup7\n    /* \"#utility.yul\":4451:4488   */\n  tag_15\n  jump\t// in\ntag_87:\n    /* \"#utility.yul\":4510:4511   */\n  0x00\n    /* \"#utility.yul\":4524:4732   */\ntag_88:\n    /* \"#utility.yul\":4538:4545   */\n  dup3\n    /* \"#utility.yul\":4535:4536   */\n  dup2\n    /* \"#utility.yul\":4532:4546   */\n  lt\n    /* \"#utility.yul\":4524:4732   */\n  iszero\n  tag_90\n  jumpi\n    /* \"#utility.yul\":4617:4626   */\n  dup5\n    /* \"#utility.yul\":4612:4615   */\n  dup10\n    /* \"#utility.yul\":4608:4627   */\n  add\n    /* \"#utility.yul\":4602:4628   */\n  mload\n    /* \"#utility.yul\":4594:4600   */\n  dup3\n    /* \"#utility.yul\":4587:4629   */\n  sstore\n    /* \"#utility.yul\":4668:4669   */\n  0x01\n    /* \"#utility.yul\":4660:4666   */\n  dup3\n    /* \"#utility.yul\":4656:4670   */\n  add\n    /* \"#utility.yul\":4646:4670   */\n  swap2\n  pop\n    /* \"#utility.yul\":4715:4717   */\n  0x20\n    /* \"#utility.yul\":4704:4713   */\n  dup6\n    /* \"#utility.yul\":4700:4718   */\n  add\n    /* \"#utility.yul\":4687:4718   */\n  swap5\n  pop\n    /* \"#utility.yul\":4561:4565   */\n  0x20\n    /* \"#utility.yul\":4558:4559   */\n  dup2\n    /* \"#utility.yul\":4554:4566   */\n  add\n    /* \"#utility.yul\":4549:4566   */\n  swap1\n  pop\n    /* \"#utility.yul\":4524:4732   */\n  jump(tag_88)\ntag_90:\n    /* \"#utility.yul\":4760:4766   */\n  dup7\n    /* \"#utility.yul\":4751:4758   */\n  dup4\n    /* \"#utility.yul\":4748:4767   */\n  lt\n    /* \"#utility.yul\":4745:4924   */\n  iszero\n  tag_91\n  jumpi\n    /* \"#utility.yul\":4818:4827   */\n  dup5\n    /* \"#utility.yul\":4813:4816   */\n  dup10\n    /* \"#utility.yul\":4809:4828   */\n  add\n    /* \"#utility.yul\":4803:4829   */\n  mload\n    /* \"#utility.yul\":4861:4909   */\n  tag_92\n    /* \"#utility.yul\":4903:4907   */\n  0x1f\n    /* \"#utility.yul\":4895:4901   */\n  dup10\n    /* \"#utility.yul\":4891:4908   */\n  and\n    /* \"#utility.yul\":4880:4889   */\n  dup3\n    /* \"#utility.yul\":4861:4909   */\n  tag_29\n  jump\t// in\ntag_92:\n    /* \"#utility.yul\":4853:4859   */\n  dup4\n    /* \"#utility.yul\":4846:4910   */\n  sstore\n    /* \"#utility.yul\":4768:4924   */\n  pop\n    /* \"#utility.yul\":4745:4924   */\ntag_91:\n    /* \"#utility.yul\":4970:4971   */\n  0x01\n    /* \"#utility.yul\":4966:4967   */\n  0x02\n    /* \"#utility.yul\":4958:4964   */\n  dup9\n    /* \"#utility.yul\":4954:4968   */\n  mul\n    /* \"#utility.yul\":4950:4972   */\n  add\n    /* \"#utility.yul\":4944:4948   */\n  dup9\n    /* \"#utility.yul\":4937:4973   */\n  sstore\n    /* \"#utility.yul\":4372:4983   */\n  pop\n  pop\n  pop\n    /* \"#utility.yul\":4335:5222   */\ntag_83:\n  pop\n    /* \"#utility.yul\":3925:5228   */\n  pop\n  pop\n  pop\n    /* \"#utility.yul\":3833:5228   */\n  pop\n  pop\n  jump\t// out\n    /* \"USDTFlash/contracts/USDTFlash.sol\":341:6095  contract USDTFlash is Context, IERC20, IERC20Metadata, IERC20Errors {... */\ntag_9:\n  dataSize(sub_0)\n  dup1\n  dataOffset(sub_0)\n  0x00\n  codecopy\n  0x00\n  return\nstop\n\nsub_0: assembly {\n        /* \"USDTFlash/contracts/USDTFlash.sol\":341:6095  contract USDTFlash is Context, IERC20, IERC20Metadata, IERC20Errors {... */\n      mstore(0x40, 0x80)\n      callvalue\n      dup1\n      iszero\n      tag_1\n      jumpi\n      revert(0x00, 0x00)\n    tag_1:\n      pop\n      jumpi(tag_2, lt(calldatasize, 0x04))\n      shr(0xe0, calldataload(0x00))\n      dup1\n      0x70a08231\n      gt\n      tag_17\n      jumpi\n      dup1\n      0xa457c2d7\n      gt\n      tag_18\n      jumpi\n      dup1\n      0xa457c2d7\n      eq\n      tag_13\n      jumpi\n      dup1\n      0xa9059cbb\n      eq\n      tag_14\n      jumpi\n      dup1\n      0xd5abeb01\n      eq\n      tag_15\n      jumpi\n      dup1\n      0xdd62ed3e\n      eq\n      tag_16\n      jumpi\n      jump(tag_2)\n    tag_18:\n      dup1\n      0x70a08231\n      eq\n      tag_10\n      jumpi\n      dup1\n      0x95d89b41\n      eq\n      tag_11\n      jumpi\n      dup1\n      0xa0712d68\n      eq\n      tag_12\n      jumpi\n      jump(tag_2)\n    tag_17:\n      dup1\n      0x23b872dd\n      gt\n      tag_19\n      jumpi\n      dup1\n      0x23b872dd\n      eq\n      tag_6\n      jumpi\n      dup1\n      0x2a52940d\n      eq\n      tag_7\n      jumpi\n      dup1\n      0x313ce567\n      eq\n      tag_8\n      jumpi\n      dup1\n      0x39509351\n      eq\n      tag_9\n      jumpi\n      jump(tag_2)\n    tag_19:\n      dup1\n      0x06fdde03\n      eq\n      tag_3\n      jumpi\n      dup1\n      0x095ea7b3\n      eq\n      tag_4\n      jumpi\n      dup1\n      0x18160ddd\n      eq\n      tag_5\n      jumpi\n    tag_2:\n      revert(0x00, 0x00)\n        /* \"USDTFlash/contracts/USDTFlash.sol\":1329:1418  function name() public view virtual returns (string memory) {... */\n    tag_3:\n      tag_20\n      tag_21\n      jump\t// in\n    tag_20:\n      mload(0x40)\n      tag_22\n      swap2\n      swap1\n      tag_23\n      jump\t// in\n    tag_22:\n      mload(0x40)\n      dup1\n      swap2\n      sub\n      swap1\n      return\n        /* \"USDTFlash/contracts/USDTFlash.sol\":2416:2602  function approve(address spender, uint256 value) public virtual returns (bool) {... */\n    tag_4:\n      tag_24\n      0x04\n      dup1\n      calldatasize\n      sub\n      dup2\n      add\n      swap1\n      tag_25\n      swap2\n      swap1\n      tag_26\n      jump\t// in\n    tag_25:\n      tag_27\n      jump\t// in\n    tag_24:\n      mload(0x40)\n      tag_28\n      swap2\n      swap1\n      tag_29\n      jump\t// in\n    tag_28:\n      mload(0x40)\n      dup1\n      swap2\n      sub\n      swap1\n      return\n        /* \"USDTFlash/contracts/USDTFlash.sol\":1611:1708  function totalSupply() public view virtual returns (uint256) {... */\n    tag_5:\n      tag_30\n      tag_31\n      jump\t// in\n    tag_30:\n      mload(0x40)\n      tag_32\n      swap2\n      swap1\n      tag_33\n      jump\t// in\n    tag_32:\n      mload(0x40)\n      dup1\n      swap2\n      sub\n      swap1\n      return\n        /* \"USDTFlash/contracts/USDTFlash.sol\":2608:2852  function transferFrom(address from, address to, uint256 value) public virtual returns (bool) {... */\n    tag_6:\n      tag_34\n      0x04\n      dup1\n      calldatasize\n      sub\n      dup2\n      add\n      swap1\n      tag_35\n      swap2\n      swap1\n      tag_36\n      jump\t// in\n    tag_35:\n      tag_37\n      jump\t// in\n    tag_34:\n      mload(0x40)\n      tag_38\n      swap2\n      swap1\n      tag_29\n      jump\t// in\n    tag_38:\n      mload(0x40)\n      dup1\n      swap2\n      sub\n      swap1\n      return\n        /* \"USDTFlash/contracts/USDTFlash.sol\":1192:1323  function setFlashLoanContract(address flashLoanContract) external onlyOwner {... */\n    tag_7:\n      tag_39\n      0x04\n      dup1\n      calldatasize\n      sub\n      dup2\n      add\n      swap1\n      tag_40\n      swap2\n      swap1\n      tag_41\n      jump\t// in\n    tag_40:\n      tag_42\n      jump\t// in\n    tag_39:\n      stop\n        /* \"USDTFlash/contracts/USDTFlash.sol\":1523:1605  function decimals() public view virtual returns (uint8) {... */\n    tag_8:\n      tag_43\n      tag_44\n      jump\t// in\n    tag_43:\n      mload(0x40)\n      tag_45\n      swap2\n      swap1\n      tag_46\n      jump\t// in\n    tag_45:\n      mload(0x40)\n      dup1\n      swap2\n      sub\n      swap1\n      return\n        /* \"USDTFlash/contracts/USDTFlash.sol\":2858:3089  function increaseAllowance(address spender, uint addedValue) public virtual returns (bool) {... */\n    tag_9:\n      tag_47\n      0x04\n      dup1\n      calldatasize\n      sub\n      dup2\n      add\n      swap1\n      tag_48\n      swap2\n      swap1\n      tag_26\n      jump\t// in\n    tag_48:\n      tag_49\n      jump\t// in\n    tag_47:\n      mload(0x40)\n      tag_50\n      swap2\n      swap1\n      tag_29\n      jump\t// in\n    tag_50:\n      mload(0x40)\n      dup1\n      swap2\n      sub\n      swap1\n      return\n        /* \"USDTFlash/contracts/USDTFlash.sol\":1813:1929  function balanceOf(address account) public view virtual returns (uint256) {... */\n    tag_10:\n      tag_51\n      0x04\n      dup1\n      calldatasize\n      sub\n      dup2\n      add\n      swap1\n      tag_52\n      swap2\n      swap1\n      tag_41\n      jump\t// in\n    tag_52:\n      tag_53\n      jump\t// in\n    tag_51:\n      mload(0x40)\n      tag_54\n      swap2\n      swap1\n      tag_33\n      jump\t// in\n    tag_54:\n      mload(0x40)\n      dup1\n      swap2\n      sub\n      swap1\n      return\n        /* \"USDTFlash/contracts/USDTFlash.sol\":1424:1517  function symbol() public view virtual returns (string memory) {... */\n    tag_11:\n      tag_55\n      tag_56\n      jump\t// in\n    tag_55:\n      mload(0x40)\n      tag_57\n      swap2\n      swap1\n      tag_23\n      jump\t// in\n    tag_57:\n      mload(0x40)\n      dup1\n      swap2\n      sub\n      swap1\n      return\n        /* \"USDTFlash/contracts/USDTFlash.sol\":2119:2264  function mint(uint256 amount) public onlyFlashLoanContract returns (bool) {... */\n    tag_12:\n      tag_58\n      0x04\n      dup1\n      calldatasize\n      sub\n      dup2\n      add\n      swap1\n      tag_59\n      swap2\n      swap1\n      tag_60\n      jump\t// in\n    tag_59:\n      tag_61\n      jump\t// in\n    tag_58:\n      mload(0x40)\n      tag_62\n      swap2\n      swap1\n      tag_29\n      jump\t// in\n    tag_62:\n      mload(0x40)\n      dup1\n      swap2\n      sub\n      swap1\n      return\n        /* \"USDTFlash/contracts/USDTFlash.sol\":3095:3508  function decreaseAllowance(address spender, uint subtractedValue) public virtual returns (bool) {... */\n    tag_13:\n      tag_63\n      0x04\n      dup1\n      calldatasize\n      sub\n      dup2\n      add\n      swap1\n      tag_64\n      swap2\n      swap1\n      tag_26\n      jump\t// in\n    tag_64:\n      tag_65\n      jump\t// in\n    tag_63:\n      mload(0x40)\n      tag_66\n      swap2\n      swap1\n      tag_29\n      jump\t// in\n    tag_66:\n      mload(0x40)\n      dup1\n      swap2\n      sub\n      swap1\n      return\n        /* \"USDTFlash/contracts/USDTFlash.sol\":1935:2113  function transfer(address to, uint256 value) public virtual returns (bool) {... */\n    tag_14:\n      tag_67\n      0x04\n      dup1\n      calldatasize\n      sub\n      dup2\n      add\n      swap1\n      tag_68\n      swap2\n      swap1\n      tag_26\n      jump\t// in\n    tag_68:\n      tag_69\n      jump\t// in\n    tag_67:\n      mload(0x40)\n      tag_70\n      swap2\n      swap1\n      tag_29\n      jump\t// in\n    tag_70:\n      mload(0x40)\n      dup1\n      swap2\n      sub\n      swap1\n      return\n        /* \"USDTFlash/contracts/USDTFlash.sol\":1714:1807  function maxSupply() public view virtual returns (uint256) {... */\n    tag_15:\n      tag_71\n      tag_72\n      jump\t// in\n    tag_71:\n      mload(0x40)\n      tag_73\n      swap2\n      swap1\n      tag_33\n      jump\t// in\n    tag_73:\n      mload(0x40)\n      dup1\n      swap2\n      sub\n      swap1\n      return\n        /* \"USDTFlash/contracts/USDTFlash.sol\":2270:2410  function allowance(address owner, address spender) public view virtual returns (uint256) {... */\n    tag_16:\n      tag_74\n      0x04\n      dup1\n      calldatasize\n      sub\n      dup2\n      add\n      swap1\n      tag_75\n      swap2\n      swap1\n      tag_76\n      jump\t// in\n    tag_75:\n      tag_77\n      jump\t// in\n    tag_74:\n      mload(0x40)\n      tag_78\n      swap2\n      swap1\n      tag_33\n      jump\t// in\n    tag_78:\n      mload(0x40)\n      dup1\n      swap2\n      sub\n      swap1\n      return\n        /* \"USDTFlash/contracts/USDTFlash.sol\":1329:1418  function name() public view virtual returns (string memory) {... */\n    tag_21:\n        /* \"USDTFlash/contracts/USDTFlash.sol\":1374:1387  string memory */\n      0x60\n        /* \"USDTFlash/contracts/USDTFlash.sol\":1406:1411  _name */\n      0x04\n        /* \"USDTFlash/contracts/USDTFlash.sol\":1399:1411  return _name */\n      dup1\n      sload\n      tag_80\n      swap1\n      tag_81\n      jump\t// in\n    tag_80:\n      dup1\n      0x1f\n      add\n      0x20\n      dup1\n      swap2\n      div\n      mul\n      0x20\n      add\n      mload(0x40)\n      swap1\n      dup2\n      add\n      0x40\n      mstore\n      dup1\n      swap3\n      swap2\n      swap1\n      dup2\n      dup2\n      mstore\n      0x20\n      add\n      dup3\n      dup1\n      sload\n      tag_82\n      swap1\n      tag_81\n      jump\t// in\n    tag_82:\n      dup1\n      iszero\n      tag_83\n      jumpi\n      dup1\n      0x1f\n      lt\n      tag_84\n      jumpi\n      0x0100\n      dup1\n      dup4\n      sload\n      div\n      mul\n      dup4\n      mstore\n      swap2\n      0x20\n      add\n      swap2\n      jump(tag_83)\n    tag_84:\n      dup3\n      add\n      swap2\n      swap1\n      0x00\n      mstore\n      keccak256(0x00, 0x20)\n      swap1\n    tag_85:\n      dup2\n      sload\n      dup2\n      mstore\n      swap1\n      0x01\n      add\n      swap1\n      0x20\n      add\n      dup1\n      dup4\n      gt\n      tag_85\n      jumpi\n      dup3\n      swap1\n      sub\n      0x1f\n      and\n      dup3\n      add\n      swap2\n    tag_83:\n      pop\n      pop\n      pop\n      pop\n      pop\n      swap1\n      pop\n        /* \"USDTFlash/contracts/USDTFlash.sol\":1329:1418  function name() public view virtual returns (string memory) {... */\n      swap1\n      jump\t// out\n        /* \"USDTFlash/contracts/USDTFlash.sol\":2416:2602  function approve(address spender, uint256 value) public virtual returns (bool) {... */\n    tag_27:\n        /* \"USDTFlash/contracts/USDTFlash.sol\":2489:2493  bool */\n      0x00\n        /* \"USDTFlash/contracts/USDTFlash.sol\":2505:2518  address owner */\n      0x00\n        /* \"USDTFlash/contracts/USDTFlash.sol\":2521:2533  _msgSender() */\n      tag_87\n        /* \"USDTFlash/contracts/USDTFlash.sol\":2521:2531  _msgSender */\n      tag_88\n        /* \"USDTFlash/contracts/USDTFlash.sol\":2521:2533  _msgSender() */\n      jump\t// in\n    tag_87:\n        /* \"USDTFlash/contracts/USDTFlash.sol\":2505:2533  address owner = _msgSender() */\n      swap1\n      pop\n        /* \"USDTFlash/contracts/USDTFlash.sol\":2543:2574  _approve(owner, spender, value) */\n      tag_89\n        /* \"USDTFlash/contracts/USDTFlash.sol\":2552:2557  owner */\n      dup2\n        /* \"USDTFlash/contracts/USDTFlash.sol\":2559:2566  spender */\n      dup6\n        /* \"USDTFlash/contracts/USDTFlash.sol\":2568:2573  value */\n      dup6\n        /* \"USDTFlash/contracts/USDTFlash.sol\":2543:2551  _approve */\n      tag_90\n        /* \"USDTFlash/contracts/USDTFlash.sol\":2543:2574  _approve(owner, spender, value) */\n      jump\t// in\n    tag_89:\n        /* \"USDTFlash/contracts/USDTFlash.sol\":2591:2595  true */\n      0x01\n        /* \"USDTFlash/contracts/USDTFlash.sol\":2584:2595  return true */\n      swap2\n      pop\n      pop\n        /* \"USDTFlash/contracts/USDTFlash.sol\":2416:2602  function approve(address spender, uint256 value) public virtual returns (bool) {... */\n      swap3\n      swap2\n      pop\n      pop\n      jump\t// out\n        /* \"USDTFlash/contracts/USDTFlash.sol\":1611:1708  function totalSupply() public view virtual returns (uint256) {... */\n    tag_31:\n        /* \"USDTFlash/contracts/USDTFlash.sol\":1663:1670  uint256 */\n      0x00\n        /* \"USDTFlash/contracts/USDTFlash.sol\":1689:1701  _totalSupply */\n      sload(0x02)\n        /* \"USDTFlash/contracts/USDTFlash.sol\":1682:1701  return _totalSupply */\n      swap1\n      pop\n        /* \"USDTFlash/contracts/USDTFlash.sol\":1611:1708  function totalSupply() public view virtual returns (uint256) {... */\n      swap1\n      jump\t// out\n        /* \"USDTFlash/contracts/USDTFlash.sol\":2608:2852  function transferFrom(address from, address to, uint256 value) public virtual returns (bool) {... */\n    tag_37:\n        /* \"USDTFlash/contracts/USDTFlash.sol\":2695:2699  bool */\n      0x00\n        /* \"USDTFlash/contracts/USDTFlash.sol\":2711:2726  address spender */\n      0x00\n        /* \"USDTFlash/contracts/USDTFlash.sol\":2729:2741  _msgSender() */\n      tag_93\n        /* \"USDTFlash/contracts/USDTFlash.sol\":2729:2739  _msgSender */\n      tag_88\n        /* \"USDTFlash/contracts/USDTFlash.sol\":2729:2741  _msgSender() */\n      jump\t// in\n    tag_93:\n        /* \"USDTFlash/contracts/USDTFlash.sol\":2711:2741  address spender = _msgSender() */\n      swap1\n      pop\n        /* \"USDTFlash/contracts/USDTFlash.sol\":2751:2788  _spendAllowance(from, spender, value) */\n      tag_94\n        /* \"USDTFlash/contracts/USDTFlash.sol\":2767:2771  from */\n      dup6\n        /* \"USDTFlash/contracts/USDTFlash.sol\":2773:2780  spender */\n      dup3\n        /* \"USDTFlash/contracts/USDTFlash.sol\":2782:2787  value */\n      dup6\n        /* \"USDTFlash/contracts/USDTFlash.sol\":2751:2766  _spendAllowance */\n      tag_95\n        /* \"USDTFlash/contracts/USDTFlash.sol\":2751:2788  _spendAllowance(from, spender, value) */\n      jump\t// in\n    tag_94:\n        /* \"USDTFlash/contracts/USDTFlash.sol\":2798:2824  _transfer(from, to, value) */\n      tag_96\n        /* \"USDTFlash/contracts/USDTFlash.sol\":2808:2812  from */\n      dup6\n        /* \"USDTFlash/contracts/USDTFlash.sol\":2814:2816  to */\n      dup6\n        /* \"USDTFlash/contracts/USDTFlash.sol\":2818:2823  value */\n      dup6\n        /* \"USDTFlash/contracts/USDTFlash.sol\":2798:2807  _transfer */\n      tag_97\n        /* \"USDTFlash/contracts/USDTFlash.sol\":2798:2824  _transfer(from, to, value) */\n      jump\t// in\n    tag_96:\n        /* \"USDTFlash/contracts/USDTFlash.sol\":2841:2845  true */\n      0x01\n        /* \"USDTFlash/contracts/USDTFlash.sol\":2834:2845  return true */\n      swap2\n      pop\n      pop\n        /* \"USDTFlash/contracts/USDTFlash.sol\":2608:2852  function transferFrom(address from, address to, uint256 value) public virtual returns (bool) {... */\n      swap4\n      swap3\n      pop\n      pop\n      pop\n      jump\t// out\n        /* \"USDTFlash/contracts/USDTFlash.sol\":1192:1323  function setFlashLoanContract(address flashLoanContract) external onlyOwner {... */\n    tag_42:\n        /* \"USDTFlash/contracts/USDTFlash.sol\":948:954  _owner */\n      0x06\n      0x00\n      swap1\n      sload\n      swap1\n      0x0100\n      exp\n      swap1\n      div\n      0xffffffffffffffffffffffffffffffffffffffff\n      and\n        /* \"USDTFlash/contracts/USDTFlash.sol\":934:954  msg.sender == _owner */\n      0xffffffffffffffffffffffffffffffffffffffff\n      and\n        /* \"USDTFlash/contracts/USDTFlash.sol\":934:944  msg.sender */\n      caller\n        /* \"USDTFlash/contracts/USDTFlash.sol\":934:954  msg.sender == _owner */\n      0xffffffffffffffffffffffffffffffffffffffff\n      and\n      eq\n        /* \"USDTFlash/contracts/USDTFlash.sol\":926:1005  require(msg.sender == _owner, \"Only the contract owner can call this function\") */\n      tag_99\n      jumpi\n      mload(0x40)\n      0x08c379a000000000000000000000000000000000000000000000000000000000\n      dup2\n      mstore\n      0x04\n      add\n      tag_100\n      swap1\n      tag_101\n      jump\t// in\n    tag_100:\n      mload(0x40)\n      dup1\n      swap2\n      sub\n      swap1\n      revert\n    tag_99:\n        /* \"USDTFlash/contracts/USDTFlash.sol\":1299:1316  flashLoanContract */\n      dup1\n        /* \"USDTFlash/contracts/USDTFlash.sol\":1278:1296  _flashLoanContract */\n      0x07\n      0x00\n        /* \"USDTFlash/contracts/USDTFlash.sol\":1278:1316  _flashLoanContract = flashLoanContract */\n      0x0100\n      exp\n      dup2\n      sload\n      dup2\n      0xffffffffffffffffffffffffffffffffffffffff\n      mul\n      not\n      and\n      swap1\n      dup4\n      0xffffffffffffffffffffffffffffffffffffffff\n      and\n      mul\n      or\n      swap1\n      sstore\n      pop\n        /* \"USDTFlash/contracts/USDTFlash.sol\":1192:1323  function setFlashLoanContract(address flashLoanContract) external onlyOwner {... */\n      pop\n      jump\t// out\n        /* \"USDTFlash/contracts/USDTFlash.sol\":1523:1605  function decimals() public view virtual returns (uint8) {... */\n    tag_44:\n        /* \"USDTFlash/contracts/USDTFlash.sol\":1572:1577  uint8 */\n      0x00\n        /* \"USDTFlash/contracts/USDTFlash.sol\":1596:1598  18 */\n      0x12\n        /* \"USDTFlash/contracts/USDTFlash.sol\":1589:1598  return 18 */\n      swap1\n      pop\n        /* \"USDTFlash/contracts/USDTFlash.sol\":1523:1605  function decimals() public view virtual returns (uint8) {... */\n      swap1\n      jump\t// out\n        /* \"USDTFlash/contracts/USDTFlash.sol\":2858:3089  function increaseAllowance(address spender, uint addedValue) public virtual returns (bool) {... */\n    tag_49:\n        /* \"USDTFlash/contracts/USDTFlash.sol\":2943:2947  bool */\n      0x00\n        /* \"USDTFlash/contracts/USDTFlash.sol\":2959:2972  address owner */\n      0x00\n        /* \"USDTFlash/contracts/USDTFlash.sol\":2975:2987  _msgSender() */\n      tag_105\n        /* \"USDTFlash/contracts/USDTFlash.sol\":2975:2985  _msgSender */\n      tag_88\n        /* \"USDTFlash/contracts/USDTFlash.sol\":2975:2987  _msgSender() */\n      jump\t// in\n    tag_105:\n        /* \"USDTFlash/contracts/USDTFlash.sol\":2959:2987  address owner = _msgSender() */\n      swap1\n      pop\n        /* \"USDTFlash/contracts/USDTFlash.sol\":2997:3061  _approve(owner, spender, allowance(owner, spender) + addedValue) */\n      tag_106\n        /* \"USDTFlash/contracts/USDTFlash.sol\":3006:3011  owner */\n      dup2\n        /* \"USDTFlash/contracts/USDTFlash.sol\":3013:3020  spender */\n      dup6\n        /* \"USDTFlash/contracts/USDTFlash.sol\":3050:3060  addedValue */\n      dup6\n        /* \"USDTFlash/contracts/USDTFlash.sol\":3022:3047  allowance(owner, spender) */\n      tag_107\n        /* \"USDTFlash/contracts/USDTFlash.sol\":3032:3037  owner */\n      dup6\n        /* \"USDTFlash/contracts/USDTFlash.sol\":3039:3046  spender */\n      dup10\n        /* \"USDTFlash/contracts/USDTFlash.sol\":3022:3031  allowance */\n      tag_77\n        /* \"USDTFlash/contracts/USDTFlash.sol\":3022:3047  allowance(owner, spender) */\n      jump\t// in\n    tag_107:\n        /* \"USDTFlash/contracts/USDTFlash.sol\":3022:3060  allowance(owner, spender) + addedValue */\n      tag_108\n      swap2\n      swap1\n      tag_109\n      jump\t// in\n    tag_108:\n        /* \"USDTFlash/contracts/USDTFlash.sol\":2997:3005  _approve */\n      tag_90\n        /* \"USDTFlash/contracts/USDTFlash.sol\":2997:3061  _approve(owner, spender, allowance(owner, spender) + addedValue) */\n      jump\t// in\n    tag_106:\n        /* \"USDTFlash/contracts/USDTFlash.sol\":3078:3082  true */\n      0x01\n        /* \"USDTFlash/contracts/USDTFlash.sol\":3071:3082  return true */\n      swap2\n      pop\n      pop\n        /* \"USDTFlash/contracts/USDTFlash.sol\":2858:3089  function increaseAllowance(address spender, uint addedValue) public virtual returns (bool) {... */\n      swap3\n      swap2\n      pop\n      pop\n      jump\t// out\n        /* \"USDTFlash/contracts/USDTFlash.sol\":1813:1929  function balanceOf(address account) public view virtual returns (uint256) {... */\n    tag_53:\n        /* \"USDTFlash/contracts/USDTFlash.sol\":1878:1885  uint256 */\n      0x00\n        /* \"USDTFlash/contracts/USDTFlash.sol\":1904:1913  _balances */\n      0x00\n        /* \"USDTFlash/contracts/USDTFlash.sol\":1904:1922  _balances[account] */\n      0x00\n        /* \"USDTFlash/contracts/USDTFlash.sol\":1914:1921  account */\n      dup4\n        /* \"USDTFlash/contracts/USDTFlash.sol\":1904:1922  _balances[account] */\n      0xffffffffffffffffffffffffffffffffffffffff\n      and\n      0xffffffffffffffffffffffffffffffffffffffff\n      and\n      dup2\n      mstore\n      0x20\n      add\n      swap1\n      dup2\n      mstore\n      0x20\n      add\n      0x00\n      keccak256\n      sload\n        /* \"USDTFlash/contracts/USDTFlash.sol\":1897:1922  return _balances[account] */\n      swap1\n      pop\n        /* \"USDTFlash/contracts/USDTFlash.sol\":1813:1929  function balanceOf(address account) public view virtual returns (uint256) {... */\n      swap2\n      swap1\n      pop\n      jump\t// out\n        /* \"USDTFlash/contracts/USDTFlash.sol\":1424:1517  function symbol() public view virtual returns (string memory) {... */\n    tag_56:\n        /* \"USDTFlash/contracts/USDTFlash.sol\":1471:1484  string memory */\n      0x60\n        /* \"USDTFlash/contracts/USDTFlash.sol\":1503:1510  _symbol */\n      0x05\n        /* \"USDTFlash/contracts/USDTFlash.sol\":1496:1510  return _symbol */\n      dup1\n      sload\n      tag_112\n      swap1\n      tag_81\n      jump\t// in\n    tag_112:\n      dup1\n      0x1f\n      add\n      0x20\n      dup1\n      swap2\n      div\n      mul\n      0x20\n      add\n      mload(0x40)\n      swap1\n      dup2\n      add\n      0x40\n      mstore\n      dup1\n      swap3\n      swap2\n      swap1\n      dup2\n      dup2\n      mstore\n      0x20\n      add\n      dup3\n      dup1\n      sload\n      tag_113\n      swap1\n      tag_81\n      jump\t// in\n    tag_113:\n      dup1\n      iszero\n      tag_114\n      jumpi\n      dup1\n      0x1f\n      lt\n      tag_115\n      jumpi\n      0x0100\n      dup1\n      dup4\n      sload\n      div\n      mul\n      dup4\n      mstore\n      swap2\n      0x20\n      add\n      swap2\n      jump(tag_114)\n    tag_115:\n      dup3\n      add\n      swap2\n      swap1\n      0x00\n      mstore\n      keccak256(0x00, 0x20)\n      swap1\n    tag_116:\n      dup2\n      sload\n      dup2\n      mstore\n      swap1\n      0x01\n      add\n      swap1\n      0x20\n      add\n      dup1\n      dup4\n      gt\n      tag_116\n      jumpi\n      dup3\n      swap1\n      sub\n      0x1f\n      and\n      dup3\n      add\n      swap2\n    tag_114:\n      pop\n      pop\n      pop\n      pop\n      pop\n      swap1\n      pop\n        /* \"USDTFlash/contracts/USDTFlash.sol\":1424:1517  function symbol() public view virtual returns (string memory) {... */\n      swap1\n      jump\t// out\n        /* \"USDTFlash/contracts/USDTFlash.sol\":2119:2264  function mint(uint256 amount) public onlyFlashLoanContract returns (bool) {... */\n    tag_61:\n        /* \"USDTFlash/contracts/USDTFlash.sol\":2187:2191  bool */\n      0x00\n        /* \"USDTFlash/contracts/USDTFlash.sol\":1094:1112  _flashLoanContract */\n      0x07\n      0x00\n      swap1\n      sload\n      swap1\n      0x0100\n      exp\n      swap1\n      div\n      0xffffffffffffffffffffffffffffffffffffffff\n      and\n        /* \"USDTFlash/contracts/USDTFlash.sol\":1080:1112  msg.sender == _flashLoanContract */\n      0xffffffffffffffffffffffffffffffffffffffff\n      and\n        /* \"USDTFlash/contracts/USDTFlash.sol\":1080:1090  msg.sender */\n      caller\n        /* \"USDTFlash/contracts/USDTFlash.sol\":1080:1112  msg.sender == _flashLoanContract */\n      0xffffffffffffffffffffffffffffffffffffffff\n      and\n      eq\n        /* \"USDTFlash/contracts/USDTFlash.sol\":1072:1168  require(msg.sender == _flashLoanContract, \"Only the flash loan contract can call this function\") */\n      tag_118\n      jumpi\n      mload(0x40)\n      0x08c379a000000000000000000000000000000000000000000000000000000000\n      dup2\n      mstore\n      0x04\n      add\n      tag_119\n      swap1\n      tag_120\n      jump\t// in\n    tag_119:\n      mload(0x40)\n      dup1\n      swap2\n      sub\n      swap1\n      revert\n    tag_118:\n        /* \"USDTFlash/contracts/USDTFlash.sol\":2203:2236  _mint(_flashLoanContract, amount) */\n      tag_122\n        /* \"USDTFlash/contracts/USDTFlash.sol\":2209:2227  _flashLoanContract */\n      0x07\n      0x00\n      swap1\n      sload\n      swap1\n      0x0100\n      exp\n      swap1\n      div\n      0xffffffffffffffffffffffffffffffffffffffff\n      and\n        /* \"USDTFlash/contracts/USDTFlash.sol\":2229:2235  amount */\n      dup4\n        /* \"USDTFlash/contracts/USDTFlash.sol\":2203:2208  _mint */\n      tag_123\n        /* \"USDTFlash/contracts/USDTFlash.sol\":2203:2236  _mint(_flashLoanContract, amount) */\n      jump\t// in\n    tag_122:\n        /* \"USDTFlash/contracts/USDTFlash.sol\":2253:2257  true */\n      0x01\n        /* \"USDTFlash/contracts/USDTFlash.sol\":2246:2257  return true */\n      swap1\n      pop\n        /* \"USDTFlash/contracts/USDTFlash.sol\":2119:2264  function mint(uint256 amount) public onlyFlashLoanContract returns (bool) {... */\n      swap2\n      swap1\n      pop\n      jump\t// out\n        /* \"USDTFlash/contracts/USDTFlash.sol\":3095:3508  function decreaseAllowance(address spender, uint subtractedValue) public virtual returns (bool) {... */\n    tag_65:\n        /* \"USDTFlash/contracts/USDTFlash.sol\":3185:3189  bool */\n      0x00\n        /* \"USDTFlash/contracts/USDTFlash.sol\":3201:3214  address owner */\n      0x00\n        /* \"USDTFlash/contracts/USDTFlash.sol\":3217:3229  _msgSender() */\n      tag_125\n        /* \"USDTFlash/contracts/USDTFlash.sol\":3217:3227  _msgSender */\n      tag_88\n        /* \"USDTFlash/contracts/USDTFlash.sol\":3217:3229  _msgSender() */\n      jump\t// in\n    tag_125:\n        /* \"USDTFlash/contracts/USDTFlash.sol\":3201:3229  address owner = _msgSender() */\n      swap1\n      pop\n        /* \"USDTFlash/contracts/USDTFlash.sol\":3239:3263  uint256 currentAllowance */\n      0x00\n        /* \"USDTFlash/contracts/USDTFlash.sol\":3266:3291  allowance(owner, spender) */\n      tag_126\n        /* \"USDTFlash/contracts/USDTFlash.sol\":3276:3281  owner */\n      dup3\n        /* \"USDTFlash/contracts/USDTFlash.sol\":3283:3290  spender */\n      dup7\n        /* \"USDTFlash/contracts/USDTFlash.sol\":3266:3275  allowance */\n      tag_77\n        /* \"USDTFlash/contracts/USDTFlash.sol\":3266:3291  allowance(owner, spender) */\n      jump\t// in\n    tag_126:\n        /* \"USDTFlash/contracts/USDTFlash.sol\":3239:3291  uint256 currentAllowance = allowance(owner, spender) */\n      swap1\n      pop\n        /* \"USDTFlash/contracts/USDTFlash.sol\":3329:3344  subtractedValue */\n      dup4\n        /* \"USDTFlash/contracts/USDTFlash.sol\":3309:3325  currentAllowance */\n      dup2\n        /* \"USDTFlash/contracts/USDTFlash.sol\":3309:3344  currentAllowance >= subtractedValue */\n      lt\n      iszero\n        /* \"USDTFlash/contracts/USDTFlash.sol\":3301:3376  require(currentAllowance >= subtractedValue, \"ERC20: allowance below zero\") */\n      tag_127\n      jumpi\n      mload(0x40)\n      0x08c379a000000000000000000000000000000000000000000000000000000000\n      dup2\n      mstore\n      0x04\n      add\n      tag_128\n      swap1\n      tag_129\n      jump\t// in\n    tag_128:\n      mload(0x40)\n      dup1\n      swap2\n      sub\n      swap1\n      revert\n    tag_127:\n        /* \"USDTFlash/contracts/USDTFlash.sol\":3410:3470  _approve(owner, spender, currentAllowance - subtractedValue) */\n      tag_130\n        /* \"USDTFlash/contracts/USDTFlash.sol\":3419:3424  owner */\n      dup3\n        /* \"USDTFlash/contracts/USDTFlash.sol\":3426:3433  spender */\n      dup7\n        /* \"USDTFlash/contracts/USDTFlash.sol\":3454:3469  subtractedValue */\n      dup7\n        /* \"USDTFlash/contracts/USDTFlash.sol\":3435:3451  currentAllowance */\n      dup5\n        /* \"USDTFlash/contracts/USDTFlash.sol\":3435:3469  currentAllowance - subtractedValue */\n      sub\n        /* \"USDTFlash/contracts/USDTFlash.sol\":3410:3418  _approve */\n      tag_90\n        /* \"USDTFlash/contracts/USDTFlash.sol\":3410:3470  _approve(owner, spender, currentAllowance - subtractedValue) */\n      jump\t// in\n    tag_130:\n        /* \"USDTFlash/contracts/USDTFlash.sol\":3497:3501  true */\n      0x01\n        /* \"USDTFlash/contracts/USDTFlash.sol\":3490:3501  return true */\n      swap3\n      pop\n      pop\n      pop\n        /* \"USDTFlash/contracts/USDTFlash.sol\":3095:3508  function decreaseAllowance(address spender, uint subtractedValue) public virtual returns (bool) {... */\n      swap3\n      swap2\n      pop\n      pop\n      jump\t// out\n        /* \"USDTFlash/contracts/USDTFlash.sol\":1935:2113  function transfer(address to, uint256 value) public virtual returns (bool) {... */\n    tag_69:\n        /* \"USDTFlash/contracts/USDTFlash.sol\":2004:2008  bool */\n      0x00\n        /* \"USDTFlash/contracts/USDTFlash.sol\":2020:2033  address owner */\n      0x00\n        /* \"USDTFlash/contracts/USDTFlash.sol\":2036:2048  _msgSender() */\n      tag_132\n        /* \"USDTFlash/contracts/USDTFlash.sol\":2036:2046  _msgSender */\n      tag_88\n        /* \"USDTFlash/contracts/USDTFlash.sol\":2036:2048  _msgSender() */\n      jump\t// in\n    tag_132:\n        /* \"USDTFlash/contracts/USDTFlash.sol\":2020:2048  address owner = _msgSender() */\n      swap1\n      pop\n        /* \"USDTFlash/contracts/USDTFlash.sol\":2058:2085  _transfer(owner, to, value) */\n      tag_133\n        /* \"USDTFlash/contracts/USDTFlash.sol\":2068:2073  owner */\n      dup2\n        /* \"USDTFlash/contracts/USDTFlash.sol\":2075:2077  to */\n      dup6\n        /* \"USDTFlash/contracts/USDTFlash.sol\":2079:2084  value */\n      dup6\n        /* \"USDTFlash/contracts/USDTFlash.sol\":2058:2067  _transfer */\n      tag_97\n        /* \"USDTFlash/contracts/USDTFlash.sol\":2058:2085  _transfer(owner, to, value) */\n      jump\t// in\n    tag_133:\n        /* \"USDTFlash/contracts/USDTFlash.sol\":2102:2106  true */\n      0x01\n        /* \"USDTFlash/contracts/USDTFlash.sol\":2095:2106  return true */\n      swap2\n      pop\n      pop\n        /* \"USDTFlash/contracts/USDTFlash.sol\":1935:2113  function transfer(address to, uint256 value) public virtual returns (bool) {... */\n      swap3\n      swap2\n      pop\n      pop\n      jump\t// out\n        /* \"USDTFlash/contracts/USDTFlash.sol\":1714:1807  function maxSupply() public view virtual returns (uint256) {... */\n    tag_72:\n        /* \"USDTFlash/contracts/USDTFlash.sol\":1764:1771  uint256 */\n      0x00\n        /* \"USDTFlash/contracts/USDTFlash.sol\":1790:1800  _maxSupply */\n      sload(0x03)\n        /* \"USDTFlash/contracts/USDTFlash.sol\":1783:1800  return _maxSupply */\n      swap1\n      pop\n        /* \"USDTFlash/contracts/USDTFlash.sol\":1714:1807  function maxSupply() public view virtual returns (uint256) {... */\n      swap1\n      jump\t// out\n        /* \"USDTFlash/contracts/USDTFlash.sol\":2270:2410  function allowance(address owner, address spender) public view virtual returns (uint256) {... */\n    tag_77:\n        /* \"USDTFlash/contracts/USDTFlash.sol\":2350:2357  uint256 */\n      0x00\n        /* \"USDTFlash/contracts/USDTFlash.sol\":2376:2387  _allowances */\n      0x01\n        /* \"USDTFlash/contracts/USDTFlash.sol\":2376:2394  _allowances[owner] */\n      0x00\n        /* \"USDTFlash/contracts/USDTFlash.sol\":2388:2393  owner */\n      dup5\n        /* \"USDTFlash/contracts/USDTFlash.sol\":2376:2394  _allowances[owner] */\n      0xffffffffffffffffffffffffffffffffffffffff\n      and\n      0xffffffffffffffffffffffffffffffffffffffff\n      and\n      dup2\n      mstore\n      0x20\n      add\n      swap1\n      dup2\n      mstore\n      0x20\n      add\n      0x00\n      keccak256\n        /* \"USDTFlash/contracts/USDTFlash.sol\":2376:2403  _allowances[owner][spender] */\n      0x00\n        /* \"USDTFlash/contracts/USDTFlash.sol\":2395:2402  spender */\n      dup4\n        /* \"USDTFlash/contracts/USDTFlash.sol\":2376:2403  _allowances[owner][spender] */\n      0xffffffffffffffffffffffffffffffffffffffff\n      and\n      0xffffffffffffffffffffffffffffffffffffffff\n      and\n      dup2\n      mstore\n      0x20\n      add\n      swap1\n      dup2\n      mstore\n      0x20\n      add\n      0x00\n      keccak256\n      sload\n        /* \"USDTFlash/contracts/USDTFlash.sol\":2369:2403  return _allowances[owner][spender] */\n      swap1\n      pop\n        /* \"USDTFlash/contracts/USDTFlash.sol\":2270:2410  function allowance(address owner, address spender) public view virtual returns (uint256) {... */\n      swap3\n      swap2\n      pop\n      pop\n      jump\t// out\n        /* \"USDTFlash/contracts/utils/Context.sol\":657:753  function _msgSender() internal view virtual returns (address) {... */\n    tag_88:\n        /* \"USDTFlash/contracts/utils/Context.sol\":710:717  address */\n      0x00\n        /* \"USDTFlash/contracts/utils/Context.sol\":736:746  msg.sender */\n      caller\n        /* \"USDTFlash/contracts/utils/Context.sol\":729:746  return msg.sender */\n      swap1\n      pop\n        /* \"USDTFlash/contracts/utils/Context.sol\":657:753  function _msgSender() internal view virtual returns (address) {... */\n      swap1\n      jump\t// out\n        /* \"USDTFlash/contracts/USDTFlash.sol\":5044:5172  function _approve(address owner, address spender, uint256 value) internal {... */\n    tag_90:\n        /* \"USDTFlash/contracts/USDTFlash.sol\":5128:5165  _approve(owner, spender, value, true) */\n      tag_138\n        /* \"USDTFlash/contracts/USDTFlash.sol\":5137:5142  owner */\n      dup4\n        /* \"USDTFlash/contracts/USDTFlash.sol\":5144:5151  spender */\n      dup4\n        /* \"USDTFlash/contracts/USDTFlash.sol\":5153:5158  value */\n      dup4\n        /* \"USDTFlash/contracts/USDTFlash.sol\":5160:5164  true */\n      0x01\n        /* \"USDTFlash/contracts/USDTFlash.sol\":5128:5136  _approve */\n      tag_139\n        /* \"USDTFlash/contracts/USDTFlash.sol\":5128:5165  _approve(owner, spender, value, true) */\n      jump\t// in\n    tag_138:\n        /* \"USDTFlash/contracts/USDTFlash.sol\":5044:5172  function _approve(address owner, address spender, uint256 value) internal {... */\n      pop\n      pop\n      pop\n      jump\t// out\n        /* \"USDTFlash/contracts/USDTFlash.sol\":5616:6093  function _spendAllowance(address owner, address spender, uint256 value) internal virtual {... */\n    tag_95:\n        /* \"USDTFlash/contracts/USDTFlash.sol\":5715:5739  uint256 currentAllowance */\n      0x00\n        /* \"USDTFlash/contracts/USDTFlash.sol\":5742:5767  allowance(owner, spender) */\n      tag_141\n        /* \"USDTFlash/contracts/USDTFlash.sol\":5752:5757  owner */\n      dup5\n        /* \"USDTFlash/contracts/USDTFlash.sol\":5759:5766  spender */\n      dup5\n        /* \"USDTFlash/contracts/USDTFlash.sol\":5742:5751  allowance */\n      tag_77\n        /* \"USDTFlash/contracts/USDTFlash.sol\":5742:5767  allowance(owner, spender) */\n      jump\t// in\n    tag_141:\n        /* \"USDTFlash/contracts/USDTFlash.sol\":5715:5767  uint256 currentAllowance = allowance(owner, spender) */\n      swap1\n      pop\n        /* \"USDTFlash/contracts/USDTFlash.sol\":5801:5818  type(uint256).max */\n      0xffffffffffffffffffffffffffffffffffffffffffffffffffffffffffffffff\n        /* \"USDTFlash/contracts/USDTFlash.sol\":5781:5797  currentAllowance */\n      dup2\n        /* \"USDTFlash/contracts/USDTFlash.sol\":5781:5818  currentAllowance != type(uint256).max */\n      eq\n        /* \"USDTFlash/contracts/USDTFlash.sol\":5777:6087  if (currentAllowance != type(uint256).max) {... */\n      tag_142\n      jumpi\n        /* \"USDTFlash/contracts/USDTFlash.sol\":5857:5862  value */\n      dup2\n        /* \"USDTFlash/contracts/USDTFlash.sol\":5838:5854  currentAllowance */\n      dup2\n        /* \"USDTFlash/contracts/USDTFlash.sol\":5838:5862  currentAllowance < value */\n      lt\n        /* \"USDTFlash/contracts/USDTFlash.sol\":5834:5964  if (currentAllowance < value) {... */\n      iszero\n      tag_143\n      jumpi\n        /* \"USDTFlash/contracts/USDTFlash.sol\":5916:5923  spender */\n      dup3\n        /* \"USDTFlash/contracts/USDTFlash.sol\":5925:5941  currentAllowance */\n      dup2\n        /* \"USDTFlash/contracts/USDTFlash.sol\":5943:5948  value */\n      dup4\n        /* \"USDTFlash/contracts/USDTFlash.sol\":5889:5949  ERC20InsufficientAllowance(spender, currentAllowance, value) */\n      mload(0x40)\n      0xfb8f41b200000000000000000000000000000000000000000000000000000000\n      dup2\n      mstore\n      0x04\n      add\n      tag_144\n      swap4\n      swap3\n      swap2\n      swap1\n      tag_145\n      jump\t// in\n    tag_144:\n      mload(0x40)\n      dup1\n      swap2\n      sub\n      swap1\n      revert\n        /* \"USDTFlash/contracts/USDTFlash.sol\":5834:5964  if (currentAllowance < value) {... */\n    tag_143:\n        /* \"USDTFlash/contracts/USDTFlash.sol\":6005:6062  _approve(owner, spender, currentAllowance - value, false) */\n      tag_146\n        /* \"USDTFlash/contracts/USDTFlash.sol\":6014:6019  owner */\n      dup5\n        /* \"USDTFlash/contracts/USDTFlash.sol\":6021:6028  spender */\n      dup5\n        /* \"USDTFlash/contracts/USDTFlash.sol\":6049:6054  value */\n      dup5\n        /* \"USDTFlash/contracts/USDTFlash.sol\":6030:6046  currentAllowance */\n      dup5\n        /* \"USDTFlash/contracts/USDTFlash.sol\":6030:6054  currentAllowance - value */\n      sub\n        /* \"USDTFlash/contracts/USDTFlash.sol\":6056:6061  false */\n      0x00\n        /* \"USDTFlash/contracts/USDTFlash.sol\":6005:6013  _approve */\n      tag_139\n        /* \"USDTFlash/contracts/USDTFlash.sol\":6005:6062  _approve(owner, spender, currentAllowance - value, false) */\n      jump\t// in\n    tag_146:\n        /* \"USDTFlash/contracts/USDTFlash.sol\":5777:6087  if (currentAllowance != type(uint256).max) {... */\n    tag_142:\n        /* \"USDTFlash/contracts/USDTFlash.sol\":5705:6093  {... */\n      pop\n        /* \"USDTFlash/contracts/USDTFlash.sol\":5616:6093  function _spendAllowance(address owner, address spender, uint256 value) internal virtual {... */\n      pop\n      pop\n      pop\n      jump\t// out\n        /* \"USDTFlash/contracts/USDTFlash.sol\":3514:3814  function _transfer(address from, address to, uint256 value) internal {... */\n    tag_97:\n        /* \"USDTFlash/contracts/USDTFlash.sol\":3613:3614  0 */\n      0x00\n        /* \"USDTFlash/contracts/USDTFlash.sol\":3597:3615  from == address(0) */\n      0xffffffffffffffffffffffffffffffffffffffff\n      and\n        /* \"USDTFlash/contracts/USDTFlash.sol\":3597:3601  from */\n      dup4\n        /* \"USDTFlash/contracts/USDTFlash.sol\":3597:3615  from == address(0) */\n      0xffffffffffffffffffffffffffffffffffffffff\n      and\n      sub\n        /* \"USDTFlash/contracts/USDTFlash.sol\":3593:3679  if (from == address(0)) {... */\n      tag_148\n      jumpi\n        /* \"USDTFlash/contracts/USDTFlash.sol\":3665:3666  0 */\n      0x00\n        /* \"USDTFlash/contracts/USDTFlash.sol\":3638:3668  ERC20InvalidSender(address(0)) */\n      mload(0x40)\n      0x96c6fd1e00000000000000000000000000000000000000000000000000000000\n      dup2\n      mstore\n      0x04\n      add\n      tag_149\n      swap2\n      swap1\n      tag_150\n      jump\t// in\n    tag_149:\n      mload(0x40)\n      dup1\n      swap2\n      sub\n      swap1\n      revert\n        /* \"USDTFlash/contracts/USDTFlash.sol\":3593:3679  if (from == address(0)) {... */\n    tag_148:\n        /* \"USDTFlash/contracts/USDTFlash.sol\":3706:3707  0 */\n      0x00\n        /* \"USDTFlash/contracts/USDTFlash.sol\":3692:3708  to == address(0) */\n      0xffffffffffffffffffffffffffffffffffffffff\n      and\n        /* \"USDTFlash/contracts/USDTFlash.sol\":3692:3694  to */\n      dup3\n        /* \"USDTFlash/contracts/USDTFlash.sol\":3692:3708  to == address(0) */\n      0xffffffffffffffffffffffffffffffffffffffff\n      and\n      sub\n        /* \"USDTFlash/contracts/USDTFlash.sol\":3688:3774  if (to == address(0)) {... */\n      tag_151\n      jumpi\n        /* \"USDTFlash/contracts/USDTFlash.sol\":3760:3761  0 */\n      0x00\n        /* \"USDTFlash/contracts/USDTFlash.sol\":3731:3763  ERC20InvalidReceiver(address(0)) */\n      mload(0x40)\n      0xec442f0500000000000000000000000000000000000000000000000000000000\n      dup2\n      mstore\n      0x04\n      add\n      tag_152\n      swap2\n      swap1\n      tag_150\n      jump\t// in\n    tag_152:\n      mload(0x40)\n      dup1\n      swap2\n      sub\n      swap1\n      revert\n        /* \"USDTFlash/contracts/USDTFlash.sol\":3688:3774  if (to == address(0)) {... */\n    tag_151:\n        /* \"USDTFlash/contracts/USDTFlash.sol\":3783:3807  _update(from, to, value) */\n      tag_153\n        /* \"USDTFlash/contracts/USDTFlash.sol\":3791:3795  from */\n      dup4\n        /* \"USDTFlash/contracts/USDTFlash.sol\":3797:3799  to */\n      dup4\n        /* \"USDTFlash/contracts/USDTFlash.sol\":3801:3806  value */\n      dup4\n        /* \"USDTFlash/contracts/USDTFlash.sol\":3783:3790  _update */\n      tag_154\n        /* \"USDTFlash/contracts/USDTFlash.sol\":3783:3807  _update(from, to, value) */\n      jump\t// in\n    tag_153:\n        /* \"USDTFlash/contracts/USDTFlash.sol\":3514:3814  function _transfer(address from, address to, uint256 value) internal {... */\n      pop\n      pop\n      pop\n      jump\t// out\n        /* \"USDTFlash/contracts/USDTFlash.sol\":4532:4826  function _mint(address account, uint256 value) internal {... */\n    tag_123:\n        /* \"USDTFlash/contracts/USDTFlash.sol\":4621:4622  0 */\n      0x00\n        /* \"USDTFlash/contracts/USDTFlash.sol\":4602:4623  account == address(0) */\n      0xffffffffffffffffffffffffffffffffffffffff\n      and\n        /* \"USDTFlash/contracts/USDTFlash.sol\":4602:4609  account */\n      dup3\n        /* \"USDTFlash/contracts/USDTFlash.sol\":4602:4623  account == address(0) */\n      0xffffffffffffffffffffffffffffffffffffffff\n      and\n      sub\n        /* \"USDTFlash/contracts/USDTFlash.sol\":4598:4689  if (account == address(0)) {... */\n      tag_156\n      jumpi\n        /* \"USDTFlash/contracts/USDTFlash.sol\":4675:4676  0 */\n      0x00\n        /* \"USDTFlash/contracts/USDTFlash.sol\":4646:4678  ERC20InvalidReceiver(address(0)) */\n      mload(0x40)\n      0xec442f0500000000000000000000000000000000000000000000000000000000\n      dup2\n      mstore\n      0x04\n      add\n      tag_157\n      swap2\n      swap1\n      tag_150\n      jump\t// in\n    tag_157:\n      mload(0x40)\n      dup1\n      swap2\n      sub\n      swap1\n      revert\n        /* \"USDTFlash/contracts/USDTFlash.sol\":4598:4689  if (account == address(0)) {... */\n    tag_156:\n        /* \"USDTFlash/contracts/USDTFlash.sol\":4730:4740  _maxSupply */\n      sload(0x03)\n        /* \"USDTFlash/contracts/USDTFlash.sol\":4721:4726  value */\n      dup2\n        /* \"USDTFlash/contracts/USDTFlash.sol\":4706:4718  _totalSupply */\n      sload(0x02)\n        /* \"USDTFlash/contracts/USDTFlash.sol\":4706:4726  _totalSupply + value */\n      tag_158\n      swap2\n      swap1\n      tag_109\n      jump\t// in\n    tag_158:\n        /* \"USDTFlash/contracts/USDTFlash.sol\":4706:4740  _totalSupply + value <= _maxSupply */\n      gt\n      iszero\n        /* \"USDTFlash/contracts/USDTFlash.sol\":4698:4774  require(_totalSupply + value <= _maxSupply, \"ERC20: Maximum supply reached\") */\n      tag_159\n      jumpi\n      mload(0x40)\n      0x08c379a000000000000000000000000000000000000000000000000000000000\n      dup2\n      mstore\n      0x04\n      add\n      tag_160\n      swap1\n      tag_161\n      jump\t// in\n    tag_160:\n      mload(0x40)\n      dup1\n      swap2\n      sub\n      swap1\n      revert\n    tag_159:\n        /* \"USDTFlash/contracts/USDTFlash.sol\":4784:4819  _update(address(0), account, value) */\n      tag_162\n        /* \"USDTFlash/contracts/USDTFlash.sol\":4800:4801  0 */\n      0x00\n        /* \"USDTFlash/contracts/USDTFlash.sol\":4804:4811  account */\n      dup4\n        /* \"USDTFlash/contracts/USDTFlash.sol\":4813:4818  value */\n      dup4\n        /* \"USDTFlash/contracts/USDTFlash.sol\":4784:4791  _update */\n      tag_154\n        /* \"USDTFlash/contracts/USDTFlash.sol\":4784:4819  _update(address(0), account, value) */\n      jump\t// in\n    tag_162:\n        /* \"USDTFlash/contracts/USDTFlash.sol\":4532:4826  function _mint(address account, uint256 value) internal {... */\n      pop\n      pop\n      jump\t// out\n        /* \"USDTFlash/contracts/USDTFlash.sol\":5178:5610  function _approve(address owner, address spender, uint256 value, bool emitEvent) internal virtual {... */\n    tag_139:\n        /* \"USDTFlash/contracts/USDTFlash.sol\":5307:5308  0 */\n      0x00\n        /* \"USDTFlash/contracts/USDTFlash.sol\":5290:5309  owner == address(0) */\n      0xffffffffffffffffffffffffffffffffffffffff\n      and\n        /* \"USDTFlash/contracts/USDTFlash.sol\":5290:5295  owner */\n      dup5\n        /* \"USDTFlash/contracts/USDTFlash.sol\":5290:5309  owner == address(0) */\n      0xffffffffffffffffffffffffffffffffffffffff\n      and\n      sub\n        /* \"USDTFlash/contracts/USDTFlash.sol\":5286:5375  if (owner == address(0)) {... */\n      tag_164\n      jumpi\n        /* \"USDTFlash/contracts/USDTFlash.sol\":5361:5362  0 */\n      0x00\n        /* \"USDTFlash/contracts/USDTFlash.sol\":5332:5364  ERC20InvalidApprover(address(0)) */\n      mload(0x40)\n      0xe602df0500000000000000000000000000000000000000000000000000000000\n      dup2\n      mstore\n      0x04\n      add\n      tag_165\n      swap2\n      swap1\n      tag_150\n      jump\t// in\n    tag_165:\n      mload(0x40)\n      dup1\n      swap2\n      sub\n      swap1\n      revert\n        /* \"USDTFlash/contracts/USDTFlash.sol\":5286:5375  if (owner == address(0)) {... */\n    tag_164:\n        /* \"USDTFlash/contracts/USDTFlash.sol\":5407:5408  0 */\n      0x00\n        /* \"USDTFlash/contracts/USDTFlash.sol\":5388:5409  spender == address(0) */\n      0xffffffffffffffffffffffffffffffffffffffff\n      and\n        /* \"USDTFlash/contracts/USDTFlash.sol\":5388:5395  spender */\n      dup4\n        /* \"USDTFlash/contracts/USDTFlash.sol\":5388:5409  spender == address(0) */\n      0xffffffffffffffffffffffffffffffffffffffff\n      and\n      sub\n        /* \"USDTFlash/contracts/USDTFlash.sol\":5384:5474  if (spender == address(0)) {... */\n      tag_166\n      jumpi\n        /* \"USDTFlash/contracts/USDTFlash.sol\":5460:5461  0 */\n      0x00\n        /* \"USDTFlash/contracts/USDTFlash.sol\":5432:5463  ERC20InvalidSpender(address(0)) */\n      mload(0x40)\n      0x94280d6200000000000000000000000000000000000000000000000000000000\n      dup2\n      mstore\n      0x04\n      add\n      tag_167\n      swap2\n      swap1\n      tag_150\n      jump\t// in\n    tag_167:\n      mload(0x40)\n      dup1\n      swap2\n      sub\n      swap1\n      revert\n        /* \"USDTFlash/contracts/USDTFlash.sol\":5384:5474  if (spender == address(0)) {... */\n    tag_166:\n        /* \"USDTFlash/contracts/USDTFlash.sol\":5513:5518  value */\n      dup2\n        /* \"USDTFlash/contracts/USDTFlash.sol\":5483:5494  _allowances */\n      0x01\n        /* \"USDTFlash/contracts/USDTFlash.sol\":5483:5501  _allowances[owner] */\n      0x00\n        /* \"USDTFlash/contracts/USDTFlash.sol\":5495:5500  owner */\n      dup7\n        /* \"USDTFlash/contracts/USDTFlash.sol\":5483:5501  _allowances[owner] */\n      0xffffffffffffffffffffffffffffffffffffffff\n      and\n      0xffffffffffffffffffffffffffffffffffffffff\n      and\n      dup2\n      mstore\n      0x20\n      add\n      swap1\n      dup2\n      mstore\n      0x20\n      add\n      0x00\n      keccak256\n        /* \"USDTFlash/contracts/USDTFlash.sol\":5483:5510  _allowances[owner][spender] */\n      0x00\n        /* \"USDTFlash/contracts/USDTFlash.sol\":5502:5509  spender */\n      dup6\n        /* \"USDTFlash/contracts/USDTFlash.sol\":5483:5510  _allowances[owner][spender] */\n      0xffffffffffffffffffffffffffffffffffffffff\n      and\n      0xffffffffffffffffffffffffffffffffffffffff\n      and\n      dup2\n      mstore\n      0x20\n      add\n      swap1\n      dup2\n      mstore\n      0x20\n      add\n      0x00\n      keccak256\n        /* \"USDTFlash/contracts/USDTFlash.sol\":5483:5518  _allowances[owner][spender] = value */\n      dup2\n      swap1\n      sstore\n      pop\n        /* \"USDTFlash/contracts/USDTFlash.sol\":5532:5541  emitEvent */\n      dup1\n        /* \"USDTFlash/contracts/USDTFlash.sol\":5528:5604  if (emitEvent) {... */\n      iszero\n      tag_168\n      jumpi\n        /* \"USDTFlash/contracts/USDTFlash.sol\":5578:5585  spender */\n      dup3\n        /* \"USDTFlash/contracts/USDTFlash.sol\":5562:5593  Approval(owner, spender, value) */\n      0xffffffffffffffffffffffffffffffffffffffff\n      and\n        /* \"USDTFlash/contracts/USDTFlash.sol\":5571:5576  owner */\n      dup5\n        /* \"USDTFlash/contracts/USDTFlash.sol\":5562:5593  Approval(owner, spender, value) */\n      0xffffffffffffffffffffffffffffffffffffffff\n      and\n      0x8c5be1e5ebec7d5bd14f71427d1e84f3dd0314c0f7b2291e5b200ac8c7c3b925\n        /* \"USDTFlash/contracts/USDTFlash.sol\":5587:5592  value */\n      dup5\n        /* \"USDTFlash/contracts/USDTFlash.sol\":5562:5593  Approval(owner, spender, value) */\n      mload(0x40)\n      tag_169\n      swap2\n      swap1\n      tag_33\n      jump\t// in\n    tag_169:\n      mload(0x40)\n      dup1\n      swap2\n      sub\n      swap1\n      log3\n        /* \"USDTFlash/contracts/USDTFlash.sol\":5528:5604  if (emitEvent) {... */\n    tag_168:\n        /* \"USDTFlash/contracts/USDTFlash.sol\":5178:5610  function _approve(address owner, address spender, uint256 value, bool emitEvent) internal virtual {... */\n      pop\n      pop\n      pop\n      pop\n      jump\t// out\n        /* \"USDTFlash/contracts/USDTFlash.sol\":3820:4526  function _update(address from, address to, uint256 value) internal virtual {... */\n    tag_154:\n        /* \"USDTFlash/contracts/USDTFlash.sol\":3925:3926  0 */\n      0x00\n        /* \"USDTFlash/contracts/USDTFlash.sol\":3909:3927  from == address(0) */\n      0xffffffffffffffffffffffffffffffffffffffff\n      and\n        /* \"USDTFlash/contracts/USDTFlash.sol\":3909:3913  from */\n      dup4\n        /* \"USDTFlash/contracts/USDTFlash.sol\":3909:3927  from == address(0) */\n      0xffffffffffffffffffffffffffffffffffffffff\n      and\n      sub\n        /* \"USDTFlash/contracts/USDTFlash.sol\":3905:4264  if (from == address(0)) {... */\n      tag_171\n      jumpi\n        /* \"USDTFlash/contracts/USDTFlash.sol\":3959:3964  value */\n      dup1\n        /* \"USDTFlash/contracts/USDTFlash.sol\":3943:3955  _totalSupply */\n      0x02\n      0x00\n        /* \"USDTFlash/contracts/USDTFlash.sol\":3943:3964  _totalSupply += value */\n      dup3\n      dup3\n      sload\n      tag_172\n      swap2\n      swap1\n      tag_109\n      jump\t// in\n    tag_172:\n      swap3\n      pop\n      pop\n      dup2\n      swap1\n      sstore\n      pop\n        /* \"USDTFlash/contracts/USDTFlash.sol\":3905:4264  if (from == address(0)) {... */\n      jump(tag_173)\n    tag_171:\n        /* \"USDTFlash/contracts/USDTFlash.sol\":3995:4014  uint256 fromBalance */\n      0x00\n        /* \"USDTFlash/contracts/USDTFlash.sol\":4017:4026  _balances */\n      0x00\n        /* \"USDTFlash/contracts/USDTFlash.sol\":4017:4032  _balances[from] */\n      0x00\n        /* \"USDTFlash/contracts/USDTFlash.sol\":4027:4031  from */\n      dup6\n        /* \"USDTFlash/contracts/USDTFlash.sol\":4017:4032  _balances[from] */\n      0xffffffffffffffffffffffffffffffffffffffff\n      and\n      0xffffffffffffffffffffffffffffffffffffffff\n      and\n      dup2\n      mstore\n      0x20\n      add\n      swap1\n      dup2\n      mstore\n      0x20\n      add\n      0x00\n      keccak256\n      sload\n        /* \"USDTFlash/contracts/USDTFlash.sol\":3995:4032  uint256 fromBalance = _balances[from] */\n      swap1\n      pop\n        /* \"USDTFlash/contracts/USDTFlash.sol\":4064:4069  value */\n      dup2\n        /* \"USDTFlash/contracts/USDTFlash.sol\":4050:4061  fromBalance */\n      dup2\n        /* \"USDTFlash/contracts/USDTFlash.sol\":4050:4069  fromBalance < value */\n      lt\n        /* \"USDTFlash/contracts/USDTFlash.sol\":4046:4161  if (fromBalance < value) {... */\n      iszero\n      tag_174\n      jumpi\n        /* \"USDTFlash/contracts/USDTFlash.sol\":4121:4125  from */\n      dup4\n        /* \"USDTFlash/contracts/USDTFlash.sol\":4127:4138  fromBalance */\n      dup2\n        /* \"USDTFlash/contracts/USDTFlash.sol\":4140:4145  value */\n      dup4\n        /* \"USDTFlash/contracts/USDTFlash.sol\":4096:4146  ERC20InsufficientBalance(from, fromBalance, value) */\n      mload(0x40)\n      0xe450d38c00000000000000000000000000000000000000000000000000000000\n      dup2\n      mstore\n      0x04\n      add\n      tag_175\n      swap4\n      swap3\n      swap2\n      swap1\n      tag_145\n      jump\t// in\n    tag_175:\n      mload(0x40)\n      dup1\n      swap2\n      sub\n      swap1\n      revert\n        /* \"USDTFlash/contracts/USDTFlash.sol\":4046:4161  if (fromBalance < value) {... */\n    tag_174:\n        /* \"USDTFlash/contracts/USDTFlash.sol\":4234:4239  value */\n      dup2\n        /* \"USDTFlash/contracts/USDTFlash.sol\":4220:4231  fromBalance */\n      dup2\n        /* \"USDTFlash/contracts/USDTFlash.sol\":4220:4239  fromBalance - value */\n      sub\n        /* \"USDTFlash/contracts/USDTFlash.sol\":4202:4211  _balances */\n      0x00\n        /* \"USDTFlash/contracts/USDTFlash.sol\":4202:4217  _balances[from] */\n      0x00\n        /* \"USDTFlash/contracts/USDTFlash.sol\":4212:4216  from */\n      dup7\n        /* \"USDTFlash/contracts/USDTFlash.sol\":4202:4217  _balances[from] */\n      0xffffffffffffffffffffffffffffffffffffffff\n      and\n      0xffffffffffffffffffffffffffffffffffffffff\n      and\n      dup2\n      mstore\n      0x20\n      add\n      swap1\n      dup2\n      mstore\n      0x20\n      add\n      0x00\n      keccak256\n        /* \"USDTFlash/contracts/USDTFlash.sol\":4202:4239  _balances[from] = fromBalance - value */\n      dup2\n      swap1\n      sstore\n      pop\n        /* \"USDTFlash/contracts/USDTFlash.sol\":3981:4264  {... */\n      pop\n        /* \"USDTFlash/contracts/USDTFlash.sol\":3905:4264  if (from == address(0)) {... */\n    tag_173:\n        /* \"USDTFlash/contracts/USDTFlash.sol\":4292:4293  0 */\n      0x00\n        /* \"USDTFlash/contracts/USDTFlash.sol\":4278:4294  to == address(0) */\n      0xffffffffffffffffffffffffffffffffffffffff\n      and\n        /* \"USDTFlash/contracts/USDTFlash.sol\":4278:4280  to */\n      dup3\n        /* \"USDTFlash/contracts/USDTFlash.sol\":4278:4294  to == address(0) */\n      0xffffffffffffffffffffffffffffffffffffffff\n      and\n      sub\n        /* \"USDTFlash/contracts/USDTFlash.sol\":4274:4479  if (to == address(0)) {... */\n      tag_176\n      jumpi\n        /* \"USDTFlash/contracts/USDTFlash.sol\":4354:4359  value */\n      dup1\n        /* \"USDTFlash/contracts/USDTFlash.sol\":4338:4350  _totalSupply */\n      0x02\n      0x00\n        /* \"USDTFlash/contracts/USDTFlash.sol\":4338:4359  _totalSupply -= value */\n      dup3\n      dup3\n      sload\n      sub\n      swap3\n      pop\n      pop\n      dup2\n      swap1\n      sstore\n      pop\n        /* \"USDTFlash/contracts/USDTFlash.sol\":4274:4479  if (to == address(0)) {... */\n      jump(tag_177)\n    tag_176:\n        /* \"USDTFlash/contracts/USDTFlash.sol\":4449:4454  value */\n      dup1\n        /* \"USDTFlash/contracts/USDTFlash.sol\":4432:4441  _balances */\n      0x00\n        /* \"USDTFlash/contracts/USDTFlash.sol\":4432:4445  _balances[to] */\n      0x00\n        /* \"USDTFlash/contracts/USDTFlash.sol\":4442:4444  to */\n      dup5\n        /* \"USDTFlash/contracts/USDTFlash.sol\":4432:4445  _balances[to] */\n      0xffffffffffffffffffffffffffffffffffffffff\n      and\n      0xffffffffffffffffffffffffffffffffffffffff\n      and\n      dup2\n      mstore\n      0x20\n      add\n      swap1\n      dup2\n      mstore\n      0x20\n      add\n      0x00\n      keccak256\n      0x00\n        /* \"USDTFlash/contracts/USDTFlash.sol\":4432:4454  _balances[to] += value */\n      dup3\n      dup3\n      sload\n      add\n      swap3\n      pop\n      pop\n      dup2\n      swap1\n      sstore\n      pop\n        /* \"USDTFlash/contracts/USDTFlash.sol\":4274:4479  if (to == address(0)) {... */\n    tag_177:\n        /* \"USDTFlash/contracts/USDTFlash.sol\":4509:4511  to */\n      dup2\n        /* \"USDTFlash/contracts/USDTFlash.sol\":4494:4519  Transfer(from, to, value) */\n      0xffffffffffffffffffffffffffffffffffffffff\n      and\n        /* \"USDTFlash/contracts/USDTFlash.sol\":4503:4507  from */\n      dup4\n        /* \"USDTFlash/contracts/USDTFlash.sol\":4494:4519  Transfer(from, to, value) */\n      0xffffffffffffffffffffffffffffffffffffffff\n      and\n      0xddf252ad1be2c89b69c2b068fc378daa952ba7f163c4a11628f55a4df523b3ef\n        /* \"USDTFlash/contracts/USDTFlash.sol\":4513:4518  value */\n      dup4\n        /* \"USDTFlash/contracts/USDTFlash.sol\":4494:4519  Transfer(from, to, value) */\n      mload(0x40)\n      tag_178\n      swap2\n      swap1\n      tag_33\n      jump\t// in\n    tag_178:\n      mload(0x40)\n      dup1\n      swap2\n      sub\n      swap1\n      log3\n        /* \"USDTFlash/contracts/USDTFlash.sol\":3820:4526  function _update(address from, address to, uint256 value) internal virtual {... */\n      pop\n      pop\n      pop\n      jump\t// out\n        /* \"#utility.yul\":7:106   */\n    tag_179:\n        /* \"#utility.yul\":59:65   */\n      0x00\n        /* \"#utility.yul\":93:98   */\n      dup2\n        /* \"#utility.yul\":87:99   */\n      mload\n        /* \"#utility.yul\":77:99   */\n      swap1\n      pop\n        /* \"#utility.yul\":7:106   */\n      swap2\n      swap1\n      pop\n      jump\t// out\n        /* \"#utility.yul\":112:281   */\n    tag_180:\n        /* \"#utility.yul\":196:207   */\n      0x00\n        /* \"#utility.yul\":230:236   */\n      dup3\n        /* \"#utility.yul\":225:228   */\n      dup3\n        /* \"#utility.yul\":218:237   */\n      mstore\n        /* \"#utility.yul\":270:274   */\n      0x20\n        /* \"#utility.yul\":265:268   */\n      dup3\n        /* \"#utility.yul\":261:275   */\n      add\n        /* \"#utility.yul\":246:275   */\n      swap1\n      pop\n        /* \"#utility.yul\":112:281   */\n      swap3\n      swap2\n      pop\n      pop\n      jump\t// out\n        /* \"#utility.yul\":287:426   */\n    tag_181:\n        /* \"#utility.yul\":376:382   */\n      dup3\n        /* \"#utility.yul\":371:374   */\n      dup2\n        /* \"#utility.yul\":366:369   */\n      dup4\n        /* \"#utility.yul\":360:383   */\n      mcopy\n        /* \"#utility.yul\":417:418   */\n      0x00\n        /* \"#utility.yul\":408:414   */\n      dup4\n        /* \"#utility.yul\":403:406   */\n      dup4\n        /* \"#utility.yul\":399:415   */\n      add\n        /* \"#utility.yul\":392:419   */\n      mstore\n        /* \"#utility.yul\":287:426   */\n      pop\n      pop\n      pop\n      jump\t// out\n        /* \"#utility.yul\":432:534   */\n    tag_182:\n        /* \"#utility.yul\":473:479   */\n      0x00\n        /* \"#utility.yul\":524:526   */\n      0x1f\n        /* \"#utility.yul\":520:527   */\n      not\n        /* \"#utility.yul\":515:517   */\n      0x1f\n        /* \"#utility.yul\":508:513   */\n      dup4\n        /* \"#utility.yul\":504:518   */\n      add\n        /* \"#utility.yul\":500:528   */\n      and\n        /* \"#utility.yul\":490:528   */\n      swap1\n      pop\n        /* \"#utility.yul\":432:534   */\n      swap2\n      swap1\n      pop\n      jump\t// out\n        /* \"#utility.yul\":540:917   */\n    tag_183:\n        /* \"#utility.yul\":628:631   */\n      0x00\n        /* \"#utility.yul\":656:695   */\n      tag_216\n        /* \"#utility.yul\":689:694   */\n      dup3\n        /* \"#utility.yul\":656:695   */\n      tag_179\n      jump\t// in\n    tag_216:\n        /* \"#utility.yul\":711:782   */\n      tag_217\n        /* \"#utility.yul\":775:781   */\n      dup2\n        /* \"#utility.yul\":770:773   */\n      dup6\n        /* \"#utility.yul\":711:782   */\n      tag_180\n      jump\t// in\n    tag_217:\n        /* \"#utility.yul\":704:782   */\n      swap4\n      pop\n        /* \"#utility.yul\":791:856   */\n      tag_218\n        /* \"#utility.yul\":849:855   */\n      dup2\n        /* \"#utility.yul\":844:847   */\n      dup6\n        /* \"#utility.yul\":837:841   */\n      0x20\n        /* \"#utility.yul\":830:835   */\n      dup7\n        /* \"#utility.yul\":826:842   */\n      add\n        /* \"#utility.yul\":791:856   */\n      tag_181\n      jump\t// in\n    tag_218:\n        /* \"#utility.yul\":881:910   */\n      tag_219\n        /* \"#utility.yul\":903:909   */\n      dup2\n        /* \"#utility.yul\":881:910   */\n      tag_182\n      jump\t// in\n    tag_219:\n        /* \"#utility.yul\":876:879   */\n      dup5\n        /* \"#utility.yul\":872:911   */\n      add\n        /* \"#utility.yul\":865:911   */\n      swap2\n      pop\n        /* \"#utility.yul\":632:917   */\n      pop\n        /* \"#utility.yul\":540:917   */\n      swap3\n      swap2\n      pop\n      pop\n      jump\t// out\n        /* \"#utility.yul\":923:1236   */\n    tag_23:\n        /* \"#utility.yul\":1036:1040   */\n      0x00\n        /* \"#utility.yul\":1074:1076   */\n      0x20\n        /* \"#utility.yul\":1063:1072   */\n      dup3\n        /* \"#utility.yul\":1059:1077   */\n      add\n        /* \"#utility.yul\":1051:1077   */\n      swap1\n      pop\n        /* \"#utility.yul\":1123:1132   */\n      dup2\n        /* \"#utility.yul\":1117:1121   */\n      dup2\n        /* \"#utility.yul\":1113:1133   */\n      sub\n        /* \"#utility.yul\":1109:1110   */\n      0x00\n        /* \"#utility.yul\":1098:1107   */\n      dup4\n        /* \"#utility.yul\":1094:1111   */\n      add\n        /* \"#utility.yul\":1087:1134   */\n      mstore\n        /* \"#utility.yul\":1151:1229   */\n      tag_221\n        /* \"#utility.yul\":1224:1228   */\n      dup2\n        /* \"#utility.yul\":1215:1221   */\n      dup5\n        /* \"#utility.yul\":1151:1229   */\n      tag_183\n      jump\t// in\n    tag_221:\n        /* \"#utility.yul\":1143:1229   */\n      swap1\n      pop\n        /* \"#utility.yul\":923:1236   */\n      swap3\n      swap2\n      pop\n      pop\n      jump\t// out\n        /* \"#utility.yul\":1323:1440   */\n    tag_185:\n        /* \"#utility.yul\":1432:1433   */\n      0x00\n        /* \"#utility.yul\":1429:1430   */\n      0x00\n        /* \"#utility.yul\":1422:1434   */\n      revert\n        /* \"#utility.yul\":1569:1695   */\n    tag_187:\n        /* \"#utility.yul\":1606:1613   */\n      0x00\n        /* \"#utility.yul\":1646:1688   */\n      0xffffffffffffffffffffffffffffffffffffffff\n        /* \"#utility.yul\":1639:1644   */\n      dup3\n        /* \"#utility.yul\":1635:1689   */\n      and\n        /* \"#utility.yul\":1624:1689   */\n      swap1\n      pop\n        /* \"#utility.yul\":1569:1695   */\n      swap2\n      swap1\n      pop\n      jump\t// out\n        /* \"#utility.yul\":1701:1797   */\n    tag_188:\n        /* \"#utility.yul\":1738:1745   */\n      0x00\n        /* \"#utility.yul\":1767:1791   */\n      tag_227\n        /* \"#utility.yul\":1785:1790   */\n      dup3\n        /* \"#utility.yul\":1767:1791   */\n      tag_187\n      jump\t// in\n    tag_227:\n        /* \"#utility.yul\":1756:1791   */\n      swap1\n      pop\n        /* \"#utility.yul\":1701:1797   */\n      swap2\n      swap1\n      pop\n      jump\t// out\n        /* \"#utility.yul\":1803:1925   */\n    tag_189:\n        /* \"#utility.yul\":1876:1900   */\n      tag_229\n        /* \"#utility.yul\":1894:1899   */\n      dup2\n        /* \"#utility.yul\":1876:1900   */\n      tag_188\n      jump\t// in\n    tag_229:\n        /* \"#utility.yul\":1869:1874   */\n      dup2\n        /* \"#utility.yul\":1866:1901   */\n      eq\n        /* \"#utility.yul\":1856:1919   */\n      tag_230\n      jumpi\n        /* \"#utility.yul\":1915:1916   */\n      0x00\n        /* \"#utility.yul\":1912:1913   */\n      0x00\n        /* \"#utility.yul\":1905:1917   */\n      revert\n        /* \"#utility.yul\":1856:1919   */\n    tag_230:\n        /* \"#utility.yul\":1803:1925   */\n      pop\n      jump\t// out\n        /* \"#utility.yul\":1931:2070   */\n    tag_190:\n        /* \"#utility.yul\":1977:1982   */\n      0x00\n        /* \"#utility.yul\":2015:2021   */\n      dup2\n        /* \"#utility.yul\":2002:2022   */\n      calldataload\n        /* \"#utility.yul\":1993:2022   */\n      swap1\n      pop\n        /* \"#utility.yul\":2031:2064   */\n      tag_232\n        /* \"#utility.yul\":2058:2063   */\n      dup2\n        /* \"#utility.yul\":2031:2064   */\n      tag_189\n      jump\t// in\n    tag_232:\n        /* \"#utility.yul\":1931:2070   */\n      swap3\n      swap2\n      pop\n      pop\n      jump\t// out\n        /* \"#utility.yul\":2076:2153   */\n    tag_191:\n        /* \"#utility.yul\":2113:2120   */\n      0x00\n        /* \"#utility.yul\":2142:2147   */\n      dup2\n        /* \"#utility.yul\":2131:2147   */\n      swap1\n      pop\n        /* \"#utility.yul\":2076:2153   */\n      swap2\n      swap1\n      pop\n      jump\t// out\n        /* \"#utility.yul\":2159:2281   */\n    tag_192:\n        /* \"#utility.yul\":2232:2256   */\n      tag_235\n        /* \"#utility.yul\":2250:2255   */\n      dup2\n        /* \"#utility.yul\":2232:2256   */\n      tag_191\n      jump\t// in\n    tag_235:\n        /* \"#utility.yul\":2225:2230   */\n      dup2\n        /* \"#utility.yul\":2222:2257   */\n      eq\n        /* \"#utility.yul\":2212:2275   */\n      tag_236\n      jumpi\n        /* \"#utility.yul\":2271:2272   */\n      0x00\n        /* \"#utility.yul\":2268:2269   */\n      0x00\n        /* \"#utility.yul\":2261:2273   */\n      revert\n        /* \"#utility.yul\":2212:2275   */\n    tag_236:\n        /* \"#utility.yul\":2159:2281   */\n      pop\n      jump\t// out\n        /* \"#utility.yul\":2287:2426   */\n    tag_193:\n        /* \"#utility.yul\":2333:2338   */\n      0x00\n        /* \"#utility.yul\":2371:2377   */\n      dup2\n        /* \"#utility.yul\":2358:2378   */\n      calldataload\n        /* \"#utility.yul\":2349:2378   */\n      swap1\n      pop\n        /* \"#utility.yul\":2387:2420   */\n      tag_238\n        /* \"#utility.yul\":2414:2419   */\n      dup2\n        /* \"#utility.yul\":2387:2420   */\n      tag_192\n      jump\t// in\n    tag_238:\n        /* \"#utility.yul\":2287:2426   */\n      swap3\n      swap2\n      pop\n      pop\n      jump\t// out\n        /* \"#utility.yul\":2432:2906   */\n    tag_26:\n        /* \"#utility.yul\":2500:2506   */\n      0x00\n        /* \"#utility.yul\":2508:2514   */\n      0x00\n        /* \"#utility.yul\":2557:2559   */\n      0x40\n        /* \"#utility.yul\":2545:2554   */\n      dup4\n        /* \"#utility.yul\":2536:2543   */\n      dup6\n        /* \"#utility.yul\":2532:2555   */\n      sub\n        /* \"#utility.yul\":2528:2560   */\n      slt\n        /* \"#utility.yul\":2525:2644   */\n      iszero\n      tag_240\n      jumpi\n        /* \"#utility.yul\":2563:2642   */\n      tag_241\n      tag_185\n      jump\t// in\n    tag_241:\n        /* \"#utility.yul\":2525:2644   */\n    tag_240:\n        /* \"#utility.yul\":2683:2684   */\n      0x00\n        /* \"#utility.yul\":2708:2761   */\n      tag_242\n        /* \"#utility.yul\":2753:2760   */\n      dup6\n        /* \"#utility.yul\":2744:2750   */\n      dup3\n        /* \"#utility.yul\":2733:2742   */\n      dup7\n        /* \"#utility.yul\":2729:2751   */\n      add\n        /* \"#utility.yul\":2708:2761   */\n      tag_190\n      jump\t// in\n    tag_242:\n        /* \"#utility.yul\":2698:2761   */\n      swap3\n      pop\n        /* \"#utility.yul\":2654:2771   */\n      pop\n        /* \"#utility.yul\":2810:2812   */\n      0x20\n        /* \"#utility.yul\":2836:2889   */\n      tag_243\n        /* \"#utility.yul\":2881:2888   */\n      dup6\n        /* \"#utility.yul\":2872:2878   */\n      dup3\n        /* \"#utility.yul\":2861:2870   */\n      dup7\n        /* \"#utility.yul\":2857:2879   */\n      add\n        /* \"#utility.yul\":2836:2889   */\n      tag_193\n      jump\t// in\n    tag_243:\n        /* \"#utility.yul\":2826:2889   */\n      swap2\n      pop\n        /* \"#utility.yul\":2781:2899   */\n      pop\n        /* \"#utility.yul\":2432:2906   */\n      swap3\n      pop\n      swap3\n      swap1\n      pop\n      jump\t// out\n        /* \"#utility.yul\":2912:3002   */\n    tag_194:\n        /* \"#utility.yul\":2946:2953   */\n      0x00\n        /* \"#utility.yul\":2989:2994   */\n      dup2\n        /* \"#utility.yul\":2982:2995   */\n      iszero\n        /* \"#utility.yul\":2975:2996   */\n      iszero\n        /* \"#utility.yul\":2964:2996   */\n      swap1\n      pop\n        /* \"#utility.yul\":2912:3002   */\n      swap2\n      swap1\n      pop\n      jump\t// out\n        /* \"#utility.yul\":3008:3117   */\n    tag_195:\n        /* \"#utility.yul\":3089:3110   */\n      tag_246\n        /* \"#utility.yul\":3104:3109   */\n      dup2\n        /* \"#utility.yul\":3089:3110   */\n      tag_194\n      jump\t// in\n    tag_246:\n        /* \"#utility.yul\":3084:3087   */\n      dup3\n        /* \"#utility.yul\":3077:3111   */\n      mstore\n        /* \"#utility.yul\":3008:3117   */\n      pop\n      pop\n      jump\t// out\n        /* \"#utility.yul\":3123:3333   */\n    tag_29:\n        /* \"#utility.yul\":3210:3214   */\n      0x00\n        /* \"#utility.yul\":3248:3250   */\n      0x20\n        /* \"#utility.yul\":3237:3246   */\n      dup3\n        /* \"#utility.yul\":3233:3251   */\n      add\n        /* \"#utility.yul\":3225:3251   */\n      swap1\n      pop\n        /* \"#utility.yul\":3261:3326   */\n      tag_248\n        /* \"#utility.yul\":3323:3324   */\n      0x00\n        /* \"#utility.yul\":3312:3321   */\n      dup4\n        /* \"#utility.yul\":3308:3325   */\n      add\n        /* \"#utility.yul\":3299:3305   */\n      dup5\n        /* \"#utility.yul\":3261:3326   */\n      tag_195\n      jump\t// in\n    tag_248:\n        /* \"#utility.yul\":3123:3333   */\n      swap3\n      swap2\n      pop\n      pop\n      jump\t// out\n        /* \"#utility.yul\":3339:3457   */\n    tag_196:\n        /* \"#utility.yul\":3426:3450   */\n      tag_250\n        /* \"#utility.yul\":3444:3449   */\n      dup2\n        /* \"#utility.yul\":3426:3450   */\n      tag_191\n      jump\t// in\n    tag_250:\n        /* \"#utility.yul\":3421:3424   */\n      dup3\n        /* \"#utility.yul\":3414:3451   */\n      mstore\n        /* \"#utility.yul\":3339:3457   */\n      pop\n      pop\n      jump\t// out\n        /* \"#utility.yul\":3463:3685   */\n    tag_33:\n        /* \"#utility.yul\":3556:3560   */\n      0x00\n        /* \"#utility.yul\":3594:3596   */\n      0x20\n        /* \"#utility.yul\":3583:3592   */\n      dup3\n        /* \"#utility.yul\":3579:3597   */\n      add\n        /* \"#utility.yul\":3571:3597   */\n      swap1\n      pop\n        /* \"#utility.yul\":3607:3678   */\n      tag_252\n        /* \"#utility.yul\":3675:3676   */\n      0x00\n        /* \"#utility.yul\":3664:3673   */\n      dup4\n        /* \"#utility.yul\":3660:3677   */\n      add\n        /* \"#utility.yul\":3651:3657   */\n      dup5\n        /* \"#utility.yul\":3607:3678   */\n      tag_196\n      jump\t// in\n    tag_252:\n        /* \"#utility.yul\":3463:3685   */\n      swap3\n      swap2\n      pop\n      pop\n      jump\t// out\n        /* \"#utility.yul\":3691:4310   */\n    tag_36:\n        /* \"#utility.yul\":3768:3774   */\n      0x00\n        /* \"#utility.yul\":3776:3782   */\n      0x00\n        /* \"#utility.yul\":3784:3790   */\n      0x00\n        /* \"#utility.yul\":3833:3835   */\n      0x60\n        /* \"#utility.yul\":3821:3830   */\n      dup5\n        /* \"#utility.yul\":3812:3819   */\n      dup7\n        /* \"#utility.yul\":3808:3831   */\n      sub\n        /* \"#utility.yul\":3804:3836   */\n      slt\n        /* \"#utility.yul\":3801:3920   */\n      iszero\n      tag_254\n      jumpi\n        /* \"#utility.yul\":3839:3918   */\n      tag_255\n      tag_185\n      jump\t// in\n    tag_255:\n        /* \"#utility.yul\":3801:3920   */\n    tag_254:\n        /* \"#utility.yul\":3959:3960   */\n      0x00\n        /* \"#utility.yul\":3984:4037   */\n      tag_256\n        /* \"#utility.yul\":4029:4036   */\n      dup7\n        /* \"#utility.yul\":4020:4026   */\n      dup3\n        /* \"#utility.yul\":4009:4018   */\n      dup8\n        /* \"#utility.yul\":4005:4027   */\n      add\n        /* \"#utility.yul\":3984:4037   */\n      tag_190\n      jump\t// in\n    tag_256:\n        /* \"#utility.yul\":3974:4037   */\n      swap4\n      pop\n        /* \"#utility.yul\":3930:4047   */\n      pop\n        /* \"#utility.yul\":4086:4088   */\n      0x20\n        /* \"#utility.yul\":4112:4165   */\n      tag_257\n        /* \"#utility.yul\":4157:4164   */\n      dup7\n        /* \"#utility.yul\":4148:4154   */\n      dup3\n        /* \"#utility.yul\":4137:4146   */\n      dup8\n        /* \"#utility.yul\":4133:4155   */\n      add\n        /* \"#utility.yul\":4112:4165   */\n      tag_190\n      jump\t// in\n    tag_257:\n        /* \"#utility.yul\":4102:4165   */\n      swap3\n      pop\n        /* \"#utility.yul\":4057:4175   */\n      pop\n        /* \"#utility.yul\":4214:4216   */\n      0x40\n        /* \"#utility.yul\":4240:4293   */\n      tag_258\n        /* \"#utility.yul\":4285:4292   */\n      dup7\n        /* \"#utility.yul\":4276:4282   */\n      dup3\n        /* \"#utility.yul\":4265:4274   */\n      dup8\n        /* \"#utility.yul\":4261:4283   */\n      add\n        /* \"#utility.yul\":4240:4293   */\n      tag_193\n      jump\t// in\n    tag_258:\n        /* \"#utility.yul\":4230:4293   */\n      swap2\n      pop\n        /* \"#utility.yul\":4185:4303   */\n      pop\n        /* \"#utility.yul\":3691:4310   */\n      swap3\n      pop\n      swap3\n      pop\n      swap3\n      jump\t// out\n        /* \"#utility.yul\":4316:4645   */\n    tag_41:\n        /* \"#utility.yul\":4375:4381   */\n      0x00\n        /* \"#utility.yul\":4424:4426   */\n      0x20\n        /* \"#utility.yul\":4412:4421   */\n      dup3\n        /* \"#utility.yul\":4403:4410   */\n      dup5\n        /* \"#utility.yul\":4399:4422   */\n      sub\n        /* \"#utility.yul\":4395:4427   */\n      slt\n        /* \"#utility.yul\":4392:4511   */\n      iszero\n      tag_260\n      jumpi\n        /* \"#utility.yul\":4430:4509   */\n      tag_261\n      tag_185\n      jump\t// in\n    tag_261:\n        /* \"#utility.yul\":4392:4511   */\n    tag_260:\n        /* \"#utility.yul\":4550:4551   */\n      0x00\n        /* \"#utility.yul\":4575:4628   */\n      tag_262\n        /* \"#utility.yul\":4620:4627   */\n      dup5\n        /* \"#utility.yul\":4611:4617   */\n      dup3\n        /* \"#utility.yul\":4600:4609   */\n      dup6\n        /* \"#utility.yul\":4596:4618   */\n      add\n        /* \"#utility.yul\":4575:4628   */\n      tag_190\n      jump\t// in\n    tag_262:\n        /* \"#utility.yul\":4565:4628   */\n      swap2\n      pop\n        /* \"#utility.yul\":4521:4638   */\n      pop\n        /* \"#utility.yul\":4316:4645   */\n      swap3\n      swap2\n      pop\n      pop\n      jump\t// out\n        /* \"#utility.yul\":4651:4737   */\n    tag_197:\n        /* \"#utility.yul\":4686:4693   */\n      0x00\n        /* \"#utility.yul\":4726:4730   */\n      0xff\n        /* \"#utility.yul\":4719:4724   */\n      dup3\n        /* \"#utility.yul\":4715:4731   */\n      and\n        /* \"#utility.yul\":4704:4731   */\n      swap1\n      pop\n        /* \"#utility.yul\":4651:4737   */\n      swap2\n      swap1\n      pop\n      jump\t// out\n        /* \"#utility.yul\":4743:4855   */\n    tag_198:\n        /* \"#utility.yul\":4826:4848   */\n      tag_265\n        /* \"#utility.yul\":4842:4847   */\n      dup2\n        /* \"#utility.yul\":4826:4848   */\n      tag_197\n      jump\t// in\n    tag_265:\n        /* \"#utility.yul\":4821:4824   */\n      dup3\n        /* \"#utility.yul\":4814:4849   */\n      mstore\n        /* \"#utility.yul\":4743:4855   */\n      pop\n      pop\n      jump\t// out\n        /* \"#utility.yul\":4861:5075   */\n    tag_46:\n        /* \"#utility.yul\":4950:4954   */\n      0x00\n        /* \"#utility.yul\":4988:4990   */\n      0x20\n        /* \"#utility.yul\":4977:4986   */\n      dup3\n        /* \"#utility.yul\":4973:4991   */\n      add\n        /* \"#utility.yul\":4965:4991   */\n      swap1\n      pop\n        /* \"#utility.yul\":5001:5068   */\n      tag_267\n        /* \"#utility.yul\":5065:5066   */\n      0x00\n        /* \"#utility.yul\":5054:5063   */\n      dup4\n        /* \"#utility.yul\":5050:5067   */\n      add\n        /* \"#utility.yul\":5041:5047   */\n      dup5\n        /* \"#utility.yul\":5001:5068   */\n      tag_198\n      jump\t// in\n    tag_267:\n        /* \"#utility.yul\":4861:5075   */\n      swap3\n      swap2\n      pop\n      pop\n      jump\t// out\n        /* \"#utility.yul\":5081:5410   */\n    tag_60:\n        /* \"#utility.yul\":5140:5146   */\n      0x00\n        /* \"#utility.yul\":5189:5191   */\n      0x20\n        /* \"#utility.yul\":5177:5186   */\n      dup3\n        /* \"#utility.yul\":5168:5175   */\n      dup5\n        /* \"#utility.yul\":5164:5187   */\n      sub\n        /* \"#utility.yul\":5160:5192   */\n      slt\n        /* \"#utility.yul\":5157:5276   */\n      iszero\n      tag_269\n      jumpi\n        /* \"#utility.yul\":5195:5274   */\n      tag_270\n      tag_185\n      jump\t// in\n    tag_270:\n        /* \"#utility.yul\":5157:5276   */\n    tag_269:\n        /* \"#utility.yul\":5315:5316   */\n      0x00\n        /* \"#utility.yul\":5340:5393   */\n      tag_271\n        /* \"#utility.yul\":5385:5392   */\n      dup5\n        /* \"#utility.yul\":5376:5382   */\n      dup3\n        /* \"#utility.yul\":5365:5374   */\n      dup6\n        /* \"#utility.yul\":5361:5383   */\n      add\n        /* \"#utility.yul\":5340:5393   */\n      tag_193\n      jump\t// in\n    tag_271:\n        /* \"#utility.yul\":5330:5393   */\n      swap2\n      pop\n        /* \"#utility.yul\":5286:5403   */\n      pop\n        /* \"#utility.yul\":5081:5410   */\n      swap3\n      swap2\n      pop\n      pop\n      jump\t// out\n        /* \"#utility.yul\":5416:5890   */\n    tag_76:\n        /* \"#utility.yul\":5484:5490   */\n      0x00\n        /* \"#utility.yul\":5492:5498   */\n      0x00\n        /* \"#utility.yul\":5541:5543   */\n      0x40\n        /* \"#utility.yul\":5529:5538   */\n      dup4\n        /* \"#utility.yul\":5520:5527   */\n      dup6\n        /* \"#utility.yul\":5516:5539   */\n      sub\n        /* \"#utility.yul\":5512:5544   */\n      slt\n        /* \"#utility.yul\":5509:5628   */\n      iszero\n      tag_273\n      jumpi\n        /* \"#utility.yul\":5547:5626   */\n      tag_274\n      tag_185\n      jump\t// in\n    tag_274:\n        /* \"#utility.yul\":5509:5628   */\n    tag_273:\n        /* \"#utility.yul\":5667:5668   */\n      0x00\n        /* \"#utility.yul\":5692:5745   */\n      tag_275\n        /* \"#utility.yul\":5737:5744   */\n      dup6\n        /* \"#utility.yul\":5728:5734   */\n      dup3\n        /* \"#utility.yul\":5717:5726   */\n      dup7\n        /* \"#utility.yul\":5713:5735   */\n      add\n        /* \"#utility.yul\":5692:5745   */\n      tag_190\n      jump\t// in\n    tag_275:\n        /* \"#utility.yul\":5682:5745   */\n      swap3\n      pop\n        /* \"#utility.yul\":5638:5755   */\n      pop\n        /* \"#utility.yul\":5794:5796   */\n      0x20\n        /* \"#utility.yul\":5820:5873   */\n      tag_276\n        /* \"#utility.yul\":5865:5872   */\n      dup6\n        /* \"#utility.yul\":5856:5862   */\n      dup3\n        /* \"#utility.yul\":5845:5854   */\n      dup7\n        /* \"#utility.yul\":5841:5863   */\n      add\n        /* \"#utility.yul\":5820:5873   */\n      tag_190\n      jump\t// in\n    tag_276:\n        /* \"#utility.yul\":5810:5873   */\n      swap2\n      pop\n        /* \"#utility.yul\":5765:5883   */\n      pop\n        /* \"#utility.yul\":5416:5890   */\n      swap3\n      pop\n      swap3\n      swap1\n      pop\n      jump\t// out\n        /* \"#utility.yul\":5896:6076   */\n    tag_199:\n        /* \"#utility.yul\":5944:6021   */\n      0x4e487b7100000000000000000000000000000000000000000000000000000000\n        /* \"#utility.yul\":5941:5942   */\n      0x00\n        /* \"#utility.yul\":5934:6022   */\n      mstore\n        /* \"#utility.yul\":6041:6045   */\n      0x22\n        /* \"#utility.yul\":6038:6039   */\n      0x04\n        /* \"#utility.yul\":6031:6046   */\n      mstore\n        /* \"#utility.yul\":6065:6069   */\n      0x24\n        /* \"#utility.yul\":6062:6063   */\n      0x00\n        /* \"#utility.yul\":6055:6070   */\n      revert\n        /* \"#utility.yul\":6082:6402   */\n    tag_81:\n        /* \"#utility.yul\":6126:6132   */\n      0x00\n        /* \"#utility.yul\":6163:6164   */\n      0x02\n        /* \"#utility.yul\":6157:6161   */\n      dup3\n        /* \"#utility.yul\":6153:6165   */\n      div\n        /* \"#utility.yul\":6143:6165   */\n      swap1\n      pop\n        /* \"#utility.yul\":6210:6211   */\n      0x01\n        /* \"#utility.yul\":6204:6208   */\n      dup3\n        /* \"#utility.yul\":6200:6212   */\n      and\n        /* \"#utility.yul\":6231:6249   */\n      dup1\n        /* \"#utility.yul\":6221:6302   */\n      tag_279\n      jumpi\n        /* \"#utility.yul\":6287:6291   */\n      0x7f\n        /* \"#utility.yul\":6279:6285   */\n      dup3\n        /* \"#utility.yul\":6275:6292   */\n      and\n        /* \"#utility.yul\":6265:6292   */\n      swap2\n      pop\n        /* \"#utility.yul\":6221:6302   */\n    tag_279:\n        /* \"#utility.yul\":6349:6351   */\n      0x20\n        /* \"#utility.yul\":6341:6347   */\n      dup3\n        /* \"#utility.yul\":6338:6352   */\n      lt\n        /* \"#utility.yul\":6318:6336   */\n      dup2\n        /* \"#utility.yul\":6315:6353   */\n      sub\n        /* \"#utility.yul\":6312:6396   */\n      tag_280\n      jumpi\n        /* \"#utility.yul\":6368:6386   */\n      tag_281\n      tag_199\n      jump\t// in\n    tag_281:\n        /* \"#utility.yul\":6312:6396   */\n    tag_280:\n        /* \"#utility.yul\":6133:6402   */\n      pop\n        /* \"#utility.yul\":6082:6402   */\n      swap2\n      swap1\n      pop\n      jump\t// out\n        /* \"#utility.yul\":6408:6641   */\n    tag_200:\n        /* \"#utility.yul\":6548:6582   */\n      0x4f6e6c792074686520636f6e7472616374206f776e65722063616e2063616c6c\n        /* \"#utility.yul\":6544:6545   */\n      0x00\n        /* \"#utility.yul\":6536:6542   */\n      dup3\n        /* \"#utility.yul\":6532:6546   */\n      add\n        /* \"#utility.yul\":6525:6583   */\n      mstore\n        /* \"#utility.yul\":6617:6633   */\n      0x20746869732066756e6374696f6e000000000000000000000000000000000000\n        /* \"#utility.yul\":6612:6614   */\n      0x20\n        /* \"#utility.yul\":6604:6610   */\n      dup3\n        /* \"#utility.yul\":6600:6615   */\n      add\n        /* \"#utility.yul\":6593:6634   */\n      mstore\n        /* \"#utility.yul\":6408:6641   */\n      pop\n      jump\t// out\n        /* \"#utility.yul\":6647:7013   */\n    tag_201:\n        /* \"#utility.yul\":6789:6792   */\n      0x00\n        /* \"#utility.yul\":6810:6877   */\n      tag_284\n        /* \"#utility.yul\":6874:6876   */\n      0x2e\n        /* \"#utility.yul\":6869:6872   */\n      dup4\n        /* \"#utility.yul\":6810:6877   */\n      tag_180\n      jump\t// in\n    tag_284:\n        /* \"#utility.yul\":6803:6877   */\n      swap2\n      pop\n        /* \"#utility.yul\":6886:6979   */\n      tag_285\n        /* \"#utility.yul\":6975:6978   */\n      dup3\n        /* \"#utility.yul\":6886:6979   */\n      tag_200\n      jump\t// in\n    tag_285:\n        /* \"#utility.yul\":7004:7006   */\n      0x40\n        /* \"#utility.yul\":6999:7002   */\n      dup3\n        /* \"#utility.yul\":6995:7007   */\n      add\n        /* \"#utility.yul\":6988:7007   */\n      swap1\n      pop\n        /* \"#utility.yul\":6647:7013   */\n      swap2\n      swap1\n      pop\n      jump\t// out\n        /* \"#utility.yul\":7019:7438   */\n    tag_101:\n        /* \"#utility.yul\":7185:7189   */\n      0x00\n        /* \"#utility.yul\":7223:7225   */\n      0x20\n        /* \"#utility.yul\":7212:7221   */\n      dup3\n        /* \"#utility.yul\":7208:7226   */\n      add\n        /* \"#utility.yul\":7200:7226   */\n      swap1\n      pop\n        /* \"#utility.yul\":7272:7281   */\n      dup2\n        /* \"#utility.yul\":7266:7270   */\n      dup2\n        /* \"#utility.yul\":7262:7282   */\n      sub\n        /* \"#utility.yul\":7258:7259   */\n      0x00\n        /* \"#utility.yul\":7247:7256   */\n      dup4\n        /* \"#utility.yul\":7243:7260   */\n      add\n        /* \"#utility.yul\":7236:7283   */\n      mstore\n        /* \"#utility.yul\":7300:7431   */\n      tag_287\n        /* \"#utility.yul\":7426:7430   */\n      dup2\n        /* \"#utility.yul\":7300:7431   */\n      tag_201\n      jump\t// in\n    tag_287:\n        /* \"#utility.yul\":7292:7431   */\n      swap1\n      pop\n        /* \"#utility.yul\":7019:7438   */\n      swap2\n      swap1\n      pop\n      jump\t// out\n        /* \"#utility.yul\":7444:7624   */\n    tag_202:\n        /* \"#utility.yul\":7492:7569   */\n      0x4e487b7100000000000000000000000000000000000000000000000000000000\n        /* \"#utility.yul\":7489:7490   */\n      0x00\n        /* \"#utility.yul\":7482:7570   */\n      mstore\n        /* \"#utility.yul\":7589:7593   */\n      0x11\n        /* \"#utility.yul\":7586:7587   */\n      0x04\n        /* \"#utility.yul\":7579:7594   */\n      mstore\n        /* \"#utility.yul\":7613:7617   */\n      0x24\n        /* \"#utility.yul\":7610:7611   */\n      0x00\n        /* \"#utility.yul\":7603:7618   */\n      revert\n        /* \"#utility.yul\":7630:7821   */\n    tag_109:\n        /* \"#utility.yul\":7670:7673   */\n      0x00\n        /* \"#utility.yul\":7689:7709   */\n      tag_290\n        /* \"#utility.yul\":7707:7708   */\n      dup3\n        /* \"#utility.yul\":7689:7709   */\n      tag_191\n      jump\t// in\n    tag_290:\n        /* \"#utility.yul\":7684:7709   */\n      swap2\n      pop\n        /* \"#utility.yul\":7723:7743   */\n      tag_291\n        /* \"#utility.yul\":7741:7742   */\n      dup4\n        /* \"#utility.yul\":7723:7743   */\n      tag_191\n      jump\t// in\n    tag_291:\n        /* \"#utility.yul\":7718:7743   */\n      swap3\n      pop\n        /* \"#utility.yul\":7766:7767   */\n      dup3\n        /* \"#utility.yul\":7763:7764   */\n      dup3\n        /* \"#utility.yul\":7759:7768   */\n      add\n        /* \"#utility.yul\":7752:7768   */\n      swap1\n      pop\n        /* \"#utility.yul\":7787:7790   */\n      dup1\n        /* \"#utility.yul\":7784:7785   */\n      dup3\n        /* \"#utility.yul\":7781:7791   */\n      gt\n        /* \"#utility.yul\":7778:7814   */\n      iszero\n      tag_292\n      jumpi\n        /* \"#utility.yul\":7794:7812   */\n      tag_293\n      tag_202\n      jump\t// in\n    tag_293:\n        /* \"#utility.yul\":7778:7814   */\n    tag_292:\n        /* \"#utility.yul\":7630:7821   */\n      swap3\n      swap2\n      pop\n      pop\n      jump\t// out\n        /* \"#utility.yul\":7827:8065   */\n    tag_203:\n        /* \"#utility.yul\":7967:8001   */\n      0x4f6e6c792074686520666c617368206c6f616e20636f6e74726163742063616e\n        /* \"#utility.yul\":7963:7964   */\n      0x00\n        /* \"#utility.yul\":7955:7961   */\n      dup3\n        /* \"#utility.yul\":7951:7965   */\n      add\n        /* \"#utility.yul\":7944:8002   */\n      mstore\n        /* \"#utility.yul\":8036:8057   */\n      0x2063616c6c20746869732066756e6374696f6e00000000000000000000000000\n        /* \"#utility.yul\":8031:8033   */\n      0x20\n        /* \"#utility.yul\":8023:8029   */\n      dup3\n        /* \"#utility.yul\":8019:8034   */\n      add\n        /* \"#utility.yul\":8012:8058   */\n      mstore\n        /* \"#utility.yul\":7827:8065   */\n      pop\n      jump\t// out\n        /* \"#utility.yul\":8071:8437   */\n    tag_204:\n        /* \"#utility.yul\":8213:8216   */\n      0x00\n        /* \"#utility.yul\":8234:8301   */\n      tag_296\n        /* \"#utility.yul\":8298:8300   */\n      0x33\n        /* \"#utility.yul\":8293:8296   */\n      dup4\n        /* \"#utility.yul\":8234:8301   */\n      tag_180\n      jump\t// in\n    tag_296:\n        /* \"#utility.yul\":8227:8301   */\n      swap2\n      pop\n        /* \"#utility.yul\":8310:8403   */\n      tag_297\n        /* \"#utility.yul\":8399:8402   */\n      dup3\n        /* \"#utility.yul\":8310:8403   */\n      tag_203\n      jump\t// in\n    tag_297:\n        /* \"#utility.yul\":8428:8430   */\n      0x40\n        /* \"#utility.yul\":8423:8426   */\n      dup3\n        /* \"#utility.yul\":8419:8431   */\n      add\n        /* \"#utility.yul\":8412:8431   */\n      swap1\n      pop\n        /* \"#utility.yul\":8071:8437   */\n      swap2\n      swap1\n      pop\n      jump\t// out\n        /* \"#utility.yul\":8443:8862   */\n    tag_120:\n        /* \"#utility.yul\":8609:8613   */\n      0x00\n        /* \"#utility.yul\":8647:8649   */\n      0x20\n        /* \"#utility.yul\":8636:8645   */\n      dup3\n        /* \"#utility.yul\":8632:8650   */\n      add\n        /* \"#utility.yul\":8624:8650   */\n      swap1\n      pop\n        /* \"#utility.yul\":8696:8705   */\n      dup2\n        /* \"#utility.yul\":8690:8694   */\n      dup2\n        /* \"#utility.yul\":8686:8706   */\n      sub\n        /* \"#utility.yul\":8682:8683   */\n      0x00\n        /* \"#utility.yul\":8671:8680   */\n      dup4\n        /* \"#utility.yul\":8667:8684   */\n      add\n        /* \"#utility.yul\":8660:8707   */\n      mstore\n        /* \"#utility.yul\":8724:8855   */\n      tag_299\n        /* \"#utility.yul\":8850:8854   */\n      dup2\n        /* \"#utility.yul\":8724:8855   */\n      tag_204\n      jump\t// in\n    tag_299:\n        /* \"#utility.yul\":8716:8855   */\n      swap1\n      pop\n        /* \"#utility.yul\":8443:8862   */\n      swap2\n      swap1\n      pop\n      jump\t// out\n        /* \"#utility.yul\":8868:9045   */\n    tag_205:\n        /* \"#utility.yul\":9008:9037   */\n      0x45524332303a20616c6c6f77616e63652062656c6f77207a65726f0000000000\n        /* \"#utility.yul\":9004:9005   */\n      0x00\n        /* \"#utility.yul\":8996:9002   */\n      dup3\n        /* \"#utility.yul\":8992:9006   */\n      add\n        /* \"#utility.yul\":8985:9038   */\n      mstore\n        /* \"#utility.yul\":8868:9045   */\n      pop\n      jump\t// out\n        /* \"#utility.yul\":9051:9417   */\n    tag_206:\n        /* \"#utility.yul\":9193:9196   */\n      0x00\n        /* \"#utility.yul\":9214:9281   */\n      tag_302\n        /* \"#utility.yul\":9278:9280   */\n      0x1b\n        /* \"#utility.yul\":9273:9276   */\n      dup4\n        /* \"#utility.yul\":9214:9281   */\n      tag_180\n      jump\t// in\n    tag_302:\n        /* \"#utility.yul\":9207:9281   */\n      swap2\n      pop\n        /* \"#utility.yul\":9290:9383   */\n      tag_303\n        /* \"#utility.yul\":9379:9382   */\n      dup3\n        /* \"#utility.yul\":9290:9383   */\n      tag_205\n      jump\t// in\n    tag_303:\n        /* \"#utility.yul\":9408:9410   */\n      0x20\n        /* \"#utility.yul\":9403:9406   */\n      dup3\n        /* \"#utility.yul\":9399:9411   */\n      add\n        /* \"#utility.yul\":9392:9411   */\n      swap1\n      pop\n        /* \"#utility.yul\":9051:9417   */\n      swap2\n      swap1\n      pop\n      jump\t// out\n        /* \"#utility.yul\":9423:9842   */\n    tag_129:\n        /* \"#utility.yul\":9589:9593   */\n      0x00\n        /* \"#utility.yul\":9627:9629   */\n      0x20\n        /* \"#utility.yul\":9616:9625   */\n      dup3\n        /* \"#utility.yul\":9612:9630   */\n      add\n        /* \"#utility.yul\":9604:9630   */\n      swap1\n      pop\n        /* \"#utility.yul\":9676:9685   */\n      dup2\n        /* \"#utility.yul\":9670:9674   */\n      dup2\n        /* \"#utility.yul\":9666:9686   */\n      sub\n        /* \"#utility.yul\":9662:9663   */\n      0x00\n        /* \"#utility.yul\":9651:9660   */\n      dup4\n        /* \"#utility.yul\":9647:9664   */\n      add\n        /* \"#utility.yul\":9640:9687   */\n      mstore\n        /* \"#utility.yul\":9704:9835   */\n      tag_305\n        /* \"#utility.yul\":9830:9834   */\n      dup2\n        /* \"#utility.yul\":9704:9835   */\n      tag_206\n      jump\t// in\n    tag_305:\n        /* \"#utility.yul\":9696:9835   */\n      swap1\n      pop\n        /* \"#utility.yul\":9423:9842   */\n      swap2\n      swap1\n      pop\n      jump\t// out\n        /* \"#utility.yul\":9848:9966   */\n    tag_207:\n        /* \"#utility.yul\":9935:9959   */\n      tag_307\n        /* \"#utility.yul\":9953:9958   */\n      dup2\n        /* \"#utility.yul\":9935:9959   */\n      tag_188\n      jump\t// in\n    tag_307:\n        /* \"#utility.yul\":9930:9933   */\n      dup3\n        /* \"#utility.yul\":9923:9960   */\n      mstore\n        /* \"#utility.yul\":9848:9966   */\n      pop\n      pop\n      jump\t// out\n        /* \"#utility.yul\":9972:10414   */\n    tag_145:\n        /* \"#utility.yul\":10121:10125   */\n      0x00\n        /* \"#utility.yul\":10159:10161   */\n      0x60\n        /* \"#utility.yul\":10148:10157   */\n      dup3\n        /* \"#utility.yul\":10144:10162   */\n      add\n        /* \"#utility.yul\":10136:10162   */\n      swap1\n      pop\n        /* \"#utility.yul\":10172:10243   */\n      tag_309\n        /* \"#utility.yul\":10240:10241   */\n      0x00\n        /* \"#utility.yul\":10229:10238   */\n      dup4\n        /* \"#utility.yul\":10225:10242   */\n      add\n        /* \"#utility.yul\":10216:10222   */\n      dup7\n        /* \"#utility.yul\":10172:10243   */\n      tag_207\n      jump\t// in\n    tag_309:\n        /* \"#utility.yul\":10253:10325   */\n      tag_310\n        /* \"#utility.yul\":10321:10323   */\n      0x20\n        /* \"#utility.yul\":10310:10319   */\n      dup4\n        /* \"#utility.yul\":10306:10324   */\n      add\n        /* \"#utility.yul\":10297:10303   */\n      dup6\n        /* \"#utility.yul\":10253:10325   */\n      tag_196\n      jump\t// in\n    tag_310:\n        /* \"#utility.yul\":10335:10407   */\n      tag_311\n        /* \"#utility.yul\":10403:10405   */\n      0x40\n        /* \"#utility.yul\":10392:10401   */\n      dup4\n        /* \"#utility.yul\":10388:10406   */\n      add\n        /* \"#utility.yul\":10379:10385   */\n      dup5\n        /* \"#utility.yul\":10335:10407   */\n      tag_196\n      jump\t// in\n    tag_311:\n        /* \"#utility.yul\":9972:10414   */\n      swap5\n      swap4\n      pop\n      pop\n      pop\n      pop\n      jump\t// out\n        /* \"#utility.yul\":10420:10642   */\n    tag_150:\n        /* \"#utility.yul\":10513:10517   */\n      0x00\n        /* \"#utility.yul\":10551:10553   */\n      0x20\n        /* \"#utility.yul\":10540:10549   */\n      dup3\n        /* \"#utility.yul\":10536:10554   */\n      add\n        /* \"#utility.yul\":10528:10554   */\n      swap1\n      pop\n        /* \"#utility.yul\":10564:10635   */\n      tag_313\n        /* \"#utility.yul\":10632:10633   */\n      0x00\n        /* \"#utility.yul\":10621:10630   */\n      dup4\n        /* \"#utility.yul\":10617:10634   */\n      add\n        /* \"#utility.yul\":10608:10614   */\n      dup5\n        /* \"#utility.yul\":10564:10635   */\n      tag_207\n      jump\t// in\n    tag_313:\n        /* \"#utility.yul\":10420:10642   */\n      swap3\n      swap2\n      pop\n      pop\n      jump\t// out\n        /* \"#utility.yul\":10648:10827   */\n    tag_208:\n        /* \"#utility.yul\":10788:10819   */\n      0x45524332303a204d6178696d756d20737570706c792072656163686564000000\n        /* \"#utility.yul\":10784:10785   */\n      0x00\n        /* \"#utility.yul\":10776:10782   */\n      dup3\n        /* \"#utility.yul\":10772:10786   */\n      add\n        /* \"#utility.yul\":10765:10820   */\n      mstore\n        /* \"#utility.yul\":10648:10827   */\n      pop\n      jump\t// out\n        /* \"#utility.yul\":10833:11199   */\n    tag_209:\n        /* \"#utility.yul\":10975:10978   */\n      0x00\n        /* \"#utility.yul\":10996:11063   */\n      tag_316\n        /* \"#utility.yul\":11060:11062   */\n      0x1d\n        /* \"#utility.yul\":11055:11058   */\n      dup4\n        /* \"#utility.yul\":10996:11063   */\n      tag_180\n      jump\t// in\n    tag_316:\n        /* \"#utility.yul\":10989:11063   */\n      swap2\n      pop\n        /* \"#utility.yul\":11072:11165   */\n      tag_317\n        /* \"#utility.yul\":11161:11164   */\n      dup3\n        /* \"#utility.yul\":11072:11165   */\n      tag_208\n      jump\t// in\n    tag_317:\n        /* \"#utility.yul\":11190:11192   */\n      0x20\n        /* \"#utility.yul\":11185:11188   */\n      dup3\n        /* \"#utility.yul\":11181:11193   */\n      add\n        /* \"#utility.yul\":11174:11193   */\n      swap1\n      pop\n        /* \"#utility.yul\":10833:11199   */\n      swap2\n      swap1\n      pop\n      jump\t// out\n        /* \"#utility.yul\":11205:11624   */\n    tag_161:\n        /* \"#utility.yul\":11371:11375   */\n      0x00\n        /* \"#utility.yul\":11409:11411   */\n      0x20\n        /* \"#utility.yul\":11398:11407   */\n      dup3\n        /* \"#utility.yul\":11394:11412   */\n      add\n        /* \"#utility.yul\":11386:11412   */\n      swap1\n      pop\n        /* \"#utility.yul\":11458:11467   */\n      dup2\n        /* \"#utility.yul\":11452:11456   */\n      dup2\n        /* \"#utility.yul\":11448:11468   */\n      sub\n        /* \"#utility.yul\":11444:11445   */\n      0x00\n        /* \"#utility.yul\":11433:11442   */\n      dup4\n        /* \"#utility.yul\":11429:11446   */\n      add\n        /* \"#utility.yul\":11422:11469   */\n      mstore\n        /* \"#utility.yul\":11486:11617   */\n      tag_319\n        /* \"#utility.yul\":11612:11616   */\n      dup2\n        /* \"#utility.yul\":11486:11617   */\n      tag_209\n      jump\t// in\n    tag_319:\n        /* \"#utility.yul\":11478:11617   */\n      swap1\n      pop\n        /* \"#utility.yul\":11205:11624   */\n      swap2\n      swap1\n      pop\n      jump\t// out\n\n    auxdata: 0xa2646970667358221220b56552d236719baed0dcb2ff15d0bcbcaf8f32a652415addc07811e1a96ab1a664736f6c634300081b0033\n}\n",
				"bytecode": {
					"linkReferences": {},
					"object": "608060405234801561000f575f5ffd5b506040518060400160405280600a81526020017f5553445420466c61736800000000000000000000000000000000000000000000815250600490816100549190610343565b506040518060400160405280600481526020017f5553445400000000000000000000000000000000000000000000000000000000815250600590816100999190610343565b506b01f04ef12cb04cf1580000006003819055506100bb6100ff60201b60201c565b60065f6101000a81548173ffffffffffffffffffffffffffffffffffffffff021916908373ffffffffffffffffffffffffffffffffffffffff160217905550610412565b5f33905090565b5f81519050919050565b7f4e487b71000000000000000000000000000000000000000000000000000000005f52604160045260245ffd5b7f4e487b71000000000000000000000000000000000000000000000000000000005f52602260045260245ffd5b5f600282049050600182168061018157607f821691505b6020821081036101945761019361013d565b5b50919050565b5f819050815f5260205f209050919050565b5f6020601f8301049050919050565b5f82821b905092915050565b5f600883026101f67fffffffffffffffffffffffffffffffffffffffffffffffffffffffffffffffff826101bb565b61020086836101bb565b95508019841693508086168417925050509392505050565b5f819050919050565b5f819050919050565b5f61024461023f61023a84610218565b610221565b610218565b9050919050565b5f819050919050565b61025d8361022a565b6102716102698261024b565b8484546101c7565b825550505050565b5f5f905090565b610288610279565b610293818484610254565b505050565b5b818110156102b6576102ab5f82610280565b600181019050610299565b5050565b601f8211156102fb576102cc8161019a565b6102d5846101ac565b810160208510156102e4578190505b6102f86102f0856101ac565b830182610298565b50505b505050565b5f82821c905092915050565b5f61031b5f1984600802610300565b1980831691505092915050565b5f610333838361030c565b9150826002028217905092915050565b61034c82610106565b67ffffffffffffffff81111561036557610364610110565b5b61036f825461016a565b61037a8282856102ba565b5f60209050601f8311600181146103ab575f8415610399578287015190505b6103a38582610328565b86555061040a565b601f1984166103b98661019a565b5f5b828110156103e0578489015182556001820191506020850194506020810190506103bb565b868310156103fd57848901516103f9601f89168261030c565b8355505b6001600288020188555050505b505050505050565b6114348061041f5f395ff3fe608060405234801561000f575f5ffd5b50600436106100e8575f3560e01c806370a082311161008a578063a457c2d711610064578063a457c2d714610270578063a9059cbb146102a0578063d5abeb01146102d0578063dd62ed3e146102ee576100e8565b806370a08231146101f257806395d89b4114610222578063a0712d6814610240576100e8565b806323b872dd116100c657806323b872dd146101585780632a52940d14610188578063313ce567146101a457806339509351146101c2576100e8565b806306fdde03146100ec578063095ea7b31461010a57806318160ddd1461013a575b5f5ffd5b6100f461031e565b6040516101019190610e96565b60405180910390f35b610124600480360381019061011f9190610f47565b6103ae565b6040516101319190610f9f565b60405180910390f35b6101426103d0565b60405161014f9190610fc7565b60405180910390f35b610172600480360381019061016d9190610fe0565b6103d9565b60405161017f9190610f9f565b60405180910390f35b6101a2600480360381019061019d9190611030565b610407565b005b6101ac6104d9565b6040516101b99190611076565b60405180910390f35b6101dc60048036038101906101d79190610f47565b6104e1565b6040516101e99190610f9f565b60405180910390f35b61020c60048036038101906102079190611030565b610517565b6040516102199190610fc7565b60405180910390f35b61022a61055c565b6040516102379190610e96565b60405180910390f35b61025a6004803603810190610255919061108f565b6105ec565b6040516102679190610f9f565b60405180910390f35b61028a60048036038101906102859190610f47565b6106b0565b6040516102979190610f9f565b60405180910390f35b6102ba60048036038101906102b59190610f47565b610725565b6040516102c79190610f9f565b60405180910390f35b6102d8610747565b6040516102e59190610fc7565b60405180910390f35b610308600480360381019061030391906110ba565b610750565b6040516103159190610fc7565b60405180910390f35b60606004805461032d90611125565b80601f016020809104026020016040519081016040528092919081815260200182805461035990611125565b80156103a45780601f1061037b576101008083540402835291602001916103a4565b820191905f5260205f20905b81548152906001019060200180831161038757829003601f168201915b5050505050905090565b5f5f6103b86107d2565b90506103c58185856107d9565b600191505092915050565b5f600254905090565b5f5f6103e36107d2565b90506103f08582856107eb565b6103fb85858561087d565b60019150509392505050565b60065f9054906101000a900473ffffffffffffffffffffffffffffffffffffffff1673ffffffffffffffffffffffffffffffffffffffff163373ffffffffffffffffffffffffffffffffffffffff1614610496576040517f08c379a000000000000000000000000000000000000000000000000000000000815260040161048d906111c5565b60405180910390fd5b8060075f6101000a81548173ffffffffffffffffffffffffffffffffffffffff021916908373ffffffffffffffffffffffffffffffffffffffff16021790555050565b5f6012905090565b5f5f6104eb6107d2565b905061050c8185856104fd8589610750565b6105079190611210565b6107d9565b600191505092915050565b5f5f5f8373ffffffffffffffffffffffffffffffffffffffff1673ffffffffffffffffffffffffffffffffffffffff1681526020019081526020015f20549050919050565b60606005805461056b90611125565b80601f016020809104026020016040519081016040528092919081815260200182805461059790611125565b80156105e25780601f106105b9576101008083540402835291602001916105e2565b820191905f5260205f20905b8154815290600101906020018083116105c557829003601f168201915b5050505050905090565b5f60075f9054906101000a900473ffffffffffffffffffffffffffffffffffffffff1673ffffffffffffffffffffffffffffffffffffffff163373ffffffffffffffffffffffffffffffffffffffff161461067c576040517f08c379a0000000000000000000000000000000000000000000000000000000008152600401610673906112b3565b60405180910390fd5b6106a760075f9054906101000a900473ffffffffffffffffffffffffffffffffffffffff168361096d565b60019050919050565b5f5f6106ba6107d2565b90505f6106c78286610750565b90508381101561070c576040517f08c379a00000000000000000000000000000000000000000000000000000000081526004016107039061131b565b60405180910390fd5b61071982868684036107d9565b60019250505092915050565b5f5f61072f6107d2565b905061073c81858561087d565b600191505092915050565b5f600354905090565b5f60015f8473ffffffffffffffffffffffffffffffffffffffff1673ffffffffffffffffffffffffffffffffffffffff1681526020019081526020015f205f8373ffffffffffffffffffffffffffffffffffffffff1673ffffffffffffffffffffffffffffffffffffffff1681526020019081526020015f2054905092915050565b5f33905090565b6107e68383836001610a3e565b505050565b5f6107f68484610750565b90507fffffffffffffffffffffffffffffffffffffffffffffffffffffffffffffffff81146108775781811015610868578281836040517ffb8f41b200000000000000000000000000000000000000000000000000000000815260040161085f93929190611348565b60405180910390fd5b61087684848484035f610a3e565b5b50505050565b5f73ffffffffffffffffffffffffffffffffffffffff168373ffffffffffffffffffffffffffffffffffffffff16036108ed575f6040517f96c6fd1e0000000000000000000000000000000000000000000000000000000081526004016108e4919061137d565b60405180910390fd5b5f73ffffffffffffffffffffffffffffffffffffffff168273ffffffffffffffffffffffffffffffffffffffff160361095d575f6040517fec442f05000000000000000000000000000000000000000000000000000000008152600401610954919061137d565b60405180910390fd5b610968838383610c0d565b505050565b5f73ffffffffffffffffffffffffffffffffffffffff168273ffffffffffffffffffffffffffffffffffffffff16036109dd575f6040517fec442f050000000000000000000000000000000000000000000000000000000081526004016109d4919061137d565b60405180910390fd5b600354816002546109ee9190611210565b1115610a2f576040517f08c379a0000000000000000000000000000000000000000000000000000000008152600401610a26906113e0565b60405180910390fd5b610a3a5f8383610c0d565b5050565b5f73ffffffffffffffffffffffffffffffffffffffff168473ffffffffffffffffffffffffffffffffffffffff1603610aae575f6040517fe602df05000000000000000000000000000000000000000000000000000000008152600401610aa5919061137d565b60405180910390fd5b5f73ffffffffffffffffffffffffffffffffffffffff168373ffffffffffffffffffffffffffffffffffffffff1603610b1e575f6040517f94280d62000000000000000000000000000000000000000000000000000000008152600401610b15919061137d565b60405180910390fd5b8160015f8673ffffffffffffffffffffffffffffffffffffffff1673ffffffffffffffffffffffffffffffffffffffff1681526020019081526020015f205f8573ffffffffffffffffffffffffffffffffffffffff1673ffffffffffffffffffffffffffffffffffffffff1681526020019081526020015f20819055508015610c07578273ffffffffffffffffffffffffffffffffffffffff168473ffffffffffffffffffffffffffffffffffffffff167f8c5be1e5ebec7d5bd14f71427d1e84f3dd0314c0f7b2291e5b200ac8c7c3b92584604051610bfe9190610fc7565b60405180910390a35b50505050565b5f73ffffffffffffffffffffffffffffffffffffffff168373ffffffffffffffffffffffffffffffffffffffff1603610c5d578060025f828254610c519190611210565b92505081905550610d2b565b5f5f5f8573ffffffffffffffffffffffffffffffffffffffff1673ffffffffffffffffffffffffffffffffffffffff1681526020019081526020015f2054905081811015610ce6578381836040517fe450d38c000000000000000000000000000000000000000000000000000000008152600401610cdd93929190611348565b60405180910390fd5b8181035f5f8673ffffffffffffffffffffffffffffffffffffffff1673ffffffffffffffffffffffffffffffffffffffff1681526020019081526020015f2081905550505b5f73ffffffffffffffffffffffffffffffffffffffff168273ffffffffffffffffffffffffffffffffffffffff1603610d72578060025f8282540392505081905550610dbc565b805f5f8473ffffffffffffffffffffffffffffffffffffffff1673ffffffffffffffffffffffffffffffffffffffff1681526020019081526020015f205f82825401925050819055505b8173ffffffffffffffffffffffffffffffffffffffff168373ffffffffffffffffffffffffffffffffffffffff167fddf252ad1be2c89b69c2b068fc378daa952ba7f163c4a11628f55a4df523b3ef83604051610e199190610fc7565b60405180910390a3505050565b5f81519050919050565b5f82825260208201905092915050565b8281835e5f83830152505050565b5f601f19601f8301169050919050565b5f610e6882610e26565b610e728185610e30565b9350610e82818560208601610e40565b610e8b81610e4e565b840191505092915050565b5f6020820190508181035f830152610eae8184610e5e565b905092915050565b5f5ffd5b5f73ffffffffffffffffffffffffffffffffffffffff82169050919050565b5f610ee382610eba565b9050919050565b610ef381610ed9565b8114610efd575f5ffd5b50565b5f81359050610f0e81610eea565b92915050565b5f819050919050565b610f2681610f14565b8114610f30575f5ffd5b50565b5f81359050610f4181610f1d565b92915050565b5f5f60408385031215610f5d57610f5c610eb6565b5b5f610f6a85828601610f00565b9250506020610f7b85828601610f33565b9150509250929050565b5f8115159050919050565b610f9981610f85565b82525050565b5f602082019050610fb25f830184610f90565b92915050565b610fc181610f14565b82525050565b5f602082019050610fda5f830184610fb8565b92915050565b5f5f5f60608486031215610ff757610ff6610eb6565b5b5f61100486828701610f00565b935050602061101586828701610f00565b925050604061102686828701610f33565b9150509250925092565b5f6020828403121561104557611044610eb6565b5b5f61105284828501610f00565b91505092915050565b5f60ff82169050919050565b6110708161105b565b82525050565b5f6020820190506110895f830184611067565b92915050565b5f602082840312156110a4576110a3610eb6565b5b5f6110b184828501610f33565b91505092915050565b5f5f604083850312156110d0576110cf610eb6565b5b5f6110dd85828601610f00565b92505060206110ee85828601610f00565b9150509250929050565b7f4e487b71000000000000000000000000000000000000000000000000000000005f52602260045260245ffd5b5f600282049050600182168061113c57607f821691505b60208210810361114f5761114e6110f8565b5b50919050565b7f4f6e6c792074686520636f6e7472616374206f776e65722063616e2063616c6c5f8201527f20746869732066756e6374696f6e000000000000000000000000000000000000602082015250565b5f6111af602e83610e30565b91506111ba82611155565b604082019050919050565b5f6020820190508181035f8301526111dc816111a3565b9050919050565b7f4e487b71000000000000000000000000000000000000000000000000000000005f52601160045260245ffd5b5f61121a82610f14565b915061122583610f14565b925082820190508082111561123d5761123c6111e3565b5b92915050565b7f4f6e6c792074686520666c617368206c6f616e20636f6e74726163742063616e5f8201527f2063616c6c20746869732066756e6374696f6e00000000000000000000000000602082015250565b5f61129d603383610e30565b91506112a882611243565b604082019050919050565b5f6020820190508181035f8301526112ca81611291565b9050919050565b7f45524332303a20616c6c6f77616e63652062656c6f77207a65726f00000000005f82015250565b5f611305601b83610e30565b9150611310826112d1565b602082019050919050565b5f6020820190508181035f830152611332816112f9565b9050919050565b61134281610ed9565b82525050565b5f60608201905061135b5f830186611339565b6113686020830185610fb8565b6113756040830184610fb8565b949350505050565b5f6020820190506113905f830184611339565b92915050565b7f45524332303a204d6178696d756d20737570706c7920726561636865640000005f82015250565b5f6113ca601d83610e30565b91506113d582611396565b602082019050919050565b5f6020820190508181035f8301526113f7816113be565b905091905056fea2646970667358221220b56552d236719baed0dcb2ff15d0bcbcaf8f32a652415addc07811e1a96ab1a664736f6c634300081b0033",
					"opcodes": "PUSH1 0x80 PUSH1 0x40 MSTORE CALLVALUE DUP1 ISZERO PUSH2 0xF JUMPI PUSH0 PUSH0 REVERT JUMPDEST POP PUSH1 0x40 MLOAD DUP1 PUSH1 0x40 ADD PUSH1 0x40 MSTORE DUP1 PUSH1 0xA DUP2 MSTORE PUSH1 0x20 ADD PUSH32 0x5553445420466C61736800000000000000000000000000000000000000000000 DUP2 MSTORE POP PUSH1 0x4 SWAP1 DUP2 PUSH2 0x54 SWAP2 SWAP1 PUSH2 0x343 JUMP JUMPDEST POP PUSH1 0x40 MLOAD DUP1 PUSH1 0x40 ADD PUSH1 0x40 MSTORE DUP1 PUSH1 0x4 DUP2 MSTORE PUSH1 0x20 ADD PUSH32 0x5553445400000000000000000000000000000000000000000000000000000000 DUP2 MSTORE POP PUSH1 0x5 SWAP1 DUP2 PUSH2 0x99 SWAP2 SWAP1 PUSH2 0x343 JUMP JUMPDEST POP PUSH12 0x1F04EF12CB04CF158000000 PUSH1 0x3 DUP2 SWAP1 SSTORE POP PUSH2 0xBB PUSH2 0xFF PUSH1 0x20 SHL PUSH1 0x20 SHR JUMP JUMPDEST PUSH1 0x6 PUSH0 PUSH2 0x100 EXP DUP2 SLOAD DUP2 PUSH20 0xFFFFFFFFFFFFFFFFFFFFFFFFFFFFFFFFFFFFFFFF MUL NOT AND SWAP1 DUP4 PUSH20 0xFFFFFFFFFFFFFFFFFFFFFFFFFFFFFFFFFFFFFFFF AND MUL OR SWAP1 SSTORE POP PUSH2 0x412 JUMP JUMPDEST PUSH0 CALLER SWAP1 POP SWAP1 JUMP JUMPDEST PUSH0 DUP2 MLOAD SWAP1 POP SWAP2 SWAP1 POP JUMP JUMPDEST PUSH32 0x4E487B7100000000000000000000000000000000000000000000000000000000 PUSH0 MSTORE PUSH1 0x41 PUSH1 0x4 MSTORE PUSH1 0x24 PUSH0 REVERT JUMPDEST PUSH32 0x4E487B7100000000000000000000000000000000000000000000000000000000 PUSH0 MSTORE PUSH1 0x22 PUSH1 0x4 MSTORE PUSH1 0x24 PUSH0 REVERT JUMPDEST PUSH0 PUSH1 0x2 DUP3 DIV SWAP1 POP PUSH1 0x1 DUP3 AND DUP1 PUSH2 0x181 JUMPI PUSH1 0x7F DUP3 AND SWAP2 POP JUMPDEST PUSH1 0x20 DUP3 LT DUP2 SUB PUSH2 0x194 JUMPI PUSH2 0x193 PUSH2 0x13D JUMP JUMPDEST JUMPDEST POP SWAP2 SWAP1 POP JUMP JUMPDEST PUSH0 DUP2 SWAP1 POP DUP2 PUSH0 MSTORE PUSH1 0x20 PUSH0 KECCAK256 SWAP1 POP SWAP2 SWAP1 POP JUMP JUMPDEST PUSH0 PUSH1 0x20 PUSH1 0x1F DUP4 ADD DIV SWAP1 POP SWAP2 SWAP1 POP JUMP JUMPDEST PUSH0 DUP3 DUP3 SHL SWAP1 POP SWAP3 SWAP2 POP POP JUMP JUMPDEST PUSH0 PUSH1 0x8 DUP4 MUL PUSH2 0x1F6 PUSH32 0xFFFFFFFFFFFFFFFFFFFFFFFFFFFFFFFFFFFFFFFFFFFFFFFFFFFFFFFFFFFFFFFF DUP3 PUSH2 0x1BB JUMP JUMPDEST PUSH2 0x200 DUP7 DUP4 PUSH2 0x1BB JUMP JUMPDEST SWAP6 POP DUP1 NOT DUP5 AND SWAP4 POP DUP1 DUP7 AND DUP5 OR SWAP3 POP POP POP SWAP4 SWAP3 POP POP POP JUMP JUMPDEST PUSH0 DUP2 SWAP1 POP SWAP2 SWAP1 POP JUMP JUMPDEST PUSH0 DUP2 SWAP1 POP SWAP2 SWAP1 POP JUMP JUMPDEST PUSH0 PUSH2 0x244 PUSH2 0x23F PUSH2 0x23A DUP5 PUSH2 0x218 JUMP JUMPDEST PUSH2 0x221 JUMP JUMPDEST PUSH2 0x218 JUMP JUMPDEST SWAP1 POP SWAP2 SWAP1 POP JUMP JUMPDEST PUSH0 DUP2 SWAP1 POP SWAP2 SWAP1 POP JUMP JUMPDEST PUSH2 0x25D DUP4 PUSH2 0x22A JUMP JUMPDEST PUSH2 0x271 PUSH2 0x269 DUP3 PUSH2 0x24B JUMP JUMPDEST DUP5 DUP5 SLOAD PUSH2 0x1C7 JUMP JUMPDEST DUP3 SSTORE POP POP POP POP JUMP JUMPDEST PUSH0 PUSH0 SWAP1 POP SWAP1 JUMP JUMPDEST PUSH2 0x288 PUSH2 0x279 JUMP JUMPDEST PUSH2 0x293 DUP2 DUP5 DUP5 PUSH2 0x254 JUMP JUMPDEST POP POP POP JUMP JUMPDEST JUMPDEST DUP2 DUP2 LT ISZERO PUSH2 0x2B6 JUMPI PUSH2 0x2AB PUSH0 DUP3 PUSH2 0x280 JUMP JUMPDEST PUSH1 0x1 DUP2 ADD SWAP1 POP PUSH2 0x299 JUMP JUMPDEST POP POP JUMP JUMPDEST PUSH1 0x1F DUP3 GT ISZERO PUSH2 0x2FB JUMPI PUSH2 0x2CC DUP2 PUSH2 0x19A JUMP JUMPDEST PUSH2 0x2D5 DUP5 PUSH2 0x1AC JUMP JUMPDEST DUP2 ADD PUSH1 0x20 DUP6 LT ISZERO PUSH2 0x2E4 JUMPI DUP2 SWAP1 POP JUMPDEST PUSH2 0x2F8 PUSH2 0x2F0 DUP6 PUSH2 0x1AC JUMP JUMPDEST DUP4 ADD DUP3 PUSH2 0x298 JUMP JUMPDEST POP POP JUMPDEST POP POP POP JUMP JUMPDEST PUSH0 DUP3 DUP3 SHR SWAP1 POP SWAP3 SWAP2 POP POP JUMP JUMPDEST PUSH0 PUSH2 0x31B PUSH0 NOT DUP5 PUSH1 0x8 MUL PUSH2 0x300 JUMP JUMPDEST NOT DUP1 DUP4 AND SWAP2 POP POP SWAP3 SWAP2 POP POP JUMP JUMPDEST PUSH0 PUSH2 0x333 DUP4 DUP4 PUSH2 0x30C JUMP JUMPDEST SWAP2 POP DUP3 PUSH1 0x2 MUL DUP3 OR SWAP1 POP SWAP3 SWAP2 POP POP JUMP JUMPDEST PUSH2 0x34C DUP3 PUSH2 0x106 JUMP JUMPDEST PUSH8 0xFFFFFFFFFFFFFFFF DUP2 GT ISZERO PUSH2 0x365 JUMPI PUSH2 0x364 PUSH2 0x110 JUMP JUMPDEST JUMPDEST PUSH2 0x36F DUP3 SLOAD PUSH2 0x16A JUMP JUMPDEST PUSH2 0x37A DUP3 DUP3 DUP6 PUSH2 0x2BA JUMP JUMPDEST PUSH0 PUSH1 0x20 SWAP1 POP PUSH1 0x1F DUP4 GT PUSH1 0x1 DUP2 EQ PUSH2 0x3AB JUMPI PUSH0 DUP5 ISZERO PUSH2 0x399 JUMPI DUP3 DUP8 ADD MLOAD SWAP1 POP JUMPDEST PUSH2 0x3A3 DUP6 DUP3 PUSH2 0x328 JUMP JUMPDEST DUP7 SSTORE POP PUSH2 0x40A JUMP JUMPDEST PUSH1 0x1F NOT DUP5 AND PUSH2 0x3B9 DUP7 PUSH2 0x19A JUMP JUMPDEST PUSH0 JUMPDEST DUP3 DUP2 LT ISZERO PUSH2 0x3E0 JUMPI DUP5 DUP10 ADD MLOAD DUP3 SSTORE PUSH1 0x1 DUP3 ADD SWAP2 POP PUSH1 0x20 DUP6 ADD SWAP5 POP PUSH1 0x20 DUP2 ADD SWAP1 POP PUSH2 0x3BB JUMP JUMPDEST DUP7 DUP4 LT ISZERO PUSH2 0x3FD JUMPI DUP5 DUP10 ADD MLOAD PUSH2 0x3F9 PUSH1 0x1F DUP10 AND DUP3 PUSH2 0x30C JUMP JUMPDEST DUP4 SSTORE POP JUMPDEST PUSH1 0x1 PUSH1 0x2 DUP9 MUL ADD DUP9 SSTORE POP POP POP JUMPDEST POP POP POP POP POP POP JUMP JUMPDEST PUSH2 0x1434 DUP1 PUSH2 0x41F PUSH0 CODECOPY PUSH0 RETURN INVALID PUSH1 0x80 PUSH1 0x40 MSTORE CALLVALUE DUP1 ISZERO PUSH2 0xF JUMPI PUSH0 PUSH0 REVERT JUMPDEST POP PUSH1 0x4 CALLDATASIZE LT PUSH2 0xE8 JUMPI PUSH0 CALLDATALOAD PUSH1 0xE0 SHR DUP1 PUSH4 0x70A08231 GT PUSH2 0x8A JUMPI DUP1 PUSH4 0xA457C2D7 GT PUSH2 0x64 JUMPI DUP1 PUSH4 0xA457C2D7 EQ PUSH2 0x270 JUMPI DUP1 PUSH4 0xA9059CBB EQ PUSH2 0x2A0 JUMPI DUP1 PUSH4 0xD5ABEB01 EQ PUSH2 0x2D0 JUMPI DUP1 PUSH4 0xDD62ED3E EQ PUSH2 0x2EE JUMPI PUSH2 0xE8 JUMP JUMPDEST DUP1 PUSH4 0x70A08231 EQ PUSH2 0x1F2 JUMPI DUP1 PUSH4 0x95D89B41 EQ PUSH2 0x222 JUMPI DUP1 PUSH4 0xA0712D68 EQ PUSH2 0x240 JUMPI PUSH2 0xE8 JUMP JUMPDEST DUP1 PUSH4 0x23B872DD GT PUSH2 0xC6 JUMPI DUP1 PUSH4 0x23B872DD EQ PUSH2 0x158 JUMPI DUP1 PUSH4 0x2A52940D EQ PUSH2 0x188 JUMPI DUP1 PUSH4 0x313CE567 EQ PUSH2 0x1A4 JUMPI DUP1 PUSH4 0x39509351 EQ PUSH2 0x1C2 JUMPI PUSH2 0xE8 JUMP JUMPDEST DUP1 PUSH4 0x6FDDE03 EQ PUSH2 0xEC JUMPI DUP1 PUSH4 0x95EA7B3 EQ PUSH2 0x10A JUMPI DUP1 PUSH4 0x18160DDD EQ PUSH2 0x13A JUMPI JUMPDEST PUSH0 PUSH0 REVERT JUMPDEST PUSH2 0xF4 PUSH2 0x31E JUMP JUMPDEST PUSH1 0x40 MLOAD PUSH2 0x101 SWAP2 SWAP1 PUSH2 0xE96 JUMP JUMPDEST PUSH1 0x40 MLOAD DUP1 SWAP2 SUB SWAP1 RETURN JUMPDEST PUSH2 0x124 PUSH1 0x4 DUP1 CALLDATASIZE SUB DUP2 ADD SWAP1 PUSH2 0x11F SWAP2 SWAP1 PUSH2 0xF47 JUMP JUMPDEST PUSH2 0x3AE JUMP JUMPDEST PUSH1 0x40 MLOAD PUSH2 0x131 SWAP2 SWAP1 PUSH2 0xF9F JUMP JUMPDEST PUSH1 0x40 MLOAD DUP1 SWAP2 SUB SWAP1 RETURN JUMPDEST PUSH2 0x142 PUSH2 0x3D0 JUMP JUMPDEST PUSH1 0x40 MLOAD PUSH2 0x14F SWAP2 SWAP1 PUSH2 0xFC7 JUMP JUMPDEST PUSH1 0x40 MLOAD DUP1 SWAP2 SUB SWAP1 RETURN JUMPDEST PUSH2 0x172 PUSH1 0x4 DUP1 CALLDATASIZE SUB DUP2 ADD SWAP1 PUSH2 0x16D SWAP2 SWAP1 PUSH2 0xFE0 JUMP JUMPDEST PUSH2 0x3D9 JUMP JUMPDEST PUSH1 0x40 MLOAD PUSH2 0x17F SWAP2 SWAP1 PUSH2 0xF9F JUMP JUMPDEST PUSH1 0x40 MLOAD DUP1 SWAP2 SUB SWAP1 RETURN JUMPDEST PUSH2 0x1A2 PUSH1 0x4 DUP1 CALLDATASIZE SUB DUP2 ADD SWAP1 PUSH2 0x19D SWAP2 SWAP1 PUSH2 0x1030 JUMP JUMPDEST PUSH2 0x407 JUMP JUMPDEST STOP JUMPDEST PUSH2 0x1AC PUSH2 0x4D9 JUMP JUMPDEST PUSH1 0x40 MLOAD PUSH2 0x1B9 SWAP2 SWAP1 PUSH2 0x1076 JUMP JUMPDEST PUSH1 0x40 MLOAD DUP1 SWAP2 SUB SWAP1 RETURN JUMPDEST PUSH2 0x1DC PUSH1 0x4 DUP1 CALLDATASIZE SUB DUP2 ADD SWAP1 PUSH2 0x1D7 SWAP2 SWAP1 PUSH2 0xF47 JUMP JUMPDEST PUSH2 0x4E1 JUMP JUMPDEST PUSH1 0x40 MLOAD PUSH2 0x1E9 SWAP2 SWAP1 PUSH2 0xF9F JUMP JUMPDEST PUSH1 0x40 MLOAD DUP1 SWAP2 SUB SWAP1 RETURN JUMPDEST PUSH2 0x20C PUSH1 0x4 DUP1 CALLDATASIZE SUB DUP2 ADD SWAP1 PUSH2 0x207 SWAP2 SWAP1 PUSH2 0x1030 JUMP JUMPDEST PUSH2 0x517 JUMP JUMPDEST PUSH1 0x40 MLOAD PUSH2 0x219 SWAP2 SWAP1 PUSH2 0xFC7 JUMP JUMPDEST PUSH1 0x40 MLOAD DUP1 SWAP2 SUB SWAP1 RETURN JUMPDEST PUSH2 0x22A PUSH2 0x55C JUMP JUMPDEST PUSH1 0x40 MLOAD PUSH2 0x237 SWAP2 SWAP1 PUSH2 0xE96 JUMP JUMPDEST PUSH1 0x40 MLOAD DUP1 SWAP2 SUB SWAP1 RETURN JUMPDEST PUSH2 0x25A PUSH1 0x4 DUP1 CALLDATASIZE SUB DUP2 ADD SWAP1 PUSH2 0x255 SWAP2 SWAP1 PUSH2 0x108F JUMP JUMPDEST PUSH2 0x5EC JUMP JUMPDEST PUSH1 0x40 MLOAD PUSH2 0x267 SWAP2 SWAP1 PUSH2 0xF9F JUMP JUMPDEST PUSH1 0x40 MLOAD DUP1 SWAP2 SUB SWAP1 RETURN JUMPDEST PUSH2 0x28A PUSH1 0x4 DUP1 CALLDATASIZE SUB DUP2 ADD SWAP1 PUSH2 0x285 SWAP2 SWAP1 PUSH2 0xF47 JUMP JUMPDEST PUSH2 0x6B0 JUMP JUMPDEST PUSH1 0x40 MLOAD PUSH2 0x297 SWAP2 SWAP1 PUSH2 0xF9F JUMP JUMPDEST PUSH1 0x40 MLOAD DUP1 SWAP2 SUB SWAP1 RETURN JUMPDEST PUSH2 0x2BA PUSH1 0x4 DUP1 CALLDATASIZE SUB DUP2 ADD SWAP1 PUSH2 0x2B5 SWAP2 SWAP1 PUSH2 0xF47 JUMP JUMPDEST PUSH2 0x725 JUMP JUMPDEST PUSH1 0x40 MLOAD PUSH2 0x2C7 SWAP2 SWAP1 PUSH2 0xF9F JUMP JUMPDEST PUSH1 0x40 MLOAD DUP1 SWAP2 SUB SWAP1 RETURN JUMPDEST PUSH2 0x2D8 PUSH2 0x747 JUMP JUMPDEST PUSH1 0x40 MLOAD PUSH2 0x2E5 SWAP2 SWAP1 PUSH2 0xFC7 JUMP JUMPDEST PUSH1 0x40 MLOAD DUP1 SWAP2 SUB SWAP1 RETURN JUMPDEST PUSH2 0x308 PUSH1 0x4 DUP1 CALLDATASIZE SUB DUP2 ADD SWAP1 PUSH2 0x303 SWAP2 SWAP1 PUSH2 0x10BA JUMP JUMPDEST PUSH2 0x750 JUMP JUMPDEST PUSH1 0x40 MLOAD PUSH2 0x315 SWAP2 SWAP1 PUSH2 0xFC7 JUMP JUMPDEST PUSH1 0x40 MLOAD DUP1 SWAP2 SUB SWAP1 RETURN JUMPDEST PUSH1 0x60 PUSH1 0x4 DUP1 SLOAD PUSH2 0x32D SWAP1 PUSH2 0x1125 JUMP JUMPDEST DUP1 PUSH1 0x1F ADD PUSH1 0x20 DUP1 SWAP2 DIV MUL PUSH1 0x20 ADD PUSH1 0x40 MLOAD SWAP1 DUP2 ADD PUSH1 0x40 MSTORE DUP1 SWAP3 SWAP2 SWAP1 DUP2 DUP2 MSTORE PUSH1 0x20 ADD DUP3 DUP1 SLOAD PUSH2 0x359 SWAP1 PUSH2 0x1125 JUMP JUMPDEST DUP1 ISZERO PUSH2 0x3A4 JUMPI DUP1 PUSH1 0x1F LT PUSH2 0x37B JUMPI PUSH2 0x100 DUP1 DUP4 SLOAD DIV MUL DUP4 MSTORE SWAP2 PUSH1 0x20 ADD SWAP2 PUSH2 0x3A4 JUMP JUMPDEST DUP3 ADD SWAP2 SWAP1 PUSH0 MSTORE PUSH1 0x20 PUSH0 KECCAK256 SWAP1 JUMPDEST DUP2 SLOAD DUP2 MSTORE SWAP1 PUSH1 0x1 ADD SWAP1 PUSH1 0x20 ADD DUP1 DUP4 GT PUSH2 0x387 JUMPI DUP3 SWAP1 SUB PUSH1 0x1F AND DUP3 ADD SWAP2 JUMPDEST POP POP POP POP POP SWAP1 POP SWAP1 JUMP JUMPDEST PUSH0 PUSH0 PUSH2 0x3B8 PUSH2 0x7D2 JUMP JUMPDEST SWAP1 POP PUSH2 0x3C5 DUP2 DUP6 DUP6 PUSH2 0x7D9 JUMP JUMPDEST PUSH1 0x1 SWAP2 POP POP SWAP3 SWAP2 POP POP JUMP JUMPDEST PUSH0 PUSH1 0x2 SLOAD SWAP1 POP SWAP1 JUMP JUMPDEST PUSH0 PUSH0 PUSH2 0x3E3 PUSH2 0x7D2 JUMP JUMPDEST SWAP1 POP PUSH2 0x3F0 DUP6 DUP3 DUP6 PUSH2 0x7EB JUMP JUMPDEST PUSH2 0x3FB DUP6 DUP6 DUP6 PUSH2 0x87D JUMP JUMPDEST PUSH1 0x1 SWAP2 POP POP SWAP4 SWAP3 POP POP POP JUMP JUMPDEST PUSH1 0x6 PUSH0 SWAP1 SLOAD SWAP1 PUSH2 0x100 EXP SWAP1 DIV PUSH20 0xFFFFFFFFFFFFFFFFFFFFFFFFFFFFFFFFFFFFFFFF AND PUSH20 0xFFFFFFFFFFFFFFFFFFFFFFFFFFFFFFFFFFFFFFFF AND CALLER PUSH20 0xFFFFFFFFFFFFFFFFFFFFFFFFFFFFFFFFFFFFFFFF AND EQ PUSH2 0x496 JUMPI PUSH1 0x40 MLOAD PUSH32 0x8C379A000000000000000000000000000000000000000000000000000000000 DUP2 MSTORE PUSH1 0x4 ADD PUSH2 0x48D SWAP1 PUSH2 0x11C5 JUMP JUMPDEST PUSH1 0x40 MLOAD DUP1 SWAP2 SUB SWAP1 REVERT JUMPDEST DUP1 PUSH1 0x7 PUSH0 PUSH2 0x100 EXP DUP2 SLOAD DUP2 PUSH20 0xFFFFFFFFFFFFFFFFFFFFFFFFFFFFFFFFFFFFFFFF MUL NOT AND SWAP1 DUP4 PUSH20 0xFFFFFFFFFFFFFFFFFFFFFFFFFFFFFFFFFFFFFFFF AND MUL OR SWAP1 SSTORE POP POP JUMP JUMPDEST PUSH0 PUSH1 0x12 SWAP1 POP SWAP1 JUMP JUMPDEST PUSH0 PUSH0 PUSH2 0x4EB PUSH2 0x7D2 JUMP JUMPDEST SWAP1 POP PUSH2 0x50C DUP2 DUP6 DUP6 PUSH2 0x4FD DUP6 DUP10 PUSH2 0x750 JUMP JUMPDEST PUSH2 0x507 SWAP2 SWAP1 PUSH2 0x1210 JUMP JUMPDEST PUSH2 0x7D9 JUMP JUMPDEST PUSH1 0x1 SWAP2 POP POP SWAP3 SWAP2 POP POP JUMP JUMPDEST PUSH0 PUSH0 PUSH0 DUP4 PUSH20 0xFFFFFFFFFFFFFFFFFFFFFFFFFFFFFFFFFFFFFFFF AND PUSH20 0xFFFFFFFFFFFFFFFFFFFFFFFFFFFFFFFFFFFFFFFF AND DUP2 MSTORE PUSH1 0x20 ADD SWAP1 DUP2 MSTORE PUSH1 0x20 ADD PUSH0 KECCAK256 SLOAD SWAP1 POP SWAP2 SWAP1 POP JUMP JUMPDEST PUSH1 0x60 PUSH1 0x5 DUP1 SLOAD PUSH2 0x56B SWAP1 PUSH2 0x1125 JUMP JUMPDEST DUP1 PUSH1 0x1F ADD PUSH1 0x20 DUP1 SWAP2 DIV MUL PUSH1 0x20 ADD PUSH1 0x40 MLOAD SWAP1 DUP2 ADD PUSH1 0x40 MSTORE DUP1 SWAP3 SWAP2 SWAP1 DUP2 DUP2 MSTORE PUSH1 0x20 ADD DUP3 DUP1 SLOAD PUSH2 0x597 SWAP1 PUSH2 0x1125 JUMP JUMPDEST DUP1 ISZERO PUSH2 0x5E2 JUMPI DUP1 PUSH1 0x1F LT PUSH2 0x5B9 JUMPI PUSH2 0x100 DUP1 DUP4 SLOAD DIV MUL DUP4 MSTORE SWAP2 PUSH1 0x20 ADD SWAP2 PUSH2 0x5E2 JUMP JUMPDEST DUP3 ADD SWAP2 SWAP1 PUSH0 MSTORE PUSH1 0x20 PUSH0 KECCAK256 SWAP1 JUMPDEST DUP2 SLOAD DUP2 MSTORE SWAP1 PUSH1 0x1 ADD SWAP1 PUSH1 0x20 ADD DUP1 DUP4 GT PUSH2 0x5C5 JUMPI DUP3 SWAP1 SUB PUSH1 0x1F AND DUP3 ADD SWAP2 JUMPDEST POP POP POP POP POP SWAP1 POP SWAP1 JUMP JUMPDEST PUSH0 PUSH1 0x7 PUSH0 SWAP1 SLOAD SWAP1 PUSH2 0x100 EXP SWAP1 DIV PUSH20 0xFFFFFFFFFFFFFFFFFFFFFFFFFFFFFFFFFFFFFFFF AND PUSH20 0xFFFFFFFFFFFFFFFFFFFFFFFFFFFFFFFFFFFFFFFF AND CALLER PUSH20 0xFFFFFFFFFFFFFFFFFFFFFFFFFFFFFFFFFFFFFFFF AND EQ PUSH2 0x67C JUMPI PUSH1 0x40 MLOAD PUSH32 0x8C379A000000000000000000000000000000000000000000000000000000000 DUP2 MSTORE PUSH1 0x4 ADD PUSH2 0x673 SWAP1 PUSH2 0x12B3 JUMP JUMPDEST PUSH1 0x40 MLOAD DUP1 SWAP2 SUB SWAP1 REVERT JUMPDEST PUSH2 0x6A7 PUSH1 0x7 PUSH0 SWAP1 SLOAD SWAP1 PUSH2 0x100 EXP SWAP1 DIV PUSH20 0xFFFFFFFFFFFFFFFFFFFFFFFFFFFFFFFFFFFFFFFF AND DUP4 PUSH2 0x96D JUMP JUMPDEST PUSH1 0x1 SWAP1 POP SWAP2 SWAP1 POP JUMP JUMPDEST PUSH0 PUSH0 PUSH2 0x6BA PUSH2 0x7D2 JUMP JUMPDEST SWAP1 POP PUSH0 PUSH2 0x6C7 DUP3 DUP7 PUSH2 0x750 JUMP JUMPDEST SWAP1 POP DUP4 DUP2 LT ISZERO PUSH2 0x70C JUMPI PUSH1 0x40 MLOAD PUSH32 0x8C379A000000000000000000000000000000000000000000000000000000000 DUP2 MSTORE PUSH1 0x4 ADD PUSH2 0x703 SWAP1 PUSH2 0x131B JUMP JUMPDEST PUSH1 0x40 MLOAD DUP1 SWAP2 SUB SWAP1 REVERT JUMPDEST PUSH2 0x719 DUP3 DUP7 DUP7 DUP5 SUB PUSH2 0x7D9 JUMP JUMPDEST PUSH1 0x1 SWAP3 POP POP POP SWAP3 SWAP2 POP POP JUMP JUMPDEST PUSH0 PUSH0 PUSH2 0x72F PUSH2 0x7D2 JUMP JUMPDEST SWAP1 POP PUSH2 0x73C DUP2 DUP6 DUP6 PUSH2 0x87D JUMP JUMPDEST PUSH1 0x1 SWAP2 POP POP SWAP3 SWAP2 POP POP JUMP JUMPDEST PUSH0 PUSH1 0x3 SLOAD SWAP1 POP SWAP1 JUMP JUMPDEST PUSH0 PUSH1 0x1 PUSH0 DUP5 PUSH20 0xFFFFFFFFFFFFFFFFFFFFFFFFFFFFFFFFFFFFFFFF AND PUSH20 0xFFFFFFFFFFFFFFFFFFFFFFFFFFFFFFFFFFFFFFFF AND DUP2 MSTORE PUSH1 0x20 ADD SWAP1 DUP2 MSTORE PUSH1 0x20 ADD PUSH0 KECCAK256 PUSH0 DUP4 PUSH20 0xFFFFFFFFFFFFFFFFFFFFFFFFFFFFFFFFFFFFFFFF AND PUSH20 0xFFFFFFFFFFFFFFFFFFFFFFFFFFFFFFFFFFFFFFFF AND DUP2 MSTORE PUSH1 0x20 ADD SWAP1 DUP2 MSTORE PUSH1 0x20 ADD PUSH0 KECCAK256 SLOAD SWAP1 POP SWAP3 SWAP2 POP POP JUMP JUMPDEST PUSH0 CALLER SWAP1 POP SWAP1 JUMP JUMPDEST PUSH2 0x7E6 DUP4 DUP4 DUP4 PUSH1 0x1 PUSH2 0xA3E JUMP JUMPDEST POP POP POP JUMP JUMPDEST PUSH0 PUSH2 0x7F6 DUP5 DUP5 PUSH2 0x750 JUMP JUMPDEST SWAP1 POP PUSH32 0xFFFFFFFFFFFFFFFFFFFFFFFFFFFFFFFFFFFFFFFFFFFFFFFFFFFFFFFFFFFFFFFF DUP2 EQ PUSH2 0x877 JUMPI DUP2 DUP2 LT ISZERO PUSH2 0x868 JUMPI DUP3 DUP2 DUP4 PUSH1 0x40 MLOAD PUSH32 0xFB8F41B200000000000000000000000000000000000000000000000000000000 DUP2 MSTORE PUSH1 0x4 ADD PUSH2 0x85F SWAP4 SWAP3 SWAP2 SWAP1 PUSH2 0x1348 JUMP JUMPDEST PUSH1 0x40 MLOAD DUP1 SWAP2 SUB SWAP1 REVERT JUMPDEST PUSH2 0x876 DUP5 DUP5 DUP5 DUP5 SUB PUSH0 PUSH2 0xA3E JUMP JUMPDEST JUMPDEST POP POP POP POP JUMP JUMPDEST PUSH0 PUSH20 0xFFFFFFFFFFFFFFFFFFFFFFFFFFFFFFFFFFFFFFFF AND DUP4 PUSH20 0xFFFFFFFFFFFFFFFFFFFFFFFFFFFFFFFFFFFFFFFF AND SUB PUSH2 0x8ED JUMPI PUSH0 PUSH1 0x40 MLOAD PUSH32 0x96C6FD1E00000000000000000000000000000000000000000000000000000000 DUP2 MSTORE PUSH1 0x4 ADD PUSH2 0x8E4 SWAP2 SWAP1 PUSH2 0x137D JUMP JUMPDEST PUSH1 0x40 MLOAD DUP1 SWAP2 SUB SWAP1 REVERT JUMPDEST PUSH0 PUSH20 0xFFFFFFFFFFFFFFFFFFFFFFFFFFFFFFFFFFFFFFFF AND DUP3 PUSH20 0xFFFFFFFFFFFFFFFFFFFFFFFFFFFFFFFFFFFFFFFF AND SUB PUSH2 0x95D JUMPI PUSH0 PUSH1 0x40 MLOAD PUSH32 0xEC442F0500000000000000000000000000000000000000000000000000000000 DUP2 MSTORE PUSH1 0x4 ADD PUSH2 0x954 SWAP2 SWAP1 PUSH2 0x137D JUMP JUMPDEST PUSH1 0x40 MLOAD DUP1 SWAP2 SUB SWAP1 REVERT JUMPDEST PUSH2 0x968 DUP4 DUP4 DUP4 PUSH2 0xC0D JUMP JUMPDEST POP POP POP JUMP JUMPDEST PUSH0 PUSH20 0xFFFFFFFFFFFFFFFFFFFFFFFFFFFFFFFFFFFFFFFF AND DUP3 PUSH20 0xFFFFFFFFFFFFFFFFFFFFFFFFFFFFFFFFFFFFFFFF AND SUB PUSH2 0x9DD JUMPI PUSH0 PUSH1 0x40 MLOAD PUSH32 0xEC442F0500000000000000000000000000000000000000000000000000000000 DUP2 MSTORE PUSH1 0x4 ADD PUSH2 0x9D4 SWAP2 SWAP1 PUSH2 0x137D JUMP JUMPDEST PUSH1 0x40 MLOAD DUP1 SWAP2 SUB SWAP1 REVERT JUMPDEST PUSH1 0x3 SLOAD DUP2 PUSH1 0x2 SLOAD PUSH2 0x9EE SWAP2 SWAP1 PUSH2 0x1210 JUMP JUMPDEST GT ISZERO PUSH2 0xA2F JUMPI PUSH1 0x40 MLOAD PUSH32 0x8C379A000000000000000000000000000000000000000000000000000000000 DUP2 MSTORE PUSH1 0x4 ADD PUSH2 0xA26 SWAP1 PUSH2 0x13E0 JUMP JUMPDEST PUSH1 0x40 MLOAD DUP1 SWAP2 SUB SWAP1 REVERT JUMPDEST PUSH2 0xA3A PUSH0 DUP4 DUP4 PUSH2 0xC0D JUMP JUMPDEST POP POP JUMP JUMPDEST PUSH0 PUSH20 0xFFFFFFFFFFFFFFFFFFFFFFFFFFFFFFFFFFFFFFFF AND DUP5 PUSH20 0xFFFFFFFFFFFFFFFFFFFFFFFFFFFFFFFFFFFFFFFF AND SUB PUSH2 0xAAE JUMPI PUSH0 PUSH1 0x40 MLOAD PUSH32 0xE602DF0500000000000000000000000000000000000000000000000000000000 DUP2 MSTORE PUSH1 0x4 ADD PUSH2 0xAA5 SWAP2 SWAP1 PUSH2 0x137D JUMP JUMPDEST PUSH1 0x40 MLOAD DUP1 SWAP2 SUB SWAP1 REVERT JUMPDEST PUSH0 PUSH20 0xFFFFFFFFFFFFFFFFFFFFFFFFFFFFFFFFFFFFFFFF AND DUP4 PUSH20 0xFFFFFFFFFFFFFFFFFFFFFFFFFFFFFFFFFFFFFFFF AND SUB PUSH2 0xB1E JUMPI PUSH0 PUSH1 0x40 MLOAD PUSH32 0x94280D6200000000000000000000000000000000000000000000000000000000 DUP2 MSTORE PUSH1 0x4 ADD PUSH2 0xB15 SWAP2 SWAP1 PUSH2 0x137D JUMP JUMPDEST PUSH1 0x40 MLOAD DUP1 SWAP2 SUB SWAP1 REVERT JUMPDEST DUP2 PUSH1 0x1 PUSH0 DUP7 PUSH20 0xFFFFFFFFFFFFFFFFFFFFFFFFFFFFFFFFFFFFFFFF AND PUSH20 0xFFFFFFFFFFFFFFFFFFFFFFFFFFFFFFFFFFFFFFFF AND DUP2 MSTORE PUSH1 0x20 ADD SWAP1 DUP2 MSTORE PUSH1 0x20 ADD PUSH0 KECCAK256 PUSH0 DUP6 PUSH20 0xFFFFFFFFFFFFFFFFFFFFFFFFFFFFFFFFFFFFFFFF AND PUSH20 0xFFFFFFFFFFFFFFFFFFFFFFFFFFFFFFFFFFFFFFFF AND DUP2 MSTORE PUSH1 0x20 ADD SWAP1 DUP2 MSTORE PUSH1 0x20 ADD PUSH0 KECCAK256 DUP2 SWAP1 SSTORE POP DUP1 ISZERO PUSH2 0xC07 JUMPI DUP3 PUSH20 0xFFFFFFFFFFFFFFFFFFFFFFFFFFFFFFFFFFFFFFFF AND DUP5 PUSH20 0xFFFFFFFFFFFFFFFFFFFFFFFFFFFFFFFFFFFFFFFF AND PUSH32 0x8C5BE1E5EBEC7D5BD14F71427D1E84F3DD0314C0F7B2291E5B200AC8C7C3B925 DUP5 PUSH1 0x40 MLOAD PUSH2 0xBFE SWAP2 SWAP1 PUSH2 0xFC7 JUMP JUMPDEST PUSH1 0x40 MLOAD DUP1 SWAP2 SUB SWAP1 LOG3 JUMPDEST POP POP POP POP JUMP JUMPDEST PUSH0 PUSH20 0xFFFFFFFFFFFFFFFFFFFFFFFFFFFFFFFFFFFFFFFF AND DUP4 PUSH20 0xFFFFFFFFFFFFFFFFFFFFFFFFFFFFFFFFFFFFFFFF AND SUB PUSH2 0xC5D JUMPI DUP1 PUSH1 0x2 PUSH0 DUP3 DUP3 SLOAD PUSH2 0xC51 SWAP2 SWAP1 PUSH2 0x1210 JUMP JUMPDEST SWAP3 POP POP DUP2 SWAP1 SSTORE POP PUSH2 0xD2B JUMP JUMPDEST PUSH0 PUSH0 PUSH0 DUP6 PUSH20 0xFFFFFFFFFFFFFFFFFFFFFFFFFFFFFFFFFFFFFFFF AND PUSH20 0xFFFFFFFFFFFFFFFFFFFFFFFFFFFFFFFFFFFFFFFF AND DUP2 MSTORE PUSH1 0x20 ADD SWAP1 DUP2 MSTORE PUSH1 0x20 ADD PUSH0 KECCAK256 SLOAD SWAP1 POP DUP2 DUP2 LT ISZERO PUSH2 0xCE6 JUMPI DUP4 DUP2 DUP4 PUSH1 0x40 MLOAD PUSH32 0xE450D38C00000000000000000000000000000000000000000000000000000000 DUP2 MSTORE PUSH1 0x4 ADD PUSH2 0xCDD SWAP4 SWAP3 SWAP2 SWAP1 PUSH2 0x1348 JUMP JUMPDEST PUSH1 0x40 MLOAD DUP1 SWAP2 SUB SWAP1 REVERT JUMPDEST DUP2 DUP2 SUB PUSH0 PUSH0 DUP7 PUSH20 0xFFFFFFFFFFFFFFFFFFFFFFFFFFFFFFFFFFFFFFFF AND PUSH20 0xFFFFFFFFFFFFFFFFFFFFFFFFFFFFFFFFFFFFFFFF AND DUP2 MSTORE PUSH1 0x20 ADD SWAP1 DUP2 MSTORE PUSH1 0x20 ADD PUSH0 KECCAK256 DUP2 SWAP1 SSTORE POP POP JUMPDEST PUSH0 PUSH20 0xFFFFFFFFFFFFFFFFFFFFFFFFFFFFFFFFFFFFFFFF AND DUP3 PUSH20 0xFFFFFFFFFFFFFFFFFFFFFFFFFFFFFFFFFFFFFFFF AND SUB PUSH2 0xD72 JUMPI DUP1 PUSH1 0x2 PUSH0 DUP3 DUP3 SLOAD SUB SWAP3 POP POP DUP2 SWAP1 SSTORE POP PUSH2 0xDBC JUMP JUMPDEST DUP1 PUSH0 PUSH0 DUP5 PUSH20 0xFFFFFFFFFFFFFFFFFFFFFFFFFFFFFFFFFFFFFFFF AND PUSH20 0xFFFFFFFFFFFFFFFFFFFFFFFFFFFFFFFFFFFFFFFF AND DUP2 MSTORE PUSH1 0x20 ADD SWAP1 DUP2 MSTORE PUSH1 0x20 ADD PUSH0 KECCAK256 PUSH0 DUP3 DUP3 SLOAD ADD SWAP3 POP POP DUP2 SWAP1 SSTORE POP JUMPDEST DUP2 PUSH20 0xFFFFFFFFFFFFFFFFFFFFFFFFFFFFFFFFFFFFFFFF AND DUP4 PUSH20 0xFFFFFFFFFFFFFFFFFFFFFFFFFFFFFFFFFFFFFFFF AND PUSH32 0xDDF252AD1BE2C89B69C2B068FC378DAA952BA7F163C4A11628F55A4DF523B3EF DUP4 PUSH1 0x40 MLOAD PUSH2 0xE19 SWAP2 SWAP1 PUSH2 0xFC7 JUMP JUMPDEST PUSH1 0x40 MLOAD DUP1 SWAP2 SUB SWAP1 LOG3 POP POP POP JUMP JUMPDEST PUSH0 DUP2 MLOAD SWAP1 POP SWAP2 SWAP1 POP JUMP JUMPDEST PUSH0 DUP3 DUP3 MSTORE PUSH1 0x20 DUP3 ADD SWAP1 POP SWAP3 SWAP2 POP POP JUMP JUMPDEST DUP3 DUP2 DUP4 MCOPY PUSH0 DUP4 DUP4 ADD MSTORE POP POP POP JUMP JUMPDEST PUSH0 PUSH1 0x1F NOT PUSH1 0x1F DUP4 ADD AND SWAP1 POP SWAP2 SWAP1 POP JUMP JUMPDEST PUSH0 PUSH2 0xE68 DUP3 PUSH2 0xE26 JUMP JUMPDEST PUSH2 0xE72 DUP2 DUP6 PUSH2 0xE30 JUMP JUMPDEST SWAP4 POP PUSH2 0xE82 DUP2 DUP6 PUSH1 0x20 DUP7 ADD PUSH2 0xE40 JUMP JUMPDEST PUSH2 0xE8B DUP2 PUSH2 0xE4E JUMP JUMPDEST DUP5 ADD SWAP2 POP POP SWAP3 SWAP2 POP POP JUMP JUMPDEST PUSH0 PUSH1 0x20 DUP3 ADD SWAP1 POP DUP2 DUP2 SUB PUSH0 DUP4 ADD MSTORE PUSH2 0xEAE DUP2 DUP5 PUSH2 0xE5E JUMP JUMPDEST SWAP1 POP SWAP3 SWAP2 POP POP JUMP JUMPDEST PUSH0 PUSH0 REVERT JUMPDEST PUSH0 PUSH20 0xFFFFFFFFFFFFFFFFFFFFFFFFFFFFFFFFFFFFFFFF DUP3 AND SWAP1 POP SWAP2 SWAP1 POP JUMP JUMPDEST PUSH0 PUSH2 0xEE3 DUP3 PUSH2 0xEBA JUMP JUMPDEST SWAP1 POP SWAP2 SWAP1 POP JUMP JUMPDEST PUSH2 0xEF3 DUP2 PUSH2 0xED9 JUMP JUMPDEST DUP2 EQ PUSH2 0xEFD JUMPI PUSH0 PUSH0 REVERT JUMPDEST POP JUMP JUMPDEST PUSH0 DUP2 CALLDATALOAD SWAP1 POP PUSH2 0xF0E DUP2 PUSH2 0xEEA JUMP JUMPDEST SWAP3 SWAP2 POP POP JUMP JUMPDEST PUSH0 DUP2 SWAP1 POP SWAP2 SWAP1 POP JUMP JUMPDEST PUSH2 0xF26 DUP2 PUSH2 0xF14 JUMP JUMPDEST DUP2 EQ PUSH2 0xF30 JUMPI PUSH0 PUSH0 REVERT JUMPDEST POP JUMP JUMPDEST PUSH0 DUP2 CALLDATALOAD SWAP1 POP PUSH2 0xF41 DUP2 PUSH2 0xF1D JUMP JUMPDEST SWAP3 SWAP2 POP POP JUMP JUMPDEST PUSH0 PUSH0 PUSH1 0x40 DUP4 DUP6 SUB SLT ISZERO PUSH2 0xF5D JUMPI PUSH2 0xF5C PUSH2 0xEB6 JUMP JUMPDEST JUMPDEST PUSH0 PUSH2 0xF6A DUP6 DUP3 DUP7 ADD PUSH2 0xF00 JUMP JUMPDEST SWAP3 POP POP PUSH1 0x20 PUSH2 0xF7B DUP6 DUP3 DUP7 ADD PUSH2 0xF33 JUMP JUMPDEST SWAP2 POP POP SWAP3 POP SWAP3 SWAP1 POP JUMP JUMPDEST PUSH0 DUP2 ISZERO ISZERO SWAP1 POP SWAP2 SWAP1 POP JUMP JUMPDEST PUSH2 0xF99 DUP2 PUSH2 0xF85 JUMP JUMPDEST DUP3 MSTORE POP POP JUMP JUMPDEST PUSH0 PUSH1 0x20 DUP3 ADD SWAP1 POP PUSH2 0xFB2 PUSH0 DUP4 ADD DUP5 PUSH2 0xF90 JUMP JUMPDEST SWAP3 SWAP2 POP POP JUMP JUMPDEST PUSH2 0xFC1 DUP2 PUSH2 0xF14 JUMP JUMPDEST DUP3 MSTORE POP POP JUMP JUMPDEST PUSH0 PUSH1 0x20 DUP3 ADD SWAP1 POP PUSH2 0xFDA PUSH0 DUP4 ADD DUP5 PUSH2 0xFB8 JUMP JUMPDEST SWAP3 SWAP2 POP POP JUMP JUMPDEST PUSH0 PUSH0 PUSH0 PUSH1 0x60 DUP5 DUP7 SUB SLT ISZERO PUSH2 0xFF7 JUMPI PUSH2 0xFF6 PUSH2 0xEB6 JUMP JUMPDEST JUMPDEST PUSH0 PUSH2 0x1004 DUP7 DUP3 DUP8 ADD PUSH2 0xF00 JUMP JUMPDEST SWAP4 POP POP PUSH1 0x20 PUSH2 0x1015 DUP7 DUP3 DUP8 ADD PUSH2 0xF00 JUMP JUMPDEST SWAP3 POP POP PUSH1 0x40 PUSH2 0x1026 DUP7 DUP3 DUP8 ADD PUSH2 0xF33 JUMP JUMPDEST SWAP2 POP POP SWAP3 POP SWAP3 POP SWAP3 JUMP JUMPDEST PUSH0 PUSH1 0x20 DUP3 DUP5 SUB SLT ISZERO PUSH2 0x1045 JUMPI PUSH2 0x1044 PUSH2 0xEB6 JUMP JUMPDEST JUMPDEST PUSH0 PUSH2 0x1052 DUP5 DUP3 DUP6 ADD PUSH2 0xF00 JUMP JUMPDEST SWAP2 POP POP SWAP3 SWAP2 POP POP JUMP JUMPDEST PUSH0 PUSH1 0xFF DUP3 AND SWAP1 POP SWAP2 SWAP1 POP JUMP JUMPDEST PUSH2 0x1070 DUP2 PUSH2 0x105B JUMP JUMPDEST DUP3 MSTORE POP POP JUMP JUMPDEST PUSH0 PUSH1 0x20 DUP3 ADD SWAP1 POP PUSH2 0x1089 PUSH0 DUP4 ADD DUP5 PUSH2 0x1067 JUMP JUMPDEST SWAP3 SWAP2 POP POP JUMP JUMPDEST PUSH0 PUSH1 0x20 DUP3 DUP5 SUB SLT ISZERO PUSH2 0x10A4 JUMPI PUSH2 0x10A3 PUSH2 0xEB6 JUMP JUMPDEST JUMPDEST PUSH0 PUSH2 0x10B1 DUP5 DUP3 DUP6 ADD PUSH2 0xF33 JUMP JUMPDEST SWAP2 POP POP SWAP3 SWAP2 POP POP JUMP JUMPDEST PUSH0 PUSH0 PUSH1 0x40 DUP4 DUP6 SUB SLT ISZERO PUSH2 0x10D0 JUMPI PUSH2 0x10CF PUSH2 0xEB6 JUMP JUMPDEST JUMPDEST PUSH0 PUSH2 0x10DD DUP6 DUP3 DUP7 ADD PUSH2 0xF00 JUMP JUMPDEST SWAP3 POP POP PUSH1 0x20 PUSH2 0x10EE DUP6 DUP3 DUP7 ADD PUSH2 0xF00 JUMP JUMPDEST SWAP2 POP POP SWAP3 POP SWAP3 SWAP1 POP JUMP JUMPDEST PUSH32 0x4E487B7100000000000000000000000000000000000000000000000000000000 PUSH0 MSTORE PUSH1 0x22 PUSH1 0x4 MSTORE PUSH1 0x24 PUSH0 REVERT JUMPDEST PUSH0 PUSH1 0x2 DUP3 DIV SWAP1 POP PUSH1 0x1 DUP3 AND DUP1 PUSH2 0x113C JUMPI PUSH1 0x7F DUP3 AND SWAP2 POP JUMPDEST PUSH1 0x20 DUP3 LT DUP2 SUB PUSH2 0x114F JUMPI PUSH2 0x114E PUSH2 0x10F8 JUMP JUMPDEST JUMPDEST POP SWAP2 SWAP1 POP JUMP JUMPDEST PUSH32 0x4F6E6C792074686520636F6E7472616374206F776E65722063616E2063616C6C PUSH0 DUP3 ADD MSTORE PUSH32 0x20746869732066756E6374696F6E000000000000000000000000000000000000 PUSH1 0x20 DUP3 ADD MSTORE POP JUMP JUMPDEST PUSH0 PUSH2 0x11AF PUSH1 0x2E DUP4 PUSH2 0xE30 JUMP JUMPDEST SWAP2 POP PUSH2 0x11BA DUP3 PUSH2 0x1155 JUMP JUMPDEST PUSH1 0x40 DUP3 ADD SWAP1 POP SWAP2 SWAP1 POP JUMP JUMPDEST PUSH0 PUSH1 0x20 DUP3 ADD SWAP1 POP DUP2 DUP2 SUB PUSH0 DUP4 ADD MSTORE PUSH2 0x11DC DUP2 PUSH2 0x11A3 JUMP JUMPDEST SWAP1 POP SWAP2 SWAP1 POP JUMP JUMPDEST PUSH32 0x4E487B7100000000000000000000000000000000000000000000000000000000 PUSH0 MSTORE PUSH1 0x11 PUSH1 0x4 MSTORE PUSH1 0x24 PUSH0 REVERT JUMPDEST PUSH0 PUSH2 0x121A DUP3 PUSH2 0xF14 JUMP JUMPDEST SWAP2 POP PUSH2 0x1225 DUP4 PUSH2 0xF14 JUMP JUMPDEST SWAP3 POP DUP3 DUP3 ADD SWAP1 POP DUP1 DUP3 GT ISZERO PUSH2 0x123D JUMPI PUSH2 0x123C PUSH2 0x11E3 JUMP JUMPDEST JUMPDEST SWAP3 SWAP2 POP POP JUMP JUMPDEST PUSH32 0x4F6E6C792074686520666C617368206C6F616E20636F6E74726163742063616E PUSH0 DUP3 ADD MSTORE PUSH32 0x2063616C6C20746869732066756E6374696F6E00000000000000000000000000 PUSH1 0x20 DUP3 ADD MSTORE POP JUMP JUMPDEST PUSH0 PUSH2 0x129D PUSH1 0x33 DUP4 PUSH2 0xE30 JUMP JUMPDEST SWAP2 POP PUSH2 0x12A8 DUP3 PUSH2 0x1243 JUMP JUMPDEST PUSH1 0x40 DUP3 ADD SWAP1 POP SWAP2 SWAP1 POP JUMP JUMPDEST PUSH0 PUSH1 0x20 DUP3 ADD SWAP1 POP DUP2 DUP2 SUB PUSH0 DUP4 ADD MSTORE PUSH2 0x12CA DUP2 PUSH2 0x1291 JUMP JUMPDEST SWAP1 POP SWAP2 SWAP1 POP JUMP JUMPDEST PUSH32 0x45524332303A20616C6C6F77616E63652062656C6F77207A65726F0000000000 PUSH0 DUP3 ADD MSTORE POP JUMP JUMPDEST PUSH0 PUSH2 0x1305 PUSH1 0x1B DUP4 PUSH2 0xE30 JUMP JUMPDEST SWAP2 POP PUSH2 0x1310 DUP3 PUSH2 0x12D1 JUMP JUMPDEST PUSH1 0x20 DUP3 ADD SWAP1 POP SWAP2 SWAP1 POP JUMP JUMPDEST PUSH0 PUSH1 0x20 DUP3 ADD SWAP1 POP DUP2 DUP2 SUB PUSH0 DUP4 ADD MSTORE PUSH2 0x1332 DUP2 PUSH2 0x12F9 JUMP JUMPDEST SWAP1 POP SWAP2 SWAP1 POP JUMP JUMPDEST PUSH2 0x1342 DUP2 PUSH2 0xED9 JUMP JUMPDEST DUP3 MSTORE POP POP JUMP JUMPDEST PUSH0 PUSH1 0x60 DUP3 ADD SWAP1 POP PUSH2 0x135B PUSH0 DUP4 ADD DUP7 PUSH2 0x1339 JUMP JUMPDEST PUSH2 0x1368 PUSH1 0x20 DUP4 ADD DUP6 PUSH2 0xFB8 JUMP JUMPDEST PUSH2 0x1375 PUSH1 0x40 DUP4 ADD DUP5 PUSH2 0xFB8 JUMP JUMPDEST SWAP5 SWAP4 POP POP POP POP JUMP JUMPDEST PUSH0 PUSH1 0x20 DUP3 ADD SWAP1 POP PUSH2 0x1390 PUSH0 DUP4 ADD DUP5 PUSH2 0x1339 JUMP JUMPDEST SWAP3 SWAP2 POP POP JUMP JUMPDEST PUSH32 0x45524332303A204D6178696D756D20737570706C792072656163686564000000 PUSH0 DUP3 ADD MSTORE POP JUMP JUMPDEST PUSH0 PUSH2 0x13CA PUSH1 0x1D DUP4 PUSH2 0xE30 JUMP JUMPDEST SWAP2 POP PUSH2 0x13D5 DUP3 PUSH2 0x1396 JUMP JUMPDEST PUSH1 0x20 DUP3 ADD SWAP1 POP SWAP2 SWAP1 POP JUMP JUMPDEST PUSH0 PUSH1 0x20 DUP3 ADD SWAP1 POP DUP2 DUP2 SUB PUSH0 DUP4 ADD MSTORE PUSH2 0x13F7 DUP2 PUSH2 0x13BE JUMP JUMPDEST SWAP1 POP SWAP2 SWAP1 POP JUMP INVALID LOG2 PUSH5 0x6970667358 0x22 SLT KECCAK256 0xB5 PUSH6 0x52D236719BAE 0xD0 0xDC 0xB2 SELFDESTRUCT ISZERO 0xD0 0xBC 0xBC 0xAF DUP16 ORIGIN 0xA6 MSTORE COINBASE GAS 0xDD 0xC0 PUSH25 0x11E1A96AB1A664736F6C634300081B00330000000000000000 "
				},
				"gasEstimates": {
					"creation": {
						"codeDepositCost": "1034400",
						"executionCost": "infinite",
						"totalCost": "infinite"
					},
					"external": {
						"allowance(address,address)": "infinite",
						"approve(address,uint256)": "infinite",
						"balanceOf(address)": "2851",
						"decimals()": "405",
						"decreaseAllowance(address,uint256)": "infinite",
						"increaseAllowance(address,uint256)": "infinite",
						"maxSupply()": "2498",
						"mint(uint256)": "infinite",
						"name()": "infinite",
						"setFlashLoanContract(address)": "26929",
						"symbol()": "infinite",
						"totalSupply()": "2500",
						"transfer(address,uint256)": "infinite",
						"transferFrom(address,address,uint256)": "infinite"
					},
					"internal": {
						"_approve(address,address,uint256)": "infinite",
						"_approve(address,address,uint256,bool)": "infinite",
						"_burn(address,uint256)": "infinite",
						"_mint(address,uint256)": "infinite",
						"_spendAllowance(address,address,uint256)": "infinite",
						"_transfer(address,address,uint256)": "infinite",
						"_update(address,address,uint256)": "infinite"
					}
				},
				"methodIdentifiers": {
					"allowance(address,address)": "dd62ed3e",
					"approve(address,uint256)": "095ea7b3",
					"balanceOf(address)": "70a08231",
					"decimals()": "313ce567",
					"decreaseAllowance(address,uint256)": "a457c2d7",
					"increaseAllowance(address,uint256)": "39509351",
					"maxSupply()": "d5abeb01",
					"mint(uint256)": "a0712d68",
					"name()": "06fdde03",
					"setFlashLoanContract(address)": "2a52940d",
					"symbol()": "95d89b41",
					"totalSupply()": "18160ddd",
					"transfer(address,uint256)": "a9059cbb",
					"transferFrom(address,address,uint256)": "23b872dd"
				}
			},
			"storageLayout": {
				"storage": [
					{
						"astId": 116,
						"contract": "USDTFlash/contracts/USDTFlash.sol:USDTFlash",
						"label": "_balances",
						"offset": 0,
						"slot": "0",
						"type": "t_mapping(t_address,t_uint256)"
					},
					{
						"astId": 122,
						"contract": "USDTFlash/contracts/USDTFlash.sol:USDTFlash",
						"label": "_allowances",
						"offset": 0,
						"slot": "1",
						"type": "t_mapping(t_address,t_mapping(t_address,t_uint256))"
					},
					{
						"astId": 124,
						"contract": "USDTFlash/contracts/USDTFlash.sol:USDTFlash",
						"label": "_totalSupply",
						"offset": 0,
						"slot": "2",
						"type": "t_uint256"
					},
					{
						"astId": 126,
						"contract": "USDTFlash/contracts/USDTFlash.sol:USDTFlash",
						"label": "_maxSupply",
						"offset": 0,
						"slot": "3",
						"type": "t_uint256"
					},
					{
						"astId": 128,
						"contract": "USDTFlash/contracts/USDTFlash.sol:USDTFlash",
						"label": "_name",
						"offset": 0,
						"slot": "4",
						"type": "t_string_storage"
					},
					{
						"astId": 130,
						"contract": "USDTFlash/contracts/USDTFlash.sol:USDTFlash",
						"label": "_symbol",
						"offset": 0,
						"slot": "5",
						"type": "t_string_storage"
					},
					{
						"astId": 132,
						"contract": "USDTFlash/contracts/USDTFlash.sol:USDTFlash",
						"label": "_owner",
						"offset": 0,
						"slot": "6",
						"type": "t_address"
					},
					{
						"astId": 134,
						"contract": "USDTFlash/contracts/USDTFlash.sol:USDTFlash",
						"label": "_flashLoanContract",
						"offset": 0,
						"slot": "7",
						"type": "t_address"
					}
				],
				"types": {
					"t_address": {
						"encoding": "inplace",
						"label": "address",
						"numberOfBytes": "20"
					},
					"t_mapping(t_address,t_mapping(t_address,t_uint256))": {
						"encoding": "mapping",
						"key": "t_address",
						"label": "mapping(address => mapping(address => uint256))",
						"numberOfBytes": "32",
						"value": "t_mapping(t_address,t_uint256)"
					},
					"t_mapping(t_address,t_uint256)": {
						"encoding": "mapping",
						"key": "t_address",
						"label": "mapping(address => uint256)",
						"numberOfBytes": "32",
						"value": "t_uint256"
					},
					"t_string_storage": {
						"encoding": "bytes",
						"label": "string",
						"numberOfBytes": "32"
					},
					"t_uint256": {
						"encoding": "inplace",
						"label": "uint256",
						"numberOfBytes": "32"
					}
				}
			},
			"userdoc": {
				"kind": "user",
				"methods": {},
				"version": 1
			}
		}
	}
}