{
	"contracts/USDTFlash.sol": {
		"USDTFlash": {
			"abi": [
				{
					"inputs": [],
					"stateMutability": "nonpayable",
					"type": "constructor"
				},
				{
					"inputs": [
						{
							"internalType": "address",
							"name": "spender",
							"type": "address"
						},
						{
							"internalType": "uint256",
							"name": "allowance",
							"type": "uint256"
						},
						{
							"internalType": "uint256",
							"name": "needed",
							"type": "uint256"
						}
					],
					"name": "ERC20InsufficientAllowance",
					"type": "error"
				},
				{
					"inputs": [
						{
							"internalType": "address",
							"name": "sender",
							"type": "address"
						},
						{
							"internalType": "uint256",
							"name": "balance",
							"type": "uint256"
						},
						{
							"internalType": "uint256",
							"name": "needed",
							"type": "uint256"
						}
					],
					"name": "ERC20InsufficientBalance",
					"type": "error"
				},
				{
					"inputs": [
						{
							"internalType": "address",
							"name": "approver",
							"type": "address"
						}
					],
					"name": "ERC20InvalidApprover",
					"type": "error"
				},
				{
					"inputs": [
						{
							"internalType": "address",
							"name": "receiver",
							"type": "address"
						}
					],
					"name": "ERC20InvalidReceiver",
					"type": "error"
				},
				{
					"inputs": [
						{
							"internalType": "address",
							"name": "sender",
							"type": "address"
						}
					],
					"name": "ERC20InvalidSender",
					"type": "error"
				},
				{
					"inputs": [
						{
							"internalType": "address",
							"name": "spender",
							"type": "address"
						}
					],
					"name": "ERC20InvalidSpender",
					"type": "error"
				},
				{
					"anonymous": false,
					"inputs": [
						{
							"indexed": true,
							"internalType": "address",
							"name": "owner",
							"type": "address"
						},
						{
							"indexed": true,
							"internalType": "address",
							"name": "spender",
							"type": "address"
						},
						{
							"indexed": false,
							"internalType": "uint256",
							"name": "value",
							"type": "uint256"
						}
					],
					"name": "Approval",
					"type": "event"
				},
				{
					"anonymous": false,
					"inputs": [
						{
							"indexed": true,
							"internalType": "address",
							"name": "from",
							"type": "address"
						},
						{
							"indexed": true,
							"internalType": "address",
							"name": "to",
							"type": "address"
						},
						{
							"indexed": false,
							"internalType": "uint256",
							"name": "value",
							"type": "uint256"
						}
					],
					"name": "Transfer",
					"type": "event"
				},
				{
					"inputs": [
						{
							"internalType": "address",
							"name": "owner",
							"type": "address"
						},
						{
							"internalType": "address",
							"name": "spender",
							"type": "address"
						}
					],
					"name": "allowance",
					"outputs": [
						{
							"internalType": "uint256",
							"name": "",
							"type": "uint256"
						}
					],
					"stateMutability": "view",
					"type": "function"
				},
				{
					"inputs": [
						{
							"internalType": "address",
							"name": "spender",
							"type": "address"
						},
						{
							"internalType": "uint256",
							"name": "value",
							"type": "uint256"
						}
					],
					"name": "approve",
					"outputs": [
						{
							"internalType": "bool",
							"name": "",
							"type": "bool"
						}
					],
					"stateMutability": "nonpayable",
					"type": "function"
				},
				{
					"inputs": [
						{
							"internalType": "address",
							"name": "account",
							"type": "address"
						}
					],
					"name": "balanceOf",
					"outputs": [
						{
							"internalType": "uint256",
							"name": "",
							"type": "uint256"
						}
					],
					"stateMutability": "view",
					"type": "function"
				},
				{
					"inputs": [],
					"name": "decimals",
					"outputs": [
						{
							"internalType": "uint8",
							"name": "",
							"type": "uint8"
						}
					],
					"stateMutability": "view",
					"type": "function"
				},
				{
					"inputs": [
						{
							"internalType": "address",
							"name": "spender",
							"type": "address"
						},
						{
							"internalType": "uint256",
							"name": "subtractedValue",
							"type": "uint256"
						}
					],
					"name": "decreaseAllowance",
					"outputs": [
						{
							"internalType": "bool",
							"name": "",
							"type": "bool"
						}
					],
					"stateMutability": "nonpayable",
					"type": "function"
				},
				{
					"inputs": [],
					"name": "getOwner",
					"outputs": [
						{
							"internalType": "address",
							"name": "",
							"type": "address"
						}
					],
					"stateMutability": "view",
					"type": "function"
				},
				{
					"inputs": [
						{
							"internalType": "address",
							"name": "spender",
							"type": "address"
						},
						{
							"internalType": "uint256",
							"name": "addedValue",
							"type": "uint256"
						}
					],
					"name": "increaseAllowance",
					"outputs": [
						{
							"internalType": "bool",
							"name": "",
							"type": "bool"
						}
					],
					"stateMutability": "nonpayable",
					"type": "function"
				},
				{
					"inputs": [],
					"name": "maxSupply",
					"outputs": [
						{
							"internalType": "uint256",
							"name": "",
							"type": "uint256"
						}
					],
					"stateMutability": "view",
					"type": "function"
				},
				{
					"inputs": [
						{
							"internalType": "uint256",
							"name": "amount",
							"type": "uint256"
						}
					],
					"name": "mint",
					"outputs": [
						{
							"internalType": "bool",
							"name": "",
							"type": "bool"
						}
					],
					"stateMutability": "nonpayable",
					"type": "function"
				},
				{
					"inputs": [],
					"name": "name",
					"outputs": [
						{
							"internalType": "string",
							"name": "",
							"type": "string"
						}
					],
					"stateMutability": "view",
					"type": "function"
				},
				{
					"inputs": [],
					"name": "symbol",
					"outputs": [
						{
							"internalType": "string",
							"name": "",
							"type": "string"
						}
					],
					"stateMutability": "view",
					"type": "function"
				},
				{
					"inputs": [],
					"name": "totalSupply",
					"outputs": [
						{
							"internalType": "uint256",
							"name": "",
							"type": "uint256"
						}
					],
					"stateMutability": "view",
					"type": "function"
				},
				{
					"inputs": [
						{
							"internalType": "address",
							"name": "to",
							"type": "address"
						},
						{
							"internalType": "uint256",
							"name": "value",
							"type": "uint256"
						}
					],
					"name": "transfer",
					"outputs": [
						{
							"internalType": "bool",
							"name": "",
							"type": "bool"
						}
					],
					"stateMutability": "nonpayable",
					"type": "function"
				},
				{
					"inputs": [
						{
							"internalType": "address",
							"name": "from",
							"type": "address"
						},
						{
							"internalType": "address",
							"name": "to",
							"type": "address"
						},
						{
							"internalType": "uint256",
							"name": "value",
							"type": "uint256"
						}
					],
					"name": "transferFrom",
					"outputs": [
						{
							"internalType": "bool",
							"name": "",
							"type": "bool"
						}
					],
					"stateMutability": "nonpayable",
					"type": "function"
				}
			],
			"devdoc": {
				"kind": "dev",
				"methods": {
					"decimals()": {
						"details": "Returns the decimals places of the token."
					},
					"name()": {
						"details": "Returns the name of the token."
					},
					"symbol()": {
						"details": "Returns the symbol of the token."
					}
				},
				"version": 1
			},
			"evm": {
				"assembly": "    /* \"contracts/USDTFlash.sol\":353:7318  contract USDTFlash is Context, IERC20, IERC20Metadata, IERC20Errors {... */\n  mstore(0x40, 0x80)\n    /* \"contracts/USDTFlash.sol\":888:1051  constructor() {... */\n  callvalue\n  dup1\n  iszero\n  tag_1\n  jumpi\n  revert(0x00, 0x00)\ntag_1:\n  pop\n    /* \"contracts/USDTFlash.sol\":913:933  _name = \"USDT Flash\" */\n  mload(0x40)\n  dup1\n  0x40\n  add\n  0x40\n  mstore\n  dup1\n  0x0a\n  dup2\n  mstore\n  0x20\n  add\n  0x5553445420466c61736800000000000000000000000000000000000000000000\n  dup2\n  mstore\n  pop\n    /* \"contracts/USDTFlash.sol\":913:918  _name */\n  0x04\n    /* \"contracts/USDTFlash.sol\":913:933  _name = \"USDT Flash\" */\n  swap1\n  dup2\n  tag_4\n  swap2\n  swap1\n  tag_5\n  jump\t// in\ntag_4:\n  pop\n    /* \"contracts/USDTFlash.sol\":944:960  _symbol = \"USDT\" */\n  mload(0x40)\n  dup1\n  0x40\n  add\n  0x40\n  mstore\n  dup1\n  0x04\n  dup2\n  mstore\n  0x20\n  add\n  0x5553445400000000000000000000000000000000000000000000000000000000\n  dup2\n  mstore\n  pop\n    /* \"contracts/USDTFlash.sol\":944:951  _symbol */\n  0x05\n    /* \"contracts/USDTFlash.sol\":944:960  _symbol = \"USDT\" */\n  swap1\n  dup2\n  tag_6\n  swap2\n  swap1\n  tag_5\n  jump\t// in\ntag_6:\n  pop\n    /* \"contracts/USDTFlash.sol\":984:1011  600000000000000000000000000 */\n  0x01f04ef12cb04cf158000000\n    /* \"contracts/USDTFlash.sol\":971:981  _maxSupply */\n  0x03\n    /* \"contracts/USDTFlash.sol\":971:1011  _maxSupply = 600000000000000000000000000 */\n  dup2\n  swap1\n  sstore\n  pop\n    /* \"contracts/USDTFlash.sol\":1031:1043  _msgSender() */\n  tag_7\n    /* \"contracts/USDTFlash.sol\":1031:1041  _msgSender */\n  shl(0x20, tag_8)\n    /* \"contracts/USDTFlash.sol\":1031:1043  _msgSender() */\n  0x20\n  shr\n  jump\t// in\ntag_7:\n    /* \"contracts/USDTFlash.sol\":1022:1028  _owner */\n  0x06\n  0x00\n    /* \"contracts/USDTFlash.sol\":1022:1043  _owner = _msgSender() */\n  0x0100\n  exp\n  dup2\n  sload\n  dup2\n  0xffffffffffffffffffffffffffffffffffffffff\n  mul\n  not\n  and\n  swap1\n  dup4\n  0xffffffffffffffffffffffffffffffffffffffff\n  and\n  mul\n  or\n  swap1\n  sstore\n  pop\n    /* \"contracts/USDTFlash.sol\":353:7318  contract USDTFlash is Context, IERC20, IERC20Metadata, IERC20Errors {... */\n  jump(tag_9)\n    /* \"contracts/utils/Context.sol\":673:771  function _msgSender() internal view virtual returns (address) {... */\ntag_8:\n    /* \"contracts/utils/Context.sol\":726:733  address */\n  0x00\n    /* \"contracts/utils/Context.sol\":753:763  msg.sender */\n  caller\n    /* \"contracts/utils/Context.sol\":746:763  return msg.sender */\n  swap1\n  pop\n    /* \"contracts/utils/Context.sol\":673:771  function _msgSender() internal view virtual returns (address) {... */\n  swap1\n  jump\t// out\n    /* \"#utility.yul\":7:106   */\ntag_11:\n    /* \"#utility.yul\":59:65   */\n  0x00\n    /* \"#utility.yul\":93:98   */\n  dup2\n    /* \"#utility.yul\":87:99   */\n  mload\n    /* \"#utility.yul\":77:99   */\n  swap1\n  pop\n    /* \"#utility.yul\":7:106   */\n  swap2\n  swap1\n  pop\n  jump\t// out\n    /* \"#utility.yul\":112:292   */\ntag_12:\n    /* \"#utility.yul\":160:237   */\n  0x4e487b7100000000000000000000000000000000000000000000000000000000\n    /* \"#utility.yul\":157:158   */\n  0x00\n    /* \"#utility.yul\":150:238   */\n  mstore\n    /* \"#utility.yul\":257:261   */\n  0x41\n    /* \"#utility.yul\":254:255   */\n  0x04\n    /* \"#utility.yul\":247:262   */\n  mstore\n    /* \"#utility.yul\":281:285   */\n  0x24\n    /* \"#utility.yul\":278:279   */\n  0x00\n    /* \"#utility.yul\":271:286   */\n  revert\n    /* \"#utility.yul\":298:478   */\ntag_13:\n    /* \"#utility.yul\":346:423   */\n  0x4e487b7100000000000000000000000000000000000000000000000000000000\n    /* \"#utility.yul\":343:344   */\n  0x00\n    /* \"#utility.yul\":336:424   */\n  mstore\n    /* \"#utility.yul\":443:447   */\n  0x22\n    /* \"#utility.yul\":440:441   */\n  0x04\n    /* \"#utility.yul\":433:448   */\n  mstore\n    /* \"#utility.yul\":467:471   */\n  0x24\n    /* \"#utility.yul\":464:465   */\n  0x00\n    /* \"#utility.yul\":457:472   */\n  revert\n    /* \"#utility.yul\":484:804   */\ntag_14:\n    /* \"#utility.yul\":528:534   */\n  0x00\n    /* \"#utility.yul\":565:566   */\n  0x02\n    /* \"#utility.yul\":559:563   */\n  dup3\n    /* \"#utility.yul\":555:567   */\n  div\n    /* \"#utility.yul\":545:567   */\n  swap1\n  pop\n    /* \"#utility.yul\":612:613   */\n  0x01\n    /* \"#utility.yul\":606:610   */\n  dup3\n    /* \"#utility.yul\":602:614   */\n  and\n    /* \"#utility.yul\":633:651   */\n  dup1\n    /* \"#utility.yul\":623:704   */\n  tag_36\n  jumpi\n    /* \"#utility.yul\":689:693   */\n  0x7f\n    /* \"#utility.yul\":681:687   */\n  dup3\n    /* \"#utility.yul\":677:694   */\n  and\n    /* \"#utility.yul\":667:694   */\n  swap2\n  pop\n    /* \"#utility.yul\":623:704   */\ntag_36:\n    /* \"#utility.yul\":751:753   */\n  0x20\n    /* \"#utility.yul\":743:749   */\n  dup3\n    /* \"#utility.yul\":740:754   */\n  lt\n    /* \"#utility.yul\":720:738   */\n  dup2\n    /* \"#utility.yul\":717:755   */\n  sub\n    /* \"#utility.yul\":714:798   */\n  tag_37\n  jumpi\n    /* \"#utility.yul\":770:788   */\n  tag_38\n  tag_13\n  jump\t// in\ntag_38:\n    /* \"#utility.yul\":714:798   */\ntag_37:\n    /* \"#utility.yul\":535:804   */\n  pop\n    /* \"#utility.yul\":484:804   */\n  swap2\n  swap1\n  pop\n  jump\t// out\n    /* \"#utility.yul\":810:951   */\ntag_15:\n    /* \"#utility.yul\":859:863   */\n  0x00\n    /* \"#utility.yul\":882:885   */\n  dup2\n    /* \"#utility.yul\":874:885   */\n  swap1\n  pop\n    /* \"#utility.yul\":905:908   */\n  dup2\n    /* \"#utility.yul\":902:903   */\n  0x00\n    /* \"#utility.yul\":895:909   */\n  mstore\n    /* \"#utility.yul\":939:943   */\n  0x20\n    /* \"#utility.yul\":936:937   */\n  0x00\n    /* \"#utility.yul\":926:944   */\n  keccak256\n    /* \"#utility.yul\":918:944   */\n  swap1\n  pop\n    /* \"#utility.yul\":810:951   */\n  swap2\n  swap1\n  pop\n  jump\t// out\n    /* \"#utility.yul\":957:1050   */\ntag_16:\n    /* \"#utility.yul\":994:1000   */\n  0x00\n    /* \"#utility.yul\":1041:1043   */\n  0x20\n    /* \"#utility.yul\":1036:1038   */\n  0x1f\n    /* \"#utility.yul\":1029:1034   */\n  dup4\n    /* \"#utility.yul\":1025:1039   */\n  add\n    /* \"#utility.yul\":1021:1044   */\n  div\n    /* \"#utility.yul\":1011:1044   */\n  swap1\n  pop\n    /* \"#utility.yul\":957:1050   */\n  swap2\n  swap1\n  pop\n  jump\t// out\n    /* \"#utility.yul\":1056:1163   */\ntag_17:\n    /* \"#utility.yul\":1100:1108   */\n  0x00\n    /* \"#utility.yul\":1150:1155   */\n  dup3\n    /* \"#utility.yul\":1144:1148   */\n  dup3\n    /* \"#utility.yul\":1140:1156   */\n  shl\n    /* \"#utility.yul\":1119:1156   */\n  swap1\n  pop\n    /* \"#utility.yul\":1056:1163   */\n  swap3\n  swap2\n  pop\n  pop\n  jump\t// out\n    /* \"#utility.yul\":1169:1562   */\ntag_18:\n    /* \"#utility.yul\":1238:1244   */\n  0x00\n    /* \"#utility.yul\":1288:1289   */\n  0x08\n    /* \"#utility.yul\":1276:1286   */\n  dup4\n    /* \"#utility.yul\":1272:1290   */\n  mul\n    /* \"#utility.yul\":1311:1408   */\n  tag_43\n    /* \"#utility.yul\":1341:1407   */\n  0xffffffffffffffffffffffffffffffffffffffffffffffffffffffffffffffff\n    /* \"#utility.yul\":1330:1339   */\n  dup3\n    /* \"#utility.yul\":1311:1408   */\n  tag_17\n  jump\t// in\ntag_43:\n    /* \"#utility.yul\":1429:1468   */\n  tag_44\n    /* \"#utility.yul\":1459:1467   */\n  dup7\n    /* \"#utility.yul\":1448:1457   */\n  dup4\n    /* \"#utility.yul\":1429:1468   */\n  tag_17\n  jump\t// in\ntag_44:\n    /* \"#utility.yul\":1417:1468   */\n  swap6\n  pop\n    /* \"#utility.yul\":1501:1505   */\n  dup1\n    /* \"#utility.yul\":1497:1506   */\n  not\n    /* \"#utility.yul\":1490:1495   */\n  dup5\n    /* \"#utility.yul\":1486:1507   */\n  and\n    /* \"#utility.yul\":1477:1507   */\n  swap4\n  pop\n    /* \"#utility.yul\":1550:1554   */\n  dup1\n    /* \"#utility.yul\":1540:1548   */\n  dup7\n    /* \"#utility.yul\":1536:1555   */\n  and\n    /* \"#utility.yul\":1529:1534   */\n  dup5\n    /* \"#utility.yul\":1526:1556   */\n  or\n    /* \"#utility.yul\":1516:1556   */\n  swap3\n  pop\n    /* \"#utility.yul\":1245:1562   */\n  pop\n  pop\n    /* \"#utility.yul\":1169:1562   */\n  swap4\n  swap3\n  pop\n  pop\n  pop\n  jump\t// out\n    /* \"#utility.yul\":1568:1645   */\ntag_19:\n    /* \"#utility.yul\":1605:1612   */\n  0x00\n    /* \"#utility.yul\":1634:1639   */\n  dup2\n    /* \"#utility.yul\":1623:1639   */\n  swap1\n  pop\n    /* \"#utility.yul\":1568:1645   */\n  swap2\n  swap1\n  pop\n  jump\t// out\n    /* \"#utility.yul\":1651:1711   */\ntag_20:\n    /* \"#utility.yul\":1679:1682   */\n  0x00\n    /* \"#utility.yul\":1700:1705   */\n  dup2\n    /* \"#utility.yul\":1693:1705   */\n  swap1\n  pop\n    /* \"#utility.yul\":1651:1711   */\n  swap2\n  swap1\n  pop\n  jump\t// out\n    /* \"#utility.yul\":1717:1859   */\ntag_21:\n    /* \"#utility.yul\":1767:1776   */\n  0x00\n    /* \"#utility.yul\":1800:1853   */\n  tag_48\n    /* \"#utility.yul\":1818:1852   */\n  tag_49\n    /* \"#utility.yul\":1827:1851   */\n  tag_50\n    /* \"#utility.yul\":1845:1850   */\n  dup5\n    /* \"#utility.yul\":1827:1851   */\n  tag_19\n  jump\t// in\ntag_50:\n    /* \"#utility.yul\":1818:1852   */\n  tag_20\n  jump\t// in\ntag_49:\n    /* \"#utility.yul\":1800:1853   */\n  tag_19\n  jump\t// in\ntag_48:\n    /* \"#utility.yul\":1787:1853   */\n  swap1\n  pop\n    /* \"#utility.yul\":1717:1859   */\n  swap2\n  swap1\n  pop\n  jump\t// out\n    /* \"#utility.yul\":1865:1940   */\ntag_22:\n    /* \"#utility.yul\":1908:1911   */\n  0x00\n    /* \"#utility.yul\":1929:1934   */\n  dup2\n    /* \"#utility.yul\":1922:1934   */\n  swap1\n  pop\n    /* \"#utility.yul\":1865:1940   */\n  swap2\n  swap1\n  pop\n  jump\t// out\n    /* \"#utility.yul\":1946:2215   */\ntag_23:\n    /* \"#utility.yul\":2056:2095   */\n  tag_53\n    /* \"#utility.yul\":2087:2094   */\n  dup4\n    /* \"#utility.yul\":2056:2095   */\n  tag_21\n  jump\t// in\ntag_53:\n    /* \"#utility.yul\":2117:2208   */\n  tag_54\n    /* \"#utility.yul\":2166:2207   */\n  tag_55\n    /* \"#utility.yul\":2190:2206   */\n  dup3\n    /* \"#utility.yul\":2166:2207   */\n  tag_22\n  jump\t// in\ntag_55:\n    /* \"#utility.yul\":2158:2164   */\n  dup5\n    /* \"#utility.yul\":2151:2155   */\n  dup5\n    /* \"#utility.yul\":2145:2156   */\n  sload\n    /* \"#utility.yul\":2117:2208   */\n  tag_18\n  jump\t// in\ntag_54:\n    /* \"#utility.yul\":2111:2115   */\n  dup3\n    /* \"#utility.yul\":2104:2209   */\n  sstore\n    /* \"#utility.yul\":2022:2215   */\n  pop\n    /* \"#utility.yul\":1946:2215   */\n  pop\n  pop\n  pop\n  jump\t// out\n    /* \"#utility.yul\":2221:2294   */\ntag_24:\n    /* \"#utility.yul\":2266:2269   */\n  0x00\n    /* \"#utility.yul\":2287:2288   */\n  0x00\n    /* \"#utility.yul\":2280:2288   */\n  swap1\n  pop\n    /* \"#utility.yul\":2221:2294   */\n  swap1\n  jump\t// out\n    /* \"#utility.yul\":2300:2489   */\ntag_25:\n    /* \"#utility.yul\":2377:2409   */\n  tag_58\n  tag_24\n  jump\t// in\ntag_58:\n    /* \"#utility.yul\":2418:2483   */\n  tag_59\n    /* \"#utility.yul\":2476:2482   */\n  dup2\n    /* \"#utility.yul\":2468:2474   */\n  dup5\n    /* \"#utility.yul\":2462:2466   */\n  dup5\n    /* \"#utility.yul\":2418:2483   */\n  tag_23\n  jump\t// in\ntag_59:\n    /* \"#utility.yul\":2353:2489   */\n  pop\n    /* \"#utility.yul\":2300:2489   */\n  pop\n  pop\n  jump\t// out\n    /* \"#utility.yul\":2495:2681   */\ntag_26:\n    /* \"#utility.yul\":2555:2675   */\ntag_61:\n    /* \"#utility.yul\":2572:2575   */\n  dup2\n    /* \"#utility.yul\":2565:2570   */\n  dup2\n    /* \"#utility.yul\":2562:2576   */\n  lt\n    /* \"#utility.yul\":2555:2675   */\n  iszero\n  tag_63\n  jumpi\n    /* \"#utility.yul\":2626:2665   */\n  tag_64\n    /* \"#utility.yul\":2663:2664   */\n  0x00\n    /* \"#utility.yul\":2656:2661   */\n  dup3\n    /* \"#utility.yul\":2626:2665   */\n  tag_25\n  jump\t// in\ntag_64:\n    /* \"#utility.yul\":2599:2600   */\n  0x01\n    /* \"#utility.yul\":2592:2597   */\n  dup2\n    /* \"#utility.yul\":2588:2601   */\n  add\n    /* \"#utility.yul\":2579:2601   */\n  swap1\n  pop\n    /* \"#utility.yul\":2555:2675   */\n  jump(tag_61)\ntag_63:\n    /* \"#utility.yul\":2495:2681   */\n  pop\n  pop\n  jump\t// out\n    /* \"#utility.yul\":2687:3230   */\ntag_27:\n    /* \"#utility.yul\":2788:2790   */\n  0x1f\n    /* \"#utility.yul\":2783:2786   */\n  dup3\n    /* \"#utility.yul\":2780:2791   */\n  gt\n    /* \"#utility.yul\":2777:3223   */\n  iszero\n  tag_66\n  jumpi\n    /* \"#utility.yul\":2822:2860   */\n  tag_67\n    /* \"#utility.yul\":2854:2859   */\n  dup2\n    /* \"#utility.yul\":2822:2860   */\n  tag_15\n  jump\t// in\ntag_67:\n    /* \"#utility.yul\":2906:2935   */\n  tag_68\n    /* \"#utility.yul\":2924:2934   */\n  dup5\n    /* \"#utility.yul\":2906:2935   */\n  tag_16\n  jump\t// in\ntag_68:\n    /* \"#utility.yul\":2896:2904   */\n  dup2\n    /* \"#utility.yul\":2892:2936   */\n  add\n    /* \"#utility.yul\":3089:3091   */\n  0x20\n    /* \"#utility.yul\":3077:3087   */\n  dup6\n    /* \"#utility.yul\":3074:3092   */\n  lt\n    /* \"#utility.yul\":3071:3120   */\n  iszero\n  tag_69\n  jumpi\n    /* \"#utility.yul\":3110:3118   */\n  dup2\n    /* \"#utility.yul\":3095:3118   */\n  swap1\n  pop\n    /* \"#utility.yul\":3071:3120   */\ntag_69:\n    /* \"#utility.yul\":3133:3213   */\n  tag_70\n    /* \"#utility.yul\":3189:3211   */\n  tag_71\n    /* \"#utility.yul\":3207:3210   */\n  dup6\n    /* \"#utility.yul\":3189:3211   */\n  tag_16\n  jump\t// in\ntag_71:\n    /* \"#utility.yul\":3179:3187   */\n  dup4\n    /* \"#utility.yul\":3175:3212   */\n  add\n    /* \"#utility.yul\":3162:3173   */\n  dup3\n    /* \"#utility.yul\":3133:3213   */\n  tag_26\n  jump\t// in\ntag_70:\n    /* \"#utility.yul\":2792:3223   */\n  pop\n  pop\n    /* \"#utility.yul\":2777:3223   */\ntag_66:\n    /* \"#utility.yul\":2687:3230   */\n  pop\n  pop\n  pop\n  jump\t// out\n    /* \"#utility.yul\":3236:3353   */\ntag_28:\n    /* \"#utility.yul\":3290:3298   */\n  0x00\n    /* \"#utility.yul\":3340:3345   */\n  dup3\n    /* \"#utility.yul\":3334:3338   */\n  dup3\n    /* \"#utility.yul\":3330:3346   */\n  shr\n    /* \"#utility.yul\":3309:3346   */\n  swap1\n  pop\n    /* \"#utility.yul\":3236:3353   */\n  swap3\n  swap2\n  pop\n  pop\n  jump\t// out\n    /* \"#utility.yul\":3359:3528   */\ntag_29:\n    /* \"#utility.yul\":3403:3409   */\n  0x00\n    /* \"#utility.yul\":3436:3487   */\n  tag_74\n    /* \"#utility.yul\":3484:3485   */\n  0x00\n    /* \"#utility.yul\":3480:3486   */\n  not\n    /* \"#utility.yul\":3472:3477   */\n  dup5\n    /* \"#utility.yul\":3469:3470   */\n  0x08\n    /* \"#utility.yul\":3465:3478   */\n  mul\n    /* \"#utility.yul\":3436:3487   */\n  tag_28\n  jump\t// in\ntag_74:\n    /* \"#utility.yul\":3432:3488   */\n  not\n    /* \"#utility.yul\":3517:3521   */\n  dup1\n    /* \"#utility.yul\":3511:3515   */\n  dup4\n    /* \"#utility.yul\":3507:3522   */\n  and\n    /* \"#utility.yul\":3497:3522   */\n  swap2\n  pop\n    /* \"#utility.yul\":3410:3528   */\n  pop\n    /* \"#utility.yul\":3359:3528   */\n  swap3\n  swap2\n  pop\n  pop\n  jump\t// out\n    /* \"#utility.yul\":3533:3828   */\ntag_30:\n    /* \"#utility.yul\":3609:3613   */\n  0x00\n    /* \"#utility.yul\":3755:3784   */\n  tag_76\n    /* \"#utility.yul\":3780:3783   */\n  dup4\n    /* \"#utility.yul\":3774:3778   */\n  dup4\n    /* \"#utility.yul\":3755:3784   */\n  tag_29\n  jump\t// in\ntag_76:\n    /* \"#utility.yul\":3747:3784   */\n  swap2\n  pop\n    /* \"#utility.yul\":3817:3820   */\n  dup3\n    /* \"#utility.yul\":3814:3815   */\n  0x02\n    /* \"#utility.yul\":3810:3821   */\n  mul\n    /* \"#utility.yul\":3804:3808   */\n  dup3\n    /* \"#utility.yul\":3801:3822   */\n  or\n    /* \"#utility.yul\":3793:3822   */\n  swap1\n  pop\n    /* \"#utility.yul\":3533:3828   */\n  swap3\n  swap2\n  pop\n  pop\n  jump\t// out\n    /* \"#utility.yul\":3833:5228   */\ntag_5:\n    /* \"#utility.yul\":3950:3987   */\n  tag_78\n    /* \"#utility.yul\":3983:3986   */\n  dup3\n    /* \"#utility.yul\":3950:3987   */\n  tag_11\n  jump\t// in\ntag_78:\n    /* \"#utility.yul\":4052:4070   */\n  0xffffffffffffffff\n    /* \"#utility.yul\":4044:4050   */\n  dup2\n    /* \"#utility.yul\":4041:4071   */\n  gt\n    /* \"#utility.yul\":4038:4094   */\n  iszero\n  tag_79\n  jumpi\n    /* \"#utility.yul\":4074:4092   */\n  tag_80\n  tag_12\n  jump\t// in\ntag_80:\n    /* \"#utility.yul\":4038:4094   */\ntag_79:\n    /* \"#utility.yul\":4118:4156   */\n  tag_81\n    /* \"#utility.yul\":4150:4154   */\n  dup3\n    /* \"#utility.yul\":4144:4155   */\n  sload\n    /* \"#utility.yul\":4118:4156   */\n  tag_14\n  jump\t// in\ntag_81:\n    /* \"#utility.yul\":4203:4270   */\n  tag_82\n    /* \"#utility.yul\":4263:4269   */\n  dup3\n    /* \"#utility.yul\":4255:4261   */\n  dup3\n    /* \"#utility.yul\":4249:4253   */\n  dup6\n    /* \"#utility.yul\":4203:4270   */\n  tag_27\n  jump\t// in\ntag_82:\n    /* \"#utility.yul\":4297:4298   */\n  0x00\n    /* \"#utility.yul\":4321:4325   */\n  0x20\n    /* \"#utility.yul\":4308:4325   */\n  swap1\n  pop\n    /* \"#utility.yul\":4353:4355   */\n  0x1f\n    /* \"#utility.yul\":4345:4351   */\n  dup4\n    /* \"#utility.yul\":4342:4356   */\n  gt\n    /* \"#utility.yul\":4370:4371   */\n  0x01\n    /* \"#utility.yul\":4365:4983   */\n  dup2\n  eq\n  tag_84\n  jumpi\n    /* \"#utility.yul\":5027:5028   */\n  0x00\n    /* \"#utility.yul\":5044:5050   */\n  dup5\n    /* \"#utility.yul\":5041:5118   */\n  iszero\n  tag_85\n  jumpi\n    /* \"#utility.yul\":5093:5102   */\n  dup3\n    /* \"#utility.yul\":5088:5091   */\n  dup8\n    /* \"#utility.yul\":5084:5103   */\n  add\n    /* \"#utility.yul\":5078:5104   */\n  mload\n    /* \"#utility.yul\":5069:5104   */\n  swap1\n  pop\n    /* \"#utility.yul\":5041:5118   */\ntag_85:\n    /* \"#utility.yul\":5144:5211   */\n  tag_86\n    /* \"#utility.yul\":5204:5210   */\n  dup6\n    /* \"#utility.yul\":5197:5202   */\n  dup3\n    /* \"#utility.yul\":5144:5211   */\n  tag_30\n  jump\t// in\ntag_86:\n    /* \"#utility.yul\":5138:5142   */\n  dup7\n    /* \"#utility.yul\":5131:5212   */\n  sstore\n    /* \"#utility.yul\":5000:5222   */\n  pop\n    /* \"#utility.yul\":4335:5222   */\n  jump(tag_83)\n    /* \"#utility.yul\":4365:4983   */\ntag_84:\n    /* \"#utility.yul\":4417:4421   */\n  0x1f\n    /* \"#utility.yul\":4413:4422   */\n  not\n    /* \"#utility.yul\":4405:4411   */\n  dup5\n    /* \"#utility.yul\":4401:4423   */\n  and\n    /* \"#utility.yul\":4451:4488   */\n  tag_87\n    /* \"#utility.yul\":4483:4487   */\n  dup7\n    /* \"#utility.yul\":4451:4488   */\n  tag_15\n  jump\t// in\ntag_87:\n    /* \"#utility.yul\":4510:4511   */\n  0x00\n    /* \"#utility.yul\":4524:4732   */\ntag_88:\n    /* \"#utility.yul\":4538:4545   */\n  dup3\n    /* \"#utility.yul\":4535:4536   */\n  dup2\n    /* \"#utility.yul\":4532:4546   */\n  lt\n    /* \"#utility.yul\":4524:4732   */\n  iszero\n  tag_90\n  jumpi\n    /* \"#utility.yul\":4617:4626   */\n  dup5\n    /* \"#utility.yul\":4612:4615   */\n  dup10\n    /* \"#utility.yul\":4608:4627   */\n  add\n    /* \"#utility.yul\":4602:4628   */\n  mload\n    /* \"#utility.yul\":4594:4600   */\n  dup3\n    /* \"#utility.yul\":4587:4629   */\n  sstore\n    /* \"#utility.yul\":4668:4669   */\n  0x01\n    /* \"#utility.yul\":4660:4666   */\n  dup3\n    /* \"#utility.yul\":4656:4670   */\n  add\n    /* \"#utility.yul\":4646:4670   */\n  swap2\n  pop\n    /* \"#utility.yul\":4715:4717   */\n  0x20\n    /* \"#utility.yul\":4704:4713   */\n  dup6\n    /* \"#utility.yul\":4700:4718   */\n  add\n    /* \"#utility.yul\":4687:4718   */\n  swap5\n  pop\n    /* \"#utility.yul\":4561:4565   */\n  0x20\n    /* \"#utility.yul\":4558:4559   */\n  dup2\n    /* \"#utility.yul\":4554:4566   */\n  add\n    /* \"#utility.yul\":4549:4566   */\n  swap1\n  pop\n    /* \"#utility.yul\":4524:4732   */\n  jump(tag_88)\ntag_90:\n    /* \"#utility.yul\":4760:4766   */\n  dup7\n    /* \"#utility.yul\":4751:4758   */\n  dup4\n    /* \"#utility.yul\":4748:4767   */\n  lt\n    /* \"#utility.yul\":4745:4924   */\n  iszero\n  tag_91\n  jumpi\n    /* \"#utility.yul\":4818:4827   */\n  dup5\n    /* \"#utility.yul\":4813:4816   */\n  dup10\n    /* \"#utility.yul\":4809:4828   */\n  add\n    /* \"#utility.yul\":4803:4829   */\n  mload\n    /* \"#utility.yul\":4861:4909   */\n  tag_92\n    /* \"#utility.yul\":4903:4907   */\n  0x1f\n    /* \"#utility.yul\":4895:4901   */\n  dup10\n    /* \"#utility.yul\":4891:4908   */\n  and\n    /* \"#utility.yul\":4880:4889   */\n  dup3\n    /* \"#utility.yul\":4861:4909   */\n  tag_29\n  jump\t// in\ntag_92:\n    /* \"#utility.yul\":4853:4859   */\n  dup4\n    /* \"#utility.yul\":4846:4910   */\n  sstore\n    /* \"#utility.yul\":4768:4924   */\n  pop\n    /* \"#utility.yul\":4745:4924   */\ntag_91:\n    /* \"#utility.yul\":4970:4971   */\n  0x01\n    /* \"#utility.yul\":4966:4967   */\n  0x02\n    /* \"#utility.yul\":4958:4964   */\n  dup9\n    /* \"#utility.yul\":4954:4968   */\n  mul\n    /* \"#utility.yul\":4950:4972   */\n  add\n    /* \"#utility.yul\":4944:4948   */\n  dup9\n    /* \"#utility.yul\":4937:4973   */\n  sstore\n    /* \"#utility.yul\":4372:4983   */\n  pop\n  pop\n  pop\n    /* \"#utility.yul\":4335:5222   */\ntag_83:\n  pop\n    /* \"#utility.yul\":3925:5228   */\n  pop\n  pop\n  pop\n    /* \"#utility.yul\":3833:5228   */\n  pop\n  pop\n  jump\t// out\n    /* \"contracts/USDTFlash.sol\":353:7318  contract USDTFlash is Context, IERC20, IERC20Metadata, IERC20Errors {... */\ntag_9:\n  dataSize(sub_0)\n  dup1\n  dataOffset(sub_0)\n  0x00\n  codecopy\n  0x00\n  return\nstop\n\nsub_0: assembly {\n        /* \"contracts/USDTFlash.sol\":353:7318  contract USDTFlash is Context, IERC20, IERC20Metadata, IERC20Errors {... */\n      mstore(0x40, 0x80)\n      callvalue\n      dup1\n      iszero\n      tag_1\n      jumpi\n      revert(0x00, 0x00)\n    tag_1:\n      pop\n      jumpi(tag_2, lt(calldatasize, 0x04))\n      shr(0xe0, calldataload(0x00))\n      dup1\n      0x893d20e8\n      gt\n      tag_17\n      jumpi\n      dup1\n      0xa457c2d7\n      gt\n      tag_18\n      jumpi\n      dup1\n      0xa457c2d7\n      eq\n      tag_13\n      jumpi\n      dup1\n      0xa9059cbb\n      eq\n      tag_14\n      jumpi\n      dup1\n      0xd5abeb01\n      eq\n      tag_15\n      jumpi\n      dup1\n      0xdd62ed3e\n      eq\n      tag_16\n      jumpi\n      jump(tag_2)\n    tag_18:\n      dup1\n      0x893d20e8\n      eq\n      tag_10\n      jumpi\n      dup1\n      0x95d89b41\n      eq\n      tag_11\n      jumpi\n      dup1\n      0xa0712d68\n      eq\n      tag_12\n      jumpi\n      jump(tag_2)\n    tag_17:\n      dup1\n      0x23b872dd\n      gt\n      tag_19\n      jumpi\n      dup1\n      0x23b872dd\n      eq\n      tag_6\n      jumpi\n      dup1\n      0x313ce567\n      eq\n      tag_7\n      jumpi\n      dup1\n      0x39509351\n      eq\n      tag_8\n      jumpi\n      dup1\n      0x70a08231\n      eq\n      tag_9\n      jumpi\n      jump(tag_2)\n    tag_19:\n      dup1\n      0x06fdde03\n      eq\n      tag_3\n      jumpi\n      dup1\n      0x095ea7b3\n      eq\n      tag_4\n      jumpi\n      dup1\n      0x18160ddd\n      eq\n      tag_5\n      jumpi\n    tag_2:\n      revert(0x00, 0x00)\n        /* \"contracts/USDTFlash.sol\":1242:1333  function name() public view virtual returns (string memory) {... */\n    tag_3:\n      tag_20\n      tag_21\n      jump\t// in\n    tag_20:\n      mload(0x40)\n      tag_22\n      swap2\n      swap1\n      tag_23\n      jump\t// in\n    tag_22:\n      mload(0x40)\n      dup1\n      swap2\n      sub\n      swap1\n      return\n        /* \"contracts/USDTFlash.sol\":2876:3066  function approve(address spender, uint256 value) public virtual returns (bool) {... */\n    tag_4:\n      tag_24\n      0x04\n      dup1\n      calldatasize\n      sub\n      dup2\n      add\n      swap1\n      tag_25\n      swap2\n      swap1\n      tag_26\n      jump\t// in\n    tag_25:\n      tag_27\n      jump\t// in\n    tag_24:\n      mload(0x40)\n      tag_28\n      swap2\n      swap1\n      tag_29\n      jump\t// in\n    tag_28:\n      mload(0x40)\n      dup1\n      swap2\n      sub\n      swap1\n      return\n        /* \"contracts/USDTFlash.sol\":1684:1783  function totalSupply() public view virtual returns (uint256) {... */\n    tag_5:\n      tag_30\n      tag_31\n      jump\t// in\n    tag_30:\n      mload(0x40)\n      tag_32\n      swap2\n      swap1\n      tag_33\n      jump\t// in\n    tag_32:\n      mload(0x40)\n      dup1\n      swap2\n      sub\n      swap1\n      return\n        /* \"contracts/USDTFlash.sol\":3148:3397  function transferFrom(address from, address to, uint256 value) public virtual returns (bool) {... */\n    tag_6:\n      tag_34\n      0x04\n      dup1\n      calldatasize\n      sub\n      dup2\n      add\n      swap1\n      tag_35\n      swap2\n      swap1\n      tag_36\n      jump\t// in\n    tag_35:\n      tag_37\n      jump\t// in\n    tag_34:\n      mload(0x40)\n      tag_38\n      swap2\n      swap1\n      tag_29\n      jump\t// in\n    tag_38:\n      mload(0x40)\n      dup1\n      swap2\n      sub\n      swap1\n      return\n        /* \"contracts/USDTFlash.sol\":1548:1632  function decimals() public view virtual returns (uint8) {... */\n    tag_7:\n      tag_39\n      tag_40\n      jump\t// in\n    tag_39:\n      mload(0x40)\n      tag_41\n      swap2\n      swap1\n      tag_42\n      jump\t// in\n    tag_41:\n      mload(0x40)\n      dup1\n      swap2\n      sub\n      swap1\n      return\n        /* \"contracts/USDTFlash.sol\":3476:3711  function increaseAllowance(address spender, uint addedValue) public virtual returns (bool) {... */\n    tag_8:\n      tag_43\n      0x04\n      dup1\n      calldatasize\n      sub\n      dup2\n      add\n      swap1\n      tag_44\n      swap2\n      swap1\n      tag_26\n      jump\t// in\n    tag_44:\n      tag_45\n      jump\t// in\n    tag_43:\n      mload(0x40)\n      tag_46\n      swap2\n      swap1\n      tag_29\n      jump\t// in\n    tag_46:\n      mload(0x40)\n      dup1\n      swap2\n      sub\n      swap1\n      return\n        /* \"contracts/USDTFlash.sol\":2013:2131  function balanceOf(address account) public view virtual returns (uint256) {... */\n    tag_9:\n      tag_47\n      0x04\n      dup1\n      calldatasize\n      sub\n      dup2\n      add\n      swap1\n      tag_48\n      swap2\n      swap1\n      tag_49\n      jump\t// in\n    tag_48:\n      tag_50\n      jump\t// in\n    tag_47:\n      mload(0x40)\n      tag_51\n      swap2\n      swap1\n      tag_33\n      jump\t// in\n    tag_51:\n      mload(0x40)\n      dup1\n      swap2\n      sub\n      swap1\n      return\n        /* \"contracts/USDTFlash.sol\":1119:1199  function getOwner() public view returns(address){... */\n    tag_10:\n      tag_52\n      tag_53\n      jump\t// in\n    tag_52:\n      mload(0x40)\n      tag_54\n      swap2\n      swap1\n      tag_55\n      jump\t// in\n    tag_54:\n      mload(0x40)\n      dup1\n      swap2\n      sub\n      swap1\n      return\n        /* \"contracts/USDTFlash.sol\":1377:1472  function symbol() public view virtual returns (string memory) {... */\n    tag_11:\n      tag_56\n      tag_57\n      jump\t// in\n    tag_56:\n      mload(0x40)\n      tag_58\n      swap2\n      swap1\n      tag_23\n      jump\t// in\n    tag_58:\n      mload(0x40)\n      dup1\n      swap2\n      sub\n      swap1\n      return\n        /* \"contracts/USDTFlash.sol\":2362:2564  function mint(uint256 amount) public returns (bool) {... */\n    tag_12:\n      tag_59\n      0x04\n      dup1\n      calldatasize\n      sub\n      dup2\n      add\n      swap1\n      tag_60\n      swap2\n      swap1\n      tag_61\n      jump\t// in\n    tag_60:\n      tag_62\n      jump\t// in\n    tag_59:\n      mload(0x40)\n      tag_63\n      swap2\n      swap1\n      tag_29\n      jump\t// in\n    tag_63:\n      mload(0x40)\n      dup1\n      swap2\n      sub\n      swap1\n      return\n        /* \"contracts/USDTFlash.sol\":3792:4213  function decreaseAllowance(address spender, uint subtractedValue) public virtual returns (bool) {... */\n    tag_13:\n      tag_64\n      0x04\n      dup1\n      calldatasize\n      sub\n      dup2\n      add\n      swap1\n      tag_65\n      swap2\n      swap1\n      tag_26\n      jump\t// in\n    tag_65:\n      tag_66\n      jump\t// in\n    tag_64:\n      mload(0x40)\n      tag_67\n      swap2\n      swap1\n      tag_29\n      jump\t// in\n    tag_67:\n      mload(0x40)\n      dup1\n      swap2\n      sub\n      swap1\n      return\n        /* \"contracts/USDTFlash.sol\":2170:2352  function transfer(address to, uint256 value) public virtual returns (bool) {... */\n    tag_14:\n      tag_68\n      0x04\n      dup1\n      calldatasize\n      sub\n      dup2\n      add\n      swap1\n      tag_69\n      swap2\n      swap1\n      tag_26\n      jump\t// in\n    tag_69:\n      tag_70\n      jump\t// in\n    tag_68:\n      mload(0x40)\n      tag_71\n      swap2\n      swap1\n      tag_29\n      jump\t// in\n    tag_71:\n      mload(0x40)\n      dup1\n      swap2\n      sub\n      swap1\n      return\n        /* \"contracts/USDTFlash.sol\":1856:1947  function maxSupply() public view virtual returns (uint256) {... */\n    tag_15:\n      tag_72\n      tag_73\n      jump\t// in\n    tag_72:\n      mload(0x40)\n      tag_74\n      swap2\n      swap1\n      tag_33\n      jump\t// in\n    tag_74:\n      mload(0x40)\n      dup1\n      swap2\n      sub\n      swap1\n      return\n        /* \"contracts/USDTFlash.sol\":2679:2821  function allowance(address owner, address spender) public view virtual returns (uint256) {... */\n    tag_16:\n      tag_75\n      0x04\n      dup1\n      calldatasize\n      sub\n      dup2\n      add\n      swap1\n      tag_76\n      swap2\n      swap1\n      tag_77\n      jump\t// in\n    tag_76:\n      tag_78\n      jump\t// in\n    tag_75:\n      mload(0x40)\n      tag_79\n      swap2\n      swap1\n      tag_33\n      jump\t// in\n    tag_79:\n      mload(0x40)\n      dup1\n      swap2\n      sub\n      swap1\n      return\n        /* \"contracts/USDTFlash.sol\":1242:1333  function name() public view virtual returns (string memory) {... */\n    tag_21:\n        /* \"contracts/USDTFlash.sol\":1287:1300  string memory */\n      0x60\n        /* \"contracts/USDTFlash.sol\":1320:1325  _name */\n      0x04\n        /* \"contracts/USDTFlash.sol\":1313:1325  return _name */\n      dup1\n      sload\n      tag_81\n      swap1\n      tag_82\n      jump\t// in\n    tag_81:\n      dup1\n      0x1f\n      add\n      0x20\n      dup1\n      swap2\n      div\n      mul\n      0x20\n      add\n      mload(0x40)\n      swap1\n      dup2\n      add\n      0x40\n      mstore\n      dup1\n      swap3\n      swap2\n      swap1\n      dup2\n      dup2\n      mstore\n      0x20\n      add\n      dup3\n      dup1\n      sload\n      tag_83\n      swap1\n      tag_82\n      jump\t// in\n    tag_83:\n      dup1\n      iszero\n      tag_84\n      jumpi\n      dup1\n      0x1f\n      lt\n      tag_85\n      jumpi\n      0x0100\n      dup1\n      dup4\n      sload\n      div\n      mul\n      dup4\n      mstore\n      swap2\n      0x20\n      add\n      swap2\n      jump(tag_84)\n    tag_85:\n      dup3\n      add\n      swap2\n      swap1\n      0x00\n      mstore\n      keccak256(0x00, 0x20)\n      swap1\n    tag_86:\n      dup2\n      sload\n      dup2\n      mstore\n      swap1\n      0x01\n      add\n      swap1\n      0x20\n      add\n      dup1\n      dup4\n      gt\n      tag_86\n      jumpi\n      dup3\n      swap1\n      sub\n      0x1f\n      and\n      dup3\n      add\n      swap2\n    tag_84:\n      pop\n      pop\n      pop\n      pop\n      pop\n      swap1\n      pop\n        /* \"contracts/USDTFlash.sol\":1242:1333  function name() public view virtual returns (string memory) {... */\n      swap1\n      jump\t// out\n        /* \"contracts/USDTFlash.sol\":2876:3066  function approve(address spender, uint256 value) public virtual returns (bool) {... */\n    tag_27:\n        /* \"contracts/USDTFlash.sol\":2949:2953  bool */\n      0x00\n        /* \"contracts/USDTFlash.sol\":2966:2979  address owner */\n      0x00\n        /* \"contracts/USDTFlash.sol\":2982:2994  _msgSender() */\n      tag_88\n        /* \"contracts/USDTFlash.sol\":2982:2992  _msgSender */\n      tag_89\n        /* \"contracts/USDTFlash.sol\":2982:2994  _msgSender() */\n      jump\t// in\n    tag_88:\n        /* \"contracts/USDTFlash.sol\":2966:2994  address owner = _msgSender() */\n      swap1\n      pop\n        /* \"contracts/USDTFlash.sol\":3005:3036  _approve(owner, spender, value) */\n      tag_90\n        /* \"contracts/USDTFlash.sol\":3014:3019  owner */\n      dup2\n        /* \"contracts/USDTFlash.sol\":3021:3028  spender */\n      dup6\n        /* \"contracts/USDTFlash.sol\":3030:3035  value */\n      dup6\n        /* \"contracts/USDTFlash.sol\":3005:3013  _approve */\n      tag_91\n        /* \"contracts/USDTFlash.sol\":3005:3036  _approve(owner, spender, value) */\n      jump\t// in\n    tag_90:\n        /* \"contracts/USDTFlash.sol\":3054:3058  true */\n      0x01\n        /* \"contracts/USDTFlash.sol\":3047:3058  return true */\n      swap2\n      pop\n      pop\n        /* \"contracts/USDTFlash.sol\":2876:3066  function approve(address spender, uint256 value) public virtual returns (bool) {... */\n      swap3\n      swap2\n      pop\n      pop\n      jump\t// out\n        /* \"contracts/USDTFlash.sol\":1684:1783  function totalSupply() public view virtual returns (uint256) {... */\n    tag_31:\n        /* \"contracts/USDTFlash.sol\":1736:1743  uint256 */\n      0x00\n        /* \"contracts/USDTFlash.sol\":1763:1775  _totalSupply */\n      sload(0x02)\n        /* \"contracts/USDTFlash.sol\":1756:1775  return _totalSupply */\n      swap1\n      pop\n        /* \"contracts/USDTFlash.sol\":1684:1783  function totalSupply() public view virtual returns (uint256) {... */\n      swap1\n      jump\t// out\n        /* \"contracts/USDTFlash.sol\":3148:3397  function transferFrom(address from, address to, uint256 value) public virtual returns (bool) {... */\n    tag_37:\n        /* \"contracts/USDTFlash.sol\":3235:3239  bool */\n      0x00\n        /* \"contracts/USDTFlash.sol\":3252:3267  address spender */\n      0x00\n        /* \"contracts/USDTFlash.sol\":3270:3282  _msgSender() */\n      tag_94\n        /* \"contracts/USDTFlash.sol\":3270:3280  _msgSender */\n      tag_89\n        /* \"contracts/USDTFlash.sol\":3270:3282  _msgSender() */\n      jump\t// in\n    tag_94:\n        /* \"contracts/USDTFlash.sol\":3252:3282  address spender = _msgSender() */\n      swap1\n      pop\n        /* \"contracts/USDTFlash.sol\":3293:3330  _spendAllowance(from, spender, value) */\n      tag_95\n        /* \"contracts/USDTFlash.sol\":3309:3313  from */\n      dup6\n        /* \"contracts/USDTFlash.sol\":3315:3322  spender */\n      dup3\n        /* \"contracts/USDTFlash.sol\":3324:3329  value */\n      dup6\n        /* \"contracts/USDTFlash.sol\":3293:3308  _spendAllowance */\n      tag_96\n        /* \"contracts/USDTFlash.sol\":3293:3330  _spendAllowance(from, spender, value) */\n      jump\t// in\n    tag_95:\n        /* \"contracts/USDTFlash.sol\":3341:3367  _transfer(from, to, value) */\n      tag_97\n        /* \"contracts/USDTFlash.sol\":3351:3355  from */\n      dup6\n        /* \"contracts/USDTFlash.sol\":3357:3359  to */\n      dup6\n        /* \"contracts/USDTFlash.sol\":3361:3366  value */\n      dup6\n        /* \"contracts/USDTFlash.sol\":3341:3350  _transfer */\n      tag_98\n        /* \"contracts/USDTFlash.sol\":3341:3367  _transfer(from, to, value) */\n      jump\t// in\n    tag_97:\n        /* \"contracts/USDTFlash.sol\":3385:3389  true */\n      0x01\n        /* \"contracts/USDTFlash.sol\":3378:3389  return true */\n      swap2\n      pop\n      pop\n        /* \"contracts/USDTFlash.sol\":3148:3397  function transferFrom(address from, address to, uint256 value) public virtual returns (bool) {... */\n      swap4\n      swap3\n      pop\n      pop\n      pop\n      jump\t// out\n        /* \"contracts/USDTFlash.sol\":1548:1632  function decimals() public view virtual returns (uint8) {... */\n    tag_40:\n        /* \"contracts/USDTFlash.sol\":1597:1602  uint8 */\n      0x00\n        /* \"contracts/USDTFlash.sol\":1622:1624  18 */\n      0x12\n        /* \"contracts/USDTFlash.sol\":1615:1624  return 18 */\n      swap1\n      pop\n        /* \"contracts/USDTFlash.sol\":1548:1632  function decimals() public view virtual returns (uint8) {... */\n      swap1\n      jump\t// out\n        /* \"contracts/USDTFlash.sol\":3476:3711  function increaseAllowance(address spender, uint addedValue) public virtual returns (bool) {... */\n    tag_45:\n        /* \"contracts/USDTFlash.sol\":3561:3565  bool */\n      0x00\n        /* \"contracts/USDTFlash.sol\":3578:3591  address owner */\n      0x00\n        /* \"contracts/USDTFlash.sol\":3594:3606  _msgSender() */\n      tag_101\n        /* \"contracts/USDTFlash.sol\":3594:3604  _msgSender */\n      tag_89\n        /* \"contracts/USDTFlash.sol\":3594:3606  _msgSender() */\n      jump\t// in\n    tag_101:\n        /* \"contracts/USDTFlash.sol\":3578:3606  address owner = _msgSender() */\n      swap1\n      pop\n        /* \"contracts/USDTFlash.sol\":3617:3681  _approve(owner, spender, allowance(owner, spender) + addedValue) */\n      tag_102\n        /* \"contracts/USDTFlash.sol\":3626:3631  owner */\n      dup2\n        /* \"contracts/USDTFlash.sol\":3633:3640  spender */\n      dup6\n        /* \"contracts/USDTFlash.sol\":3670:3680  addedValue */\n      dup6\n        /* \"contracts/USDTFlash.sol\":3642:3667  allowance(owner, spender) */\n      tag_103\n        /* \"contracts/USDTFlash.sol\":3652:3657  owner */\n      dup6\n        /* \"contracts/USDTFlash.sol\":3659:3666  spender */\n      dup10\n        /* \"contracts/USDTFlash.sol\":3642:3651  allowance */\n      tag_78\n        /* \"contracts/USDTFlash.sol\":3642:3667  allowance(owner, spender) */\n      jump\t// in\n    tag_103:\n        /* \"contracts/USDTFlash.sol\":3642:3680  allowance(owner, spender) + addedValue */\n      tag_104\n      swap2\n      swap1\n      tag_105\n      jump\t// in\n    tag_104:\n        /* \"contracts/USDTFlash.sol\":3617:3625  _approve */\n      tag_91\n        /* \"contracts/USDTFlash.sol\":3617:3681  _approve(owner, spender, allowance(owner, spender) + addedValue) */\n      jump\t// in\n    tag_102:\n        /* \"contracts/USDTFlash.sol\":3699:3703  true */\n      0x01\n        /* \"contracts/USDTFlash.sol\":3692:3703  return true */\n      swap2\n      pop\n      pop\n        /* \"contracts/USDTFlash.sol\":3476:3711  function increaseAllowance(address spender, uint addedValue) public virtual returns (bool) {... */\n      swap3\n      swap2\n      pop\n      pop\n      jump\t// out\n        /* \"contracts/USDTFlash.sol\":2013:2131  function balanceOf(address account) public view virtual returns (uint256) {... */\n    tag_50:\n        /* \"contracts/USDTFlash.sol\":2078:2085  uint256 */\n      0x00\n        /* \"contracts/USDTFlash.sol\":2105:2114  _balances */\n      0x00\n        /* \"contracts/USDTFlash.sol\":2105:2123  _balances[account] */\n      0x00\n        /* \"contracts/USDTFlash.sol\":2115:2122  account */\n      dup4\n        /* \"contracts/USDTFlash.sol\":2105:2123  _balances[account] */\n      0xffffffffffffffffffffffffffffffffffffffff\n      and\n      0xffffffffffffffffffffffffffffffffffffffff\n      and\n      dup2\n      mstore\n      0x20\n      add\n      swap1\n      dup2\n      mstore\n      0x20\n      add\n      0x00\n      keccak256\n      sload\n        /* \"contracts/USDTFlash.sol\":2098:2123  return _balances[account] */\n      swap1\n      pop\n        /* \"contracts/USDTFlash.sol\":2013:2131  function balanceOf(address account) public view virtual returns (uint256) {... */\n      swap2\n      swap1\n      pop\n      jump\t// out\n        /* \"contracts/USDTFlash.sol\":1119:1199  function getOwner() public view returns(address){... */\n    tag_53:\n        /* \"contracts/USDTFlash.sol\":1159:1166  address */\n      0x00\n        /* \"contracts/USDTFlash.sol\":1185:1191  _owner */\n      0x06\n      0x00\n      swap1\n      sload\n      swap1\n      0x0100\n      exp\n      swap1\n      div\n      0xffffffffffffffffffffffffffffffffffffffff\n      and\n        /* \"contracts/USDTFlash.sol\":1178:1191  return _owner */\n      swap1\n      pop\n        /* \"contracts/USDTFlash.sol\":1119:1199  function getOwner() public view returns(address){... */\n      swap1\n      jump\t// out\n        /* \"contracts/USDTFlash.sol\":1377:1472  function symbol() public view virtual returns (string memory) {... */\n    tag_57:\n        /* \"contracts/USDTFlash.sol\":1424:1437  string memory */\n      0x60\n        /* \"contracts/USDTFlash.sol\":1457:1464  _symbol */\n      0x05\n        /* \"contracts/USDTFlash.sol\":1450:1464  return _symbol */\n      dup1\n      sload\n      tag_109\n      swap1\n      tag_82\n      jump\t// in\n    tag_109:\n      dup1\n      0x1f\n      add\n      0x20\n      dup1\n      swap2\n      div\n      mul\n      0x20\n      add\n      mload(0x40)\n      swap1\n      dup2\n      add\n      0x40\n      mstore\n      dup1\n      swap3\n      swap2\n      swap1\n      dup2\n      dup2\n      mstore\n      0x20\n      add\n      dup3\n      dup1\n      sload\n      tag_110\n      swap1\n      tag_82\n      jump\t// in\n    tag_110:\n      dup1\n      iszero\n      tag_111\n      jumpi\n      dup1\n      0x1f\n      lt\n      tag_112\n      jumpi\n      0x0100\n      dup1\n      dup4\n      sload\n      div\n      mul\n      dup4\n      mstore\n      swap2\n      0x20\n      add\n      swap2\n      jump(tag_111)\n    tag_112:\n      dup3\n      add\n      swap2\n      swap1\n      0x00\n      mstore\n      keccak256(0x00, 0x20)\n      swap1\n    tag_113:\n      dup2\n      sload\n      dup2\n      mstore\n      swap1\n      0x01\n      add\n      swap1\n      0x20\n      add\n      dup1\n      dup4\n      gt\n      tag_113\n      jumpi\n      dup3\n      swap1\n      sub\n      0x1f\n      and\n      dup3\n      add\n      swap2\n    tag_111:\n      pop\n      pop\n      pop\n      pop\n      pop\n      swap1\n      pop\n        /* \"contracts/USDTFlash.sol\":1377:1472  function symbol() public view virtual returns (string memory) {... */\n      swap1\n      jump\t// out\n        /* \"contracts/USDTFlash.sol\":2362:2564  function mint(uint256 amount) public returns (bool) {... */\n    tag_62:\n        /* \"contracts/USDTFlash.sol\":2408:2412  bool */\n      0x00\n        /* \"contracts/USDTFlash.sol\":2451:2457  _owner */\n      0x06\n      0x00\n      swap1\n      sload\n      swap1\n      0x0100\n      exp\n      swap1\n      div\n      0xffffffffffffffffffffffffffffffffffffffff\n      and\n        /* \"contracts/USDTFlash.sol\":2437:2457  msg.sender == _owner */\n      0xffffffffffffffffffffffffffffffffffffffff\n      and\n        /* \"contracts/USDTFlash.sol\":2437:2447  msg.sender */\n      caller\n        /* \"contracts/USDTFlash.sol\":2437:2457  msg.sender == _owner */\n      0xffffffffffffffffffffffffffffffffffffffff\n      and\n      eq\n        /* \"contracts/USDTFlash.sol\":2429:2494  require(msg.sender == _owner, \"ERC20: You dont have permissions\") */\n      tag_115\n      jumpi\n      mload(0x40)\n      0x08c379a000000000000000000000000000000000000000000000000000000000\n      dup2\n      mstore\n      0x04\n      add\n      tag_116\n      swap1\n      tag_117\n      jump\t// in\n    tag_116:\n      mload(0x40)\n      dup1\n      swap2\n      sub\n      swap1\n      revert\n    tag_115:\n        /* \"contracts/USDTFlash.sol\":2509:2530  _mint(_owner, amount) */\n      tag_118\n        /* \"contracts/USDTFlash.sol\":2515:2521  _owner */\n      0x06\n      0x00\n      swap1\n      sload\n      swap1\n      0x0100\n      exp\n      swap1\n      div\n      0xffffffffffffffffffffffffffffffffffffffff\n      and\n        /* \"contracts/USDTFlash.sol\":2523:2529  amount */\n      dup4\n        /* \"contracts/USDTFlash.sol\":2509:2514  _mint */\n      tag_119\n        /* \"contracts/USDTFlash.sol\":2509:2530  _mint(_owner, amount) */\n      jump\t// in\n    tag_118:\n        /* \"contracts/USDTFlash.sol\":2552:2556  true */\n      0x01\n        /* \"contracts/USDTFlash.sol\":2545:2556  return true */\n      swap1\n      pop\n        /* \"contracts/USDTFlash.sol\":2362:2564  function mint(uint256 amount) public returns (bool) {... */\n      swap2\n      swap1\n      pop\n      jump\t// out\n        /* \"contracts/USDTFlash.sol\":3792:4213  function decreaseAllowance(address spender, uint subtractedValue) public virtual returns (bool) {... */\n    tag_66:\n        /* \"contracts/USDTFlash.sol\":3882:3886  bool */\n      0x00\n        /* \"contracts/USDTFlash.sol\":3899:3912  address owner */\n      0x00\n        /* \"contracts/USDTFlash.sol\":3915:3927  _msgSender() */\n      tag_121\n        /* \"contracts/USDTFlash.sol\":3915:3925  _msgSender */\n      tag_89\n        /* \"contracts/USDTFlash.sol\":3915:3927  _msgSender() */\n      jump\t// in\n    tag_121:\n        /* \"contracts/USDTFlash.sol\":3899:3927  address owner = _msgSender() */\n      swap1\n      pop\n        /* \"contracts/USDTFlash.sol\":3938:3962  uint256 currentAllowance */\n      0x00\n        /* \"contracts/USDTFlash.sol\":3965:3990  allowance(owner, spender) */\n      tag_122\n        /* \"contracts/USDTFlash.sol\":3975:3980  owner */\n      dup3\n        /* \"contracts/USDTFlash.sol\":3982:3989  spender */\n      dup7\n        /* \"contracts/USDTFlash.sol\":3965:3974  allowance */\n      tag_78\n        /* \"contracts/USDTFlash.sol\":3965:3990  allowance(owner, spender) */\n      jump\t// in\n    tag_122:\n        /* \"contracts/USDTFlash.sol\":3938:3990  uint256 currentAllowance = allowance(owner, spender) */\n      swap1\n      pop\n        /* \"contracts/USDTFlash.sol\":4029:4044  subtractedValue */\n      dup4\n        /* \"contracts/USDTFlash.sol\":4009:4025  currentAllowance */\n      dup2\n        /* \"contracts/USDTFlash.sol\":4009:4044  currentAllowance >= subtractedValue */\n      lt\n      iszero\n        /* \"contracts/USDTFlash.sol\":4001:4076  require(currentAllowance >= subtractedValue, \"ERC20:allowance bellow zero\") */\n      tag_123\n      jumpi\n      mload(0x40)\n      0x08c379a000000000000000000000000000000000000000000000000000000000\n      dup2\n      mstore\n      0x04\n      add\n      tag_124\n      swap1\n      tag_125\n      jump\t// in\n    tag_124:\n      mload(0x40)\n      dup1\n      swap2\n      sub\n      swap1\n      revert\n    tag_123:\n        /* \"contracts/USDTFlash.sol\":4112:4172  _approve(owner, spender, currentAllowance - subtractedValue) */\n      tag_126\n        /* \"contracts/USDTFlash.sol\":4121:4126  owner */\n      dup3\n        /* \"contracts/USDTFlash.sol\":4128:4135  spender */\n      dup7\n        /* \"contracts/USDTFlash.sol\":4156:4171  subtractedValue */\n      dup7\n        /* \"contracts/USDTFlash.sol\":4137:4153  currentAllowance */\n      dup5\n        /* \"contracts/USDTFlash.sol\":4137:4171  currentAllowance - subtractedValue */\n      sub\n        /* \"contracts/USDTFlash.sol\":4112:4120  _approve */\n      tag_91\n        /* \"contracts/USDTFlash.sol\":4112:4172  _approve(owner, spender, currentAllowance - subtractedValue) */\n      jump\t// in\n    tag_126:\n        /* \"contracts/USDTFlash.sol\":4201:4205  true */\n      0x01\n        /* \"contracts/USDTFlash.sol\":4194:4205  return true */\n      swap3\n      pop\n      pop\n      pop\n        /* \"contracts/USDTFlash.sol\":3792:4213  function decreaseAllowance(address spender, uint subtractedValue) public virtual returns (bool) {... */\n      swap3\n      swap2\n      pop\n      pop\n      jump\t// out\n        /* \"contracts/USDTFlash.sol\":2170:2352  function transfer(address to, uint256 value) public virtual returns (bool) {... */\n    tag_70:\n        /* \"contracts/USDTFlash.sol\":2239:2243  bool */\n      0x00\n        /* \"contracts/USDTFlash.sol\":2256:2269  address owner */\n      0x00\n        /* \"contracts/USDTFlash.sol\":2272:2284  _msgSender() */\n      tag_128\n        /* \"contracts/USDTFlash.sol\":2272:2282  _msgSender */\n      tag_89\n        /* \"contracts/USDTFlash.sol\":2272:2284  _msgSender() */\n      jump\t// in\n    tag_128:\n        /* \"contracts/USDTFlash.sol\":2256:2284  address owner = _msgSender() */\n      swap1\n      pop\n        /* \"contracts/USDTFlash.sol\":2295:2322  _transfer(owner, to, value) */\n      tag_129\n        /* \"contracts/USDTFlash.sol\":2305:2310  owner */\n      dup2\n        /* \"contracts/USDTFlash.sol\":2312:2314  to */\n      dup6\n        /* \"contracts/USDTFlash.sol\":2316:2321  value */\n      dup6\n        /* \"contracts/USDTFlash.sol\":2295:2304  _transfer */\n      tag_98\n        /* \"contracts/USDTFlash.sol\":2295:2322  _transfer(owner, to, value) */\n      jump\t// in\n    tag_129:\n        /* \"contracts/USDTFlash.sol\":2340:2344  true */\n      0x01\n        /* \"contracts/USDTFlash.sol\":2333:2344  return true */\n      swap2\n      pop\n      pop\n        /* \"contracts/USDTFlash.sol\":2170:2352  function transfer(address to, uint256 value) public virtual returns (bool) {... */\n      swap3\n      swap2\n      pop\n      pop\n      jump\t// out\n        /* \"contracts/USDTFlash.sol\":1856:1947  function maxSupply() public view virtual returns (uint256) {... */\n    tag_73:\n        /* \"contracts/USDTFlash.sol\":1906:1913  uint256 */\n      0x00\n        /* \"contracts/USDTFlash.sol\":1929:1939  _maxSupply */\n      sload(0x03)\n        /* \"contracts/USDTFlash.sol\":1922:1939  return _maxSupply */\n      swap1\n      pop\n        /* \"contracts/USDTFlash.sol\":1856:1947  function maxSupply() public view virtual returns (uint256) {... */\n      swap1\n      jump\t// out\n        /* \"contracts/USDTFlash.sol\":2679:2821  function allowance(address owner, address spender) public view virtual returns (uint256) {... */\n    tag_78:\n        /* \"contracts/USDTFlash.sol\":2759:2766  uint256 */\n      0x00\n        /* \"contracts/USDTFlash.sol\":2786:2797  _allowances */\n      0x01\n        /* \"contracts/USDTFlash.sol\":2786:2804  _allowances[owner] */\n      0x00\n        /* \"contracts/USDTFlash.sol\":2798:2803  owner */\n      dup5\n        /* \"contracts/USDTFlash.sol\":2786:2804  _allowances[owner] */\n      0xffffffffffffffffffffffffffffffffffffffff\n      and\n      0xffffffffffffffffffffffffffffffffffffffff\n      and\n      dup2\n      mstore\n      0x20\n      add\n      swap1\n      dup2\n      mstore\n      0x20\n      add\n      0x00\n      keccak256\n        /* \"contracts/USDTFlash.sol\":2786:2813  _allowances[owner][spender] */\n      0x00\n        /* \"contracts/USDTFlash.sol\":2805:2812  spender */\n      dup4\n        /* \"contracts/USDTFlash.sol\":2786:2813  _allowances[owner][spender] */\n      0xffffffffffffffffffffffffffffffffffffffff\n      and\n      0xffffffffffffffffffffffffffffffffffffffff\n      and\n      dup2\n      mstore\n      0x20\n      add\n      swap1\n      dup2\n      mstore\n      0x20\n      add\n      0x00\n      keccak256\n      sload\n        /* \"contracts/USDTFlash.sol\":2779:2813  return _allowances[owner][spender] */\n      swap1\n      pop\n        /* \"contracts/USDTFlash.sol\":2679:2821  function allowance(address owner, address spender) public view virtual returns (uint256) {... */\n      swap3\n      swap2\n      pop\n      pop\n      jump\t// out\n        /* \"contracts/utils/Context.sol\":673:771  function _msgSender() internal view virtual returns (address) {... */\n    tag_89:\n        /* \"contracts/utils/Context.sol\":726:733  address */\n      0x00\n        /* \"contracts/utils/Context.sol\":753:763  msg.sender */\n      caller\n        /* \"contracts/utils/Context.sol\":746:763  return msg.sender */\n      swap1\n      pop\n        /* \"contracts/utils/Context.sol\":673:771  function _msgSender() internal view virtual returns (address) {... */\n      swap1\n      jump\t// out\n        /* \"contracts/USDTFlash.sol\":6237:6367  function _approve(address owner, address spender, uint256 value) internal {... */\n    tag_91:\n        /* \"contracts/USDTFlash.sol\":6322:6359  _approve(owner, spender, value, true) */\n      tag_134\n        /* \"contracts/USDTFlash.sol\":6331:6336  owner */\n      dup4\n        /* \"contracts/USDTFlash.sol\":6338:6345  spender */\n      dup4\n        /* \"contracts/USDTFlash.sol\":6347:6352  value */\n      dup4\n        /* \"contracts/USDTFlash.sol\":6354:6358  true */\n      0x01\n        /* \"contracts/USDTFlash.sol\":6322:6330  _approve */\n      tag_135\n        /* \"contracts/USDTFlash.sol\":6322:6359  _approve(owner, spender, value, true) */\n      jump\t// in\n    tag_134:\n        /* \"contracts/USDTFlash.sol\":6237:6367  function _approve(address owner, address spender, uint256 value) internal {... */\n      pop\n      pop\n      pop\n      jump\t// out\n        /* \"contracts/USDTFlash.sol\":6828:7315  function _spendAllowance(address owner, address spender, uint256 value) internal virtual {... */\n    tag_96:\n        /* \"contracts/USDTFlash.sol\":6928:6952  uint256 currentAllowance */\n      0x00\n        /* \"contracts/USDTFlash.sol\":6955:6980  allowance(owner, spender) */\n      tag_137\n        /* \"contracts/USDTFlash.sol\":6965:6970  owner */\n      dup5\n        /* \"contracts/USDTFlash.sol\":6972:6979  spender */\n      dup5\n        /* \"contracts/USDTFlash.sol\":6955:6964  allowance */\n      tag_78\n        /* \"contracts/USDTFlash.sol\":6955:6980  allowance(owner, spender) */\n      jump\t// in\n    tag_137:\n        /* \"contracts/USDTFlash.sol\":6928:6980  uint256 currentAllowance = allowance(owner, spender) */\n      swap1\n      pop\n        /* \"contracts/USDTFlash.sol\":7015:7032  type(uint256).max */\n      0xffffffffffffffffffffffffffffffffffffffffffffffffffffffffffffffff\n        /* \"contracts/USDTFlash.sol\":6995:7011  currentAllowance */\n      dup2\n        /* \"contracts/USDTFlash.sol\":6995:7032  currentAllowance != type(uint256).max */\n      eq\n        /* \"contracts/USDTFlash.sol\":6991:7308  if (currentAllowance != type(uint256).max) {... */\n      tag_138\n      jumpi\n        /* \"contracts/USDTFlash.sol\":7072:7077  value */\n      dup2\n        /* \"contracts/USDTFlash.sol\":7053:7069  currentAllowance */\n      dup2\n        /* \"contracts/USDTFlash.sol\":7053:7077  currentAllowance < value */\n      lt\n        /* \"contracts/USDTFlash.sol\":7049:7181  if (currentAllowance < value) {... */\n      iszero\n      tag_139\n      jumpi\n        /* \"contracts/USDTFlash.sol\":7132:7139  spender */\n      dup3\n        /* \"contracts/USDTFlash.sol\":7141:7157  currentAllowance */\n      dup2\n        /* \"contracts/USDTFlash.sol\":7159:7164  value */\n      dup4\n        /* \"contracts/USDTFlash.sol\":7105:7165  ERC20InsufficientAllowance(spender, currentAllowance, value) */\n      mload(0x40)\n      0xfb8f41b200000000000000000000000000000000000000000000000000000000\n      dup2\n      mstore\n      0x04\n      add\n      tag_140\n      swap4\n      swap3\n      swap2\n      swap1\n      tag_141\n      jump\t// in\n    tag_140:\n      mload(0x40)\n      dup1\n      swap2\n      sub\n      swap1\n      revert\n        /* \"contracts/USDTFlash.sol\":7049:7181  if (currentAllowance < value) {... */\n    tag_139:\n        /* \"contracts/USDTFlash.sol\":7224:7281  _approve(owner, spender, currentAllowance - value, false) */\n      tag_142\n        /* \"contracts/USDTFlash.sol\":7233:7238  owner */\n      dup5\n        /* \"contracts/USDTFlash.sol\":7240:7247  spender */\n      dup5\n        /* \"contracts/USDTFlash.sol\":7268:7273  value */\n      dup5\n        /* \"contracts/USDTFlash.sol\":7249:7265  currentAllowance */\n      dup5\n        /* \"contracts/USDTFlash.sol\":7249:7273  currentAllowance - value */\n      sub\n        /* \"contracts/USDTFlash.sol\":7275:7280  false */\n      0x00\n        /* \"contracts/USDTFlash.sol\":7224:7232  _approve */\n      tag_135\n        /* \"contracts/USDTFlash.sol\":7224:7281  _approve(owner, spender, currentAllowance - value, false) */\n      jump\t// in\n    tag_142:\n        /* \"contracts/USDTFlash.sol\":6991:7308  if (currentAllowance != type(uint256).max) {... */\n    tag_138:\n        /* \"contracts/USDTFlash.sol\":6917:7315  {... */\n      pop\n        /* \"contracts/USDTFlash.sol\":6828:7315  function _spendAllowance(address owner, address spender, uint256 value) internal virtual {... */\n      pop\n      pop\n      pop\n      jump\t// out\n        /* \"contracts/USDTFlash.sol\":4243:4551  function _transfer(address from, address to, uint256 value) internal {... */\n    tag_98:\n        /* \"contracts/USDTFlash.sol\":4343:4344  0 */\n      0x00\n        /* \"contracts/USDTFlash.sol\":4327:4345  from == address(0) */\n      0xffffffffffffffffffffffffffffffffffffffff\n      and\n        /* \"contracts/USDTFlash.sol\":4327:4331  from */\n      dup4\n        /* \"contracts/USDTFlash.sol\":4327:4345  from == address(0) */\n      0xffffffffffffffffffffffffffffffffffffffff\n      and\n      sub\n        /* \"contracts/USDTFlash.sol\":4323:4411  if (from == address(0)) {... */\n      tag_144\n      jumpi\n        /* \"contracts/USDTFlash.sol\":4396:4397  0 */\n      0x00\n        /* \"contracts/USDTFlash.sol\":4369:4399  ERC20InvalidSender(address(0)) */\n      mload(0x40)\n      0x96c6fd1e00000000000000000000000000000000000000000000000000000000\n      dup2\n      mstore\n      0x04\n      add\n      tag_145\n      swap2\n      swap1\n      tag_55\n      jump\t// in\n    tag_145:\n      mload(0x40)\n      dup1\n      swap2\n      sub\n      swap1\n      revert\n        /* \"contracts/USDTFlash.sol\":4323:4411  if (from == address(0)) {... */\n    tag_144:\n        /* \"contracts/USDTFlash.sol\":4439:4440  0 */\n      0x00\n        /* \"contracts/USDTFlash.sol\":4425:4441  to == address(0) */\n      0xffffffffffffffffffffffffffffffffffffffff\n      and\n        /* \"contracts/USDTFlash.sol\":4425:4427  to */\n      dup3\n        /* \"contracts/USDTFlash.sol\":4425:4441  to == address(0) */\n      0xffffffffffffffffffffffffffffffffffffffff\n      and\n      sub\n        /* \"contracts/USDTFlash.sol\":4421:4509  if (to == address(0)) {... */\n      tag_146\n      jumpi\n        /* \"contracts/USDTFlash.sol\":4494:4495  0 */\n      0x00\n        /* \"contracts/USDTFlash.sol\":4465:4497  ERC20InvalidReceiver(address(0)) */\n      mload(0x40)\n      0xec442f0500000000000000000000000000000000000000000000000000000000\n      dup2\n      mstore\n      0x04\n      add\n      tag_147\n      swap2\n      swap1\n      tag_55\n      jump\t// in\n    tag_147:\n      mload(0x40)\n      dup1\n      swap2\n      sub\n      swap1\n      revert\n        /* \"contracts/USDTFlash.sol\":4421:4509  if (to == address(0)) {... */\n    tag_146:\n        /* \"contracts/USDTFlash.sol\":4519:4543  _update(from, to, value) */\n      tag_148\n        /* \"contracts/USDTFlash.sol\":4527:4531  from */\n      dup4\n        /* \"contracts/USDTFlash.sol\":4533:4535  to */\n      dup4\n        /* \"contracts/USDTFlash.sol\":4537:4542  value */\n      dup4\n        /* \"contracts/USDTFlash.sol\":4519:4526  _update */\n      tag_149\n        /* \"contracts/USDTFlash.sol\":4519:4543  _update(from, to, value) */\n      jump\t// in\n    tag_148:\n        /* \"contracts/USDTFlash.sol\":4243:4551  function _transfer(address from, address to, uint256 value) internal {... */\n      pop\n      pop\n      pop\n      jump\t// out\n        /* \"contracts/USDTFlash.sol\":5706:6006  function _mint(address account, uint256 value) internal {... */\n    tag_119:\n        /* \"contracts/USDTFlash.sol\":5796:5797  0 */\n      0x00\n        /* \"contracts/USDTFlash.sol\":5777:5798  account == address(0) */\n      0xffffffffffffffffffffffffffffffffffffffff\n      and\n        /* \"contracts/USDTFlash.sol\":5777:5784  account */\n      dup3\n        /* \"contracts/USDTFlash.sol\":5777:5798  account == address(0) */\n      0xffffffffffffffffffffffffffffffffffffffff\n      and\n      sub\n        /* \"contracts/USDTFlash.sol\":5773:5866  if (account == address(0)) {... */\n      tag_151\n      jumpi\n        /* \"contracts/USDTFlash.sol\":5851:5852  0 */\n      0x00\n        /* \"contracts/USDTFlash.sol\":5822:5854  ERC20InvalidReceiver(address(0)) */\n      mload(0x40)\n      0xec442f0500000000000000000000000000000000000000000000000000000000\n      dup2\n      mstore\n      0x04\n      add\n      tag_152\n      swap2\n      swap1\n      tag_55\n      jump\t// in\n    tag_152:\n      mload(0x40)\n      dup1\n      swap2\n      sub\n      swap1\n      revert\n        /* \"contracts/USDTFlash.sol\":5773:5866  if (account == address(0)) {... */\n    tag_151:\n        /* \"contracts/USDTFlash.sol\":5908:5918  _maxSupply */\n      sload(0x03)\n        /* \"contracts/USDTFlash.sol\":5899:5904  value */\n      dup2\n        /* \"contracts/USDTFlash.sol\":5884:5896  _totalSupply */\n      sload(0x02)\n        /* \"contracts/USDTFlash.sol\":5884:5904  _totalSupply + value */\n      tag_153\n      swap2\n      swap1\n      tag_105\n      jump\t// in\n    tag_153:\n        /* \"contracts/USDTFlash.sol\":5884:5918  _totalSupply + value <= _maxSupply */\n      gt\n      iszero\n        /* \"contracts/USDTFlash.sol\":5876:5952  require(_totalSupply + value <= _maxSupply, \"ERC20: Maximum supply reached\") */\n      tag_154\n      jumpi\n      mload(0x40)\n      0x08c379a000000000000000000000000000000000000000000000000000000000\n      dup2\n      mstore\n      0x04\n      add\n      tag_155\n      swap1\n      tag_156\n      jump\t// in\n    tag_155:\n      mload(0x40)\n      dup1\n      swap2\n      sub\n      swap1\n      revert\n    tag_154:\n        /* \"contracts/USDTFlash.sol\":5963:5998  _update(address(0), account, value) */\n      tag_157\n        /* \"contracts/USDTFlash.sol\":5979:5980  0 */\n      0x00\n        /* \"contracts/USDTFlash.sol\":5983:5990  account */\n      dup4\n        /* \"contracts/USDTFlash.sol\":5992:5997  value */\n      dup4\n        /* \"contracts/USDTFlash.sol\":5963:5970  _update */\n      tag_149\n        /* \"contracts/USDTFlash.sol\":5963:5998  _update(address(0), account, value) */\n      jump\t// in\n    tag_157:\n        /* \"contracts/USDTFlash.sol\":5706:6006  function _mint(address account, uint256 value) internal {... */\n      pop\n      pop\n      jump\t// out\n        /* \"contracts/USDTFlash.sol\":6377:6820  function _approve(address owner, address spender, uint256 value, bool emitEvent) internal virtual {... */\n    tag_135:\n        /* \"contracts/USDTFlash.sol\":6507:6508  0 */\n      0x00\n        /* \"contracts/USDTFlash.sol\":6490:6509  owner == address(0) */\n      0xffffffffffffffffffffffffffffffffffffffff\n      and\n        /* \"contracts/USDTFlash.sol\":6490:6495  owner */\n      dup5\n        /* \"contracts/USDTFlash.sol\":6490:6509  owner == address(0) */\n      0xffffffffffffffffffffffffffffffffffffffff\n      and\n      sub\n        /* \"contracts/USDTFlash.sol\":6486:6577  if (owner == address(0)) {... */\n      tag_159\n      jumpi\n        /* \"contracts/USDTFlash.sol\":6562:6563  0 */\n      0x00\n        /* \"contracts/USDTFlash.sol\":6533:6565  ERC20InvalidApprover(address(0)) */\n      mload(0x40)\n      0xe602df0500000000000000000000000000000000000000000000000000000000\n      dup2\n      mstore\n      0x04\n      add\n      tag_160\n      swap2\n      swap1\n      tag_55\n      jump\t// in\n    tag_160:\n      mload(0x40)\n      dup1\n      swap2\n      sub\n      swap1\n      revert\n        /* \"contracts/USDTFlash.sol\":6486:6577  if (owner == address(0)) {... */\n    tag_159:\n        /* \"contracts/USDTFlash.sol\":6610:6611  0 */\n      0x00\n        /* \"contracts/USDTFlash.sol\":6591:6612  spender == address(0) */\n      0xffffffffffffffffffffffffffffffffffffffff\n      and\n        /* \"contracts/USDTFlash.sol\":6591:6598  spender */\n      dup4\n        /* \"contracts/USDTFlash.sol\":6591:6612  spender == address(0) */\n      0xffffffffffffffffffffffffffffffffffffffff\n      and\n      sub\n        /* \"contracts/USDTFlash.sol\":6587:6679  if (spender == address(0)) {... */\n      tag_161\n      jumpi\n        /* \"contracts/USDTFlash.sol\":6664:6665  0 */\n      0x00\n        /* \"contracts/USDTFlash.sol\":6636:6667  ERC20InvalidSpender(address(0)) */\n      mload(0x40)\n      0x94280d6200000000000000000000000000000000000000000000000000000000\n      dup2\n      mstore\n      0x04\n      add\n      tag_162\n      swap2\n      swap1\n      tag_55\n      jump\t// in\n    tag_162:\n      mload(0x40)\n      dup1\n      swap2\n      sub\n      swap1\n      revert\n        /* \"contracts/USDTFlash.sol\":6587:6679  if (spender == address(0)) {... */\n    tag_161:\n        /* \"contracts/USDTFlash.sol\":6719:6724  value */\n      dup2\n        /* \"contracts/USDTFlash.sol\":6689:6700  _allowances */\n      0x01\n        /* \"contracts/USDTFlash.sol\":6689:6707  _allowances[owner] */\n      0x00\n        /* \"contracts/USDTFlash.sol\":6701:6706  owner */\n      dup7\n        /* \"contracts/USDTFlash.sol\":6689:6707  _allowances[owner] */\n      0xffffffffffffffffffffffffffffffffffffffff\n      and\n      0xffffffffffffffffffffffffffffffffffffffff\n      and\n      dup2\n      mstore\n      0x20\n      add\n      swap1\n      dup2\n      mstore\n      0x20\n      add\n      0x00\n      keccak256\n        /* \"contracts/USDTFlash.sol\":6689:6716  _allowances[owner][spender] */\n      0x00\n        /* \"contracts/USDTFlash.sol\":6708:6715  spender */\n      dup6\n        /* \"contracts/USDTFlash.sol\":6689:6716  _allowances[owner][spender] */\n      0xffffffffffffffffffffffffffffffffffffffff\n      and\n      0xffffffffffffffffffffffffffffffffffffffff\n      and\n      dup2\n      mstore\n      0x20\n      add\n      swap1\n      dup2\n      mstore\n      0x20\n      add\n      0x00\n      keccak256\n        /* \"contracts/USDTFlash.sol\":6689:6724  _allowances[owner][spender] = value */\n      dup2\n      swap1\n      sstore\n      pop\n        /* \"contracts/USDTFlash.sol\":6739:6748  emitEvent */\n      dup1\n        /* \"contracts/USDTFlash.sol\":6735:6813  if (emitEvent) {... */\n      iszero\n      tag_163\n      jumpi\n        /* \"contracts/USDTFlash.sol\":6786:6793  spender */\n      dup3\n        /* \"contracts/USDTFlash.sol\":6770:6801  Approval(owner, spender, value) */\n      0xffffffffffffffffffffffffffffffffffffffff\n      and\n        /* \"contracts/USDTFlash.sol\":6779:6784  owner */\n      dup5\n        /* \"contracts/USDTFlash.sol\":6770:6801  Approval(owner, spender, value) */\n      0xffffffffffffffffffffffffffffffffffffffff\n      and\n      0x8c5be1e5ebec7d5bd14f71427d1e84f3dd0314c0f7b2291e5b200ac8c7c3b925\n        /* \"contracts/USDTFlash.sol\":6795:6800  value */\n      dup5\n        /* \"contracts/USDTFlash.sol\":6770:6801  Approval(owner, spender, value) */\n      mload(0x40)\n      tag_164\n      swap2\n      swap1\n      tag_33\n      jump\t// in\n    tag_164:\n      mload(0x40)\n      dup1\n      swap2\n      sub\n      swap1\n      log3\n        /* \"contracts/USDTFlash.sol\":6735:6813  if (emitEvent) {... */\n    tag_163:\n        /* \"contracts/USDTFlash.sol\":6377:6820  function _approve(address owner, address spender, uint256 value, bool emitEvent) internal virtual {... */\n      pop\n      pop\n      pop\n      pop\n      jump\t// out\n        /* \"contracts/USDTFlash.sol\":4561:5696  function _update(address from, address to, uint256 value) internal virtual {... */\n    tag_149:\n        /* \"contracts/USDTFlash.sol\":4667:4668  0 */\n      0x00\n        /* \"contracts/USDTFlash.sol\":4651:4669  from == address(0) */\n      0xffffffffffffffffffffffffffffffffffffffff\n      and\n        /* \"contracts/USDTFlash.sol\":4651:4655  from */\n      dup4\n        /* \"contracts/USDTFlash.sol\":4651:4669  from == address(0) */\n      0xffffffffffffffffffffffffffffffffffffffff\n      and\n      sub\n        /* \"contracts/USDTFlash.sol\":4647:5199  if (from == address(0)) {... */\n      tag_166\n      jumpi\n        /* \"contracts/USDTFlash.sol\":4805:4810  value */\n      dup1\n        /* \"contracts/USDTFlash.sol\":4789:4801  _totalSupply */\n      0x02\n      0x00\n        /* \"contracts/USDTFlash.sol\":4789:4810  _totalSupply += value */\n      dup3\n      dup3\n      sload\n      tag_167\n      swap2\n      swap1\n      tag_105\n      jump\t// in\n    tag_167:\n      swap3\n      pop\n      pop\n      dup2\n      swap1\n      sstore\n      pop\n        /* \"contracts/USDTFlash.sol\":4647:5199  if (from == address(0)) {... */\n      jump(tag_168)\n    tag_166:\n        /* \"contracts/USDTFlash.sol\":4843:4862  uint256 fromBalance */\n      0x00\n        /* \"contracts/USDTFlash.sol\":4865:4874  _balances */\n      0x00\n        /* \"contracts/USDTFlash.sol\":4865:4880  _balances[from] */\n      0x00\n        /* \"contracts/USDTFlash.sol\":4875:4879  from */\n      dup6\n        /* \"contracts/USDTFlash.sol\":4865:4880  _balances[from] */\n      0xffffffffffffffffffffffffffffffffffffffff\n      and\n      0xffffffffffffffffffffffffffffffffffffffff\n      and\n      dup2\n      mstore\n      0x20\n      add\n      swap1\n      dup2\n      mstore\n      0x20\n      add\n      0x00\n      keccak256\n      sload\n        /* \"contracts/USDTFlash.sol\":4843:4880  uint256 fromBalance = _balances[from] */\n      swap1\n      pop\n        /* \"contracts/USDTFlash.sol\":4913:4918  value */\n      dup2\n        /* \"contracts/USDTFlash.sol\":4899:4910  fromBalance */\n      dup2\n        /* \"contracts/USDTFlash.sol\":4899:4918  fromBalance < value */\n      lt\n        /* \"contracts/USDTFlash.sol\":4895:5012  if (fromBalance < value) {... */\n      iszero\n      tag_169\n      jumpi\n        /* \"contracts/USDTFlash.sol\":4971:4975  from */\n      dup4\n        /* \"contracts/USDTFlash.sol\":4977:4988  fromBalance */\n      dup2\n        /* \"contracts/USDTFlash.sol\":4990:4995  value */\n      dup4\n        /* \"contracts/USDTFlash.sol\":4946:4996  ERC20InsufficientBalance(from, fromBalance, value) */\n      mload(0x40)\n      0xe450d38c00000000000000000000000000000000000000000000000000000000\n      dup2\n      mstore\n      0x04\n      add\n      tag_170\n      swap4\n      swap3\n      swap2\n      swap1\n      tag_141\n      jump\t// in\n    tag_170:\n      mload(0x40)\n      dup1\n      swap2\n      sub\n      swap1\n      revert\n        /* \"contracts/USDTFlash.sol\":4895:5012  if (fromBalance < value) {... */\n    tag_169:\n        /* \"contracts/USDTFlash.sol\":5167:5172  value */\n      dup2\n        /* \"contracts/USDTFlash.sol\":5153:5164  fromBalance */\n      dup2\n        /* \"contracts/USDTFlash.sol\":5153:5172  fromBalance - value */\n      sub\n        /* \"contracts/USDTFlash.sol\":5135:5144  _balances */\n      0x00\n        /* \"contracts/USDTFlash.sol\":5135:5150  _balances[from] */\n      0x00\n        /* \"contracts/USDTFlash.sol\":5145:5149  from */\n      dup7\n        /* \"contracts/USDTFlash.sol\":5135:5150  _balances[from] */\n      0xffffffffffffffffffffffffffffffffffffffff\n      and\n      0xffffffffffffffffffffffffffffffffffffffff\n      and\n      dup2\n      mstore\n      0x20\n      add\n      swap1\n      dup2\n      mstore\n      0x20\n      add\n      0x00\n      keccak256\n        /* \"contracts/USDTFlash.sol\":5135:5172  _balances[from] = fromBalance - value */\n      dup2\n      swap1\n      sstore\n      pop\n        /* \"contracts/USDTFlash.sol\":4828:5199  {... */\n      pop\n        /* \"contracts/USDTFlash.sol\":4647:5199  if (from == address(0)) {... */\n    tag_168:\n        /* \"contracts/USDTFlash.sol\":5229:5230  0 */\n      0x00\n        /* \"contracts/USDTFlash.sol\":5215:5231  to == address(0) */\n      0xffffffffffffffffffffffffffffffffffffffff\n      and\n        /* \"contracts/USDTFlash.sol\":5215:5217  to */\n      dup3\n        /* \"contracts/USDTFlash.sol\":5215:5231  to == address(0) */\n      0xffffffffffffffffffffffffffffffffffffffff\n      and\n      sub\n        /* \"contracts/USDTFlash.sol\":5211:5646  if (to == address(0)) {... */\n      tag_171\n      jumpi\n        /* \"contracts/USDTFlash.sol\":5397:5402  value */\n      dup1\n        /* \"contracts/USDTFlash.sol\":5381:5393  _totalSupply */\n      0x02\n      0x00\n        /* \"contracts/USDTFlash.sol\":5381:5402  _totalSupply -= value */\n      dup3\n      dup3\n      sload\n      sub\n      swap3\n      pop\n      pop\n      dup2\n      swap1\n      sstore\n      pop\n        /* \"contracts/USDTFlash.sol\":5211:5646  if (to == address(0)) {... */\n      jump(tag_172)\n    tag_171:\n        /* \"contracts/USDTFlash.sol\":5614:5619  value */\n      dup1\n        /* \"contracts/USDTFlash.sol\":5597:5606  _balances */\n      0x00\n        /* \"contracts/USDTFlash.sol\":5597:5610  _balances[to] */\n      0x00\n        /* \"contracts/USDTFlash.sol\":5607:5609  to */\n      dup5\n        /* \"contracts/USDTFlash.sol\":5597:5610  _balances[to] */\n      0xffffffffffffffffffffffffffffffffffffffff\n      and\n      0xffffffffffffffffffffffffffffffffffffffff\n      and\n      dup2\n      mstore\n      0x20\n      add\n      swap1\n      dup2\n      mstore\n      0x20\n      add\n      0x00\n      keccak256\n      0x00\n        /* \"contracts/USDTFlash.sol\":5597:5619  _balances[to] += value */\n      dup3\n      dup3\n      sload\n      add\n      swap3\n      pop\n      pop\n      dup2\n      swap1\n      sstore\n      pop\n        /* \"contracts/USDTFlash.sol\":5211:5646  if (to == address(0)) {... */\n    tag_172:\n        /* \"contracts/USDTFlash.sol\":5678:5680  to */\n      dup2\n        /* \"contracts/USDTFlash.sol\":5663:5688  Transfer(from, to, value) */\n      0xffffffffffffffffffffffffffffffffffffffff\n      and\n        /* \"contracts/USDTFlash.sol\":5672:5676  from */\n      dup4\n        /* \"contracts/USDTFlash.sol\":5663:5688  Transfer(from, to, value) */\n      0xffffffffffffffffffffffffffffffffffffffff\n      and\n      0xddf252ad1be2c89b69c2b068fc378daa952ba7f163c4a11628f55a4df523b3ef\n        /* \"contracts/USDTFlash.sol\":5682:5687  value */\n      dup4\n        /* \"contracts/USDTFlash.sol\":5663:5688  Transfer(from, to, value) */\n      mload(0x40)\n      tag_173\n      swap2\n      swap1\n      tag_33\n      jump\t// in\n    tag_173:\n      mload(0x40)\n      dup1\n      swap2\n      sub\n      swap1\n      log3\n        /* \"contracts/USDTFlash.sol\":4561:5696  function _update(address from, address to, uint256 value) internal virtual {... */\n      pop\n      pop\n      pop\n      jump\t// out\n        /* \"#utility.yul\":7:106   */\n    tag_174:\n        /* \"#utility.yul\":59:65   */\n      0x00\n        /* \"#utility.yul\":93:98   */\n      dup2\n        /* \"#utility.yul\":87:99   */\n      mload\n        /* \"#utility.yul\":77:99   */\n      swap1\n      pop\n        /* \"#utility.yul\":7:106   */\n      swap2\n      swap1\n      pop\n      jump\t// out\n        /* \"#utility.yul\":112:281   */\n    tag_175:\n        /* \"#utility.yul\":196:207   */\n      0x00\n        /* \"#utility.yul\":230:236   */\n      dup3\n        /* \"#utility.yul\":225:228   */\n      dup3\n        /* \"#utility.yul\":218:237   */\n      mstore\n        /* \"#utility.yul\":270:274   */\n      0x20\n        /* \"#utility.yul\":265:268   */\n      dup3\n        /* \"#utility.yul\":261:275   */\n      add\n        /* \"#utility.yul\":246:275   */\n      swap1\n      pop\n        /* \"#utility.yul\":112:281   */\n      swap3\n      swap2\n      pop\n      pop\n      jump\t// out\n        /* \"#utility.yul\":287:426   */\n    tag_176:\n        /* \"#utility.yul\":376:382   */\n      dup3\n        /* \"#utility.yul\":371:374   */\n      dup2\n        /* \"#utility.yul\":366:369   */\n      dup4\n        /* \"#utility.yul\":360:383   */\n      mcopy\n        /* \"#utility.yul\":417:418   */\n      0x00\n        /* \"#utility.yul\":408:414   */\n      dup4\n        /* \"#utility.yul\":403:406   */\n      dup4\n        /* \"#utility.yul\":399:415   */\n      add\n        /* \"#utility.yul\":392:419   */\n      mstore\n        /* \"#utility.yul\":287:426   */\n      pop\n      pop\n      pop\n      jump\t// out\n        /* \"#utility.yul\":432:534   */\n    tag_177:\n        /* \"#utility.yul\":473:479   */\n      0x00\n        /* \"#utility.yul\":524:526   */\n      0x1f\n        /* \"#utility.yul\":520:527   */\n      not\n        /* \"#utility.yul\":515:517   */\n      0x1f\n        /* \"#utility.yul\":508:513   */\n      dup4\n        /* \"#utility.yul\":504:518   */\n      add\n        /* \"#utility.yul\":500:528   */\n      and\n        /* \"#utility.yul\":490:528   */\n      swap1\n      pop\n        /* \"#utility.yul\":432:534   */\n      swap2\n      swap1\n      pop\n      jump\t// out\n        /* \"#utility.yul\":540:917   */\n    tag_178:\n        /* \"#utility.yul\":628:631   */\n      0x00\n        /* \"#utility.yul\":656:695   */\n      tag_209\n        /* \"#utility.yul\":689:694   */\n      dup3\n        /* \"#utility.yul\":656:695   */\n      tag_174\n      jump\t// in\n    tag_209:\n        /* \"#utility.yul\":711:782   */\n      tag_210\n        /* \"#utility.yul\":775:781   */\n      dup2\n        /* \"#utility.yul\":770:773   */\n      dup6\n        /* \"#utility.yul\":711:782   */\n      tag_175\n      jump\t// in\n    tag_210:\n        /* \"#utility.yul\":704:782   */\n      swap4\n      pop\n        /* \"#utility.yul\":791:856   */\n      tag_211\n        /* \"#utility.yul\":849:855   */\n      dup2\n        /* \"#utility.yul\":844:847   */\n      dup6\n        /* \"#utility.yul\":837:841   */\n      0x20\n        /* \"#utility.yul\":830:835   */\n      dup7\n        /* \"#utility.yul\":826:842   */\n      add\n        /* \"#utility.yul\":791:856   */\n      tag_176\n      jump\t// in\n    tag_211:\n        /* \"#utility.yul\":881:910   */\n      tag_212\n        /* \"#utility.yul\":903:909   */\n      dup2\n        /* \"#utility.yul\":881:910   */\n      tag_177\n      jump\t// in\n    tag_212:\n        /* \"#utility.yul\":876:879   */\n      dup5\n        /* \"#utility.yul\":872:911   */\n      add\n        /* \"#utility.yul\":865:911   */\n      swap2\n      pop\n        /* \"#utility.yul\":632:917   */\n      pop\n        /* \"#utility.yul\":540:917   */\n      swap3\n      swap2\n      pop\n      pop\n      jump\t// out\n        /* \"#utility.yul\":923:1236   */\n    tag_23:\n        /* \"#utility.yul\":1036:1040   */\n      0x00\n        /* \"#utility.yul\":1074:1076   */\n      0x20\n        /* \"#utility.yul\":1063:1072   */\n      dup3\n        /* \"#utility.yul\":1059:1077   */\n      add\n        /* \"#utility.yul\":1051:1077   */\n      swap1\n      pop\n        /* \"#utility.yul\":1123:1132   */\n      dup2\n        /* \"#utility.yul\":1117:1121   */\n      dup2\n        /* \"#utility.yul\":1113:1133   */\n      sub\n        /* \"#utility.yul\":1109:1110   */\n      0x00\n        /* \"#utility.yul\":1098:1107   */\n      dup4\n        /* \"#utility.yul\":1094:1111   */\n      add\n        /* \"#utility.yul\":1087:1134   */\n      mstore\n        /* \"#utility.yul\":1151:1229   */\n      tag_214\n        /* \"#utility.yul\":1224:1228   */\n      dup2\n        /* \"#utility.yul\":1215:1221   */\n      dup5\n        /* \"#utility.yul\":1151:1229   */\n      tag_178\n      jump\t// in\n    tag_214:\n        /* \"#utility.yul\":1143:1229   */\n      swap1\n      pop\n        /* \"#utility.yul\":923:1236   */\n      swap3\n      swap2\n      pop\n      pop\n      jump\t// out\n        /* \"#utility.yul\":1323:1440   */\n    tag_180:\n        /* \"#utility.yul\":1432:1433   */\n      0x00\n        /* \"#utility.yul\":1429:1430   */\n      0x00\n        /* \"#utility.yul\":1422:1434   */\n      revert\n        /* \"#utility.yul\":1569:1695   */\n    tag_182:\n        /* \"#utility.yul\":1606:1613   */\n      0x00\n        /* \"#utility.yul\":1646:1688   */\n      0xffffffffffffffffffffffffffffffffffffffff\n        /* \"#utility.yul\":1639:1644   */\n      dup3\n        /* \"#utility.yul\":1635:1689   */\n      and\n        /* \"#utility.yul\":1624:1689   */\n      swap1\n      pop\n        /* \"#utility.yul\":1569:1695   */\n      swap2\n      swap1\n      pop\n      jump\t// out\n        /* \"#utility.yul\":1701:1797   */\n    tag_183:\n        /* \"#utility.yul\":1738:1745   */\n      0x00\n        /* \"#utility.yul\":1767:1791   */\n      tag_220\n        /* \"#utility.yul\":1785:1790   */\n      dup3\n        /* \"#utility.yul\":1767:1791   */\n      tag_182\n      jump\t// in\n    tag_220:\n        /* \"#utility.yul\":1756:1791   */\n      swap1\n      pop\n        /* \"#utility.yul\":1701:1797   */\n      swap2\n      swap1\n      pop\n      jump\t// out\n        /* \"#utility.yul\":1803:1925   */\n    tag_184:\n        /* \"#utility.yul\":1876:1900   */\n      tag_222\n        /* \"#utility.yul\":1894:1899   */\n      dup2\n        /* \"#utility.yul\":1876:1900   */\n      tag_183\n      jump\t// in\n    tag_222:\n        /* \"#utility.yul\":1869:1874   */\n      dup2\n        /* \"#utility.yul\":1866:1901   */\n      eq\n        /* \"#utility.yul\":1856:1919   */\n      tag_223\n      jumpi\n        /* \"#utility.yul\":1915:1916   */\n      0x00\n        /* \"#utility.yul\":1912:1913   */\n      0x00\n        /* \"#utility.yul\":1905:1917   */\n      revert\n        /* \"#utility.yul\":1856:1919   */\n    tag_223:\n        /* \"#utility.yul\":1803:1925   */\n      pop\n      jump\t// out\n        /* \"#utility.yul\":1931:2070   */\n    tag_185:\n        /* \"#utility.yul\":1977:1982   */\n      0x00\n        /* \"#utility.yul\":2015:2021   */\n      dup2\n        /* \"#utility.yul\":2002:2022   */\n      calldataload\n        /* \"#utility.yul\":1993:2022   */\n      swap1\n      pop\n        /* \"#utility.yul\":2031:2064   */\n      tag_225\n        /* \"#utility.yul\":2058:2063   */\n      dup2\n        /* \"#utility.yul\":2031:2064   */\n      tag_184\n      jump\t// in\n    tag_225:\n        /* \"#utility.yul\":1931:2070   */\n      swap3\n      swap2\n      pop\n      pop\n      jump\t// out\n        /* \"#utility.yul\":2076:2153   */\n    tag_186:\n        /* \"#utility.yul\":2113:2120   */\n      0x00\n        /* \"#utility.yul\":2142:2147   */\n      dup2\n        /* \"#utility.yul\":2131:2147   */\n      swap1\n      pop\n        /* \"#utility.yul\":2076:2153   */\n      swap2\n      swap1\n      pop\n      jump\t// out\n        /* \"#utility.yul\":2159:2281   */\n    tag_187:\n        /* \"#utility.yul\":2232:2256   */\n      tag_228\n        /* \"#utility.yul\":2250:2255   */\n      dup2\n        /* \"#utility.yul\":2232:2256   */\n      tag_186\n      jump\t// in\n    tag_228:\n        /* \"#utility.yul\":2225:2230   */\n      dup2\n        /* \"#utility.yul\":2222:2257   */\n      eq\n        /* \"#utility.yul\":2212:2275   */\n      tag_229\n      jumpi\n        /* \"#utility.yul\":2271:2272   */\n      0x00\n        /* \"#utility.yul\":2268:2269   */\n      0x00\n        /* \"#utility.yul\":2261:2273   */\n      revert\n        /* \"#utility.yul\":2212:2275   */\n    tag_229:\n        /* \"#utility.yul\":2159:2281   */\n      pop\n      jump\t// out\n        /* \"#utility.yul\":2287:2426   */\n    tag_188:\n        /* \"#utility.yul\":2333:2338   */\n      0x00\n        /* \"#utility.yul\":2371:2377   */\n      dup2\n        /* \"#utility.yul\":2358:2378   */\n      calldataload\n        /* \"#utility.yul\":2349:2378   */\n      swap1\n      pop\n        /* \"#utility.yul\":2387:2420   */\n      tag_231\n        /* \"#utility.yul\":2414:2419   */\n      dup2\n        /* \"#utility.yul\":2387:2420   */\n      tag_187\n      jump\t// in\n    tag_231:\n        /* \"#utility.yul\":2287:2426   */\n      swap3\n      swap2\n      pop\n      pop\n      jump\t// out\n        /* \"#utility.yul\":2432:2906   */\n    tag_26:\n        /* \"#utility.yul\":2500:2506   */\n      0x00\n        /* \"#utility.yul\":2508:2514   */\n      0x00\n        /* \"#utility.yul\":2557:2559   */\n      0x40\n        /* \"#utility.yul\":2545:2554   */\n      dup4\n        /* \"#utility.yul\":2536:2543   */\n      dup6\n        /* \"#utility.yul\":2532:2555   */\n      sub\n        /* \"#utility.yul\":2528:2560   */\n      slt\n        /* \"#utility.yul\":2525:2644   */\n      iszero\n      tag_233\n      jumpi\n        /* \"#utility.yul\":2563:2642   */\n      tag_234\n      tag_180\n      jump\t// in\n    tag_234:\n        /* \"#utility.yul\":2525:2644   */\n    tag_233:\n        /* \"#utility.yul\":2683:2684   */\n      0x00\n        /* \"#utility.yul\":2708:2761   */\n      tag_235\n        /* \"#utility.yul\":2753:2760   */\n      dup6\n        /* \"#utility.yul\":2744:2750   */\n      dup3\n        /* \"#utility.yul\":2733:2742   */\n      dup7\n        /* \"#utility.yul\":2729:2751   */\n      add\n        /* \"#utility.yul\":2708:2761   */\n      tag_185\n      jump\t// in\n    tag_235:\n        /* \"#utility.yul\":2698:2761   */\n      swap3\n      pop\n        /* \"#utility.yul\":2654:2771   */\n      pop\n        /* \"#utility.yul\":2810:2812   */\n      0x20\n        /* \"#utility.yul\":2836:2889   */\n      tag_236\n        /* \"#utility.yul\":2881:2888   */\n      dup6\n        /* \"#utility.yul\":2872:2878   */\n      dup3\n        /* \"#utility.yul\":2861:2870   */\n      dup7\n        /* \"#utility.yul\":2857:2879   */\n      add\n        /* \"#utility.yul\":2836:2889   */\n      tag_188\n      jump\t// in\n    tag_236:\n        /* \"#utility.yul\":2826:2889   */\n      swap2\n      pop\n        /* \"#utility.yul\":2781:2899   */\n      pop\n        /* \"#utility.yul\":2432:2906   */\n      swap3\n      pop\n      swap3\n      swap1\n      pop\n      jump\t// out\n        /* \"#utility.yul\":2912:3002   */\n    tag_189:\n        /* \"#utility.yul\":2946:2953   */\n      0x00\n        /* \"#utility.yul\":2989:2994   */\n      dup2\n        /* \"#utility.yul\":2982:2995   */\n      iszero\n        /* \"#utility.yul\":2975:2996   */\n      iszero\n        /* \"#utility.yul\":2964:2996   */\n      swap1\n      pop\n        /* \"#utility.yul\":2912:3002   */\n      swap2\n      swap1\n      pop\n      jump\t// out\n        /* \"#utility.yul\":3008:3117   */\n    tag_190:\n        /* \"#utility.yul\":3089:3110   */\n      tag_239\n        /* \"#utility.yul\":3104:3109   */\n      dup2\n        /* \"#utility.yul\":3089:3110   */\n      tag_189\n      jump\t// in\n    tag_239:\n        /* \"#utility.yul\":3084:3087   */\n      dup3\n        /* \"#utility.yul\":3077:3111   */\n      mstore\n        /* \"#utility.yul\":3008:3117   */\n      pop\n      pop\n      jump\t// out\n        /* \"#utility.yul\":3123:3333   */\n    tag_29:\n        /* \"#utility.yul\":3210:3214   */\n      0x00\n        /* \"#utility.yul\":3248:3250   */\n      0x20\n        /* \"#utility.yul\":3237:3246   */\n      dup3\n        /* \"#utility.yul\":3233:3251   */\n      add\n        /* \"#utility.yul\":3225:3251   */\n      swap1\n      pop\n        /* \"#utility.yul\":3261:3326   */\n      tag_241\n        /* \"#utility.yul\":3323:3324   */\n      0x00\n        /* \"#utility.yul\":3312:3321   */\n      dup4\n        /* \"#utility.yul\":3308:3325   */\n      add\n        /* \"#utility.yul\":3299:3305   */\n      dup5\n        /* \"#utility.yul\":3261:3326   */\n      tag_190\n      jump\t// in\n    tag_241:\n        /* \"#utility.yul\":3123:3333   */\n      swap3\n      swap2\n      pop\n      pop\n      jump\t// out\n        /* \"#utility.yul\":3339:3457   */\n    tag_191:\n        /* \"#utility.yul\":3426:3450   */\n      tag_243\n        /* \"#utility.yul\":3444:3449   */\n      dup2\n        /* \"#utility.yul\":3426:3450   */\n      tag_186\n      jump\t// in\n    tag_243:\n        /* \"#utility.yul\":3421:3424   */\n      dup3\n        /* \"#utility.yul\":3414:3451   */\n      mstore\n        /* \"#utility.yul\":3339:3457   */\n      pop\n      pop\n      jump\t// out\n        /* \"#utility.yul\":3463:3685   */\n    tag_33:\n        /* \"#utility.yul\":3556:3560   */\n      0x00\n        /* \"#utility.yul\":3594:3596   */\n      0x20\n        /* \"#utility.yul\":3583:3592   */\n      dup3\n        /* \"#utility.yul\":3579:3597   */\n      add\n        /* \"#utility.yul\":3571:3597   */\n      swap1\n      pop\n        /* \"#utility.yul\":3607:3678   */\n      tag_245\n        /* \"#utility.yul\":3675:3676   */\n      0x00\n        /* \"#utility.yul\":3664:3673   */\n      dup4\n        /* \"#utility.yul\":3660:3677   */\n      add\n        /* \"#utility.yul\":3651:3657   */\n      dup5\n        /* \"#utility.yul\":3607:3678   */\n      tag_191\n      jump\t// in\n    tag_245:\n        /* \"#utility.yul\":3463:3685   */\n      swap3\n      swap2\n      pop\n      pop\n      jump\t// out\n        /* \"#utility.yul\":3691:4310   */\n    tag_36:\n        /* \"#utility.yul\":3768:3774   */\n      0x00\n        /* \"#utility.yul\":3776:3782   */\n      0x00\n        /* \"#utility.yul\":3784:3790   */\n      0x00\n        /* \"#utility.yul\":3833:3835   */\n      0x60\n        /* \"#utility.yul\":3821:3830   */\n      dup5\n        /* \"#utility.yul\":3812:3819   */\n      dup7\n        /* \"#utility.yul\":3808:3831   */\n      sub\n        /* \"#utility.yul\":3804:3836   */\n      slt\n        /* \"#utility.yul\":3801:3920   */\n      iszero\n      tag_247\n      jumpi\n        /* \"#utility.yul\":3839:3918   */\n      tag_248\n      tag_180\n      jump\t// in\n    tag_248:\n        /* \"#utility.yul\":3801:3920   */\n    tag_247:\n        /* \"#utility.yul\":3959:3960   */\n      0x00\n        /* \"#utility.yul\":3984:4037   */\n      tag_249\n        /* \"#utility.yul\":4029:4036   */\n      dup7\n        /* \"#utility.yul\":4020:4026   */\n      dup3\n        /* \"#utility.yul\":4009:4018   */\n      dup8\n        /* \"#utility.yul\":4005:4027   */\n      add\n        /* \"#utility.yul\":3984:4037   */\n      tag_185\n      jump\t// in\n    tag_249:\n        /* \"#utility.yul\":3974:4037   */\n      swap4\n      pop\n        /* \"#utility.yul\":3930:4047   */\n      pop\n        /* \"#utility.yul\":4086:4088   */\n      0x20\n        /* \"#utility.yul\":4112:4165   */\n      tag_250\n        /* \"#utility.yul\":4157:4164   */\n      dup7\n        /* \"#utility.yul\":4148:4154   */\n      dup3\n        /* \"#utility.yul\":4137:4146   */\n      dup8\n        /* \"#utility.yul\":4133:4155   */\n      add\n        /* \"#utility.yul\":4112:4165   */\n      tag_185\n      jump\t// in\n    tag_250:\n        /* \"#utility.yul\":4102:4165   */\n      swap3\n      pop\n        /* \"#utility.yul\":4057:4175   */\n      pop\n        /* \"#utility.yul\":4214:4216   */\n      0x40\n        /* \"#utility.yul\":4240:4293   */\n      tag_251\n        /* \"#utility.yul\":4285:4292   */\n      dup7\n        /* \"#utility.yul\":4276:4282   */\n      dup3\n        /* \"#utility.yul\":4265:4274   */\n      dup8\n        /* \"#utility.yul\":4261:4283   */\n      add\n        /* \"#utility.yul\":4240:4293   */\n      tag_188\n      jump\t// in\n    tag_251:\n        /* \"#utility.yul\":4230:4293   */\n      swap2\n      pop\n        /* \"#utility.yul\":4185:4303   */\n      pop\n        /* \"#utility.yul\":3691:4310   */\n      swap3\n      pop\n      swap3\n      pop\n      swap3\n      jump\t// out\n        /* \"#utility.yul\":4316:4402   */\n    tag_192:\n        /* \"#utility.yul\":4351:4358   */\n      0x00\n        /* \"#utility.yul\":4391:4395   */\n      0xff\n        /* \"#utility.yul\":4384:4389   */\n      dup3\n        /* \"#utility.yul\":4380:4396   */\n      and\n        /* \"#utility.yul\":4369:4396   */\n      swap1\n      pop\n        /* \"#utility.yul\":4316:4402   */\n      swap2\n      swap1\n      pop\n      jump\t// out\n        /* \"#utility.yul\":4408:4520   */\n    tag_193:\n        /* \"#utility.yul\":4491:4513   */\n      tag_254\n        /* \"#utility.yul\":4507:4512   */\n      dup2\n        /* \"#utility.yul\":4491:4513   */\n      tag_192\n      jump\t// in\n    tag_254:\n        /* \"#utility.yul\":4486:4489   */\n      dup3\n        /* \"#utility.yul\":4479:4514   */\n      mstore\n        /* \"#utility.yul\":4408:4520   */\n      pop\n      pop\n      jump\t// out\n        /* \"#utility.yul\":4526:4740   */\n    tag_42:\n        /* \"#utility.yul\":4615:4619   */\n      0x00\n        /* \"#utility.yul\":4653:4655   */\n      0x20\n        /* \"#utility.yul\":4642:4651   */\n      dup3\n        /* \"#utility.yul\":4638:4656   */\n      add\n        /* \"#utility.yul\":4630:4656   */\n      swap1\n      pop\n        /* \"#utility.yul\":4666:4733   */\n      tag_256\n        /* \"#utility.yul\":4730:4731   */\n      0x00\n        /* \"#utility.yul\":4719:4728   */\n      dup4\n        /* \"#utility.yul\":4715:4732   */\n      add\n        /* \"#utility.yul\":4706:4712   */\n      dup5\n        /* \"#utility.yul\":4666:4733   */\n      tag_193\n      jump\t// in\n    tag_256:\n        /* \"#utility.yul\":4526:4740   */\n      swap3\n      swap2\n      pop\n      pop\n      jump\t// out\n        /* \"#utility.yul\":4746:5075   */\n    tag_49:\n        /* \"#utility.yul\":4805:4811   */\n      0x00\n        /* \"#utility.yul\":4854:4856   */\n      0x20\n        /* \"#utility.yul\":4842:4851   */\n      dup3\n        /* \"#utility.yul\":4833:4840   */\n      dup5\n        /* \"#utility.yul\":4829:4852   */\n      sub\n        /* \"#utility.yul\":4825:4857   */\n      slt\n        /* \"#utility.yul\":4822:4941   */\n      iszero\n      tag_258\n      jumpi\n        /* \"#utility.yul\":4860:4939   */\n      tag_259\n      tag_180\n      jump\t// in\n    tag_259:\n        /* \"#utility.yul\":4822:4941   */\n    tag_258:\n        /* \"#utility.yul\":4980:4981   */\n      0x00\n        /* \"#utility.yul\":5005:5058   */\n      tag_260\n        /* \"#utility.yul\":5050:5057   */\n      dup5\n        /* \"#utility.yul\":5041:5047   */\n      dup3\n        /* \"#utility.yul\":5030:5039   */\n      dup6\n        /* \"#utility.yul\":5026:5048   */\n      add\n        /* \"#utility.yul\":5005:5058   */\n      tag_185\n      jump\t// in\n    tag_260:\n        /* \"#utility.yul\":4995:5058   */\n      swap2\n      pop\n        /* \"#utility.yul\":4951:5068   */\n      pop\n        /* \"#utility.yul\":4746:5075   */\n      swap3\n      swap2\n      pop\n      pop\n      jump\t// out\n        /* \"#utility.yul\":5081:5199   */\n    tag_194:\n        /* \"#utility.yul\":5168:5192   */\n      tag_262\n        /* \"#utility.yul\":5186:5191   */\n      dup2\n        /* \"#utility.yul\":5168:5192   */\n      tag_183\n      jump\t// in\n    tag_262:\n        /* \"#utility.yul\":5163:5166   */\n      dup3\n        /* \"#utility.yul\":5156:5193   */\n      mstore\n        /* \"#utility.yul\":5081:5199   */\n      pop\n      pop\n      jump\t// out\n        /* \"#utility.yul\":5205:5427   */\n    tag_55:\n        /* \"#utility.yul\":5298:5302   */\n      0x00\n        /* \"#utility.yul\":5336:5338   */\n      0x20\n        /* \"#utility.yul\":5325:5334   */\n      dup3\n        /* \"#utility.yul\":5321:5339   */\n      add\n        /* \"#utility.yul\":5313:5339   */\n      swap1\n      pop\n        /* \"#utility.yul\":5349:5420   */\n      tag_264\n        /* \"#utility.yul\":5417:5418   */\n      0x00\n        /* \"#utility.yul\":5406:5415   */\n      dup4\n        /* \"#utility.yul\":5402:5419   */\n      add\n        /* \"#utility.yul\":5393:5399   */\n      dup5\n        /* \"#utility.yul\":5349:5420   */\n      tag_194\n      jump\t// in\n    tag_264:\n        /* \"#utility.yul\":5205:5427   */\n      swap3\n      swap2\n      pop\n      pop\n      jump\t// out\n        /* \"#utility.yul\":5433:5762   */\n    tag_61:\n        /* \"#utility.yul\":5492:5498   */\n      0x00\n        /* \"#utility.yul\":5541:5543   */\n      0x20\n        /* \"#utility.yul\":5529:5538   */\n      dup3\n        /* \"#utility.yul\":5520:5527   */\n      dup5\n        /* \"#utility.yul\":5516:5539   */\n      sub\n        /* \"#utility.yul\":5512:5544   */\n      slt\n        /* \"#utility.yul\":5509:5628   */\n      iszero\n      tag_266\n      jumpi\n        /* \"#utility.yul\":5547:5626   */\n      tag_267\n      tag_180\n      jump\t// in\n    tag_267:\n        /* \"#utility.yul\":5509:5628   */\n    tag_266:\n        /* \"#utility.yul\":5667:5668   */\n      0x00\n        /* \"#utility.yul\":5692:5745   */\n      tag_268\n        /* \"#utility.yul\":5737:5744   */\n      dup5\n        /* \"#utility.yul\":5728:5734   */\n      dup3\n        /* \"#utility.yul\":5717:5726   */\n      dup6\n        /* \"#utility.yul\":5713:5735   */\n      add\n        /* \"#utility.yul\":5692:5745   */\n      tag_188\n      jump\t// in\n    tag_268:\n        /* \"#utility.yul\":5682:5745   */\n      swap2\n      pop\n        /* \"#utility.yul\":5638:5755   */\n      pop\n        /* \"#utility.yul\":5433:5762   */\n      swap3\n      swap2\n      pop\n      pop\n      jump\t// out\n        /* \"#utility.yul\":5768:6242   */\n    tag_77:\n        /* \"#utility.yul\":5836:5842   */\n      0x00\n        /* \"#utility.yul\":5844:5850   */\n      0x00\n        /* \"#utility.yul\":5893:5895   */\n      0x40\n        /* \"#utility.yul\":5881:5890   */\n      dup4\n        /* \"#utility.yul\":5872:5879   */\n      dup6\n        /* \"#utility.yul\":5868:5891   */\n      sub\n        /* \"#utility.yul\":5864:5896   */\n      slt\n        /* \"#utility.yul\":5861:5980   */\n      iszero\n      tag_270\n      jumpi\n        /* \"#utility.yul\":5899:5978   */\n      tag_271\n      tag_180\n      jump\t// in\n    tag_271:\n        /* \"#utility.yul\":5861:5980   */\n    tag_270:\n        /* \"#utility.yul\":6019:6020   */\n      0x00\n        /* \"#utility.yul\":6044:6097   */\n      tag_272\n        /* \"#utility.yul\":6089:6096   */\n      dup6\n        /* \"#utility.yul\":6080:6086   */\n      dup3\n        /* \"#utility.yul\":6069:6078   */\n      dup7\n        /* \"#utility.yul\":6065:6087   */\n      add\n        /* \"#utility.yul\":6044:6097   */\n      tag_185\n      jump\t// in\n    tag_272:\n        /* \"#utility.yul\":6034:6097   */\n      swap3\n      pop\n        /* \"#utility.yul\":5990:6107   */\n      pop\n        /* \"#utility.yul\":6146:6148   */\n      0x20\n        /* \"#utility.yul\":6172:6225   */\n      tag_273\n        /* \"#utility.yul\":6217:6224   */\n      dup6\n        /* \"#utility.yul\":6208:6214   */\n      dup3\n        /* \"#utility.yul\":6197:6206   */\n      dup7\n        /* \"#utility.yul\":6193:6215   */\n      add\n        /* \"#utility.yul\":6172:6225   */\n      tag_185\n      jump\t// in\n    tag_273:\n        /* \"#utility.yul\":6162:6225   */\n      swap2\n      pop\n        /* \"#utility.yul\":6117:6235   */\n      pop\n        /* \"#utility.yul\":5768:6242   */\n      swap3\n      pop\n      swap3\n      swap1\n      pop\n      jump\t// out\n        /* \"#utility.yul\":6248:6428   */\n    tag_195:\n        /* \"#utility.yul\":6296:6373   */\n      0x4e487b7100000000000000000000000000000000000000000000000000000000\n        /* \"#utility.yul\":6293:6294   */\n      0x00\n        /* \"#utility.yul\":6286:6374   */\n      mstore\n        /* \"#utility.yul\":6393:6397   */\n      0x22\n        /* \"#utility.yul\":6390:6391   */\n      0x04\n        /* \"#utility.yul\":6383:6398   */\n      mstore\n        /* \"#utility.yul\":6417:6421   */\n      0x24\n        /* \"#utility.yul\":6414:6415   */\n      0x00\n        /* \"#utility.yul\":6407:6422   */\n      revert\n        /* \"#utility.yul\":6434:6754   */\n    tag_82:\n        /* \"#utility.yul\":6478:6484   */\n      0x00\n        /* \"#utility.yul\":6515:6516   */\n      0x02\n        /* \"#utility.yul\":6509:6513   */\n      dup3\n        /* \"#utility.yul\":6505:6517   */\n      div\n        /* \"#utility.yul\":6495:6517   */\n      swap1\n      pop\n        /* \"#utility.yul\":6562:6563   */\n      0x01\n        /* \"#utility.yul\":6556:6560   */\n      dup3\n        /* \"#utility.yul\":6552:6564   */\n      and\n        /* \"#utility.yul\":6583:6601   */\n      dup1\n        /* \"#utility.yul\":6573:6654   */\n      tag_276\n      jumpi\n        /* \"#utility.yul\":6639:6643   */\n      0x7f\n        /* \"#utility.yul\":6631:6637   */\n      dup3\n        /* \"#utility.yul\":6627:6644   */\n      and\n        /* \"#utility.yul\":6617:6644   */\n      swap2\n      pop\n        /* \"#utility.yul\":6573:6654   */\n    tag_276:\n        /* \"#utility.yul\":6701:6703   */\n      0x20\n        /* \"#utility.yul\":6693:6699   */\n      dup3\n        /* \"#utility.yul\":6690:6704   */\n      lt\n        /* \"#utility.yul\":6670:6688   */\n      dup2\n        /* \"#utility.yul\":6667:6705   */\n      sub\n        /* \"#utility.yul\":6664:6748   */\n      tag_277\n      jumpi\n        /* \"#utility.yul\":6720:6738   */\n      tag_278\n      tag_195\n      jump\t// in\n    tag_278:\n        /* \"#utility.yul\":6664:6748   */\n    tag_277:\n        /* \"#utility.yul\":6485:6754   */\n      pop\n        /* \"#utility.yul\":6434:6754   */\n      swap2\n      swap1\n      pop\n      jump\t// out\n        /* \"#utility.yul\":6760:6940   */\n    tag_196:\n        /* \"#utility.yul\":6808:6885   */\n      0x4e487b7100000000000000000000000000000000000000000000000000000000\n        /* \"#utility.yul\":6805:6806   */\n      0x00\n        /* \"#utility.yul\":6798:6886   */\n      mstore\n        /* \"#utility.yul\":6905:6909   */\n      0x11\n        /* \"#utility.yul\":6902:6903   */\n      0x04\n        /* \"#utility.yul\":6895:6910   */\n      mstore\n        /* \"#utility.yul\":6929:6933   */\n      0x24\n        /* \"#utility.yul\":6926:6927   */\n      0x00\n        /* \"#utility.yul\":6919:6934   */\n      revert\n        /* \"#utility.yul\":6946:7137   */\n    tag_105:\n        /* \"#utility.yul\":6986:6989   */\n      0x00\n        /* \"#utility.yul\":7005:7025   */\n      tag_281\n        /* \"#utility.yul\":7023:7024   */\n      dup3\n        /* \"#utility.yul\":7005:7025   */\n      tag_186\n      jump\t// in\n    tag_281:\n        /* \"#utility.yul\":7000:7025   */\n      swap2\n      pop\n        /* \"#utility.yul\":7039:7059   */\n      tag_282\n        /* \"#utility.yul\":7057:7058   */\n      dup4\n        /* \"#utility.yul\":7039:7059   */\n      tag_186\n      jump\t// in\n    tag_282:\n        /* \"#utility.yul\":7034:7059   */\n      swap3\n      pop\n        /* \"#utility.yul\":7082:7083   */\n      dup3\n        /* \"#utility.yul\":7079:7080   */\n      dup3\n        /* \"#utility.yul\":7075:7084   */\n      add\n        /* \"#utility.yul\":7068:7084   */\n      swap1\n      pop\n        /* \"#utility.yul\":7103:7106   */\n      dup1\n        /* \"#utility.yul\":7100:7101   */\n      dup3\n        /* \"#utility.yul\":7097:7107   */\n      gt\n        /* \"#utility.yul\":7094:7130   */\n      iszero\n      tag_283\n      jumpi\n        /* \"#utility.yul\":7110:7128   */\n      tag_284\n      tag_196\n      jump\t// in\n    tag_284:\n        /* \"#utility.yul\":7094:7130   */\n    tag_283:\n        /* \"#utility.yul\":6946:7137   */\n      swap3\n      swap2\n      pop\n      pop\n      jump\t// out\n        /* \"#utility.yul\":7143:7325   */\n    tag_197:\n        /* \"#utility.yul\":7283:7317   */\n      0x45524332303a20596f7520646f6e742068617665207065726d697373696f6e73\n        /* \"#utility.yul\":7279:7280   */\n      0x00\n        /* \"#utility.yul\":7271:7277   */\n      dup3\n        /* \"#utility.yul\":7267:7281   */\n      add\n        /* \"#utility.yul\":7260:7318   */\n      mstore\n        /* \"#utility.yul\":7143:7325   */\n      pop\n      jump\t// out\n        /* \"#utility.yul\":7331:7697   */\n    tag_198:\n        /* \"#utility.yul\":7473:7476   */\n      0x00\n        /* \"#utility.yul\":7494:7561   */\n      tag_287\n        /* \"#utility.yul\":7558:7560   */\n      0x20\n        /* \"#utility.yul\":7553:7556   */\n      dup4\n        /* \"#utility.yul\":7494:7561   */\n      tag_175\n      jump\t// in\n    tag_287:\n        /* \"#utility.yul\":7487:7561   */\n      swap2\n      pop\n        /* \"#utility.yul\":7570:7663   */\n      tag_288\n        /* \"#utility.yul\":7659:7662   */\n      dup3\n        /* \"#utility.yul\":7570:7663   */\n      tag_197\n      jump\t// in\n    tag_288:\n        /* \"#utility.yul\":7688:7690   */\n      0x20\n        /* \"#utility.yul\":7683:7686   */\n      dup3\n        /* \"#utility.yul\":7679:7691   */\n      add\n        /* \"#utility.yul\":7672:7691   */\n      swap1\n      pop\n        /* \"#utility.yul\":7331:7697   */\n      swap2\n      swap1\n      pop\n      jump\t// out\n        /* \"#utility.yul\":7703:8122   */\n    tag_117:\n        /* \"#utility.yul\":7869:7873   */\n      0x00\n        /* \"#utility.yul\":7907:7909   */\n      0x20\n        /* \"#utility.yul\":7896:7905   */\n      dup3\n        /* \"#utility.yul\":7892:7910   */\n      add\n        /* \"#utility.yul\":7884:7910   */\n      swap1\n      pop\n        /* \"#utility.yul\":7956:7965   */\n      dup2\n        /* \"#utility.yul\":7950:7954   */\n      dup2\n        /* \"#utility.yul\":7946:7966   */\n      sub\n        /* \"#utility.yul\":7942:7943   */\n      0x00\n        /* \"#utility.yul\":7931:7940   */\n      dup4\n        /* \"#utility.yul\":7927:7944   */\n      add\n        /* \"#utility.yul\":7920:7967   */\n      mstore\n        /* \"#utility.yul\":7984:8115   */\n      tag_290\n        /* \"#utility.yul\":8110:8114   */\n      dup2\n        /* \"#utility.yul\":7984:8115   */\n      tag_198\n      jump\t// in\n    tag_290:\n        /* \"#utility.yul\":7976:8115   */\n      swap1\n      pop\n        /* \"#utility.yul\":7703:8122   */\n      swap2\n      swap1\n      pop\n      jump\t// out\n        /* \"#utility.yul\":8128:8305   */\n    tag_199:\n        /* \"#utility.yul\":8268:8297   */\n      0x45524332303a616c6c6f77616e63652062656c6c6f77207a65726f0000000000\n        /* \"#utility.yul\":8264:8265   */\n      0x00\n        /* \"#utility.yul\":8256:8262   */\n      dup3\n        /* \"#utility.yul\":8252:8266   */\n      add\n        /* \"#utility.yul\":8245:8298   */\n      mstore\n        /* \"#utility.yul\":8128:8305   */\n      pop\n      jump\t// out\n        /* \"#utility.yul\":8311:8677   */\n    tag_200:\n        /* \"#utility.yul\":8453:8456   */\n      0x00\n        /* \"#utility.yul\":8474:8541   */\n      tag_293\n        /* \"#utility.yul\":8538:8540   */\n      0x1b\n        /* \"#utility.yul\":8533:8536   */\n      dup4\n        /* \"#utility.yul\":8474:8541   */\n      tag_175\n      jump\t// in\n    tag_293:\n        /* \"#utility.yul\":8467:8541   */\n      swap2\n      pop\n        /* \"#utility.yul\":8550:8643   */\n      tag_294\n        /* \"#utility.yul\":8639:8642   */\n      dup3\n        /* \"#utility.yul\":8550:8643   */\n      tag_199\n      jump\t// in\n    tag_294:\n        /* \"#utility.yul\":8668:8670   */\n      0x20\n        /* \"#utility.yul\":8663:8666   */\n      dup3\n        /* \"#utility.yul\":8659:8671   */\n      add\n        /* \"#utility.yul\":8652:8671   */\n      swap1\n      pop\n        /* \"#utility.yul\":8311:8677   */\n      swap2\n      swap1\n      pop\n      jump\t// out\n        /* \"#utility.yul\":8683:9102   */\n    tag_125:\n        /* \"#utility.yul\":8849:8853   */\n      0x00\n        /* \"#utility.yul\":8887:8889   */\n      0x20\n        /* \"#utility.yul\":8876:8885   */\n      dup3\n        /* \"#utility.yul\":8872:8890   */\n      add\n        /* \"#utility.yul\":8864:8890   */\n      swap1\n      pop\n        /* \"#utility.yul\":8936:8945   */\n      dup2\n        /* \"#utility.yul\":8930:8934   */\n      dup2\n        /* \"#utility.yul\":8926:8946   */\n      sub\n        /* \"#utility.yul\":8922:8923   */\n      0x00\n        /* \"#utility.yul\":8911:8920   */\n      dup4\n        /* \"#utility.yul\":8907:8924   */\n      add\n        /* \"#utility.yul\":8900:8947   */\n      mstore\n        /* \"#utility.yul\":8964:9095   */\n      tag_296\n        /* \"#utility.yul\":9090:9094   */\n      dup2\n        /* \"#utility.yul\":8964:9095   */\n      tag_200\n      jump\t// in\n    tag_296:\n        /* \"#utility.yul\":8956:9095   */\n      swap1\n      pop\n        /* \"#utility.yul\":8683:9102   */\n      swap2\n      swap1\n      pop\n      jump\t// out\n        /* \"#utility.yul\":9108:9550   */\n    tag_141:\n        /* \"#utility.yul\":9257:9261   */\n      0x00\n        /* \"#utility.yul\":9295:9297   */\n      0x60\n        /* \"#utility.yul\":9284:9293   */\n      dup3\n        /* \"#utility.yul\":9280:9298   */\n      add\n        /* \"#utility.yul\":9272:9298   */\n      swap1\n      pop\n        /* \"#utility.yul\":9308:9379   */\n      tag_298\n        /* \"#utility.yul\":9376:9377   */\n      0x00\n        /* \"#utility.yul\":9365:9374   */\n      dup4\n        /* \"#utility.yul\":9361:9378   */\n      add\n        /* \"#utility.yul\":9352:9358   */\n      dup7\n        /* \"#utility.yul\":9308:9379   */\n      tag_194\n      jump\t// in\n    tag_298:\n        /* \"#utility.yul\":9389:9461   */\n      tag_299\n        /* \"#utility.yul\":9457:9459   */\n      0x20\n        /* \"#utility.yul\":9446:9455   */\n      dup4\n        /* \"#utility.yul\":9442:9460   */\n      add\n        /* \"#utility.yul\":9433:9439   */\n      dup6\n        /* \"#utility.yul\":9389:9461   */\n      tag_191\n      jump\t// in\n    tag_299:\n        /* \"#utility.yul\":9471:9543   */\n      tag_300\n        /* \"#utility.yul\":9539:9541   */\n      0x40\n        /* \"#utility.yul\":9528:9537   */\n      dup4\n        /* \"#utility.yul\":9524:9542   */\n      add\n        /* \"#utility.yul\":9515:9521   */\n      dup5\n        /* \"#utility.yul\":9471:9543   */\n      tag_191\n      jump\t// in\n    tag_300:\n        /* \"#utility.yul\":9108:9550   */\n      swap5\n      swap4\n      pop\n      pop\n      pop\n      pop\n      jump\t// out\n        /* \"#utility.yul\":9556:9735   */\n    tag_201:\n        /* \"#utility.yul\":9696:9727   */\n      0x45524332303a204d6178696d756d20737570706c792072656163686564000000\n        /* \"#utility.yul\":9692:9693   */\n      0x00\n        /* \"#utility.yul\":9684:9690   */\n      dup3\n        /* \"#utility.yul\":9680:9694   */\n      add\n        /* \"#utility.yul\":9673:9728   */\n      mstore\n        /* \"#utility.yul\":9556:9735   */\n      pop\n      jump\t// out\n        /* \"#utility.yul\":9741:10107   */\n    tag_202:\n        /* \"#utility.yul\":9883:9886   */\n      0x00\n        /* \"#utility.yul\":9904:9971   */\n      tag_303\n        /* \"#utility.yul\":9968:9970   */\n      0x1d\n        /* \"#utility.yul\":9963:9966   */\n      dup4\n        /* \"#utility.yul\":9904:9971   */\n      tag_175\n      jump\t// in\n    tag_303:\n        /* \"#utility.yul\":9897:9971   */\n      swap2\n      pop\n        /* \"#utility.yul\":9980:10073   */\n      tag_304\n        /* \"#utility.yul\":10069:10072   */\n      dup3\n        /* \"#utility.yul\":9980:10073   */\n      tag_201\n      jump\t// in\n    tag_304:\n        /* \"#utility.yul\":10098:10100   */\n      0x20\n        /* \"#utility.yul\":10093:10096   */\n      dup3\n        /* \"#utility.yul\":10089:10101   */\n      add\n        /* \"#utility.yul\":10082:10101   */\n      swap1\n      pop\n        /* \"#utility.yul\":9741:10107   */\n      swap2\n      swap1\n      pop\n      jump\t// out\n        /* \"#utility.yul\":10113:10532   */\n    tag_156:\n        /* \"#utility.yul\":10279:10283   */\n      0x00\n        /* \"#utility.yul\":10317:10319   */\n      0x20\n        /* \"#utility.yul\":10306:10315   */\n      dup3\n        /* \"#utility.yul\":10302:10320   */\n      add\n        /* \"#utility.yul\":10294:10320   */\n      swap1\n      pop\n        /* \"#utility.yul\":10366:10375   */\n      dup2\n        /* \"#utility.yul\":10360:10364   */\n      dup2\n        /* \"#utility.yul\":10356:10376   */\n      sub\n        /* \"#utility.yul\":10352:10353   */\n      0x00\n        /* \"#utility.yul\":10341:10350   */\n      dup4\n        /* \"#utility.yul\":10337:10354   */\n      add\n        /* \"#utility.yul\":10330:10377   */\n      mstore\n        /* \"#utility.yul\":10394:10525   */\n      tag_306\n        /* \"#utility.yul\":10520:10524   */\n      dup2\n        /* \"#utility.yul\":10394:10525   */\n      tag_202\n      jump\t// in\n    tag_306:\n        /* \"#utility.yul\":10386:10525   */\n      swap1\n      pop\n        /* \"#utility.yul\":10113:10532   */\n      swap2\n      swap1\n      pop\n      jump\t// out\n\n    auxdata: 0xa2646970667358221220112688c87b4cbde4d280309f5f0b79629a367e020a77a6901eb29bb8ad53832f64736f6c634300081b0033\n}\n",
				"bytecode": {
					"linkReferences": {},
					"object": "608060405234801561000f575f5ffd5b506040518060400160405280600a81526020017f5553445420466c61736800000000000000000000000000000000000000000000815250600490816100549190610343565b506040518060400160405280600481526020017f5553445400000000000000000000000000000000000000000000000000000000815250600590816100999190610343565b506b01f04ef12cb04cf1580000006003819055506100bb6100ff60201b60201c565b60065f6101000a81548173ffffffffffffffffffffffffffffffffffffffff021916908373ffffffffffffffffffffffffffffffffffffffff160217905550610412565b5f33905090565b5f81519050919050565b7f4e487b71000000000000000000000000000000000000000000000000000000005f52604160045260245ffd5b7f4e487b71000000000000000000000000000000000000000000000000000000005f52602260045260245ffd5b5f600282049050600182168061018157607f821691505b6020821081036101945761019361013d565b5b50919050565b5f819050815f5260205f209050919050565b5f6020601f8301049050919050565b5f82821b905092915050565b5f600883026101f67fffffffffffffffffffffffffffffffffffffffffffffffffffffffffffffffff826101bb565b61020086836101bb565b95508019841693508086168417925050509392505050565b5f819050919050565b5f819050919050565b5f61024461023f61023a84610218565b610221565b610218565b9050919050565b5f819050919050565b61025d8361022a565b6102716102698261024b565b8484546101c7565b825550505050565b5f5f905090565b610288610279565b610293818484610254565b505050565b5b818110156102b6576102ab5f82610280565b600181019050610299565b5050565b601f8211156102fb576102cc8161019a565b6102d5846101ac565b810160208510156102e4578190505b6102f86102f0856101ac565b830182610298565b50505b505050565b5f82821c905092915050565b5f61031b5f1984600802610300565b1980831691505092915050565b5f610333838361030c565b9150826002028217905092915050565b61034c82610106565b67ffffffffffffffff81111561036557610364610110565b5b61036f825461016a565b61037a8282856102ba565b5f60209050601f8311600181146103ab575f8415610399578287015190505b6103a38582610328565b86555061040a565b601f1984166103b98661019a565b5f5b828110156103e0578489015182556001820191506020850194506020810190506103bb565b868310156103fd57848901516103f9601f89168261030c565b8355505b6001600288020188555050505b505050505050565b6112d88061041f5f395ff3fe608060405234801561000f575f5ffd5b50600436106100e8575f3560e01c8063893d20e81161008a578063a457c2d711610064578063a457c2d714610272578063a9059cbb146102a2578063d5abeb01146102d2578063dd62ed3e146102f0576100e8565b8063893d20e81461020657806395d89b4114610224578063a0712d6814610242576100e8565b806323b872dd116100c657806323b872dd14610158578063313ce5671461018857806339509351146101a657806370a08231146101d6576100e8565b806306fdde03146100ec578063095ea7b31461010a57806318160ddd1461013a575b5f5ffd5b6100f4610320565b6040516101019190610dee565b60405180910390f35b610124600480360381019061011f9190610e9f565b6103b0565b6040516101319190610ef7565b60405180910390f35b6101426103d2565b60405161014f9190610f1f565b60405180910390f35b610172600480360381019061016d9190610f38565b6103db565b60405161017f9190610ef7565b60405180910390f35b610190610409565b60405161019d9190610fa3565b60405180910390f35b6101c060048036038101906101bb9190610e9f565b610411565b6040516101cd9190610ef7565b60405180910390f35b6101f060048036038101906101eb9190610fbc565b610447565b6040516101fd9190610f1f565b60405180910390f35b61020e61048c565b60405161021b9190610ff6565b60405180910390f35b61022c6104b4565b6040516102399190610dee565b60405180910390f35b61025c6004803603810190610257919061100f565b610544565b6040516102699190610ef7565b60405180910390f35b61028c60048036038101906102879190610e9f565b610608565b6040516102999190610ef7565b60405180910390f35b6102bc60048036038101906102b79190610e9f565b61067d565b6040516102c99190610ef7565b60405180910390f35b6102da61069f565b6040516102e79190610f1f565b60405180910390f35b61030a6004803603810190610305919061103a565b6106a8565b6040516103179190610f1f565b60405180910390f35b60606004805461032f906110a5565b80601f016020809104026020016040519081016040528092919081815260200182805461035b906110a5565b80156103a65780601f1061037d576101008083540402835291602001916103a6565b820191905f5260205f20905b81548152906001019060200180831161038957829003601f168201915b5050505050905090565b5f5f6103ba61072a565b90506103c7818585610731565b600191505092915050565b5f600254905090565b5f5f6103e561072a565b90506103f2858285610743565b6103fd8585856107d5565b60019150509392505050565b5f6012905090565b5f5f61041b61072a565b905061043c81858561042d85896106a8565b6104379190611102565b610731565b600191505092915050565b5f5f5f8373ffffffffffffffffffffffffffffffffffffffff1673ffffffffffffffffffffffffffffffffffffffff1681526020019081526020015f20549050919050565b5f60065f9054906101000a900473ffffffffffffffffffffffffffffffffffffffff16905090565b6060600580546104c3906110a5565b80601f01602080910402602001604051908101604052809291908181526020018280546104ef906110a5565b801561053a5780601f106105115761010080835404028352916020019161053a565b820191905f5260205f20905b81548152906001019060200180831161051d57829003601f168201915b5050505050905090565b5f60065f9054906101000a900473ffffffffffffffffffffffffffffffffffffffff1673ffffffffffffffffffffffffffffffffffffffff163373ffffffffffffffffffffffffffffffffffffffff16146105d4576040517f08c379a00000000000000000000000000000000000000000000000000000000081526004016105cb9061117f565b60405180910390fd5b6105ff60065f9054906101000a900473ffffffffffffffffffffffffffffffffffffffff16836108c5565b60019050919050565b5f5f61061261072a565b90505f61061f82866106a8565b905083811015610664576040517f08c379a000000000000000000000000000000000000000000000000000000000815260040161065b906111e7565b60405180910390fd5b6106718286868403610731565b60019250505092915050565b5f5f61068761072a565b90506106948185856107d5565b600191505092915050565b5f600354905090565b5f60015f8473ffffffffffffffffffffffffffffffffffffffff1673ffffffffffffffffffffffffffffffffffffffff1681526020019081526020015f205f8373ffffffffffffffffffffffffffffffffffffffff1673ffffffffffffffffffffffffffffffffffffffff1681526020019081526020015f2054905092915050565b5f33905090565b61073e8383836001610996565b505050565b5f61074e84846106a8565b90507fffffffffffffffffffffffffffffffffffffffffffffffffffffffffffffffff81146107cf57818110156107c0578281836040517ffb8f41b20000000000000000000000000000000000000000000000000000000081526004016107b793929190611205565b60405180910390fd5b6107ce84848484035f610996565b5b50505050565b5f73ffffffffffffffffffffffffffffffffffffffff168373ffffffffffffffffffffffffffffffffffffffff1603610845575f6040517f96c6fd1e00000000000000000000000000000000000000000000000000000000815260040161083c9190610ff6565b60405180910390fd5b5f73ffffffffffffffffffffffffffffffffffffffff168273ffffffffffffffffffffffffffffffffffffffff16036108b5575f6040517fec442f050000000000000000000000000000000000000000000000000000000081526004016108ac9190610ff6565b60405180910390fd5b6108c0838383610b65565b505050565b5f73ffffffffffffffffffffffffffffffffffffffff168273ffffffffffffffffffffffffffffffffffffffff1603610935575f6040517fec442f0500000000000000000000000000000000000000000000000000000000815260040161092c9190610ff6565b60405180910390fd5b600354816002546109469190611102565b1115610987576040517f08c379a000000000000000000000000000000000000000000000000000000000815260040161097e90611284565b60405180910390fd5b6109925f8383610b65565b5050565b5f73ffffffffffffffffffffffffffffffffffffffff168473ffffffffffffffffffffffffffffffffffffffff1603610a06575f6040517fe602df050000000000000000000000000000000000000000000000000000000081526004016109fd9190610ff6565b60405180910390fd5b5f73ffffffffffffffffffffffffffffffffffffffff168373ffffffffffffffffffffffffffffffffffffffff1603610a76575f6040517f94280d62000000000000000000000000000000000000000000000000000000008152600401610a6d9190610ff6565b60405180910390fd5b8160015f8673ffffffffffffffffffffffffffffffffffffffff1673ffffffffffffffffffffffffffffffffffffffff1681526020019081526020015f205f8573ffffffffffffffffffffffffffffffffffffffff1673ffffffffffffffffffffffffffffffffffffffff1681526020019081526020015f20819055508015610b5f578273ffffffffffffffffffffffffffffffffffffffff168473ffffffffffffffffffffffffffffffffffffffff167f8c5be1e5ebec7d5bd14f71427d1e84f3dd0314c0f7b2291e5b200ac8c7c3b92584604051610b569190610f1f565b60405180910390a35b50505050565b5f73ffffffffffffffffffffffffffffffffffffffff168373ffffffffffffffffffffffffffffffffffffffff1603610bb5578060025f828254610ba99190611102565b92505081905550610c83565b5f5f5f8573ffffffffffffffffffffffffffffffffffffffff1673ffffffffffffffffffffffffffffffffffffffff1681526020019081526020015f2054905081811015610c3e578381836040517fe450d38c000000000000000000000000000000000000000000000000000000008152600401610c3593929190611205565b60405180910390fd5b8181035f5f8673ffffffffffffffffffffffffffffffffffffffff1673ffffffffffffffffffffffffffffffffffffffff1681526020019081526020015f2081905550505b5f73ffffffffffffffffffffffffffffffffffffffff168273ffffffffffffffffffffffffffffffffffffffff1603610cca578060025f8282540392505081905550610d14565b805f5f8473ffffffffffffffffffffffffffffffffffffffff1673ffffffffffffffffffffffffffffffffffffffff1681526020019081526020015f205f82825401925050819055505b8173ffffffffffffffffffffffffffffffffffffffff168373ffffffffffffffffffffffffffffffffffffffff167fddf252ad1be2c89b69c2b068fc378daa952ba7f163c4a11628f55a4df523b3ef83604051610d719190610f1f565b60405180910390a3505050565b5f81519050919050565b5f82825260208201905092915050565b8281835e5f83830152505050565b5f601f19601f8301169050919050565b5f610dc082610d7e565b610dca8185610d88565b9350610dda818560208601610d98565b610de381610da6565b840191505092915050565b5f6020820190508181035f830152610e068184610db6565b905092915050565b5f5ffd5b5f73ffffffffffffffffffffffffffffffffffffffff82169050919050565b5f610e3b82610e12565b9050919050565b610e4b81610e31565b8114610e55575f5ffd5b50565b5f81359050610e6681610e42565b92915050565b5f819050919050565b610e7e81610e6c565b8114610e88575f5ffd5b50565b5f81359050610e9981610e75565b92915050565b5f5f60408385031215610eb557610eb4610e0e565b5b5f610ec285828601610e58565b9250506020610ed385828601610e8b565b9150509250929050565b5f8115159050919050565b610ef181610edd565b82525050565b5f602082019050610f0a5f830184610ee8565b92915050565b610f1981610e6c565b82525050565b5f602082019050610f325f830184610f10565b92915050565b5f5f5f60608486031215610f4f57610f4e610e0e565b5b5f610f5c86828701610e58565b9350506020610f6d86828701610e58565b9250506040610f7e86828701610e8b565b9150509250925092565b5f60ff82169050919050565b610f9d81610f88565b82525050565b5f602082019050610fb65f830184610f94565b92915050565b5f60208284031215610fd157610fd0610e0e565b5b5f610fde84828501610e58565b91505092915050565b610ff081610e31565b82525050565b5f6020820190506110095f830184610fe7565b92915050565b5f6020828403121561102457611023610e0e565b5b5f61103184828501610e8b565b91505092915050565b5f5f604083850312156110505761104f610e0e565b5b5f61105d85828601610e58565b925050602061106e85828601610e58565b9150509250929050565b7f4e487b71000000000000000000000000000000000000000000000000000000005f52602260045260245ffd5b5f60028204905060018216806110bc57607f821691505b6020821081036110cf576110ce611078565b5b50919050565b7f4e487b71000000000000000000000000000000000000000000000000000000005f52601160045260245ffd5b5f61110c82610e6c565b915061111783610e6c565b925082820190508082111561112f5761112e6110d5565b5b92915050565b7f45524332303a20596f7520646f6e742068617665207065726d697373696f6e735f82015250565b5f611169602083610d88565b915061117482611135565b602082019050919050565b5f6020820190508181035f8301526111968161115d565b9050919050565b7f45524332303a616c6c6f77616e63652062656c6c6f77207a65726f00000000005f82015250565b5f6111d1601b83610d88565b91506111dc8261119d565b602082019050919050565b5f6020820190508181035f8301526111fe816111c5565b9050919050565b5f6060820190506112185f830186610fe7565b6112256020830185610f10565b6112326040830184610f10565b949350505050565b7f45524332303a204d6178696d756d20737570706c7920726561636865640000005f82015250565b5f61126e601d83610d88565b91506112798261123a565b602082019050919050565b5f6020820190508181035f83015261129b81611262565b905091905056fea2646970667358221220112688c87b4cbde4d280309f5f0b79629a367e020a77a6901eb29bb8ad53832f64736f6c634300081b0033",
					"opcodes": "PUSH1 0x80 PUSH1 0x40 MSTORE CALLVALUE DUP1 ISZERO PUSH2 0xF JUMPI PUSH0 PUSH0 REVERT JUMPDEST POP PUSH1 0x40 MLOAD DUP1 PUSH1 0x40 ADD PUSH1 0x40 MSTORE DUP1 PUSH1 0xA DUP2 MSTORE PUSH1 0x20 ADD PUSH32 0x5553445420466C61736800000000000000000000000000000000000000000000 DUP2 MSTORE POP PUSH1 0x4 SWAP1 DUP2 PUSH2 0x54 SWAP2 SWAP1 PUSH2 0x343 JUMP JUMPDEST POP PUSH1 0x40 MLOAD DUP1 PUSH1 0x40 ADD PUSH1 0x40 MSTORE DUP1 PUSH1 0x4 DUP2 MSTORE PUSH1 0x20 ADD PUSH32 0x5553445400000000000000000000000000000000000000000000000000000000 DUP2 MSTORE POP PUSH1 0x5 SWAP1 DUP2 PUSH2 0x99 SWAP2 SWAP1 PUSH2 0x343 JUMP JUMPDEST POP PUSH12 0x1F04EF12CB04CF158000000 PUSH1 0x3 DUP2 SWAP1 SSTORE POP PUSH2 0xBB PUSH2 0xFF PUSH1 0x20 SHL PUSH1 0x20 SHR JUMP JUMPDEST PUSH1 0x6 PUSH0 PUSH2 0x100 EXP DUP2 SLOAD DUP2 PUSH20 0xFFFFFFFFFFFFFFFFFFFFFFFFFFFFFFFFFFFFFFFF MUL NOT AND SWAP1 DUP4 PUSH20 0xFFFFFFFFFFFFFFFFFFFFFFFFFFFFFFFFFFFFFFFF AND MUL OR SWAP1 SSTORE POP PUSH2 0x412 JUMP JUMPDEST PUSH0 CALLER SWAP1 POP SWAP1 JUMP JUMPDEST PUSH0 DUP2 MLOAD SWAP1 POP SWAP2 SWAP1 POP JUMP JUMPDEST PUSH32 0x4E487B7100000000000000000000000000000000000000000000000000000000 PUSH0 MSTORE PUSH1 0x41 PUSH1 0x4 MSTORE PUSH1 0x24 PUSH0 REVERT JUMPDEST PUSH32 0x4E487B7100000000000000000000000000000000000000000000000000000000 PUSH0 MSTORE PUSH1 0x22 PUSH1 0x4 MSTORE PUSH1 0x24 PUSH0 REVERT JUMPDEST PUSH0 PUSH1 0x2 DUP3 DIV SWAP1 POP PUSH1 0x1 DUP3 AND DUP1 PUSH2 0x181 JUMPI PUSH1 0x7F DUP3 AND SWAP2 POP JUMPDEST PUSH1 0x20 DUP3 LT DUP2 SUB PUSH2 0x194 JUMPI PUSH2 0x193 PUSH2 0x13D JUMP JUMPDEST JUMPDEST POP SWAP2 SWAP1 POP JUMP JUMPDEST PUSH0 DUP2 SWAP1 POP DUP2 PUSH0 MSTORE PUSH1 0x20 PUSH0 KECCAK256 SWAP1 POP SWAP2 SWAP1 POP JUMP JUMPDEST PUSH0 PUSH1 0x20 PUSH1 0x1F DUP4 ADD DIV SWAP1 POP SWAP2 SWAP1 POP JUMP JUMPDEST PUSH0 DUP3 DUP3 SHL SWAP1 POP SWAP3 SWAP2 POP POP JUMP JUMPDEST PUSH0 PUSH1 0x8 DUP4 MUL PUSH2 0x1F6 PUSH32 0xFFFFFFFFFFFFFFFFFFFFFFFFFFFFFFFFFFFFFFFFFFFFFFFFFFFFFFFFFFFFFFFF DUP3 PUSH2 0x1BB JUMP JUMPDEST PUSH2 0x200 DUP7 DUP4 PUSH2 0x1BB JUMP JUMPDEST SWAP6 POP DUP1 NOT DUP5 AND SWAP4 POP DUP1 DUP7 AND DUP5 OR SWAP3 POP POP POP SWAP4 SWAP3 POP POP POP JUMP JUMPDEST PUSH0 DUP2 SWAP1 POP SWAP2 SWAP1 POP JUMP JUMPDEST PUSH0 DUP2 SWAP1 POP SWAP2 SWAP1 POP JUMP JUMPDEST PUSH0 PUSH2 0x244 PUSH2 0x23F PUSH2 0x23A DUP5 PUSH2 0x218 JUMP JUMPDEST PUSH2 0x221 JUMP JUMPDEST PUSH2 0x218 JUMP JUMPDEST SWAP1 POP SWAP2 SWAP1 POP JUMP JUMPDEST PUSH0 DUP2 SWAP1 POP SWAP2 SWAP1 POP JUMP JUMPDEST PUSH2 0x25D DUP4 PUSH2 0x22A JUMP JUMPDEST PUSH2 0x271 PUSH2 0x269 DUP3 PUSH2 0x24B JUMP JUMPDEST DUP5 DUP5 SLOAD PUSH2 0x1C7 JUMP JUMPDEST DUP3 SSTORE POP POP POP POP JUMP JUMPDEST PUSH0 PUSH0 SWAP1 POP SWAP1 JUMP JUMPDEST PUSH2 0x288 PUSH2 0x279 JUMP JUMPDEST PUSH2 0x293 DUP2 DUP5 DUP5 PUSH2 0x254 JUMP JUMPDEST POP POP POP JUMP JUMPDEST JUMPDEST DUP2 DUP2 LT ISZERO PUSH2 0x2B6 JUMPI PUSH2 0x2AB PUSH0 DUP3 PUSH2 0x280 JUMP JUMPDEST PUSH1 0x1 DUP2 ADD SWAP1 POP PUSH2 0x299 JUMP JUMPDEST POP POP JUMP JUMPDEST PUSH1 0x1F DUP3 GT ISZERO PUSH2 0x2FB JUMPI PUSH2 0x2CC DUP2 PUSH2 0x19A JUMP JUMPDEST PUSH2 0x2D5 DUP5 PUSH2 0x1AC JUMP JUMPDEST DUP2 ADD PUSH1 0x20 DUP6 LT ISZERO PUSH2 0x2E4 JUMPI DUP2 SWAP1 POP JUMPDEST PUSH2 0x2F8 PUSH2 0x2F0 DUP6 PUSH2 0x1AC JUMP JUMPDEST DUP4 ADD DUP3 PUSH2 0x298 JUMP JUMPDEST POP POP JUMPDEST POP POP POP JUMP JUMPDEST PUSH0 DUP3 DUP3 SHR SWAP1 POP SWAP3 SWAP2 POP POP JUMP JUMPDEST PUSH0 PUSH2 0x31B PUSH0 NOT DUP5 PUSH1 0x8 MUL PUSH2 0x300 JUMP JUMPDEST NOT DUP1 DUP4 AND SWAP2 POP POP SWAP3 SWAP2 POP POP JUMP JUMPDEST PUSH0 PUSH2 0x333 DUP4 DUP4 PUSH2 0x30C JUMP JUMPDEST SWAP2 POP DUP3 PUSH1 0x2 MUL DUP3 OR SWAP1 POP SWAP3 SWAP2 POP POP JUMP JUMPDEST PUSH2 0x34C DUP3 PUSH2 0x106 JUMP JUMPDEST PUSH8 0xFFFFFFFFFFFFFFFF DUP2 GT ISZERO PUSH2 0x365 JUMPI PUSH2 0x364 PUSH2 0x110 JUMP JUMPDEST JUMPDEST PUSH2 0x36F DUP3 SLOAD PUSH2 0x16A JUMP JUMPDEST PUSH2 0x37A DUP3 DUP3 DUP6 PUSH2 0x2BA JUMP JUMPDEST PUSH0 PUSH1 0x20 SWAP1 POP PUSH1 0x1F DUP4 GT PUSH1 0x1 DUP2 EQ PUSH2 0x3AB JUMPI PUSH0 DUP5 ISZERO PUSH2 0x399 JUMPI DUP3 DUP8 ADD MLOAD SWAP1 POP JUMPDEST PUSH2 0x3A3 DUP6 DUP3 PUSH2 0x328 JUMP JUMPDEST DUP7 SSTORE POP PUSH2 0x40A JUMP JUMPDEST PUSH1 0x1F NOT DUP5 AND PUSH2 0x3B9 DUP7 PUSH2 0x19A JUMP JUMPDEST PUSH0 JUMPDEST DUP3 DUP2 LT ISZERO PUSH2 0x3E0 JUMPI DUP5 DUP10 ADD MLOAD DUP3 SSTORE PUSH1 0x1 DUP3 ADD SWAP2 POP PUSH1 0x20 DUP6 ADD SWAP5 POP PUSH1 0x20 DUP2 ADD SWAP1 POP PUSH2 0x3BB JUMP JUMPDEST DUP7 DUP4 LT ISZERO PUSH2 0x3FD JUMPI DUP5 DUP10 ADD MLOAD PUSH2 0x3F9 PUSH1 0x1F DUP10 AND DUP3 PUSH2 0x30C JUMP JUMPDEST DUP4 SSTORE POP JUMPDEST PUSH1 0x1 PUSH1 0x2 DUP9 MUL ADD DUP9 SSTORE POP POP POP JUMPDEST POP POP POP POP POP POP JUMP JUMPDEST PUSH2 0x12D8 DUP1 PUSH2 0x41F PUSH0 CODECOPY PUSH0 RETURN INVALID PUSH1 0x80 PUSH1 0x40 MSTORE CALLVALUE DUP1 ISZERO PUSH2 0xF JUMPI PUSH0 PUSH0 REVERT JUMPDEST POP PUSH1 0x4 CALLDATASIZE LT PUSH2 0xE8 JUMPI PUSH0 CALLDATALOAD PUSH1 0xE0 SHR DUP1 PUSH4 0x893D20E8 GT PUSH2 0x8A JUMPI DUP1 PUSH4 0xA457C2D7 GT PUSH2 0x64 JUMPI DUP1 PUSH4 0xA457C2D7 EQ PUSH2 0x272 JUMPI DUP1 PUSH4 0xA9059CBB EQ PUSH2 0x2A2 JUMPI DUP1 PUSH4 0xD5ABEB01 EQ PUSH2 0x2D2 JUMPI DUP1 PUSH4 0xDD62ED3E EQ PUSH2 0x2F0 JUMPI PUSH2 0xE8 JUMP JUMPDEST DUP1 PUSH4 0x893D20E8 EQ PUSH2 0x206 JUMPI DUP1 PUSH4 0x95D89B41 EQ PUSH2 0x224 JUMPI DUP1 PUSH4 0xA0712D68 EQ PUSH2 0x242 JUMPI PUSH2 0xE8 JUMP JUMPDEST DUP1 PUSH4 0x23B872DD GT PUSH2 0xC6 JUMPI DUP1 PUSH4 0x23B872DD EQ PUSH2 0x158 JUMPI DUP1 PUSH4 0x313CE567 EQ PUSH2 0x188 JUMPI DUP1 PUSH4 0x39509351 EQ PUSH2 0x1A6 JUMPI DUP1 PUSH4 0x70A08231 EQ PUSH2 0x1D6 JUMPI PUSH2 0xE8 JUMP JUMPDEST DUP1 PUSH4 0x6FDDE03 EQ PUSH2 0xEC JUMPI DUP1 PUSH4 0x95EA7B3 EQ PUSH2 0x10A JUMPI DUP1 PUSH4 0x18160DDD EQ PUSH2 0x13A JUMPI JUMPDEST PUSH0 PUSH0 REVERT JUMPDEST PUSH2 0xF4 PUSH2 0x320 JUMP JUMPDEST PUSH1 0x40 MLOAD PUSH2 0x101 SWAP2 SWAP1 PUSH2 0xDEE JUMP JUMPDEST PUSH1 0x40 MLOAD DUP1 SWAP2 SUB SWAP1 RETURN JUMPDEST PUSH2 0x124 PUSH1 0x4 DUP1 CALLDATASIZE SUB DUP2 ADD SWAP1 PUSH2 0x11F SWAP2 SWAP1 PUSH2 0xE9F JUMP JUMPDEST PUSH2 0x3B0 JUMP JUMPDEST PUSH1 0x40 MLOAD PUSH2 0x131 SWAP2 SWAP1 PUSH2 0xEF7 JUMP JUMPDEST PUSH1 0x40 MLOAD DUP1 SWAP2 SUB SWAP1 RETURN JUMPDEST PUSH2 0x142 PUSH2 0x3D2 JUMP JUMPDEST PUSH1 0x40 MLOAD PUSH2 0x14F SWAP2 SWAP1 PUSH2 0xF1F JUMP JUMPDEST PUSH1 0x40 MLOAD DUP1 SWAP2 SUB SWAP1 RETURN JUMPDEST PUSH2 0x172 PUSH1 0x4 DUP1 CALLDATASIZE SUB DUP2 ADD SWAP1 PUSH2 0x16D SWAP2 SWAP1 PUSH2 0xF38 JUMP JUMPDEST PUSH2 0x3DB JUMP JUMPDEST PUSH1 0x40 MLOAD PUSH2 0x17F SWAP2 SWAP1 PUSH2 0xEF7 JUMP JUMPDEST PUSH1 0x40 MLOAD DUP1 SWAP2 SUB SWAP1 RETURN JUMPDEST PUSH2 0x190 PUSH2 0x409 JUMP JUMPDEST PUSH1 0x40 MLOAD PUSH2 0x19D SWAP2 SWAP1 PUSH2 0xFA3 JUMP JUMPDEST PUSH1 0x40 MLOAD DUP1 SWAP2 SUB SWAP1 RETURN JUMPDEST PUSH2 0x1C0 PUSH1 0x4 DUP1 CALLDATASIZE SUB DUP2 ADD SWAP1 PUSH2 0x1BB SWAP2 SWAP1 PUSH2 0xE9F JUMP JUMPDEST PUSH2 0x411 JUMP JUMPDEST PUSH1 0x40 MLOAD PUSH2 0x1CD SWAP2 SWAP1 PUSH2 0xEF7 JUMP JUMPDEST PUSH1 0x40 MLOAD DUP1 SWAP2 SUB SWAP1 RETURN JUMPDEST PUSH2 0x1F0 PUSH1 0x4 DUP1 CALLDATASIZE SUB DUP2 ADD SWAP1 PUSH2 0x1EB SWAP2 SWAP1 PUSH2 0xFBC JUMP JUMPDEST PUSH2 0x447 JUMP JUMPDEST PUSH1 0x40 MLOAD PUSH2 0x1FD SWAP2 SWAP1 PUSH2 0xF1F JUMP JUMPDEST PUSH1 0x40 MLOAD DUP1 SWAP2 SUB SWAP1 RETURN JUMPDEST PUSH2 0x20E PUSH2 0x48C JUMP JUMPDEST PUSH1 0x40 MLOAD PUSH2 0x21B SWAP2 SWAP1 PUSH2 0xFF6 JUMP JUMPDEST PUSH1 0x40 MLOAD DUP1 SWAP2 SUB SWAP1 RETURN JUMPDEST PUSH2 0x22C PUSH2 0x4B4 JUMP JUMPDEST PUSH1 0x40 MLOAD PUSH2 0x239 SWAP2 SWAP1 PUSH2 0xDEE JUMP JUMPDEST PUSH1 0x40 MLOAD DUP1 SWAP2 SUB SWAP1 RETURN JUMPDEST PUSH2 0x25C PUSH1 0x4 DUP1 CALLDATASIZE SUB DUP2 ADD SWAP1 PUSH2 0x257 SWAP2 SWAP1 PUSH2 0x100F JUMP JUMPDEST PUSH2 0x544 JUMP JUMPDEST PUSH1 0x40 MLOAD PUSH2 0x269 SWAP2 SWAP1 PUSH2 0xEF7 JUMP JUMPDEST PUSH1 0x40 MLOAD DUP1 SWAP2 SUB SWAP1 RETURN JUMPDEST PUSH2 0x28C PUSH1 0x4 DUP1 CALLDATASIZE SUB DUP2 ADD SWAP1 PUSH2 0x287 SWAP2 SWAP1 PUSH2 0xE9F JUMP JUMPDEST PUSH2 0x608 JUMP JUMPDEST PUSH1 0x40 MLOAD PUSH2 0x299 SWAP2 SWAP1 PUSH2 0xEF7 JUMP JUMPDEST PUSH1 0x40 MLOAD DUP1 SWAP2 SUB SWAP1 RETURN JUMPDEST PUSH2 0x2BC PUSH1 0x4 DUP1 CALLDATASIZE SUB DUP2 ADD SWAP1 PUSH2 0x2B7 SWAP2 SWAP1 PUSH2 0xE9F JUMP JUMPDEST PUSH2 0x67D JUMP JUMPDEST PUSH1 0x40 MLOAD PUSH2 0x2C9 SWAP2 SWAP1 PUSH2 0xEF7 JUMP JUMPDEST PUSH1 0x40 MLOAD DUP1 SWAP2 SUB SWAP1 RETURN JUMPDEST PUSH2 0x2DA PUSH2 0x69F JUMP JUMPDEST PUSH1 0x40 MLOAD PUSH2 0x2E7 SWAP2 SWAP1 PUSH2 0xF1F JUMP JUMPDEST PUSH1 0x40 MLOAD DUP1 SWAP2 SUB SWAP1 RETURN JUMPDEST PUSH2 0x30A PUSH1 0x4 DUP1 CALLDATASIZE SUB DUP2 ADD SWAP1 PUSH2 0x305 SWAP2 SWAP1 PUSH2 0x103A JUMP JUMPDEST PUSH2 0x6A8 JUMP JUMPDEST PUSH1 0x40 MLOAD PUSH2 0x317 SWAP2 SWAP1 PUSH2 0xF1F JUMP JUMPDEST PUSH1 0x40 MLOAD DUP1 SWAP2 SUB SWAP1 RETURN JUMPDEST PUSH1 0x60 PUSH1 0x4 DUP1 SLOAD PUSH2 0x32F SWAP1 PUSH2 0x10A5 JUMP JUMPDEST DUP1 PUSH1 0x1F ADD PUSH1 0x20 DUP1 SWAP2 DIV MUL PUSH1 0x20 ADD PUSH1 0x40 MLOAD SWAP1 DUP2 ADD PUSH1 0x40 MSTORE DUP1 SWAP3 SWAP2 SWAP1 DUP2 DUP2 MSTORE PUSH1 0x20 ADD DUP3 DUP1 SLOAD PUSH2 0x35B SWAP1 PUSH2 0x10A5 JUMP JUMPDEST DUP1 ISZERO PUSH2 0x3A6 JUMPI DUP1 PUSH1 0x1F LT PUSH2 0x37D JUMPI PUSH2 0x100 DUP1 DUP4 SLOAD DIV MUL DUP4 MSTORE SWAP2 PUSH1 0x20 ADD SWAP2 PUSH2 0x3A6 JUMP JUMPDEST DUP3 ADD SWAP2 SWAP1 PUSH0 MSTORE PUSH1 0x20 PUSH0 KECCAK256 SWAP1 JUMPDEST DUP2 SLOAD DUP2 MSTORE SWAP1 PUSH1 0x1 ADD SWAP1 PUSH1 0x20 ADD DUP1 DUP4 GT PUSH2 0x389 JUMPI DUP3 SWAP1 SUB PUSH1 0x1F AND DUP3 ADD SWAP2 JUMPDEST POP POP POP POP POP SWAP1 POP SWAP1 JUMP JUMPDEST PUSH0 PUSH0 PUSH2 0x3BA PUSH2 0x72A JUMP JUMPDEST SWAP1 POP PUSH2 0x3C7 DUP2 DUP6 DUP6 PUSH2 0x731 JUMP JUMPDEST PUSH1 0x1 SWAP2 POP POP SWAP3 SWAP2 POP POP JUMP JUMPDEST PUSH0 PUSH1 0x2 SLOAD SWAP1 POP SWAP1 JUMP JUMPDEST PUSH0 PUSH0 PUSH2 0x3E5 PUSH2 0x72A JUMP JUMPDEST SWAP1 POP PUSH2 0x3F2 DUP6 DUP3 DUP6 PUSH2 0x743 JUMP JUMPDEST PUSH2 0x3FD DUP6 DUP6 DUP6 PUSH2 0x7D5 JUMP JUMPDEST PUSH1 0x1 SWAP2 POP POP SWAP4 SWAP3 POP POP POP JUMP JUMPDEST PUSH0 PUSH1 0x12 SWAP1 POP SWAP1 JUMP JUMPDEST PUSH0 PUSH0 PUSH2 0x41B PUSH2 0x72A JUMP JUMPDEST SWAP1 POP PUSH2 0x43C DUP2 DUP6 DUP6 PUSH2 0x42D DUP6 DUP10 PUSH2 0x6A8 JUMP JUMPDEST PUSH2 0x437 SWAP2 SWAP1 PUSH2 0x1102 JUMP JUMPDEST PUSH2 0x731 JUMP JUMPDEST PUSH1 0x1 SWAP2 POP POP SWAP3 SWAP2 POP POP JUMP JUMPDEST PUSH0 PUSH0 PUSH0 DUP4 PUSH20 0xFFFFFFFFFFFFFFFFFFFFFFFFFFFFFFFFFFFFFFFF AND PUSH20 0xFFFFFFFFFFFFFFFFFFFFFFFFFFFFFFFFFFFFFFFF AND DUP2 MSTORE PUSH1 0x20 ADD SWAP1 DUP2 MSTORE PUSH1 0x20 ADD PUSH0 KECCAK256 SLOAD SWAP1 POP SWAP2 SWAP1 POP JUMP JUMPDEST PUSH0 PUSH1 0x6 PUSH0 SWAP1 SLOAD SWAP1 PUSH2 0x100 EXP SWAP1 DIV PUSH20 0xFFFFFFFFFFFFFFFFFFFFFFFFFFFFFFFFFFFFFFFF AND SWAP1 POP SWAP1 JUMP JUMPDEST PUSH1 0x60 PUSH1 0x5 DUP1 SLOAD PUSH2 0x4C3 SWAP1 PUSH2 0x10A5 JUMP JUMPDEST DUP1 PUSH1 0x1F ADD PUSH1 0x20 DUP1 SWAP2 DIV MUL PUSH1 0x20 ADD PUSH1 0x40 MLOAD SWAP1 DUP2 ADD PUSH1 0x40 MSTORE DUP1 SWAP3 SWAP2 SWAP1 DUP2 DUP2 MSTORE PUSH1 0x20 ADD DUP3 DUP1 SLOAD PUSH2 0x4EF SWAP1 PUSH2 0x10A5 JUMP JUMPDEST DUP1 ISZERO PUSH2 0x53A JUMPI DUP1 PUSH1 0x1F LT PUSH2 0x511 JUMPI PUSH2 0x100 DUP1 DUP4 SLOAD DIV MUL DUP4 MSTORE SWAP2 PUSH1 0x20 ADD SWAP2 PUSH2 0x53A JUMP JUMPDEST DUP3 ADD SWAP2 SWAP1 PUSH0 MSTORE PUSH1 0x20 PUSH0 KECCAK256 SWAP1 JUMPDEST DUP2 SLOAD DUP2 MSTORE SWAP1 PUSH1 0x1 ADD SWAP1 PUSH1 0x20 ADD DUP1 DUP4 GT PUSH2 0x51D JUMPI DUP3 SWAP1 SUB PUSH1 0x1F AND DUP3 ADD SWAP2 JUMPDEST POP POP POP POP POP SWAP1 POP SWAP1 JUMP JUMPDEST PUSH0 PUSH1 0x6 PUSH0 SWAP1 SLOAD SWAP1 PUSH2 0x100 EXP SWAP1 DIV PUSH20 0xFFFFFFFFFFFFFFFFFFFFFFFFFFFFFFFFFFFFFFFF AND PUSH20 0xFFFFFFFFFFFFFFFFFFFFFFFFFFFFFFFFFFFFFFFF AND CALLER PUSH20 0xFFFFFFFFFFFFFFFFFFFFFFFFFFFFFFFFFFFFFFFF AND EQ PUSH2 0x5D4 JUMPI PUSH1 0x40 MLOAD PUSH32 0x8C379A000000000000000000000000000000000000000000000000000000000 DUP2 MSTORE PUSH1 0x4 ADD PUSH2 0x5CB SWAP1 PUSH2 0x117F JUMP JUMPDEST PUSH1 0x40 MLOAD DUP1 SWAP2 SUB SWAP1 REVERT JUMPDEST PUSH2 0x5FF PUSH1 0x6 PUSH0 SWAP1 SLOAD SWAP1 PUSH2 0x100 EXP SWAP1 DIV PUSH20 0xFFFFFFFFFFFFFFFFFFFFFFFFFFFFFFFFFFFFFFFF AND DUP4 PUSH2 0x8C5 JUMP JUMPDEST PUSH1 0x1 SWAP1 POP SWAP2 SWAP1 POP JUMP JUMPDEST PUSH0 PUSH0 PUSH2 0x612 PUSH2 0x72A JUMP JUMPDEST SWAP1 POP PUSH0 PUSH2 0x61F DUP3 DUP7 PUSH2 0x6A8 JUMP JUMPDEST SWAP1 POP DUP4 DUP2 LT ISZERO PUSH2 0x664 JUMPI PUSH1 0x40 MLOAD PUSH32 0x8C379A000000000000000000000000000000000000000000000000000000000 DUP2 MSTORE PUSH1 0x4 ADD PUSH2 0x65B SWAP1 PUSH2 0x11E7 JUMP JUMPDEST PUSH1 0x40 MLOAD DUP1 SWAP2 SUB SWAP1 REVERT JUMPDEST PUSH2 0x671 DUP3 DUP7 DUP7 DUP5 SUB PUSH2 0x731 JUMP JUMPDEST PUSH1 0x1 SWAP3 POP POP POP SWAP3 SWAP2 POP POP JUMP JUMPDEST PUSH0 PUSH0 PUSH2 0x687 PUSH2 0x72A JUMP JUMPDEST SWAP1 POP PUSH2 0x694 DUP2 DUP6 DUP6 PUSH2 0x7D5 JUMP JUMPDEST PUSH1 0x1 SWAP2 POP POP SWAP3 SWAP2 POP POP JUMP JUMPDEST PUSH0 PUSH1 0x3 SLOAD SWAP1 POP SWAP1 JUMP JUMPDEST PUSH0 PUSH1 0x1 PUSH0 DUP5 PUSH20 0xFFFFFFFFFFFFFFFFFFFFFFFFFFFFFFFFFFFFFFFF AND PUSH20 0xFFFFFFFFFFFFFFFFFFFFFFFFFFFFFFFFFFFFFFFF AND DUP2 MSTORE PUSH1 0x20 ADD SWAP1 DUP2 MSTORE PUSH1 0x20 ADD PUSH0 KECCAK256 PUSH0 DUP4 PUSH20 0xFFFFFFFFFFFFFFFFFFFFFFFFFFFFFFFFFFFFFFFF AND PUSH20 0xFFFFFFFFFFFFFFFFFFFFFFFFFFFFFFFFFFFFFFFF AND DUP2 MSTORE PUSH1 0x20 ADD SWAP1 DUP2 MSTORE PUSH1 0x20 ADD PUSH0 KECCAK256 SLOAD SWAP1 POP SWAP3 SWAP2 POP POP JUMP JUMPDEST PUSH0 CALLER SWAP1 POP SWAP1 JUMP JUMPDEST PUSH2 0x73E DUP4 DUP4 DUP4 PUSH1 0x1 PUSH2 0x996 JUMP JUMPDEST POP POP POP JUMP JUMPDEST PUSH0 PUSH2 0x74E DUP5 DUP5 PUSH2 0x6A8 JUMP JUMPDEST SWAP1 POP PUSH32 0xFFFFFFFFFFFFFFFFFFFFFFFFFFFFFFFFFFFFFFFFFFFFFFFFFFFFFFFFFFFFFFFF DUP2 EQ PUSH2 0x7CF JUMPI DUP2 DUP2 LT ISZERO PUSH2 0x7C0 JUMPI DUP3 DUP2 DUP4 PUSH1 0x40 MLOAD PUSH32 0xFB8F41B200000000000000000000000000000000000000000000000000000000 DUP2 MSTORE PUSH1 0x4 ADD PUSH2 0x7B7 SWAP4 SWAP3 SWAP2 SWAP1 PUSH2 0x1205 JUMP JUMPDEST PUSH1 0x40 MLOAD DUP1 SWAP2 SUB SWAP1 REVERT JUMPDEST PUSH2 0x7CE DUP5 DUP5 DUP5 DUP5 SUB PUSH0 PUSH2 0x996 JUMP JUMPDEST JUMPDEST POP POP POP POP JUMP JUMPDEST PUSH0 PUSH20 0xFFFFFFFFFFFFFFFFFFFFFFFFFFFFFFFFFFFFFFFF AND DUP4 PUSH20 0xFFFFFFFFFFFFFFFFFFFFFFFFFFFFFFFFFFFFFFFF AND SUB PUSH2 0x845 JUMPI PUSH0 PUSH1 0x40 MLOAD PUSH32 0x96C6FD1E00000000000000000000000000000000000000000000000000000000 DUP2 MSTORE PUSH1 0x4 ADD PUSH2 0x83C SWAP2 SWAP1 PUSH2 0xFF6 JUMP JUMPDEST PUSH1 0x40 MLOAD DUP1 SWAP2 SUB SWAP1 REVERT JUMPDEST PUSH0 PUSH20 0xFFFFFFFFFFFFFFFFFFFFFFFFFFFFFFFFFFFFFFFF AND DUP3 PUSH20 0xFFFFFFFFFFFFFFFFFFFFFFFFFFFFFFFFFFFFFFFF AND SUB PUSH2 0x8B5 JUMPI PUSH0 PUSH1 0x40 MLOAD PUSH32 0xEC442F0500000000000000000000000000000000000000000000000000000000 DUP2 MSTORE PUSH1 0x4 ADD PUSH2 0x8AC SWAP2 SWAP1 PUSH2 0xFF6 JUMP JUMPDEST PUSH1 0x40 MLOAD DUP1 SWAP2 SUB SWAP1 REVERT JUMPDEST PUSH2 0x8C0 DUP4 DUP4 DUP4 PUSH2 0xB65 JUMP JUMPDEST POP POP POP JUMP JUMPDEST PUSH0 PUSH20 0xFFFFFFFFFFFFFFFFFFFFFFFFFFFFFFFFFFFFFFFF AND DUP3 PUSH20 0xFFFFFFFFFFFFFFFFFFFFFFFFFFFFFFFFFFFFFFFF AND SUB PUSH2 0x935 JUMPI PUSH0 PUSH1 0x40 MLOAD PUSH32 0xEC442F0500000000000000000000000000000000000000000000000000000000 DUP2 MSTORE PUSH1 0x4 ADD PUSH2 0x92C SWAP2 SWAP1 PUSH2 0xFF6 JUMP JUMPDEST PUSH1 0x40 MLOAD DUP1 SWAP2 SUB SWAP1 REVERT JUMPDEST PUSH1 0x3 SLOAD DUP2 PUSH1 0x2 SLOAD PUSH2 0x946 SWAP2 SWAP1 PUSH2 0x1102 JUMP JUMPDEST GT ISZERO PUSH2 0x987 JUMPI PUSH1 0x40 MLOAD PUSH32 0x8C379A000000000000000000000000000000000000000000000000000000000 DUP2 MSTORE PUSH1 0x4 ADD PUSH2 0x97E SWAP1 PUSH2 0x1284 JUMP JUMPDEST PUSH1 0x40 MLOAD DUP1 SWAP2 SUB SWAP1 REVERT JUMPDEST PUSH2 0x992 PUSH0 DUP4 DUP4 PUSH2 0xB65 JUMP JUMPDEST POP POP JUMP JUMPDEST PUSH0 PUSH20 0xFFFFFFFFFFFFFFFFFFFFFFFFFFFFFFFFFFFFFFFF AND DUP5 PUSH20 0xFFFFFFFFFFFFFFFFFFFFFFFFFFFFFFFFFFFFFFFF AND SUB PUSH2 0xA06 JUMPI PUSH0 PUSH1 0x40 MLOAD PUSH32 0xE602DF0500000000000000000000000000000000000000000000000000000000 DUP2 MSTORE PUSH1 0x4 ADD PUSH2 0x9FD SWAP2 SWAP1 PUSH2 0xFF6 JUMP JUMPDEST PUSH1 0x40 MLOAD DUP1 SWAP2 SUB SWAP1 REVERT JUMPDEST PUSH0 PUSH20 0xFFFFFFFFFFFFFFFFFFFFFFFFFFFFFFFFFFFFFFFF AND DUP4 PUSH20 0xFFFFFFFFFFFFFFFFFFFFFFFFFFFFFFFFFFFFFFFF AND SUB PUSH2 0xA76 JUMPI PUSH0 PUSH1 0x40 MLOAD PUSH32 0x94280D6200000000000000000000000000000000000000000000000000000000 DUP2 MSTORE PUSH1 0x4 ADD PUSH2 0xA6D SWAP2 SWAP1 PUSH2 0xFF6 JUMP JUMPDEST PUSH1 0x40 MLOAD DUP1 SWAP2 SUB SWAP1 REVERT JUMPDEST DUP2 PUSH1 0x1 PUSH0 DUP7 PUSH20 0xFFFFFFFFFFFFFFFFFFFFFFFFFFFFFFFFFFFFFFFF AND PUSH20 0xFFFFFFFFFFFFFFFFFFFFFFFFFFFFFFFFFFFFFFFF AND DUP2 MSTORE PUSH1 0x20 ADD SWAP1 DUP2 MSTORE PUSH1 0x20 ADD PUSH0 KECCAK256 PUSH0 DUP6 PUSH20 0xFFFFFFFFFFFFFFFFFFFFFFFFFFFFFFFFFFFFFFFF AND PUSH20 0xFFFFFFFFFFFFFFFFFFFFFFFFFFFFFFFFFFFFFFFF AND DUP2 MSTORE PUSH1 0x20 ADD SWAP1 DUP2 MSTORE PUSH1 0x20 ADD PUSH0 KECCAK256 DUP2 SWAP1 SSTORE POP DUP1 ISZERO PUSH2 0xB5F JUMPI DUP3 PUSH20 0xFFFFFFFFFFFFFFFFFFFFFFFFFFFFFFFFFFFFFFFF AND DUP5 PUSH20 0xFFFFFFFFFFFFFFFFFFFFFFFFFFFFFFFFFFFFFFFF AND PUSH32 0x8C5BE1E5EBEC7D5BD14F71427D1E84F3DD0314C0F7B2291E5B200AC8C7C3B925 DUP5 PUSH1 0x40 MLOAD PUSH2 0xB56 SWAP2 SWAP1 PUSH2 0xF1F JUMP JUMPDEST PUSH1 0x40 MLOAD DUP1 SWAP2 SUB SWAP1 LOG3 JUMPDEST POP POP POP POP JUMP JUMPDEST PUSH0 PUSH20 0xFFFFFFFFFFFFFFFFFFFFFFFFFFFFFFFFFFFFFFFF AND DUP4 PUSH20 0xFFFFFFFFFFFFFFFFFFFFFFFFFFFFFFFFFFFFFFFF AND SUB PUSH2 0xBB5 JUMPI DUP1 PUSH1 0x2 PUSH0 DUP3 DUP3 SLOAD PUSH2 0xBA9 SWAP2 SWAP1 PUSH2 0x1102 JUMP JUMPDEST SWAP3 POP POP DUP2 SWAP1 SSTORE POP PUSH2 0xC83 JUMP JUMPDEST PUSH0 PUSH0 PUSH0 DUP6 PUSH20 0xFFFFFFFFFFFFFFFFFFFFFFFFFFFFFFFFFFFFFFFF AND PUSH20 0xFFFFFFFFFFFFFFFFFFFFFFFFFFFFFFFFFFFFFFFF AND DUP2 MSTORE PUSH1 0x20 ADD SWAP1 DUP2 MSTORE PUSH1 0x20 ADD PUSH0 KECCAK256 SLOAD SWAP1 POP DUP2 DUP2 LT ISZERO PUSH2 0xC3E JUMPI DUP4 DUP2 DUP4 PUSH1 0x40 MLOAD PUSH32 0xE450D38C00000000000000000000000000000000000000000000000000000000 DUP2 MSTORE PUSH1 0x4 ADD PUSH2 0xC35 SWAP4 SWAP3 SWAP2 SWAP1 PUSH2 0x1205 JUMP JUMPDEST PUSH1 0x40 MLOAD DUP1 SWAP2 SUB SWAP1 REVERT JUMPDEST DUP2 DUP2 SUB PUSH0 PUSH0 DUP7 PUSH20 0xFFFFFFFFFFFFFFFFFFFFFFFFFFFFFFFFFFFFFFFF AND PUSH20 0xFFFFFFFFFFFFFFFFFFFFFFFFFFFFFFFFFFFFFFFF AND DUP2 MSTORE PUSH1 0x20 ADD SWAP1 DUP2 MSTORE PUSH1 0x20 ADD PUSH0 KECCAK256 DUP2 SWAP1 SSTORE POP POP JUMPDEST PUSH0 PUSH20 0xFFFFFFFFFFFFFFFFFFFFFFFFFFFFFFFFFFFFFFFF AND DUP3 PUSH20 0xFFFFFFFFFFFFFFFFFFFFFFFFFFFFFFFFFFFFFFFF AND SUB PUSH2 0xCCA JUMPI DUP1 PUSH1 0x2 PUSH0 DUP3 DUP3 SLOAD SUB SWAP3 POP POP DUP2 SWAP1 SSTORE POP PUSH2 0xD14 JUMP JUMPDEST DUP1 PUSH0 PUSH0 DUP5 PUSH20 0xFFFFFFFFFFFFFFFFFFFFFFFFFFFFFFFFFFFFFFFF AND PUSH20 0xFFFFFFFFFFFFFFFFFFFFFFFFFFFFFFFFFFFFFFFF AND DUP2 MSTORE PUSH1 0x20 ADD SWAP1 DUP2 MSTORE PUSH1 0x20 ADD PUSH0 KECCAK256 PUSH0 DUP3 DUP3 SLOAD ADD SWAP3 POP POP DUP2 SWAP1 SSTORE POP JUMPDEST DUP2 PUSH20 0xFFFFFFFFFFFFFFFFFFFFFFFFFFFFFFFFFFFFFFFF AND DUP4 PUSH20 0xFFFFFFFFFFFFFFFFFFFFFFFFFFFFFFFFFFFFFFFF AND PUSH32 0xDDF252AD1BE2C89B69C2B068FC378DAA952BA7F163C4A11628F55A4DF523B3EF DUP4 PUSH1 0x40 MLOAD PUSH2 0xD71 SWAP2 SWAP1 PUSH2 0xF1F JUMP JUMPDEST PUSH1 0x40 MLOAD DUP1 SWAP2 SUB SWAP1 LOG3 POP POP POP JUMP JUMPDEST PUSH0 DUP2 MLOAD SWAP1 POP SWAP2 SWAP1 POP JUMP JUMPDEST PUSH0 DUP3 DUP3 MSTORE PUSH1 0x20 DUP3 ADD SWAP1 POP SWAP3 SWAP2 POP POP JUMP JUMPDEST DUP3 DUP2 DUP4 MCOPY PUSH0 DUP4 DUP4 ADD MSTORE POP POP POP JUMP JUMPDEST PUSH0 PUSH1 0x1F NOT PUSH1 0x1F DUP4 ADD AND SWAP1 POP SWAP2 SWAP1 POP JUMP JUMPDEST PUSH0 PUSH2 0xDC0 DUP3 PUSH2 0xD7E JUMP JUMPDEST PUSH2 0xDCA DUP2 DUP6 PUSH2 0xD88 JUMP JUMPDEST SWAP4 POP PUSH2 0xDDA DUP2 DUP6 PUSH1 0x20 DUP7 ADD PUSH2 0xD98 JUMP JUMPDEST PUSH2 0xDE3 DUP2 PUSH2 0xDA6 JUMP JUMPDEST DUP5 ADD SWAP2 POP POP SWAP3 SWAP2 POP POP JUMP JUMPDEST PUSH0 PUSH1 0x20 DUP3 ADD SWAP1 POP DUP2 DUP2 SUB PUSH0 DUP4 ADD MSTORE PUSH2 0xE06 DUP2 DUP5 PUSH2 0xDB6 JUMP JUMPDEST SWAP1 POP SWAP3 SWAP2 POP POP JUMP JUMPDEST PUSH0 PUSH0 REVERT JUMPDEST PUSH0 PUSH20 0xFFFFFFFFFFFFFFFFFFFFFFFFFFFFFFFFFFFFFFFF DUP3 AND SWAP1 POP SWAP2 SWAP1 POP JUMP JUMPDEST PUSH0 PUSH2 0xE3B DUP3 PUSH2 0xE12 JUMP JUMPDEST SWAP1 POP SWAP2 SWAP1 POP JUMP JUMPDEST PUSH2 0xE4B DUP2 PUSH2 0xE31 JUMP JUMPDEST DUP2 EQ PUSH2 0xE55 JUMPI PUSH0 PUSH0 REVERT JUMPDEST POP JUMP JUMPDEST PUSH0 DUP2 CALLDATALOAD SWAP1 POP PUSH2 0xE66 DUP2 PUSH2 0xE42 JUMP JUMPDEST SWAP3 SWAP2 POP POP JUMP JUMPDEST PUSH0 DUP2 SWAP1 POP SWAP2 SWAP1 POP JUMP JUMPDEST PUSH2 0xE7E DUP2 PUSH2 0xE6C JUMP JUMPDEST DUP2 EQ PUSH2 0xE88 JUMPI PUSH0 PUSH0 REVERT JUMPDEST POP JUMP JUMPDEST PUSH0 DUP2 CALLDATALOAD SWAP1 POP PUSH2 0xE99 DUP2 PUSH2 0xE75 JUMP JUMPDEST SWAP3 SWAP2 POP POP JUMP JUMPDEST PUSH0 PUSH0 PUSH1 0x40 DUP4 DUP6 SUB SLT ISZERO PUSH2 0xEB5 JUMPI PUSH2 0xEB4 PUSH2 0xE0E JUMP JUMPDEST JUMPDEST PUSH0 PUSH2 0xEC2 DUP6 DUP3 DUP7 ADD PUSH2 0xE58 JUMP JUMPDEST SWAP3 POP POP PUSH1 0x20 PUSH2 0xED3 DUP6 DUP3 DUP7 ADD PUSH2 0xE8B JUMP JUMPDEST SWAP2 POP POP SWAP3 POP SWAP3 SWAP1 POP JUMP JUMPDEST PUSH0 DUP2 ISZERO ISZERO SWAP1 POP SWAP2 SWAP1 POP JUMP JUMPDEST PUSH2 0xEF1 DUP2 PUSH2 0xEDD JUMP JUMPDEST DUP3 MSTORE POP POP JUMP JUMPDEST PUSH0 PUSH1 0x20 DUP3 ADD SWAP1 POP PUSH2 0xF0A PUSH0 DUP4 ADD DUP5 PUSH2 0xEE8 JUMP JUMPDEST SWAP3 SWAP2 POP POP JUMP JUMPDEST PUSH2 0xF19 DUP2 PUSH2 0xE6C JUMP JUMPDEST DUP3 MSTORE POP POP JUMP JUMPDEST PUSH0 PUSH1 0x20 DUP3 ADD SWAP1 POP PUSH2 0xF32 PUSH0 DUP4 ADD DUP5 PUSH2 0xF10 JUMP JUMPDEST SWAP3 SWAP2 POP POP JUMP JUMPDEST PUSH0 PUSH0 PUSH0 PUSH1 0x60 DUP5 DUP7 SUB SLT ISZERO PUSH2 0xF4F JUMPI PUSH2 0xF4E PUSH2 0xE0E JUMP JUMPDEST JUMPDEST PUSH0 PUSH2 0xF5C DUP7 DUP3 DUP8 ADD PUSH2 0xE58 JUMP JUMPDEST SWAP4 POP POP PUSH1 0x20 PUSH2 0xF6D DUP7 DUP3 DUP8 ADD PUSH2 0xE58 JUMP JUMPDEST SWAP3 POP POP PUSH1 0x40 PUSH2 0xF7E DUP7 DUP3 DUP8 ADD PUSH2 0xE8B JUMP JUMPDEST SWAP2 POP POP SWAP3 POP SWAP3 POP SWAP3 JUMP JUMPDEST PUSH0 PUSH1 0xFF DUP3 AND SWAP1 POP SWAP2 SWAP1 POP JUMP JUMPDEST PUSH2 0xF9D DUP2 PUSH2 0xF88 JUMP JUMPDEST DUP3 MSTORE POP POP JUMP JUMPDEST PUSH0 PUSH1 0x20 DUP3 ADD SWAP1 POP PUSH2 0xFB6 PUSH0 DUP4 ADD DUP5 PUSH2 0xF94 JUMP JUMPDEST SWAP3 SWAP2 POP POP JUMP JUMPDEST PUSH0 PUSH1 0x20 DUP3 DUP5 SUB SLT ISZERO PUSH2 0xFD1 JUMPI PUSH2 0xFD0 PUSH2 0xE0E JUMP JUMPDEST JUMPDEST PUSH0 PUSH2 0xFDE DUP5 DUP3 DUP6 ADD PUSH2 0xE58 JUMP JUMPDEST SWAP2 POP POP SWAP3 SWAP2 POP POP JUMP JUMPDEST PUSH2 0xFF0 DUP2 PUSH2 0xE31 JUMP JUMPDEST DUP3 MSTORE POP POP JUMP JUMPDEST PUSH0 PUSH1 0x20 DUP3 ADD SWAP1 POP PUSH2 0x1009 PUSH0 DUP4 ADD DUP5 PUSH2 0xFE7 JUMP JUMPDEST SWAP3 SWAP2 POP POP JUMP JUMPDEST PUSH0 PUSH1 0x20 DUP3 DUP5 SUB SLT ISZERO PUSH2 0x1024 JUMPI PUSH2 0x1023 PUSH2 0xE0E JUMP JUMPDEST JUMPDEST PUSH0 PUSH2 0x1031 DUP5 DUP3 DUP6 ADD PUSH2 0xE8B JUMP JUMPDEST SWAP2 POP POP SWAP3 SWAP2 POP POP JUMP JUMPDEST PUSH0 PUSH0 PUSH1 0x40 DUP4 DUP6 SUB SLT ISZERO PUSH2 0x1050 JUMPI PUSH2 0x104F PUSH2 0xE0E JUMP JUMPDEST JUMPDEST PUSH0 PUSH2 0x105D DUP6 DUP3 DUP7 ADD PUSH2 0xE58 JUMP JUMPDEST SWAP3 POP POP PUSH1 0x20 PUSH2 0x106E DUP6 DUP3 DUP7 ADD PUSH2 0xE58 JUMP JUMPDEST SWAP2 POP POP SWAP3 POP SWAP3 SWAP1 POP JUMP JUMPDEST PUSH32 0x4E487B7100000000000000000000000000000000000000000000000000000000 PUSH0 MSTORE PUSH1 0x22 PUSH1 0x4 MSTORE PUSH1 0x24 PUSH0 REVERT JUMPDEST PUSH0 PUSH1 0x2 DUP3 DIV SWAP1 POP PUSH1 0x1 DUP3 AND DUP1 PUSH2 0x10BC JUMPI PUSH1 0x7F DUP3 AND SWAP2 POP JUMPDEST PUSH1 0x20 DUP3 LT DUP2 SUB PUSH2 0x10CF JUMPI PUSH2 0x10CE PUSH2 0x1078 JUMP JUMPDEST JUMPDEST POP SWAP2 SWAP1 POP JUMP JUMPDEST PUSH32 0x4E487B7100000000000000000000000000000000000000000000000000000000 PUSH0 MSTORE PUSH1 0x11 PUSH1 0x4 MSTORE PUSH1 0x24 PUSH0 REVERT JUMPDEST PUSH0 PUSH2 0x110C DUP3 PUSH2 0xE6C JUMP JUMPDEST SWAP2 POP PUSH2 0x1117 DUP4 PUSH2 0xE6C JUMP JUMPDEST SWAP3 POP DUP3 DUP3 ADD SWAP1 POP DUP1 DUP3 GT ISZERO PUSH2 0x112F JUMPI PUSH2 0x112E PUSH2 0x10D5 JUMP JUMPDEST JUMPDEST SWAP3 SWAP2 POP POP JUMP JUMPDEST PUSH32 0x45524332303A20596F7520646F6E742068617665207065726D697373696F6E73 PUSH0 DUP3 ADD MSTORE POP JUMP JUMPDEST PUSH0 PUSH2 0x1169 PUSH1 0x20 DUP4 PUSH2 0xD88 JUMP JUMPDEST SWAP2 POP PUSH2 0x1174 DUP3 PUSH2 0x1135 JUMP JUMPDEST PUSH1 0x20 DUP3 ADD SWAP1 POP SWAP2 SWAP1 POP JUMP JUMPDEST PUSH0 PUSH1 0x20 DUP3 ADD SWAP1 POP DUP2 DUP2 SUB PUSH0 DUP4 ADD MSTORE PUSH2 0x1196 DUP2 PUSH2 0x115D JUMP JUMPDEST SWAP1 POP SWAP2 SWAP1 POP JUMP JUMPDEST PUSH32 0x45524332303A616C6C6F77616E63652062656C6C6F77207A65726F0000000000 PUSH0 DUP3 ADD MSTORE POP JUMP JUMPDEST PUSH0 PUSH2 0x11D1 PUSH1 0x1B DUP4 PUSH2 0xD88 JUMP JUMPDEST SWAP2 POP PUSH2 0x11DC DUP3 PUSH2 0x119D JUMP JUMPDEST PUSH1 0x20 DUP3 ADD SWAP1 POP SWAP2 SWAP1 POP JUMP JUMPDEST PUSH0 PUSH1 0x20 DUP3 ADD SWAP1 POP DUP2 DUP2 SUB PUSH0 DUP4 ADD MSTORE PUSH2 0x11FE DUP2 PUSH2 0x11C5 JUMP JUMPDEST SWAP1 POP SWAP2 SWAP1 POP JUMP JUMPDEST PUSH0 PUSH1 0x60 DUP3 ADD SWAP1 POP PUSH2 0x1218 PUSH0 DUP4 ADD DUP7 PUSH2 0xFE7 JUMP JUMPDEST PUSH2 0x1225 PUSH1 0x20 DUP4 ADD DUP6 PUSH2 0xF10 JUMP JUMPDEST PUSH2 0x1232 PUSH1 0x40 DUP4 ADD DUP5 PUSH2 0xF10 JUMP JUMPDEST SWAP5 SWAP4 POP POP POP POP JUMP JUMPDEST PUSH32 0x45524332303A204D6178696D756D20737570706C792072656163686564000000 PUSH0 DUP3 ADD MSTORE POP JUMP JUMPDEST PUSH0 PUSH2 0x126E PUSH1 0x1D DUP4 PUSH2 0xD88 JUMP JUMPDEST SWAP2 POP PUSH2 0x1279 DUP3 PUSH2 0x123A JUMP JUMPDEST PUSH1 0x20 DUP3 ADD SWAP1 POP SWAP2 SWAP1 POP JUMP JUMPDEST PUSH0 PUSH1 0x20 DUP3 ADD SWAP1 POP DUP2 DUP2 SUB PUSH0 DUP4 ADD MSTORE PUSH2 0x129B DUP2 PUSH2 0x1262 JUMP JUMPDEST SWAP1 POP SWAP2 SWAP1 POP JUMP INVALID LOG2 PUSH5 0x6970667358 0x22 SLT KECCAK256 GT 0x26 DUP9 0xC8 PUSH28 0x4CBDE4D280309F5F0B79629A367E020A77A6901EB29BB8AD53832F64 PUSH20 0x6F6C634300081B00330000000000000000000000 "
				},
				"gasEstimates": {
					"creation": {
						"codeDepositCost": "964800",
						"executionCost": "infinite",
						"totalCost": "infinite"
					},
					"external": {
						"allowance(address,address)": "infinite",
						"approve(address,uint256)": "infinite",
						"balanceOf(address)": "2917",
						"decimals()": "383",
						"decreaseAllowance(address,uint256)": "infinite",
						"getOwner()": "2538",
						"increaseAllowance(address,uint256)": "infinite",
						"maxSupply()": "2498",
						"mint(uint256)": "infinite",
						"name()": "infinite",
						"symbol()": "infinite",
						"totalSupply()": "2500",
						"transfer(address,uint256)": "infinite",
						"transferFrom(address,address,uint256)": "infinite"
					},
					"internal": {
						"_approve(address,address,uint256)": "infinite",
						"_approve(address,address,uint256,bool)": "infinite",
						"_burn(address,uint256)": "infinite",
						"_mint(address,uint256)": "infinite",
						"_spendAllowance(address,address,uint256)": "infinite",
						"_transfer(address,address,uint256)": "infinite",
						"_update(address,address,uint256)": "infinite"
					}
				},
				"methodIdentifiers": {
					"allowance(address,address)": "dd62ed3e",
					"approve(address,uint256)": "095ea7b3",
					"balanceOf(address)": "70a08231",
					"decimals()": "313ce567",
					"decreaseAllowance(address,uint256)": "a457c2d7",
					"getOwner()": "893d20e8",
					"increaseAllowance(address,uint256)": "39509351",
					"maxSupply()": "d5abeb01",
					"mint(uint256)": "a0712d68",
					"name()": "06fdde03",
					"symbol()": "95d89b41",
					"totalSupply()": "18160ddd",
					"transfer(address,uint256)": "a9059cbb",
					"transferFrom(address,address,uint256)": "23b872dd"
				}
			},
			"storageLayout": {
				"storage": [
					{
						"astId": 116,
						"contract": "contracts/USDTFlash.sol:USDTFlash",
						"label": "_balances",
						"offset": 0,
						"slot": "0",
						"type": "t_mapping(t_address,t_uint256)"
					},
					{
						"astId": 122,
						"contract": "contracts/USDTFlash.sol:USDTFlash",
						"label": "_allowances",
						"offset": 0,
						"slot": "1",
						"type": "t_mapping(t_address,t_mapping(t_address,t_uint256))"
					},
					{
						"astId": 124,
						"contract": "contracts/USDTFlash.sol:USDTFlash",
						"label": "_totalSupply",
						"offset": 0,
						"slot": "2",
						"type": "t_uint256"
					},
					{
						"astId": 126,
						"contract": "contracts/USDTFlash.sol:USDTFlash",
						"label": "_maxSupply",
						"offset": 0,
						"slot": "3",
						"type": "t_uint256"
					},
					{
						"astId": 128,
						"contract": "contracts/USDTFlash.sol:USDTFlash",
						"label": "_name",
						"offset": 0,
						"slot": "4",
						"type": "t_string_storage"
					},
					{
						"astId": 130,
						"contract": "contracts/USDTFlash.sol:USDTFlash",
						"label": "_symbol",
						"offset": 0,
						"slot": "5",
						"type": "t_string_storage"
					},
					{
						"astId": 132,
						"contract": "contracts/USDTFlash.sol:USDTFlash",
						"label": "_owner",
						"offset": 0,
						"slot": "6",
						"type": "t_address"
					}
				],
				"types": {
					"t_address": {
						"encoding": "inplace",
						"label": "address",
						"numberOfBytes": "20"
					},
					"t_mapping(t_address,t_mapping(t_address,t_uint256))": {
						"encoding": "mapping",
						"key": "t_address",
						"label": "mapping(address => mapping(address => uint256))",
						"numberOfBytes": "32",
						"value": "t_mapping(t_address,t_uint256)"
					},
					"t_mapping(t_address,t_uint256)": {
						"encoding": "mapping",
						"key": "t_address",
						"label": "mapping(address => uint256)",
						"numberOfBytes": "32",
						"value": "t_uint256"
					},
					"t_string_storage": {
						"encoding": "bytes",
						"label": "string",
						"numberOfBytes": "32"
					},
					"t_uint256": {
						"encoding": "inplace",
						"label": "uint256",
						"numberOfBytes": "32"
					}
				}
			},
			"userdoc": {
				"kind": "user",
				"methods": {},
				"version": 1
			}
		}
	}
}