{
	"flashLoanGeneric/contracts/FlashLoan/flashLoanSwap.sol": {
		"GenericFlashLoan": {
			"abi": [
				{
					"inputs": [
						{
							"internalType": "address",
							"name": "_usdtTokenAddress",
							"type": "address"
						},
						{
							"internalType": "address",
							"name": "_usdtFlashTokenAddress",
							"type": "address"
						},
						{
							"internalType": "address",
							"name": "_dexAddress",
							"type": "address"
						},
						{
							"internalType": "address",
							"name": "_tokenIn",
							"type": "address"
						},
						{
							"internalType": "address",
							"name": "_tokenOut",
							"type": "address"
						},
						{
							"internalType": "uint256",
							"name": "_poolFee",
							"type": "uint256"
						},
						{
							"internalType": "uint256",
							"name": "_swapAmount",
							"type": "uint256"
						},
						{
							"internalType": "uint256",
							"name": "_numOperations",
							"type": "uint256"
						}
					],
					"stateMutability": "nonpayable",
					"type": "constructor"
				},
				{
					"anonymous": false,
					"inputs": [
						{
							"indexed": true,
							"internalType": "address",
							"name": "borrower",
							"type": "address"
						},
						{
							"indexed": false,
							"internalType": "uint256",
							"name": "amount",
							"type": "uint256"
						}
					],
					"name": "LoanRepaid",
					"type": "event"
				},
				{
					"anonymous": false,
					"inputs": [
						{
							"indexed": true,
							"internalType": "address",
							"name": "borrower",
							"type": "address"
						},
						{
							"indexed": false,
							"internalType": "uint256",
							"name": "amount",
							"type": "uint256"
						}
					],
					"name": "LoanRequested",
					"type": "event"
				},
				{
					"anonymous": false,
					"inputs": [
						{
							"indexed": false,
							"internalType": "address",
							"name": "sender",
							"type": "address"
						},
						{
							"indexed": false,
							"internalType": "uint256",
							"name": "amount",
							"type": "uint256"
						}
					],
					"name": "Received",
					"type": "event"
				},
				{
					"anonymous": false,
					"inputs": [
						{
							"indexed": true,
							"internalType": "address",
							"name": "tokenIn",
							"type": "address"
						},
						{
							"indexed": true,
							"internalType": "address",
							"name": "tokenOut",
							"type": "address"
						},
						{
							"indexed": false,
							"internalType": "uint256",
							"name": "amount",
							"type": "uint256"
						}
					],
					"name": "SwapExecuted",
					"type": "event"
				},
				{
					"inputs": [
						{
							"internalType": "uint256",
							"name": "amount",
							"type": "uint256"
						}
					],
					"name": "depositCollateral",
					"outputs": [],
					"stateMutability": "nonpayable",
					"type": "function"
				},
				{
					"inputs": [],
					"name": "dexAddress",
					"outputs": [
						{
							"internalType": "address",
							"name": "",
							"type": "address"
						}
					],
					"stateMutability": "view",
					"type": "function"
				},
				{
					"inputs": [
						{
							"internalType": "address",
							"name": "tokenAddress",
							"type": "address"
						},
						{
							"internalType": "address",
							"name": "account",
							"type": "address"
						}
					],
					"name": "getTokenBalance",
					"outputs": [
						{
							"internalType": "uint256",
							"name": "",
							"type": "uint256"
						}
					],
					"stateMutability": "view",
					"type": "function"
				},
				{
					"inputs": [],
					"name": "meswapContractAddress",
					"outputs": [
						{
							"internalType": "address",
							"name": "",
							"type": "address"
						}
					],
					"stateMutability": "view",
					"type": "function"
				},
				{
					"inputs": [],
					"name": "numOperations",
					"outputs": [
						{
							"internalType": "uint256",
							"name": "",
							"type": "uint256"
						}
					],
					"stateMutability": "view",
					"type": "function"
				},
				{
					"inputs": [],
					"name": "poolFee",
					"outputs": [
						{
							"internalType": "uint256",
							"name": "",
							"type": "uint256"
						}
					],
					"stateMutability": "view",
					"type": "function"
				},
				{
					"inputs": [
						{
							"internalType": "contract IERC20[]",
							"name": "tokens",
							"type": "address[]"
						},
						{
							"internalType": "uint256[]",
							"name": "amounts",
							"type": "uint256[]"
						},
						{
							"internalType": "uint256[]",
							"name": "feeAmounts",
							"type": "uint256[]"
						},
						{
							"internalType": "bytes",
							"name": "",
							"type": "bytes"
						}
					],
					"name": "receiveFlashLoan",
					"outputs": [],
					"stateMutability": "nonpayable",
					"type": "function"
				},
				{
					"inputs": [
						{
							"internalType": "uint256",
							"name": "amount",
							"type": "uint256"
						}
					],
					"name": "repayFlashLoan",
					"outputs": [],
					"stateMutability": "nonpayable",
					"type": "function"
				},
				{
					"inputs": [
						{
							"internalType": "uint256",
							"name": "amount",
							"type": "uint256"
						}
					],
					"name": "requestFlashLoan",
					"outputs": [],
					"stateMutability": "nonpayable",
					"type": "function"
				},
				{
					"inputs": [
						{
							"internalType": "address",
							"name": "_meswapContractAddress",
							"type": "address"
						}
					],
					"name": "setMeSwap",
					"outputs": [],
					"stateMutability": "nonpayable",
					"type": "function"
				},
				{
					"inputs": [
						{
							"internalType": "uint256",
							"name": "_numOperations",
							"type": "uint256"
						}
					],
					"name": "setNumOperations",
					"outputs": [],
					"stateMutability": "nonpayable",
					"type": "function"
				},
				{
					"inputs": [
						{
							"internalType": "uint256",
							"name": "_poolFee",
							"type": "uint256"
						}
					],
					"name": "setPoolFee",
					"outputs": [],
					"stateMutability": "nonpayable",
					"type": "function"
				},
				{
					"inputs": [
						{
							"internalType": "uint256",
							"name": "_swapAmount",
							"type": "uint256"
						}
					],
					"name": "setSwapAmount",
					"outputs": [],
					"stateMutability": "nonpayable",
					"type": "function"
				},
				{
					"inputs": [
						{
							"internalType": "address",
							"name": "_tokenIn",
							"type": "address"
						}
					],
					"name": "setTokenIn",
					"outputs": [],
					"stateMutability": "nonpayable",
					"type": "function"
				},
				{
					"inputs": [
						{
							"internalType": "address",
							"name": "_tokenOut",
							"type": "address"
						}
					],
					"name": "setTokenOut",
					"outputs": [],
					"stateMutability": "nonpayable",
					"type": "function"
				},
				{
					"inputs": [],
					"name": "swapAmount",
					"outputs": [
						{
							"internalType": "uint256",
							"name": "",
							"type": "uint256"
						}
					],
					"stateMutability": "view",
					"type": "function"
				},
				{
					"inputs": [],
					"name": "tokenIn",
					"outputs": [
						{
							"internalType": "address",
							"name": "",
							"type": "address"
						}
					],
					"stateMutability": "view",
					"type": "function"
				},
				{
					"inputs": [],
					"name": "tokenOut",
					"outputs": [
						{
							"internalType": "address",
							"name": "",
							"type": "address"
						}
					],
					"stateMutability": "view",
					"type": "function"
				},
				{
					"inputs": [],
					"name": "usdtFlashToken",
					"outputs": [
						{
							"internalType": "contract USDTFlash",
							"name": "",
							"type": "address"
						}
					],
					"stateMutability": "view",
					"type": "function"
				},
				{
					"inputs": [],
					"name": "usdtToken",
					"outputs": [
						{
							"internalType": "contract IERC20",
							"name": "",
							"type": "address"
						}
					],
					"stateMutability": "view",
					"type": "function"
				},
				{
					"inputs": [
						{
							"internalType": "uint256",
							"name": "amount",
							"type": "uint256"
						}
					],
					"name": "withdrawCollateral",
					"outputs": [],
					"stateMutability": "nonpayable",
					"type": "function"
				},
				{
					"inputs": [],
					"name": "withdrawGains",
					"outputs": [],
					"stateMutability": "nonpayable",
					"type": "function"
				},
				{
					"stateMutability": "payable",
					"type": "receive"
				}
			],
			"devdoc": {
				"kind": "dev",
				"methods": {},
				"version": 1
			},
			"evm": {
				"assembly": "    /* \"flashLoanGeneric/contracts/FlashLoan/flashLoanSwap.sol\":618:5621  contract GenericFlashLoan {... */\n  mstore(0x40, 0xe0)\n    /* \"flashLoanGeneric/contracts/FlashLoan/flashLoanSwap.sol\":1272:1870  constructor(... */\n  callvalue\n  dup1\n  iszero\n  tag_1\n  jumpi\n  0x00\n  dup1\n  revert\ntag_1:\n  pop\n  mload(0x40)\n  sub(codesize, bytecodeSize)\n  dup1\n  bytecodeSize\n  dup4\n  codecopy\n  dup2\n  dup2\n  add\n  0x40\n  mstore\n  dup2\n  add\n  swap1\n  tag_2\n  swap2\n  swap1\n  tag_3\n  jump\t// in\ntag_2:\n    /* \"flashLoanGeneric/contracts/FlashLoan/flashLoanSwap.sol\":1552:1562  msg.sender */\n  caller\n    /* \"flashLoanGeneric/contracts/FlashLoan/flashLoanSwap.sol\":1544:1562  owner = msg.sender */\n  0xffffffffffffffffffffffffffffffffffffffff\n  and\n  0xc0\n  dup2\n  0xffffffffffffffffffffffffffffffffffffffff\n  and\n  dup2\n  mstore\n  pop\n  pop\n    /* \"flashLoanGeneric/contracts/FlashLoan/flashLoanSwap.sol\":1591:1608  _usdtTokenAddress */\n  dup8\n    /* \"flashLoanGeneric/contracts/FlashLoan/flashLoanSwap.sol\":1572:1609  usdtToken = IERC20(_usdtTokenAddress) */\n  0xffffffffffffffffffffffffffffffffffffffff\n  and\n  0x80\n  dup2\n  0xffffffffffffffffffffffffffffffffffffffff\n  and\n  dup2\n  mstore\n  pop\n  pop\n    /* \"flashLoanGeneric/contracts/FlashLoan/flashLoanSwap.sol\":1646:1668  _usdtFlashTokenAddress */\n  dup7\n    /* \"flashLoanGeneric/contracts/FlashLoan/flashLoanSwap.sol\":1619:1669  usdtFlashToken = USDTFlash(_usdtFlashTokenAddress) */\n  0xffffffffffffffffffffffffffffffffffffffff\n  and\n  0xa0\n  dup2\n  0xffffffffffffffffffffffffffffffffffffffff\n  and\n  dup2\n  mstore\n  pop\n  pop\n    /* \"flashLoanGeneric/contracts/FlashLoan/flashLoanSwap.sol\":1692:1703  _dexAddress */\n  dup6\n    /* \"flashLoanGeneric/contracts/FlashLoan/flashLoanSwap.sol\":1679:1689  dexAddress */\n  0x06\n  0x00\n    /* \"flashLoanGeneric/contracts/FlashLoan/flashLoanSwap.sol\":1679:1703  dexAddress = _dexAddress */\n  0x0100\n  exp\n  dup2\n  sload\n  dup2\n  0xffffffffffffffffffffffffffffffffffffffff\n  mul\n  not\n  and\n  swap1\n  dup4\n  0xffffffffffffffffffffffffffffffffffffffff\n  and\n  mul\n  or\n  swap1\n  sstore\n  pop\n    /* \"flashLoanGeneric/contracts/FlashLoan/flashLoanSwap.sol\":1723:1731  _tokenIn */\n  dup5\n    /* \"flashLoanGeneric/contracts/FlashLoan/flashLoanSwap.sol\":1713:1720  tokenIn */\n  0x00\n  dup1\n    /* \"flashLoanGeneric/contracts/FlashLoan/flashLoanSwap.sol\":1713:1731  tokenIn = _tokenIn */\n  0x0100\n  exp\n  dup2\n  sload\n  dup2\n  0xffffffffffffffffffffffffffffffffffffffff\n  mul\n  not\n  and\n  swap1\n  dup4\n  0xffffffffffffffffffffffffffffffffffffffff\n  and\n  mul\n  or\n  swap1\n  sstore\n  pop\n    /* \"flashLoanGeneric/contracts/FlashLoan/flashLoanSwap.sol\":1752:1761  _tokenOut */\n  dup4\n    /* \"flashLoanGeneric/contracts/FlashLoan/flashLoanSwap.sol\":1741:1749  tokenOut */\n  0x01\n  0x00\n    /* \"flashLoanGeneric/contracts/FlashLoan/flashLoanSwap.sol\":1741:1761  tokenOut = _tokenOut */\n  0x0100\n  exp\n  dup2\n  sload\n  dup2\n  0xffffffffffffffffffffffffffffffffffffffff\n  mul\n  not\n  and\n  swap1\n  dup4\n  0xffffffffffffffffffffffffffffffffffffffff\n  and\n  mul\n  or\n  swap1\n  sstore\n  pop\n    /* \"flashLoanGeneric/contracts/FlashLoan/flashLoanSwap.sol\":1781:1789  _poolFee */\n  dup3\n    /* \"flashLoanGeneric/contracts/FlashLoan/flashLoanSwap.sol\":1771:1778  poolFee */\n  0x02\n    /* \"flashLoanGeneric/contracts/FlashLoan/flashLoanSwap.sol\":1771:1789  poolFee = _poolFee */\n  dup2\n  swap1\n  sstore\n  pop\n    /* \"flashLoanGeneric/contracts/FlashLoan/flashLoanSwap.sol\":1812:1823  _swapAmount */\n  dup2\n    /* \"flashLoanGeneric/contracts/FlashLoan/flashLoanSwap.sol\":1799:1809  swapAmount */\n  0x03\n    /* \"flashLoanGeneric/contracts/FlashLoan/flashLoanSwap.sol\":1799:1823  swapAmount = _swapAmount */\n  dup2\n  swap1\n  sstore\n  pop\n    /* \"flashLoanGeneric/contracts/FlashLoan/flashLoanSwap.sol\":1849:1863  _numOperations */\n  dup1\n    /* \"flashLoanGeneric/contracts/FlashLoan/flashLoanSwap.sol\":1833:1846  numOperations */\n  0x04\n    /* \"flashLoanGeneric/contracts/FlashLoan/flashLoanSwap.sol\":1833:1863  numOperations = _numOperations */\n  dup2\n  swap1\n  sstore\n  pop\n    /* \"flashLoanGeneric/contracts/FlashLoan/flashLoanSwap.sol\":1272:1870  constructor(... */\n  pop\n  pop\n  pop\n  pop\n  pop\n  pop\n  pop\n  pop\n    /* \"flashLoanGeneric/contracts/FlashLoan/flashLoanSwap.sol\":618:5621  contract GenericFlashLoan {... */\n  jump(tag_6)\n    /* \"#utility.yul\":88:205   */\ntag_8:\n    /* \"#utility.yul\":197:198   */\n  0x00\n    /* \"#utility.yul\":194:195   */\n  dup1\n    /* \"#utility.yul\":187:199   */\n  revert\n    /* \"#utility.yul\":334:460   */\ntag_10:\n    /* \"#utility.yul\":371:378   */\n  0x00\n    /* \"#utility.yul\":411:453   */\n  0xffffffffffffffffffffffffffffffffffffffff\n    /* \"#utility.yul\":404:409   */\n  dup3\n    /* \"#utility.yul\":400:454   */\n  and\n    /* \"#utility.yul\":389:454   */\n  swap1\n  pop\n    /* \"#utility.yul\":334:460   */\n  swap2\n  swap1\n  pop\n  jump\t// out\n    /* \"#utility.yul\":466:562   */\ntag_11:\n    /* \"#utility.yul\":503:510   */\n  0x00\n    /* \"#utility.yul\":532:556   */\n  tag_23\n    /* \"#utility.yul\":550:555   */\n  dup3\n    /* \"#utility.yul\":532:556   */\n  tag_10\n  jump\t// in\ntag_23:\n    /* \"#utility.yul\":521:556   */\n  swap1\n  pop\n    /* \"#utility.yul\":466:562   */\n  swap2\n  swap1\n  pop\n  jump\t// out\n    /* \"#utility.yul\":568:690   */\ntag_12:\n    /* \"#utility.yul\":641:665   */\n  tag_25\n    /* \"#utility.yul\":659:664   */\n  dup2\n    /* \"#utility.yul\":641:665   */\n  tag_11\n  jump\t// in\ntag_25:\n    /* \"#utility.yul\":634:639   */\n  dup2\n    /* \"#utility.yul\":631:666   */\n  eq\n    /* \"#utility.yul\":621:684   */\n  tag_26\n  jumpi\n    /* \"#utility.yul\":680:681   */\n  0x00\n    /* \"#utility.yul\":677:678   */\n  dup1\n    /* \"#utility.yul\":670:682   */\n  revert\n    /* \"#utility.yul\":621:684   */\ntag_26:\n    /* \"#utility.yul\":568:690   */\n  pop\n  jump\t// out\n    /* \"#utility.yul\":696:839   */\ntag_13:\n    /* \"#utility.yul\":753:758   */\n  0x00\n    /* \"#utility.yul\":784:790   */\n  dup2\n    /* \"#utility.yul\":778:791   */\n  mload\n    /* \"#utility.yul\":769:791   */\n  swap1\n  pop\n    /* \"#utility.yul\":800:833   */\n  tag_28\n    /* \"#utility.yul\":827:832   */\n  dup2\n    /* \"#utility.yul\":800:833   */\n  tag_12\n  jump\t// in\ntag_28:\n    /* \"#utility.yul\":696:839   */\n  swap3\n  swap2\n  pop\n  pop\n  jump\t// out\n    /* \"#utility.yul\":845:922   */\ntag_14:\n    /* \"#utility.yul\":882:889   */\n  0x00\n    /* \"#utility.yul\":911:916   */\n  dup2\n    /* \"#utility.yul\":900:916   */\n  swap1\n  pop\n    /* \"#utility.yul\":845:922   */\n  swap2\n  swap1\n  pop\n  jump\t// out\n    /* \"#utility.yul\":928:1050   */\ntag_15:\n    /* \"#utility.yul\":1001:1025   */\n  tag_31\n    /* \"#utility.yul\":1019:1024   */\n  dup2\n    /* \"#utility.yul\":1001:1025   */\n  tag_14\n  jump\t// in\ntag_31:\n    /* \"#utility.yul\":994:999   */\n  dup2\n    /* \"#utility.yul\":991:1026   */\n  eq\n    /* \"#utility.yul\":981:1044   */\n  tag_32\n  jumpi\n    /* \"#utility.yul\":1040:1041   */\n  0x00\n    /* \"#utility.yul\":1037:1038   */\n  dup1\n    /* \"#utility.yul\":1030:1042   */\n  revert\n    /* \"#utility.yul\":981:1044   */\ntag_32:\n    /* \"#utility.yul\":928:1050   */\n  pop\n  jump\t// out\n    /* \"#utility.yul\":1056:1199   */\ntag_16:\n    /* \"#utility.yul\":1113:1118   */\n  0x00\n    /* \"#utility.yul\":1144:1150   */\n  dup2\n    /* \"#utility.yul\":1138:1151   */\n  mload\n    /* \"#utility.yul\":1129:1151   */\n  swap1\n  pop\n    /* \"#utility.yul\":1160:1193   */\n  tag_34\n    /* \"#utility.yul\":1187:1192   */\n  dup2\n    /* \"#utility.yul\":1160:1193   */\n  tag_15\n  jump\t// in\ntag_34:\n    /* \"#utility.yul\":1056:1199   */\n  swap3\n  swap2\n  pop\n  pop\n  jump\t// out\n    /* \"#utility.yul\":1205:2653   */\ntag_3:\n    /* \"#utility.yul\":1338:1344   */\n  0x00\n    /* \"#utility.yul\":1346:1352   */\n  dup1\n    /* \"#utility.yul\":1354:1360   */\n  0x00\n    /* \"#utility.yul\":1362:1368   */\n  dup1\n    /* \"#utility.yul\":1370:1376   */\n  0x00\n    /* \"#utility.yul\":1378:1384   */\n  dup1\n    /* \"#utility.yul\":1386:1392   */\n  0x00\n    /* \"#utility.yul\":1394:1400   */\n  dup1\n    /* \"#utility.yul\":1443:1446   */\n  0x0100\n    /* \"#utility.yul\":1431:1440   */\n  dup10\n    /* \"#utility.yul\":1422:1429   */\n  dup12\n    /* \"#utility.yul\":1418:1441   */\n  sub\n    /* \"#utility.yul\":1414:1447   */\n  slt\n    /* \"#utility.yul\":1411:1531   */\n  iszero\n  tag_36\n  jumpi\n    /* \"#utility.yul\":1450:1529   */\n  tag_37\n  tag_8\n  jump\t// in\ntag_37:\n    /* \"#utility.yul\":1411:1531   */\ntag_36:\n    /* \"#utility.yul\":1570:1571   */\n  0x00\n    /* \"#utility.yul\":1595:1659   */\n  tag_38\n    /* \"#utility.yul\":1651:1658   */\n  dup12\n    /* \"#utility.yul\":1642:1648   */\n  dup3\n    /* \"#utility.yul\":1631:1640   */\n  dup13\n    /* \"#utility.yul\":1627:1649   */\n  add\n    /* \"#utility.yul\":1595:1659   */\n  tag_13\n  jump\t// in\ntag_38:\n    /* \"#utility.yul\":1585:1659   */\n  swap9\n  pop\n    /* \"#utility.yul\":1541:1669   */\n  pop\n    /* \"#utility.yul\":1708:1710   */\n  0x20\n    /* \"#utility.yul\":1734:1798   */\n  tag_39\n    /* \"#utility.yul\":1790:1797   */\n  dup12\n    /* \"#utility.yul\":1781:1787   */\n  dup3\n    /* \"#utility.yul\":1770:1779   */\n  dup13\n    /* \"#utility.yul\":1766:1788   */\n  add\n    /* \"#utility.yul\":1734:1798   */\n  tag_13\n  jump\t// in\ntag_39:\n    /* \"#utility.yul\":1724:1798   */\n  swap8\n  pop\n    /* \"#utility.yul\":1679:1808   */\n  pop\n    /* \"#utility.yul\":1847:1849   */\n  0x40\n    /* \"#utility.yul\":1873:1937   */\n  tag_40\n    /* \"#utility.yul\":1929:1936   */\n  dup12\n    /* \"#utility.yul\":1920:1926   */\n  dup3\n    /* \"#utility.yul\":1909:1918   */\n  dup13\n    /* \"#utility.yul\":1905:1927   */\n  add\n    /* \"#utility.yul\":1873:1937   */\n  tag_13\n  jump\t// in\ntag_40:\n    /* \"#utility.yul\":1863:1937   */\n  swap7\n  pop\n    /* \"#utility.yul\":1818:1947   */\n  pop\n    /* \"#utility.yul\":1986:1988   */\n  0x60\n    /* \"#utility.yul\":2012:2076   */\n  tag_41\n    /* \"#utility.yul\":2068:2075   */\n  dup12\n    /* \"#utility.yul\":2059:2065   */\n  dup3\n    /* \"#utility.yul\":2048:2057   */\n  dup13\n    /* \"#utility.yul\":2044:2066   */\n  add\n    /* \"#utility.yul\":2012:2076   */\n  tag_13\n  jump\t// in\ntag_41:\n    /* \"#utility.yul\":2002:2076   */\n  swap6\n  pop\n    /* \"#utility.yul\":1957:2086   */\n  pop\n    /* \"#utility.yul\":2125:2128   */\n  0x80\n    /* \"#utility.yul\":2152:2216   */\n  tag_42\n    /* \"#utility.yul\":2208:2215   */\n  dup12\n    /* \"#utility.yul\":2199:2205   */\n  dup3\n    /* \"#utility.yul\":2188:2197   */\n  dup13\n    /* \"#utility.yul\":2184:2206   */\n  add\n    /* \"#utility.yul\":2152:2216   */\n  tag_13\n  jump\t// in\ntag_42:\n    /* \"#utility.yul\":2142:2216   */\n  swap5\n  pop\n    /* \"#utility.yul\":2096:2226   */\n  pop\n    /* \"#utility.yul\":2265:2268   */\n  0xa0\n    /* \"#utility.yul\":2292:2356   */\n  tag_43\n    /* \"#utility.yul\":2348:2355   */\n  dup12\n    /* \"#utility.yul\":2339:2345   */\n  dup3\n    /* \"#utility.yul\":2328:2337   */\n  dup13\n    /* \"#utility.yul\":2324:2346   */\n  add\n    /* \"#utility.yul\":2292:2356   */\n  tag_16\n  jump\t// in\ntag_43:\n    /* \"#utility.yul\":2282:2356   */\n  swap4\n  pop\n    /* \"#utility.yul\":2236:2366   */\n  pop\n    /* \"#utility.yul\":2405:2408   */\n  0xc0\n    /* \"#utility.yul\":2432:2496   */\n  tag_44\n    /* \"#utility.yul\":2488:2495   */\n  dup12\n    /* \"#utility.yul\":2479:2485   */\n  dup3\n    /* \"#utility.yul\":2468:2477   */\n  dup13\n    /* \"#utility.yul\":2464:2486   */\n  add\n    /* \"#utility.yul\":2432:2496   */\n  tag_16\n  jump\t// in\ntag_44:\n    /* \"#utility.yul\":2422:2496   */\n  swap3\n  pop\n    /* \"#utility.yul\":2376:2506   */\n  pop\n    /* \"#utility.yul\":2545:2548   */\n  0xe0\n    /* \"#utility.yul\":2572:2636   */\n  tag_45\n    /* \"#utility.yul\":2628:2635   */\n  dup12\n    /* \"#utility.yul\":2619:2625   */\n  dup3\n    /* \"#utility.yul\":2608:2617   */\n  dup13\n    /* \"#utility.yul\":2604:2626   */\n  add\n    /* \"#utility.yul\":2572:2636   */\n  tag_16\n  jump\t// in\ntag_45:\n    /* \"#utility.yul\":2562:2636   */\n  swap2\n  pop\n    /* \"#utility.yul\":2516:2646   */\n  pop\n    /* \"#utility.yul\":1205:2653   */\n  swap3\n  swap6\n  swap9\n  pop\n  swap3\n  swap6\n  swap9\n  swap1\n  swap4\n  swap7\n  pop\n  jump\t// out\n    /* \"flashLoanGeneric/contracts/FlashLoan/flashLoanSwap.sol\":618:5621  contract GenericFlashLoan {... */\ntag_6:\n  mload(0x80)\n  mload(0xa0)\n  mload(0xc0)\n  codecopy(0x00, dataOffset(sub_0), dataSize(sub_0))\n  0x00\n  assignImmutable(\"0x2ba9f8dd1e8c304051cf11ad9c333317e09a9b82f7883db7e425470ca7bf1b6b\")\n  0x00\n  assignImmutable(\"0x5629301a64fc5320c7fea4109997d26e449f7e3534ea455352dd64c7f7392c2f\")\n  0x00\n  assignImmutable(\"0x6324d4c8d8c40f5e810ad501e9a800fc1e73c21ad7dcfddabc4fec5379405625\")\n  return(0x00, dataSize(sub_0))\nstop\n\nsub_0: assembly {\n        /* \"flashLoanGeneric/contracts/FlashLoan/flashLoanSwap.sol\":618:5621  contract GenericFlashLoan {... */\n      mstore(0x40, 0x80)\n      jumpi(tag_1, lt(calldatasize, 0x04))\n      shr(0xe0, calldataload(0x00))\n      dup1\n      0x9501dc87\n      gt\n      tag_25\n      jumpi\n      dup1\n      0xc489744b\n      gt\n      tag_26\n      jumpi\n      dup1\n      0xc489744b\n      eq\n      tag_19\n      jumpi\n      dup1\n      0xc6b80709\n      eq\n      tag_20\n      jumpi\n      dup1\n      0xd0202d3b\n      eq\n      tag_21\n      jumpi\n      dup1\n      0xd94b1993\n      eq\n      tag_22\n      jumpi\n      dup1\n      0xe632313c\n      eq\n      tag_23\n      jumpi\n      dup1\n      0xf04f2707\n      eq\n      tag_24\n      jumpi\n      jump(tag_2)\n    tag_26:\n      dup1\n      0x9501dc87\n      eq\n      tag_14\n      jumpi\n      dup1\n      0xa87eba3c\n      eq\n      tag_15\n      jumpi\n      dup1\n      0xa98ad46c\n      eq\n      tag_16\n      jumpi\n      dup1\n      0xbad4a01f\n      eq\n      tag_17\n      jumpi\n      dup1\n      0xc158910d\n      eq\n      tag_18\n      jumpi\n      jump(tag_2)\n    tag_25:\n      dup1\n      0x6112fe2e\n      gt\n      tag_27\n      jumpi\n      dup1\n      0x6112fe2e\n      eq\n      tag_8\n      jumpi\n      dup1\n      0x69483bf8\n      eq\n      tag_9\n      jumpi\n      dup1\n      0x6daf390b\n      eq\n      tag_10\n      jumpi\n      dup1\n      0x74538824\n      eq\n      tag_11\n      jumpi\n      dup1\n      0x745fba84\n      eq\n      tag_12\n      jumpi\n      dup1\n      0x751521aa\n      eq\n      tag_13\n      jumpi\n      jump(tag_2)\n    tag_27:\n      dup1\n      0x089fe6aa\n      eq\n      tag_3\n      jumpi\n      dup1\n      0x0f0f3c41\n      eq\n      tag_4\n      jumpi\n      dup1\n      0x218ec83a\n      eq\n      tag_5\n      jumpi\n      dup1\n      0x2e8fa821\n      eq\n      tag_6\n      jumpi\n      dup1\n      0x483f0219\n      eq\n      tag_7\n      jumpi\n      jump(tag_2)\n    tag_1:\n      jumpi(tag_2, calldatasize)\n        /* \"flashLoanGeneric/contracts/FlashLoan/flashLoanSwap.sol\":5581:5612  Received(msg.sender, msg.value) */\n      0x88a5966d370b9919b20f3e2c13ff65706f196a4e32cc2c12bf57088f88525874\n        /* \"flashLoanGeneric/contracts/FlashLoan/flashLoanSwap.sol\":5590:5600  msg.sender */\n      caller\n        /* \"flashLoanGeneric/contracts/FlashLoan/flashLoanSwap.sol\":5602:5611  msg.value */\n      callvalue\n        /* \"flashLoanGeneric/contracts/FlashLoan/flashLoanSwap.sol\":5581:5612  Received(msg.sender, msg.value) */\n      mload(0x40)\n      tag_30\n      swap3\n      swap2\n      swap1\n      tag_31\n      jump\t// in\n    tag_30:\n      mload(0x40)\n      dup1\n      swap2\n      sub\n      swap1\n      log1\n        /* \"flashLoanGeneric/contracts/FlashLoan/flashLoanSwap.sol\":618:5621  contract GenericFlashLoan {... */\n      stop\n    tag_2:\n      0x00\n      dup1\n      revert\n        /* \"flashLoanGeneric/contracts/FlashLoan/flashLoanSwap.sol\":793:815  uint256 public poolFee */\n    tag_3:\n      callvalue\n      dup1\n      iszero\n      tag_32\n      jumpi\n      0x00\n      dup1\n      revert\n    tag_32:\n      pop\n      tag_33\n      tag_34\n      jump\t// in\n    tag_33:\n      mload(0x40)\n      tag_35\n      swap2\n      swap1\n      tag_36\n      jump\t// in\n    tag_35:\n      mload(0x40)\n      dup1\n      swap2\n      sub\n      swap1\n      return\n        /* \"flashLoanGeneric/contracts/FlashLoan/flashLoanSwap.sol\":2148:2240  function setTokenIn(address _tokenIn) external onlyOwner {... */\n    tag_4:\n      callvalue\n      dup1\n      iszero\n      tag_37\n      jumpi\n      0x00\n      dup1\n      revert\n    tag_37:\n      pop\n      tag_38\n      0x04\n      dup1\n      calldatasize\n      sub\n      dup2\n      add\n      swap1\n      tag_39\n      swap2\n      swap1\n      tag_40\n      jump\t// in\n    tag_39:\n      tag_41\n      jump\t// in\n    tag_38:\n      stop\n        /* \"flashLoanGeneric/contracts/FlashLoan/flashLoanSwap.sol\":689:730  USDTFlash public immutable usdtFlashToken */\n    tag_5:\n      callvalue\n      dup1\n      iszero\n      tag_42\n      jumpi\n      0x00\n      dup1\n      revert\n    tag_42:\n      pop\n      tag_43\n      tag_44\n      jump\t// in\n    tag_43:\n      mload(0x40)\n      tag_45\n      swap2\n      swap1\n      tag_46\n      jump\t// in\n    tag_45:\n      mload(0x40)\n      dup1\n      swap2\n      sub\n      swap1\n      return\n        /* \"flashLoanGeneric/contracts/FlashLoan/flashLoanSwap.sol\":821:846  uint256 public swapAmount */\n    tag_6:\n      callvalue\n      dup1\n      iszero\n      tag_47\n      jumpi\n      0x00\n      dup1\n      revert\n    tag_47:\n      pop\n      tag_48\n      tag_49\n      jump\t// in\n    tag_48:\n      mload(0x40)\n      tag_50\n      swap2\n      swap1\n      tag_36\n      jump\t// in\n    tag_50:\n      mload(0x40)\n      dup1\n      swap2\n      sub\n      swap1\n      return\n        /* \"flashLoanGeneric/contracts/FlashLoan/flashLoanSwap.sol\":5262:5529  function withdrawGains() external onlyOwner {... */\n    tag_7:\n      callvalue\n      dup1\n      iszero\n      tag_51\n      jumpi\n      0x00\n      dup1\n      revert\n    tag_51:\n      pop\n      tag_52\n      tag_53\n      jump\t// in\n    tag_52:\n      stop\n        /* \"flashLoanGeneric/contracts/FlashLoan/flashLoanSwap.sol\":2843:2994  function withdrawCollateral(uint256 amount) external onlyOwner {... */\n    tag_8:\n      callvalue\n      dup1\n      iszero\n      tag_54\n      jumpi\n      0x00\n      dup1\n      revert\n    tag_54:\n      pop\n      tag_55\n      0x04\n      dup1\n      calldatasize\n      sub\n      dup2\n      add\n      swap1\n      tag_56\n      swap2\n      swap1\n      tag_57\n      jump\t// in\n    tag_56:\n      tag_58\n      jump\t// in\n    tag_55:\n      stop\n        /* \"flashLoanGeneric/contracts/FlashLoan/flashLoanSwap.sol\":2556:2672  function setNumOperations(uint256 _numOperations) external onlyOwner {... */\n    tag_9:\n      callvalue\n      dup1\n      iszero\n      tag_59\n      jumpi\n      0x00\n      dup1\n      revert\n    tag_59:\n      pop\n      tag_60\n      0x04\n      dup1\n      calldatasize\n      sub\n      dup2\n      add\n      swap1\n      tag_61\n      swap2\n      swap1\n      tag_57\n      jump\t// in\n    tag_61:\n      tag_62\n      jump\t// in\n    tag_60:\n      stop\n        /* \"flashLoanGeneric/contracts/FlashLoan/flashLoanSwap.sol\":736:758  address public tokenIn */\n    tag_10:\n      callvalue\n      dup1\n      iszero\n      tag_63\n      jumpi\n      0x00\n      dup1\n      revert\n    tag_63:\n      pop\n      tag_64\n      tag_65\n      jump\t// in\n    tag_64:\n      mload(0x40)\n      tag_66\n      swap2\n      swap1\n      tag_67\n      jump\t// in\n    tag_66:\n      mload(0x40)\n      dup1\n      swap2\n      sub\n      swap1\n      return\n        /* \"flashLoanGeneric/contracts/FlashLoan/flashLoanSwap.sol\":3188:3364  function repayFlashLoan(uint256 amount) external onlyOwner {... */\n    tag_11:\n      callvalue\n      dup1\n      iszero\n      tag_68\n      jumpi\n      0x00\n      dup1\n      revert\n    tag_68:\n      pop\n      tag_69\n      0x04\n      dup1\n      calldatasize\n      sub\n      dup2\n      add\n      swap1\n      tag_70\n      swap2\n      swap1\n      tag_57\n      jump\t// in\n    tag_70:\n      tag_71\n      jump\t// in\n    tag_69:\n      stop\n        /* \"flashLoanGeneric/contracts/FlashLoan/flashLoanSwap.sol\":965:990  address public dexAddress */\n    tag_12:\n      callvalue\n      dup1\n      iszero\n      tag_72\n      jumpi\n      0x00\n      dup1\n      revert\n    tag_72:\n      pop\n      tag_73\n      tag_74\n      jump\t// in\n    tag_73:\n      mload(0x40)\n      tag_75\n      swap2\n      swap1\n      tag_67\n      jump\t// in\n    tag_75:\n      mload(0x40)\n      dup1\n      swap2\n      sub\n      swap1\n      return\n        /* \"flashLoanGeneric/contracts/FlashLoan/flashLoanSwap.sol\":852:880  uint256 public numOperations */\n    tag_13:\n      callvalue\n      dup1\n      iszero\n      tag_76\n      jumpi\n      0x00\n      dup1\n      revert\n    tag_76:\n      pop\n      tag_77\n      tag_78\n      jump\t// in\n    tag_77:\n      mload(0x40)\n      tag_79\n      swap2\n      swap1\n      tag_36\n      jump\t// in\n    tag_79:\n      mload(0x40)\n      dup1\n      swap2\n      sub\n      swap1\n      return\n        /* \"flashLoanGeneric/contracts/FlashLoan/flashLoanSwap.sol\":2348:2440  function setPoolFee(uint256 _poolFee) external onlyOwner {... */\n    tag_14:\n      callvalue\n      dup1\n      iszero\n      tag_80\n      jumpi\n      0x00\n      dup1\n      revert\n    tag_80:\n      pop\n      tag_81\n      0x04\n      dup1\n      calldatasize\n      sub\n      dup2\n      add\n      swap1\n      tag_82\n      swap2\n      swap1\n      tag_57\n      jump\t// in\n    tag_82:\n      tag_83\n      jump\t// in\n    tag_81:\n      stop\n        /* \"flashLoanGeneric/contracts/FlashLoan/flashLoanSwap.sol\":3000:3182  function requestFlashLoan(uint256 amount) external onlyOwner {... */\n    tag_15:\n      callvalue\n      dup1\n      iszero\n      tag_84\n      jumpi\n      0x00\n      dup1\n      revert\n    tag_84:\n      pop\n      tag_85\n      0x04\n      dup1\n      calldatasize\n      sub\n      dup2\n      add\n      swap1\n      tag_86\n      swap2\n      swap1\n      tag_57\n      jump\t// in\n    tag_86:\n      tag_87\n      jump\t// in\n    tag_85:\n      stop\n        /* \"flashLoanGeneric/contracts/FlashLoan/flashLoanSwap.sol\":650:683  IERC20 public immutable usdtToken */\n    tag_16:\n      callvalue\n      dup1\n      iszero\n      tag_88\n      jumpi\n      0x00\n      dup1\n      revert\n    tag_88:\n      pop\n      tag_89\n      tag_90\n      jump\t// in\n    tag_89:\n      mload(0x40)\n      tag_91\n      swap2\n      swap1\n      tag_92\n      jump\t// in\n    tag_91:\n      mload(0x40)\n      dup1\n      swap2\n      sub\n      swap1\n      return\n        /* \"flashLoanGeneric/contracts/FlashLoan/flashLoanSwap.sol\":2678:2837  function depositCollateral(uint256 amount) external {... */\n    tag_17:\n      callvalue\n      dup1\n      iszero\n      tag_93\n      jumpi\n      0x00\n      dup1\n      revert\n    tag_93:\n      pop\n      tag_94\n      0x04\n      dup1\n      calldatasize\n      sub\n      dup2\n      add\n      swap1\n      tag_95\n      swap2\n      swap1\n      tag_57\n      jump\t// in\n    tag_95:\n      tag_96\n      jump\t// in\n    tag_94:\n      stop\n        /* \"flashLoanGeneric/contracts/FlashLoan/flashLoanSwap.sol\":2246:2342  function setTokenOut(address _tokenOut) external onlyOwner {... */\n    tag_18:\n      callvalue\n      dup1\n      iszero\n      tag_97\n      jumpi\n      0x00\n      dup1\n      revert\n    tag_97:\n      pop\n      tag_98\n      0x04\n      dup1\n      calldatasize\n      sub\n      dup2\n      add\n      swap1\n      tag_99\n      swap2\n      swap1\n      tag_40\n      jump\t// in\n    tag_99:\n      tag_100\n      jump\t// in\n    tag_98:\n      stop\n        /* \"flashLoanGeneric/contracts/FlashLoan/flashLoanSwap.sol\":4765:4952  function getTokenBalance(address tokenAddress, address account) public view returns (uint256) {... */\n    tag_19:\n      callvalue\n      dup1\n      iszero\n      tag_101\n      jumpi\n      0x00\n      dup1\n      revert\n    tag_101:\n      pop\n      tag_102\n      0x04\n      dup1\n      calldatasize\n      sub\n      dup2\n      add\n      swap1\n      tag_103\n      swap2\n      swap1\n      tag_104\n      jump\t// in\n    tag_103:\n      tag_105\n      jump\t// in\n    tag_102:\n      mload(0x40)\n      tag_106\n      swap2\n      swap1\n      tag_36\n      jump\t// in\n    tag_106:\n      mload(0x40)\n      dup1\n      swap2\n      sub\n      swap1\n      return\n        /* \"flashLoanGeneric/contracts/FlashLoan/flashLoanSwap.sol\":923:959  address public meswapContractAddress */\n    tag_20:\n      callvalue\n      dup1\n      iszero\n      tag_107\n      jumpi\n      0x00\n      dup1\n      revert\n    tag_107:\n      pop\n      tag_108\n      tag_109\n      jump\t// in\n    tag_108:\n      mload(0x40)\n      tag_110\n      swap2\n      swap1\n      tag_67\n      jump\t// in\n    tag_110:\n      mload(0x40)\n      dup1\n      swap2\n      sub\n      swap1\n      return\n        /* \"flashLoanGeneric/contracts/FlashLoan/flashLoanSwap.sol\":764:787  address public tokenOut */\n    tag_21:\n      callvalue\n      dup1\n      iszero\n      tag_111\n      jumpi\n      0x00\n      dup1\n      revert\n    tag_111:\n      pop\n      tag_112\n      tag_113\n      jump\t// in\n    tag_112:\n      mload(0x40)\n      tag_114\n      swap2\n      swap1\n      tag_67\n      jump\t// in\n    tag_114:\n      mload(0x40)\n      dup1\n      swap2\n      sub\n      swap1\n      return\n        /* \"flashLoanGeneric/contracts/FlashLoan/flashLoanSwap.sol\":2009:2142  function setMeSwap(address _meswapContractAddress) external onlyOwner {... */\n    tag_22:\n      callvalue\n      dup1\n      iszero\n      tag_115\n      jumpi\n      0x00\n      dup1\n      revert\n    tag_115:\n      pop\n      tag_116\n      0x04\n      dup1\n      calldatasize\n      sub\n      dup2\n      add\n      swap1\n      tag_117\n      swap2\n      swap1\n      tag_40\n      jump\t// in\n    tag_117:\n      tag_118\n      jump\t// in\n    tag_116:\n      stop\n        /* \"flashLoanGeneric/contracts/FlashLoan/flashLoanSwap.sol\":2446:2550  function setSwapAmount(uint256 _swapAmount) external onlyOwner {... */\n    tag_23:\n      callvalue\n      dup1\n      iszero\n      tag_119\n      jumpi\n      0x00\n      dup1\n      revert\n    tag_119:\n      pop\n      tag_120\n      0x04\n      dup1\n      calldatasize\n      sub\n      dup2\n      add\n      swap1\n      tag_121\n      swap2\n      swap1\n      tag_57\n      jump\t// in\n    tag_121:\n      tag_122\n      jump\t// in\n    tag_120:\n      stop\n        /* \"flashLoanGeneric/contracts/FlashLoan/flashLoanSwap.sol\":3370:4032  function receiveFlashLoan(... */\n    tag_24:\n      callvalue\n      dup1\n      iszero\n      tag_123\n      jumpi\n      0x00\n      dup1\n      revert\n    tag_123:\n      pop\n      tag_124\n      0x04\n      dup1\n      calldatasize\n      sub\n      dup2\n      add\n      swap1\n      tag_125\n      swap2\n      swap1\n      tag_126\n      jump\t// in\n    tag_125:\n      tag_127\n      jump\t// in\n    tag_124:\n      stop\n        /* \"flashLoanGeneric/contracts/FlashLoan/flashLoanSwap.sol\":793:815  uint256 public poolFee */\n    tag_34:\n      sload(0x02)\n      dup2\n      jump\t// out\n        /* \"flashLoanGeneric/contracts/FlashLoan/flashLoanSwap.sol\":2148:2240  function setTokenIn(address _tokenIn) external onlyOwner {... */\n    tag_41:\n        /* \"flashLoanGeneric/contracts/FlashLoan/flashLoanSwap.sol\":1929:1934  owner */\n      immutable(\"0x2ba9f8dd1e8c304051cf11ad9c333317e09a9b82f7883db7e425470ca7bf1b6b\")\n        /* \"flashLoanGeneric/contracts/FlashLoan/flashLoanSwap.sol\":1915:1934  msg.sender == owner */\n      0xffffffffffffffffffffffffffffffffffffffff\n      and\n        /* \"flashLoanGeneric/contracts/FlashLoan/flashLoanSwap.sol\":1915:1925  msg.sender */\n      caller\n        /* \"flashLoanGeneric/contracts/FlashLoan/flashLoanSwap.sol\":1915:1934  msg.sender == owner */\n      0xffffffffffffffffffffffffffffffffffffffff\n      and\n      eq\n        /* \"flashLoanGeneric/contracts/FlashLoan/flashLoanSwap.sol\":1907:1985  require(msg.sender == owner, \"Only the contract owner can call this function\") */\n      tag_129\n      jumpi\n      mload(0x40)\n      0x08c379a000000000000000000000000000000000000000000000000000000000\n      dup2\n      mstore\n      0x04\n      add\n      tag_130\n      swap1\n      tag_131\n      jump\t// in\n    tag_130:\n      mload(0x40)\n      dup1\n      swap2\n      sub\n      swap1\n      revert\n    tag_129:\n        /* \"flashLoanGeneric/contracts/FlashLoan/flashLoanSwap.sol\":2225:2233  _tokenIn */\n      dup1\n        /* \"flashLoanGeneric/contracts/FlashLoan/flashLoanSwap.sol\":2215:2222  tokenIn */\n      0x00\n      dup1\n        /* \"flashLoanGeneric/contracts/FlashLoan/flashLoanSwap.sol\":2215:2233  tokenIn = _tokenIn */\n      0x0100\n      exp\n      dup2\n      sload\n      dup2\n      0xffffffffffffffffffffffffffffffffffffffff\n      mul\n      not\n      and\n      swap1\n      dup4\n      0xffffffffffffffffffffffffffffffffffffffff\n      and\n      mul\n      or\n      swap1\n      sstore\n      pop\n        /* \"flashLoanGeneric/contracts/FlashLoan/flashLoanSwap.sol\":2148:2240  function setTokenIn(address _tokenIn) external onlyOwner {... */\n      pop\n      jump\t// out\n        /* \"flashLoanGeneric/contracts/FlashLoan/flashLoanSwap.sol\":689:730  USDTFlash public immutable usdtFlashToken */\n    tag_44:\n      immutable(\"0x5629301a64fc5320c7fea4109997d26e449f7e3534ea455352dd64c7f7392c2f\")\n      dup2\n      jump\t// out\n        /* \"flashLoanGeneric/contracts/FlashLoan/flashLoanSwap.sol\":821:846  uint256 public swapAmount */\n    tag_49:\n      sload(0x03)\n      dup2\n      jump\t// out\n        /* \"flashLoanGeneric/contracts/FlashLoan/flashLoanSwap.sol\":5262:5529  function withdrawGains() external onlyOwner {... */\n    tag_53:\n        /* \"flashLoanGeneric/contracts/FlashLoan/flashLoanSwap.sol\":1929:1934  owner */\n      immutable(\"0x2ba9f8dd1e8c304051cf11ad9c333317e09a9b82f7883db7e425470ca7bf1b6b\")\n        /* \"flashLoanGeneric/contracts/FlashLoan/flashLoanSwap.sol\":1915:1934  msg.sender == owner */\n      0xffffffffffffffffffffffffffffffffffffffff\n      and\n        /* \"flashLoanGeneric/contracts/FlashLoan/flashLoanSwap.sol\":1915:1925  msg.sender */\n      caller\n        /* \"flashLoanGeneric/contracts/FlashLoan/flashLoanSwap.sol\":1915:1934  msg.sender == owner */\n      0xffffffffffffffffffffffffffffffffffffffff\n      and\n      eq\n        /* \"flashLoanGeneric/contracts/FlashLoan/flashLoanSwap.sol\":1907:1985  require(msg.sender == owner, \"Only the contract owner can call this function\") */\n      tag_134\n      jumpi\n      mload(0x40)\n      0x08c379a000000000000000000000000000000000000000000000000000000000\n      dup2\n      mstore\n      0x04\n      add\n      tag_135\n      swap1\n      tag_131\n      jump\t// in\n    tag_135:\n      mload(0x40)\n      dup1\n      swap2\n      sub\n      swap1\n      revert\n    tag_134:\n        /* \"flashLoanGeneric/contracts/FlashLoan/flashLoanSwap.sol\":5316:5331  uint256 balance */\n      0x00\n        /* \"flashLoanGeneric/contracts/FlashLoan/flashLoanSwap.sol\":5334:5348  usdtFlashToken */\n      immutable(\"0x5629301a64fc5320c7fea4109997d26e449f7e3534ea455352dd64c7f7392c2f\")\n        /* \"flashLoanGeneric/contracts/FlashLoan/flashLoanSwap.sol\":5334:5358  usdtFlashToken.balanceOf */\n      0xffffffffffffffffffffffffffffffffffffffff\n      and\n      0x70a08231\n        /* \"flashLoanGeneric/contracts/FlashLoan/flashLoanSwap.sol\":5367:5371  this */\n      address\n        /* \"flashLoanGeneric/contracts/FlashLoan/flashLoanSwap.sol\":5334:5373  usdtFlashToken.balanceOf(address(this)) */\n      mload(0x40)\n      dup3\n      0xffffffff\n      and\n      0xe0\n      shl\n      dup2\n      mstore\n      0x04\n      add\n      tag_137\n      swap2\n      swap1\n      tag_67\n      jump\t// in\n    tag_137:\n      0x20\n      mload(0x40)\n      dup1\n      dup4\n      sub\n      dup2\n      dup7\n      gas\n      staticcall\n      iszero\n      dup1\n      iszero\n      tag_139\n      jumpi\n      returndatasize\n      0x00\n      dup1\n      returndatacopy\n      revert(0x00, returndatasize)\n    tag_139:\n      pop\n      pop\n      pop\n      pop\n      mload(0x40)\n      returndatasize\n      not(0x1f)\n      0x1f\n      dup3\n      add\n      and\n      dup3\n      add\n      dup1\n      0x40\n      mstore\n      pop\n      dup2\n      add\n      swap1\n      tag_140\n      swap2\n      swap1\n      tag_141\n      jump\t// in\n    tag_140:\n        /* \"flashLoanGeneric/contracts/FlashLoan/flashLoanSwap.sol\":5316:5373  uint256 balance = usdtFlashToken.balanceOf(address(this)) */\n      swap1\n      pop\n        /* \"flashLoanGeneric/contracts/FlashLoan/flashLoanSwap.sol\":5401:5402  0 */\n      0x00\n        /* \"flashLoanGeneric/contracts/FlashLoan/flashLoanSwap.sol\":5391:5398  balance */\n      dup2\n        /* \"flashLoanGeneric/contracts/FlashLoan/flashLoanSwap.sol\":5391:5402  balance > 0 */\n      gt\n        /* \"flashLoanGeneric/contracts/FlashLoan/flashLoanSwap.sol\":5383:5442  require(balance > 0, \"No USDT Flash available to withdraw\") */\n      tag_142\n      jumpi\n      mload(0x40)\n      0x08c379a000000000000000000000000000000000000000000000000000000000\n      dup2\n      mstore\n      0x04\n      add\n      tag_143\n      swap1\n      tag_144\n      jump\t// in\n    tag_143:\n      mload(0x40)\n      dup1\n      swap2\n      sub\n      swap1\n      revert\n    tag_142:\n        /* \"flashLoanGeneric/contracts/FlashLoan/flashLoanSwap.sol\":5452:5473  mintIfNeeded(balance) */\n      tag_145\n        /* \"flashLoanGeneric/contracts/FlashLoan/flashLoanSwap.sol\":5465:5472  balance */\n      dup2\n        /* \"flashLoanGeneric/contracts/FlashLoan/flashLoanSwap.sol\":5452:5464  mintIfNeeded */\n      tag_146\n        /* \"flashLoanGeneric/contracts/FlashLoan/flashLoanSwap.sol\":5452:5473  mintIfNeeded(balance) */\n      jump\t// in\n    tag_145:\n        /* \"flashLoanGeneric/contracts/FlashLoan/flashLoanSwap.sol\":5483:5497  usdtFlashToken */\n      immutable(\"0x5629301a64fc5320c7fea4109997d26e449f7e3534ea455352dd64c7f7392c2f\")\n        /* \"flashLoanGeneric/contracts/FlashLoan/flashLoanSwap.sol\":5483:5506  usdtFlashToken.transfer */\n      0xffffffffffffffffffffffffffffffffffffffff\n      and\n      0xa9059cbb\n        /* \"flashLoanGeneric/contracts/FlashLoan/flashLoanSwap.sol\":5507:5512  owner */\n      immutable(\"0x2ba9f8dd1e8c304051cf11ad9c333317e09a9b82f7883db7e425470ca7bf1b6b\")\n        /* \"flashLoanGeneric/contracts/FlashLoan/flashLoanSwap.sol\":5514:5521  balance */\n      dup4\n        /* \"flashLoanGeneric/contracts/FlashLoan/flashLoanSwap.sol\":5483:5522  usdtFlashToken.transfer(owner, balance) */\n      mload(0x40)\n      dup4\n      0xffffffff\n      and\n      0xe0\n      shl\n      dup2\n      mstore\n      0x04\n      add\n      tag_147\n      swap3\n      swap2\n      swap1\n      tag_31\n      jump\t// in\n    tag_147:\n      0x20\n      mload(0x40)\n      dup1\n      dup4\n      sub\n      dup2\n      0x00\n      dup8\n      gas\n      call\n      iszero\n      dup1\n      iszero\n      tag_149\n      jumpi\n      returndatasize\n      0x00\n      dup1\n      returndatacopy\n      revert(0x00, returndatasize)\n    tag_149:\n      pop\n      pop\n      pop\n      pop\n      mload(0x40)\n      returndatasize\n      not(0x1f)\n      0x1f\n      dup3\n      add\n      and\n      dup3\n      add\n      dup1\n      0x40\n      mstore\n      pop\n      dup2\n      add\n      swap1\n      tag_150\n      swap2\n      swap1\n      tag_151\n      jump\t// in\n    tag_150:\n      pop\n        /* \"flashLoanGeneric/contracts/FlashLoan/flashLoanSwap.sol\":5306:5529  {... */\n      pop\n        /* \"flashLoanGeneric/contracts/FlashLoan/flashLoanSwap.sol\":5262:5529  function withdrawGains() external onlyOwner {... */\n      jump\t// out\n        /* \"flashLoanGeneric/contracts/FlashLoan/flashLoanSwap.sol\":2843:2994  function withdrawCollateral(uint256 amount) external onlyOwner {... */\n    tag_58:\n        /* \"flashLoanGeneric/contracts/FlashLoan/flashLoanSwap.sol\":1929:1934  owner */\n      immutable(\"0x2ba9f8dd1e8c304051cf11ad9c333317e09a9b82f7883db7e425470ca7bf1b6b\")\n        /* \"flashLoanGeneric/contracts/FlashLoan/flashLoanSwap.sol\":1915:1934  msg.sender == owner */\n      0xffffffffffffffffffffffffffffffffffffffff\n      and\n        /* \"flashLoanGeneric/contracts/FlashLoan/flashLoanSwap.sol\":1915:1925  msg.sender */\n      caller\n        /* \"flashLoanGeneric/contracts/FlashLoan/flashLoanSwap.sol\":1915:1934  msg.sender == owner */\n      0xffffffffffffffffffffffffffffffffffffffff\n      and\n      eq\n        /* \"flashLoanGeneric/contracts/FlashLoan/flashLoanSwap.sol\":1907:1985  require(msg.sender == owner, \"Only the contract owner can call this function\") */\n      tag_153\n      jumpi\n      mload(0x40)\n      0x08c379a000000000000000000000000000000000000000000000000000000000\n      dup2\n      mstore\n      0x04\n      add\n      tag_154\n      swap1\n      tag_131\n      jump\t// in\n    tag_154:\n      mload(0x40)\n      dup1\n      swap2\n      sub\n      swap1\n      revert\n    tag_153:\n        /* \"flashLoanGeneric/contracts/FlashLoan/flashLoanSwap.sol\":2924:2938  usdtFlashToken */\n      immutable(\"0x5629301a64fc5320c7fea4109997d26e449f7e3534ea455352dd64c7f7392c2f\")\n        /* \"flashLoanGeneric/contracts/FlashLoan/flashLoanSwap.sol\":2924:2947  usdtFlashToken.transfer */\n      0xffffffffffffffffffffffffffffffffffffffff\n      and\n      0xa9059cbb\n        /* \"flashLoanGeneric/contracts/FlashLoan/flashLoanSwap.sol\":2948:2958  msg.sender */\n      caller\n        /* \"flashLoanGeneric/contracts/FlashLoan/flashLoanSwap.sol\":2960:2966  amount */\n      dup4\n        /* \"flashLoanGeneric/contracts/FlashLoan/flashLoanSwap.sol\":2924:2967  usdtFlashToken.transfer(msg.sender, amount) */\n      mload(0x40)\n      dup4\n      0xffffffff\n      and\n      0xe0\n      shl\n      dup2\n      mstore\n      0x04\n      add\n      tag_156\n      swap3\n      swap2\n      swap1\n      tag_31\n      jump\t// in\n    tag_156:\n      0x20\n      mload(0x40)\n      dup1\n      dup4\n      sub\n      dup2\n      0x00\n      dup8\n      gas\n      call\n      iszero\n      dup1\n      iszero\n      tag_158\n      jumpi\n      returndatasize\n      0x00\n      dup1\n      returndatacopy\n      revert(0x00, returndatasize)\n    tag_158:\n      pop\n      pop\n      pop\n      pop\n      mload(0x40)\n      returndatasize\n      not(0x1f)\n      0x1f\n      dup3\n      add\n      and\n      dup3\n      add\n      dup1\n      0x40\n      mstore\n      pop\n      dup2\n      add\n      swap1\n      tag_159\n      swap2\n      swap1\n      tag_151\n      jump\t// in\n    tag_159:\n        /* \"flashLoanGeneric/contracts/FlashLoan/flashLoanSwap.sol\":2916:2987  require(usdtFlashToken.transfer(msg.sender, amount), \"Transfer failed\") */\n      tag_160\n      jumpi\n      mload(0x40)\n      0x08c379a000000000000000000000000000000000000000000000000000000000\n      dup2\n      mstore\n      0x04\n      add\n      tag_161\n      swap1\n      tag_162\n      jump\t// in\n    tag_161:\n      mload(0x40)\n      dup1\n      swap2\n      sub\n      swap1\n      revert\n    tag_160:\n        /* \"flashLoanGeneric/contracts/FlashLoan/flashLoanSwap.sol\":2843:2994  function withdrawCollateral(uint256 amount) external onlyOwner {... */\n      pop\n      jump\t// out\n        /* \"flashLoanGeneric/contracts/FlashLoan/flashLoanSwap.sol\":2556:2672  function setNumOperations(uint256 _numOperations) external onlyOwner {... */\n    tag_62:\n        /* \"flashLoanGeneric/contracts/FlashLoan/flashLoanSwap.sol\":1929:1934  owner */\n      immutable(\"0x2ba9f8dd1e8c304051cf11ad9c333317e09a9b82f7883db7e425470ca7bf1b6b\")\n        /* \"flashLoanGeneric/contracts/FlashLoan/flashLoanSwap.sol\":1915:1934  msg.sender == owner */\n      0xffffffffffffffffffffffffffffffffffffffff\n      and\n        /* \"flashLoanGeneric/contracts/FlashLoan/flashLoanSwap.sol\":1915:1925  msg.sender */\n      caller\n        /* \"flashLoanGeneric/contracts/FlashLoan/flashLoanSwap.sol\":1915:1934  msg.sender == owner */\n      0xffffffffffffffffffffffffffffffffffffffff\n      and\n      eq\n        /* \"flashLoanGeneric/contracts/FlashLoan/flashLoanSwap.sol\":1907:1985  require(msg.sender == owner, \"Only the contract owner can call this function\") */\n      tag_164\n      jumpi\n      mload(0x40)\n      0x08c379a000000000000000000000000000000000000000000000000000000000\n      dup2\n      mstore\n      0x04\n      add\n      tag_165\n      swap1\n      tag_131\n      jump\t// in\n    tag_165:\n      mload(0x40)\n      dup1\n      swap2\n      sub\n      swap1\n      revert\n    tag_164:\n        /* \"flashLoanGeneric/contracts/FlashLoan/flashLoanSwap.sol\":2651:2665  _numOperations */\n      dup1\n        /* \"flashLoanGeneric/contracts/FlashLoan/flashLoanSwap.sol\":2635:2648  numOperations */\n      0x04\n        /* \"flashLoanGeneric/contracts/FlashLoan/flashLoanSwap.sol\":2635:2665  numOperations = _numOperations */\n      dup2\n      swap1\n      sstore\n      pop\n        /* \"flashLoanGeneric/contracts/FlashLoan/flashLoanSwap.sol\":2556:2672  function setNumOperations(uint256 _numOperations) external onlyOwner {... */\n      pop\n      jump\t// out\n        /* \"flashLoanGeneric/contracts/FlashLoan/flashLoanSwap.sol\":736:758  address public tokenIn */\n    tag_65:\n      0x00\n      dup1\n      sload\n      swap1\n      0x0100\n      exp\n      swap1\n      div\n      0xffffffffffffffffffffffffffffffffffffffff\n      and\n      dup2\n      jump\t// out\n        /* \"flashLoanGeneric/contracts/FlashLoan/flashLoanSwap.sol\":3188:3364  function repayFlashLoan(uint256 amount) external onlyOwner {... */\n    tag_71:\n        /* \"flashLoanGeneric/contracts/FlashLoan/flashLoanSwap.sol\":1929:1934  owner */\n      immutable(\"0x2ba9f8dd1e8c304051cf11ad9c333317e09a9b82f7883db7e425470ca7bf1b6b\")\n        /* \"flashLoanGeneric/contracts/FlashLoan/flashLoanSwap.sol\":1915:1934  msg.sender == owner */\n      0xffffffffffffffffffffffffffffffffffffffff\n      and\n        /* \"flashLoanGeneric/contracts/FlashLoan/flashLoanSwap.sol\":1915:1925  msg.sender */\n      caller\n        /* \"flashLoanGeneric/contracts/FlashLoan/flashLoanSwap.sol\":1915:1934  msg.sender == owner */\n      0xffffffffffffffffffffffffffffffffffffffff\n      and\n      eq\n        /* \"flashLoanGeneric/contracts/FlashLoan/flashLoanSwap.sol\":1907:1985  require(msg.sender == owner, \"Only the contract owner can call this function\") */\n      tag_168\n      jumpi\n      mload(0x40)\n      0x08c379a000000000000000000000000000000000000000000000000000000000\n      dup2\n      mstore\n      0x04\n      add\n      tag_169\n      swap1\n      tag_131\n      jump\t// in\n    tag_169:\n      mload(0x40)\n      dup1\n      swap2\n      sub\n      swap1\n      revert\n    tag_168:\n        /* \"flashLoanGeneric/contracts/FlashLoan/flashLoanSwap.sol\":3262:3272  dexAddress */\n      0x06\n      0x00\n      swap1\n      sload\n      swap1\n      0x0100\n      exp\n      swap1\n      div\n      0xffffffffffffffffffffffffffffffffffffffff\n      and\n        /* \"flashLoanGeneric/contracts/FlashLoan/flashLoanSwap.sol\":3257:3279  IDex(dexAddress).repay */\n      0xffffffffffffffffffffffffffffffffffffffff\n      and\n      0xacb70815\n        /* \"flashLoanGeneric/contracts/FlashLoan/flashLoanSwap.sol\":3280:3286  amount */\n      dup3\n        /* \"flashLoanGeneric/contracts/FlashLoan/flashLoanSwap.sol\":3296:3310  usdtFlashToken */\n      immutable(\"0x5629301a64fc5320c7fea4109997d26e449f7e3534ea455352dd64c7f7392c2f\")\n        /* \"flashLoanGeneric/contracts/FlashLoan/flashLoanSwap.sol\":3257:3312  IDex(dexAddress).repay(amount, address(usdtFlashToken)) */\n      mload(0x40)\n      dup4\n      0xffffffff\n      and\n      0xe0\n      shl\n      dup2\n      mstore\n      0x04\n      add\n      tag_171\n      swap3\n      swap2\n      swap1\n      tag_172\n      jump\t// in\n    tag_171:\n      0x00\n      mload(0x40)\n      dup1\n      dup4\n      sub\n      dup2\n      0x00\n      dup8\n      dup1\n      extcodesize\n      iszero\n      dup1\n      iszero\n      tag_173\n      jumpi\n      0x00\n      dup1\n      revert\n    tag_173:\n      pop\n      gas\n      call\n      iszero\n      dup1\n      iszero\n      tag_175\n      jumpi\n      returndatasize\n      0x00\n      dup1\n      returndatacopy\n      revert(0x00, returndatasize)\n    tag_175:\n      pop\n      pop\n      pop\n      pop\n        /* \"flashLoanGeneric/contracts/FlashLoan/flashLoanSwap.sol\":3338:3348  msg.sender */\n      caller\n        /* \"flashLoanGeneric/contracts/FlashLoan/flashLoanSwap.sol\":3327:3357  LoanRepaid(msg.sender, amount) */\n      0xffffffffffffffffffffffffffffffffffffffff\n      and\n      0xc200a1f31dd659e356e0f112c82558e25f49f7b0f84438691cd96f5cb3558823\n        /* \"flashLoanGeneric/contracts/FlashLoan/flashLoanSwap.sol\":3350:3356  amount */\n      dup3\n        /* \"flashLoanGeneric/contracts/FlashLoan/flashLoanSwap.sol\":3327:3357  LoanRepaid(msg.sender, amount) */\n      mload(0x40)\n      tag_176\n      swap2\n      swap1\n      tag_36\n      jump\t// in\n    tag_176:\n      mload(0x40)\n      dup1\n      swap2\n      sub\n      swap1\n      log2\n        /* \"flashLoanGeneric/contracts/FlashLoan/flashLoanSwap.sol\":3188:3364  function repayFlashLoan(uint256 amount) external onlyOwner {... */\n      pop\n      jump\t// out\n        /* \"flashLoanGeneric/contracts/FlashLoan/flashLoanSwap.sol\":965:990  address public dexAddress */\n    tag_74:\n      0x06\n      0x00\n      swap1\n      sload\n      swap1\n      0x0100\n      exp\n      swap1\n      div\n      0xffffffffffffffffffffffffffffffffffffffff\n      and\n      dup2\n      jump\t// out\n        /* \"flashLoanGeneric/contracts/FlashLoan/flashLoanSwap.sol\":852:880  uint256 public numOperations */\n    tag_78:\n      sload(0x04)\n      dup2\n      jump\t// out\n        /* \"flashLoanGeneric/contracts/FlashLoan/flashLoanSwap.sol\":2348:2440  function setPoolFee(uint256 _poolFee) external onlyOwner {... */\n    tag_83:\n        /* \"flashLoanGeneric/contracts/FlashLoan/flashLoanSwap.sol\":1929:1934  owner */\n      immutable(\"0x2ba9f8dd1e8c304051cf11ad9c333317e09a9b82f7883db7e425470ca7bf1b6b\")\n        /* \"flashLoanGeneric/contracts/FlashLoan/flashLoanSwap.sol\":1915:1934  msg.sender == owner */\n      0xffffffffffffffffffffffffffffffffffffffff\n      and\n        /* \"flashLoanGeneric/contracts/FlashLoan/flashLoanSwap.sol\":1915:1925  msg.sender */\n      caller\n        /* \"flashLoanGeneric/contracts/FlashLoan/flashLoanSwap.sol\":1915:1934  msg.sender == owner */\n      0xffffffffffffffffffffffffffffffffffffffff\n      and\n      eq\n        /* \"flashLoanGeneric/contracts/FlashLoan/flashLoanSwap.sol\":1907:1985  require(msg.sender == owner, \"Only the contract owner can call this function\") */\n      tag_178\n      jumpi\n      mload(0x40)\n      0x08c379a000000000000000000000000000000000000000000000000000000000\n      dup2\n      mstore\n      0x04\n      add\n      tag_179\n      swap1\n      tag_131\n      jump\t// in\n    tag_179:\n      mload(0x40)\n      dup1\n      swap2\n      sub\n      swap1\n      revert\n    tag_178:\n        /* \"flashLoanGeneric/contracts/FlashLoan/flashLoanSwap.sol\":2425:2433  _poolFee */\n      dup1\n        /* \"flashLoanGeneric/contracts/FlashLoan/flashLoanSwap.sol\":2415:2422  poolFee */\n      0x02\n        /* \"flashLoanGeneric/contracts/FlashLoan/flashLoanSwap.sol\":2415:2433  poolFee = _poolFee */\n      dup2\n      swap1\n      sstore\n      pop\n        /* \"flashLoanGeneric/contracts/FlashLoan/flashLoanSwap.sol\":2348:2440  function setPoolFee(uint256 _poolFee) external onlyOwner {... */\n      pop\n      jump\t// out\n        /* \"flashLoanGeneric/contracts/FlashLoan/flashLoanSwap.sol\":3000:3182  function requestFlashLoan(uint256 amount) external onlyOwner {... */\n    tag_87:\n        /* \"flashLoanGeneric/contracts/FlashLoan/flashLoanSwap.sol\":1929:1934  owner */\n      immutable(\"0x2ba9f8dd1e8c304051cf11ad9c333317e09a9b82f7883db7e425470ca7bf1b6b\")\n        /* \"flashLoanGeneric/contracts/FlashLoan/flashLoanSwap.sol\":1915:1934  msg.sender == owner */\n      0xffffffffffffffffffffffffffffffffffffffff\n      and\n        /* \"flashLoanGeneric/contracts/FlashLoan/flashLoanSwap.sol\":1915:1925  msg.sender */\n      caller\n        /* \"flashLoanGeneric/contracts/FlashLoan/flashLoanSwap.sol\":1915:1934  msg.sender == owner */\n      0xffffffffffffffffffffffffffffffffffffffff\n      and\n      eq\n        /* \"flashLoanGeneric/contracts/FlashLoan/flashLoanSwap.sol\":1907:1985  require(msg.sender == owner, \"Only the contract owner can call this function\") */\n      tag_182\n      jumpi\n      mload(0x40)\n      0x08c379a000000000000000000000000000000000000000000000000000000000\n      dup2\n      mstore\n      0x04\n      add\n      tag_183\n      swap1\n      tag_131\n      jump\t// in\n    tag_183:\n      mload(0x40)\n      dup1\n      swap2\n      sub\n      swap1\n      revert\n    tag_182:\n        /* \"flashLoanGeneric/contracts/FlashLoan/flashLoanSwap.sol\":3076:3086  dexAddress */\n      0x06\n      0x00\n      swap1\n      sload\n      swap1\n      0x0100\n      exp\n      swap1\n      div\n      0xffffffffffffffffffffffffffffffffffffffff\n      and\n        /* \"flashLoanGeneric/contracts/FlashLoan/flashLoanSwap.sol\":3071:3094  IDex(dexAddress).borrow */\n      0xffffffffffffffffffffffffffffffffffffffff\n      and\n      0x4b3fd148\n        /* \"flashLoanGeneric/contracts/FlashLoan/flashLoanSwap.sol\":3095:3101  amount */\n      dup3\n        /* \"flashLoanGeneric/contracts/FlashLoan/flashLoanSwap.sol\":3111:3125  usdtFlashToken */\n      immutable(\"0x5629301a64fc5320c7fea4109997d26e449f7e3534ea455352dd64c7f7392c2f\")\n        /* \"flashLoanGeneric/contracts/FlashLoan/flashLoanSwap.sol\":3071:3127  IDex(dexAddress).borrow(amount, address(usdtFlashToken)) */\n      mload(0x40)\n      dup4\n      0xffffffff\n      and\n      0xe0\n      shl\n      dup2\n      mstore\n      0x04\n      add\n      tag_185\n      swap3\n      swap2\n      swap1\n      tag_172\n      jump\t// in\n    tag_185:\n      0x00\n      mload(0x40)\n      dup1\n      dup4\n      sub\n      dup2\n      0x00\n      dup8\n      dup1\n      extcodesize\n      iszero\n      dup1\n      iszero\n      tag_186\n      jumpi\n      0x00\n      dup1\n      revert\n    tag_186:\n      pop\n      gas\n      call\n      iszero\n      dup1\n      iszero\n      tag_188\n      jumpi\n      returndatasize\n      0x00\n      dup1\n      returndatacopy\n      revert(0x00, returndatasize)\n    tag_188:\n      pop\n      pop\n      pop\n      pop\n        /* \"flashLoanGeneric/contracts/FlashLoan/flashLoanSwap.sol\":3156:3166  msg.sender */\n      caller\n        /* \"flashLoanGeneric/contracts/FlashLoan/flashLoanSwap.sol\":3142:3175  LoanRequested(msg.sender, amount) */\n      0xffffffffffffffffffffffffffffffffffffffff\n      and\n      0x06c22e520074f676b380b03ffba06f2ccf61e51cbeee2a4e084b80a19d2fc237\n        /* \"flashLoanGeneric/contracts/FlashLoan/flashLoanSwap.sol\":3168:3174  amount */\n      dup3\n        /* \"flashLoanGeneric/contracts/FlashLoan/flashLoanSwap.sol\":3142:3175  LoanRequested(msg.sender, amount) */\n      mload(0x40)\n      tag_189\n      swap2\n      swap1\n      tag_36\n      jump\t// in\n    tag_189:\n      mload(0x40)\n      dup1\n      swap2\n      sub\n      swap1\n      log2\n        /* \"flashLoanGeneric/contracts/FlashLoan/flashLoanSwap.sol\":3000:3182  function requestFlashLoan(uint256 amount) external onlyOwner {... */\n      pop\n      jump\t// out\n        /* \"flashLoanGeneric/contracts/FlashLoan/flashLoanSwap.sol\":650:683  IERC20 public immutable usdtToken */\n    tag_90:\n      immutable(\"0x6324d4c8d8c40f5e810ad501e9a800fc1e73c21ad7dcfddabc4fec5379405625\")\n      dup2\n      jump\t// out\n        /* \"flashLoanGeneric/contracts/FlashLoan/flashLoanSwap.sol\":2678:2837  function depositCollateral(uint256 amount) external {... */\n    tag_96:\n        /* \"flashLoanGeneric/contracts/FlashLoan/flashLoanSwap.sol\":2748:2762  usdtFlashToken */\n      immutable(\"0x5629301a64fc5320c7fea4109997d26e449f7e3534ea455352dd64c7f7392c2f\")\n        /* \"flashLoanGeneric/contracts/FlashLoan/flashLoanSwap.sol\":2748:2775  usdtFlashToken.transferFrom */\n      0xffffffffffffffffffffffffffffffffffffffff\n      and\n      0x23b872dd\n        /* \"flashLoanGeneric/contracts/FlashLoan/flashLoanSwap.sol\":2776:2786  msg.sender */\n      caller\n        /* \"flashLoanGeneric/contracts/FlashLoan/flashLoanSwap.sol\":2796:2800  this */\n      address\n        /* \"flashLoanGeneric/contracts/FlashLoan/flashLoanSwap.sol\":2803:2809  amount */\n      dup5\n        /* \"flashLoanGeneric/contracts/FlashLoan/flashLoanSwap.sol\":2748:2810  usdtFlashToken.transferFrom(msg.sender, address(this), amount) */\n      mload(0x40)\n      dup5\n      0xffffffff\n      and\n      0xe0\n      shl\n      dup2\n      mstore\n      0x04\n      add\n      tag_191\n      swap4\n      swap3\n      swap2\n      swap1\n      tag_192\n      jump\t// in\n    tag_191:\n      0x20\n      mload(0x40)\n      dup1\n      dup4\n      sub\n      dup2\n      0x00\n      dup8\n      gas\n      call\n      iszero\n      dup1\n      iszero\n      tag_194\n      jumpi\n      returndatasize\n      0x00\n      dup1\n      returndatacopy\n      revert(0x00, returndatasize)\n    tag_194:\n      pop\n      pop\n      pop\n      pop\n      mload(0x40)\n      returndatasize\n      not(0x1f)\n      0x1f\n      dup3\n      add\n      and\n      dup3\n      add\n      dup1\n      0x40\n      mstore\n      pop\n      dup2\n      add\n      swap1\n      tag_195\n      swap2\n      swap1\n      tag_151\n      jump\t// in\n    tag_195:\n        /* \"flashLoanGeneric/contracts/FlashLoan/flashLoanSwap.sol\":2740:2830  require(usdtFlashToken.transferFrom(msg.sender, address(this), amount), \"Transfer failed\") */\n      tag_196\n      jumpi\n      mload(0x40)\n      0x08c379a000000000000000000000000000000000000000000000000000000000\n      dup2\n      mstore\n      0x04\n      add\n      tag_197\n      swap1\n      tag_162\n      jump\t// in\n    tag_197:\n      mload(0x40)\n      dup1\n      swap2\n      sub\n      swap1\n      revert\n    tag_196:\n        /* \"flashLoanGeneric/contracts/FlashLoan/flashLoanSwap.sol\":2678:2837  function depositCollateral(uint256 amount) external {... */\n      pop\n      jump\t// out\n        /* \"flashLoanGeneric/contracts/FlashLoan/flashLoanSwap.sol\":2246:2342  function setTokenOut(address _tokenOut) external onlyOwner {... */\n    tag_100:\n        /* \"flashLoanGeneric/contracts/FlashLoan/flashLoanSwap.sol\":1929:1934  owner */\n      immutable(\"0x2ba9f8dd1e8c304051cf11ad9c333317e09a9b82f7883db7e425470ca7bf1b6b\")\n        /* \"flashLoanGeneric/contracts/FlashLoan/flashLoanSwap.sol\":1915:1934  msg.sender == owner */\n      0xffffffffffffffffffffffffffffffffffffffff\n      and\n        /* \"flashLoanGeneric/contracts/FlashLoan/flashLoanSwap.sol\":1915:1925  msg.sender */\n      caller\n        /* \"flashLoanGeneric/contracts/FlashLoan/flashLoanSwap.sol\":1915:1934  msg.sender == owner */\n      0xffffffffffffffffffffffffffffffffffffffff\n      and\n      eq\n        /* \"flashLoanGeneric/contracts/FlashLoan/flashLoanSwap.sol\":1907:1985  require(msg.sender == owner, \"Only the contract owner can call this function\") */\n      tag_199\n      jumpi\n      mload(0x40)\n      0x08c379a000000000000000000000000000000000000000000000000000000000\n      dup2\n      mstore\n      0x04\n      add\n      tag_200\n      swap1\n      tag_131\n      jump\t// in\n    tag_200:\n      mload(0x40)\n      dup1\n      swap2\n      sub\n      swap1\n      revert\n    tag_199:\n        /* \"flashLoanGeneric/contracts/FlashLoan/flashLoanSwap.sol\":2326:2335  _tokenOut */\n      dup1\n        /* \"flashLoanGeneric/contracts/FlashLoan/flashLoanSwap.sol\":2315:2323  tokenOut */\n      0x01\n      0x00\n        /* \"flashLoanGeneric/contracts/FlashLoan/flashLoanSwap.sol\":2315:2335  tokenOut = _tokenOut */\n      0x0100\n      exp\n      dup2\n      sload\n      dup2\n      0xffffffffffffffffffffffffffffffffffffffff\n      mul\n      not\n      and\n      swap1\n      dup4\n      0xffffffffffffffffffffffffffffffffffffffff\n      and\n      mul\n      or\n      swap1\n      sstore\n      pop\n        /* \"flashLoanGeneric/contracts/FlashLoan/flashLoanSwap.sol\":2246:2342  function setTokenOut(address _tokenOut) external onlyOwner {... */\n      pop\n      jump\t// out\n        /* \"flashLoanGeneric/contracts/FlashLoan/flashLoanSwap.sol\":4765:4952  function getTokenBalance(address tokenAddress, address account) public view returns (uint256) {... */\n    tag_105:\n        /* \"flashLoanGeneric/contracts/FlashLoan/flashLoanSwap.sol\":4850:4857  uint256 */\n      0x00\n        /* \"flashLoanGeneric/contracts/FlashLoan/flashLoanSwap.sol\":4869:4881  IERC20 token */\n      dup1\n        /* \"flashLoanGeneric/contracts/FlashLoan/flashLoanSwap.sol\":4891:4903  tokenAddress */\n      dup4\n        /* \"flashLoanGeneric/contracts/FlashLoan/flashLoanSwap.sol\":4869:4904  IERC20 token = IERC20(tokenAddress) */\n      swap1\n      pop\n        /* \"flashLoanGeneric/contracts/FlashLoan/flashLoanSwap.sol\":4921:4926  token */\n      dup1\n        /* \"flashLoanGeneric/contracts/FlashLoan/flashLoanSwap.sol\":4921:4936  token.balanceOf */\n      0xffffffffffffffffffffffffffffffffffffffff\n      and\n      0x70a08231\n        /* \"flashLoanGeneric/contracts/FlashLoan/flashLoanSwap.sol\":4937:4944  account */\n      dup5\n        /* \"flashLoanGeneric/contracts/FlashLoan/flashLoanSwap.sol\":4921:4945  token.balanceOf(account) */\n      mload(0x40)\n      dup3\n      0xffffffff\n      and\n      0xe0\n      shl\n      dup2\n      mstore\n      0x04\n      add\n      tag_203\n      swap2\n      swap1\n      tag_67\n      jump\t// in\n    tag_203:\n      0x20\n      mload(0x40)\n      dup1\n      dup4\n      sub\n      dup2\n      dup7\n      gas\n      staticcall\n      iszero\n      dup1\n      iszero\n      tag_205\n      jumpi\n      returndatasize\n      0x00\n      dup1\n      returndatacopy\n      revert(0x00, returndatasize)\n    tag_205:\n      pop\n      pop\n      pop\n      pop\n      mload(0x40)\n      returndatasize\n      not(0x1f)\n      0x1f\n      dup3\n      add\n      and\n      dup3\n      add\n      dup1\n      0x40\n      mstore\n      pop\n      dup2\n      add\n      swap1\n      tag_206\n      swap2\n      swap1\n      tag_141\n      jump\t// in\n    tag_206:\n        /* \"flashLoanGeneric/contracts/FlashLoan/flashLoanSwap.sol\":4914:4945  return token.balanceOf(account) */\n      swap2\n      pop\n      pop\n        /* \"flashLoanGeneric/contracts/FlashLoan/flashLoanSwap.sol\":4765:4952  function getTokenBalance(address tokenAddress, address account) public view returns (uint256) {... */\n      swap3\n      swap2\n      pop\n      pop\n      jump\t// out\n        /* \"flashLoanGeneric/contracts/FlashLoan/flashLoanSwap.sol\":923:959  address public meswapContractAddress */\n    tag_109:\n      0x05\n      0x00\n      swap1\n      sload\n      swap1\n      0x0100\n      exp\n      swap1\n      div\n      0xffffffffffffffffffffffffffffffffffffffff\n      and\n      dup2\n      jump\t// out\n        /* \"flashLoanGeneric/contracts/FlashLoan/flashLoanSwap.sol\":764:787  address public tokenOut */\n    tag_113:\n      0x01\n      0x00\n      swap1\n      sload\n      swap1\n      0x0100\n      exp\n      swap1\n      div\n      0xffffffffffffffffffffffffffffffffffffffff\n      and\n      dup2\n      jump\t// out\n        /* \"flashLoanGeneric/contracts/FlashLoan/flashLoanSwap.sol\":2009:2142  function setMeSwap(address _meswapContractAddress) external onlyOwner {... */\n    tag_118:\n        /* \"flashLoanGeneric/contracts/FlashLoan/flashLoanSwap.sol\":1929:1934  owner */\n      immutable(\"0x2ba9f8dd1e8c304051cf11ad9c333317e09a9b82f7883db7e425470ca7bf1b6b\")\n        /* \"flashLoanGeneric/contracts/FlashLoan/flashLoanSwap.sol\":1915:1934  msg.sender == owner */\n      0xffffffffffffffffffffffffffffffffffffffff\n      and\n        /* \"flashLoanGeneric/contracts/FlashLoan/flashLoanSwap.sol\":1915:1925  msg.sender */\n      caller\n        /* \"flashLoanGeneric/contracts/FlashLoan/flashLoanSwap.sol\":1915:1934  msg.sender == owner */\n      0xffffffffffffffffffffffffffffffffffffffff\n      and\n      eq\n        /* \"flashLoanGeneric/contracts/FlashLoan/flashLoanSwap.sol\":1907:1985  require(msg.sender == owner, \"Only the contract owner can call this function\") */\n      tag_208\n      jumpi\n      mload(0x40)\n      0x08c379a000000000000000000000000000000000000000000000000000000000\n      dup2\n      mstore\n      0x04\n      add\n      tag_209\n      swap1\n      tag_131\n      jump\t// in\n    tag_209:\n      mload(0x40)\n      dup1\n      swap2\n      sub\n      swap1\n      revert\n    tag_208:\n        /* \"flashLoanGeneric/contracts/FlashLoan/flashLoanSwap.sol\":2113:2135  _meswapContractAddress */\n      dup1\n        /* \"flashLoanGeneric/contracts/FlashLoan/flashLoanSwap.sol\":2089:2110  meswapContractAddress */\n      0x05\n      0x00\n        /* \"flashLoanGeneric/contracts/FlashLoan/flashLoanSwap.sol\":2089:2135  meswapContractAddress = _meswapContractAddress */\n      0x0100\n      exp\n      dup2\n      sload\n      dup2\n      0xffffffffffffffffffffffffffffffffffffffff\n      mul\n      not\n      and\n      swap1\n      dup4\n      0xffffffffffffffffffffffffffffffffffffffff\n      and\n      mul\n      or\n      swap1\n      sstore\n      pop\n        /* \"flashLoanGeneric/contracts/FlashLoan/flashLoanSwap.sol\":2009:2142  function setMeSwap(address _meswapContractAddress) external onlyOwner {... */\n      pop\n      jump\t// out\n        /* \"flashLoanGeneric/contracts/FlashLoan/flashLoanSwap.sol\":2446:2550  function setSwapAmount(uint256 _swapAmount) external onlyOwner {... */\n    tag_122:\n        /* \"flashLoanGeneric/contracts/FlashLoan/flashLoanSwap.sol\":1929:1934  owner */\n      immutable(\"0x2ba9f8dd1e8c304051cf11ad9c333317e09a9b82f7883db7e425470ca7bf1b6b\")\n        /* \"flashLoanGeneric/contracts/FlashLoan/flashLoanSwap.sol\":1915:1934  msg.sender == owner */\n      0xffffffffffffffffffffffffffffffffffffffff\n      and\n        /* \"flashLoanGeneric/contracts/FlashLoan/flashLoanSwap.sol\":1915:1925  msg.sender */\n      caller\n        /* \"flashLoanGeneric/contracts/FlashLoan/flashLoanSwap.sol\":1915:1934  msg.sender == owner */\n      0xffffffffffffffffffffffffffffffffffffffff\n      and\n      eq\n        /* \"flashLoanGeneric/contracts/FlashLoan/flashLoanSwap.sol\":1907:1985  require(msg.sender == owner, \"Only the contract owner can call this function\") */\n      tag_212\n      jumpi\n      mload(0x40)\n      0x08c379a000000000000000000000000000000000000000000000000000000000\n      dup2\n      mstore\n      0x04\n      add\n      tag_213\n      swap1\n      tag_131\n      jump\t// in\n    tag_213:\n      mload(0x40)\n      dup1\n      swap2\n      sub\n      swap1\n      revert\n    tag_212:\n        /* \"flashLoanGeneric/contracts/FlashLoan/flashLoanSwap.sol\":2532:2543  _swapAmount */\n      dup1\n        /* \"flashLoanGeneric/contracts/FlashLoan/flashLoanSwap.sol\":2519:2529  swapAmount */\n      0x03\n        /* \"flashLoanGeneric/contracts/FlashLoan/flashLoanSwap.sol\":2519:2543  swapAmount = _swapAmount */\n      dup2\n      swap1\n      sstore\n      pop\n        /* \"flashLoanGeneric/contracts/FlashLoan/flashLoanSwap.sol\":2446:2550  function setSwapAmount(uint256 _swapAmount) external onlyOwner {... */\n      pop\n      jump\t// out\n        /* \"flashLoanGeneric/contracts/FlashLoan/flashLoanSwap.sol\":3370:4032  function receiveFlashLoan(... */\n    tag_127:\n        /* \"flashLoanGeneric/contracts/FlashLoan/flashLoanSwap.sol\":3551:3560  uint256 i */\n      0x00\n        /* \"flashLoanGeneric/contracts/FlashLoan/flashLoanSwap.sol\":3546:4026  for (uint256 i = 0; i < tokens.length; ++i) {... */\n    tag_216:\n        /* \"flashLoanGeneric/contracts/FlashLoan/flashLoanSwap.sol\":3570:3576  tokens */\n      dup5\n        /* \"flashLoanGeneric/contracts/FlashLoan/flashLoanSwap.sol\":3570:3583  tokens.length */\n      mload\n        /* \"flashLoanGeneric/contracts/FlashLoan/flashLoanSwap.sol\":3566:3567  i */\n      dup2\n        /* \"flashLoanGeneric/contracts/FlashLoan/flashLoanSwap.sol\":3566:3583  i < tokens.length */\n      lt\n        /* \"flashLoanGeneric/contracts/FlashLoan/flashLoanSwap.sol\":3546:4026  for (uint256 i = 0; i < tokens.length; ++i) {... */\n      iszero\n      tag_217\n      jumpi\n        /* \"flashLoanGeneric/contracts/FlashLoan/flashLoanSwap.sol\":3604:3616  IERC20 token */\n      0x00\n        /* \"flashLoanGeneric/contracts/FlashLoan/flashLoanSwap.sol\":3619:3625  tokens */\n      dup6\n        /* \"flashLoanGeneric/contracts/FlashLoan/flashLoanSwap.sol\":3626:3627  i */\n      dup3\n        /* \"flashLoanGeneric/contracts/FlashLoan/flashLoanSwap.sol\":3619:3628  tokens[i] */\n      dup2\n      mload\n      dup2\n      lt\n      tag_219\n      jumpi\n      tag_220\n      tag_221\n      jump\t// in\n    tag_220:\n    tag_219:\n      0x20\n      mul\n      0x20\n      add\n      add\n      mload\n        /* \"flashLoanGeneric/contracts/FlashLoan/flashLoanSwap.sol\":3604:3628  IERC20 token = tokens[i] */\n      swap1\n      pop\n        /* \"flashLoanGeneric/contracts/FlashLoan/flashLoanSwap.sol\":3642:3656  uint256 amount */\n      0x00\n        /* \"flashLoanGeneric/contracts/FlashLoan/flashLoanSwap.sol\":3659:3666  amounts */\n      dup6\n        /* \"flashLoanGeneric/contracts/FlashLoan/flashLoanSwap.sol\":3667:3668  i */\n      dup4\n        /* \"flashLoanGeneric/contracts/FlashLoan/flashLoanSwap.sol\":3659:3669  amounts[i] */\n      dup2\n      mload\n      dup2\n      lt\n      tag_222\n      jumpi\n      tag_223\n      tag_221\n      jump\t// in\n    tag_223:\n    tag_222:\n      0x20\n      mul\n      0x20\n      add\n      add\n      mload\n        /* \"flashLoanGeneric/contracts/FlashLoan/flashLoanSwap.sol\":3642:3669  uint256 amount = amounts[i] */\n      swap1\n      pop\n        /* \"flashLoanGeneric/contracts/FlashLoan/flashLoanSwap.sol\":3683:3700  uint256 feeAmount */\n      0x00\n        /* \"flashLoanGeneric/contracts/FlashLoan/flashLoanSwap.sol\":3703:3713  feeAmounts */\n      dup6\n        /* \"flashLoanGeneric/contracts/FlashLoan/flashLoanSwap.sol\":3714:3715  i */\n      dup5\n        /* \"flashLoanGeneric/contracts/FlashLoan/flashLoanSwap.sol\":3703:3716  feeAmounts[i] */\n      dup2\n      mload\n      dup2\n      lt\n      tag_224\n      jumpi\n      tag_225\n      tag_221\n      jump\t// in\n    tag_225:\n    tag_224:\n      0x20\n      mul\n      0x20\n      add\n      add\n      mload\n        /* \"flashLoanGeneric/contracts/FlashLoan/flashLoanSwap.sol\":3683:3716  uint256 feeAmount = feeAmounts[i] */\n      swap1\n      pop\n        /* \"flashLoanGeneric/contracts/FlashLoan/flashLoanSwap.sol\":3736:3745  uint256 j */\n      0x00\n        /* \"flashLoanGeneric/contracts/FlashLoan/flashLoanSwap.sol\":3731:3910  for (uint256 j = 0; j < numOperations; j++) {... */\n    tag_226:\n        /* \"flashLoanGeneric/contracts/FlashLoan/flashLoanSwap.sol\":3755:3768  numOperations */\n      sload(0x04)\n        /* \"flashLoanGeneric/contracts/FlashLoan/flashLoanSwap.sol\":3751:3752  j */\n      dup2\n        /* \"flashLoanGeneric/contracts/FlashLoan/flashLoanSwap.sol\":3751:3768  j < numOperations */\n      lt\n        /* \"flashLoanGeneric/contracts/FlashLoan/flashLoanSwap.sol\":3731:3910  for (uint256 j = 0; j < numOperations; j++) {... */\n      iszero\n      tag_227\n      jumpi\n        /* \"flashLoanGeneric/contracts/FlashLoan/flashLoanSwap.sol\":3793:3835  executeSwap(tokenIn, tokenOut, swapAmount) */\n      tag_229\n        /* \"flashLoanGeneric/contracts/FlashLoan/flashLoanSwap.sol\":3805:3812  tokenIn */\n      0x00\n      dup1\n      sload\n      swap1\n      0x0100\n      exp\n      swap1\n      div\n      0xffffffffffffffffffffffffffffffffffffffff\n      and\n        /* \"flashLoanGeneric/contracts/FlashLoan/flashLoanSwap.sol\":3814:3822  tokenOut */\n      0x01\n      0x00\n      swap1\n      sload\n      swap1\n      0x0100\n      exp\n      swap1\n      div\n      0xffffffffffffffffffffffffffffffffffffffff\n      and\n        /* \"flashLoanGeneric/contracts/FlashLoan/flashLoanSwap.sol\":3824:3834  swapAmount */\n      sload(0x03)\n        /* \"flashLoanGeneric/contracts/FlashLoan/flashLoanSwap.sol\":3793:3804  executeSwap */\n      tag_230\n        /* \"flashLoanGeneric/contracts/FlashLoan/flashLoanSwap.sol\":3793:3835  executeSwap(tokenIn, tokenOut, swapAmount) */\n      jump\t// in\n    tag_229:\n        /* \"flashLoanGeneric/contracts/FlashLoan/flashLoanSwap.sol\":3853:3895  executeSwap(tokenOut, tokenIn, swapAmount) */\n      tag_231\n        /* \"flashLoanGeneric/contracts/FlashLoan/flashLoanSwap.sol\":3865:3873  tokenOut */\n      0x01\n      0x00\n      swap1\n      sload\n      swap1\n      0x0100\n      exp\n      swap1\n      div\n      0xffffffffffffffffffffffffffffffffffffffff\n      and\n        /* \"flashLoanGeneric/contracts/FlashLoan/flashLoanSwap.sol\":3875:3882  tokenIn */\n      0x00\n      dup1\n      sload\n      swap1\n      0x0100\n      exp\n      swap1\n      div\n      0xffffffffffffffffffffffffffffffffffffffff\n      and\n        /* \"flashLoanGeneric/contracts/FlashLoan/flashLoanSwap.sol\":3884:3894  swapAmount */\n      sload(0x03)\n        /* \"flashLoanGeneric/contracts/FlashLoan/flashLoanSwap.sol\":3853:3864  executeSwap */\n      tag_230\n        /* \"flashLoanGeneric/contracts/FlashLoan/flashLoanSwap.sol\":3853:3895  executeSwap(tokenOut, tokenIn, swapAmount) */\n      jump\t// in\n    tag_231:\n        /* \"flashLoanGeneric/contracts/FlashLoan/flashLoanSwap.sol\":3770:3773  j++ */\n      dup1\n      dup1\n      0x01\n      add\n      swap2\n      pop\n      pop\n        /* \"flashLoanGeneric/contracts/FlashLoan/flashLoanSwap.sol\":3731:3910  for (uint256 j = 0; j < numOperations; j++) {... */\n      jump(tag_226)\n    tag_227:\n      pop\n        /* \"flashLoanGeneric/contracts/FlashLoan/flashLoanSwap.sol\":3924:3954  swapToUSDT(amount + feeAmount) */\n      tag_232\n        /* \"flashLoanGeneric/contracts/FlashLoan/flashLoanSwap.sol\":3944:3953  feeAmount */\n      dup2\n        /* \"flashLoanGeneric/contracts/FlashLoan/flashLoanSwap.sol\":3935:3941  amount */\n      dup4\n        /* \"flashLoanGeneric/contracts/FlashLoan/flashLoanSwap.sol\":3935:3953  amount + feeAmount */\n      tag_233\n      swap2\n      swap1\n      tag_234\n      jump\t// in\n    tag_233:\n        /* \"flashLoanGeneric/contracts/FlashLoan/flashLoanSwap.sol\":3924:3934  swapToUSDT */\n      tag_235\n        /* \"flashLoanGeneric/contracts/FlashLoan/flashLoanSwap.sol\":3924:3954  swapToUSDT(amount + feeAmount) */\n      jump\t// in\n    tag_232:\n        /* \"flashLoanGeneric/contracts/FlashLoan/flashLoanSwap.sol\":3969:3974  token */\n      dup3\n        /* \"flashLoanGeneric/contracts/FlashLoan/flashLoanSwap.sol\":3969:3983  token.transfer */\n      0xffffffffffffffffffffffffffffffffffffffff\n      and\n      0xa9059cbb\n        /* \"flashLoanGeneric/contracts/FlashLoan/flashLoanSwap.sol\":3984:3994  msg.sender */\n      caller\n        /* \"flashLoanGeneric/contracts/FlashLoan/flashLoanSwap.sol\":4005:4014  feeAmount */\n      dup4\n        /* \"flashLoanGeneric/contracts/FlashLoan/flashLoanSwap.sol\":3996:4002  amount */\n      dup6\n        /* \"flashLoanGeneric/contracts/FlashLoan/flashLoanSwap.sol\":3996:4014  amount + feeAmount */\n      tag_236\n      swap2\n      swap1\n      tag_234\n      jump\t// in\n    tag_236:\n        /* \"flashLoanGeneric/contracts/FlashLoan/flashLoanSwap.sol\":3969:4015  token.transfer(msg.sender, amount + feeAmount) */\n      mload(0x40)\n      dup4\n      0xffffffff\n      and\n      0xe0\n      shl\n      dup2\n      mstore\n      0x04\n      add\n      tag_237\n      swap3\n      swap2\n      swap1\n      tag_31\n      jump\t// in\n    tag_237:\n      0x20\n      mload(0x40)\n      dup1\n      dup4\n      sub\n      dup2\n      0x00\n      dup8\n      gas\n      call\n      iszero\n      dup1\n      iszero\n      tag_239\n      jumpi\n      returndatasize\n      0x00\n      dup1\n      returndatacopy\n      revert(0x00, returndatasize)\n    tag_239:\n      pop\n      pop\n      pop\n      pop\n      mload(0x40)\n      returndatasize\n      not(0x1f)\n      0x1f\n      dup3\n      add\n      and\n      dup3\n      add\n      dup1\n      0x40\n      mstore\n      pop\n      dup2\n      add\n      swap1\n      tag_240\n      swap2\n      swap1\n      tag_151\n      jump\t// in\n    tag_240:\n      pop\n        /* \"flashLoanGeneric/contracts/FlashLoan/flashLoanSwap.sol\":3590:4026  {... */\n      pop\n      pop\n      pop\n        /* \"flashLoanGeneric/contracts/FlashLoan/flashLoanSwap.sol\":3585:3588  ++i */\n      dup1\n      0x01\n      add\n      swap1\n      pop\n        /* \"flashLoanGeneric/contracts/FlashLoan/flashLoanSwap.sol\":3546:4026  for (uint256 i = 0; i < tokens.length; ++i) {... */\n      jump(tag_216)\n    tag_217:\n      pop\n        /* \"flashLoanGeneric/contracts/FlashLoan/flashLoanSwap.sol\":3370:4032  function receiveFlashLoan(... */\n      pop\n      pop\n      pop\n      pop\n      jump\t// out\n        /* \"flashLoanGeneric/contracts/FlashLoan/flashLoanSwap.sol\":4958:5256  function mintIfNeeded(uint256 amount) internal {... */\n    tag_146:\n        /* \"flashLoanGeneric/contracts/FlashLoan/flashLoanSwap.sol\":5015:5036  uint256 currentSupply */\n      0x00\n        /* \"flashLoanGeneric/contracts/FlashLoan/flashLoanSwap.sol\":5039:5053  usdtFlashToken */\n      immutable(\"0x5629301a64fc5320c7fea4109997d26e449f7e3534ea455352dd64c7f7392c2f\")\n        /* \"flashLoanGeneric/contracts/FlashLoan/flashLoanSwap.sol\":5039:5065  usdtFlashToken.totalSupply */\n      0xffffffffffffffffffffffffffffffffffffffff\n      and\n      0x18160ddd\n        /* \"flashLoanGeneric/contracts/FlashLoan/flashLoanSwap.sol\":5039:5067  usdtFlashToken.totalSupply() */\n      mload(0x40)\n      dup2\n      0xffffffff\n      and\n      0xe0\n      shl\n      dup2\n      mstore\n      0x04\n      add\n      0x20\n      mload(0x40)\n      dup1\n      dup4\n      sub\n      dup2\n      dup7\n      gas\n      staticcall\n      iszero\n      dup1\n      iszero\n      tag_243\n      jumpi\n      returndatasize\n      0x00\n      dup1\n      returndatacopy\n      revert(0x00, returndatasize)\n    tag_243:\n      pop\n      pop\n      pop\n      pop\n      mload(0x40)\n      returndatasize\n      not(0x1f)\n      0x1f\n      dup3\n      add\n      and\n      dup3\n      add\n      dup1\n      0x40\n      mstore\n      pop\n      dup2\n      add\n      swap1\n      tag_244\n      swap2\n      swap1\n      tag_141\n      jump\t// in\n    tag_244:\n        /* \"flashLoanGeneric/contracts/FlashLoan/flashLoanSwap.sol\":5015:5067  uint256 currentSupply = usdtFlashToken.totalSupply() */\n      swap1\n      pop\n        /* \"flashLoanGeneric/contracts/FlashLoan/flashLoanSwap.sol\":5077:5094  uint256 maxSupply */\n      0x00\n        /* \"flashLoanGeneric/contracts/FlashLoan/flashLoanSwap.sol\":5097:5111  usdtFlashToken */\n      immutable(\"0x5629301a64fc5320c7fea4109997d26e449f7e3534ea455352dd64c7f7392c2f\")\n        /* \"flashLoanGeneric/contracts/FlashLoan/flashLoanSwap.sol\":5097:5121  usdtFlashToken.maxSupply */\n      0xffffffffffffffffffffffffffffffffffffffff\n      and\n      0xd5abeb01\n        /* \"flashLoanGeneric/contracts/FlashLoan/flashLoanSwap.sol\":5097:5123  usdtFlashToken.maxSupply() */\n      mload(0x40)\n      dup2\n      0xffffffff\n      and\n      0xe0\n      shl\n      dup2\n      mstore\n      0x04\n      add\n      0x20\n      mload(0x40)\n      dup1\n      dup4\n      sub\n      dup2\n      dup7\n      gas\n      staticcall\n      iszero\n      dup1\n      iszero\n      tag_246\n      jumpi\n      returndatasize\n      0x00\n      dup1\n      returndatacopy\n      revert(0x00, returndatasize)\n    tag_246:\n      pop\n      pop\n      pop\n      pop\n      mload(0x40)\n      returndatasize\n      not(0x1f)\n      0x1f\n      dup3\n      add\n      and\n      dup3\n      add\n      dup1\n      0x40\n      mstore\n      pop\n      dup2\n      add\n      swap1\n      tag_247\n      swap2\n      swap1\n      tag_141\n      jump\t// in\n    tag_247:\n        /* \"flashLoanGeneric/contracts/FlashLoan/flashLoanSwap.sol\":5077:5123  uint256 maxSupply = usdtFlashToken.maxSupply() */\n      swap1\n      pop\n        /* \"flashLoanGeneric/contracts/FlashLoan/flashLoanSwap.sol\":5167:5176  maxSupply */\n      dup1\n        /* \"flashLoanGeneric/contracts/FlashLoan/flashLoanSwap.sol\":5157:5163  amount */\n      dup4\n        /* \"flashLoanGeneric/contracts/FlashLoan/flashLoanSwap.sol\":5141:5154  currentSupply */\n      dup4\n        /* \"flashLoanGeneric/contracts/FlashLoan/flashLoanSwap.sol\":5141:5163  currentSupply + amount */\n      tag_248\n      swap2\n      swap1\n      tag_234\n      jump\t// in\n    tag_248:\n        /* \"flashLoanGeneric/contracts/FlashLoan/flashLoanSwap.sol\":5141:5176  currentSupply + amount <= maxSupply */\n      gt\n      iszero\n        /* \"flashLoanGeneric/contracts/FlashLoan/flashLoanSwap.sol\":5133:5212  require(currentSupply + amount <= maxSupply, \"Minting would exceed max supply\") */\n      tag_249\n      jumpi\n      mload(0x40)\n      0x08c379a000000000000000000000000000000000000000000000000000000000\n      dup2\n      mstore\n      0x04\n      add\n      tag_250\n      swap1\n      tag_251\n      jump\t// in\n    tag_250:\n      mload(0x40)\n      dup1\n      swap2\n      sub\n      swap1\n      revert\n    tag_249:\n        /* \"flashLoanGeneric/contracts/FlashLoan/flashLoanSwap.sol\":5222:5236  usdtFlashToken */\n      immutable(\"0x5629301a64fc5320c7fea4109997d26e449f7e3534ea455352dd64c7f7392c2f\")\n        /* \"flashLoanGeneric/contracts/FlashLoan/flashLoanSwap.sol\":5222:5241  usdtFlashToken.mint */\n      0xffffffffffffffffffffffffffffffffffffffff\n      and\n      0xa0712d68\n        /* \"flashLoanGeneric/contracts/FlashLoan/flashLoanSwap.sol\":5242:5248  amount */\n      dup5\n        /* \"flashLoanGeneric/contracts/FlashLoan/flashLoanSwap.sol\":5222:5249  usdtFlashToken.mint(amount) */\n      mload(0x40)\n      dup3\n      0xffffffff\n      and\n      0xe0\n      shl\n      dup2\n      mstore\n      0x04\n      add\n      tag_252\n      swap2\n      swap1\n      tag_36\n      jump\t// in\n    tag_252:\n      0x20\n      mload(0x40)\n      dup1\n      dup4\n      sub\n      dup2\n      0x00\n      dup8\n      gas\n      call\n      iszero\n      dup1\n      iszero\n      tag_254\n      jumpi\n      returndatasize\n      0x00\n      dup1\n      returndatacopy\n      revert(0x00, returndatasize)\n    tag_254:\n      pop\n      pop\n      pop\n      pop\n      mload(0x40)\n      returndatasize\n      not(0x1f)\n      0x1f\n      dup3\n      add\n      and\n      dup3\n      add\n      dup1\n      0x40\n      mstore\n      pop\n      dup2\n      add\n      swap1\n      tag_255\n      swap2\n      swap1\n      tag_151\n      jump\t// in\n    tag_255:\n      pop\n        /* \"flashLoanGeneric/contracts/FlashLoan/flashLoanSwap.sol\":5005:5256  {... */\n      pop\n      pop\n        /* \"flashLoanGeneric/contracts/FlashLoan/flashLoanSwap.sol\":4958:5256  function mintIfNeeded(uint256 amount) internal {... */\n      pop\n      jump\t// out\n        /* \"flashLoanGeneric/contracts/FlashLoan/flashLoanSwap.sol\":4038:4407  function executeSwap(address _tokenIn, address _tokenOut, uint256 _amount) internal {... */\n    tag_230:\n        /* \"flashLoanGeneric/contracts/FlashLoan/flashLoanSwap.sol\":4132:4145  swapme meswap */\n      0x00\n        /* \"flashLoanGeneric/contracts/FlashLoan/flashLoanSwap.sol\":4155:4176  meswapContractAddress */\n      0x05\n      0x00\n      swap1\n      sload\n      swap1\n      0x0100\n      exp\n      swap1\n      div\n      0xffffffffffffffffffffffffffffffffffffffff\n      and\n        /* \"flashLoanGeneric/contracts/FlashLoan/flashLoanSwap.sol\":4132:4177  swapme meswap = swapme(meswapContractAddress) */\n      swap1\n      pop\n        /* \"flashLoanGeneric/contracts/FlashLoan/flashLoanSwap.sol\":4187:4193  meswap */\n      dup1\n        /* \"flashLoanGeneric/contracts/FlashLoan/flashLoanSwap.sol\":4187:4204  meswap.setTokenIn */\n      0xffffffffffffffffffffffffffffffffffffffff\n      and\n      0x0f0f3c41\n        /* \"flashLoanGeneric/contracts/FlashLoan/flashLoanSwap.sol\":4205:4213  _tokenIn */\n      dup6\n        /* \"flashLoanGeneric/contracts/FlashLoan/flashLoanSwap.sol\":4187:4214  meswap.setTokenIn(_tokenIn) */\n      mload(0x40)\n      dup3\n      0xffffffff\n      and\n      0xe0\n      shl\n      dup2\n      mstore\n      0x04\n      add\n      tag_257\n      swap2\n      swap1\n      tag_67\n      jump\t// in\n    tag_257:\n      0x00\n      mload(0x40)\n      dup1\n      dup4\n      sub\n      dup2\n      0x00\n      dup8\n      dup1\n      extcodesize\n      iszero\n      dup1\n      iszero\n      tag_258\n      jumpi\n      0x00\n      dup1\n      revert\n    tag_258:\n      pop\n      gas\n      call\n      iszero\n      dup1\n      iszero\n      tag_260\n      jumpi\n      returndatasize\n      0x00\n      dup1\n      returndatacopy\n      revert(0x00, returndatasize)\n    tag_260:\n      pop\n      pop\n      pop\n      pop\n        /* \"flashLoanGeneric/contracts/FlashLoan/flashLoanSwap.sol\":4224:4230  meswap */\n      dup1\n        /* \"flashLoanGeneric/contracts/FlashLoan/flashLoanSwap.sol\":4224:4242  meswap.setTokenOut */\n      0xffffffffffffffffffffffffffffffffffffffff\n      and\n      0xc158910d\n        /* \"flashLoanGeneric/contracts/FlashLoan/flashLoanSwap.sol\":4243:4252  _tokenOut */\n      dup5\n        /* \"flashLoanGeneric/contracts/FlashLoan/flashLoanSwap.sol\":4224:4253  meswap.setTokenOut(_tokenOut) */\n      mload(0x40)\n      dup3\n      0xffffffff\n      and\n      0xe0\n      shl\n      dup2\n      mstore\n      0x04\n      add\n      tag_261\n      swap2\n      swap1\n      tag_67\n      jump\t// in\n    tag_261:\n      0x00\n      mload(0x40)\n      dup1\n      dup4\n      sub\n      dup2\n      0x00\n      dup8\n      dup1\n      extcodesize\n      iszero\n      dup1\n      iszero\n      tag_262\n      jumpi\n      0x00\n      dup1\n      revert\n    tag_262:\n      pop\n      gas\n      call\n      iszero\n      dup1\n      iszero\n      tag_264\n      jumpi\n      returndatasize\n      0x00\n      dup1\n      returndatacopy\n      revert(0x00, returndatasize)\n    tag_264:\n      pop\n      pop\n      pop\n      pop\n        /* \"flashLoanGeneric/contracts/FlashLoan/flashLoanSwap.sol\":4263:4269  meswap */\n      dup1\n        /* \"flashLoanGeneric/contracts/FlashLoan/flashLoanSwap.sol\":4263:4280  meswap.setPoolFee */\n      0xffffffffffffffffffffffffffffffffffffffff\n      and\n      0x73dd250c\n        /* \"flashLoanGeneric/contracts/FlashLoan/flashLoanSwap.sol\":4288:4295  poolFee */\n      sload(0x02)\n        /* \"flashLoanGeneric/contracts/FlashLoan/flashLoanSwap.sol\":4263:4297  meswap.setPoolFee(uint24(poolFee)) */\n      mload(0x40)\n      dup3\n      0xffffffff\n      and\n      0xe0\n      shl\n      dup2\n      mstore\n      0x04\n      add\n      tag_265\n      swap2\n      swap1\n      tag_266\n      jump\t// in\n    tag_265:\n      0x00\n      mload(0x40)\n      dup1\n      dup4\n      sub\n      dup2\n      0x00\n      dup8\n      dup1\n      extcodesize\n      iszero\n      dup1\n      iszero\n      tag_267\n      jumpi\n      0x00\n      dup1\n      revert\n    tag_267:\n      pop\n      gas\n      call\n      iszero\n      dup1\n      iszero\n      tag_269\n      jumpi\n      returndatasize\n      0x00\n      dup1\n      returndatacopy\n      revert(0x00, returndatasize)\n    tag_269:\n      pop\n      pop\n      pop\n      pop\n        /* \"flashLoanGeneric/contracts/FlashLoan/flashLoanSwap.sol\":4307:4313  meswap */\n      dup1\n        /* \"flashLoanGeneric/contracts/FlashLoan/flashLoanSwap.sol\":4307:4334  meswap.swapExactInputSingle */\n      0xffffffffffffffffffffffffffffffffffffffff\n      and\n      0x73bd43ad\n        /* \"flashLoanGeneric/contracts/FlashLoan/flashLoanSwap.sol\":4335:4342  _amount */\n      dup4\n        /* \"flashLoanGeneric/contracts/FlashLoan/flashLoanSwap.sol\":4307:4343  meswap.swapExactInputSingle(_amount) */\n      mload(0x40)\n      dup3\n      0xffffffff\n      and\n      0xe0\n      shl\n      dup2\n      mstore\n      0x04\n      add\n      tag_270\n      swap2\n      swap1\n      tag_36\n      jump\t// in\n    tag_270:\n      0x20\n      mload(0x40)\n      dup1\n      dup4\n      sub\n      dup2\n      0x00\n      dup8\n      gas\n      call\n      iszero\n      dup1\n      iszero\n      tag_272\n      jumpi\n      returndatasize\n      0x00\n      dup1\n      returndatacopy\n      revert(0x00, returndatasize)\n    tag_272:\n      pop\n      pop\n      pop\n      pop\n      mload(0x40)\n      returndatasize\n      not(0x1f)\n      0x1f\n      dup3\n      add\n      and\n      dup3\n      add\n      dup1\n      0x40\n      mstore\n      pop\n      dup2\n      add\n      swap1\n      tag_273\n      swap2\n      swap1\n      tag_141\n      jump\t// in\n    tag_273:\n      pop\n        /* \"flashLoanGeneric/contracts/FlashLoan/flashLoanSwap.sol\":4381:4390  _tokenOut */\n      dup3\n        /* \"flashLoanGeneric/contracts/FlashLoan/flashLoanSwap.sol\":4358:4400  SwapExecuted(_tokenIn, _tokenOut, _amount) */\n      0xffffffffffffffffffffffffffffffffffffffff\n      and\n        /* \"flashLoanGeneric/contracts/FlashLoan/flashLoanSwap.sol\":4371:4379  _tokenIn */\n      dup5\n        /* \"flashLoanGeneric/contracts/FlashLoan/flashLoanSwap.sol\":4358:4400  SwapExecuted(_tokenIn, _tokenOut, _amount) */\n      0xffffffffffffffffffffffffffffffffffffffff\n      and\n      0xbad29f2bbbf6bb1e15563203bcdb0dd660c54eab078763eb66f797efa8f5e8c1\n        /* \"flashLoanGeneric/contracts/FlashLoan/flashLoanSwap.sol\":4392:4399  _amount */\n      dup5\n        /* \"flashLoanGeneric/contracts/FlashLoan/flashLoanSwap.sol\":4358:4400  SwapExecuted(_tokenIn, _tokenOut, _amount) */\n      mload(0x40)\n      tag_274\n      swap2\n      swap1\n      tag_36\n      jump\t// in\n    tag_274:\n      mload(0x40)\n      dup1\n      swap2\n      sub\n      swap1\n      log3\n        /* \"flashLoanGeneric/contracts/FlashLoan/flashLoanSwap.sol\":4122:4407  {... */\n      pop\n        /* \"flashLoanGeneric/contracts/FlashLoan/flashLoanSwap.sol\":4038:4407  function executeSwap(address _tokenIn, address _tokenOut, uint256 _amount) internal {... */\n      pop\n      pop\n      pop\n      jump\t// out\n        /* \"flashLoanGeneric/contracts/FlashLoan/flashLoanSwap.sol\":4413:4759  function swapToUSDT(uint256 amount) internal {... */\n    tag_235:\n        /* \"flashLoanGeneric/contracts/FlashLoan/flashLoanSwap.sol\":4468:4481  swapme meswap */\n      0x00\n        /* \"flashLoanGeneric/contracts/FlashLoan/flashLoanSwap.sol\":4491:4512  meswapContractAddress */\n      0x05\n      0x00\n      swap1\n      sload\n      swap1\n      0x0100\n      exp\n      swap1\n      div\n      0xffffffffffffffffffffffffffffffffffffffff\n      and\n        /* \"flashLoanGeneric/contracts/FlashLoan/flashLoanSwap.sol\":4468:4513  swapme meswap = swapme(meswapContractAddress) */\n      swap1\n      pop\n        /* \"flashLoanGeneric/contracts/FlashLoan/flashLoanSwap.sol\":4523:4529  meswap */\n      dup1\n        /* \"flashLoanGeneric/contracts/FlashLoan/flashLoanSwap.sol\":4523:4540  meswap.setTokenIn */\n      0xffffffffffffffffffffffffffffffffffffffff\n      and\n      0x0f0f3c41\n        /* \"flashLoanGeneric/contracts/FlashLoan/flashLoanSwap.sol\":4541:4549  tokenOut */\n      0x01\n      0x00\n      swap1\n      sload\n      swap1\n      0x0100\n      exp\n      swap1\n      div\n      0xffffffffffffffffffffffffffffffffffffffff\n      and\n        /* \"flashLoanGeneric/contracts/FlashLoan/flashLoanSwap.sol\":4523:4550  meswap.setTokenIn(tokenOut) */\n      mload(0x40)\n      dup3\n      0xffffffff\n      and\n      0xe0\n      shl\n      dup2\n      mstore\n      0x04\n      add\n      tag_276\n      swap2\n      swap1\n      tag_67\n      jump\t// in\n    tag_276:\n      0x00\n      mload(0x40)\n      dup1\n      dup4\n      sub\n      dup2\n      0x00\n      dup8\n      dup1\n      extcodesize\n      iszero\n      dup1\n      iszero\n      tag_277\n      jumpi\n      0x00\n      dup1\n      revert\n    tag_277:\n      pop\n      gas\n      call\n      iszero\n      dup1\n      iszero\n      tag_279\n      jumpi\n      returndatasize\n      0x00\n      dup1\n      returndatacopy\n      revert(0x00, returndatasize)\n    tag_279:\n      pop\n      pop\n      pop\n      pop\n        /* \"flashLoanGeneric/contracts/FlashLoan/flashLoanSwap.sol\":4560:4566  meswap */\n      dup1\n        /* \"flashLoanGeneric/contracts/FlashLoan/flashLoanSwap.sol\":4560:4578  meswap.setTokenOut */\n      0xffffffffffffffffffffffffffffffffffffffff\n      and\n      0xc158910d\n        /* \"flashLoanGeneric/contracts/FlashLoan/flashLoanSwap.sol\":4587:4596  usdtToken */\n      immutable(\"0x6324d4c8d8c40f5e810ad501e9a800fc1e73c21ad7dcfddabc4fec5379405625\")\n        /* \"flashLoanGeneric/contracts/FlashLoan/flashLoanSwap.sol\":4560:4598  meswap.setTokenOut(address(usdtToken)) */\n      mload(0x40)\n      dup3\n      0xffffffff\n      and\n      0xe0\n      shl\n      dup2\n      mstore\n      0x04\n      add\n      tag_280\n      swap2\n      swap1\n      tag_67\n      jump\t// in\n    tag_280:\n      0x00\n      mload(0x40)\n      dup1\n      dup4\n      sub\n      dup2\n      0x00\n      dup8\n      dup1\n      extcodesize\n      iszero\n      dup1\n      iszero\n      tag_281\n      jumpi\n      0x00\n      dup1\n      revert\n    tag_281:\n      pop\n      gas\n      call\n      iszero\n      dup1\n      iszero\n      tag_283\n      jumpi\n      returndatasize\n      0x00\n      dup1\n      returndatacopy\n      revert(0x00, returndatasize)\n    tag_283:\n      pop\n      pop\n      pop\n      pop\n        /* \"flashLoanGeneric/contracts/FlashLoan/flashLoanSwap.sol\":4608:4614  meswap */\n      dup1\n        /* \"flashLoanGeneric/contracts/FlashLoan/flashLoanSwap.sol\":4608:4625  meswap.setPoolFee */\n      0xffffffffffffffffffffffffffffffffffffffff\n      and\n      0x73dd250c\n        /* \"flashLoanGeneric/contracts/FlashLoan/flashLoanSwap.sol\":4633:4640  poolFee */\n      sload(0x02)\n        /* \"flashLoanGeneric/contracts/FlashLoan/flashLoanSwap.sol\":4608:4642  meswap.setPoolFee(uint24(poolFee)) */\n      mload(0x40)\n      dup3\n      0xffffffff\n      and\n      0xe0\n      shl\n      dup2\n      mstore\n      0x04\n      add\n      tag_284\n      swap2\n      swap1\n      tag_266\n      jump\t// in\n    tag_284:\n      0x00\n      mload(0x40)\n      dup1\n      dup4\n      sub\n      dup2\n      0x00\n      dup8\n      dup1\n      extcodesize\n      iszero\n      dup1\n      iszero\n      tag_285\n      jumpi\n      0x00\n      dup1\n      revert\n    tag_285:\n      pop\n      gas\n      call\n      iszero\n      dup1\n      iszero\n      tag_287\n      jumpi\n      returndatasize\n      0x00\n      dup1\n      returndatacopy\n      revert(0x00, returndatasize)\n    tag_287:\n      pop\n      pop\n      pop\n      pop\n        /* \"flashLoanGeneric/contracts/FlashLoan/flashLoanSwap.sol\":4652:4658  meswap */\n      dup1\n        /* \"flashLoanGeneric/contracts/FlashLoan/flashLoanSwap.sol\":4652:4679  meswap.swapExactInputSingle */\n      0xffffffffffffffffffffffffffffffffffffffff\n      and\n      0x73bd43ad\n        /* \"flashLoanGeneric/contracts/FlashLoan/flashLoanSwap.sol\":4680:4686  amount */\n      dup4\n        /* \"flashLoanGeneric/contracts/FlashLoan/flashLoanSwap.sol\":4652:4687  meswap.swapExactInputSingle(amount) */\n      mload(0x40)\n      dup3\n      0xffffffff\n      and\n      0xe0\n      shl\n      dup2\n      mstore\n      0x04\n      add\n      tag_288\n      swap2\n      swap1\n      tag_36\n      jump\t// in\n    tag_288:\n      0x20\n      mload(0x40)\n      dup1\n      dup4\n      sub\n      dup2\n      0x00\n      dup8\n      gas\n      call\n      iszero\n      dup1\n      iszero\n      tag_290\n      jumpi\n      returndatasize\n      0x00\n      dup1\n      returndatacopy\n      revert(0x00, returndatasize)\n    tag_290:\n      pop\n      pop\n      pop\n      pop\n      mload(0x40)\n      returndatasize\n      not(0x1f)\n      0x1f\n      dup3\n      add\n      and\n      dup3\n      add\n      dup1\n      0x40\n      mstore\n      pop\n      dup2\n      add\n      swap1\n      tag_291\n      swap2\n      swap1\n      tag_141\n      jump\t// in\n    tag_291:\n      pop\n        /* \"flashLoanGeneric/contracts/FlashLoan/flashLoanSwap.sol\":4733:4742  usdtToken */\n      immutable(\"0x6324d4c8d8c40f5e810ad501e9a800fc1e73c21ad7dcfddabc4fec5379405625\")\n        /* \"flashLoanGeneric/contracts/FlashLoan/flashLoanSwap.sol\":4702:4752  SwapExecuted(tokenOut, address(usdtToken), amount) */\n      0xffffffffffffffffffffffffffffffffffffffff\n      and\n        /* \"flashLoanGeneric/contracts/FlashLoan/flashLoanSwap.sol\":4715:4723  tokenOut */\n      0x01\n      0x00\n      swap1\n      sload\n      swap1\n      0x0100\n      exp\n      swap1\n      div\n      0xffffffffffffffffffffffffffffffffffffffff\n      and\n        /* \"flashLoanGeneric/contracts/FlashLoan/flashLoanSwap.sol\":4702:4752  SwapExecuted(tokenOut, address(usdtToken), amount) */\n      0xffffffffffffffffffffffffffffffffffffffff\n      and\n      0xbad29f2bbbf6bb1e15563203bcdb0dd660c54eab078763eb66f797efa8f5e8c1\n        /* \"flashLoanGeneric/contracts/FlashLoan/flashLoanSwap.sol\":4745:4751  amount */\n      dup5\n        /* \"flashLoanGeneric/contracts/FlashLoan/flashLoanSwap.sol\":4702:4752  SwapExecuted(tokenOut, address(usdtToken), amount) */\n      mload(0x40)\n      tag_292\n      swap2\n      swap1\n      tag_36\n      jump\t// in\n    tag_292:\n      mload(0x40)\n      dup1\n      swap2\n      sub\n      swap1\n      log3\n        /* \"flashLoanGeneric/contracts/FlashLoan/flashLoanSwap.sol\":4458:4759  {... */\n      pop\n        /* \"flashLoanGeneric/contracts/FlashLoan/flashLoanSwap.sol\":4413:4759  function swapToUSDT(uint256 amount) internal {... */\n      pop\n      jump\t// out\n        /* \"#utility.yul\":7:133   */\n    tag_293:\n        /* \"#utility.yul\":44:51   */\n      0x00\n        /* \"#utility.yul\":84:126   */\n      0xffffffffffffffffffffffffffffffffffffffff\n        /* \"#utility.yul\":77:82   */\n      dup3\n        /* \"#utility.yul\":73:127   */\n      and\n        /* \"#utility.yul\":62:127   */\n      swap1\n      pop\n        /* \"#utility.yul\":7:133   */\n      swap2\n      swap1\n      pop\n      jump\t// out\n        /* \"#utility.yul\":139:235   */\n    tag_294:\n        /* \"#utility.yul\":176:183   */\n      0x00\n        /* \"#utility.yul\":205:229   */\n      tag_351\n        /* \"#utility.yul\":223:228   */\n      dup3\n        /* \"#utility.yul\":205:229   */\n      tag_293\n      jump\t// in\n    tag_351:\n        /* \"#utility.yul\":194:229   */\n      swap1\n      pop\n        /* \"#utility.yul\":139:235   */\n      swap2\n      swap1\n      pop\n      jump\t// out\n        /* \"#utility.yul\":241:359   */\n    tag_295:\n        /* \"#utility.yul\":328:352   */\n      tag_353\n        /* \"#utility.yul\":346:351   */\n      dup2\n        /* \"#utility.yul\":328:352   */\n      tag_294\n      jump\t// in\n    tag_353:\n        /* \"#utility.yul\":323:326   */\n      dup3\n        /* \"#utility.yul\":316:353   */\n      mstore\n        /* \"#utility.yul\":241:359   */\n      pop\n      pop\n      jump\t// out\n        /* \"#utility.yul\":365:442   */\n    tag_296:\n        /* \"#utility.yul\":402:409   */\n      0x00\n        /* \"#utility.yul\":431:436   */\n      dup2\n        /* \"#utility.yul\":420:436   */\n      swap1\n      pop\n        /* \"#utility.yul\":365:442   */\n      swap2\n      swap1\n      pop\n      jump\t// out\n        /* \"#utility.yul\":448:566   */\n    tag_297:\n        /* \"#utility.yul\":535:559   */\n      tag_356\n        /* \"#utility.yul\":553:558   */\n      dup2\n        /* \"#utility.yul\":535:559   */\n      tag_296\n      jump\t// in\n    tag_356:\n        /* \"#utility.yul\":530:533   */\n      dup3\n        /* \"#utility.yul\":523:560   */\n      mstore\n        /* \"#utility.yul\":448:566   */\n      pop\n      pop\n      jump\t// out\n        /* \"#utility.yul\":572:904   */\n    tag_31:\n        /* \"#utility.yul\":693:697   */\n      0x00\n        /* \"#utility.yul\":731:733   */\n      0x40\n        /* \"#utility.yul\":720:729   */\n      dup3\n        /* \"#utility.yul\":716:734   */\n      add\n        /* \"#utility.yul\":708:734   */\n      swap1\n      pop\n        /* \"#utility.yul\":744:815   */\n      tag_358\n        /* \"#utility.yul\":812:813   */\n      0x00\n        /* \"#utility.yul\":801:810   */\n      dup4\n        /* \"#utility.yul\":797:814   */\n      add\n        /* \"#utility.yul\":788:794   */\n      dup6\n        /* \"#utility.yul\":744:815   */\n      tag_295\n      jump\t// in\n    tag_358:\n        /* \"#utility.yul\":825:897   */\n      tag_359\n        /* \"#utility.yul\":893:895   */\n      0x20\n        /* \"#utility.yul\":882:891   */\n      dup4\n        /* \"#utility.yul\":878:896   */\n      add\n        /* \"#utility.yul\":869:875   */\n      dup5\n        /* \"#utility.yul\":825:897   */\n      tag_297\n      jump\t// in\n    tag_359:\n        /* \"#utility.yul\":572:904   */\n      swap4\n      swap3\n      pop\n      pop\n      pop\n      jump\t// out\n        /* \"#utility.yul\":910:1132   */\n    tag_36:\n        /* \"#utility.yul\":1003:1007   */\n      0x00\n        /* \"#utility.yul\":1041:1043   */\n      0x20\n        /* \"#utility.yul\":1030:1039   */\n      dup3\n        /* \"#utility.yul\":1026:1044   */\n      add\n        /* \"#utility.yul\":1018:1044   */\n      swap1\n      pop\n        /* \"#utility.yul\":1054:1125   */\n      tag_361\n        /* \"#utility.yul\":1122:1123   */\n      0x00\n        /* \"#utility.yul\":1111:1120   */\n      dup4\n        /* \"#utility.yul\":1107:1124   */\n      add\n        /* \"#utility.yul\":1098:1104   */\n      dup5\n        /* \"#utility.yul\":1054:1125   */\n      tag_297\n      jump\t// in\n    tag_361:\n        /* \"#utility.yul\":910:1132   */\n      swap3\n      swap2\n      pop\n      pop\n      jump\t// out\n        /* \"#utility.yul\":1138:1213   */\n    tag_298:\n        /* \"#utility.yul\":1171:1177   */\n      0x00\n        /* \"#utility.yul\":1204:1206   */\n      0x40\n        /* \"#utility.yul\":1198:1207   */\n      mload\n        /* \"#utility.yul\":1188:1207   */\n      swap1\n      pop\n        /* \"#utility.yul\":1138:1213   */\n      swap1\n      jump\t// out\n        /* \"#utility.yul\":1219:1336   */\n    tag_299:\n        /* \"#utility.yul\":1328:1329   */\n      0x00\n        /* \"#utility.yul\":1325:1326   */\n      dup1\n        /* \"#utility.yul\":1318:1330   */\n      revert\n        /* \"#utility.yul\":1342:1459   */\n    tag_300:\n        /* \"#utility.yul\":1451:1452   */\n      0x00\n        /* \"#utility.yul\":1448:1449   */\n      dup1\n        /* \"#utility.yul\":1441:1453   */\n      revert\n        /* \"#utility.yul\":1465:1587   */\n    tag_301:\n        /* \"#utility.yul\":1538:1562   */\n      tag_366\n        /* \"#utility.yul\":1556:1561   */\n      dup2\n        /* \"#utility.yul\":1538:1562   */\n      tag_294\n      jump\t// in\n    tag_366:\n        /* \"#utility.yul\":1531:1536   */\n      dup2\n        /* \"#utility.yul\":1528:1563   */\n      eq\n        /* \"#utility.yul\":1518:1581   */\n      tag_367\n      jumpi\n        /* \"#utility.yul\":1577:1578   */\n      0x00\n        /* \"#utility.yul\":1574:1575   */\n      dup1\n        /* \"#utility.yul\":1567:1579   */\n      revert\n        /* \"#utility.yul\":1518:1581   */\n    tag_367:\n        /* \"#utility.yul\":1465:1587   */\n      pop\n      jump\t// out\n        /* \"#utility.yul\":1593:1732   */\n    tag_302:\n        /* \"#utility.yul\":1639:1644   */\n      0x00\n        /* \"#utility.yul\":1677:1683   */\n      dup2\n        /* \"#utility.yul\":1664:1684   */\n      calldataload\n        /* \"#utility.yul\":1655:1684   */\n      swap1\n      pop\n        /* \"#utility.yul\":1693:1726   */\n      tag_369\n        /* \"#utility.yul\":1720:1725   */\n      dup2\n        /* \"#utility.yul\":1693:1726   */\n      tag_301\n      jump\t// in\n    tag_369:\n        /* \"#utility.yul\":1593:1732   */\n      swap3\n      swap2\n      pop\n      pop\n      jump\t// out\n        /* \"#utility.yul\":1738:2067   */\n    tag_40:\n        /* \"#utility.yul\":1797:1803   */\n      0x00\n        /* \"#utility.yul\":1846:1848   */\n      0x20\n        /* \"#utility.yul\":1834:1843   */\n      dup3\n        /* \"#utility.yul\":1825:1832   */\n      dup5\n        /* \"#utility.yul\":1821:1844   */\n      sub\n        /* \"#utility.yul\":1817:1849   */\n      slt\n        /* \"#utility.yul\":1814:1933   */\n      iszero\n      tag_371\n      jumpi\n        /* \"#utility.yul\":1852:1931   */\n      tag_372\n      tag_299\n      jump\t// in\n    tag_372:\n        /* \"#utility.yul\":1814:1933   */\n    tag_371:\n        /* \"#utility.yul\":1972:1973   */\n      0x00\n        /* \"#utility.yul\":1997:2050   */\n      tag_373\n        /* \"#utility.yul\":2042:2049   */\n      dup5\n        /* \"#utility.yul\":2033:2039   */\n      dup3\n        /* \"#utility.yul\":2022:2031   */\n      dup6\n        /* \"#utility.yul\":2018:2040   */\n      add\n        /* \"#utility.yul\":1997:2050   */\n      tag_302\n      jump\t// in\n    tag_373:\n        /* \"#utility.yul\":1987:2050   */\n      swap2\n      pop\n        /* \"#utility.yul\":1943:2060   */\n      pop\n        /* \"#utility.yul\":1738:2067   */\n      swap3\n      swap2\n      pop\n      pop\n      jump\t// out\n        /* \"#utility.yul\":2073:2133   */\n    tag_303:\n        /* \"#utility.yul\":2101:2104   */\n      0x00\n        /* \"#utility.yul\":2122:2127   */\n      dup2\n        /* \"#utility.yul\":2115:2127   */\n      swap1\n      pop\n        /* \"#utility.yul\":2073:2133   */\n      swap2\n      swap1\n      pop\n      jump\t// out\n        /* \"#utility.yul\":2139:2281   */\n    tag_304:\n        /* \"#utility.yul\":2189:2198   */\n      0x00\n        /* \"#utility.yul\":2222:2275   */\n      tag_376\n        /* \"#utility.yul\":2240:2274   */\n      tag_377\n        /* \"#utility.yul\":2249:2273   */\n      tag_378\n        /* \"#utility.yul\":2267:2272   */\n      dup5\n        /* \"#utility.yul\":2249:2273   */\n      tag_293\n      jump\t// in\n    tag_378:\n        /* \"#utility.yul\":2240:2274   */\n      tag_303\n      jump\t// in\n    tag_377:\n        /* \"#utility.yul\":2222:2275   */\n      tag_293\n      jump\t// in\n    tag_376:\n        /* \"#utility.yul\":2209:2275   */\n      swap1\n      pop\n        /* \"#utility.yul\":2139:2281   */\n      swap2\n      swap1\n      pop\n      jump\t// out\n        /* \"#utility.yul\":2287:2413   */\n    tag_305:\n        /* \"#utility.yul\":2337:2346   */\n      0x00\n        /* \"#utility.yul\":2370:2407   */\n      tag_380\n        /* \"#utility.yul\":2401:2406   */\n      dup3\n        /* \"#utility.yul\":2370:2407   */\n      tag_304\n      jump\t// in\n    tag_380:\n        /* \"#utility.yul\":2357:2407   */\n      swap1\n      pop\n        /* \"#utility.yul\":2287:2413   */\n      swap2\n      swap1\n      pop\n      jump\t// out\n        /* \"#utility.yul\":2419:2562   */\n    tag_306:\n        /* \"#utility.yul\":2486:2495   */\n      0x00\n        /* \"#utility.yul\":2519:2556   */\n      tag_382\n        /* \"#utility.yul\":2550:2555   */\n      dup3\n        /* \"#utility.yul\":2519:2556   */\n      tag_305\n      jump\t// in\n    tag_382:\n        /* \"#utility.yul\":2506:2556   */\n      swap1\n      pop\n        /* \"#utility.yul\":2419:2562   */\n      swap2\n      swap1\n      pop\n      jump\t// out\n        /* \"#utility.yul\":2568:2733   */\n    tag_307:\n        /* \"#utility.yul\":2672:2726   */\n      tag_384\n        /* \"#utility.yul\":2720:2725   */\n      dup2\n        /* \"#utility.yul\":2672:2726   */\n      tag_306\n      jump\t// in\n    tag_384:\n        /* \"#utility.yul\":2667:2670   */\n      dup3\n        /* \"#utility.yul\":2660:2727   */\n      mstore\n        /* \"#utility.yul\":2568:2733   */\n      pop\n      pop\n      jump\t// out\n        /* \"#utility.yul\":2739:2995   */\n    tag_46:\n        /* \"#utility.yul\":2849:2853   */\n      0x00\n        /* \"#utility.yul\":2887:2889   */\n      0x20\n        /* \"#utility.yul\":2876:2885   */\n      dup3\n        /* \"#utility.yul\":2872:2890   */\n      add\n        /* \"#utility.yul\":2864:2890   */\n      swap1\n      pop\n        /* \"#utility.yul\":2900:2988   */\n      tag_386\n        /* \"#utility.yul\":2985:2986   */\n      0x00\n        /* \"#utility.yul\":2974:2983   */\n      dup4\n        /* \"#utility.yul\":2970:2987   */\n      add\n        /* \"#utility.yul\":2961:2967   */\n      dup5\n        /* \"#utility.yul\":2900:2988   */\n      tag_307\n      jump\t// in\n    tag_386:\n        /* \"#utility.yul\":2739:2995   */\n      swap3\n      swap2\n      pop\n      pop\n      jump\t// out\n        /* \"#utility.yul\":3001:3123   */\n    tag_308:\n        /* \"#utility.yul\":3074:3098   */\n      tag_388\n        /* \"#utility.yul\":3092:3097   */\n      dup2\n        /* \"#utility.yul\":3074:3098   */\n      tag_296\n      jump\t// in\n    tag_388:\n        /* \"#utility.yul\":3067:3072   */\n      dup2\n        /* \"#utility.yul\":3064:3099   */\n      eq\n        /* \"#utility.yul\":3054:3117   */\n      tag_389\n      jumpi\n        /* \"#utility.yul\":3113:3114   */\n      0x00\n        /* \"#utility.yul\":3110:3111   */\n      dup1\n        /* \"#utility.yul\":3103:3115   */\n      revert\n        /* \"#utility.yul\":3054:3117   */\n    tag_389:\n        /* \"#utility.yul\":3001:3123   */\n      pop\n      jump\t// out\n        /* \"#utility.yul\":3129:3268   */\n    tag_309:\n        /* \"#utility.yul\":3175:3180   */\n      0x00\n        /* \"#utility.yul\":3213:3219   */\n      dup2\n        /* \"#utility.yul\":3200:3220   */\n      calldataload\n        /* \"#utility.yul\":3191:3220   */\n      swap1\n      pop\n        /* \"#utility.yul\":3229:3262   */\n      tag_391\n        /* \"#utility.yul\":3256:3261   */\n      dup2\n        /* \"#utility.yul\":3229:3262   */\n      tag_308\n      jump\t// in\n    tag_391:\n        /* \"#utility.yul\":3129:3268   */\n      swap3\n      swap2\n      pop\n      pop\n      jump\t// out\n        /* \"#utility.yul\":3274:3603   */\n    tag_57:\n        /* \"#utility.yul\":3333:3339   */\n      0x00\n        /* \"#utility.yul\":3382:3384   */\n      0x20\n        /* \"#utility.yul\":3370:3379   */\n      dup3\n        /* \"#utility.yul\":3361:3368   */\n      dup5\n        /* \"#utility.yul\":3357:3380   */\n      sub\n        /* \"#utility.yul\":3353:3385   */\n      slt\n        /* \"#utility.yul\":3350:3469   */\n      iszero\n      tag_393\n      jumpi\n        /* \"#utility.yul\":3388:3467   */\n      tag_394\n      tag_299\n      jump\t// in\n    tag_394:\n        /* \"#utility.yul\":3350:3469   */\n    tag_393:\n        /* \"#utility.yul\":3508:3509   */\n      0x00\n        /* \"#utility.yul\":3533:3586   */\n      tag_395\n        /* \"#utility.yul\":3578:3585   */\n      dup5\n        /* \"#utility.yul\":3569:3575   */\n      dup3\n        /* \"#utility.yul\":3558:3567   */\n      dup6\n        /* \"#utility.yul\":3554:3576   */\n      add\n        /* \"#utility.yul\":3533:3586   */\n      tag_309\n      jump\t// in\n    tag_395:\n        /* \"#utility.yul\":3523:3586   */\n      swap2\n      pop\n        /* \"#utility.yul\":3479:3596   */\n      pop\n        /* \"#utility.yul\":3274:3603   */\n      swap3\n      swap2\n      pop\n      pop\n      jump\t// out\n        /* \"#utility.yul\":3609:3831   */\n    tag_67:\n        /* \"#utility.yul\":3702:3706   */\n      0x00\n        /* \"#utility.yul\":3740:3742   */\n      0x20\n        /* \"#utility.yul\":3729:3738   */\n      dup3\n        /* \"#utility.yul\":3725:3743   */\n      add\n        /* \"#utility.yul\":3717:3743   */\n      swap1\n      pop\n        /* \"#utility.yul\":3753:3824   */\n      tag_397\n        /* \"#utility.yul\":3821:3822   */\n      0x00\n        /* \"#utility.yul\":3810:3819   */\n      dup4\n        /* \"#utility.yul\":3806:3823   */\n      add\n        /* \"#utility.yul\":3797:3803   */\n      dup5\n        /* \"#utility.yul\":3753:3824   */\n      tag_295\n      jump\t// in\n    tag_397:\n        /* \"#utility.yul\":3609:3831   */\n      swap3\n      swap2\n      pop\n      pop\n      jump\t// out\n        /* \"#utility.yul\":3837:3976   */\n    tag_310:\n        /* \"#utility.yul\":3900:3909   */\n      0x00\n        /* \"#utility.yul\":3933:3970   */\n      tag_399\n        /* \"#utility.yul\":3964:3969   */\n      dup3\n        /* \"#utility.yul\":3933:3970   */\n      tag_305\n      jump\t// in\n    tag_399:\n        /* \"#utility.yul\":3920:3970   */\n      swap1\n      pop\n        /* \"#utility.yul\":3837:3976   */\n      swap2\n      swap1\n      pop\n      jump\t// out\n        /* \"#utility.yul\":3982:4139   */\n    tag_311:\n        /* \"#utility.yul\":4082:4132   */\n      tag_401\n        /* \"#utility.yul\":4126:4131   */\n      dup2\n        /* \"#utility.yul\":4082:4132   */\n      tag_310\n      jump\t// in\n    tag_401:\n        /* \"#utility.yul\":4077:4080   */\n      dup3\n        /* \"#utility.yul\":4070:4133   */\n      mstore\n        /* \"#utility.yul\":3982:4139   */\n      pop\n      pop\n      jump\t// out\n        /* \"#utility.yul\":4145:4393   */\n    tag_92:\n        /* \"#utility.yul\":4251:4255   */\n      0x00\n        /* \"#utility.yul\":4289:4291   */\n      0x20\n        /* \"#utility.yul\":4278:4287   */\n      dup3\n        /* \"#utility.yul\":4274:4292   */\n      add\n        /* \"#utility.yul\":4266:4292   */\n      swap1\n      pop\n        /* \"#utility.yul\":4302:4386   */\n      tag_403\n        /* \"#utility.yul\":4383:4384   */\n      0x00\n        /* \"#utility.yul\":4372:4381   */\n      dup4\n        /* \"#utility.yul\":4368:4385   */\n      add\n        /* \"#utility.yul\":4359:4365   */\n      dup5\n        /* \"#utility.yul\":4302:4386   */\n      tag_311\n      jump\t// in\n    tag_403:\n        /* \"#utility.yul\":4145:4393   */\n      swap3\n      swap2\n      pop\n      pop\n      jump\t// out\n        /* \"#utility.yul\":4399:4873   */\n    tag_104:\n        /* \"#utility.yul\":4467:4473   */\n      0x00\n        /* \"#utility.yul\":4475:4481   */\n      dup1\n        /* \"#utility.yul\":4524:4526   */\n      0x40\n        /* \"#utility.yul\":4512:4521   */\n      dup4\n        /* \"#utility.yul\":4503:4510   */\n      dup6\n        /* \"#utility.yul\":4499:4522   */\n      sub\n        /* \"#utility.yul\":4495:4527   */\n      slt\n        /* \"#utility.yul\":4492:4611   */\n      iszero\n      tag_405\n      jumpi\n        /* \"#utility.yul\":4530:4609   */\n      tag_406\n      tag_299\n      jump\t// in\n    tag_406:\n        /* \"#utility.yul\":4492:4611   */\n    tag_405:\n        /* \"#utility.yul\":4650:4651   */\n      0x00\n        /* \"#utility.yul\":4675:4728   */\n      tag_407\n        /* \"#utility.yul\":4720:4727   */\n      dup6\n        /* \"#utility.yul\":4711:4717   */\n      dup3\n        /* \"#utility.yul\":4700:4709   */\n      dup7\n        /* \"#utility.yul\":4696:4718   */\n      add\n        /* \"#utility.yul\":4675:4728   */\n      tag_302\n      jump\t// in\n    tag_407:\n        /* \"#utility.yul\":4665:4728   */\n      swap3\n      pop\n        /* \"#utility.yul\":4621:4738   */\n      pop\n        /* \"#utility.yul\":4777:4779   */\n      0x20\n        /* \"#utility.yul\":4803:4856   */\n      tag_408\n        /* \"#utility.yul\":4848:4855   */\n      dup6\n        /* \"#utility.yul\":4839:4845   */\n      dup3\n        /* \"#utility.yul\":4828:4837   */\n      dup7\n        /* \"#utility.yul\":4824:4846   */\n      add\n        /* \"#utility.yul\":4803:4856   */\n      tag_302\n      jump\t// in\n    tag_408:\n        /* \"#utility.yul\":4793:4856   */\n      swap2\n      pop\n        /* \"#utility.yul\":4748:4866   */\n      pop\n        /* \"#utility.yul\":4399:4873   */\n      swap3\n      pop\n      swap3\n      swap1\n      pop\n      jump\t// out\n        /* \"#utility.yul\":4879:4996   */\n    tag_312:\n        /* \"#utility.yul\":4988:4989   */\n      0x00\n        /* \"#utility.yul\":4985:4986   */\n      dup1\n        /* \"#utility.yul\":4978:4990   */\n      revert\n        /* \"#utility.yul\":5002:5104   */\n    tag_313:\n        /* \"#utility.yul\":5043:5049   */\n      0x00\n        /* \"#utility.yul\":5094:5096   */\n      0x1f\n        /* \"#utility.yul\":5090:5097   */\n      not\n        /* \"#utility.yul\":5085:5087   */\n      0x1f\n        /* \"#utility.yul\":5078:5083   */\n      dup4\n        /* \"#utility.yul\":5074:5088   */\n      add\n        /* \"#utility.yul\":5070:5098   */\n      and\n        /* \"#utility.yul\":5060:5098   */\n      swap1\n      pop\n        /* \"#utility.yul\":5002:5104   */\n      swap2\n      swap1\n      pop\n      jump\t// out\n        /* \"#utility.yul\":5110:5290   */\n    tag_314:\n        /* \"#utility.yul\":5158:5235   */\n      0x4e487b7100000000000000000000000000000000000000000000000000000000\n        /* \"#utility.yul\":5155:5156   */\n      0x00\n        /* \"#utility.yul\":5148:5236   */\n      mstore\n        /* \"#utility.yul\":5255:5259   */\n      0x41\n        /* \"#utility.yul\":5252:5253   */\n      0x04\n        /* \"#utility.yul\":5245:5260   */\n      mstore\n        /* \"#utility.yul\":5279:5283   */\n      0x24\n        /* \"#utility.yul\":5276:5277   */\n      0x00\n        /* \"#utility.yul\":5269:5284   */\n      revert\n        /* \"#utility.yul\":5296:5577   */\n    tag_315:\n        /* \"#utility.yul\":5379:5406   */\n      tag_413\n        /* \"#utility.yul\":5401:5405   */\n      dup3\n        /* \"#utility.yul\":5379:5406   */\n      tag_313\n      jump\t// in\n    tag_413:\n        /* \"#utility.yul\":5371:5377   */\n      dup2\n        /* \"#utility.yul\":5367:5407   */\n      add\n        /* \"#utility.yul\":5509:5515   */\n      dup2\n        /* \"#utility.yul\":5497:5507   */\n      dup2\n        /* \"#utility.yul\":5494:5516   */\n      lt\n        /* \"#utility.yul\":5473:5491   */\n      0xffffffffffffffff\n        /* \"#utility.yul\":5461:5471   */\n      dup3\n        /* \"#utility.yul\":5458:5492   */\n      gt\n        /* \"#utility.yul\":5455:5517   */\n      or\n        /* \"#utility.yul\":5452:5540   */\n      iszero\n      tag_414\n      jumpi\n        /* \"#utility.yul\":5520:5538   */\n      tag_415\n      tag_314\n      jump\t// in\n    tag_415:\n        /* \"#utility.yul\":5452:5540   */\n    tag_414:\n        /* \"#utility.yul\":5560:5570   */\n      dup1\n        /* \"#utility.yul\":5556:5558   */\n      0x40\n        /* \"#utility.yul\":5549:5571   */\n      mstore\n        /* \"#utility.yul\":5339:5577   */\n      pop\n        /* \"#utility.yul\":5296:5577   */\n      pop\n      pop\n      jump\t// out\n        /* \"#utility.yul\":5583:5712   */\n    tag_316:\n        /* \"#utility.yul\":5617:5623   */\n      0x00\n        /* \"#utility.yul\":5644:5664   */\n      tag_417\n      tag_298\n      jump\t// in\n    tag_417:\n        /* \"#utility.yul\":5634:5664   */\n      swap1\n      pop\n        /* \"#utility.yul\":5673:5706   */\n      tag_418\n        /* \"#utility.yul\":5701:5705   */\n      dup3\n        /* \"#utility.yul\":5693:5699   */\n      dup3\n        /* \"#utility.yul\":5673:5706   */\n      tag_315\n      jump\t// in\n    tag_418:\n        /* \"#utility.yul\":5583:5712   */\n      swap2\n      swap1\n      pop\n      jump\t// out\n        /* \"#utility.yul\":5718:6042   */\n    tag_317:\n        /* \"#utility.yul\":5808:5812   */\n      0x00\n        /* \"#utility.yul\":5898:5916   */\n      0xffffffffffffffff\n        /* \"#utility.yul\":5890:5896   */\n      dup3\n        /* \"#utility.yul\":5887:5917   */\n      gt\n        /* \"#utility.yul\":5884:5940   */\n      iszero\n      tag_420\n      jumpi\n        /* \"#utility.yul\":5920:5938   */\n      tag_421\n      tag_314\n      jump\t// in\n    tag_421:\n        /* \"#utility.yul\":5884:5940   */\n    tag_420:\n        /* \"#utility.yul\":5970:5974   */\n      0x20\n        /* \"#utility.yul\":5962:5968   */\n      dup3\n        /* \"#utility.yul\":5958:5975   */\n      mul\n        /* \"#utility.yul\":5950:5975   */\n      swap1\n      pop\n        /* \"#utility.yul\":6030:6034   */\n      0x20\n        /* \"#utility.yul\":6024:6028   */\n      dup2\n        /* \"#utility.yul\":6020:6035   */\n      add\n        /* \"#utility.yul\":6012:6035   */\n      swap1\n      pop\n        /* \"#utility.yul\":5718:6042   */\n      swap2\n      swap1\n      pop\n      jump\t// out\n        /* \"#utility.yul\":6048:6165   */\n    tag_318:\n        /* \"#utility.yul\":6157:6158   */\n      0x00\n        /* \"#utility.yul\":6154:6155   */\n      dup1\n        /* \"#utility.yul\":6147:6159   */\n      revert\n        /* \"#utility.yul\":6171:6280   */\n    tag_319:\n        /* \"#utility.yul\":6221:6228   */\n      0x00\n        /* \"#utility.yul\":6250:6274   */\n      tag_424\n        /* \"#utility.yul\":6268:6273   */\n      dup3\n        /* \"#utility.yul\":6250:6274   */\n      tag_294\n      jump\t// in\n    tag_424:\n        /* \"#utility.yul\":6239:6274   */\n      swap1\n      pop\n        /* \"#utility.yul\":6171:6280   */\n      swap2\n      swap1\n      pop\n      jump\t// out\n        /* \"#utility.yul\":6286:6434   */\n    tag_320:\n        /* \"#utility.yul\":6372:6409   */\n      tag_426\n        /* \"#utility.yul\":6403:6408   */\n      dup2\n        /* \"#utility.yul\":6372:6409   */\n      tag_319\n      jump\t// in\n    tag_426:\n        /* \"#utility.yul\":6365:6370   */\n      dup2\n        /* \"#utility.yul\":6362:6410   */\n      eq\n        /* \"#utility.yul\":6352:6428   */\n      tag_427\n      jumpi\n        /* \"#utility.yul\":6424:6425   */\n      0x00\n        /* \"#utility.yul\":6421:6422   */\n      dup1\n        /* \"#utility.yul\":6414:6426   */\n      revert\n        /* \"#utility.yul\":6352:6428   */\n    tag_427:\n        /* \"#utility.yul\":6286:6434   */\n      pop\n      jump\t// out\n        /* \"#utility.yul\":6440:6605   */\n    tag_321:\n        /* \"#utility.yul\":6499:6504   */\n      0x00\n        /* \"#utility.yul\":6537:6543   */\n      dup2\n        /* \"#utility.yul\":6524:6544   */\n      calldataload\n        /* \"#utility.yul\":6515:6544   */\n      swap1\n      pop\n        /* \"#utility.yul\":6553:6599   */\n      tag_429\n        /* \"#utility.yul\":6593:6598   */\n      dup2\n        /* \"#utility.yul\":6553:6599   */\n      tag_320\n      jump\t// in\n    tag_429:\n        /* \"#utility.yul\":6440:6605   */\n      swap3\n      swap2\n      pop\n      pop\n      jump\t// out\n        /* \"#utility.yul\":6636:7385   */\n    tag_322:\n        /* \"#utility.yul\":6745:6750   */\n      0x00\n        /* \"#utility.yul\":6770:6864   */\n      tag_431\n        /* \"#utility.yul\":6786:6863   */\n      tag_432\n        /* \"#utility.yul\":6856:6862   */\n      dup5\n        /* \"#utility.yul\":6786:6863   */\n      tag_317\n      jump\t// in\n    tag_432:\n        /* \"#utility.yul\":6770:6864   */\n      tag_316\n      jump\t// in\n    tag_431:\n        /* \"#utility.yul\":6761:6864   */\n      swap1\n      pop\n        /* \"#utility.yul\":6884:6889   */\n      dup1\n        /* \"#utility.yul\":6913:6919   */\n      dup4\n        /* \"#utility.yul\":6906:6911   */\n      dup3\n        /* \"#utility.yul\":6899:6920   */\n      mstore\n        /* \"#utility.yul\":6947:6951   */\n      0x20\n        /* \"#utility.yul\":6940:6945   */\n      dup3\n        /* \"#utility.yul\":6936:6952   */\n      add\n        /* \"#utility.yul\":6929:6952   */\n      swap1\n      pop\n        /* \"#utility.yul\":7000:7004   */\n      0x20\n        /* \"#utility.yul\":6992:6998   */\n      dup5\n        /* \"#utility.yul\":6988:7005   */\n      mul\n        /* \"#utility.yul\":6980:6986   */\n      dup4\n        /* \"#utility.yul\":6976:7006   */\n      add\n        /* \"#utility.yul\":7029:7032   */\n      dup6\n        /* \"#utility.yul\":7021:7027   */\n      dup2\n        /* \"#utility.yul\":7018:7033   */\n      gt\n        /* \"#utility.yul\":7015:7137   */\n      iszero\n      tag_433\n      jumpi\n        /* \"#utility.yul\":7048:7127   */\n      tag_434\n      tag_318\n      jump\t// in\n    tag_434:\n        /* \"#utility.yul\":7015:7137   */\n    tag_433:\n        /* \"#utility.yul\":7163:7169   */\n      dup4\n        /* \"#utility.yul\":7146:7379   */\n    tag_435:\n        /* \"#utility.yul\":7180:7186   */\n      dup2\n        /* \"#utility.yul\":7175:7178   */\n      dup2\n        /* \"#utility.yul\":7172:7187   */\n      lt\n        /* \"#utility.yul\":7146:7379   */\n      iszero\n      tag_437\n      jumpi\n        /* \"#utility.yul\":7255:7258   */\n      dup1\n        /* \"#utility.yul\":7284:7334   */\n      tag_438\n        /* \"#utility.yul\":7330:7333   */\n      dup9\n        /* \"#utility.yul\":7318:7328   */\n      dup3\n        /* \"#utility.yul\":7284:7334   */\n      tag_321\n      jump\t// in\n    tag_438:\n        /* \"#utility.yul\":7279:7282   */\n      dup5\n        /* \"#utility.yul\":7272:7335   */\n      mstore\n        /* \"#utility.yul\":7364:7368   */\n      0x20\n        /* \"#utility.yul\":7359:7362   */\n      dup5\n        /* \"#utility.yul\":7355:7369   */\n      add\n        /* \"#utility.yul\":7348:7369   */\n      swap4\n      pop\n        /* \"#utility.yul\":7222:7379   */\n      pop\n        /* \"#utility.yul\":7206:7210   */\n      0x20\n        /* \"#utility.yul\":7201:7204   */\n      dup2\n        /* \"#utility.yul\":7197:7211   */\n      add\n        /* \"#utility.yul\":7190:7211   */\n      swap1\n      pop\n        /* \"#utility.yul\":7146:7379   */\n      jump(tag_435)\n    tag_437:\n        /* \"#utility.yul\":7150:7171   */\n      pop\n        /* \"#utility.yul\":6751:7385   */\n      pop\n      pop\n        /* \"#utility.yul\":6636:7385   */\n      swap4\n      swap3\n      pop\n      pop\n      pop\n      jump\t// out\n        /* \"#utility.yul\":7416:7812   */\n    tag_323:\n        /* \"#utility.yul\":7500:7505   */\n      0x00\n        /* \"#utility.yul\":7549:7552   */\n      dup3\n        /* \"#utility.yul\":7542:7546   */\n      0x1f\n        /* \"#utility.yul\":7534:7540   */\n      dup4\n        /* \"#utility.yul\":7530:7547   */\n      add\n        /* \"#utility.yul\":7526:7553   */\n      slt\n        /* \"#utility.yul\":7516:7638   */\n      tag_440\n      jumpi\n        /* \"#utility.yul\":7557:7636   */\n      tag_441\n      tag_312\n      jump\t// in\n    tag_441:\n        /* \"#utility.yul\":7516:7638   */\n    tag_440:\n        /* \"#utility.yul\":7674:7680   */\n      dup2\n        /* \"#utility.yul\":7661:7681   */\n      calldataload\n        /* \"#utility.yul\":7699:7806   */\n      tag_442\n        /* \"#utility.yul\":7802:7805   */\n      dup5\n        /* \"#utility.yul\":7794:7800   */\n      dup3\n        /* \"#utility.yul\":7787:7791   */\n      0x20\n        /* \"#utility.yul\":7779:7785   */\n      dup7\n        /* \"#utility.yul\":7775:7792   */\n      add\n        /* \"#utility.yul\":7699:7806   */\n      tag_322\n      jump\t// in\n    tag_442:\n        /* \"#utility.yul\":7690:7806   */\n      swap2\n      pop\n        /* \"#utility.yul\":7506:7812   */\n      pop\n        /* \"#utility.yul\":7416:7812   */\n      swap3\n      swap2\n      pop\n      pop\n      jump\t// out\n        /* \"#utility.yul\":7818:8129   */\n    tag_324:\n        /* \"#utility.yul\":7895:7899   */\n      0x00\n        /* \"#utility.yul\":7985:8003   */\n      0xffffffffffffffff\n        /* \"#utility.yul\":7977:7983   */\n      dup3\n        /* \"#utility.yul\":7974:8004   */\n      gt\n        /* \"#utility.yul\":7971:8027   */\n      iszero\n      tag_444\n      jumpi\n        /* \"#utility.yul\":8007:8025   */\n      tag_445\n      tag_314\n      jump\t// in\n    tag_445:\n        /* \"#utility.yul\":7971:8027   */\n    tag_444:\n        /* \"#utility.yul\":8057:8061   */\n      0x20\n        /* \"#utility.yul\":8049:8055   */\n      dup3\n        /* \"#utility.yul\":8045:8062   */\n      mul\n        /* \"#utility.yul\":8037:8062   */\n      swap1\n      pop\n        /* \"#utility.yul\":8117:8121   */\n      0x20\n        /* \"#utility.yul\":8111:8115   */\n      dup2\n        /* \"#utility.yul\":8107:8122   */\n      add\n        /* \"#utility.yul\":8099:8122   */\n      swap1\n      pop\n        /* \"#utility.yul\":7818:8129   */\n      swap2\n      swap1\n      pop\n      jump\t// out\n        /* \"#utility.yul\":8152:8862   */\n    tag_325:\n        /* \"#utility.yul\":8248:8253   */\n      0x00\n        /* \"#utility.yul\":8273:8354   */\n      tag_447\n        /* \"#utility.yul\":8289:8353   */\n      tag_448\n        /* \"#utility.yul\":8346:8352   */\n      dup5\n        /* \"#utility.yul\":8289:8353   */\n      tag_324\n      jump\t// in\n    tag_448:\n        /* \"#utility.yul\":8273:8354   */\n      tag_316\n      jump\t// in\n    tag_447:\n        /* \"#utility.yul\":8264:8354   */\n      swap1\n      pop\n        /* \"#utility.yul\":8374:8379   */\n      dup1\n        /* \"#utility.yul\":8403:8409   */\n      dup4\n        /* \"#utility.yul\":8396:8401   */\n      dup3\n        /* \"#utility.yul\":8389:8410   */\n      mstore\n        /* \"#utility.yul\":8437:8441   */\n      0x20\n        /* \"#utility.yul\":8430:8435   */\n      dup3\n        /* \"#utility.yul\":8426:8442   */\n      add\n        /* \"#utility.yul\":8419:8442   */\n      swap1\n      pop\n        /* \"#utility.yul\":8490:8494   */\n      0x20\n        /* \"#utility.yul\":8482:8488   */\n      dup5\n        /* \"#utility.yul\":8478:8495   */\n      mul\n        /* \"#utility.yul\":8470:8476   */\n      dup4\n        /* \"#utility.yul\":8466:8496   */\n      add\n        /* \"#utility.yul\":8519:8522   */\n      dup6\n        /* \"#utility.yul\":8511:8517   */\n      dup2\n        /* \"#utility.yul\":8508:8523   */\n      gt\n        /* \"#utility.yul\":8505:8627   */\n      iszero\n      tag_449\n      jumpi\n        /* \"#utility.yul\":8538:8617   */\n      tag_450\n      tag_318\n      jump\t// in\n    tag_450:\n        /* \"#utility.yul\":8505:8627   */\n    tag_449:\n        /* \"#utility.yul\":8653:8659   */\n      dup4\n        /* \"#utility.yul\":8636:8856   */\n    tag_451:\n        /* \"#utility.yul\":8670:8676   */\n      dup2\n        /* \"#utility.yul\":8665:8668   */\n      dup2\n        /* \"#utility.yul\":8662:8677   */\n      lt\n        /* \"#utility.yul\":8636:8856   */\n      iszero\n      tag_453\n      jumpi\n        /* \"#utility.yul\":8745:8748   */\n      dup1\n        /* \"#utility.yul\":8774:8811   */\n      tag_454\n        /* \"#utility.yul\":8807:8810   */\n      dup9\n        /* \"#utility.yul\":8795:8805   */\n      dup3\n        /* \"#utility.yul\":8774:8811   */\n      tag_309\n      jump\t// in\n    tag_454:\n        /* \"#utility.yul\":8769:8772   */\n      dup5\n        /* \"#utility.yul\":8762:8812   */\n      mstore\n        /* \"#utility.yul\":8841:8845   */\n      0x20\n        /* \"#utility.yul\":8836:8839   */\n      dup5\n        /* \"#utility.yul\":8832:8846   */\n      add\n        /* \"#utility.yul\":8825:8846   */\n      swap4\n      pop\n        /* \"#utility.yul\":8712:8856   */\n      pop\n        /* \"#utility.yul\":8696:8700   */\n      0x20\n        /* \"#utility.yul\":8691:8694   */\n      dup2\n        /* \"#utility.yul\":8687:8701   */\n      add\n        /* \"#utility.yul\":8680:8701   */\n      swap1\n      pop\n        /* \"#utility.yul\":8636:8856   */\n      jump(tag_451)\n    tag_453:\n        /* \"#utility.yul\":8640:8661   */\n      pop\n        /* \"#utility.yul\":8254:8862   */\n      pop\n      pop\n        /* \"#utility.yul\":8152:8862   */\n      swap4\n      swap3\n      pop\n      pop\n      pop\n      jump\t// out\n        /* \"#utility.yul\":8885:9255   */\n    tag_326:\n        /* \"#utility.yul\":8956:8961   */\n      0x00\n        /* \"#utility.yul\":9005:9008   */\n      dup3\n        /* \"#utility.yul\":8998:9002   */\n      0x1f\n        /* \"#utility.yul\":8990:8996   */\n      dup4\n        /* \"#utility.yul\":8986:9003   */\n      add\n        /* \"#utility.yul\":8982:9009   */\n      slt\n        /* \"#utility.yul\":8972:9094   */\n      tag_456\n      jumpi\n        /* \"#utility.yul\":9013:9092   */\n      tag_457\n      tag_312\n      jump\t// in\n    tag_457:\n        /* \"#utility.yul\":8972:9094   */\n    tag_456:\n        /* \"#utility.yul\":9130:9136   */\n      dup2\n        /* \"#utility.yul\":9117:9137   */\n      calldataload\n        /* \"#utility.yul\":9155:9249   */\n      tag_458\n        /* \"#utility.yul\":9245:9248   */\n      dup5\n        /* \"#utility.yul\":9237:9243   */\n      dup3\n        /* \"#utility.yul\":9230:9234   */\n      0x20\n        /* \"#utility.yul\":9222:9228   */\n      dup7\n        /* \"#utility.yul\":9218:9235   */\n      add\n        /* \"#utility.yul\":9155:9249   */\n      tag_325\n      jump\t// in\n    tag_458:\n        /* \"#utility.yul\":9146:9249   */\n      swap2\n      pop\n        /* \"#utility.yul\":8962:9255   */\n      pop\n        /* \"#utility.yul\":8885:9255   */\n      swap3\n      swap2\n      pop\n      pop\n      jump\t// out\n        /* \"#utility.yul\":9261:9378   */\n    tag_327:\n        /* \"#utility.yul\":9370:9371   */\n      0x00\n        /* \"#utility.yul\":9367:9368   */\n      dup1\n        /* \"#utility.yul\":9360:9372   */\n      revert\n        /* \"#utility.yul\":9384:9691   */\n    tag_328:\n        /* \"#utility.yul\":9445:9449   */\n      0x00\n        /* \"#utility.yul\":9535:9553   */\n      0xffffffffffffffff\n        /* \"#utility.yul\":9527:9533   */\n      dup3\n        /* \"#utility.yul\":9524:9554   */\n      gt\n        /* \"#utility.yul\":9521:9577   */\n      iszero\n      tag_461\n      jumpi\n        /* \"#utility.yul\":9557:9575   */\n      tag_462\n      tag_314\n      jump\t// in\n    tag_462:\n        /* \"#utility.yul\":9521:9577   */\n    tag_461:\n        /* \"#utility.yul\":9595:9624   */\n      tag_463\n        /* \"#utility.yul\":9617:9623   */\n      dup3\n        /* \"#utility.yul\":9595:9624   */\n      tag_313\n      jump\t// in\n    tag_463:\n        /* \"#utility.yul\":9587:9624   */\n      swap1\n      pop\n        /* \"#utility.yul\":9679:9683   */\n      0x20\n        /* \"#utility.yul\":9673:9677   */\n      dup2\n        /* \"#utility.yul\":9669:9684   */\n      add\n        /* \"#utility.yul\":9661:9684   */\n      swap1\n      pop\n        /* \"#utility.yul\":9384:9691   */\n      swap2\n      swap1\n      pop\n      jump\t// out\n        /* \"#utility.yul\":9697:9845   */\n    tag_329:\n        /* \"#utility.yul\":9795:9801   */\n      dup3\n        /* \"#utility.yul\":9790:9793   */\n      dup2\n        /* \"#utility.yul\":9785:9788   */\n      dup4\n        /* \"#utility.yul\":9772:9802   */\n      calldatacopy\n        /* \"#utility.yul\":9836:9837   */\n      0x00\n        /* \"#utility.yul\":9827:9833   */\n      dup4\n        /* \"#utility.yul\":9822:9825   */\n      dup4\n        /* \"#utility.yul\":9818:9834   */\n      add\n        /* \"#utility.yul\":9811:9838   */\n      mstore\n        /* \"#utility.yul\":9697:9845   */\n      pop\n      pop\n      pop\n      jump\t// out\n        /* \"#utility.yul\":9851:10274   */\n    tag_330:\n        /* \"#utility.yul\":9928:9933   */\n      0x00\n        /* \"#utility.yul\":9953:10018   */\n      tag_466\n        /* \"#utility.yul\":9969:10017   */\n      tag_467\n        /* \"#utility.yul\":10010:10016   */\n      dup5\n        /* \"#utility.yul\":9969:10017   */\n      tag_328\n      jump\t// in\n    tag_467:\n        /* \"#utility.yul\":9953:10018   */\n      tag_316\n      jump\t// in\n    tag_466:\n        /* \"#utility.yul\":9944:10018   */\n      swap1\n      pop\n        /* \"#utility.yul\":10041:10047   */\n      dup3\n        /* \"#utility.yul\":10034:10039   */\n      dup2\n        /* \"#utility.yul\":10027:10048   */\n      mstore\n        /* \"#utility.yul\":10079:10083   */\n      0x20\n        /* \"#utility.yul\":10072:10077   */\n      dup2\n        /* \"#utility.yul\":10068:10084   */\n      add\n        /* \"#utility.yul\":10117:10120   */\n      dup5\n        /* \"#utility.yul\":10108:10114   */\n      dup5\n        /* \"#utility.yul\":10103:10106   */\n      dup5\n        /* \"#utility.yul\":10099:10115   */\n      add\n        /* \"#utility.yul\":10096:10121   */\n      gt\n        /* \"#utility.yul\":10093:10205   */\n      iszero\n      tag_468\n      jumpi\n        /* \"#utility.yul\":10124:10203   */\n      tag_469\n      tag_327\n      jump\t// in\n    tag_469:\n        /* \"#utility.yul\":10093:10205   */\n    tag_468:\n        /* \"#utility.yul\":10214:10268   */\n      tag_470\n        /* \"#utility.yul\":10261:10267   */\n      dup5\n        /* \"#utility.yul\":10256:10259   */\n      dup3\n        /* \"#utility.yul\":10251:10254   */\n      dup6\n        /* \"#utility.yul\":10214:10268   */\n      tag_329\n      jump\t// in\n    tag_470:\n        /* \"#utility.yul\":9934:10274   */\n      pop\n        /* \"#utility.yul\":9851:10274   */\n      swap4\n      swap3\n      pop\n      pop\n      pop\n      jump\t// out\n        /* \"#utility.yul\":10293:10631   */\n    tag_331:\n        /* \"#utility.yul\":10348:10353   */\n      0x00\n        /* \"#utility.yul\":10397:10400   */\n      dup3\n        /* \"#utility.yul\":10390:10394   */\n      0x1f\n        /* \"#utility.yul\":10382:10388   */\n      dup4\n        /* \"#utility.yul\":10378:10395   */\n      add\n        /* \"#utility.yul\":10374:10401   */\n      slt\n        /* \"#utility.yul\":10364:10486   */\n      tag_472\n      jumpi\n        /* \"#utility.yul\":10405:10484   */\n      tag_473\n      tag_312\n      jump\t// in\n    tag_473:\n        /* \"#utility.yul\":10364:10486   */\n    tag_472:\n        /* \"#utility.yul\":10522:10528   */\n      dup2\n        /* \"#utility.yul\":10509:10529   */\n      calldataload\n        /* \"#utility.yul\":10547:10625   */\n      tag_474\n        /* \"#utility.yul\":10621:10624   */\n      dup5\n        /* \"#utility.yul\":10613:10619   */\n      dup3\n        /* \"#utility.yul\":10606:10610   */\n      0x20\n        /* \"#utility.yul\":10598:10604   */\n      dup7\n        /* \"#utility.yul\":10594:10611   */\n      add\n        /* \"#utility.yul\":10547:10625   */\n      tag_330\n      jump\t// in\n    tag_474:\n        /* \"#utility.yul\":10538:10625   */\n      swap2\n      pop\n        /* \"#utility.yul\":10354:10631   */\n      pop\n        /* \"#utility.yul\":10293:10631   */\n      swap3\n      swap2\n      pop\n      pop\n      jump\t// out\n        /* \"#utility.yul\":10637:12236   */\n    tag_126:\n        /* \"#utility.yul\":10820:10826   */\n      0x00\n        /* \"#utility.yul\":10828:10834   */\n      dup1\n        /* \"#utility.yul\":10836:10842   */\n      0x00\n        /* \"#utility.yul\":10844:10850   */\n      dup1\n        /* \"#utility.yul\":10893:10896   */\n      0x80\n        /* \"#utility.yul\":10881:10890   */\n      dup6\n        /* \"#utility.yul\":10872:10879   */\n      dup8\n        /* \"#utility.yul\":10868:10891   */\n      sub\n        /* \"#utility.yul\":10864:10897   */\n      slt\n        /* \"#utility.yul\":10861:10981   */\n      iszero\n      tag_476\n      jumpi\n        /* \"#utility.yul\":10900:10979   */\n      tag_477\n      tag_299\n      jump\t// in\n    tag_477:\n        /* \"#utility.yul\":10861:10981   */\n    tag_476:\n        /* \"#utility.yul\":11048:11049   */\n      0x00\n        /* \"#utility.yul\":11037:11046   */\n      dup6\n        /* \"#utility.yul\":11033:11050   */\n      add\n        /* \"#utility.yul\":11020:11051   */\n      calldataload\n        /* \"#utility.yul\":11078:11096   */\n      0xffffffffffffffff\n        /* \"#utility.yul\":11070:11076   */\n      dup2\n        /* \"#utility.yul\":11067:11097   */\n      gt\n        /* \"#utility.yul\":11064:11181   */\n      iszero\n      tag_478\n      jumpi\n        /* \"#utility.yul\":11100:11179   */\n      tag_479\n      tag_300\n      jump\t// in\n    tag_479:\n        /* \"#utility.yul\":11064:11181   */\n    tag_478:\n        /* \"#utility.yul\":11205:11296   */\n      tag_480\n        /* \"#utility.yul\":11288:11295   */\n      dup8\n        /* \"#utility.yul\":11279:11285   */\n      dup3\n        /* \"#utility.yul\":11268:11277   */\n      dup9\n        /* \"#utility.yul\":11264:11286   */\n      add\n        /* \"#utility.yul\":11205:11296   */\n      tag_323\n      jump\t// in\n    tag_480:\n        /* \"#utility.yul\":11195:11296   */\n      swap5\n      pop\n        /* \"#utility.yul\":10991:11306   */\n      pop\n        /* \"#utility.yul\":11373:11375   */\n      0x20\n        /* \"#utility.yul\":11362:11371   */\n      dup6\n        /* \"#utility.yul\":11358:11376   */\n      add\n        /* \"#utility.yul\":11345:11377   */\n      calldataload\n        /* \"#utility.yul\":11404:11422   */\n      0xffffffffffffffff\n        /* \"#utility.yul\":11396:11402   */\n      dup2\n        /* \"#utility.yul\":11393:11423   */\n      gt\n        /* \"#utility.yul\":11390:11507   */\n      iszero\n      tag_481\n      jumpi\n        /* \"#utility.yul\":11426:11505   */\n      tag_482\n      tag_300\n      jump\t// in\n    tag_482:\n        /* \"#utility.yul\":11390:11507   */\n    tag_481:\n        /* \"#utility.yul\":11531:11609   */\n      tag_483\n        /* \"#utility.yul\":11601:11608   */\n      dup8\n        /* \"#utility.yul\":11592:11598   */\n      dup3\n        /* \"#utility.yul\":11581:11590   */\n      dup9\n        /* \"#utility.yul\":11577:11599   */\n      add\n        /* \"#utility.yul\":11531:11609   */\n      tag_326\n      jump\t// in\n    tag_483:\n        /* \"#utility.yul\":11521:11609   */\n      swap4\n      pop\n        /* \"#utility.yul\":11316:11619   */\n      pop\n        /* \"#utility.yul\":11686:11688   */\n      0x40\n        /* \"#utility.yul\":11675:11684   */\n      dup6\n        /* \"#utility.yul\":11671:11689   */\n      add\n        /* \"#utility.yul\":11658:11690   */\n      calldataload\n        /* \"#utility.yul\":11717:11735   */\n      0xffffffffffffffff\n        /* \"#utility.yul\":11709:11715   */\n      dup2\n        /* \"#utility.yul\":11706:11736   */\n      gt\n        /* \"#utility.yul\":11703:11820   */\n      iszero\n      tag_484\n      jumpi\n        /* \"#utility.yul\":11739:11818   */\n      tag_485\n      tag_300\n      jump\t// in\n    tag_485:\n        /* \"#utility.yul\":11703:11820   */\n    tag_484:\n        /* \"#utility.yul\":11844:11922   */\n      tag_486\n        /* \"#utility.yul\":11914:11921   */\n      dup8\n        /* \"#utility.yul\":11905:11911   */\n      dup3\n        /* \"#utility.yul\":11894:11903   */\n      dup9\n        /* \"#utility.yul\":11890:11912   */\n      add\n        /* \"#utility.yul\":11844:11922   */\n      tag_326\n      jump\t// in\n    tag_486:\n        /* \"#utility.yul\":11834:11922   */\n      swap3\n      pop\n        /* \"#utility.yul\":11629:11932   */\n      pop\n        /* \"#utility.yul\":11999:12001   */\n      0x60\n        /* \"#utility.yul\":11988:11997   */\n      dup6\n        /* \"#utility.yul\":11984:12002   */\n      add\n        /* \"#utility.yul\":11971:12003   */\n      calldataload\n        /* \"#utility.yul\":12030:12048   */\n      0xffffffffffffffff\n        /* \"#utility.yul\":12022:12028   */\n      dup2\n        /* \"#utility.yul\":12019:12049   */\n      gt\n        /* \"#utility.yul\":12016:12133   */\n      iszero\n      tag_487\n      jumpi\n        /* \"#utility.yul\":12052:12131   */\n      tag_488\n      tag_300\n      jump\t// in\n    tag_488:\n        /* \"#utility.yul\":12016:12133   */\n    tag_487:\n        /* \"#utility.yul\":12157:12219   */\n      tag_489\n        /* \"#utility.yul\":12211:12218   */\n      dup8\n        /* \"#utility.yul\":12202:12208   */\n      dup3\n        /* \"#utility.yul\":12191:12200   */\n      dup9\n        /* \"#utility.yul\":12187:12209   */\n      add\n        /* \"#utility.yul\":12157:12219   */\n      tag_331\n      jump\t// in\n    tag_489:\n        /* \"#utility.yul\":12147:12219   */\n      swap2\n      pop\n        /* \"#utility.yul\":11942:12229   */\n      pop\n        /* \"#utility.yul\":10637:12236   */\n      swap3\n      swap6\n      swap2\n      swap5\n      pop\n      swap3\n      pop\n      jump\t// out\n        /* \"#utility.yul\":12242:12411   */\n    tag_332:\n        /* \"#utility.yul\":12326:12337   */\n      0x00\n        /* \"#utility.yul\":12360:12366   */\n      dup3\n        /* \"#utility.yul\":12355:12358   */\n      dup3\n        /* \"#utility.yul\":12348:12367   */\n      mstore\n        /* \"#utility.yul\":12400:12404   */\n      0x20\n        /* \"#utility.yul\":12395:12398   */\n      dup3\n        /* \"#utility.yul\":12391:12405   */\n      add\n        /* \"#utility.yul\":12376:12405   */\n      swap1\n      pop\n        /* \"#utility.yul\":12242:12411   */\n      swap3\n      swap2\n      pop\n      pop\n      jump\t// out\n        /* \"#utility.yul\":12417:12650   */\n    tag_333:\n        /* \"#utility.yul\":12557:12591   */\n      0x4f6e6c792074686520636f6e7472616374206f776e65722063616e2063616c6c\n        /* \"#utility.yul\":12553:12554   */\n      0x00\n        /* \"#utility.yul\":12545:12551   */\n      dup3\n        /* \"#utility.yul\":12541:12555   */\n      add\n        /* \"#utility.yul\":12534:12592   */\n      mstore\n        /* \"#utility.yul\":12626:12642   */\n      0x20746869732066756e6374696f6e000000000000000000000000000000000000\n        /* \"#utility.yul\":12621:12623   */\n      0x20\n        /* \"#utility.yul\":12613:12619   */\n      dup3\n        /* \"#utility.yul\":12609:12624   */\n      add\n        /* \"#utility.yul\":12602:12643   */\n      mstore\n        /* \"#utility.yul\":12417:12650   */\n      pop\n      jump\t// out\n        /* \"#utility.yul\":12656:13022   */\n    tag_334:\n        /* \"#utility.yul\":12798:12801   */\n      0x00\n        /* \"#utility.yul\":12819:12886   */\n      tag_493\n        /* \"#utility.yul\":12883:12885   */\n      0x2e\n        /* \"#utility.yul\":12878:12881   */\n      dup4\n        /* \"#utility.yul\":12819:12886   */\n      tag_332\n      jump\t// in\n    tag_493:\n        /* \"#utility.yul\":12812:12886   */\n      swap2\n      pop\n        /* \"#utility.yul\":12895:12988   */\n      tag_494\n        /* \"#utility.yul\":12984:12987   */\n      dup3\n        /* \"#utility.yul\":12895:12988   */\n      tag_333\n      jump\t// in\n    tag_494:\n        /* \"#utility.yul\":13013:13015   */\n      0x40\n        /* \"#utility.yul\":13008:13011   */\n      dup3\n        /* \"#utility.yul\":13004:13016   */\n      add\n        /* \"#utility.yul\":12997:13016   */\n      swap1\n      pop\n        /* \"#utility.yul\":12656:13022   */\n      swap2\n      swap1\n      pop\n      jump\t// out\n        /* \"#utility.yul\":13028:13447   */\n    tag_131:\n        /* \"#utility.yul\":13194:13198   */\n      0x00\n        /* \"#utility.yul\":13232:13234   */\n      0x20\n        /* \"#utility.yul\":13221:13230   */\n      dup3\n        /* \"#utility.yul\":13217:13235   */\n      add\n        /* \"#utility.yul\":13209:13235   */\n      swap1\n      pop\n        /* \"#utility.yul\":13281:13290   */\n      dup2\n        /* \"#utility.yul\":13275:13279   */\n      dup2\n        /* \"#utility.yul\":13271:13291   */\n      sub\n        /* \"#utility.yul\":13267:13268   */\n      0x00\n        /* \"#utility.yul\":13256:13265   */\n      dup4\n        /* \"#utility.yul\":13252:13269   */\n      add\n        /* \"#utility.yul\":13245:13292   */\n      mstore\n        /* \"#utility.yul\":13309:13440   */\n      tag_496\n        /* \"#utility.yul\":13435:13439   */\n      dup2\n        /* \"#utility.yul\":13309:13440   */\n      tag_334\n      jump\t// in\n    tag_496:\n        /* \"#utility.yul\":13301:13440   */\n      swap1\n      pop\n        /* \"#utility.yul\":13028:13447   */\n      swap2\n      swap1\n      pop\n      jump\t// out\n        /* \"#utility.yul\":13453:13596   */\n    tag_335:\n        /* \"#utility.yul\":13510:13515   */\n      0x00\n        /* \"#utility.yul\":13541:13547   */\n      dup2\n        /* \"#utility.yul\":13535:13548   */\n      mload\n        /* \"#utility.yul\":13526:13548   */\n      swap1\n      pop\n        /* \"#utility.yul\":13557:13590   */\n      tag_498\n        /* \"#utility.yul\":13584:13589   */\n      dup2\n        /* \"#utility.yul\":13557:13590   */\n      tag_308\n      jump\t// in\n    tag_498:\n        /* \"#utility.yul\":13453:13596   */\n      swap3\n      swap2\n      pop\n      pop\n      jump\t// out\n        /* \"#utility.yul\":13602:13953   */\n    tag_141:\n        /* \"#utility.yul\":13672:13678   */\n      0x00\n        /* \"#utility.yul\":13721:13723   */\n      0x20\n        /* \"#utility.yul\":13709:13718   */\n      dup3\n        /* \"#utility.yul\":13700:13707   */\n      dup5\n        /* \"#utility.yul\":13696:13719   */\n      sub\n        /* \"#utility.yul\":13692:13724   */\n      slt\n        /* \"#utility.yul\":13689:13808   */\n      iszero\n      tag_500\n      jumpi\n        /* \"#utility.yul\":13727:13806   */\n      tag_501\n      tag_299\n      jump\t// in\n    tag_501:\n        /* \"#utility.yul\":13689:13808   */\n    tag_500:\n        /* \"#utility.yul\":13847:13848   */\n      0x00\n        /* \"#utility.yul\":13872:13936   */\n      tag_502\n        /* \"#utility.yul\":13928:13935   */\n      dup5\n        /* \"#utility.yul\":13919:13925   */\n      dup3\n        /* \"#utility.yul\":13908:13917   */\n      dup6\n        /* \"#utility.yul\":13904:13926   */\n      add\n        /* \"#utility.yul\":13872:13936   */\n      tag_335\n      jump\t// in\n    tag_502:\n        /* \"#utility.yul\":13862:13936   */\n      swap2\n      pop\n        /* \"#utility.yul\":13818:13946   */\n      pop\n        /* \"#utility.yul\":13602:13953   */\n      swap3\n      swap2\n      pop\n      pop\n      jump\t// out\n        /* \"#utility.yul\":13959:14181   */\n    tag_336:\n        /* \"#utility.yul\":14099:14133   */\n      0x4e6f205553445420466c61736820617661696c61626c6520746f207769746864\n        /* \"#utility.yul\":14095:14096   */\n      0x00\n        /* \"#utility.yul\":14087:14093   */\n      dup3\n        /* \"#utility.yul\":14083:14097   */\n      add\n        /* \"#utility.yul\":14076:14134   */\n      mstore\n        /* \"#utility.yul\":14168:14173   */\n      0x7261770000000000000000000000000000000000000000000000000000000000\n        /* \"#utility.yul\":14163:14165   */\n      0x20\n        /* \"#utility.yul\":14155:14161   */\n      dup3\n        /* \"#utility.yul\":14151:14166   */\n      add\n        /* \"#utility.yul\":14144:14174   */\n      mstore\n        /* \"#utility.yul\":13959:14181   */\n      pop\n      jump\t// out\n        /* \"#utility.yul\":14187:14553   */\n    tag_337:\n        /* \"#utility.yul\":14329:14332   */\n      0x00\n        /* \"#utility.yul\":14350:14417   */\n      tag_505\n        /* \"#utility.yul\":14414:14416   */\n      0x23\n        /* \"#utility.yul\":14409:14412   */\n      dup4\n        /* \"#utility.yul\":14350:14417   */\n      tag_332\n      jump\t// in\n    tag_505:\n        /* \"#utility.yul\":14343:14417   */\n      swap2\n      pop\n        /* \"#utility.yul\":14426:14519   */\n      tag_506\n        /* \"#utility.yul\":14515:14518   */\n      dup3\n        /* \"#utility.yul\":14426:14519   */\n      tag_336\n      jump\t// in\n    tag_506:\n        /* \"#utility.yul\":14544:14546   */\n      0x40\n        /* \"#utility.yul\":14539:14542   */\n      dup3\n        /* \"#utility.yul\":14535:14547   */\n      add\n        /* \"#utility.yul\":14528:14547   */\n      swap1\n      pop\n        /* \"#utility.yul\":14187:14553   */\n      swap2\n      swap1\n      pop\n      jump\t// out\n        /* \"#utility.yul\":14559:14978   */\n    tag_144:\n        /* \"#utility.yul\":14725:14729   */\n      0x00\n        /* \"#utility.yul\":14763:14765   */\n      0x20\n        /* \"#utility.yul\":14752:14761   */\n      dup3\n        /* \"#utility.yul\":14748:14766   */\n      add\n        /* \"#utility.yul\":14740:14766   */\n      swap1\n      pop\n        /* \"#utility.yul\":14812:14821   */\n      dup2\n        /* \"#utility.yul\":14806:14810   */\n      dup2\n        /* \"#utility.yul\":14802:14822   */\n      sub\n        /* \"#utility.yul\":14798:14799   */\n      0x00\n        /* \"#utility.yul\":14787:14796   */\n      dup4\n        /* \"#utility.yul\":14783:14800   */\n      add\n        /* \"#utility.yul\":14776:14823   */\n      mstore\n        /* \"#utility.yul\":14840:14971   */\n      tag_508\n        /* \"#utility.yul\":14966:14970   */\n      dup2\n        /* \"#utility.yul\":14840:14971   */\n      tag_337\n      jump\t// in\n    tag_508:\n        /* \"#utility.yul\":14832:14971   */\n      swap1\n      pop\n        /* \"#utility.yul\":14559:14978   */\n      swap2\n      swap1\n      pop\n      jump\t// out\n        /* \"#utility.yul\":14984:15074   */\n    tag_338:\n        /* \"#utility.yul\":15018:15025   */\n      0x00\n        /* \"#utility.yul\":15061:15066   */\n      dup2\n        /* \"#utility.yul\":15054:15067   */\n      iszero\n        /* \"#utility.yul\":15047:15068   */\n      iszero\n        /* \"#utility.yul\":15036:15068   */\n      swap1\n      pop\n        /* \"#utility.yul\":14984:15074   */\n      swap2\n      swap1\n      pop\n      jump\t// out\n        /* \"#utility.yul\":15080:15196   */\n    tag_339:\n        /* \"#utility.yul\":15150:15171   */\n      tag_511\n        /* \"#utility.yul\":15165:15170   */\n      dup2\n        /* \"#utility.yul\":15150:15171   */\n      tag_338\n      jump\t// in\n    tag_511:\n        /* \"#utility.yul\":15143:15148   */\n      dup2\n        /* \"#utility.yul\":15140:15172   */\n      eq\n        /* \"#utility.yul\":15130:15190   */\n      tag_512\n      jumpi\n        /* \"#utility.yul\":15186:15187   */\n      0x00\n        /* \"#utility.yul\":15183:15184   */\n      dup1\n        /* \"#utility.yul\":15176:15188   */\n      revert\n        /* \"#utility.yul\":15130:15190   */\n    tag_512:\n        /* \"#utility.yul\":15080:15196   */\n      pop\n      jump\t// out\n        /* \"#utility.yul\":15202:15339   */\n    tag_340:\n        /* \"#utility.yul\":15256:15261   */\n      0x00\n        /* \"#utility.yul\":15287:15293   */\n      dup2\n        /* \"#utility.yul\":15281:15294   */\n      mload\n        /* \"#utility.yul\":15272:15294   */\n      swap1\n      pop\n        /* \"#utility.yul\":15303:15333   */\n      tag_514\n        /* \"#utility.yul\":15327:15332   */\n      dup2\n        /* \"#utility.yul\":15303:15333   */\n      tag_339\n      jump\t// in\n    tag_514:\n        /* \"#utility.yul\":15202:15339   */\n      swap3\n      swap2\n      pop\n      pop\n      jump\t// out\n        /* \"#utility.yul\":15345:15690   */\n    tag_151:\n        /* \"#utility.yul\":15412:15418   */\n      0x00\n        /* \"#utility.yul\":15461:15463   */\n      0x20\n        /* \"#utility.yul\":15449:15458   */\n      dup3\n        /* \"#utility.yul\":15440:15447   */\n      dup5\n        /* \"#utility.yul\":15436:15459   */\n      sub\n        /* \"#utility.yul\":15432:15464   */\n      slt\n        /* \"#utility.yul\":15429:15548   */\n      iszero\n      tag_516\n      jumpi\n        /* \"#utility.yul\":15467:15546   */\n      tag_517\n      tag_299\n      jump\t// in\n    tag_517:\n        /* \"#utility.yul\":15429:15548   */\n    tag_516:\n        /* \"#utility.yul\":15587:15588   */\n      0x00\n        /* \"#utility.yul\":15612:15673   */\n      tag_518\n        /* \"#utility.yul\":15665:15672   */\n      dup5\n        /* \"#utility.yul\":15656:15662   */\n      dup3\n        /* \"#utility.yul\":15645:15654   */\n      dup6\n        /* \"#utility.yul\":15641:15663   */\n      add\n        /* \"#utility.yul\":15612:15673   */\n      tag_340\n      jump\t// in\n    tag_518:\n        /* \"#utility.yul\":15602:15673   */\n      swap2\n      pop\n        /* \"#utility.yul\":15558:15683   */\n      pop\n        /* \"#utility.yul\":15345:15690   */\n      swap3\n      swap2\n      pop\n      pop\n      jump\t// out\n        /* \"#utility.yul\":15696:15861   */\n    tag_341:\n        /* \"#utility.yul\":15836:15853   */\n      0x5472616e73666572206661696c65640000000000000000000000000000000000\n        /* \"#utility.yul\":15832:15833   */\n      0x00\n        /* \"#utility.yul\":15824:15830   */\n      dup3\n        /* \"#utility.yul\":15820:15834   */\n      add\n        /* \"#utility.yul\":15813:15854   */\n      mstore\n        /* \"#utility.yul\":15696:15861   */\n      pop\n      jump\t// out\n        /* \"#utility.yul\":15867:16233   */\n    tag_342:\n        /* \"#utility.yul\":16009:16012   */\n      0x00\n        /* \"#utility.yul\":16030:16097   */\n      tag_521\n        /* \"#utility.yul\":16094:16096   */\n      0x0f\n        /* \"#utility.yul\":16089:16092   */\n      dup4\n        /* \"#utility.yul\":16030:16097   */\n      tag_332\n      jump\t// in\n    tag_521:\n        /* \"#utility.yul\":16023:16097   */\n      swap2\n      pop\n        /* \"#utility.yul\":16106:16199   */\n      tag_522\n        /* \"#utility.yul\":16195:16198   */\n      dup3\n        /* \"#utility.yul\":16106:16199   */\n      tag_341\n      jump\t// in\n    tag_522:\n        /* \"#utility.yul\":16224:16226   */\n      0x20\n        /* \"#utility.yul\":16219:16222   */\n      dup3\n        /* \"#utility.yul\":16215:16227   */\n      add\n        /* \"#utility.yul\":16208:16227   */\n      swap1\n      pop\n        /* \"#utility.yul\":15867:16233   */\n      swap2\n      swap1\n      pop\n      jump\t// out\n        /* \"#utility.yul\":16239:16658   */\n    tag_162:\n        /* \"#utility.yul\":16405:16409   */\n      0x00\n        /* \"#utility.yul\":16443:16445   */\n      0x20\n        /* \"#utility.yul\":16432:16441   */\n      dup3\n        /* \"#utility.yul\":16428:16446   */\n      add\n        /* \"#utility.yul\":16420:16446   */\n      swap1\n      pop\n        /* \"#utility.yul\":16492:16501   */\n      dup2\n        /* \"#utility.yul\":16486:16490   */\n      dup2\n        /* \"#utility.yul\":16482:16502   */\n      sub\n        /* \"#utility.yul\":16478:16479   */\n      0x00\n        /* \"#utility.yul\":16467:16476   */\n      dup4\n        /* \"#utility.yul\":16463:16480   */\n      add\n        /* \"#utility.yul\":16456:16503   */\n      mstore\n        /* \"#utility.yul\":16520:16651   */\n      tag_524\n        /* \"#utility.yul\":16646:16650   */\n      dup2\n        /* \"#utility.yul\":16520:16651   */\n      tag_342\n      jump\t// in\n    tag_524:\n        /* \"#utility.yul\":16512:16651   */\n      swap1\n      pop\n        /* \"#utility.yul\":16239:16658   */\n      swap2\n      swap1\n      pop\n      jump\t// out\n        /* \"#utility.yul\":16664:16996   */\n    tag_172:\n        /* \"#utility.yul\":16785:16789   */\n      0x00\n        /* \"#utility.yul\":16823:16825   */\n      0x40\n        /* \"#utility.yul\":16812:16821   */\n      dup3\n        /* \"#utility.yul\":16808:16826   */\n      add\n        /* \"#utility.yul\":16800:16826   */\n      swap1\n      pop\n        /* \"#utility.yul\":16836:16907   */\n      tag_526\n        /* \"#utility.yul\":16904:16905   */\n      0x00\n        /* \"#utility.yul\":16893:16902   */\n      dup4\n        /* \"#utility.yul\":16889:16906   */\n      add\n        /* \"#utility.yul\":16880:16886   */\n      dup6\n        /* \"#utility.yul\":16836:16907   */\n      tag_297\n      jump\t// in\n    tag_526:\n        /* \"#utility.yul\":16917:16989   */\n      tag_527\n        /* \"#utility.yul\":16985:16987   */\n      0x20\n        /* \"#utility.yul\":16974:16983   */\n      dup4\n        /* \"#utility.yul\":16970:16988   */\n      add\n        /* \"#utility.yul\":16961:16967   */\n      dup5\n        /* \"#utility.yul\":16917:16989   */\n      tag_295\n      jump\t// in\n    tag_527:\n        /* \"#utility.yul\":16664:16996   */\n      swap4\n      swap3\n      pop\n      pop\n      pop\n      jump\t// out\n        /* \"#utility.yul\":17002:17444   */\n    tag_192:\n        /* \"#utility.yul\":17151:17155   */\n      0x00\n        /* \"#utility.yul\":17189:17191   */\n      0x60\n        /* \"#utility.yul\":17178:17187   */\n      dup3\n        /* \"#utility.yul\":17174:17192   */\n      add\n        /* \"#utility.yul\":17166:17192   */\n      swap1\n      pop\n        /* \"#utility.yul\":17202:17273   */\n      tag_529\n        /* \"#utility.yul\":17270:17271   */\n      0x00\n        /* \"#utility.yul\":17259:17268   */\n      dup4\n        /* \"#utility.yul\":17255:17272   */\n      add\n        /* \"#utility.yul\":17246:17252   */\n      dup7\n        /* \"#utility.yul\":17202:17273   */\n      tag_295\n      jump\t// in\n    tag_529:\n        /* \"#utility.yul\":17283:17355   */\n      tag_530\n        /* \"#utility.yul\":17351:17353   */\n      0x20\n        /* \"#utility.yul\":17340:17349   */\n      dup4\n        /* \"#utility.yul\":17336:17354   */\n      add\n        /* \"#utility.yul\":17327:17333   */\n      dup6\n        /* \"#utility.yul\":17283:17355   */\n      tag_295\n      jump\t// in\n    tag_530:\n        /* \"#utility.yul\":17365:17437   */\n      tag_531\n        /* \"#utility.yul\":17433:17435   */\n      0x40\n        /* \"#utility.yul\":17422:17431   */\n      dup4\n        /* \"#utility.yul\":17418:17436   */\n      add\n        /* \"#utility.yul\":17409:17415   */\n      dup5\n        /* \"#utility.yul\":17365:17437   */\n      tag_297\n      jump\t// in\n    tag_531:\n        /* \"#utility.yul\":17002:17444   */\n      swap5\n      swap4\n      pop\n      pop\n      pop\n      pop\n      jump\t// out\n        /* \"#utility.yul\":17450:17630   */\n    tag_221:\n        /* \"#utility.yul\":17498:17575   */\n      0x4e487b7100000000000000000000000000000000000000000000000000000000\n        /* \"#utility.yul\":17495:17496   */\n      0x00\n        /* \"#utility.yul\":17488:17576   */\n      mstore\n        /* \"#utility.yul\":17595:17599   */\n      0x32\n        /* \"#utility.yul\":17592:17593   */\n      0x04\n        /* \"#utility.yul\":17585:17600   */\n      mstore\n        /* \"#utility.yul\":17619:17623   */\n      0x24\n        /* \"#utility.yul\":17616:17617   */\n      0x00\n        /* \"#utility.yul\":17609:17624   */\n      revert\n        /* \"#utility.yul\":17636:17816   */\n    tag_343:\n        /* \"#utility.yul\":17684:17761   */\n      0x4e487b7100000000000000000000000000000000000000000000000000000000\n        /* \"#utility.yul\":17681:17682   */\n      0x00\n        /* \"#utility.yul\":17674:17762   */\n      mstore\n        /* \"#utility.yul\":17781:17785   */\n      0x11\n        /* \"#utility.yul\":17778:17779   */\n      0x04\n        /* \"#utility.yul\":17771:17786   */\n      mstore\n        /* \"#utility.yul\":17805:17809   */\n      0x24\n        /* \"#utility.yul\":17802:17803   */\n      0x00\n        /* \"#utility.yul\":17795:17810   */\n      revert\n        /* \"#utility.yul\":17822:18013   */\n    tag_234:\n        /* \"#utility.yul\":17862:17865   */\n      0x00\n        /* \"#utility.yul\":17881:17901   */\n      tag_535\n        /* \"#utility.yul\":17899:17900   */\n      dup3\n        /* \"#utility.yul\":17881:17901   */\n      tag_296\n      jump\t// in\n    tag_535:\n        /* \"#utility.yul\":17876:17901   */\n      swap2\n      pop\n        /* \"#utility.yul\":17915:17935   */\n      tag_536\n        /* \"#utility.yul\":17933:17934   */\n      dup4\n        /* \"#utility.yul\":17915:17935   */\n      tag_296\n      jump\t// in\n    tag_536:\n        /* \"#utility.yul\":17910:17935   */\n      swap3\n      pop\n        /* \"#utility.yul\":17958:17959   */\n      dup3\n        /* \"#utility.yul\":17955:17956   */\n      dup3\n        /* \"#utility.yul\":17951:17960   */\n      add\n        /* \"#utility.yul\":17944:17960   */\n      swap1\n      pop\n        /* \"#utility.yul\":17979:17982   */\n      dup1\n        /* \"#utility.yul\":17976:17977   */\n      dup3\n        /* \"#utility.yul\":17973:17983   */\n      gt\n        /* \"#utility.yul\":17970:18006   */\n      iszero\n      tag_537\n      jumpi\n        /* \"#utility.yul\":17986:18004   */\n      tag_538\n      tag_343\n      jump\t// in\n    tag_538:\n        /* \"#utility.yul\":17970:18006   */\n    tag_537:\n        /* \"#utility.yul\":17822:18013   */\n      swap3\n      swap2\n      pop\n      pop\n      jump\t// out\n        /* \"#utility.yul\":18019:18200   */\n    tag_344:\n        /* \"#utility.yul\":18159:18192   */\n      0x4d696e74696e6720776f756c6420657863656564206d617820737570706c7900\n        /* \"#utility.yul\":18155:18156   */\n      0x00\n        /* \"#utility.yul\":18147:18153   */\n      dup3\n        /* \"#utility.yul\":18143:18157   */\n      add\n        /* \"#utility.yul\":18136:18193   */\n      mstore\n        /* \"#utility.yul\":18019:18200   */\n      pop\n      jump\t// out\n        /* \"#utility.yul\":18206:18572   */\n    tag_345:\n        /* \"#utility.yul\":18348:18351   */\n      0x00\n        /* \"#utility.yul\":18369:18436   */\n      tag_541\n        /* \"#utility.yul\":18433:18435   */\n      0x1f\n        /* \"#utility.yul\":18428:18431   */\n      dup4\n        /* \"#utility.yul\":18369:18436   */\n      tag_332\n      jump\t// in\n    tag_541:\n        /* \"#utility.yul\":18362:18436   */\n      swap2\n      pop\n        /* \"#utility.yul\":18445:18538   */\n      tag_542\n        /* \"#utility.yul\":18534:18537   */\n      dup3\n        /* \"#utility.yul\":18445:18538   */\n      tag_344\n      jump\t// in\n    tag_542:\n        /* \"#utility.yul\":18563:18565   */\n      0x20\n        /* \"#utility.yul\":18558:18561   */\n      dup3\n        /* \"#utility.yul\":18554:18566   */\n      add\n        /* \"#utility.yul\":18547:18566   */\n      swap1\n      pop\n        /* \"#utility.yul\":18206:18572   */\n      swap2\n      swap1\n      pop\n      jump\t// out\n        /* \"#utility.yul\":18578:18997   */\n    tag_251:\n        /* \"#utility.yul\":18744:18748   */\n      0x00\n        /* \"#utility.yul\":18782:18784   */\n      0x20\n        /* \"#utility.yul\":18771:18780   */\n      dup3\n        /* \"#utility.yul\":18767:18785   */\n      add\n        /* \"#utility.yul\":18759:18785   */\n      swap1\n      pop\n        /* \"#utility.yul\":18831:18840   */\n      dup2\n        /* \"#utility.yul\":18825:18829   */\n      dup2\n        /* \"#utility.yul\":18821:18841   */\n      sub\n        /* \"#utility.yul\":18817:18818   */\n      0x00\n        /* \"#utility.yul\":18806:18815   */\n      dup4\n        /* \"#utility.yul\":18802:18819   */\n      add\n        /* \"#utility.yul\":18795:18842   */\n      mstore\n        /* \"#utility.yul\":18859:18990   */\n      tag_544\n        /* \"#utility.yul\":18985:18989   */\n      dup2\n        /* \"#utility.yul\":18859:18990   */\n      tag_345\n      jump\t// in\n    tag_544:\n        /* \"#utility.yul\":18851:18990   */\n      swap1\n      pop\n        /* \"#utility.yul\":18578:18997   */\n      swap2\n      swap1\n      pop\n      jump\t// out\n        /* \"#utility.yul\":19003:19094   */\n    tag_346:\n        /* \"#utility.yul\":19039:19046   */\n      0x00\n        /* \"#utility.yul\":19079:19087   */\n      0xffffff\n        /* \"#utility.yul\":19072:19077   */\n      dup3\n        /* \"#utility.yul\":19068:19088   */\n      and\n        /* \"#utility.yul\":19057:19088   */\n      swap1\n      pop\n        /* \"#utility.yul\":19003:19094   */\n      swap2\n      swap1\n      pop\n      jump\t// out\n        /* \"#utility.yul\":19100:19215   */\n    tag_347:\n        /* \"#utility.yul\":19185:19208   */\n      tag_547\n        /* \"#utility.yul\":19202:19207   */\n      dup2\n        /* \"#utility.yul\":19185:19208   */\n      tag_346\n      jump\t// in\n    tag_547:\n        /* \"#utility.yul\":19180:19183   */\n      dup3\n        /* \"#utility.yul\":19173:19209   */\n      mstore\n        /* \"#utility.yul\":19100:19215   */\n      pop\n      pop\n      jump\t// out\n        /* \"#utility.yul\":19221:19439   */\n    tag_266:\n        /* \"#utility.yul\":19312:19316   */\n      0x00\n        /* \"#utility.yul\":19350:19352   */\n      0x20\n        /* \"#utility.yul\":19339:19348   */\n      dup3\n        /* \"#utility.yul\":19335:19353   */\n      add\n        /* \"#utility.yul\":19327:19353   */\n      swap1\n      pop\n        /* \"#utility.yul\":19363:19432   */\n      tag_549\n        /* \"#utility.yul\":19429:19430   */\n      0x00\n        /* \"#utility.yul\":19418:19427   */\n      dup4\n        /* \"#utility.yul\":19414:19431   */\n      add\n        /* \"#utility.yul\":19405:19411   */\n      dup5\n        /* \"#utility.yul\":19363:19432   */\n      tag_347\n      jump\t// in\n    tag_549:\n        /* \"#utility.yul\":19221:19439   */\n      swap3\n      swap2\n      pop\n      pop\n      jump\t// out\n\n    auxdata: 0xa2646970667358221220ebdfefa6c83339f5f934e82f5c896b7bf336f54b5cdeaee15cc35a37ad40ad0564736f6c634300081b0033\n}\n",
				"bytecode": {
					"linkReferences": {},
					"object": "60e060405234801561001057600080fd5b506040516129b83803806129b88339818101604052810190610032919061024b565b3373ffffffffffffffffffffffffffffffffffffffff1660c08173ffffffffffffffffffffffffffffffffffffffff16815250508773ffffffffffffffffffffffffffffffffffffffff1660808173ffffffffffffffffffffffffffffffffffffffff16815250508673ffffffffffffffffffffffffffffffffffffffff1660a08173ffffffffffffffffffffffffffffffffffffffff168152505085600660006101000a81548173ffffffffffffffffffffffffffffffffffffffff021916908373ffffffffffffffffffffffffffffffffffffffff160217905550846000806101000a81548173ffffffffffffffffffffffffffffffffffffffff021916908373ffffffffffffffffffffffffffffffffffffffff16021790555083600160006101000a81548173ffffffffffffffffffffffffffffffffffffffff021916908373ffffffffffffffffffffffffffffffffffffffff1602179055508260028190555081600381905550806004819055505050505050505050610301565b600080fd5b600073ffffffffffffffffffffffffffffffffffffffff82169050919050565b60006101e2826101b7565b9050919050565b6101f2816101d7565b81146101fd57600080fd5b50565b60008151905061020f816101e9565b92915050565b6000819050919050565b61022881610215565b811461023357600080fd5b50565b6000815190506102458161021f565b92915050565b600080600080600080600080610100898b03121561026c5761026b6101b2565b5b600061027a8b828c01610200565b985050602061028b8b828c01610200565b975050604061029c8b828c01610200565b96505060606102ad8b828c01610200565b95505060806102be8b828c01610200565b94505060a06102cf8b828c01610236565b93505060c06102e08b828c01610236565b92505060e06102f18b828c01610236565b9150509295985092959890939650565b60805160a05160c0516125f56103c3600039600081816105200152818161061b015281816107cf01528181610855015281816109c301528181610a7f01528181610c3901528181610cd101528181610f650152818161110c01526111de0152600081816105f1015281816106ab01528181610793015281816108e301528181610b4c01528181610d9e01528181610e830152818161144d015281816114e001526115bf015260008181610e5f015281816119830152611adc01526125f56000f3fe6080604052600436106101395760003560e01c80639501dc87116100ab578063c489744b1161006f578063c489744b1461040a578063c6b8070914610447578063d0202d3b14610472578063d94b19931461049d578063e632313c146104c6578063f04f2707146104ef57610179565b80639501dc871461033b578063a87eba3c14610364578063a98ad46c1461038d578063bad4a01f146103b8578063c158910d146103e157610179565b80636112fe2e116100fd5780636112fe2e1461023f57806369483bf8146102685780636daf390b1461029157806374538824146102bc578063745fba84146102e5578063751521aa1461031057610179565b8063089fe6aa1461017e5780630f0f3c41146101a9578063218ec83a146101d25780632e8fa821146101fd578063483f02191461022857610179565b36610179577f88a5966d370b9919b20f3e2c13ff65706f196a4e32cc2c12bf57088f88525874333460405161016f929190611bdf565b60405180910390a1005b600080fd5b34801561018a57600080fd5b50610193610518565b6040516101a09190611c08565b60405180910390f35b3480156101b557600080fd5b506101d060048036038101906101cb9190611c63565b61051e565b005b3480156101de57600080fd5b506101e76105ef565b6040516101f49190611cef565b60405180910390f35b34801561020957600080fd5b50610212610613565b60405161021f9190611c08565b60405180910390f35b34801561023457600080fd5b5061023d610619565b005b34801561024b57600080fd5b5061026660048036038101906102619190611d36565b610853565b005b34801561027457600080fd5b5061028f600480360381019061028a9190611d36565b6109c1565b005b34801561029d57600080fd5b506102a6610a59565b6040516102b39190611d63565b60405180910390f35b3480156102c857600080fd5b506102e360048036038101906102de9190611d36565b610a7d565b005b3480156102f157600080fd5b506102fa610c0b565b6040516103079190611d63565b60405180910390f35b34801561031c57600080fd5b50610325610c31565b6040516103329190611c08565b60405180910390f35b34801561034757600080fd5b50610362600480360381019061035d9190611d36565b610c37565b005b34801561037057600080fd5b5061038b60048036038101906103869190611d36565b610ccf565b005b34801561039957600080fd5b506103a2610e5d565b6040516103af9190611d9f565b60405180910390f35b3480156103c457600080fd5b506103df60048036038101906103da9190611d36565b610e81565b005b3480156103ed57600080fd5b5061040860048036038101906104039190611c63565b610f63565b005b34801561041657600080fd5b50610431600480360381019061042c9190611dba565b611035565b60405161043e9190611c08565b60405180910390f35b34801561045357600080fd5b5061045c6110be565b6040516104699190611d63565b60405180910390f35b34801561047e57600080fd5b506104876110e4565b6040516104949190611d63565b60405180910390f35b3480156104a957600080fd5b506104c460048036038101906104bf9190611c63565b61110a565b005b3480156104d257600080fd5b506104ed60048036038101906104e89190611d36565b6111dc565b005b3480156104fb57600080fd5b5061051660048036038101906105119190612109565b611274565b005b60025481565b7f000000000000000000000000000000000000000000000000000000000000000073ffffffffffffffffffffffffffffffffffffffff163373ffffffffffffffffffffffffffffffffffffffff16146105ac576040517f08c379a00000000000000000000000000000000000000000000000000000000081526004016105a390612263565b60405180910390fd5b806000806101000a81548173ffffffffffffffffffffffffffffffffffffffff021916908373ffffffffffffffffffffffffffffffffffffffff16021790555050565b7f000000000000000000000000000000000000000000000000000000000000000081565b60035481565b7f000000000000000000000000000000000000000000000000000000000000000073ffffffffffffffffffffffffffffffffffffffff163373ffffffffffffffffffffffffffffffffffffffff16146106a7576040517f08c379a000000000000000000000000000000000000000000000000000000000815260040161069e90612263565b60405180910390fd5b60007f000000000000000000000000000000000000000000000000000000000000000073ffffffffffffffffffffffffffffffffffffffff166370a08231306040518263ffffffff1660e01b81526004016107029190611d63565b602060405180830381865afa15801561071f573d6000803e3d6000fd5b505050506040513d601f19601f820116820180604052508101906107439190612298565b905060008111610788576040517f08c379a000000000000000000000000000000000000000000000000000000000815260040161077f90612337565b60405180910390fd5b61079181611449565b7f000000000000000000000000000000000000000000000000000000000000000073ffffffffffffffffffffffffffffffffffffffff1663a9059cbb7f0000000000000000000000000000000000000000000000000000000000000000836040518363ffffffff1660e01b815260040161080c929190611bdf565b6020604051808303816000875af115801561082b573d6000803e3d6000fd5b505050506040513d601f19601f8201168201806040525081019061084f919061238f565b5050565b7f000000000000000000000000000000000000000000000000000000000000000073ffffffffffffffffffffffffffffffffffffffff163373ffffffffffffffffffffffffffffffffffffffff16146108e1576040517f08c379a00000000000000000000000000000000000000000000000000000000081526004016108d890612263565b60405180910390fd5b7f000000000000000000000000000000000000000000000000000000000000000073ffffffffffffffffffffffffffffffffffffffff1663a9059cbb33836040518363ffffffff1660e01b815260040161093c929190611bdf565b6020604051808303816000875af115801561095b573d6000803e3d6000fd5b505050506040513d601f19601f8201168201806040525081019061097f919061238f565b6109be576040517f08c379a00000000000000000000000000000000000000000000000000000000081526004016109b590612408565b60405180910390fd5b50565b7f000000000000000000000000000000000000000000000000000000000000000073ffffffffffffffffffffffffffffffffffffffff163373ffffffffffffffffffffffffffffffffffffffff1614610a4f576040517f08c379a0000000000000000000000000000000000000000000000000000000008152600401610a4690612263565b60405180910390fd5b8060048190555050565b60008054906101000a900473ffffffffffffffffffffffffffffffffffffffff1681565b7f000000000000000000000000000000000000000000000000000000000000000073ffffffffffffffffffffffffffffffffffffffff163373ffffffffffffffffffffffffffffffffffffffff1614610b0b576040517f08c379a0000000000000000000000000000000000000000000000000000000008152600401610b0290612263565b60405180910390fd5b600660009054906101000a900473ffffffffffffffffffffffffffffffffffffffff1673ffffffffffffffffffffffffffffffffffffffff1663acb70815827f00000000000000000000000000000000000000000000000000000000000000006040518363ffffffff1660e01b8152600401610b88929190612428565b600060405180830381600087803b158015610ba257600080fd5b505af1158015610bb6573d6000803e3d6000fd5b505050503373ffffffffffffffffffffffffffffffffffffffff167fc200a1f31dd659e356e0f112c82558e25f49f7b0f84438691cd96f5cb355882382604051610c009190611c08565b60405180910390a250565b600660009054906101000a900473ffffffffffffffffffffffffffffffffffffffff1681565b60045481565b7f000000000000000000000000000000000000000000000000000000000000000073ffffffffffffffffffffffffffffffffffffffff163373ffffffffffffffffffffffffffffffffffffffff1614610cc5576040517f08c379a0000000000000000000000000000000000000000000000000000000008152600401610cbc90612263565b60405180910390fd5b8060028190555050565b7f000000000000000000000000000000000000000000000000000000000000000073ffffffffffffffffffffffffffffffffffffffff163373ffffffffffffffffffffffffffffffffffffffff1614610d5d576040517f08c379a0000000000000000000000000000000000000000000000000000000008152600401610d5490612263565b60405180910390fd5b600660009054906101000a900473ffffffffffffffffffffffffffffffffffffffff1673ffffffffffffffffffffffffffffffffffffffff16634b3fd148827f00000000000000000000000000000000000000000000000000000000000000006040518363ffffffff1660e01b8152600401610dda929190612428565b600060405180830381600087803b158015610df457600080fd5b505af1158015610e08573d6000803e3d6000fd5b505050503373ffffffffffffffffffffffffffffffffffffffff167f06c22e520074f676b380b03ffba06f2ccf61e51cbeee2a4e084b80a19d2fc23782604051610e529190611c08565b60405180910390a250565b7f000000000000000000000000000000000000000000000000000000000000000081565b7f000000000000000000000000000000000000000000000000000000000000000073ffffffffffffffffffffffffffffffffffffffff166323b872dd3330846040518463ffffffff1660e01b8152600401610ede93929190612451565b6020604051808303816000875af1158015610efd573d6000803e3d6000fd5b505050506040513d601f19601f82011682018060405250810190610f21919061238f565b610f60576040517f08c379a0000000000000000000000000000000000000000000000000000000008152600401610f5790612408565b60405180910390fd5b50565b7f000000000000000000000000000000000000000000000000000000000000000073ffffffffffffffffffffffffffffffffffffffff163373ffffffffffffffffffffffffffffffffffffffff1614610ff1576040517f08c379a0000000000000000000000000000000000000000000000000000000008152600401610fe890612263565b60405180910390fd5b80600160006101000a81548173ffffffffffffffffffffffffffffffffffffffff021916908373ffffffffffffffffffffffffffffffffffffffff16021790555050565b6000808390508073ffffffffffffffffffffffffffffffffffffffff166370a08231846040518263ffffffff1660e01b81526004016110749190611d63565b602060405180830381865afa158015611091573d6000803e3d6000fd5b505050506040513d601f19601f820116820180604052508101906110b59190612298565b91505092915050565b600560009054906101000a900473ffffffffffffffffffffffffffffffffffffffff1681565b600160009054906101000a900473ffffffffffffffffffffffffffffffffffffffff1681565b7f000000000000000000000000000000000000000000000000000000000000000073ffffffffffffffffffffffffffffffffffffffff163373ffffffffffffffffffffffffffffffffffffffff1614611198576040517f08c379a000000000000000000000000000000000000000000000000000000000815260040161118f90612263565b60405180910390fd5b80600560006101000a81548173ffffffffffffffffffffffffffffffffffffffff021916908373ffffffffffffffffffffffffffffffffffffffff16021790555050565b7f000000000000000000000000000000000000000000000000000000000000000073ffffffffffffffffffffffffffffffffffffffff163373ffffffffffffffffffffffffffffffffffffffff161461126a576040517f08c379a000000000000000000000000000000000000000000000000000000000815260040161126190612263565b60405180910390fd5b8060038190555050565b60005b845181101561144257600085828151811061129557611294612488565b5b6020026020010151905060008583815181106112b4576112b3612488565b5b6020026020010151905060008584815181106112d3576112d2612488565b5b6020026020010151905060005b6004548110156113955761133960008054906101000a900473ffffffffffffffffffffffffffffffffffffffff16600160009054906101000a900473ffffffffffffffffffffffffffffffffffffffff1660035461165f565b611388600160009054906101000a900473ffffffffffffffffffffffffffffffffffffffff1660008054906101000a900473ffffffffffffffffffffffffffffffffffffffff1660035461165f565b80806001019150506112e0565b506113aa81836113a591906124e6565b6118b1565b8273ffffffffffffffffffffffffffffffffffffffff1663a9059cbb3383856113d391906124e6565b6040518363ffffffff1660e01b81526004016113f0929190611bdf565b6020604051808303816000875af115801561140f573d6000803e3d6000fd5b505050506040513d601f19601f82011682018060405250810190611433919061238f565b50505050806001019050611277565b5050505050565b60007f000000000000000000000000000000000000000000000000000000000000000073ffffffffffffffffffffffffffffffffffffffff166318160ddd6040518163ffffffff1660e01b8152600401602060405180830381865afa1580156114b6573d6000803e3d6000fd5b505050506040513d601f19601f820116820180604052508101906114da9190612298565b905060007f000000000000000000000000000000000000000000000000000000000000000073ffffffffffffffffffffffffffffffffffffffff1663d5abeb016040518163ffffffff1660e01b8152600401602060405180830381865afa158015611549573d6000803e3d6000fd5b505050506040513d601f19601f8201168201806040525081019061156d9190612298565b905080838361157c91906124e6565b11156115bd576040517f08c379a00000000000000000000000000000000000000000000000000000000081526004016115b490612566565b60405180910390fd5b7f000000000000000000000000000000000000000000000000000000000000000073ffffffffffffffffffffffffffffffffffffffff1663a0712d68846040518263ffffffff1660e01b81526004016116169190611c08565b6020604051808303816000875af1158015611635573d6000803e3d6000fd5b505050506040513d601f19601f82011682018060405250810190611659919061238f565b50505050565b6000600560009054906101000a900473ffffffffffffffffffffffffffffffffffffffff1690508073ffffffffffffffffffffffffffffffffffffffff16630f0f3c41856040518263ffffffff1660e01b81526004016116bf9190611d63565b600060405180830381600087803b1580156116d957600080fd5b505af11580156116ed573d6000803e3d6000fd5b505050508073ffffffffffffffffffffffffffffffffffffffff1663c158910d846040518263ffffffff1660e01b815260040161172a9190611d63565b600060405180830381600087803b15801561174457600080fd5b505af1158015611758573d6000803e3d6000fd5b505050508073ffffffffffffffffffffffffffffffffffffffff166373dd250c6002546040518263ffffffff1660e01b815260040161179791906125a4565b600060405180830381600087803b1580156117b157600080fd5b505af11580156117c5573d6000803e3d6000fd5b505050508073ffffffffffffffffffffffffffffffffffffffff166373bd43ad836040518263ffffffff1660e01b81526004016118029190611c08565b6020604051808303816000875af1158015611821573d6000803e3d6000fd5b505050506040513d601f19601f820116820180604052508101906118459190612298565b508273ffffffffffffffffffffffffffffffffffffffff168473ffffffffffffffffffffffffffffffffffffffff167fbad29f2bbbf6bb1e15563203bcdb0dd660c54eab078763eb66f797efa8f5e8c1846040516118a39190611c08565b60405180910390a350505050565b6000600560009054906101000a900473ffffffffffffffffffffffffffffffffffffffff1690508073ffffffffffffffffffffffffffffffffffffffff16630f0f3c41600160009054906101000a900473ffffffffffffffffffffffffffffffffffffffff166040518263ffffffff1660e01b81526004016119339190611d63565b600060405180830381600087803b15801561194d57600080fd5b505af1158015611961573d6000803e3d6000fd5b505050508073ffffffffffffffffffffffffffffffffffffffff1663c158910d7f00000000000000000000000000000000000000000000000000000000000000006040518263ffffffff1660e01b81526004016119be9190611d63565b600060405180830381600087803b1580156119d857600080fd5b505af11580156119ec573d6000803e3d6000fd5b505050508073ffffffffffffffffffffffffffffffffffffffff166373dd250c6002546040518263ffffffff1660e01b8152600401611a2b91906125a4565b600060405180830381600087803b158015611a4557600080fd5b505af1158015611a59573d6000803e3d6000fd5b505050508073ffffffffffffffffffffffffffffffffffffffff166373bd43ad836040518263ffffffff1660e01b8152600401611a969190611c08565b6020604051808303816000875af1158015611ab5573d6000803e3d6000fd5b505050506040513d601f19601f82011682018060405250810190611ad99190612298565b507f000000000000000000000000000000000000000000000000000000000000000073ffffffffffffffffffffffffffffffffffffffff16600160009054906101000a900473ffffffffffffffffffffffffffffffffffffffff1673ffffffffffffffffffffffffffffffffffffffff167fbad29f2bbbf6bb1e15563203bcdb0dd660c54eab078763eb66f797efa8f5e8c184604051611b799190611c08565b60405180910390a35050565b600073ffffffffffffffffffffffffffffffffffffffff82169050919050565b6000611bb082611b85565b9050919050565b611bc081611ba5565b82525050565b6000819050919050565b611bd981611bc6565b82525050565b6000604082019050611bf46000830185611bb7565b611c016020830184611bd0565b9392505050565b6000602082019050611c1d6000830184611bd0565b92915050565b6000604051905090565b600080fd5b600080fd5b611c4081611ba5565b8114611c4b57600080fd5b50565b600081359050611c5d81611c37565b92915050565b600060208284031215611c7957611c78611c2d565b5b6000611c8784828501611c4e565b91505092915050565b6000819050919050565b6000611cb5611cb0611cab84611b85565b611c90565b611b85565b9050919050565b6000611cc782611c9a565b9050919050565b6000611cd982611cbc565b9050919050565b611ce981611cce565b82525050565b6000602082019050611d046000830184611ce0565b92915050565b611d1381611bc6565b8114611d1e57600080fd5b50565b600081359050611d3081611d0a565b92915050565b600060208284031215611d4c57611d4b611c2d565b5b6000611d5a84828501611d21565b91505092915050565b6000602082019050611d786000830184611bb7565b92915050565b6000611d8982611cbc565b9050919050565b611d9981611d7e565b82525050565b6000602082019050611db46000830184611d90565b92915050565b60008060408385031215611dd157611dd0611c2d565b5b6000611ddf85828601611c4e565b9250506020611df085828601611c4e565b9150509250929050565b600080fd5b6000601f19601f8301169050919050565b7f4e487b7100000000000000000000000000000000000000000000000000000000600052604160045260246000fd5b611e4882611dff565b810181811067ffffffffffffffff82111715611e6757611e66611e10565b5b80604052505050565b6000611e7a611c23565b9050611e868282611e3f565b919050565b600067ffffffffffffffff821115611ea657611ea5611e10565b5b602082029050602081019050919050565b600080fd5b6000611ec782611ba5565b9050919050565b611ed781611ebc565b8114611ee257600080fd5b50565b600081359050611ef481611ece565b92915050565b6000611f0d611f0884611e8b565b611e70565b90508083825260208201905060208402830185811115611f3057611f2f611eb7565b5b835b81811015611f595780611f458882611ee5565b845260208401935050602081019050611f32565b5050509392505050565b600082601f830112611f7857611f77611dfa565b5b8135611f88848260208601611efa565b91505092915050565b600067ffffffffffffffff821115611fac57611fab611e10565b5b602082029050602081019050919050565b6000611fd0611fcb84611f91565b611e70565b90508083825260208201905060208402830185811115611ff357611ff2611eb7565b5b835b8181101561201c57806120088882611d21565b845260208401935050602081019050611ff5565b5050509392505050565b600082601f83011261203b5761203a611dfa565b5b813561204b848260208601611fbd565b91505092915050565b600080fd5b600067ffffffffffffffff82111561207457612073611e10565b5b61207d82611dff565b9050602081019050919050565b82818337600083830152505050565b60006120ac6120a784612059565b611e70565b9050828152602081018484840111156120c8576120c7612054565b5b6120d384828561208a565b509392505050565b600082601f8301126120f0576120ef611dfa565b5b8135612100848260208601612099565b91505092915050565b6000806000806080858703121561212357612122611c2d565b5b600085013567ffffffffffffffff81111561214157612140611c32565b5b61214d87828801611f63565b945050602085013567ffffffffffffffff81111561216e5761216d611c32565b5b61217a87828801612026565b935050604085013567ffffffffffffffff81111561219b5761219a611c32565b5b6121a787828801612026565b925050606085013567ffffffffffffffff8111156121c8576121c7611c32565b5b6121d4878288016120db565b91505092959194509250565b600082825260208201905092915050565b7f4f6e6c792074686520636f6e7472616374206f776e65722063616e2063616c6c60008201527f20746869732066756e6374696f6e000000000000000000000000000000000000602082015250565b600061224d602e836121e0565b9150612258826121f1565b604082019050919050565b6000602082019050818103600083015261227c81612240565b9050919050565b60008151905061229281611d0a565b92915050565b6000602082840312156122ae576122ad611c2d565b5b60006122bc84828501612283565b91505092915050565b7f4e6f205553445420466c61736820617661696c61626c6520746f20776974686460008201527f7261770000000000000000000000000000000000000000000000000000000000602082015250565b60006123216023836121e0565b915061232c826122c5565b604082019050919050565b6000602082019050818103600083015261235081612314565b9050919050565b60008115159050919050565b61236c81612357565b811461237757600080fd5b50565b60008151905061238981612363565b92915050565b6000602082840312156123a5576123a4611c2d565b5b60006123b38482850161237a565b91505092915050565b7f5472616e73666572206661696c65640000000000000000000000000000000000600082015250565b60006123f2600f836121e0565b91506123fd826123bc565b602082019050919050565b60006020820190508181036000830152612421816123e5565b9050919050565b600060408201905061243d6000830185611bd0565b61244a6020830184611bb7565b9392505050565b60006060820190506124666000830186611bb7565b6124736020830185611bb7565b6124806040830184611bd0565b949350505050565b7f4e487b7100000000000000000000000000000000000000000000000000000000600052603260045260246000fd5b7f4e487b7100000000000000000000000000000000000000000000000000000000600052601160045260246000fd5b60006124f182611bc6565b91506124fc83611bc6565b9250828201905080821115612514576125136124b7565b5b92915050565b7f4d696e74696e6720776f756c6420657863656564206d617820737570706c7900600082015250565b6000612550601f836121e0565b915061255b8261251a565b602082019050919050565b6000602082019050818103600083015261257f81612543565b9050919050565b600062ffffff82169050919050565b61259e81612586565b82525050565b60006020820190506125b96000830184612595565b9291505056fea2646970667358221220ebdfefa6c83339f5f934e82f5c896b7bf336f54b5cdeaee15cc35a37ad40ad0564736f6c634300081b0033",
					"opcodes": "PUSH1 0xE0 PUSH1 0x40 MSTORE CALLVALUE DUP1 ISZERO PUSH2 0x10 JUMPI PUSH1 0x0 DUP1 REVERT JUMPDEST POP PUSH1 0x40 MLOAD PUSH2 0x29B8 CODESIZE SUB DUP1 PUSH2 0x29B8 DUP4 CODECOPY DUP2 DUP2 ADD PUSH1 0x40 MSTORE DUP2 ADD SWAP1 PUSH2 0x32 SWAP2 SWAP1 PUSH2 0x24B JUMP JUMPDEST CALLER PUSH20 0xFFFFFFFFFFFFFFFFFFFFFFFFFFFFFFFFFFFFFFFF AND PUSH1 0xC0 DUP2 PUSH20 0xFFFFFFFFFFFFFFFFFFFFFFFFFFFFFFFFFFFFFFFF AND DUP2 MSTORE POP POP DUP8 PUSH20 0xFFFFFFFFFFFFFFFFFFFFFFFFFFFFFFFFFFFFFFFF AND PUSH1 0x80 DUP2 PUSH20 0xFFFFFFFFFFFFFFFFFFFFFFFFFFFFFFFFFFFFFFFF AND DUP2 MSTORE POP POP DUP7 PUSH20 0xFFFFFFFFFFFFFFFFFFFFFFFFFFFFFFFFFFFFFFFF AND PUSH1 0xA0 DUP2 PUSH20 0xFFFFFFFFFFFFFFFFFFFFFFFFFFFFFFFFFFFFFFFF AND DUP2 MSTORE POP POP DUP6 PUSH1 0x6 PUSH1 0x0 PUSH2 0x100 EXP DUP2 SLOAD DUP2 PUSH20 0xFFFFFFFFFFFFFFFFFFFFFFFFFFFFFFFFFFFFFFFF MUL NOT AND SWAP1 DUP4 PUSH20 0xFFFFFFFFFFFFFFFFFFFFFFFFFFFFFFFFFFFFFFFF AND MUL OR SWAP1 SSTORE POP DUP5 PUSH1 0x0 DUP1 PUSH2 0x100 EXP DUP2 SLOAD DUP2 PUSH20 0xFFFFFFFFFFFFFFFFFFFFFFFFFFFFFFFFFFFFFFFF MUL NOT AND SWAP1 DUP4 PUSH20 0xFFFFFFFFFFFFFFFFFFFFFFFFFFFFFFFFFFFFFFFF AND MUL OR SWAP1 SSTORE POP DUP4 PUSH1 0x1 PUSH1 0x0 PUSH2 0x100 EXP DUP2 SLOAD DUP2 PUSH20 0xFFFFFFFFFFFFFFFFFFFFFFFFFFFFFFFFFFFFFFFF MUL NOT AND SWAP1 DUP4 PUSH20 0xFFFFFFFFFFFFFFFFFFFFFFFFFFFFFFFFFFFFFFFF AND MUL OR SWAP1 SSTORE POP DUP3 PUSH1 0x2 DUP2 SWAP1 SSTORE POP DUP2 PUSH1 0x3 DUP2 SWAP1 SSTORE POP DUP1 PUSH1 0x4 DUP2 SWAP1 SSTORE POP POP POP POP POP POP POP POP POP PUSH2 0x301 JUMP JUMPDEST PUSH1 0x0 DUP1 REVERT JUMPDEST PUSH1 0x0 PUSH20 0xFFFFFFFFFFFFFFFFFFFFFFFFFFFFFFFFFFFFFFFF DUP3 AND SWAP1 POP SWAP2 SWAP1 POP JUMP JUMPDEST PUSH1 0x0 PUSH2 0x1E2 DUP3 PUSH2 0x1B7 JUMP JUMPDEST SWAP1 POP SWAP2 SWAP1 POP JUMP JUMPDEST PUSH2 0x1F2 DUP2 PUSH2 0x1D7 JUMP JUMPDEST DUP2 EQ PUSH2 0x1FD JUMPI PUSH1 0x0 DUP1 REVERT JUMPDEST POP JUMP JUMPDEST PUSH1 0x0 DUP2 MLOAD SWAP1 POP PUSH2 0x20F DUP2 PUSH2 0x1E9 JUMP JUMPDEST SWAP3 SWAP2 POP POP JUMP JUMPDEST PUSH1 0x0 DUP2 SWAP1 POP SWAP2 SWAP1 POP JUMP JUMPDEST PUSH2 0x228 DUP2 PUSH2 0x215 JUMP JUMPDEST DUP2 EQ PUSH2 0x233 JUMPI PUSH1 0x0 DUP1 REVERT JUMPDEST POP JUMP JUMPDEST PUSH1 0x0 DUP2 MLOAD SWAP1 POP PUSH2 0x245 DUP2 PUSH2 0x21F JUMP JUMPDEST SWAP3 SWAP2 POP POP JUMP JUMPDEST PUSH1 0x0 DUP1 PUSH1 0x0 DUP1 PUSH1 0x0 DUP1 PUSH1 0x0 DUP1 PUSH2 0x100 DUP10 DUP12 SUB SLT ISZERO PUSH2 0x26C JUMPI PUSH2 0x26B PUSH2 0x1B2 JUMP JUMPDEST JUMPDEST PUSH1 0x0 PUSH2 0x27A DUP12 DUP3 DUP13 ADD PUSH2 0x200 JUMP JUMPDEST SWAP9 POP POP PUSH1 0x20 PUSH2 0x28B DUP12 DUP3 DUP13 ADD PUSH2 0x200 JUMP JUMPDEST SWAP8 POP POP PUSH1 0x40 PUSH2 0x29C DUP12 DUP3 DUP13 ADD PUSH2 0x200 JUMP JUMPDEST SWAP7 POP POP PUSH1 0x60 PUSH2 0x2AD DUP12 DUP3 DUP13 ADD PUSH2 0x200 JUMP JUMPDEST SWAP6 POP POP PUSH1 0x80 PUSH2 0x2BE DUP12 DUP3 DUP13 ADD PUSH2 0x200 JUMP JUMPDEST SWAP5 POP POP PUSH1 0xA0 PUSH2 0x2CF DUP12 DUP3 DUP13 ADD PUSH2 0x236 JUMP JUMPDEST SWAP4 POP POP PUSH1 0xC0 PUSH2 0x2E0 DUP12 DUP3 DUP13 ADD PUSH2 0x236 JUMP JUMPDEST SWAP3 POP POP PUSH1 0xE0 PUSH2 0x2F1 DUP12 DUP3 DUP13 ADD PUSH2 0x236 JUMP JUMPDEST SWAP2 POP POP SWAP3 SWAP6 SWAP9 POP SWAP3 SWAP6 SWAP9 SWAP1 SWAP4 SWAP7 POP JUMP JUMPDEST PUSH1 0x80 MLOAD PUSH1 0xA0 MLOAD PUSH1 0xC0 MLOAD PUSH2 0x25F5 PUSH2 0x3C3 PUSH1 0x0 CODECOPY PUSH1 0x0 DUP2 DUP2 PUSH2 0x520 ADD MSTORE DUP2 DUP2 PUSH2 0x61B ADD MSTORE DUP2 DUP2 PUSH2 0x7CF ADD MSTORE DUP2 DUP2 PUSH2 0x855 ADD MSTORE DUP2 DUP2 PUSH2 0x9C3 ADD MSTORE DUP2 DUP2 PUSH2 0xA7F ADD MSTORE DUP2 DUP2 PUSH2 0xC39 ADD MSTORE DUP2 DUP2 PUSH2 0xCD1 ADD MSTORE DUP2 DUP2 PUSH2 0xF65 ADD MSTORE DUP2 DUP2 PUSH2 0x110C ADD MSTORE PUSH2 0x11DE ADD MSTORE PUSH1 0x0 DUP2 DUP2 PUSH2 0x5F1 ADD MSTORE DUP2 DUP2 PUSH2 0x6AB ADD MSTORE DUP2 DUP2 PUSH2 0x793 ADD MSTORE DUP2 DUP2 PUSH2 0x8E3 ADD MSTORE DUP2 DUP2 PUSH2 0xB4C ADD MSTORE DUP2 DUP2 PUSH2 0xD9E ADD MSTORE DUP2 DUP2 PUSH2 0xE83 ADD MSTORE DUP2 DUP2 PUSH2 0x144D ADD MSTORE DUP2 DUP2 PUSH2 0x14E0 ADD MSTORE PUSH2 0x15BF ADD MSTORE PUSH1 0x0 DUP2 DUP2 PUSH2 0xE5F ADD MSTORE DUP2 DUP2 PUSH2 0x1983 ADD MSTORE PUSH2 0x1ADC ADD MSTORE PUSH2 0x25F5 PUSH1 0x0 RETURN INVALID PUSH1 0x80 PUSH1 0x40 MSTORE PUSH1 0x4 CALLDATASIZE LT PUSH2 0x139 JUMPI PUSH1 0x0 CALLDATALOAD PUSH1 0xE0 SHR DUP1 PUSH4 0x9501DC87 GT PUSH2 0xAB JUMPI DUP1 PUSH4 0xC489744B GT PUSH2 0x6F JUMPI DUP1 PUSH4 0xC489744B EQ PUSH2 0x40A JUMPI DUP1 PUSH4 0xC6B80709 EQ PUSH2 0x447 JUMPI DUP1 PUSH4 0xD0202D3B EQ PUSH2 0x472 JUMPI DUP1 PUSH4 0xD94B1993 EQ PUSH2 0x49D JUMPI DUP1 PUSH4 0xE632313C EQ PUSH2 0x4C6 JUMPI DUP1 PUSH4 0xF04F2707 EQ PUSH2 0x4EF JUMPI PUSH2 0x179 JUMP JUMPDEST DUP1 PUSH4 0x9501DC87 EQ PUSH2 0x33B JUMPI DUP1 PUSH4 0xA87EBA3C EQ PUSH2 0x364 JUMPI DUP1 PUSH4 0xA98AD46C EQ PUSH2 0x38D JUMPI DUP1 PUSH4 0xBAD4A01F EQ PUSH2 0x3B8 JUMPI DUP1 PUSH4 0xC158910D EQ PUSH2 0x3E1 JUMPI PUSH2 0x179 JUMP JUMPDEST DUP1 PUSH4 0x6112FE2E GT PUSH2 0xFD JUMPI DUP1 PUSH4 0x6112FE2E EQ PUSH2 0x23F JUMPI DUP1 PUSH4 0x69483BF8 EQ PUSH2 0x268 JUMPI DUP1 PUSH4 0x6DAF390B EQ PUSH2 0x291 JUMPI DUP1 PUSH4 0x74538824 EQ PUSH2 0x2BC JUMPI DUP1 PUSH4 0x745FBA84 EQ PUSH2 0x2E5 JUMPI DUP1 PUSH4 0x751521AA EQ PUSH2 0x310 JUMPI PUSH2 0x179 JUMP JUMPDEST DUP1 PUSH4 0x89FE6AA EQ PUSH2 0x17E JUMPI DUP1 PUSH4 0xF0F3C41 EQ PUSH2 0x1A9 JUMPI DUP1 PUSH4 0x218EC83A EQ PUSH2 0x1D2 JUMPI DUP1 PUSH4 0x2E8FA821 EQ PUSH2 0x1FD JUMPI DUP1 PUSH4 0x483F0219 EQ PUSH2 0x228 JUMPI PUSH2 0x179 JUMP JUMPDEST CALLDATASIZE PUSH2 0x179 JUMPI PUSH32 0x88A5966D370B9919B20F3E2C13FF65706F196A4E32CC2C12BF57088F88525874 CALLER CALLVALUE PUSH1 0x40 MLOAD PUSH2 0x16F SWAP3 SWAP2 SWAP1 PUSH2 0x1BDF JUMP JUMPDEST PUSH1 0x40 MLOAD DUP1 SWAP2 SUB SWAP1 LOG1 STOP JUMPDEST PUSH1 0x0 DUP1 REVERT JUMPDEST CALLVALUE DUP1 ISZERO PUSH2 0x18A JUMPI PUSH1 0x0 DUP1 REVERT JUMPDEST POP PUSH2 0x193 PUSH2 0x518 JUMP JUMPDEST PUSH1 0x40 MLOAD PUSH2 0x1A0 SWAP2 SWAP1 PUSH2 0x1C08 JUMP JUMPDEST PUSH1 0x40 MLOAD DUP1 SWAP2 SUB SWAP1 RETURN JUMPDEST CALLVALUE DUP1 ISZERO PUSH2 0x1B5 JUMPI PUSH1 0x0 DUP1 REVERT JUMPDEST POP PUSH2 0x1D0 PUSH1 0x4 DUP1 CALLDATASIZE SUB DUP2 ADD SWAP1 PUSH2 0x1CB SWAP2 SWAP1 PUSH2 0x1C63 JUMP JUMPDEST PUSH2 0x51E JUMP JUMPDEST STOP JUMPDEST CALLVALUE DUP1 ISZERO PUSH2 0x1DE JUMPI PUSH1 0x0 DUP1 REVERT JUMPDEST POP PUSH2 0x1E7 PUSH2 0x5EF JUMP JUMPDEST PUSH1 0x40 MLOAD PUSH2 0x1F4 SWAP2 SWAP1 PUSH2 0x1CEF JUMP JUMPDEST PUSH1 0x40 MLOAD DUP1 SWAP2 SUB SWAP1 RETURN JUMPDEST CALLVALUE DUP1 ISZERO PUSH2 0x209 JUMPI PUSH1 0x0 DUP1 REVERT JUMPDEST POP PUSH2 0x212 PUSH2 0x613 JUMP JUMPDEST PUSH1 0x40 MLOAD PUSH2 0x21F SWAP2 SWAP1 PUSH2 0x1C08 JUMP JUMPDEST PUSH1 0x40 MLOAD DUP1 SWAP2 SUB SWAP1 RETURN JUMPDEST CALLVALUE DUP1 ISZERO PUSH2 0x234 JUMPI PUSH1 0x0 DUP1 REVERT JUMPDEST POP PUSH2 0x23D PUSH2 0x619 JUMP JUMPDEST STOP JUMPDEST CALLVALUE DUP1 ISZERO PUSH2 0x24B JUMPI PUSH1 0x0 DUP1 REVERT JUMPDEST POP PUSH2 0x266 PUSH1 0x4 DUP1 CALLDATASIZE SUB DUP2 ADD SWAP1 PUSH2 0x261 SWAP2 SWAP1 PUSH2 0x1D36 JUMP JUMPDEST PUSH2 0x853 JUMP JUMPDEST STOP JUMPDEST CALLVALUE DUP1 ISZERO PUSH2 0x274 JUMPI PUSH1 0x0 DUP1 REVERT JUMPDEST POP PUSH2 0x28F PUSH1 0x4 DUP1 CALLDATASIZE SUB DUP2 ADD SWAP1 PUSH2 0x28A SWAP2 SWAP1 PUSH2 0x1D36 JUMP JUMPDEST PUSH2 0x9C1 JUMP JUMPDEST STOP JUMPDEST CALLVALUE DUP1 ISZERO PUSH2 0x29D JUMPI PUSH1 0x0 DUP1 REVERT JUMPDEST POP PUSH2 0x2A6 PUSH2 0xA59 JUMP JUMPDEST PUSH1 0x40 MLOAD PUSH2 0x2B3 SWAP2 SWAP1 PUSH2 0x1D63 JUMP JUMPDEST PUSH1 0x40 MLOAD DUP1 SWAP2 SUB SWAP1 RETURN JUMPDEST CALLVALUE DUP1 ISZERO PUSH2 0x2C8 JUMPI PUSH1 0x0 DUP1 REVERT JUMPDEST POP PUSH2 0x2E3 PUSH1 0x4 DUP1 CALLDATASIZE SUB DUP2 ADD SWAP1 PUSH2 0x2DE SWAP2 SWAP1 PUSH2 0x1D36 JUMP JUMPDEST PUSH2 0xA7D JUMP JUMPDEST STOP JUMPDEST CALLVALUE DUP1 ISZERO PUSH2 0x2F1 JUMPI PUSH1 0x0 DUP1 REVERT JUMPDEST POP PUSH2 0x2FA PUSH2 0xC0B JUMP JUMPDEST PUSH1 0x40 MLOAD PUSH2 0x307 SWAP2 SWAP1 PUSH2 0x1D63 JUMP JUMPDEST PUSH1 0x40 MLOAD DUP1 SWAP2 SUB SWAP1 RETURN JUMPDEST CALLVALUE DUP1 ISZERO PUSH2 0x31C JUMPI PUSH1 0x0 DUP1 REVERT JUMPDEST POP PUSH2 0x325 PUSH2 0xC31 JUMP JUMPDEST PUSH1 0x40 MLOAD PUSH2 0x332 SWAP2 SWAP1 PUSH2 0x1C08 JUMP JUMPDEST PUSH1 0x40 MLOAD DUP1 SWAP2 SUB SWAP1 RETURN JUMPDEST CALLVALUE DUP1 ISZERO PUSH2 0x347 JUMPI PUSH1 0x0 DUP1 REVERT JUMPDEST POP PUSH2 0x362 PUSH1 0x4 DUP1 CALLDATASIZE SUB DUP2 ADD SWAP1 PUSH2 0x35D SWAP2 SWAP1 PUSH2 0x1D36 JUMP JUMPDEST PUSH2 0xC37 JUMP JUMPDEST STOP JUMPDEST CALLVALUE DUP1 ISZERO PUSH2 0x370 JUMPI PUSH1 0x0 DUP1 REVERT JUMPDEST POP PUSH2 0x38B PUSH1 0x4 DUP1 CALLDATASIZE SUB DUP2 ADD SWAP1 PUSH2 0x386 SWAP2 SWAP1 PUSH2 0x1D36 JUMP JUMPDEST PUSH2 0xCCF JUMP JUMPDEST STOP JUMPDEST CALLVALUE DUP1 ISZERO PUSH2 0x399 JUMPI PUSH1 0x0 DUP1 REVERT JUMPDEST POP PUSH2 0x3A2 PUSH2 0xE5D JUMP JUMPDEST PUSH1 0x40 MLOAD PUSH2 0x3AF SWAP2 SWAP1 PUSH2 0x1D9F JUMP JUMPDEST PUSH1 0x40 MLOAD DUP1 SWAP2 SUB SWAP1 RETURN JUMPDEST CALLVALUE DUP1 ISZERO PUSH2 0x3C4 JUMPI PUSH1 0x0 DUP1 REVERT JUMPDEST POP PUSH2 0x3DF PUSH1 0x4 DUP1 CALLDATASIZE SUB DUP2 ADD SWAP1 PUSH2 0x3DA SWAP2 SWAP1 PUSH2 0x1D36 JUMP JUMPDEST PUSH2 0xE81 JUMP JUMPDEST STOP JUMPDEST CALLVALUE DUP1 ISZERO PUSH2 0x3ED JUMPI PUSH1 0x0 DUP1 REVERT JUMPDEST POP PUSH2 0x408 PUSH1 0x4 DUP1 CALLDATASIZE SUB DUP2 ADD SWAP1 PUSH2 0x403 SWAP2 SWAP1 PUSH2 0x1C63 JUMP JUMPDEST PUSH2 0xF63 JUMP JUMPDEST STOP JUMPDEST CALLVALUE DUP1 ISZERO PUSH2 0x416 JUMPI PUSH1 0x0 DUP1 REVERT JUMPDEST POP PUSH2 0x431 PUSH1 0x4 DUP1 CALLDATASIZE SUB DUP2 ADD SWAP1 PUSH2 0x42C SWAP2 SWAP1 PUSH2 0x1DBA JUMP JUMPDEST PUSH2 0x1035 JUMP JUMPDEST PUSH1 0x40 MLOAD PUSH2 0x43E SWAP2 SWAP1 PUSH2 0x1C08 JUMP JUMPDEST PUSH1 0x40 MLOAD DUP1 SWAP2 SUB SWAP1 RETURN JUMPDEST CALLVALUE DUP1 ISZERO PUSH2 0x453 JUMPI PUSH1 0x0 DUP1 REVERT JUMPDEST POP PUSH2 0x45C PUSH2 0x10BE JUMP JUMPDEST PUSH1 0x40 MLOAD PUSH2 0x469 SWAP2 SWAP1 PUSH2 0x1D63 JUMP JUMPDEST PUSH1 0x40 MLOAD DUP1 SWAP2 SUB SWAP1 RETURN JUMPDEST CALLVALUE DUP1 ISZERO PUSH2 0x47E JUMPI PUSH1 0x0 DUP1 REVERT JUMPDEST POP PUSH2 0x487 PUSH2 0x10E4 JUMP JUMPDEST PUSH1 0x40 MLOAD PUSH2 0x494 SWAP2 SWAP1 PUSH2 0x1D63 JUMP JUMPDEST PUSH1 0x40 MLOAD DUP1 SWAP2 SUB SWAP1 RETURN JUMPDEST CALLVALUE DUP1 ISZERO PUSH2 0x4A9 JUMPI PUSH1 0x0 DUP1 REVERT JUMPDEST POP PUSH2 0x4C4 PUSH1 0x4 DUP1 CALLDATASIZE SUB DUP2 ADD SWAP1 PUSH2 0x4BF SWAP2 SWAP1 PUSH2 0x1C63 JUMP JUMPDEST PUSH2 0x110A JUMP JUMPDEST STOP JUMPDEST CALLVALUE DUP1 ISZERO PUSH2 0x4D2 JUMPI PUSH1 0x0 DUP1 REVERT JUMPDEST POP PUSH2 0x4ED PUSH1 0x4 DUP1 CALLDATASIZE SUB DUP2 ADD SWAP1 PUSH2 0x4E8 SWAP2 SWAP1 PUSH2 0x1D36 JUMP JUMPDEST PUSH2 0x11DC JUMP JUMPDEST STOP JUMPDEST CALLVALUE DUP1 ISZERO PUSH2 0x4FB JUMPI PUSH1 0x0 DUP1 REVERT JUMPDEST POP PUSH2 0x516 PUSH1 0x4 DUP1 CALLDATASIZE SUB DUP2 ADD SWAP1 PUSH2 0x511 SWAP2 SWAP1 PUSH2 0x2109 JUMP JUMPDEST PUSH2 0x1274 JUMP JUMPDEST STOP JUMPDEST PUSH1 0x2 SLOAD DUP2 JUMP JUMPDEST PUSH32 0x0 PUSH20 0xFFFFFFFFFFFFFFFFFFFFFFFFFFFFFFFFFFFFFFFF AND CALLER PUSH20 0xFFFFFFFFFFFFFFFFFFFFFFFFFFFFFFFFFFFFFFFF AND EQ PUSH2 0x5AC JUMPI PUSH1 0x40 MLOAD PUSH32 0x8C379A000000000000000000000000000000000000000000000000000000000 DUP2 MSTORE PUSH1 0x4 ADD PUSH2 0x5A3 SWAP1 PUSH2 0x2263 JUMP JUMPDEST PUSH1 0x40 MLOAD DUP1 SWAP2 SUB SWAP1 REVERT JUMPDEST DUP1 PUSH1 0x0 DUP1 PUSH2 0x100 EXP DUP2 SLOAD DUP2 PUSH20 0xFFFFFFFFFFFFFFFFFFFFFFFFFFFFFFFFFFFFFFFF MUL NOT AND SWAP1 DUP4 PUSH20 0xFFFFFFFFFFFFFFFFFFFFFFFFFFFFFFFFFFFFFFFF AND MUL OR SWAP1 SSTORE POP POP JUMP JUMPDEST PUSH32 0x0 DUP2 JUMP JUMPDEST PUSH1 0x3 SLOAD DUP2 JUMP JUMPDEST PUSH32 0x0 PUSH20 0xFFFFFFFFFFFFFFFFFFFFFFFFFFFFFFFFFFFFFFFF AND CALLER PUSH20 0xFFFFFFFFFFFFFFFFFFFFFFFFFFFFFFFFFFFFFFFF AND EQ PUSH2 0x6A7 JUMPI PUSH1 0x40 MLOAD PUSH32 0x8C379A000000000000000000000000000000000000000000000000000000000 DUP2 MSTORE PUSH1 0x4 ADD PUSH2 0x69E SWAP1 PUSH2 0x2263 JUMP JUMPDEST PUSH1 0x40 MLOAD DUP1 SWAP2 SUB SWAP1 REVERT JUMPDEST PUSH1 0x0 PUSH32 0x0 PUSH20 0xFFFFFFFFFFFFFFFFFFFFFFFFFFFFFFFFFFFFFFFF AND PUSH4 0x70A08231 ADDRESS PUSH1 0x40 MLOAD DUP3 PUSH4 0xFFFFFFFF AND PUSH1 0xE0 SHL DUP2 MSTORE PUSH1 0x4 ADD PUSH2 0x702 SWAP2 SWAP1 PUSH2 0x1D63 JUMP JUMPDEST PUSH1 0x20 PUSH1 0x40 MLOAD DUP1 DUP4 SUB DUP2 DUP7 GAS STATICCALL ISZERO DUP1 ISZERO PUSH2 0x71F JUMPI RETURNDATASIZE PUSH1 0x0 DUP1 RETURNDATACOPY RETURNDATASIZE PUSH1 0x0 REVERT JUMPDEST POP POP POP POP PUSH1 0x40 MLOAD RETURNDATASIZE PUSH1 0x1F NOT PUSH1 0x1F DUP3 ADD AND DUP3 ADD DUP1 PUSH1 0x40 MSTORE POP DUP2 ADD SWAP1 PUSH2 0x743 SWAP2 SWAP1 PUSH2 0x2298 JUMP JUMPDEST SWAP1 POP PUSH1 0x0 DUP2 GT PUSH2 0x788 JUMPI PUSH1 0x40 MLOAD PUSH32 0x8C379A000000000000000000000000000000000000000000000000000000000 DUP2 MSTORE PUSH1 0x4 ADD PUSH2 0x77F SWAP1 PUSH2 0x2337 JUMP JUMPDEST PUSH1 0x40 MLOAD DUP1 SWAP2 SUB SWAP1 REVERT JUMPDEST PUSH2 0x791 DUP2 PUSH2 0x1449 JUMP JUMPDEST PUSH32 0x0 PUSH20 0xFFFFFFFFFFFFFFFFFFFFFFFFFFFFFFFFFFFFFFFF AND PUSH4 0xA9059CBB PUSH32 0x0 DUP4 PUSH1 0x40 MLOAD DUP4 PUSH4 0xFFFFFFFF AND PUSH1 0xE0 SHL DUP2 MSTORE PUSH1 0x4 ADD PUSH2 0x80C SWAP3 SWAP2 SWAP1 PUSH2 0x1BDF JUMP JUMPDEST PUSH1 0x20 PUSH1 0x40 MLOAD DUP1 DUP4 SUB DUP2 PUSH1 0x0 DUP8 GAS CALL ISZERO DUP1 ISZERO PUSH2 0x82B JUMPI RETURNDATASIZE PUSH1 0x0 DUP1 RETURNDATACOPY RETURNDATASIZE PUSH1 0x0 REVERT JUMPDEST POP POP POP POP PUSH1 0x40 MLOAD RETURNDATASIZE PUSH1 0x1F NOT PUSH1 0x1F DUP3 ADD AND DUP3 ADD DUP1 PUSH1 0x40 MSTORE POP DUP2 ADD SWAP1 PUSH2 0x84F SWAP2 SWAP1 PUSH2 0x238F JUMP JUMPDEST POP POP JUMP JUMPDEST PUSH32 0x0 PUSH20 0xFFFFFFFFFFFFFFFFFFFFFFFFFFFFFFFFFFFFFFFF AND CALLER PUSH20 0xFFFFFFFFFFFFFFFFFFFFFFFFFFFFFFFFFFFFFFFF AND EQ PUSH2 0x8E1 JUMPI PUSH1 0x40 MLOAD PUSH32 0x8C379A000000000000000000000000000000000000000000000000000000000 DUP2 MSTORE PUSH1 0x4 ADD PUSH2 0x8D8 SWAP1 PUSH2 0x2263 JUMP JUMPDEST PUSH1 0x40 MLOAD DUP1 SWAP2 SUB SWAP1 REVERT JUMPDEST PUSH32 0x0 PUSH20 0xFFFFFFFFFFFFFFFFFFFFFFFFFFFFFFFFFFFFFFFF AND PUSH4 0xA9059CBB CALLER DUP4 PUSH1 0x40 MLOAD DUP4 PUSH4 0xFFFFFFFF AND PUSH1 0xE0 SHL DUP2 MSTORE PUSH1 0x4 ADD PUSH2 0x93C SWAP3 SWAP2 SWAP1 PUSH2 0x1BDF JUMP JUMPDEST PUSH1 0x20 PUSH1 0x40 MLOAD DUP1 DUP4 SUB DUP2 PUSH1 0x0 DUP8 GAS CALL ISZERO DUP1 ISZERO PUSH2 0x95B JUMPI RETURNDATASIZE PUSH1 0x0 DUP1 RETURNDATACOPY RETURNDATASIZE PUSH1 0x0 REVERT JUMPDEST POP POP POP POP PUSH1 0x40 MLOAD RETURNDATASIZE PUSH1 0x1F NOT PUSH1 0x1F DUP3 ADD AND DUP3 ADD DUP1 PUSH1 0x40 MSTORE POP DUP2 ADD SWAP1 PUSH2 0x97F SWAP2 SWAP1 PUSH2 0x238F JUMP JUMPDEST PUSH2 0x9BE JUMPI PUSH1 0x40 MLOAD PUSH32 0x8C379A000000000000000000000000000000000000000000000000000000000 DUP2 MSTORE PUSH1 0x4 ADD PUSH2 0x9B5 SWAP1 PUSH2 0x2408 JUMP JUMPDEST PUSH1 0x40 MLOAD DUP1 SWAP2 SUB SWAP1 REVERT JUMPDEST POP JUMP JUMPDEST PUSH32 0x0 PUSH20 0xFFFFFFFFFFFFFFFFFFFFFFFFFFFFFFFFFFFFFFFF AND CALLER PUSH20 0xFFFFFFFFFFFFFFFFFFFFFFFFFFFFFFFFFFFFFFFF AND EQ PUSH2 0xA4F JUMPI PUSH1 0x40 MLOAD PUSH32 0x8C379A000000000000000000000000000000000000000000000000000000000 DUP2 MSTORE PUSH1 0x4 ADD PUSH2 0xA46 SWAP1 PUSH2 0x2263 JUMP JUMPDEST PUSH1 0x40 MLOAD DUP1 SWAP2 SUB SWAP1 REVERT JUMPDEST DUP1 PUSH1 0x4 DUP2 SWAP1 SSTORE POP POP JUMP JUMPDEST PUSH1 0x0 DUP1 SLOAD SWAP1 PUSH2 0x100 EXP SWAP1 DIV PUSH20 0xFFFFFFFFFFFFFFFFFFFFFFFFFFFFFFFFFFFFFFFF AND DUP2 JUMP JUMPDEST PUSH32 0x0 PUSH20 0xFFFFFFFFFFFFFFFFFFFFFFFFFFFFFFFFFFFFFFFF AND CALLER PUSH20 0xFFFFFFFFFFFFFFFFFFFFFFFFFFFFFFFFFFFFFFFF AND EQ PUSH2 0xB0B JUMPI PUSH1 0x40 MLOAD PUSH32 0x8C379A000000000000000000000000000000000000000000000000000000000 DUP2 MSTORE PUSH1 0x4 ADD PUSH2 0xB02 SWAP1 PUSH2 0x2263 JUMP JUMPDEST PUSH1 0x40 MLOAD DUP1 SWAP2 SUB SWAP1 REVERT JUMPDEST PUSH1 0x6 PUSH1 0x0 SWAP1 SLOAD SWAP1 PUSH2 0x100 EXP SWAP1 DIV PUSH20 0xFFFFFFFFFFFFFFFFFFFFFFFFFFFFFFFFFFFFFFFF AND PUSH20 0xFFFFFFFFFFFFFFFFFFFFFFFFFFFFFFFFFFFFFFFF AND PUSH4 0xACB70815 DUP3 PUSH32 0x0 PUSH1 0x40 MLOAD DUP4 PUSH4 0xFFFFFFFF AND PUSH1 0xE0 SHL DUP2 MSTORE PUSH1 0x4 ADD PUSH2 0xB88 SWAP3 SWAP2 SWAP1 PUSH2 0x2428 JUMP JUMPDEST PUSH1 0x0 PUSH1 0x40 MLOAD DUP1 DUP4 SUB DUP2 PUSH1 0x0 DUP8 DUP1 EXTCODESIZE ISZERO DUP1 ISZERO PUSH2 0xBA2 JUMPI PUSH1 0x0 DUP1 REVERT JUMPDEST POP GAS CALL ISZERO DUP1 ISZERO PUSH2 0xBB6 JUMPI RETURNDATASIZE PUSH1 0x0 DUP1 RETURNDATACOPY RETURNDATASIZE PUSH1 0x0 REVERT JUMPDEST POP POP POP POP CALLER PUSH20 0xFFFFFFFFFFFFFFFFFFFFFFFFFFFFFFFFFFFFFFFF AND PUSH32 0xC200A1F31DD659E356E0F112C82558E25F49F7B0F84438691CD96F5CB3558823 DUP3 PUSH1 0x40 MLOAD PUSH2 0xC00 SWAP2 SWAP1 PUSH2 0x1C08 JUMP JUMPDEST PUSH1 0x40 MLOAD DUP1 SWAP2 SUB SWAP1 LOG2 POP JUMP JUMPDEST PUSH1 0x6 PUSH1 0x0 SWAP1 SLOAD SWAP1 PUSH2 0x100 EXP SWAP1 DIV PUSH20 0xFFFFFFFFFFFFFFFFFFFFFFFFFFFFFFFFFFFFFFFF AND DUP2 JUMP JUMPDEST PUSH1 0x4 SLOAD DUP2 JUMP JUMPDEST PUSH32 0x0 PUSH20 0xFFFFFFFFFFFFFFFFFFFFFFFFFFFFFFFFFFFFFFFF AND CALLER PUSH20 0xFFFFFFFFFFFFFFFFFFFFFFFFFFFFFFFFFFFFFFFF AND EQ PUSH2 0xCC5 JUMPI PUSH1 0x40 MLOAD PUSH32 0x8C379A000000000000000000000000000000000000000000000000000000000 DUP2 MSTORE PUSH1 0x4 ADD PUSH2 0xCBC SWAP1 PUSH2 0x2263 JUMP JUMPDEST PUSH1 0x40 MLOAD DUP1 SWAP2 SUB SWAP1 REVERT JUMPDEST DUP1 PUSH1 0x2 DUP2 SWAP1 SSTORE POP POP JUMP JUMPDEST PUSH32 0x0 PUSH20 0xFFFFFFFFFFFFFFFFFFFFFFFFFFFFFFFFFFFFFFFF AND CALLER PUSH20 0xFFFFFFFFFFFFFFFFFFFFFFFFFFFFFFFFFFFFFFFF AND EQ PUSH2 0xD5D JUMPI PUSH1 0x40 MLOAD PUSH32 0x8C379A000000000000000000000000000000000000000000000000000000000 DUP2 MSTORE PUSH1 0x4 ADD PUSH2 0xD54 SWAP1 PUSH2 0x2263 JUMP JUMPDEST PUSH1 0x40 MLOAD DUP1 SWAP2 SUB SWAP1 REVERT JUMPDEST PUSH1 0x6 PUSH1 0x0 SWAP1 SLOAD SWAP1 PUSH2 0x100 EXP SWAP1 DIV PUSH20 0xFFFFFFFFFFFFFFFFFFFFFFFFFFFFFFFFFFFFFFFF AND PUSH20 0xFFFFFFFFFFFFFFFFFFFFFFFFFFFFFFFFFFFFFFFF AND PUSH4 0x4B3FD148 DUP3 PUSH32 0x0 PUSH1 0x40 MLOAD DUP4 PUSH4 0xFFFFFFFF AND PUSH1 0xE0 SHL DUP2 MSTORE PUSH1 0x4 ADD PUSH2 0xDDA SWAP3 SWAP2 SWAP1 PUSH2 0x2428 JUMP JUMPDEST PUSH1 0x0 PUSH1 0x40 MLOAD DUP1 DUP4 SUB DUP2 PUSH1 0x0 DUP8 DUP1 EXTCODESIZE ISZERO DUP1 ISZERO PUSH2 0xDF4 JUMPI PUSH1 0x0 DUP1 REVERT JUMPDEST POP GAS CALL ISZERO DUP1 ISZERO PUSH2 0xE08 JUMPI RETURNDATASIZE PUSH1 0x0 DUP1 RETURNDATACOPY RETURNDATASIZE PUSH1 0x0 REVERT JUMPDEST POP POP POP POP CALLER PUSH20 0xFFFFFFFFFFFFFFFFFFFFFFFFFFFFFFFFFFFFFFFF AND PUSH32 0x6C22E520074F676B380B03FFBA06F2CCF61E51CBEEE2A4E084B80A19D2FC237 DUP3 PUSH1 0x40 MLOAD PUSH2 0xE52 SWAP2 SWAP1 PUSH2 0x1C08 JUMP JUMPDEST PUSH1 0x40 MLOAD DUP1 SWAP2 SUB SWAP1 LOG2 POP JUMP JUMPDEST PUSH32 0x0 DUP2 JUMP JUMPDEST PUSH32 0x0 PUSH20 0xFFFFFFFFFFFFFFFFFFFFFFFFFFFFFFFFFFFFFFFF AND PUSH4 0x23B872DD CALLER ADDRESS DUP5 PUSH1 0x40 MLOAD DUP5 PUSH4 0xFFFFFFFF AND PUSH1 0xE0 SHL DUP2 MSTORE PUSH1 0x4 ADD PUSH2 0xEDE SWAP4 SWAP3 SWAP2 SWAP1 PUSH2 0x2451 JUMP JUMPDEST PUSH1 0x20 PUSH1 0x40 MLOAD DUP1 DUP4 SUB DUP2 PUSH1 0x0 DUP8 GAS CALL ISZERO DUP1 ISZERO PUSH2 0xEFD JUMPI RETURNDATASIZE PUSH1 0x0 DUP1 RETURNDATACOPY RETURNDATASIZE PUSH1 0x0 REVERT JUMPDEST POP POP POP POP PUSH1 0x40 MLOAD RETURNDATASIZE PUSH1 0x1F NOT PUSH1 0x1F DUP3 ADD AND DUP3 ADD DUP1 PUSH1 0x40 MSTORE POP DUP2 ADD SWAP1 PUSH2 0xF21 SWAP2 SWAP1 PUSH2 0x238F JUMP JUMPDEST PUSH2 0xF60 JUMPI PUSH1 0x40 MLOAD PUSH32 0x8C379A000000000000000000000000000000000000000000000000000000000 DUP2 MSTORE PUSH1 0x4 ADD PUSH2 0xF57 SWAP1 PUSH2 0x2408 JUMP JUMPDEST PUSH1 0x40 MLOAD DUP1 SWAP2 SUB SWAP1 REVERT JUMPDEST POP JUMP JUMPDEST PUSH32 0x0 PUSH20 0xFFFFFFFFFFFFFFFFFFFFFFFFFFFFFFFFFFFFFFFF AND CALLER PUSH20 0xFFFFFFFFFFFFFFFFFFFFFFFFFFFFFFFFFFFFFFFF AND EQ PUSH2 0xFF1 JUMPI PUSH1 0x40 MLOAD PUSH32 0x8C379A000000000000000000000000000000000000000000000000000000000 DUP2 MSTORE PUSH1 0x4 ADD PUSH2 0xFE8 SWAP1 PUSH2 0x2263 JUMP JUMPDEST PUSH1 0x40 MLOAD DUP1 SWAP2 SUB SWAP1 REVERT JUMPDEST DUP1 PUSH1 0x1 PUSH1 0x0 PUSH2 0x100 EXP DUP2 SLOAD DUP2 PUSH20 0xFFFFFFFFFFFFFFFFFFFFFFFFFFFFFFFFFFFFFFFF MUL NOT AND SWAP1 DUP4 PUSH20 0xFFFFFFFFFFFFFFFFFFFFFFFFFFFFFFFFFFFFFFFF AND MUL OR SWAP1 SSTORE POP POP JUMP JUMPDEST PUSH1 0x0 DUP1 DUP4 SWAP1 POP DUP1 PUSH20 0xFFFFFFFFFFFFFFFFFFFFFFFFFFFFFFFFFFFFFFFF AND PUSH4 0x70A08231 DUP5 PUSH1 0x40 MLOAD DUP3 PUSH4 0xFFFFFFFF AND PUSH1 0xE0 SHL DUP2 MSTORE PUSH1 0x4 ADD PUSH2 0x1074 SWAP2 SWAP1 PUSH2 0x1D63 JUMP JUMPDEST PUSH1 0x20 PUSH1 0x40 MLOAD DUP1 DUP4 SUB DUP2 DUP7 GAS STATICCALL ISZERO DUP1 ISZERO PUSH2 0x1091 JUMPI RETURNDATASIZE PUSH1 0x0 DUP1 RETURNDATACOPY RETURNDATASIZE PUSH1 0x0 REVERT JUMPDEST POP POP POP POP PUSH1 0x40 MLOAD RETURNDATASIZE PUSH1 0x1F NOT PUSH1 0x1F DUP3 ADD AND DUP3 ADD DUP1 PUSH1 0x40 MSTORE POP DUP2 ADD SWAP1 PUSH2 0x10B5 SWAP2 SWAP1 PUSH2 0x2298 JUMP JUMPDEST SWAP2 POP POP SWAP3 SWAP2 POP POP JUMP JUMPDEST PUSH1 0x5 PUSH1 0x0 SWAP1 SLOAD SWAP1 PUSH2 0x100 EXP SWAP1 DIV PUSH20 0xFFFFFFFFFFFFFFFFFFFFFFFFFFFFFFFFFFFFFFFF AND DUP2 JUMP JUMPDEST PUSH1 0x1 PUSH1 0x0 SWAP1 SLOAD SWAP1 PUSH2 0x100 EXP SWAP1 DIV PUSH20 0xFFFFFFFFFFFFFFFFFFFFFFFFFFFFFFFFFFFFFFFF AND DUP2 JUMP JUMPDEST PUSH32 0x0 PUSH20 0xFFFFFFFFFFFFFFFFFFFFFFFFFFFFFFFFFFFFFFFF AND CALLER PUSH20 0xFFFFFFFFFFFFFFFFFFFFFFFFFFFFFFFFFFFFFFFF AND EQ PUSH2 0x1198 JUMPI PUSH1 0x40 MLOAD PUSH32 0x8C379A000000000000000000000000000000000000000000000000000000000 DUP2 MSTORE PUSH1 0x4 ADD PUSH2 0x118F SWAP1 PUSH2 0x2263 JUMP JUMPDEST PUSH1 0x40 MLOAD DUP1 SWAP2 SUB SWAP1 REVERT JUMPDEST DUP1 PUSH1 0x5 PUSH1 0x0 PUSH2 0x100 EXP DUP2 SLOAD DUP2 PUSH20 0xFFFFFFFFFFFFFFFFFFFFFFFFFFFFFFFFFFFFFFFF MUL NOT AND SWAP1 DUP4 PUSH20 0xFFFFFFFFFFFFFFFFFFFFFFFFFFFFFFFFFFFFFFFF AND MUL OR SWAP1 SSTORE POP POP JUMP JUMPDEST PUSH32 0x0 PUSH20 0xFFFFFFFFFFFFFFFFFFFFFFFFFFFFFFFFFFFFFFFF AND CALLER PUSH20 0xFFFFFFFFFFFFFFFFFFFFFFFFFFFFFFFFFFFFFFFF AND EQ PUSH2 0x126A JUMPI PUSH1 0x40 MLOAD PUSH32 0x8C379A000000000000000000000000000000000000000000000000000000000 DUP2 MSTORE PUSH1 0x4 ADD PUSH2 0x1261 SWAP1 PUSH2 0x2263 JUMP JUMPDEST PUSH1 0x40 MLOAD DUP1 SWAP2 SUB SWAP1 REVERT JUMPDEST DUP1 PUSH1 0x3 DUP2 SWAP1 SSTORE POP POP JUMP JUMPDEST PUSH1 0x0 JUMPDEST DUP5 MLOAD DUP2 LT ISZERO PUSH2 0x1442 JUMPI PUSH1 0x0 DUP6 DUP3 DUP2 MLOAD DUP2 LT PUSH2 0x1295 JUMPI PUSH2 0x1294 PUSH2 0x2488 JUMP JUMPDEST JUMPDEST PUSH1 0x20 MUL PUSH1 0x20 ADD ADD MLOAD SWAP1 POP PUSH1 0x0 DUP6 DUP4 DUP2 MLOAD DUP2 LT PUSH2 0x12B4 JUMPI PUSH2 0x12B3 PUSH2 0x2488 JUMP JUMPDEST JUMPDEST PUSH1 0x20 MUL PUSH1 0x20 ADD ADD MLOAD SWAP1 POP PUSH1 0x0 DUP6 DUP5 DUP2 MLOAD DUP2 LT PUSH2 0x12D3 JUMPI PUSH2 0x12D2 PUSH2 0x2488 JUMP JUMPDEST JUMPDEST PUSH1 0x20 MUL PUSH1 0x20 ADD ADD MLOAD SWAP1 POP PUSH1 0x0 JUMPDEST PUSH1 0x4 SLOAD DUP2 LT ISZERO PUSH2 0x1395 JUMPI PUSH2 0x1339 PUSH1 0x0 DUP1 SLOAD SWAP1 PUSH2 0x100 EXP SWAP1 DIV PUSH20 0xFFFFFFFFFFFFFFFFFFFFFFFFFFFFFFFFFFFFFFFF AND PUSH1 0x1 PUSH1 0x0 SWAP1 SLOAD SWAP1 PUSH2 0x100 EXP SWAP1 DIV PUSH20 0xFFFFFFFFFFFFFFFFFFFFFFFFFFFFFFFFFFFFFFFF AND PUSH1 0x3 SLOAD PUSH2 0x165F JUMP JUMPDEST PUSH2 0x1388 PUSH1 0x1 PUSH1 0x0 SWAP1 SLOAD SWAP1 PUSH2 0x100 EXP SWAP1 DIV PUSH20 0xFFFFFFFFFFFFFFFFFFFFFFFFFFFFFFFFFFFFFFFF AND PUSH1 0x0 DUP1 SLOAD SWAP1 PUSH2 0x100 EXP SWAP1 DIV PUSH20 0xFFFFFFFFFFFFFFFFFFFFFFFFFFFFFFFFFFFFFFFF AND PUSH1 0x3 SLOAD PUSH2 0x165F JUMP JUMPDEST DUP1 DUP1 PUSH1 0x1 ADD SWAP2 POP POP PUSH2 0x12E0 JUMP JUMPDEST POP PUSH2 0x13AA DUP2 DUP4 PUSH2 0x13A5 SWAP2 SWAP1 PUSH2 0x24E6 JUMP JUMPDEST PUSH2 0x18B1 JUMP JUMPDEST DUP3 PUSH20 0xFFFFFFFFFFFFFFFFFFFFFFFFFFFFFFFFFFFFFFFF AND PUSH4 0xA9059CBB CALLER DUP4 DUP6 PUSH2 0x13D3 SWAP2 SWAP1 PUSH2 0x24E6 JUMP JUMPDEST PUSH1 0x40 MLOAD DUP4 PUSH4 0xFFFFFFFF AND PUSH1 0xE0 SHL DUP2 MSTORE PUSH1 0x4 ADD PUSH2 0x13F0 SWAP3 SWAP2 SWAP1 PUSH2 0x1BDF JUMP JUMPDEST PUSH1 0x20 PUSH1 0x40 MLOAD DUP1 DUP4 SUB DUP2 PUSH1 0x0 DUP8 GAS CALL ISZERO DUP1 ISZERO PUSH2 0x140F JUMPI RETURNDATASIZE PUSH1 0x0 DUP1 RETURNDATACOPY RETURNDATASIZE PUSH1 0x0 REVERT JUMPDEST POP POP POP POP PUSH1 0x40 MLOAD RETURNDATASIZE PUSH1 0x1F NOT PUSH1 0x1F DUP3 ADD AND DUP3 ADD DUP1 PUSH1 0x40 MSTORE POP DUP2 ADD SWAP1 PUSH2 0x1433 SWAP2 SWAP1 PUSH2 0x238F JUMP JUMPDEST POP POP POP POP DUP1 PUSH1 0x1 ADD SWAP1 POP PUSH2 0x1277 JUMP JUMPDEST POP POP POP POP POP JUMP JUMPDEST PUSH1 0x0 PUSH32 0x0 PUSH20 0xFFFFFFFFFFFFFFFFFFFFFFFFFFFFFFFFFFFFFFFF AND PUSH4 0x18160DDD PUSH1 0x40 MLOAD DUP2 PUSH4 0xFFFFFFFF AND PUSH1 0xE0 SHL DUP2 MSTORE PUSH1 0x4 ADD PUSH1 0x20 PUSH1 0x40 MLOAD DUP1 DUP4 SUB DUP2 DUP7 GAS STATICCALL ISZERO DUP1 ISZERO PUSH2 0x14B6 JUMPI RETURNDATASIZE PUSH1 0x0 DUP1 RETURNDATACOPY RETURNDATASIZE PUSH1 0x0 REVERT JUMPDEST POP POP POP POP PUSH1 0x40 MLOAD RETURNDATASIZE PUSH1 0x1F NOT PUSH1 0x1F DUP3 ADD AND DUP3 ADD DUP1 PUSH1 0x40 MSTORE POP DUP2 ADD SWAP1 PUSH2 0x14DA SWAP2 SWAP1 PUSH2 0x2298 JUMP JUMPDEST SWAP1 POP PUSH1 0x0 PUSH32 0x0 PUSH20 0xFFFFFFFFFFFFFFFFFFFFFFFFFFFFFFFFFFFFFFFF AND PUSH4 0xD5ABEB01 PUSH1 0x40 MLOAD DUP2 PUSH4 0xFFFFFFFF AND PUSH1 0xE0 SHL DUP2 MSTORE PUSH1 0x4 ADD PUSH1 0x20 PUSH1 0x40 MLOAD DUP1 DUP4 SUB DUP2 DUP7 GAS STATICCALL ISZERO DUP1 ISZERO PUSH2 0x1549 JUMPI RETURNDATASIZE PUSH1 0x0 DUP1 RETURNDATACOPY RETURNDATASIZE PUSH1 0x0 REVERT JUMPDEST POP POP POP POP PUSH1 0x40 MLOAD RETURNDATASIZE PUSH1 0x1F NOT PUSH1 0x1F DUP3 ADD AND DUP3 ADD DUP1 PUSH1 0x40 MSTORE POP DUP2 ADD SWAP1 PUSH2 0x156D SWAP2 SWAP1 PUSH2 0x2298 JUMP JUMPDEST SWAP1 POP DUP1 DUP4 DUP4 PUSH2 0x157C SWAP2 SWAP1 PUSH2 0x24E6 JUMP JUMPDEST GT ISZERO PUSH2 0x15BD JUMPI PUSH1 0x40 MLOAD PUSH32 0x8C379A000000000000000000000000000000000000000000000000000000000 DUP2 MSTORE PUSH1 0x4 ADD PUSH2 0x15B4 SWAP1 PUSH2 0x2566 JUMP JUMPDEST PUSH1 0x40 MLOAD DUP1 SWAP2 SUB SWAP1 REVERT JUMPDEST PUSH32 0x0 PUSH20 0xFFFFFFFFFFFFFFFFFFFFFFFFFFFFFFFFFFFFFFFF AND PUSH4 0xA0712D68 DUP5 PUSH1 0x40 MLOAD DUP3 PUSH4 0xFFFFFFFF AND PUSH1 0xE0 SHL DUP2 MSTORE PUSH1 0x4 ADD PUSH2 0x1616 SWAP2 SWAP1 PUSH2 0x1C08 JUMP JUMPDEST PUSH1 0x20 PUSH1 0x40 MLOAD DUP1 DUP4 SUB DUP2 PUSH1 0x0 DUP8 GAS CALL ISZERO DUP1 ISZERO PUSH2 0x1635 JUMPI RETURNDATASIZE PUSH1 0x0 DUP1 RETURNDATACOPY RETURNDATASIZE PUSH1 0x0 REVERT JUMPDEST POP POP POP POP PUSH1 0x40 MLOAD RETURNDATASIZE PUSH1 0x1F NOT PUSH1 0x1F DUP3 ADD AND DUP3 ADD DUP1 PUSH1 0x40 MSTORE POP DUP2 ADD SWAP1 PUSH2 0x1659 SWAP2 SWAP1 PUSH2 0x238F JUMP JUMPDEST POP POP POP POP JUMP JUMPDEST PUSH1 0x0 PUSH1 0x5 PUSH1 0x0 SWAP1 SLOAD SWAP1 PUSH2 0x100 EXP SWAP1 DIV PUSH20 0xFFFFFFFFFFFFFFFFFFFFFFFFFFFFFFFFFFFFFFFF AND SWAP1 POP DUP1 PUSH20 0xFFFFFFFFFFFFFFFFFFFFFFFFFFFFFFFFFFFFFFFF AND PUSH4 0xF0F3C41 DUP6 PUSH1 0x40 MLOAD DUP3 PUSH4 0xFFFFFFFF AND PUSH1 0xE0 SHL DUP2 MSTORE PUSH1 0x4 ADD PUSH2 0x16BF SWAP2 SWAP1 PUSH2 0x1D63 JUMP JUMPDEST PUSH1 0x0 PUSH1 0x40 MLOAD DUP1 DUP4 SUB DUP2 PUSH1 0x0 DUP8 DUP1 EXTCODESIZE ISZERO DUP1 ISZERO PUSH2 0x16D9 JUMPI PUSH1 0x0 DUP1 REVERT JUMPDEST POP GAS CALL ISZERO DUP1 ISZERO PUSH2 0x16ED JUMPI RETURNDATASIZE PUSH1 0x0 DUP1 RETURNDATACOPY RETURNDATASIZE PUSH1 0x0 REVERT JUMPDEST POP POP POP POP DUP1 PUSH20 0xFFFFFFFFFFFFFFFFFFFFFFFFFFFFFFFFFFFFFFFF AND PUSH4 0xC158910D DUP5 PUSH1 0x40 MLOAD DUP3 PUSH4 0xFFFFFFFF AND PUSH1 0xE0 SHL DUP2 MSTORE PUSH1 0x4 ADD PUSH2 0x172A SWAP2 SWAP1 PUSH2 0x1D63 JUMP JUMPDEST PUSH1 0x0 PUSH1 0x40 MLOAD DUP1 DUP4 SUB DUP2 PUSH1 0x0 DUP8 DUP1 EXTCODESIZE ISZERO DUP1 ISZERO PUSH2 0x1744 JUMPI PUSH1 0x0 DUP1 REVERT JUMPDEST POP GAS CALL ISZERO DUP1 ISZERO PUSH2 0x1758 JUMPI RETURNDATASIZE PUSH1 0x0 DUP1 RETURNDATACOPY RETURNDATASIZE PUSH1 0x0 REVERT JUMPDEST POP POP POP POP DUP1 PUSH20 0xFFFFFFFFFFFFFFFFFFFFFFFFFFFFFFFFFFFFFFFF AND PUSH4 0x73DD250C PUSH1 0x2 SLOAD PUSH1 0x40 MLOAD DUP3 PUSH4 0xFFFFFFFF AND PUSH1 0xE0 SHL DUP2 MSTORE PUSH1 0x4 ADD PUSH2 0x1797 SWAP2 SWAP1 PUSH2 0x25A4 JUMP JUMPDEST PUSH1 0x0 PUSH1 0x40 MLOAD DUP1 DUP4 SUB DUP2 PUSH1 0x0 DUP8 DUP1 EXTCODESIZE ISZERO DUP1 ISZERO PUSH2 0x17B1 JUMPI PUSH1 0x0 DUP1 REVERT JUMPDEST POP GAS CALL ISZERO DUP1 ISZERO PUSH2 0x17C5 JUMPI RETURNDATASIZE PUSH1 0x0 DUP1 RETURNDATACOPY RETURNDATASIZE PUSH1 0x0 REVERT JUMPDEST POP POP POP POP DUP1 PUSH20 0xFFFFFFFFFFFFFFFFFFFFFFFFFFFFFFFFFFFFFFFF AND PUSH4 0x73BD43AD DUP4 PUSH1 0x40 MLOAD DUP3 PUSH4 0xFFFFFFFF AND PUSH1 0xE0 SHL DUP2 MSTORE PUSH1 0x4 ADD PUSH2 0x1802 SWAP2 SWAP1 PUSH2 0x1C08 JUMP JUMPDEST PUSH1 0x20 PUSH1 0x40 MLOAD DUP1 DUP4 SUB DUP2 PUSH1 0x0 DUP8 GAS CALL ISZERO DUP1 ISZERO PUSH2 0x1821 JUMPI RETURNDATASIZE PUSH1 0x0 DUP1 RETURNDATACOPY RETURNDATASIZE PUSH1 0x0 REVERT JUMPDEST POP POP POP POP PUSH1 0x40 MLOAD RETURNDATASIZE PUSH1 0x1F NOT PUSH1 0x1F DUP3 ADD AND DUP3 ADD DUP1 PUSH1 0x40 MSTORE POP DUP2 ADD SWAP1 PUSH2 0x1845 SWAP2 SWAP1 PUSH2 0x2298 JUMP JUMPDEST POP DUP3 PUSH20 0xFFFFFFFFFFFFFFFFFFFFFFFFFFFFFFFFFFFFFFFF AND DUP5 PUSH20 0xFFFFFFFFFFFFFFFFFFFFFFFFFFFFFFFFFFFFFFFF AND PUSH32 0xBAD29F2BBBF6BB1E15563203BCDB0DD660C54EAB078763EB66F797EFA8F5E8C1 DUP5 PUSH1 0x40 MLOAD PUSH2 0x18A3 SWAP2 SWAP1 PUSH2 0x1C08 JUMP JUMPDEST PUSH1 0x40 MLOAD DUP1 SWAP2 SUB SWAP1 LOG3 POP POP POP POP JUMP JUMPDEST PUSH1 0x0 PUSH1 0x5 PUSH1 0x0 SWAP1 SLOAD SWAP1 PUSH2 0x100 EXP SWAP1 DIV PUSH20 0xFFFFFFFFFFFFFFFFFFFFFFFFFFFFFFFFFFFFFFFF AND SWAP1 POP DUP1 PUSH20 0xFFFFFFFFFFFFFFFFFFFFFFFFFFFFFFFFFFFFFFFF AND PUSH4 0xF0F3C41 PUSH1 0x1 PUSH1 0x0 SWAP1 SLOAD SWAP1 PUSH2 0x100 EXP SWAP1 DIV PUSH20 0xFFFFFFFFFFFFFFFFFFFFFFFFFFFFFFFFFFFFFFFF AND PUSH1 0x40 MLOAD DUP3 PUSH4 0xFFFFFFFF AND PUSH1 0xE0 SHL DUP2 MSTORE PUSH1 0x4 ADD PUSH2 0x1933 SWAP2 SWAP1 PUSH2 0x1D63 JUMP JUMPDEST PUSH1 0x0 PUSH1 0x40 MLOAD DUP1 DUP4 SUB DUP2 PUSH1 0x0 DUP8 DUP1 EXTCODESIZE ISZERO DUP1 ISZERO PUSH2 0x194D JUMPI PUSH1 0x0 DUP1 REVERT JUMPDEST POP GAS CALL ISZERO DUP1 ISZERO PUSH2 0x1961 JUMPI RETURNDATASIZE PUSH1 0x0 DUP1 RETURNDATACOPY RETURNDATASIZE PUSH1 0x0 REVERT JUMPDEST POP POP POP POP DUP1 PUSH20 0xFFFFFFFFFFFFFFFFFFFFFFFFFFFFFFFFFFFFFFFF AND PUSH4 0xC158910D PUSH32 0x0 PUSH1 0x40 MLOAD DUP3 PUSH4 0xFFFFFFFF AND PUSH1 0xE0 SHL DUP2 MSTORE PUSH1 0x4 ADD PUSH2 0x19BE SWAP2 SWAP1 PUSH2 0x1D63 JUMP JUMPDEST PUSH1 0x0 PUSH1 0x40 MLOAD DUP1 DUP4 SUB DUP2 PUSH1 0x0 DUP8 DUP1 EXTCODESIZE ISZERO DUP1 ISZERO PUSH2 0x19D8 JUMPI PUSH1 0x0 DUP1 REVERT JUMPDEST POP GAS CALL ISZERO DUP1 ISZERO PUSH2 0x19EC JUMPI RETURNDATASIZE PUSH1 0x0 DUP1 RETURNDATACOPY RETURNDATASIZE PUSH1 0x0 REVERT JUMPDEST POP POP POP POP DUP1 PUSH20 0xFFFFFFFFFFFFFFFFFFFFFFFFFFFFFFFFFFFFFFFF AND PUSH4 0x73DD250C PUSH1 0x2 SLOAD PUSH1 0x40 MLOAD DUP3 PUSH4 0xFFFFFFFF AND PUSH1 0xE0 SHL DUP2 MSTORE PUSH1 0x4 ADD PUSH2 0x1A2B SWAP2 SWAP1 PUSH2 0x25A4 JUMP JUMPDEST PUSH1 0x0 PUSH1 0x40 MLOAD DUP1 DUP4 SUB DUP2 PUSH1 0x0 DUP8 DUP1 EXTCODESIZE ISZERO DUP1 ISZERO PUSH2 0x1A45 JUMPI PUSH1 0x0 DUP1 REVERT JUMPDEST POP GAS CALL ISZERO DUP1 ISZERO PUSH2 0x1A59 JUMPI RETURNDATASIZE PUSH1 0x0 DUP1 RETURNDATACOPY RETURNDATASIZE PUSH1 0x0 REVERT JUMPDEST POP POP POP POP DUP1 PUSH20 0xFFFFFFFFFFFFFFFFFFFFFFFFFFFFFFFFFFFFFFFF AND PUSH4 0x73BD43AD DUP4 PUSH1 0x40 MLOAD DUP3 PUSH4 0xFFFFFFFF AND PUSH1 0xE0 SHL DUP2 MSTORE PUSH1 0x4 ADD PUSH2 0x1A96 SWAP2 SWAP1 PUSH2 0x1C08 JUMP JUMPDEST PUSH1 0x20 PUSH1 0x40 MLOAD DUP1 DUP4 SUB DUP2 PUSH1 0x0 DUP8 GAS CALL ISZERO DUP1 ISZERO PUSH2 0x1AB5 JUMPI RETURNDATASIZE PUSH1 0x0 DUP1 RETURNDATACOPY RETURNDATASIZE PUSH1 0x0 REVERT JUMPDEST POP POP POP POP PUSH1 0x40 MLOAD RETURNDATASIZE PUSH1 0x1F NOT PUSH1 0x1F DUP3 ADD AND DUP3 ADD DUP1 PUSH1 0x40 MSTORE POP DUP2 ADD SWAP1 PUSH2 0x1AD9 SWAP2 SWAP1 PUSH2 0x2298 JUMP JUMPDEST POP PUSH32 0x0 PUSH20 0xFFFFFFFFFFFFFFFFFFFFFFFFFFFFFFFFFFFFFFFF AND PUSH1 0x1 PUSH1 0x0 SWAP1 SLOAD SWAP1 PUSH2 0x100 EXP SWAP1 DIV PUSH20 0xFFFFFFFFFFFFFFFFFFFFFFFFFFFFFFFFFFFFFFFF AND PUSH20 0xFFFFFFFFFFFFFFFFFFFFFFFFFFFFFFFFFFFFFFFF AND PUSH32 0xBAD29F2BBBF6BB1E15563203BCDB0DD660C54EAB078763EB66F797EFA8F5E8C1 DUP5 PUSH1 0x40 MLOAD PUSH2 0x1B79 SWAP2 SWAP1 PUSH2 0x1C08 JUMP JUMPDEST PUSH1 0x40 MLOAD DUP1 SWAP2 SUB SWAP1 LOG3 POP POP JUMP JUMPDEST PUSH1 0x0 PUSH20 0xFFFFFFFFFFFFFFFFFFFFFFFFFFFFFFFFFFFFFFFF DUP3 AND SWAP1 POP SWAP2 SWAP1 POP JUMP JUMPDEST PUSH1 0x0 PUSH2 0x1BB0 DUP3 PUSH2 0x1B85 JUMP JUMPDEST SWAP1 POP SWAP2 SWAP1 POP JUMP JUMPDEST PUSH2 0x1BC0 DUP2 PUSH2 0x1BA5 JUMP JUMPDEST DUP3 MSTORE POP POP JUMP JUMPDEST PUSH1 0x0 DUP2 SWAP1 POP SWAP2 SWAP1 POP JUMP JUMPDEST PUSH2 0x1BD9 DUP2 PUSH2 0x1BC6 JUMP JUMPDEST DUP3 MSTORE POP POP JUMP JUMPDEST PUSH1 0x0 PUSH1 0x40 DUP3 ADD SWAP1 POP PUSH2 0x1BF4 PUSH1 0x0 DUP4 ADD DUP6 PUSH2 0x1BB7 JUMP JUMPDEST PUSH2 0x1C01 PUSH1 0x20 DUP4 ADD DUP5 PUSH2 0x1BD0 JUMP JUMPDEST SWAP4 SWAP3 POP POP POP JUMP JUMPDEST PUSH1 0x0 PUSH1 0x20 DUP3 ADD SWAP1 POP PUSH2 0x1C1D PUSH1 0x0 DUP4 ADD DUP5 PUSH2 0x1BD0 JUMP JUMPDEST SWAP3 SWAP2 POP POP JUMP JUMPDEST PUSH1 0x0 PUSH1 0x40 MLOAD SWAP1 POP SWAP1 JUMP JUMPDEST PUSH1 0x0 DUP1 REVERT JUMPDEST PUSH1 0x0 DUP1 REVERT JUMPDEST PUSH2 0x1C40 DUP2 PUSH2 0x1BA5 JUMP JUMPDEST DUP2 EQ PUSH2 0x1C4B JUMPI PUSH1 0x0 DUP1 REVERT JUMPDEST POP JUMP JUMPDEST PUSH1 0x0 DUP2 CALLDATALOAD SWAP1 POP PUSH2 0x1C5D DUP2 PUSH2 0x1C37 JUMP JUMPDEST SWAP3 SWAP2 POP POP JUMP JUMPDEST PUSH1 0x0 PUSH1 0x20 DUP3 DUP5 SUB SLT ISZERO PUSH2 0x1C79 JUMPI PUSH2 0x1C78 PUSH2 0x1C2D JUMP JUMPDEST JUMPDEST PUSH1 0x0 PUSH2 0x1C87 DUP5 DUP3 DUP6 ADD PUSH2 0x1C4E JUMP JUMPDEST SWAP2 POP POP SWAP3 SWAP2 POP POP JUMP JUMPDEST PUSH1 0x0 DUP2 SWAP1 POP SWAP2 SWAP1 POP JUMP JUMPDEST PUSH1 0x0 PUSH2 0x1CB5 PUSH2 0x1CB0 PUSH2 0x1CAB DUP5 PUSH2 0x1B85 JUMP JUMPDEST PUSH2 0x1C90 JUMP JUMPDEST PUSH2 0x1B85 JUMP JUMPDEST SWAP1 POP SWAP2 SWAP1 POP JUMP JUMPDEST PUSH1 0x0 PUSH2 0x1CC7 DUP3 PUSH2 0x1C9A JUMP JUMPDEST SWAP1 POP SWAP2 SWAP1 POP JUMP JUMPDEST PUSH1 0x0 PUSH2 0x1CD9 DUP3 PUSH2 0x1CBC JUMP JUMPDEST SWAP1 POP SWAP2 SWAP1 POP JUMP JUMPDEST PUSH2 0x1CE9 DUP2 PUSH2 0x1CCE JUMP JUMPDEST DUP3 MSTORE POP POP JUMP JUMPDEST PUSH1 0x0 PUSH1 0x20 DUP3 ADD SWAP1 POP PUSH2 0x1D04 PUSH1 0x0 DUP4 ADD DUP5 PUSH2 0x1CE0 JUMP JUMPDEST SWAP3 SWAP2 POP POP JUMP JUMPDEST PUSH2 0x1D13 DUP2 PUSH2 0x1BC6 JUMP JUMPDEST DUP2 EQ PUSH2 0x1D1E JUMPI PUSH1 0x0 DUP1 REVERT JUMPDEST POP JUMP JUMPDEST PUSH1 0x0 DUP2 CALLDATALOAD SWAP1 POP PUSH2 0x1D30 DUP2 PUSH2 0x1D0A JUMP JUMPDEST SWAP3 SWAP2 POP POP JUMP JUMPDEST PUSH1 0x0 PUSH1 0x20 DUP3 DUP5 SUB SLT ISZERO PUSH2 0x1D4C JUMPI PUSH2 0x1D4B PUSH2 0x1C2D JUMP JUMPDEST JUMPDEST PUSH1 0x0 PUSH2 0x1D5A DUP5 DUP3 DUP6 ADD PUSH2 0x1D21 JUMP JUMPDEST SWAP2 POP POP SWAP3 SWAP2 POP POP JUMP JUMPDEST PUSH1 0x0 PUSH1 0x20 DUP3 ADD SWAP1 POP PUSH2 0x1D78 PUSH1 0x0 DUP4 ADD DUP5 PUSH2 0x1BB7 JUMP JUMPDEST SWAP3 SWAP2 POP POP JUMP JUMPDEST PUSH1 0x0 PUSH2 0x1D89 DUP3 PUSH2 0x1CBC JUMP JUMPDEST SWAP1 POP SWAP2 SWAP1 POP JUMP JUMPDEST PUSH2 0x1D99 DUP2 PUSH2 0x1D7E JUMP JUMPDEST DUP3 MSTORE POP POP JUMP JUMPDEST PUSH1 0x0 PUSH1 0x20 DUP3 ADD SWAP1 POP PUSH2 0x1DB4 PUSH1 0x0 DUP4 ADD DUP5 PUSH2 0x1D90 JUMP JUMPDEST SWAP3 SWAP2 POP POP JUMP JUMPDEST PUSH1 0x0 DUP1 PUSH1 0x40 DUP4 DUP6 SUB SLT ISZERO PUSH2 0x1DD1 JUMPI PUSH2 0x1DD0 PUSH2 0x1C2D JUMP JUMPDEST JUMPDEST PUSH1 0x0 PUSH2 0x1DDF DUP6 DUP3 DUP7 ADD PUSH2 0x1C4E JUMP JUMPDEST SWAP3 POP POP PUSH1 0x20 PUSH2 0x1DF0 DUP6 DUP3 DUP7 ADD PUSH2 0x1C4E JUMP JUMPDEST SWAP2 POP POP SWAP3 POP SWAP3 SWAP1 POP JUMP JUMPDEST PUSH1 0x0 DUP1 REVERT JUMPDEST PUSH1 0x0 PUSH1 0x1F NOT PUSH1 0x1F DUP4 ADD AND SWAP1 POP SWAP2 SWAP1 POP JUMP JUMPDEST PUSH32 0x4E487B7100000000000000000000000000000000000000000000000000000000 PUSH1 0x0 MSTORE PUSH1 0x41 PUSH1 0x4 MSTORE PUSH1 0x24 PUSH1 0x0 REVERT JUMPDEST PUSH2 0x1E48 DUP3 PUSH2 0x1DFF JUMP JUMPDEST DUP2 ADD DUP2 DUP2 LT PUSH8 0xFFFFFFFFFFFFFFFF DUP3 GT OR ISZERO PUSH2 0x1E67 JUMPI PUSH2 0x1E66 PUSH2 0x1E10 JUMP JUMPDEST JUMPDEST DUP1 PUSH1 0x40 MSTORE POP POP POP JUMP JUMPDEST PUSH1 0x0 PUSH2 0x1E7A PUSH2 0x1C23 JUMP JUMPDEST SWAP1 POP PUSH2 0x1E86 DUP3 DUP3 PUSH2 0x1E3F JUMP JUMPDEST SWAP2 SWAP1 POP JUMP JUMPDEST PUSH1 0x0 PUSH8 0xFFFFFFFFFFFFFFFF DUP3 GT ISZERO PUSH2 0x1EA6 JUMPI PUSH2 0x1EA5 PUSH2 0x1E10 JUMP JUMPDEST JUMPDEST PUSH1 0x20 DUP3 MUL SWAP1 POP PUSH1 0x20 DUP2 ADD SWAP1 POP SWAP2 SWAP1 POP JUMP JUMPDEST PUSH1 0x0 DUP1 REVERT JUMPDEST PUSH1 0x0 PUSH2 0x1EC7 DUP3 PUSH2 0x1BA5 JUMP JUMPDEST SWAP1 POP SWAP2 SWAP1 POP JUMP JUMPDEST PUSH2 0x1ED7 DUP2 PUSH2 0x1EBC JUMP JUMPDEST DUP2 EQ PUSH2 0x1EE2 JUMPI PUSH1 0x0 DUP1 REVERT JUMPDEST POP JUMP JUMPDEST PUSH1 0x0 DUP2 CALLDATALOAD SWAP1 POP PUSH2 0x1EF4 DUP2 PUSH2 0x1ECE JUMP JUMPDEST SWAP3 SWAP2 POP POP JUMP JUMPDEST PUSH1 0x0 PUSH2 0x1F0D PUSH2 0x1F08 DUP5 PUSH2 0x1E8B JUMP JUMPDEST PUSH2 0x1E70 JUMP JUMPDEST SWAP1 POP DUP1 DUP4 DUP3 MSTORE PUSH1 0x20 DUP3 ADD SWAP1 POP PUSH1 0x20 DUP5 MUL DUP4 ADD DUP6 DUP2 GT ISZERO PUSH2 0x1F30 JUMPI PUSH2 0x1F2F PUSH2 0x1EB7 JUMP JUMPDEST JUMPDEST DUP4 JUMPDEST DUP2 DUP2 LT ISZERO PUSH2 0x1F59 JUMPI DUP1 PUSH2 0x1F45 DUP9 DUP3 PUSH2 0x1EE5 JUMP JUMPDEST DUP5 MSTORE PUSH1 0x20 DUP5 ADD SWAP4 POP POP PUSH1 0x20 DUP2 ADD SWAP1 POP PUSH2 0x1F32 JUMP JUMPDEST POP POP POP SWAP4 SWAP3 POP POP POP JUMP JUMPDEST PUSH1 0x0 DUP3 PUSH1 0x1F DUP4 ADD SLT PUSH2 0x1F78 JUMPI PUSH2 0x1F77 PUSH2 0x1DFA JUMP JUMPDEST JUMPDEST DUP2 CALLDATALOAD PUSH2 0x1F88 DUP5 DUP3 PUSH1 0x20 DUP7 ADD PUSH2 0x1EFA JUMP JUMPDEST SWAP2 POP POP SWAP3 SWAP2 POP POP JUMP JUMPDEST PUSH1 0x0 PUSH8 0xFFFFFFFFFFFFFFFF DUP3 GT ISZERO PUSH2 0x1FAC JUMPI PUSH2 0x1FAB PUSH2 0x1E10 JUMP JUMPDEST JUMPDEST PUSH1 0x20 DUP3 MUL SWAP1 POP PUSH1 0x20 DUP2 ADD SWAP1 POP SWAP2 SWAP1 POP JUMP JUMPDEST PUSH1 0x0 PUSH2 0x1FD0 PUSH2 0x1FCB DUP5 PUSH2 0x1F91 JUMP JUMPDEST PUSH2 0x1E70 JUMP JUMPDEST SWAP1 POP DUP1 DUP4 DUP3 MSTORE PUSH1 0x20 DUP3 ADD SWAP1 POP PUSH1 0x20 DUP5 MUL DUP4 ADD DUP6 DUP2 GT ISZERO PUSH2 0x1FF3 JUMPI PUSH2 0x1FF2 PUSH2 0x1EB7 JUMP JUMPDEST JUMPDEST DUP4 JUMPDEST DUP2 DUP2 LT ISZERO PUSH2 0x201C JUMPI DUP1 PUSH2 0x2008 DUP9 DUP3 PUSH2 0x1D21 JUMP JUMPDEST DUP5 MSTORE PUSH1 0x20 DUP5 ADD SWAP4 POP POP PUSH1 0x20 DUP2 ADD SWAP1 POP PUSH2 0x1FF5 JUMP JUMPDEST POP POP POP SWAP4 SWAP3 POP POP POP JUMP JUMPDEST PUSH1 0x0 DUP3 PUSH1 0x1F DUP4 ADD SLT PUSH2 0x203B JUMPI PUSH2 0x203A PUSH2 0x1DFA JUMP JUMPDEST JUMPDEST DUP2 CALLDATALOAD PUSH2 0x204B DUP5 DUP3 PUSH1 0x20 DUP7 ADD PUSH2 0x1FBD JUMP JUMPDEST SWAP2 POP POP SWAP3 SWAP2 POP POP JUMP JUMPDEST PUSH1 0x0 DUP1 REVERT JUMPDEST PUSH1 0x0 PUSH8 0xFFFFFFFFFFFFFFFF DUP3 GT ISZERO PUSH2 0x2074 JUMPI PUSH2 0x2073 PUSH2 0x1E10 JUMP JUMPDEST JUMPDEST PUSH2 0x207D DUP3 PUSH2 0x1DFF JUMP JUMPDEST SWAP1 POP PUSH1 0x20 DUP2 ADD SWAP1 POP SWAP2 SWAP1 POP JUMP JUMPDEST DUP3 DUP2 DUP4 CALLDATACOPY PUSH1 0x0 DUP4 DUP4 ADD MSTORE POP POP POP JUMP JUMPDEST PUSH1 0x0 PUSH2 0x20AC PUSH2 0x20A7 DUP5 PUSH2 0x2059 JUMP JUMPDEST PUSH2 0x1E70 JUMP JUMPDEST SWAP1 POP DUP3 DUP2 MSTORE PUSH1 0x20 DUP2 ADD DUP5 DUP5 DUP5 ADD GT ISZERO PUSH2 0x20C8 JUMPI PUSH2 0x20C7 PUSH2 0x2054 JUMP JUMPDEST JUMPDEST PUSH2 0x20D3 DUP5 DUP3 DUP6 PUSH2 0x208A JUMP JUMPDEST POP SWAP4 SWAP3 POP POP POP JUMP JUMPDEST PUSH1 0x0 DUP3 PUSH1 0x1F DUP4 ADD SLT PUSH2 0x20F0 JUMPI PUSH2 0x20EF PUSH2 0x1DFA JUMP JUMPDEST JUMPDEST DUP2 CALLDATALOAD PUSH2 0x2100 DUP5 DUP3 PUSH1 0x20 DUP7 ADD PUSH2 0x2099 JUMP JUMPDEST SWAP2 POP POP SWAP3 SWAP2 POP POP JUMP JUMPDEST PUSH1 0x0 DUP1 PUSH1 0x0 DUP1 PUSH1 0x80 DUP6 DUP8 SUB SLT ISZERO PUSH2 0x2123 JUMPI PUSH2 0x2122 PUSH2 0x1C2D JUMP JUMPDEST JUMPDEST PUSH1 0x0 DUP6 ADD CALLDATALOAD PUSH8 0xFFFFFFFFFFFFFFFF DUP2 GT ISZERO PUSH2 0x2141 JUMPI PUSH2 0x2140 PUSH2 0x1C32 JUMP JUMPDEST JUMPDEST PUSH2 0x214D DUP8 DUP3 DUP9 ADD PUSH2 0x1F63 JUMP JUMPDEST SWAP5 POP POP PUSH1 0x20 DUP6 ADD CALLDATALOAD PUSH8 0xFFFFFFFFFFFFFFFF DUP2 GT ISZERO PUSH2 0x216E JUMPI PUSH2 0x216D PUSH2 0x1C32 JUMP JUMPDEST JUMPDEST PUSH2 0x217A DUP8 DUP3 DUP9 ADD PUSH2 0x2026 JUMP JUMPDEST SWAP4 POP POP PUSH1 0x40 DUP6 ADD CALLDATALOAD PUSH8 0xFFFFFFFFFFFFFFFF DUP2 GT ISZERO PUSH2 0x219B JUMPI PUSH2 0x219A PUSH2 0x1C32 JUMP JUMPDEST JUMPDEST PUSH2 0x21A7 DUP8 DUP3 DUP9 ADD PUSH2 0x2026 JUMP JUMPDEST SWAP3 POP POP PUSH1 0x60 DUP6 ADD CALLDATALOAD PUSH8 0xFFFFFFFFFFFFFFFF DUP2 GT ISZERO PUSH2 0x21C8 JUMPI PUSH2 0x21C7 PUSH2 0x1C32 JUMP JUMPDEST JUMPDEST PUSH2 0x21D4 DUP8 DUP3 DUP9 ADD PUSH2 0x20DB JUMP JUMPDEST SWAP2 POP POP SWAP3 SWAP6 SWAP2 SWAP5 POP SWAP3 POP JUMP JUMPDEST PUSH1 0x0 DUP3 DUP3 MSTORE PUSH1 0x20 DUP3 ADD SWAP1 POP SWAP3 SWAP2 POP POP JUMP JUMPDEST PUSH32 0x4F6E6C792074686520636F6E7472616374206F776E65722063616E2063616C6C PUSH1 0x0 DUP3 ADD MSTORE PUSH32 0x20746869732066756E6374696F6E000000000000000000000000000000000000 PUSH1 0x20 DUP3 ADD MSTORE POP JUMP JUMPDEST PUSH1 0x0 PUSH2 0x224D PUSH1 0x2E DUP4 PUSH2 0x21E0 JUMP JUMPDEST SWAP2 POP PUSH2 0x2258 DUP3 PUSH2 0x21F1 JUMP JUMPDEST PUSH1 0x40 DUP3 ADD SWAP1 POP SWAP2 SWAP1 POP JUMP JUMPDEST PUSH1 0x0 PUSH1 0x20 DUP3 ADD SWAP1 POP DUP2 DUP2 SUB PUSH1 0x0 DUP4 ADD MSTORE PUSH2 0x227C DUP2 PUSH2 0x2240 JUMP JUMPDEST SWAP1 POP SWAP2 SWAP1 POP JUMP JUMPDEST PUSH1 0x0 DUP2 MLOAD SWAP1 POP PUSH2 0x2292 DUP2 PUSH2 0x1D0A JUMP JUMPDEST SWAP3 SWAP2 POP POP JUMP JUMPDEST PUSH1 0x0 PUSH1 0x20 DUP3 DUP5 SUB SLT ISZERO PUSH2 0x22AE JUMPI PUSH2 0x22AD PUSH2 0x1C2D JUMP JUMPDEST JUMPDEST PUSH1 0x0 PUSH2 0x22BC DUP5 DUP3 DUP6 ADD PUSH2 0x2283 JUMP JUMPDEST SWAP2 POP POP SWAP3 SWAP2 POP POP JUMP JUMPDEST PUSH32 0x4E6F205553445420466C61736820617661696C61626C6520746F207769746864 PUSH1 0x0 DUP3 ADD MSTORE PUSH32 0x7261770000000000000000000000000000000000000000000000000000000000 PUSH1 0x20 DUP3 ADD MSTORE POP JUMP JUMPDEST PUSH1 0x0 PUSH2 0x2321 PUSH1 0x23 DUP4 PUSH2 0x21E0 JUMP JUMPDEST SWAP2 POP PUSH2 0x232C DUP3 PUSH2 0x22C5 JUMP JUMPDEST PUSH1 0x40 DUP3 ADD SWAP1 POP SWAP2 SWAP1 POP JUMP JUMPDEST PUSH1 0x0 PUSH1 0x20 DUP3 ADD SWAP1 POP DUP2 DUP2 SUB PUSH1 0x0 DUP4 ADD MSTORE PUSH2 0x2350 DUP2 PUSH2 0x2314 JUMP JUMPDEST SWAP1 POP SWAP2 SWAP1 POP JUMP JUMPDEST PUSH1 0x0 DUP2 ISZERO ISZERO SWAP1 POP SWAP2 SWAP1 POP JUMP JUMPDEST PUSH2 0x236C DUP2 PUSH2 0x2357 JUMP JUMPDEST DUP2 EQ PUSH2 0x2377 JUMPI PUSH1 0x0 DUP1 REVERT JUMPDEST POP JUMP JUMPDEST PUSH1 0x0 DUP2 MLOAD SWAP1 POP PUSH2 0x2389 DUP2 PUSH2 0x2363 JUMP JUMPDEST SWAP3 SWAP2 POP POP JUMP JUMPDEST PUSH1 0x0 PUSH1 0x20 DUP3 DUP5 SUB SLT ISZERO PUSH2 0x23A5 JUMPI PUSH2 0x23A4 PUSH2 0x1C2D JUMP JUMPDEST JUMPDEST PUSH1 0x0 PUSH2 0x23B3 DUP5 DUP3 DUP6 ADD PUSH2 0x237A JUMP JUMPDEST SWAP2 POP POP SWAP3 SWAP2 POP POP JUMP JUMPDEST PUSH32 0x5472616E73666572206661696C65640000000000000000000000000000000000 PUSH1 0x0 DUP3 ADD MSTORE POP JUMP JUMPDEST PUSH1 0x0 PUSH2 0x23F2 PUSH1 0xF DUP4 PUSH2 0x21E0 JUMP JUMPDEST SWAP2 POP PUSH2 0x23FD DUP3 PUSH2 0x23BC JUMP JUMPDEST PUSH1 0x20 DUP3 ADD SWAP1 POP SWAP2 SWAP1 POP JUMP JUMPDEST PUSH1 0x0 PUSH1 0x20 DUP3 ADD SWAP1 POP DUP2 DUP2 SUB PUSH1 0x0 DUP4 ADD MSTORE PUSH2 0x2421 DUP2 PUSH2 0x23E5 JUMP JUMPDEST SWAP1 POP SWAP2 SWAP1 POP JUMP JUMPDEST PUSH1 0x0 PUSH1 0x40 DUP3 ADD SWAP1 POP PUSH2 0x243D PUSH1 0x0 DUP4 ADD DUP6 PUSH2 0x1BD0 JUMP JUMPDEST PUSH2 0x244A PUSH1 0x20 DUP4 ADD DUP5 PUSH2 0x1BB7 JUMP JUMPDEST SWAP4 SWAP3 POP POP POP JUMP JUMPDEST PUSH1 0x0 PUSH1 0x60 DUP3 ADD SWAP1 POP PUSH2 0x2466 PUSH1 0x0 DUP4 ADD DUP7 PUSH2 0x1BB7 JUMP JUMPDEST PUSH2 0x2473 PUSH1 0x20 DUP4 ADD DUP6 PUSH2 0x1BB7 JUMP JUMPDEST PUSH2 0x2480 PUSH1 0x40 DUP4 ADD DUP5 PUSH2 0x1BD0 JUMP JUMPDEST SWAP5 SWAP4 POP POP POP POP JUMP JUMPDEST PUSH32 0x4E487B7100000000000000000000000000000000000000000000000000000000 PUSH1 0x0 MSTORE PUSH1 0x32 PUSH1 0x4 MSTORE PUSH1 0x24 PUSH1 0x0 REVERT JUMPDEST PUSH32 0x4E487B7100000000000000000000000000000000000000000000000000000000 PUSH1 0x0 MSTORE PUSH1 0x11 PUSH1 0x4 MSTORE PUSH1 0x24 PUSH1 0x0 REVERT JUMPDEST PUSH1 0x0 PUSH2 0x24F1 DUP3 PUSH2 0x1BC6 JUMP JUMPDEST SWAP2 POP PUSH2 0x24FC DUP4 PUSH2 0x1BC6 JUMP JUMPDEST SWAP3 POP DUP3 DUP3 ADD SWAP1 POP DUP1 DUP3 GT ISZERO PUSH2 0x2514 JUMPI PUSH2 0x2513 PUSH2 0x24B7 JUMP JUMPDEST JUMPDEST SWAP3 SWAP2 POP POP JUMP JUMPDEST PUSH32 0x4D696E74696E6720776F756C6420657863656564206D617820737570706C7900 PUSH1 0x0 DUP3 ADD MSTORE POP JUMP JUMPDEST PUSH1 0x0 PUSH2 0x2550 PUSH1 0x1F DUP4 PUSH2 0x21E0 JUMP JUMPDEST SWAP2 POP PUSH2 0x255B DUP3 PUSH2 0x251A JUMP JUMPDEST PUSH1 0x20 DUP3 ADD SWAP1 POP SWAP2 SWAP1 POP JUMP JUMPDEST PUSH1 0x0 PUSH1 0x20 DUP3 ADD SWAP1 POP DUP2 DUP2 SUB PUSH1 0x0 DUP4 ADD MSTORE PUSH2 0x257F DUP2 PUSH2 0x2543 JUMP JUMPDEST SWAP1 POP SWAP2 SWAP1 POP JUMP JUMPDEST PUSH1 0x0 PUSH3 0xFFFFFF DUP3 AND SWAP1 POP SWAP2 SWAP1 POP JUMP JUMPDEST PUSH2 0x259E DUP2 PUSH2 0x2586 JUMP JUMPDEST DUP3 MSTORE POP POP JUMP JUMPDEST PUSH1 0x0 PUSH1 0x20 DUP3 ADD SWAP1 POP PUSH2 0x25B9 PUSH1 0x0 DUP4 ADD DUP5 PUSH2 0x2595 JUMP JUMPDEST SWAP3 SWAP2 POP POP JUMP INVALID LOG2 PUSH5 0x6970667358 0x22 SLT KECCAK256 0xEB 0xDF 0xEF 0xA6 0xC8 CALLER CODECOPY CREATE2 0xF9 CALLVALUE 0xE8 0x2F TLOAD DUP10 PUSH12 0x7BF336F54B5CDEAEE15CC35A CALLDATACOPY 0xAD BLOCKHASH 0xAD SDIV PUSH5 0x736F6C6343 STOP ADDMOD SHL STOP CALLER "
				},
				"gasEstimates": {
					"creation": {
						"codeDepositCost": "1943400",
						"executionCost": "infinite",
						"totalCost": "infinite"
					},
					"external": {
						"depositCollateral(uint256)": "infinite",
						"dexAddress()": "2625",
						"getTokenBalance(address,address)": "infinite",
						"meswapContractAddress()": "2558",
						"numOperations()": "2562",
						"poolFee()": "2453",
						"receiveFlashLoan(address[],uint256[],uint256[],bytes)": "infinite",
						"repayFlashLoan(uint256)": "infinite",
						"requestFlashLoan(uint256)": "infinite",
						"setMeSwap(address)": "infinite",
						"setNumOperations(uint256)": "infinite",
						"setPoolFee(uint256)": "infinite",
						"setSwapAmount(uint256)": "infinite",
						"setTokenIn(address)": "infinite",
						"setTokenOut(address)": "infinite",
						"swapAmount()": "2519",
						"tokenIn()": "2578",
						"tokenOut()": "2580",
						"usdtFlashToken()": "infinite",
						"usdtToken()": "infinite",
						"withdrawCollateral(uint256)": "infinite",
						"withdrawGains()": "infinite"
					},
					"internal": {
						"executeSwap(address,address,uint256)": "infinite",
						"mintIfNeeded(uint256)": "infinite",
						"swapToUSDT(uint256)": "infinite"
					}
				},
				"methodIdentifiers": {
					"depositCollateral(uint256)": "bad4a01f",
					"dexAddress()": "745fba84",
					"getTokenBalance(address,address)": "c489744b",
					"meswapContractAddress()": "c6b80709",
					"numOperations()": "751521aa",
					"poolFee()": "089fe6aa",
					"receiveFlashLoan(address[],uint256[],uint256[],bytes)": "f04f2707",
					"repayFlashLoan(uint256)": "74538824",
					"requestFlashLoan(uint256)": "a87eba3c",
					"setMeSwap(address)": "d94b1993",
					"setNumOperations(uint256)": "69483bf8",
					"setPoolFee(uint256)": "9501dc87",
					"setSwapAmount(uint256)": "e632313c",
					"setTokenIn(address)": "0f0f3c41",
					"setTokenOut(address)": "c158910d",
					"swapAmount()": "2e8fa821",
					"tokenIn()": "6daf390b",
					"tokenOut()": "d0202d3b",
					"usdtFlashToken()": "218ec83a",
					"usdtToken()": "a98ad46c",
					"withdrawCollateral(uint256)": "6112fe2e",
					"withdrawGains()": "483f0219"
				}
			},
			"storageLayout": {
				"storage": [
					{
						"astId": 995,
						"contract": "flashLoanGeneric/contracts/FlashLoan/flashLoanSwap.sol:GenericFlashLoan",
						"label": "tokenIn",
						"offset": 0,
						"slot": "0",
						"type": "t_address"
					},
					{
						"astId": 997,
						"contract": "flashLoanGeneric/contracts/FlashLoan/flashLoanSwap.sol:GenericFlashLoan",
						"label": "tokenOut",
						"offset": 0,
						"slot": "1",
						"type": "t_address"
					},
					{
						"astId": 999,
						"contract": "flashLoanGeneric/contracts/FlashLoan/flashLoanSwap.sol:GenericFlashLoan",
						"label": "poolFee",
						"offset": 0,
						"slot": "2",
						"type": "t_uint256"
					},
					{
						"astId": 1001,
						"contract": "flashLoanGeneric/contracts/FlashLoan/flashLoanSwap.sol:GenericFlashLoan",
						"label": "swapAmount",
						"offset": 0,
						"slot": "3",
						"type": "t_uint256"
					},
					{
						"astId": 1003,
						"contract": "flashLoanGeneric/contracts/FlashLoan/flashLoanSwap.sol:GenericFlashLoan",
						"label": "numOperations",
						"offset": 0,
						"slot": "4",
						"type": "t_uint256"
					},
					{
						"astId": 1007,
						"contract": "flashLoanGeneric/contracts/FlashLoan/flashLoanSwap.sol:GenericFlashLoan",
						"label": "meswapContractAddress",
						"offset": 0,
						"slot": "5",
						"type": "t_address"
					},
					{
						"astId": 1009,
						"contract": "flashLoanGeneric/contracts/FlashLoan/flashLoanSwap.sol:GenericFlashLoan",
						"label": "dexAddress",
						"offset": 0,
						"slot": "6",
						"type": "t_address"
					}
				],
				"types": {
					"t_address": {
						"encoding": "inplace",
						"label": "address",
						"numberOfBytes": "20"
					},
					"t_uint256": {
						"encoding": "inplace",
						"label": "uint256",
						"numberOfBytes": "32"
					}
				}
			},
			"userdoc": {
				"kind": "user",
				"methods": {},
				"version": 1
			}
		}
	}
}