{
	"data": {
		"bytecode": {
			"linkReferences": {},
			"object": "60a060405234801561000f575f5ffd5b506040518060400160405280600a81526020017f5553445420466c61736800000000000000000000000000000000000000000000815250600490816100549190610323565b506040518060400160405280600481526020017f5553445400000000000000000000000000000000000000000000000000000000815250600590816100999190610323565b506b01f04ef12cb04cf1580000006003819055503373ffffffffffffffffffffffffffffffffffffffff1660808173ffffffffffffffffffffffffffffffffffffffff16815250506103f2565b5f81519050919050565b7f4e487b71000000000000000000000000000000000000000000000000000000005f52604160045260245ffd5b7f4e487b71000000000000000000000000000000000000000000000000000000005f52602260045260245ffd5b5f600282049050600182168061016157607f821691505b6020821081036101745761017361011d565b5b50919050565b5f819050815f5260205f209050919050565b5f6020601f8301049050919050565b5f82821b905092915050565b5f600883026101d67fffffffffffffffffffffffffffffffffffffffffffffffffffffffffffffffff8261019b565b6101e0868361019b565b95508019841693508086168417925050509392505050565b5f819050919050565b5f819050919050565b5f61022461021f61021a846101f8565b610201565b6101f8565b9050919050565b5f819050919050565b61023d8361020a565b6102516102498261022b565b8484546101a7565b825550505050565b5f5f905090565b610268610259565b610273818484610234565b505050565b5b818110156102965761028b5f82610260565b600181019050610279565b5050565b601f8211156102db576102ac8161017a565b6102b58461018c565b810160208510156102c4578190505b6102d86102d08561018c565b830182610278565b50505b505050565b5f82821c905092915050565b5f6102fb5f19846008026102e0565b1980831691505092915050565b5f61031383836102ec565b9150826002028217905092915050565b61032c826100e6565b67ffffffffffffffff811115610345576103446100f0565b5b61034f825461014a565b61035a82828561029a565b5f60209050601f83116001811461038b575f8415610379578287015190505b6103838582610308565b8655506103ea565b601f1984166103998661017a565b5f5b828110156103c05784890151825560018201915060208501945060208101905061039b565b868310156103dd57848901516103d9601f8916826102ec565b8355505b6001600288020188555050505b505050505050565b60805161189b61040a5f395f6103f1015261189b5ff3fe608060405234801561000f575f5ffd5b50600436106100e8575f3560e01c806370a082311161008a578063a457c2d711610064578063a457c2d714610270578063a9059cbb146102a0578063d5abeb01146102d0578063dd62ed3e146102ee576100e8565b806370a08231146101f257806395d89b4114610222578063a0712d6814610240576100e8565b806323b872dd116100c657806323b872dd146101585780632a52940d14610188578063313ce567146101a457806339509351146101c2576100e8565b806306fdde03146100ec578063095ea7b31461010a57806318160ddd1461013a575b5f5ffd5b6100f461031e565b6040516101019190610fbd565b60405180910390f35b610124600480360381019061011f919061106e565b6103ae565b60405161013191906110c6565b60405180910390f35b6101426103c4565b60405161014f91906110ee565b60405180910390f35b610172600480360381019061016d9190611107565b6103cd565b60405161017f91906110c6565b60405180910390f35b6101a2600480360381019061019d9190611157565b6103ef565b005b6101ac6104c0565b6040516101b9919061119d565b60405180910390f35b6101dc60048036038101906101d7919061106e565b6104c8565b6040516101e991906110c6565b60405180910390f35b61020c60048036038101906102079190611157565b6104f2565b60405161021991906110ee565b60405180910390f35b61022a610537565b6040516102379190610fbd565b60405180910390f35b61025a600480360381019061025591906111b6565b6105c7565b60405161026791906110c6565b60405180910390f35b61028a6004803603810190610285919061106e565b61068b565b60405161029791906110c6565b60405180910390f35b6102ba60048036038101906102b5919061106e565b6106f4565b6040516102c791906110c6565b60405180910390f35b6102d861070a565b6040516102e591906110ee565b60405180910390f35b610308600480360381019061030391906111e1565b610713565b60405161031591906110ee565b60405180910390f35b60606004805461032d9061124c565b80601f01602080910402602001604051908101604052809291908181526020018280546103599061124c565b80156103a45780601f1061037b576101008083540402835291602001916103a4565b820191905f5260205f20905b81548152906001019060200180831161038757829003601f168201915b5050505050905090565b5f6103ba338484610795565b6001905092915050565b5f600254905090565b5f6103d98433846107a7565b6103e4848484610803565b600190509392505050565b7f000000000000000000000000000000000000000000000000000000000000000073ffffffffffffffffffffffffffffffffffffffff163373ffffffffffffffffffffffffffffffffffffffff161461047d576040517f08c379a0000000000000000000000000000000000000000000000000000000008152600401610474906112ec565b60405180910390fd5b8060065f6101000a81548173ffffffffffffffffffffffffffffffffffffffff021916908373ffffffffffffffffffffffffffffffffffffffff16021790555050565b5f6012905090565b5f6104e83384846104d93388610713565b6104e39190611337565b610795565b6001905092915050565b5f5f5f8373ffffffffffffffffffffffffffffffffffffffff1673ffffffffffffffffffffffffffffffffffffffff1681526020019081526020015f20549050919050565b6060600580546105469061124c565b80601f01602080910402602001604051908101604052809291908181526020018280546105729061124c565b80156105bd5780601f10610594576101008083540402835291602001916105bd565b820191905f5260205f20905b8154815290600101906020018083116105a057829003601f168201915b5050505050905090565b5f60065f9054906101000a900473ffffffffffffffffffffffffffffffffffffffff1673ffffffffffffffffffffffffffffffffffffffff163373ffffffffffffffffffffffffffffffffffffffff1614610657576040517f08c379a000000000000000000000000000000000000000000000000000000000815260040161064e906113da565b60405180910390fd5b61068260065f9054906101000a900473ffffffffffffffffffffffffffffffffffffffff168361088e565b60019050919050565b5f5f6106973385610713565b9050828110156106dc576040517f08c379a00000000000000000000000000000000000000000000000000000000081526004016106d390611442565b60405180910390fd5b6106e93385858403610795565b600191505092915050565b5f610700338484610803565b6001905092915050565b5f600354905090565b5f60015f8473ffffffffffffffffffffffffffffffffffffffff1673ffffffffffffffffffffffffffffffffffffffff1681526020019081526020015f205f8373ffffffffffffffffffffffffffffffffffffffff1673ffffffffffffffffffffffffffffffffffffffff1681526020019081526020015f2054905092915050565b6107a2838383600161092d565b505050565b5f6107b28484610713565b90507fffffffffffffffffffffffffffffffffffffffffffffffffffffffffffffffff81146107fd57818110156107ee576107ed6006610a98565b5b6107fc84848484035f61092d565b5b50505050565b5f73ffffffffffffffffffffffffffffffffffffffff168373ffffffffffffffffffffffffffffffffffffffff16036108405761083f5f610a98565b5b5f73ffffffffffffffffffffffffffffffffffffffff168273ffffffffffffffffffffffffffffffffffffffff160361087e5761087d6001610a98565b5b610889838383610d6a565b505050565b5f73ffffffffffffffffffffffffffffffffffffffff168273ffffffffffffffffffffffffffffffffffffffff16036108cc576108cb6001610a98565b5b600354816002546108dd9190611337565b111561091e576040517f08c379a0000000000000000000000000000000000000000000000000000000008152600401610915906114aa565b60405180910390fd5b6109295f8383610d6a565b5050565b5f73ffffffffffffffffffffffffffffffffffffffff168473ffffffffffffffffffffffffffffffffffffffff160361096b5761096a6004610a98565b5b5f73ffffffffffffffffffffffffffffffffffffffff168373ffffffffffffffffffffffffffffffffffffffff16036109a9576109a86005610a98565b5b8160015f8673ffffffffffffffffffffffffffffffffffffffff1673ffffffffffffffffffffffffffffffffffffffff1681526020019081526020015f205f8573ffffffffffffffffffffffffffffffffffffffff1673ffffffffffffffffffffffffffffffffffffffff1681526020019081526020015f20819055508015610a92578273ffffffffffffffffffffffffffffffffffffffff168473ffffffffffffffffffffffffffffffffffffffff167f8c5be1e5ebec7d5bd14f71427d1e84f3dd0314c0f7b2291e5b200ac8c7c3b92584604051610a8991906110ee565b60405180910390a35b50505050565b5f6006811115610aab57610aaa6114c8565b5b816006811115610abe57610abd6114c8565b5b03610afe576040517f08c379a0000000000000000000000000000000000000000000000000000000008152600401610af590611565565b60405180910390fd5b60016006811115610b1257610b116114c8565b5b816006811115610b2557610b246114c8565b5b03610b65576040517f08c379a0000000000000000000000000000000000000000000000000000000008152600401610b5c906115f3565b60405180910390fd5b60026006811115610b7957610b786114c8565b5b816006811115610b8c57610b8b6114c8565b5b03610bcc576040517f08c379a0000000000000000000000000000000000000000000000000000000008152600401610bc39061165b565b60405180910390fd5b60036006811115610be057610bdf6114c8565b5b816006811115610bf357610bf26114c8565b5b03610c33576040517f08c379a0000000000000000000000000000000000000000000000000000000008152600401610c2a906116c3565b60405180910390fd5b60046006811115610c4757610c466114c8565b5b816006811115610c5a57610c596114c8565b5b03610c9a576040517f08c379a0000000000000000000000000000000000000000000000000000000008152600401610c9190611751565b60405180910390fd5b60056006811115610cae57610cad6114c8565b5b816006811115610cc157610cc06114c8565b5b03610d01576040517f08c379a0000000000000000000000000000000000000000000000000000000008152600401610cf8906117df565b60405180910390fd5b600680811115610d1457610d136114c8565b5b816006811115610d2757610d266114c8565b5b03610d67576040517f08c379a0000000000000000000000000000000000000000000000000000000008152600401610d5e90611847565b60405180910390fd5b50565b5f73ffffffffffffffffffffffffffffffffffffffff168373ffffffffffffffffffffffffffffffffffffffff1603610dba578060025f828254610dae9190611337565b92505081905550610e52565b5f5f5f8573ffffffffffffffffffffffffffffffffffffffff1673ffffffffffffffffffffffffffffffffffffffff1681526020019081526020015f2054905081811015610e0d57610e0c6002610a98565b5b8181035f5f8673ffffffffffffffffffffffffffffffffffffffff1673ffffffffffffffffffffffffffffffffffffffff1681526020019081526020015f2081905550505b5f73ffffffffffffffffffffffffffffffffffffffff168273ffffffffffffffffffffffffffffffffffffffff1603610e99578060025f8282540392505081905550610ee3565b805f5f8473ffffffffffffffffffffffffffffffffffffffff1673ffffffffffffffffffffffffffffffffffffffff1681526020019081526020015f205f82825401925050819055505b8173ffffffffffffffffffffffffffffffffffffffff168373ffffffffffffffffffffffffffffffffffffffff167fddf252ad1be2c89b69c2b068fc378daa952ba7f163c4a11628f55a4df523b3ef83604051610f4091906110ee565b60405180910390a3505050565b5f81519050919050565b5f82825260208201905092915050565b8281835e5f83830152505050565b5f601f19601f8301169050919050565b5f610f8f82610f4d565b610f998185610f57565b9350610fa9818560208601610f67565b610fb281610f75565b840191505092915050565b5f6020820190508181035f830152610fd58184610f85565b905092915050565b5f5ffd5b5f73ffffffffffffffffffffffffffffffffffffffff82169050919050565b5f61100a82610fe1565b9050919050565b61101a81611000565b8114611024575f5ffd5b50565b5f8135905061103581611011565b92915050565b5f819050919050565b61104d8161103b565b8114611057575f5ffd5b50565b5f8135905061106881611044565b92915050565b5f5f6040838503121561108457611083610fdd565b5b5f61109185828601611027565b92505060206110a28582860161105a565b9150509250929050565b5f8115159050919050565b6110c0816110ac565b82525050565b5f6020820190506110d95f8301846110b7565b92915050565b6110e88161103b565b82525050565b5f6020820190506111015f8301846110df565b92915050565b5f5f5f6060848603121561111e5761111d610fdd565b5b5f61112b86828701611027565b935050602061113c86828701611027565b925050604061114d8682870161105a565b9150509250925092565b5f6020828403121561116c5761116b610fdd565b5b5f61117984828501611027565b91505092915050565b5f60ff82169050919050565b61119781611182565b82525050565b5f6020820190506111b05f83018461118e565b92915050565b5f602082840312156111cb576111ca610fdd565b5b5f6111d88482850161105a565b91505092915050565b5f5f604083850312156111f7576111f6610fdd565b5b5f61120485828601611027565b925050602061121585828601611027565b9150509250929050565b7f4e487b71000000000000000000000000000000000000000000000000000000005f52602260045260245ffd5b5f600282049050600182168061126357607f821691505b6020821081036112765761127561121f565b5b50919050565b7f4f6e6c792074686520636f6e7472616374206f776e65722063616e2063616c6c5f8201527f20746869732066756e6374696f6e000000000000000000000000000000000000602082015250565b5f6112d6602e83610f57565b91506112e18261127c565b604082019050919050565b5f6020820190508181035f830152611303816112ca565b9050919050565b7f4e487b71000000000000000000000000000000000000000000000000000000005f52601160045260245ffd5b5f6113418261103b565b915061134c8361103b565b92508282019050808211156113645761136361130a565b5b92915050565b7f4f6e6c792074686520666c617368206c6f616e20636f6e74726163742063616e5f8201527f2063616c6c20746869732066756e6374696f6e00000000000000000000000000602082015250565b5f6113c4603383610f57565b91506113cf8261136a565b604082019050919050565b5f6020820190508181035f8301526113f1816113b8565b9050919050565b7f45524332303a20616c6c6f77616e63652062656c6f77207a65726f00000000005f82015250565b5f61142c601b83610f57565b9150611437826113f8565b602082019050919050565b5f6020820190508181035f83015261145981611420565b9050919050565b7f45524332303a204d6178696d756d20737570706c7920726561636865640000005f82015250565b5f611494601d83610f57565b915061149f82611460565b602082019050919050565b5f6020820190508181035f8301526114c181611488565b9050919050565b7f4e487b71000000000000000000000000000000000000000000000000000000005f52602160045260245ffd5b7f54524332303a207472616e736665722066726f6d20746865207a65726f2061645f8201527f6472657373000000000000000000000000000000000000000000000000000000602082015250565b5f61154f602583610f57565b915061155a826114f5565b604082019050919050565b5f6020820190508181035f83015261157c81611543565b9050919050565b7f54524332303a207472616e7366657220746f20746865207a65726f20616464725f8201527f6573730000000000000000000000000000000000000000000000000000000000602082015250565b5f6115dd602383610f57565b91506115e882611583565b604082019050919050565b5f6020820190508181035f83015261160a816115d1565b9050919050565b7f54524332303a20696e73756666696369656e742062616c616e636500000000005f82015250565b5f611645601b83610f57565b915061165082611611565b602082019050919050565b5f6020820190508181035f83015261167281611639565b9050919050565b7f54524332303a206d6178696d756d20737570706c7920726561636865640000005f82015250565b5f6116ad601d83610f57565b91506116b882611679565b602082019050919050565b5f6020820190508181035f8301526116da816116a1565b9050919050565b7f54524332303a20617070726f76652066726f6d20746865207a65726f206164645f8201527f7265737300000000000000000000000000000000000000000000000000000000602082015250565b5f61173b602483610f57565b9150611746826116e1565b604082019050919050565b5f6020820190508181035f8301526117688161172f565b9050919050565b7f54524332303a20617070726f766520746f20746865207a65726f2061646472655f8201527f7373000000000000000000000000000000000000000000000000000000000000602082015250565b5f6117c9602283610f57565b91506117d48261176f565b604082019050919050565b5f6020820190508181035f8301526117f6816117bd565b9050919050565b7f54524332303a20696e73756666696369656e7420616c6c6f77616e63650000005f82015250565b5f611831601d83610f57565b915061183c826117fd565b602082019050919050565b5f6020820190508181035f83015261185e81611825565b905091905056fea26469706673582212208095f1292663fd3a266c870224c8bf0c08adf0d709da229ec83252c9efe9a2da64736f6c634300081b0033",
			"opcodes": "PUSH1 0xA0 PUSH1 0x40 MSTORE CALLVALUE DUP1 ISZERO PUSH2 0xF JUMPI PUSH0 PUSH0 REVERT JUMPDEST POP PUSH1 0x40 MLOAD DUP1 PUSH1 0x40 ADD PUSH1 0x40 MSTORE DUP1 PUSH1 0xA DUP2 MSTORE PUSH1 0x20 ADD PUSH32 0x5553445420466C61736800000000000000000000000000000000000000000000 DUP2 MSTORE POP PUSH1 0x4 SWAP1 DUP2 PUSH2 0x54 SWAP2 SWAP1 PUSH2 0x323 JUMP JUMPDEST POP PUSH1 0x40 MLOAD DUP1 PUSH1 0x40 ADD PUSH1 0x40 MSTORE DUP1 PUSH1 0x4 DUP2 MSTORE PUSH1 0x20 ADD PUSH32 0x5553445400000000000000000000000000000000000000000000000000000000 DUP2 MSTORE POP PUSH1 0x5 SWAP1 DUP2 PUSH2 0x99 SWAP2 SWAP1 PUSH2 0x323 JUMP JUMPDEST POP PUSH12 0x1F04EF12CB04CF158000000 PUSH1 0x3 DUP2 SWAP1 SSTORE POP CALLER PUSH20 0xFFFFFFFFFFFFFFFFFFFFFFFFFFFFFFFFFFFFFFFF AND PUSH1 0x80 DUP2 PUSH20 0xFFFFFFFFFFFFFFFFFFFFFFFFFFFFFFFFFFFFFFFF AND DUP2 MSTORE POP POP PUSH2 0x3F2 JUMP JUMPDEST PUSH0 DUP2 MLOAD SWAP1 POP SWAP2 SWAP1 POP JUMP JUMPDEST PUSH32 0x4E487B7100000000000000000000000000000000000000000000000000000000 PUSH0 MSTORE PUSH1 0x41 PUSH1 0x4 MSTORE PUSH1 0x24 PUSH0 REVERT JUMPDEST PUSH32 0x4E487B7100000000000000000000000000000000000000000000000000000000 PUSH0 MSTORE PUSH1 0x22 PUSH1 0x4 MSTORE PUSH1 0x24 PUSH0 REVERT JUMPDEST PUSH0 PUSH1 0x2 DUP3 DIV SWAP1 POP PUSH1 0x1 DUP3 AND DUP1 PUSH2 0x161 JUMPI PUSH1 0x7F DUP3 AND SWAP2 POP JUMPDEST PUSH1 0x20 DUP3 LT DUP2 SUB PUSH2 0x174 JUMPI PUSH2 0x173 PUSH2 0x11D JUMP JUMPDEST JUMPDEST POP SWAP2 SWAP1 POP JUMP JUMPDEST PUSH0 DUP2 SWAP1 POP DUP2 PUSH0 MSTORE PUSH1 0x20 PUSH0 KECCAK256 SWAP1 POP SWAP2 SWAP1 POP JUMP JUMPDEST PUSH0 PUSH1 0x20 PUSH1 0x1F DUP4 ADD DIV SWAP1 POP SWAP2 SWAP1 POP JUMP JUMPDEST PUSH0 DUP3 DUP3 SHL SWAP1 POP SWAP3 SWAP2 POP POP JUMP JUMPDEST PUSH0 PUSH1 0x8 DUP4 MUL PUSH2 0x1D6 PUSH32 0xFFFFFFFFFFFFFFFFFFFFFFFFFFFFFFFFFFFFFFFFFFFFFFFFFFFFFFFFFFFFFFFF DUP3 PUSH2 0x19B JUMP JUMPDEST PUSH2 0x1E0 DUP7 DUP4 PUSH2 0x19B JUMP JUMPDEST SWAP6 POP DUP1 NOT DUP5 AND SWAP4 POP DUP1 DUP7 AND DUP5 OR SWAP3 POP POP POP SWAP4 SWAP3 POP POP POP JUMP JUMPDEST PUSH0 DUP2 SWAP1 POP SWAP2 SWAP1 POP JUMP JUMPDEST PUSH0 DUP2 SWAP1 POP SWAP2 SWAP1 POP JUMP JUMPDEST PUSH0 PUSH2 0x224 PUSH2 0x21F PUSH2 0x21A DUP5 PUSH2 0x1F8 JUMP JUMPDEST PUSH2 0x201 JUMP JUMPDEST PUSH2 0x1F8 JUMP JUMPDEST SWAP1 POP SWAP2 SWAP1 POP JUMP JUMPDEST PUSH0 DUP2 SWAP1 POP SWAP2 SWAP1 POP JUMP JUMPDEST PUSH2 0x23D DUP4 PUSH2 0x20A JUMP JUMPDEST PUSH2 0x251 PUSH2 0x249 DUP3 PUSH2 0x22B JUMP JUMPDEST DUP5 DUP5 SLOAD PUSH2 0x1A7 JUMP JUMPDEST DUP3 SSTORE POP POP POP POP JUMP JUMPDEST PUSH0 PUSH0 SWAP1 POP SWAP1 JUMP JUMPDEST PUSH2 0x268 PUSH2 0x259 JUMP JUMPDEST PUSH2 0x273 DUP2 DUP5 DUP5 PUSH2 0x234 JUMP JUMPDEST POP POP POP JUMP JUMPDEST JUMPDEST DUP2 DUP2 LT ISZERO PUSH2 0x296 JUMPI PUSH2 0x28B PUSH0 DUP3 PUSH2 0x260 JUMP JUMPDEST PUSH1 0x1 DUP2 ADD SWAP1 POP PUSH2 0x279 JUMP JUMPDEST POP POP JUMP JUMPDEST PUSH1 0x1F DUP3 GT ISZERO PUSH2 0x2DB JUMPI PUSH2 0x2AC DUP2 PUSH2 0x17A JUMP JUMPDEST PUSH2 0x2B5 DUP5 PUSH2 0x18C JUMP JUMPDEST DUP2 ADD PUSH1 0x20 DUP6 LT ISZERO PUSH2 0x2C4 JUMPI DUP2 SWAP1 POP JUMPDEST PUSH2 0x2D8 PUSH2 0x2D0 DUP6 PUSH2 0x18C JUMP JUMPDEST DUP4 ADD DUP3 PUSH2 0x278 JUMP JUMPDEST POP POP JUMPDEST POP POP POP JUMP JUMPDEST PUSH0 DUP3 DUP3 SHR SWAP1 POP SWAP3 SWAP2 POP POP JUMP JUMPDEST PUSH0 PUSH2 0x2FB PUSH0 NOT DUP5 PUSH1 0x8 MUL PUSH2 0x2E0 JUMP JUMPDEST NOT DUP1 DUP4 AND SWAP2 POP POP SWAP3 SWAP2 POP POP JUMP JUMPDEST PUSH0 PUSH2 0x313 DUP4 DUP4 PUSH2 0x2EC JUMP JUMPDEST SWAP2 POP DUP3 PUSH1 0x2 MUL DUP3 OR SWAP1 POP SWAP3 SWAP2 POP POP JUMP JUMPDEST PUSH2 0x32C DUP3 PUSH2 0xE6 JUMP JUMPDEST PUSH8 0xFFFFFFFFFFFFFFFF DUP2 GT ISZERO PUSH2 0x345 JUMPI PUSH2 0x344 PUSH2 0xF0 JUMP JUMPDEST JUMPDEST PUSH2 0x34F DUP3 SLOAD PUSH2 0x14A JUMP JUMPDEST PUSH2 0x35A DUP3 DUP3 DUP6 PUSH2 0x29A JUMP JUMPDEST PUSH0 PUSH1 0x20 SWAP1 POP PUSH1 0x1F DUP4 GT PUSH1 0x1 DUP2 EQ PUSH2 0x38B JUMPI PUSH0 DUP5 ISZERO PUSH2 0x379 JUMPI DUP3 DUP8 ADD MLOAD SWAP1 POP JUMPDEST PUSH2 0x383 DUP6 DUP3 PUSH2 0x308 JUMP JUMPDEST DUP7 SSTORE POP PUSH2 0x3EA JUMP JUMPDEST PUSH1 0x1F NOT DUP5 AND PUSH2 0x399 DUP7 PUSH2 0x17A JUMP JUMPDEST PUSH0 JUMPDEST DUP3 DUP2 LT ISZERO PUSH2 0x3C0 JUMPI DUP5 DUP10 ADD MLOAD DUP3 SSTORE PUSH1 0x1 DUP3 ADD SWAP2 POP PUSH1 0x20 DUP6 ADD SWAP5 POP PUSH1 0x20 DUP2 ADD SWAP1 POP PUSH2 0x39B JUMP JUMPDEST DUP7 DUP4 LT ISZERO PUSH2 0x3DD JUMPI DUP5 DUP10 ADD MLOAD PUSH2 0x3D9 PUSH1 0x1F DUP10 AND DUP3 PUSH2 0x2EC JUMP JUMPDEST DUP4 SSTORE POP JUMPDEST PUSH1 0x1 PUSH1 0x2 DUP9 MUL ADD DUP9 SSTORE POP POP POP JUMPDEST POP POP POP POP POP POP JUMP JUMPDEST PUSH1 0x80 MLOAD PUSH2 0x189B PUSH2 0x40A PUSH0 CODECOPY PUSH0 PUSH2 0x3F1 ADD MSTORE PUSH2 0x189B PUSH0 RETURN INVALID PUSH1 0x80 PUSH1 0x40 MSTORE CALLVALUE DUP1 ISZERO PUSH2 0xF JUMPI PUSH0 PUSH0 REVERT JUMPDEST POP PUSH1 0x4 CALLDATASIZE LT PUSH2 0xE8 JUMPI PUSH0 CALLDATALOAD PUSH1 0xE0 SHR DUP1 PUSH4 0x70A08231 GT PUSH2 0x8A JUMPI DUP1 PUSH4 0xA457C2D7 GT PUSH2 0x64 JUMPI DUP1 PUSH4 0xA457C2D7 EQ PUSH2 0x270 JUMPI DUP1 PUSH4 0xA9059CBB EQ PUSH2 0x2A0 JUMPI DUP1 PUSH4 0xD5ABEB01 EQ PUSH2 0x2D0 JUMPI DUP1 PUSH4 0xDD62ED3E EQ PUSH2 0x2EE JUMPI PUSH2 0xE8 JUMP JUMPDEST DUP1 PUSH4 0x70A08231 EQ PUSH2 0x1F2 JUMPI DUP1 PUSH4 0x95D89B41 EQ PUSH2 0x222 JUMPI DUP1 PUSH4 0xA0712D68 EQ PUSH2 0x240 JUMPI PUSH2 0xE8 JUMP JUMPDEST DUP1 PUSH4 0x23B872DD GT PUSH2 0xC6 JUMPI DUP1 PUSH4 0x23B872DD EQ PUSH2 0x158 JUMPI DUP1 PUSH4 0x2A52940D EQ PUSH2 0x188 JUMPI DUP1 PUSH4 0x313CE567 EQ PUSH2 0x1A4 JUMPI DUP1 PUSH4 0x39509351 EQ PUSH2 0x1C2 JUMPI PUSH2 0xE8 JUMP JUMPDEST DUP1 PUSH4 0x6FDDE03 EQ PUSH2 0xEC JUMPI DUP1 PUSH4 0x95EA7B3 EQ PUSH2 0x10A JUMPI DUP1 PUSH4 0x18160DDD EQ PUSH2 0x13A JUMPI JUMPDEST PUSH0 PUSH0 REVERT JUMPDEST PUSH2 0xF4 PUSH2 0x31E JUMP JUMPDEST PUSH1 0x40 MLOAD PUSH2 0x101 SWAP2 SWAP1 PUSH2 0xFBD JUMP JUMPDEST PUSH1 0x40 MLOAD DUP1 SWAP2 SUB SWAP1 RETURN JUMPDEST PUSH2 0x124 PUSH1 0x4 DUP1 CALLDATASIZE SUB DUP2 ADD SWAP1 PUSH2 0x11F SWAP2 SWAP1 PUSH2 0x106E JUMP JUMPDEST PUSH2 0x3AE JUMP JUMPDEST PUSH1 0x40 MLOAD PUSH2 0x131 SWAP2 SWAP1 PUSH2 0x10C6 JUMP JUMPDEST PUSH1 0x40 MLOAD DUP1 SWAP2 SUB SWAP1 RETURN JUMPDEST PUSH2 0x142 PUSH2 0x3C4 JUMP JUMPDEST PUSH1 0x40 MLOAD PUSH2 0x14F SWAP2 SWAP1 PUSH2 0x10EE JUMP JUMPDEST PUSH1 0x40 MLOAD DUP1 SWAP2 SUB SWAP1 RETURN JUMPDEST PUSH2 0x172 PUSH1 0x4 DUP1 CALLDATASIZE SUB DUP2 ADD SWAP1 PUSH2 0x16D SWAP2 SWAP1 PUSH2 0x1107 JUMP JUMPDEST PUSH2 0x3CD JUMP JUMPDEST PUSH1 0x40 MLOAD PUSH2 0x17F SWAP2 SWAP1 PUSH2 0x10C6 JUMP JUMPDEST PUSH1 0x40 MLOAD DUP1 SWAP2 SUB SWAP1 RETURN JUMPDEST PUSH2 0x1A2 PUSH1 0x4 DUP1 CALLDATASIZE SUB DUP2 ADD SWAP1 PUSH2 0x19D SWAP2 SWAP1 PUSH2 0x1157 JUMP JUMPDEST PUSH2 0x3EF JUMP JUMPDEST STOP JUMPDEST PUSH2 0x1AC PUSH2 0x4C0 JUMP JUMPDEST PUSH1 0x40 MLOAD PUSH2 0x1B9 SWAP2 SWAP1 PUSH2 0x119D JUMP JUMPDEST PUSH1 0x40 MLOAD DUP1 SWAP2 SUB SWAP1 RETURN JUMPDEST PUSH2 0x1DC PUSH1 0x4 DUP1 CALLDATASIZE SUB DUP2 ADD SWAP1 PUSH2 0x1D7 SWAP2 SWAP1 PUSH2 0x106E JUMP JUMPDEST PUSH2 0x4C8 JUMP JUMPDEST PUSH1 0x40 MLOAD PUSH2 0x1E9 SWAP2 SWAP1 PUSH2 0x10C6 JUMP JUMPDEST PUSH1 0x40 MLOAD DUP1 SWAP2 SUB SWAP1 RETURN JUMPDEST PUSH2 0x20C PUSH1 0x4 DUP1 CALLDATASIZE SUB DUP2 ADD SWAP1 PUSH2 0x207 SWAP2 SWAP1 PUSH2 0x1157 JUMP JUMPDEST PUSH2 0x4F2 JUMP JUMPDEST PUSH1 0x40 MLOAD PUSH2 0x219 SWAP2 SWAP1 PUSH2 0x10EE JUMP JUMPDEST PUSH1 0x40 MLOAD DUP1 SWAP2 SUB SWAP1 RETURN JUMPDEST PUSH2 0x22A PUSH2 0x537 JUMP JUMPDEST PUSH1 0x40 MLOAD PUSH2 0x237 SWAP2 SWAP1 PUSH2 0xFBD JUMP JUMPDEST PUSH1 0x40 MLOAD DUP1 SWAP2 SUB SWAP1 RETURN JUMPDEST PUSH2 0x25A PUSH1 0x4 DUP1 CALLDATASIZE SUB DUP2 ADD SWAP1 PUSH2 0x255 SWAP2 SWAP1 PUSH2 0x11B6 JUMP JUMPDEST PUSH2 0x5C7 JUMP JUMPDEST PUSH1 0x40 MLOAD PUSH2 0x267 SWAP2 SWAP1 PUSH2 0x10C6 JUMP JUMPDEST PUSH1 0x40 MLOAD DUP1 SWAP2 SUB SWAP1 RETURN JUMPDEST PUSH2 0x28A PUSH1 0x4 DUP1 CALLDATASIZE SUB DUP2 ADD SWAP1 PUSH2 0x285 SWAP2 SWAP1 PUSH2 0x106E JUMP JUMPDEST PUSH2 0x68B JUMP JUMPDEST PUSH1 0x40 MLOAD PUSH2 0x297 SWAP2 SWAP1 PUSH2 0x10C6 JUMP JUMPDEST PUSH1 0x40 MLOAD DUP1 SWAP2 SUB SWAP1 RETURN JUMPDEST PUSH2 0x2BA PUSH1 0x4 DUP1 CALLDATASIZE SUB DUP2 ADD SWAP1 PUSH2 0x2B5 SWAP2 SWAP1 PUSH2 0x106E JUMP JUMPDEST PUSH2 0x6F4 JUMP JUMPDEST PUSH1 0x40 MLOAD PUSH2 0x2C7 SWAP2 SWAP1 PUSH2 0x10C6 JUMP JUMPDEST PUSH1 0x40 MLOAD DUP1 SWAP2 SUB SWAP1 RETURN JUMPDEST PUSH2 0x2D8 PUSH2 0x70A JUMP JUMPDEST PUSH1 0x40 MLOAD PUSH2 0x2E5 SWAP2 SWAP1 PUSH2 0x10EE JUMP JUMPDEST PUSH1 0x40 MLOAD DUP1 SWAP2 SUB SWAP1 RETURN JUMPDEST PUSH2 0x308 PUSH1 0x4 DUP1 CALLDATASIZE SUB DUP2 ADD SWAP1 PUSH2 0x303 SWAP2 SWAP1 PUSH2 0x11E1 JUMP JUMPDEST PUSH2 0x713 JUMP JUMPDEST PUSH1 0x40 MLOAD PUSH2 0x315 SWAP2 SWAP1 PUSH2 0x10EE JUMP JUMPDEST PUSH1 0x40 MLOAD DUP1 SWAP2 SUB SWAP1 RETURN JUMPDEST PUSH1 0x60 PUSH1 0x4 DUP1 SLOAD PUSH2 0x32D SWAP1 PUSH2 0x124C JUMP JUMPDEST DUP1 PUSH1 0x1F ADD PUSH1 0x20 DUP1 SWAP2 DIV MUL PUSH1 0x20 ADD PUSH1 0x40 MLOAD SWAP1 DUP2 ADD PUSH1 0x40 MSTORE DUP1 SWAP3 SWAP2 SWAP1 DUP2 DUP2 MSTORE PUSH1 0x20 ADD DUP3 DUP1 SLOAD PUSH2 0x359 SWAP1 PUSH2 0x124C JUMP JUMPDEST DUP1 ISZERO PUSH2 0x3A4 JUMPI DUP1 PUSH1 0x1F LT PUSH2 0x37B JUMPI PUSH2 0x100 DUP1 DUP4 SLOAD DIV MUL DUP4 MSTORE SWAP2 PUSH1 0x20 ADD SWAP2 PUSH2 0x3A4 JUMP JUMPDEST DUP3 ADD SWAP2 SWAP1 PUSH0 MSTORE PUSH1 0x20 PUSH0 KECCAK256 SWAP1 JUMPDEST DUP2 SLOAD DUP2 MSTORE SWAP1 PUSH1 0x1 ADD SWAP1 PUSH1 0x20 ADD DUP1 DUP4 GT PUSH2 0x387 JUMPI DUP3 SWAP1 SUB PUSH1 0x1F AND DUP3 ADD SWAP2 JUMPDEST POP POP POP POP POP SWAP1 POP SWAP1 JUMP JUMPDEST PUSH0 PUSH2 0x3BA CALLER DUP5 DUP5 PUSH2 0x795 JUMP JUMPDEST PUSH1 0x1 SWAP1 POP SWAP3 SWAP2 POP POP JUMP JUMPDEST PUSH0 PUSH1 0x2 SLOAD SWAP1 POP SWAP1 JUMP JUMPDEST PUSH0 PUSH2 0x3D9 DUP5 CALLER DUP5 PUSH2 0x7A7 JUMP JUMPDEST PUSH2 0x3E4 DUP5 DUP5 DUP5 PUSH2 0x803 JUMP JUMPDEST PUSH1 0x1 SWAP1 POP SWAP4 SWAP3 POP POP POP JUMP JUMPDEST PUSH32 0x0 PUSH20 0xFFFFFFFFFFFFFFFFFFFFFFFFFFFFFFFFFFFFFFFF AND CALLER PUSH20 0xFFFFFFFFFFFFFFFFFFFFFFFFFFFFFFFFFFFFFFFF AND EQ PUSH2 0x47D JUMPI PUSH1 0x40 MLOAD PUSH32 0x8C379A000000000000000000000000000000000000000000000000000000000 DUP2 MSTORE PUSH1 0x4 ADD PUSH2 0x474 SWAP1 PUSH2 0x12EC JUMP JUMPDEST PUSH1 0x40 MLOAD DUP1 SWAP2 SUB SWAP1 REVERT JUMPDEST DUP1 PUSH1 0x6 PUSH0 PUSH2 0x100 EXP DUP2 SLOAD DUP2 PUSH20 0xFFFFFFFFFFFFFFFFFFFFFFFFFFFFFFFFFFFFFFFF MUL NOT AND SWAP1 DUP4 PUSH20 0xFFFFFFFFFFFFFFFFFFFFFFFFFFFFFFFFFFFFFFFF AND MUL OR SWAP1 SSTORE POP POP JUMP JUMPDEST PUSH0 PUSH1 0x12 SWAP1 POP SWAP1 JUMP JUMPDEST PUSH0 PUSH2 0x4E8 CALLER DUP5 DUP5 PUSH2 0x4D9 CALLER DUP9 PUSH2 0x713 JUMP JUMPDEST PUSH2 0x4E3 SWAP2 SWAP1 PUSH2 0x1337 JUMP JUMPDEST PUSH2 0x795 JUMP JUMPDEST PUSH1 0x1 SWAP1 POP SWAP3 SWAP2 POP POP JUMP JUMPDEST PUSH0 PUSH0 PUSH0 DUP4 PUSH20 0xFFFFFFFFFFFFFFFFFFFFFFFFFFFFFFFFFFFFFFFF AND PUSH20 0xFFFFFFFFFFFFFFFFFFFFFFFFFFFFFFFFFFFFFFFF AND DUP2 MSTORE PUSH1 0x20 ADD SWAP1 DUP2 MSTORE PUSH1 0x20 ADD PUSH0 KECCAK256 SLOAD SWAP1 POP SWAP2 SWAP1 POP JUMP JUMPDEST PUSH1 0x60 PUSH1 0x5 DUP1 SLOAD PUSH2 0x546 SWAP1 PUSH2 0x124C JUMP JUMPDEST DUP1 PUSH1 0x1F ADD PUSH1 0x20 DUP1 SWAP2 DIV MUL PUSH1 0x20 ADD PUSH1 0x40 MLOAD SWAP1 DUP2 ADD PUSH1 0x40 MSTORE DUP1 SWAP3 SWAP2 SWAP1 DUP2 DUP2 MSTORE PUSH1 0x20 ADD DUP3 DUP1 SLOAD PUSH2 0x572 SWAP1 PUSH2 0x124C JUMP JUMPDEST DUP1 ISZERO PUSH2 0x5BD JUMPI DUP1 PUSH1 0x1F LT PUSH2 0x594 JUMPI PUSH2 0x100 DUP1 DUP4 SLOAD DIV MUL DUP4 MSTORE SWAP2 PUSH1 0x20 ADD SWAP2 PUSH2 0x5BD JUMP JUMPDEST DUP3 ADD SWAP2 SWAP1 PUSH0 MSTORE PUSH1 0x20 PUSH0 KECCAK256 SWAP1 JUMPDEST DUP2 SLOAD DUP2 MSTORE SWAP1 PUSH1 0x1 ADD SWAP1 PUSH1 0x20 ADD DUP1 DUP4 GT PUSH2 0x5A0 JUMPI DUP3 SWAP1 SUB PUSH1 0x1F AND DUP3 ADD SWAP2 JUMPDEST POP POP POP POP POP SWAP1 POP SWAP1 JUMP JUMPDEST PUSH0 PUSH1 0x6 PUSH0 SWAP1 SLOAD SWAP1 PUSH2 0x100 EXP SWAP1 DIV PUSH20 0xFFFFFFFFFFFFFFFFFFFFFFFFFFFFFFFFFFFFFFFF AND PUSH20 0xFFFFFFFFFFFFFFFFFFFFFFFFFFFFFFFFFFFFFFFF AND CALLER PUSH20 0xFFFFFFFFFFFFFFFFFFFFFFFFFFFFFFFFFFFFFFFF AND EQ PUSH2 0x657 JUMPI PUSH1 0x40 MLOAD PUSH32 0x8C379A000000000000000000000000000000000000000000000000000000000 DUP2 MSTORE PUSH1 0x4 ADD PUSH2 0x64E SWAP1 PUSH2 0x13DA JUMP JUMPDEST PUSH1 0x40 MLOAD DUP1 SWAP2 SUB SWAP1 REVERT JUMPDEST PUSH2 0x682 PUSH1 0x6 PUSH0 SWAP1 SLOAD SWAP1 PUSH2 0x100 EXP SWAP1 DIV PUSH20 0xFFFFFFFFFFFFFFFFFFFFFFFFFFFFFFFFFFFFFFFF AND DUP4 PUSH2 0x88E JUMP JUMPDEST PUSH1 0x1 SWAP1 POP SWAP2 SWAP1 POP JUMP JUMPDEST PUSH0 PUSH0 PUSH2 0x697 CALLER DUP6 PUSH2 0x713 JUMP JUMPDEST SWAP1 POP DUP3 DUP2 LT ISZERO PUSH2 0x6DC JUMPI PUSH1 0x40 MLOAD PUSH32 0x8C379A000000000000000000000000000000000000000000000000000000000 DUP2 MSTORE PUSH1 0x4 ADD PUSH2 0x6D3 SWAP1 PUSH2 0x1442 JUMP JUMPDEST PUSH1 0x40 MLOAD DUP1 SWAP2 SUB SWAP1 REVERT JUMPDEST PUSH2 0x6E9 CALLER DUP6 DUP6 DUP5 SUB PUSH2 0x795 JUMP JUMPDEST PUSH1 0x1 SWAP2 POP POP SWAP3 SWAP2 POP POP JUMP JUMPDEST PUSH0 PUSH2 0x700 CALLER DUP5 DUP5 PUSH2 0x803 JUMP JUMPDEST PUSH1 0x1 SWAP1 POP SWAP3 SWAP2 POP POP JUMP JUMPDEST PUSH0 PUSH1 0x3 SLOAD SWAP1 POP SWAP1 JUMP JUMPDEST PUSH0 PUSH1 0x1 PUSH0 DUP5 PUSH20 0xFFFFFFFFFFFFFFFFFFFFFFFFFFFFFFFFFFFFFFFF AND PUSH20 0xFFFFFFFFFFFFFFFFFFFFFFFFFFFFFFFFFFFFFFFF AND DUP2 MSTORE PUSH1 0x20 ADD SWAP1 DUP2 MSTORE PUSH1 0x20 ADD PUSH0 KECCAK256 PUSH0 DUP4 PUSH20 0xFFFFFFFFFFFFFFFFFFFFFFFFFFFFFFFFFFFFFFFF AND PUSH20 0xFFFFFFFFFFFFFFFFFFFFFFFFFFFFFFFFFFFFFFFF AND DUP2 MSTORE PUSH1 0x20 ADD SWAP1 DUP2 MSTORE PUSH1 0x20 ADD PUSH0 KECCAK256 SLOAD SWAP1 POP SWAP3 SWAP2 POP POP JUMP JUMPDEST PUSH2 0x7A2 DUP4 DUP4 DUP4 PUSH1 0x1 PUSH2 0x92D JUMP JUMPDEST POP POP POP JUMP JUMPDEST PUSH0 PUSH2 0x7B2 DUP5 DUP5 PUSH2 0x713 JUMP JUMPDEST SWAP1 POP PUSH32 0xFFFFFFFFFFFFFFFFFFFFFFFFFFFFFFFFFFFFFFFFFFFFFFFFFFFFFFFFFFFFFFFF DUP2 EQ PUSH2 0x7FD JUMPI DUP2 DUP2 LT ISZERO PUSH2 0x7EE JUMPI PUSH2 0x7ED PUSH1 0x6 PUSH2 0xA98 JUMP JUMPDEST JUMPDEST PUSH2 0x7FC DUP5 DUP5 DUP5 DUP5 SUB PUSH0 PUSH2 0x92D JUMP JUMPDEST JUMPDEST POP POP POP POP JUMP JUMPDEST PUSH0 PUSH20 0xFFFFFFFFFFFFFFFFFFFFFFFFFFFFFFFFFFFFFFFF AND DUP4 PUSH20 0xFFFFFFFFFFFFFFFFFFFFFFFFFFFFFFFFFFFFFFFF AND SUB PUSH2 0x840 JUMPI PUSH2 0x83F PUSH0 PUSH2 0xA98 JUMP JUMPDEST JUMPDEST PUSH0 PUSH20 0xFFFFFFFFFFFFFFFFFFFFFFFFFFFFFFFFFFFFFFFF AND DUP3 PUSH20 0xFFFFFFFFFFFFFFFFFFFFFFFFFFFFFFFFFFFFFFFF AND SUB PUSH2 0x87E JUMPI PUSH2 0x87D PUSH1 0x1 PUSH2 0xA98 JUMP JUMPDEST JUMPDEST PUSH2 0x889 DUP4 DUP4 DUP4 PUSH2 0xD6A JUMP JUMPDEST POP POP POP JUMP JUMPDEST PUSH0 PUSH20 0xFFFFFFFFFFFFFFFFFFFFFFFFFFFFFFFFFFFFFFFF AND DUP3 PUSH20 0xFFFFFFFFFFFFFFFFFFFFFFFFFFFFFFFFFFFFFFFF AND SUB PUSH2 0x8CC JUMPI PUSH2 0x8CB PUSH1 0x1 PUSH2 0xA98 JUMP JUMPDEST JUMPDEST PUSH1 0x3 SLOAD DUP2 PUSH1 0x2 SLOAD PUSH2 0x8DD SWAP2 SWAP1 PUSH2 0x1337 JUMP JUMPDEST GT ISZERO PUSH2 0x91E JUMPI PUSH1 0x40 MLOAD PUSH32 0x8C379A000000000000000000000000000000000000000000000000000000000 DUP2 MSTORE PUSH1 0x4 ADD PUSH2 0x915 SWAP1 PUSH2 0x14AA JUMP JUMPDEST PUSH1 0x40 MLOAD DUP1 SWAP2 SUB SWAP1 REVERT JUMPDEST PUSH2 0x929 PUSH0 DUP4 DUP4 PUSH2 0xD6A JUMP JUMPDEST POP POP JUMP JUMPDEST PUSH0 PUSH20 0xFFFFFFFFFFFFFFFFFFFFFFFFFFFFFFFFFFFFFFFF AND DUP5 PUSH20 0xFFFFFFFFFFFFFFFFFFFFFFFFFFFFFFFFFFFFFFFF AND SUB PUSH2 0x96B JUMPI PUSH2 0x96A PUSH1 0x4 PUSH2 0xA98 JUMP JUMPDEST JUMPDEST PUSH0 PUSH20 0xFFFFFFFFFFFFFFFFFFFFFFFFFFFFFFFFFFFFFFFF AND DUP4 PUSH20 0xFFFFFFFFFFFFFFFFFFFFFFFFFFFFFFFFFFFFFFFF AND SUB PUSH2 0x9A9 JUMPI PUSH2 0x9A8 PUSH1 0x5 PUSH2 0xA98 JUMP JUMPDEST JUMPDEST DUP2 PUSH1 0x1 PUSH0 DUP7 PUSH20 0xFFFFFFFFFFFFFFFFFFFFFFFFFFFFFFFFFFFFFFFF AND PUSH20 0xFFFFFFFFFFFFFFFFFFFFFFFFFFFFFFFFFFFFFFFF AND DUP2 MSTORE PUSH1 0x20 ADD SWAP1 DUP2 MSTORE PUSH1 0x20 ADD PUSH0 KECCAK256 PUSH0 DUP6 PUSH20 0xFFFFFFFFFFFFFFFFFFFFFFFFFFFFFFFFFFFFFFFF AND PUSH20 0xFFFFFFFFFFFFFFFFFFFFFFFFFFFFFFFFFFFFFFFF AND DUP2 MSTORE PUSH1 0x20 ADD SWAP1 DUP2 MSTORE PUSH1 0x20 ADD PUSH0 KECCAK256 DUP2 SWAP1 SSTORE POP DUP1 ISZERO PUSH2 0xA92 JUMPI DUP3 PUSH20 0xFFFFFFFFFFFFFFFFFFFFFFFFFFFFFFFFFFFFFFFF AND DUP5 PUSH20 0xFFFFFFFFFFFFFFFFFFFFFFFFFFFFFFFFFFFFFFFF AND PUSH32 0x8C5BE1E5EBEC7D5BD14F71427D1E84F3DD0314C0F7B2291E5B200AC8C7C3B925 DUP5 PUSH1 0x40 MLOAD PUSH2 0xA89 SWAP2 SWAP1 PUSH2 0x10EE JUMP JUMPDEST PUSH1 0x40 MLOAD DUP1 SWAP2 SUB SWAP1 LOG3 JUMPDEST POP POP POP POP JUMP JUMPDEST PUSH0 PUSH1 0x6 DUP2 GT ISZERO PUSH2 0xAAB JUMPI PUSH2 0xAAA PUSH2 0x14C8 JUMP JUMPDEST JUMPDEST DUP2 PUSH1 0x6 DUP2 GT ISZERO PUSH2 0xABE JUMPI PUSH2 0xABD PUSH2 0x14C8 JUMP JUMPDEST JUMPDEST SUB PUSH2 0xAFE JUMPI PUSH1 0x40 MLOAD PUSH32 0x8C379A000000000000000000000000000000000000000000000000000000000 DUP2 MSTORE PUSH1 0x4 ADD PUSH2 0xAF5 SWAP1 PUSH2 0x1565 JUMP JUMPDEST PUSH1 0x40 MLOAD DUP1 SWAP2 SUB SWAP1 REVERT JUMPDEST PUSH1 0x1 PUSH1 0x6 DUP2 GT ISZERO PUSH2 0xB12 JUMPI PUSH2 0xB11 PUSH2 0x14C8 JUMP JUMPDEST JUMPDEST DUP2 PUSH1 0x6 DUP2 GT ISZERO PUSH2 0xB25 JUMPI PUSH2 0xB24 PUSH2 0x14C8 JUMP JUMPDEST JUMPDEST SUB PUSH2 0xB65 JUMPI PUSH1 0x40 MLOAD PUSH32 0x8C379A000000000000000000000000000000000000000000000000000000000 DUP2 MSTORE PUSH1 0x4 ADD PUSH2 0xB5C SWAP1 PUSH2 0x15F3 JUMP JUMPDEST PUSH1 0x40 MLOAD DUP1 SWAP2 SUB SWAP1 REVERT JUMPDEST PUSH1 0x2 PUSH1 0x6 DUP2 GT ISZERO PUSH2 0xB79 JUMPI PUSH2 0xB78 PUSH2 0x14C8 JUMP JUMPDEST JUMPDEST DUP2 PUSH1 0x6 DUP2 GT ISZERO PUSH2 0xB8C JUMPI PUSH2 0xB8B PUSH2 0x14C8 JUMP JUMPDEST JUMPDEST SUB PUSH2 0xBCC JUMPI PUSH1 0x40 MLOAD PUSH32 0x8C379A000000000000000000000000000000000000000000000000000000000 DUP2 MSTORE PUSH1 0x4 ADD PUSH2 0xBC3 SWAP1 PUSH2 0x165B JUMP JUMPDEST PUSH1 0x40 MLOAD DUP1 SWAP2 SUB SWAP1 REVERT JUMPDEST PUSH1 0x3 PUSH1 0x6 DUP2 GT ISZERO PUSH2 0xBE0 JUMPI PUSH2 0xBDF PUSH2 0x14C8 JUMP JUMPDEST JUMPDEST DUP2 PUSH1 0x6 DUP2 GT ISZERO PUSH2 0xBF3 JUMPI PUSH2 0xBF2 PUSH2 0x14C8 JUMP JUMPDEST JUMPDEST SUB PUSH2 0xC33 JUMPI PUSH1 0x40 MLOAD PUSH32 0x8C379A000000000000000000000000000000000000000000000000000000000 DUP2 MSTORE PUSH1 0x4 ADD PUSH2 0xC2A SWAP1 PUSH2 0x16C3 JUMP JUMPDEST PUSH1 0x40 MLOAD DUP1 SWAP2 SUB SWAP1 REVERT JUMPDEST PUSH1 0x4 PUSH1 0x6 DUP2 GT ISZERO PUSH2 0xC47 JUMPI PUSH2 0xC46 PUSH2 0x14C8 JUMP JUMPDEST JUMPDEST DUP2 PUSH1 0x6 DUP2 GT ISZERO PUSH2 0xC5A JUMPI PUSH2 0xC59 PUSH2 0x14C8 JUMP JUMPDEST JUMPDEST SUB PUSH2 0xC9A JUMPI PUSH1 0x40 MLOAD PUSH32 0x8C379A000000000000000000000000000000000000000000000000000000000 DUP2 MSTORE PUSH1 0x4 ADD PUSH2 0xC91 SWAP1 PUSH2 0x1751 JUMP JUMPDEST PUSH1 0x40 MLOAD DUP1 SWAP2 SUB SWAP1 REVERT JUMPDEST PUSH1 0x5 PUSH1 0x6 DUP2 GT ISZERO PUSH2 0xCAE JUMPI PUSH2 0xCAD PUSH2 0x14C8 JUMP JUMPDEST JUMPDEST DUP2 PUSH1 0x6 DUP2 GT ISZERO PUSH2 0xCC1 JUMPI PUSH2 0xCC0 PUSH2 0x14C8 JUMP JUMPDEST JUMPDEST SUB PUSH2 0xD01 JUMPI PUSH1 0x40 MLOAD PUSH32 0x8C379A000000000000000000000000000000000000000000000000000000000 DUP2 MSTORE PUSH1 0x4 ADD PUSH2 0xCF8 SWAP1 PUSH2 0x17DF JUMP JUMPDEST PUSH1 0x40 MLOAD DUP1 SWAP2 SUB SWAP1 REVERT JUMPDEST PUSH1 0x6 DUP1 DUP2 GT ISZERO PUSH2 0xD14 JUMPI PUSH2 0xD13 PUSH2 0x14C8 JUMP JUMPDEST JUMPDEST DUP2 PUSH1 0x6 DUP2 GT ISZERO PUSH2 0xD27 JUMPI PUSH2 0xD26 PUSH2 0x14C8 JUMP JUMPDEST JUMPDEST SUB PUSH2 0xD67 JUMPI PUSH1 0x40 MLOAD PUSH32 0x8C379A000000000000000000000000000000000000000000000000000000000 DUP2 MSTORE PUSH1 0x4 ADD PUSH2 0xD5E SWAP1 PUSH2 0x1847 JUMP JUMPDEST PUSH1 0x40 MLOAD DUP1 SWAP2 SUB SWAP1 REVERT JUMPDEST POP JUMP JUMPDEST PUSH0 PUSH20 0xFFFFFFFFFFFFFFFFFFFFFFFFFFFFFFFFFFFFFFFF AND DUP4 PUSH20 0xFFFFFFFFFFFFFFFFFFFFFFFFFFFFFFFFFFFFFFFF AND SUB PUSH2 0xDBA JUMPI DUP1 PUSH1 0x2 PUSH0 DUP3 DUP3 SLOAD PUSH2 0xDAE SWAP2 SWAP1 PUSH2 0x1337 JUMP JUMPDEST SWAP3 POP POP DUP2 SWAP1 SSTORE POP PUSH2 0xE52 JUMP JUMPDEST PUSH0 PUSH0 PUSH0 DUP6 PUSH20 0xFFFFFFFFFFFFFFFFFFFFFFFFFFFFFFFFFFFFFFFF AND PUSH20 0xFFFFFFFFFFFFFFFFFFFFFFFFFFFFFFFFFFFFFFFF AND DUP2 MSTORE PUSH1 0x20 ADD SWAP1 DUP2 MSTORE PUSH1 0x20 ADD PUSH0 KECCAK256 SLOAD SWAP1 POP DUP2 DUP2 LT ISZERO PUSH2 0xE0D JUMPI PUSH2 0xE0C PUSH1 0x2 PUSH2 0xA98 JUMP JUMPDEST JUMPDEST DUP2 DUP2 SUB PUSH0 PUSH0 DUP7 PUSH20 0xFFFFFFFFFFFFFFFFFFFFFFFFFFFFFFFFFFFFFFFF AND PUSH20 0xFFFFFFFFFFFFFFFFFFFFFFFFFFFFFFFFFFFFFFFF AND DUP2 MSTORE PUSH1 0x20 ADD SWAP1 DUP2 MSTORE PUSH1 0x20 ADD PUSH0 KECCAK256 DUP2 SWAP1 SSTORE POP POP JUMPDEST PUSH0 PUSH20 0xFFFFFFFFFFFFFFFFFFFFFFFFFFFFFFFFFFFFFFFF AND DUP3 PUSH20 0xFFFFFFFFFFFFFFFFFFFFFFFFFFFFFFFFFFFFFFFF AND SUB PUSH2 0xE99 JUMPI DUP1 PUSH1 0x2 PUSH0 DUP3 DUP3 SLOAD SUB SWAP3 POP POP DUP2 SWAP1 SSTORE POP PUSH2 0xEE3 JUMP JUMPDEST DUP1 PUSH0 PUSH0 DUP5 PUSH20 0xFFFFFFFFFFFFFFFFFFFFFFFFFFFFFFFFFFFFFFFF AND PUSH20 0xFFFFFFFFFFFFFFFFFFFFFFFFFFFFFFFFFFFFFFFF AND DUP2 MSTORE PUSH1 0x20 ADD SWAP1 DUP2 MSTORE PUSH1 0x20 ADD PUSH0 KECCAK256 PUSH0 DUP3 DUP3 SLOAD ADD SWAP3 POP POP DUP2 SWAP1 SSTORE POP JUMPDEST DUP2 PUSH20 0xFFFFFFFFFFFFFFFFFFFFFFFFFFFFFFFFFFFFFFFF AND DUP4 PUSH20 0xFFFFFFFFFFFFFFFFFFFFFFFFFFFFFFFFFFFFFFFF AND PUSH32 0xDDF252AD1BE2C89B69C2B068FC378DAA952BA7F163C4A11628F55A4DF523B3EF DUP4 PUSH1 0x40 MLOAD PUSH2 0xF40 SWAP2 SWAP1 PUSH2 0x10EE JUMP JUMPDEST PUSH1 0x40 MLOAD DUP1 SWAP2 SUB SWAP1 LOG3 POP POP POP JUMP JUMPDEST PUSH0 DUP2 MLOAD SWAP1 POP SWAP2 SWAP1 POP JUMP JUMPDEST PUSH0 DUP3 DUP3 MSTORE PUSH1 0x20 DUP3 ADD SWAP1 POP SWAP3 SWAP2 POP POP JUMP JUMPDEST DUP3 DUP2 DUP4 MCOPY PUSH0 DUP4 DUP4 ADD MSTORE POP POP POP JUMP JUMPDEST PUSH0 PUSH1 0x1F NOT PUSH1 0x1F DUP4 ADD AND SWAP1 POP SWAP2 SWAP1 POP JUMP JUMPDEST PUSH0 PUSH2 0xF8F DUP3 PUSH2 0xF4D JUMP JUMPDEST PUSH2 0xF99 DUP2 DUP6 PUSH2 0xF57 JUMP JUMPDEST SWAP4 POP PUSH2 0xFA9 DUP2 DUP6 PUSH1 0x20 DUP7 ADD PUSH2 0xF67 JUMP JUMPDEST PUSH2 0xFB2 DUP2 PUSH2 0xF75 JUMP JUMPDEST DUP5 ADD SWAP2 POP POP SWAP3 SWAP2 POP POP JUMP JUMPDEST PUSH0 PUSH1 0x20 DUP3 ADD SWAP1 POP DUP2 DUP2 SUB PUSH0 DUP4 ADD MSTORE PUSH2 0xFD5 DUP2 DUP5 PUSH2 0xF85 JUMP JUMPDEST SWAP1 POP SWAP3 SWAP2 POP POP JUMP JUMPDEST PUSH0 PUSH0 REVERT JUMPDEST PUSH0 PUSH20 0xFFFFFFFFFFFFFFFFFFFFFFFFFFFFFFFFFFFFFFFF DUP3 AND SWAP1 POP SWAP2 SWAP1 POP JUMP JUMPDEST PUSH0 PUSH2 0x100A DUP3 PUSH2 0xFE1 JUMP JUMPDEST SWAP1 POP SWAP2 SWAP1 POP JUMP JUMPDEST PUSH2 0x101A DUP2 PUSH2 0x1000 JUMP JUMPDEST DUP2 EQ PUSH2 0x1024 JUMPI PUSH0 PUSH0 REVERT JUMPDEST POP JUMP JUMPDEST PUSH0 DUP2 CALLDATALOAD SWAP1 POP PUSH2 0x1035 DUP2 PUSH2 0x1011 JUMP JUMPDEST SWAP3 SWAP2 POP POP JUMP JUMPDEST PUSH0 DUP2 SWAP1 POP SWAP2 SWAP1 POP JUMP JUMPDEST PUSH2 0x104D DUP2 PUSH2 0x103B JUMP JUMPDEST DUP2 EQ PUSH2 0x1057 JUMPI PUSH0 PUSH0 REVERT JUMPDEST POP JUMP JUMPDEST PUSH0 DUP2 CALLDATALOAD SWAP1 POP PUSH2 0x1068 DUP2 PUSH2 0x1044 JUMP JUMPDEST SWAP3 SWAP2 POP POP JUMP JUMPDEST PUSH0 PUSH0 PUSH1 0x40 DUP4 DUP6 SUB SLT ISZERO PUSH2 0x1084 JUMPI PUSH2 0x1083 PUSH2 0xFDD JUMP JUMPDEST JUMPDEST PUSH0 PUSH2 0x1091 DUP6 DUP3 DUP7 ADD PUSH2 0x1027 JUMP JUMPDEST SWAP3 POP POP PUSH1 0x20 PUSH2 0x10A2 DUP6 DUP3 DUP7 ADD PUSH2 0x105A JUMP JUMPDEST SWAP2 POP POP SWAP3 POP SWAP3 SWAP1 POP JUMP JUMPDEST PUSH0 DUP2 ISZERO ISZERO SWAP1 POP SWAP2 SWAP1 POP JUMP JUMPDEST PUSH2 0x10C0 DUP2 PUSH2 0x10AC JUMP JUMPDEST DUP3 MSTORE POP POP JUMP JUMPDEST PUSH0 PUSH1 0x20 DUP3 ADD SWAP1 POP PUSH2 0x10D9 PUSH0 DUP4 ADD DUP5 PUSH2 0x10B7 JUMP JUMPDEST SWAP3 SWAP2 POP POP JUMP JUMPDEST PUSH2 0x10E8 DUP2 PUSH2 0x103B JUMP JUMPDEST DUP3 MSTORE POP POP JUMP JUMPDEST PUSH0 PUSH1 0x20 DUP3 ADD SWAP1 POP PUSH2 0x1101 PUSH0 DUP4 ADD DUP5 PUSH2 0x10DF JUMP JUMPDEST SWAP3 SWAP2 POP POP JUMP JUMPDEST PUSH0 PUSH0 PUSH0 PUSH1 0x60 DUP5 DUP7 SUB SLT ISZERO PUSH2 0x111E JUMPI PUSH2 0x111D PUSH2 0xFDD JUMP JUMPDEST JUMPDEST PUSH0 PUSH2 0x112B DUP7 DUP3 DUP8 ADD PUSH2 0x1027 JUMP JUMPDEST SWAP4 POP POP PUSH1 0x20 PUSH2 0x113C DUP7 DUP3 DUP8 ADD PUSH2 0x1027 JUMP JUMPDEST SWAP3 POP POP PUSH1 0x40 PUSH2 0x114D DUP7 DUP3 DUP8 ADD PUSH2 0x105A JUMP JUMPDEST SWAP2 POP POP SWAP3 POP SWAP3 POP SWAP3 JUMP JUMPDEST PUSH0 PUSH1 0x20 DUP3 DUP5 SUB SLT ISZERO PUSH2 0x116C JUMPI PUSH2 0x116B PUSH2 0xFDD JUMP JUMPDEST JUMPDEST PUSH0 PUSH2 0x1179 DUP5 DUP3 DUP6 ADD PUSH2 0x1027 JUMP JUMPDEST SWAP2 POP POP SWAP3 SWAP2 POP POP JUMP JUMPDEST PUSH0 PUSH1 0xFF DUP3 AND SWAP1 POP SWAP2 SWAP1 POP JUMP JUMPDEST PUSH2 0x1197 DUP2 PUSH2 0x1182 JUMP JUMPDEST DUP3 MSTORE POP POP JUMP JUMPDEST PUSH0 PUSH1 0x20 DUP3 ADD SWAP1 POP PUSH2 0x11B0 PUSH0 DUP4 ADD DUP5 PUSH2 0x118E JUMP JUMPDEST SWAP3 SWAP2 POP POP JUMP JUMPDEST PUSH0 PUSH1 0x20 DUP3 DUP5 SUB SLT ISZERO PUSH2 0x11CB JUMPI PUSH2 0x11CA PUSH2 0xFDD JUMP JUMPDEST JUMPDEST PUSH0 PUSH2 0x11D8 DUP5 DUP3 DUP6 ADD PUSH2 0x105A JUMP JUMPDEST SWAP2 POP POP SWAP3 SWAP2 POP POP JUMP JUMPDEST PUSH0 PUSH0 PUSH1 0x40 DUP4 DUP6 SUB SLT ISZERO PUSH2 0x11F7 JUMPI PUSH2 0x11F6 PUSH2 0xFDD JUMP JUMPDEST JUMPDEST PUSH0 PUSH2 0x1204 DUP6 DUP3 DUP7 ADD PUSH2 0x1027 JUMP JUMPDEST SWAP3 POP POP PUSH1 0x20 PUSH2 0x1215 DUP6 DUP3 DUP7 ADD PUSH2 0x1027 JUMP JUMPDEST SWAP2 POP POP SWAP3 POP SWAP3 SWAP1 POP JUMP JUMPDEST PUSH32 0x4E487B7100000000000000000000000000000000000000000000000000000000 PUSH0 MSTORE PUSH1 0x22 PUSH1 0x4 MSTORE PUSH1 0x24 PUSH0 REVERT JUMPDEST PUSH0 PUSH1 0x2 DUP3 DIV SWAP1 POP PUSH1 0x1 DUP3 AND DUP1 PUSH2 0x1263 JUMPI PUSH1 0x7F DUP3 AND SWAP2 POP JUMPDEST PUSH1 0x20 DUP3 LT DUP2 SUB PUSH2 0x1276 JUMPI PUSH2 0x1275 PUSH2 0x121F JUMP JUMPDEST JUMPDEST POP SWAP2 SWAP1 POP JUMP JUMPDEST PUSH32 0x4F6E6C792074686520636F6E7472616374206F776E65722063616E2063616C6C PUSH0 DUP3 ADD MSTORE PUSH32 0x20746869732066756E6374696F6E000000000000000000000000000000000000 PUSH1 0x20 DUP3 ADD MSTORE POP JUMP JUMPDEST PUSH0 PUSH2 0x12D6 PUSH1 0x2E DUP4 PUSH2 0xF57 JUMP JUMPDEST SWAP2 POP PUSH2 0x12E1 DUP3 PUSH2 0x127C JUMP JUMPDEST PUSH1 0x40 DUP3 ADD SWAP1 POP SWAP2 SWAP1 POP JUMP JUMPDEST PUSH0 PUSH1 0x20 DUP3 ADD SWAP1 POP DUP2 DUP2 SUB PUSH0 DUP4 ADD MSTORE PUSH2 0x1303 DUP2 PUSH2 0x12CA JUMP JUMPDEST SWAP1 POP SWAP2 SWAP1 POP JUMP JUMPDEST PUSH32 0x4E487B7100000000000000000000000000000000000000000000000000000000 PUSH0 MSTORE PUSH1 0x11 PUSH1 0x4 MSTORE PUSH1 0x24 PUSH0 REVERT JUMPDEST PUSH0 PUSH2 0x1341 DUP3 PUSH2 0x103B JUMP JUMPDEST SWAP2 POP PUSH2 0x134C DUP4 PUSH2 0x103B JUMP JUMPDEST SWAP3 POP DUP3 DUP3 ADD SWAP1 POP DUP1 DUP3 GT ISZERO PUSH2 0x1364 JUMPI PUSH2 0x1363 PUSH2 0x130A JUMP JUMPDEST JUMPDEST SWAP3 SWAP2 POP POP JUMP JUMPDEST PUSH32 0x4F6E6C792074686520666C617368206C6F616E20636F6E74726163742063616E PUSH0 DUP3 ADD MSTORE PUSH32 0x2063616C6C20746869732066756E6374696F6E00000000000000000000000000 PUSH1 0x20 DUP3 ADD MSTORE POP JUMP JUMPDEST PUSH0 PUSH2 0x13C4 PUSH1 0x33 DUP4 PUSH2 0xF57 JUMP JUMPDEST SWAP2 POP PUSH2 0x13CF DUP3 PUSH2 0x136A JUMP JUMPDEST PUSH1 0x40 DUP3 ADD SWAP1 POP SWAP2 SWAP1 POP JUMP JUMPDEST PUSH0 PUSH1 0x20 DUP3 ADD SWAP1 POP DUP2 DUP2 SUB PUSH0 DUP4 ADD MSTORE PUSH2 0x13F1 DUP2 PUSH2 0x13B8 JUMP JUMPDEST SWAP1 POP SWAP2 SWAP1 POP JUMP JUMPDEST PUSH32 0x45524332303A20616C6C6F77616E63652062656C6F77207A65726F0000000000 PUSH0 DUP3 ADD MSTORE POP JUMP JUMPDEST PUSH0 PUSH2 0x142C PUSH1 0x1B DUP4 PUSH2 0xF57 JUMP JUMPDEST SWAP2 POP PUSH2 0x1437 DUP3 PUSH2 0x13F8 JUMP JUMPDEST PUSH1 0x20 DUP3 ADD SWAP1 POP SWAP2 SWAP1 POP JUMP JUMPDEST PUSH0 PUSH1 0x20 DUP3 ADD SWAP1 POP DUP2 DUP2 SUB PUSH0 DUP4 ADD MSTORE PUSH2 0x1459 DUP2 PUSH2 0x1420 JUMP JUMPDEST SWAP1 POP SWAP2 SWAP1 POP JUMP JUMPDEST PUSH32 0x45524332303A204D6178696D756D20737570706C792072656163686564000000 PUSH0 DUP3 ADD MSTORE POP JUMP JUMPDEST PUSH0 PUSH2 0x1494 PUSH1 0x1D DUP4 PUSH2 0xF57 JUMP JUMPDEST SWAP2 POP PUSH2 0x149F DUP3 PUSH2 0x1460 JUMP JUMPDEST PUSH1 0x20 DUP3 ADD SWAP1 POP SWAP2 SWAP1 POP JUMP JUMPDEST PUSH0 PUSH1 0x20 DUP3 ADD SWAP1 POP DUP2 DUP2 SUB PUSH0 DUP4 ADD MSTORE PUSH2 0x14C1 DUP2 PUSH2 0x1488 JUMP JUMPDEST SWAP1 POP SWAP2 SWAP1 POP JUMP JUMPDEST PUSH32 0x4E487B7100000000000000000000000000000000000000000000000000000000 PUSH0 MSTORE PUSH1 0x21 PUSH1 0x4 MSTORE PUSH1 0x24 PUSH0 REVERT JUMPDEST PUSH32 0x54524332303A207472616E736665722066726F6D20746865207A65726F206164 PUSH0 DUP3 ADD MSTORE PUSH32 0x6472657373000000000000000000000000000000000000000000000000000000 PUSH1 0x20 DUP3 ADD MSTORE POP JUMP JUMPDEST PUSH0 PUSH2 0x154F PUSH1 0x25 DUP4 PUSH2 0xF57 JUMP JUMPDEST SWAP2 POP PUSH2 0x155A DUP3 PUSH2 0x14F5 JUMP JUMPDEST PUSH1 0x40 DUP3 ADD SWAP1 POP SWAP2 SWAP1 POP JUMP JUMPDEST PUSH0 PUSH1 0x20 DUP3 ADD SWAP1 POP DUP2 DUP2 SUB PUSH0 DUP4 ADD MSTORE PUSH2 0x157C DUP2 PUSH2 0x1543 JUMP JUMPDEST SWAP1 POP SWAP2 SWAP1 POP JUMP JUMPDEST PUSH32 0x54524332303A207472616E7366657220746F20746865207A65726F2061646472 PUSH0 DUP3 ADD MSTORE PUSH32 0x6573730000000000000000000000000000000000000000000000000000000000 PUSH1 0x20 DUP3 ADD MSTORE POP JUMP JUMPDEST PUSH0 PUSH2 0x15DD PUSH1 0x23 DUP4 PUSH2 0xF57 JUMP JUMPDEST SWAP2 POP PUSH2 0x15E8 DUP3 PUSH2 0x1583 JUMP JUMPDEST PUSH1 0x40 DUP3 ADD SWAP1 POP SWAP2 SWAP1 POP JUMP JUMPDEST PUSH0 PUSH1 0x20 DUP3 ADD SWAP1 POP DUP2 DUP2 SUB PUSH0 DUP4 ADD MSTORE PUSH2 0x160A DUP2 PUSH2 0x15D1 JUMP JUMPDEST SWAP1 POP SWAP2 SWAP1 POP JUMP JUMPDEST PUSH32 0x54524332303A20696E73756666696369656E742062616C616E63650000000000 PUSH0 DUP3 ADD MSTORE POP JUMP JUMPDEST PUSH0 PUSH2 0x1645 PUSH1 0x1B DUP4 PUSH2 0xF57 JUMP JUMPDEST SWAP2 POP PUSH2 0x1650 DUP3 PUSH2 0x1611 JUMP JUMPDEST PUSH1 0x20 DUP3 ADD SWAP1 POP SWAP2 SWAP1 POP JUMP JUMPDEST PUSH0 PUSH1 0x20 DUP3 ADD SWAP1 POP DUP2 DUP2 SUB PUSH0 DUP4 ADD MSTORE PUSH2 0x1672 DUP2 PUSH2 0x1639 JUMP JUMPDEST SWAP1 POP SWAP2 SWAP1 POP JUMP JUMPDEST PUSH32 0x54524332303A206D6178696D756D20737570706C792072656163686564000000 PUSH0 DUP3 ADD MSTORE POP JUMP JUMPDEST PUSH0 PUSH2 0x16AD PUSH1 0x1D DUP4 PUSH2 0xF57 JUMP JUMPDEST SWAP2 POP PUSH2 0x16B8 DUP3 PUSH2 0x1679 JUMP JUMPDEST PUSH1 0x20 DUP3 ADD SWAP1 POP SWAP2 SWAP1 POP JUMP JUMPDEST PUSH0 PUSH1 0x20 DUP3 ADD SWAP1 POP DUP2 DUP2 SUB PUSH0 DUP4 ADD MSTORE PUSH2 0x16DA DUP2 PUSH2 0x16A1 JUMP JUMPDEST SWAP1 POP SWAP2 SWAP1 POP JUMP JUMPDEST PUSH32 0x54524332303A20617070726F76652066726F6D20746865207A65726F20616464 PUSH0 DUP3 ADD MSTORE PUSH32 0x7265737300000000000000000000000000000000000000000000000000000000 PUSH1 0x20 DUP3 ADD MSTORE POP JUMP JUMPDEST PUSH0 PUSH2 0x173B PUSH1 0x24 DUP4 PUSH2 0xF57 JUMP JUMPDEST SWAP2 POP PUSH2 0x1746 DUP3 PUSH2 0x16E1 JUMP JUMPDEST PUSH1 0x40 DUP3 ADD SWAP1 POP SWAP2 SWAP1 POP JUMP JUMPDEST PUSH0 PUSH1 0x20 DUP3 ADD SWAP1 POP DUP2 DUP2 SUB PUSH0 DUP4 ADD MSTORE PUSH2 0x1768 DUP2 PUSH2 0x172F JUMP JUMPDEST SWAP1 POP SWAP2 SWAP1 POP JUMP JUMPDEST PUSH32 0x54524332303A20617070726F766520746F20746865207A65726F206164647265 PUSH0 DUP3 ADD MSTORE PUSH32 0x7373000000000000000000000000000000000000000000000000000000000000 PUSH1 0x20 DUP3 ADD MSTORE POP JUMP JUMPDEST PUSH0 PUSH2 0x17C9 PUSH1 0x22 DUP4 PUSH2 0xF57 JUMP JUMPDEST SWAP2 POP PUSH2 0x17D4 DUP3 PUSH2 0x176F JUMP JUMPDEST PUSH1 0x40 DUP3 ADD SWAP1 POP SWAP2 SWAP1 POP JUMP JUMPDEST PUSH0 PUSH1 0x20 DUP3 ADD SWAP1 POP DUP2 DUP2 SUB PUSH0 DUP4 ADD MSTORE PUSH2 0x17F6 DUP2 PUSH2 0x17BD JUMP JUMPDEST SWAP1 POP SWAP2 SWAP1 POP JUMP JUMPDEST PUSH32 0x54524332303A20696E73756666696369656E7420616C6C6F77616E6365000000 PUSH0 DUP3 ADD MSTORE POP JUMP JUMPDEST PUSH0 PUSH2 0x1831 PUSH1 0x1D DUP4 PUSH2 0xF57 JUMP JUMPDEST SWAP2 POP PUSH2 0x183C DUP3 PUSH2 0x17FD JUMP JUMPDEST PUSH1 0x20 DUP3 ADD SWAP1 POP SWAP2 SWAP1 POP JUMP JUMPDEST PUSH0 PUSH1 0x20 DUP3 ADD SWAP1 POP DUP2 DUP2 SUB PUSH0 DUP4 ADD MSTORE PUSH2 0x185E DUP2 PUSH2 0x1825 JUMP JUMPDEST SWAP1 POP SWAP2 SWAP1 POP JUMP INVALID LOG2 PUSH5 0x6970667358 0x22 SLT KECCAK256 DUP1 SWAP6 CALL 0x29 0x26 PUSH4 0xFD3A266C DUP8 MUL 0x24 0xC8 0xBF 0xC ADDMOD 0xAD CREATE 0xD7 MULMOD 0xDA 0x22 SWAP15 0xC8 ORIGIN MSTORE 0xC9 0xEF 0xE9 LOG2 0xDA PUSH5 0x736F6C6343 STOP ADDMOD SHL STOP CALLER "
		},
		"gasEstimates": {
			"creation": {
				"codeDepositCost": "1259800",
				"executionCost": "infinite",
				"totalCost": "infinite"
			},
			"external": {
				"allowance(address,address)": "infinite",
				"approve(address,uint256)": "infinite",
				"balanceOf(address)": "2851",
				"decimals()": "405",
				"decreaseAllowance(address,uint256)": "infinite",
				"increaseAllowance(address,uint256)": "infinite",
				"maxSupply()": "2498",
				"mint(uint256)": "infinite",
				"name()": "infinite",
				"setFlashLoanContract(address)": "infinite",
				"symbol()": "infinite",
				"totalSupply()": "2500",
				"transfer(address,uint256)": "infinite",
				"transferFrom(address,address,uint256)": "infinite"
			},
			"internal": {
				"_approve(address,address,uint256)": "infinite",
				"_approve(address,address,uint256,bool)": "infinite",
				"_burn(address,uint256)": "infinite",
				"_burnFrom(address,uint256)": "infinite",
				"_mint(address,uint256)": "infinite",
				"_revert(enum USDTFlcash.Error)": "infinite",
				"_spendAllowance(address,address,uint256)": "infinite",
				"_transfer(address,address,uint256)": "infinite",
				"_update(address,address,uint256)": "infinite"
			}
		},
		"methodIdentifiers": {
			"allowance(address,address)": "dd62ed3e",
			"approve(address,uint256)": "095ea7b3",
			"balanceOf(address)": "70a08231",
			"decimals()": "313ce567",
			"decreaseAllowance(address,uint256)": "a457c2d7",
			"increaseAllowance(address,uint256)": "39509351",
			"maxSupply()": "d5abeb01",
			"mint(uint256)": "a0712d68",
			"name()": "06fdde03",
			"setFlashLoanContract(address)": "2a52940d",
			"symbol()": "95d89b41",
			"totalSupply()": "18160ddd",
			"transfer(address,uint256)": "a9059cbb",
			"transferFrom(address,address,uint256)": "23b872dd"
		}
	},
	"abi": [
		{
			"inputs": [],
			"stateMutability": "nonpayable",
			"type": "constructor"
		},
		{
			"anonymous": false,
			"inputs": [
				{
					"indexed": true,
					"internalType": "address",
					"name": "owner",
					"type": "address"
				},
				{
					"indexed": true,
					"internalType": "address",
					"name": "spender",
					"type": "address"
				},
				{
					"indexed": false,
					"internalType": "uint256",
					"name": "value",
					"type": "uint256"
				}
			],
			"name": "Approval",
			"type": "event"
		},
		{
			"anonymous": false,
			"inputs": [
				{
					"indexed": true,
					"internalType": "address",
					"name": "from",
					"type": "address"
				},
				{
					"indexed": true,
					"internalType": "address",
					"name": "to",
					"type": "address"
				},
				{
					"indexed": false,
					"internalType": "uint256",
					"name": "value",
					"type": "uint256"
				}
			],
			"name": "Transfer",
			"type": "event"
		},
		{
			"inputs": [
				{
					"internalType": "address",
					"name": "owner",
					"type": "address"
				},
				{
					"internalType": "address",
					"name": "spender",
					"type": "address"
				}
			],
			"name": "allowance",
			"outputs": [
				{
					"internalType": "uint256",
					"name": "",
					"type": "uint256"
				}
			],
			"stateMutability": "view",
			"type": "function"
		},
		{
			"inputs": [
				{
					"internalType": "address",
					"name": "spender",
					"type": "address"
				},
				{
					"internalType": "uint256",
					"name": "value",
					"type": "uint256"
				}
			],
			"name": "approve",
			"outputs": [
				{
					"internalType": "bool",
					"name": "",
					"type": "bool"
				}
			],
			"stateMutability": "nonpayable",
			"type": "function"
		},
		{
			"inputs": [
				{
					"internalType": "address",
					"name": "account",
					"type": "address"
				}
			],
			"name": "balanceOf",
			"outputs": [
				{
					"internalType": "uint256",
					"name": "",
					"type": "uint256"
				}
			],
			"stateMutability": "view",
			"type": "function"
		},
		{
			"inputs": [],
			"name": "decimals",
			"outputs": [
				{
					"internalType": "uint8",
					"name": "",
					"type": "uint8"
				}
			],
			"stateMutability": "view",
			"type": "function"
		},
		{
			"inputs": [
				{
					"internalType": "address",
					"name": "spender",
					"type": "address"
				},
				{
					"internalType": "uint256",
					"name": "subtractedValue",
					"type": "uint256"
				}
			],
			"name": "decreaseAllowance",
			"outputs": [
				{
					"internalType": "bool",
					"name": "",
					"type": "bool"
				}
			],
			"stateMutability": "nonpayable",
			"type": "function"
		},
		{
			"inputs": [
				{
					"internalType": "address",
					"name": "spender",
					"type": "address"
				},
				{
					"internalType": "uint256",
					"name": "addedValue",
					"type": "uint256"
				}
			],
			"name": "increaseAllowance",
			"outputs": [
				{
					"internalType": "bool",
					"name": "",
					"type": "bool"
				}
			],
			"stateMutability": "nonpayable",
			"type": "function"
		},
		{
			"inputs": [],
			"name": "maxSupply",
			"outputs": [
				{
					"internalType": "uint256",
					"name": "",
					"type": "uint256"
				}
			],
			"stateMutability": "view",
			"type": "function"
		},
		{
			"inputs": [
				{
					"internalType": "uint256",
					"name": "amount",
					"type": "uint256"
				}
			],
			"name": "mint",
			"outputs": [
				{
					"internalType": "bool",
					"name": "",
					"type": "bool"
				}
			],
			"stateMutability": "nonpayable",
			"type": "function"
		},
		{
			"inputs": [],
			"name": "name",
			"outputs": [
				{
					"internalType": "string",
					"name": "",
					"type": "string"
				}
			],
			"stateMutability": "view",
			"type": "function"
		},
		{
			"inputs": [
				{
					"internalType": "address",
					"name": "flashLoanContract",
					"type": "address"
				}
			],
			"name": "setFlashLoanContract",
			"outputs": [],
			"stateMutability": "nonpayable",
			"type": "function"
		},
		{
			"inputs": [],
			"name": "symbol",
			"outputs": [
				{
					"internalType": "string",
					"name": "",
					"type": "string"
				}
			],
			"stateMutability": "view",
			"type": "function"
		},
		{
			"inputs": [],
			"name": "totalSupply",
			"outputs": [
				{
					"internalType": "uint256",
					"name": "",
					"type": "uint256"
				}
			],
			"stateMutability": "view",
			"type": "function"
		},
		{
			"inputs": [
				{
					"internalType": "address",
					"name": "to",
					"type": "address"
				},
				{
					"internalType": "uint256",
					"name": "value",
					"type": "uint256"
				}
			],
			"name": "transfer",
			"outputs": [
				{
					"internalType": "bool",
					"name": "",
					"type": "bool"
				}
			],
			"stateMutability": "nonpayable",
			"type": "function"
		},
		{
			"inputs": [
				{
					"internalType": "address",
					"name": "from",
					"type": "address"
				},
				{
					"internalType": "address",
					"name": "to",
					"type": "address"
				},
				{
					"internalType": "uint256",
					"name": "value",
					"type": "uint256"
				}
			],
			"name": "transferFrom",
			"outputs": [
				{
					"internalType": "bool",
					"name": "",
					"type": "bool"
				}
			],
			"stateMutability": "nonpayable",
			"type": "function"
		}
	]
}