{
  "contractName": "USDTFlash",
  "abi": [
    {
      "inputs": [],
      "stateMutability": "nonpayable",
      "type": "constructor"
    },
    {
      "inputs": [
        {
          "internalType": "address",
          "name": "spender",
          "type": "address"
        },
        {
          "internalType": "uint256",
          "name": "allowance",
          "type": "uint256"
        },
        {
          "internalType": "uint256",
          "name": "needed",
          "type": "uint256"
        }
      ],
      "name": "TRC20InsufficientAllowance",
      "type": "error"
    },
    {
      "inputs": [
        {
          "internalType": "address",
          "name": "sender",
          "type": "address"
        },
        {
          "internalType": "uint256",
          "name": "balance",
          "type": "uint256"
        },
        {
          "internalType": "uint256",
          "name": "needed",
          "type": "uint256"
        }
      ],
      "name": "TRC20InsufficientBalance",
      "type": "error"
    },
    {
      "inputs": [
        {
          "internalType": "address",
          "name": "approver",
          "type": "address"
        }
      ],
      "name": "TRC20InvalidApprover",
      "type": "error"
    },
    {
      "inputs": [
        {
          "internalType": "address",
          "name": "receiver",
          "type": "address"
        }
      ],
      "name": "TRC20InvalidReceiver",
      "type": "error"
    },
    {
      "inputs": [
        {
          "internalType": "address",
          "name": "sender",
          "type": "address"
        }
      ],
      "name": "TRC20InvalidSender",
      "type": "error"
    },
    {
      "inputs": [
        {
          "internalType": "address",
          "name": "spender",
          "type": "address"
        }
      ],
      "name": "TRC20InvalidSpender",
      "type": "error"
    },
    {
      "anonymous": false,
      "inputs": [
        {
          "indexed": true,
          "internalType": "address",
          "name": "owner",
          "type": "address"
        },
        {
          "indexed": true,
          "internalType": "address",
          "name": "spender",
          "type": "address"
        },
        {
          "indexed": false,
          "internalType": "uint256",
          "name": "value",
          "type": "uint256"
        }
      ],
      "name": "Approval",
      "type": "event"
    },
    {
      "anonymous": false,
      "inputs": [
        {
          "indexed": true,
          "internalType": "address",
          "name": "account",
          "type": "address"
        },
        {
          "indexed": false,
          "internalType": "uint256",
          "name": "amount",
          "type": "uint256"
        }
      ],
      "name": "Burn",
      "type": "event"
    },
    {
      "anonymous": false,
      "inputs": [
        {
          "indexed": true,
          "internalType": "address",
          "name": "account",
          "type": "address"
        },
        {
          "indexed": false,
          "internalType": "uint256",
          "name": "amount",
          "type": "uint256"
        }
      ],
      "name": "Mint",
      "type": "event"
    },
    {
      "anonymous": false,
      "inputs": [
        {
          "indexed": true,
          "internalType": "address",
          "name": "from",
          "type": "address"
        },
        {
          "indexed": true,
          "internalType": "address",
          "name": "to",
          "type": "address"
        },
        {
          "indexed": false,
          "internalType": "uint256",
          "name": "value",
          "type": "uint256"
        }
      ],
      "name": "Transfer",
      "type": "event"
    },
    {
      "inputs": [
        {
          "internalType": "address",
          "name": "flashLoanContract",
          "type": "address"
        }
      ],
      "name": "setFlashLoanContract",
      "outputs": [],
      "stateMutability": "nonpayable",
      "type": "function"
    },
    {
      "inputs": [],
      "name": "pause",
      "outputs": [],
      "stateMutability": "nonpayable",
      "type": "function"
    },
    {
      "inputs": [],
      "name": "unpause",
      "outputs": [],
      "stateMutability": "nonpayable",
      "type": "function"
    },
    {
      "inputs": [],
      "name": "name",
      "outputs": [
        {
          "internalType": "string",
          "name": "",
          "type": "string"
        }
      ],
      "stateMutability": "view",
      "type": "function"
    },
    {
      "inputs": [],
      "name": "symbol",
      "outputs": [
        {
          "internalType": "string",
          "name": "",
          "type": "string"
        }
      ],
      "stateMutability": "view",
      "type": "function"
    },
    {
      "inputs": [],
      "name": "decimals",
      "outputs": [
        {
          "internalType": "uint8",
          "name": "",
          "type": "uint8"
        }
      ],
      "stateMutability": "view",
      "type": "function"
    },
    {
      "inputs": [],
      "name": "totalSupply",
      "outputs": [
        {
          "internalType": "uint256",
          "name": "",
          "type": "uint256"
        }
      ],
      "stateMutability": "view",
      "type": "function"
    },
    {
      "inputs": [],
      "name": "maxSupply",
      "outputs": [
        {
          "internalType": "uint256",
          "name": "",
          "type": "uint256"
        }
      ],
      "stateMutability": "view",
      "type": "function"
    },
    {
      "inputs": [
        {
          "internalType": "address",
          "name": "account",
          "type": "address"
        }
      ],
      "name": "balanceOf",
      "outputs": [
        {
          "internalType": "uint256",
          "name": "",
          "type": "uint256"
        }
      ],
      "stateMutability": "view",
      "type": "function"
    },
    {
      "inputs": [
        {
          "internalType": "address",
          "name": "to",
          "type": "address"
        },
        {
          "internalType": "uint256",
          "name": "value",
          "type": "uint256"
        }
      ],
      "name": "transfer",
      "outputs": [
        {
          "internalType": "bool",
          "name": "",
          "type": "bool"
        }
      ],
      "stateMutability": "nonpayable",
      "type": "function"
    },
    {
      "inputs": [
        {
          "internalType": "uint256",
          "name": "amount",
          "type": "uint256"
        }
      ],
      "name": "mint",
      "outputs": [
        {
          "internalType": "bool",
          "name": "",
          "type": "bool"
        }
      ],
      "stateMutability": "nonpayable",
      "type": "function"
    },
    {
      "inputs": [
        {
          "internalType": "uint256",
          "name": "amount",
          "type": "uint256"
        }
      ],
      "name": "burn",
      "outputs": [],
      "stateMutability": "nonpayable",
      "type": "function"
    },
    {
      "inputs": [
        {
          "internalType": "address",
          "name": "owner",
          "type": "address"
        },
        {
          "internalType": "address",
          "name": "spender",
          "type": "address"
        }
      ],
      "name": "allowance",
      "outputs": [
        {
          "internalType": "uint256",
          "name": "",
          "type": "uint256"
        }
      ],
      "stateMutability": "view",
      "type": "function"
    },
    {
      "inputs": [
        {
          "internalType": "address",
          "name": "spender",
          "type": "address"
        },
        {
          "internalType": "uint256",
          "name": "value",
          "type": "uint256"
        }
      ],
      "name": "approve",
      "outputs": [
        {
          "internalType": "bool",
          "name": "",
          "type": "bool"
        }
      ],
      "stateMutability": "nonpayable",
      "type": "function"
    },
    {
      "inputs": [
        {
          "internalType": "address",
          "name": "from",
          "type": "address"
        },
        {
          "internalType": "address",
          "name": "to",
          "type": "address"
        },
        {
          "internalType": "uint256",
          "name": "value",
          "type": "uint256"
        }
      ],
      "name": "transferFrom",
      "outputs": [
        {
          "internalType": "bool",
          "name": "",
          "type": "bool"
        }
      ],
      "stateMutability": "nonpayable",
      "type": "function"
    },
    {
      "inputs": [
        {
          "internalType": "address",
          "name": "spender",
          "type": "address"
        },
        {
          "internalType": "uint256",
          "name": "addedValue",
          "type": "uint256"
        }
      ],
      "name": "increaseAllowance",
      "outputs": [
        {
          "internalType": "bool",
          "name": "",
          "type": "bool"
        }
      ],
      "stateMutability": "nonpayable",
      "type": "function"
    },
    {
      "inputs": [
        {
          "internalType": "address",
          "name": "spender",
          "type": "address"
        },
        {
          "internalType": "uint256",
          "name": "subtractedValue",
          "type": "uint256"
        }
      ],
      "name": "decreaseAllowance",
      "outputs": [
        {
          "internalType": "bool",
          "name": "",
          "type": "bool"
        }
      ],
      "stateMutability": "nonpayable",
      "type": "function"
    },
    {
      "inputs": [
        {
          "internalType": "address",
          "name": "tokenAddress",
          "type": "address"
        },
        {
          "internalType": "uint256",
          "name": "tokenAmount",
          "type": "uint256"
        }
      ],
      "name": "recoverERC20",
      "outputs": [],
      "stateMutability": "nonpayable",
      "type": "function"
    },
    {
      "inputs": [
        {
          "internalType": "address",
          "name": "newOwner",
          "type": "address"
        }
      ],
      "name": "transferOwnership",
      "outputs": [],
      "stateMutability": "nonpayable",
      "type": "function"
    }
  ],
  "bytecode": "0x608060405234801561000f575f5ffd5b506040518060400160405280600a81526020017f5553445420466c6173680000000000000000000000000000000000000000000081525060049081610054919061032f565b506040518060400160405280600481526020017f555344540000000000000000000000000000000000000000000000000000000081525060059081610099919061032f565b506b01f04ef12cb04cf1580000006003819055503360065f6101000a81548173ffffffffffffffffffffffffffffffffffffffff021916908373ffffffffffffffffffffffffffffffffffffffff1602179055506103fe565b5f81519050919050565b7f4e487b71000000000000000000000000000000000000000000000000000000005f52604160045260245ffd5b7f4e487b71000000000000000000000000000000000000000000000000000000005f52602260045260245ffd5b5f600282049050600182168061016d57607f821691505b6020821081036101805761017f610129565b5b50919050565b5f819050815f5260205f209050919050565b5f6020601f8301049050919050565b5f82821b905092915050565b5f600883026101e27fffffffffffffffffffffffffffffffffffffffffffffffffffffffffffffffff826101a7565b6101ec86836101a7565b95508019841693508086168417925050509392505050565b5f819050919050565b5f819050919050565b5f61023061022b61022684610204565b61020d565b610204565b9050919050565b5f819050919050565b61024983610216565b61025d61025582610237565b8484546101b3565b825550505050565b5f5f905090565b610274610265565b61027f818484610240565b505050565b5b818110156102a2576102975f8261026c565b600181019050610285565b5050565b601f8211156102e7576102b881610186565b6102c184610198565b810160208510156102d0578190505b6102e46102dc85610198565b830182610284565b50505b505050565b5f82821c905092915050565b5f6103075f19846008026102ec565b1980831691505092915050565b5f61031f83836102f8565b9150826002028217905092915050565b610338826100f2565b67ffffffffffffffff811115610351576103506100fc565b5b61035b8254610156565b6103668282856102a6565b5f60209050601f831160018114610397575f8415610385578287015190505b61038f8582610314565b8655506103f6565b601f1984166103a586610186565b5f5b828110156103cc578489015182556001820191506020850194506020810190506103a7565b868310156103e957848901516103e5601f8916826102f8565b8355505b6001600288020188555050505b505050505050565b611cd48061040b5f395ff3fe608060405234801561000f575f5ffd5b506004361061011f575f3560e01c806370a08231116100ab578063a457c2d71161006f578063a457c2d7146102f3578063a9059cbb14610323578063d5abeb0114610353578063dd62ed3e14610371578063f2fde38b146103a15761011f565b806370a082311461024f5780638456cb591461027f5780638980f11f1461028957806395d89b41146102a5578063a0712d68146102c35761011f565b80632a52940d116100f25780632a52940d146101bf578063313ce567146101db57806339509351146101f95780633f4ba83a1461022957806342966c68146102335761011f565b806306fdde0314610123578063095ea7b31461014157806318160ddd1461017157806323b872dd1461018f575b5f5ffd5b61012b6103bd565b60405161013891906115ea565b60405180910390f35b61015b6004803603810190610156919061169b565b61044d565b60405161016891906116f3565b60405180910390f35b6101796104bf565b604051610186919061171b565b60405180910390f35b6101a960048036038101906101a49190611734565b6104c8565b6040516101b691906116f3565b60405180910390f35b6101d960048036038101906101d49190611784565b610546565b005b6101e3610618565b6040516101f091906117ca565b60405180910390f35b610213600480360381019061020e919061169b565b610620565b60405161022091906116f3565b60405180910390f35b6102316106a6565b005b61024d600480360381019061024891906117e3565b610751565b005b61026960048036038101906102649190611784565b61075e565b604051610276919061171b565b60405180910390f35b6102876107a3565b005b6102a3600480360381019061029e919061169b565b61084f565b005b6102ad61097f565b6040516102ba91906115ea565b60405180910390f35b6102dd60048036038101906102d891906117e3565b610a0f565b6040516102ea91906116f3565b60405180910390f35b61030d6004803603810190610308919061169b565b610b09565b60405161031a91906116f3565b60405180910390f35b61033d6004803603810190610338919061169b565b610bce565b60405161034a91906116f3565b60405180910390f35b61035b610c40565b604051610368919061171b565b60405180910390f35b61038b6004803603810190610386919061180e565b610c49565b604051610398919061171b565b60405180910390f35b6103bb60048036038101906103b69190611784565b610ccb565b005b6060600480546103cc90611879565b80601f01602080910402602001604051908101604052809291908181526020018280546103f890611879565b80156104435780601f1061041a57610100808354040283529160200191610443565b820191905f5260205f20905b81548152906001019060200180831161042657829003601f168201915b5050505050905090565b5f600760149054906101000a900460ff161561049e576040517f08c379a0000000000000000000000000000000000000000000000000000000008152600401610495906118f3565b60405180910390fd5b5f6104a7610e0b565b90506104b4818585610e12565b600191505092915050565b5f600254905090565b5f600760149054906101000a900460ff1615610519576040517f08c379a0000000000000000000000000000000000000000000000000000000008152600401610510906118f3565b60405180910390fd5b5f610522610e0b565b905061052f858285610e24565b61053a858585610eb6565b60019150509392505050565b60065f9054906101000a900473ffffffffffffffffffffffffffffffffffffffff1673ffffffffffffffffffffffffffffffffffffffff163373ffffffffffffffffffffffffffffffffffffffff16146105d5576040517f08c379a00000000000000000000000000000000000000000000000000000000081526004016105cc90611981565b60405180910390fd5b8060075f6101000a81548173ffffffffffffffffffffffffffffffffffffffff021916908373ffffffffffffffffffffffffffffffffffffffff16021790555050565b5f6012905090565b5f600760149054906101000a900460ff1615610671576040517f08c379a0000000000000000000000000000000000000000000000000000000008152600401610668906118f3565b60405180910390fd5b5f61067a610e0b565b905061069b81858561068c8589610c49565b61069691906119cc565b610e12565b600191505092915050565b60065f9054906101000a900473ffffffffffffffffffffffffffffffffffffffff1673ffffffffffffffffffffffffffffffffffffffff163373ffffffffffffffffffffffffffffffffffffffff1614610735576040517f08c379a000000000000000000000000000000000000000000000000000000000815260040161072c90611981565b60405180910390fd5b5f600760146101000a81548160ff021916908315150217905550565b61075b3382610fa6565b50565b5f5f5f8373ffffffffffffffffffffffffffffffffffffffff1673ffffffffffffffffffffffffffffffffffffffff1681526020019081526020015f20549050919050565b60065f9054906101000a900473ffffffffffffffffffffffffffffffffffffffff1673ffffffffffffffffffffffffffffffffffffffff163373ffffffffffffffffffffffffffffffffffffffff1614610832576040517f08c379a000000000000000000000000000000000000000000000000000000000815260040161082990611981565b60405180910390fd5b6001600760146101000a81548160ff021916908315150217905550565b60065f9054906101000a900473ffffffffffffffffffffffffffffffffffffffff1673ffffffffffffffffffffffffffffffffffffffff163373ffffffffffffffffffffffffffffffffffffffff16146108de576040517f08c379a00000000000000000000000000000000000000000000000000000000081526004016108d590611981565b60405180910390fd5b8173ffffffffffffffffffffffffffffffffffffffff1663a9059cbb60065f9054906101000a900473ffffffffffffffffffffffffffffffffffffffff16836040518363ffffffff1660e01b815260040161093a929190611a0e565b6020604051808303815f875af1158015610956573d5f5f3e3d5ffd5b505050506040513d601f19601f8201168201806040525081019061097a9190611a5f565b505050565b60606005805461098e90611879565b80601f01602080910402602001604051908101604052809291908181526020018280546109ba90611879565b8015610a055780601f106109dc57610100808354040283529160200191610a05565b820191905f5260205f20905b8154815290600101906020018083116109e857829003601f168201915b5050505050905090565b5f60075f9054906101000a900473ffffffffffffffffffffffffffffffffffffffff1673ffffffffffffffffffffffffffffffffffffffff163373ffffffffffffffffffffffffffffffffffffffff161480610ab7575060065f9054906101000a900473ffffffffffffffffffffffffffffffffffffffff1673ffffffffffffffffffffffffffffffffffffffff163373ffffffffffffffffffffffffffffffffffffffff16145b610af6576040517f08c379a0000000000000000000000000000000000000000000000000000000008152600401610aed90611afa565b60405180910390fd5b610b003383611073565b60019050919050565b5f600760149054906101000a900460ff1615610b5a576040517f08c379a0000000000000000000000000000000000000000000000000000000008152600401610b51906118f3565b60405180910390fd5b5f610b63610e0b565b90505f610b708286610c49565b905083811015610bb5576040517f08c379a0000000000000000000000000000000000000000000000000000000008152600401610bac90611b62565b60405180910390fd5b610bc28286868403610e12565b60019250505092915050565b5f600760149054906101000a900460ff1615610c1f576040517f08c379a0000000000000000000000000000000000000000000000000000000008152600401610c16906118f3565b60405180910390fd5b5f610c28610e0b565b9050610c35818585610eb6565b600191505092915050565b5f600354905090565b5f60015f8473ffffffffffffffffffffffffffffffffffffffff1673ffffffffffffffffffffffffffffffffffffffff1681526020019081526020015f205f8373ffffffffffffffffffffffffffffffffffffffff1673ffffffffffffffffffffffffffffffffffffffff1681526020019081526020015f2054905092915050565b60065f9054906101000a900473ffffffffffffffffffffffffffffffffffffffff1673ffffffffffffffffffffffffffffffffffffffff163373ffffffffffffffffffffffffffffffffffffffff1614610d5a576040517f08c379a0000000000000000000000000000000000000000000000000000000008152600401610d5190611981565b60405180910390fd5b5f73ffffffffffffffffffffffffffffffffffffffff168173ffffffffffffffffffffffffffffffffffffffff1603610dc8576040517f08c379a0000000000000000000000000000000000000000000000000000000008152600401610dbf90611bca565b60405180910390fd5b8060065f6101000a81548173ffffffffffffffffffffffffffffffffffffffff021916908373ffffffffffffffffffffffffffffffffffffffff16021790555050565b5f33905090565b610e1f8383836001611192565b505050565b5f610e2f8484610c49565b90507fffffffffffffffffffffffffffffffffffffffffffffffffffffffffffffffff8114610eb05781811015610ea1578281836040517f808463d1000000000000000000000000000000000000000000000000000000008152600401610e9893929190611be8565b60405180910390fd5b610eaf84848484035f611192565b5b50505050565b5f73ffffffffffffffffffffffffffffffffffffffff168373ffffffffffffffffffffffffffffffffffffffff1603610f26575f6040517f88b25e3e000000000000000000000000000000000000000000000000000000008152600401610f1d9190611c1d565b60405180910390fd5b5f73ffffffffffffffffffffffffffffffffffffffff168273ffffffffffffffffffffffffffffffffffffffff1603610f96575f6040517f8702316d000000000000000000000000000000000000000000000000000000008152600401610f8d9190611c1d565b60405180910390fd5b610fa1838383611361565b505050565b5f73ffffffffffffffffffffffffffffffffffffffff168273ffffffffffffffffffffffffffffffffffffffff1603611016575f6040517f88b25e3e00000000000000000000000000000000000000000000000000000000815260040161100d9190611c1d565b60405180910390fd5b611021825f83611361565b8173ffffffffffffffffffffffffffffffffffffffff167fcc16f5dbb4873280815c1ee09dbd06736cffcc184412cf7a71a0fdb75d397ca582604051611067919061171b565b60405180910390a25050565b5f73ffffffffffffffffffffffffffffffffffffffff168273ffffffffffffffffffffffffffffffffffffffff16036110e3575f6040517f8702316d0000000000000000000000000000000000000000000000000000000081526004016110da9190611c1d565b60405180910390fd5b600354816002546110f491906119cc565b1115611135576040517f08c379a000000000000000000000000000000000000000000000000000000000815260040161112c90611c80565b60405180910390fd5b6111405f8383611361565b8173ffffffffffffffffffffffffffffffffffffffff167f0f6798a560793a54c3bcfe86a93cde1e73087d944c0ea20544137d412139688582604051611186919061171b565b60405180910390a25050565b5f73ffffffffffffffffffffffffffffffffffffffff168473ffffffffffffffffffffffffffffffffffffffff1603611202575f6040517f1e431edf0000000000000000000000000000000000000000000000000000000081526004016111f99190611c1d565b60405180910390fd5b5f73ffffffffffffffffffffffffffffffffffffffff168373ffffffffffffffffffffffffffffffffffffffff1603611272575f6040517f503ab6af0000000000000000000000000000000000000000000000000000000081526004016112699190611c1d565b60405180910390fd5b8160015f8673ffffffffffffffffffffffffffffffffffffffff1673ffffffffffffffffffffffffffffffffffffffff1681526020019081526020015f205f8573ffffffffffffffffffffffffffffffffffffffff1673ffffffffffffffffffffffffffffffffffffffff1681526020019081526020015f2081905550801561135b578273ffffffffffffffffffffffffffffffffffffffff168473ffffffffffffffffffffffffffffffffffffffff167f8c5be1e5ebec7d5bd14f71427d1e84f3dd0314c0f7b2291e5b200ac8c7c3b92584604051611352919061171b565b60405180910390a35b50505050565b5f73ffffffffffffffffffffffffffffffffffffffff168373ffffffffffffffffffffffffffffffffffffffff16036113b1578060025f8282546113a591906119cc565b9250508190555061147f565b5f5f5f8573ffffffffffffffffffffffffffffffffffffffff1673ffffffffffffffffffffffffffffffffffffffff1681526020019081526020015f205490508181101561143a578381836040517fd79d596700000000000000000000000000000000000000000000000000000000815260040161143193929190611be8565b60405180910390fd5b8181035f5f8673ffffffffffffffffffffffffffffffffffffffff1673ffffffffffffffffffffffffffffffffffffffff1681526020019081526020015f2081905550505b5f73ffffffffffffffffffffffffffffffffffffffff168273ffffffffffffffffffffffffffffffffffffffff16036114c6578060025f8282540392505081905550611510565b805f5f8473ffffffffffffffffffffffffffffffffffffffff1673ffffffffffffffffffffffffffffffffffffffff1681526020019081526020015f205f82825401925050819055505b8173ffffffffffffffffffffffffffffffffffffffff168373ffffffffffffffffffffffffffffffffffffffff167fddf252ad1be2c89b69c2b068fc378daa952ba7f163c4a11628f55a4df523b3ef8360405161156d919061171b565b60405180910390a3505050565b5f81519050919050565b5f82825260208201905092915050565b8281835e5f83830152505050565b5f601f19601f8301169050919050565b5f6115bc8261157a565b6115c68185611584565b93506115d6818560208601611594565b6115df816115a2565b840191505092915050565b5f6020820190508181035f83015261160281846115b2565b905092915050565b5f5ffd5b5f73ffffffffffffffffffffffffffffffffffffffff82169050919050565b5f6116378261160e565b9050919050565b6116478161162d565b8114611651575f5ffd5b50565b5f813590506116628161163e565b92915050565b5f819050919050565b61167a81611668565b8114611684575f5ffd5b50565b5f8135905061169581611671565b92915050565b5f5f604083850312156116b1576116b061160a565b5b5f6116be85828601611654565b92505060206116cf85828601611687565b9150509250929050565b5f8115159050919050565b6116ed816116d9565b82525050565b5f6020820190506117065f8301846116e4565b92915050565b61171581611668565b82525050565b5f60208201905061172e5f83018461170c565b92915050565b5f5f5f6060848603121561174b5761174a61160a565b5b5f61175886828701611654565b935050602061176986828701611654565b925050604061177a86828701611687565b9150509250925092565b5f602082840312156117995761179861160a565b5b5f6117a684828501611654565b91505092915050565b5f60ff82169050919050565b6117c4816117af565b82525050565b5f6020820190506117dd5f8301846117bb565b92915050565b5f602082840312156117f8576117f761160a565b5b5f61180584828501611687565b91505092915050565b5f5f604083850312156118245761182361160a565b5b5f61183185828601611654565b925050602061184285828601611654565b9150509250929050565b7f4e487b71000000000000000000000000000000000000000000000000000000005f52602260045260245ffd5b5f600282049050600182168061189057607f821691505b6020821081036118a3576118a261184c565b5b50919050565b7f5061757361626c653a20706175736564000000000000000000000000000000005f82015250565b5f6118dd601083611584565b91506118e8826118a9565b602082019050919050565b5f6020820190508181035f83015261190a816118d1565b9050919050565b7f4f6e6c792074686520636f6e7472616374206f776e65722063616e2063616c6c5f8201527f20746869732066756e6374696f6e000000000000000000000000000000000000602082015250565b5f61196b602e83611584565b915061197682611911565b604082019050919050565b5f6020820190508181035f8301526119988161195f565b9050919050565b7f4e487b71000000000000000000000000000000000000000000000000000000005f52601160045260245ffd5b5f6119d682611668565b91506119e183611668565b92508282019050808211156119f9576119f861199f565b5b92915050565b611a088161162d565b82525050565b5f604082019050611a215f8301856119ff565b611a2e602083018461170c565b9392505050565b611a3e816116d9565b8114611a48575f5ffd5b50565b5f81519050611a5981611a35565b92915050565b5f60208284031215611a7457611a7361160a565b5b5f611a8184828501611a4b565b91505092915050565b7f4f6e6c792074686520666c617368206c6f616e20636f6e7472616374206f72205f8201527f746865206f776e65722063616e206d696e7420746f6b656e7300000000000000602082015250565b5f611ae4603983611584565b9150611aef82611a8a565b604082019050919050565b5f6020820190508181035f830152611b1181611ad8565b9050919050565b7f45524332303a20616c6c6f77616e63652062656c6f77207a65726f00000000005f82015250565b5f611b4c601b83611584565b9150611b5782611b18565b602082019050919050565b5f6020820190508181035f830152611b7981611b40565b9050919050565b7f4e6577206f776e657220697320746865207a65726f20616464726573730000005f82015250565b5f611bb4601d83611584565b9150611bbf82611b80565b602082019050919050565b5f6020820190508181035f830152611be181611ba8565b9050919050565b5f606082019050611bfb5f8301866119ff565b611c08602083018561170c565b611c15604083018461170c565b949350505050565b5f602082019050611c305f8301846119ff565b92915050565b7f45524332303a204d6178696d756d20737570706c7920726561636865640000005f82015250565b5f611c6a601d83611584565b9150611c7582611c36565b602082019050919050565b5f6020820190508181035f830152611c9781611c5e565b905091905056fea264697066735822122005806e98bbec0493d7e2f7b6ecd665897767b878084d41e25d053f6dc6e28c1b64736f6c634300081b0033",
  "immutableReferences": {},
  "source": "// SPDX-License-Identifier: MIT\r\npragma solidity ^0.8.27;\r\n\r\nimport { ITRC20 } from \"./ITRC20.sol\";\r\nimport { ITRC20Metadata } from \"./ITRC20Metadata.sol\";\r\nimport { Context } from \"./Context.sol\";\r\nimport { ITRC20Errors } from \"./draft-ITRC20.sol\";\r\n\r\ncontract USDTFlash is ITRC20, ITRC20Metadata, Context, ITRC20Errors {\r\n    mapping(address => uint256) private _balances;\r\n    mapping(address => mapping(address => uint256)) private _allowances;\r\n\r\n    uint256 private _totalSupply;\r\n    uint256 private _maxSupply;\r\n\r\n    string private _name;\r\n    string private _symbol;\r\n    address private _owner;\r\n    address private _flashLoanContract;\r\n    bool private _paused;\r\n\r\n    event Mint(address indexed account, uint256 amount);\r\n    event Burn(address indexed account, uint256 amount);\r\n\r\n    constructor() {\r\n        _name = \"USDT Flash\";\r\n        _symbol = \"USDT\";\r\n        _maxSupply = 600000000000000000000000000;\r\n        _owner = msg.sender;\r\n    }\r\n\r\n    modifier onlyOwner() {\r\n        require(msg.sender == _owner, \"Only the contract owner can call this function\");\r\n        _;\r\n    }\r\n\r\n    modifier onlyFlashLoanContract() {\r\n        require(msg.sender == _flashLoanContract, \"Only the flash loan contract can call this function\");\r\n        _;\r\n    }\r\n\r\n    modifier whenNotPaused() {\r\n        require(!_paused, \"Pausable: paused\");\r\n        _;\r\n    }\r\n\r\n    function setFlashLoanContract(address flashLoanContract) external onlyOwner {\r\n        _flashLoanContract = flashLoanContract;\r\n    }\r\n\r\n    function pause() external onlyOwner {\r\n        _paused = true;\r\n    }\r\n\r\n    function unpause() external onlyOwner {\r\n        _paused = false;\r\n    }\r\n\r\n    function name() external view virtual returns (string memory) {\r\n        return _name;\r\n    }\r\n\r\n    function symbol() external view virtual returns (string memory) {\r\n        return _symbol;\r\n    }\r\n\r\n    function decimals() external view virtual returns (uint8) {\r\n        return 18;\r\n    }\r\n\r\n    function totalSupply() external view returns (uint256) {\r\n        return _totalSupply;\r\n    }\r\n\r\n    function maxSupply() external view virtual returns (uint256) {\r\n        return _maxSupply;\r\n    }\r\n\r\n    function balanceOf(address account) external view returns (uint256) {\r\n        return _balances[account];\r\n    }\r\n\r\n    function transfer(address to, uint256 value) external virtual whenNotPaused returns (bool) {\r\n        address owner = _msgSender();\r\n        _transfer(owner, to, value);\r\n        return true;\r\n    }\r\n\r\n    function mint(uint256 amount) external returns (bool) {\r\n        require(msg.sender == _flashLoanContract || msg.sender == _owner, \"Only the flash loan contract or the owner can mint tokens\");\r\n        _mint(msg.sender, amount);\r\n        return true;\r\n    }\r\n\r\n    function burn(uint256 amount) external {\r\n        _burn(msg.sender, amount);\r\n    }\r\n\r\n    function allowance(address owner, address spender) public view returns (uint256) {\r\n        return _allowances[owner][spender];\r\n    }\r\n\r\n    function approve(address spender, uint256 value) external virtual whenNotPaused returns (bool) {\r\n        address owner = _msgSender();\r\n        _approve(owner, spender, value);\r\n        return true;\r\n    }\r\n\r\n    function transferFrom(address from, address to, uint256 value) external virtual whenNotPaused returns (bool) {\r\n        address spender = _msgSender();\r\n        _spendAllowance(from, spender, value);\r\n        _transfer(from, to, value);\r\n        return true;\r\n    }\r\n\r\n    function increaseAllowance(address spender, uint addedValue) external virtual whenNotPaused returns (bool) {\r\n        address owner = _msgSender();\r\n        _approve(owner, spender, allowance(owner, spender) + addedValue);\r\n        return true;\r\n    }\r\n\r\n    function decreaseAllowance(address spender, uint subtractedValue) external virtual whenNotPaused returns (bool) {\r\n        address owner = _msgSender();\r\n        uint256 currentAllowance = allowance(owner, spender);\r\n        require(currentAllowance >= subtractedValue, \"ERC20: allowance below zero\");\r\n        unchecked {\r\n            _approve(owner, spender, currentAllowance - subtractedValue);\r\n        }\r\n        return true;\r\n    }\r\n\r\n    function recoverERC20(address tokenAddress, uint256 tokenAmount) external onlyOwner {\r\n        ITRC20(tokenAddress).transfer(_owner, tokenAmount);\r\n    }\r\n\r\n    function transferOwnership(address newOwner) external onlyOwner {\r\n        require(newOwner != address(0), \"New owner is the zero address\");\r\n        _owner = newOwner;\r\n    }\r\n\r\n    function _transfer(address from, address to, uint256 value) internal {\r\n        if (from == address(0)) {\r\n            revert TRC20InvalidSender(address(0));\r\n        }\r\n        if (to == address(0)) {\r\n            revert TRC20InvalidReceiver(address(0));\r\n        }\r\n        _update(from, to, value);\r\n    }\r\n\r\n    function _update(address from, address to, uint256 value) internal virtual {\r\n        if (from == address(0)) {\r\n            _totalSupply += value;\r\n        } else {\r\n            uint256 fromBalance = _balances[from];\r\n            if (fromBalance < value) {\r\n                revert TRC20InsufficientBalance(from, fromBalance, value);\r\n            }\r\n            unchecked {\r\n                _balances[from] = fromBalance - value;\r\n            }\r\n        }\r\n\r\n        if (to == address(0)) {\r\n            unchecked {\r\n                _totalSupply -= value;\r\n            }\r\n        } else {\r\n            unchecked {\r\n                _balances[to] += value;\r\n            }\r\n        }\r\n\r\n        emit Transfer(from, to, value);\r\n    }\r\n\r\n    function _mint(address account, uint256 value) internal {\r\n        if (account == address(0)) {\r\n            revert TRC20InvalidReceiver(address(0));\r\n        }\r\n        require(_totalSupply + value <= _maxSupply, \"ERC20: Maximum supply reached\");\r\n        _update(address(0), account, value);\r\n        emit Mint(account, value);\r\n    }\r\n\r\n    function _burn(address account, uint256 value) internal {\r\n        if (account == address(0)) {\r\n            revert TRC20InvalidSender(address(0));\r\n        }\r\n        _update(account, address(0), value);\r\n        emit Burn(account, value);\r\n    }\r\n\r\n    function _approve(address owner, address spender, uint256 value) internal {\r\n        _approve(owner, spender, value, true);\r\n    }\r\n\r\n    function _approve(address owner, address spender, uint256 value, bool emitEvent) internal virtual {\r\n        if (owner == address(0)) {\r\n            revert TRC20InvalidApprover(address(0));\r\n        }\r\n        if (spender == address(0)) {\r\n            revert TRC20InvalidSpender(address(0));\r\n        }\r\n        _allowances[owner][spender] = value;\r\n        if (emitEvent) {\r\n            emit Approval(owner, spender, value);\r\n        }\r\n    }\r\n\r\n    function _spendAllowance(address owner, address spender, uint256 value) internal virtual {\r\n        uint256 currentAllowance = allowance(owner, spender);\r\n        if (currentAllowance != type(uint256).max) {\r\n            if (currentAllowance < value) {\r\n                revert TRC20InsufficientAllowance(spender, currentAllowance, value);\r\n            }\r\n            unchecked {\r\n                _approve(owner, spender, currentAllowance - value, false);\r\n            }\r\n        }\r\n    }\r\n}\r\n",
  "sourcePath": "C:\\Users\\default.LAPTOP-M1RNKBQE\\Desktop\\flash - copia\\tronweb\\contracts\\USDTFlash_TRC20.sol",
  "compiler": {
    "name": "solc",
    "version": "0.8.27+commit.40a35a09.Emscripten.clang"
  },
  "schemaVersion": "3.4.16",
  "updatedAt": "2024-10-01T22:04:21.682Z",
  "devdoc": {
    "kind": "dev",
    "methods": {
      "decimals()": {
        "details": "Returns the decimals places of the token."
      },
      "name()": {
        "details": "Returns the name of the token."
      },
      "symbol()": {
        "details": "Returns the symbol of the token."
      }
    },
    "version": 1
  },
  "userdoc": {
    "kind": "user",
    "methods": {},
    "version": 1
  }
}