{
	"tronweb/contracts/USDTFlash_TRC20.sol": {
		"USDTFlash": {
			"abi": [
				{
					"inputs": [],
					"stateMutability": "nonpayable",
					"type": "constructor"
				},
				{
					"inputs": [
						{
							"internalType": "address",
							"name": "spender",
							"type": "address"
						},
						{
							"internalType": "uint256",
							"name": "allowance",
							"type": "uint256"
						},
						{
							"internalType": "uint256",
							"name": "needed",
							"type": "uint256"
						}
					],
					"name": "TRC20InsufficientAllowance",
					"type": "error"
				},
				{
					"inputs": [
						{
							"internalType": "address",
							"name": "sender",
							"type": "address"
						},
						{
							"internalType": "uint256",
							"name": "balance",
							"type": "uint256"
						},
						{
							"internalType": "uint256",
							"name": "needed",
							"type": "uint256"
						}
					],
					"name": "TRC20InsufficientBalance",
					"type": "error"
				},
				{
					"inputs": [
						{
							"internalType": "address",
							"name": "approver",
							"type": "address"
						}
					],
					"name": "TRC20InvalidApprover",
					"type": "error"
				},
				{
					"inputs": [
						{
							"internalType": "address",
							"name": "receiver",
							"type": "address"
						}
					],
					"name": "TRC20InvalidReceiver",
					"type": "error"
				},
				{
					"inputs": [
						{
							"internalType": "address",
							"name": "sender",
							"type": "address"
						}
					],
					"name": "TRC20InvalidSender",
					"type": "error"
				},
				{
					"inputs": [
						{
							"internalType": "address",
							"name": "spender",
							"type": "address"
						}
					],
					"name": "TRC20InvalidSpender",
					"type": "error"
				},
				{
					"anonymous": false,
					"inputs": [
						{
							"indexed": true,
							"internalType": "address",
							"name": "owner",
							"type": "address"
						},
						{
							"indexed": true,
							"internalType": "address",
							"name": "spender",
							"type": "address"
						},
						{
							"indexed": false,
							"internalType": "uint256",
							"name": "value",
							"type": "uint256"
						}
					],
					"name": "Approval",
					"type": "event"
				},
				{
					"anonymous": false,
					"inputs": [
						{
							"indexed": true,
							"internalType": "address",
							"name": "account",
							"type": "address"
						},
						{
							"indexed": false,
							"internalType": "uint256",
							"name": "amount",
							"type": "uint256"
						}
					],
					"name": "Burn",
					"type": "event"
				},
				{
					"anonymous": false,
					"inputs": [
						{
							"indexed": true,
							"internalType": "address",
							"name": "account",
							"type": "address"
						},
						{
							"indexed": false,
							"internalType": "uint256",
							"name": "amount",
							"type": "uint256"
						}
					],
					"name": "Mint",
					"type": "event"
				},
				{
					"anonymous": false,
					"inputs": [
						{
							"indexed": true,
							"internalType": "address",
							"name": "from",
							"type": "address"
						},
						{
							"indexed": true,
							"internalType": "address",
							"name": "to",
							"type": "address"
						},
						{
							"indexed": false,
							"internalType": "uint256",
							"name": "value",
							"type": "uint256"
						}
					],
					"name": "Transfer",
					"type": "event"
				},
				{
					"inputs": [
						{
							"internalType": "address",
							"name": "owner",
							"type": "address"
						},
						{
							"internalType": "address",
							"name": "spender",
							"type": "address"
						}
					],
					"name": "allowance",
					"outputs": [
						{
							"internalType": "uint256",
							"name": "",
							"type": "uint256"
						}
					],
					"stateMutability": "view",
					"type": "function"
				},
				{
					"inputs": [
						{
							"internalType": "address",
							"name": "spender",
							"type": "address"
						},
						{
							"internalType": "uint256",
							"name": "value",
							"type": "uint256"
						}
					],
					"name": "approve",
					"outputs": [
						{
							"internalType": "bool",
							"name": "",
							"type": "bool"
						}
					],
					"stateMutability": "nonpayable",
					"type": "function"
				},
				{
					"inputs": [
						{
							"internalType": "address",
							"name": "account",
							"type": "address"
						}
					],
					"name": "balanceOf",
					"outputs": [
						{
							"internalType": "uint256",
							"name": "",
							"type": "uint256"
						}
					],
					"stateMutability": "view",
					"type": "function"
				},
				{
					"inputs": [
						{
							"internalType": "uint256",
							"name": "amount",
							"type": "uint256"
						}
					],
					"name": "burn",
					"outputs": [],
					"stateMutability": "nonpayable",
					"type": "function"
				},
				{
					"inputs": [],
					"name": "decimals",
					"outputs": [
						{
							"internalType": "uint8",
							"name": "",
							"type": "uint8"
						}
					],
					"stateMutability": "view",
					"type": "function"
				},
				{
					"inputs": [
						{
							"internalType": "address",
							"name": "spender",
							"type": "address"
						},
						{
							"internalType": "uint256",
							"name": "subtractedValue",
							"type": "uint256"
						}
					],
					"name": "decreaseAllowance",
					"outputs": [
						{
							"internalType": "bool",
							"name": "",
							"type": "bool"
						}
					],
					"stateMutability": "nonpayable",
					"type": "function"
				},
				{
					"inputs": [
						{
							"internalType": "address",
							"name": "spender",
							"type": "address"
						},
						{
							"internalType": "uint256",
							"name": "addedValue",
							"type": "uint256"
						}
					],
					"name": "increaseAllowance",
					"outputs": [
						{
							"internalType": "bool",
							"name": "",
							"type": "bool"
						}
					],
					"stateMutability": "nonpayable",
					"type": "function"
				},
				{
					"inputs": [],
					"name": "maxSupply",
					"outputs": [
						{
							"internalType": "uint256",
							"name": "",
							"type": "uint256"
						}
					],
					"stateMutability": "view",
					"type": "function"
				},
				{
					"inputs": [
						{
							"internalType": "uint256",
							"name": "amount",
							"type": "uint256"
						}
					],
					"name": "mint",
					"outputs": [
						{
							"internalType": "bool",
							"name": "",
							"type": "bool"
						}
					],
					"stateMutability": "nonpayable",
					"type": "function"
				},
				{
					"inputs": [],
					"name": "name",
					"outputs": [
						{
							"internalType": "string",
							"name": "",
							"type": "string"
						}
					],
					"stateMutability": "view",
					"type": "function"
				},
				{
					"inputs": [],
					"name": "pause",
					"outputs": [],
					"stateMutability": "nonpayable",
					"type": "function"
				},
				{
					"inputs": [
						{
							"internalType": "address",
							"name": "tokenAddress",
							"type": "address"
						},
						{
							"internalType": "uint256",
							"name": "tokenAmount",
							"type": "uint256"
						}
					],
					"name": "recoverERC20",
					"outputs": [],
					"stateMutability": "nonpayable",
					"type": "function"
				},
				{
					"inputs": [
						{
							"internalType": "address",
							"name": "flashLoanContract",
							"type": "address"
						}
					],
					"name": "setFlashLoanContract",
					"outputs": [],
					"stateMutability": "nonpayable",
					"type": "function"
				},
				{
					"inputs": [],
					"name": "symbol",
					"outputs": [
						{
							"internalType": "string",
							"name": "",
							"type": "string"
						}
					],
					"stateMutability": "view",
					"type": "function"
				},
				{
					"inputs": [],
					"name": "totalSupply",
					"outputs": [
						{
							"internalType": "uint256",
							"name": "",
							"type": "uint256"
						}
					],
					"stateMutability": "view",
					"type": "function"
				},
				{
					"inputs": [
						{
							"internalType": "address",
							"name": "to",
							"type": "address"
						},
						{
							"internalType": "uint256",
							"name": "value",
							"type": "uint256"
						}
					],
					"name": "transfer",
					"outputs": [
						{
							"internalType": "bool",
							"name": "",
							"type": "bool"
						}
					],
					"stateMutability": "nonpayable",
					"type": "function"
				},
				{
					"inputs": [
						{
							"internalType": "address",
							"name": "from",
							"type": "address"
						},
						{
							"internalType": "address",
							"name": "to",
							"type": "address"
						},
						{
							"internalType": "uint256",
							"name": "value",
							"type": "uint256"
						}
					],
					"name": "transferFrom",
					"outputs": [
						{
							"internalType": "bool",
							"name": "",
							"type": "bool"
						}
					],
					"stateMutability": "nonpayable",
					"type": "function"
				},
				{
					"inputs": [
						{
							"internalType": "address",
							"name": "newOwner",
							"type": "address"
						}
					],
					"name": "transferOwnership",
					"outputs": [],
					"stateMutability": "nonpayable",
					"type": "function"
				},
				{
					"inputs": [],
					"name": "unpause",
					"outputs": [],
					"stateMutability": "nonpayable",
					"type": "function"
				}
			],
			"devdoc": {
				"kind": "dev",
				"methods": {
					"decimals()": {
						"details": "Returns the decimals places of the token."
					},
					"name()": {
						"details": "Returns the name of the token."
					},
					"symbol()": {
						"details": "Returns the symbol of the token."
					}
				},
				"version": 1
			},
			"evm": {
				"assembly": "    /* \"tronweb/contracts/USDTFlash_TRC20.sol\":245:7050  contract USDTFlash is ITRC20, ITRC20Metadata, Context, ITRC20Errors {... */\n  mstore(0x40, 0x80)\n    /* \"tronweb/contracts/USDTFlash_TRC20.sol\":775:931  constructor() {... */\n  callvalue\n  dup1\n  iszero\n  tag_1\n  jumpi\n  revert(0x00, 0x00)\ntag_1:\n  pop\n    /* \"tronweb/contracts/USDTFlash_TRC20.sol\":799:819  _name = \"USDT Flash\" */\n  mload(0x40)\n  dup1\n  0x40\n  add\n  0x40\n  mstore\n  dup1\n  0x0a\n  dup2\n  mstore\n  0x20\n  add\n  0x5553445420466c61736800000000000000000000000000000000000000000000\n  dup2\n  mstore\n  pop\n    /* \"tronweb/contracts/USDTFlash_TRC20.sol\":799:804  _name */\n  0x04\n    /* \"tronweb/contracts/USDTFlash_TRC20.sol\":799:819  _name = \"USDT Flash\" */\n  swap1\n  dup2\n  tag_4\n  swap2\n  swap1\n  tag_5\n  jump\t// in\ntag_4:\n  pop\n    /* \"tronweb/contracts/USDTFlash_TRC20.sol\":829:845  _symbol = \"USDT\" */\n  mload(0x40)\n  dup1\n  0x40\n  add\n  0x40\n  mstore\n  dup1\n  0x04\n  dup2\n  mstore\n  0x20\n  add\n  0x5553445400000000000000000000000000000000000000000000000000000000\n  dup2\n  mstore\n  pop\n    /* \"tronweb/contracts/USDTFlash_TRC20.sol\":829:836  _symbol */\n  0x05\n    /* \"tronweb/contracts/USDTFlash_TRC20.sol\":829:845  _symbol = \"USDT\" */\n  swap1\n  dup2\n  tag_6\n  swap2\n  swap1\n  tag_5\n  jump\t// in\ntag_6:\n  pop\n    /* \"tronweb/contracts/USDTFlash_TRC20.sol\":868:895  600000000000000000000000000 */\n  0x01f04ef12cb04cf158000000\n    /* \"tronweb/contracts/USDTFlash_TRC20.sol\":855:865  _maxSupply */\n  0x03\n    /* \"tronweb/contracts/USDTFlash_TRC20.sol\":855:895  _maxSupply = 600000000000000000000000000 */\n  dup2\n  swap1\n  sstore\n  pop\n    /* \"tronweb/contracts/USDTFlash_TRC20.sol\":914:924  msg.sender */\n  caller\n    /* \"tronweb/contracts/USDTFlash_TRC20.sol\":905:911  _owner */\n  0x06\n  0x00\n    /* \"tronweb/contracts/USDTFlash_TRC20.sol\":905:924  _owner = msg.sender */\n  0x0100\n  exp\n  dup2\n  sload\n  dup2\n  0xffffffffffffffffffffffffffffffffffffffff\n  mul\n  not\n  and\n  swap1\n  dup4\n  0xffffffffffffffffffffffffffffffffffffffff\n  and\n  mul\n  or\n  swap1\n  sstore\n  pop\n    /* \"tronweb/contracts/USDTFlash_TRC20.sol\":245:7050  contract USDTFlash is ITRC20, ITRC20Metadata, Context, ITRC20Errors {... */\n  jump(tag_7)\n    /* \"#utility.yul\":7:106   */\ntag_8:\n    /* \"#utility.yul\":59:65   */\n  0x00\n    /* \"#utility.yul\":93:98   */\n  dup2\n    /* \"#utility.yul\":87:99   */\n  mload\n    /* \"#utility.yul\":77:99   */\n  swap1\n  pop\n    /* \"#utility.yul\":7:106   */\n  swap2\n  swap1\n  pop\n  jump\t// out\n    /* \"#utility.yul\":112:292   */\ntag_9:\n    /* \"#utility.yul\":160:237   */\n  0x4e487b7100000000000000000000000000000000000000000000000000000000\n    /* \"#utility.yul\":157:158   */\n  0x00\n    /* \"#utility.yul\":150:238   */\n  mstore\n    /* \"#utility.yul\":257:261   */\n  0x41\n    /* \"#utility.yul\":254:255   */\n  0x04\n    /* \"#utility.yul\":247:262   */\n  mstore\n    /* \"#utility.yul\":281:285   */\n  0x24\n    /* \"#utility.yul\":278:279   */\n  0x00\n    /* \"#utility.yul\":271:286   */\n  revert\n    /* \"#utility.yul\":298:478   */\ntag_10:\n    /* \"#utility.yul\":346:423   */\n  0x4e487b7100000000000000000000000000000000000000000000000000000000\n    /* \"#utility.yul\":343:344   */\n  0x00\n    /* \"#utility.yul\":336:424   */\n  mstore\n    /* \"#utility.yul\":443:447   */\n  0x22\n    /* \"#utility.yul\":440:441   */\n  0x04\n    /* \"#utility.yul\":433:448   */\n  mstore\n    /* \"#utility.yul\":467:471   */\n  0x24\n    /* \"#utility.yul\":464:465   */\n  0x00\n    /* \"#utility.yul\":457:472   */\n  revert\n    /* \"#utility.yul\":484:804   */\ntag_11:\n    /* \"#utility.yul\":528:534   */\n  0x00\n    /* \"#utility.yul\":565:566   */\n  0x02\n    /* \"#utility.yul\":559:563   */\n  dup3\n    /* \"#utility.yul\":555:567   */\n  div\n    /* \"#utility.yul\":545:567   */\n  swap1\n  pop\n    /* \"#utility.yul\":612:613   */\n  0x01\n    /* \"#utility.yul\":606:610   */\n  dup3\n    /* \"#utility.yul\":602:614   */\n  and\n    /* \"#utility.yul\":633:651   */\n  dup1\n    /* \"#utility.yul\":623:704   */\n  tag_33\n  jumpi\n    /* \"#utility.yul\":689:693   */\n  0x7f\n    /* \"#utility.yul\":681:687   */\n  dup3\n    /* \"#utility.yul\":677:694   */\n  and\n    /* \"#utility.yul\":667:694   */\n  swap2\n  pop\n    /* \"#utility.yul\":623:704   */\ntag_33:\n    /* \"#utility.yul\":751:753   */\n  0x20\n    /* \"#utility.yul\":743:749   */\n  dup3\n    /* \"#utility.yul\":740:754   */\n  lt\n    /* \"#utility.yul\":720:738   */\n  dup2\n    /* \"#utility.yul\":717:755   */\n  sub\n    /* \"#utility.yul\":714:798   */\n  tag_34\n  jumpi\n    /* \"#utility.yul\":770:788   */\n  tag_35\n  tag_10\n  jump\t// in\ntag_35:\n    /* \"#utility.yul\":714:798   */\ntag_34:\n    /* \"#utility.yul\":535:804   */\n  pop\n    /* \"#utility.yul\":484:804   */\n  swap2\n  swap1\n  pop\n  jump\t// out\n    /* \"#utility.yul\":810:951   */\ntag_12:\n    /* \"#utility.yul\":859:863   */\n  0x00\n    /* \"#utility.yul\":882:885   */\n  dup2\n    /* \"#utility.yul\":874:885   */\n  swap1\n  pop\n    /* \"#utility.yul\":905:908   */\n  dup2\n    /* \"#utility.yul\":902:903   */\n  0x00\n    /* \"#utility.yul\":895:909   */\n  mstore\n    /* \"#utility.yul\":939:943   */\n  0x20\n    /* \"#utility.yul\":936:937   */\n  0x00\n    /* \"#utility.yul\":926:944   */\n  keccak256\n    /* \"#utility.yul\":918:944   */\n  swap1\n  pop\n    /* \"#utility.yul\":810:951   */\n  swap2\n  swap1\n  pop\n  jump\t// out\n    /* \"#utility.yul\":957:1050   */\ntag_13:\n    /* \"#utility.yul\":994:1000   */\n  0x00\n    /* \"#utility.yul\":1041:1043   */\n  0x20\n    /* \"#utility.yul\":1036:1038   */\n  0x1f\n    /* \"#utility.yul\":1029:1034   */\n  dup4\n    /* \"#utility.yul\":1025:1039   */\n  add\n    /* \"#utility.yul\":1021:1044   */\n  div\n    /* \"#utility.yul\":1011:1044   */\n  swap1\n  pop\n    /* \"#utility.yul\":957:1050   */\n  swap2\n  swap1\n  pop\n  jump\t// out\n    /* \"#utility.yul\":1056:1163   */\ntag_14:\n    /* \"#utility.yul\":1100:1108   */\n  0x00\n    /* \"#utility.yul\":1150:1155   */\n  dup3\n    /* \"#utility.yul\":1144:1148   */\n  dup3\n    /* \"#utility.yul\":1140:1156   */\n  shl\n    /* \"#utility.yul\":1119:1156   */\n  swap1\n  pop\n    /* \"#utility.yul\":1056:1163   */\n  swap3\n  swap2\n  pop\n  pop\n  jump\t// out\n    /* \"#utility.yul\":1169:1562   */\ntag_15:\n    /* \"#utility.yul\":1238:1244   */\n  0x00\n    /* \"#utility.yul\":1288:1289   */\n  0x08\n    /* \"#utility.yul\":1276:1286   */\n  dup4\n    /* \"#utility.yul\":1272:1290   */\n  mul\n    /* \"#utility.yul\":1311:1408   */\n  tag_40\n    /* \"#utility.yul\":1341:1407   */\n  0xffffffffffffffffffffffffffffffffffffffffffffffffffffffffffffffff\n    /* \"#utility.yul\":1330:1339   */\n  dup3\n    /* \"#utility.yul\":1311:1408   */\n  tag_14\n  jump\t// in\ntag_40:\n    /* \"#utility.yul\":1429:1468   */\n  tag_41\n    /* \"#utility.yul\":1459:1467   */\n  dup7\n    /* \"#utility.yul\":1448:1457   */\n  dup4\n    /* \"#utility.yul\":1429:1468   */\n  tag_14\n  jump\t// in\ntag_41:\n    /* \"#utility.yul\":1417:1468   */\n  swap6\n  pop\n    /* \"#utility.yul\":1501:1505   */\n  dup1\n    /* \"#utility.yul\":1497:1506   */\n  not\n    /* \"#utility.yul\":1490:1495   */\n  dup5\n    /* \"#utility.yul\":1486:1507   */\n  and\n    /* \"#utility.yul\":1477:1507   */\n  swap4\n  pop\n    /* \"#utility.yul\":1550:1554   */\n  dup1\n    /* \"#utility.yul\":1540:1548   */\n  dup7\n    /* \"#utility.yul\":1536:1555   */\n  and\n    /* \"#utility.yul\":1529:1534   */\n  dup5\n    /* \"#utility.yul\":1526:1556   */\n  or\n    /* \"#utility.yul\":1516:1556   */\n  swap3\n  pop\n    /* \"#utility.yul\":1245:1562   */\n  pop\n  pop\n    /* \"#utility.yul\":1169:1562   */\n  swap4\n  swap3\n  pop\n  pop\n  pop\n  jump\t// out\n    /* \"#utility.yul\":1568:1645   */\ntag_16:\n    /* \"#utility.yul\":1605:1612   */\n  0x00\n    /* \"#utility.yul\":1634:1639   */\n  dup2\n    /* \"#utility.yul\":1623:1639   */\n  swap1\n  pop\n    /* \"#utility.yul\":1568:1645   */\n  swap2\n  swap1\n  pop\n  jump\t// out\n    /* \"#utility.yul\":1651:1711   */\ntag_17:\n    /* \"#utility.yul\":1679:1682   */\n  0x00\n    /* \"#utility.yul\":1700:1705   */\n  dup2\n    /* \"#utility.yul\":1693:1705   */\n  swap1\n  pop\n    /* \"#utility.yul\":1651:1711   */\n  swap2\n  swap1\n  pop\n  jump\t// out\n    /* \"#utility.yul\":1717:1859   */\ntag_18:\n    /* \"#utility.yul\":1767:1776   */\n  0x00\n    /* \"#utility.yul\":1800:1853   */\n  tag_45\n    /* \"#utility.yul\":1818:1852   */\n  tag_46\n    /* \"#utility.yul\":1827:1851   */\n  tag_47\n    /* \"#utility.yul\":1845:1850   */\n  dup5\n    /* \"#utility.yul\":1827:1851   */\n  tag_16\n  jump\t// in\ntag_47:\n    /* \"#utility.yul\":1818:1852   */\n  tag_17\n  jump\t// in\ntag_46:\n    /* \"#utility.yul\":1800:1853   */\n  tag_16\n  jump\t// in\ntag_45:\n    /* \"#utility.yul\":1787:1853   */\n  swap1\n  pop\n    /* \"#utility.yul\":1717:1859   */\n  swap2\n  swap1\n  pop\n  jump\t// out\n    /* \"#utility.yul\":1865:1940   */\ntag_19:\n    /* \"#utility.yul\":1908:1911   */\n  0x00\n    /* \"#utility.yul\":1929:1934   */\n  dup2\n    /* \"#utility.yul\":1922:1934   */\n  swap1\n  pop\n    /* \"#utility.yul\":1865:1940   */\n  swap2\n  swap1\n  pop\n  jump\t// out\n    /* \"#utility.yul\":1946:2215   */\ntag_20:\n    /* \"#utility.yul\":2056:2095   */\n  tag_50\n    /* \"#utility.yul\":2087:2094   */\n  dup4\n    /* \"#utility.yul\":2056:2095   */\n  tag_18\n  jump\t// in\ntag_50:\n    /* \"#utility.yul\":2117:2208   */\n  tag_51\n    /* \"#utility.yul\":2166:2207   */\n  tag_52\n    /* \"#utility.yul\":2190:2206   */\n  dup3\n    /* \"#utility.yul\":2166:2207   */\n  tag_19\n  jump\t// in\ntag_52:\n    /* \"#utility.yul\":2158:2164   */\n  dup5\n    /* \"#utility.yul\":2151:2155   */\n  dup5\n    /* \"#utility.yul\":2145:2156   */\n  sload\n    /* \"#utility.yul\":2117:2208   */\n  tag_15\n  jump\t// in\ntag_51:\n    /* \"#utility.yul\":2111:2115   */\n  dup3\n    /* \"#utility.yul\":2104:2209   */\n  sstore\n    /* \"#utility.yul\":2022:2215   */\n  pop\n    /* \"#utility.yul\":1946:2215   */\n  pop\n  pop\n  pop\n  jump\t// out\n    /* \"#utility.yul\":2221:2294   */\ntag_21:\n    /* \"#utility.yul\":2266:2269   */\n  0x00\n    /* \"#utility.yul\":2287:2288   */\n  0x00\n    /* \"#utility.yul\":2280:2288   */\n  swap1\n  pop\n    /* \"#utility.yul\":2221:2294   */\n  swap1\n  jump\t// out\n    /* \"#utility.yul\":2300:2489   */\ntag_22:\n    /* \"#utility.yul\":2377:2409   */\n  tag_55\n  tag_21\n  jump\t// in\ntag_55:\n    /* \"#utility.yul\":2418:2483   */\n  tag_56\n    /* \"#utility.yul\":2476:2482   */\n  dup2\n    /* \"#utility.yul\":2468:2474   */\n  dup5\n    /* \"#utility.yul\":2462:2466   */\n  dup5\n    /* \"#utility.yul\":2418:2483   */\n  tag_20\n  jump\t// in\ntag_56:\n    /* \"#utility.yul\":2353:2489   */\n  pop\n    /* \"#utility.yul\":2300:2489   */\n  pop\n  pop\n  jump\t// out\n    /* \"#utility.yul\":2495:2681   */\ntag_23:\n    /* \"#utility.yul\":2555:2675   */\ntag_58:\n    /* \"#utility.yul\":2572:2575   */\n  dup2\n    /* \"#utility.yul\":2565:2570   */\n  dup2\n    /* \"#utility.yul\":2562:2576   */\n  lt\n    /* \"#utility.yul\":2555:2675   */\n  iszero\n  tag_60\n  jumpi\n    /* \"#utility.yul\":2626:2665   */\n  tag_61\n    /* \"#utility.yul\":2663:2664   */\n  0x00\n    /* \"#utility.yul\":2656:2661   */\n  dup3\n    /* \"#utility.yul\":2626:2665   */\n  tag_22\n  jump\t// in\ntag_61:\n    /* \"#utility.yul\":2599:2600   */\n  0x01\n    /* \"#utility.yul\":2592:2597   */\n  dup2\n    /* \"#utility.yul\":2588:2601   */\n  add\n    /* \"#utility.yul\":2579:2601   */\n  swap1\n  pop\n    /* \"#utility.yul\":2555:2675   */\n  jump(tag_58)\ntag_60:\n    /* \"#utility.yul\":2495:2681   */\n  pop\n  pop\n  jump\t// out\n    /* \"#utility.yul\":2687:3230   */\ntag_24:\n    /* \"#utility.yul\":2788:2790   */\n  0x1f\n    /* \"#utility.yul\":2783:2786   */\n  dup3\n    /* \"#utility.yul\":2780:2791   */\n  gt\n    /* \"#utility.yul\":2777:3223   */\n  iszero\n  tag_63\n  jumpi\n    /* \"#utility.yul\":2822:2860   */\n  tag_64\n    /* \"#utility.yul\":2854:2859   */\n  dup2\n    /* \"#utility.yul\":2822:2860   */\n  tag_12\n  jump\t// in\ntag_64:\n    /* \"#utility.yul\":2906:2935   */\n  tag_65\n    /* \"#utility.yul\":2924:2934   */\n  dup5\n    /* \"#utility.yul\":2906:2935   */\n  tag_13\n  jump\t// in\ntag_65:\n    /* \"#utility.yul\":2896:2904   */\n  dup2\n    /* \"#utility.yul\":2892:2936   */\n  add\n    /* \"#utility.yul\":3089:3091   */\n  0x20\n    /* \"#utility.yul\":3077:3087   */\n  dup6\n    /* \"#utility.yul\":3074:3092   */\n  lt\n    /* \"#utility.yul\":3071:3120   */\n  iszero\n  tag_66\n  jumpi\n    /* \"#utility.yul\":3110:3118   */\n  dup2\n    /* \"#utility.yul\":3095:3118   */\n  swap1\n  pop\n    /* \"#utility.yul\":3071:3120   */\ntag_66:\n    /* \"#utility.yul\":3133:3213   */\n  tag_67\n    /* \"#utility.yul\":3189:3211   */\n  tag_68\n    /* \"#utility.yul\":3207:3210   */\n  dup6\n    /* \"#utility.yul\":3189:3211   */\n  tag_13\n  jump\t// in\ntag_68:\n    /* \"#utility.yul\":3179:3187   */\n  dup4\n    /* \"#utility.yul\":3175:3212   */\n  add\n    /* \"#utility.yul\":3162:3173   */\n  dup3\n    /* \"#utility.yul\":3133:3213   */\n  tag_23\n  jump\t// in\ntag_67:\n    /* \"#utility.yul\":2792:3223   */\n  pop\n  pop\n    /* \"#utility.yul\":2777:3223   */\ntag_63:\n    /* \"#utility.yul\":2687:3230   */\n  pop\n  pop\n  pop\n  jump\t// out\n    /* \"#utility.yul\":3236:3353   */\ntag_25:\n    /* \"#utility.yul\":3290:3298   */\n  0x00\n    /* \"#utility.yul\":3340:3345   */\n  dup3\n    /* \"#utility.yul\":3334:3338   */\n  dup3\n    /* \"#utility.yul\":3330:3346   */\n  shr\n    /* \"#utility.yul\":3309:3346   */\n  swap1\n  pop\n    /* \"#utility.yul\":3236:3353   */\n  swap3\n  swap2\n  pop\n  pop\n  jump\t// out\n    /* \"#utility.yul\":3359:3528   */\ntag_26:\n    /* \"#utility.yul\":3403:3409   */\n  0x00\n    /* \"#utility.yul\":3436:3487   */\n  tag_71\n    /* \"#utility.yul\":3484:3485   */\n  0x00\n    /* \"#utility.yul\":3480:3486   */\n  not\n    /* \"#utility.yul\":3472:3477   */\n  dup5\n    /* \"#utility.yul\":3469:3470   */\n  0x08\n    /* \"#utility.yul\":3465:3478   */\n  mul\n    /* \"#utility.yul\":3436:3487   */\n  tag_25\n  jump\t// in\ntag_71:\n    /* \"#utility.yul\":3432:3488   */\n  not\n    /* \"#utility.yul\":3517:3521   */\n  dup1\n    /* \"#utility.yul\":3511:3515   */\n  dup4\n    /* \"#utility.yul\":3507:3522   */\n  and\n    /* \"#utility.yul\":3497:3522   */\n  swap2\n  pop\n    /* \"#utility.yul\":3410:3528   */\n  pop\n    /* \"#utility.yul\":3359:3528   */\n  swap3\n  swap2\n  pop\n  pop\n  jump\t// out\n    /* \"#utility.yul\":3533:3828   */\ntag_27:\n    /* \"#utility.yul\":3609:3613   */\n  0x00\n    /* \"#utility.yul\":3755:3784   */\n  tag_73\n    /* \"#utility.yul\":3780:3783   */\n  dup4\n    /* \"#utility.yul\":3774:3778   */\n  dup4\n    /* \"#utility.yul\":3755:3784   */\n  tag_26\n  jump\t// in\ntag_73:\n    /* \"#utility.yul\":3747:3784   */\n  swap2\n  pop\n    /* \"#utility.yul\":3817:3820   */\n  dup3\n    /* \"#utility.yul\":3814:3815   */\n  0x02\n    /* \"#utility.yul\":3810:3821   */\n  mul\n    /* \"#utility.yul\":3804:3808   */\n  dup3\n    /* \"#utility.yul\":3801:3822   */\n  or\n    /* \"#utility.yul\":3793:3822   */\n  swap1\n  pop\n    /* \"#utility.yul\":3533:3828   */\n  swap3\n  swap2\n  pop\n  pop\n  jump\t// out\n    /* \"#utility.yul\":3833:5228   */\ntag_5:\n    /* \"#utility.yul\":3950:3987   */\n  tag_75\n    /* \"#utility.yul\":3983:3986   */\n  dup3\n    /* \"#utility.yul\":3950:3987   */\n  tag_8\n  jump\t// in\ntag_75:\n    /* \"#utility.yul\":4052:4070   */\n  0xffffffffffffffff\n    /* \"#utility.yul\":4044:4050   */\n  dup2\n    /* \"#utility.yul\":4041:4071   */\n  gt\n    /* \"#utility.yul\":4038:4094   */\n  iszero\n  tag_76\n  jumpi\n    /* \"#utility.yul\":4074:4092   */\n  tag_77\n  tag_9\n  jump\t// in\ntag_77:\n    /* \"#utility.yul\":4038:4094   */\ntag_76:\n    /* \"#utility.yul\":4118:4156   */\n  tag_78\n    /* \"#utility.yul\":4150:4154   */\n  dup3\n    /* \"#utility.yul\":4144:4155   */\n  sload\n    /* \"#utility.yul\":4118:4156   */\n  tag_11\n  jump\t// in\ntag_78:\n    /* \"#utility.yul\":4203:4270   */\n  tag_79\n    /* \"#utility.yul\":4263:4269   */\n  dup3\n    /* \"#utility.yul\":4255:4261   */\n  dup3\n    /* \"#utility.yul\":4249:4253   */\n  dup6\n    /* \"#utility.yul\":4203:4270   */\n  tag_24\n  jump\t// in\ntag_79:\n    /* \"#utility.yul\":4297:4298   */\n  0x00\n    /* \"#utility.yul\":4321:4325   */\n  0x20\n    /* \"#utility.yul\":4308:4325   */\n  swap1\n  pop\n    /* \"#utility.yul\":4353:4355   */\n  0x1f\n    /* \"#utility.yul\":4345:4351   */\n  dup4\n    /* \"#utility.yul\":4342:4356   */\n  gt\n    /* \"#utility.yul\":4370:4371   */\n  0x01\n    /* \"#utility.yul\":4365:4983   */\n  dup2\n  eq\n  tag_81\n  jumpi\n    /* \"#utility.yul\":5027:5028   */\n  0x00\n    /* \"#utility.yul\":5044:5050   */\n  dup5\n    /* \"#utility.yul\":5041:5118   */\n  iszero\n  tag_82\n  jumpi\n    /* \"#utility.yul\":5093:5102   */\n  dup3\n    /* \"#utility.yul\":5088:5091   */\n  dup8\n    /* \"#utility.yul\":5084:5103   */\n  add\n    /* \"#utility.yul\":5078:5104   */\n  mload\n    /* \"#utility.yul\":5069:5104   */\n  swap1\n  pop\n    /* \"#utility.yul\":5041:5118   */\ntag_82:\n    /* \"#utility.yul\":5144:5211   */\n  tag_83\n    /* \"#utility.yul\":5204:5210   */\n  dup6\n    /* \"#utility.yul\":5197:5202   */\n  dup3\n    /* \"#utility.yul\":5144:5211   */\n  tag_27\n  jump\t// in\ntag_83:\n    /* \"#utility.yul\":5138:5142   */\n  dup7\n    /* \"#utility.yul\":5131:5212   */\n  sstore\n    /* \"#utility.yul\":5000:5222   */\n  pop\n    /* \"#utility.yul\":4335:5222   */\n  jump(tag_80)\n    /* \"#utility.yul\":4365:4983   */\ntag_81:\n    /* \"#utility.yul\":4417:4421   */\n  0x1f\n    /* \"#utility.yul\":4413:4422   */\n  not\n    /* \"#utility.yul\":4405:4411   */\n  dup5\n    /* \"#utility.yul\":4401:4423   */\n  and\n    /* \"#utility.yul\":4451:4488   */\n  tag_84\n    /* \"#utility.yul\":4483:4487   */\n  dup7\n    /* \"#utility.yul\":4451:4488   */\n  tag_12\n  jump\t// in\ntag_84:\n    /* \"#utility.yul\":4510:4511   */\n  0x00\n    /* \"#utility.yul\":4524:4732   */\ntag_85:\n    /* \"#utility.yul\":4538:4545   */\n  dup3\n    /* \"#utility.yul\":4535:4536   */\n  dup2\n    /* \"#utility.yul\":4532:4546   */\n  lt\n    /* \"#utility.yul\":4524:4732   */\n  iszero\n  tag_87\n  jumpi\n    /* \"#utility.yul\":4617:4626   */\n  dup5\n    /* \"#utility.yul\":4612:4615   */\n  dup10\n    /* \"#utility.yul\":4608:4627   */\n  add\n    /* \"#utility.yul\":4602:4628   */\n  mload\n    /* \"#utility.yul\":4594:4600   */\n  dup3\n    /* \"#utility.yul\":4587:4629   */\n  sstore\n    /* \"#utility.yul\":4668:4669   */\n  0x01\n    /* \"#utility.yul\":4660:4666   */\n  dup3\n    /* \"#utility.yul\":4656:4670   */\n  add\n    /* \"#utility.yul\":4646:4670   */\n  swap2\n  pop\n    /* \"#utility.yul\":4715:4717   */\n  0x20\n    /* \"#utility.yul\":4704:4713   */\n  dup6\n    /* \"#utility.yul\":4700:4718   */\n  add\n    /* \"#utility.yul\":4687:4718   */\n  swap5\n  pop\n    /* \"#utility.yul\":4561:4565   */\n  0x20\n    /* \"#utility.yul\":4558:4559   */\n  dup2\n    /* \"#utility.yul\":4554:4566   */\n  add\n    /* \"#utility.yul\":4549:4566   */\n  swap1\n  pop\n    /* \"#utility.yul\":4524:4732   */\n  jump(tag_85)\ntag_87:\n    /* \"#utility.yul\":4760:4766   */\n  dup7\n    /* \"#utility.yul\":4751:4758   */\n  dup4\n    /* \"#utility.yul\":4748:4767   */\n  lt\n    /* \"#utility.yul\":4745:4924   */\n  iszero\n  tag_88\n  jumpi\n    /* \"#utility.yul\":4818:4827   */\n  dup5\n    /* \"#utility.yul\":4813:4816   */\n  dup10\n    /* \"#utility.yul\":4809:4828   */\n  add\n    /* \"#utility.yul\":4803:4829   */\n  mload\n    /* \"#utility.yul\":4861:4909   */\n  tag_89\n    /* \"#utility.yul\":4903:4907   */\n  0x1f\n    /* \"#utility.yul\":4895:4901   */\n  dup10\n    /* \"#utility.yul\":4891:4908   */\n  and\n    /* \"#utility.yul\":4880:4889   */\n  dup3\n    /* \"#utility.yul\":4861:4909   */\n  tag_26\n  jump\t// in\ntag_89:\n    /* \"#utility.yul\":4853:4859   */\n  dup4\n    /* \"#utility.yul\":4846:4910   */\n  sstore\n    /* \"#utility.yul\":4768:4924   */\n  pop\n    /* \"#utility.yul\":4745:4924   */\ntag_88:\n    /* \"#utility.yul\":4970:4971   */\n  0x01\n    /* \"#utility.yul\":4966:4967   */\n  0x02\n    /* \"#utility.yul\":4958:4964   */\n  dup9\n    /* \"#utility.yul\":4954:4968   */\n  mul\n    /* \"#utility.yul\":4950:4972   */\n  add\n    /* \"#utility.yul\":4944:4948   */\n  dup9\n    /* \"#utility.yul\":4937:4973   */\n  sstore\n    /* \"#utility.yul\":4372:4983   */\n  pop\n  pop\n  pop\n    /* \"#utility.yul\":4335:5222   */\ntag_80:\n  pop\n    /* \"#utility.yul\":3925:5228   */\n  pop\n  pop\n  pop\n    /* \"#utility.yul\":3833:5228   */\n  pop\n  pop\n  jump\t// out\n    /* \"tronweb/contracts/USDTFlash_TRC20.sol\":245:7050  contract USDTFlash is ITRC20, ITRC20Metadata, Context, ITRC20Errors {... */\ntag_7:\n  dataSize(sub_0)\n  dup1\n  dataOffset(sub_0)\n  0x00\n  codecopy\n  0x00\n  return\nstop\n\nsub_0: assembly {\n        /* \"tronweb/contracts/USDTFlash_TRC20.sol\":245:7050  contract USDTFlash is ITRC20, ITRC20Metadata, Context, ITRC20Errors {... */\n      mstore(0x40, 0x80)\n      callvalue\n      dup1\n      iszero\n      tag_1\n      jumpi\n      revert(0x00, 0x00)\n    tag_1:\n      pop\n      jumpi(tag_2, lt(calldatasize, 0x04))\n      shr(0xe0, calldataload(0x00))\n      dup1\n      0x70a08231\n      gt\n      tag_22\n      jumpi\n      dup1\n      0xa457c2d7\n      gt\n      tag_23\n      jumpi\n      dup1\n      0xa457c2d7\n      eq\n      tag_17\n      jumpi\n      dup1\n      0xa9059cbb\n      eq\n      tag_18\n      jumpi\n      dup1\n      0xd5abeb01\n      eq\n      tag_19\n      jumpi\n      dup1\n      0xdd62ed3e\n      eq\n      tag_20\n      jumpi\n      dup1\n      0xf2fde38b\n      eq\n      tag_21\n      jumpi\n      jump(tag_2)\n    tag_23:\n      dup1\n      0x70a08231\n      eq\n      tag_12\n      jumpi\n      dup1\n      0x8456cb59\n      eq\n      tag_13\n      jumpi\n      dup1\n      0x8980f11f\n      eq\n      tag_14\n      jumpi\n      dup1\n      0x95d89b41\n      eq\n      tag_15\n      jumpi\n      dup1\n      0xa0712d68\n      eq\n      tag_16\n      jumpi\n      jump(tag_2)\n    tag_22:\n      dup1\n      0x2a52940d\n      gt\n      tag_24\n      jumpi\n      dup1\n      0x2a52940d\n      eq\n      tag_7\n      jumpi\n      dup1\n      0x313ce567\n      eq\n      tag_8\n      jumpi\n      dup1\n      0x39509351\n      eq\n      tag_9\n      jumpi\n      dup1\n      0x3f4ba83a\n      eq\n      tag_10\n      jumpi\n      dup1\n      0x42966c68\n      eq\n      tag_11\n      jumpi\n      jump(tag_2)\n    tag_24:\n      dup1\n      0x06fdde03\n      eq\n      tag_3\n      jumpi\n      dup1\n      0x095ea7b3\n      eq\n      tag_4\n      jumpi\n      dup1\n      0x18160ddd\n      eq\n      tag_5\n      jumpi\n      dup1\n      0x23b872dd\n      eq\n      tag_6\n      jumpi\n    tag_2:\n      revert(0x00, 0x00)\n        /* \"tronweb/contracts/USDTFlash_TRC20.sol\":1616:1707  function name() external view virtual returns (string memory) {... */\n    tag_3:\n      tag_25\n      tag_26\n      jump\t// in\n    tag_25:\n      mload(0x40)\n      tag_27\n      swap2\n      swap1\n      tag_28\n      jump\t// in\n    tag_27:\n      mload(0x40)\n      dup1\n      swap2\n      sub\n      swap1\n      return\n        /* \"tronweb/contracts/USDTFlash_TRC20.sol\":2902:3104  function approve(address spender, uint256 value) external virtual whenNotPaused returns (bool) {... */\n    tag_4:\n      tag_29\n      0x04\n      dup1\n      calldatasize\n      sub\n      dup2\n      add\n      swap1\n      tag_30\n      swap2\n      swap1\n      tag_31\n      jump\t// in\n    tag_30:\n      tag_32\n      jump\t// in\n    tag_29:\n      mload(0x40)\n      tag_33\n      swap2\n      swap1\n      tag_34\n      jump\t// in\n    tag_33:\n      mload(0x40)\n      dup1\n      swap2\n      sub\n      swap1\n      return\n        /* \"tronweb/contracts/USDTFlash_TRC20.sol\":1904:1995  function totalSupply() external view returns (uint256) {... */\n    tag_5:\n      tag_35\n      tag_36\n      jump\t// in\n    tag_35:\n      mload(0x40)\n      tag_37\n      swap2\n      swap1\n      tag_38\n      jump\t// in\n    tag_37:\n      mload(0x40)\n      dup1\n      swap2\n      sub\n      swap1\n      return\n        /* \"tronweb/contracts/USDTFlash_TRC20.sol\":3110:3370  function transferFrom(address from, address to, uint256 value) external virtual whenNotPaused returns (bool) {... */\n    tag_6:\n      tag_39\n      0x04\n      dup1\n      calldatasize\n      sub\n      dup2\n      add\n      swap1\n      tag_40\n      swap2\n      swap1\n      tag_41\n      jump\t// in\n    tag_40:\n      tag_42\n      jump\t// in\n    tag_39:\n      mload(0x40)\n      tag_43\n      swap2\n      swap1\n      tag_34\n      jump\t// in\n    tag_43:\n      mload(0x40)\n      dup1\n      swap2\n      sub\n      swap1\n      return\n        /* \"tronweb/contracts/USDTFlash_TRC20.sol\":1330:1461  function setFlashLoanContract(address flashLoanContract) external onlyOwner {... */\n    tag_7:\n      tag_44\n      0x04\n      dup1\n      calldatasize\n      sub\n      dup2\n      add\n      swap1\n      tag_45\n      swap2\n      swap1\n      tag_46\n      jump\t// in\n    tag_45:\n      tag_47\n      jump\t// in\n    tag_44:\n      stop\n        /* \"tronweb/contracts/USDTFlash_TRC20.sol\":1814:1898  function decimals() external view virtual returns (uint8) {... */\n    tag_8:\n      tag_48\n      tag_49\n      jump\t// in\n    tag_48:\n      mload(0x40)\n      tag_50\n      swap2\n      swap1\n      tag_51\n      jump\t// in\n    tag_50:\n      mload(0x40)\n      dup1\n      swap2\n      sub\n      swap1\n      return\n        /* \"tronweb/contracts/USDTFlash_TRC20.sol\":3376:3623  function increaseAllowance(address spender, uint addedValue) external virtual whenNotPaused returns (bool) {... */\n    tag_9:\n      tag_52\n      0x04\n      dup1\n      calldatasize\n      sub\n      dup2\n      add\n      swap1\n      tag_53\n      swap2\n      swap1\n      tag_31\n      jump\t// in\n    tag_53:\n      tag_54\n      jump\t// in\n    tag_52:\n      mload(0x40)\n      tag_55\n      swap2\n      swap1\n      tag_34\n      jump\t// in\n    tag_55:\n      mload(0x40)\n      dup1\n      swap2\n      sub\n      swap1\n      return\n        /* \"tronweb/contracts/USDTFlash_TRC20.sol\":1540:1610  function unpause() external onlyOwner {... */\n    tag_10:\n      tag_56\n      tag_57\n      jump\t// in\n    tag_56:\n      stop\n        /* \"tronweb/contracts/USDTFlash_TRC20.sol\":2677:2758  function burn(uint256 amount) external {... */\n    tag_11:\n      tag_58\n      0x04\n      dup1\n      calldatasize\n      sub\n      dup2\n      add\n      swap1\n      tag_59\n      swap2\n      swap1\n      tag_60\n      jump\t// in\n    tag_59:\n      tag_61\n      jump\t// in\n    tag_58:\n      stop\n        /* \"tronweb/contracts/USDTFlash_TRC20.sol\":2102:2212  function balanceOf(address account) external view returns (uint256) {... */\n    tag_12:\n      tag_62\n      0x04\n      dup1\n      calldatasize\n      sub\n      dup2\n      add\n      swap1\n      tag_63\n      swap2\n      swap1\n      tag_46\n      jump\t// in\n    tag_63:\n      tag_64\n      jump\t// in\n    tag_62:\n      mload(0x40)\n      tag_65\n      swap2\n      swap1\n      tag_38\n      jump\t// in\n    tag_65:\n      mload(0x40)\n      dup1\n      swap2\n      sub\n      swap1\n      return\n        /* \"tronweb/contracts/USDTFlash_TRC20.sol\":1467:1534  function pause() external onlyOwner {... */\n    tag_13:\n      tag_66\n      tag_67\n      jump\t// in\n    tag_66:\n      stop\n        /* \"tronweb/contracts/USDTFlash_TRC20.sol\":4064:4215  function recoverERC20(address tokenAddress, uint256 tokenAmount) external onlyOwner {... */\n    tag_14:\n      tag_68\n      0x04\n      dup1\n      calldatasize\n      sub\n      dup2\n      add\n      swap1\n      tag_69\n      swap2\n      swap1\n      tag_31\n      jump\t// in\n    tag_69:\n      tag_70\n      jump\t// in\n    tag_68:\n      stop\n        /* \"tronweb/contracts/USDTFlash_TRC20.sol\":1713:1808  function symbol() external view virtual returns (string memory) {... */\n    tag_15:\n      tag_71\n      tag_72\n      jump\t// in\n    tag_71:\n      mload(0x40)\n      tag_73\n      swap2\n      swap1\n      tag_28\n      jump\t// in\n    tag_73:\n      mload(0x40)\n      dup1\n      swap2\n      sub\n      swap1\n      return\n        /* \"tronweb/contracts/USDTFlash_TRC20.sol\":2418:2671  function mint(uint256 amount) external returns (bool) {... */\n    tag_16:\n      tag_74\n      0x04\n      dup1\n      calldatasize\n      sub\n      dup2\n      add\n      swap1\n      tag_75\n      swap2\n      swap1\n      tag_60\n      jump\t// in\n    tag_75:\n      tag_76\n      jump\t// in\n    tag_74:\n      mload(0x40)\n      tag_77\n      swap2\n      swap1\n      tag_34\n      jump\t// in\n    tag_77:\n      mload(0x40)\n      dup1\n      swap2\n      sub\n      swap1\n      return\n        /* \"tronweb/contracts/USDTFlash_TRC20.sol\":3629:4058  function decreaseAllowance(address spender, uint subtractedValue) external virtual whenNotPaused returns (bool) {... */\n    tag_17:\n      tag_78\n      0x04\n      dup1\n      calldatasize\n      sub\n      dup2\n      add\n      swap1\n      tag_79\n      swap2\n      swap1\n      tag_31\n      jump\t// in\n    tag_79:\n      tag_80\n      jump\t// in\n    tag_78:\n      mload(0x40)\n      tag_81\n      swap2\n      swap1\n      tag_34\n      jump\t// in\n    tag_81:\n      mload(0x40)\n      dup1\n      swap2\n      sub\n      swap1\n      return\n        /* \"tronweb/contracts/USDTFlash_TRC20.sol\":2218:2412  function transfer(address to, uint256 value) external virtual whenNotPaused returns (bool) {... */\n    tag_18:\n      tag_82\n      0x04\n      dup1\n      calldatasize\n      sub\n      dup2\n      add\n      swap1\n      tag_83\n      swap2\n      swap1\n      tag_31\n      jump\t// in\n    tag_83:\n      tag_84\n      jump\t// in\n    tag_82:\n      mload(0x40)\n      tag_85\n      swap2\n      swap1\n      tag_34\n      jump\t// in\n    tag_85:\n      mload(0x40)\n      dup1\n      swap2\n      sub\n      swap1\n      return\n        /* \"tronweb/contracts/USDTFlash_TRC20.sol\":2001:2096  function maxSupply() external view virtual returns (uint256) {... */\n    tag_19:\n      tag_86\n      tag_87\n      jump\t// in\n    tag_86:\n      mload(0x40)\n      tag_88\n      swap2\n      swap1\n      tag_38\n      jump\t// in\n    tag_88:\n      mload(0x40)\n      dup1\n      swap2\n      sub\n      swap1\n      return\n        /* \"tronweb/contracts/USDTFlash_TRC20.sol\":2764:2896  function allowance(address owner, address spender) public view returns (uint256) {... */\n    tag_20:\n      tag_89\n      0x04\n      dup1\n      calldatasize\n      sub\n      dup2\n      add\n      swap1\n      tag_90\n      swap2\n      swap1\n      tag_91\n      jump\t// in\n    tag_90:\n      tag_92\n      jump\t// in\n    tag_89:\n      mload(0x40)\n      tag_93\n      swap2\n      swap1\n      tag_38\n      jump\t// in\n    tag_93:\n      mload(0x40)\n      dup1\n      swap2\n      sub\n      swap1\n      return\n        /* \"tronweb/contracts/USDTFlash_TRC20.sol\":4221:4393  function transferOwnership(address newOwner) external onlyOwner {... */\n    tag_21:\n      tag_94\n      0x04\n      dup1\n      calldatasize\n      sub\n      dup2\n      add\n      swap1\n      tag_95\n      swap2\n      swap1\n      tag_46\n      jump\t// in\n    tag_95:\n      tag_96\n      jump\t// in\n    tag_94:\n      stop\n        /* \"tronweb/contracts/USDTFlash_TRC20.sol\":1616:1707  function name() external view virtual returns (string memory) {... */\n    tag_26:\n        /* \"tronweb/contracts/USDTFlash_TRC20.sol\":1663:1676  string memory */\n      0x60\n        /* \"tronweb/contracts/USDTFlash_TRC20.sol\":1695:1700  _name */\n      0x04\n        /* \"tronweb/contracts/USDTFlash_TRC20.sol\":1688:1700  return _name */\n      dup1\n      sload\n      tag_98\n      swap1\n      tag_99\n      jump\t// in\n    tag_98:\n      dup1\n      0x1f\n      add\n      0x20\n      dup1\n      swap2\n      div\n      mul\n      0x20\n      add\n      mload(0x40)\n      swap1\n      dup2\n      add\n      0x40\n      mstore\n      dup1\n      swap3\n      swap2\n      swap1\n      dup2\n      dup2\n      mstore\n      0x20\n      add\n      dup3\n      dup1\n      sload\n      tag_100\n      swap1\n      tag_99\n      jump\t// in\n    tag_100:\n      dup1\n      iszero\n      tag_101\n      jumpi\n      dup1\n      0x1f\n      lt\n      tag_102\n      jumpi\n      0x0100\n      dup1\n      dup4\n      sload\n      div\n      mul\n      dup4\n      mstore\n      swap2\n      0x20\n      add\n      swap2\n      jump(tag_101)\n    tag_102:\n      dup3\n      add\n      swap2\n      swap1\n      0x00\n      mstore\n      keccak256(0x00, 0x20)\n      swap1\n    tag_103:\n      dup2\n      sload\n      dup2\n      mstore\n      swap1\n      0x01\n      add\n      swap1\n      0x20\n      add\n      dup1\n      dup4\n      gt\n      tag_103\n      jumpi\n      dup3\n      swap1\n      sub\n      0x1f\n      and\n      dup3\n      add\n      swap2\n    tag_101:\n      pop\n      pop\n      pop\n      pop\n      pop\n      swap1\n      pop\n        /* \"tronweb/contracts/USDTFlash_TRC20.sol\":1616:1707  function name() external view virtual returns (string memory) {... */\n      swap1\n      jump\t// out\n        /* \"tronweb/contracts/USDTFlash_TRC20.sol\":2902:3104  function approve(address spender, uint256 value) external virtual whenNotPaused returns (bool) {... */\n    tag_32:\n        /* \"tronweb/contracts/USDTFlash_TRC20.sol\":2991:2995  bool */\n      0x00\n        /* \"tronweb/contracts/USDTFlash_TRC20.sol\":1278:1285  _paused */\n      0x07\n      0x14\n      swap1\n      sload\n      swap1\n      0x0100\n      exp\n      swap1\n      div\n      0xff\n      and\n        /* \"tronweb/contracts/USDTFlash_TRC20.sol\":1277:1285  !_paused */\n      iszero\n        /* \"tronweb/contracts/USDTFlash_TRC20.sol\":1269:1306  require(!_paused, \"Pausable: paused\") */\n      tag_105\n      jumpi\n      mload(0x40)\n      0x08c379a000000000000000000000000000000000000000000000000000000000\n      dup2\n      mstore\n      0x04\n      add\n      tag_106\n      swap1\n      tag_107\n      jump\t// in\n    tag_106:\n      mload(0x40)\n      dup1\n      swap2\n      sub\n      swap1\n      revert\n    tag_105:\n        /* \"tronweb/contracts/USDTFlash_TRC20.sol\":3007:3020  address owner */\n      0x00\n        /* \"tronweb/contracts/USDTFlash_TRC20.sol\":3023:3035  _msgSender() */\n      tag_109\n        /* \"tronweb/contracts/USDTFlash_TRC20.sol\":3023:3033  _msgSender */\n      tag_110\n        /* \"tronweb/contracts/USDTFlash_TRC20.sol\":3023:3035  _msgSender() */\n      jump\t// in\n    tag_109:\n        /* \"tronweb/contracts/USDTFlash_TRC20.sol\":3007:3035  address owner = _msgSender() */\n      swap1\n      pop\n        /* \"tronweb/contracts/USDTFlash_TRC20.sol\":3045:3076  _approve(owner, spender, value) */\n      tag_111\n        /* \"tronweb/contracts/USDTFlash_TRC20.sol\":3054:3059  owner */\n      dup2\n        /* \"tronweb/contracts/USDTFlash_TRC20.sol\":3061:3068  spender */\n      dup6\n        /* \"tronweb/contracts/USDTFlash_TRC20.sol\":3070:3075  value */\n      dup6\n        /* \"tronweb/contracts/USDTFlash_TRC20.sol\":3045:3053  _approve */\n      tag_112\n        /* \"tronweb/contracts/USDTFlash_TRC20.sol\":3045:3076  _approve(owner, spender, value) */\n      jump\t// in\n    tag_111:\n        /* \"tronweb/contracts/USDTFlash_TRC20.sol\":3093:3097  true */\n      0x01\n        /* \"tronweb/contracts/USDTFlash_TRC20.sol\":3086:3097  return true */\n      swap2\n      pop\n      pop\n        /* \"tronweb/contracts/USDTFlash_TRC20.sol\":2902:3104  function approve(address spender, uint256 value) external virtual whenNotPaused returns (bool) {... */\n      swap3\n      swap2\n      pop\n      pop\n      jump\t// out\n        /* \"tronweb/contracts/USDTFlash_TRC20.sol\":1904:1995  function totalSupply() external view returns (uint256) {... */\n    tag_36:\n        /* \"tronweb/contracts/USDTFlash_TRC20.sol\":1950:1957  uint256 */\n      0x00\n        /* \"tronweb/contracts/USDTFlash_TRC20.sol\":1976:1988  _totalSupply */\n      sload(0x02)\n        /* \"tronweb/contracts/USDTFlash_TRC20.sol\":1969:1988  return _totalSupply */\n      swap1\n      pop\n        /* \"tronweb/contracts/USDTFlash_TRC20.sol\":1904:1995  function totalSupply() external view returns (uint256) {... */\n      swap1\n      jump\t// out\n        /* \"tronweb/contracts/USDTFlash_TRC20.sol\":3110:3370  function transferFrom(address from, address to, uint256 value) external virtual whenNotPaused returns (bool) {... */\n    tag_42:\n        /* \"tronweb/contracts/USDTFlash_TRC20.sol\":3213:3217  bool */\n      0x00\n        /* \"tronweb/contracts/USDTFlash_TRC20.sol\":1278:1285  _paused */\n      0x07\n      0x14\n      swap1\n      sload\n      swap1\n      0x0100\n      exp\n      swap1\n      div\n      0xff\n      and\n        /* \"tronweb/contracts/USDTFlash_TRC20.sol\":1277:1285  !_paused */\n      iszero\n        /* \"tronweb/contracts/USDTFlash_TRC20.sol\":1269:1306  require(!_paused, \"Pausable: paused\") */\n      tag_115\n      jumpi\n      mload(0x40)\n      0x08c379a000000000000000000000000000000000000000000000000000000000\n      dup2\n      mstore\n      0x04\n      add\n      tag_116\n      swap1\n      tag_107\n      jump\t// in\n    tag_116:\n      mload(0x40)\n      dup1\n      swap2\n      sub\n      swap1\n      revert\n    tag_115:\n        /* \"tronweb/contracts/USDTFlash_TRC20.sol\":3229:3244  address spender */\n      0x00\n        /* \"tronweb/contracts/USDTFlash_TRC20.sol\":3247:3259  _msgSender() */\n      tag_118\n        /* \"tronweb/contracts/USDTFlash_TRC20.sol\":3247:3257  _msgSender */\n      tag_110\n        /* \"tronweb/contracts/USDTFlash_TRC20.sol\":3247:3259  _msgSender() */\n      jump\t// in\n    tag_118:\n        /* \"tronweb/contracts/USDTFlash_TRC20.sol\":3229:3259  address spender = _msgSender() */\n      swap1\n      pop\n        /* \"tronweb/contracts/USDTFlash_TRC20.sol\":3269:3306  _spendAllowance(from, spender, value) */\n      tag_119\n        /* \"tronweb/contracts/USDTFlash_TRC20.sol\":3285:3289  from */\n      dup6\n        /* \"tronweb/contracts/USDTFlash_TRC20.sol\":3291:3298  spender */\n      dup3\n        /* \"tronweb/contracts/USDTFlash_TRC20.sol\":3300:3305  value */\n      dup6\n        /* \"tronweb/contracts/USDTFlash_TRC20.sol\":3269:3284  _spendAllowance */\n      tag_120\n        /* \"tronweb/contracts/USDTFlash_TRC20.sol\":3269:3306  _spendAllowance(from, spender, value) */\n      jump\t// in\n    tag_119:\n        /* \"tronweb/contracts/USDTFlash_TRC20.sol\":3316:3342  _transfer(from, to, value) */\n      tag_121\n        /* \"tronweb/contracts/USDTFlash_TRC20.sol\":3326:3330  from */\n      dup6\n        /* \"tronweb/contracts/USDTFlash_TRC20.sol\":3332:3334  to */\n      dup6\n        /* \"tronweb/contracts/USDTFlash_TRC20.sol\":3336:3341  value */\n      dup6\n        /* \"tronweb/contracts/USDTFlash_TRC20.sol\":3316:3325  _transfer */\n      tag_122\n        /* \"tronweb/contracts/USDTFlash_TRC20.sol\":3316:3342  _transfer(from, to, value) */\n      jump\t// in\n    tag_121:\n        /* \"tronweb/contracts/USDTFlash_TRC20.sol\":3359:3363  true */\n      0x01\n        /* \"tronweb/contracts/USDTFlash_TRC20.sol\":3352:3363  return true */\n      swap2\n      pop\n      pop\n        /* \"tronweb/contracts/USDTFlash_TRC20.sol\":3110:3370  function transferFrom(address from, address to, uint256 value) external virtual whenNotPaused returns (bool) {... */\n      swap4\n      swap3\n      pop\n      pop\n      pop\n      jump\t// out\n        /* \"tronweb/contracts/USDTFlash_TRC20.sol\":1330:1461  function setFlashLoanContract(address flashLoanContract) external onlyOwner {... */\n    tag_47:\n        /* \"tronweb/contracts/USDTFlash_TRC20.sol\":990:996  _owner */\n      0x06\n      0x00\n      swap1\n      sload\n      swap1\n      0x0100\n      exp\n      swap1\n      div\n      0xffffffffffffffffffffffffffffffffffffffff\n      and\n        /* \"tronweb/contracts/USDTFlash_TRC20.sol\":976:996  msg.sender == _owner */\n      0xffffffffffffffffffffffffffffffffffffffff\n      and\n        /* \"tronweb/contracts/USDTFlash_TRC20.sol\":976:986  msg.sender */\n      caller\n        /* \"tronweb/contracts/USDTFlash_TRC20.sol\":976:996  msg.sender == _owner */\n      0xffffffffffffffffffffffffffffffffffffffff\n      and\n      eq\n        /* \"tronweb/contracts/USDTFlash_TRC20.sol\":968:1047  require(msg.sender == _owner, \"Only the contract owner can call this function\") */\n      tag_124\n      jumpi\n      mload(0x40)\n      0x08c379a000000000000000000000000000000000000000000000000000000000\n      dup2\n      mstore\n      0x04\n      add\n      tag_125\n      swap1\n      tag_126\n      jump\t// in\n    tag_125:\n      mload(0x40)\n      dup1\n      swap2\n      sub\n      swap1\n      revert\n    tag_124:\n        /* \"tronweb/contracts/USDTFlash_TRC20.sol\":1437:1454  flashLoanContract */\n      dup1\n        /* \"tronweb/contracts/USDTFlash_TRC20.sol\":1416:1434  _flashLoanContract */\n      0x07\n      0x00\n        /* \"tronweb/contracts/USDTFlash_TRC20.sol\":1416:1454  _flashLoanContract = flashLoanContract */\n      0x0100\n      exp\n      dup2\n      sload\n      dup2\n      0xffffffffffffffffffffffffffffffffffffffff\n      mul\n      not\n      and\n      swap1\n      dup4\n      0xffffffffffffffffffffffffffffffffffffffff\n      and\n      mul\n      or\n      swap1\n      sstore\n      pop\n        /* \"tronweb/contracts/USDTFlash_TRC20.sol\":1330:1461  function setFlashLoanContract(address flashLoanContract) external onlyOwner {... */\n      pop\n      jump\t// out\n        /* \"tronweb/contracts/USDTFlash_TRC20.sol\":1814:1898  function decimals() external view virtual returns (uint8) {... */\n    tag_49:\n        /* \"tronweb/contracts/USDTFlash_TRC20.sol\":1865:1870  uint8 */\n      0x00\n        /* \"tronweb/contracts/USDTFlash_TRC20.sol\":1889:1891  18 */\n      0x12\n        /* \"tronweb/contracts/USDTFlash_TRC20.sol\":1882:1891  return 18 */\n      swap1\n      pop\n        /* \"tronweb/contracts/USDTFlash_TRC20.sol\":1814:1898  function decimals() external view virtual returns (uint8) {... */\n      swap1\n      jump\t// out\n        /* \"tronweb/contracts/USDTFlash_TRC20.sol\":3376:3623  function increaseAllowance(address spender, uint addedValue) external virtual whenNotPaused returns (bool) {... */\n    tag_54:\n        /* \"tronweb/contracts/USDTFlash_TRC20.sol\":3477:3481  bool */\n      0x00\n        /* \"tronweb/contracts/USDTFlash_TRC20.sol\":1278:1285  _paused */\n      0x07\n      0x14\n      swap1\n      sload\n      swap1\n      0x0100\n      exp\n      swap1\n      div\n      0xff\n      and\n        /* \"tronweb/contracts/USDTFlash_TRC20.sol\":1277:1285  !_paused */\n      iszero\n        /* \"tronweb/contracts/USDTFlash_TRC20.sol\":1269:1306  require(!_paused, \"Pausable: paused\") */\n      tag_130\n      jumpi\n      mload(0x40)\n      0x08c379a000000000000000000000000000000000000000000000000000000000\n      dup2\n      mstore\n      0x04\n      add\n      tag_131\n      swap1\n      tag_107\n      jump\t// in\n    tag_131:\n      mload(0x40)\n      dup1\n      swap2\n      sub\n      swap1\n      revert\n    tag_130:\n        /* \"tronweb/contracts/USDTFlash_TRC20.sol\":3493:3506  address owner */\n      0x00\n        /* \"tronweb/contracts/USDTFlash_TRC20.sol\":3509:3521  _msgSender() */\n      tag_133\n        /* \"tronweb/contracts/USDTFlash_TRC20.sol\":3509:3519  _msgSender */\n      tag_110\n        /* \"tronweb/contracts/USDTFlash_TRC20.sol\":3509:3521  _msgSender() */\n      jump\t// in\n    tag_133:\n        /* \"tronweb/contracts/USDTFlash_TRC20.sol\":3493:3521  address owner = _msgSender() */\n      swap1\n      pop\n        /* \"tronweb/contracts/USDTFlash_TRC20.sol\":3531:3595  _approve(owner, spender, allowance(owner, spender) + addedValue) */\n      tag_134\n        /* \"tronweb/contracts/USDTFlash_TRC20.sol\":3540:3545  owner */\n      dup2\n        /* \"tronweb/contracts/USDTFlash_TRC20.sol\":3547:3554  spender */\n      dup6\n        /* \"tronweb/contracts/USDTFlash_TRC20.sol\":3584:3594  addedValue */\n      dup6\n        /* \"tronweb/contracts/USDTFlash_TRC20.sol\":3556:3581  allowance(owner, spender) */\n      tag_135\n        /* \"tronweb/contracts/USDTFlash_TRC20.sol\":3566:3571  owner */\n      dup6\n        /* \"tronweb/contracts/USDTFlash_TRC20.sol\":3573:3580  spender */\n      dup10\n        /* \"tronweb/contracts/USDTFlash_TRC20.sol\":3556:3565  allowance */\n      tag_92\n        /* \"tronweb/contracts/USDTFlash_TRC20.sol\":3556:3581  allowance(owner, spender) */\n      jump\t// in\n    tag_135:\n        /* \"tronweb/contracts/USDTFlash_TRC20.sol\":3556:3594  allowance(owner, spender) + addedValue */\n      tag_136\n      swap2\n      swap1\n      tag_137\n      jump\t// in\n    tag_136:\n        /* \"tronweb/contracts/USDTFlash_TRC20.sol\":3531:3539  _approve */\n      tag_112\n        /* \"tronweb/contracts/USDTFlash_TRC20.sol\":3531:3595  _approve(owner, spender, allowance(owner, spender) + addedValue) */\n      jump\t// in\n    tag_134:\n        /* \"tronweb/contracts/USDTFlash_TRC20.sol\":3612:3616  true */\n      0x01\n        /* \"tronweb/contracts/USDTFlash_TRC20.sol\":3605:3616  return true */\n      swap2\n      pop\n      pop\n        /* \"tronweb/contracts/USDTFlash_TRC20.sol\":3376:3623  function increaseAllowance(address spender, uint addedValue) external virtual whenNotPaused returns (bool) {... */\n      swap3\n      swap2\n      pop\n      pop\n      jump\t// out\n        /* \"tronweb/contracts/USDTFlash_TRC20.sol\":1540:1610  function unpause() external onlyOwner {... */\n    tag_57:\n        /* \"tronweb/contracts/USDTFlash_TRC20.sol\":990:996  _owner */\n      0x06\n      0x00\n      swap1\n      sload\n      swap1\n      0x0100\n      exp\n      swap1\n      div\n      0xffffffffffffffffffffffffffffffffffffffff\n      and\n        /* \"tronweb/contracts/USDTFlash_TRC20.sol\":976:996  msg.sender == _owner */\n      0xffffffffffffffffffffffffffffffffffffffff\n      and\n        /* \"tronweb/contracts/USDTFlash_TRC20.sol\":976:986  msg.sender */\n      caller\n        /* \"tronweb/contracts/USDTFlash_TRC20.sol\":976:996  msg.sender == _owner */\n      0xffffffffffffffffffffffffffffffffffffffff\n      and\n      eq\n        /* \"tronweb/contracts/USDTFlash_TRC20.sol\":968:1047  require(msg.sender == _owner, \"Only the contract owner can call this function\") */\n      tag_139\n      jumpi\n      mload(0x40)\n      0x08c379a000000000000000000000000000000000000000000000000000000000\n      dup2\n      mstore\n      0x04\n      add\n      tag_140\n      swap1\n      tag_126\n      jump\t// in\n    tag_140:\n      mload(0x40)\n      dup1\n      swap2\n      sub\n      swap1\n      revert\n    tag_139:\n        /* \"tronweb/contracts/USDTFlash_TRC20.sol\":1598:1603  false */\n      0x00\n        /* \"tronweb/contracts/USDTFlash_TRC20.sol\":1588:1595  _paused */\n      0x07\n      0x14\n        /* \"tronweb/contracts/USDTFlash_TRC20.sol\":1588:1603  _paused = false */\n      0x0100\n      exp\n      dup2\n      sload\n      dup2\n      0xff\n      mul\n      not\n      and\n      swap1\n      dup4\n      iszero\n      iszero\n      mul\n      or\n      swap1\n      sstore\n      pop\n        /* \"tronweb/contracts/USDTFlash_TRC20.sol\":1540:1610  function unpause() external onlyOwner {... */\n      jump\t// out\n        /* \"tronweb/contracts/USDTFlash_TRC20.sol\":2677:2758  function burn(uint256 amount) external {... */\n    tag_61:\n        /* \"tronweb/contracts/USDTFlash_TRC20.sol\":2726:2751  _burn(msg.sender, amount) */\n      tag_143\n        /* \"tronweb/contracts/USDTFlash_TRC20.sol\":2732:2742  msg.sender */\n      caller\n        /* \"tronweb/contracts/USDTFlash_TRC20.sol\":2744:2750  amount */\n      dup3\n        /* \"tronweb/contracts/USDTFlash_TRC20.sol\":2726:2731  _burn */\n      tag_144\n        /* \"tronweb/contracts/USDTFlash_TRC20.sol\":2726:2751  _burn(msg.sender, amount) */\n      jump\t// in\n    tag_143:\n        /* \"tronweb/contracts/USDTFlash_TRC20.sol\":2677:2758  function burn(uint256 amount) external {... */\n      pop\n      jump\t// out\n        /* \"tronweb/contracts/USDTFlash_TRC20.sol\":2102:2212  function balanceOf(address account) external view returns (uint256) {... */\n    tag_64:\n        /* \"tronweb/contracts/USDTFlash_TRC20.sol\":2161:2168  uint256 */\n      0x00\n        /* \"tronweb/contracts/USDTFlash_TRC20.sol\":2187:2196  _balances */\n      0x00\n        /* \"tronweb/contracts/USDTFlash_TRC20.sol\":2187:2205  _balances[account] */\n      0x00\n        /* \"tronweb/contracts/USDTFlash_TRC20.sol\":2197:2204  account */\n      dup4\n        /* \"tronweb/contracts/USDTFlash_TRC20.sol\":2187:2205  _balances[account] */\n      0xffffffffffffffffffffffffffffffffffffffff\n      and\n      0xffffffffffffffffffffffffffffffffffffffff\n      and\n      dup2\n      mstore\n      0x20\n      add\n      swap1\n      dup2\n      mstore\n      0x20\n      add\n      0x00\n      keccak256\n      sload\n        /* \"tronweb/contracts/USDTFlash_TRC20.sol\":2180:2205  return _balances[account] */\n      swap1\n      pop\n        /* \"tronweb/contracts/USDTFlash_TRC20.sol\":2102:2212  function balanceOf(address account) external view returns (uint256) {... */\n      swap2\n      swap1\n      pop\n      jump\t// out\n        /* \"tronweb/contracts/USDTFlash_TRC20.sol\":1467:1534  function pause() external onlyOwner {... */\n    tag_67:\n        /* \"tronweb/contracts/USDTFlash_TRC20.sol\":990:996  _owner */\n      0x06\n      0x00\n      swap1\n      sload\n      swap1\n      0x0100\n      exp\n      swap1\n      div\n      0xffffffffffffffffffffffffffffffffffffffff\n      and\n        /* \"tronweb/contracts/USDTFlash_TRC20.sol\":976:996  msg.sender == _owner */\n      0xffffffffffffffffffffffffffffffffffffffff\n      and\n        /* \"tronweb/contracts/USDTFlash_TRC20.sol\":976:986  msg.sender */\n      caller\n        /* \"tronweb/contracts/USDTFlash_TRC20.sol\":976:996  msg.sender == _owner */\n      0xffffffffffffffffffffffffffffffffffffffff\n      and\n      eq\n        /* \"tronweb/contracts/USDTFlash_TRC20.sol\":968:1047  require(msg.sender == _owner, \"Only the contract owner can call this function\") */\n      tag_147\n      jumpi\n      mload(0x40)\n      0x08c379a000000000000000000000000000000000000000000000000000000000\n      dup2\n      mstore\n      0x04\n      add\n      tag_148\n      swap1\n      tag_126\n      jump\t// in\n    tag_148:\n      mload(0x40)\n      dup1\n      swap2\n      sub\n      swap1\n      revert\n    tag_147:\n        /* \"tronweb/contracts/USDTFlash_TRC20.sol\":1523:1527  true */\n      0x01\n        /* \"tronweb/contracts/USDTFlash_TRC20.sol\":1513:1520  _paused */\n      0x07\n      0x14\n        /* \"tronweb/contracts/USDTFlash_TRC20.sol\":1513:1527  _paused = true */\n      0x0100\n      exp\n      dup2\n      sload\n      dup2\n      0xff\n      mul\n      not\n      and\n      swap1\n      dup4\n      iszero\n      iszero\n      mul\n      or\n      swap1\n      sstore\n      pop\n        /* \"tronweb/contracts/USDTFlash_TRC20.sol\":1467:1534  function pause() external onlyOwner {... */\n      jump\t// out\n        /* \"tronweb/contracts/USDTFlash_TRC20.sol\":4064:4215  function recoverERC20(address tokenAddress, uint256 tokenAmount) external onlyOwner {... */\n    tag_70:\n        /* \"tronweb/contracts/USDTFlash_TRC20.sol\":990:996  _owner */\n      0x06\n      0x00\n      swap1\n      sload\n      swap1\n      0x0100\n      exp\n      swap1\n      div\n      0xffffffffffffffffffffffffffffffffffffffff\n      and\n        /* \"tronweb/contracts/USDTFlash_TRC20.sol\":976:996  msg.sender == _owner */\n      0xffffffffffffffffffffffffffffffffffffffff\n      and\n        /* \"tronweb/contracts/USDTFlash_TRC20.sol\":976:986  msg.sender */\n      caller\n        /* \"tronweb/contracts/USDTFlash_TRC20.sol\":976:996  msg.sender == _owner */\n      0xffffffffffffffffffffffffffffffffffffffff\n      and\n      eq\n        /* \"tronweb/contracts/USDTFlash_TRC20.sol\":968:1047  require(msg.sender == _owner, \"Only the contract owner can call this function\") */\n      tag_151\n      jumpi\n      mload(0x40)\n      0x08c379a000000000000000000000000000000000000000000000000000000000\n      dup2\n      mstore\n      0x04\n      add\n      tag_152\n      swap1\n      tag_126\n      jump\t// in\n    tag_152:\n      mload(0x40)\n      dup1\n      swap2\n      sub\n      swap1\n      revert\n    tag_151:\n        /* \"tronweb/contracts/USDTFlash_TRC20.sol\":4165:4177  tokenAddress */\n      dup2\n        /* \"tronweb/contracts/USDTFlash_TRC20.sol\":4158:4187  ITRC20(tokenAddress).transfer */\n      0xffffffffffffffffffffffffffffffffffffffff\n      and\n      0xa9059cbb\n        /* \"tronweb/contracts/USDTFlash_TRC20.sol\":4188:4194  _owner */\n      0x06\n      0x00\n      swap1\n      sload\n      swap1\n      0x0100\n      exp\n      swap1\n      div\n      0xffffffffffffffffffffffffffffffffffffffff\n      and\n        /* \"tronweb/contracts/USDTFlash_TRC20.sol\":4196:4207  tokenAmount */\n      dup4\n        /* \"tronweb/contracts/USDTFlash_TRC20.sol\":4158:4208  ITRC20(tokenAddress).transfer(_owner, tokenAmount) */\n      mload(0x40)\n      dup4\n      0xffffffff\n      and\n      0xe0\n      shl\n      dup2\n      mstore\n      0x04\n      add\n      tag_154\n      swap3\n      swap2\n      swap1\n      tag_155\n      jump\t// in\n    tag_154:\n      0x20\n      mload(0x40)\n      dup1\n      dup4\n      sub\n      dup2\n      0x00\n      dup8\n      gas\n      call\n      iszero\n      dup1\n      iszero\n      tag_157\n      jumpi\n      returndatacopy(0x00, 0x00, returndatasize)\n      revert(0x00, returndatasize)\n    tag_157:\n      pop\n      pop\n      pop\n      pop\n      mload(0x40)\n      returndatasize\n      not(0x1f)\n      0x1f\n      dup3\n      add\n      and\n      dup3\n      add\n      dup1\n      0x40\n      mstore\n      pop\n      dup2\n      add\n      swap1\n      tag_158\n      swap2\n      swap1\n      tag_159\n      jump\t// in\n    tag_158:\n      pop\n        /* \"tronweb/contracts/USDTFlash_TRC20.sol\":4064:4215  function recoverERC20(address tokenAddress, uint256 tokenAmount) external onlyOwner {... */\n      pop\n      pop\n      jump\t// out\n        /* \"tronweb/contracts/USDTFlash_TRC20.sol\":1713:1808  function symbol() external view virtual returns (string memory) {... */\n    tag_72:\n        /* \"tronweb/contracts/USDTFlash_TRC20.sol\":1762:1775  string memory */\n      0x60\n        /* \"tronweb/contracts/USDTFlash_TRC20.sol\":1794:1801  _symbol */\n      0x05\n        /* \"tronweb/contracts/USDTFlash_TRC20.sol\":1787:1801  return _symbol */\n      dup1\n      sload\n      tag_161\n      swap1\n      tag_99\n      jump\t// in\n    tag_161:\n      dup1\n      0x1f\n      add\n      0x20\n      dup1\n      swap2\n      div\n      mul\n      0x20\n      add\n      mload(0x40)\n      swap1\n      dup2\n      add\n      0x40\n      mstore\n      dup1\n      swap3\n      swap2\n      swap1\n      dup2\n      dup2\n      mstore\n      0x20\n      add\n      dup3\n      dup1\n      sload\n      tag_162\n      swap1\n      tag_99\n      jump\t// in\n    tag_162:\n      dup1\n      iszero\n      tag_163\n      jumpi\n      dup1\n      0x1f\n      lt\n      tag_164\n      jumpi\n      0x0100\n      dup1\n      dup4\n      sload\n      div\n      mul\n      dup4\n      mstore\n      swap2\n      0x20\n      add\n      swap2\n      jump(tag_163)\n    tag_164:\n      dup3\n      add\n      swap2\n      swap1\n      0x00\n      mstore\n      keccak256(0x00, 0x20)\n      swap1\n    tag_165:\n      dup2\n      sload\n      dup2\n      mstore\n      swap1\n      0x01\n      add\n      swap1\n      0x20\n      add\n      dup1\n      dup4\n      gt\n      tag_165\n      jumpi\n      dup3\n      swap1\n      sub\n      0x1f\n      and\n      dup3\n      add\n      swap2\n    tag_163:\n      pop\n      pop\n      pop\n      pop\n      pop\n      swap1\n      pop\n        /* \"tronweb/contracts/USDTFlash_TRC20.sol\":1713:1808  function symbol() external view virtual returns (string memory) {... */\n      swap1\n      jump\t// out\n        /* \"tronweb/contracts/USDTFlash_TRC20.sol\":2418:2671  function mint(uint256 amount) external returns (bool) {... */\n    tag_76:\n        /* \"tronweb/contracts/USDTFlash_TRC20.sol\":2466:2470  bool */\n      0x00\n        /* \"tronweb/contracts/USDTFlash_TRC20.sol\":2504:2522  _flashLoanContract */\n      0x07\n      0x00\n      swap1\n      sload\n      swap1\n      0x0100\n      exp\n      swap1\n      div\n      0xffffffffffffffffffffffffffffffffffffffff\n      and\n        /* \"tronweb/contracts/USDTFlash_TRC20.sol\":2490:2522  msg.sender == _flashLoanContract */\n      0xffffffffffffffffffffffffffffffffffffffff\n      and\n        /* \"tronweb/contracts/USDTFlash_TRC20.sol\":2490:2500  msg.sender */\n      caller\n        /* \"tronweb/contracts/USDTFlash_TRC20.sol\":2490:2522  msg.sender == _flashLoanContract */\n      0xffffffffffffffffffffffffffffffffffffffff\n      and\n      eq\n        /* \"tronweb/contracts/USDTFlash_TRC20.sol\":2490:2546  msg.sender == _flashLoanContract || msg.sender == _owner */\n      dup1\n      tag_167\n      jumpi\n      pop\n        /* \"tronweb/contracts/USDTFlash_TRC20.sol\":2540:2546  _owner */\n      0x06\n      0x00\n      swap1\n      sload\n      swap1\n      0x0100\n      exp\n      swap1\n      div\n      0xffffffffffffffffffffffffffffffffffffffff\n      and\n        /* \"tronweb/contracts/USDTFlash_TRC20.sol\":2526:2546  msg.sender == _owner */\n      0xffffffffffffffffffffffffffffffffffffffff\n      and\n        /* \"tronweb/contracts/USDTFlash_TRC20.sol\":2526:2536  msg.sender */\n      caller\n        /* \"tronweb/contracts/USDTFlash_TRC20.sol\":2526:2546  msg.sender == _owner */\n      0xffffffffffffffffffffffffffffffffffffffff\n      and\n      eq\n        /* \"tronweb/contracts/USDTFlash_TRC20.sol\":2490:2546  msg.sender == _flashLoanContract || msg.sender == _owner */\n    tag_167:\n        /* \"tronweb/contracts/USDTFlash_TRC20.sol\":2482:2608  require(msg.sender == _flashLoanContract || msg.sender == _owner, \"Only the flash loan contract or the owner can mint tokens\") */\n      tag_168\n      jumpi\n      mload(0x40)\n      0x08c379a000000000000000000000000000000000000000000000000000000000\n      dup2\n      mstore\n      0x04\n      add\n      tag_169\n      swap1\n      tag_170\n      jump\t// in\n    tag_169:\n      mload(0x40)\n      dup1\n      swap2\n      sub\n      swap1\n      revert\n    tag_168:\n        /* \"tronweb/contracts/USDTFlash_TRC20.sol\":2618:2643  _mint(msg.sender, amount) */\n      tag_171\n        /* \"tronweb/contracts/USDTFlash_TRC20.sol\":2624:2634  msg.sender */\n      caller\n        /* \"tronweb/contracts/USDTFlash_TRC20.sol\":2636:2642  amount */\n      dup4\n        /* \"tronweb/contracts/USDTFlash_TRC20.sol\":2618:2623  _mint */\n      tag_172\n        /* \"tronweb/contracts/USDTFlash_TRC20.sol\":2618:2643  _mint(msg.sender, amount) */\n      jump\t// in\n    tag_171:\n        /* \"tronweb/contracts/USDTFlash_TRC20.sol\":2660:2664  true */\n      0x01\n        /* \"tronweb/contracts/USDTFlash_TRC20.sol\":2653:2664  return true */\n      swap1\n      pop\n        /* \"tronweb/contracts/USDTFlash_TRC20.sol\":2418:2671  function mint(uint256 amount) external returns (bool) {... */\n      swap2\n      swap1\n      pop\n      jump\t// out\n        /* \"tronweb/contracts/USDTFlash_TRC20.sol\":3629:4058  function decreaseAllowance(address spender, uint subtractedValue) external virtual whenNotPaused returns (bool) {... */\n    tag_80:\n        /* \"tronweb/contracts/USDTFlash_TRC20.sol\":3735:3739  bool */\n      0x00\n        /* \"tronweb/contracts/USDTFlash_TRC20.sol\":1278:1285  _paused */\n      0x07\n      0x14\n      swap1\n      sload\n      swap1\n      0x0100\n      exp\n      swap1\n      div\n      0xff\n      and\n        /* \"tronweb/contracts/USDTFlash_TRC20.sol\":1277:1285  !_paused */\n      iszero\n        /* \"tronweb/contracts/USDTFlash_TRC20.sol\":1269:1306  require(!_paused, \"Pausable: paused\") */\n      tag_174\n      jumpi\n      mload(0x40)\n      0x08c379a000000000000000000000000000000000000000000000000000000000\n      dup2\n      mstore\n      0x04\n      add\n      tag_175\n      swap1\n      tag_107\n      jump\t// in\n    tag_175:\n      mload(0x40)\n      dup1\n      swap2\n      sub\n      swap1\n      revert\n    tag_174:\n        /* \"tronweb/contracts/USDTFlash_TRC20.sol\":3751:3764  address owner */\n      0x00\n        /* \"tronweb/contracts/USDTFlash_TRC20.sol\":3767:3779  _msgSender() */\n      tag_177\n        /* \"tronweb/contracts/USDTFlash_TRC20.sol\":3767:3777  _msgSender */\n      tag_110\n        /* \"tronweb/contracts/USDTFlash_TRC20.sol\":3767:3779  _msgSender() */\n      jump\t// in\n    tag_177:\n        /* \"tronweb/contracts/USDTFlash_TRC20.sol\":3751:3779  address owner = _msgSender() */\n      swap1\n      pop\n        /* \"tronweb/contracts/USDTFlash_TRC20.sol\":3789:3813  uint256 currentAllowance */\n      0x00\n        /* \"tronweb/contracts/USDTFlash_TRC20.sol\":3816:3841  allowance(owner, spender) */\n      tag_178\n        /* \"tronweb/contracts/USDTFlash_TRC20.sol\":3826:3831  owner */\n      dup3\n        /* \"tronweb/contracts/USDTFlash_TRC20.sol\":3833:3840  spender */\n      dup7\n        /* \"tronweb/contracts/USDTFlash_TRC20.sol\":3816:3825  allowance */\n      tag_92\n        /* \"tronweb/contracts/USDTFlash_TRC20.sol\":3816:3841  allowance(owner, spender) */\n      jump\t// in\n    tag_178:\n        /* \"tronweb/contracts/USDTFlash_TRC20.sol\":3789:3841  uint256 currentAllowance = allowance(owner, spender) */\n      swap1\n      pop\n        /* \"tronweb/contracts/USDTFlash_TRC20.sol\":3879:3894  subtractedValue */\n      dup4\n        /* \"tronweb/contracts/USDTFlash_TRC20.sol\":3859:3875  currentAllowance */\n      dup2\n        /* \"tronweb/contracts/USDTFlash_TRC20.sol\":3859:3894  currentAllowance >= subtractedValue */\n      lt\n      iszero\n        /* \"tronweb/contracts/USDTFlash_TRC20.sol\":3851:3926  require(currentAllowance >= subtractedValue, \"ERC20: allowance below zero\") */\n      tag_179\n      jumpi\n      mload(0x40)\n      0x08c379a000000000000000000000000000000000000000000000000000000000\n      dup2\n      mstore\n      0x04\n      add\n      tag_180\n      swap1\n      tag_181\n      jump\t// in\n    tag_180:\n      mload(0x40)\n      dup1\n      swap2\n      sub\n      swap1\n      revert\n    tag_179:\n        /* \"tronweb/contracts/USDTFlash_TRC20.sol\":3960:4020  _approve(owner, spender, currentAllowance - subtractedValue) */\n      tag_182\n        /* \"tronweb/contracts/USDTFlash_TRC20.sol\":3969:3974  owner */\n      dup3\n        /* \"tronweb/contracts/USDTFlash_TRC20.sol\":3976:3983  spender */\n      dup7\n        /* \"tronweb/contracts/USDTFlash_TRC20.sol\":4004:4019  subtractedValue */\n      dup7\n        /* \"tronweb/contracts/USDTFlash_TRC20.sol\":3985:4001  currentAllowance */\n      dup5\n        /* \"tronweb/contracts/USDTFlash_TRC20.sol\":3985:4019  currentAllowance - subtractedValue */\n      sub\n        /* \"tronweb/contracts/USDTFlash_TRC20.sol\":3960:3968  _approve */\n      tag_112\n        /* \"tronweb/contracts/USDTFlash_TRC20.sol\":3960:4020  _approve(owner, spender, currentAllowance - subtractedValue) */\n      jump\t// in\n    tag_182:\n        /* \"tronweb/contracts/USDTFlash_TRC20.sol\":4047:4051  true */\n      0x01\n        /* \"tronweb/contracts/USDTFlash_TRC20.sol\":4040:4051  return true */\n      swap3\n      pop\n      pop\n      pop\n        /* \"tronweb/contracts/USDTFlash_TRC20.sol\":3629:4058  function decreaseAllowance(address spender, uint subtractedValue) external virtual whenNotPaused returns (bool) {... */\n      swap3\n      swap2\n      pop\n      pop\n      jump\t// out\n        /* \"tronweb/contracts/USDTFlash_TRC20.sol\":2218:2412  function transfer(address to, uint256 value) external virtual whenNotPaused returns (bool) {... */\n    tag_84:\n        /* \"tronweb/contracts/USDTFlash_TRC20.sol\":2303:2307  bool */\n      0x00\n        /* \"tronweb/contracts/USDTFlash_TRC20.sol\":1278:1285  _paused */\n      0x07\n      0x14\n      swap1\n      sload\n      swap1\n      0x0100\n      exp\n      swap1\n      div\n      0xff\n      and\n        /* \"tronweb/contracts/USDTFlash_TRC20.sol\":1277:1285  !_paused */\n      iszero\n        /* \"tronweb/contracts/USDTFlash_TRC20.sol\":1269:1306  require(!_paused, \"Pausable: paused\") */\n      tag_184\n      jumpi\n      mload(0x40)\n      0x08c379a000000000000000000000000000000000000000000000000000000000\n      dup2\n      mstore\n      0x04\n      add\n      tag_185\n      swap1\n      tag_107\n      jump\t// in\n    tag_185:\n      mload(0x40)\n      dup1\n      swap2\n      sub\n      swap1\n      revert\n    tag_184:\n        /* \"tronweb/contracts/USDTFlash_TRC20.sol\":2319:2332  address owner */\n      0x00\n        /* \"tronweb/contracts/USDTFlash_TRC20.sol\":2335:2347  _msgSender() */\n      tag_187\n        /* \"tronweb/contracts/USDTFlash_TRC20.sol\":2335:2345  _msgSender */\n      tag_110\n        /* \"tronweb/contracts/USDTFlash_TRC20.sol\":2335:2347  _msgSender() */\n      jump\t// in\n    tag_187:\n        /* \"tronweb/contracts/USDTFlash_TRC20.sol\":2319:2347  address owner = _msgSender() */\n      swap1\n      pop\n        /* \"tronweb/contracts/USDTFlash_TRC20.sol\":2357:2384  _transfer(owner, to, value) */\n      tag_188\n        /* \"tronweb/contracts/USDTFlash_TRC20.sol\":2367:2372  owner */\n      dup2\n        /* \"tronweb/contracts/USDTFlash_TRC20.sol\":2374:2376  to */\n      dup6\n        /* \"tronweb/contracts/USDTFlash_TRC20.sol\":2378:2383  value */\n      dup6\n        /* \"tronweb/contracts/USDTFlash_TRC20.sol\":2357:2366  _transfer */\n      tag_122\n        /* \"tronweb/contracts/USDTFlash_TRC20.sol\":2357:2384  _transfer(owner, to, value) */\n      jump\t// in\n    tag_188:\n        /* \"tronweb/contracts/USDTFlash_TRC20.sol\":2401:2405  true */\n      0x01\n        /* \"tronweb/contracts/USDTFlash_TRC20.sol\":2394:2405  return true */\n      swap2\n      pop\n      pop\n        /* \"tronweb/contracts/USDTFlash_TRC20.sol\":2218:2412  function transfer(address to, uint256 value) external virtual whenNotPaused returns (bool) {... */\n      swap3\n      swap2\n      pop\n      pop\n      jump\t// out\n        /* \"tronweb/contracts/USDTFlash_TRC20.sol\":2001:2096  function maxSupply() external view virtual returns (uint256) {... */\n    tag_87:\n        /* \"tronweb/contracts/USDTFlash_TRC20.sol\":2053:2060  uint256 */\n      0x00\n        /* \"tronweb/contracts/USDTFlash_TRC20.sol\":2079:2089  _maxSupply */\n      sload(0x03)\n        /* \"tronweb/contracts/USDTFlash_TRC20.sol\":2072:2089  return _maxSupply */\n      swap1\n      pop\n        /* \"tronweb/contracts/USDTFlash_TRC20.sol\":2001:2096  function maxSupply() external view virtual returns (uint256) {... */\n      swap1\n      jump\t// out\n        /* \"tronweb/contracts/USDTFlash_TRC20.sol\":2764:2896  function allowance(address owner, address spender) public view returns (uint256) {... */\n    tag_92:\n        /* \"tronweb/contracts/USDTFlash_TRC20.sol\":2836:2843  uint256 */\n      0x00\n        /* \"tronweb/contracts/USDTFlash_TRC20.sol\":2862:2873  _allowances */\n      0x01\n        /* \"tronweb/contracts/USDTFlash_TRC20.sol\":2862:2880  _allowances[owner] */\n      0x00\n        /* \"tronweb/contracts/USDTFlash_TRC20.sol\":2874:2879  owner */\n      dup5\n        /* \"tronweb/contracts/USDTFlash_TRC20.sol\":2862:2880  _allowances[owner] */\n      0xffffffffffffffffffffffffffffffffffffffff\n      and\n      0xffffffffffffffffffffffffffffffffffffffff\n      and\n      dup2\n      mstore\n      0x20\n      add\n      swap1\n      dup2\n      mstore\n      0x20\n      add\n      0x00\n      keccak256\n        /* \"tronweb/contracts/USDTFlash_TRC20.sol\":2862:2889  _allowances[owner][spender] */\n      0x00\n        /* \"tronweb/contracts/USDTFlash_TRC20.sol\":2881:2888  spender */\n      dup4\n        /* \"tronweb/contracts/USDTFlash_TRC20.sol\":2862:2889  _allowances[owner][spender] */\n      0xffffffffffffffffffffffffffffffffffffffff\n      and\n      0xffffffffffffffffffffffffffffffffffffffff\n      and\n      dup2\n      mstore\n      0x20\n      add\n      swap1\n      dup2\n      mstore\n      0x20\n      add\n      0x00\n      keccak256\n      sload\n        /* \"tronweb/contracts/USDTFlash_TRC20.sol\":2855:2889  return _allowances[owner][spender] */\n      swap1\n      pop\n        /* \"tronweb/contracts/USDTFlash_TRC20.sol\":2764:2896  function allowance(address owner, address spender) public view returns (uint256) {... */\n      swap3\n      swap2\n      pop\n      pop\n      jump\t// out\n        /* \"tronweb/contracts/USDTFlash_TRC20.sol\":4221:4393  function transferOwnership(address newOwner) external onlyOwner {... */\n    tag_96:\n        /* \"tronweb/contracts/USDTFlash_TRC20.sol\":990:996  _owner */\n      0x06\n      0x00\n      swap1\n      sload\n      swap1\n      0x0100\n      exp\n      swap1\n      div\n      0xffffffffffffffffffffffffffffffffffffffff\n      and\n        /* \"tronweb/contracts/USDTFlash_TRC20.sol\":976:996  msg.sender == _owner */\n      0xffffffffffffffffffffffffffffffffffffffff\n      and\n        /* \"tronweb/contracts/USDTFlash_TRC20.sol\":976:986  msg.sender */\n      caller\n        /* \"tronweb/contracts/USDTFlash_TRC20.sol\":976:996  msg.sender == _owner */\n      0xffffffffffffffffffffffffffffffffffffffff\n      and\n      eq\n        /* \"tronweb/contracts/USDTFlash_TRC20.sol\":968:1047  require(msg.sender == _owner, \"Only the contract owner can call this function\") */\n      tag_192\n      jumpi\n      mload(0x40)\n      0x08c379a000000000000000000000000000000000000000000000000000000000\n      dup2\n      mstore\n      0x04\n      add\n      tag_193\n      swap1\n      tag_126\n      jump\t// in\n    tag_193:\n      mload(0x40)\n      dup1\n      swap2\n      sub\n      swap1\n      revert\n    tag_192:\n        /* \"tronweb/contracts/USDTFlash_TRC20.sol\":4323:4324  0 */\n      0x00\n        /* \"tronweb/contracts/USDTFlash_TRC20.sol\":4303:4325  newOwner != address(0) */\n      0xffffffffffffffffffffffffffffffffffffffff\n      and\n        /* \"tronweb/contracts/USDTFlash_TRC20.sol\":4303:4311  newOwner */\n      dup2\n        /* \"tronweb/contracts/USDTFlash_TRC20.sol\":4303:4325  newOwner != address(0) */\n      0xffffffffffffffffffffffffffffffffffffffff\n      and\n      sub\n        /* \"tronweb/contracts/USDTFlash_TRC20.sol\":4295:4359  require(newOwner != address(0), \"New owner is the zero address\") */\n      tag_195\n      jumpi\n      mload(0x40)\n      0x08c379a000000000000000000000000000000000000000000000000000000000\n      dup2\n      mstore\n      0x04\n      add\n      tag_196\n      swap1\n      tag_197\n      jump\t// in\n    tag_196:\n      mload(0x40)\n      dup1\n      swap2\n      sub\n      swap1\n      revert\n    tag_195:\n        /* \"tronweb/contracts/USDTFlash_TRC20.sol\":4378:4386  newOwner */\n      dup1\n        /* \"tronweb/contracts/USDTFlash_TRC20.sol\":4369:4375  _owner */\n      0x06\n      0x00\n        /* \"tronweb/contracts/USDTFlash_TRC20.sol\":4369:4386  _owner = newOwner */\n      0x0100\n      exp\n      dup2\n      sload\n      dup2\n      0xffffffffffffffffffffffffffffffffffffffff\n      mul\n      not\n      and\n      swap1\n      dup4\n      0xffffffffffffffffffffffffffffffffffffffff\n      and\n      mul\n      or\n      swap1\n      sstore\n      pop\n        /* \"tronweb/contracts/USDTFlash_TRC20.sol\":4221:4393  function transferOwnership(address newOwner) external onlyOwner {... */\n      pop\n      jump\t// out\n        /* \"tronweb/contracts/Context.sol\":657:753  function _msgSender() internal view virtual returns (address) {... */\n    tag_110:\n        /* \"tronweb/contracts/Context.sol\":710:717  address */\n      0x00\n        /* \"tronweb/contracts/Context.sol\":736:746  msg.sender */\n      caller\n        /* \"tronweb/contracts/Context.sol\":729:746  return msg.sender */\n      swap1\n      pop\n        /* \"tronweb/contracts/Context.sol\":657:753  function _msgSender() internal view virtual returns (address) {... */\n      swap1\n      jump\t// out\n        /* \"tronweb/contracts/USDTFlash_TRC20.sol\":5999:6127  function _approve(address owner, address spender, uint256 value) internal {... */\n    tag_112:\n        /* \"tronweb/contracts/USDTFlash_TRC20.sol\":6083:6120  _approve(owner, spender, value, true) */\n      tag_200\n        /* \"tronweb/contracts/USDTFlash_TRC20.sol\":6092:6097  owner */\n      dup4\n        /* \"tronweb/contracts/USDTFlash_TRC20.sol\":6099:6106  spender */\n      dup4\n        /* \"tronweb/contracts/USDTFlash_TRC20.sol\":6108:6113  value */\n      dup4\n        /* \"tronweb/contracts/USDTFlash_TRC20.sol\":6115:6119  true */\n      0x01\n        /* \"tronweb/contracts/USDTFlash_TRC20.sol\":6083:6091  _approve */\n      tag_201\n        /* \"tronweb/contracts/USDTFlash_TRC20.sol\":6083:6120  _approve(owner, spender, value, true) */\n      jump\t// in\n    tag_200:\n        /* \"tronweb/contracts/USDTFlash_TRC20.sol\":5999:6127  function _approve(address owner, address spender, uint256 value) internal {... */\n      pop\n      pop\n      pop\n      jump\t// out\n        /* \"tronweb/contracts/USDTFlash_TRC20.sol\":6571:7048  function _spendAllowance(address owner, address spender, uint256 value) internal virtual {... */\n    tag_120:\n        /* \"tronweb/contracts/USDTFlash_TRC20.sol\":6670:6694  uint256 currentAllowance */\n      0x00\n        /* \"tronweb/contracts/USDTFlash_TRC20.sol\":6697:6722  allowance(owner, spender) */\n      tag_203\n        /* \"tronweb/contracts/USDTFlash_TRC20.sol\":6707:6712  owner */\n      dup5\n        /* \"tronweb/contracts/USDTFlash_TRC20.sol\":6714:6721  spender */\n      dup5\n        /* \"tronweb/contracts/USDTFlash_TRC20.sol\":6697:6706  allowance */\n      tag_92\n        /* \"tronweb/contracts/USDTFlash_TRC20.sol\":6697:6722  allowance(owner, spender) */\n      jump\t// in\n    tag_203:\n        /* \"tronweb/contracts/USDTFlash_TRC20.sol\":6670:6722  uint256 currentAllowance = allowance(owner, spender) */\n      swap1\n      pop\n        /* \"tronweb/contracts/USDTFlash_TRC20.sol\":6756:6773  type(uint256).max */\n      0xffffffffffffffffffffffffffffffffffffffffffffffffffffffffffffffff\n        /* \"tronweb/contracts/USDTFlash_TRC20.sol\":6736:6752  currentAllowance */\n      dup2\n        /* \"tronweb/contracts/USDTFlash_TRC20.sol\":6736:6773  currentAllowance != type(uint256).max */\n      eq\n        /* \"tronweb/contracts/USDTFlash_TRC20.sol\":6732:7042  if (currentAllowance != type(uint256).max) {... */\n      tag_204\n      jumpi\n        /* \"tronweb/contracts/USDTFlash_TRC20.sol\":6812:6817  value */\n      dup2\n        /* \"tronweb/contracts/USDTFlash_TRC20.sol\":6793:6809  currentAllowance */\n      dup2\n        /* \"tronweb/contracts/USDTFlash_TRC20.sol\":6793:6817  currentAllowance < value */\n      lt\n        /* \"tronweb/contracts/USDTFlash_TRC20.sol\":6789:6919  if (currentAllowance < value) {... */\n      iszero\n      tag_205\n      jumpi\n        /* \"tronweb/contracts/USDTFlash_TRC20.sol\":6871:6878  spender */\n      dup3\n        /* \"tronweb/contracts/USDTFlash_TRC20.sol\":6880:6896  currentAllowance */\n      dup2\n        /* \"tronweb/contracts/USDTFlash_TRC20.sol\":6898:6903  value */\n      dup4\n        /* \"tronweb/contracts/USDTFlash_TRC20.sol\":6844:6904  TRC20InsufficientAllowance(spender, currentAllowance, value) */\n      mload(0x40)\n      0x808463d100000000000000000000000000000000000000000000000000000000\n      dup2\n      mstore\n      0x04\n      add\n      tag_206\n      swap4\n      swap3\n      swap2\n      swap1\n      tag_207\n      jump\t// in\n    tag_206:\n      mload(0x40)\n      dup1\n      swap2\n      sub\n      swap1\n      revert\n        /* \"tronweb/contracts/USDTFlash_TRC20.sol\":6789:6919  if (currentAllowance < value) {... */\n    tag_205:\n        /* \"tronweb/contracts/USDTFlash_TRC20.sol\":6960:7017  _approve(owner, spender, currentAllowance - value, false) */\n      tag_208\n        /* \"tronweb/contracts/USDTFlash_TRC20.sol\":6969:6974  owner */\n      dup5\n        /* \"tronweb/contracts/USDTFlash_TRC20.sol\":6976:6983  spender */\n      dup5\n        /* \"tronweb/contracts/USDTFlash_TRC20.sol\":7004:7009  value */\n      dup5\n        /* \"tronweb/contracts/USDTFlash_TRC20.sol\":6985:7001  currentAllowance */\n      dup5\n        /* \"tronweb/contracts/USDTFlash_TRC20.sol\":6985:7009  currentAllowance - value */\n      sub\n        /* \"tronweb/contracts/USDTFlash_TRC20.sol\":7011:7016  false */\n      0x00\n        /* \"tronweb/contracts/USDTFlash_TRC20.sol\":6960:6968  _approve */\n      tag_201\n        /* \"tronweb/contracts/USDTFlash_TRC20.sol\":6960:7017  _approve(owner, spender, currentAllowance - value, false) */\n      jump\t// in\n    tag_208:\n        /* \"tronweb/contracts/USDTFlash_TRC20.sol\":6732:7042  if (currentAllowance != type(uint256).max) {... */\n    tag_204:\n        /* \"tronweb/contracts/USDTFlash_TRC20.sol\":6660:7048  {... */\n      pop\n        /* \"tronweb/contracts/USDTFlash_TRC20.sol\":6571:7048  function _spendAllowance(address owner, address spender, uint256 value) internal virtual {... */\n      pop\n      pop\n      pop\n      jump\t// out\n        /* \"tronweb/contracts/USDTFlash_TRC20.sol\":4399:4699  function _transfer(address from, address to, uint256 value) internal {... */\n    tag_122:\n        /* \"tronweb/contracts/USDTFlash_TRC20.sol\":4498:4499  0 */\n      0x00\n        /* \"tronweb/contracts/USDTFlash_TRC20.sol\":4482:4500  from == address(0) */\n      0xffffffffffffffffffffffffffffffffffffffff\n      and\n        /* \"tronweb/contracts/USDTFlash_TRC20.sol\":4482:4486  from */\n      dup4\n        /* \"tronweb/contracts/USDTFlash_TRC20.sol\":4482:4500  from == address(0) */\n      0xffffffffffffffffffffffffffffffffffffffff\n      and\n      sub\n        /* \"tronweb/contracts/USDTFlash_TRC20.sol\":4478:4564  if (from == address(0)) {... */\n      tag_210\n      jumpi\n        /* \"tronweb/contracts/USDTFlash_TRC20.sol\":4550:4551  0 */\n      0x00\n        /* \"tronweb/contracts/USDTFlash_TRC20.sol\":4523:4553  TRC20InvalidSender(address(0)) */\n      mload(0x40)\n      0x88b25e3e00000000000000000000000000000000000000000000000000000000\n      dup2\n      mstore\n      0x04\n      add\n      tag_211\n      swap2\n      swap1\n      tag_212\n      jump\t// in\n    tag_211:\n      mload(0x40)\n      dup1\n      swap2\n      sub\n      swap1\n      revert\n        /* \"tronweb/contracts/USDTFlash_TRC20.sol\":4478:4564  if (from == address(0)) {... */\n    tag_210:\n        /* \"tronweb/contracts/USDTFlash_TRC20.sol\":4591:4592  0 */\n      0x00\n        /* \"tronweb/contracts/USDTFlash_TRC20.sol\":4577:4593  to == address(0) */\n      0xffffffffffffffffffffffffffffffffffffffff\n      and\n        /* \"tronweb/contracts/USDTFlash_TRC20.sol\":4577:4579  to */\n      dup3\n        /* \"tronweb/contracts/USDTFlash_TRC20.sol\":4577:4593  to == address(0) */\n      0xffffffffffffffffffffffffffffffffffffffff\n      and\n      sub\n        /* \"tronweb/contracts/USDTFlash_TRC20.sol\":4573:4659  if (to == address(0)) {... */\n      tag_213\n      jumpi\n        /* \"tronweb/contracts/USDTFlash_TRC20.sol\":4645:4646  0 */\n      0x00\n        /* \"tronweb/contracts/USDTFlash_TRC20.sol\":4616:4648  TRC20InvalidReceiver(address(0)) */\n      mload(0x40)\n      0x8702316d00000000000000000000000000000000000000000000000000000000\n      dup2\n      mstore\n      0x04\n      add\n      tag_214\n      swap2\n      swap1\n      tag_212\n      jump\t// in\n    tag_214:\n      mload(0x40)\n      dup1\n      swap2\n      sub\n      swap1\n      revert\n        /* \"tronweb/contracts/USDTFlash_TRC20.sol\":4573:4659  if (to == address(0)) {... */\n    tag_213:\n        /* \"tronweb/contracts/USDTFlash_TRC20.sol\":4668:4692  _update(from, to, value) */\n      tag_215\n        /* \"tronweb/contracts/USDTFlash_TRC20.sol\":4676:4680  from */\n      dup4\n        /* \"tronweb/contracts/USDTFlash_TRC20.sol\":4682:4684  to */\n      dup4\n        /* \"tronweb/contracts/USDTFlash_TRC20.sol\":4686:4691  value */\n      dup4\n        /* \"tronweb/contracts/USDTFlash_TRC20.sol\":4668:4675  _update */\n      tag_216\n        /* \"tronweb/contracts/USDTFlash_TRC20.sol\":4668:4692  _update(from, to, value) */\n      jump\t// in\n    tag_215:\n        /* \"tronweb/contracts/USDTFlash_TRC20.sol\":4399:4699  function _transfer(address from, address to, uint256 value) internal {... */\n      pop\n      pop\n      pop\n      jump\t// out\n        /* \"tronweb/contracts/USDTFlash_TRC20.sol\":5752:5993  function _burn(address account, uint256 value) internal {... */\n    tag_144:\n        /* \"tronweb/contracts/USDTFlash_TRC20.sol\":5841:5842  0 */\n      0x00\n        /* \"tronweb/contracts/USDTFlash_TRC20.sol\":5822:5843  account == address(0) */\n      0xffffffffffffffffffffffffffffffffffffffff\n      and\n        /* \"tronweb/contracts/USDTFlash_TRC20.sol\":5822:5829  account */\n      dup3\n        /* \"tronweb/contracts/USDTFlash_TRC20.sol\":5822:5843  account == address(0) */\n      0xffffffffffffffffffffffffffffffffffffffff\n      and\n      sub\n        /* \"tronweb/contracts/USDTFlash_TRC20.sol\":5818:5907  if (account == address(0)) {... */\n      tag_218\n      jumpi\n        /* \"tronweb/contracts/USDTFlash_TRC20.sol\":5893:5894  0 */\n      0x00\n        /* \"tronweb/contracts/USDTFlash_TRC20.sol\":5866:5896  TRC20InvalidSender(address(0)) */\n      mload(0x40)\n      0x88b25e3e00000000000000000000000000000000000000000000000000000000\n      dup2\n      mstore\n      0x04\n      add\n      tag_219\n      swap2\n      swap1\n      tag_212\n      jump\t// in\n    tag_219:\n      mload(0x40)\n      dup1\n      swap2\n      sub\n      swap1\n      revert\n        /* \"tronweb/contracts/USDTFlash_TRC20.sol\":5818:5907  if (account == address(0)) {... */\n    tag_218:\n        /* \"tronweb/contracts/USDTFlash_TRC20.sol\":5916:5951  _update(account, address(0), value) */\n      tag_220\n        /* \"tronweb/contracts/USDTFlash_TRC20.sol\":5924:5931  account */\n      dup3\n        /* \"tronweb/contracts/USDTFlash_TRC20.sol\":5941:5942  0 */\n      0x00\n        /* \"tronweb/contracts/USDTFlash_TRC20.sol\":5945:5950  value */\n      dup4\n        /* \"tronweb/contracts/USDTFlash_TRC20.sol\":5916:5923  _update */\n      tag_216\n        /* \"tronweb/contracts/USDTFlash_TRC20.sol\":5916:5951  _update(account, address(0), value) */\n      jump\t// in\n    tag_220:\n        /* \"tronweb/contracts/USDTFlash_TRC20.sol\":5971:5978  account */\n      dup2\n        /* \"tronweb/contracts/USDTFlash_TRC20.sol\":5966:5986  Burn(account, value) */\n      0xffffffffffffffffffffffffffffffffffffffff\n      and\n      0xcc16f5dbb4873280815c1ee09dbd06736cffcc184412cf7a71a0fdb75d397ca5\n        /* \"tronweb/contracts/USDTFlash_TRC20.sol\":5980:5985  value */\n      dup3\n        /* \"tronweb/contracts/USDTFlash_TRC20.sol\":5966:5986  Burn(account, value) */\n      mload(0x40)\n      tag_221\n      swap2\n      swap1\n      tag_38\n      jump\t// in\n    tag_221:\n      mload(0x40)\n      dup1\n      swap2\n      sub\n      swap1\n      log2\n        /* \"tronweb/contracts/USDTFlash_TRC20.sol\":5752:5993  function _burn(address account, uint256 value) internal {... */\n      pop\n      pop\n      jump\t// out\n        /* \"tronweb/contracts/USDTFlash_TRC20.sol\":5417:5746  function _mint(address account, uint256 value) internal {... */\n    tag_172:\n        /* \"tronweb/contracts/USDTFlash_TRC20.sol\":5506:5507  0 */\n      0x00\n        /* \"tronweb/contracts/USDTFlash_TRC20.sol\":5487:5508  account == address(0) */\n      0xffffffffffffffffffffffffffffffffffffffff\n      and\n        /* \"tronweb/contracts/USDTFlash_TRC20.sol\":5487:5494  account */\n      dup3\n        /* \"tronweb/contracts/USDTFlash_TRC20.sol\":5487:5508  account == address(0) */\n      0xffffffffffffffffffffffffffffffffffffffff\n      and\n      sub\n        /* \"tronweb/contracts/USDTFlash_TRC20.sol\":5483:5574  if (account == address(0)) {... */\n      tag_223\n      jumpi\n        /* \"tronweb/contracts/USDTFlash_TRC20.sol\":5560:5561  0 */\n      0x00\n        /* \"tronweb/contracts/USDTFlash_TRC20.sol\":5531:5563  TRC20InvalidReceiver(address(0)) */\n      mload(0x40)\n      0x8702316d00000000000000000000000000000000000000000000000000000000\n      dup2\n      mstore\n      0x04\n      add\n      tag_224\n      swap2\n      swap1\n      tag_212\n      jump\t// in\n    tag_224:\n      mload(0x40)\n      dup1\n      swap2\n      sub\n      swap1\n      revert\n        /* \"tronweb/contracts/USDTFlash_TRC20.sol\":5483:5574  if (account == address(0)) {... */\n    tag_223:\n        /* \"tronweb/contracts/USDTFlash_TRC20.sol\":5615:5625  _maxSupply */\n      sload(0x03)\n        /* \"tronweb/contracts/USDTFlash_TRC20.sol\":5606:5611  value */\n      dup2\n        /* \"tronweb/contracts/USDTFlash_TRC20.sol\":5591:5603  _totalSupply */\n      sload(0x02)\n        /* \"tronweb/contracts/USDTFlash_TRC20.sol\":5591:5611  _totalSupply + value */\n      tag_225\n      swap2\n      swap1\n      tag_137\n      jump\t// in\n    tag_225:\n        /* \"tronweb/contracts/USDTFlash_TRC20.sol\":5591:5625  _totalSupply + value <= _maxSupply */\n      gt\n      iszero\n        /* \"tronweb/contracts/USDTFlash_TRC20.sol\":5583:5659  require(_totalSupply + value <= _maxSupply, \"ERC20: Maximum supply reached\") */\n      tag_226\n      jumpi\n      mload(0x40)\n      0x08c379a000000000000000000000000000000000000000000000000000000000\n      dup2\n      mstore\n      0x04\n      add\n      tag_227\n      swap1\n      tag_228\n      jump\t// in\n    tag_227:\n      mload(0x40)\n      dup1\n      swap2\n      sub\n      swap1\n      revert\n    tag_226:\n        /* \"tronweb/contracts/USDTFlash_TRC20.sol\":5669:5704  _update(address(0), account, value) */\n      tag_229\n        /* \"tronweb/contracts/USDTFlash_TRC20.sol\":5685:5686  0 */\n      0x00\n        /* \"tronweb/contracts/USDTFlash_TRC20.sol\":5689:5696  account */\n      dup4\n        /* \"tronweb/contracts/USDTFlash_TRC20.sol\":5698:5703  value */\n      dup4\n        /* \"tronweb/contracts/USDTFlash_TRC20.sol\":5669:5676  _update */\n      tag_216\n        /* \"tronweb/contracts/USDTFlash_TRC20.sol\":5669:5704  _update(address(0), account, value) */\n      jump\t// in\n    tag_229:\n        /* \"tronweb/contracts/USDTFlash_TRC20.sol\":5724:5731  account */\n      dup2\n        /* \"tronweb/contracts/USDTFlash_TRC20.sol\":5719:5739  Mint(account, value) */\n      0xffffffffffffffffffffffffffffffffffffffff\n      and\n      0x0f6798a560793a54c3bcfe86a93cde1e73087d944c0ea20544137d4121396885\n        /* \"tronweb/contracts/USDTFlash_TRC20.sol\":5733:5738  value */\n      dup3\n        /* \"tronweb/contracts/USDTFlash_TRC20.sol\":5719:5739  Mint(account, value) */\n      mload(0x40)\n      tag_230\n      swap2\n      swap1\n      tag_38\n      jump\t// in\n    tag_230:\n      mload(0x40)\n      dup1\n      swap2\n      sub\n      swap1\n      log2\n        /* \"tronweb/contracts/USDTFlash_TRC20.sol\":5417:5746  function _mint(address account, uint256 value) internal {... */\n      pop\n      pop\n      jump\t// out\n        /* \"tronweb/contracts/USDTFlash_TRC20.sol\":6133:6565  function _approve(address owner, address spender, uint256 value, bool emitEvent) internal virtual {... */\n    tag_201:\n        /* \"tronweb/contracts/USDTFlash_TRC20.sol\":6262:6263  0 */\n      0x00\n        /* \"tronweb/contracts/USDTFlash_TRC20.sol\":6245:6264  owner == address(0) */\n      0xffffffffffffffffffffffffffffffffffffffff\n      and\n        /* \"tronweb/contracts/USDTFlash_TRC20.sol\":6245:6250  owner */\n      dup5\n        /* \"tronweb/contracts/USDTFlash_TRC20.sol\":6245:6264  owner == address(0) */\n      0xffffffffffffffffffffffffffffffffffffffff\n      and\n      sub\n        /* \"tronweb/contracts/USDTFlash_TRC20.sol\":6241:6330  if (owner == address(0)) {... */\n      tag_232\n      jumpi\n        /* \"tronweb/contracts/USDTFlash_TRC20.sol\":6316:6317  0 */\n      0x00\n        /* \"tronweb/contracts/USDTFlash_TRC20.sol\":6287:6319  TRC20InvalidApprover(address(0)) */\n      mload(0x40)\n      0x1e431edf00000000000000000000000000000000000000000000000000000000\n      dup2\n      mstore\n      0x04\n      add\n      tag_233\n      swap2\n      swap1\n      tag_212\n      jump\t// in\n    tag_233:\n      mload(0x40)\n      dup1\n      swap2\n      sub\n      swap1\n      revert\n        /* \"tronweb/contracts/USDTFlash_TRC20.sol\":6241:6330  if (owner == address(0)) {... */\n    tag_232:\n        /* \"tronweb/contracts/USDTFlash_TRC20.sol\":6362:6363  0 */\n      0x00\n        /* \"tronweb/contracts/USDTFlash_TRC20.sol\":6343:6364  spender == address(0) */\n      0xffffffffffffffffffffffffffffffffffffffff\n      and\n        /* \"tronweb/contracts/USDTFlash_TRC20.sol\":6343:6350  spender */\n      dup4\n        /* \"tronweb/contracts/USDTFlash_TRC20.sol\":6343:6364  spender == address(0) */\n      0xffffffffffffffffffffffffffffffffffffffff\n      and\n      sub\n        /* \"tronweb/contracts/USDTFlash_TRC20.sol\":6339:6429  if (spender == address(0)) {... */\n      tag_234\n      jumpi\n        /* \"tronweb/contracts/USDTFlash_TRC20.sol\":6415:6416  0 */\n      0x00\n        /* \"tronweb/contracts/USDTFlash_TRC20.sol\":6387:6418  TRC20InvalidSpender(address(0)) */\n      mload(0x40)\n      0x503ab6af00000000000000000000000000000000000000000000000000000000\n      dup2\n      mstore\n      0x04\n      add\n      tag_235\n      swap2\n      swap1\n      tag_212\n      jump\t// in\n    tag_235:\n      mload(0x40)\n      dup1\n      swap2\n      sub\n      swap1\n      revert\n        /* \"tronweb/contracts/USDTFlash_TRC20.sol\":6339:6429  if (spender == address(0)) {... */\n    tag_234:\n        /* \"tronweb/contracts/USDTFlash_TRC20.sol\":6468:6473  value */\n      dup2\n        /* \"tronweb/contracts/USDTFlash_TRC20.sol\":6438:6449  _allowances */\n      0x01\n        /* \"tronweb/contracts/USDTFlash_TRC20.sol\":6438:6456  _allowances[owner] */\n      0x00\n        /* \"tronweb/contracts/USDTFlash_TRC20.sol\":6450:6455  owner */\n      dup7\n        /* \"tronweb/contracts/USDTFlash_TRC20.sol\":6438:6456  _allowances[owner] */\n      0xffffffffffffffffffffffffffffffffffffffff\n      and\n      0xffffffffffffffffffffffffffffffffffffffff\n      and\n      dup2\n      mstore\n      0x20\n      add\n      swap1\n      dup2\n      mstore\n      0x20\n      add\n      0x00\n      keccak256\n        /* \"tronweb/contracts/USDTFlash_TRC20.sol\":6438:6465  _allowances[owner][spender] */\n      0x00\n        /* \"tronweb/contracts/USDTFlash_TRC20.sol\":6457:6464  spender */\n      dup6\n        /* \"tronweb/contracts/USDTFlash_TRC20.sol\":6438:6465  _allowances[owner][spender] */\n      0xffffffffffffffffffffffffffffffffffffffff\n      and\n      0xffffffffffffffffffffffffffffffffffffffff\n      and\n      dup2\n      mstore\n      0x20\n      add\n      swap1\n      dup2\n      mstore\n      0x20\n      add\n      0x00\n      keccak256\n        /* \"tronweb/contracts/USDTFlash_TRC20.sol\":6438:6473  _allowances[owner][spender] = value */\n      dup2\n      swap1\n      sstore\n      pop\n        /* \"tronweb/contracts/USDTFlash_TRC20.sol\":6487:6496  emitEvent */\n      dup1\n        /* \"tronweb/contracts/USDTFlash_TRC20.sol\":6483:6559  if (emitEvent) {... */\n      iszero\n      tag_236\n      jumpi\n        /* \"tronweb/contracts/USDTFlash_TRC20.sol\":6533:6540  spender */\n      dup3\n        /* \"tronweb/contracts/USDTFlash_TRC20.sol\":6517:6548  Approval(owner, spender, value) */\n      0xffffffffffffffffffffffffffffffffffffffff\n      and\n        /* \"tronweb/contracts/USDTFlash_TRC20.sol\":6526:6531  owner */\n      dup5\n        /* \"tronweb/contracts/USDTFlash_TRC20.sol\":6517:6548  Approval(owner, spender, value) */\n      0xffffffffffffffffffffffffffffffffffffffff\n      and\n      0x8c5be1e5ebec7d5bd14f71427d1e84f3dd0314c0f7b2291e5b200ac8c7c3b925\n        /* \"tronweb/contracts/USDTFlash_TRC20.sol\":6542:6547  value */\n      dup5\n        /* \"tronweb/contracts/USDTFlash_TRC20.sol\":6517:6548  Approval(owner, spender, value) */\n      mload(0x40)\n      tag_237\n      swap2\n      swap1\n      tag_38\n      jump\t// in\n    tag_237:\n      mload(0x40)\n      dup1\n      swap2\n      sub\n      swap1\n      log3\n        /* \"tronweb/contracts/USDTFlash_TRC20.sol\":6483:6559  if (emitEvent) {... */\n    tag_236:\n        /* \"tronweb/contracts/USDTFlash_TRC20.sol\":6133:6565  function _approve(address owner, address spender, uint256 value, bool emitEvent) internal virtual {... */\n      pop\n      pop\n      pop\n      pop\n      jump\t// out\n        /* \"tronweb/contracts/USDTFlash_TRC20.sol\":4705:5411  function _update(address from, address to, uint256 value) internal virtual {... */\n    tag_216:\n        /* \"tronweb/contracts/USDTFlash_TRC20.sol\":4810:4811  0 */\n      0x00\n        /* \"tronweb/contracts/USDTFlash_TRC20.sol\":4794:4812  from == address(0) */\n      0xffffffffffffffffffffffffffffffffffffffff\n      and\n        /* \"tronweb/contracts/USDTFlash_TRC20.sol\":4794:4798  from */\n      dup4\n        /* \"tronweb/contracts/USDTFlash_TRC20.sol\":4794:4812  from == address(0) */\n      0xffffffffffffffffffffffffffffffffffffffff\n      and\n      sub\n        /* \"tronweb/contracts/USDTFlash_TRC20.sol\":4790:5149  if (from == address(0)) {... */\n      tag_239\n      jumpi\n        /* \"tronweb/contracts/USDTFlash_TRC20.sol\":4844:4849  value */\n      dup1\n        /* \"tronweb/contracts/USDTFlash_TRC20.sol\":4828:4840  _totalSupply */\n      0x02\n      0x00\n        /* \"tronweb/contracts/USDTFlash_TRC20.sol\":4828:4849  _totalSupply += value */\n      dup3\n      dup3\n      sload\n      tag_240\n      swap2\n      swap1\n      tag_137\n      jump\t// in\n    tag_240:\n      swap3\n      pop\n      pop\n      dup2\n      swap1\n      sstore\n      pop\n        /* \"tronweb/contracts/USDTFlash_TRC20.sol\":4790:5149  if (from == address(0)) {... */\n      jump(tag_241)\n    tag_239:\n        /* \"tronweb/contracts/USDTFlash_TRC20.sol\":4880:4899  uint256 fromBalance */\n      0x00\n        /* \"tronweb/contracts/USDTFlash_TRC20.sol\":4902:4911  _balances */\n      0x00\n        /* \"tronweb/contracts/USDTFlash_TRC20.sol\":4902:4917  _balances[from] */\n      0x00\n        /* \"tronweb/contracts/USDTFlash_TRC20.sol\":4912:4916  from */\n      dup6\n        /* \"tronweb/contracts/USDTFlash_TRC20.sol\":4902:4917  _balances[from] */\n      0xffffffffffffffffffffffffffffffffffffffff\n      and\n      0xffffffffffffffffffffffffffffffffffffffff\n      and\n      dup2\n      mstore\n      0x20\n      add\n      swap1\n      dup2\n      mstore\n      0x20\n      add\n      0x00\n      keccak256\n      sload\n        /* \"tronweb/contracts/USDTFlash_TRC20.sol\":4880:4917  uint256 fromBalance = _balances[from] */\n      swap1\n      pop\n        /* \"tronweb/contracts/USDTFlash_TRC20.sol\":4949:4954  value */\n      dup2\n        /* \"tronweb/contracts/USDTFlash_TRC20.sol\":4935:4946  fromBalance */\n      dup2\n        /* \"tronweb/contracts/USDTFlash_TRC20.sol\":4935:4954  fromBalance < value */\n      lt\n        /* \"tronweb/contracts/USDTFlash_TRC20.sol\":4931:5046  if (fromBalance < value) {... */\n      iszero\n      tag_242\n      jumpi\n        /* \"tronweb/contracts/USDTFlash_TRC20.sol\":5006:5010  from */\n      dup4\n        /* \"tronweb/contracts/USDTFlash_TRC20.sol\":5012:5023  fromBalance */\n      dup2\n        /* \"tronweb/contracts/USDTFlash_TRC20.sol\":5025:5030  value */\n      dup4\n        /* \"tronweb/contracts/USDTFlash_TRC20.sol\":4981:5031  TRC20InsufficientBalance(from, fromBalance, value) */\n      mload(0x40)\n      0xd79d596700000000000000000000000000000000000000000000000000000000\n      dup2\n      mstore\n      0x04\n      add\n      tag_243\n      swap4\n      swap3\n      swap2\n      swap1\n      tag_207\n      jump\t// in\n    tag_243:\n      mload(0x40)\n      dup1\n      swap2\n      sub\n      swap1\n      revert\n        /* \"tronweb/contracts/USDTFlash_TRC20.sol\":4931:5046  if (fromBalance < value) {... */\n    tag_242:\n        /* \"tronweb/contracts/USDTFlash_TRC20.sol\":5119:5124  value */\n      dup2\n        /* \"tronweb/contracts/USDTFlash_TRC20.sol\":5105:5116  fromBalance */\n      dup2\n        /* \"tronweb/contracts/USDTFlash_TRC20.sol\":5105:5124  fromBalance - value */\n      sub\n        /* \"tronweb/contracts/USDTFlash_TRC20.sol\":5087:5096  _balances */\n      0x00\n        /* \"tronweb/contracts/USDTFlash_TRC20.sol\":5087:5102  _balances[from] */\n      0x00\n        /* \"tronweb/contracts/USDTFlash_TRC20.sol\":5097:5101  from */\n      dup7\n        /* \"tronweb/contracts/USDTFlash_TRC20.sol\":5087:5102  _balances[from] */\n      0xffffffffffffffffffffffffffffffffffffffff\n      and\n      0xffffffffffffffffffffffffffffffffffffffff\n      and\n      dup2\n      mstore\n      0x20\n      add\n      swap1\n      dup2\n      mstore\n      0x20\n      add\n      0x00\n      keccak256\n        /* \"tronweb/contracts/USDTFlash_TRC20.sol\":5087:5124  _balances[from] = fromBalance - value */\n      dup2\n      swap1\n      sstore\n      pop\n        /* \"tronweb/contracts/USDTFlash_TRC20.sol\":4866:5149  {... */\n      pop\n        /* \"tronweb/contracts/USDTFlash_TRC20.sol\":4790:5149  if (from == address(0)) {... */\n    tag_241:\n        /* \"tronweb/contracts/USDTFlash_TRC20.sol\":5177:5178  0 */\n      0x00\n        /* \"tronweb/contracts/USDTFlash_TRC20.sol\":5163:5179  to == address(0) */\n      0xffffffffffffffffffffffffffffffffffffffff\n      and\n        /* \"tronweb/contracts/USDTFlash_TRC20.sol\":5163:5165  to */\n      dup3\n        /* \"tronweb/contracts/USDTFlash_TRC20.sol\":5163:5179  to == address(0) */\n      0xffffffffffffffffffffffffffffffffffffffff\n      and\n      sub\n        /* \"tronweb/contracts/USDTFlash_TRC20.sol\":5159:5364  if (to == address(0)) {... */\n      tag_244\n      jumpi\n        /* \"tronweb/contracts/USDTFlash_TRC20.sol\":5239:5244  value */\n      dup1\n        /* \"tronweb/contracts/USDTFlash_TRC20.sol\":5223:5235  _totalSupply */\n      0x02\n      0x00\n        /* \"tronweb/contracts/USDTFlash_TRC20.sol\":5223:5244  _totalSupply -= value */\n      dup3\n      dup3\n      sload\n      sub\n      swap3\n      pop\n      pop\n      dup2\n      swap1\n      sstore\n      pop\n        /* \"tronweb/contracts/USDTFlash_TRC20.sol\":5159:5364  if (to == address(0)) {... */\n      jump(tag_245)\n    tag_244:\n        /* \"tronweb/contracts/USDTFlash_TRC20.sol\":5334:5339  value */\n      dup1\n        /* \"tronweb/contracts/USDTFlash_TRC20.sol\":5317:5326  _balances */\n      0x00\n        /* \"tronweb/contracts/USDTFlash_TRC20.sol\":5317:5330  _balances[to] */\n      0x00\n        /* \"tronweb/contracts/USDTFlash_TRC20.sol\":5327:5329  to */\n      dup5\n        /* \"tronweb/contracts/USDTFlash_TRC20.sol\":5317:5330  _balances[to] */\n      0xffffffffffffffffffffffffffffffffffffffff\n      and\n      0xffffffffffffffffffffffffffffffffffffffff\n      and\n      dup2\n      mstore\n      0x20\n      add\n      swap1\n      dup2\n      mstore\n      0x20\n      add\n      0x00\n      keccak256\n      0x00\n        /* \"tronweb/contracts/USDTFlash_TRC20.sol\":5317:5339  _balances[to] += value */\n      dup3\n      dup3\n      sload\n      add\n      swap3\n      pop\n      pop\n      dup2\n      swap1\n      sstore\n      pop\n        /* \"tronweb/contracts/USDTFlash_TRC20.sol\":5159:5364  if (to == address(0)) {... */\n    tag_245:\n        /* \"tronweb/contracts/USDTFlash_TRC20.sol\":5394:5396  to */\n      dup2\n        /* \"tronweb/contracts/USDTFlash_TRC20.sol\":5379:5404  Transfer(from, to, value) */\n      0xffffffffffffffffffffffffffffffffffffffff\n      and\n        /* \"tronweb/contracts/USDTFlash_TRC20.sol\":5388:5392  from */\n      dup4\n        /* \"tronweb/contracts/USDTFlash_TRC20.sol\":5379:5404  Transfer(from, to, value) */\n      0xffffffffffffffffffffffffffffffffffffffff\n      and\n      0xddf252ad1be2c89b69c2b068fc378daa952ba7f163c4a11628f55a4df523b3ef\n        /* \"tronweb/contracts/USDTFlash_TRC20.sol\":5398:5403  value */\n      dup4\n        /* \"tronweb/contracts/USDTFlash_TRC20.sol\":5379:5404  Transfer(from, to, value) */\n      mload(0x40)\n      tag_246\n      swap2\n      swap1\n      tag_38\n      jump\t// in\n    tag_246:\n      mload(0x40)\n      dup1\n      swap2\n      sub\n      swap1\n      log3\n        /* \"tronweb/contracts/USDTFlash_TRC20.sol\":4705:5411  function _update(address from, address to, uint256 value) internal virtual {... */\n      pop\n      pop\n      pop\n      jump\t// out\n        /* \"#utility.yul\":7:106   */\n    tag_247:\n        /* \"#utility.yul\":59:65   */\n      0x00\n        /* \"#utility.yul\":93:98   */\n      dup2\n        /* \"#utility.yul\":87:99   */\n      mload\n        /* \"#utility.yul\":77:99   */\n      swap1\n      pop\n        /* \"#utility.yul\":7:106   */\n      swap2\n      swap1\n      pop\n      jump\t// out\n        /* \"#utility.yul\":112:281   */\n    tag_248:\n        /* \"#utility.yul\":196:207   */\n      0x00\n        /* \"#utility.yul\":230:236   */\n      dup3\n        /* \"#utility.yul\":225:228   */\n      dup3\n        /* \"#utility.yul\":218:237   */\n      mstore\n        /* \"#utility.yul\":270:274   */\n      0x20\n        /* \"#utility.yul\":265:268   */\n      dup3\n        /* \"#utility.yul\":261:275   */\n      add\n        /* \"#utility.yul\":246:275   */\n      swap1\n      pop\n        /* \"#utility.yul\":112:281   */\n      swap3\n      swap2\n      pop\n      pop\n      jump\t// out\n        /* \"#utility.yul\":287:426   */\n    tag_249:\n        /* \"#utility.yul\":376:382   */\n      dup3\n        /* \"#utility.yul\":371:374   */\n      dup2\n        /* \"#utility.yul\":366:369   */\n      dup4\n        /* \"#utility.yul\":360:383   */\n      mcopy\n        /* \"#utility.yul\":417:418   */\n      0x00\n        /* \"#utility.yul\":408:414   */\n      dup4\n        /* \"#utility.yul\":403:406   */\n      dup4\n        /* \"#utility.yul\":399:415   */\n      add\n        /* \"#utility.yul\":392:419   */\n      mstore\n        /* \"#utility.yul\":287:426   */\n      pop\n      pop\n      pop\n      jump\t// out\n        /* \"#utility.yul\":432:534   */\n    tag_250:\n        /* \"#utility.yul\":473:479   */\n      0x00\n        /* \"#utility.yul\":524:526   */\n      0x1f\n        /* \"#utility.yul\":520:527   */\n      not\n        /* \"#utility.yul\":515:517   */\n      0x1f\n        /* \"#utility.yul\":508:513   */\n      dup4\n        /* \"#utility.yul\":504:518   */\n      add\n        /* \"#utility.yul\":500:528   */\n      and\n        /* \"#utility.yul\":490:528   */\n      swap1\n      pop\n        /* \"#utility.yul\":432:534   */\n      swap2\n      swap1\n      pop\n      jump\t// out\n        /* \"#utility.yul\":540:917   */\n    tag_251:\n        /* \"#utility.yul\":628:631   */\n      0x00\n        /* \"#utility.yul\":656:695   */\n      tag_290\n        /* \"#utility.yul\":689:694   */\n      dup3\n        /* \"#utility.yul\":656:695   */\n      tag_247\n      jump\t// in\n    tag_290:\n        /* \"#utility.yul\":711:782   */\n      tag_291\n        /* \"#utility.yul\":775:781   */\n      dup2\n        /* \"#utility.yul\":770:773   */\n      dup6\n        /* \"#utility.yul\":711:782   */\n      tag_248\n      jump\t// in\n    tag_291:\n        /* \"#utility.yul\":704:782   */\n      swap4\n      pop\n        /* \"#utility.yul\":791:856   */\n      tag_292\n        /* \"#utility.yul\":849:855   */\n      dup2\n        /* \"#utility.yul\":844:847   */\n      dup6\n        /* \"#utility.yul\":837:841   */\n      0x20\n        /* \"#utility.yul\":830:835   */\n      dup7\n        /* \"#utility.yul\":826:842   */\n      add\n        /* \"#utility.yul\":791:856   */\n      tag_249\n      jump\t// in\n    tag_292:\n        /* \"#utility.yul\":881:910   */\n      tag_293\n        /* \"#utility.yul\":903:909   */\n      dup2\n        /* \"#utility.yul\":881:910   */\n      tag_250\n      jump\t// in\n    tag_293:\n        /* \"#utility.yul\":876:879   */\n      dup5\n        /* \"#utility.yul\":872:911   */\n      add\n        /* \"#utility.yul\":865:911   */\n      swap2\n      pop\n        /* \"#utility.yul\":632:917   */\n      pop\n        /* \"#utility.yul\":540:917   */\n      swap3\n      swap2\n      pop\n      pop\n      jump\t// out\n        /* \"#utility.yul\":923:1236   */\n    tag_28:\n        /* \"#utility.yul\":1036:1040   */\n      0x00\n        /* \"#utility.yul\":1074:1076   */\n      0x20\n        /* \"#utility.yul\":1063:1072   */\n      dup3\n        /* \"#utility.yul\":1059:1077   */\n      add\n        /* \"#utility.yul\":1051:1077   */\n      swap1\n      pop\n        /* \"#utility.yul\":1123:1132   */\n      dup2\n        /* \"#utility.yul\":1117:1121   */\n      dup2\n        /* \"#utility.yul\":1113:1133   */\n      sub\n        /* \"#utility.yul\":1109:1110   */\n      0x00\n        /* \"#utility.yul\":1098:1107   */\n      dup4\n        /* \"#utility.yul\":1094:1111   */\n      add\n        /* \"#utility.yul\":1087:1134   */\n      mstore\n        /* \"#utility.yul\":1151:1229   */\n      tag_295\n        /* \"#utility.yul\":1224:1228   */\n      dup2\n        /* \"#utility.yul\":1215:1221   */\n      dup5\n        /* \"#utility.yul\":1151:1229   */\n      tag_251\n      jump\t// in\n    tag_295:\n        /* \"#utility.yul\":1143:1229   */\n      swap1\n      pop\n        /* \"#utility.yul\":923:1236   */\n      swap3\n      swap2\n      pop\n      pop\n      jump\t// out\n        /* \"#utility.yul\":1323:1440   */\n    tag_253:\n        /* \"#utility.yul\":1432:1433   */\n      0x00\n        /* \"#utility.yul\":1429:1430   */\n      0x00\n        /* \"#utility.yul\":1422:1434   */\n      revert\n        /* \"#utility.yul\":1569:1695   */\n    tag_255:\n        /* \"#utility.yul\":1606:1613   */\n      0x00\n        /* \"#utility.yul\":1646:1688   */\n      0xffffffffffffffffffffffffffffffffffffffff\n        /* \"#utility.yul\":1639:1644   */\n      dup3\n        /* \"#utility.yul\":1635:1689   */\n      and\n        /* \"#utility.yul\":1624:1689   */\n      swap1\n      pop\n        /* \"#utility.yul\":1569:1695   */\n      swap2\n      swap1\n      pop\n      jump\t// out\n        /* \"#utility.yul\":1701:1797   */\n    tag_256:\n        /* \"#utility.yul\":1738:1745   */\n      0x00\n        /* \"#utility.yul\":1767:1791   */\n      tag_301\n        /* \"#utility.yul\":1785:1790   */\n      dup3\n        /* \"#utility.yul\":1767:1791   */\n      tag_255\n      jump\t// in\n    tag_301:\n        /* \"#utility.yul\":1756:1791   */\n      swap1\n      pop\n        /* \"#utility.yul\":1701:1797   */\n      swap2\n      swap1\n      pop\n      jump\t// out\n        /* \"#utility.yul\":1803:1925   */\n    tag_257:\n        /* \"#utility.yul\":1876:1900   */\n      tag_303\n        /* \"#utility.yul\":1894:1899   */\n      dup2\n        /* \"#utility.yul\":1876:1900   */\n      tag_256\n      jump\t// in\n    tag_303:\n        /* \"#utility.yul\":1869:1874   */\n      dup2\n        /* \"#utility.yul\":1866:1901   */\n      eq\n        /* \"#utility.yul\":1856:1919   */\n      tag_304\n      jumpi\n        /* \"#utility.yul\":1915:1916   */\n      0x00\n        /* \"#utility.yul\":1912:1913   */\n      0x00\n        /* \"#utility.yul\":1905:1917   */\n      revert\n        /* \"#utility.yul\":1856:1919   */\n    tag_304:\n        /* \"#utility.yul\":1803:1925   */\n      pop\n      jump\t// out\n        /* \"#utility.yul\":1931:2070   */\n    tag_258:\n        /* \"#utility.yul\":1977:1982   */\n      0x00\n        /* \"#utility.yul\":2015:2021   */\n      dup2\n        /* \"#utility.yul\":2002:2022   */\n      calldataload\n        /* \"#utility.yul\":1993:2022   */\n      swap1\n      pop\n        /* \"#utility.yul\":2031:2064   */\n      tag_306\n        /* \"#utility.yul\":2058:2063   */\n      dup2\n        /* \"#utility.yul\":2031:2064   */\n      tag_257\n      jump\t// in\n    tag_306:\n        /* \"#utility.yul\":1931:2070   */\n      swap3\n      swap2\n      pop\n      pop\n      jump\t// out\n        /* \"#utility.yul\":2076:2153   */\n    tag_259:\n        /* \"#utility.yul\":2113:2120   */\n      0x00\n        /* \"#utility.yul\":2142:2147   */\n      dup2\n        /* \"#utility.yul\":2131:2147   */\n      swap1\n      pop\n        /* \"#utility.yul\":2076:2153   */\n      swap2\n      swap1\n      pop\n      jump\t// out\n        /* \"#utility.yul\":2159:2281   */\n    tag_260:\n        /* \"#utility.yul\":2232:2256   */\n      tag_309\n        /* \"#utility.yul\":2250:2255   */\n      dup2\n        /* \"#utility.yul\":2232:2256   */\n      tag_259\n      jump\t// in\n    tag_309:\n        /* \"#utility.yul\":2225:2230   */\n      dup2\n        /* \"#utility.yul\":2222:2257   */\n      eq\n        /* \"#utility.yul\":2212:2275   */\n      tag_310\n      jumpi\n        /* \"#utility.yul\":2271:2272   */\n      0x00\n        /* \"#utility.yul\":2268:2269   */\n      0x00\n        /* \"#utility.yul\":2261:2273   */\n      revert\n        /* \"#utility.yul\":2212:2275   */\n    tag_310:\n        /* \"#utility.yul\":2159:2281   */\n      pop\n      jump\t// out\n        /* \"#utility.yul\":2287:2426   */\n    tag_261:\n        /* \"#utility.yul\":2333:2338   */\n      0x00\n        /* \"#utility.yul\":2371:2377   */\n      dup2\n        /* \"#utility.yul\":2358:2378   */\n      calldataload\n        /* \"#utility.yul\":2349:2378   */\n      swap1\n      pop\n        /* \"#utility.yul\":2387:2420   */\n      tag_312\n        /* \"#utility.yul\":2414:2419   */\n      dup2\n        /* \"#utility.yul\":2387:2420   */\n      tag_260\n      jump\t// in\n    tag_312:\n        /* \"#utility.yul\":2287:2426   */\n      swap3\n      swap2\n      pop\n      pop\n      jump\t// out\n        /* \"#utility.yul\":2432:2906   */\n    tag_31:\n        /* \"#utility.yul\":2500:2506   */\n      0x00\n        /* \"#utility.yul\":2508:2514   */\n      0x00\n        /* \"#utility.yul\":2557:2559   */\n      0x40\n        /* \"#utility.yul\":2545:2554   */\n      dup4\n        /* \"#utility.yul\":2536:2543   */\n      dup6\n        /* \"#utility.yul\":2532:2555   */\n      sub\n        /* \"#utility.yul\":2528:2560   */\n      slt\n        /* \"#utility.yul\":2525:2644   */\n      iszero\n      tag_314\n      jumpi\n        /* \"#utility.yul\":2563:2642   */\n      tag_315\n      tag_253\n      jump\t// in\n    tag_315:\n        /* \"#utility.yul\":2525:2644   */\n    tag_314:\n        /* \"#utility.yul\":2683:2684   */\n      0x00\n        /* \"#utility.yul\":2708:2761   */\n      tag_316\n        /* \"#utility.yul\":2753:2760   */\n      dup6\n        /* \"#utility.yul\":2744:2750   */\n      dup3\n        /* \"#utility.yul\":2733:2742   */\n      dup7\n        /* \"#utility.yul\":2729:2751   */\n      add\n        /* \"#utility.yul\":2708:2761   */\n      tag_258\n      jump\t// in\n    tag_316:\n        /* \"#utility.yul\":2698:2761   */\n      swap3\n      pop\n        /* \"#utility.yul\":2654:2771   */\n      pop\n        /* \"#utility.yul\":2810:2812   */\n      0x20\n        /* \"#utility.yul\":2836:2889   */\n      tag_317\n        /* \"#utility.yul\":2881:2888   */\n      dup6\n        /* \"#utility.yul\":2872:2878   */\n      dup3\n        /* \"#utility.yul\":2861:2870   */\n      dup7\n        /* \"#utility.yul\":2857:2879   */\n      add\n        /* \"#utility.yul\":2836:2889   */\n      tag_261\n      jump\t// in\n    tag_317:\n        /* \"#utility.yul\":2826:2889   */\n      swap2\n      pop\n        /* \"#utility.yul\":2781:2899   */\n      pop\n        /* \"#utility.yul\":2432:2906   */\n      swap3\n      pop\n      swap3\n      swap1\n      pop\n      jump\t// out\n        /* \"#utility.yul\":2912:3002   */\n    tag_262:\n        /* \"#utility.yul\":2946:2953   */\n      0x00\n        /* \"#utility.yul\":2989:2994   */\n      dup2\n        /* \"#utility.yul\":2982:2995   */\n      iszero\n        /* \"#utility.yul\":2975:2996   */\n      iszero\n        /* \"#utility.yul\":2964:2996   */\n      swap1\n      pop\n        /* \"#utility.yul\":2912:3002   */\n      swap2\n      swap1\n      pop\n      jump\t// out\n        /* \"#utility.yul\":3008:3117   */\n    tag_263:\n        /* \"#utility.yul\":3089:3110   */\n      tag_320\n        /* \"#utility.yul\":3104:3109   */\n      dup2\n        /* \"#utility.yul\":3089:3110   */\n      tag_262\n      jump\t// in\n    tag_320:\n        /* \"#utility.yul\":3084:3087   */\n      dup3\n        /* \"#utility.yul\":3077:3111   */\n      mstore\n        /* \"#utility.yul\":3008:3117   */\n      pop\n      pop\n      jump\t// out\n        /* \"#utility.yul\":3123:3333   */\n    tag_34:\n        /* \"#utility.yul\":3210:3214   */\n      0x00\n        /* \"#utility.yul\":3248:3250   */\n      0x20\n        /* \"#utility.yul\":3237:3246   */\n      dup3\n        /* \"#utility.yul\":3233:3251   */\n      add\n        /* \"#utility.yul\":3225:3251   */\n      swap1\n      pop\n        /* \"#utility.yul\":3261:3326   */\n      tag_322\n        /* \"#utility.yul\":3323:3324   */\n      0x00\n        /* \"#utility.yul\":3312:3321   */\n      dup4\n        /* \"#utility.yul\":3308:3325   */\n      add\n        /* \"#utility.yul\":3299:3305   */\n      dup5\n        /* \"#utility.yul\":3261:3326   */\n      tag_263\n      jump\t// in\n    tag_322:\n        /* \"#utility.yul\":3123:3333   */\n      swap3\n      swap2\n      pop\n      pop\n      jump\t// out\n        /* \"#utility.yul\":3339:3457   */\n    tag_264:\n        /* \"#utility.yul\":3426:3450   */\n      tag_324\n        /* \"#utility.yul\":3444:3449   */\n      dup2\n        /* \"#utility.yul\":3426:3450   */\n      tag_259\n      jump\t// in\n    tag_324:\n        /* \"#utility.yul\":3421:3424   */\n      dup3\n        /* \"#utility.yul\":3414:3451   */\n      mstore\n        /* \"#utility.yul\":3339:3457   */\n      pop\n      pop\n      jump\t// out\n        /* \"#utility.yul\":3463:3685   */\n    tag_38:\n        /* \"#utility.yul\":3556:3560   */\n      0x00\n        /* \"#utility.yul\":3594:3596   */\n      0x20\n        /* \"#utility.yul\":3583:3592   */\n      dup3\n        /* \"#utility.yul\":3579:3597   */\n      add\n        /* \"#utility.yul\":3571:3597   */\n      swap1\n      pop\n        /* \"#utility.yul\":3607:3678   */\n      tag_326\n        /* \"#utility.yul\":3675:3676   */\n      0x00\n        /* \"#utility.yul\":3664:3673   */\n      dup4\n        /* \"#utility.yul\":3660:3677   */\n      add\n        /* \"#utility.yul\":3651:3657   */\n      dup5\n        /* \"#utility.yul\":3607:3678   */\n      tag_264\n      jump\t// in\n    tag_326:\n        /* \"#utility.yul\":3463:3685   */\n      swap3\n      swap2\n      pop\n      pop\n      jump\t// out\n        /* \"#utility.yul\":3691:4310   */\n    tag_41:\n        /* \"#utility.yul\":3768:3774   */\n      0x00\n        /* \"#utility.yul\":3776:3782   */\n      0x00\n        /* \"#utility.yul\":3784:3790   */\n      0x00\n        /* \"#utility.yul\":3833:3835   */\n      0x60\n        /* \"#utility.yul\":3821:3830   */\n      dup5\n        /* \"#utility.yul\":3812:3819   */\n      dup7\n        /* \"#utility.yul\":3808:3831   */\n      sub\n        /* \"#utility.yul\":3804:3836   */\n      slt\n        /* \"#utility.yul\":3801:3920   */\n      iszero\n      tag_328\n      jumpi\n        /* \"#utility.yul\":3839:3918   */\n      tag_329\n      tag_253\n      jump\t// in\n    tag_329:\n        /* \"#utility.yul\":3801:3920   */\n    tag_328:\n        /* \"#utility.yul\":3959:3960   */\n      0x00\n        /* \"#utility.yul\":3984:4037   */\n      tag_330\n        /* \"#utility.yul\":4029:4036   */\n      dup7\n        /* \"#utility.yul\":4020:4026   */\n      dup3\n        /* \"#utility.yul\":4009:4018   */\n      dup8\n        /* \"#utility.yul\":4005:4027   */\n      add\n        /* \"#utility.yul\":3984:4037   */\n      tag_258\n      jump\t// in\n    tag_330:\n        /* \"#utility.yul\":3974:4037   */\n      swap4\n      pop\n        /* \"#utility.yul\":3930:4047   */\n      pop\n        /* \"#utility.yul\":4086:4088   */\n      0x20\n        /* \"#utility.yul\":4112:4165   */\n      tag_331\n        /* \"#utility.yul\":4157:4164   */\n      dup7\n        /* \"#utility.yul\":4148:4154   */\n      dup3\n        /* \"#utility.yul\":4137:4146   */\n      dup8\n        /* \"#utility.yul\":4133:4155   */\n      add\n        /* \"#utility.yul\":4112:4165   */\n      tag_258\n      jump\t// in\n    tag_331:\n        /* \"#utility.yul\":4102:4165   */\n      swap3\n      pop\n        /* \"#utility.yul\":4057:4175   */\n      pop\n        /* \"#utility.yul\":4214:4216   */\n      0x40\n        /* \"#utility.yul\":4240:4293   */\n      tag_332\n        /* \"#utility.yul\":4285:4292   */\n      dup7\n        /* \"#utility.yul\":4276:4282   */\n      dup3\n        /* \"#utility.yul\":4265:4274   */\n      dup8\n        /* \"#utility.yul\":4261:4283   */\n      add\n        /* \"#utility.yul\":4240:4293   */\n      tag_261\n      jump\t// in\n    tag_332:\n        /* \"#utility.yul\":4230:4293   */\n      swap2\n      pop\n        /* \"#utility.yul\":4185:4303   */\n      pop\n        /* \"#utility.yul\":3691:4310   */\n      swap3\n      pop\n      swap3\n      pop\n      swap3\n      jump\t// out\n        /* \"#utility.yul\":4316:4645   */\n    tag_46:\n        /* \"#utility.yul\":4375:4381   */\n      0x00\n        /* \"#utility.yul\":4424:4426   */\n      0x20\n        /* \"#utility.yul\":4412:4421   */\n      dup3\n        /* \"#utility.yul\":4403:4410   */\n      dup5\n        /* \"#utility.yul\":4399:4422   */\n      sub\n        /* \"#utility.yul\":4395:4427   */\n      slt\n        /* \"#utility.yul\":4392:4511   */\n      iszero\n      tag_334\n      jumpi\n        /* \"#utility.yul\":4430:4509   */\n      tag_335\n      tag_253\n      jump\t// in\n    tag_335:\n        /* \"#utility.yul\":4392:4511   */\n    tag_334:\n        /* \"#utility.yul\":4550:4551   */\n      0x00\n        /* \"#utility.yul\":4575:4628   */\n      tag_336\n        /* \"#utility.yul\":4620:4627   */\n      dup5\n        /* \"#utility.yul\":4611:4617   */\n      dup3\n        /* \"#utility.yul\":4600:4609   */\n      dup6\n        /* \"#utility.yul\":4596:4618   */\n      add\n        /* \"#utility.yul\":4575:4628   */\n      tag_258\n      jump\t// in\n    tag_336:\n        /* \"#utility.yul\":4565:4628   */\n      swap2\n      pop\n        /* \"#utility.yul\":4521:4638   */\n      pop\n        /* \"#utility.yul\":4316:4645   */\n      swap3\n      swap2\n      pop\n      pop\n      jump\t// out\n        /* \"#utility.yul\":4651:4737   */\n    tag_265:\n        /* \"#utility.yul\":4686:4693   */\n      0x00\n        /* \"#utility.yul\":4726:4730   */\n      0xff\n        /* \"#utility.yul\":4719:4724   */\n      dup3\n        /* \"#utility.yul\":4715:4731   */\n      and\n        /* \"#utility.yul\":4704:4731   */\n      swap1\n      pop\n        /* \"#utility.yul\":4651:4737   */\n      swap2\n      swap1\n      pop\n      jump\t// out\n        /* \"#utility.yul\":4743:4855   */\n    tag_266:\n        /* \"#utility.yul\":4826:4848   */\n      tag_339\n        /* \"#utility.yul\":4842:4847   */\n      dup2\n        /* \"#utility.yul\":4826:4848   */\n      tag_265\n      jump\t// in\n    tag_339:\n        /* \"#utility.yul\":4821:4824   */\n      dup3\n        /* \"#utility.yul\":4814:4849   */\n      mstore\n        /* \"#utility.yul\":4743:4855   */\n      pop\n      pop\n      jump\t// out\n        /* \"#utility.yul\":4861:5075   */\n    tag_51:\n        /* \"#utility.yul\":4950:4954   */\n      0x00\n        /* \"#utility.yul\":4988:4990   */\n      0x20\n        /* \"#utility.yul\":4977:4986   */\n      dup3\n        /* \"#utility.yul\":4973:4991   */\n      add\n        /* \"#utility.yul\":4965:4991   */\n      swap1\n      pop\n        /* \"#utility.yul\":5001:5068   */\n      tag_341\n        /* \"#utility.yul\":5065:5066   */\n      0x00\n        /* \"#utility.yul\":5054:5063   */\n      dup4\n        /* \"#utility.yul\":5050:5067   */\n      add\n        /* \"#utility.yul\":5041:5047   */\n      dup5\n        /* \"#utility.yul\":5001:5068   */\n      tag_266\n      jump\t// in\n    tag_341:\n        /* \"#utility.yul\":4861:5075   */\n      swap3\n      swap2\n      pop\n      pop\n      jump\t// out\n        /* \"#utility.yul\":5081:5410   */\n    tag_60:\n        /* \"#utility.yul\":5140:5146   */\n      0x00\n        /* \"#utility.yul\":5189:5191   */\n      0x20\n        /* \"#utility.yul\":5177:5186   */\n      dup3\n        /* \"#utility.yul\":5168:5175   */\n      dup5\n        /* \"#utility.yul\":5164:5187   */\n      sub\n        /* \"#utility.yul\":5160:5192   */\n      slt\n        /* \"#utility.yul\":5157:5276   */\n      iszero\n      tag_343\n      jumpi\n        /* \"#utility.yul\":5195:5274   */\n      tag_344\n      tag_253\n      jump\t// in\n    tag_344:\n        /* \"#utility.yul\":5157:5276   */\n    tag_343:\n        /* \"#utility.yul\":5315:5316   */\n      0x00\n        /* \"#utility.yul\":5340:5393   */\n      tag_345\n        /* \"#utility.yul\":5385:5392   */\n      dup5\n        /* \"#utility.yul\":5376:5382   */\n      dup3\n        /* \"#utility.yul\":5365:5374   */\n      dup6\n        /* \"#utility.yul\":5361:5383   */\n      add\n        /* \"#utility.yul\":5340:5393   */\n      tag_261\n      jump\t// in\n    tag_345:\n        /* \"#utility.yul\":5330:5393   */\n      swap2\n      pop\n        /* \"#utility.yul\":5286:5403   */\n      pop\n        /* \"#utility.yul\":5081:5410   */\n      swap3\n      swap2\n      pop\n      pop\n      jump\t// out\n        /* \"#utility.yul\":5416:5890   */\n    tag_91:\n        /* \"#utility.yul\":5484:5490   */\n      0x00\n        /* \"#utility.yul\":5492:5498   */\n      0x00\n        /* \"#utility.yul\":5541:5543   */\n      0x40\n        /* \"#utility.yul\":5529:5538   */\n      dup4\n        /* \"#utility.yul\":5520:5527   */\n      dup6\n        /* \"#utility.yul\":5516:5539   */\n      sub\n        /* \"#utility.yul\":5512:5544   */\n      slt\n        /* \"#utility.yul\":5509:5628   */\n      iszero\n      tag_347\n      jumpi\n        /* \"#utility.yul\":5547:5626   */\n      tag_348\n      tag_253\n      jump\t// in\n    tag_348:\n        /* \"#utility.yul\":5509:5628   */\n    tag_347:\n        /* \"#utility.yul\":5667:5668   */\n      0x00\n        /* \"#utility.yul\":5692:5745   */\n      tag_349\n        /* \"#utility.yul\":5737:5744   */\n      dup6\n        /* \"#utility.yul\":5728:5734   */\n      dup3\n        /* \"#utility.yul\":5717:5726   */\n      dup7\n        /* \"#utility.yul\":5713:5735   */\n      add\n        /* \"#utility.yul\":5692:5745   */\n      tag_258\n      jump\t// in\n    tag_349:\n        /* \"#utility.yul\":5682:5745   */\n      swap3\n      pop\n        /* \"#utility.yul\":5638:5755   */\n      pop\n        /* \"#utility.yul\":5794:5796   */\n      0x20\n        /* \"#utility.yul\":5820:5873   */\n      tag_350\n        /* \"#utility.yul\":5865:5872   */\n      dup6\n        /* \"#utility.yul\":5856:5862   */\n      dup3\n        /* \"#utility.yul\":5845:5854   */\n      dup7\n        /* \"#utility.yul\":5841:5863   */\n      add\n        /* \"#utility.yul\":5820:5873   */\n      tag_258\n      jump\t// in\n    tag_350:\n        /* \"#utility.yul\":5810:5873   */\n      swap2\n      pop\n        /* \"#utility.yul\":5765:5883   */\n      pop\n        /* \"#utility.yul\":5416:5890   */\n      swap3\n      pop\n      swap3\n      swap1\n      pop\n      jump\t// out\n        /* \"#utility.yul\":5896:6076   */\n    tag_267:\n        /* \"#utility.yul\":5944:6021   */\n      0x4e487b7100000000000000000000000000000000000000000000000000000000\n        /* \"#utility.yul\":5941:5942   */\n      0x00\n        /* \"#utility.yul\":5934:6022   */\n      mstore\n        /* \"#utility.yul\":6041:6045   */\n      0x22\n        /* \"#utility.yul\":6038:6039   */\n      0x04\n        /* \"#utility.yul\":6031:6046   */\n      mstore\n        /* \"#utility.yul\":6065:6069   */\n      0x24\n        /* \"#utility.yul\":6062:6063   */\n      0x00\n        /* \"#utility.yul\":6055:6070   */\n      revert\n        /* \"#utility.yul\":6082:6402   */\n    tag_99:\n        /* \"#utility.yul\":6126:6132   */\n      0x00\n        /* \"#utility.yul\":6163:6164   */\n      0x02\n        /* \"#utility.yul\":6157:6161   */\n      dup3\n        /* \"#utility.yul\":6153:6165   */\n      div\n        /* \"#utility.yul\":6143:6165   */\n      swap1\n      pop\n        /* \"#utility.yul\":6210:6211   */\n      0x01\n        /* \"#utility.yul\":6204:6208   */\n      dup3\n        /* \"#utility.yul\":6200:6212   */\n      and\n        /* \"#utility.yul\":6231:6249   */\n      dup1\n        /* \"#utility.yul\":6221:6302   */\n      tag_353\n      jumpi\n        /* \"#utility.yul\":6287:6291   */\n      0x7f\n        /* \"#utility.yul\":6279:6285   */\n      dup3\n        /* \"#utility.yul\":6275:6292   */\n      and\n        /* \"#utility.yul\":6265:6292   */\n      swap2\n      pop\n        /* \"#utility.yul\":6221:6302   */\n    tag_353:\n        /* \"#utility.yul\":6349:6351   */\n      0x20\n        /* \"#utility.yul\":6341:6347   */\n      dup3\n        /* \"#utility.yul\":6338:6352   */\n      lt\n        /* \"#utility.yul\":6318:6336   */\n      dup2\n        /* \"#utility.yul\":6315:6353   */\n      sub\n        /* \"#utility.yul\":6312:6396   */\n      tag_354\n      jumpi\n        /* \"#utility.yul\":6368:6386   */\n      tag_355\n      tag_267\n      jump\t// in\n    tag_355:\n        /* \"#utility.yul\":6312:6396   */\n    tag_354:\n        /* \"#utility.yul\":6133:6402   */\n      pop\n        /* \"#utility.yul\":6082:6402   */\n      swap2\n      swap1\n      pop\n      jump\t// out\n        /* \"#utility.yul\":6408:6574   */\n    tag_268:\n        /* \"#utility.yul\":6548:6566   */\n      0x5061757361626c653a2070617573656400000000000000000000000000000000\n        /* \"#utility.yul\":6544:6545   */\n      0x00\n        /* \"#utility.yul\":6536:6542   */\n      dup3\n        /* \"#utility.yul\":6532:6546   */\n      add\n        /* \"#utility.yul\":6525:6567   */\n      mstore\n        /* \"#utility.yul\":6408:6574   */\n      pop\n      jump\t// out\n        /* \"#utility.yul\":6580:6946   */\n    tag_269:\n        /* \"#utility.yul\":6722:6725   */\n      0x00\n        /* \"#utility.yul\":6743:6810   */\n      tag_358\n        /* \"#utility.yul\":6807:6809   */\n      0x10\n        /* \"#utility.yul\":6802:6805   */\n      dup4\n        /* \"#utility.yul\":6743:6810   */\n      tag_248\n      jump\t// in\n    tag_358:\n        /* \"#utility.yul\":6736:6810   */\n      swap2\n      pop\n        /* \"#utility.yul\":6819:6912   */\n      tag_359\n        /* \"#utility.yul\":6908:6911   */\n      dup3\n        /* \"#utility.yul\":6819:6912   */\n      tag_268\n      jump\t// in\n    tag_359:\n        /* \"#utility.yul\":6937:6939   */\n      0x20\n        /* \"#utility.yul\":6932:6935   */\n      dup3\n        /* \"#utility.yul\":6928:6940   */\n      add\n        /* \"#utility.yul\":6921:6940   */\n      swap1\n      pop\n        /* \"#utility.yul\":6580:6946   */\n      swap2\n      swap1\n      pop\n      jump\t// out\n        /* \"#utility.yul\":6952:7371   */\n    tag_107:\n        /* \"#utility.yul\":7118:7122   */\n      0x00\n        /* \"#utility.yul\":7156:7158   */\n      0x20\n        /* \"#utility.yul\":7145:7154   */\n      dup3\n        /* \"#utility.yul\":7141:7159   */\n      add\n        /* \"#utility.yul\":7133:7159   */\n      swap1\n      pop\n        /* \"#utility.yul\":7205:7214   */\n      dup2\n        /* \"#utility.yul\":7199:7203   */\n      dup2\n        /* \"#utility.yul\":7195:7215   */\n      sub\n        /* \"#utility.yul\":7191:7192   */\n      0x00\n        /* \"#utility.yul\":7180:7189   */\n      dup4\n        /* \"#utility.yul\":7176:7193   */\n      add\n        /* \"#utility.yul\":7169:7216   */\n      mstore\n        /* \"#utility.yul\":7233:7364   */\n      tag_361\n        /* \"#utility.yul\":7359:7363   */\n      dup2\n        /* \"#utility.yul\":7233:7364   */\n      tag_269\n      jump\t// in\n    tag_361:\n        /* \"#utility.yul\":7225:7364   */\n      swap1\n      pop\n        /* \"#utility.yul\":6952:7371   */\n      swap2\n      swap1\n      pop\n      jump\t// out\n        /* \"#utility.yul\":7377:7610   */\n    tag_270:\n        /* \"#utility.yul\":7517:7551   */\n      0x4f6e6c792074686520636f6e7472616374206f776e65722063616e2063616c6c\n        /* \"#utility.yul\":7513:7514   */\n      0x00\n        /* \"#utility.yul\":7505:7511   */\n      dup3\n        /* \"#utility.yul\":7501:7515   */\n      add\n        /* \"#utility.yul\":7494:7552   */\n      mstore\n        /* \"#utility.yul\":7586:7602   */\n      0x20746869732066756e6374696f6e000000000000000000000000000000000000\n        /* \"#utility.yul\":7581:7583   */\n      0x20\n        /* \"#utility.yul\":7573:7579   */\n      dup3\n        /* \"#utility.yul\":7569:7584   */\n      add\n        /* \"#utility.yul\":7562:7603   */\n      mstore\n        /* \"#utility.yul\":7377:7610   */\n      pop\n      jump\t// out\n        /* \"#utility.yul\":7616:7982   */\n    tag_271:\n        /* \"#utility.yul\":7758:7761   */\n      0x00\n        /* \"#utility.yul\":7779:7846   */\n      tag_364\n        /* \"#utility.yul\":7843:7845   */\n      0x2e\n        /* \"#utility.yul\":7838:7841   */\n      dup4\n        /* \"#utility.yul\":7779:7846   */\n      tag_248\n      jump\t// in\n    tag_364:\n        /* \"#utility.yul\":7772:7846   */\n      swap2\n      pop\n        /* \"#utility.yul\":7855:7948   */\n      tag_365\n        /* \"#utility.yul\":7944:7947   */\n      dup3\n        /* \"#utility.yul\":7855:7948   */\n      tag_270\n      jump\t// in\n    tag_365:\n        /* \"#utility.yul\":7973:7975   */\n      0x40\n        /* \"#utility.yul\":7968:7971   */\n      dup3\n        /* \"#utility.yul\":7964:7976   */\n      add\n        /* \"#utility.yul\":7957:7976   */\n      swap1\n      pop\n        /* \"#utility.yul\":7616:7982   */\n      swap2\n      swap1\n      pop\n      jump\t// out\n        /* \"#utility.yul\":7988:8407   */\n    tag_126:\n        /* \"#utility.yul\":8154:8158   */\n      0x00\n        /* \"#utility.yul\":8192:8194   */\n      0x20\n        /* \"#utility.yul\":8181:8190   */\n      dup3\n        /* \"#utility.yul\":8177:8195   */\n      add\n        /* \"#utility.yul\":8169:8195   */\n      swap1\n      pop\n        /* \"#utility.yul\":8241:8250   */\n      dup2\n        /* \"#utility.yul\":8235:8239   */\n      dup2\n        /* \"#utility.yul\":8231:8251   */\n      sub\n        /* \"#utility.yul\":8227:8228   */\n      0x00\n        /* \"#utility.yul\":8216:8225   */\n      dup4\n        /* \"#utility.yul\":8212:8229   */\n      add\n        /* \"#utility.yul\":8205:8252   */\n      mstore\n        /* \"#utility.yul\":8269:8400   */\n      tag_367\n        /* \"#utility.yul\":8395:8399   */\n      dup2\n        /* \"#utility.yul\":8269:8400   */\n      tag_271\n      jump\t// in\n    tag_367:\n        /* \"#utility.yul\":8261:8400   */\n      swap1\n      pop\n        /* \"#utility.yul\":7988:8407   */\n      swap2\n      swap1\n      pop\n      jump\t// out\n        /* \"#utility.yul\":8413:8593   */\n    tag_272:\n        /* \"#utility.yul\":8461:8538   */\n      0x4e487b7100000000000000000000000000000000000000000000000000000000\n        /* \"#utility.yul\":8458:8459   */\n      0x00\n        /* \"#utility.yul\":8451:8539   */\n      mstore\n        /* \"#utility.yul\":8558:8562   */\n      0x11\n        /* \"#utility.yul\":8555:8556   */\n      0x04\n        /* \"#utility.yul\":8548:8563   */\n      mstore\n        /* \"#utility.yul\":8582:8586   */\n      0x24\n        /* \"#utility.yul\":8579:8580   */\n      0x00\n        /* \"#utility.yul\":8572:8587   */\n      revert\n        /* \"#utility.yul\":8599:8790   */\n    tag_137:\n        /* \"#utility.yul\":8639:8642   */\n      0x00\n        /* \"#utility.yul\":8658:8678   */\n      tag_370\n        /* \"#utility.yul\":8676:8677   */\n      dup3\n        /* \"#utility.yul\":8658:8678   */\n      tag_259\n      jump\t// in\n    tag_370:\n        /* \"#utility.yul\":8653:8678   */\n      swap2\n      pop\n        /* \"#utility.yul\":8692:8712   */\n      tag_371\n        /* \"#utility.yul\":8710:8711   */\n      dup4\n        /* \"#utility.yul\":8692:8712   */\n      tag_259\n      jump\t// in\n    tag_371:\n        /* \"#utility.yul\":8687:8712   */\n      swap3\n      pop\n        /* \"#utility.yul\":8735:8736   */\n      dup3\n        /* \"#utility.yul\":8732:8733   */\n      dup3\n        /* \"#utility.yul\":8728:8737   */\n      add\n        /* \"#utility.yul\":8721:8737   */\n      swap1\n      pop\n        /* \"#utility.yul\":8756:8759   */\n      dup1\n        /* \"#utility.yul\":8753:8754   */\n      dup3\n        /* \"#utility.yul\":8750:8760   */\n      gt\n        /* \"#utility.yul\":8747:8783   */\n      iszero\n      tag_372\n      jumpi\n        /* \"#utility.yul\":8763:8781   */\n      tag_373\n      tag_272\n      jump\t// in\n    tag_373:\n        /* \"#utility.yul\":8747:8783   */\n    tag_372:\n        /* \"#utility.yul\":8599:8790   */\n      swap3\n      swap2\n      pop\n      pop\n      jump\t// out\n        /* \"#utility.yul\":8796:8914   */\n    tag_273:\n        /* \"#utility.yul\":8883:8907   */\n      tag_375\n        /* \"#utility.yul\":8901:8906   */\n      dup2\n        /* \"#utility.yul\":8883:8907   */\n      tag_256\n      jump\t// in\n    tag_375:\n        /* \"#utility.yul\":8878:8881   */\n      dup3\n        /* \"#utility.yul\":8871:8908   */\n      mstore\n        /* \"#utility.yul\":8796:8914   */\n      pop\n      pop\n      jump\t// out\n        /* \"#utility.yul\":8920:9252   */\n    tag_155:\n        /* \"#utility.yul\":9041:9045   */\n      0x00\n        /* \"#utility.yul\":9079:9081   */\n      0x40\n        /* \"#utility.yul\":9068:9077   */\n      dup3\n        /* \"#utility.yul\":9064:9082   */\n      add\n        /* \"#utility.yul\":9056:9082   */\n      swap1\n      pop\n        /* \"#utility.yul\":9092:9163   */\n      tag_377\n        /* \"#utility.yul\":9160:9161   */\n      0x00\n        /* \"#utility.yul\":9149:9158   */\n      dup4\n        /* \"#utility.yul\":9145:9162   */\n      add\n        /* \"#utility.yul\":9136:9142   */\n      dup6\n        /* \"#utility.yul\":9092:9163   */\n      tag_273\n      jump\t// in\n    tag_377:\n        /* \"#utility.yul\":9173:9245   */\n      tag_378\n        /* \"#utility.yul\":9241:9243   */\n      0x20\n        /* \"#utility.yul\":9230:9239   */\n      dup4\n        /* \"#utility.yul\":9226:9244   */\n      add\n        /* \"#utility.yul\":9217:9223   */\n      dup5\n        /* \"#utility.yul\":9173:9245   */\n      tag_264\n      jump\t// in\n    tag_378:\n        /* \"#utility.yul\":8920:9252   */\n      swap4\n      swap3\n      pop\n      pop\n      pop\n      jump\t// out\n        /* \"#utility.yul\":9258:9374   */\n    tag_274:\n        /* \"#utility.yul\":9328:9349   */\n      tag_380\n        /* \"#utility.yul\":9343:9348   */\n      dup2\n        /* \"#utility.yul\":9328:9349   */\n      tag_262\n      jump\t// in\n    tag_380:\n        /* \"#utility.yul\":9321:9326   */\n      dup2\n        /* \"#utility.yul\":9318:9350   */\n      eq\n        /* \"#utility.yul\":9308:9368   */\n      tag_381\n      jumpi\n        /* \"#utility.yul\":9364:9365   */\n      0x00\n        /* \"#utility.yul\":9361:9362   */\n      0x00\n        /* \"#utility.yul\":9354:9366   */\n      revert\n        /* \"#utility.yul\":9308:9368   */\n    tag_381:\n        /* \"#utility.yul\":9258:9374   */\n      pop\n      jump\t// out\n        /* \"#utility.yul\":9380:9517   */\n    tag_275:\n        /* \"#utility.yul\":9434:9439   */\n      0x00\n        /* \"#utility.yul\":9465:9471   */\n      dup2\n        /* \"#utility.yul\":9459:9472   */\n      mload\n        /* \"#utility.yul\":9450:9472   */\n      swap1\n      pop\n        /* \"#utility.yul\":9481:9511   */\n      tag_383\n        /* \"#utility.yul\":9505:9510   */\n      dup2\n        /* \"#utility.yul\":9481:9511   */\n      tag_274\n      jump\t// in\n    tag_383:\n        /* \"#utility.yul\":9380:9517   */\n      swap3\n      swap2\n      pop\n      pop\n      jump\t// out\n        /* \"#utility.yul\":9523:9868   */\n    tag_159:\n        /* \"#utility.yul\":9590:9596   */\n      0x00\n        /* \"#utility.yul\":9639:9641   */\n      0x20\n        /* \"#utility.yul\":9627:9636   */\n      dup3\n        /* \"#utility.yul\":9618:9625   */\n      dup5\n        /* \"#utility.yul\":9614:9637   */\n      sub\n        /* \"#utility.yul\":9610:9642   */\n      slt\n        /* \"#utility.yul\":9607:9726   */\n      iszero\n      tag_385\n      jumpi\n        /* \"#utility.yul\":9645:9724   */\n      tag_386\n      tag_253\n      jump\t// in\n    tag_386:\n        /* \"#utility.yul\":9607:9726   */\n    tag_385:\n        /* \"#utility.yul\":9765:9766   */\n      0x00\n        /* \"#utility.yul\":9790:9851   */\n      tag_387\n        /* \"#utility.yul\":9843:9850   */\n      dup5\n        /* \"#utility.yul\":9834:9840   */\n      dup3\n        /* \"#utility.yul\":9823:9832   */\n      dup6\n        /* \"#utility.yul\":9819:9841   */\n      add\n        /* \"#utility.yul\":9790:9851   */\n      tag_275\n      jump\t// in\n    tag_387:\n        /* \"#utility.yul\":9780:9851   */\n      swap2\n      pop\n        /* \"#utility.yul\":9736:9861   */\n      pop\n        /* \"#utility.yul\":9523:9868   */\n      swap3\n      swap2\n      pop\n      pop\n      jump\t// out\n        /* \"#utility.yul\":9874:10118   */\n    tag_276:\n        /* \"#utility.yul\":10014:10048   */\n      0x4f6e6c792074686520666c617368206c6f616e20636f6e7472616374206f7220\n        /* \"#utility.yul\":10010:10011   */\n      0x00\n        /* \"#utility.yul\":10002:10008   */\n      dup3\n        /* \"#utility.yul\":9998:10012   */\n      add\n        /* \"#utility.yul\":9991:10049   */\n      mstore\n        /* \"#utility.yul\":10083:10110   */\n      0x746865206f776e65722063616e206d696e7420746f6b656e7300000000000000\n        /* \"#utility.yul\":10078:10080   */\n      0x20\n        /* \"#utility.yul\":10070:10076   */\n      dup3\n        /* \"#utility.yul\":10066:10081   */\n      add\n        /* \"#utility.yul\":10059:10111   */\n      mstore\n        /* \"#utility.yul\":9874:10118   */\n      pop\n      jump\t// out\n        /* \"#utility.yul\":10124:10490   */\n    tag_277:\n        /* \"#utility.yul\":10266:10269   */\n      0x00\n        /* \"#utility.yul\":10287:10354   */\n      tag_390\n        /* \"#utility.yul\":10351:10353   */\n      0x39\n        /* \"#utility.yul\":10346:10349   */\n      dup4\n        /* \"#utility.yul\":10287:10354   */\n      tag_248\n      jump\t// in\n    tag_390:\n        /* \"#utility.yul\":10280:10354   */\n      swap2\n      pop\n        /* \"#utility.yul\":10363:10456   */\n      tag_391\n        /* \"#utility.yul\":10452:10455   */\n      dup3\n        /* \"#utility.yul\":10363:10456   */\n      tag_276\n      jump\t// in\n    tag_391:\n        /* \"#utility.yul\":10481:10483   */\n      0x40\n        /* \"#utility.yul\":10476:10479   */\n      dup3\n        /* \"#utility.yul\":10472:10484   */\n      add\n        /* \"#utility.yul\":10465:10484   */\n      swap1\n      pop\n        /* \"#utility.yul\":10124:10490   */\n      swap2\n      swap1\n      pop\n      jump\t// out\n        /* \"#utility.yul\":10496:10915   */\n    tag_170:\n        /* \"#utility.yul\":10662:10666   */\n      0x00\n        /* \"#utility.yul\":10700:10702   */\n      0x20\n        /* \"#utility.yul\":10689:10698   */\n      dup3\n        /* \"#utility.yul\":10685:10703   */\n      add\n        /* \"#utility.yul\":10677:10703   */\n      swap1\n      pop\n        /* \"#utility.yul\":10749:10758   */\n      dup2\n        /* \"#utility.yul\":10743:10747   */\n      dup2\n        /* \"#utility.yul\":10739:10759   */\n      sub\n        /* \"#utility.yul\":10735:10736   */\n      0x00\n        /* \"#utility.yul\":10724:10733   */\n      dup4\n        /* \"#utility.yul\":10720:10737   */\n      add\n        /* \"#utility.yul\":10713:10760   */\n      mstore\n        /* \"#utility.yul\":10777:10908   */\n      tag_393\n        /* \"#utility.yul\":10903:10907   */\n      dup2\n        /* \"#utility.yul\":10777:10908   */\n      tag_277\n      jump\t// in\n    tag_393:\n        /* \"#utility.yul\":10769:10908   */\n      swap1\n      pop\n        /* \"#utility.yul\":10496:10915   */\n      swap2\n      swap1\n      pop\n      jump\t// out\n        /* \"#utility.yul\":10921:11098   */\n    tag_278:\n        /* \"#utility.yul\":11061:11090   */\n      0x45524332303a20616c6c6f77616e63652062656c6f77207a65726f0000000000\n        /* \"#utility.yul\":11057:11058   */\n      0x00\n        /* \"#utility.yul\":11049:11055   */\n      dup3\n        /* \"#utility.yul\":11045:11059   */\n      add\n        /* \"#utility.yul\":11038:11091   */\n      mstore\n        /* \"#utility.yul\":10921:11098   */\n      pop\n      jump\t// out\n        /* \"#utility.yul\":11104:11470   */\n    tag_279:\n        /* \"#utility.yul\":11246:11249   */\n      0x00\n        /* \"#utility.yul\":11267:11334   */\n      tag_396\n        /* \"#utility.yul\":11331:11333   */\n      0x1b\n        /* \"#utility.yul\":11326:11329   */\n      dup4\n        /* \"#utility.yul\":11267:11334   */\n      tag_248\n      jump\t// in\n    tag_396:\n        /* \"#utility.yul\":11260:11334   */\n      swap2\n      pop\n        /* \"#utility.yul\":11343:11436   */\n      tag_397\n        /* \"#utility.yul\":11432:11435   */\n      dup3\n        /* \"#utility.yul\":11343:11436   */\n      tag_278\n      jump\t// in\n    tag_397:\n        /* \"#utility.yul\":11461:11463   */\n      0x20\n        /* \"#utility.yul\":11456:11459   */\n      dup3\n        /* \"#utility.yul\":11452:11464   */\n      add\n        /* \"#utility.yul\":11445:11464   */\n      swap1\n      pop\n        /* \"#utility.yul\":11104:11470   */\n      swap2\n      swap1\n      pop\n      jump\t// out\n        /* \"#utility.yul\":11476:11895   */\n    tag_181:\n        /* \"#utility.yul\":11642:11646   */\n      0x00\n        /* \"#utility.yul\":11680:11682   */\n      0x20\n        /* \"#utility.yul\":11669:11678   */\n      dup3\n        /* \"#utility.yul\":11665:11683   */\n      add\n        /* \"#utility.yul\":11657:11683   */\n      swap1\n      pop\n        /* \"#utility.yul\":11729:11738   */\n      dup2\n        /* \"#utility.yul\":11723:11727   */\n      dup2\n        /* \"#utility.yul\":11719:11739   */\n      sub\n        /* \"#utility.yul\":11715:11716   */\n      0x00\n        /* \"#utility.yul\":11704:11713   */\n      dup4\n        /* \"#utility.yul\":11700:11717   */\n      add\n        /* \"#utility.yul\":11693:11740   */\n      mstore\n        /* \"#utility.yul\":11757:11888   */\n      tag_399\n        /* \"#utility.yul\":11883:11887   */\n      dup2\n        /* \"#utility.yul\":11757:11888   */\n      tag_279\n      jump\t// in\n    tag_399:\n        /* \"#utility.yul\":11749:11888   */\n      swap1\n      pop\n        /* \"#utility.yul\":11476:11895   */\n      swap2\n      swap1\n      pop\n      jump\t// out\n        /* \"#utility.yul\":11901:12080   */\n    tag_280:\n        /* \"#utility.yul\":12041:12072   */\n      0x4e6577206f776e657220697320746865207a65726f2061646472657373000000\n        /* \"#utility.yul\":12037:12038   */\n      0x00\n        /* \"#utility.yul\":12029:12035   */\n      dup3\n        /* \"#utility.yul\":12025:12039   */\n      add\n        /* \"#utility.yul\":12018:12073   */\n      mstore\n        /* \"#utility.yul\":11901:12080   */\n      pop\n      jump\t// out\n        /* \"#utility.yul\":12086:12452   */\n    tag_281:\n        /* \"#utility.yul\":12228:12231   */\n      0x00\n        /* \"#utility.yul\":12249:12316   */\n      tag_402\n        /* \"#utility.yul\":12313:12315   */\n      0x1d\n        /* \"#utility.yul\":12308:12311   */\n      dup4\n        /* \"#utility.yul\":12249:12316   */\n      tag_248\n      jump\t// in\n    tag_402:\n        /* \"#utility.yul\":12242:12316   */\n      swap2\n      pop\n        /* \"#utility.yul\":12325:12418   */\n      tag_403\n        /* \"#utility.yul\":12414:12417   */\n      dup3\n        /* \"#utility.yul\":12325:12418   */\n      tag_280\n      jump\t// in\n    tag_403:\n        /* \"#utility.yul\":12443:12445   */\n      0x20\n        /* \"#utility.yul\":12438:12441   */\n      dup3\n        /* \"#utility.yul\":12434:12446   */\n      add\n        /* \"#utility.yul\":12427:12446   */\n      swap1\n      pop\n        /* \"#utility.yul\":12086:12452   */\n      swap2\n      swap1\n      pop\n      jump\t// out\n        /* \"#utility.yul\":12458:12877   */\n    tag_197:\n        /* \"#utility.yul\":12624:12628   */\n      0x00\n        /* \"#utility.yul\":12662:12664   */\n      0x20\n        /* \"#utility.yul\":12651:12660   */\n      dup3\n        /* \"#utility.yul\":12647:12665   */\n      add\n        /* \"#utility.yul\":12639:12665   */\n      swap1\n      pop\n        /* \"#utility.yul\":12711:12720   */\n      dup2\n        /* \"#utility.yul\":12705:12709   */\n      dup2\n        /* \"#utility.yul\":12701:12721   */\n      sub\n        /* \"#utility.yul\":12697:12698   */\n      0x00\n        /* \"#utility.yul\":12686:12695   */\n      dup4\n        /* \"#utility.yul\":12682:12699   */\n      add\n        /* \"#utility.yul\":12675:12722   */\n      mstore\n        /* \"#utility.yul\":12739:12870   */\n      tag_405\n        /* \"#utility.yul\":12865:12869   */\n      dup2\n        /* \"#utility.yul\":12739:12870   */\n      tag_281\n      jump\t// in\n    tag_405:\n        /* \"#utility.yul\":12731:12870   */\n      swap1\n      pop\n        /* \"#utility.yul\":12458:12877   */\n      swap2\n      swap1\n      pop\n      jump\t// out\n        /* \"#utility.yul\":12883:13325   */\n    tag_207:\n        /* \"#utility.yul\":13032:13036   */\n      0x00\n        /* \"#utility.yul\":13070:13072   */\n      0x60\n        /* \"#utility.yul\":13059:13068   */\n      dup3\n        /* \"#utility.yul\":13055:13073   */\n      add\n        /* \"#utility.yul\":13047:13073   */\n      swap1\n      pop\n        /* \"#utility.yul\":13083:13154   */\n      tag_407\n        /* \"#utility.yul\":13151:13152   */\n      0x00\n        /* \"#utility.yul\":13140:13149   */\n      dup4\n        /* \"#utility.yul\":13136:13153   */\n      add\n        /* \"#utility.yul\":13127:13133   */\n      dup7\n        /* \"#utility.yul\":13083:13154   */\n      tag_273\n      jump\t// in\n    tag_407:\n        /* \"#utility.yul\":13164:13236   */\n      tag_408\n        /* \"#utility.yul\":13232:13234   */\n      0x20\n        /* \"#utility.yul\":13221:13230   */\n      dup4\n        /* \"#utility.yul\":13217:13235   */\n      add\n        /* \"#utility.yul\":13208:13214   */\n      dup6\n        /* \"#utility.yul\":13164:13236   */\n      tag_264\n      jump\t// in\n    tag_408:\n        /* \"#utility.yul\":13246:13318   */\n      tag_409\n        /* \"#utility.yul\":13314:13316   */\n      0x40\n        /* \"#utility.yul\":13303:13312   */\n      dup4\n        /* \"#utility.yul\":13299:13317   */\n      add\n        /* \"#utility.yul\":13290:13296   */\n      dup5\n        /* \"#utility.yul\":13246:13318   */\n      tag_264\n      jump\t// in\n    tag_409:\n        /* \"#utility.yul\":12883:13325   */\n      swap5\n      swap4\n      pop\n      pop\n      pop\n      pop\n      jump\t// out\n        /* \"#utility.yul\":13331:13553   */\n    tag_212:\n        /* \"#utility.yul\":13424:13428   */\n      0x00\n        /* \"#utility.yul\":13462:13464   */\n      0x20\n        /* \"#utility.yul\":13451:13460   */\n      dup3\n        /* \"#utility.yul\":13447:13465   */\n      add\n        /* \"#utility.yul\":13439:13465   */\n      swap1\n      pop\n        /* \"#utility.yul\":13475:13546   */\n      tag_411\n        /* \"#utility.yul\":13543:13544   */\n      0x00\n        /* \"#utility.yul\":13532:13541   */\n      dup4\n        /* \"#utility.yul\":13528:13545   */\n      add\n        /* \"#utility.yul\":13519:13525   */\n      dup5\n        /* \"#utility.yul\":13475:13546   */\n      tag_273\n      jump\t// in\n    tag_411:\n        /* \"#utility.yul\":13331:13553   */\n      swap3\n      swap2\n      pop\n      pop\n      jump\t// out\n        /* \"#utility.yul\":13559:13738   */\n    tag_282:\n        /* \"#utility.yul\":13699:13730   */\n      0x45524332303a204d6178696d756d20737570706c792072656163686564000000\n        /* \"#utility.yul\":13695:13696   */\n      0x00\n        /* \"#utility.yul\":13687:13693   */\n      dup3\n        /* \"#utility.yul\":13683:13697   */\n      add\n        /* \"#utility.yul\":13676:13731   */\n      mstore\n        /* \"#utility.yul\":13559:13738   */\n      pop\n      jump\t// out\n        /* \"#utility.yul\":13744:14110   */\n    tag_283:\n        /* \"#utility.yul\":13886:13889   */\n      0x00\n        /* \"#utility.yul\":13907:13974   */\n      tag_414\n        /* \"#utility.yul\":13971:13973   */\n      0x1d\n        /* \"#utility.yul\":13966:13969   */\n      dup4\n        /* \"#utility.yul\":13907:13974   */\n      tag_248\n      jump\t// in\n    tag_414:\n        /* \"#utility.yul\":13900:13974   */\n      swap2\n      pop\n        /* \"#utility.yul\":13983:14076   */\n      tag_415\n        /* \"#utility.yul\":14072:14075   */\n      dup3\n        /* \"#utility.yul\":13983:14076   */\n      tag_282\n      jump\t// in\n    tag_415:\n        /* \"#utility.yul\":14101:14103   */\n      0x20\n        /* \"#utility.yul\":14096:14099   */\n      dup3\n        /* \"#utility.yul\":14092:14104   */\n      add\n        /* \"#utility.yul\":14085:14104   */\n      swap1\n      pop\n        /* \"#utility.yul\":13744:14110   */\n      swap2\n      swap1\n      pop\n      jump\t// out\n        /* \"#utility.yul\":14116:14535   */\n    tag_228:\n        /* \"#utility.yul\":14282:14286   */\n      0x00\n        /* \"#utility.yul\":14320:14322   */\n      0x20\n        /* \"#utility.yul\":14309:14318   */\n      dup3\n        /* \"#utility.yul\":14305:14323   */\n      add\n        /* \"#utility.yul\":14297:14323   */\n      swap1\n      pop\n        /* \"#utility.yul\":14369:14378   */\n      dup2\n        /* \"#utility.yul\":14363:14367   */\n      dup2\n        /* \"#utility.yul\":14359:14379   */\n      sub\n        /* \"#utility.yul\":14355:14356   */\n      0x00\n        /* \"#utility.yul\":14344:14353   */\n      dup4\n        /* \"#utility.yul\":14340:14357   */\n      add\n        /* \"#utility.yul\":14333:14380   */\n      mstore\n        /* \"#utility.yul\":14397:14528   */\n      tag_417\n        /* \"#utility.yul\":14523:14527   */\n      dup2\n        /* \"#utility.yul\":14397:14528   */\n      tag_283\n      jump\t// in\n    tag_417:\n        /* \"#utility.yul\":14389:14528   */\n      swap1\n      pop\n        /* \"#utility.yul\":14116:14535   */\n      swap2\n      swap1\n      pop\n      jump\t// out\n\n    auxdata: 0xa2646970667358221220b578f19baea04cb948e52fc5ba8471626fdeddcee2f2a6697e14405fe89c776d64736f6c634300081b0033\n}\n",
				"bytecode": {
					"linkReferences": {},
					"object": "608060405234801561000f575f5ffd5b506040518060400160405280600a81526020017f5553445420466c6173680000000000000000000000000000000000000000000081525060049081610054919061032f565b506040518060400160405280600481526020017f555344540000000000000000000000000000000000000000000000000000000081525060059081610099919061032f565b506b01f04ef12cb04cf1580000006003819055503360065f6101000a81548173ffffffffffffffffffffffffffffffffffffffff021916908373ffffffffffffffffffffffffffffffffffffffff1602179055506103fe565b5f81519050919050565b7f4e487b71000000000000000000000000000000000000000000000000000000005f52604160045260245ffd5b7f4e487b71000000000000000000000000000000000000000000000000000000005f52602260045260245ffd5b5f600282049050600182168061016d57607f821691505b6020821081036101805761017f610129565b5b50919050565b5f819050815f5260205f209050919050565b5f6020601f8301049050919050565b5f82821b905092915050565b5f600883026101e27fffffffffffffffffffffffffffffffffffffffffffffffffffffffffffffffff826101a7565b6101ec86836101a7565b95508019841693508086168417925050509392505050565b5f819050919050565b5f819050919050565b5f61023061022b61022684610204565b61020d565b610204565b9050919050565b5f819050919050565b61024983610216565b61025d61025582610237565b8484546101b3565b825550505050565b5f5f905090565b610274610265565b61027f818484610240565b505050565b5b818110156102a2576102975f8261026c565b600181019050610285565b5050565b601f8211156102e7576102b881610186565b6102c184610198565b810160208510156102d0578190505b6102e46102dc85610198565b830182610284565b50505b505050565b5f82821c905092915050565b5f6103075f19846008026102ec565b1980831691505092915050565b5f61031f83836102f8565b9150826002028217905092915050565b610338826100f2565b67ffffffffffffffff811115610351576103506100fc565b5b61035b8254610156565b6103668282856102a6565b5f60209050601f831160018114610397575f8415610385578287015190505b61038f8582610314565b8655506103f6565b601f1984166103a586610186565b5f5b828110156103cc578489015182556001820191506020850194506020810190506103a7565b868310156103e957848901516103e5601f8916826102f8565b8355505b6001600288020188555050505b505050505050565b611cd48061040b5f395ff3fe608060405234801561000f575f5ffd5b506004361061011f575f3560e01c806370a08231116100ab578063a457c2d71161006f578063a457c2d7146102f3578063a9059cbb14610323578063d5abeb0114610353578063dd62ed3e14610371578063f2fde38b146103a15761011f565b806370a082311461024f5780638456cb591461027f5780638980f11f1461028957806395d89b41146102a5578063a0712d68146102c35761011f565b80632a52940d116100f25780632a52940d146101bf578063313ce567146101db57806339509351146101f95780633f4ba83a1461022957806342966c68146102335761011f565b806306fdde0314610123578063095ea7b31461014157806318160ddd1461017157806323b872dd1461018f575b5f5ffd5b61012b6103bd565b60405161013891906115ea565b60405180910390f35b61015b6004803603810190610156919061169b565b61044d565b60405161016891906116f3565b60405180910390f35b6101796104bf565b604051610186919061171b565b60405180910390f35b6101a960048036038101906101a49190611734565b6104c8565b6040516101b691906116f3565b60405180910390f35b6101d960048036038101906101d49190611784565b610546565b005b6101e3610618565b6040516101f091906117ca565b60405180910390f35b610213600480360381019061020e919061169b565b610620565b60405161022091906116f3565b60405180910390f35b6102316106a6565b005b61024d600480360381019061024891906117e3565b610751565b005b61026960048036038101906102649190611784565b61075e565b604051610276919061171b565b60405180910390f35b6102876107a3565b005b6102a3600480360381019061029e919061169b565b61084f565b005b6102ad61097f565b6040516102ba91906115ea565b60405180910390f35b6102dd60048036038101906102d891906117e3565b610a0f565b6040516102ea91906116f3565b60405180910390f35b61030d6004803603810190610308919061169b565b610b09565b60405161031a91906116f3565b60405180910390f35b61033d6004803603810190610338919061169b565b610bce565b60405161034a91906116f3565b60405180910390f35b61035b610c40565b604051610368919061171b565b60405180910390f35b61038b6004803603810190610386919061180e565b610c49565b604051610398919061171b565b60405180910390f35b6103bb60048036038101906103b69190611784565b610ccb565b005b6060600480546103cc90611879565b80601f01602080910402602001604051908101604052809291908181526020018280546103f890611879565b80156104435780601f1061041a57610100808354040283529160200191610443565b820191905f5260205f20905b81548152906001019060200180831161042657829003601f168201915b5050505050905090565b5f600760149054906101000a900460ff161561049e576040517f08c379a0000000000000000000000000000000000000000000000000000000008152600401610495906118f3565b60405180910390fd5b5f6104a7610e0b565b90506104b4818585610e12565b600191505092915050565b5f600254905090565b5f600760149054906101000a900460ff1615610519576040517f08c379a0000000000000000000000000000000000000000000000000000000008152600401610510906118f3565b60405180910390fd5b5f610522610e0b565b905061052f858285610e24565b61053a858585610eb6565b60019150509392505050565b60065f9054906101000a900473ffffffffffffffffffffffffffffffffffffffff1673ffffffffffffffffffffffffffffffffffffffff163373ffffffffffffffffffffffffffffffffffffffff16146105d5576040517f08c379a00000000000000000000000000000000000000000000000000000000081526004016105cc90611981565b60405180910390fd5b8060075f6101000a81548173ffffffffffffffffffffffffffffffffffffffff021916908373ffffffffffffffffffffffffffffffffffffffff16021790555050565b5f6012905090565b5f600760149054906101000a900460ff1615610671576040517f08c379a0000000000000000000000000000000000000000000000000000000008152600401610668906118f3565b60405180910390fd5b5f61067a610e0b565b905061069b81858561068c8589610c49565b61069691906119cc565b610e12565b600191505092915050565b60065f9054906101000a900473ffffffffffffffffffffffffffffffffffffffff1673ffffffffffffffffffffffffffffffffffffffff163373ffffffffffffffffffffffffffffffffffffffff1614610735576040517f08c379a000000000000000000000000000000000000000000000000000000000815260040161072c90611981565b60405180910390fd5b5f600760146101000a81548160ff021916908315150217905550565b61075b3382610fa6565b50565b5f5f5f8373ffffffffffffffffffffffffffffffffffffffff1673ffffffffffffffffffffffffffffffffffffffff1681526020019081526020015f20549050919050565b60065f9054906101000a900473ffffffffffffffffffffffffffffffffffffffff1673ffffffffffffffffffffffffffffffffffffffff163373ffffffffffffffffffffffffffffffffffffffff1614610832576040517f08c379a000000000000000000000000000000000000000000000000000000000815260040161082990611981565b60405180910390fd5b6001600760146101000a81548160ff021916908315150217905550565b60065f9054906101000a900473ffffffffffffffffffffffffffffffffffffffff1673ffffffffffffffffffffffffffffffffffffffff163373ffffffffffffffffffffffffffffffffffffffff16146108de576040517f08c379a00000000000000000000000000000000000000000000000000000000081526004016108d590611981565b60405180910390fd5b8173ffffffffffffffffffffffffffffffffffffffff1663a9059cbb60065f9054906101000a900473ffffffffffffffffffffffffffffffffffffffff16836040518363ffffffff1660e01b815260040161093a929190611a0e565b6020604051808303815f875af1158015610956573d5f5f3e3d5ffd5b505050506040513d601f19601f8201168201806040525081019061097a9190611a5f565b505050565b60606005805461098e90611879565b80601f01602080910402602001604051908101604052809291908181526020018280546109ba90611879565b8015610a055780601f106109dc57610100808354040283529160200191610a05565b820191905f5260205f20905b8154815290600101906020018083116109e857829003601f168201915b5050505050905090565b5f60075f9054906101000a900473ffffffffffffffffffffffffffffffffffffffff1673ffffffffffffffffffffffffffffffffffffffff163373ffffffffffffffffffffffffffffffffffffffff161480610ab7575060065f9054906101000a900473ffffffffffffffffffffffffffffffffffffffff1673ffffffffffffffffffffffffffffffffffffffff163373ffffffffffffffffffffffffffffffffffffffff16145b610af6576040517f08c379a0000000000000000000000000000000000000000000000000000000008152600401610aed90611afa565b60405180910390fd5b610b003383611073565b60019050919050565b5f600760149054906101000a900460ff1615610b5a576040517f08c379a0000000000000000000000000000000000000000000000000000000008152600401610b51906118f3565b60405180910390fd5b5f610b63610e0b565b90505f610b708286610c49565b905083811015610bb5576040517f08c379a0000000000000000000000000000000000000000000000000000000008152600401610bac90611b62565b60405180910390fd5b610bc28286868403610e12565b60019250505092915050565b5f600760149054906101000a900460ff1615610c1f576040517f08c379a0000000000000000000000000000000000000000000000000000000008152600401610c16906118f3565b60405180910390fd5b5f610c28610e0b565b9050610c35818585610eb6565b600191505092915050565b5f600354905090565b5f60015f8473ffffffffffffffffffffffffffffffffffffffff1673ffffffffffffffffffffffffffffffffffffffff1681526020019081526020015f205f8373ffffffffffffffffffffffffffffffffffffffff1673ffffffffffffffffffffffffffffffffffffffff1681526020019081526020015f2054905092915050565b60065f9054906101000a900473ffffffffffffffffffffffffffffffffffffffff1673ffffffffffffffffffffffffffffffffffffffff163373ffffffffffffffffffffffffffffffffffffffff1614610d5a576040517f08c379a0000000000000000000000000000000000000000000000000000000008152600401610d5190611981565b60405180910390fd5b5f73ffffffffffffffffffffffffffffffffffffffff168173ffffffffffffffffffffffffffffffffffffffff1603610dc8576040517f08c379a0000000000000000000000000000000000000000000000000000000008152600401610dbf90611bca565b60405180910390fd5b8060065f6101000a81548173ffffffffffffffffffffffffffffffffffffffff021916908373ffffffffffffffffffffffffffffffffffffffff16021790555050565b5f33905090565b610e1f8383836001611192565b505050565b5f610e2f8484610c49565b90507fffffffffffffffffffffffffffffffffffffffffffffffffffffffffffffffff8114610eb05781811015610ea1578281836040517f808463d1000000000000000000000000000000000000000000000000000000008152600401610e9893929190611be8565b60405180910390fd5b610eaf84848484035f611192565b5b50505050565b5f73ffffffffffffffffffffffffffffffffffffffff168373ffffffffffffffffffffffffffffffffffffffff1603610f26575f6040517f88b25e3e000000000000000000000000000000000000000000000000000000008152600401610f1d9190611c1d565b60405180910390fd5b5f73ffffffffffffffffffffffffffffffffffffffff168273ffffffffffffffffffffffffffffffffffffffff1603610f96575f6040517f8702316d000000000000000000000000000000000000000000000000000000008152600401610f8d9190611c1d565b60405180910390fd5b610fa1838383611361565b505050565b5f73ffffffffffffffffffffffffffffffffffffffff168273ffffffffffffffffffffffffffffffffffffffff1603611016575f6040517f88b25e3e00000000000000000000000000000000000000000000000000000000815260040161100d9190611c1d565b60405180910390fd5b611021825f83611361565b8173ffffffffffffffffffffffffffffffffffffffff167fcc16f5dbb4873280815c1ee09dbd06736cffcc184412cf7a71a0fdb75d397ca582604051611067919061171b565b60405180910390a25050565b5f73ffffffffffffffffffffffffffffffffffffffff168273ffffffffffffffffffffffffffffffffffffffff16036110e3575f6040517f8702316d0000000000000000000000000000000000000000000000000000000081526004016110da9190611c1d565b60405180910390fd5b600354816002546110f491906119cc565b1115611135576040517f08c379a000000000000000000000000000000000000000000000000000000000815260040161112c90611c80565b60405180910390fd5b6111405f8383611361565b8173ffffffffffffffffffffffffffffffffffffffff167f0f6798a560793a54c3bcfe86a93cde1e73087d944c0ea20544137d412139688582604051611186919061171b565b60405180910390a25050565b5f73ffffffffffffffffffffffffffffffffffffffff168473ffffffffffffffffffffffffffffffffffffffff1603611202575f6040517f1e431edf0000000000000000000000000000000000000000000000000000000081526004016111f99190611c1d565b60405180910390fd5b5f73ffffffffffffffffffffffffffffffffffffffff168373ffffffffffffffffffffffffffffffffffffffff1603611272575f6040517f503ab6af0000000000000000000000000000000000000000000000000000000081526004016112699190611c1d565b60405180910390fd5b8160015f8673ffffffffffffffffffffffffffffffffffffffff1673ffffffffffffffffffffffffffffffffffffffff1681526020019081526020015f205f8573ffffffffffffffffffffffffffffffffffffffff1673ffffffffffffffffffffffffffffffffffffffff1681526020019081526020015f2081905550801561135b578273ffffffffffffffffffffffffffffffffffffffff168473ffffffffffffffffffffffffffffffffffffffff167f8c5be1e5ebec7d5bd14f71427d1e84f3dd0314c0f7b2291e5b200ac8c7c3b92584604051611352919061171b565b60405180910390a35b50505050565b5f73ffffffffffffffffffffffffffffffffffffffff168373ffffffffffffffffffffffffffffffffffffffff16036113b1578060025f8282546113a591906119cc565b9250508190555061147f565b5f5f5f8573ffffffffffffffffffffffffffffffffffffffff1673ffffffffffffffffffffffffffffffffffffffff1681526020019081526020015f205490508181101561143a578381836040517fd79d596700000000000000000000000000000000000000000000000000000000815260040161143193929190611be8565b60405180910390fd5b8181035f5f8673ffffffffffffffffffffffffffffffffffffffff1673ffffffffffffffffffffffffffffffffffffffff1681526020019081526020015f2081905550505b5f73ffffffffffffffffffffffffffffffffffffffff168273ffffffffffffffffffffffffffffffffffffffff16036114c6578060025f8282540392505081905550611510565b805f5f8473ffffffffffffffffffffffffffffffffffffffff1673ffffffffffffffffffffffffffffffffffffffff1681526020019081526020015f205f82825401925050819055505b8173ffffffffffffffffffffffffffffffffffffffff168373ffffffffffffffffffffffffffffffffffffffff167fddf252ad1be2c89b69c2b068fc378daa952ba7f163c4a11628f55a4df523b3ef8360405161156d919061171b565b60405180910390a3505050565b5f81519050919050565b5f82825260208201905092915050565b8281835e5f83830152505050565b5f601f19601f8301169050919050565b5f6115bc8261157a565b6115c68185611584565b93506115d6818560208601611594565b6115df816115a2565b840191505092915050565b5f6020820190508181035f83015261160281846115b2565b905092915050565b5f5ffd5b5f73ffffffffffffffffffffffffffffffffffffffff82169050919050565b5f6116378261160e565b9050919050565b6116478161162d565b8114611651575f5ffd5b50565b5f813590506116628161163e565b92915050565b5f819050919050565b61167a81611668565b8114611684575f5ffd5b50565b5f8135905061169581611671565b92915050565b5f5f604083850312156116b1576116b061160a565b5b5f6116be85828601611654565b92505060206116cf85828601611687565b9150509250929050565b5f8115159050919050565b6116ed816116d9565b82525050565b5f6020820190506117065f8301846116e4565b92915050565b61171581611668565b82525050565b5f60208201905061172e5f83018461170c565b92915050565b5f5f5f6060848603121561174b5761174a61160a565b5b5f61175886828701611654565b935050602061176986828701611654565b925050604061177a86828701611687565b9150509250925092565b5f602082840312156117995761179861160a565b5b5f6117a684828501611654565b91505092915050565b5f60ff82169050919050565b6117c4816117af565b82525050565b5f6020820190506117dd5f8301846117bb565b92915050565b5f602082840312156117f8576117f761160a565b5b5f61180584828501611687565b91505092915050565b5f5f604083850312156118245761182361160a565b5b5f61183185828601611654565b925050602061184285828601611654565b9150509250929050565b7f4e487b71000000000000000000000000000000000000000000000000000000005f52602260045260245ffd5b5f600282049050600182168061189057607f821691505b6020821081036118a3576118a261184c565b5b50919050565b7f5061757361626c653a20706175736564000000000000000000000000000000005f82015250565b5f6118dd601083611584565b91506118e8826118a9565b602082019050919050565b5f6020820190508181035f83015261190a816118d1565b9050919050565b7f4f6e6c792074686520636f6e7472616374206f776e65722063616e2063616c6c5f8201527f20746869732066756e6374696f6e000000000000000000000000000000000000602082015250565b5f61196b602e83611584565b915061197682611911565b604082019050919050565b5f6020820190508181035f8301526119988161195f565b9050919050565b7f4e487b71000000000000000000000000000000000000000000000000000000005f52601160045260245ffd5b5f6119d682611668565b91506119e183611668565b92508282019050808211156119f9576119f861199f565b5b92915050565b611a088161162d565b82525050565b5f604082019050611a215f8301856119ff565b611a2e602083018461170c565b9392505050565b611a3e816116d9565b8114611a48575f5ffd5b50565b5f81519050611a5981611a35565b92915050565b5f60208284031215611a7457611a7361160a565b5b5f611a8184828501611a4b565b91505092915050565b7f4f6e6c792074686520666c617368206c6f616e20636f6e7472616374206f72205f8201527f746865206f776e65722063616e206d696e7420746f6b656e7300000000000000602082015250565b5f611ae4603983611584565b9150611aef82611a8a565b604082019050919050565b5f6020820190508181035f830152611b1181611ad8565b9050919050565b7f45524332303a20616c6c6f77616e63652062656c6f77207a65726f00000000005f82015250565b5f611b4c601b83611584565b9150611b5782611b18565b602082019050919050565b5f6020820190508181035f830152611b7981611b40565b9050919050565b7f4e6577206f776e657220697320746865207a65726f20616464726573730000005f82015250565b5f611bb4601d83611584565b9150611bbf82611b80565b602082019050919050565b5f6020820190508181035f830152611be181611ba8565b9050919050565b5f606082019050611bfb5f8301866119ff565b611c08602083018561170c565b611c15604083018461170c565b949350505050565b5f602082019050611c305f8301846119ff565b92915050565b7f45524332303a204d6178696d756d20737570706c7920726561636865640000005f82015250565b5f611c6a601d83611584565b9150611c7582611c36565b602082019050919050565b5f6020820190508181035f830152611c9781611c5e565b905091905056fea2646970667358221220b578f19baea04cb948e52fc5ba8471626fdeddcee2f2a6697e14405fe89c776d64736f6c634300081b0033",
					"opcodes": "PUSH1 0x80 PUSH1 0x40 MSTORE CALLVALUE DUP1 ISZERO PUSH2 0xF JUMPI PUSH0 PUSH0 REVERT JUMPDEST POP PUSH1 0x40 MLOAD DUP1 PUSH1 0x40 ADD PUSH1 0x40 MSTORE DUP1 PUSH1 0xA DUP2 MSTORE PUSH1 0x20 ADD PUSH32 0x5553445420466C61736800000000000000000000000000000000000000000000 DUP2 MSTORE POP PUSH1 0x4 SWAP1 DUP2 PUSH2 0x54 SWAP2 SWAP1 PUSH2 0x32F JUMP JUMPDEST POP PUSH1 0x40 MLOAD DUP1 PUSH1 0x40 ADD PUSH1 0x40 MSTORE DUP1 PUSH1 0x4 DUP2 MSTORE PUSH1 0x20 ADD PUSH32 0x5553445400000000000000000000000000000000000000000000000000000000 DUP2 MSTORE POP PUSH1 0x5 SWAP1 DUP2 PUSH2 0x99 SWAP2 SWAP1 PUSH2 0x32F JUMP JUMPDEST POP PUSH12 0x1F04EF12CB04CF158000000 PUSH1 0x3 DUP2 SWAP1 SSTORE POP CALLER PUSH1 0x6 PUSH0 PUSH2 0x100 EXP DUP2 SLOAD DUP2 PUSH20 0xFFFFFFFFFFFFFFFFFFFFFFFFFFFFFFFFFFFFFFFF MUL NOT AND SWAP1 DUP4 PUSH20 0xFFFFFFFFFFFFFFFFFFFFFFFFFFFFFFFFFFFFFFFF AND MUL OR SWAP1 SSTORE POP PUSH2 0x3FE JUMP JUMPDEST PUSH0 DUP2 MLOAD SWAP1 POP SWAP2 SWAP1 POP JUMP JUMPDEST PUSH32 0x4E487B7100000000000000000000000000000000000000000000000000000000 PUSH0 MSTORE PUSH1 0x41 PUSH1 0x4 MSTORE PUSH1 0x24 PUSH0 REVERT JUMPDEST PUSH32 0x4E487B7100000000000000000000000000000000000000000000000000000000 PUSH0 MSTORE PUSH1 0x22 PUSH1 0x4 MSTORE PUSH1 0x24 PUSH0 REVERT JUMPDEST PUSH0 PUSH1 0x2 DUP3 DIV SWAP1 POP PUSH1 0x1 DUP3 AND DUP1 PUSH2 0x16D JUMPI PUSH1 0x7F DUP3 AND SWAP2 POP JUMPDEST PUSH1 0x20 DUP3 LT DUP2 SUB PUSH2 0x180 JUMPI PUSH2 0x17F PUSH2 0x129 JUMP JUMPDEST JUMPDEST POP SWAP2 SWAP1 POP JUMP JUMPDEST PUSH0 DUP2 SWAP1 POP DUP2 PUSH0 MSTORE PUSH1 0x20 PUSH0 KECCAK256 SWAP1 POP SWAP2 SWAP1 POP JUMP JUMPDEST PUSH0 PUSH1 0x20 PUSH1 0x1F DUP4 ADD DIV SWAP1 POP SWAP2 SWAP1 POP JUMP JUMPDEST PUSH0 DUP3 DUP3 SHL SWAP1 POP SWAP3 SWAP2 POP POP JUMP JUMPDEST PUSH0 PUSH1 0x8 DUP4 MUL PUSH2 0x1E2 PUSH32 0xFFFFFFFFFFFFFFFFFFFFFFFFFFFFFFFFFFFFFFFFFFFFFFFFFFFFFFFFFFFFFFFF DUP3 PUSH2 0x1A7 JUMP JUMPDEST PUSH2 0x1EC DUP7 DUP4 PUSH2 0x1A7 JUMP JUMPDEST SWAP6 POP DUP1 NOT DUP5 AND SWAP4 POP DUP1 DUP7 AND DUP5 OR SWAP3 POP POP POP SWAP4 SWAP3 POP POP POP JUMP JUMPDEST PUSH0 DUP2 SWAP1 POP SWAP2 SWAP1 POP JUMP JUMPDEST PUSH0 DUP2 SWAP1 POP SWAP2 SWAP1 POP JUMP JUMPDEST PUSH0 PUSH2 0x230 PUSH2 0x22B PUSH2 0x226 DUP5 PUSH2 0x204 JUMP JUMPDEST PUSH2 0x20D JUMP JUMPDEST PUSH2 0x204 JUMP JUMPDEST SWAP1 POP SWAP2 SWAP1 POP JUMP JUMPDEST PUSH0 DUP2 SWAP1 POP SWAP2 SWAP1 POP JUMP JUMPDEST PUSH2 0x249 DUP4 PUSH2 0x216 JUMP JUMPDEST PUSH2 0x25D PUSH2 0x255 DUP3 PUSH2 0x237 JUMP JUMPDEST DUP5 DUP5 SLOAD PUSH2 0x1B3 JUMP JUMPDEST DUP3 SSTORE POP POP POP POP JUMP JUMPDEST PUSH0 PUSH0 SWAP1 POP SWAP1 JUMP JUMPDEST PUSH2 0x274 PUSH2 0x265 JUMP JUMPDEST PUSH2 0x27F DUP2 DUP5 DUP5 PUSH2 0x240 JUMP JUMPDEST POP POP POP JUMP JUMPDEST JUMPDEST DUP2 DUP2 LT ISZERO PUSH2 0x2A2 JUMPI PUSH2 0x297 PUSH0 DUP3 PUSH2 0x26C JUMP JUMPDEST PUSH1 0x1 DUP2 ADD SWAP1 POP PUSH2 0x285 JUMP JUMPDEST POP POP JUMP JUMPDEST PUSH1 0x1F DUP3 GT ISZERO PUSH2 0x2E7 JUMPI PUSH2 0x2B8 DUP2 PUSH2 0x186 JUMP JUMPDEST PUSH2 0x2C1 DUP5 PUSH2 0x198 JUMP JUMPDEST DUP2 ADD PUSH1 0x20 DUP6 LT ISZERO PUSH2 0x2D0 JUMPI DUP2 SWAP1 POP JUMPDEST PUSH2 0x2E4 PUSH2 0x2DC DUP6 PUSH2 0x198 JUMP JUMPDEST DUP4 ADD DUP3 PUSH2 0x284 JUMP JUMPDEST POP POP JUMPDEST POP POP POP JUMP JUMPDEST PUSH0 DUP3 DUP3 SHR SWAP1 POP SWAP3 SWAP2 POP POP JUMP JUMPDEST PUSH0 PUSH2 0x307 PUSH0 NOT DUP5 PUSH1 0x8 MUL PUSH2 0x2EC JUMP JUMPDEST NOT DUP1 DUP4 AND SWAP2 POP POP SWAP3 SWAP2 POP POP JUMP JUMPDEST PUSH0 PUSH2 0x31F DUP4 DUP4 PUSH2 0x2F8 JUMP JUMPDEST SWAP2 POP DUP3 PUSH1 0x2 MUL DUP3 OR SWAP1 POP SWAP3 SWAP2 POP POP JUMP JUMPDEST PUSH2 0x338 DUP3 PUSH2 0xF2 JUMP JUMPDEST PUSH8 0xFFFFFFFFFFFFFFFF DUP2 GT ISZERO PUSH2 0x351 JUMPI PUSH2 0x350 PUSH2 0xFC JUMP JUMPDEST JUMPDEST PUSH2 0x35B DUP3 SLOAD PUSH2 0x156 JUMP JUMPDEST PUSH2 0x366 DUP3 DUP3 DUP6 PUSH2 0x2A6 JUMP JUMPDEST PUSH0 PUSH1 0x20 SWAP1 POP PUSH1 0x1F DUP4 GT PUSH1 0x1 DUP2 EQ PUSH2 0x397 JUMPI PUSH0 DUP5 ISZERO PUSH2 0x385 JUMPI DUP3 DUP8 ADD MLOAD SWAP1 POP JUMPDEST PUSH2 0x38F DUP6 DUP3 PUSH2 0x314 JUMP JUMPDEST DUP7 SSTORE POP PUSH2 0x3F6 JUMP JUMPDEST PUSH1 0x1F NOT DUP5 AND PUSH2 0x3A5 DUP7 PUSH2 0x186 JUMP JUMPDEST PUSH0 JUMPDEST DUP3 DUP2 LT ISZERO PUSH2 0x3CC JUMPI DUP5 DUP10 ADD MLOAD DUP3 SSTORE PUSH1 0x1 DUP3 ADD SWAP2 POP PUSH1 0x20 DUP6 ADD SWAP5 POP PUSH1 0x20 DUP2 ADD SWAP1 POP PUSH2 0x3A7 JUMP JUMPDEST DUP7 DUP4 LT ISZERO PUSH2 0x3E9 JUMPI DUP5 DUP10 ADD MLOAD PUSH2 0x3E5 PUSH1 0x1F DUP10 AND DUP3 PUSH2 0x2F8 JUMP JUMPDEST DUP4 SSTORE POP JUMPDEST PUSH1 0x1 PUSH1 0x2 DUP9 MUL ADD DUP9 SSTORE POP POP POP JUMPDEST POP POP POP POP POP POP JUMP JUMPDEST PUSH2 0x1CD4 DUP1 PUSH2 0x40B PUSH0 CODECOPY PUSH0 RETURN INVALID PUSH1 0x80 PUSH1 0x40 MSTORE CALLVALUE DUP1 ISZERO PUSH2 0xF JUMPI PUSH0 PUSH0 REVERT JUMPDEST POP PUSH1 0x4 CALLDATASIZE LT PUSH2 0x11F JUMPI PUSH0 CALLDATALOAD PUSH1 0xE0 SHR DUP1 PUSH4 0x70A08231 GT PUSH2 0xAB JUMPI DUP1 PUSH4 0xA457C2D7 GT PUSH2 0x6F JUMPI DUP1 PUSH4 0xA457C2D7 EQ PUSH2 0x2F3 JUMPI DUP1 PUSH4 0xA9059CBB EQ PUSH2 0x323 JUMPI DUP1 PUSH4 0xD5ABEB01 EQ PUSH2 0x353 JUMPI DUP1 PUSH4 0xDD62ED3E EQ PUSH2 0x371 JUMPI DUP1 PUSH4 0xF2FDE38B EQ PUSH2 0x3A1 JUMPI PUSH2 0x11F JUMP JUMPDEST DUP1 PUSH4 0x70A08231 EQ PUSH2 0x24F JUMPI DUP1 PUSH4 0x8456CB59 EQ PUSH2 0x27F JUMPI DUP1 PUSH4 0x8980F11F EQ PUSH2 0x289 JUMPI DUP1 PUSH4 0x95D89B41 EQ PUSH2 0x2A5 JUMPI DUP1 PUSH4 0xA0712D68 EQ PUSH2 0x2C3 JUMPI PUSH2 0x11F JUMP JUMPDEST DUP1 PUSH4 0x2A52940D GT PUSH2 0xF2 JUMPI DUP1 PUSH4 0x2A52940D EQ PUSH2 0x1BF JUMPI DUP1 PUSH4 0x313CE567 EQ PUSH2 0x1DB JUMPI DUP1 PUSH4 0x39509351 EQ PUSH2 0x1F9 JUMPI DUP1 PUSH4 0x3F4BA83A EQ PUSH2 0x229 JUMPI DUP1 PUSH4 0x42966C68 EQ PUSH2 0x233 JUMPI PUSH2 0x11F JUMP JUMPDEST DUP1 PUSH4 0x6FDDE03 EQ PUSH2 0x123 JUMPI DUP1 PUSH4 0x95EA7B3 EQ PUSH2 0x141 JUMPI DUP1 PUSH4 0x18160DDD EQ PUSH2 0x171 JUMPI DUP1 PUSH4 0x23B872DD EQ PUSH2 0x18F JUMPI JUMPDEST PUSH0 PUSH0 REVERT JUMPDEST PUSH2 0x12B PUSH2 0x3BD JUMP JUMPDEST PUSH1 0x40 MLOAD PUSH2 0x138 SWAP2 SWAP1 PUSH2 0x15EA JUMP JUMPDEST PUSH1 0x40 MLOAD DUP1 SWAP2 SUB SWAP1 RETURN JUMPDEST PUSH2 0x15B PUSH1 0x4 DUP1 CALLDATASIZE SUB DUP2 ADD SWAP1 PUSH2 0x156 SWAP2 SWAP1 PUSH2 0x169B JUMP JUMPDEST PUSH2 0x44D JUMP JUMPDEST PUSH1 0x40 MLOAD PUSH2 0x168 SWAP2 SWAP1 PUSH2 0x16F3 JUMP JUMPDEST PUSH1 0x40 MLOAD DUP1 SWAP2 SUB SWAP1 RETURN JUMPDEST PUSH2 0x179 PUSH2 0x4BF JUMP JUMPDEST PUSH1 0x40 MLOAD PUSH2 0x186 SWAP2 SWAP1 PUSH2 0x171B JUMP JUMPDEST PUSH1 0x40 MLOAD DUP1 SWAP2 SUB SWAP1 RETURN JUMPDEST PUSH2 0x1A9 PUSH1 0x4 DUP1 CALLDATASIZE SUB DUP2 ADD SWAP1 PUSH2 0x1A4 SWAP2 SWAP1 PUSH2 0x1734 JUMP JUMPDEST PUSH2 0x4C8 JUMP JUMPDEST PUSH1 0x40 MLOAD PUSH2 0x1B6 SWAP2 SWAP1 PUSH2 0x16F3 JUMP JUMPDEST PUSH1 0x40 MLOAD DUP1 SWAP2 SUB SWAP1 RETURN JUMPDEST PUSH2 0x1D9 PUSH1 0x4 DUP1 CALLDATASIZE SUB DUP2 ADD SWAP1 PUSH2 0x1D4 SWAP2 SWAP1 PUSH2 0x1784 JUMP JUMPDEST PUSH2 0x546 JUMP JUMPDEST STOP JUMPDEST PUSH2 0x1E3 PUSH2 0x618 JUMP JUMPDEST PUSH1 0x40 MLOAD PUSH2 0x1F0 SWAP2 SWAP1 PUSH2 0x17CA JUMP JUMPDEST PUSH1 0x40 MLOAD DUP1 SWAP2 SUB SWAP1 RETURN JUMPDEST PUSH2 0x213 PUSH1 0x4 DUP1 CALLDATASIZE SUB DUP2 ADD SWAP1 PUSH2 0x20E SWAP2 SWAP1 PUSH2 0x169B JUMP JUMPDEST PUSH2 0x620 JUMP JUMPDEST PUSH1 0x40 MLOAD PUSH2 0x220 SWAP2 SWAP1 PUSH2 0x16F3 JUMP JUMPDEST PUSH1 0x40 MLOAD DUP1 SWAP2 SUB SWAP1 RETURN JUMPDEST PUSH2 0x231 PUSH2 0x6A6 JUMP JUMPDEST STOP JUMPDEST PUSH2 0x24D PUSH1 0x4 DUP1 CALLDATASIZE SUB DUP2 ADD SWAP1 PUSH2 0x248 SWAP2 SWAP1 PUSH2 0x17E3 JUMP JUMPDEST PUSH2 0x751 JUMP JUMPDEST STOP JUMPDEST PUSH2 0x269 PUSH1 0x4 DUP1 CALLDATASIZE SUB DUP2 ADD SWAP1 PUSH2 0x264 SWAP2 SWAP1 PUSH2 0x1784 JUMP JUMPDEST PUSH2 0x75E JUMP JUMPDEST PUSH1 0x40 MLOAD PUSH2 0x276 SWAP2 SWAP1 PUSH2 0x171B JUMP JUMPDEST PUSH1 0x40 MLOAD DUP1 SWAP2 SUB SWAP1 RETURN JUMPDEST PUSH2 0x287 PUSH2 0x7A3 JUMP JUMPDEST STOP JUMPDEST PUSH2 0x2A3 PUSH1 0x4 DUP1 CALLDATASIZE SUB DUP2 ADD SWAP1 PUSH2 0x29E SWAP2 SWAP1 PUSH2 0x169B JUMP JUMPDEST PUSH2 0x84F JUMP JUMPDEST STOP JUMPDEST PUSH2 0x2AD PUSH2 0x97F JUMP JUMPDEST PUSH1 0x40 MLOAD PUSH2 0x2BA SWAP2 SWAP1 PUSH2 0x15EA JUMP JUMPDEST PUSH1 0x40 MLOAD DUP1 SWAP2 SUB SWAP1 RETURN JUMPDEST PUSH2 0x2DD PUSH1 0x4 DUP1 CALLDATASIZE SUB DUP2 ADD SWAP1 PUSH2 0x2D8 SWAP2 SWAP1 PUSH2 0x17E3 JUMP JUMPDEST PUSH2 0xA0F JUMP JUMPDEST PUSH1 0x40 MLOAD PUSH2 0x2EA SWAP2 SWAP1 PUSH2 0x16F3 JUMP JUMPDEST PUSH1 0x40 MLOAD DUP1 SWAP2 SUB SWAP1 RETURN JUMPDEST PUSH2 0x30D PUSH1 0x4 DUP1 CALLDATASIZE SUB DUP2 ADD SWAP1 PUSH2 0x308 SWAP2 SWAP1 PUSH2 0x169B JUMP JUMPDEST PUSH2 0xB09 JUMP JUMPDEST PUSH1 0x40 MLOAD PUSH2 0x31A SWAP2 SWAP1 PUSH2 0x16F3 JUMP JUMPDEST PUSH1 0x40 MLOAD DUP1 SWAP2 SUB SWAP1 RETURN JUMPDEST PUSH2 0x33D PUSH1 0x4 DUP1 CALLDATASIZE SUB DUP2 ADD SWAP1 PUSH2 0x338 SWAP2 SWAP1 PUSH2 0x169B JUMP JUMPDEST PUSH2 0xBCE JUMP JUMPDEST PUSH1 0x40 MLOAD PUSH2 0x34A SWAP2 SWAP1 PUSH2 0x16F3 JUMP JUMPDEST PUSH1 0x40 MLOAD DUP1 SWAP2 SUB SWAP1 RETURN JUMPDEST PUSH2 0x35B PUSH2 0xC40 JUMP JUMPDEST PUSH1 0x40 MLOAD PUSH2 0x368 SWAP2 SWAP1 PUSH2 0x171B JUMP JUMPDEST PUSH1 0x40 MLOAD DUP1 SWAP2 SUB SWAP1 RETURN JUMPDEST PUSH2 0x38B PUSH1 0x4 DUP1 CALLDATASIZE SUB DUP2 ADD SWAP1 PUSH2 0x386 SWAP2 SWAP1 PUSH2 0x180E JUMP JUMPDEST PUSH2 0xC49 JUMP JUMPDEST PUSH1 0x40 MLOAD PUSH2 0x398 SWAP2 SWAP1 PUSH2 0x171B JUMP JUMPDEST PUSH1 0x40 MLOAD DUP1 SWAP2 SUB SWAP1 RETURN JUMPDEST PUSH2 0x3BB PUSH1 0x4 DUP1 CALLDATASIZE SUB DUP2 ADD SWAP1 PUSH2 0x3B6 SWAP2 SWAP1 PUSH2 0x1784 JUMP JUMPDEST PUSH2 0xCCB JUMP JUMPDEST STOP JUMPDEST PUSH1 0x60 PUSH1 0x4 DUP1 SLOAD PUSH2 0x3CC SWAP1 PUSH2 0x1879 JUMP JUMPDEST DUP1 PUSH1 0x1F ADD PUSH1 0x20 DUP1 SWAP2 DIV MUL PUSH1 0x20 ADD PUSH1 0x40 MLOAD SWAP1 DUP2 ADD PUSH1 0x40 MSTORE DUP1 SWAP3 SWAP2 SWAP1 DUP2 DUP2 MSTORE PUSH1 0x20 ADD DUP3 DUP1 SLOAD PUSH2 0x3F8 SWAP1 PUSH2 0x1879 JUMP JUMPDEST DUP1 ISZERO PUSH2 0x443 JUMPI DUP1 PUSH1 0x1F LT PUSH2 0x41A JUMPI PUSH2 0x100 DUP1 DUP4 SLOAD DIV MUL DUP4 MSTORE SWAP2 PUSH1 0x20 ADD SWAP2 PUSH2 0x443 JUMP JUMPDEST DUP3 ADD SWAP2 SWAP1 PUSH0 MSTORE PUSH1 0x20 PUSH0 KECCAK256 SWAP1 JUMPDEST DUP2 SLOAD DUP2 MSTORE SWAP1 PUSH1 0x1 ADD SWAP1 PUSH1 0x20 ADD DUP1 DUP4 GT PUSH2 0x426 JUMPI DUP3 SWAP1 SUB PUSH1 0x1F AND DUP3 ADD SWAP2 JUMPDEST POP POP POP POP POP SWAP1 POP SWAP1 JUMP JUMPDEST PUSH0 PUSH1 0x7 PUSH1 0x14 SWAP1 SLOAD SWAP1 PUSH2 0x100 EXP SWAP1 DIV PUSH1 0xFF AND ISZERO PUSH2 0x49E JUMPI PUSH1 0x40 MLOAD PUSH32 0x8C379A000000000000000000000000000000000000000000000000000000000 DUP2 MSTORE PUSH1 0x4 ADD PUSH2 0x495 SWAP1 PUSH2 0x18F3 JUMP JUMPDEST PUSH1 0x40 MLOAD DUP1 SWAP2 SUB SWAP1 REVERT JUMPDEST PUSH0 PUSH2 0x4A7 PUSH2 0xE0B JUMP JUMPDEST SWAP1 POP PUSH2 0x4B4 DUP2 DUP6 DUP6 PUSH2 0xE12 JUMP JUMPDEST PUSH1 0x1 SWAP2 POP POP SWAP3 SWAP2 POP POP JUMP JUMPDEST PUSH0 PUSH1 0x2 SLOAD SWAP1 POP SWAP1 JUMP JUMPDEST PUSH0 PUSH1 0x7 PUSH1 0x14 SWAP1 SLOAD SWAP1 PUSH2 0x100 EXP SWAP1 DIV PUSH1 0xFF AND ISZERO PUSH2 0x519 JUMPI PUSH1 0x40 MLOAD PUSH32 0x8C379A000000000000000000000000000000000000000000000000000000000 DUP2 MSTORE PUSH1 0x4 ADD PUSH2 0x510 SWAP1 PUSH2 0x18F3 JUMP JUMPDEST PUSH1 0x40 MLOAD DUP1 SWAP2 SUB SWAP1 REVERT JUMPDEST PUSH0 PUSH2 0x522 PUSH2 0xE0B JUMP JUMPDEST SWAP1 POP PUSH2 0x52F DUP6 DUP3 DUP6 PUSH2 0xE24 JUMP JUMPDEST PUSH2 0x53A DUP6 DUP6 DUP6 PUSH2 0xEB6 JUMP JUMPDEST PUSH1 0x1 SWAP2 POP POP SWAP4 SWAP3 POP POP POP JUMP JUMPDEST PUSH1 0x6 PUSH0 SWAP1 SLOAD SWAP1 PUSH2 0x100 EXP SWAP1 DIV PUSH20 0xFFFFFFFFFFFFFFFFFFFFFFFFFFFFFFFFFFFFFFFF AND PUSH20 0xFFFFFFFFFFFFFFFFFFFFFFFFFFFFFFFFFFFFFFFF AND CALLER PUSH20 0xFFFFFFFFFFFFFFFFFFFFFFFFFFFFFFFFFFFFFFFF AND EQ PUSH2 0x5D5 JUMPI PUSH1 0x40 MLOAD PUSH32 0x8C379A000000000000000000000000000000000000000000000000000000000 DUP2 MSTORE PUSH1 0x4 ADD PUSH2 0x5CC SWAP1 PUSH2 0x1981 JUMP JUMPDEST PUSH1 0x40 MLOAD DUP1 SWAP2 SUB SWAP1 REVERT JUMPDEST DUP1 PUSH1 0x7 PUSH0 PUSH2 0x100 EXP DUP2 SLOAD DUP2 PUSH20 0xFFFFFFFFFFFFFFFFFFFFFFFFFFFFFFFFFFFFFFFF MUL NOT AND SWAP1 DUP4 PUSH20 0xFFFFFFFFFFFFFFFFFFFFFFFFFFFFFFFFFFFFFFFF AND MUL OR SWAP1 SSTORE POP POP JUMP JUMPDEST PUSH0 PUSH1 0x12 SWAP1 POP SWAP1 JUMP JUMPDEST PUSH0 PUSH1 0x7 PUSH1 0x14 SWAP1 SLOAD SWAP1 PUSH2 0x100 EXP SWAP1 DIV PUSH1 0xFF AND ISZERO PUSH2 0x671 JUMPI PUSH1 0x40 MLOAD PUSH32 0x8C379A000000000000000000000000000000000000000000000000000000000 DUP2 MSTORE PUSH1 0x4 ADD PUSH2 0x668 SWAP1 PUSH2 0x18F3 JUMP JUMPDEST PUSH1 0x40 MLOAD DUP1 SWAP2 SUB SWAP1 REVERT JUMPDEST PUSH0 PUSH2 0x67A PUSH2 0xE0B JUMP JUMPDEST SWAP1 POP PUSH2 0x69B DUP2 DUP6 DUP6 PUSH2 0x68C DUP6 DUP10 PUSH2 0xC49 JUMP JUMPDEST PUSH2 0x696 SWAP2 SWAP1 PUSH2 0x19CC JUMP JUMPDEST PUSH2 0xE12 JUMP JUMPDEST PUSH1 0x1 SWAP2 POP POP SWAP3 SWAP2 POP POP JUMP JUMPDEST PUSH1 0x6 PUSH0 SWAP1 SLOAD SWAP1 PUSH2 0x100 EXP SWAP1 DIV PUSH20 0xFFFFFFFFFFFFFFFFFFFFFFFFFFFFFFFFFFFFFFFF AND PUSH20 0xFFFFFFFFFFFFFFFFFFFFFFFFFFFFFFFFFFFFFFFF AND CALLER PUSH20 0xFFFFFFFFFFFFFFFFFFFFFFFFFFFFFFFFFFFFFFFF AND EQ PUSH2 0x735 JUMPI PUSH1 0x40 MLOAD PUSH32 0x8C379A000000000000000000000000000000000000000000000000000000000 DUP2 MSTORE PUSH1 0x4 ADD PUSH2 0x72C SWAP1 PUSH2 0x1981 JUMP JUMPDEST PUSH1 0x40 MLOAD DUP1 SWAP2 SUB SWAP1 REVERT JUMPDEST PUSH0 PUSH1 0x7 PUSH1 0x14 PUSH2 0x100 EXP DUP2 SLOAD DUP2 PUSH1 0xFF MUL NOT AND SWAP1 DUP4 ISZERO ISZERO MUL OR SWAP1 SSTORE POP JUMP JUMPDEST PUSH2 0x75B CALLER DUP3 PUSH2 0xFA6 JUMP JUMPDEST POP JUMP JUMPDEST PUSH0 PUSH0 PUSH0 DUP4 PUSH20 0xFFFFFFFFFFFFFFFFFFFFFFFFFFFFFFFFFFFFFFFF AND PUSH20 0xFFFFFFFFFFFFFFFFFFFFFFFFFFFFFFFFFFFFFFFF AND DUP2 MSTORE PUSH1 0x20 ADD SWAP1 DUP2 MSTORE PUSH1 0x20 ADD PUSH0 KECCAK256 SLOAD SWAP1 POP SWAP2 SWAP1 POP JUMP JUMPDEST PUSH1 0x6 PUSH0 SWAP1 SLOAD SWAP1 PUSH2 0x100 EXP SWAP1 DIV PUSH20 0xFFFFFFFFFFFFFFFFFFFFFFFFFFFFFFFFFFFFFFFF AND PUSH20 0xFFFFFFFFFFFFFFFFFFFFFFFFFFFFFFFFFFFFFFFF AND CALLER PUSH20 0xFFFFFFFFFFFFFFFFFFFFFFFFFFFFFFFFFFFFFFFF AND EQ PUSH2 0x832 JUMPI PUSH1 0x40 MLOAD PUSH32 0x8C379A000000000000000000000000000000000000000000000000000000000 DUP2 MSTORE PUSH1 0x4 ADD PUSH2 0x829 SWAP1 PUSH2 0x1981 JUMP JUMPDEST PUSH1 0x40 MLOAD DUP1 SWAP2 SUB SWAP1 REVERT JUMPDEST PUSH1 0x1 PUSH1 0x7 PUSH1 0x14 PUSH2 0x100 EXP DUP2 SLOAD DUP2 PUSH1 0xFF MUL NOT AND SWAP1 DUP4 ISZERO ISZERO MUL OR SWAP1 SSTORE POP JUMP JUMPDEST PUSH1 0x6 PUSH0 SWAP1 SLOAD SWAP1 PUSH2 0x100 EXP SWAP1 DIV PUSH20 0xFFFFFFFFFFFFFFFFFFFFFFFFFFFFFFFFFFFFFFFF AND PUSH20 0xFFFFFFFFFFFFFFFFFFFFFFFFFFFFFFFFFFFFFFFF AND CALLER PUSH20 0xFFFFFFFFFFFFFFFFFFFFFFFFFFFFFFFFFFFFFFFF AND EQ PUSH2 0x8DE JUMPI PUSH1 0x40 MLOAD PUSH32 0x8C379A000000000000000000000000000000000000000000000000000000000 DUP2 MSTORE PUSH1 0x4 ADD PUSH2 0x8D5 SWAP1 PUSH2 0x1981 JUMP JUMPDEST PUSH1 0x40 MLOAD DUP1 SWAP2 SUB SWAP1 REVERT JUMPDEST DUP2 PUSH20 0xFFFFFFFFFFFFFFFFFFFFFFFFFFFFFFFFFFFFFFFF AND PUSH4 0xA9059CBB PUSH1 0x6 PUSH0 SWAP1 SLOAD SWAP1 PUSH2 0x100 EXP SWAP1 DIV PUSH20 0xFFFFFFFFFFFFFFFFFFFFFFFFFFFFFFFFFFFFFFFF AND DUP4 PUSH1 0x40 MLOAD DUP4 PUSH4 0xFFFFFFFF AND PUSH1 0xE0 SHL DUP2 MSTORE PUSH1 0x4 ADD PUSH2 0x93A SWAP3 SWAP2 SWAP1 PUSH2 0x1A0E JUMP JUMPDEST PUSH1 0x20 PUSH1 0x40 MLOAD DUP1 DUP4 SUB DUP2 PUSH0 DUP8 GAS CALL ISZERO DUP1 ISZERO PUSH2 0x956 JUMPI RETURNDATASIZE PUSH0 PUSH0 RETURNDATACOPY RETURNDATASIZE PUSH0 REVERT JUMPDEST POP POP POP POP PUSH1 0x40 MLOAD RETURNDATASIZE PUSH1 0x1F NOT PUSH1 0x1F DUP3 ADD AND DUP3 ADD DUP1 PUSH1 0x40 MSTORE POP DUP2 ADD SWAP1 PUSH2 0x97A SWAP2 SWAP1 PUSH2 0x1A5F JUMP JUMPDEST POP POP POP JUMP JUMPDEST PUSH1 0x60 PUSH1 0x5 DUP1 SLOAD PUSH2 0x98E SWAP1 PUSH2 0x1879 JUMP JUMPDEST DUP1 PUSH1 0x1F ADD PUSH1 0x20 DUP1 SWAP2 DIV MUL PUSH1 0x20 ADD PUSH1 0x40 MLOAD SWAP1 DUP2 ADD PUSH1 0x40 MSTORE DUP1 SWAP3 SWAP2 SWAP1 DUP2 DUP2 MSTORE PUSH1 0x20 ADD DUP3 DUP1 SLOAD PUSH2 0x9BA SWAP1 PUSH2 0x1879 JUMP JUMPDEST DUP1 ISZERO PUSH2 0xA05 JUMPI DUP1 PUSH1 0x1F LT PUSH2 0x9DC JUMPI PUSH2 0x100 DUP1 DUP4 SLOAD DIV MUL DUP4 MSTORE SWAP2 PUSH1 0x20 ADD SWAP2 PUSH2 0xA05 JUMP JUMPDEST DUP3 ADD SWAP2 SWAP1 PUSH0 MSTORE PUSH1 0x20 PUSH0 KECCAK256 SWAP1 JUMPDEST DUP2 SLOAD DUP2 MSTORE SWAP1 PUSH1 0x1 ADD SWAP1 PUSH1 0x20 ADD DUP1 DUP4 GT PUSH2 0x9E8 JUMPI DUP3 SWAP1 SUB PUSH1 0x1F AND DUP3 ADD SWAP2 JUMPDEST POP POP POP POP POP SWAP1 POP SWAP1 JUMP JUMPDEST PUSH0 PUSH1 0x7 PUSH0 SWAP1 SLOAD SWAP1 PUSH2 0x100 EXP SWAP1 DIV PUSH20 0xFFFFFFFFFFFFFFFFFFFFFFFFFFFFFFFFFFFFFFFF AND PUSH20 0xFFFFFFFFFFFFFFFFFFFFFFFFFFFFFFFFFFFFFFFF AND CALLER PUSH20 0xFFFFFFFFFFFFFFFFFFFFFFFFFFFFFFFFFFFFFFFF AND EQ DUP1 PUSH2 0xAB7 JUMPI POP PUSH1 0x6 PUSH0 SWAP1 SLOAD SWAP1 PUSH2 0x100 EXP SWAP1 DIV PUSH20 0xFFFFFFFFFFFFFFFFFFFFFFFFFFFFFFFFFFFFFFFF AND PUSH20 0xFFFFFFFFFFFFFFFFFFFFFFFFFFFFFFFFFFFFFFFF AND CALLER PUSH20 0xFFFFFFFFFFFFFFFFFFFFFFFFFFFFFFFFFFFFFFFF AND EQ JUMPDEST PUSH2 0xAF6 JUMPI PUSH1 0x40 MLOAD PUSH32 0x8C379A000000000000000000000000000000000000000000000000000000000 DUP2 MSTORE PUSH1 0x4 ADD PUSH2 0xAED SWAP1 PUSH2 0x1AFA JUMP JUMPDEST PUSH1 0x40 MLOAD DUP1 SWAP2 SUB SWAP1 REVERT JUMPDEST PUSH2 0xB00 CALLER DUP4 PUSH2 0x1073 JUMP JUMPDEST PUSH1 0x1 SWAP1 POP SWAP2 SWAP1 POP JUMP JUMPDEST PUSH0 PUSH1 0x7 PUSH1 0x14 SWAP1 SLOAD SWAP1 PUSH2 0x100 EXP SWAP1 DIV PUSH1 0xFF AND ISZERO PUSH2 0xB5A JUMPI PUSH1 0x40 MLOAD PUSH32 0x8C379A000000000000000000000000000000000000000000000000000000000 DUP2 MSTORE PUSH1 0x4 ADD PUSH2 0xB51 SWAP1 PUSH2 0x18F3 JUMP JUMPDEST PUSH1 0x40 MLOAD DUP1 SWAP2 SUB SWAP1 REVERT JUMPDEST PUSH0 PUSH2 0xB63 PUSH2 0xE0B JUMP JUMPDEST SWAP1 POP PUSH0 PUSH2 0xB70 DUP3 DUP7 PUSH2 0xC49 JUMP JUMPDEST SWAP1 POP DUP4 DUP2 LT ISZERO PUSH2 0xBB5 JUMPI PUSH1 0x40 MLOAD PUSH32 0x8C379A000000000000000000000000000000000000000000000000000000000 DUP2 MSTORE PUSH1 0x4 ADD PUSH2 0xBAC SWAP1 PUSH2 0x1B62 JUMP JUMPDEST PUSH1 0x40 MLOAD DUP1 SWAP2 SUB SWAP1 REVERT JUMPDEST PUSH2 0xBC2 DUP3 DUP7 DUP7 DUP5 SUB PUSH2 0xE12 JUMP JUMPDEST PUSH1 0x1 SWAP3 POP POP POP SWAP3 SWAP2 POP POP JUMP JUMPDEST PUSH0 PUSH1 0x7 PUSH1 0x14 SWAP1 SLOAD SWAP1 PUSH2 0x100 EXP SWAP1 DIV PUSH1 0xFF AND ISZERO PUSH2 0xC1F JUMPI PUSH1 0x40 MLOAD PUSH32 0x8C379A000000000000000000000000000000000000000000000000000000000 DUP2 MSTORE PUSH1 0x4 ADD PUSH2 0xC16 SWAP1 PUSH2 0x18F3 JUMP JUMPDEST PUSH1 0x40 MLOAD DUP1 SWAP2 SUB SWAP1 REVERT JUMPDEST PUSH0 PUSH2 0xC28 PUSH2 0xE0B JUMP JUMPDEST SWAP1 POP PUSH2 0xC35 DUP2 DUP6 DUP6 PUSH2 0xEB6 JUMP JUMPDEST PUSH1 0x1 SWAP2 POP POP SWAP3 SWAP2 POP POP JUMP JUMPDEST PUSH0 PUSH1 0x3 SLOAD SWAP1 POP SWAP1 JUMP JUMPDEST PUSH0 PUSH1 0x1 PUSH0 DUP5 PUSH20 0xFFFFFFFFFFFFFFFFFFFFFFFFFFFFFFFFFFFFFFFF AND PUSH20 0xFFFFFFFFFFFFFFFFFFFFFFFFFFFFFFFFFFFFFFFF AND DUP2 MSTORE PUSH1 0x20 ADD SWAP1 DUP2 MSTORE PUSH1 0x20 ADD PUSH0 KECCAK256 PUSH0 DUP4 PUSH20 0xFFFFFFFFFFFFFFFFFFFFFFFFFFFFFFFFFFFFFFFF AND PUSH20 0xFFFFFFFFFFFFFFFFFFFFFFFFFFFFFFFFFFFFFFFF AND DUP2 MSTORE PUSH1 0x20 ADD SWAP1 DUP2 MSTORE PUSH1 0x20 ADD PUSH0 KECCAK256 SLOAD SWAP1 POP SWAP3 SWAP2 POP POP JUMP JUMPDEST PUSH1 0x6 PUSH0 SWAP1 SLOAD SWAP1 PUSH2 0x100 EXP SWAP1 DIV PUSH20 0xFFFFFFFFFFFFFFFFFFFFFFFFFFFFFFFFFFFFFFFF AND PUSH20 0xFFFFFFFFFFFFFFFFFFFFFFFFFFFFFFFFFFFFFFFF AND CALLER PUSH20 0xFFFFFFFFFFFFFFFFFFFFFFFFFFFFFFFFFFFFFFFF AND EQ PUSH2 0xD5A JUMPI PUSH1 0x40 MLOAD PUSH32 0x8C379A000000000000000000000000000000000000000000000000000000000 DUP2 MSTORE PUSH1 0x4 ADD PUSH2 0xD51 SWAP1 PUSH2 0x1981 JUMP JUMPDEST PUSH1 0x40 MLOAD DUP1 SWAP2 SUB SWAP1 REVERT JUMPDEST PUSH0 PUSH20 0xFFFFFFFFFFFFFFFFFFFFFFFFFFFFFFFFFFFFFFFF AND DUP2 PUSH20 0xFFFFFFFFFFFFFFFFFFFFFFFFFFFFFFFFFFFFFFFF AND SUB PUSH2 0xDC8 JUMPI PUSH1 0x40 MLOAD PUSH32 0x8C379A000000000000000000000000000000000000000000000000000000000 DUP2 MSTORE PUSH1 0x4 ADD PUSH2 0xDBF SWAP1 PUSH2 0x1BCA JUMP JUMPDEST PUSH1 0x40 MLOAD DUP1 SWAP2 SUB SWAP1 REVERT JUMPDEST DUP1 PUSH1 0x6 PUSH0 PUSH2 0x100 EXP DUP2 SLOAD DUP2 PUSH20 0xFFFFFFFFFFFFFFFFFFFFFFFFFFFFFFFFFFFFFFFF MUL NOT AND SWAP1 DUP4 PUSH20 0xFFFFFFFFFFFFFFFFFFFFFFFFFFFFFFFFFFFFFFFF AND MUL OR SWAP1 SSTORE POP POP JUMP JUMPDEST PUSH0 CALLER SWAP1 POP SWAP1 JUMP JUMPDEST PUSH2 0xE1F DUP4 DUP4 DUP4 PUSH1 0x1 PUSH2 0x1192 JUMP JUMPDEST POP POP POP JUMP JUMPDEST PUSH0 PUSH2 0xE2F DUP5 DUP5 PUSH2 0xC49 JUMP JUMPDEST SWAP1 POP PUSH32 0xFFFFFFFFFFFFFFFFFFFFFFFFFFFFFFFFFFFFFFFFFFFFFFFFFFFFFFFFFFFFFFFF DUP2 EQ PUSH2 0xEB0 JUMPI DUP2 DUP2 LT ISZERO PUSH2 0xEA1 JUMPI DUP3 DUP2 DUP4 PUSH1 0x40 MLOAD PUSH32 0x808463D100000000000000000000000000000000000000000000000000000000 DUP2 MSTORE PUSH1 0x4 ADD PUSH2 0xE98 SWAP4 SWAP3 SWAP2 SWAP1 PUSH2 0x1BE8 JUMP JUMPDEST PUSH1 0x40 MLOAD DUP1 SWAP2 SUB SWAP1 REVERT JUMPDEST PUSH2 0xEAF DUP5 DUP5 DUP5 DUP5 SUB PUSH0 PUSH2 0x1192 JUMP JUMPDEST JUMPDEST POP POP POP POP JUMP JUMPDEST PUSH0 PUSH20 0xFFFFFFFFFFFFFFFFFFFFFFFFFFFFFFFFFFFFFFFF AND DUP4 PUSH20 0xFFFFFFFFFFFFFFFFFFFFFFFFFFFFFFFFFFFFFFFF AND SUB PUSH2 0xF26 JUMPI PUSH0 PUSH1 0x40 MLOAD PUSH32 0x88B25E3E00000000000000000000000000000000000000000000000000000000 DUP2 MSTORE PUSH1 0x4 ADD PUSH2 0xF1D SWAP2 SWAP1 PUSH2 0x1C1D JUMP JUMPDEST PUSH1 0x40 MLOAD DUP1 SWAP2 SUB SWAP1 REVERT JUMPDEST PUSH0 PUSH20 0xFFFFFFFFFFFFFFFFFFFFFFFFFFFFFFFFFFFFFFFF AND DUP3 PUSH20 0xFFFFFFFFFFFFFFFFFFFFFFFFFFFFFFFFFFFFFFFF AND SUB PUSH2 0xF96 JUMPI PUSH0 PUSH1 0x40 MLOAD PUSH32 0x8702316D00000000000000000000000000000000000000000000000000000000 DUP2 MSTORE PUSH1 0x4 ADD PUSH2 0xF8D SWAP2 SWAP1 PUSH2 0x1C1D JUMP JUMPDEST PUSH1 0x40 MLOAD DUP1 SWAP2 SUB SWAP1 REVERT JUMPDEST PUSH2 0xFA1 DUP4 DUP4 DUP4 PUSH2 0x1361 JUMP JUMPDEST POP POP POP JUMP JUMPDEST PUSH0 PUSH20 0xFFFFFFFFFFFFFFFFFFFFFFFFFFFFFFFFFFFFFFFF AND DUP3 PUSH20 0xFFFFFFFFFFFFFFFFFFFFFFFFFFFFFFFFFFFFFFFF AND SUB PUSH2 0x1016 JUMPI PUSH0 PUSH1 0x40 MLOAD PUSH32 0x88B25E3E00000000000000000000000000000000000000000000000000000000 DUP2 MSTORE PUSH1 0x4 ADD PUSH2 0x100D SWAP2 SWAP1 PUSH2 0x1C1D JUMP JUMPDEST PUSH1 0x40 MLOAD DUP1 SWAP2 SUB SWAP1 REVERT JUMPDEST PUSH2 0x1021 DUP3 PUSH0 DUP4 PUSH2 0x1361 JUMP JUMPDEST DUP2 PUSH20 0xFFFFFFFFFFFFFFFFFFFFFFFFFFFFFFFFFFFFFFFF AND PUSH32 0xCC16F5DBB4873280815C1EE09DBD06736CFFCC184412CF7A71A0FDB75D397CA5 DUP3 PUSH1 0x40 MLOAD PUSH2 0x1067 SWAP2 SWAP1 PUSH2 0x171B JUMP JUMPDEST PUSH1 0x40 MLOAD DUP1 SWAP2 SUB SWAP1 LOG2 POP POP JUMP JUMPDEST PUSH0 PUSH20 0xFFFFFFFFFFFFFFFFFFFFFFFFFFFFFFFFFFFFFFFF AND DUP3 PUSH20 0xFFFFFFFFFFFFFFFFFFFFFFFFFFFFFFFFFFFFFFFF AND SUB PUSH2 0x10E3 JUMPI PUSH0 PUSH1 0x40 MLOAD PUSH32 0x8702316D00000000000000000000000000000000000000000000000000000000 DUP2 MSTORE PUSH1 0x4 ADD PUSH2 0x10DA SWAP2 SWAP1 PUSH2 0x1C1D JUMP JUMPDEST PUSH1 0x40 MLOAD DUP1 SWAP2 SUB SWAP1 REVERT JUMPDEST PUSH1 0x3 SLOAD DUP2 PUSH1 0x2 SLOAD PUSH2 0x10F4 SWAP2 SWAP1 PUSH2 0x19CC JUMP JUMPDEST GT ISZERO PUSH2 0x1135 JUMPI PUSH1 0x40 MLOAD PUSH32 0x8C379A000000000000000000000000000000000000000000000000000000000 DUP2 MSTORE PUSH1 0x4 ADD PUSH2 0x112C SWAP1 PUSH2 0x1C80 JUMP JUMPDEST PUSH1 0x40 MLOAD DUP1 SWAP2 SUB SWAP1 REVERT JUMPDEST PUSH2 0x1140 PUSH0 DUP4 DUP4 PUSH2 0x1361 JUMP JUMPDEST DUP2 PUSH20 0xFFFFFFFFFFFFFFFFFFFFFFFFFFFFFFFFFFFFFFFF AND PUSH32 0xF6798A560793A54C3BCFE86A93CDE1E73087D944C0EA20544137D4121396885 DUP3 PUSH1 0x40 MLOAD PUSH2 0x1186 SWAP2 SWAP1 PUSH2 0x171B JUMP JUMPDEST PUSH1 0x40 MLOAD DUP1 SWAP2 SUB SWAP1 LOG2 POP POP JUMP JUMPDEST PUSH0 PUSH20 0xFFFFFFFFFFFFFFFFFFFFFFFFFFFFFFFFFFFFFFFF AND DUP5 PUSH20 0xFFFFFFFFFFFFFFFFFFFFFFFFFFFFFFFFFFFFFFFF AND SUB PUSH2 0x1202 JUMPI PUSH0 PUSH1 0x40 MLOAD PUSH32 0x1E431EDF00000000000000000000000000000000000000000000000000000000 DUP2 MSTORE PUSH1 0x4 ADD PUSH2 0x11F9 SWAP2 SWAP1 PUSH2 0x1C1D JUMP JUMPDEST PUSH1 0x40 MLOAD DUP1 SWAP2 SUB SWAP1 REVERT JUMPDEST PUSH0 PUSH20 0xFFFFFFFFFFFFFFFFFFFFFFFFFFFFFFFFFFFFFFFF AND DUP4 PUSH20 0xFFFFFFFFFFFFFFFFFFFFFFFFFFFFFFFFFFFFFFFF AND SUB PUSH2 0x1272 JUMPI PUSH0 PUSH1 0x40 MLOAD PUSH32 0x503AB6AF00000000000000000000000000000000000000000000000000000000 DUP2 MSTORE PUSH1 0x4 ADD PUSH2 0x1269 SWAP2 SWAP1 PUSH2 0x1C1D JUMP JUMPDEST PUSH1 0x40 MLOAD DUP1 SWAP2 SUB SWAP1 REVERT JUMPDEST DUP2 PUSH1 0x1 PUSH0 DUP7 PUSH20 0xFFFFFFFFFFFFFFFFFFFFFFFFFFFFFFFFFFFFFFFF AND PUSH20 0xFFFFFFFFFFFFFFFFFFFFFFFFFFFFFFFFFFFFFFFF AND DUP2 MSTORE PUSH1 0x20 ADD SWAP1 DUP2 MSTORE PUSH1 0x20 ADD PUSH0 KECCAK256 PUSH0 DUP6 PUSH20 0xFFFFFFFFFFFFFFFFFFFFFFFFFFFFFFFFFFFFFFFF AND PUSH20 0xFFFFFFFFFFFFFFFFFFFFFFFFFFFFFFFFFFFFFFFF AND DUP2 MSTORE PUSH1 0x20 ADD SWAP1 DUP2 MSTORE PUSH1 0x20 ADD PUSH0 KECCAK256 DUP2 SWAP1 SSTORE POP DUP1 ISZERO PUSH2 0x135B JUMPI DUP3 PUSH20 0xFFFFFFFFFFFFFFFFFFFFFFFFFFFFFFFFFFFFFFFF AND DUP5 PUSH20 0xFFFFFFFFFFFFFFFFFFFFFFFFFFFFFFFFFFFFFFFF AND PUSH32 0x8C5BE1E5EBEC7D5BD14F71427D1E84F3DD0314C0F7B2291E5B200AC8C7C3B925 DUP5 PUSH1 0x40 MLOAD PUSH2 0x1352 SWAP2 SWAP1 PUSH2 0x171B JUMP JUMPDEST PUSH1 0x40 MLOAD DUP1 SWAP2 SUB SWAP1 LOG3 JUMPDEST POP POP POP POP JUMP JUMPDEST PUSH0 PUSH20 0xFFFFFFFFFFFFFFFFFFFFFFFFFFFFFFFFFFFFFFFF AND DUP4 PUSH20 0xFFFFFFFFFFFFFFFFFFFFFFFFFFFFFFFFFFFFFFFF AND SUB PUSH2 0x13B1 JUMPI DUP1 PUSH1 0x2 PUSH0 DUP3 DUP3 SLOAD PUSH2 0x13A5 SWAP2 SWAP1 PUSH2 0x19CC JUMP JUMPDEST SWAP3 POP POP DUP2 SWAP1 SSTORE POP PUSH2 0x147F JUMP JUMPDEST PUSH0 PUSH0 PUSH0 DUP6 PUSH20 0xFFFFFFFFFFFFFFFFFFFFFFFFFFFFFFFFFFFFFFFF AND PUSH20 0xFFFFFFFFFFFFFFFFFFFFFFFFFFFFFFFFFFFFFFFF AND DUP2 MSTORE PUSH1 0x20 ADD SWAP1 DUP2 MSTORE PUSH1 0x20 ADD PUSH0 KECCAK256 SLOAD SWAP1 POP DUP2 DUP2 LT ISZERO PUSH2 0x143A JUMPI DUP4 DUP2 DUP4 PUSH1 0x40 MLOAD PUSH32 0xD79D596700000000000000000000000000000000000000000000000000000000 DUP2 MSTORE PUSH1 0x4 ADD PUSH2 0x1431 SWAP4 SWAP3 SWAP2 SWAP1 PUSH2 0x1BE8 JUMP JUMPDEST PUSH1 0x40 MLOAD DUP1 SWAP2 SUB SWAP1 REVERT JUMPDEST DUP2 DUP2 SUB PUSH0 PUSH0 DUP7 PUSH20 0xFFFFFFFFFFFFFFFFFFFFFFFFFFFFFFFFFFFFFFFF AND PUSH20 0xFFFFFFFFFFFFFFFFFFFFFFFFFFFFFFFFFFFFFFFF AND DUP2 MSTORE PUSH1 0x20 ADD SWAP1 DUP2 MSTORE PUSH1 0x20 ADD PUSH0 KECCAK256 DUP2 SWAP1 SSTORE POP POP JUMPDEST PUSH0 PUSH20 0xFFFFFFFFFFFFFFFFFFFFFFFFFFFFFFFFFFFFFFFF AND DUP3 PUSH20 0xFFFFFFFFFFFFFFFFFFFFFFFFFFFFFFFFFFFFFFFF AND SUB PUSH2 0x14C6 JUMPI DUP1 PUSH1 0x2 PUSH0 DUP3 DUP3 SLOAD SUB SWAP3 POP POP DUP2 SWAP1 SSTORE POP PUSH2 0x1510 JUMP JUMPDEST DUP1 PUSH0 PUSH0 DUP5 PUSH20 0xFFFFFFFFFFFFFFFFFFFFFFFFFFFFFFFFFFFFFFFF AND PUSH20 0xFFFFFFFFFFFFFFFFFFFFFFFFFFFFFFFFFFFFFFFF AND DUP2 MSTORE PUSH1 0x20 ADD SWAP1 DUP2 MSTORE PUSH1 0x20 ADD PUSH0 KECCAK256 PUSH0 DUP3 DUP3 SLOAD ADD SWAP3 POP POP DUP2 SWAP1 SSTORE POP JUMPDEST DUP2 PUSH20 0xFFFFFFFFFFFFFFFFFFFFFFFFFFFFFFFFFFFFFFFF AND DUP4 PUSH20 0xFFFFFFFFFFFFFFFFFFFFFFFFFFFFFFFFFFFFFFFF AND PUSH32 0xDDF252AD1BE2C89B69C2B068FC378DAA952BA7F163C4A11628F55A4DF523B3EF DUP4 PUSH1 0x40 MLOAD PUSH2 0x156D SWAP2 SWAP1 PUSH2 0x171B JUMP JUMPDEST PUSH1 0x40 MLOAD DUP1 SWAP2 SUB SWAP1 LOG3 POP POP POP JUMP JUMPDEST PUSH0 DUP2 MLOAD SWAP1 POP SWAP2 SWAP1 POP JUMP JUMPDEST PUSH0 DUP3 DUP3 MSTORE PUSH1 0x20 DUP3 ADD SWAP1 POP SWAP3 SWAP2 POP POP JUMP JUMPDEST DUP3 DUP2 DUP4 MCOPY PUSH0 DUP4 DUP4 ADD MSTORE POP POP POP JUMP JUMPDEST PUSH0 PUSH1 0x1F NOT PUSH1 0x1F DUP4 ADD AND SWAP1 POP SWAP2 SWAP1 POP JUMP JUMPDEST PUSH0 PUSH2 0x15BC DUP3 PUSH2 0x157A JUMP JUMPDEST PUSH2 0x15C6 DUP2 DUP6 PUSH2 0x1584 JUMP JUMPDEST SWAP4 POP PUSH2 0x15D6 DUP2 DUP6 PUSH1 0x20 DUP7 ADD PUSH2 0x1594 JUMP JUMPDEST PUSH2 0x15DF DUP2 PUSH2 0x15A2 JUMP JUMPDEST DUP5 ADD SWAP2 POP POP SWAP3 SWAP2 POP POP JUMP JUMPDEST PUSH0 PUSH1 0x20 DUP3 ADD SWAP1 POP DUP2 DUP2 SUB PUSH0 DUP4 ADD MSTORE PUSH2 0x1602 DUP2 DUP5 PUSH2 0x15B2 JUMP JUMPDEST SWAP1 POP SWAP3 SWAP2 POP POP JUMP JUMPDEST PUSH0 PUSH0 REVERT JUMPDEST PUSH0 PUSH20 0xFFFFFFFFFFFFFFFFFFFFFFFFFFFFFFFFFFFFFFFF DUP3 AND SWAP1 POP SWAP2 SWAP1 POP JUMP JUMPDEST PUSH0 PUSH2 0x1637 DUP3 PUSH2 0x160E JUMP JUMPDEST SWAP1 POP SWAP2 SWAP1 POP JUMP JUMPDEST PUSH2 0x1647 DUP2 PUSH2 0x162D JUMP JUMPDEST DUP2 EQ PUSH2 0x1651 JUMPI PUSH0 PUSH0 REVERT JUMPDEST POP JUMP JUMPDEST PUSH0 DUP2 CALLDATALOAD SWAP1 POP PUSH2 0x1662 DUP2 PUSH2 0x163E JUMP JUMPDEST SWAP3 SWAP2 POP POP JUMP JUMPDEST PUSH0 DUP2 SWAP1 POP SWAP2 SWAP1 POP JUMP JUMPDEST PUSH2 0x167A DUP2 PUSH2 0x1668 JUMP JUMPDEST DUP2 EQ PUSH2 0x1684 JUMPI PUSH0 PUSH0 REVERT JUMPDEST POP JUMP JUMPDEST PUSH0 DUP2 CALLDATALOAD SWAP1 POP PUSH2 0x1695 DUP2 PUSH2 0x1671 JUMP JUMPDEST SWAP3 SWAP2 POP POP JUMP JUMPDEST PUSH0 PUSH0 PUSH1 0x40 DUP4 DUP6 SUB SLT ISZERO PUSH2 0x16B1 JUMPI PUSH2 0x16B0 PUSH2 0x160A JUMP JUMPDEST JUMPDEST PUSH0 PUSH2 0x16BE DUP6 DUP3 DUP7 ADD PUSH2 0x1654 JUMP JUMPDEST SWAP3 POP POP PUSH1 0x20 PUSH2 0x16CF DUP6 DUP3 DUP7 ADD PUSH2 0x1687 JUMP JUMPDEST SWAP2 POP POP SWAP3 POP SWAP3 SWAP1 POP JUMP JUMPDEST PUSH0 DUP2 ISZERO ISZERO SWAP1 POP SWAP2 SWAP1 POP JUMP JUMPDEST PUSH2 0x16ED DUP2 PUSH2 0x16D9 JUMP JUMPDEST DUP3 MSTORE POP POP JUMP JUMPDEST PUSH0 PUSH1 0x20 DUP3 ADD SWAP1 POP PUSH2 0x1706 PUSH0 DUP4 ADD DUP5 PUSH2 0x16E4 JUMP JUMPDEST SWAP3 SWAP2 POP POP JUMP JUMPDEST PUSH2 0x1715 DUP2 PUSH2 0x1668 JUMP JUMPDEST DUP3 MSTORE POP POP JUMP JUMPDEST PUSH0 PUSH1 0x20 DUP3 ADD SWAP1 POP PUSH2 0x172E PUSH0 DUP4 ADD DUP5 PUSH2 0x170C JUMP JUMPDEST SWAP3 SWAP2 POP POP JUMP JUMPDEST PUSH0 PUSH0 PUSH0 PUSH1 0x60 DUP5 DUP7 SUB SLT ISZERO PUSH2 0x174B JUMPI PUSH2 0x174A PUSH2 0x160A JUMP JUMPDEST JUMPDEST PUSH0 PUSH2 0x1758 DUP7 DUP3 DUP8 ADD PUSH2 0x1654 JUMP JUMPDEST SWAP4 POP POP PUSH1 0x20 PUSH2 0x1769 DUP7 DUP3 DUP8 ADD PUSH2 0x1654 JUMP JUMPDEST SWAP3 POP POP PUSH1 0x40 PUSH2 0x177A DUP7 DUP3 DUP8 ADD PUSH2 0x1687 JUMP JUMPDEST SWAP2 POP POP SWAP3 POP SWAP3 POP SWAP3 JUMP JUMPDEST PUSH0 PUSH1 0x20 DUP3 DUP5 SUB SLT ISZERO PUSH2 0x1799 JUMPI PUSH2 0x1798 PUSH2 0x160A JUMP JUMPDEST JUMPDEST PUSH0 PUSH2 0x17A6 DUP5 DUP3 DUP6 ADD PUSH2 0x1654 JUMP JUMPDEST SWAP2 POP POP SWAP3 SWAP2 POP POP JUMP JUMPDEST PUSH0 PUSH1 0xFF DUP3 AND SWAP1 POP SWAP2 SWAP1 POP JUMP JUMPDEST PUSH2 0x17C4 DUP2 PUSH2 0x17AF JUMP JUMPDEST DUP3 MSTORE POP POP JUMP JUMPDEST PUSH0 PUSH1 0x20 DUP3 ADD SWAP1 POP PUSH2 0x17DD PUSH0 DUP4 ADD DUP5 PUSH2 0x17BB JUMP JUMPDEST SWAP3 SWAP2 POP POP JUMP JUMPDEST PUSH0 PUSH1 0x20 DUP3 DUP5 SUB SLT ISZERO PUSH2 0x17F8 JUMPI PUSH2 0x17F7 PUSH2 0x160A JUMP JUMPDEST JUMPDEST PUSH0 PUSH2 0x1805 DUP5 DUP3 DUP6 ADD PUSH2 0x1687 JUMP JUMPDEST SWAP2 POP POP SWAP3 SWAP2 POP POP JUMP JUMPDEST PUSH0 PUSH0 PUSH1 0x40 DUP4 DUP6 SUB SLT ISZERO PUSH2 0x1824 JUMPI PUSH2 0x1823 PUSH2 0x160A JUMP JUMPDEST JUMPDEST PUSH0 PUSH2 0x1831 DUP6 DUP3 DUP7 ADD PUSH2 0x1654 JUMP JUMPDEST SWAP3 POP POP PUSH1 0x20 PUSH2 0x1842 DUP6 DUP3 DUP7 ADD PUSH2 0x1654 JUMP JUMPDEST SWAP2 POP POP SWAP3 POP SWAP3 SWAP1 POP JUMP JUMPDEST PUSH32 0x4E487B7100000000000000000000000000000000000000000000000000000000 PUSH0 MSTORE PUSH1 0x22 PUSH1 0x4 MSTORE PUSH1 0x24 PUSH0 REVERT JUMPDEST PUSH0 PUSH1 0x2 DUP3 DIV SWAP1 POP PUSH1 0x1 DUP3 AND DUP1 PUSH2 0x1890 JUMPI PUSH1 0x7F DUP3 AND SWAP2 POP JUMPDEST PUSH1 0x20 DUP3 LT DUP2 SUB PUSH2 0x18A3 JUMPI PUSH2 0x18A2 PUSH2 0x184C JUMP JUMPDEST JUMPDEST POP SWAP2 SWAP1 POP JUMP JUMPDEST PUSH32 0x5061757361626C653A2070617573656400000000000000000000000000000000 PUSH0 DUP3 ADD MSTORE POP JUMP JUMPDEST PUSH0 PUSH2 0x18DD PUSH1 0x10 DUP4 PUSH2 0x1584 JUMP JUMPDEST SWAP2 POP PUSH2 0x18E8 DUP3 PUSH2 0x18A9 JUMP JUMPDEST PUSH1 0x20 DUP3 ADD SWAP1 POP SWAP2 SWAP1 POP JUMP JUMPDEST PUSH0 PUSH1 0x20 DUP3 ADD SWAP1 POP DUP2 DUP2 SUB PUSH0 DUP4 ADD MSTORE PUSH2 0x190A DUP2 PUSH2 0x18D1 JUMP JUMPDEST SWAP1 POP SWAP2 SWAP1 POP JUMP JUMPDEST PUSH32 0x4F6E6C792074686520636F6E7472616374206F776E65722063616E2063616C6C PUSH0 DUP3 ADD MSTORE PUSH32 0x20746869732066756E6374696F6E000000000000000000000000000000000000 PUSH1 0x20 DUP3 ADD MSTORE POP JUMP JUMPDEST PUSH0 PUSH2 0x196B PUSH1 0x2E DUP4 PUSH2 0x1584 JUMP JUMPDEST SWAP2 POP PUSH2 0x1976 DUP3 PUSH2 0x1911 JUMP JUMPDEST PUSH1 0x40 DUP3 ADD SWAP1 POP SWAP2 SWAP1 POP JUMP JUMPDEST PUSH0 PUSH1 0x20 DUP3 ADD SWAP1 POP DUP2 DUP2 SUB PUSH0 DUP4 ADD MSTORE PUSH2 0x1998 DUP2 PUSH2 0x195F JUMP JUMPDEST SWAP1 POP SWAP2 SWAP1 POP JUMP JUMPDEST PUSH32 0x4E487B7100000000000000000000000000000000000000000000000000000000 PUSH0 MSTORE PUSH1 0x11 PUSH1 0x4 MSTORE PUSH1 0x24 PUSH0 REVERT JUMPDEST PUSH0 PUSH2 0x19D6 DUP3 PUSH2 0x1668 JUMP JUMPDEST SWAP2 POP PUSH2 0x19E1 DUP4 PUSH2 0x1668 JUMP JUMPDEST SWAP3 POP DUP3 DUP3 ADD SWAP1 POP DUP1 DUP3 GT ISZERO PUSH2 0x19F9 JUMPI PUSH2 0x19F8 PUSH2 0x199F JUMP JUMPDEST JUMPDEST SWAP3 SWAP2 POP POP JUMP JUMPDEST PUSH2 0x1A08 DUP2 PUSH2 0x162D JUMP JUMPDEST DUP3 MSTORE POP POP JUMP JUMPDEST PUSH0 PUSH1 0x40 DUP3 ADD SWAP1 POP PUSH2 0x1A21 PUSH0 DUP4 ADD DUP6 PUSH2 0x19FF JUMP JUMPDEST PUSH2 0x1A2E PUSH1 0x20 DUP4 ADD DUP5 PUSH2 0x170C JUMP JUMPDEST SWAP4 SWAP3 POP POP POP JUMP JUMPDEST PUSH2 0x1A3E DUP2 PUSH2 0x16D9 JUMP JUMPDEST DUP2 EQ PUSH2 0x1A48 JUMPI PUSH0 PUSH0 REVERT JUMPDEST POP JUMP JUMPDEST PUSH0 DUP2 MLOAD SWAP1 POP PUSH2 0x1A59 DUP2 PUSH2 0x1A35 JUMP JUMPDEST SWAP3 SWAP2 POP POP JUMP JUMPDEST PUSH0 PUSH1 0x20 DUP3 DUP5 SUB SLT ISZERO PUSH2 0x1A74 JUMPI PUSH2 0x1A73 PUSH2 0x160A JUMP JUMPDEST JUMPDEST PUSH0 PUSH2 0x1A81 DUP5 DUP3 DUP6 ADD PUSH2 0x1A4B JUMP JUMPDEST SWAP2 POP POP SWAP3 SWAP2 POP POP JUMP JUMPDEST PUSH32 0x4F6E6C792074686520666C617368206C6F616E20636F6E7472616374206F7220 PUSH0 DUP3 ADD MSTORE PUSH32 0x746865206F776E65722063616E206D696E7420746F6B656E7300000000000000 PUSH1 0x20 DUP3 ADD MSTORE POP JUMP JUMPDEST PUSH0 PUSH2 0x1AE4 PUSH1 0x39 DUP4 PUSH2 0x1584 JUMP JUMPDEST SWAP2 POP PUSH2 0x1AEF DUP3 PUSH2 0x1A8A JUMP JUMPDEST PUSH1 0x40 DUP3 ADD SWAP1 POP SWAP2 SWAP1 POP JUMP JUMPDEST PUSH0 PUSH1 0x20 DUP3 ADD SWAP1 POP DUP2 DUP2 SUB PUSH0 DUP4 ADD MSTORE PUSH2 0x1B11 DUP2 PUSH2 0x1AD8 JUMP JUMPDEST SWAP1 POP SWAP2 SWAP1 POP JUMP JUMPDEST PUSH32 0x45524332303A20616C6C6F77616E63652062656C6F77207A65726F0000000000 PUSH0 DUP3 ADD MSTORE POP JUMP JUMPDEST PUSH0 PUSH2 0x1B4C PUSH1 0x1B DUP4 PUSH2 0x1584 JUMP JUMPDEST SWAP2 POP PUSH2 0x1B57 DUP3 PUSH2 0x1B18 JUMP JUMPDEST PUSH1 0x20 DUP3 ADD SWAP1 POP SWAP2 SWAP1 POP JUMP JUMPDEST PUSH0 PUSH1 0x20 DUP3 ADD SWAP1 POP DUP2 DUP2 SUB PUSH0 DUP4 ADD MSTORE PUSH2 0x1B79 DUP2 PUSH2 0x1B40 JUMP JUMPDEST SWAP1 POP SWAP2 SWAP1 POP JUMP JUMPDEST PUSH32 0x4E6577206F776E657220697320746865207A65726F2061646472657373000000 PUSH0 DUP3 ADD MSTORE POP JUMP JUMPDEST PUSH0 PUSH2 0x1BB4 PUSH1 0x1D DUP4 PUSH2 0x1584 JUMP JUMPDEST SWAP2 POP PUSH2 0x1BBF DUP3 PUSH2 0x1B80 JUMP JUMPDEST PUSH1 0x20 DUP3 ADD SWAP1 POP SWAP2 SWAP1 POP JUMP JUMPDEST PUSH0 PUSH1 0x20 DUP3 ADD SWAP1 POP DUP2 DUP2 SUB PUSH0 DUP4 ADD MSTORE PUSH2 0x1BE1 DUP2 PUSH2 0x1BA8 JUMP JUMPDEST SWAP1 POP SWAP2 SWAP1 POP JUMP JUMPDEST PUSH0 PUSH1 0x60 DUP3 ADD SWAP1 POP PUSH2 0x1BFB PUSH0 DUP4 ADD DUP7 PUSH2 0x19FF JUMP JUMPDEST PUSH2 0x1C08 PUSH1 0x20 DUP4 ADD DUP6 PUSH2 0x170C JUMP JUMPDEST PUSH2 0x1C15 PUSH1 0x40 DUP4 ADD DUP5 PUSH2 0x170C JUMP JUMPDEST SWAP5 SWAP4 POP POP POP POP JUMP JUMPDEST PUSH0 PUSH1 0x20 DUP3 ADD SWAP1 POP PUSH2 0x1C30 PUSH0 DUP4 ADD DUP5 PUSH2 0x19FF JUMP JUMPDEST SWAP3 SWAP2 POP POP JUMP JUMPDEST PUSH32 0x45524332303A204D6178696D756D20737570706C792072656163686564000000 PUSH0 DUP3 ADD MSTORE POP JUMP JUMPDEST PUSH0 PUSH2 0x1C6A PUSH1 0x1D DUP4 PUSH2 0x1584 JUMP JUMPDEST SWAP2 POP PUSH2 0x1C75 DUP3 PUSH2 0x1C36 JUMP JUMPDEST PUSH1 0x20 DUP3 ADD SWAP1 POP SWAP2 SWAP1 POP JUMP JUMPDEST PUSH0 PUSH1 0x20 DUP3 ADD SWAP1 POP DUP2 DUP2 SUB PUSH0 DUP4 ADD MSTORE PUSH2 0x1C97 DUP2 PUSH2 0x1C5E JUMP JUMPDEST SWAP1 POP SWAP2 SWAP1 POP JUMP INVALID LOG2 PUSH5 0x6970667358 0x22 SLT KECCAK256 0xB5 PUSH25 0xF19BAEA04CB948E52FC5BA8471626FDEDDCEE2F2A6697E1440 PUSH0 0xE8 SWAP13 PUSH24 0x6D64736F6C634300081B0033000000000000000000000000 "
				},
				"gasEstimates": {
					"creation": {
						"codeDepositCost": "1476000",
						"executionCost": "infinite",
						"totalCost": "infinite"
					},
					"external": {
						"allowance(address,address)": "infinite",
						"approve(address,uint256)": "infinite",
						"balanceOf(address)": "2851",
						"burn(uint256)": "infinite",
						"decimals()": "383",
						"decreaseAllowance(address,uint256)": "infinite",
						"increaseAllowance(address,uint256)": "infinite",
						"maxSupply()": "2498",
						"mint(uint256)": "infinite",
						"name()": "infinite",
						"pause()": "26674",
						"recoverERC20(address,uint256)": "infinite",
						"setFlashLoanContract(address)": "26907",
						"symbol()": "infinite",
						"totalSupply()": "2500",
						"transfer(address,uint256)": "infinite",
						"transferFrom(address,address,uint256)": "infinite",
						"transferOwnership(address)": "27028",
						"unpause()": "26717"
					},
					"internal": {
						"_approve(address,address,uint256)": "infinite",
						"_approve(address,address,uint256,bool)": "infinite",
						"_burn(address,uint256)": "infinite",
						"_mint(address,uint256)": "infinite",
						"_spendAllowance(address,address,uint256)": "infinite",
						"_transfer(address,address,uint256)": "infinite",
						"_update(address,address,uint256)": "infinite"
					}
				},
				"methodIdentifiers": {
					"allowance(address,address)": "dd62ed3e",
					"approve(address,uint256)": "095ea7b3",
					"balanceOf(address)": "70a08231",
					"burn(uint256)": "42966c68",
					"decimals()": "313ce567",
					"decreaseAllowance(address,uint256)": "a457c2d7",
					"increaseAllowance(address,uint256)": "39509351",
					"maxSupply()": "d5abeb01",
					"mint(uint256)": "a0712d68",
					"name()": "06fdde03",
					"pause()": "8456cb59",
					"recoverERC20(address,uint256)": "8980f11f",
					"setFlashLoanContract(address)": "2a52940d",
					"symbol()": "95d89b41",
					"totalSupply()": "18160ddd",
					"transfer(address,uint256)": "a9059cbb",
					"transferFrom(address,address,uint256)": "23b872dd",
					"transferOwnership(address)": "f2fde38b",
					"unpause()": "3f4ba83a"
				}
			},
			"storageLayout": {
				"storage": [
					{
						"astId": 128,
						"contract": "tronweb/contracts/USDTFlash_TRC20.sol:USDTFlash",
						"label": "_balances",
						"offset": 0,
						"slot": "0",
						"type": "t_mapping(t_address,t_uint256)"
					},
					{
						"astId": 134,
						"contract": "tronweb/contracts/USDTFlash_TRC20.sol:USDTFlash",
						"label": "_allowances",
						"offset": 0,
						"slot": "1",
						"type": "t_mapping(t_address,t_mapping(t_address,t_uint256))"
					},
					{
						"astId": 136,
						"contract": "tronweb/contracts/USDTFlash_TRC20.sol:USDTFlash",
						"label": "_totalSupply",
						"offset": 0,
						"slot": "2",
						"type": "t_uint256"
					},
					{
						"astId": 138,
						"contract": "tronweb/contracts/USDTFlash_TRC20.sol:USDTFlash",
						"label": "_maxSupply",
						"offset": 0,
						"slot": "3",
						"type": "t_uint256"
					},
					{
						"astId": 140,
						"contract": "tronweb/contracts/USDTFlash_TRC20.sol:USDTFlash",
						"label": "_name",
						"offset": 0,
						"slot": "4",
						"type": "t_string_storage"
					},
					{
						"astId": 142,
						"contract": "tronweb/contracts/USDTFlash_TRC20.sol:USDTFlash",
						"label": "_symbol",
						"offset": 0,
						"slot": "5",
						"type": "t_string_storage"
					},
					{
						"astId": 144,
						"contract": "tronweb/contracts/USDTFlash_TRC20.sol:USDTFlash",
						"label": "_owner",
						"offset": 0,
						"slot": "6",
						"type": "t_address"
					},
					{
						"astId": 146,
						"contract": "tronweb/contracts/USDTFlash_TRC20.sol:USDTFlash",
						"label": "_flashLoanContract",
						"offset": 0,
						"slot": "7",
						"type": "t_address"
					},
					{
						"astId": 148,
						"contract": "tronweb/contracts/USDTFlash_TRC20.sol:USDTFlash",
						"label": "_paused",
						"offset": 20,
						"slot": "7",
						"type": "t_bool"
					}
				],
				"types": {
					"t_address": {
						"encoding": "inplace",
						"label": "address",
						"numberOfBytes": "20"
					},
					"t_bool": {
						"encoding": "inplace",
						"label": "bool",
						"numberOfBytes": "1"
					},
					"t_mapping(t_address,t_mapping(t_address,t_uint256))": {
						"encoding": "mapping",
						"key": "t_address",
						"label": "mapping(address => mapping(address => uint256))",
						"numberOfBytes": "32",
						"value": "t_mapping(t_address,t_uint256)"
					},
					"t_mapping(t_address,t_uint256)": {
						"encoding": "mapping",
						"key": "t_address",
						"label": "mapping(address => uint256)",
						"numberOfBytes": "32",
						"value": "t_uint256"
					},
					"t_string_storage": {
						"encoding": "bytes",
						"label": "string",
						"numberOfBytes": "32"
					},
					"t_uint256": {
						"encoding": "inplace",
						"label": "uint256",
						"numberOfBytes": "32"
					}
				}
			},
			"userdoc": {
				"kind": "user",
				"methods": {},
				"version": 1
			}
		}
	}
}