{
	"tronweb/contracts/USDTFlash_TRC20.sol": {
		"USDTFlash": {
			"abi": [
				{
					"inputs": [],
					"stateMutability": "nonpayable",
					"type": "constructor"
				},
				{
					"anonymous": false,
					"inputs": [
						{
							"indexed": true,
							"internalType": "address",
							"name": "owner",
							"type": "address"
						},
						{
							"indexed": true,
							"internalType": "address",
							"name": "spender",
							"type": "address"
						},
						{
							"indexed": false,
							"internalType": "uint256",
							"name": "value",
							"type": "uint256"
						}
					],
					"name": "Approval",
					"type": "event"
				},
				{
					"anonymous": false,
					"inputs": [
						{
							"indexed": true,
							"internalType": "address",
							"name": "from",
							"type": "address"
						},
						{
							"indexed": true,
							"internalType": "address",
							"name": "to",
							"type": "address"
						},
						{
							"indexed": false,
							"internalType": "uint256",
							"name": "value",
							"type": "uint256"
						}
					],
					"name": "Transfer",
					"type": "event"
				},
				{
					"inputs": [
						{
							"internalType": "address",
							"name": "owner",
							"type": "address"
						},
						{
							"internalType": "address",
							"name": "spender",
							"type": "address"
						}
					],
					"name": "allowance",
					"outputs": [
						{
							"internalType": "uint256",
							"name": "",
							"type": "uint256"
						}
					],
					"stateMutability": "view",
					"type": "function"
				},
				{
					"inputs": [
						{
							"internalType": "address",
							"name": "spender",
							"type": "address"
						},
						{
							"internalType": "uint256",
							"name": "value",
							"type": "uint256"
						}
					],
					"name": "approve",
					"outputs": [
						{
							"internalType": "bool",
							"name": "",
							"type": "bool"
						}
					],
					"stateMutability": "nonpayable",
					"type": "function"
				},
				{
					"inputs": [
						{
							"internalType": "address",
							"name": "account",
							"type": "address"
						}
					],
					"name": "balanceOf",
					"outputs": [
						{
							"internalType": "uint256",
							"name": "",
							"type": "uint256"
						}
					],
					"stateMutability": "view",
					"type": "function"
				},
				{
					"inputs": [],
					"name": "decimals",
					"outputs": [
						{
							"internalType": "uint8",
							"name": "",
							"type": "uint8"
						}
					],
					"stateMutability": "view",
					"type": "function"
				},
				{
					"inputs": [
						{
							"internalType": "address",
							"name": "spender",
							"type": "address"
						},
						{
							"internalType": "uint256",
							"name": "subtractedValue",
							"type": "uint256"
						}
					],
					"name": "decreaseAllowance",
					"outputs": [
						{
							"internalType": "bool",
							"name": "",
							"type": "bool"
						}
					],
					"stateMutability": "nonpayable",
					"type": "function"
				},
				{
					"inputs": [
						{
							"internalType": "address",
							"name": "spender",
							"type": "address"
						},
						{
							"internalType": "uint256",
							"name": "addedValue",
							"type": "uint256"
						}
					],
					"name": "increaseAllowance",
					"outputs": [
						{
							"internalType": "bool",
							"name": "",
							"type": "bool"
						}
					],
					"stateMutability": "nonpayable",
					"type": "function"
				},
				{
					"inputs": [],
					"name": "maxSupply",
					"outputs": [
						{
							"internalType": "uint256",
							"name": "",
							"type": "uint256"
						}
					],
					"stateMutability": "view",
					"type": "function"
				},
				{
					"inputs": [
						{
							"internalType": "uint256",
							"name": "amount",
							"type": "uint256"
						}
					],
					"name": "mint",
					"outputs": [
						{
							"internalType": "bool",
							"name": "",
							"type": "bool"
						}
					],
					"stateMutability": "nonpayable",
					"type": "function"
				},
				{
					"inputs": [],
					"name": "name",
					"outputs": [
						{
							"internalType": "string",
							"name": "",
							"type": "string"
						}
					],
					"stateMutability": "view",
					"type": "function"
				},
				{
					"inputs": [
						{
							"internalType": "address",
							"name": "flashLoanContract",
							"type": "address"
						}
					],
					"name": "setFlashLoanContract",
					"outputs": [],
					"stateMutability": "nonpayable",
					"type": "function"
				},
				{
					"inputs": [],
					"name": "symbol",
					"outputs": [
						{
							"internalType": "string",
							"name": "",
							"type": "string"
						}
					],
					"stateMutability": "view",
					"type": "function"
				},
				{
					"inputs": [],
					"name": "totalSupply",
					"outputs": [
						{
							"internalType": "uint256",
							"name": "",
							"type": "uint256"
						}
					],
					"stateMutability": "view",
					"type": "function"
				},
				{
					"inputs": [
						{
							"internalType": "address",
							"name": "to",
							"type": "address"
						},
						{
							"internalType": "uint256",
							"name": "value",
							"type": "uint256"
						}
					],
					"name": "transfer",
					"outputs": [
						{
							"internalType": "bool",
							"name": "",
							"type": "bool"
						}
					],
					"stateMutability": "nonpayable",
					"type": "function"
				},
				{
					"inputs": [
						{
							"internalType": "address",
							"name": "from",
							"type": "address"
						},
						{
							"internalType": "address",
							"name": "to",
							"type": "address"
						},
						{
							"internalType": "uint256",
							"name": "value",
							"type": "uint256"
						}
					],
					"name": "transferFrom",
					"outputs": [
						{
							"internalType": "bool",
							"name": "",
							"type": "bool"
						}
					],
					"stateMutability": "nonpayable",
					"type": "function"
				}
			],
			"devdoc": {
				"kind": "dev",
				"methods": {},
				"version": 1
			},
			"evm": {
				"assembly": "    /* \"tronweb/contracts/USDTFlash_TRC20.sol\":99:6800  contract USDTFlash is ITRC20 {... */\n  mstore(0x40, 0xa0)\n    /* \"tronweb/contracts/USDTFlash_TRC20.sol\":675:831  constructor() {... */\n  callvalue\n  dup1\n  iszero\n  tag_1\n  jumpi\n  revert(0x00, 0x00)\ntag_1:\n  pop\n    /* \"tronweb/contracts/USDTFlash_TRC20.sol\":699:719  _name = \"USDT Flash\" */\n  mload(0x40)\n  dup1\n  0x40\n  add\n  0x40\n  mstore\n  dup1\n  0x0a\n  dup2\n  mstore\n  0x20\n  add\n  0x5553445420466c61736800000000000000000000000000000000000000000000\n  dup2\n  mstore\n  pop\n    /* \"tronweb/contracts/USDTFlash_TRC20.sol\":699:704  _name */\n  0x04\n    /* \"tronweb/contracts/USDTFlash_TRC20.sol\":699:719  _name = \"USDT Flash\" */\n  swap1\n  dup2\n  tag_4\n  swap2\n  swap1\n  tag_5\n  jump\t// in\ntag_4:\n  pop\n    /* \"tronweb/contracts/USDTFlash_TRC20.sol\":729:745  _symbol = \"USDT\" */\n  mload(0x40)\n  dup1\n  0x40\n  add\n  0x40\n  mstore\n  dup1\n  0x04\n  dup2\n  mstore\n  0x20\n  add\n  0x5553445400000000000000000000000000000000000000000000000000000000\n  dup2\n  mstore\n  pop\n    /* \"tronweb/contracts/USDTFlash_TRC20.sol\":729:736  _symbol */\n  0x05\n    /* \"tronweb/contracts/USDTFlash_TRC20.sol\":729:745  _symbol = \"USDT\" */\n  swap1\n  dup2\n  tag_6\n  swap2\n  swap1\n  tag_5\n  jump\t// in\ntag_6:\n  pop\n    /* \"tronweb/contracts/USDTFlash_TRC20.sol\":768:795  600000000000000000000000000 */\n  0x01f04ef12cb04cf158000000\n    /* \"tronweb/contracts/USDTFlash_TRC20.sol\":755:765  _maxSupply */\n  0x03\n    /* \"tronweb/contracts/USDTFlash_TRC20.sol\":755:795  _maxSupply = 600000000000000000000000000 */\n  dup2\n  swap1\n  sstore\n  pop\n    /* \"tronweb/contracts/USDTFlash_TRC20.sol\":814:824  msg.sender */\n  caller\n    /* \"tronweb/contracts/USDTFlash_TRC20.sol\":805:824  _owner = msg.sender */\n  0xffffffffffffffffffffffffffffffffffffffff\n  and\n  0x80\n  dup2\n  0xffffffffffffffffffffffffffffffffffffffff\n  and\n  dup2\n  mstore\n  pop\n  pop\n    /* \"tronweb/contracts/USDTFlash_TRC20.sol\":99:6800  contract USDTFlash is ITRC20 {... */\n  jump(tag_7)\n    /* \"#utility.yul\":7:106   */\ntag_8:\n    /* \"#utility.yul\":59:65   */\n  0x00\n    /* \"#utility.yul\":93:98   */\n  dup2\n    /* \"#utility.yul\":87:99   */\n  mload\n    /* \"#utility.yul\":77:99   */\n  swap1\n  pop\n    /* \"#utility.yul\":7:106   */\n  swap2\n  swap1\n  pop\n  jump\t// out\n    /* \"#utility.yul\":112:292   */\ntag_9:\n    /* \"#utility.yul\":160:237   */\n  0x4e487b7100000000000000000000000000000000000000000000000000000000\n    /* \"#utility.yul\":157:158   */\n  0x00\n    /* \"#utility.yul\":150:238   */\n  mstore\n    /* \"#utility.yul\":257:261   */\n  0x41\n    /* \"#utility.yul\":254:255   */\n  0x04\n    /* \"#utility.yul\":247:262   */\n  mstore\n    /* \"#utility.yul\":281:285   */\n  0x24\n    /* \"#utility.yul\":278:279   */\n  0x00\n    /* \"#utility.yul\":271:286   */\n  revert\n    /* \"#utility.yul\":298:478   */\ntag_10:\n    /* \"#utility.yul\":346:423   */\n  0x4e487b7100000000000000000000000000000000000000000000000000000000\n    /* \"#utility.yul\":343:344   */\n  0x00\n    /* \"#utility.yul\":336:424   */\n  mstore\n    /* \"#utility.yul\":443:447   */\n  0x22\n    /* \"#utility.yul\":440:441   */\n  0x04\n    /* \"#utility.yul\":433:448   */\n  mstore\n    /* \"#utility.yul\":467:471   */\n  0x24\n    /* \"#utility.yul\":464:465   */\n  0x00\n    /* \"#utility.yul\":457:472   */\n  revert\n    /* \"#utility.yul\":484:804   */\ntag_11:\n    /* \"#utility.yul\":528:534   */\n  0x00\n    /* \"#utility.yul\":565:566   */\n  0x02\n    /* \"#utility.yul\":559:563   */\n  dup3\n    /* \"#utility.yul\":555:567   */\n  div\n    /* \"#utility.yul\":545:567   */\n  swap1\n  pop\n    /* \"#utility.yul\":612:613   */\n  0x01\n    /* \"#utility.yul\":606:610   */\n  dup3\n    /* \"#utility.yul\":602:614   */\n  and\n    /* \"#utility.yul\":633:651   */\n  dup1\n    /* \"#utility.yul\":623:704   */\n  tag_33\n  jumpi\n    /* \"#utility.yul\":689:693   */\n  0x7f\n    /* \"#utility.yul\":681:687   */\n  dup3\n    /* \"#utility.yul\":677:694   */\n  and\n    /* \"#utility.yul\":667:694   */\n  swap2\n  pop\n    /* \"#utility.yul\":623:704   */\ntag_33:\n    /* \"#utility.yul\":751:753   */\n  0x20\n    /* \"#utility.yul\":743:749   */\n  dup3\n    /* \"#utility.yul\":740:754   */\n  lt\n    /* \"#utility.yul\":720:738   */\n  dup2\n    /* \"#utility.yul\":717:755   */\n  sub\n    /* \"#utility.yul\":714:798   */\n  tag_34\n  jumpi\n    /* \"#utility.yul\":770:788   */\n  tag_35\n  tag_10\n  jump\t// in\ntag_35:\n    /* \"#utility.yul\":714:798   */\ntag_34:\n    /* \"#utility.yul\":535:804   */\n  pop\n    /* \"#utility.yul\":484:804   */\n  swap2\n  swap1\n  pop\n  jump\t// out\n    /* \"#utility.yul\":810:951   */\ntag_12:\n    /* \"#utility.yul\":859:863   */\n  0x00\n    /* \"#utility.yul\":882:885   */\n  dup2\n    /* \"#utility.yul\":874:885   */\n  swap1\n  pop\n    /* \"#utility.yul\":905:908   */\n  dup2\n    /* \"#utility.yul\":902:903   */\n  0x00\n    /* \"#utility.yul\":895:909   */\n  mstore\n    /* \"#utility.yul\":939:943   */\n  0x20\n    /* \"#utility.yul\":936:937   */\n  0x00\n    /* \"#utility.yul\":926:944   */\n  keccak256\n    /* \"#utility.yul\":918:944   */\n  swap1\n  pop\n    /* \"#utility.yul\":810:951   */\n  swap2\n  swap1\n  pop\n  jump\t// out\n    /* \"#utility.yul\":957:1050   */\ntag_13:\n    /* \"#utility.yul\":994:1000   */\n  0x00\n    /* \"#utility.yul\":1041:1043   */\n  0x20\n    /* \"#utility.yul\":1036:1038   */\n  0x1f\n    /* \"#utility.yul\":1029:1034   */\n  dup4\n    /* \"#utility.yul\":1025:1039   */\n  add\n    /* \"#utility.yul\":1021:1044   */\n  div\n    /* \"#utility.yul\":1011:1044   */\n  swap1\n  pop\n    /* \"#utility.yul\":957:1050   */\n  swap2\n  swap1\n  pop\n  jump\t// out\n    /* \"#utility.yul\":1056:1163   */\ntag_14:\n    /* \"#utility.yul\":1100:1108   */\n  0x00\n    /* \"#utility.yul\":1150:1155   */\n  dup3\n    /* \"#utility.yul\":1144:1148   */\n  dup3\n    /* \"#utility.yul\":1140:1156   */\n  shl\n    /* \"#utility.yul\":1119:1156   */\n  swap1\n  pop\n    /* \"#utility.yul\":1056:1163   */\n  swap3\n  swap2\n  pop\n  pop\n  jump\t// out\n    /* \"#utility.yul\":1169:1562   */\ntag_15:\n    /* \"#utility.yul\":1238:1244   */\n  0x00\n    /* \"#utility.yul\":1288:1289   */\n  0x08\n    /* \"#utility.yul\":1276:1286   */\n  dup4\n    /* \"#utility.yul\":1272:1290   */\n  mul\n    /* \"#utility.yul\":1311:1408   */\n  tag_40\n    /* \"#utility.yul\":1341:1407   */\n  0xffffffffffffffffffffffffffffffffffffffffffffffffffffffffffffffff\n    /* \"#utility.yul\":1330:1339   */\n  dup3\n    /* \"#utility.yul\":1311:1408   */\n  tag_14\n  jump\t// in\ntag_40:\n    /* \"#utility.yul\":1429:1468   */\n  tag_41\n    /* \"#utility.yul\":1459:1467   */\n  dup7\n    /* \"#utility.yul\":1448:1457   */\n  dup4\n    /* \"#utility.yul\":1429:1468   */\n  tag_14\n  jump\t// in\ntag_41:\n    /* \"#utility.yul\":1417:1468   */\n  swap6\n  pop\n    /* \"#utility.yul\":1501:1505   */\n  dup1\n    /* \"#utility.yul\":1497:1506   */\n  not\n    /* \"#utility.yul\":1490:1495   */\n  dup5\n    /* \"#utility.yul\":1486:1507   */\n  and\n    /* \"#utility.yul\":1477:1507   */\n  swap4\n  pop\n    /* \"#utility.yul\":1550:1554   */\n  dup1\n    /* \"#utility.yul\":1540:1548   */\n  dup7\n    /* \"#utility.yul\":1536:1555   */\n  and\n    /* \"#utility.yul\":1529:1534   */\n  dup5\n    /* \"#utility.yul\":1526:1556   */\n  or\n    /* \"#utility.yul\":1516:1556   */\n  swap3\n  pop\n    /* \"#utility.yul\":1245:1562   */\n  pop\n  pop\n    /* \"#utility.yul\":1169:1562   */\n  swap4\n  swap3\n  pop\n  pop\n  pop\n  jump\t// out\n    /* \"#utility.yul\":1568:1645   */\ntag_16:\n    /* \"#utility.yul\":1605:1612   */\n  0x00\n    /* \"#utility.yul\":1634:1639   */\n  dup2\n    /* \"#utility.yul\":1623:1639   */\n  swap1\n  pop\n    /* \"#utility.yul\":1568:1645   */\n  swap2\n  swap1\n  pop\n  jump\t// out\n    /* \"#utility.yul\":1651:1711   */\ntag_17:\n    /* \"#utility.yul\":1679:1682   */\n  0x00\n    /* \"#utility.yul\":1700:1705   */\n  dup2\n    /* \"#utility.yul\":1693:1705   */\n  swap1\n  pop\n    /* \"#utility.yul\":1651:1711   */\n  swap2\n  swap1\n  pop\n  jump\t// out\n    /* \"#utility.yul\":1717:1859   */\ntag_18:\n    /* \"#utility.yul\":1767:1776   */\n  0x00\n    /* \"#utility.yul\":1800:1853   */\n  tag_45\n    /* \"#utility.yul\":1818:1852   */\n  tag_46\n    /* \"#utility.yul\":1827:1851   */\n  tag_47\n    /* \"#utility.yul\":1845:1850   */\n  dup5\n    /* \"#utility.yul\":1827:1851   */\n  tag_16\n  jump\t// in\ntag_47:\n    /* \"#utility.yul\":1818:1852   */\n  tag_17\n  jump\t// in\ntag_46:\n    /* \"#utility.yul\":1800:1853   */\n  tag_16\n  jump\t// in\ntag_45:\n    /* \"#utility.yul\":1787:1853   */\n  swap1\n  pop\n    /* \"#utility.yul\":1717:1859   */\n  swap2\n  swap1\n  pop\n  jump\t// out\n    /* \"#utility.yul\":1865:1940   */\ntag_19:\n    /* \"#utility.yul\":1908:1911   */\n  0x00\n    /* \"#utility.yul\":1929:1934   */\n  dup2\n    /* \"#utility.yul\":1922:1934   */\n  swap1\n  pop\n    /* \"#utility.yul\":1865:1940   */\n  swap2\n  swap1\n  pop\n  jump\t// out\n    /* \"#utility.yul\":1946:2215   */\ntag_20:\n    /* \"#utility.yul\":2056:2095   */\n  tag_50\n    /* \"#utility.yul\":2087:2094   */\n  dup4\n    /* \"#utility.yul\":2056:2095   */\n  tag_18\n  jump\t// in\ntag_50:\n    /* \"#utility.yul\":2117:2208   */\n  tag_51\n    /* \"#utility.yul\":2166:2207   */\n  tag_52\n    /* \"#utility.yul\":2190:2206   */\n  dup3\n    /* \"#utility.yul\":2166:2207   */\n  tag_19\n  jump\t// in\ntag_52:\n    /* \"#utility.yul\":2158:2164   */\n  dup5\n    /* \"#utility.yul\":2151:2155   */\n  dup5\n    /* \"#utility.yul\":2145:2156   */\n  sload\n    /* \"#utility.yul\":2117:2208   */\n  tag_15\n  jump\t// in\ntag_51:\n    /* \"#utility.yul\":2111:2115   */\n  dup3\n    /* \"#utility.yul\":2104:2209   */\n  sstore\n    /* \"#utility.yul\":2022:2215   */\n  pop\n    /* \"#utility.yul\":1946:2215   */\n  pop\n  pop\n  pop\n  jump\t// out\n    /* \"#utility.yul\":2221:2294   */\ntag_21:\n    /* \"#utility.yul\":2266:2269   */\n  0x00\n    /* \"#utility.yul\":2287:2288   */\n  0x00\n    /* \"#utility.yul\":2280:2288   */\n  swap1\n  pop\n    /* \"#utility.yul\":2221:2294   */\n  swap1\n  jump\t// out\n    /* \"#utility.yul\":2300:2489   */\ntag_22:\n    /* \"#utility.yul\":2377:2409   */\n  tag_55\n  tag_21\n  jump\t// in\ntag_55:\n    /* \"#utility.yul\":2418:2483   */\n  tag_56\n    /* \"#utility.yul\":2476:2482   */\n  dup2\n    /* \"#utility.yul\":2468:2474   */\n  dup5\n    /* \"#utility.yul\":2462:2466   */\n  dup5\n    /* \"#utility.yul\":2418:2483   */\n  tag_20\n  jump\t// in\ntag_56:\n    /* \"#utility.yul\":2353:2489   */\n  pop\n    /* \"#utility.yul\":2300:2489   */\n  pop\n  pop\n  jump\t// out\n    /* \"#utility.yul\":2495:2681   */\ntag_23:\n    /* \"#utility.yul\":2555:2675   */\ntag_58:\n    /* \"#utility.yul\":2572:2575   */\n  dup2\n    /* \"#utility.yul\":2565:2570   */\n  dup2\n    /* \"#utility.yul\":2562:2576   */\n  lt\n    /* \"#utility.yul\":2555:2675   */\n  iszero\n  tag_60\n  jumpi\n    /* \"#utility.yul\":2626:2665   */\n  tag_61\n    /* \"#utility.yul\":2663:2664   */\n  0x00\n    /* \"#utility.yul\":2656:2661   */\n  dup3\n    /* \"#utility.yul\":2626:2665   */\n  tag_22\n  jump\t// in\ntag_61:\n    /* \"#utility.yul\":2599:2600   */\n  0x01\n    /* \"#utility.yul\":2592:2597   */\n  dup2\n    /* \"#utility.yul\":2588:2601   */\n  add\n    /* \"#utility.yul\":2579:2601   */\n  swap1\n  pop\n    /* \"#utility.yul\":2555:2675   */\n  jump(tag_58)\ntag_60:\n    /* \"#utility.yul\":2495:2681   */\n  pop\n  pop\n  jump\t// out\n    /* \"#utility.yul\":2687:3230   */\ntag_24:\n    /* \"#utility.yul\":2788:2790   */\n  0x1f\n    /* \"#utility.yul\":2783:2786   */\n  dup3\n    /* \"#utility.yul\":2780:2791   */\n  gt\n    /* \"#utility.yul\":2777:3223   */\n  iszero\n  tag_63\n  jumpi\n    /* \"#utility.yul\":2822:2860   */\n  tag_64\n    /* \"#utility.yul\":2854:2859   */\n  dup2\n    /* \"#utility.yul\":2822:2860   */\n  tag_12\n  jump\t// in\ntag_64:\n    /* \"#utility.yul\":2906:2935   */\n  tag_65\n    /* \"#utility.yul\":2924:2934   */\n  dup5\n    /* \"#utility.yul\":2906:2935   */\n  tag_13\n  jump\t// in\ntag_65:\n    /* \"#utility.yul\":2896:2904   */\n  dup2\n    /* \"#utility.yul\":2892:2936   */\n  add\n    /* \"#utility.yul\":3089:3091   */\n  0x20\n    /* \"#utility.yul\":3077:3087   */\n  dup6\n    /* \"#utility.yul\":3074:3092   */\n  lt\n    /* \"#utility.yul\":3071:3120   */\n  iszero\n  tag_66\n  jumpi\n    /* \"#utility.yul\":3110:3118   */\n  dup2\n    /* \"#utility.yul\":3095:3118   */\n  swap1\n  pop\n    /* \"#utility.yul\":3071:3120   */\ntag_66:\n    /* \"#utility.yul\":3133:3213   */\n  tag_67\n    /* \"#utility.yul\":3189:3211   */\n  tag_68\n    /* \"#utility.yul\":3207:3210   */\n  dup6\n    /* \"#utility.yul\":3189:3211   */\n  tag_13\n  jump\t// in\ntag_68:\n    /* \"#utility.yul\":3179:3187   */\n  dup4\n    /* \"#utility.yul\":3175:3212   */\n  add\n    /* \"#utility.yul\":3162:3173   */\n  dup3\n    /* \"#utility.yul\":3133:3213   */\n  tag_23\n  jump\t// in\ntag_67:\n    /* \"#utility.yul\":2792:3223   */\n  pop\n  pop\n    /* \"#utility.yul\":2777:3223   */\ntag_63:\n    /* \"#utility.yul\":2687:3230   */\n  pop\n  pop\n  pop\n  jump\t// out\n    /* \"#utility.yul\":3236:3353   */\ntag_25:\n    /* \"#utility.yul\":3290:3298   */\n  0x00\n    /* \"#utility.yul\":3340:3345   */\n  dup3\n    /* \"#utility.yul\":3334:3338   */\n  dup3\n    /* \"#utility.yul\":3330:3346   */\n  shr\n    /* \"#utility.yul\":3309:3346   */\n  swap1\n  pop\n    /* \"#utility.yul\":3236:3353   */\n  swap3\n  swap2\n  pop\n  pop\n  jump\t// out\n    /* \"#utility.yul\":3359:3528   */\ntag_26:\n    /* \"#utility.yul\":3403:3409   */\n  0x00\n    /* \"#utility.yul\":3436:3487   */\n  tag_71\n    /* \"#utility.yul\":3484:3485   */\n  0x00\n    /* \"#utility.yul\":3480:3486   */\n  not\n    /* \"#utility.yul\":3472:3477   */\n  dup5\n    /* \"#utility.yul\":3469:3470   */\n  0x08\n    /* \"#utility.yul\":3465:3478   */\n  mul\n    /* \"#utility.yul\":3436:3487   */\n  tag_25\n  jump\t// in\ntag_71:\n    /* \"#utility.yul\":3432:3488   */\n  not\n    /* \"#utility.yul\":3517:3521   */\n  dup1\n    /* \"#utility.yul\":3511:3515   */\n  dup4\n    /* \"#utility.yul\":3507:3522   */\n  and\n    /* \"#utility.yul\":3497:3522   */\n  swap2\n  pop\n    /* \"#utility.yul\":3410:3528   */\n  pop\n    /* \"#utility.yul\":3359:3528   */\n  swap3\n  swap2\n  pop\n  pop\n  jump\t// out\n    /* \"#utility.yul\":3533:3828   */\ntag_27:\n    /* \"#utility.yul\":3609:3613   */\n  0x00\n    /* \"#utility.yul\":3755:3784   */\n  tag_73\n    /* \"#utility.yul\":3780:3783   */\n  dup4\n    /* \"#utility.yul\":3774:3778   */\n  dup4\n    /* \"#utility.yul\":3755:3784   */\n  tag_26\n  jump\t// in\ntag_73:\n    /* \"#utility.yul\":3747:3784   */\n  swap2\n  pop\n    /* \"#utility.yul\":3817:3820   */\n  dup3\n    /* \"#utility.yul\":3814:3815   */\n  0x02\n    /* \"#utility.yul\":3810:3821   */\n  mul\n    /* \"#utility.yul\":3804:3808   */\n  dup3\n    /* \"#utility.yul\":3801:3822   */\n  or\n    /* \"#utility.yul\":3793:3822   */\n  swap1\n  pop\n    /* \"#utility.yul\":3533:3828   */\n  swap3\n  swap2\n  pop\n  pop\n  jump\t// out\n    /* \"#utility.yul\":3833:5228   */\ntag_5:\n    /* \"#utility.yul\":3950:3987   */\n  tag_75\n    /* \"#utility.yul\":3983:3986   */\n  dup3\n    /* \"#utility.yul\":3950:3987   */\n  tag_8\n  jump\t// in\ntag_75:\n    /* \"#utility.yul\":4052:4070   */\n  0xffffffffffffffff\n    /* \"#utility.yul\":4044:4050   */\n  dup2\n    /* \"#utility.yul\":4041:4071   */\n  gt\n    /* \"#utility.yul\":4038:4094   */\n  iszero\n  tag_76\n  jumpi\n    /* \"#utility.yul\":4074:4092   */\n  tag_77\n  tag_9\n  jump\t// in\ntag_77:\n    /* \"#utility.yul\":4038:4094   */\ntag_76:\n    /* \"#utility.yul\":4118:4156   */\n  tag_78\n    /* \"#utility.yul\":4150:4154   */\n  dup3\n    /* \"#utility.yul\":4144:4155   */\n  sload\n    /* \"#utility.yul\":4118:4156   */\n  tag_11\n  jump\t// in\ntag_78:\n    /* \"#utility.yul\":4203:4270   */\n  tag_79\n    /* \"#utility.yul\":4263:4269   */\n  dup3\n    /* \"#utility.yul\":4255:4261   */\n  dup3\n    /* \"#utility.yul\":4249:4253   */\n  dup6\n    /* \"#utility.yul\":4203:4270   */\n  tag_24\n  jump\t// in\ntag_79:\n    /* \"#utility.yul\":4297:4298   */\n  0x00\n    /* \"#utility.yul\":4321:4325   */\n  0x20\n    /* \"#utility.yul\":4308:4325   */\n  swap1\n  pop\n    /* \"#utility.yul\":4353:4355   */\n  0x1f\n    /* \"#utility.yul\":4345:4351   */\n  dup4\n    /* \"#utility.yul\":4342:4356   */\n  gt\n    /* \"#utility.yul\":4370:4371   */\n  0x01\n    /* \"#utility.yul\":4365:4983   */\n  dup2\n  eq\n  tag_81\n  jumpi\n    /* \"#utility.yul\":5027:5028   */\n  0x00\n    /* \"#utility.yul\":5044:5050   */\n  dup5\n    /* \"#utility.yul\":5041:5118   */\n  iszero\n  tag_82\n  jumpi\n    /* \"#utility.yul\":5093:5102   */\n  dup3\n    /* \"#utility.yul\":5088:5091   */\n  dup8\n    /* \"#utility.yul\":5084:5103   */\n  add\n    /* \"#utility.yul\":5078:5104   */\n  mload\n    /* \"#utility.yul\":5069:5104   */\n  swap1\n  pop\n    /* \"#utility.yul\":5041:5118   */\ntag_82:\n    /* \"#utility.yul\":5144:5211   */\n  tag_83\n    /* \"#utility.yul\":5204:5210   */\n  dup6\n    /* \"#utility.yul\":5197:5202   */\n  dup3\n    /* \"#utility.yul\":5144:5211   */\n  tag_27\n  jump\t// in\ntag_83:\n    /* \"#utility.yul\":5138:5142   */\n  dup7\n    /* \"#utility.yul\":5131:5212   */\n  sstore\n    /* \"#utility.yul\":5000:5222   */\n  pop\n    /* \"#utility.yul\":4335:5222   */\n  jump(tag_80)\n    /* \"#utility.yul\":4365:4983   */\ntag_81:\n    /* \"#utility.yul\":4417:4421   */\n  0x1f\n    /* \"#utility.yul\":4413:4422   */\n  not\n    /* \"#utility.yul\":4405:4411   */\n  dup5\n    /* \"#utility.yul\":4401:4423   */\n  and\n    /* \"#utility.yul\":4451:4488   */\n  tag_84\n    /* \"#utility.yul\":4483:4487   */\n  dup7\n    /* \"#utility.yul\":4451:4488   */\n  tag_12\n  jump\t// in\ntag_84:\n    /* \"#utility.yul\":4510:4511   */\n  0x00\n    /* \"#utility.yul\":4524:4732   */\ntag_85:\n    /* \"#utility.yul\":4538:4545   */\n  dup3\n    /* \"#utility.yul\":4535:4536   */\n  dup2\n    /* \"#utility.yul\":4532:4546   */\n  lt\n    /* \"#utility.yul\":4524:4732   */\n  iszero\n  tag_87\n  jumpi\n    /* \"#utility.yul\":4617:4626   */\n  dup5\n    /* \"#utility.yul\":4612:4615   */\n  dup10\n    /* \"#utility.yul\":4608:4627   */\n  add\n    /* \"#utility.yul\":4602:4628   */\n  mload\n    /* \"#utility.yul\":4594:4600   */\n  dup3\n    /* \"#utility.yul\":4587:4629   */\n  sstore\n    /* \"#utility.yul\":4668:4669   */\n  0x01\n    /* \"#utility.yul\":4660:4666   */\n  dup3\n    /* \"#utility.yul\":4656:4670   */\n  add\n    /* \"#utility.yul\":4646:4670   */\n  swap2\n  pop\n    /* \"#utility.yul\":4715:4717   */\n  0x20\n    /* \"#utility.yul\":4704:4713   */\n  dup6\n    /* \"#utility.yul\":4700:4718   */\n  add\n    /* \"#utility.yul\":4687:4718   */\n  swap5\n  pop\n    /* \"#utility.yul\":4561:4565   */\n  0x20\n    /* \"#utility.yul\":4558:4559   */\n  dup2\n    /* \"#utility.yul\":4554:4566   */\n  add\n    /* \"#utility.yul\":4549:4566   */\n  swap1\n  pop\n    /* \"#utility.yul\":4524:4732   */\n  jump(tag_85)\ntag_87:\n    /* \"#utility.yul\":4760:4766   */\n  dup7\n    /* \"#utility.yul\":4751:4758   */\n  dup4\n    /* \"#utility.yul\":4748:4767   */\n  lt\n    /* \"#utility.yul\":4745:4924   */\n  iszero\n  tag_88\n  jumpi\n    /* \"#utility.yul\":4818:4827   */\n  dup5\n    /* \"#utility.yul\":4813:4816   */\n  dup10\n    /* \"#utility.yul\":4809:4828   */\n  add\n    /* \"#utility.yul\":4803:4829   */\n  mload\n    /* \"#utility.yul\":4861:4909   */\n  tag_89\n    /* \"#utility.yul\":4903:4907   */\n  0x1f\n    /* \"#utility.yul\":4895:4901   */\n  dup10\n    /* \"#utility.yul\":4891:4908   */\n  and\n    /* \"#utility.yul\":4880:4889   */\n  dup3\n    /* \"#utility.yul\":4861:4909   */\n  tag_26\n  jump\t// in\ntag_89:\n    /* \"#utility.yul\":4853:4859   */\n  dup4\n    /* \"#utility.yul\":4846:4910   */\n  sstore\n    /* \"#utility.yul\":4768:4924   */\n  pop\n    /* \"#utility.yul\":4745:4924   */\ntag_88:\n    /* \"#utility.yul\":4970:4971   */\n  0x01\n    /* \"#utility.yul\":4966:4967   */\n  0x02\n    /* \"#utility.yul\":4958:4964   */\n  dup9\n    /* \"#utility.yul\":4954:4968   */\n  mul\n    /* \"#utility.yul\":4950:4972   */\n  add\n    /* \"#utility.yul\":4944:4948   */\n  dup9\n    /* \"#utility.yul\":4937:4973   */\n  sstore\n    /* \"#utility.yul\":4372:4983   */\n  pop\n  pop\n  pop\n    /* \"#utility.yul\":4335:5222   */\ntag_80:\n  pop\n    /* \"#utility.yul\":3925:5228   */\n  pop\n  pop\n  pop\n    /* \"#utility.yul\":3833:5228   */\n  pop\n  pop\n  jump\t// out\n    /* \"tronweb/contracts/USDTFlash_TRC20.sol\":99:6800  contract USDTFlash is ITRC20 {... */\ntag_7:\n  mload(0x80)\n  codecopy(0x00, dataOffset(sub_0), dataSize(sub_0))\n  0x00\n  assignImmutable(\"0x037d752242ae8d900ca1c2dba9512ed3f691680bee2a7d598ed49320619901d7\")\n  return(0x00, dataSize(sub_0))\nstop\n\nsub_0: assembly {\n        /* \"tronweb/contracts/USDTFlash_TRC20.sol\":99:6800  contract USDTFlash is ITRC20 {... */\n      mstore(0x40, 0x80)\n      callvalue\n      dup1\n      iszero\n      tag_1\n      jumpi\n      revert(0x00, 0x00)\n    tag_1:\n      pop\n      jumpi(tag_2, lt(calldatasize, 0x04))\n      shr(0xe0, calldataload(0x00))\n      dup1\n      0x70a08231\n      gt\n      tag_17\n      jumpi\n      dup1\n      0xa457c2d7\n      gt\n      tag_18\n      jumpi\n      dup1\n      0xa457c2d7\n      eq\n      tag_13\n      jumpi\n      dup1\n      0xa9059cbb\n      eq\n      tag_14\n      jumpi\n      dup1\n      0xd5abeb01\n      eq\n      tag_15\n      jumpi\n      dup1\n      0xdd62ed3e\n      eq\n      tag_16\n      jumpi\n      jump(tag_2)\n    tag_18:\n      dup1\n      0x70a08231\n      eq\n      tag_10\n      jumpi\n      dup1\n      0x95d89b41\n      eq\n      tag_11\n      jumpi\n      dup1\n      0xa0712d68\n      eq\n      tag_12\n      jumpi\n      jump(tag_2)\n    tag_17:\n      dup1\n      0x23b872dd\n      gt\n      tag_19\n      jumpi\n      dup1\n      0x23b872dd\n      eq\n      tag_6\n      jumpi\n      dup1\n      0x2a52940d\n      eq\n      tag_7\n      jumpi\n      dup1\n      0x313ce567\n      eq\n      tag_8\n      jumpi\n      dup1\n      0x39509351\n      eq\n      tag_9\n      jumpi\n      jump(tag_2)\n    tag_19:\n      dup1\n      0x06fdde03\n      eq\n      tag_3\n      jumpi\n      dup1\n      0x095ea7b3\n      eq\n      tag_4\n      jumpi\n      dup1\n      0x18160ddd\n      eq\n      tag_5\n      jumpi\n    tag_2:\n      revert(0x00, 0x00)\n        /* \"tronweb/contracts/USDTFlash_TRC20.sol\":1275:1366  function name() external view virtual returns (string memory) {... */\n    tag_3:\n      tag_20\n      tag_21\n      jump\t// in\n    tag_20:\n      mload(0x40)\n      tag_22\n      swap2\n      swap1\n      tag_23\n      jump\t// in\n    tag_22:\n      mload(0x40)\n      dup1\n      swap2\n      sub\n      swap1\n      return\n        /* \"tronweb/contracts/USDTFlash_TRC20.sol\":2321:2476  function approve(address spender, uint256 value) external virtual returns (bool) {... */\n    tag_4:\n      tag_24\n      0x04\n      dup1\n      calldatasize\n      sub\n      dup2\n      add\n      swap1\n      tag_25\n      swap2\n      swap1\n      tag_26\n      jump\t// in\n    tag_25:\n      tag_27\n      jump\t// in\n    tag_24:\n      mload(0x40)\n      tag_28\n      swap2\n      swap1\n      tag_29\n      jump\t// in\n    tag_28:\n      mload(0x40)\n      dup1\n      swap2\n      sub\n      swap1\n      return\n        /* \"tronweb/contracts/USDTFlash_TRC20.sol\":1563:1654  function totalSupply() external view returns (uint256) {... */\n    tag_5:\n      tag_30\n      tag_31\n      jump\t// in\n    tag_30:\n      mload(0x40)\n      tag_32\n      swap2\n      swap1\n      tag_33\n      jump\t// in\n    tag_32:\n      mload(0x40)\n      dup1\n      swap2\n      sub\n      swap1\n      return\n        /* \"tronweb/contracts/USDTFlash_TRC20.sol\":2482:2691  function transferFrom(address from, address to, uint256 value) external virtual returns (bool) {... */\n    tag_6:\n      tag_34\n      0x04\n      dup1\n      calldatasize\n      sub\n      dup2\n      add\n      swap1\n      tag_35\n      swap2\n      swap1\n      tag_36\n      jump\t// in\n    tag_35:\n      tag_37\n      jump\t// in\n    tag_34:\n      mload(0x40)\n      tag_38\n      swap2\n      swap1\n      tag_29\n      jump\t// in\n    tag_38:\n      mload(0x40)\n      dup1\n      swap2\n      sub\n      swap1\n      return\n        /* \"tronweb/contracts/USDTFlash_TRC20.sol\":1138:1269  function setFlashLoanContract(address flashLoanContract) external onlyOwner {... */\n    tag_7:\n      tag_39\n      0x04\n      dup1\n      calldatasize\n      sub\n      dup2\n      add\n      swap1\n      tag_40\n      swap2\n      swap1\n      tag_41\n      jump\t// in\n    tag_40:\n      tag_42\n      jump\t// in\n    tag_39:\n      stop\n        /* \"tronweb/contracts/USDTFlash_TRC20.sol\":1473:1557  function decimals() external view virtual returns (uint8) {... */\n    tag_8:\n      tag_43\n      tag_44\n      jump\t// in\n    tag_43:\n      mload(0x40)\n      tag_45\n      swap2\n      swap1\n      tag_46\n      jump\t// in\n    tag_45:\n      mload(0x40)\n      dup1\n      swap2\n      sub\n      swap1\n      return\n        /* \"tronweb/contracts/USDTFlash_TRC20.sol\":2697:2902  function increaseAllowance(address spender, uint addedValue) external virtual returns (bool) {... */\n    tag_9:\n      tag_47\n      0x04\n      dup1\n      calldatasize\n      sub\n      dup2\n      add\n      swap1\n      tag_48\n      swap2\n      swap1\n      tag_26\n      jump\t// in\n    tag_48:\n      tag_49\n      jump\t// in\n    tag_47:\n      mload(0x40)\n      tag_50\n      swap2\n      swap1\n      tag_29\n      jump\t// in\n    tag_50:\n      mload(0x40)\n      dup1\n      swap2\n      sub\n      swap1\n      return\n        /* \"tronweb/contracts/USDTFlash_TRC20.sol\":1761:1871  function balanceOf(address account) external view returns (uint256) {... */\n    tag_10:\n      tag_51\n      0x04\n      dup1\n      calldatasize\n      sub\n      dup2\n      add\n      swap1\n      tag_52\n      swap2\n      swap1\n      tag_41\n      jump\t// in\n    tag_52:\n      tag_53\n      jump\t// in\n    tag_51:\n      mload(0x40)\n      tag_54\n      swap2\n      swap1\n      tag_33\n      jump\t// in\n    tag_54:\n      mload(0x40)\n      dup1\n      swap2\n      sub\n      swap1\n      return\n        /* \"tronweb/contracts/USDTFlash_TRC20.sol\":1372:1467  function symbol() external view virtual returns (string memory) {... */\n    tag_11:\n      tag_55\n      tag_56\n      jump\t// in\n    tag_55:\n      mload(0x40)\n      tag_57\n      swap2\n      swap1\n      tag_23\n      jump\t// in\n    tag_57:\n      mload(0x40)\n      dup1\n      swap2\n      sub\n      swap1\n      return\n        /* \"tronweb/contracts/USDTFlash_TRC20.sol\":2030:2177  function mint(uint256 amount) external onlyFlashLoanContract returns (bool) {... */\n    tag_12:\n      tag_58\n      0x04\n      dup1\n      calldatasize\n      sub\n      dup2\n      add\n      swap1\n      tag_59\n      swap2\n      swap1\n      tag_60\n      jump\t// in\n    tag_59:\n      tag_61\n      jump\t// in\n    tag_58:\n      mload(0x40)\n      tag_62\n      swap2\n      swap1\n      tag_29\n      jump\t// in\n    tag_62:\n      mload(0x40)\n      dup1\n      swap2\n      sub\n      swap1\n      return\n        /* \"tronweb/contracts/USDTFlash_TRC20.sol\":2908:3295  function decreaseAllowance(address spender, uint subtractedValue) external virtual returns (bool) {... */\n    tag_13:\n      tag_63\n      0x04\n      dup1\n      calldatasize\n      sub\n      dup2\n      add\n      swap1\n      tag_64\n      swap2\n      swap1\n      tag_26\n      jump\t// in\n    tag_64:\n      tag_65\n      jump\t// in\n    tag_63:\n      mload(0x40)\n      tag_66\n      swap2\n      swap1\n      tag_29\n      jump\t// in\n    tag_66:\n      mload(0x40)\n      dup1\n      swap2\n      sub\n      swap1\n      return\n        /* \"tronweb/contracts/USDTFlash_TRC20.sol\":1877:2024  function transfer(address to, uint256 value) external virtual returns (bool) {... */\n    tag_14:\n      tag_67\n      0x04\n      dup1\n      calldatasize\n      sub\n      dup2\n      add\n      swap1\n      tag_68\n      swap2\n      swap1\n      tag_26\n      jump\t// in\n    tag_68:\n      tag_69\n      jump\t// in\n    tag_67:\n      mload(0x40)\n      tag_70\n      swap2\n      swap1\n      tag_29\n      jump\t// in\n    tag_70:\n      mload(0x40)\n      dup1\n      swap2\n      sub\n      swap1\n      return\n        /* \"tronweb/contracts/USDTFlash_TRC20.sol\":1660:1755  function maxSupply() external view virtual returns (uint256) {... */\n    tag_15:\n      tag_71\n      tag_72\n      jump\t// in\n    tag_71:\n      mload(0x40)\n      tag_73\n      swap2\n      swap1\n      tag_33\n      jump\t// in\n    tag_73:\n      mload(0x40)\n      dup1\n      swap2\n      sub\n      swap1\n      return\n        /* \"tronweb/contracts/USDTFlash_TRC20.sol\":2183:2315  function allowance(address owner, address spender) public view returns (uint256) {... */\n    tag_16:\n      tag_74\n      0x04\n      dup1\n      calldatasize\n      sub\n      dup2\n      add\n      swap1\n      tag_75\n      swap2\n      swap1\n      tag_76\n      jump\t// in\n    tag_75:\n      tag_77\n      jump\t// in\n    tag_74:\n      mload(0x40)\n      tag_78\n      swap2\n      swap1\n      tag_33\n      jump\t// in\n    tag_78:\n      mload(0x40)\n      dup1\n      swap2\n      sub\n      swap1\n      return\n        /* \"tronweb/contracts/USDTFlash_TRC20.sol\":1275:1366  function name() external view virtual returns (string memory) {... */\n    tag_21:\n        /* \"tronweb/contracts/USDTFlash_TRC20.sol\":1322:1335  string memory */\n      0x60\n        /* \"tronweb/contracts/USDTFlash_TRC20.sol\":1354:1359  _name */\n      0x04\n        /* \"tronweb/contracts/USDTFlash_TRC20.sol\":1347:1359  return _name */\n      dup1\n      sload\n      tag_80\n      swap1\n      tag_81\n      jump\t// in\n    tag_80:\n      dup1\n      0x1f\n      add\n      0x20\n      dup1\n      swap2\n      div\n      mul\n      0x20\n      add\n      mload(0x40)\n      swap1\n      dup2\n      add\n      0x40\n      mstore\n      dup1\n      swap3\n      swap2\n      swap1\n      dup2\n      dup2\n      mstore\n      0x20\n      add\n      dup3\n      dup1\n      sload\n      tag_82\n      swap1\n      tag_81\n      jump\t// in\n    tag_82:\n      dup1\n      iszero\n      tag_83\n      jumpi\n      dup1\n      0x1f\n      lt\n      tag_84\n      jumpi\n      0x0100\n      dup1\n      dup4\n      sload\n      div\n      mul\n      dup4\n      mstore\n      swap2\n      0x20\n      add\n      swap2\n      jump(tag_83)\n    tag_84:\n      dup3\n      add\n      swap2\n      swap1\n      0x00\n      mstore\n      keccak256(0x00, 0x20)\n      swap1\n    tag_85:\n      dup2\n      sload\n      dup2\n      mstore\n      swap1\n      0x01\n      add\n      swap1\n      0x20\n      add\n      dup1\n      dup4\n      gt\n      tag_85\n      jumpi\n      dup3\n      swap1\n      sub\n      0x1f\n      and\n      dup3\n      add\n      swap2\n    tag_83:\n      pop\n      pop\n      pop\n      pop\n      pop\n      swap1\n      pop\n        /* \"tronweb/contracts/USDTFlash_TRC20.sol\":1275:1366  function name() external view virtual returns (string memory) {... */\n      swap1\n      jump\t// out\n        /* \"tronweb/contracts/USDTFlash_TRC20.sol\":2321:2476  function approve(address spender, uint256 value) external virtual returns (bool) {... */\n    tag_27:\n        /* \"tronweb/contracts/USDTFlash_TRC20.sol\":2396:2400  bool */\n      0x00\n        /* \"tronweb/contracts/USDTFlash_TRC20.sol\":2412:2448  _approve(msg.sender, spender, value) */\n      tag_87\n        /* \"tronweb/contracts/USDTFlash_TRC20.sol\":2421:2431  msg.sender */\n      caller\n        /* \"tronweb/contracts/USDTFlash_TRC20.sol\":2433:2440  spender */\n      dup5\n        /* \"tronweb/contracts/USDTFlash_TRC20.sol\":2442:2447  value */\n      dup5\n        /* \"tronweb/contracts/USDTFlash_TRC20.sol\":2412:2420  _approve */\n      tag_88\n        /* \"tronweb/contracts/USDTFlash_TRC20.sol\":2412:2448  _approve(msg.sender, spender, value) */\n      jump\t// in\n    tag_87:\n        /* \"tronweb/contracts/USDTFlash_TRC20.sol\":2465:2469  true */\n      0x01\n        /* \"tronweb/contracts/USDTFlash_TRC20.sol\":2458:2469  return true */\n      swap1\n      pop\n        /* \"tronweb/contracts/USDTFlash_TRC20.sol\":2321:2476  function approve(address spender, uint256 value) external virtual returns (bool) {... */\n      swap3\n      swap2\n      pop\n      pop\n      jump\t// out\n        /* \"tronweb/contracts/USDTFlash_TRC20.sol\":1563:1654  function totalSupply() external view returns (uint256) {... */\n    tag_31:\n        /* \"tronweb/contracts/USDTFlash_TRC20.sol\":1609:1616  uint256 */\n      0x00\n        /* \"tronweb/contracts/USDTFlash_TRC20.sol\":1635:1647  _totalSupply */\n      sload(0x02)\n        /* \"tronweb/contracts/USDTFlash_TRC20.sol\":1628:1647  return _totalSupply */\n      swap1\n      pop\n        /* \"tronweb/contracts/USDTFlash_TRC20.sol\":1563:1654  function totalSupply() external view returns (uint256) {... */\n      swap1\n      jump\t// out\n        /* \"tronweb/contracts/USDTFlash_TRC20.sol\":2482:2691  function transferFrom(address from, address to, uint256 value) external virtual returns (bool) {... */\n    tag_37:\n        /* \"tronweb/contracts/USDTFlash_TRC20.sol\":2571:2575  bool */\n      0x00\n        /* \"tronweb/contracts/USDTFlash_TRC20.sol\":2587:2627  _spendAllowance(from, msg.sender, value) */\n      tag_91\n        /* \"tronweb/contracts/USDTFlash_TRC20.sol\":2603:2607  from */\n      dup5\n        /* \"tronweb/contracts/USDTFlash_TRC20.sol\":2609:2619  msg.sender */\n      caller\n        /* \"tronweb/contracts/USDTFlash_TRC20.sol\":2621:2626  value */\n      dup5\n        /* \"tronweb/contracts/USDTFlash_TRC20.sol\":2587:2602  _spendAllowance */\n      tag_92\n        /* \"tronweb/contracts/USDTFlash_TRC20.sol\":2587:2627  _spendAllowance(from, msg.sender, value) */\n      jump\t// in\n    tag_91:\n        /* \"tronweb/contracts/USDTFlash_TRC20.sol\":2637:2663  _transfer(from, to, value) */\n      tag_93\n        /* \"tronweb/contracts/USDTFlash_TRC20.sol\":2647:2651  from */\n      dup5\n        /* \"tronweb/contracts/USDTFlash_TRC20.sol\":2653:2655  to */\n      dup5\n        /* \"tronweb/contracts/USDTFlash_TRC20.sol\":2657:2662  value */\n      dup5\n        /* \"tronweb/contracts/USDTFlash_TRC20.sol\":2637:2646  _transfer */\n      tag_94\n        /* \"tronweb/contracts/USDTFlash_TRC20.sol\":2637:2663  _transfer(from, to, value) */\n      jump\t// in\n    tag_93:\n        /* \"tronweb/contracts/USDTFlash_TRC20.sol\":2680:2684  true */\n      0x01\n        /* \"tronweb/contracts/USDTFlash_TRC20.sol\":2673:2684  return true */\n      swap1\n      pop\n        /* \"tronweb/contracts/USDTFlash_TRC20.sol\":2482:2691  function transferFrom(address from, address to, uint256 value) external virtual returns (bool) {... */\n      swap4\n      swap3\n      pop\n      pop\n      pop\n      jump\t// out\n        /* \"tronweb/contracts/USDTFlash_TRC20.sol\":1138:1269  function setFlashLoanContract(address flashLoanContract) external onlyOwner {... */\n    tag_42:\n        /* \"tronweb/contracts/USDTFlash_TRC20.sol\":890:896  _owner */\n      immutable(\"0x037d752242ae8d900ca1c2dba9512ed3f691680bee2a7d598ed49320619901d7\")\n        /* \"tronweb/contracts/USDTFlash_TRC20.sol\":876:896  msg.sender == _owner */\n      0xffffffffffffffffffffffffffffffffffffffff\n      and\n        /* \"tronweb/contracts/USDTFlash_TRC20.sol\":876:886  msg.sender */\n      caller\n        /* \"tronweb/contracts/USDTFlash_TRC20.sol\":876:896  msg.sender == _owner */\n      0xffffffffffffffffffffffffffffffffffffffff\n      and\n      eq\n        /* \"tronweb/contracts/USDTFlash_TRC20.sol\":868:947  require(msg.sender == _owner, \"Only the contract owner can call this function\") */\n      tag_96\n      jumpi\n      mload(0x40)\n      0x08c379a000000000000000000000000000000000000000000000000000000000\n      dup2\n      mstore\n      0x04\n      add\n      tag_97\n      swap1\n      tag_98\n      jump\t// in\n    tag_97:\n      mload(0x40)\n      dup1\n      swap2\n      sub\n      swap1\n      revert\n    tag_96:\n        /* \"tronweb/contracts/USDTFlash_TRC20.sol\":1245:1262  flashLoanContract */\n      dup1\n        /* \"tronweb/contracts/USDTFlash_TRC20.sol\":1224:1242  _flashLoanContract */\n      0x06\n      0x00\n        /* \"tronweb/contracts/USDTFlash_TRC20.sol\":1224:1262  _flashLoanContract = flashLoanContract */\n      0x0100\n      exp\n      dup2\n      sload\n      dup2\n      0xffffffffffffffffffffffffffffffffffffffff\n      mul\n      not\n      and\n      swap1\n      dup4\n      0xffffffffffffffffffffffffffffffffffffffff\n      and\n      mul\n      or\n      swap1\n      sstore\n      pop\n        /* \"tronweb/contracts/USDTFlash_TRC20.sol\":1138:1269  function setFlashLoanContract(address flashLoanContract) external onlyOwner {... */\n      pop\n      jump\t// out\n        /* \"tronweb/contracts/USDTFlash_TRC20.sol\":1473:1557  function decimals() external view virtual returns (uint8) {... */\n    tag_44:\n        /* \"tronweb/contracts/USDTFlash_TRC20.sol\":1524:1529  uint8 */\n      0x00\n        /* \"tronweb/contracts/USDTFlash_TRC20.sol\":1548:1550  18 */\n      0x12\n        /* \"tronweb/contracts/USDTFlash_TRC20.sol\":1541:1550  return 18 */\n      swap1\n      pop\n        /* \"tronweb/contracts/USDTFlash_TRC20.sol\":1473:1557  function decimals() external view virtual returns (uint8) {... */\n      swap1\n      jump\t// out\n        /* \"tronweb/contracts/USDTFlash_TRC20.sol\":2697:2902  function increaseAllowance(address spender, uint addedValue) external virtual returns (bool) {... */\n    tag_49:\n        /* \"tronweb/contracts/USDTFlash_TRC20.sol\":2784:2788  bool */\n      0x00\n        /* \"tronweb/contracts/USDTFlash_TRC20.sol\":2800:2874  _approve(msg.sender, spender, allowance(msg.sender, spender) + addedValue) */\n      tag_102\n        /* \"tronweb/contracts/USDTFlash_TRC20.sol\":2809:2819  msg.sender */\n      caller\n        /* \"tronweb/contracts/USDTFlash_TRC20.sol\":2821:2828  spender */\n      dup5\n        /* \"tronweb/contracts/USDTFlash_TRC20.sol\":2863:2873  addedValue */\n      dup5\n        /* \"tronweb/contracts/USDTFlash_TRC20.sol\":2830:2860  allowance(msg.sender, spender) */\n      tag_103\n        /* \"tronweb/contracts/USDTFlash_TRC20.sol\":2840:2850  msg.sender */\n      caller\n        /* \"tronweb/contracts/USDTFlash_TRC20.sol\":2852:2859  spender */\n      dup9\n        /* \"tronweb/contracts/USDTFlash_TRC20.sol\":2830:2839  allowance */\n      tag_77\n        /* \"tronweb/contracts/USDTFlash_TRC20.sol\":2830:2860  allowance(msg.sender, spender) */\n      jump\t// in\n    tag_103:\n        /* \"tronweb/contracts/USDTFlash_TRC20.sol\":2830:2873  allowance(msg.sender, spender) + addedValue */\n      tag_104\n      swap2\n      swap1\n      tag_105\n      jump\t// in\n    tag_104:\n        /* \"tronweb/contracts/USDTFlash_TRC20.sol\":2800:2808  _approve */\n      tag_88\n        /* \"tronweb/contracts/USDTFlash_TRC20.sol\":2800:2874  _approve(msg.sender, spender, allowance(msg.sender, spender) + addedValue) */\n      jump\t// in\n    tag_102:\n        /* \"tronweb/contracts/USDTFlash_TRC20.sol\":2891:2895  true */\n      0x01\n        /* \"tronweb/contracts/USDTFlash_TRC20.sol\":2884:2895  return true */\n      swap1\n      pop\n        /* \"tronweb/contracts/USDTFlash_TRC20.sol\":2697:2902  function increaseAllowance(address spender, uint addedValue) external virtual returns (bool) {... */\n      swap3\n      swap2\n      pop\n      pop\n      jump\t// out\n        /* \"tronweb/contracts/USDTFlash_TRC20.sol\":1761:1871  function balanceOf(address account) external view returns (uint256) {... */\n    tag_53:\n        /* \"tronweb/contracts/USDTFlash_TRC20.sol\":1820:1827  uint256 */\n      0x00\n        /* \"tronweb/contracts/USDTFlash_TRC20.sol\":1846:1855  _balances */\n      0x00\n        /* \"tronweb/contracts/USDTFlash_TRC20.sol\":1846:1864  _balances[account] */\n      0x00\n        /* \"tronweb/contracts/USDTFlash_TRC20.sol\":1856:1863  account */\n      dup4\n        /* \"tronweb/contracts/USDTFlash_TRC20.sol\":1846:1864  _balances[account] */\n      0xffffffffffffffffffffffffffffffffffffffff\n      and\n      0xffffffffffffffffffffffffffffffffffffffff\n      and\n      dup2\n      mstore\n      0x20\n      add\n      swap1\n      dup2\n      mstore\n      0x20\n      add\n      0x00\n      keccak256\n      sload\n        /* \"tronweb/contracts/USDTFlash_TRC20.sol\":1839:1864  return _balances[account] */\n      swap1\n      pop\n        /* \"tronweb/contracts/USDTFlash_TRC20.sol\":1761:1871  function balanceOf(address account) external view returns (uint256) {... */\n      swap2\n      swap1\n      pop\n      jump\t// out\n        /* \"tronweb/contracts/USDTFlash_TRC20.sol\":1372:1467  function symbol() external view virtual returns (string memory) {... */\n    tag_56:\n        /* \"tronweb/contracts/USDTFlash_TRC20.sol\":1421:1434  string memory */\n      0x60\n        /* \"tronweb/contracts/USDTFlash_TRC20.sol\":1453:1460  _symbol */\n      0x05\n        /* \"tronweb/contracts/USDTFlash_TRC20.sol\":1446:1460  return _symbol */\n      dup1\n      sload\n      tag_108\n      swap1\n      tag_81\n      jump\t// in\n    tag_108:\n      dup1\n      0x1f\n      add\n      0x20\n      dup1\n      swap2\n      div\n      mul\n      0x20\n      add\n      mload(0x40)\n      swap1\n      dup2\n      add\n      0x40\n      mstore\n      dup1\n      swap3\n      swap2\n      swap1\n      dup2\n      dup2\n      mstore\n      0x20\n      add\n      dup3\n      dup1\n      sload\n      tag_109\n      swap1\n      tag_81\n      jump\t// in\n    tag_109:\n      dup1\n      iszero\n      tag_110\n      jumpi\n      dup1\n      0x1f\n      lt\n      tag_111\n      jumpi\n      0x0100\n      dup1\n      dup4\n      sload\n      div\n      mul\n      dup4\n      mstore\n      swap2\n      0x20\n      add\n      swap2\n      jump(tag_110)\n    tag_111:\n      dup3\n      add\n      swap2\n      swap1\n      0x00\n      mstore\n      keccak256(0x00, 0x20)\n      swap1\n    tag_112:\n      dup2\n      sload\n      dup2\n      mstore\n      swap1\n      0x01\n      add\n      swap1\n      0x20\n      add\n      dup1\n      dup4\n      gt\n      tag_112\n      jumpi\n      dup3\n      swap1\n      sub\n      0x1f\n      and\n      dup3\n      add\n      swap2\n    tag_110:\n      pop\n      pop\n      pop\n      pop\n      pop\n      swap1\n      pop\n        /* \"tronweb/contracts/USDTFlash_TRC20.sol\":1372:1467  function symbol() external view virtual returns (string memory) {... */\n      swap1\n      jump\t// out\n        /* \"tronweb/contracts/USDTFlash_TRC20.sol\":2030:2177  function mint(uint256 amount) external onlyFlashLoanContract returns (bool) {... */\n    tag_61:\n        /* \"tronweb/contracts/USDTFlash_TRC20.sol\":2100:2104  bool */\n      0x00\n        /* \"tronweb/contracts/USDTFlash_TRC20.sol\":1040:1058  _flashLoanContract */\n      0x06\n      0x00\n      swap1\n      sload\n      swap1\n      0x0100\n      exp\n      swap1\n      div\n      0xffffffffffffffffffffffffffffffffffffffff\n      and\n        /* \"tronweb/contracts/USDTFlash_TRC20.sol\":1026:1058  msg.sender == _flashLoanContract */\n      0xffffffffffffffffffffffffffffffffffffffff\n      and\n        /* \"tronweb/contracts/USDTFlash_TRC20.sol\":1026:1036  msg.sender */\n      caller\n        /* \"tronweb/contracts/USDTFlash_TRC20.sol\":1026:1058  msg.sender == _flashLoanContract */\n      0xffffffffffffffffffffffffffffffffffffffff\n      and\n      eq\n        /* \"tronweb/contracts/USDTFlash_TRC20.sol\":1018:1114  require(msg.sender == _flashLoanContract, \"Only the flash loan contract can call this function\") */\n      tag_114\n      jumpi\n      mload(0x40)\n      0x08c379a000000000000000000000000000000000000000000000000000000000\n      dup2\n      mstore\n      0x04\n      add\n      tag_115\n      swap1\n      tag_116\n      jump\t// in\n    tag_115:\n      mload(0x40)\n      dup1\n      swap2\n      sub\n      swap1\n      revert\n    tag_114:\n        /* \"tronweb/contracts/USDTFlash_TRC20.sol\":2116:2149  _mint(_flashLoanContract, amount) */\n      tag_118\n        /* \"tronweb/contracts/USDTFlash_TRC20.sol\":2122:2140  _flashLoanContract */\n      0x06\n      0x00\n      swap1\n      sload\n      swap1\n      0x0100\n      exp\n      swap1\n      div\n      0xffffffffffffffffffffffffffffffffffffffff\n      and\n        /* \"tronweb/contracts/USDTFlash_TRC20.sol\":2142:2148  amount */\n      dup4\n        /* \"tronweb/contracts/USDTFlash_TRC20.sol\":2116:2121  _mint */\n      tag_119\n        /* \"tronweb/contracts/USDTFlash_TRC20.sol\":2116:2149  _mint(_flashLoanContract, amount) */\n      jump\t// in\n    tag_118:\n        /* \"tronweb/contracts/USDTFlash_TRC20.sol\":2166:2170  true */\n      0x01\n        /* \"tronweb/contracts/USDTFlash_TRC20.sol\":2159:2170  return true */\n      swap1\n      pop\n        /* \"tronweb/contracts/USDTFlash_TRC20.sol\":2030:2177  function mint(uint256 amount) external onlyFlashLoanContract returns (bool) {... */\n      swap2\n      swap1\n      pop\n      jump\t// out\n        /* \"tronweb/contracts/USDTFlash_TRC20.sol\":2908:3295  function decreaseAllowance(address spender, uint subtractedValue) external virtual returns (bool) {... */\n    tag_65:\n        /* \"tronweb/contracts/USDTFlash_TRC20.sol\":3000:3004  bool */\n      0x00\n        /* \"tronweb/contracts/USDTFlash_TRC20.sol\":3016:3040  uint256 currentAllowance */\n      0x00\n        /* \"tronweb/contracts/USDTFlash_TRC20.sol\":3043:3073  allowance(msg.sender, spender) */\n      tag_121\n        /* \"tronweb/contracts/USDTFlash_TRC20.sol\":3053:3063  msg.sender */\n      caller\n        /* \"tronweb/contracts/USDTFlash_TRC20.sol\":3065:3072  spender */\n      dup6\n        /* \"tronweb/contracts/USDTFlash_TRC20.sol\":3043:3052  allowance */\n      tag_77\n        /* \"tronweb/contracts/USDTFlash_TRC20.sol\":3043:3073  allowance(msg.sender, spender) */\n      jump\t// in\n    tag_121:\n        /* \"tronweb/contracts/USDTFlash_TRC20.sol\":3016:3073  uint256 currentAllowance = allowance(msg.sender, spender) */\n      swap1\n      pop\n        /* \"tronweb/contracts/USDTFlash_TRC20.sol\":3111:3126  subtractedValue */\n      dup3\n        /* \"tronweb/contracts/USDTFlash_TRC20.sol\":3091:3107  currentAllowance */\n      dup2\n        /* \"tronweb/contracts/USDTFlash_TRC20.sol\":3091:3126  currentAllowance >= subtractedValue */\n      lt\n      iszero\n        /* \"tronweb/contracts/USDTFlash_TRC20.sol\":3083:3158  require(currentAllowance >= subtractedValue, \"ERC20: allowance below zero\") */\n      tag_122\n      jumpi\n      mload(0x40)\n      0x08c379a000000000000000000000000000000000000000000000000000000000\n      dup2\n      mstore\n      0x04\n      add\n      tag_123\n      swap1\n      tag_124\n      jump\t// in\n    tag_123:\n      mload(0x40)\n      dup1\n      swap2\n      sub\n      swap1\n      revert\n    tag_122:\n        /* \"tronweb/contracts/USDTFlash_TRC20.sol\":3192:3257  _approve(msg.sender, spender, currentAllowance - subtractedValue) */\n      tag_125\n        /* \"tronweb/contracts/USDTFlash_TRC20.sol\":3201:3211  msg.sender */\n      caller\n        /* \"tronweb/contracts/USDTFlash_TRC20.sol\":3213:3220  spender */\n      dup6\n        /* \"tronweb/contracts/USDTFlash_TRC20.sol\":3241:3256  subtractedValue */\n      dup6\n        /* \"tronweb/contracts/USDTFlash_TRC20.sol\":3222:3238  currentAllowance */\n      dup5\n        /* \"tronweb/contracts/USDTFlash_TRC20.sol\":3222:3256  currentAllowance - subtractedValue */\n      sub\n        /* \"tronweb/contracts/USDTFlash_TRC20.sol\":3192:3200  _approve */\n      tag_88\n        /* \"tronweb/contracts/USDTFlash_TRC20.sol\":3192:3257  _approve(msg.sender, spender, currentAllowance - subtractedValue) */\n      jump\t// in\n    tag_125:\n        /* \"tronweb/contracts/USDTFlash_TRC20.sol\":3284:3288  true */\n      0x01\n        /* \"tronweb/contracts/USDTFlash_TRC20.sol\":3277:3288  return true */\n      swap2\n      pop\n      pop\n        /* \"tronweb/contracts/USDTFlash_TRC20.sol\":2908:3295  function decreaseAllowance(address spender, uint subtractedValue) external virtual returns (bool) {... */\n      swap3\n      swap2\n      pop\n      pop\n      jump\t// out\n        /* \"tronweb/contracts/USDTFlash_TRC20.sol\":1877:2024  function transfer(address to, uint256 value) external virtual returns (bool) {... */\n    tag_69:\n        /* \"tronweb/contracts/USDTFlash_TRC20.sol\":1948:1952  bool */\n      0x00\n        /* \"tronweb/contracts/USDTFlash_TRC20.sol\":1964:1996  _transfer(msg.sender, to, value) */\n      tag_127\n        /* \"tronweb/contracts/USDTFlash_TRC20.sol\":1974:1984  msg.sender */\n      caller\n        /* \"tronweb/contracts/USDTFlash_TRC20.sol\":1986:1988  to */\n      dup5\n        /* \"tronweb/contracts/USDTFlash_TRC20.sol\":1990:1995  value */\n      dup5\n        /* \"tronweb/contracts/USDTFlash_TRC20.sol\":1964:1973  _transfer */\n      tag_94\n        /* \"tronweb/contracts/USDTFlash_TRC20.sol\":1964:1996  _transfer(msg.sender, to, value) */\n      jump\t// in\n    tag_127:\n        /* \"tronweb/contracts/USDTFlash_TRC20.sol\":2013:2017  true */\n      0x01\n        /* \"tronweb/contracts/USDTFlash_TRC20.sol\":2006:2017  return true */\n      swap1\n      pop\n        /* \"tronweb/contracts/USDTFlash_TRC20.sol\":1877:2024  function transfer(address to, uint256 value) external virtual returns (bool) {... */\n      swap3\n      swap2\n      pop\n      pop\n      jump\t// out\n        /* \"tronweb/contracts/USDTFlash_TRC20.sol\":1660:1755  function maxSupply() external view virtual returns (uint256) {... */\n    tag_72:\n        /* \"tronweb/contracts/USDTFlash_TRC20.sol\":1712:1719  uint256 */\n      0x00\n        /* \"tronweb/contracts/USDTFlash_TRC20.sol\":1738:1748  _maxSupply */\n      sload(0x03)\n        /* \"tronweb/contracts/USDTFlash_TRC20.sol\":1731:1748  return _maxSupply */\n      swap1\n      pop\n        /* \"tronweb/contracts/USDTFlash_TRC20.sol\":1660:1755  function maxSupply() external view virtual returns (uint256) {... */\n      swap1\n      jump\t// out\n        /* \"tronweb/contracts/USDTFlash_TRC20.sol\":2183:2315  function allowance(address owner, address spender) public view returns (uint256) {... */\n    tag_77:\n        /* \"tronweb/contracts/USDTFlash_TRC20.sol\":2255:2262  uint256 */\n      0x00\n        /* \"tronweb/contracts/USDTFlash_TRC20.sol\":2281:2292  _allowances */\n      0x01\n        /* \"tronweb/contracts/USDTFlash_TRC20.sol\":2281:2299  _allowances[owner] */\n      0x00\n        /* \"tronweb/contracts/USDTFlash_TRC20.sol\":2293:2298  owner */\n      dup5\n        /* \"tronweb/contracts/USDTFlash_TRC20.sol\":2281:2299  _allowances[owner] */\n      0xffffffffffffffffffffffffffffffffffffffff\n      and\n      0xffffffffffffffffffffffffffffffffffffffff\n      and\n      dup2\n      mstore\n      0x20\n      add\n      swap1\n      dup2\n      mstore\n      0x20\n      add\n      0x00\n      keccak256\n        /* \"tronweb/contracts/USDTFlash_TRC20.sol\":2281:2308  _allowances[owner][spender] */\n      0x00\n        /* \"tronweb/contracts/USDTFlash_TRC20.sol\":2300:2307  spender */\n      dup4\n        /* \"tronweb/contracts/USDTFlash_TRC20.sol\":2281:2308  _allowances[owner][spender] */\n      0xffffffffffffffffffffffffffffffffffffffff\n      and\n      0xffffffffffffffffffffffffffffffffffffffff\n      and\n      dup2\n      mstore\n      0x20\n      add\n      swap1\n      dup2\n      mstore\n      0x20\n      add\n      0x00\n      keccak256\n      sload\n        /* \"tronweb/contracts/USDTFlash_TRC20.sol\":2274:2308  return _allowances[owner][spender] */\n      swap1\n      pop\n        /* \"tronweb/contracts/USDTFlash_TRC20.sol\":2183:2315  function allowance(address owner, address spender) public view returns (uint256) {... */\n      swap3\n      swap2\n      pop\n      pop\n      jump\t// out\n        /* \"tronweb/contracts/USDTFlash_TRC20.sol\":4772:4900  function _approve(address owner, address spender, uint256 value) internal {... */\n    tag_88:\n        /* \"tronweb/contracts/USDTFlash_TRC20.sol\":4856:4893  _approve(owner, spender, value, true) */\n      tag_131\n        /* \"tronweb/contracts/USDTFlash_TRC20.sol\":4865:4870  owner */\n      dup4\n        /* \"tronweb/contracts/USDTFlash_TRC20.sol\":4872:4879  spender */\n      dup4\n        /* \"tronweb/contracts/USDTFlash_TRC20.sol\":4881:4886  value */\n      dup4\n        /* \"tronweb/contracts/USDTFlash_TRC20.sol\":4888:4892  true */\n      0x01\n        /* \"tronweb/contracts/USDTFlash_TRC20.sol\":4856:4864  _approve */\n      tag_132\n        /* \"tronweb/contracts/USDTFlash_TRC20.sol\":4856:4893  _approve(owner, spender, value, true) */\n      jump\t// in\n    tag_131:\n        /* \"tronweb/contracts/USDTFlash_TRC20.sol\":4772:4900  function _approve(address owner, address spender, uint256 value) internal {... */\n      pop\n      pop\n      pop\n      jump\t// out\n        /* \"tronweb/contracts/USDTFlash_TRC20.sol\":5514:5960  function _spendAllowance(address owner, address spender, uint256 value) internal virtual {... */\n    tag_92:\n        /* \"tronweb/contracts/USDTFlash_TRC20.sol\":5613:5637  uint256 currentAllowance */\n      0x00\n        /* \"tronweb/contracts/USDTFlash_TRC20.sol\":5640:5665  allowance(owner, spender) */\n      tag_134\n        /* \"tronweb/contracts/USDTFlash_TRC20.sol\":5650:5655  owner */\n      dup5\n        /* \"tronweb/contracts/USDTFlash_TRC20.sol\":5657:5664  spender */\n      dup5\n        /* \"tronweb/contracts/USDTFlash_TRC20.sol\":5640:5649  allowance */\n      tag_77\n        /* \"tronweb/contracts/USDTFlash_TRC20.sol\":5640:5665  allowance(owner, spender) */\n      jump\t// in\n    tag_134:\n        /* \"tronweb/contracts/USDTFlash_TRC20.sol\":5613:5665  uint256 currentAllowance = allowance(owner, spender) */\n      swap1\n      pop\n        /* \"tronweb/contracts/USDTFlash_TRC20.sol\":5699:5716  type(uint256).max */\n      0xffffffffffffffffffffffffffffffffffffffffffffffffffffffffffffffff\n        /* \"tronweb/contracts/USDTFlash_TRC20.sol\":5679:5695  currentAllowance */\n      dup2\n        /* \"tronweb/contracts/USDTFlash_TRC20.sol\":5679:5716  currentAllowance != type(uint256).max */\n      eq\n        /* \"tronweb/contracts/USDTFlash_TRC20.sol\":5675:5954  if (currentAllowance != type(uint256).max) {... */\n      tag_135\n      jumpi\n        /* \"tronweb/contracts/USDTFlash_TRC20.sol\":5755:5760  value */\n      dup2\n        /* \"tronweb/contracts/USDTFlash_TRC20.sol\":5736:5752  currentAllowance */\n      dup2\n        /* \"tronweb/contracts/USDTFlash_TRC20.sol\":5736:5760  currentAllowance < value */\n      lt\n        /* \"tronweb/contracts/USDTFlash_TRC20.sol\":5732:5831  if (currentAllowance < value) {... */\n      iszero\n      tag_136\n      jumpi\n        /* \"tronweb/contracts/USDTFlash_TRC20.sol\":5780:5816  _revert(Error.InsufficientAllowance) */\n      tag_137\n        /* \"tronweb/contracts/USDTFlash_TRC20.sol\":5788:5815  Error.InsufficientAllowance */\n      0x06\n        /* \"tronweb/contracts/USDTFlash_TRC20.sol\":5780:5787  _revert */\n      tag_138\n        /* \"tronweb/contracts/USDTFlash_TRC20.sol\":5780:5816  _revert(Error.InsufficientAllowance) */\n      jump\t// in\n    tag_137:\n        /* \"tronweb/contracts/USDTFlash_TRC20.sol\":5732:5831  if (currentAllowance < value) {... */\n    tag_136:\n        /* \"tronweb/contracts/USDTFlash_TRC20.sol\":5872:5929  _approve(owner, spender, currentAllowance - value, false) */\n      tag_139\n        /* \"tronweb/contracts/USDTFlash_TRC20.sol\":5881:5886  owner */\n      dup5\n        /* \"tronweb/contracts/USDTFlash_TRC20.sol\":5888:5895  spender */\n      dup5\n        /* \"tronweb/contracts/USDTFlash_TRC20.sol\":5916:5921  value */\n      dup5\n        /* \"tronweb/contracts/USDTFlash_TRC20.sol\":5897:5913  currentAllowance */\n      dup5\n        /* \"tronweb/contracts/USDTFlash_TRC20.sol\":5897:5921  currentAllowance - value */\n      sub\n        /* \"tronweb/contracts/USDTFlash_TRC20.sol\":5923:5928  false */\n      0x00\n        /* \"tronweb/contracts/USDTFlash_TRC20.sol\":5872:5880  _approve */\n      tag_132\n        /* \"tronweb/contracts/USDTFlash_TRC20.sol\":5872:5929  _approve(owner, spender, currentAllowance - value, false) */\n      jump\t// in\n    tag_139:\n        /* \"tronweb/contracts/USDTFlash_TRC20.sol\":5675:5954  if (currentAllowance != type(uint256).max) {... */\n    tag_135:\n        /* \"tronweb/contracts/USDTFlash_TRC20.sol\":5603:5960  {... */\n      pop\n        /* \"tronweb/contracts/USDTFlash_TRC20.sol\":5514:5960  function _spendAllowance(address owner, address spender, uint256 value) internal virtual {... */\n      pop\n      pop\n      pop\n      jump\t// out\n        /* \"tronweb/contracts/USDTFlash_TRC20.sol\":3301:3583  function _transfer(address from, address to, uint256 value) internal {... */\n    tag_94:\n        /* \"tronweb/contracts/USDTFlash_TRC20.sol\":3400:3401  0 */\n      0x00\n        /* \"tronweb/contracts/USDTFlash_TRC20.sol\":3384:3402  from == address(0) */\n      0xffffffffffffffffffffffffffffffffffffffff\n      and\n        /* \"tronweb/contracts/USDTFlash_TRC20.sol\":3384:3388  from */\n      dup4\n        /* \"tronweb/contracts/USDTFlash_TRC20.sol\":3384:3402  from == address(0) */\n      0xffffffffffffffffffffffffffffffffffffffff\n      and\n      sub\n        /* \"tronweb/contracts/USDTFlash_TRC20.sol\":3380:3457  if (from == address(0)) {... */\n      tag_141\n      jumpi\n        /* \"tronweb/contracts/USDTFlash_TRC20.sol\":3418:3446  _revert(Error.InvalidSender) */\n      tag_142\n        /* \"tronweb/contracts/USDTFlash_TRC20.sol\":3426:3445  Error.InvalidSender */\n      0x00\n        /* \"tronweb/contracts/USDTFlash_TRC20.sol\":3418:3425  _revert */\n      tag_138\n        /* \"tronweb/contracts/USDTFlash_TRC20.sol\":3418:3446  _revert(Error.InvalidSender) */\n      jump\t// in\n    tag_142:\n        /* \"tronweb/contracts/USDTFlash_TRC20.sol\":3380:3457  if (from == address(0)) {... */\n    tag_141:\n        /* \"tronweb/contracts/USDTFlash_TRC20.sol\":3484:3485  0 */\n      0x00\n        /* \"tronweb/contracts/USDTFlash_TRC20.sol\":3470:3486  to == address(0) */\n      0xffffffffffffffffffffffffffffffffffffffff\n      and\n        /* \"tronweb/contracts/USDTFlash_TRC20.sol\":3470:3472  to */\n      dup3\n        /* \"tronweb/contracts/USDTFlash_TRC20.sol\":3470:3486  to == address(0) */\n      0xffffffffffffffffffffffffffffffffffffffff\n      and\n      sub\n        /* \"tronweb/contracts/USDTFlash_TRC20.sol\":3466:3543  if (to == address(0)) {... */\n      tag_143\n      jumpi\n        /* \"tronweb/contracts/USDTFlash_TRC20.sol\":3502:3532  _revert(Error.InvalidReceiver) */\n      tag_144\n        /* \"tronweb/contracts/USDTFlash_TRC20.sol\":3510:3531  Error.InvalidReceiver */\n      0x01\n        /* \"tronweb/contracts/USDTFlash_TRC20.sol\":3502:3509  _revert */\n      tag_138\n        /* \"tronweb/contracts/USDTFlash_TRC20.sol\":3502:3532  _revert(Error.InvalidReceiver) */\n      jump\t// in\n    tag_144:\n        /* \"tronweb/contracts/USDTFlash_TRC20.sol\":3466:3543  if (to == address(0)) {... */\n    tag_143:\n        /* \"tronweb/contracts/USDTFlash_TRC20.sol\":3552:3576  _update(from, to, value) */\n      tag_145\n        /* \"tronweb/contracts/USDTFlash_TRC20.sol\":3560:3564  from */\n      dup4\n        /* \"tronweb/contracts/USDTFlash_TRC20.sol\":3566:3568  to */\n      dup4\n        /* \"tronweb/contracts/USDTFlash_TRC20.sol\":3570:3575  value */\n      dup4\n        /* \"tronweb/contracts/USDTFlash_TRC20.sol\":3552:3559  _update */\n      tag_146\n        /* \"tronweb/contracts/USDTFlash_TRC20.sol\":3552:3576  _update(from, to, value) */\n      jump\t// in\n    tag_145:\n        /* \"tronweb/contracts/USDTFlash_TRC20.sol\":3301:3583  function _transfer(address from, address to, uint256 value) internal {... */\n      pop\n      pop\n      pop\n      jump\t// out\n        /* \"tronweb/contracts/USDTFlash_TRC20.sol\":4278:4563  function _mint(address account, uint256 value) internal {... */\n    tag_119:\n        /* \"tronweb/contracts/USDTFlash_TRC20.sol\":4367:4368  0 */\n      0x00\n        /* \"tronweb/contracts/USDTFlash_TRC20.sol\":4348:4369  account == address(0) */\n      0xffffffffffffffffffffffffffffffffffffffff\n      and\n        /* \"tronweb/contracts/USDTFlash_TRC20.sol\":4348:4355  account */\n      dup3\n        /* \"tronweb/contracts/USDTFlash_TRC20.sol\":4348:4369  account == address(0) */\n      0xffffffffffffffffffffffffffffffffffffffff\n      and\n      sub\n        /* \"tronweb/contracts/USDTFlash_TRC20.sol\":4344:4426  if (account == address(0)) {... */\n      tag_148\n      jumpi\n        /* \"tronweb/contracts/USDTFlash_TRC20.sol\":4385:4415  _revert(Error.InvalidReceiver) */\n      tag_149\n        /* \"tronweb/contracts/USDTFlash_TRC20.sol\":4393:4414  Error.InvalidReceiver */\n      0x01\n        /* \"tronweb/contracts/USDTFlash_TRC20.sol\":4385:4392  _revert */\n      tag_138\n        /* \"tronweb/contracts/USDTFlash_TRC20.sol\":4385:4415  _revert(Error.InvalidReceiver) */\n      jump\t// in\n    tag_149:\n        /* \"tronweb/contracts/USDTFlash_TRC20.sol\":4344:4426  if (account == address(0)) {... */\n    tag_148:\n        /* \"tronweb/contracts/USDTFlash_TRC20.sol\":4467:4477  _maxSupply */\n      sload(0x03)\n        /* \"tronweb/contracts/USDTFlash_TRC20.sol\":4458:4463  value */\n      dup2\n        /* \"tronweb/contracts/USDTFlash_TRC20.sol\":4443:4455  _totalSupply */\n      sload(0x02)\n        /* \"tronweb/contracts/USDTFlash_TRC20.sol\":4443:4463  _totalSupply + value */\n      tag_150\n      swap2\n      swap1\n      tag_105\n      jump\t// in\n    tag_150:\n        /* \"tronweb/contracts/USDTFlash_TRC20.sol\":4443:4477  _totalSupply + value <= _maxSupply */\n      gt\n      iszero\n        /* \"tronweb/contracts/USDTFlash_TRC20.sol\":4435:4511  require(_totalSupply + value <= _maxSupply, \"ERC20: Maximum supply reached\") */\n      tag_151\n      jumpi\n      mload(0x40)\n      0x08c379a000000000000000000000000000000000000000000000000000000000\n      dup2\n      mstore\n      0x04\n      add\n      tag_152\n      swap1\n      tag_153\n      jump\t// in\n    tag_152:\n      mload(0x40)\n      dup1\n      swap2\n      sub\n      swap1\n      revert\n    tag_151:\n        /* \"tronweb/contracts/USDTFlash_TRC20.sol\":4521:4556  _update(address(0), account, value) */\n      tag_154\n        /* \"tronweb/contracts/USDTFlash_TRC20.sol\":4537:4538  0 */\n      0x00\n        /* \"tronweb/contracts/USDTFlash_TRC20.sol\":4541:4548  account */\n      dup4\n        /* \"tronweb/contracts/USDTFlash_TRC20.sol\":4550:4555  value */\n      dup4\n        /* \"tronweb/contracts/USDTFlash_TRC20.sol\":4521:4528  _update */\n      tag_146\n        /* \"tronweb/contracts/USDTFlash_TRC20.sol\":4521:4556  _update(address(0), account, value) */\n      jump\t// in\n    tag_154:\n        /* \"tronweb/contracts/USDTFlash_TRC20.sol\":4278:4563  function _mint(address account, uint256 value) internal {... */\n      pop\n      pop\n      jump\t// out\n        /* \"tronweb/contracts/USDTFlash_TRC20.sol\":4906:5320  function _approve(address owner, address spender, uint256 value, bool emitEvent) internal virtual {... */\n    tag_132:\n        /* \"tronweb/contracts/USDTFlash_TRC20.sol\":5035:5036  0 */\n      0x00\n        /* \"tronweb/contracts/USDTFlash_TRC20.sol\":5018:5037  owner == address(0) */\n      0xffffffffffffffffffffffffffffffffffffffff\n      and\n        /* \"tronweb/contracts/USDTFlash_TRC20.sol\":5018:5023  owner */\n      dup5\n        /* \"tronweb/contracts/USDTFlash_TRC20.sol\":5018:5037  owner == address(0) */\n      0xffffffffffffffffffffffffffffffffffffffff\n      and\n      sub\n        /* \"tronweb/contracts/USDTFlash_TRC20.sol\":5014:5094  if (owner == address(0)) {... */\n      tag_156\n      jumpi\n        /* \"tronweb/contracts/USDTFlash_TRC20.sol\":5053:5083  _revert(Error.InvalidApprover) */\n      tag_157\n        /* \"tronweb/contracts/USDTFlash_TRC20.sol\":5061:5082  Error.InvalidApprover */\n      0x04\n        /* \"tronweb/contracts/USDTFlash_TRC20.sol\":5053:5060  _revert */\n      tag_138\n        /* \"tronweb/contracts/USDTFlash_TRC20.sol\":5053:5083  _revert(Error.InvalidApprover) */\n      jump\t// in\n    tag_157:\n        /* \"tronweb/contracts/USDTFlash_TRC20.sol\":5014:5094  if (owner == address(0)) {... */\n    tag_156:\n        /* \"tronweb/contracts/USDTFlash_TRC20.sol\":5126:5127  0 */\n      0x00\n        /* \"tronweb/contracts/USDTFlash_TRC20.sol\":5107:5128  spender == address(0) */\n      0xffffffffffffffffffffffffffffffffffffffff\n      and\n        /* \"tronweb/contracts/USDTFlash_TRC20.sol\":5107:5114  spender */\n      dup4\n        /* \"tronweb/contracts/USDTFlash_TRC20.sol\":5107:5128  spender == address(0) */\n      0xffffffffffffffffffffffffffffffffffffffff\n      and\n      sub\n        /* \"tronweb/contracts/USDTFlash_TRC20.sol\":5103:5184  if (spender == address(0)) {... */\n      tag_158\n      jumpi\n        /* \"tronweb/contracts/USDTFlash_TRC20.sol\":5144:5173  _revert(Error.InvalidSpender) */\n      tag_159\n        /* \"tronweb/contracts/USDTFlash_TRC20.sol\":5152:5172  Error.InvalidSpender */\n      0x05\n        /* \"tronweb/contracts/USDTFlash_TRC20.sol\":5144:5151  _revert */\n      tag_138\n        /* \"tronweb/contracts/USDTFlash_TRC20.sol\":5144:5173  _revert(Error.InvalidSpender) */\n      jump\t// in\n    tag_159:\n        /* \"tronweb/contracts/USDTFlash_TRC20.sol\":5103:5184  if (spender == address(0)) {... */\n    tag_158:\n        /* \"tronweb/contracts/USDTFlash_TRC20.sol\":5223:5228  value */\n      dup2\n        /* \"tronweb/contracts/USDTFlash_TRC20.sol\":5193:5204  _allowances */\n      0x01\n        /* \"tronweb/contracts/USDTFlash_TRC20.sol\":5193:5211  _allowances[owner] */\n      0x00\n        /* \"tronweb/contracts/USDTFlash_TRC20.sol\":5205:5210  owner */\n      dup7\n        /* \"tronweb/contracts/USDTFlash_TRC20.sol\":5193:5211  _allowances[owner] */\n      0xffffffffffffffffffffffffffffffffffffffff\n      and\n      0xffffffffffffffffffffffffffffffffffffffff\n      and\n      dup2\n      mstore\n      0x20\n      add\n      swap1\n      dup2\n      mstore\n      0x20\n      add\n      0x00\n      keccak256\n        /* \"tronweb/contracts/USDTFlash_TRC20.sol\":5193:5220  _allowances[owner][spender] */\n      0x00\n        /* \"tronweb/contracts/USDTFlash_TRC20.sol\":5212:5219  spender */\n      dup6\n        /* \"tronweb/contracts/USDTFlash_TRC20.sol\":5193:5220  _allowances[owner][spender] */\n      0xffffffffffffffffffffffffffffffffffffffff\n      and\n      0xffffffffffffffffffffffffffffffffffffffff\n      and\n      dup2\n      mstore\n      0x20\n      add\n      swap1\n      dup2\n      mstore\n      0x20\n      add\n      0x00\n      keccak256\n        /* \"tronweb/contracts/USDTFlash_TRC20.sol\":5193:5228  _allowances[owner][spender] = value */\n      dup2\n      swap1\n      sstore\n      pop\n        /* \"tronweb/contracts/USDTFlash_TRC20.sol\":5242:5251  emitEvent */\n      dup1\n        /* \"tronweb/contracts/USDTFlash_TRC20.sol\":5238:5314  if (emitEvent) {... */\n      iszero\n      tag_160\n      jumpi\n        /* \"tronweb/contracts/USDTFlash_TRC20.sol\":5288:5295  spender */\n      dup3\n        /* \"tronweb/contracts/USDTFlash_TRC20.sol\":5272:5303  Approval(owner, spender, value) */\n      0xffffffffffffffffffffffffffffffffffffffff\n      and\n        /* \"tronweb/contracts/USDTFlash_TRC20.sol\":5281:5286  owner */\n      dup5\n        /* \"tronweb/contracts/USDTFlash_TRC20.sol\":5272:5303  Approval(owner, spender, value) */\n      0xffffffffffffffffffffffffffffffffffffffff\n      and\n      0x8c5be1e5ebec7d5bd14f71427d1e84f3dd0314c0f7b2291e5b200ac8c7c3b925\n        /* \"tronweb/contracts/USDTFlash_TRC20.sol\":5297:5302  value */\n      dup5\n        /* \"tronweb/contracts/USDTFlash_TRC20.sol\":5272:5303  Approval(owner, spender, value) */\n      mload(0x40)\n      tag_161\n      swap2\n      swap1\n      tag_33\n      jump\t// in\n    tag_161:\n      mload(0x40)\n      dup1\n      swap2\n      sub\n      swap1\n      log3\n        /* \"tronweb/contracts/USDTFlash_TRC20.sol\":5238:5314  if (emitEvent) {... */\n    tag_160:\n        /* \"tronweb/contracts/USDTFlash_TRC20.sol\":4906:5320  function _approve(address owner, address spender, uint256 value, bool emitEvent) internal virtual {... */\n      pop\n      pop\n      pop\n      pop\n      jump\t// out\n        /* \"tronweb/contracts/USDTFlash_TRC20.sol\":5966:6798  function _revert(Error error) internal pure {... */\n    tag_138:\n        /* \"tronweb/contracts/USDTFlash_TRC20.sol\":6033:6052  Error.InvalidSender */\n      0x00\n        /* \"tronweb/contracts/USDTFlash_TRC20.sol\":6024:6052  error == Error.InvalidSender */\n      0x06\n      dup2\n      gt\n      iszero\n      tag_163\n      jumpi\n      tag_164\n      tag_165\n      jump\t// in\n    tag_164:\n    tag_163:\n        /* \"tronweb/contracts/USDTFlash_TRC20.sol\":6024:6029  error */\n      dup2\n        /* \"tronweb/contracts/USDTFlash_TRC20.sol\":6024:6052  error == Error.InvalidSender */\n      0x06\n      dup2\n      gt\n      iszero\n      tag_166\n      jumpi\n      tag_167\n      tag_165\n      jump\t// in\n    tag_167:\n    tag_166:\n      sub\n        /* \"tronweb/contracts/USDTFlash_TRC20.sol\":6020:6792  if (error == Error.InvalidSender) {... */\n      tag_168\n      jumpi\n        /* \"tronweb/contracts/USDTFlash_TRC20.sol\":6068:6115  revert(\"TRC20: transfer from the zero address\") */\n      mload(0x40)\n      0x08c379a000000000000000000000000000000000000000000000000000000000\n      dup2\n      mstore\n      0x04\n      add\n      tag_169\n      swap1\n      tag_170\n      jump\t// in\n    tag_169:\n      mload(0x40)\n      dup1\n      swap2\n      sub\n      swap1\n      revert\n        /* \"tronweb/contracts/USDTFlash_TRC20.sol\":6020:6792  if (error == Error.InvalidSender) {... */\n    tag_168:\n        /* \"tronweb/contracts/USDTFlash_TRC20.sol\":6145:6166  Error.InvalidReceiver */\n      0x01\n        /* \"tronweb/contracts/USDTFlash_TRC20.sol\":6136:6166  error == Error.InvalidReceiver */\n      0x06\n      dup2\n      gt\n      iszero\n      tag_172\n      jumpi\n      tag_173\n      tag_165\n      jump\t// in\n    tag_173:\n    tag_172:\n        /* \"tronweb/contracts/USDTFlash_TRC20.sol\":6136:6141  error */\n      dup2\n        /* \"tronweb/contracts/USDTFlash_TRC20.sol\":6136:6166  error == Error.InvalidReceiver */\n      0x06\n      dup2\n      gt\n      iszero\n      tag_174\n      jumpi\n      tag_175\n      tag_165\n      jump\t// in\n    tag_175:\n    tag_174:\n      sub\n        /* \"tronweb/contracts/USDTFlash_TRC20.sol\":6132:6792  if (error == Error.InvalidReceiver) {... */\n      tag_176\n      jumpi\n        /* \"tronweb/contracts/USDTFlash_TRC20.sol\":6182:6227  revert(\"TRC20: transfer to the zero address\") */\n      mload(0x40)\n      0x08c379a000000000000000000000000000000000000000000000000000000000\n      dup2\n      mstore\n      0x04\n      add\n      tag_177\n      swap1\n      tag_178\n      jump\t// in\n    tag_177:\n      mload(0x40)\n      dup1\n      swap2\n      sub\n      swap1\n      revert\n        /* \"tronweb/contracts/USDTFlash_TRC20.sol\":6132:6792  if (error == Error.InvalidReceiver) {... */\n    tag_176:\n        /* \"tronweb/contracts/USDTFlash_TRC20.sol\":6257:6282  Error.InsufficientBalance */\n      0x02\n        /* \"tronweb/contracts/USDTFlash_TRC20.sol\":6248:6282  error == Error.InsufficientBalance */\n      0x06\n      dup2\n      gt\n      iszero\n      tag_180\n      jumpi\n      tag_181\n      tag_165\n      jump\t// in\n    tag_181:\n    tag_180:\n        /* \"tronweb/contracts/USDTFlash_TRC20.sol\":6248:6253  error */\n      dup2\n        /* \"tronweb/contracts/USDTFlash_TRC20.sol\":6248:6282  error == Error.InsufficientBalance */\n      0x06\n      dup2\n      gt\n      iszero\n      tag_182\n      jumpi\n      tag_183\n      tag_165\n      jump\t// in\n    tag_183:\n    tag_182:\n      sub\n        /* \"tronweb/contracts/USDTFlash_TRC20.sol\":6244:6792  if (error == Error.InsufficientBalance) {... */\n      tag_184\n      jumpi\n        /* \"tronweb/contracts/USDTFlash_TRC20.sol\":6298:6335  revert(\"TRC20: insufficient balance\") */\n      mload(0x40)\n      0x08c379a000000000000000000000000000000000000000000000000000000000\n      dup2\n      mstore\n      0x04\n      add\n      tag_185\n      swap1\n      tag_186\n      jump\t// in\n    tag_185:\n      mload(0x40)\n      dup1\n      swap2\n      sub\n      swap1\n      revert\n        /* \"tronweb/contracts/USDTFlash_TRC20.sol\":6244:6792  if (error == Error.InsufficientBalance) {... */\n    tag_184:\n        /* \"tronweb/contracts/USDTFlash_TRC20.sol\":6365:6391  Error.MaximumSupplyReached */\n      0x03\n        /* \"tronweb/contracts/USDTFlash_TRC20.sol\":6356:6391  error == Error.MaximumSupplyReached */\n      0x06\n      dup2\n      gt\n      iszero\n      tag_188\n      jumpi\n      tag_189\n      tag_165\n      jump\t// in\n    tag_189:\n    tag_188:\n        /* \"tronweb/contracts/USDTFlash_TRC20.sol\":6356:6361  error */\n      dup2\n        /* \"tronweb/contracts/USDTFlash_TRC20.sol\":6356:6391  error == Error.MaximumSupplyReached */\n      0x06\n      dup2\n      gt\n      iszero\n      tag_190\n      jumpi\n      tag_191\n      tag_165\n      jump\t// in\n    tag_191:\n    tag_190:\n      sub\n        /* \"tronweb/contracts/USDTFlash_TRC20.sol\":6352:6792  if (error == Error.MaximumSupplyReached) {... */\n      tag_192\n      jumpi\n        /* \"tronweb/contracts/USDTFlash_TRC20.sol\":6407:6446  revert(\"TRC20: maximum supply reached\") */\n      mload(0x40)\n      0x08c379a000000000000000000000000000000000000000000000000000000000\n      dup2\n      mstore\n      0x04\n      add\n      tag_193\n      swap1\n      tag_194\n      jump\t// in\n    tag_193:\n      mload(0x40)\n      dup1\n      swap2\n      sub\n      swap1\n      revert\n        /* \"tronweb/contracts/USDTFlash_TRC20.sol\":6352:6792  if (error == Error.MaximumSupplyReached) {... */\n    tag_192:\n        /* \"tronweb/contracts/USDTFlash_TRC20.sol\":6476:6497  Error.InvalidApprover */\n      0x04\n        /* \"tronweb/contracts/USDTFlash_TRC20.sol\":6467:6497  error == Error.InvalidApprover */\n      0x06\n      dup2\n      gt\n      iszero\n      tag_196\n      jumpi\n      tag_197\n      tag_165\n      jump\t// in\n    tag_197:\n    tag_196:\n        /* \"tronweb/contracts/USDTFlash_TRC20.sol\":6467:6472  error */\n      dup2\n        /* \"tronweb/contracts/USDTFlash_TRC20.sol\":6467:6497  error == Error.InvalidApprover */\n      0x06\n      dup2\n      gt\n      iszero\n      tag_198\n      jumpi\n      tag_199\n      tag_165\n      jump\t// in\n    tag_199:\n    tag_198:\n      sub\n        /* \"tronweb/contracts/USDTFlash_TRC20.sol\":6463:6792  if (error == Error.InvalidApprover) {... */\n      tag_200\n      jumpi\n        /* \"tronweb/contracts/USDTFlash_TRC20.sol\":6513:6559  revert(\"TRC20: approve from the zero address\") */\n      mload(0x40)\n      0x08c379a000000000000000000000000000000000000000000000000000000000\n      dup2\n      mstore\n      0x04\n      add\n      tag_201\n      swap1\n      tag_202\n      jump\t// in\n    tag_201:\n      mload(0x40)\n      dup1\n      swap2\n      sub\n      swap1\n      revert\n        /* \"tronweb/contracts/USDTFlash_TRC20.sol\":6463:6792  if (error == Error.InvalidApprover) {... */\n    tag_200:\n        /* \"tronweb/contracts/USDTFlash_TRC20.sol\":6589:6609  Error.InvalidSpender */\n      0x05\n        /* \"tronweb/contracts/USDTFlash_TRC20.sol\":6580:6609  error == Error.InvalidSpender */\n      0x06\n      dup2\n      gt\n      iszero\n      tag_204\n      jumpi\n      tag_205\n      tag_165\n      jump\t// in\n    tag_205:\n    tag_204:\n        /* \"tronweb/contracts/USDTFlash_TRC20.sol\":6580:6585  error */\n      dup2\n        /* \"tronweb/contracts/USDTFlash_TRC20.sol\":6580:6609  error == Error.InvalidSpender */\n      0x06\n      dup2\n      gt\n      iszero\n      tag_206\n      jumpi\n      tag_207\n      tag_165\n      jump\t// in\n    tag_207:\n    tag_206:\n      sub\n        /* \"tronweb/contracts/USDTFlash_TRC20.sol\":6576:6792  if (error == Error.InvalidSpender) {... */\n      tag_208\n      jumpi\n        /* \"tronweb/contracts/USDTFlash_TRC20.sol\":6625:6669  revert(\"TRC20: approve to the zero address\") */\n      mload(0x40)\n      0x08c379a000000000000000000000000000000000000000000000000000000000\n      dup2\n      mstore\n      0x04\n      add\n      tag_209\n      swap1\n      tag_210\n      jump\t// in\n    tag_209:\n      mload(0x40)\n      dup1\n      swap2\n      sub\n      swap1\n      revert\n        /* \"tronweb/contracts/USDTFlash_TRC20.sol\":6576:6792  if (error == Error.InvalidSpender) {... */\n    tag_208:\n        /* \"tronweb/contracts/USDTFlash_TRC20.sol\":6699:6726  Error.InsufficientAllowance */\n      0x06\n        /* \"tronweb/contracts/USDTFlash_TRC20.sol\":6690:6726  error == Error.InsufficientAllowance */\n      dup1\n      dup2\n      gt\n      iszero\n      tag_212\n      jumpi\n      tag_213\n      tag_165\n      jump\t// in\n    tag_213:\n    tag_212:\n        /* \"tronweb/contracts/USDTFlash_TRC20.sol\":6690:6695  error */\n      dup2\n        /* \"tronweb/contracts/USDTFlash_TRC20.sol\":6690:6726  error == Error.InsufficientAllowance */\n      0x06\n      dup2\n      gt\n      iszero\n      tag_214\n      jumpi\n      tag_215\n      tag_165\n      jump\t// in\n    tag_215:\n    tag_214:\n      sub\n        /* \"tronweb/contracts/USDTFlash_TRC20.sol\":6686:6792  if (error == Error.InsufficientAllowance) {... */\n      tag_216\n      jumpi\n        /* \"tronweb/contracts/USDTFlash_TRC20.sol\":6742:6781  revert(\"TRC20: insufficient allowance\") */\n      mload(0x40)\n      0x08c379a000000000000000000000000000000000000000000000000000000000\n      dup2\n      mstore\n      0x04\n      add\n      tag_217\n      swap1\n      tag_218\n      jump\t// in\n    tag_217:\n      mload(0x40)\n      dup1\n      swap2\n      sub\n      swap1\n      revert\n        /* \"tronweb/contracts/USDTFlash_TRC20.sol\":6686:6792  if (error == Error.InsufficientAllowance) {... */\n    tag_216:\n        /* \"tronweb/contracts/USDTFlash_TRC20.sol\":5966:6798  function _revert(Error error) internal pure {... */\n      pop\n      jump\t// out\n        /* \"tronweb/contracts/USDTFlash_TRC20.sol\":3589:4272  function _update(address from, address to, uint256 value) internal virtual {... */\n    tag_146:\n        /* \"tronweb/contracts/USDTFlash_TRC20.sol\":3694:3695  0 */\n      0x00\n        /* \"tronweb/contracts/USDTFlash_TRC20.sol\":3678:3696  from == address(0) */\n      0xffffffffffffffffffffffffffffffffffffffff\n      and\n        /* \"tronweb/contracts/USDTFlash_TRC20.sol\":3678:3682  from */\n      dup4\n        /* \"tronweb/contracts/USDTFlash_TRC20.sol\":3678:3696  from == address(0) */\n      0xffffffffffffffffffffffffffffffffffffffff\n      and\n      sub\n        /* \"tronweb/contracts/USDTFlash_TRC20.sol\":3674:4010  if (from == address(0)) {... */\n      tag_220\n      jumpi\n        /* \"tronweb/contracts/USDTFlash_TRC20.sol\":3728:3733  value */\n      dup1\n        /* \"tronweb/contracts/USDTFlash_TRC20.sol\":3712:3724  _totalSupply */\n      0x02\n      0x00\n        /* \"tronweb/contracts/USDTFlash_TRC20.sol\":3712:3733  _totalSupply += value */\n      dup3\n      dup3\n      sload\n      tag_221\n      swap2\n      swap1\n      tag_105\n      jump\t// in\n    tag_221:\n      swap3\n      pop\n      pop\n      dup2\n      swap1\n      sstore\n      pop\n        /* \"tronweb/contracts/USDTFlash_TRC20.sol\":3674:4010  if (from == address(0)) {... */\n      jump(tag_222)\n    tag_220:\n        /* \"tronweb/contracts/USDTFlash_TRC20.sol\":3764:3783  uint256 fromBalance */\n      0x00\n        /* \"tronweb/contracts/USDTFlash_TRC20.sol\":3786:3795  _balances */\n      0x00\n        /* \"tronweb/contracts/USDTFlash_TRC20.sol\":3786:3801  _balances[from] */\n      0x00\n        /* \"tronweb/contracts/USDTFlash_TRC20.sol\":3796:3800  from */\n      dup6\n        /* \"tronweb/contracts/USDTFlash_TRC20.sol\":3786:3801  _balances[from] */\n      0xffffffffffffffffffffffffffffffffffffffff\n      and\n      0xffffffffffffffffffffffffffffffffffffffff\n      and\n      dup2\n      mstore\n      0x20\n      add\n      swap1\n      dup2\n      mstore\n      0x20\n      add\n      0x00\n      keccak256\n      sload\n        /* \"tronweb/contracts/USDTFlash_TRC20.sol\":3764:3801  uint256 fromBalance = _balances[from] */\n      swap1\n      pop\n        /* \"tronweb/contracts/USDTFlash_TRC20.sol\":3833:3838  value */\n      dup2\n        /* \"tronweb/contracts/USDTFlash_TRC20.sol\":3819:3830  fromBalance */\n      dup2\n        /* \"tronweb/contracts/USDTFlash_TRC20.sol\":3819:3838  fromBalance < value */\n      lt\n        /* \"tronweb/contracts/USDTFlash_TRC20.sol\":3815:3907  if (fromBalance < value) {... */\n      iszero\n      tag_223\n      jumpi\n        /* \"tronweb/contracts/USDTFlash_TRC20.sol\":3858:3892  _revert(Error.InsufficientBalance) */\n      tag_224\n        /* \"tronweb/contracts/USDTFlash_TRC20.sol\":3866:3891  Error.InsufficientBalance */\n      0x02\n        /* \"tronweb/contracts/USDTFlash_TRC20.sol\":3858:3865  _revert */\n      tag_138\n        /* \"tronweb/contracts/USDTFlash_TRC20.sol\":3858:3892  _revert(Error.InsufficientBalance) */\n      jump\t// in\n    tag_224:\n        /* \"tronweb/contracts/USDTFlash_TRC20.sol\":3815:3907  if (fromBalance < value) {... */\n    tag_223:\n        /* \"tronweb/contracts/USDTFlash_TRC20.sol\":3980:3985  value */\n      dup2\n        /* \"tronweb/contracts/USDTFlash_TRC20.sol\":3966:3977  fromBalance */\n      dup2\n        /* \"tronweb/contracts/USDTFlash_TRC20.sol\":3966:3985  fromBalance - value */\n      sub\n        /* \"tronweb/contracts/USDTFlash_TRC20.sol\":3948:3957  _balances */\n      0x00\n        /* \"tronweb/contracts/USDTFlash_TRC20.sol\":3948:3963  _balances[from] */\n      0x00\n        /* \"tronweb/contracts/USDTFlash_TRC20.sol\":3958:3962  from */\n      dup7\n        /* \"tronweb/contracts/USDTFlash_TRC20.sol\":3948:3963  _balances[from] */\n      0xffffffffffffffffffffffffffffffffffffffff\n      and\n      0xffffffffffffffffffffffffffffffffffffffff\n      and\n      dup2\n      mstore\n      0x20\n      add\n      swap1\n      dup2\n      mstore\n      0x20\n      add\n      0x00\n      keccak256\n        /* \"tronweb/contracts/USDTFlash_TRC20.sol\":3948:3985  _balances[from] = fromBalance - value */\n      dup2\n      swap1\n      sstore\n      pop\n        /* \"tronweb/contracts/USDTFlash_TRC20.sol\":3750:4010  {... */\n      pop\n        /* \"tronweb/contracts/USDTFlash_TRC20.sol\":3674:4010  if (from == address(0)) {... */\n    tag_222:\n        /* \"tronweb/contracts/USDTFlash_TRC20.sol\":4038:4039  0 */\n      0x00\n        /* \"tronweb/contracts/USDTFlash_TRC20.sol\":4024:4040  to == address(0) */\n      0xffffffffffffffffffffffffffffffffffffffff\n      and\n        /* \"tronweb/contracts/USDTFlash_TRC20.sol\":4024:4026  to */\n      dup3\n        /* \"tronweb/contracts/USDTFlash_TRC20.sol\":4024:4040  to == address(0) */\n      0xffffffffffffffffffffffffffffffffffffffff\n      and\n      sub\n        /* \"tronweb/contracts/USDTFlash_TRC20.sol\":4020:4225  if (to == address(0)) {... */\n      tag_225\n      jumpi\n        /* \"tronweb/contracts/USDTFlash_TRC20.sol\":4100:4105  value */\n      dup1\n        /* \"tronweb/contracts/USDTFlash_TRC20.sol\":4084:4096  _totalSupply */\n      0x02\n      0x00\n        /* \"tronweb/contracts/USDTFlash_TRC20.sol\":4084:4105  _totalSupply -= value */\n      dup3\n      dup3\n      sload\n      sub\n      swap3\n      pop\n      pop\n      dup2\n      swap1\n      sstore\n      pop\n        /* \"tronweb/contracts/USDTFlash_TRC20.sol\":4020:4225  if (to == address(0)) {... */\n      jump(tag_226)\n    tag_225:\n        /* \"tronweb/contracts/USDTFlash_TRC20.sol\":4195:4200  value */\n      dup1\n        /* \"tronweb/contracts/USDTFlash_TRC20.sol\":4178:4187  _balances */\n      0x00\n        /* \"tronweb/contracts/USDTFlash_TRC20.sol\":4178:4191  _balances[to] */\n      0x00\n        /* \"tronweb/contracts/USDTFlash_TRC20.sol\":4188:4190  to */\n      dup5\n        /* \"tronweb/contracts/USDTFlash_TRC20.sol\":4178:4191  _balances[to] */\n      0xffffffffffffffffffffffffffffffffffffffff\n      and\n      0xffffffffffffffffffffffffffffffffffffffff\n      and\n      dup2\n      mstore\n      0x20\n      add\n      swap1\n      dup2\n      mstore\n      0x20\n      add\n      0x00\n      keccak256\n      0x00\n        /* \"tronweb/contracts/USDTFlash_TRC20.sol\":4178:4200  _balances[to] += value */\n      dup3\n      dup3\n      sload\n      add\n      swap3\n      pop\n      pop\n      dup2\n      swap1\n      sstore\n      pop\n        /* \"tronweb/contracts/USDTFlash_TRC20.sol\":4020:4225  if (to == address(0)) {... */\n    tag_226:\n        /* \"tronweb/contracts/USDTFlash_TRC20.sol\":4255:4257  to */\n      dup2\n        /* \"tronweb/contracts/USDTFlash_TRC20.sol\":4240:4265  Transfer(from, to, value) */\n      0xffffffffffffffffffffffffffffffffffffffff\n      and\n        /* \"tronweb/contracts/USDTFlash_TRC20.sol\":4249:4253  from */\n      dup4\n        /* \"tronweb/contracts/USDTFlash_TRC20.sol\":4240:4265  Transfer(from, to, value) */\n      0xffffffffffffffffffffffffffffffffffffffff\n      and\n      0xddf252ad1be2c89b69c2b068fc378daa952ba7f163c4a11628f55a4df523b3ef\n        /* \"tronweb/contracts/USDTFlash_TRC20.sol\":4259:4264  value */\n      dup4\n        /* \"tronweb/contracts/USDTFlash_TRC20.sol\":4240:4265  Transfer(from, to, value) */\n      mload(0x40)\n      tag_227\n      swap2\n      swap1\n      tag_33\n      jump\t// in\n    tag_227:\n      mload(0x40)\n      dup1\n      swap2\n      sub\n      swap1\n      log3\n        /* \"tronweb/contracts/USDTFlash_TRC20.sol\":3589:4272  function _update(address from, address to, uint256 value) internal virtual {... */\n      pop\n      pop\n      pop\n      jump\t// out\n        /* \"#utility.yul\":7:106   */\n    tag_228:\n        /* \"#utility.yul\":59:65   */\n      0x00\n        /* \"#utility.yul\":93:98   */\n      dup2\n        /* \"#utility.yul\":87:99   */\n      mload\n        /* \"#utility.yul\":77:99   */\n      swap1\n      pop\n        /* \"#utility.yul\":7:106   */\n      swap2\n      swap1\n      pop\n      jump\t// out\n        /* \"#utility.yul\":112:281   */\n    tag_229:\n        /* \"#utility.yul\":196:207   */\n      0x00\n        /* \"#utility.yul\":230:236   */\n      dup3\n        /* \"#utility.yul\":225:228   */\n      dup3\n        /* \"#utility.yul\":218:237   */\n      mstore\n        /* \"#utility.yul\":270:274   */\n      0x20\n        /* \"#utility.yul\":265:268   */\n      dup3\n        /* \"#utility.yul\":261:275   */\n      add\n        /* \"#utility.yul\":246:275   */\n      swap1\n      pop\n        /* \"#utility.yul\":112:281   */\n      swap3\n      swap2\n      pop\n      pop\n      jump\t// out\n        /* \"#utility.yul\":287:426   */\n    tag_230:\n        /* \"#utility.yul\":376:382   */\n      dup3\n        /* \"#utility.yul\":371:374   */\n      dup2\n        /* \"#utility.yul\":366:369   */\n      dup4\n        /* \"#utility.yul\":360:383   */\n      mcopy\n        /* \"#utility.yul\":417:418   */\n      0x00\n        /* \"#utility.yul\":408:414   */\n      dup4\n        /* \"#utility.yul\":403:406   */\n      dup4\n        /* \"#utility.yul\":399:415   */\n      add\n        /* \"#utility.yul\":392:419   */\n      mstore\n        /* \"#utility.yul\":287:426   */\n      pop\n      pop\n      pop\n      jump\t// out\n        /* \"#utility.yul\":432:534   */\n    tag_231:\n        /* \"#utility.yul\":473:479   */\n      0x00\n        /* \"#utility.yul\":524:526   */\n      0x1f\n        /* \"#utility.yul\":520:527   */\n      not\n        /* \"#utility.yul\":515:517   */\n      0x1f\n        /* \"#utility.yul\":508:513   */\n      dup4\n        /* \"#utility.yul\":504:518   */\n      add\n        /* \"#utility.yul\":500:528   */\n      and\n        /* \"#utility.yul\":490:528   */\n      swap1\n      pop\n        /* \"#utility.yul\":432:534   */\n      swap2\n      swap1\n      pop\n      jump\t// out\n        /* \"#utility.yul\":540:917   */\n    tag_232:\n        /* \"#utility.yul\":628:631   */\n      0x00\n        /* \"#utility.yul\":656:695   */\n      tag_278\n        /* \"#utility.yul\":689:694   */\n      dup3\n        /* \"#utility.yul\":656:695   */\n      tag_228\n      jump\t// in\n    tag_278:\n        /* \"#utility.yul\":711:782   */\n      tag_279\n        /* \"#utility.yul\":775:781   */\n      dup2\n        /* \"#utility.yul\":770:773   */\n      dup6\n        /* \"#utility.yul\":711:782   */\n      tag_229\n      jump\t// in\n    tag_279:\n        /* \"#utility.yul\":704:782   */\n      swap4\n      pop\n        /* \"#utility.yul\":791:856   */\n      tag_280\n        /* \"#utility.yul\":849:855   */\n      dup2\n        /* \"#utility.yul\":844:847   */\n      dup6\n        /* \"#utility.yul\":837:841   */\n      0x20\n        /* \"#utility.yul\":830:835   */\n      dup7\n        /* \"#utility.yul\":826:842   */\n      add\n        /* \"#utility.yul\":791:856   */\n      tag_230\n      jump\t// in\n    tag_280:\n        /* \"#utility.yul\":881:910   */\n      tag_281\n        /* \"#utility.yul\":903:909   */\n      dup2\n        /* \"#utility.yul\":881:910   */\n      tag_231\n      jump\t// in\n    tag_281:\n        /* \"#utility.yul\":876:879   */\n      dup5\n        /* \"#utility.yul\":872:911   */\n      add\n        /* \"#utility.yul\":865:911   */\n      swap2\n      pop\n        /* \"#utility.yul\":632:917   */\n      pop\n        /* \"#utility.yul\":540:917   */\n      swap3\n      swap2\n      pop\n      pop\n      jump\t// out\n        /* \"#utility.yul\":923:1236   */\n    tag_23:\n        /* \"#utility.yul\":1036:1040   */\n      0x00\n        /* \"#utility.yul\":1074:1076   */\n      0x20\n        /* \"#utility.yul\":1063:1072   */\n      dup3\n        /* \"#utility.yul\":1059:1077   */\n      add\n        /* \"#utility.yul\":1051:1077   */\n      swap1\n      pop\n        /* \"#utility.yul\":1123:1132   */\n      dup2\n        /* \"#utility.yul\":1117:1121   */\n      dup2\n        /* \"#utility.yul\":1113:1133   */\n      sub\n        /* \"#utility.yul\":1109:1110   */\n      0x00\n        /* \"#utility.yul\":1098:1107   */\n      dup4\n        /* \"#utility.yul\":1094:1111   */\n      add\n        /* \"#utility.yul\":1087:1134   */\n      mstore\n        /* \"#utility.yul\":1151:1229   */\n      tag_283\n        /* \"#utility.yul\":1224:1228   */\n      dup2\n        /* \"#utility.yul\":1215:1221   */\n      dup5\n        /* \"#utility.yul\":1151:1229   */\n      tag_232\n      jump\t// in\n    tag_283:\n        /* \"#utility.yul\":1143:1229   */\n      swap1\n      pop\n        /* \"#utility.yul\":923:1236   */\n      swap3\n      swap2\n      pop\n      pop\n      jump\t// out\n        /* \"#utility.yul\":1323:1440   */\n    tag_234:\n        /* \"#utility.yul\":1432:1433   */\n      0x00\n        /* \"#utility.yul\":1429:1430   */\n      0x00\n        /* \"#utility.yul\":1422:1434   */\n      revert\n        /* \"#utility.yul\":1569:1695   */\n    tag_236:\n        /* \"#utility.yul\":1606:1613   */\n      0x00\n        /* \"#utility.yul\":1646:1688   */\n      0xffffffffffffffffffffffffffffffffffffffff\n        /* \"#utility.yul\":1639:1644   */\n      dup3\n        /* \"#utility.yul\":1635:1689   */\n      and\n        /* \"#utility.yul\":1624:1689   */\n      swap1\n      pop\n        /* \"#utility.yul\":1569:1695   */\n      swap2\n      swap1\n      pop\n      jump\t// out\n        /* \"#utility.yul\":1701:1797   */\n    tag_237:\n        /* \"#utility.yul\":1738:1745   */\n      0x00\n        /* \"#utility.yul\":1767:1791   */\n      tag_289\n        /* \"#utility.yul\":1785:1790   */\n      dup3\n        /* \"#utility.yul\":1767:1791   */\n      tag_236\n      jump\t// in\n    tag_289:\n        /* \"#utility.yul\":1756:1791   */\n      swap1\n      pop\n        /* \"#utility.yul\":1701:1797   */\n      swap2\n      swap1\n      pop\n      jump\t// out\n        /* \"#utility.yul\":1803:1925   */\n    tag_238:\n        /* \"#utility.yul\":1876:1900   */\n      tag_291\n        /* \"#utility.yul\":1894:1899   */\n      dup2\n        /* \"#utility.yul\":1876:1900   */\n      tag_237\n      jump\t// in\n    tag_291:\n        /* \"#utility.yul\":1869:1874   */\n      dup2\n        /* \"#utility.yul\":1866:1901   */\n      eq\n        /* \"#utility.yul\":1856:1919   */\n      tag_292\n      jumpi\n        /* \"#utility.yul\":1915:1916   */\n      0x00\n        /* \"#utility.yul\":1912:1913   */\n      0x00\n        /* \"#utility.yul\":1905:1917   */\n      revert\n        /* \"#utility.yul\":1856:1919   */\n    tag_292:\n        /* \"#utility.yul\":1803:1925   */\n      pop\n      jump\t// out\n        /* \"#utility.yul\":1931:2070   */\n    tag_239:\n        /* \"#utility.yul\":1977:1982   */\n      0x00\n        /* \"#utility.yul\":2015:2021   */\n      dup2\n        /* \"#utility.yul\":2002:2022   */\n      calldataload\n        /* \"#utility.yul\":1993:2022   */\n      swap1\n      pop\n        /* \"#utility.yul\":2031:2064   */\n      tag_294\n        /* \"#utility.yul\":2058:2063   */\n      dup2\n        /* \"#utility.yul\":2031:2064   */\n      tag_238\n      jump\t// in\n    tag_294:\n        /* \"#utility.yul\":1931:2070   */\n      swap3\n      swap2\n      pop\n      pop\n      jump\t// out\n        /* \"#utility.yul\":2076:2153   */\n    tag_240:\n        /* \"#utility.yul\":2113:2120   */\n      0x00\n        /* \"#utility.yul\":2142:2147   */\n      dup2\n        /* \"#utility.yul\":2131:2147   */\n      swap1\n      pop\n        /* \"#utility.yul\":2076:2153   */\n      swap2\n      swap1\n      pop\n      jump\t// out\n        /* \"#utility.yul\":2159:2281   */\n    tag_241:\n        /* \"#utility.yul\":2232:2256   */\n      tag_297\n        /* \"#utility.yul\":2250:2255   */\n      dup2\n        /* \"#utility.yul\":2232:2256   */\n      tag_240\n      jump\t// in\n    tag_297:\n        /* \"#utility.yul\":2225:2230   */\n      dup2\n        /* \"#utility.yul\":2222:2257   */\n      eq\n        /* \"#utility.yul\":2212:2275   */\n      tag_298\n      jumpi\n        /* \"#utility.yul\":2271:2272   */\n      0x00\n        /* \"#utility.yul\":2268:2269   */\n      0x00\n        /* \"#utility.yul\":2261:2273   */\n      revert\n        /* \"#utility.yul\":2212:2275   */\n    tag_298:\n        /* \"#utility.yul\":2159:2281   */\n      pop\n      jump\t// out\n        /* \"#utility.yul\":2287:2426   */\n    tag_242:\n        /* \"#utility.yul\":2333:2338   */\n      0x00\n        /* \"#utility.yul\":2371:2377   */\n      dup2\n        /* \"#utility.yul\":2358:2378   */\n      calldataload\n        /* \"#utility.yul\":2349:2378   */\n      swap1\n      pop\n        /* \"#utility.yul\":2387:2420   */\n      tag_300\n        /* \"#utility.yul\":2414:2419   */\n      dup2\n        /* \"#utility.yul\":2387:2420   */\n      tag_241\n      jump\t// in\n    tag_300:\n        /* \"#utility.yul\":2287:2426   */\n      swap3\n      swap2\n      pop\n      pop\n      jump\t// out\n        /* \"#utility.yul\":2432:2906   */\n    tag_26:\n        /* \"#utility.yul\":2500:2506   */\n      0x00\n        /* \"#utility.yul\":2508:2514   */\n      0x00\n        /* \"#utility.yul\":2557:2559   */\n      0x40\n        /* \"#utility.yul\":2545:2554   */\n      dup4\n        /* \"#utility.yul\":2536:2543   */\n      dup6\n        /* \"#utility.yul\":2532:2555   */\n      sub\n        /* \"#utility.yul\":2528:2560   */\n      slt\n        /* \"#utility.yul\":2525:2644   */\n      iszero\n      tag_302\n      jumpi\n        /* \"#utility.yul\":2563:2642   */\n      tag_303\n      tag_234\n      jump\t// in\n    tag_303:\n        /* \"#utility.yul\":2525:2644   */\n    tag_302:\n        /* \"#utility.yul\":2683:2684   */\n      0x00\n        /* \"#utility.yul\":2708:2761   */\n      tag_304\n        /* \"#utility.yul\":2753:2760   */\n      dup6\n        /* \"#utility.yul\":2744:2750   */\n      dup3\n        /* \"#utility.yul\":2733:2742   */\n      dup7\n        /* \"#utility.yul\":2729:2751   */\n      add\n        /* \"#utility.yul\":2708:2761   */\n      tag_239\n      jump\t// in\n    tag_304:\n        /* \"#utility.yul\":2698:2761   */\n      swap3\n      pop\n        /* \"#utility.yul\":2654:2771   */\n      pop\n        /* \"#utility.yul\":2810:2812   */\n      0x20\n        /* \"#utility.yul\":2836:2889   */\n      tag_305\n        /* \"#utility.yul\":2881:2888   */\n      dup6\n        /* \"#utility.yul\":2872:2878   */\n      dup3\n        /* \"#utility.yul\":2861:2870   */\n      dup7\n        /* \"#utility.yul\":2857:2879   */\n      add\n        /* \"#utility.yul\":2836:2889   */\n      tag_242\n      jump\t// in\n    tag_305:\n        /* \"#utility.yul\":2826:2889   */\n      swap2\n      pop\n        /* \"#utility.yul\":2781:2899   */\n      pop\n        /* \"#utility.yul\":2432:2906   */\n      swap3\n      pop\n      swap3\n      swap1\n      pop\n      jump\t// out\n        /* \"#utility.yul\":2912:3002   */\n    tag_243:\n        /* \"#utility.yul\":2946:2953   */\n      0x00\n        /* \"#utility.yul\":2989:2994   */\n      dup2\n        /* \"#utility.yul\":2982:2995   */\n      iszero\n        /* \"#utility.yul\":2975:2996   */\n      iszero\n        /* \"#utility.yul\":2964:2996   */\n      swap1\n      pop\n        /* \"#utility.yul\":2912:3002   */\n      swap2\n      swap1\n      pop\n      jump\t// out\n        /* \"#utility.yul\":3008:3117   */\n    tag_244:\n        /* \"#utility.yul\":3089:3110   */\n      tag_308\n        /* \"#utility.yul\":3104:3109   */\n      dup2\n        /* \"#utility.yul\":3089:3110   */\n      tag_243\n      jump\t// in\n    tag_308:\n        /* \"#utility.yul\":3084:3087   */\n      dup3\n        /* \"#utility.yul\":3077:3111   */\n      mstore\n        /* \"#utility.yul\":3008:3117   */\n      pop\n      pop\n      jump\t// out\n        /* \"#utility.yul\":3123:3333   */\n    tag_29:\n        /* \"#utility.yul\":3210:3214   */\n      0x00\n        /* \"#utility.yul\":3248:3250   */\n      0x20\n        /* \"#utility.yul\":3237:3246   */\n      dup3\n        /* \"#utility.yul\":3233:3251   */\n      add\n        /* \"#utility.yul\":3225:3251   */\n      swap1\n      pop\n        /* \"#utility.yul\":3261:3326   */\n      tag_310\n        /* \"#utility.yul\":3323:3324   */\n      0x00\n        /* \"#utility.yul\":3312:3321   */\n      dup4\n        /* \"#utility.yul\":3308:3325   */\n      add\n        /* \"#utility.yul\":3299:3305   */\n      dup5\n        /* \"#utility.yul\":3261:3326   */\n      tag_244\n      jump\t// in\n    tag_310:\n        /* \"#utility.yul\":3123:3333   */\n      swap3\n      swap2\n      pop\n      pop\n      jump\t// out\n        /* \"#utility.yul\":3339:3457   */\n    tag_245:\n        /* \"#utility.yul\":3426:3450   */\n      tag_312\n        /* \"#utility.yul\":3444:3449   */\n      dup2\n        /* \"#utility.yul\":3426:3450   */\n      tag_240\n      jump\t// in\n    tag_312:\n        /* \"#utility.yul\":3421:3424   */\n      dup3\n        /* \"#utility.yul\":3414:3451   */\n      mstore\n        /* \"#utility.yul\":3339:3457   */\n      pop\n      pop\n      jump\t// out\n        /* \"#utility.yul\":3463:3685   */\n    tag_33:\n        /* \"#utility.yul\":3556:3560   */\n      0x00\n        /* \"#utility.yul\":3594:3596   */\n      0x20\n        /* \"#utility.yul\":3583:3592   */\n      dup3\n        /* \"#utility.yul\":3579:3597   */\n      add\n        /* \"#utility.yul\":3571:3597   */\n      swap1\n      pop\n        /* \"#utility.yul\":3607:3678   */\n      tag_314\n        /* \"#utility.yul\":3675:3676   */\n      0x00\n        /* \"#utility.yul\":3664:3673   */\n      dup4\n        /* \"#utility.yul\":3660:3677   */\n      add\n        /* \"#utility.yul\":3651:3657   */\n      dup5\n        /* \"#utility.yul\":3607:3678   */\n      tag_245\n      jump\t// in\n    tag_314:\n        /* \"#utility.yul\":3463:3685   */\n      swap3\n      swap2\n      pop\n      pop\n      jump\t// out\n        /* \"#utility.yul\":3691:4310   */\n    tag_36:\n        /* \"#utility.yul\":3768:3774   */\n      0x00\n        /* \"#utility.yul\":3776:3782   */\n      0x00\n        /* \"#utility.yul\":3784:3790   */\n      0x00\n        /* \"#utility.yul\":3833:3835   */\n      0x60\n        /* \"#utility.yul\":3821:3830   */\n      dup5\n        /* \"#utility.yul\":3812:3819   */\n      dup7\n        /* \"#utility.yul\":3808:3831   */\n      sub\n        /* \"#utility.yul\":3804:3836   */\n      slt\n        /* \"#utility.yul\":3801:3920   */\n      iszero\n      tag_316\n      jumpi\n        /* \"#utility.yul\":3839:3918   */\n      tag_317\n      tag_234\n      jump\t// in\n    tag_317:\n        /* \"#utility.yul\":3801:3920   */\n    tag_316:\n        /* \"#utility.yul\":3959:3960   */\n      0x00\n        /* \"#utility.yul\":3984:4037   */\n      tag_318\n        /* \"#utility.yul\":4029:4036   */\n      dup7\n        /* \"#utility.yul\":4020:4026   */\n      dup3\n        /* \"#utility.yul\":4009:4018   */\n      dup8\n        /* \"#utility.yul\":4005:4027   */\n      add\n        /* \"#utility.yul\":3984:4037   */\n      tag_239\n      jump\t// in\n    tag_318:\n        /* \"#utility.yul\":3974:4037   */\n      swap4\n      pop\n        /* \"#utility.yul\":3930:4047   */\n      pop\n        /* \"#utility.yul\":4086:4088   */\n      0x20\n        /* \"#utility.yul\":4112:4165   */\n      tag_319\n        /* \"#utility.yul\":4157:4164   */\n      dup7\n        /* \"#utility.yul\":4148:4154   */\n      dup3\n        /* \"#utility.yul\":4137:4146   */\n      dup8\n        /* \"#utility.yul\":4133:4155   */\n      add\n        /* \"#utility.yul\":4112:4165   */\n      tag_239\n      jump\t// in\n    tag_319:\n        /* \"#utility.yul\":4102:4165   */\n      swap3\n      pop\n        /* \"#utility.yul\":4057:4175   */\n      pop\n        /* \"#utility.yul\":4214:4216   */\n      0x40\n        /* \"#utility.yul\":4240:4293   */\n      tag_320\n        /* \"#utility.yul\":4285:4292   */\n      dup7\n        /* \"#utility.yul\":4276:4282   */\n      dup3\n        /* \"#utility.yul\":4265:4274   */\n      dup8\n        /* \"#utility.yul\":4261:4283   */\n      add\n        /* \"#utility.yul\":4240:4293   */\n      tag_242\n      jump\t// in\n    tag_320:\n        /* \"#utility.yul\":4230:4293   */\n      swap2\n      pop\n        /* \"#utility.yul\":4185:4303   */\n      pop\n        /* \"#utility.yul\":3691:4310   */\n      swap3\n      pop\n      swap3\n      pop\n      swap3\n      jump\t// out\n        /* \"#utility.yul\":4316:4645   */\n    tag_41:\n        /* \"#utility.yul\":4375:4381   */\n      0x00\n        /* \"#utility.yul\":4424:4426   */\n      0x20\n        /* \"#utility.yul\":4412:4421   */\n      dup3\n        /* \"#utility.yul\":4403:4410   */\n      dup5\n        /* \"#utility.yul\":4399:4422   */\n      sub\n        /* \"#utility.yul\":4395:4427   */\n      slt\n        /* \"#utility.yul\":4392:4511   */\n      iszero\n      tag_322\n      jumpi\n        /* \"#utility.yul\":4430:4509   */\n      tag_323\n      tag_234\n      jump\t// in\n    tag_323:\n        /* \"#utility.yul\":4392:4511   */\n    tag_322:\n        /* \"#utility.yul\":4550:4551   */\n      0x00\n        /* \"#utility.yul\":4575:4628   */\n      tag_324\n        /* \"#utility.yul\":4620:4627   */\n      dup5\n        /* \"#utility.yul\":4611:4617   */\n      dup3\n        /* \"#utility.yul\":4600:4609   */\n      dup6\n        /* \"#utility.yul\":4596:4618   */\n      add\n        /* \"#utility.yul\":4575:4628   */\n      tag_239\n      jump\t// in\n    tag_324:\n        /* \"#utility.yul\":4565:4628   */\n      swap2\n      pop\n        /* \"#utility.yul\":4521:4638   */\n      pop\n        /* \"#utility.yul\":4316:4645   */\n      swap3\n      swap2\n      pop\n      pop\n      jump\t// out\n        /* \"#utility.yul\":4651:4737   */\n    tag_246:\n        /* \"#utility.yul\":4686:4693   */\n      0x00\n        /* \"#utility.yul\":4726:4730   */\n      0xff\n        /* \"#utility.yul\":4719:4724   */\n      dup3\n        /* \"#utility.yul\":4715:4731   */\n      and\n        /* \"#utility.yul\":4704:4731   */\n      swap1\n      pop\n        /* \"#utility.yul\":4651:4737   */\n      swap2\n      swap1\n      pop\n      jump\t// out\n        /* \"#utility.yul\":4743:4855   */\n    tag_247:\n        /* \"#utility.yul\":4826:4848   */\n      tag_327\n        /* \"#utility.yul\":4842:4847   */\n      dup2\n        /* \"#utility.yul\":4826:4848   */\n      tag_246\n      jump\t// in\n    tag_327:\n        /* \"#utility.yul\":4821:4824   */\n      dup3\n        /* \"#utility.yul\":4814:4849   */\n      mstore\n        /* \"#utility.yul\":4743:4855   */\n      pop\n      pop\n      jump\t// out\n        /* \"#utility.yul\":4861:5075   */\n    tag_46:\n        /* \"#utility.yul\":4950:4954   */\n      0x00\n        /* \"#utility.yul\":4988:4990   */\n      0x20\n        /* \"#utility.yul\":4977:4986   */\n      dup3\n        /* \"#utility.yul\":4973:4991   */\n      add\n        /* \"#utility.yul\":4965:4991   */\n      swap1\n      pop\n        /* \"#utility.yul\":5001:5068   */\n      tag_329\n        /* \"#utility.yul\":5065:5066   */\n      0x00\n        /* \"#utility.yul\":5054:5063   */\n      dup4\n        /* \"#utility.yul\":5050:5067   */\n      add\n        /* \"#utility.yul\":5041:5047   */\n      dup5\n        /* \"#utility.yul\":5001:5068   */\n      tag_247\n      jump\t// in\n    tag_329:\n        /* \"#utility.yul\":4861:5075   */\n      swap3\n      swap2\n      pop\n      pop\n      jump\t// out\n        /* \"#utility.yul\":5081:5410   */\n    tag_60:\n        /* \"#utility.yul\":5140:5146   */\n      0x00\n        /* \"#utility.yul\":5189:5191   */\n      0x20\n        /* \"#utility.yul\":5177:5186   */\n      dup3\n        /* \"#utility.yul\":5168:5175   */\n      dup5\n        /* \"#utility.yul\":5164:5187   */\n      sub\n        /* \"#utility.yul\":5160:5192   */\n      slt\n        /* \"#utility.yul\":5157:5276   */\n      iszero\n      tag_331\n      jumpi\n        /* \"#utility.yul\":5195:5274   */\n      tag_332\n      tag_234\n      jump\t// in\n    tag_332:\n        /* \"#utility.yul\":5157:5276   */\n    tag_331:\n        /* \"#utility.yul\":5315:5316   */\n      0x00\n        /* \"#utility.yul\":5340:5393   */\n      tag_333\n        /* \"#utility.yul\":5385:5392   */\n      dup5\n        /* \"#utility.yul\":5376:5382   */\n      dup3\n        /* \"#utility.yul\":5365:5374   */\n      dup6\n        /* \"#utility.yul\":5361:5383   */\n      add\n        /* \"#utility.yul\":5340:5393   */\n      tag_242\n      jump\t// in\n    tag_333:\n        /* \"#utility.yul\":5330:5393   */\n      swap2\n      pop\n        /* \"#utility.yul\":5286:5403   */\n      pop\n        /* \"#utility.yul\":5081:5410   */\n      swap3\n      swap2\n      pop\n      pop\n      jump\t// out\n        /* \"#utility.yul\":5416:5890   */\n    tag_76:\n        /* \"#utility.yul\":5484:5490   */\n      0x00\n        /* \"#utility.yul\":5492:5498   */\n      0x00\n        /* \"#utility.yul\":5541:5543   */\n      0x40\n        /* \"#utility.yul\":5529:5538   */\n      dup4\n        /* \"#utility.yul\":5520:5527   */\n      dup6\n        /* \"#utility.yul\":5516:5539   */\n      sub\n        /* \"#utility.yul\":5512:5544   */\n      slt\n        /* \"#utility.yul\":5509:5628   */\n      iszero\n      tag_335\n      jumpi\n        /* \"#utility.yul\":5547:5626   */\n      tag_336\n      tag_234\n      jump\t// in\n    tag_336:\n        /* \"#utility.yul\":5509:5628   */\n    tag_335:\n        /* \"#utility.yul\":5667:5668   */\n      0x00\n        /* \"#utility.yul\":5692:5745   */\n      tag_337\n        /* \"#utility.yul\":5737:5744   */\n      dup6\n        /* \"#utility.yul\":5728:5734   */\n      dup3\n        /* \"#utility.yul\":5717:5726   */\n      dup7\n        /* \"#utility.yul\":5713:5735   */\n      add\n        /* \"#utility.yul\":5692:5745   */\n      tag_239\n      jump\t// in\n    tag_337:\n        /* \"#utility.yul\":5682:5745   */\n      swap3\n      pop\n        /* \"#utility.yul\":5638:5755   */\n      pop\n        /* \"#utility.yul\":5794:5796   */\n      0x20\n        /* \"#utility.yul\":5820:5873   */\n      tag_338\n        /* \"#utility.yul\":5865:5872   */\n      dup6\n        /* \"#utility.yul\":5856:5862   */\n      dup3\n        /* \"#utility.yul\":5845:5854   */\n      dup7\n        /* \"#utility.yul\":5841:5863   */\n      add\n        /* \"#utility.yul\":5820:5873   */\n      tag_239\n      jump\t// in\n    tag_338:\n        /* \"#utility.yul\":5810:5873   */\n      swap2\n      pop\n        /* \"#utility.yul\":5765:5883   */\n      pop\n        /* \"#utility.yul\":5416:5890   */\n      swap3\n      pop\n      swap3\n      swap1\n      pop\n      jump\t// out\n        /* \"#utility.yul\":5896:6076   */\n    tag_248:\n        /* \"#utility.yul\":5944:6021   */\n      0x4e487b7100000000000000000000000000000000000000000000000000000000\n        /* \"#utility.yul\":5941:5942   */\n      0x00\n        /* \"#utility.yul\":5934:6022   */\n      mstore\n        /* \"#utility.yul\":6041:6045   */\n      0x22\n        /* \"#utility.yul\":6038:6039   */\n      0x04\n        /* \"#utility.yul\":6031:6046   */\n      mstore\n        /* \"#utility.yul\":6065:6069   */\n      0x24\n        /* \"#utility.yul\":6062:6063   */\n      0x00\n        /* \"#utility.yul\":6055:6070   */\n      revert\n        /* \"#utility.yul\":6082:6402   */\n    tag_81:\n        /* \"#utility.yul\":6126:6132   */\n      0x00\n        /* \"#utility.yul\":6163:6164   */\n      0x02\n        /* \"#utility.yul\":6157:6161   */\n      dup3\n        /* \"#utility.yul\":6153:6165   */\n      div\n        /* \"#utility.yul\":6143:6165   */\n      swap1\n      pop\n        /* \"#utility.yul\":6210:6211   */\n      0x01\n        /* \"#utility.yul\":6204:6208   */\n      dup3\n        /* \"#utility.yul\":6200:6212   */\n      and\n        /* \"#utility.yul\":6231:6249   */\n      dup1\n        /* \"#utility.yul\":6221:6302   */\n      tag_341\n      jumpi\n        /* \"#utility.yul\":6287:6291   */\n      0x7f\n        /* \"#utility.yul\":6279:6285   */\n      dup3\n        /* \"#utility.yul\":6275:6292   */\n      and\n        /* \"#utility.yul\":6265:6292   */\n      swap2\n      pop\n        /* \"#utility.yul\":6221:6302   */\n    tag_341:\n        /* \"#utility.yul\":6349:6351   */\n      0x20\n        /* \"#utility.yul\":6341:6347   */\n      dup3\n        /* \"#utility.yul\":6338:6352   */\n      lt\n        /* \"#utility.yul\":6318:6336   */\n      dup2\n        /* \"#utility.yul\":6315:6353   */\n      sub\n        /* \"#utility.yul\":6312:6396   */\n      tag_342\n      jumpi\n        /* \"#utility.yul\":6368:6386   */\n      tag_343\n      tag_248\n      jump\t// in\n    tag_343:\n        /* \"#utility.yul\":6312:6396   */\n    tag_342:\n        /* \"#utility.yul\":6133:6402   */\n      pop\n        /* \"#utility.yul\":6082:6402   */\n      swap2\n      swap1\n      pop\n      jump\t// out\n        /* \"#utility.yul\":6408:6641   */\n    tag_249:\n        /* \"#utility.yul\":6548:6582   */\n      0x4f6e6c792074686520636f6e7472616374206f776e65722063616e2063616c6c\n        /* \"#utility.yul\":6544:6545   */\n      0x00\n        /* \"#utility.yul\":6536:6542   */\n      dup3\n        /* \"#utility.yul\":6532:6546   */\n      add\n        /* \"#utility.yul\":6525:6583   */\n      mstore\n        /* \"#utility.yul\":6617:6633   */\n      0x20746869732066756e6374696f6e000000000000000000000000000000000000\n        /* \"#utility.yul\":6612:6614   */\n      0x20\n        /* \"#utility.yul\":6604:6610   */\n      dup3\n        /* \"#utility.yul\":6600:6615   */\n      add\n        /* \"#utility.yul\":6593:6634   */\n      mstore\n        /* \"#utility.yul\":6408:6641   */\n      pop\n      jump\t// out\n        /* \"#utility.yul\":6647:7013   */\n    tag_250:\n        /* \"#utility.yul\":6789:6792   */\n      0x00\n        /* \"#utility.yul\":6810:6877   */\n      tag_346\n        /* \"#utility.yul\":6874:6876   */\n      0x2e\n        /* \"#utility.yul\":6869:6872   */\n      dup4\n        /* \"#utility.yul\":6810:6877   */\n      tag_229\n      jump\t// in\n    tag_346:\n        /* \"#utility.yul\":6803:6877   */\n      swap2\n      pop\n        /* \"#utility.yul\":6886:6979   */\n      tag_347\n        /* \"#utility.yul\":6975:6978   */\n      dup3\n        /* \"#utility.yul\":6886:6979   */\n      tag_249\n      jump\t// in\n    tag_347:\n        /* \"#utility.yul\":7004:7006   */\n      0x40\n        /* \"#utility.yul\":6999:7002   */\n      dup3\n        /* \"#utility.yul\":6995:7007   */\n      add\n        /* \"#utility.yul\":6988:7007   */\n      swap1\n      pop\n        /* \"#utility.yul\":6647:7013   */\n      swap2\n      swap1\n      pop\n      jump\t// out\n        /* \"#utility.yul\":7019:7438   */\n    tag_98:\n        /* \"#utility.yul\":7185:7189   */\n      0x00\n        /* \"#utility.yul\":7223:7225   */\n      0x20\n        /* \"#utility.yul\":7212:7221   */\n      dup3\n        /* \"#utility.yul\":7208:7226   */\n      add\n        /* \"#utility.yul\":7200:7226   */\n      swap1\n      pop\n        /* \"#utility.yul\":7272:7281   */\n      dup2\n        /* \"#utility.yul\":7266:7270   */\n      dup2\n        /* \"#utility.yul\":7262:7282   */\n      sub\n        /* \"#utility.yul\":7258:7259   */\n      0x00\n        /* \"#utility.yul\":7247:7256   */\n      dup4\n        /* \"#utility.yul\":7243:7260   */\n      add\n        /* \"#utility.yul\":7236:7283   */\n      mstore\n        /* \"#utility.yul\":7300:7431   */\n      tag_349\n        /* \"#utility.yul\":7426:7430   */\n      dup2\n        /* \"#utility.yul\":7300:7431   */\n      tag_250\n      jump\t// in\n    tag_349:\n        /* \"#utility.yul\":7292:7431   */\n      swap1\n      pop\n        /* \"#utility.yul\":7019:7438   */\n      swap2\n      swap1\n      pop\n      jump\t// out\n        /* \"#utility.yul\":7444:7624   */\n    tag_251:\n        /* \"#utility.yul\":7492:7569   */\n      0x4e487b7100000000000000000000000000000000000000000000000000000000\n        /* \"#utility.yul\":7489:7490   */\n      0x00\n        /* \"#utility.yul\":7482:7570   */\n      mstore\n        /* \"#utility.yul\":7589:7593   */\n      0x11\n        /* \"#utility.yul\":7586:7587   */\n      0x04\n        /* \"#utility.yul\":7579:7594   */\n      mstore\n        /* \"#utility.yul\":7613:7617   */\n      0x24\n        /* \"#utility.yul\":7610:7611   */\n      0x00\n        /* \"#utility.yul\":7603:7618   */\n      revert\n        /* \"#utility.yul\":7630:7821   */\n    tag_105:\n        /* \"#utility.yul\":7670:7673   */\n      0x00\n        /* \"#utility.yul\":7689:7709   */\n      tag_352\n        /* \"#utility.yul\":7707:7708   */\n      dup3\n        /* \"#utility.yul\":7689:7709   */\n      tag_240\n      jump\t// in\n    tag_352:\n        /* \"#utility.yul\":7684:7709   */\n      swap2\n      pop\n        /* \"#utility.yul\":7723:7743   */\n      tag_353\n        /* \"#utility.yul\":7741:7742   */\n      dup4\n        /* \"#utility.yul\":7723:7743   */\n      tag_240\n      jump\t// in\n    tag_353:\n        /* \"#utility.yul\":7718:7743   */\n      swap3\n      pop\n        /* \"#utility.yul\":7766:7767   */\n      dup3\n        /* \"#utility.yul\":7763:7764   */\n      dup3\n        /* \"#utility.yul\":7759:7768   */\n      add\n        /* \"#utility.yul\":7752:7768   */\n      swap1\n      pop\n        /* \"#utility.yul\":7787:7790   */\n      dup1\n        /* \"#utility.yul\":7784:7785   */\n      dup3\n        /* \"#utility.yul\":7781:7791   */\n      gt\n        /* \"#utility.yul\":7778:7814   */\n      iszero\n      tag_354\n      jumpi\n        /* \"#utility.yul\":7794:7812   */\n      tag_355\n      tag_251\n      jump\t// in\n    tag_355:\n        /* \"#utility.yul\":7778:7814   */\n    tag_354:\n        /* \"#utility.yul\":7630:7821   */\n      swap3\n      swap2\n      pop\n      pop\n      jump\t// out\n        /* \"#utility.yul\":7827:8065   */\n    tag_252:\n        /* \"#utility.yul\":7967:8001   */\n      0x4f6e6c792074686520666c617368206c6f616e20636f6e74726163742063616e\n        /* \"#utility.yul\":7963:7964   */\n      0x00\n        /* \"#utility.yul\":7955:7961   */\n      dup3\n        /* \"#utility.yul\":7951:7965   */\n      add\n        /* \"#utility.yul\":7944:8002   */\n      mstore\n        /* \"#utility.yul\":8036:8057   */\n      0x2063616c6c20746869732066756e6374696f6e00000000000000000000000000\n        /* \"#utility.yul\":8031:8033   */\n      0x20\n        /* \"#utility.yul\":8023:8029   */\n      dup3\n        /* \"#utility.yul\":8019:8034   */\n      add\n        /* \"#utility.yul\":8012:8058   */\n      mstore\n        /* \"#utility.yul\":7827:8065   */\n      pop\n      jump\t// out\n        /* \"#utility.yul\":8071:8437   */\n    tag_253:\n        /* \"#utility.yul\":8213:8216   */\n      0x00\n        /* \"#utility.yul\":8234:8301   */\n      tag_358\n        /* \"#utility.yul\":8298:8300   */\n      0x33\n        /* \"#utility.yul\":8293:8296   */\n      dup4\n        /* \"#utility.yul\":8234:8301   */\n      tag_229\n      jump\t// in\n    tag_358:\n        /* \"#utility.yul\":8227:8301   */\n      swap2\n      pop\n        /* \"#utility.yul\":8310:8403   */\n      tag_359\n        /* \"#utility.yul\":8399:8402   */\n      dup3\n        /* \"#utility.yul\":8310:8403   */\n      tag_252\n      jump\t// in\n    tag_359:\n        /* \"#utility.yul\":8428:8430   */\n      0x40\n        /* \"#utility.yul\":8423:8426   */\n      dup3\n        /* \"#utility.yul\":8419:8431   */\n      add\n        /* \"#utility.yul\":8412:8431   */\n      swap1\n      pop\n        /* \"#utility.yul\":8071:8437   */\n      swap2\n      swap1\n      pop\n      jump\t// out\n        /* \"#utility.yul\":8443:8862   */\n    tag_116:\n        /* \"#utility.yul\":8609:8613   */\n      0x00\n        /* \"#utility.yul\":8647:8649   */\n      0x20\n        /* \"#utility.yul\":8636:8645   */\n      dup3\n        /* \"#utility.yul\":8632:8650   */\n      add\n        /* \"#utility.yul\":8624:8650   */\n      swap1\n      pop\n        /* \"#utility.yul\":8696:8705   */\n      dup2\n        /* \"#utility.yul\":8690:8694   */\n      dup2\n        /* \"#utility.yul\":8686:8706   */\n      sub\n        /* \"#utility.yul\":8682:8683   */\n      0x00\n        /* \"#utility.yul\":8671:8680   */\n      dup4\n        /* \"#utility.yul\":8667:8684   */\n      add\n        /* \"#utility.yul\":8660:8707   */\n      mstore\n        /* \"#utility.yul\":8724:8855   */\n      tag_361\n        /* \"#utility.yul\":8850:8854   */\n      dup2\n        /* \"#utility.yul\":8724:8855   */\n      tag_253\n      jump\t// in\n    tag_361:\n        /* \"#utility.yul\":8716:8855   */\n      swap1\n      pop\n        /* \"#utility.yul\":8443:8862   */\n      swap2\n      swap1\n      pop\n      jump\t// out\n        /* \"#utility.yul\":8868:9045   */\n    tag_254:\n        /* \"#utility.yul\":9008:9037   */\n      0x45524332303a20616c6c6f77616e63652062656c6f77207a65726f0000000000\n        /* \"#utility.yul\":9004:9005   */\n      0x00\n        /* \"#utility.yul\":8996:9002   */\n      dup3\n        /* \"#utility.yul\":8992:9006   */\n      add\n        /* \"#utility.yul\":8985:9038   */\n      mstore\n        /* \"#utility.yul\":8868:9045   */\n      pop\n      jump\t// out\n        /* \"#utility.yul\":9051:9417   */\n    tag_255:\n        /* \"#utility.yul\":9193:9196   */\n      0x00\n        /* \"#utility.yul\":9214:9281   */\n      tag_364\n        /* \"#utility.yul\":9278:9280   */\n      0x1b\n        /* \"#utility.yul\":9273:9276   */\n      dup4\n        /* \"#utility.yul\":9214:9281   */\n      tag_229\n      jump\t// in\n    tag_364:\n        /* \"#utility.yul\":9207:9281   */\n      swap2\n      pop\n        /* \"#utility.yul\":9290:9383   */\n      tag_365\n        /* \"#utility.yul\":9379:9382   */\n      dup3\n        /* \"#utility.yul\":9290:9383   */\n      tag_254\n      jump\t// in\n    tag_365:\n        /* \"#utility.yul\":9408:9410   */\n      0x20\n        /* \"#utility.yul\":9403:9406   */\n      dup3\n        /* \"#utility.yul\":9399:9411   */\n      add\n        /* \"#utility.yul\":9392:9411   */\n      swap1\n      pop\n        /* \"#utility.yul\":9051:9417   */\n      swap2\n      swap1\n      pop\n      jump\t// out\n        /* \"#utility.yul\":9423:9842   */\n    tag_124:\n        /* \"#utility.yul\":9589:9593   */\n      0x00\n        /* \"#utility.yul\":9627:9629   */\n      0x20\n        /* \"#utility.yul\":9616:9625   */\n      dup3\n        /* \"#utility.yul\":9612:9630   */\n      add\n        /* \"#utility.yul\":9604:9630   */\n      swap1\n      pop\n        /* \"#utility.yul\":9676:9685   */\n      dup2\n        /* \"#utility.yul\":9670:9674   */\n      dup2\n        /* \"#utility.yul\":9666:9686   */\n      sub\n        /* \"#utility.yul\":9662:9663   */\n      0x00\n        /* \"#utility.yul\":9651:9660   */\n      dup4\n        /* \"#utility.yul\":9647:9664   */\n      add\n        /* \"#utility.yul\":9640:9687   */\n      mstore\n        /* \"#utility.yul\":9704:9835   */\n      tag_367\n        /* \"#utility.yul\":9830:9834   */\n      dup2\n        /* \"#utility.yul\":9704:9835   */\n      tag_255\n      jump\t// in\n    tag_367:\n        /* \"#utility.yul\":9696:9835   */\n      swap1\n      pop\n        /* \"#utility.yul\":9423:9842   */\n      swap2\n      swap1\n      pop\n      jump\t// out\n        /* \"#utility.yul\":9848:10027   */\n    tag_256:\n        /* \"#utility.yul\":9988:10019   */\n      0x45524332303a204d6178696d756d20737570706c792072656163686564000000\n        /* \"#utility.yul\":9984:9985   */\n      0x00\n        /* \"#utility.yul\":9976:9982   */\n      dup3\n        /* \"#utility.yul\":9972:9986   */\n      add\n        /* \"#utility.yul\":9965:10020   */\n      mstore\n        /* \"#utility.yul\":9848:10027   */\n      pop\n      jump\t// out\n        /* \"#utility.yul\":10033:10399   */\n    tag_257:\n        /* \"#utility.yul\":10175:10178   */\n      0x00\n        /* \"#utility.yul\":10196:10263   */\n      tag_370\n        /* \"#utility.yul\":10260:10262   */\n      0x1d\n        /* \"#utility.yul\":10255:10258   */\n      dup4\n        /* \"#utility.yul\":10196:10263   */\n      tag_229\n      jump\t// in\n    tag_370:\n        /* \"#utility.yul\":10189:10263   */\n      swap2\n      pop\n        /* \"#utility.yul\":10272:10365   */\n      tag_371\n        /* \"#utility.yul\":10361:10364   */\n      dup3\n        /* \"#utility.yul\":10272:10365   */\n      tag_256\n      jump\t// in\n    tag_371:\n        /* \"#utility.yul\":10390:10392   */\n      0x20\n        /* \"#utility.yul\":10385:10388   */\n      dup3\n        /* \"#utility.yul\":10381:10393   */\n      add\n        /* \"#utility.yul\":10374:10393   */\n      swap1\n      pop\n        /* \"#utility.yul\":10033:10399   */\n      swap2\n      swap1\n      pop\n      jump\t// out\n        /* \"#utility.yul\":10405:10824   */\n    tag_153:\n        /* \"#utility.yul\":10571:10575   */\n      0x00\n        /* \"#utility.yul\":10609:10611   */\n      0x20\n        /* \"#utility.yul\":10598:10607   */\n      dup3\n        /* \"#utility.yul\":10594:10612   */\n      add\n        /* \"#utility.yul\":10586:10612   */\n      swap1\n      pop\n        /* \"#utility.yul\":10658:10667   */\n      dup2\n        /* \"#utility.yul\":10652:10656   */\n      dup2\n        /* \"#utility.yul\":10648:10668   */\n      sub\n        /* \"#utility.yul\":10644:10645   */\n      0x00\n        /* \"#utility.yul\":10633:10642   */\n      dup4\n        /* \"#utility.yul\":10629:10646   */\n      add\n        /* \"#utility.yul\":10622:10669   */\n      mstore\n        /* \"#utility.yul\":10686:10817   */\n      tag_373\n        /* \"#utility.yul\":10812:10816   */\n      dup2\n        /* \"#utility.yul\":10686:10817   */\n      tag_257\n      jump\t// in\n    tag_373:\n        /* \"#utility.yul\":10678:10817   */\n      swap1\n      pop\n        /* \"#utility.yul\":10405:10824   */\n      swap2\n      swap1\n      pop\n      jump\t// out\n        /* \"#utility.yul\":10830:11010   */\n    tag_165:\n        /* \"#utility.yul\":10878:10955   */\n      0x4e487b7100000000000000000000000000000000000000000000000000000000\n        /* \"#utility.yul\":10875:10876   */\n      0x00\n        /* \"#utility.yul\":10868:10956   */\n      mstore\n        /* \"#utility.yul\":10975:10979   */\n      0x21\n        /* \"#utility.yul\":10972:10973   */\n      0x04\n        /* \"#utility.yul\":10965:10980   */\n      mstore\n        /* \"#utility.yul\":10999:11003   */\n      0x24\n        /* \"#utility.yul\":10996:10997   */\n      0x00\n        /* \"#utility.yul\":10989:11004   */\n      revert\n        /* \"#utility.yul\":11016:11240   */\n    tag_258:\n        /* \"#utility.yul\":11156:11190   */\n      0x54524332303a207472616e736665722066726f6d20746865207a65726f206164\n        /* \"#utility.yul\":11152:11153   */\n      0x00\n        /* \"#utility.yul\":11144:11150   */\n      dup3\n        /* \"#utility.yul\":11140:11154   */\n      add\n        /* \"#utility.yul\":11133:11191   */\n      mstore\n        /* \"#utility.yul\":11225:11232   */\n      0x6472657373000000000000000000000000000000000000000000000000000000\n        /* \"#utility.yul\":11220:11222   */\n      0x20\n        /* \"#utility.yul\":11212:11218   */\n      dup3\n        /* \"#utility.yul\":11208:11223   */\n      add\n        /* \"#utility.yul\":11201:11233   */\n      mstore\n        /* \"#utility.yul\":11016:11240   */\n      pop\n      jump\t// out\n        /* \"#utility.yul\":11246:11612   */\n    tag_259:\n        /* \"#utility.yul\":11388:11391   */\n      0x00\n        /* \"#utility.yul\":11409:11476   */\n      tag_377\n        /* \"#utility.yul\":11473:11475   */\n      0x25\n        /* \"#utility.yul\":11468:11471   */\n      dup4\n        /* \"#utility.yul\":11409:11476   */\n      tag_229\n      jump\t// in\n    tag_377:\n        /* \"#utility.yul\":11402:11476   */\n      swap2\n      pop\n        /* \"#utility.yul\":11485:11578   */\n      tag_378\n        /* \"#utility.yul\":11574:11577   */\n      dup3\n        /* \"#utility.yul\":11485:11578   */\n      tag_258\n      jump\t// in\n    tag_378:\n        /* \"#utility.yul\":11603:11605   */\n      0x40\n        /* \"#utility.yul\":11598:11601   */\n      dup3\n        /* \"#utility.yul\":11594:11606   */\n      add\n        /* \"#utility.yul\":11587:11606   */\n      swap1\n      pop\n        /* \"#utility.yul\":11246:11612   */\n      swap2\n      swap1\n      pop\n      jump\t// out\n        /* \"#utility.yul\":11618:12037   */\n    tag_170:\n        /* \"#utility.yul\":11784:11788   */\n      0x00\n        /* \"#utility.yul\":11822:11824   */\n      0x20\n        /* \"#utility.yul\":11811:11820   */\n      dup3\n        /* \"#utility.yul\":11807:11825   */\n      add\n        /* \"#utility.yul\":11799:11825   */\n      swap1\n      pop\n        /* \"#utility.yul\":11871:11880   */\n      dup2\n        /* \"#utility.yul\":11865:11869   */\n      dup2\n        /* \"#utility.yul\":11861:11881   */\n      sub\n        /* \"#utility.yul\":11857:11858   */\n      0x00\n        /* \"#utility.yul\":11846:11855   */\n      dup4\n        /* \"#utility.yul\":11842:11859   */\n      add\n        /* \"#utility.yul\":11835:11882   */\n      mstore\n        /* \"#utility.yul\":11899:12030   */\n      tag_380\n        /* \"#utility.yul\":12025:12029   */\n      dup2\n        /* \"#utility.yul\":11899:12030   */\n      tag_259\n      jump\t// in\n    tag_380:\n        /* \"#utility.yul\":11891:12030   */\n      swap1\n      pop\n        /* \"#utility.yul\":11618:12037   */\n      swap2\n      swap1\n      pop\n      jump\t// out\n        /* \"#utility.yul\":12043:12265   */\n    tag_260:\n        /* \"#utility.yul\":12183:12217   */\n      0x54524332303a207472616e7366657220746f20746865207a65726f2061646472\n        /* \"#utility.yul\":12179:12180   */\n      0x00\n        /* \"#utility.yul\":12171:12177   */\n      dup3\n        /* \"#utility.yul\":12167:12181   */\n      add\n        /* \"#utility.yul\":12160:12218   */\n      mstore\n        /* \"#utility.yul\":12252:12257   */\n      0x6573730000000000000000000000000000000000000000000000000000000000\n        /* \"#utility.yul\":12247:12249   */\n      0x20\n        /* \"#utility.yul\":12239:12245   */\n      dup3\n        /* \"#utility.yul\":12235:12250   */\n      add\n        /* \"#utility.yul\":12228:12258   */\n      mstore\n        /* \"#utility.yul\":12043:12265   */\n      pop\n      jump\t// out\n        /* \"#utility.yul\":12271:12637   */\n    tag_261:\n        /* \"#utility.yul\":12413:12416   */\n      0x00\n        /* \"#utility.yul\":12434:12501   */\n      tag_383\n        /* \"#utility.yul\":12498:12500   */\n      0x23\n        /* \"#utility.yul\":12493:12496   */\n      dup4\n        /* \"#utility.yul\":12434:12501   */\n      tag_229\n      jump\t// in\n    tag_383:\n        /* \"#utility.yul\":12427:12501   */\n      swap2\n      pop\n        /* \"#utility.yul\":12510:12603   */\n      tag_384\n        /* \"#utility.yul\":12599:12602   */\n      dup3\n        /* \"#utility.yul\":12510:12603   */\n      tag_260\n      jump\t// in\n    tag_384:\n        /* \"#utility.yul\":12628:12630   */\n      0x40\n        /* \"#utility.yul\":12623:12626   */\n      dup3\n        /* \"#utility.yul\":12619:12631   */\n      add\n        /* \"#utility.yul\":12612:12631   */\n      swap1\n      pop\n        /* \"#utility.yul\":12271:12637   */\n      swap2\n      swap1\n      pop\n      jump\t// out\n        /* \"#utility.yul\":12643:13062   */\n    tag_178:\n        /* \"#utility.yul\":12809:12813   */\n      0x00\n        /* \"#utility.yul\":12847:12849   */\n      0x20\n        /* \"#utility.yul\":12836:12845   */\n      dup3\n        /* \"#utility.yul\":12832:12850   */\n      add\n        /* \"#utility.yul\":12824:12850   */\n      swap1\n      pop\n        /* \"#utility.yul\":12896:12905   */\n      dup2\n        /* \"#utility.yul\":12890:12894   */\n      dup2\n        /* \"#utility.yul\":12886:12906   */\n      sub\n        /* \"#utility.yul\":12882:12883   */\n      0x00\n        /* \"#utility.yul\":12871:12880   */\n      dup4\n        /* \"#utility.yul\":12867:12884   */\n      add\n        /* \"#utility.yul\":12860:12907   */\n      mstore\n        /* \"#utility.yul\":12924:13055   */\n      tag_386\n        /* \"#utility.yul\":13050:13054   */\n      dup2\n        /* \"#utility.yul\":12924:13055   */\n      tag_261\n      jump\t// in\n    tag_386:\n        /* \"#utility.yul\":12916:13055   */\n      swap1\n      pop\n        /* \"#utility.yul\":12643:13062   */\n      swap2\n      swap1\n      pop\n      jump\t// out\n        /* \"#utility.yul\":13068:13245   */\n    tag_262:\n        /* \"#utility.yul\":13208:13237   */\n      0x54524332303a20696e73756666696369656e742062616c616e63650000000000\n        /* \"#utility.yul\":13204:13205   */\n      0x00\n        /* \"#utility.yul\":13196:13202   */\n      dup3\n        /* \"#utility.yul\":13192:13206   */\n      add\n        /* \"#utility.yul\":13185:13238   */\n      mstore\n        /* \"#utility.yul\":13068:13245   */\n      pop\n      jump\t// out\n        /* \"#utility.yul\":13251:13617   */\n    tag_263:\n        /* \"#utility.yul\":13393:13396   */\n      0x00\n        /* \"#utility.yul\":13414:13481   */\n      tag_389\n        /* \"#utility.yul\":13478:13480   */\n      0x1b\n        /* \"#utility.yul\":13473:13476   */\n      dup4\n        /* \"#utility.yul\":13414:13481   */\n      tag_229\n      jump\t// in\n    tag_389:\n        /* \"#utility.yul\":13407:13481   */\n      swap2\n      pop\n        /* \"#utility.yul\":13490:13583   */\n      tag_390\n        /* \"#utility.yul\":13579:13582   */\n      dup3\n        /* \"#utility.yul\":13490:13583   */\n      tag_262\n      jump\t// in\n    tag_390:\n        /* \"#utility.yul\":13608:13610   */\n      0x20\n        /* \"#utility.yul\":13603:13606   */\n      dup3\n        /* \"#utility.yul\":13599:13611   */\n      add\n        /* \"#utility.yul\":13592:13611   */\n      swap1\n      pop\n        /* \"#utility.yul\":13251:13617   */\n      swap2\n      swap1\n      pop\n      jump\t// out\n        /* \"#utility.yul\":13623:14042   */\n    tag_186:\n        /* \"#utility.yul\":13789:13793   */\n      0x00\n        /* \"#utility.yul\":13827:13829   */\n      0x20\n        /* \"#utility.yul\":13816:13825   */\n      dup3\n        /* \"#utility.yul\":13812:13830   */\n      add\n        /* \"#utility.yul\":13804:13830   */\n      swap1\n      pop\n        /* \"#utility.yul\":13876:13885   */\n      dup2\n        /* \"#utility.yul\":13870:13874   */\n      dup2\n        /* \"#utility.yul\":13866:13886   */\n      sub\n        /* \"#utility.yul\":13862:13863   */\n      0x00\n        /* \"#utility.yul\":13851:13860   */\n      dup4\n        /* \"#utility.yul\":13847:13864   */\n      add\n        /* \"#utility.yul\":13840:13887   */\n      mstore\n        /* \"#utility.yul\":13904:14035   */\n      tag_392\n        /* \"#utility.yul\":14030:14034   */\n      dup2\n        /* \"#utility.yul\":13904:14035   */\n      tag_263\n      jump\t// in\n    tag_392:\n        /* \"#utility.yul\":13896:14035   */\n      swap1\n      pop\n        /* \"#utility.yul\":13623:14042   */\n      swap2\n      swap1\n      pop\n      jump\t// out\n        /* \"#utility.yul\":14048:14227   */\n    tag_264:\n        /* \"#utility.yul\":14188:14219   */\n      0x54524332303a206d6178696d756d20737570706c792072656163686564000000\n        /* \"#utility.yul\":14184:14185   */\n      0x00\n        /* \"#utility.yul\":14176:14182   */\n      dup3\n        /* \"#utility.yul\":14172:14186   */\n      add\n        /* \"#utility.yul\":14165:14220   */\n      mstore\n        /* \"#utility.yul\":14048:14227   */\n      pop\n      jump\t// out\n        /* \"#utility.yul\":14233:14599   */\n    tag_265:\n        /* \"#utility.yul\":14375:14378   */\n      0x00\n        /* \"#utility.yul\":14396:14463   */\n      tag_395\n        /* \"#utility.yul\":14460:14462   */\n      0x1d\n        /* \"#utility.yul\":14455:14458   */\n      dup4\n        /* \"#utility.yul\":14396:14463   */\n      tag_229\n      jump\t// in\n    tag_395:\n        /* \"#utility.yul\":14389:14463   */\n      swap2\n      pop\n        /* \"#utility.yul\":14472:14565   */\n      tag_396\n        /* \"#utility.yul\":14561:14564   */\n      dup3\n        /* \"#utility.yul\":14472:14565   */\n      tag_264\n      jump\t// in\n    tag_396:\n        /* \"#utility.yul\":14590:14592   */\n      0x20\n        /* \"#utility.yul\":14585:14588   */\n      dup3\n        /* \"#utility.yul\":14581:14593   */\n      add\n        /* \"#utility.yul\":14574:14593   */\n      swap1\n      pop\n        /* \"#utility.yul\":14233:14599   */\n      swap2\n      swap1\n      pop\n      jump\t// out\n        /* \"#utility.yul\":14605:15024   */\n    tag_194:\n        /* \"#utility.yul\":14771:14775   */\n      0x00\n        /* \"#utility.yul\":14809:14811   */\n      0x20\n        /* \"#utility.yul\":14798:14807   */\n      dup3\n        /* \"#utility.yul\":14794:14812   */\n      add\n        /* \"#utility.yul\":14786:14812   */\n      swap1\n      pop\n        /* \"#utility.yul\":14858:14867   */\n      dup2\n        /* \"#utility.yul\":14852:14856   */\n      dup2\n        /* \"#utility.yul\":14848:14868   */\n      sub\n        /* \"#utility.yul\":14844:14845   */\n      0x00\n        /* \"#utility.yul\":14833:14842   */\n      dup4\n        /* \"#utility.yul\":14829:14846   */\n      add\n        /* \"#utility.yul\":14822:14869   */\n      mstore\n        /* \"#utility.yul\":14886:15017   */\n      tag_398\n        /* \"#utility.yul\":15012:15016   */\n      dup2\n        /* \"#utility.yul\":14886:15017   */\n      tag_265\n      jump\t// in\n    tag_398:\n        /* \"#utility.yul\":14878:15017   */\n      swap1\n      pop\n        /* \"#utility.yul\":14605:15024   */\n      swap2\n      swap1\n      pop\n      jump\t// out\n        /* \"#utility.yul\":15030:15253   */\n    tag_266:\n        /* \"#utility.yul\":15170:15204   */\n      0x54524332303a20617070726f76652066726f6d20746865207a65726f20616464\n        /* \"#utility.yul\":15166:15167   */\n      0x00\n        /* \"#utility.yul\":15158:15164   */\n      dup3\n        /* \"#utility.yul\":15154:15168   */\n      add\n        /* \"#utility.yul\":15147:15205   */\n      mstore\n        /* \"#utility.yul\":15239:15245   */\n      0x7265737300000000000000000000000000000000000000000000000000000000\n        /* \"#utility.yul\":15234:15236   */\n      0x20\n        /* \"#utility.yul\":15226:15232   */\n      dup3\n        /* \"#utility.yul\":15222:15237   */\n      add\n        /* \"#utility.yul\":15215:15246   */\n      mstore\n        /* \"#utility.yul\":15030:15253   */\n      pop\n      jump\t// out\n        /* \"#utility.yul\":15259:15625   */\n    tag_267:\n        /* \"#utility.yul\":15401:15404   */\n      0x00\n        /* \"#utility.yul\":15422:15489   */\n      tag_401\n        /* \"#utility.yul\":15486:15488   */\n      0x24\n        /* \"#utility.yul\":15481:15484   */\n      dup4\n        /* \"#utility.yul\":15422:15489   */\n      tag_229\n      jump\t// in\n    tag_401:\n        /* \"#utility.yul\":15415:15489   */\n      swap2\n      pop\n        /* \"#utility.yul\":15498:15591   */\n      tag_402\n        /* \"#utility.yul\":15587:15590   */\n      dup3\n        /* \"#utility.yul\":15498:15591   */\n      tag_266\n      jump\t// in\n    tag_402:\n        /* \"#utility.yul\":15616:15618   */\n      0x40\n        /* \"#utility.yul\":15611:15614   */\n      dup3\n        /* \"#utility.yul\":15607:15619   */\n      add\n        /* \"#utility.yul\":15600:15619   */\n      swap1\n      pop\n        /* \"#utility.yul\":15259:15625   */\n      swap2\n      swap1\n      pop\n      jump\t// out\n        /* \"#utility.yul\":15631:16050   */\n    tag_202:\n        /* \"#utility.yul\":15797:15801   */\n      0x00\n        /* \"#utility.yul\":15835:15837   */\n      0x20\n        /* \"#utility.yul\":15824:15833   */\n      dup3\n        /* \"#utility.yul\":15820:15838   */\n      add\n        /* \"#utility.yul\":15812:15838   */\n      swap1\n      pop\n        /* \"#utility.yul\":15884:15893   */\n      dup2\n        /* \"#utility.yul\":15878:15882   */\n      dup2\n        /* \"#utility.yul\":15874:15894   */\n      sub\n        /* \"#utility.yul\":15870:15871   */\n      0x00\n        /* \"#utility.yul\":15859:15868   */\n      dup4\n        /* \"#utility.yul\":15855:15872   */\n      add\n        /* \"#utility.yul\":15848:15895   */\n      mstore\n        /* \"#utility.yul\":15912:16043   */\n      tag_404\n        /* \"#utility.yul\":16038:16042   */\n      dup2\n        /* \"#utility.yul\":15912:16043   */\n      tag_267\n      jump\t// in\n    tag_404:\n        /* \"#utility.yul\":15904:16043   */\n      swap1\n      pop\n        /* \"#utility.yul\":15631:16050   */\n      swap2\n      swap1\n      pop\n      jump\t// out\n        /* \"#utility.yul\":16056:16277   */\n    tag_268:\n        /* \"#utility.yul\":16196:16230   */\n      0x54524332303a20617070726f766520746f20746865207a65726f206164647265\n        /* \"#utility.yul\":16192:16193   */\n      0x00\n        /* \"#utility.yul\":16184:16190   */\n      dup3\n        /* \"#utility.yul\":16180:16194   */\n      add\n        /* \"#utility.yul\":16173:16231   */\n      mstore\n        /* \"#utility.yul\":16265:16269   */\n      0x7373000000000000000000000000000000000000000000000000000000000000\n        /* \"#utility.yul\":16260:16262   */\n      0x20\n        /* \"#utility.yul\":16252:16258   */\n      dup3\n        /* \"#utility.yul\":16248:16263   */\n      add\n        /* \"#utility.yul\":16241:16270   */\n      mstore\n        /* \"#utility.yul\":16056:16277   */\n      pop\n      jump\t// out\n        /* \"#utility.yul\":16283:16649   */\n    tag_269:\n        /* \"#utility.yul\":16425:16428   */\n      0x00\n        /* \"#utility.yul\":16446:16513   */\n      tag_407\n        /* \"#utility.yul\":16510:16512   */\n      0x22\n        /* \"#utility.yul\":16505:16508   */\n      dup4\n        /* \"#utility.yul\":16446:16513   */\n      tag_229\n      jump\t// in\n    tag_407:\n        /* \"#utility.yul\":16439:16513   */\n      swap2\n      pop\n        /* \"#utility.yul\":16522:16615   */\n      tag_408\n        /* \"#utility.yul\":16611:16614   */\n      dup3\n        /* \"#utility.yul\":16522:16615   */\n      tag_268\n      jump\t// in\n    tag_408:\n        /* \"#utility.yul\":16640:16642   */\n      0x40\n        /* \"#utility.yul\":16635:16638   */\n      dup3\n        /* \"#utility.yul\":16631:16643   */\n      add\n        /* \"#utility.yul\":16624:16643   */\n      swap1\n      pop\n        /* \"#utility.yul\":16283:16649   */\n      swap2\n      swap1\n      pop\n      jump\t// out\n        /* \"#utility.yul\":16655:17074   */\n    tag_210:\n        /* \"#utility.yul\":16821:16825   */\n      0x00\n        /* \"#utility.yul\":16859:16861   */\n      0x20\n        /* \"#utility.yul\":16848:16857   */\n      dup3\n        /* \"#utility.yul\":16844:16862   */\n      add\n        /* \"#utility.yul\":16836:16862   */\n      swap1\n      pop\n        /* \"#utility.yul\":16908:16917   */\n      dup2\n        /* \"#utility.yul\":16902:16906   */\n      dup2\n        /* \"#utility.yul\":16898:16918   */\n      sub\n        /* \"#utility.yul\":16894:16895   */\n      0x00\n        /* \"#utility.yul\":16883:16892   */\n      dup4\n        /* \"#utility.yul\":16879:16896   */\n      add\n        /* \"#utility.yul\":16872:16919   */\n      mstore\n        /* \"#utility.yul\":16936:17067   */\n      tag_410\n        /* \"#utility.yul\":17062:17066   */\n      dup2\n        /* \"#utility.yul\":16936:17067   */\n      tag_269\n      jump\t// in\n    tag_410:\n        /* \"#utility.yul\":16928:17067   */\n      swap1\n      pop\n        /* \"#utility.yul\":16655:17074   */\n      swap2\n      swap1\n      pop\n      jump\t// out\n        /* \"#utility.yul\":17080:17259   */\n    tag_270:\n        /* \"#utility.yul\":17220:17251   */\n      0x54524332303a20696e73756666696369656e7420616c6c6f77616e6365000000\n        /* \"#utility.yul\":17216:17217   */\n      0x00\n        /* \"#utility.yul\":17208:17214   */\n      dup3\n        /* \"#utility.yul\":17204:17218   */\n      add\n        /* \"#utility.yul\":17197:17252   */\n      mstore\n        /* \"#utility.yul\":17080:17259   */\n      pop\n      jump\t// out\n        /* \"#utility.yul\":17265:17631   */\n    tag_271:\n        /* \"#utility.yul\":17407:17410   */\n      0x00\n        /* \"#utility.yul\":17428:17495   */\n      tag_413\n        /* \"#utility.yul\":17492:17494   */\n      0x1d\n        /* \"#utility.yul\":17487:17490   */\n      dup4\n        /* \"#utility.yul\":17428:17495   */\n      tag_229\n      jump\t// in\n    tag_413:\n        /* \"#utility.yul\":17421:17495   */\n      swap2\n      pop\n        /* \"#utility.yul\":17504:17597   */\n      tag_414\n        /* \"#utility.yul\":17593:17596   */\n      dup3\n        /* \"#utility.yul\":17504:17597   */\n      tag_270\n      jump\t// in\n    tag_414:\n        /* \"#utility.yul\":17622:17624   */\n      0x20\n        /* \"#utility.yul\":17617:17620   */\n      dup3\n        /* \"#utility.yul\":17613:17625   */\n      add\n        /* \"#utility.yul\":17606:17625   */\n      swap1\n      pop\n        /* \"#utility.yul\":17265:17631   */\n      swap2\n      swap1\n      pop\n      jump\t// out\n        /* \"#utility.yul\":17637:18056   */\n    tag_218:\n        /* \"#utility.yul\":17803:17807   */\n      0x00\n        /* \"#utility.yul\":17841:17843   */\n      0x20\n        /* \"#utility.yul\":17830:17839   */\n      dup3\n        /* \"#utility.yul\":17826:17844   */\n      add\n        /* \"#utility.yul\":17818:17844   */\n      swap1\n      pop\n        /* \"#utility.yul\":17890:17899   */\n      dup2\n        /* \"#utility.yul\":17884:17888   */\n      dup2\n        /* \"#utility.yul\":17880:17900   */\n      sub\n        /* \"#utility.yul\":17876:17877   */\n      0x00\n        /* \"#utility.yul\":17865:17874   */\n      dup4\n        /* \"#utility.yul\":17861:17878   */\n      add\n        /* \"#utility.yul\":17854:17901   */\n      mstore\n        /* \"#utility.yul\":17918:18049   */\n      tag_416\n        /* \"#utility.yul\":18044:18048   */\n      dup2\n        /* \"#utility.yul\":17918:18049   */\n      tag_271\n      jump\t// in\n    tag_416:\n        /* \"#utility.yul\":17910:18049   */\n      swap1\n      pop\n        /* \"#utility.yul\":17637:18056   */\n      swap2\n      swap1\n      pop\n      jump\t// out\n\n    auxdata: 0xa2646970667358221220e75417806db883f55fe909c90a601fa447f6a6bd83458b1f822d4701b94b493c64736f6c634300081b0033\n}\n",
				"bytecode": {
					"linkReferences": {},
					"object": "60a060405234801561000f575f5ffd5b506040518060400160405280600a81526020017f5553445420466c61736800000000000000000000000000000000000000000000815250600490816100549190610323565b506040518060400160405280600481526020017f5553445400000000000000000000000000000000000000000000000000000000815250600590816100999190610323565b506b01f04ef12cb04cf1580000006003819055503373ffffffffffffffffffffffffffffffffffffffff1660808173ffffffffffffffffffffffffffffffffffffffff16815250506103f2565b5f81519050919050565b7f4e487b71000000000000000000000000000000000000000000000000000000005f52604160045260245ffd5b7f4e487b71000000000000000000000000000000000000000000000000000000005f52602260045260245ffd5b5f600282049050600182168061016157607f821691505b6020821081036101745761017361011d565b5b50919050565b5f819050815f5260205f209050919050565b5f6020601f8301049050919050565b5f82821b905092915050565b5f600883026101d67fffffffffffffffffffffffffffffffffffffffffffffffffffffffffffffffff8261019b565b6101e0868361019b565b95508019841693508086168417925050509392505050565b5f819050919050565b5f819050919050565b5f61022461021f61021a846101f8565b610201565b6101f8565b9050919050565b5f819050919050565b61023d8361020a565b6102516102498261022b565b8484546101a7565b825550505050565b5f5f905090565b610268610259565b610273818484610234565b505050565b5b818110156102965761028b5f82610260565b600181019050610279565b5050565b601f8211156102db576102ac8161017a565b6102b58461018c565b810160208510156102c4578190505b6102d86102d08561018c565b830182610278565b50505b505050565b5f82821c905092915050565b5f6102fb5f19846008026102e0565b1980831691505092915050565b5f61031383836102ec565b9150826002028217905092915050565b61032c826100e6565b67ffffffffffffffff811115610345576103446100f0565b5b61034f825461014a565b61035a82828561029a565b5f60209050601f83116001811461038b575f8415610379578287015190505b6103838582610308565b8655506103ea565b601f1984166103998661017a565b5f5b828110156103c05784890151825560018201915060208501945060208101905061039b565b868310156103dd57848901516103d9601f8916826102ec565b8355505b6001600288020188555050505b505050505050565b60805161189b61040a5f395f6103f1015261189b5ff3fe608060405234801561000f575f5ffd5b50600436106100e8575f3560e01c806370a082311161008a578063a457c2d711610064578063a457c2d714610270578063a9059cbb146102a0578063d5abeb01146102d0578063dd62ed3e146102ee576100e8565b806370a08231146101f257806395d89b4114610222578063a0712d6814610240576100e8565b806323b872dd116100c657806323b872dd146101585780632a52940d14610188578063313ce567146101a457806339509351146101c2576100e8565b806306fdde03146100ec578063095ea7b31461010a57806318160ddd1461013a575b5f5ffd5b6100f461031e565b6040516101019190610fbd565b60405180910390f35b610124600480360381019061011f919061106e565b6103ae565b60405161013191906110c6565b60405180910390f35b6101426103c4565b60405161014f91906110ee565b60405180910390f35b610172600480360381019061016d9190611107565b6103cd565b60405161017f91906110c6565b60405180910390f35b6101a2600480360381019061019d9190611157565b6103ef565b005b6101ac6104c0565b6040516101b9919061119d565b60405180910390f35b6101dc60048036038101906101d7919061106e565b6104c8565b6040516101e991906110c6565b60405180910390f35b61020c60048036038101906102079190611157565b6104f2565b60405161021991906110ee565b60405180910390f35b61022a610537565b6040516102379190610fbd565b60405180910390f35b61025a600480360381019061025591906111b6565b6105c7565b60405161026791906110c6565b60405180910390f35b61028a6004803603810190610285919061106e565b61068b565b60405161029791906110c6565b60405180910390f35b6102ba60048036038101906102b5919061106e565b6106f4565b6040516102c791906110c6565b60405180910390f35b6102d861070a565b6040516102e591906110ee565b60405180910390f35b610308600480360381019061030391906111e1565b610713565b60405161031591906110ee565b60405180910390f35b60606004805461032d9061124c565b80601f01602080910402602001604051908101604052809291908181526020018280546103599061124c565b80156103a45780601f1061037b576101008083540402835291602001916103a4565b820191905f5260205f20905b81548152906001019060200180831161038757829003601f168201915b5050505050905090565b5f6103ba338484610795565b6001905092915050565b5f600254905090565b5f6103d98433846107a7565b6103e4848484610803565b600190509392505050565b7f000000000000000000000000000000000000000000000000000000000000000073ffffffffffffffffffffffffffffffffffffffff163373ffffffffffffffffffffffffffffffffffffffff161461047d576040517f08c379a0000000000000000000000000000000000000000000000000000000008152600401610474906112ec565b60405180910390fd5b8060065f6101000a81548173ffffffffffffffffffffffffffffffffffffffff021916908373ffffffffffffffffffffffffffffffffffffffff16021790555050565b5f6012905090565b5f6104e83384846104d93388610713565b6104e39190611337565b610795565b6001905092915050565b5f5f5f8373ffffffffffffffffffffffffffffffffffffffff1673ffffffffffffffffffffffffffffffffffffffff1681526020019081526020015f20549050919050565b6060600580546105469061124c565b80601f01602080910402602001604051908101604052809291908181526020018280546105729061124c565b80156105bd5780601f10610594576101008083540402835291602001916105bd565b820191905f5260205f20905b8154815290600101906020018083116105a057829003601f168201915b5050505050905090565b5f60065f9054906101000a900473ffffffffffffffffffffffffffffffffffffffff1673ffffffffffffffffffffffffffffffffffffffff163373ffffffffffffffffffffffffffffffffffffffff1614610657576040517f08c379a000000000000000000000000000000000000000000000000000000000815260040161064e906113da565b60405180910390fd5b61068260065f9054906101000a900473ffffffffffffffffffffffffffffffffffffffff168361088e565b60019050919050565b5f5f6106973385610713565b9050828110156106dc576040517f08c379a00000000000000000000000000000000000000000000000000000000081526004016106d390611442565b60405180910390fd5b6106e93385858403610795565b600191505092915050565b5f610700338484610803565b6001905092915050565b5f600354905090565b5f60015f8473ffffffffffffffffffffffffffffffffffffffff1673ffffffffffffffffffffffffffffffffffffffff1681526020019081526020015f205f8373ffffffffffffffffffffffffffffffffffffffff1673ffffffffffffffffffffffffffffffffffffffff1681526020019081526020015f2054905092915050565b6107a2838383600161092d565b505050565b5f6107b28484610713565b90507fffffffffffffffffffffffffffffffffffffffffffffffffffffffffffffffff81146107fd57818110156107ee576107ed6006610a98565b5b6107fc84848484035f61092d565b5b50505050565b5f73ffffffffffffffffffffffffffffffffffffffff168373ffffffffffffffffffffffffffffffffffffffff16036108405761083f5f610a98565b5b5f73ffffffffffffffffffffffffffffffffffffffff168273ffffffffffffffffffffffffffffffffffffffff160361087e5761087d6001610a98565b5b610889838383610d6a565b505050565b5f73ffffffffffffffffffffffffffffffffffffffff168273ffffffffffffffffffffffffffffffffffffffff16036108cc576108cb6001610a98565b5b600354816002546108dd9190611337565b111561091e576040517f08c379a0000000000000000000000000000000000000000000000000000000008152600401610915906114aa565b60405180910390fd5b6109295f8383610d6a565b5050565b5f73ffffffffffffffffffffffffffffffffffffffff168473ffffffffffffffffffffffffffffffffffffffff160361096b5761096a6004610a98565b5b5f73ffffffffffffffffffffffffffffffffffffffff168373ffffffffffffffffffffffffffffffffffffffff16036109a9576109a86005610a98565b5b8160015f8673ffffffffffffffffffffffffffffffffffffffff1673ffffffffffffffffffffffffffffffffffffffff1681526020019081526020015f205f8573ffffffffffffffffffffffffffffffffffffffff1673ffffffffffffffffffffffffffffffffffffffff1681526020019081526020015f20819055508015610a92578273ffffffffffffffffffffffffffffffffffffffff168473ffffffffffffffffffffffffffffffffffffffff167f8c5be1e5ebec7d5bd14f71427d1e84f3dd0314c0f7b2291e5b200ac8c7c3b92584604051610a8991906110ee565b60405180910390a35b50505050565b5f6006811115610aab57610aaa6114c8565b5b816006811115610abe57610abd6114c8565b5b03610afe576040517f08c379a0000000000000000000000000000000000000000000000000000000008152600401610af590611565565b60405180910390fd5b60016006811115610b1257610b116114c8565b5b816006811115610b2557610b246114c8565b5b03610b65576040517f08c379a0000000000000000000000000000000000000000000000000000000008152600401610b5c906115f3565b60405180910390fd5b60026006811115610b7957610b786114c8565b5b816006811115610b8c57610b8b6114c8565b5b03610bcc576040517f08c379a0000000000000000000000000000000000000000000000000000000008152600401610bc39061165b565b60405180910390fd5b60036006811115610be057610bdf6114c8565b5b816006811115610bf357610bf26114c8565b5b03610c33576040517f08c379a0000000000000000000000000000000000000000000000000000000008152600401610c2a906116c3565b60405180910390fd5b60046006811115610c4757610c466114c8565b5b816006811115610c5a57610c596114c8565b5b03610c9a576040517f08c379a0000000000000000000000000000000000000000000000000000000008152600401610c9190611751565b60405180910390fd5b60056006811115610cae57610cad6114c8565b5b816006811115610cc157610cc06114c8565b5b03610d01576040517f08c379a0000000000000000000000000000000000000000000000000000000008152600401610cf8906117df565b60405180910390fd5b600680811115610d1457610d136114c8565b5b816006811115610d2757610d266114c8565b5b03610d67576040517f08c379a0000000000000000000000000000000000000000000000000000000008152600401610d5e90611847565b60405180910390fd5b50565b5f73ffffffffffffffffffffffffffffffffffffffff168373ffffffffffffffffffffffffffffffffffffffff1603610dba578060025f828254610dae9190611337565b92505081905550610e52565b5f5f5f8573ffffffffffffffffffffffffffffffffffffffff1673ffffffffffffffffffffffffffffffffffffffff1681526020019081526020015f2054905081811015610e0d57610e0c6002610a98565b5b8181035f5f8673ffffffffffffffffffffffffffffffffffffffff1673ffffffffffffffffffffffffffffffffffffffff1681526020019081526020015f2081905550505b5f73ffffffffffffffffffffffffffffffffffffffff168273ffffffffffffffffffffffffffffffffffffffff1603610e99578060025f8282540392505081905550610ee3565b805f5f8473ffffffffffffffffffffffffffffffffffffffff1673ffffffffffffffffffffffffffffffffffffffff1681526020019081526020015f205f82825401925050819055505b8173ffffffffffffffffffffffffffffffffffffffff168373ffffffffffffffffffffffffffffffffffffffff167fddf252ad1be2c89b69c2b068fc378daa952ba7f163c4a11628f55a4df523b3ef83604051610f4091906110ee565b60405180910390a3505050565b5f81519050919050565b5f82825260208201905092915050565b8281835e5f83830152505050565b5f601f19601f8301169050919050565b5f610f8f82610f4d565b610f998185610f57565b9350610fa9818560208601610f67565b610fb281610f75565b840191505092915050565b5f6020820190508181035f830152610fd58184610f85565b905092915050565b5f5ffd5b5f73ffffffffffffffffffffffffffffffffffffffff82169050919050565b5f61100a82610fe1565b9050919050565b61101a81611000565b8114611024575f5ffd5b50565b5f8135905061103581611011565b92915050565b5f819050919050565b61104d8161103b565b8114611057575f5ffd5b50565b5f8135905061106881611044565b92915050565b5f5f6040838503121561108457611083610fdd565b5b5f61109185828601611027565b92505060206110a28582860161105a565b9150509250929050565b5f8115159050919050565b6110c0816110ac565b82525050565b5f6020820190506110d95f8301846110b7565b92915050565b6110e88161103b565b82525050565b5f6020820190506111015f8301846110df565b92915050565b5f5f5f6060848603121561111e5761111d610fdd565b5b5f61112b86828701611027565b935050602061113c86828701611027565b925050604061114d8682870161105a565b9150509250925092565b5f6020828403121561116c5761116b610fdd565b5b5f61117984828501611027565b91505092915050565b5f60ff82169050919050565b61119781611182565b82525050565b5f6020820190506111b05f83018461118e565b92915050565b5f602082840312156111cb576111ca610fdd565b5b5f6111d88482850161105a565b91505092915050565b5f5f604083850312156111f7576111f6610fdd565b5b5f61120485828601611027565b925050602061121585828601611027565b9150509250929050565b7f4e487b71000000000000000000000000000000000000000000000000000000005f52602260045260245ffd5b5f600282049050600182168061126357607f821691505b6020821081036112765761127561121f565b5b50919050565b7f4f6e6c792074686520636f6e7472616374206f776e65722063616e2063616c6c5f8201527f20746869732066756e6374696f6e000000000000000000000000000000000000602082015250565b5f6112d6602e83610f57565b91506112e18261127c565b604082019050919050565b5f6020820190508181035f830152611303816112ca565b9050919050565b7f4e487b71000000000000000000000000000000000000000000000000000000005f52601160045260245ffd5b5f6113418261103b565b915061134c8361103b565b92508282019050808211156113645761136361130a565b5b92915050565b7f4f6e6c792074686520666c617368206c6f616e20636f6e74726163742063616e5f8201527f2063616c6c20746869732066756e6374696f6e00000000000000000000000000602082015250565b5f6113c4603383610f57565b91506113cf8261136a565b604082019050919050565b5f6020820190508181035f8301526113f1816113b8565b9050919050565b7f45524332303a20616c6c6f77616e63652062656c6f77207a65726f00000000005f82015250565b5f61142c601b83610f57565b9150611437826113f8565b602082019050919050565b5f6020820190508181035f83015261145981611420565b9050919050565b7f45524332303a204d6178696d756d20737570706c7920726561636865640000005f82015250565b5f611494601d83610f57565b915061149f82611460565b602082019050919050565b5f6020820190508181035f8301526114c181611488565b9050919050565b7f4e487b71000000000000000000000000000000000000000000000000000000005f52602160045260245ffd5b7f54524332303a207472616e736665722066726f6d20746865207a65726f2061645f8201527f6472657373000000000000000000000000000000000000000000000000000000602082015250565b5f61154f602583610f57565b915061155a826114f5565b604082019050919050565b5f6020820190508181035f83015261157c81611543565b9050919050565b7f54524332303a207472616e7366657220746f20746865207a65726f20616464725f8201527f6573730000000000000000000000000000000000000000000000000000000000602082015250565b5f6115dd602383610f57565b91506115e882611583565b604082019050919050565b5f6020820190508181035f83015261160a816115d1565b9050919050565b7f54524332303a20696e73756666696369656e742062616c616e636500000000005f82015250565b5f611645601b83610f57565b915061165082611611565b602082019050919050565b5f6020820190508181035f83015261167281611639565b9050919050565b7f54524332303a206d6178696d756d20737570706c7920726561636865640000005f82015250565b5f6116ad601d83610f57565b91506116b882611679565b602082019050919050565b5f6020820190508181035f8301526116da816116a1565b9050919050565b7f54524332303a20617070726f76652066726f6d20746865207a65726f206164645f8201527f7265737300000000000000000000000000000000000000000000000000000000602082015250565b5f61173b602483610f57565b9150611746826116e1565b604082019050919050565b5f6020820190508181035f8301526117688161172f565b9050919050565b7f54524332303a20617070726f766520746f20746865207a65726f2061646472655f8201527f7373000000000000000000000000000000000000000000000000000000000000602082015250565b5f6117c9602283610f57565b91506117d48261176f565b604082019050919050565b5f6020820190508181035f8301526117f6816117bd565b9050919050565b7f54524332303a20696e73756666696369656e7420616c6c6f77616e63650000005f82015250565b5f611831601d83610f57565b915061183c826117fd565b602082019050919050565b5f6020820190508181035f83015261185e81611825565b905091905056fea2646970667358221220e75417806db883f55fe909c90a601fa447f6a6bd83458b1f822d4701b94b493c64736f6c634300081b0033",
					"opcodes": "PUSH1 0xA0 PUSH1 0x40 MSTORE CALLVALUE DUP1 ISZERO PUSH2 0xF JUMPI PUSH0 PUSH0 REVERT JUMPDEST POP PUSH1 0x40 MLOAD DUP1 PUSH1 0x40 ADD PUSH1 0x40 MSTORE DUP1 PUSH1 0xA DUP2 MSTORE PUSH1 0x20 ADD PUSH32 0x5553445420466C61736800000000000000000000000000000000000000000000 DUP2 MSTORE POP PUSH1 0x4 SWAP1 DUP2 PUSH2 0x54 SWAP2 SWAP1 PUSH2 0x323 JUMP JUMPDEST POP PUSH1 0x40 MLOAD DUP1 PUSH1 0x40 ADD PUSH1 0x40 MSTORE DUP1 PUSH1 0x4 DUP2 MSTORE PUSH1 0x20 ADD PUSH32 0x5553445400000000000000000000000000000000000000000000000000000000 DUP2 MSTORE POP PUSH1 0x5 SWAP1 DUP2 PUSH2 0x99 SWAP2 SWAP1 PUSH2 0x323 JUMP JUMPDEST POP PUSH12 0x1F04EF12CB04CF158000000 PUSH1 0x3 DUP2 SWAP1 SSTORE POP CALLER PUSH20 0xFFFFFFFFFFFFFFFFFFFFFFFFFFFFFFFFFFFFFFFF AND PUSH1 0x80 DUP2 PUSH20 0xFFFFFFFFFFFFFFFFFFFFFFFFFFFFFFFFFFFFFFFF AND DUP2 MSTORE POP POP PUSH2 0x3F2 JUMP JUMPDEST PUSH0 DUP2 MLOAD SWAP1 POP SWAP2 SWAP1 POP JUMP JUMPDEST PUSH32 0x4E487B7100000000000000000000000000000000000000000000000000000000 PUSH0 MSTORE PUSH1 0x41 PUSH1 0x4 MSTORE PUSH1 0x24 PUSH0 REVERT JUMPDEST PUSH32 0x4E487B7100000000000000000000000000000000000000000000000000000000 PUSH0 MSTORE PUSH1 0x22 PUSH1 0x4 MSTORE PUSH1 0x24 PUSH0 REVERT JUMPDEST PUSH0 PUSH1 0x2 DUP3 DIV SWAP1 POP PUSH1 0x1 DUP3 AND DUP1 PUSH2 0x161 JUMPI PUSH1 0x7F DUP3 AND SWAP2 POP JUMPDEST PUSH1 0x20 DUP3 LT DUP2 SUB PUSH2 0x174 JUMPI PUSH2 0x173 PUSH2 0x11D JUMP JUMPDEST JUMPDEST POP SWAP2 SWAP1 POP JUMP JUMPDEST PUSH0 DUP2 SWAP1 POP DUP2 PUSH0 MSTORE PUSH1 0x20 PUSH0 KECCAK256 SWAP1 POP SWAP2 SWAP1 POP JUMP JUMPDEST PUSH0 PUSH1 0x20 PUSH1 0x1F DUP4 ADD DIV SWAP1 POP SWAP2 SWAP1 POP JUMP JUMPDEST PUSH0 DUP3 DUP3 SHL SWAP1 POP SWAP3 SWAP2 POP POP JUMP JUMPDEST PUSH0 PUSH1 0x8 DUP4 MUL PUSH2 0x1D6 PUSH32 0xFFFFFFFFFFFFFFFFFFFFFFFFFFFFFFFFFFFFFFFFFFFFFFFFFFFFFFFFFFFFFFFF DUP3 PUSH2 0x19B JUMP JUMPDEST PUSH2 0x1E0 DUP7 DUP4 PUSH2 0x19B JUMP JUMPDEST SWAP6 POP DUP1 NOT DUP5 AND SWAP4 POP DUP1 DUP7 AND DUP5 OR SWAP3 POP POP POP SWAP4 SWAP3 POP POP POP JUMP JUMPDEST PUSH0 DUP2 SWAP1 POP SWAP2 SWAP1 POP JUMP JUMPDEST PUSH0 DUP2 SWAP1 POP SWAP2 SWAP1 POP JUMP JUMPDEST PUSH0 PUSH2 0x224 PUSH2 0x21F PUSH2 0x21A DUP5 PUSH2 0x1F8 JUMP JUMPDEST PUSH2 0x201 JUMP JUMPDEST PUSH2 0x1F8 JUMP JUMPDEST SWAP1 POP SWAP2 SWAP1 POP JUMP JUMPDEST PUSH0 DUP2 SWAP1 POP SWAP2 SWAP1 POP JUMP JUMPDEST PUSH2 0x23D DUP4 PUSH2 0x20A JUMP JUMPDEST PUSH2 0x251 PUSH2 0x249 DUP3 PUSH2 0x22B JUMP JUMPDEST DUP5 DUP5 SLOAD PUSH2 0x1A7 JUMP JUMPDEST DUP3 SSTORE POP POP POP POP JUMP JUMPDEST PUSH0 PUSH0 SWAP1 POP SWAP1 JUMP JUMPDEST PUSH2 0x268 PUSH2 0x259 JUMP JUMPDEST PUSH2 0x273 DUP2 DUP5 DUP5 PUSH2 0x234 JUMP JUMPDEST POP POP POP JUMP JUMPDEST JUMPDEST DUP2 DUP2 LT ISZERO PUSH2 0x296 JUMPI PUSH2 0x28B PUSH0 DUP3 PUSH2 0x260 JUMP JUMPDEST PUSH1 0x1 DUP2 ADD SWAP1 POP PUSH2 0x279 JUMP JUMPDEST POP POP JUMP JUMPDEST PUSH1 0x1F DUP3 GT ISZERO PUSH2 0x2DB JUMPI PUSH2 0x2AC DUP2 PUSH2 0x17A JUMP JUMPDEST PUSH2 0x2B5 DUP5 PUSH2 0x18C JUMP JUMPDEST DUP2 ADD PUSH1 0x20 DUP6 LT ISZERO PUSH2 0x2C4 JUMPI DUP2 SWAP1 POP JUMPDEST PUSH2 0x2D8 PUSH2 0x2D0 DUP6 PUSH2 0x18C JUMP JUMPDEST DUP4 ADD DUP3 PUSH2 0x278 JUMP JUMPDEST POP POP JUMPDEST POP POP POP JUMP JUMPDEST PUSH0 DUP3 DUP3 SHR SWAP1 POP SWAP3 SWAP2 POP POP JUMP JUMPDEST PUSH0 PUSH2 0x2FB PUSH0 NOT DUP5 PUSH1 0x8 MUL PUSH2 0x2E0 JUMP JUMPDEST NOT DUP1 DUP4 AND SWAP2 POP POP SWAP3 SWAP2 POP POP JUMP JUMPDEST PUSH0 PUSH2 0x313 DUP4 DUP4 PUSH2 0x2EC JUMP JUMPDEST SWAP2 POP DUP3 PUSH1 0x2 MUL DUP3 OR SWAP1 POP SWAP3 SWAP2 POP POP JUMP JUMPDEST PUSH2 0x32C DUP3 PUSH2 0xE6 JUMP JUMPDEST PUSH8 0xFFFFFFFFFFFFFFFF DUP2 GT ISZERO PUSH2 0x345 JUMPI PUSH2 0x344 PUSH2 0xF0 JUMP JUMPDEST JUMPDEST PUSH2 0x34F DUP3 SLOAD PUSH2 0x14A JUMP JUMPDEST PUSH2 0x35A DUP3 DUP3 DUP6 PUSH2 0x29A JUMP JUMPDEST PUSH0 PUSH1 0x20 SWAP1 POP PUSH1 0x1F DUP4 GT PUSH1 0x1 DUP2 EQ PUSH2 0x38B JUMPI PUSH0 DUP5 ISZERO PUSH2 0x379 JUMPI DUP3 DUP8 ADD MLOAD SWAP1 POP JUMPDEST PUSH2 0x383 DUP6 DUP3 PUSH2 0x308 JUMP JUMPDEST DUP7 SSTORE POP PUSH2 0x3EA JUMP JUMPDEST PUSH1 0x1F NOT DUP5 AND PUSH2 0x399 DUP7 PUSH2 0x17A JUMP JUMPDEST PUSH0 JUMPDEST DUP3 DUP2 LT ISZERO PUSH2 0x3C0 JUMPI DUP5 DUP10 ADD MLOAD DUP3 SSTORE PUSH1 0x1 DUP3 ADD SWAP2 POP PUSH1 0x20 DUP6 ADD SWAP5 POP PUSH1 0x20 DUP2 ADD SWAP1 POP PUSH2 0x39B JUMP JUMPDEST DUP7 DUP4 LT ISZERO PUSH2 0x3DD JUMPI DUP5 DUP10 ADD MLOAD PUSH2 0x3D9 PUSH1 0x1F DUP10 AND DUP3 PUSH2 0x2EC JUMP JUMPDEST DUP4 SSTORE POP JUMPDEST PUSH1 0x1 PUSH1 0x2 DUP9 MUL ADD DUP9 SSTORE POP POP POP JUMPDEST POP POP POP POP POP POP JUMP JUMPDEST PUSH1 0x80 MLOAD PUSH2 0x189B PUSH2 0x40A PUSH0 CODECOPY PUSH0 PUSH2 0x3F1 ADD MSTORE PUSH2 0x189B PUSH0 RETURN INVALID PUSH1 0x80 PUSH1 0x40 MSTORE CALLVALUE DUP1 ISZERO PUSH2 0xF JUMPI PUSH0 PUSH0 REVERT JUMPDEST POP PUSH1 0x4 CALLDATASIZE LT PUSH2 0xE8 JUMPI PUSH0 CALLDATALOAD PUSH1 0xE0 SHR DUP1 PUSH4 0x70A08231 GT PUSH2 0x8A JUMPI DUP1 PUSH4 0xA457C2D7 GT PUSH2 0x64 JUMPI DUP1 PUSH4 0xA457C2D7 EQ PUSH2 0x270 JUMPI DUP1 PUSH4 0xA9059CBB EQ PUSH2 0x2A0 JUMPI DUP1 PUSH4 0xD5ABEB01 EQ PUSH2 0x2D0 JUMPI DUP1 PUSH4 0xDD62ED3E EQ PUSH2 0x2EE JUMPI PUSH2 0xE8 JUMP JUMPDEST DUP1 PUSH4 0x70A08231 EQ PUSH2 0x1F2 JUMPI DUP1 PUSH4 0x95D89B41 EQ PUSH2 0x222 JUMPI DUP1 PUSH4 0xA0712D68 EQ PUSH2 0x240 JUMPI PUSH2 0xE8 JUMP JUMPDEST DUP1 PUSH4 0x23B872DD GT PUSH2 0xC6 JUMPI DUP1 PUSH4 0x23B872DD EQ PUSH2 0x158 JUMPI DUP1 PUSH4 0x2A52940D EQ PUSH2 0x188 JUMPI DUP1 PUSH4 0x313CE567 EQ PUSH2 0x1A4 JUMPI DUP1 PUSH4 0x39509351 EQ PUSH2 0x1C2 JUMPI PUSH2 0xE8 JUMP JUMPDEST DUP1 PUSH4 0x6FDDE03 EQ PUSH2 0xEC JUMPI DUP1 PUSH4 0x95EA7B3 EQ PUSH2 0x10A JUMPI DUP1 PUSH4 0x18160DDD EQ PUSH2 0x13A JUMPI JUMPDEST PUSH0 PUSH0 REVERT JUMPDEST PUSH2 0xF4 PUSH2 0x31E JUMP JUMPDEST PUSH1 0x40 MLOAD PUSH2 0x101 SWAP2 SWAP1 PUSH2 0xFBD JUMP JUMPDEST PUSH1 0x40 MLOAD DUP1 SWAP2 SUB SWAP1 RETURN JUMPDEST PUSH2 0x124 PUSH1 0x4 DUP1 CALLDATASIZE SUB DUP2 ADD SWAP1 PUSH2 0x11F SWAP2 SWAP1 PUSH2 0x106E JUMP JUMPDEST PUSH2 0x3AE JUMP JUMPDEST PUSH1 0x40 MLOAD PUSH2 0x131 SWAP2 SWAP1 PUSH2 0x10C6 JUMP JUMPDEST PUSH1 0x40 MLOAD DUP1 SWAP2 SUB SWAP1 RETURN JUMPDEST PUSH2 0x142 PUSH2 0x3C4 JUMP JUMPDEST PUSH1 0x40 MLOAD PUSH2 0x14F SWAP2 SWAP1 PUSH2 0x10EE JUMP JUMPDEST PUSH1 0x40 MLOAD DUP1 SWAP2 SUB SWAP1 RETURN JUMPDEST PUSH2 0x172 PUSH1 0x4 DUP1 CALLDATASIZE SUB DUP2 ADD SWAP1 PUSH2 0x16D SWAP2 SWAP1 PUSH2 0x1107 JUMP JUMPDEST PUSH2 0x3CD JUMP JUMPDEST PUSH1 0x40 MLOAD PUSH2 0x17F SWAP2 SWAP1 PUSH2 0x10C6 JUMP JUMPDEST PUSH1 0x40 MLOAD DUP1 SWAP2 SUB SWAP1 RETURN JUMPDEST PUSH2 0x1A2 PUSH1 0x4 DUP1 CALLDATASIZE SUB DUP2 ADD SWAP1 PUSH2 0x19D SWAP2 SWAP1 PUSH2 0x1157 JUMP JUMPDEST PUSH2 0x3EF JUMP JUMPDEST STOP JUMPDEST PUSH2 0x1AC PUSH2 0x4C0 JUMP JUMPDEST PUSH1 0x40 MLOAD PUSH2 0x1B9 SWAP2 SWAP1 PUSH2 0x119D JUMP JUMPDEST PUSH1 0x40 MLOAD DUP1 SWAP2 SUB SWAP1 RETURN JUMPDEST PUSH2 0x1DC PUSH1 0x4 DUP1 CALLDATASIZE SUB DUP2 ADD SWAP1 PUSH2 0x1D7 SWAP2 SWAP1 PUSH2 0x106E JUMP JUMPDEST PUSH2 0x4C8 JUMP JUMPDEST PUSH1 0x40 MLOAD PUSH2 0x1E9 SWAP2 SWAP1 PUSH2 0x10C6 JUMP JUMPDEST PUSH1 0x40 MLOAD DUP1 SWAP2 SUB SWAP1 RETURN JUMPDEST PUSH2 0x20C PUSH1 0x4 DUP1 CALLDATASIZE SUB DUP2 ADD SWAP1 PUSH2 0x207 SWAP2 SWAP1 PUSH2 0x1157 JUMP JUMPDEST PUSH2 0x4F2 JUMP JUMPDEST PUSH1 0x40 MLOAD PUSH2 0x219 SWAP2 SWAP1 PUSH2 0x10EE JUMP JUMPDEST PUSH1 0x40 MLOAD DUP1 SWAP2 SUB SWAP1 RETURN JUMPDEST PUSH2 0x22A PUSH2 0x537 JUMP JUMPDEST PUSH1 0x40 MLOAD PUSH2 0x237 SWAP2 SWAP1 PUSH2 0xFBD JUMP JUMPDEST PUSH1 0x40 MLOAD DUP1 SWAP2 SUB SWAP1 RETURN JUMPDEST PUSH2 0x25A PUSH1 0x4 DUP1 CALLDATASIZE SUB DUP2 ADD SWAP1 PUSH2 0x255 SWAP2 SWAP1 PUSH2 0x11B6 JUMP JUMPDEST PUSH2 0x5C7 JUMP JUMPDEST PUSH1 0x40 MLOAD PUSH2 0x267 SWAP2 SWAP1 PUSH2 0x10C6 JUMP JUMPDEST PUSH1 0x40 MLOAD DUP1 SWAP2 SUB SWAP1 RETURN JUMPDEST PUSH2 0x28A PUSH1 0x4 DUP1 CALLDATASIZE SUB DUP2 ADD SWAP1 PUSH2 0x285 SWAP2 SWAP1 PUSH2 0x106E JUMP JUMPDEST PUSH2 0x68B JUMP JUMPDEST PUSH1 0x40 MLOAD PUSH2 0x297 SWAP2 SWAP1 PUSH2 0x10C6 JUMP JUMPDEST PUSH1 0x40 MLOAD DUP1 SWAP2 SUB SWAP1 RETURN JUMPDEST PUSH2 0x2BA PUSH1 0x4 DUP1 CALLDATASIZE SUB DUP2 ADD SWAP1 PUSH2 0x2B5 SWAP2 SWAP1 PUSH2 0x106E JUMP JUMPDEST PUSH2 0x6F4 JUMP JUMPDEST PUSH1 0x40 MLOAD PUSH2 0x2C7 SWAP2 SWAP1 PUSH2 0x10C6 JUMP JUMPDEST PUSH1 0x40 MLOAD DUP1 SWAP2 SUB SWAP1 RETURN JUMPDEST PUSH2 0x2D8 PUSH2 0x70A JUMP JUMPDEST PUSH1 0x40 MLOAD PUSH2 0x2E5 SWAP2 SWAP1 PUSH2 0x10EE JUMP JUMPDEST PUSH1 0x40 MLOAD DUP1 SWAP2 SUB SWAP1 RETURN JUMPDEST PUSH2 0x308 PUSH1 0x4 DUP1 CALLDATASIZE SUB DUP2 ADD SWAP1 PUSH2 0x303 SWAP2 SWAP1 PUSH2 0x11E1 JUMP JUMPDEST PUSH2 0x713 JUMP JUMPDEST PUSH1 0x40 MLOAD PUSH2 0x315 SWAP2 SWAP1 PUSH2 0x10EE JUMP JUMPDEST PUSH1 0x40 MLOAD DUP1 SWAP2 SUB SWAP1 RETURN JUMPDEST PUSH1 0x60 PUSH1 0x4 DUP1 SLOAD PUSH2 0x32D SWAP1 PUSH2 0x124C JUMP JUMPDEST DUP1 PUSH1 0x1F ADD PUSH1 0x20 DUP1 SWAP2 DIV MUL PUSH1 0x20 ADD PUSH1 0x40 MLOAD SWAP1 DUP2 ADD PUSH1 0x40 MSTORE DUP1 SWAP3 SWAP2 SWAP1 DUP2 DUP2 MSTORE PUSH1 0x20 ADD DUP3 DUP1 SLOAD PUSH2 0x359 SWAP1 PUSH2 0x124C JUMP JUMPDEST DUP1 ISZERO PUSH2 0x3A4 JUMPI DUP1 PUSH1 0x1F LT PUSH2 0x37B JUMPI PUSH2 0x100 DUP1 DUP4 SLOAD DIV MUL DUP4 MSTORE SWAP2 PUSH1 0x20 ADD SWAP2 PUSH2 0x3A4 JUMP JUMPDEST DUP3 ADD SWAP2 SWAP1 PUSH0 MSTORE PUSH1 0x20 PUSH0 KECCAK256 SWAP1 JUMPDEST DUP2 SLOAD DUP2 MSTORE SWAP1 PUSH1 0x1 ADD SWAP1 PUSH1 0x20 ADD DUP1 DUP4 GT PUSH2 0x387 JUMPI DUP3 SWAP1 SUB PUSH1 0x1F AND DUP3 ADD SWAP2 JUMPDEST POP POP POP POP POP SWAP1 POP SWAP1 JUMP JUMPDEST PUSH0 PUSH2 0x3BA CALLER DUP5 DUP5 PUSH2 0x795 JUMP JUMPDEST PUSH1 0x1 SWAP1 POP SWAP3 SWAP2 POP POP JUMP JUMPDEST PUSH0 PUSH1 0x2 SLOAD SWAP1 POP SWAP1 JUMP JUMPDEST PUSH0 PUSH2 0x3D9 DUP5 CALLER DUP5 PUSH2 0x7A7 JUMP JUMPDEST PUSH2 0x3E4 DUP5 DUP5 DUP5 PUSH2 0x803 JUMP JUMPDEST PUSH1 0x1 SWAP1 POP SWAP4 SWAP3 POP POP POP JUMP JUMPDEST PUSH32 0x0 PUSH20 0xFFFFFFFFFFFFFFFFFFFFFFFFFFFFFFFFFFFFFFFF AND CALLER PUSH20 0xFFFFFFFFFFFFFFFFFFFFFFFFFFFFFFFFFFFFFFFF AND EQ PUSH2 0x47D JUMPI PUSH1 0x40 MLOAD PUSH32 0x8C379A000000000000000000000000000000000000000000000000000000000 DUP2 MSTORE PUSH1 0x4 ADD PUSH2 0x474 SWAP1 PUSH2 0x12EC JUMP JUMPDEST PUSH1 0x40 MLOAD DUP1 SWAP2 SUB SWAP1 REVERT JUMPDEST DUP1 PUSH1 0x6 PUSH0 PUSH2 0x100 EXP DUP2 SLOAD DUP2 PUSH20 0xFFFFFFFFFFFFFFFFFFFFFFFFFFFFFFFFFFFFFFFF MUL NOT AND SWAP1 DUP4 PUSH20 0xFFFFFFFFFFFFFFFFFFFFFFFFFFFFFFFFFFFFFFFF AND MUL OR SWAP1 SSTORE POP POP JUMP JUMPDEST PUSH0 PUSH1 0x12 SWAP1 POP SWAP1 JUMP JUMPDEST PUSH0 PUSH2 0x4E8 CALLER DUP5 DUP5 PUSH2 0x4D9 CALLER DUP9 PUSH2 0x713 JUMP JUMPDEST PUSH2 0x4E3 SWAP2 SWAP1 PUSH2 0x1337 JUMP JUMPDEST PUSH2 0x795 JUMP JUMPDEST PUSH1 0x1 SWAP1 POP SWAP3 SWAP2 POP POP JUMP JUMPDEST PUSH0 PUSH0 PUSH0 DUP4 PUSH20 0xFFFFFFFFFFFFFFFFFFFFFFFFFFFFFFFFFFFFFFFF AND PUSH20 0xFFFFFFFFFFFFFFFFFFFFFFFFFFFFFFFFFFFFFFFF AND DUP2 MSTORE PUSH1 0x20 ADD SWAP1 DUP2 MSTORE PUSH1 0x20 ADD PUSH0 KECCAK256 SLOAD SWAP1 POP SWAP2 SWAP1 POP JUMP JUMPDEST PUSH1 0x60 PUSH1 0x5 DUP1 SLOAD PUSH2 0x546 SWAP1 PUSH2 0x124C JUMP JUMPDEST DUP1 PUSH1 0x1F ADD PUSH1 0x20 DUP1 SWAP2 DIV MUL PUSH1 0x20 ADD PUSH1 0x40 MLOAD SWAP1 DUP2 ADD PUSH1 0x40 MSTORE DUP1 SWAP3 SWAP2 SWAP1 DUP2 DUP2 MSTORE PUSH1 0x20 ADD DUP3 DUP1 SLOAD PUSH2 0x572 SWAP1 PUSH2 0x124C JUMP JUMPDEST DUP1 ISZERO PUSH2 0x5BD JUMPI DUP1 PUSH1 0x1F LT PUSH2 0x594 JUMPI PUSH2 0x100 DUP1 DUP4 SLOAD DIV MUL DUP4 MSTORE SWAP2 PUSH1 0x20 ADD SWAP2 PUSH2 0x5BD JUMP JUMPDEST DUP3 ADD SWAP2 SWAP1 PUSH0 MSTORE PUSH1 0x20 PUSH0 KECCAK256 SWAP1 JUMPDEST DUP2 SLOAD DUP2 MSTORE SWAP1 PUSH1 0x1 ADD SWAP1 PUSH1 0x20 ADD DUP1 DUP4 GT PUSH2 0x5A0 JUMPI DUP3 SWAP1 SUB PUSH1 0x1F AND DUP3 ADD SWAP2 JUMPDEST POP POP POP POP POP SWAP1 POP SWAP1 JUMP JUMPDEST PUSH0 PUSH1 0x6 PUSH0 SWAP1 SLOAD SWAP1 PUSH2 0x100 EXP SWAP1 DIV PUSH20 0xFFFFFFFFFFFFFFFFFFFFFFFFFFFFFFFFFFFFFFFF AND PUSH20 0xFFFFFFFFFFFFFFFFFFFFFFFFFFFFFFFFFFFFFFFF AND CALLER PUSH20 0xFFFFFFFFFFFFFFFFFFFFFFFFFFFFFFFFFFFFFFFF AND EQ PUSH2 0x657 JUMPI PUSH1 0x40 MLOAD PUSH32 0x8C379A000000000000000000000000000000000000000000000000000000000 DUP2 MSTORE PUSH1 0x4 ADD PUSH2 0x64E SWAP1 PUSH2 0x13DA JUMP JUMPDEST PUSH1 0x40 MLOAD DUP1 SWAP2 SUB SWAP1 REVERT JUMPDEST PUSH2 0x682 PUSH1 0x6 PUSH0 SWAP1 SLOAD SWAP1 PUSH2 0x100 EXP SWAP1 DIV PUSH20 0xFFFFFFFFFFFFFFFFFFFFFFFFFFFFFFFFFFFFFFFF AND DUP4 PUSH2 0x88E JUMP JUMPDEST PUSH1 0x1 SWAP1 POP SWAP2 SWAP1 POP JUMP JUMPDEST PUSH0 PUSH0 PUSH2 0x697 CALLER DUP6 PUSH2 0x713 JUMP JUMPDEST SWAP1 POP DUP3 DUP2 LT ISZERO PUSH2 0x6DC JUMPI PUSH1 0x40 MLOAD PUSH32 0x8C379A000000000000000000000000000000000000000000000000000000000 DUP2 MSTORE PUSH1 0x4 ADD PUSH2 0x6D3 SWAP1 PUSH2 0x1442 JUMP JUMPDEST PUSH1 0x40 MLOAD DUP1 SWAP2 SUB SWAP1 REVERT JUMPDEST PUSH2 0x6E9 CALLER DUP6 DUP6 DUP5 SUB PUSH2 0x795 JUMP JUMPDEST PUSH1 0x1 SWAP2 POP POP SWAP3 SWAP2 POP POP JUMP JUMPDEST PUSH0 PUSH2 0x700 CALLER DUP5 DUP5 PUSH2 0x803 JUMP JUMPDEST PUSH1 0x1 SWAP1 POP SWAP3 SWAP2 POP POP JUMP JUMPDEST PUSH0 PUSH1 0x3 SLOAD SWAP1 POP SWAP1 JUMP JUMPDEST PUSH0 PUSH1 0x1 PUSH0 DUP5 PUSH20 0xFFFFFFFFFFFFFFFFFFFFFFFFFFFFFFFFFFFFFFFF AND PUSH20 0xFFFFFFFFFFFFFFFFFFFFFFFFFFFFFFFFFFFFFFFF AND DUP2 MSTORE PUSH1 0x20 ADD SWAP1 DUP2 MSTORE PUSH1 0x20 ADD PUSH0 KECCAK256 PUSH0 DUP4 PUSH20 0xFFFFFFFFFFFFFFFFFFFFFFFFFFFFFFFFFFFFFFFF AND PUSH20 0xFFFFFFFFFFFFFFFFFFFFFFFFFFFFFFFFFFFFFFFF AND DUP2 MSTORE PUSH1 0x20 ADD SWAP1 DUP2 MSTORE PUSH1 0x20 ADD PUSH0 KECCAK256 SLOAD SWAP1 POP SWAP3 SWAP2 POP POP JUMP JUMPDEST PUSH2 0x7A2 DUP4 DUP4 DUP4 PUSH1 0x1 PUSH2 0x92D JUMP JUMPDEST POP POP POP JUMP JUMPDEST PUSH0 PUSH2 0x7B2 DUP5 DUP5 PUSH2 0x713 JUMP JUMPDEST SWAP1 POP PUSH32 0xFFFFFFFFFFFFFFFFFFFFFFFFFFFFFFFFFFFFFFFFFFFFFFFFFFFFFFFFFFFFFFFF DUP2 EQ PUSH2 0x7FD JUMPI DUP2 DUP2 LT ISZERO PUSH2 0x7EE JUMPI PUSH2 0x7ED PUSH1 0x6 PUSH2 0xA98 JUMP JUMPDEST JUMPDEST PUSH2 0x7FC DUP5 DUP5 DUP5 DUP5 SUB PUSH0 PUSH2 0x92D JUMP JUMPDEST JUMPDEST POP POP POP POP JUMP JUMPDEST PUSH0 PUSH20 0xFFFFFFFFFFFFFFFFFFFFFFFFFFFFFFFFFFFFFFFF AND DUP4 PUSH20 0xFFFFFFFFFFFFFFFFFFFFFFFFFFFFFFFFFFFFFFFF AND SUB PUSH2 0x840 JUMPI PUSH2 0x83F PUSH0 PUSH2 0xA98 JUMP JUMPDEST JUMPDEST PUSH0 PUSH20 0xFFFFFFFFFFFFFFFFFFFFFFFFFFFFFFFFFFFFFFFF AND DUP3 PUSH20 0xFFFFFFFFFFFFFFFFFFFFFFFFFFFFFFFFFFFFFFFF AND SUB PUSH2 0x87E JUMPI PUSH2 0x87D PUSH1 0x1 PUSH2 0xA98 JUMP JUMPDEST JUMPDEST PUSH2 0x889 DUP4 DUP4 DUP4 PUSH2 0xD6A JUMP JUMPDEST POP POP POP JUMP JUMPDEST PUSH0 PUSH20 0xFFFFFFFFFFFFFFFFFFFFFFFFFFFFFFFFFFFFFFFF AND DUP3 PUSH20 0xFFFFFFFFFFFFFFFFFFFFFFFFFFFFFFFFFFFFFFFF AND SUB PUSH2 0x8CC JUMPI PUSH2 0x8CB PUSH1 0x1 PUSH2 0xA98 JUMP JUMPDEST JUMPDEST PUSH1 0x3 SLOAD DUP2 PUSH1 0x2 SLOAD PUSH2 0x8DD SWAP2 SWAP1 PUSH2 0x1337 JUMP JUMPDEST GT ISZERO PUSH2 0x91E JUMPI PUSH1 0x40 MLOAD PUSH32 0x8C379A000000000000000000000000000000000000000000000000000000000 DUP2 MSTORE PUSH1 0x4 ADD PUSH2 0x915 SWAP1 PUSH2 0x14AA JUMP JUMPDEST PUSH1 0x40 MLOAD DUP1 SWAP2 SUB SWAP1 REVERT JUMPDEST PUSH2 0x929 PUSH0 DUP4 DUP4 PUSH2 0xD6A JUMP JUMPDEST POP POP JUMP JUMPDEST PUSH0 PUSH20 0xFFFFFFFFFFFFFFFFFFFFFFFFFFFFFFFFFFFFFFFF AND DUP5 PUSH20 0xFFFFFFFFFFFFFFFFFFFFFFFFFFFFFFFFFFFFFFFF AND SUB PUSH2 0x96B JUMPI PUSH2 0x96A PUSH1 0x4 PUSH2 0xA98 JUMP JUMPDEST JUMPDEST PUSH0 PUSH20 0xFFFFFFFFFFFFFFFFFFFFFFFFFFFFFFFFFFFFFFFF AND DUP4 PUSH20 0xFFFFFFFFFFFFFFFFFFFFFFFFFFFFFFFFFFFFFFFF AND SUB PUSH2 0x9A9 JUMPI PUSH2 0x9A8 PUSH1 0x5 PUSH2 0xA98 JUMP JUMPDEST JUMPDEST DUP2 PUSH1 0x1 PUSH0 DUP7 PUSH20 0xFFFFFFFFFFFFFFFFFFFFFFFFFFFFFFFFFFFFFFFF AND PUSH20 0xFFFFFFFFFFFFFFFFFFFFFFFFFFFFFFFFFFFFFFFF AND DUP2 MSTORE PUSH1 0x20 ADD SWAP1 DUP2 MSTORE PUSH1 0x20 ADD PUSH0 KECCAK256 PUSH0 DUP6 PUSH20 0xFFFFFFFFFFFFFFFFFFFFFFFFFFFFFFFFFFFFFFFF AND PUSH20 0xFFFFFFFFFFFFFFFFFFFFFFFFFFFFFFFFFFFFFFFF AND DUP2 MSTORE PUSH1 0x20 ADD SWAP1 DUP2 MSTORE PUSH1 0x20 ADD PUSH0 KECCAK256 DUP2 SWAP1 SSTORE POP DUP1 ISZERO PUSH2 0xA92 JUMPI DUP3 PUSH20 0xFFFFFFFFFFFFFFFFFFFFFFFFFFFFFFFFFFFFFFFF AND DUP5 PUSH20 0xFFFFFFFFFFFFFFFFFFFFFFFFFFFFFFFFFFFFFFFF AND PUSH32 0x8C5BE1E5EBEC7D5BD14F71427D1E84F3DD0314C0F7B2291E5B200AC8C7C3B925 DUP5 PUSH1 0x40 MLOAD PUSH2 0xA89 SWAP2 SWAP1 PUSH2 0x10EE JUMP JUMPDEST PUSH1 0x40 MLOAD DUP1 SWAP2 SUB SWAP1 LOG3 JUMPDEST POP POP POP POP JUMP JUMPDEST PUSH0 PUSH1 0x6 DUP2 GT ISZERO PUSH2 0xAAB JUMPI PUSH2 0xAAA PUSH2 0x14C8 JUMP JUMPDEST JUMPDEST DUP2 PUSH1 0x6 DUP2 GT ISZERO PUSH2 0xABE JUMPI PUSH2 0xABD PUSH2 0x14C8 JUMP JUMPDEST JUMPDEST SUB PUSH2 0xAFE JUMPI PUSH1 0x40 MLOAD PUSH32 0x8C379A000000000000000000000000000000000000000000000000000000000 DUP2 MSTORE PUSH1 0x4 ADD PUSH2 0xAF5 SWAP1 PUSH2 0x1565 JUMP JUMPDEST PUSH1 0x40 MLOAD DUP1 SWAP2 SUB SWAP1 REVERT JUMPDEST PUSH1 0x1 PUSH1 0x6 DUP2 GT ISZERO PUSH2 0xB12 JUMPI PUSH2 0xB11 PUSH2 0x14C8 JUMP JUMPDEST JUMPDEST DUP2 PUSH1 0x6 DUP2 GT ISZERO PUSH2 0xB25 JUMPI PUSH2 0xB24 PUSH2 0x14C8 JUMP JUMPDEST JUMPDEST SUB PUSH2 0xB65 JUMPI PUSH1 0x40 MLOAD PUSH32 0x8C379A000000000000000000000000000000000000000000000000000000000 DUP2 MSTORE PUSH1 0x4 ADD PUSH2 0xB5C SWAP1 PUSH2 0x15F3 JUMP JUMPDEST PUSH1 0x40 MLOAD DUP1 SWAP2 SUB SWAP1 REVERT JUMPDEST PUSH1 0x2 PUSH1 0x6 DUP2 GT ISZERO PUSH2 0xB79 JUMPI PUSH2 0xB78 PUSH2 0x14C8 JUMP JUMPDEST JUMPDEST DUP2 PUSH1 0x6 DUP2 GT ISZERO PUSH2 0xB8C JUMPI PUSH2 0xB8B PUSH2 0x14C8 JUMP JUMPDEST JUMPDEST SUB PUSH2 0xBCC JUMPI PUSH1 0x40 MLOAD PUSH32 0x8C379A000000000000000000000000000000000000000000000000000000000 DUP2 MSTORE PUSH1 0x4 ADD PUSH2 0xBC3 SWAP1 PUSH2 0x165B JUMP JUMPDEST PUSH1 0x40 MLOAD DUP1 SWAP2 SUB SWAP1 REVERT JUMPDEST PUSH1 0x3 PUSH1 0x6 DUP2 GT ISZERO PUSH2 0xBE0 JUMPI PUSH2 0xBDF PUSH2 0x14C8 JUMP JUMPDEST JUMPDEST DUP2 PUSH1 0x6 DUP2 GT ISZERO PUSH2 0xBF3 JUMPI PUSH2 0xBF2 PUSH2 0x14C8 JUMP JUMPDEST JUMPDEST SUB PUSH2 0xC33 JUMPI PUSH1 0x40 MLOAD PUSH32 0x8C379A000000000000000000000000000000000000000000000000000000000 DUP2 MSTORE PUSH1 0x4 ADD PUSH2 0xC2A SWAP1 PUSH2 0x16C3 JUMP JUMPDEST PUSH1 0x40 MLOAD DUP1 SWAP2 SUB SWAP1 REVERT JUMPDEST PUSH1 0x4 PUSH1 0x6 DUP2 GT ISZERO PUSH2 0xC47 JUMPI PUSH2 0xC46 PUSH2 0x14C8 JUMP JUMPDEST JUMPDEST DUP2 PUSH1 0x6 DUP2 GT ISZERO PUSH2 0xC5A JUMPI PUSH2 0xC59 PUSH2 0x14C8 JUMP JUMPDEST JUMPDEST SUB PUSH2 0xC9A JUMPI PUSH1 0x40 MLOAD PUSH32 0x8C379A000000000000000000000000000000000000000000000000000000000 DUP2 MSTORE PUSH1 0x4 ADD PUSH2 0xC91 SWAP1 PUSH2 0x1751 JUMP JUMPDEST PUSH1 0x40 MLOAD DUP1 SWAP2 SUB SWAP1 REVERT JUMPDEST PUSH1 0x5 PUSH1 0x6 DUP2 GT ISZERO PUSH2 0xCAE JUMPI PUSH2 0xCAD PUSH2 0x14C8 JUMP JUMPDEST JUMPDEST DUP2 PUSH1 0x6 DUP2 GT ISZERO PUSH2 0xCC1 JUMPI PUSH2 0xCC0 PUSH2 0x14C8 JUMP JUMPDEST JUMPDEST SUB PUSH2 0xD01 JUMPI PUSH1 0x40 MLOAD PUSH32 0x8C379A000000000000000000000000000000000000000000000000000000000 DUP2 MSTORE PUSH1 0x4 ADD PUSH2 0xCF8 SWAP1 PUSH2 0x17DF JUMP JUMPDEST PUSH1 0x40 MLOAD DUP1 SWAP2 SUB SWAP1 REVERT JUMPDEST PUSH1 0x6 DUP1 DUP2 GT ISZERO PUSH2 0xD14 JUMPI PUSH2 0xD13 PUSH2 0x14C8 JUMP JUMPDEST JUMPDEST DUP2 PUSH1 0x6 DUP2 GT ISZERO PUSH2 0xD27 JUMPI PUSH2 0xD26 PUSH2 0x14C8 JUMP JUMPDEST JUMPDEST SUB PUSH2 0xD67 JUMPI PUSH1 0x40 MLOAD PUSH32 0x8C379A000000000000000000000000000000000000000000000000000000000 DUP2 MSTORE PUSH1 0x4 ADD PUSH2 0xD5E SWAP1 PUSH2 0x1847 JUMP JUMPDEST PUSH1 0x40 MLOAD DUP1 SWAP2 SUB SWAP1 REVERT JUMPDEST POP JUMP JUMPDEST PUSH0 PUSH20 0xFFFFFFFFFFFFFFFFFFFFFFFFFFFFFFFFFFFFFFFF AND DUP4 PUSH20 0xFFFFFFFFFFFFFFFFFFFFFFFFFFFFFFFFFFFFFFFF AND SUB PUSH2 0xDBA JUMPI DUP1 PUSH1 0x2 PUSH0 DUP3 DUP3 SLOAD PUSH2 0xDAE SWAP2 SWAP1 PUSH2 0x1337 JUMP JUMPDEST SWAP3 POP POP DUP2 SWAP1 SSTORE POP PUSH2 0xE52 JUMP JUMPDEST PUSH0 PUSH0 PUSH0 DUP6 PUSH20 0xFFFFFFFFFFFFFFFFFFFFFFFFFFFFFFFFFFFFFFFF AND PUSH20 0xFFFFFFFFFFFFFFFFFFFFFFFFFFFFFFFFFFFFFFFF AND DUP2 MSTORE PUSH1 0x20 ADD SWAP1 DUP2 MSTORE PUSH1 0x20 ADD PUSH0 KECCAK256 SLOAD SWAP1 POP DUP2 DUP2 LT ISZERO PUSH2 0xE0D JUMPI PUSH2 0xE0C PUSH1 0x2 PUSH2 0xA98 JUMP JUMPDEST JUMPDEST DUP2 DUP2 SUB PUSH0 PUSH0 DUP7 PUSH20 0xFFFFFFFFFFFFFFFFFFFFFFFFFFFFFFFFFFFFFFFF AND PUSH20 0xFFFFFFFFFFFFFFFFFFFFFFFFFFFFFFFFFFFFFFFF AND DUP2 MSTORE PUSH1 0x20 ADD SWAP1 DUP2 MSTORE PUSH1 0x20 ADD PUSH0 KECCAK256 DUP2 SWAP1 SSTORE POP POP JUMPDEST PUSH0 PUSH20 0xFFFFFFFFFFFFFFFFFFFFFFFFFFFFFFFFFFFFFFFF AND DUP3 PUSH20 0xFFFFFFFFFFFFFFFFFFFFFFFFFFFFFFFFFFFFFFFF AND SUB PUSH2 0xE99 JUMPI DUP1 PUSH1 0x2 PUSH0 DUP3 DUP3 SLOAD SUB SWAP3 POP POP DUP2 SWAP1 SSTORE POP PUSH2 0xEE3 JUMP JUMPDEST DUP1 PUSH0 PUSH0 DUP5 PUSH20 0xFFFFFFFFFFFFFFFFFFFFFFFFFFFFFFFFFFFFFFFF AND PUSH20 0xFFFFFFFFFFFFFFFFFFFFFFFFFFFFFFFFFFFFFFFF AND DUP2 MSTORE PUSH1 0x20 ADD SWAP1 DUP2 MSTORE PUSH1 0x20 ADD PUSH0 KECCAK256 PUSH0 DUP3 DUP3 SLOAD ADD SWAP3 POP POP DUP2 SWAP1 SSTORE POP JUMPDEST DUP2 PUSH20 0xFFFFFFFFFFFFFFFFFFFFFFFFFFFFFFFFFFFFFFFF AND DUP4 PUSH20 0xFFFFFFFFFFFFFFFFFFFFFFFFFFFFFFFFFFFFFFFF AND PUSH32 0xDDF252AD1BE2C89B69C2B068FC378DAA952BA7F163C4A11628F55A4DF523B3EF DUP4 PUSH1 0x40 MLOAD PUSH2 0xF40 SWAP2 SWAP1 PUSH2 0x10EE JUMP JUMPDEST PUSH1 0x40 MLOAD DUP1 SWAP2 SUB SWAP1 LOG3 POP POP POP JUMP JUMPDEST PUSH0 DUP2 MLOAD SWAP1 POP SWAP2 SWAP1 POP JUMP JUMPDEST PUSH0 DUP3 DUP3 MSTORE PUSH1 0x20 DUP3 ADD SWAP1 POP SWAP3 SWAP2 POP POP JUMP JUMPDEST DUP3 DUP2 DUP4 MCOPY PUSH0 DUP4 DUP4 ADD MSTORE POP POP POP JUMP JUMPDEST PUSH0 PUSH1 0x1F NOT PUSH1 0x1F DUP4 ADD AND SWAP1 POP SWAP2 SWAP1 POP JUMP JUMPDEST PUSH0 PUSH2 0xF8F DUP3 PUSH2 0xF4D JUMP JUMPDEST PUSH2 0xF99 DUP2 DUP6 PUSH2 0xF57 JUMP JUMPDEST SWAP4 POP PUSH2 0xFA9 DUP2 DUP6 PUSH1 0x20 DUP7 ADD PUSH2 0xF67 JUMP JUMPDEST PUSH2 0xFB2 DUP2 PUSH2 0xF75 JUMP JUMPDEST DUP5 ADD SWAP2 POP POP SWAP3 SWAP2 POP POP JUMP JUMPDEST PUSH0 PUSH1 0x20 DUP3 ADD SWAP1 POP DUP2 DUP2 SUB PUSH0 DUP4 ADD MSTORE PUSH2 0xFD5 DUP2 DUP5 PUSH2 0xF85 JUMP JUMPDEST SWAP1 POP SWAP3 SWAP2 POP POP JUMP JUMPDEST PUSH0 PUSH0 REVERT JUMPDEST PUSH0 PUSH20 0xFFFFFFFFFFFFFFFFFFFFFFFFFFFFFFFFFFFFFFFF DUP3 AND SWAP1 POP SWAP2 SWAP1 POP JUMP JUMPDEST PUSH0 PUSH2 0x100A DUP3 PUSH2 0xFE1 JUMP JUMPDEST SWAP1 POP SWAP2 SWAP1 POP JUMP JUMPDEST PUSH2 0x101A DUP2 PUSH2 0x1000 JUMP JUMPDEST DUP2 EQ PUSH2 0x1024 JUMPI PUSH0 PUSH0 REVERT JUMPDEST POP JUMP JUMPDEST PUSH0 DUP2 CALLDATALOAD SWAP1 POP PUSH2 0x1035 DUP2 PUSH2 0x1011 JUMP JUMPDEST SWAP3 SWAP2 POP POP JUMP JUMPDEST PUSH0 DUP2 SWAP1 POP SWAP2 SWAP1 POP JUMP JUMPDEST PUSH2 0x104D DUP2 PUSH2 0x103B JUMP JUMPDEST DUP2 EQ PUSH2 0x1057 JUMPI PUSH0 PUSH0 REVERT JUMPDEST POP JUMP JUMPDEST PUSH0 DUP2 CALLDATALOAD SWAP1 POP PUSH2 0x1068 DUP2 PUSH2 0x1044 JUMP JUMPDEST SWAP3 SWAP2 POP POP JUMP JUMPDEST PUSH0 PUSH0 PUSH1 0x40 DUP4 DUP6 SUB SLT ISZERO PUSH2 0x1084 JUMPI PUSH2 0x1083 PUSH2 0xFDD JUMP JUMPDEST JUMPDEST PUSH0 PUSH2 0x1091 DUP6 DUP3 DUP7 ADD PUSH2 0x1027 JUMP JUMPDEST SWAP3 POP POP PUSH1 0x20 PUSH2 0x10A2 DUP6 DUP3 DUP7 ADD PUSH2 0x105A JUMP JUMPDEST SWAP2 POP POP SWAP3 POP SWAP3 SWAP1 POP JUMP JUMPDEST PUSH0 DUP2 ISZERO ISZERO SWAP1 POP SWAP2 SWAP1 POP JUMP JUMPDEST PUSH2 0x10C0 DUP2 PUSH2 0x10AC JUMP JUMPDEST DUP3 MSTORE POP POP JUMP JUMPDEST PUSH0 PUSH1 0x20 DUP3 ADD SWAP1 POP PUSH2 0x10D9 PUSH0 DUP4 ADD DUP5 PUSH2 0x10B7 JUMP JUMPDEST SWAP3 SWAP2 POP POP JUMP JUMPDEST PUSH2 0x10E8 DUP2 PUSH2 0x103B JUMP JUMPDEST DUP3 MSTORE POP POP JUMP JUMPDEST PUSH0 PUSH1 0x20 DUP3 ADD SWAP1 POP PUSH2 0x1101 PUSH0 DUP4 ADD DUP5 PUSH2 0x10DF JUMP JUMPDEST SWAP3 SWAP2 POP POP JUMP JUMPDEST PUSH0 PUSH0 PUSH0 PUSH1 0x60 DUP5 DUP7 SUB SLT ISZERO PUSH2 0x111E JUMPI PUSH2 0x111D PUSH2 0xFDD JUMP JUMPDEST JUMPDEST PUSH0 PUSH2 0x112B DUP7 DUP3 DUP8 ADD PUSH2 0x1027 JUMP JUMPDEST SWAP4 POP POP PUSH1 0x20 PUSH2 0x113C DUP7 DUP3 DUP8 ADD PUSH2 0x1027 JUMP JUMPDEST SWAP3 POP POP PUSH1 0x40 PUSH2 0x114D DUP7 DUP3 DUP8 ADD PUSH2 0x105A JUMP JUMPDEST SWAP2 POP POP SWAP3 POP SWAP3 POP SWAP3 JUMP JUMPDEST PUSH0 PUSH1 0x20 DUP3 DUP5 SUB SLT ISZERO PUSH2 0x116C JUMPI PUSH2 0x116B PUSH2 0xFDD JUMP JUMPDEST JUMPDEST PUSH0 PUSH2 0x1179 DUP5 DUP3 DUP6 ADD PUSH2 0x1027 JUMP JUMPDEST SWAP2 POP POP SWAP3 SWAP2 POP POP JUMP JUMPDEST PUSH0 PUSH1 0xFF DUP3 AND SWAP1 POP SWAP2 SWAP1 POP JUMP JUMPDEST PUSH2 0x1197 DUP2 PUSH2 0x1182 JUMP JUMPDEST DUP3 MSTORE POP POP JUMP JUMPDEST PUSH0 PUSH1 0x20 DUP3 ADD SWAP1 POP PUSH2 0x11B0 PUSH0 DUP4 ADD DUP5 PUSH2 0x118E JUMP JUMPDEST SWAP3 SWAP2 POP POP JUMP JUMPDEST PUSH0 PUSH1 0x20 DUP3 DUP5 SUB SLT ISZERO PUSH2 0x11CB JUMPI PUSH2 0x11CA PUSH2 0xFDD JUMP JUMPDEST JUMPDEST PUSH0 PUSH2 0x11D8 DUP5 DUP3 DUP6 ADD PUSH2 0x105A JUMP JUMPDEST SWAP2 POP POP SWAP3 SWAP2 POP POP JUMP JUMPDEST PUSH0 PUSH0 PUSH1 0x40 DUP4 DUP6 SUB SLT ISZERO PUSH2 0x11F7 JUMPI PUSH2 0x11F6 PUSH2 0xFDD JUMP JUMPDEST JUMPDEST PUSH0 PUSH2 0x1204 DUP6 DUP3 DUP7 ADD PUSH2 0x1027 JUMP JUMPDEST SWAP3 POP POP PUSH1 0x20 PUSH2 0x1215 DUP6 DUP3 DUP7 ADD PUSH2 0x1027 JUMP JUMPDEST SWAP2 POP POP SWAP3 POP SWAP3 SWAP1 POP JUMP JUMPDEST PUSH32 0x4E487B7100000000000000000000000000000000000000000000000000000000 PUSH0 MSTORE PUSH1 0x22 PUSH1 0x4 MSTORE PUSH1 0x24 PUSH0 REVERT JUMPDEST PUSH0 PUSH1 0x2 DUP3 DIV SWAP1 POP PUSH1 0x1 DUP3 AND DUP1 PUSH2 0x1263 JUMPI PUSH1 0x7F DUP3 AND SWAP2 POP JUMPDEST PUSH1 0x20 DUP3 LT DUP2 SUB PUSH2 0x1276 JUMPI PUSH2 0x1275 PUSH2 0x121F JUMP JUMPDEST JUMPDEST POP SWAP2 SWAP1 POP JUMP JUMPDEST PUSH32 0x4F6E6C792074686520636F6E7472616374206F776E65722063616E2063616C6C PUSH0 DUP3 ADD MSTORE PUSH32 0x20746869732066756E6374696F6E000000000000000000000000000000000000 PUSH1 0x20 DUP3 ADD MSTORE POP JUMP JUMPDEST PUSH0 PUSH2 0x12D6 PUSH1 0x2E DUP4 PUSH2 0xF57 JUMP JUMPDEST SWAP2 POP PUSH2 0x12E1 DUP3 PUSH2 0x127C JUMP JUMPDEST PUSH1 0x40 DUP3 ADD SWAP1 POP SWAP2 SWAP1 POP JUMP JUMPDEST PUSH0 PUSH1 0x20 DUP3 ADD SWAP1 POP DUP2 DUP2 SUB PUSH0 DUP4 ADD MSTORE PUSH2 0x1303 DUP2 PUSH2 0x12CA JUMP JUMPDEST SWAP1 POP SWAP2 SWAP1 POP JUMP JUMPDEST PUSH32 0x4E487B7100000000000000000000000000000000000000000000000000000000 PUSH0 MSTORE PUSH1 0x11 PUSH1 0x4 MSTORE PUSH1 0x24 PUSH0 REVERT JUMPDEST PUSH0 PUSH2 0x1341 DUP3 PUSH2 0x103B JUMP JUMPDEST SWAP2 POP PUSH2 0x134C DUP4 PUSH2 0x103B JUMP JUMPDEST SWAP3 POP DUP3 DUP3 ADD SWAP1 POP DUP1 DUP3 GT ISZERO PUSH2 0x1364 JUMPI PUSH2 0x1363 PUSH2 0x130A JUMP JUMPDEST JUMPDEST SWAP3 SWAP2 POP POP JUMP JUMPDEST PUSH32 0x4F6E6C792074686520666C617368206C6F616E20636F6E74726163742063616E PUSH0 DUP3 ADD MSTORE PUSH32 0x2063616C6C20746869732066756E6374696F6E00000000000000000000000000 PUSH1 0x20 DUP3 ADD MSTORE POP JUMP JUMPDEST PUSH0 PUSH2 0x13C4 PUSH1 0x33 DUP4 PUSH2 0xF57 JUMP JUMPDEST SWAP2 POP PUSH2 0x13CF DUP3 PUSH2 0x136A JUMP JUMPDEST PUSH1 0x40 DUP3 ADD SWAP1 POP SWAP2 SWAP1 POP JUMP JUMPDEST PUSH0 PUSH1 0x20 DUP3 ADD SWAP1 POP DUP2 DUP2 SUB PUSH0 DUP4 ADD MSTORE PUSH2 0x13F1 DUP2 PUSH2 0x13B8 JUMP JUMPDEST SWAP1 POP SWAP2 SWAP1 POP JUMP JUMPDEST PUSH32 0x45524332303A20616C6C6F77616E63652062656C6F77207A65726F0000000000 PUSH0 DUP3 ADD MSTORE POP JUMP JUMPDEST PUSH0 PUSH2 0x142C PUSH1 0x1B DUP4 PUSH2 0xF57 JUMP JUMPDEST SWAP2 POP PUSH2 0x1437 DUP3 PUSH2 0x13F8 JUMP JUMPDEST PUSH1 0x20 DUP3 ADD SWAP1 POP SWAP2 SWAP1 POP JUMP JUMPDEST PUSH0 PUSH1 0x20 DUP3 ADD SWAP1 POP DUP2 DUP2 SUB PUSH0 DUP4 ADD MSTORE PUSH2 0x1459 DUP2 PUSH2 0x1420 JUMP JUMPDEST SWAP1 POP SWAP2 SWAP1 POP JUMP JUMPDEST PUSH32 0x45524332303A204D6178696D756D20737570706C792072656163686564000000 PUSH0 DUP3 ADD MSTORE POP JUMP JUMPDEST PUSH0 PUSH2 0x1494 PUSH1 0x1D DUP4 PUSH2 0xF57 JUMP JUMPDEST SWAP2 POP PUSH2 0x149F DUP3 PUSH2 0x1460 JUMP JUMPDEST PUSH1 0x20 DUP3 ADD SWAP1 POP SWAP2 SWAP1 POP JUMP JUMPDEST PUSH0 PUSH1 0x20 DUP3 ADD SWAP1 POP DUP2 DUP2 SUB PUSH0 DUP4 ADD MSTORE PUSH2 0x14C1 DUP2 PUSH2 0x1488 JUMP JUMPDEST SWAP1 POP SWAP2 SWAP1 POP JUMP JUMPDEST PUSH32 0x4E487B7100000000000000000000000000000000000000000000000000000000 PUSH0 MSTORE PUSH1 0x21 PUSH1 0x4 MSTORE PUSH1 0x24 PUSH0 REVERT JUMPDEST PUSH32 0x54524332303A207472616E736665722066726F6D20746865207A65726F206164 PUSH0 DUP3 ADD MSTORE PUSH32 0x6472657373000000000000000000000000000000000000000000000000000000 PUSH1 0x20 DUP3 ADD MSTORE POP JUMP JUMPDEST PUSH0 PUSH2 0x154F PUSH1 0x25 DUP4 PUSH2 0xF57 JUMP JUMPDEST SWAP2 POP PUSH2 0x155A DUP3 PUSH2 0x14F5 JUMP JUMPDEST PUSH1 0x40 DUP3 ADD SWAP1 POP SWAP2 SWAP1 POP JUMP JUMPDEST PUSH0 PUSH1 0x20 DUP3 ADD SWAP1 POP DUP2 DUP2 SUB PUSH0 DUP4 ADD MSTORE PUSH2 0x157C DUP2 PUSH2 0x1543 JUMP JUMPDEST SWAP1 POP SWAP2 SWAP1 POP JUMP JUMPDEST PUSH32 0x54524332303A207472616E7366657220746F20746865207A65726F2061646472 PUSH0 DUP3 ADD MSTORE PUSH32 0x6573730000000000000000000000000000000000000000000000000000000000 PUSH1 0x20 DUP3 ADD MSTORE POP JUMP JUMPDEST PUSH0 PUSH2 0x15DD PUSH1 0x23 DUP4 PUSH2 0xF57 JUMP JUMPDEST SWAP2 POP PUSH2 0x15E8 DUP3 PUSH2 0x1583 JUMP JUMPDEST PUSH1 0x40 DUP3 ADD SWAP1 POP SWAP2 SWAP1 POP JUMP JUMPDEST PUSH0 PUSH1 0x20 DUP3 ADD SWAP1 POP DUP2 DUP2 SUB PUSH0 DUP4 ADD MSTORE PUSH2 0x160A DUP2 PUSH2 0x15D1 JUMP JUMPDEST SWAP1 POP SWAP2 SWAP1 POP JUMP JUMPDEST PUSH32 0x54524332303A20696E73756666696369656E742062616C616E63650000000000 PUSH0 DUP3 ADD MSTORE POP JUMP JUMPDEST PUSH0 PUSH2 0x1645 PUSH1 0x1B DUP4 PUSH2 0xF57 JUMP JUMPDEST SWAP2 POP PUSH2 0x1650 DUP3 PUSH2 0x1611 JUMP JUMPDEST PUSH1 0x20 DUP3 ADD SWAP1 POP SWAP2 SWAP1 POP JUMP JUMPDEST PUSH0 PUSH1 0x20 DUP3 ADD SWAP1 POP DUP2 DUP2 SUB PUSH0 DUP4 ADD MSTORE PUSH2 0x1672 DUP2 PUSH2 0x1639 JUMP JUMPDEST SWAP1 POP SWAP2 SWAP1 POP JUMP JUMPDEST PUSH32 0x54524332303A206D6178696D756D20737570706C792072656163686564000000 PUSH0 DUP3 ADD MSTORE POP JUMP JUMPDEST PUSH0 PUSH2 0x16AD PUSH1 0x1D DUP4 PUSH2 0xF57 JUMP JUMPDEST SWAP2 POP PUSH2 0x16B8 DUP3 PUSH2 0x1679 JUMP JUMPDEST PUSH1 0x20 DUP3 ADD SWAP1 POP SWAP2 SWAP1 POP JUMP JUMPDEST PUSH0 PUSH1 0x20 DUP3 ADD SWAP1 POP DUP2 DUP2 SUB PUSH0 DUP4 ADD MSTORE PUSH2 0x16DA DUP2 PUSH2 0x16A1 JUMP JUMPDEST SWAP1 POP SWAP2 SWAP1 POP JUMP JUMPDEST PUSH32 0x54524332303A20617070726F76652066726F6D20746865207A65726F20616464 PUSH0 DUP3 ADD MSTORE PUSH32 0x7265737300000000000000000000000000000000000000000000000000000000 PUSH1 0x20 DUP3 ADD MSTORE POP JUMP JUMPDEST PUSH0 PUSH2 0x173B PUSH1 0x24 DUP4 PUSH2 0xF57 JUMP JUMPDEST SWAP2 POP PUSH2 0x1746 DUP3 PUSH2 0x16E1 JUMP JUMPDEST PUSH1 0x40 DUP3 ADD SWAP1 POP SWAP2 SWAP1 POP JUMP JUMPDEST PUSH0 PUSH1 0x20 DUP3 ADD SWAP1 POP DUP2 DUP2 SUB PUSH0 DUP4 ADD MSTORE PUSH2 0x1768 DUP2 PUSH2 0x172F JUMP JUMPDEST SWAP1 POP SWAP2 SWAP1 POP JUMP JUMPDEST PUSH32 0x54524332303A20617070726F766520746F20746865207A65726F206164647265 PUSH0 DUP3 ADD MSTORE PUSH32 0x7373000000000000000000000000000000000000000000000000000000000000 PUSH1 0x20 DUP3 ADD MSTORE POP JUMP JUMPDEST PUSH0 PUSH2 0x17C9 PUSH1 0x22 DUP4 PUSH2 0xF57 JUMP JUMPDEST SWAP2 POP PUSH2 0x17D4 DUP3 PUSH2 0x176F JUMP JUMPDEST PUSH1 0x40 DUP3 ADD SWAP1 POP SWAP2 SWAP1 POP JUMP JUMPDEST PUSH0 PUSH1 0x20 DUP3 ADD SWAP1 POP DUP2 DUP2 SUB PUSH0 DUP4 ADD MSTORE PUSH2 0x17F6 DUP2 PUSH2 0x17BD JUMP JUMPDEST SWAP1 POP SWAP2 SWAP1 POP JUMP JUMPDEST PUSH32 0x54524332303A20696E73756666696369656E7420616C6C6F77616E6365000000 PUSH0 DUP3 ADD MSTORE POP JUMP JUMPDEST PUSH0 PUSH2 0x1831 PUSH1 0x1D DUP4 PUSH2 0xF57 JUMP JUMPDEST SWAP2 POP PUSH2 0x183C DUP3 PUSH2 0x17FD JUMP JUMPDEST PUSH1 0x20 DUP3 ADD SWAP1 POP SWAP2 SWAP1 POP JUMP JUMPDEST PUSH0 PUSH1 0x20 DUP3 ADD SWAP1 POP DUP2 DUP2 SUB PUSH0 DUP4 ADD MSTORE PUSH2 0x185E DUP2 PUSH2 0x1825 JUMP JUMPDEST SWAP1 POP SWAP2 SWAP1 POP JUMP INVALID LOG2 PUSH5 0x6970667358 0x22 SLT KECCAK256 0xE7 SLOAD OR DUP1 PUSH14 0xB883F55FE909C90A601FA447F6A6 0xBD DUP4 GASLIMIT DUP12 0x1F DUP3 0x2D SELFBALANCE ADD 0xB9 0x4B BLOBHASH EXTCODECOPY PUSH5 0x736F6C6343 STOP ADDMOD SHL STOP CALLER "
				},
				"gasEstimates": {
					"creation": {
						"codeDepositCost": "1259800",
						"executionCost": "infinite",
						"totalCost": "infinite"
					},
					"external": {
						"allowance(address,address)": "infinite",
						"approve(address,uint256)": "infinite",
						"balanceOf(address)": "2851",
						"decimals()": "405",
						"decreaseAllowance(address,uint256)": "infinite",
						"increaseAllowance(address,uint256)": "infinite",
						"maxSupply()": "2498",
						"mint(uint256)": "infinite",
						"name()": "infinite",
						"setFlashLoanContract(address)": "infinite",
						"symbol()": "infinite",
						"totalSupply()": "2500",
						"transfer(address,uint256)": "infinite",
						"transferFrom(address,address,uint256)": "infinite"
					},
					"internal": {
						"_approve(address,address,uint256)": "infinite",
						"_approve(address,address,uint256,bool)": "infinite",
						"_burn(address,uint256)": "infinite",
						"_burnFrom(address,uint256)": "infinite",
						"_mint(address,uint256)": "infinite",
						"_revert(enum USDTFlash.Error)": "infinite",
						"_spendAllowance(address,address,uint256)": "infinite",
						"_transfer(address,address,uint256)": "infinite",
						"_update(address,address,uint256)": "infinite"
					}
				},
				"methodIdentifiers": {
					"allowance(address,address)": "dd62ed3e",
					"approve(address,uint256)": "095ea7b3",
					"balanceOf(address)": "70a08231",
					"decimals()": "313ce567",
					"decreaseAllowance(address,uint256)": "a457c2d7",
					"increaseAllowance(address,uint256)": "39509351",
					"maxSupply()": "d5abeb01",
					"mint(uint256)": "a0712d68",
					"name()": "06fdde03",
					"setFlashLoanContract(address)": "2a52940d",
					"symbol()": "95d89b41",
					"totalSupply()": "18160ddd",
					"transfer(address,uint256)": "a9059cbb",
					"transferFrom(address,address,uint256)": "23b872dd"
				}
			},
			"storageLayout": {
				"storage": [
					{
						"astId": 78,
						"contract": "tronweb/contracts/USDTFlash_TRC20.sol:USDTFlash",
						"label": "_balances",
						"offset": 0,
						"slot": "0",
						"type": "t_mapping(t_address,t_uint256)"
					},
					{
						"astId": 84,
						"contract": "tronweb/contracts/USDTFlash_TRC20.sol:USDTFlash",
						"label": "_allowances",
						"offset": 0,
						"slot": "1",
						"type": "t_mapping(t_address,t_mapping(t_address,t_uint256))"
					},
					{
						"astId": 86,
						"contract": "tronweb/contracts/USDTFlash_TRC20.sol:USDTFlash",
						"label": "_totalSupply",
						"offset": 0,
						"slot": "2",
						"type": "t_uint256"
					},
					{
						"astId": 88,
						"contract": "tronweb/contracts/USDTFlash_TRC20.sol:USDTFlash",
						"label": "_maxSupply",
						"offset": 0,
						"slot": "3",
						"type": "t_uint256"
					},
					{
						"astId": 90,
						"contract": "tronweb/contracts/USDTFlash_TRC20.sol:USDTFlash",
						"label": "_name",
						"offset": 0,
						"slot": "4",
						"type": "t_string_storage"
					},
					{
						"astId": 92,
						"contract": "tronweb/contracts/USDTFlash_TRC20.sol:USDTFlash",
						"label": "_symbol",
						"offset": 0,
						"slot": "5",
						"type": "t_string_storage"
					},
					{
						"astId": 96,
						"contract": "tronweb/contracts/USDTFlash_TRC20.sol:USDTFlash",
						"label": "_flashLoanContract",
						"offset": 0,
						"slot": "6",
						"type": "t_address"
					}
				],
				"types": {
					"t_address": {
						"encoding": "inplace",
						"label": "address",
						"numberOfBytes": "20"
					},
					"t_mapping(t_address,t_mapping(t_address,t_uint256))": {
						"encoding": "mapping",
						"key": "t_address",
						"label": "mapping(address => mapping(address => uint256))",
						"numberOfBytes": "32",
						"value": "t_mapping(t_address,t_uint256)"
					},
					"t_mapping(t_address,t_uint256)": {
						"encoding": "mapping",
						"key": "t_address",
						"label": "mapping(address => uint256)",
						"numberOfBytes": "32",
						"value": "t_uint256"
					},
					"t_string_storage": {
						"encoding": "bytes",
						"label": "string",
						"numberOfBytes": "32"
					},
					"t_uint256": {
						"encoding": "inplace",
						"label": "uint256",
						"numberOfBytes": "32"
					}
				}
			},
			"userdoc": {
				"kind": "user",
				"methods": {},
				"version": 1
			}
		}
	}
}