{
	"tronweb/contracts/USDTFlash_TRC20.sol": {
		"USDTFlash": {
			"abi": [
				{
					"inputs": [],
					"stateMutability": "nonpayable",
					"type": "constructor"
				},
				{
					"inputs": [
						{
							"internalType": "address",
							"name": "spender",
							"type": "address"
						},
						{
							"internalType": "uint256",
							"name": "allowance",
							"type": "uint256"
						},
						{
							"internalType": "uint256",
							"name": "needed",
							"type": "uint256"
						}
					],
					"name": "TRC20InsufficientAllowance",
					"type": "error"
				},
				{
					"inputs": [
						{
							"internalType": "address",
							"name": "sender",
							"type": "address"
						},
						{
							"internalType": "uint256",
							"name": "balance",
							"type": "uint256"
						},
						{
							"internalType": "uint256",
							"name": "needed",
							"type": "uint256"
						}
					],
					"name": "TRC20InsufficientBalance",
					"type": "error"
				},
				{
					"inputs": [
						{
							"internalType": "address",
							"name": "approver",
							"type": "address"
						}
					],
					"name": "TRC20InvalidApprover",
					"type": "error"
				},
				{
					"inputs": [
						{
							"internalType": "address",
							"name": "receiver",
							"type": "address"
						}
					],
					"name": "TRC20InvalidReceiver",
					"type": "error"
				},
				{
					"inputs": [
						{
							"internalType": "address",
							"name": "sender",
							"type": "address"
						}
					],
					"name": "TRC20InvalidSender",
					"type": "error"
				},
				{
					"inputs": [
						{
							"internalType": "address",
							"name": "spender",
							"type": "address"
						}
					],
					"name": "TRC20InvalidSpender",
					"type": "error"
				},
				{
					"anonymous": false,
					"inputs": [
						{
							"indexed": true,
							"internalType": "address",
							"name": "owner",
							"type": "address"
						},
						{
							"indexed": true,
							"internalType": "address",
							"name": "spender",
							"type": "address"
						},
						{
							"indexed": false,
							"internalType": "uint256",
							"name": "value",
							"type": "uint256"
						}
					],
					"name": "Approval",
					"type": "event"
				},
				{
					"anonymous": false,
					"inputs": [
						{
							"indexed": true,
							"internalType": "address",
							"name": "account",
							"type": "address"
						},
						{
							"indexed": false,
							"internalType": "uint256",
							"name": "amount",
							"type": "uint256"
						}
					],
					"name": "Burn",
					"type": "event"
				},
				{
					"anonymous": false,
					"inputs": [
						{
							"indexed": true,
							"internalType": "address",
							"name": "account",
							"type": "address"
						},
						{
							"indexed": false,
							"internalType": "uint256",
							"name": "amount",
							"type": "uint256"
						}
					],
					"name": "Mint",
					"type": "event"
				},
				{
					"anonymous": false,
					"inputs": [
						{
							"indexed": true,
							"internalType": "address",
							"name": "from",
							"type": "address"
						},
						{
							"indexed": true,
							"internalType": "address",
							"name": "to",
							"type": "address"
						},
						{
							"indexed": false,
							"internalType": "uint256",
							"name": "value",
							"type": "uint256"
						}
					],
					"name": "Transfer",
					"type": "event"
				},
				{
					"inputs": [
						{
							"internalType": "address",
							"name": "owner",
							"type": "address"
						},
						{
							"internalType": "address",
							"name": "spender",
							"type": "address"
						}
					],
					"name": "allowance",
					"outputs": [
						{
							"internalType": "uint256",
							"name": "",
							"type": "uint256"
						}
					],
					"stateMutability": "view",
					"type": "function"
				},
				{
					"inputs": [
						{
							"internalType": "address",
							"name": "spender",
							"type": "address"
						},
						{
							"internalType": "uint256",
							"name": "value",
							"type": "uint256"
						}
					],
					"name": "approve",
					"outputs": [
						{
							"internalType": "bool",
							"name": "",
							"type": "bool"
						}
					],
					"stateMutability": "nonpayable",
					"type": "function"
				},
				{
					"inputs": [
						{
							"internalType": "address",
							"name": "account",
							"type": "address"
						}
					],
					"name": "balanceOf",
					"outputs": [
						{
							"internalType": "uint256",
							"name": "",
							"type": "uint256"
						}
					],
					"stateMutability": "view",
					"type": "function"
				},
				{
					"inputs": [
						{
							"internalType": "uint256",
							"name": "amount",
							"type": "uint256"
						}
					],
					"name": "burn",
					"outputs": [],
					"stateMutability": "nonpayable",
					"type": "function"
				},
				{
					"inputs": [],
					"name": "decimals",
					"outputs": [
						{
							"internalType": "uint8",
							"name": "",
							"type": "uint8"
						}
					],
					"stateMutability": "view",
					"type": "function"
				},
				{
					"inputs": [
						{
							"internalType": "address",
							"name": "spender",
							"type": "address"
						},
						{
							"internalType": "uint256",
							"name": "subtractedValue",
							"type": "uint256"
						}
					],
					"name": "decreaseAllowance",
					"outputs": [
						{
							"internalType": "bool",
							"name": "",
							"type": "bool"
						}
					],
					"stateMutability": "nonpayable",
					"type": "function"
				},
				{
					"inputs": [
						{
							"internalType": "address",
							"name": "spender",
							"type": "address"
						},
						{
							"internalType": "uint256",
							"name": "addedValue",
							"type": "uint256"
						}
					],
					"name": "increaseAllowance",
					"outputs": [
						{
							"internalType": "bool",
							"name": "",
							"type": "bool"
						}
					],
					"stateMutability": "nonpayable",
					"type": "function"
				},
				{
					"inputs": [],
					"name": "maxSupply",
					"outputs": [
						{
							"internalType": "uint256",
							"name": "",
							"type": "uint256"
						}
					],
					"stateMutability": "view",
					"type": "function"
				},
				{
					"inputs": [
						{
							"internalType": "uint256",
							"name": "amount",
							"type": "uint256"
						}
					],
					"name": "mint",
					"outputs": [
						{
							"internalType": "bool",
							"name": "",
							"type": "bool"
						}
					],
					"stateMutability": "nonpayable",
					"type": "function"
				},
				{
					"inputs": [],
					"name": "name",
					"outputs": [
						{
							"internalType": "string",
							"name": "",
							"type": "string"
						}
					],
					"stateMutability": "view",
					"type": "function"
				},
				{
					"inputs": [],
					"name": "pause",
					"outputs": [],
					"stateMutability": "nonpayable",
					"type": "function"
				},
				{
					"inputs": [
						{
							"internalType": "address",
							"name": "tokenAddress",
							"type": "address"
						},
						{
							"internalType": "uint256",
							"name": "tokenAmount",
							"type": "uint256"
						}
					],
					"name": "recoverERC20",
					"outputs": [],
					"stateMutability": "nonpayable",
					"type": "function"
				},
				{
					"inputs": [
						{
							"internalType": "address",
							"name": "flashLoanContract",
							"type": "address"
						}
					],
					"name": "setFlashLoanContract",
					"outputs": [],
					"stateMutability": "nonpayable",
					"type": "function"
				},
				{
					"inputs": [],
					"name": "symbol",
					"outputs": [
						{
							"internalType": "string",
							"name": "",
							"type": "string"
						}
					],
					"stateMutability": "view",
					"type": "function"
				},
				{
					"inputs": [],
					"name": "totalSupply",
					"outputs": [
						{
							"internalType": "uint256",
							"name": "",
							"type": "uint256"
						}
					],
					"stateMutability": "view",
					"type": "function"
				},
				{
					"inputs": [
						{
							"internalType": "address",
							"name": "to",
							"type": "address"
						},
						{
							"internalType": "uint256",
							"name": "value",
							"type": "uint256"
						}
					],
					"name": "transfer",
					"outputs": [
						{
							"internalType": "bool",
							"name": "",
							"type": "bool"
						}
					],
					"stateMutability": "nonpayable",
					"type": "function"
				},
				{
					"inputs": [
						{
							"internalType": "address",
							"name": "from",
							"type": "address"
						},
						{
							"internalType": "address",
							"name": "to",
							"type": "address"
						},
						{
							"internalType": "uint256",
							"name": "value",
							"type": "uint256"
						}
					],
					"name": "transferFrom",
					"outputs": [
						{
							"internalType": "bool",
							"name": "",
							"type": "bool"
						}
					],
					"stateMutability": "nonpayable",
					"type": "function"
				},
				{
					"inputs": [
						{
							"internalType": "address",
							"name": "newOwner",
							"type": "address"
						}
					],
					"name": "transferOwnership",
					"outputs": [],
					"stateMutability": "nonpayable",
					"type": "function"
				},
				{
					"inputs": [],
					"name": "unpause",
					"outputs": [],
					"stateMutability": "nonpayable",
					"type": "function"
				}
			],
			"devdoc": {
				"kind": "dev",
				"methods": {
					"decimals()": {
						"details": "Returns the decimals places of the token."
					},
					"name()": {
						"details": "Returns the name of the token."
					},
					"symbol()": {
						"details": "Returns the symbol of the token."
					}
				},
				"version": 1
			},
			"evm": {
				"assembly": "    /* \"tronweb/contracts/USDTFlash_TRC20.sol\":245:7050  contract USDTFlash is ITRC20, ITRC20Metadata, Context, ITRC20Errors {... */\n  mstore(0x40, 0x80)\n    /* \"tronweb/contracts/USDTFlash_TRC20.sol\":775:931  constructor() {... */\n  callvalue\n  dup1\n  iszero\n  tag_1\n  jumpi\n  0x00\n  dup1\n  revert\ntag_1:\n  pop\n    /* \"tronweb/contracts/USDTFlash_TRC20.sol\":799:819  _name = \"USDT Flash\" */\n  mload(0x40)\n  dup1\n  0x40\n  add\n  0x40\n  mstore\n  dup1\n  0x0a\n  dup2\n  mstore\n  0x20\n  add\n  0x5553445420466c61736800000000000000000000000000000000000000000000\n  dup2\n  mstore\n  pop\n    /* \"tronweb/contracts/USDTFlash_TRC20.sol\":799:804  _name */\n  0x04\n    /* \"tronweb/contracts/USDTFlash_TRC20.sol\":799:819  _name = \"USDT Flash\" */\n  swap1\n  dup2\n  tag_4\n  swap2\n  swap1\n  tag_5\n  jump\t// in\ntag_4:\n  pop\n    /* \"tronweb/contracts/USDTFlash_TRC20.sol\":829:845  _symbol = \"USDT\" */\n  mload(0x40)\n  dup1\n  0x40\n  add\n  0x40\n  mstore\n  dup1\n  0x04\n  dup2\n  mstore\n  0x20\n  add\n  0x5553445400000000000000000000000000000000000000000000000000000000\n  dup2\n  mstore\n  pop\n    /* \"tronweb/contracts/USDTFlash_TRC20.sol\":829:836  _symbol */\n  0x05\n    /* \"tronweb/contracts/USDTFlash_TRC20.sol\":829:845  _symbol = \"USDT\" */\n  swap1\n  dup2\n  tag_6\n  swap2\n  swap1\n  tag_5\n  jump\t// in\ntag_6:\n  pop\n    /* \"tronweb/contracts/USDTFlash_TRC20.sol\":868:895  600000000000000000000000000 */\n  0x01f04ef12cb04cf158000000\n    /* \"tronweb/contracts/USDTFlash_TRC20.sol\":855:865  _maxSupply */\n  0x03\n    /* \"tronweb/contracts/USDTFlash_TRC20.sol\":855:895  _maxSupply = 600000000000000000000000000 */\n  dup2\n  swap1\n  sstore\n  pop\n    /* \"tronweb/contracts/USDTFlash_TRC20.sol\":914:924  msg.sender */\n  caller\n    /* \"tronweb/contracts/USDTFlash_TRC20.sol\":905:911  _owner */\n  0x06\n  0x00\n    /* \"tronweb/contracts/USDTFlash_TRC20.sol\":905:924  _owner = msg.sender */\n  0x0100\n  exp\n  dup2\n  sload\n  dup2\n  0xffffffffffffffffffffffffffffffffffffffff\n  mul\n  not\n  and\n  swap1\n  dup4\n  0xffffffffffffffffffffffffffffffffffffffff\n  and\n  mul\n  or\n  swap1\n  sstore\n  pop\n    /* \"tronweb/contracts/USDTFlash_TRC20.sol\":245:7050  contract USDTFlash is ITRC20, ITRC20Metadata, Context, ITRC20Errors {... */\n  jump(tag_7)\n    /* \"#utility.yul\":7:106   */\ntag_8:\n    /* \"#utility.yul\":59:65   */\n  0x00\n    /* \"#utility.yul\":93:98   */\n  dup2\n    /* \"#utility.yul\":87:99   */\n  mload\n    /* \"#utility.yul\":77:99   */\n  swap1\n  pop\n    /* \"#utility.yul\":7:106   */\n  swap2\n  swap1\n  pop\n  jump\t// out\n    /* \"#utility.yul\":112:292   */\ntag_9:\n    /* \"#utility.yul\":160:237   */\n  0x4e487b7100000000000000000000000000000000000000000000000000000000\n    /* \"#utility.yul\":157:158   */\n  0x00\n    /* \"#utility.yul\":150:238   */\n  mstore\n    /* \"#utility.yul\":257:261   */\n  0x41\n    /* \"#utility.yul\":254:255   */\n  0x04\n    /* \"#utility.yul\":247:262   */\n  mstore\n    /* \"#utility.yul\":281:285   */\n  0x24\n    /* \"#utility.yul\":278:279   */\n  0x00\n    /* \"#utility.yul\":271:286   */\n  revert\n    /* \"#utility.yul\":298:478   */\ntag_10:\n    /* \"#utility.yul\":346:423   */\n  0x4e487b7100000000000000000000000000000000000000000000000000000000\n    /* \"#utility.yul\":343:344   */\n  0x00\n    /* \"#utility.yul\":336:424   */\n  mstore\n    /* \"#utility.yul\":443:447   */\n  0x22\n    /* \"#utility.yul\":440:441   */\n  0x04\n    /* \"#utility.yul\":433:448   */\n  mstore\n    /* \"#utility.yul\":467:471   */\n  0x24\n    /* \"#utility.yul\":464:465   */\n  0x00\n    /* \"#utility.yul\":457:472   */\n  revert\n    /* \"#utility.yul\":484:804   */\ntag_11:\n    /* \"#utility.yul\":528:534   */\n  0x00\n    /* \"#utility.yul\":565:566   */\n  0x02\n    /* \"#utility.yul\":559:563   */\n  dup3\n    /* \"#utility.yul\":555:567   */\n  div\n    /* \"#utility.yul\":545:567   */\n  swap1\n  pop\n    /* \"#utility.yul\":612:613   */\n  0x01\n    /* \"#utility.yul\":606:610   */\n  dup3\n    /* \"#utility.yul\":602:614   */\n  and\n    /* \"#utility.yul\":633:651   */\n  dup1\n    /* \"#utility.yul\":623:704   */\n  tag_33\n  jumpi\n    /* \"#utility.yul\":689:693   */\n  0x7f\n    /* \"#utility.yul\":681:687   */\n  dup3\n    /* \"#utility.yul\":677:694   */\n  and\n    /* \"#utility.yul\":667:694   */\n  swap2\n  pop\n    /* \"#utility.yul\":623:704   */\ntag_33:\n    /* \"#utility.yul\":751:753   */\n  0x20\n    /* \"#utility.yul\":743:749   */\n  dup3\n    /* \"#utility.yul\":740:754   */\n  lt\n    /* \"#utility.yul\":720:738   */\n  dup2\n    /* \"#utility.yul\":717:755   */\n  sub\n    /* \"#utility.yul\":714:798   */\n  tag_34\n  jumpi\n    /* \"#utility.yul\":770:788   */\n  tag_35\n  tag_10\n  jump\t// in\ntag_35:\n    /* \"#utility.yul\":714:798   */\ntag_34:\n    /* \"#utility.yul\":535:804   */\n  pop\n    /* \"#utility.yul\":484:804   */\n  swap2\n  swap1\n  pop\n  jump\t// out\n    /* \"#utility.yul\":810:951   */\ntag_12:\n    /* \"#utility.yul\":859:863   */\n  0x00\n    /* \"#utility.yul\":882:885   */\n  dup2\n    /* \"#utility.yul\":874:885   */\n  swap1\n  pop\n    /* \"#utility.yul\":905:908   */\n  dup2\n    /* \"#utility.yul\":902:903   */\n  0x00\n    /* \"#utility.yul\":895:909   */\n  mstore\n    /* \"#utility.yul\":939:943   */\n  0x20\n    /* \"#utility.yul\":936:937   */\n  0x00\n    /* \"#utility.yul\":926:944   */\n  keccak256\n    /* \"#utility.yul\":918:944   */\n  swap1\n  pop\n    /* \"#utility.yul\":810:951   */\n  swap2\n  swap1\n  pop\n  jump\t// out\n    /* \"#utility.yul\":957:1050   */\ntag_13:\n    /* \"#utility.yul\":994:1000   */\n  0x00\n    /* \"#utility.yul\":1041:1043   */\n  0x20\n    /* \"#utility.yul\":1036:1038   */\n  0x1f\n    /* \"#utility.yul\":1029:1034   */\n  dup4\n    /* \"#utility.yul\":1025:1039   */\n  add\n    /* \"#utility.yul\":1021:1044   */\n  div\n    /* \"#utility.yul\":1011:1044   */\n  swap1\n  pop\n    /* \"#utility.yul\":957:1050   */\n  swap2\n  swap1\n  pop\n  jump\t// out\n    /* \"#utility.yul\":1056:1163   */\ntag_14:\n    /* \"#utility.yul\":1100:1108   */\n  0x00\n    /* \"#utility.yul\":1150:1155   */\n  dup3\n    /* \"#utility.yul\":1144:1148   */\n  dup3\n    /* \"#utility.yul\":1140:1156   */\n  shl\n    /* \"#utility.yul\":1119:1156   */\n  swap1\n  pop\n    /* \"#utility.yul\":1056:1163   */\n  swap3\n  swap2\n  pop\n  pop\n  jump\t// out\n    /* \"#utility.yul\":1169:1562   */\ntag_15:\n    /* \"#utility.yul\":1238:1244   */\n  0x00\n    /* \"#utility.yul\":1288:1289   */\n  0x08\n    /* \"#utility.yul\":1276:1286   */\n  dup4\n    /* \"#utility.yul\":1272:1290   */\n  mul\n    /* \"#utility.yul\":1311:1408   */\n  tag_40\n    /* \"#utility.yul\":1341:1407   */\n  0xffffffffffffffffffffffffffffffffffffffffffffffffffffffffffffffff\n    /* \"#utility.yul\":1330:1339   */\n  dup3\n    /* \"#utility.yul\":1311:1408   */\n  tag_14\n  jump\t// in\ntag_40:\n    /* \"#utility.yul\":1429:1468   */\n  tag_41\n    /* \"#utility.yul\":1459:1467   */\n  dup7\n    /* \"#utility.yul\":1448:1457   */\n  dup4\n    /* \"#utility.yul\":1429:1468   */\n  tag_14\n  jump\t// in\ntag_41:\n    /* \"#utility.yul\":1417:1468   */\n  swap6\n  pop\n    /* \"#utility.yul\":1501:1505   */\n  dup1\n    /* \"#utility.yul\":1497:1506   */\n  not\n    /* \"#utility.yul\":1490:1495   */\n  dup5\n    /* \"#utility.yul\":1486:1507   */\n  and\n    /* \"#utility.yul\":1477:1507   */\n  swap4\n  pop\n    /* \"#utility.yul\":1550:1554   */\n  dup1\n    /* \"#utility.yul\":1540:1548   */\n  dup7\n    /* \"#utility.yul\":1536:1555   */\n  and\n    /* \"#utility.yul\":1529:1534   */\n  dup5\n    /* \"#utility.yul\":1526:1556   */\n  or\n    /* \"#utility.yul\":1516:1556   */\n  swap3\n  pop\n    /* \"#utility.yul\":1245:1562   */\n  pop\n  pop\n    /* \"#utility.yul\":1169:1562   */\n  swap4\n  swap3\n  pop\n  pop\n  pop\n  jump\t// out\n    /* \"#utility.yul\":1568:1645   */\ntag_16:\n    /* \"#utility.yul\":1605:1612   */\n  0x00\n    /* \"#utility.yul\":1634:1639   */\n  dup2\n    /* \"#utility.yul\":1623:1639   */\n  swap1\n  pop\n    /* \"#utility.yul\":1568:1645   */\n  swap2\n  swap1\n  pop\n  jump\t// out\n    /* \"#utility.yul\":1651:1711   */\ntag_17:\n    /* \"#utility.yul\":1679:1682   */\n  0x00\n    /* \"#utility.yul\":1700:1705   */\n  dup2\n    /* \"#utility.yul\":1693:1705   */\n  swap1\n  pop\n    /* \"#utility.yul\":1651:1711   */\n  swap2\n  swap1\n  pop\n  jump\t// out\n    /* \"#utility.yul\":1717:1859   */\ntag_18:\n    /* \"#utility.yul\":1767:1776   */\n  0x00\n    /* \"#utility.yul\":1800:1853   */\n  tag_45\n    /* \"#utility.yul\":1818:1852   */\n  tag_46\n    /* \"#utility.yul\":1827:1851   */\n  tag_47\n    /* \"#utility.yul\":1845:1850   */\n  dup5\n    /* \"#utility.yul\":1827:1851   */\n  tag_16\n  jump\t// in\ntag_47:\n    /* \"#utility.yul\":1818:1852   */\n  tag_17\n  jump\t// in\ntag_46:\n    /* \"#utility.yul\":1800:1853   */\n  tag_16\n  jump\t// in\ntag_45:\n    /* \"#utility.yul\":1787:1853   */\n  swap1\n  pop\n    /* \"#utility.yul\":1717:1859   */\n  swap2\n  swap1\n  pop\n  jump\t// out\n    /* \"#utility.yul\":1865:1940   */\ntag_19:\n    /* \"#utility.yul\":1908:1911   */\n  0x00\n    /* \"#utility.yul\":1929:1934   */\n  dup2\n    /* \"#utility.yul\":1922:1934   */\n  swap1\n  pop\n    /* \"#utility.yul\":1865:1940   */\n  swap2\n  swap1\n  pop\n  jump\t// out\n    /* \"#utility.yul\":1946:2215   */\ntag_20:\n    /* \"#utility.yul\":2056:2095   */\n  tag_50\n    /* \"#utility.yul\":2087:2094   */\n  dup4\n    /* \"#utility.yul\":2056:2095   */\n  tag_18\n  jump\t// in\ntag_50:\n    /* \"#utility.yul\":2117:2208   */\n  tag_51\n    /* \"#utility.yul\":2166:2207   */\n  tag_52\n    /* \"#utility.yul\":2190:2206   */\n  dup3\n    /* \"#utility.yul\":2166:2207   */\n  tag_19\n  jump\t// in\ntag_52:\n    /* \"#utility.yul\":2158:2164   */\n  dup5\n    /* \"#utility.yul\":2151:2155   */\n  dup5\n    /* \"#utility.yul\":2145:2156   */\n  sload\n    /* \"#utility.yul\":2117:2208   */\n  tag_15\n  jump\t// in\ntag_51:\n    /* \"#utility.yul\":2111:2115   */\n  dup3\n    /* \"#utility.yul\":2104:2209   */\n  sstore\n    /* \"#utility.yul\":2022:2215   */\n  pop\n    /* \"#utility.yul\":1946:2215   */\n  pop\n  pop\n  pop\n  jump\t// out\n    /* \"#utility.yul\":2221:2294   */\ntag_21:\n    /* \"#utility.yul\":2266:2269   */\n  0x00\n    /* \"#utility.yul\":2221:2294   */\n  swap1\n  jump\t// out\n    /* \"#utility.yul\":2300:2489   */\ntag_22:\n    /* \"#utility.yul\":2377:2409   */\n  tag_55\n  tag_21\n  jump\t// in\ntag_55:\n    /* \"#utility.yul\":2418:2483   */\n  tag_56\n    /* \"#utility.yul\":2476:2482   */\n  dup2\n    /* \"#utility.yul\":2468:2474   */\n  dup5\n    /* \"#utility.yul\":2462:2466   */\n  dup5\n    /* \"#utility.yul\":2418:2483   */\n  tag_20\n  jump\t// in\ntag_56:\n    /* \"#utility.yul\":2353:2489   */\n  pop\n    /* \"#utility.yul\":2300:2489   */\n  pop\n  pop\n  jump\t// out\n    /* \"#utility.yul\":2495:2681   */\ntag_23:\n    /* \"#utility.yul\":2555:2675   */\ntag_58:\n    /* \"#utility.yul\":2572:2575   */\n  dup2\n    /* \"#utility.yul\":2565:2570   */\n  dup2\n    /* \"#utility.yul\":2562:2576   */\n  lt\n    /* \"#utility.yul\":2555:2675   */\n  iszero\n  tag_60\n  jumpi\n    /* \"#utility.yul\":2626:2665   */\n  tag_61\n    /* \"#utility.yul\":2663:2664   */\n  0x00\n    /* \"#utility.yul\":2656:2661   */\n  dup3\n    /* \"#utility.yul\":2626:2665   */\n  tag_22\n  jump\t// in\ntag_61:\n    /* \"#utility.yul\":2599:2600   */\n  0x01\n    /* \"#utility.yul\":2592:2597   */\n  dup2\n    /* \"#utility.yul\":2588:2601   */\n  add\n    /* \"#utility.yul\":2579:2601   */\n  swap1\n  pop\n    /* \"#utility.yul\":2555:2675   */\n  jump(tag_58)\ntag_60:\n    /* \"#utility.yul\":2495:2681   */\n  pop\n  pop\n  jump\t// out\n    /* \"#utility.yul\":2687:3230   */\ntag_24:\n    /* \"#utility.yul\":2788:2790   */\n  0x1f\n    /* \"#utility.yul\":2783:2786   */\n  dup3\n    /* \"#utility.yul\":2780:2791   */\n  gt\n    /* \"#utility.yul\":2777:3223   */\n  iszero\n  tag_63\n  jumpi\n    /* \"#utility.yul\":2822:2860   */\n  tag_64\n    /* \"#utility.yul\":2854:2859   */\n  dup2\n    /* \"#utility.yul\":2822:2860   */\n  tag_12\n  jump\t// in\ntag_64:\n    /* \"#utility.yul\":2906:2935   */\n  tag_65\n    /* \"#utility.yul\":2924:2934   */\n  dup5\n    /* \"#utility.yul\":2906:2935   */\n  tag_13\n  jump\t// in\ntag_65:\n    /* \"#utility.yul\":2896:2904   */\n  dup2\n    /* \"#utility.yul\":2892:2936   */\n  add\n    /* \"#utility.yul\":3089:3091   */\n  0x20\n    /* \"#utility.yul\":3077:3087   */\n  dup6\n    /* \"#utility.yul\":3074:3092   */\n  lt\n    /* \"#utility.yul\":3071:3120   */\n  iszero\n  tag_66\n  jumpi\n    /* \"#utility.yul\":3110:3118   */\n  dup2\n    /* \"#utility.yul\":3095:3118   */\n  swap1\n  pop\n    /* \"#utility.yul\":3071:3120   */\ntag_66:\n    /* \"#utility.yul\":3133:3213   */\n  tag_67\n    /* \"#utility.yul\":3189:3211   */\n  tag_68\n    /* \"#utility.yul\":3207:3210   */\n  dup6\n    /* \"#utility.yul\":3189:3211   */\n  tag_13\n  jump\t// in\ntag_68:\n    /* \"#utility.yul\":3179:3187   */\n  dup4\n    /* \"#utility.yul\":3175:3212   */\n  add\n    /* \"#utility.yul\":3162:3173   */\n  dup3\n    /* \"#utility.yul\":3133:3213   */\n  tag_23\n  jump\t// in\ntag_67:\n    /* \"#utility.yul\":2792:3223   */\n  pop\n  pop\n    /* \"#utility.yul\":2777:3223   */\ntag_63:\n    /* \"#utility.yul\":2687:3230   */\n  pop\n  pop\n  pop\n  jump\t// out\n    /* \"#utility.yul\":3236:3353   */\ntag_25:\n    /* \"#utility.yul\":3290:3298   */\n  0x00\n    /* \"#utility.yul\":3340:3345   */\n  dup3\n    /* \"#utility.yul\":3334:3338   */\n  dup3\n    /* \"#utility.yul\":3330:3346   */\n  shr\n    /* \"#utility.yul\":3309:3346   */\n  swap1\n  pop\n    /* \"#utility.yul\":3236:3353   */\n  swap3\n  swap2\n  pop\n  pop\n  jump\t// out\n    /* \"#utility.yul\":3359:3528   */\ntag_26:\n    /* \"#utility.yul\":3403:3409   */\n  0x00\n    /* \"#utility.yul\":3436:3487   */\n  tag_71\n    /* \"#utility.yul\":3484:3485   */\n  0x00\n    /* \"#utility.yul\":3480:3486   */\n  not\n    /* \"#utility.yul\":3472:3477   */\n  dup5\n    /* \"#utility.yul\":3469:3470   */\n  0x08\n    /* \"#utility.yul\":3465:3478   */\n  mul\n    /* \"#utility.yul\":3436:3487   */\n  tag_25\n  jump\t// in\ntag_71:\n    /* \"#utility.yul\":3432:3488   */\n  not\n    /* \"#utility.yul\":3517:3521   */\n  dup1\n    /* \"#utility.yul\":3511:3515   */\n  dup4\n    /* \"#utility.yul\":3507:3522   */\n  and\n    /* \"#utility.yul\":3497:3522   */\n  swap2\n  pop\n    /* \"#utility.yul\":3410:3528   */\n  pop\n    /* \"#utility.yul\":3359:3528   */\n  swap3\n  swap2\n  pop\n  pop\n  jump\t// out\n    /* \"#utility.yul\":3533:3828   */\ntag_27:\n    /* \"#utility.yul\":3609:3613   */\n  0x00\n    /* \"#utility.yul\":3755:3784   */\n  tag_73\n    /* \"#utility.yul\":3780:3783   */\n  dup4\n    /* \"#utility.yul\":3774:3778   */\n  dup4\n    /* \"#utility.yul\":3755:3784   */\n  tag_26\n  jump\t// in\ntag_73:\n    /* \"#utility.yul\":3747:3784   */\n  swap2\n  pop\n    /* \"#utility.yul\":3817:3820   */\n  dup3\n    /* \"#utility.yul\":3814:3815   */\n  0x02\n    /* \"#utility.yul\":3810:3821   */\n  mul\n    /* \"#utility.yul\":3804:3808   */\n  dup3\n    /* \"#utility.yul\":3801:3822   */\n  or\n    /* \"#utility.yul\":3793:3822   */\n  swap1\n  pop\n    /* \"#utility.yul\":3533:3828   */\n  swap3\n  swap2\n  pop\n  pop\n  jump\t// out\n    /* \"#utility.yul\":3833:5228   */\ntag_5:\n    /* \"#utility.yul\":3950:3987   */\n  tag_75\n    /* \"#utility.yul\":3983:3986   */\n  dup3\n    /* \"#utility.yul\":3950:3987   */\n  tag_8\n  jump\t// in\ntag_75:\n    /* \"#utility.yul\":4052:4070   */\n  0xffffffffffffffff\n    /* \"#utility.yul\":4044:4050   */\n  dup2\n    /* \"#utility.yul\":4041:4071   */\n  gt\n    /* \"#utility.yul\":4038:4094   */\n  iszero\n  tag_76\n  jumpi\n    /* \"#utility.yul\":4074:4092   */\n  tag_77\n  tag_9\n  jump\t// in\ntag_77:\n    /* \"#utility.yul\":4038:4094   */\ntag_76:\n    /* \"#utility.yul\":4118:4156   */\n  tag_78\n    /* \"#utility.yul\":4150:4154   */\n  dup3\n    /* \"#utility.yul\":4144:4155   */\n  sload\n    /* \"#utility.yul\":4118:4156   */\n  tag_11\n  jump\t// in\ntag_78:\n    /* \"#utility.yul\":4203:4270   */\n  tag_79\n    /* \"#utility.yul\":4263:4269   */\n  dup3\n    /* \"#utility.yul\":4255:4261   */\n  dup3\n    /* \"#utility.yul\":4249:4253   */\n  dup6\n    /* \"#utility.yul\":4203:4270   */\n  tag_24\n  jump\t// in\ntag_79:\n    /* \"#utility.yul\":4297:4298   */\n  0x00\n    /* \"#utility.yul\":4321:4325   */\n  0x20\n    /* \"#utility.yul\":4308:4325   */\n  swap1\n  pop\n    /* \"#utility.yul\":4353:4355   */\n  0x1f\n    /* \"#utility.yul\":4345:4351   */\n  dup4\n    /* \"#utility.yul\":4342:4356   */\n  gt\n    /* \"#utility.yul\":4370:4371   */\n  0x01\n    /* \"#utility.yul\":4365:4983   */\n  dup2\n  eq\n  tag_81\n  jumpi\n    /* \"#utility.yul\":5027:5028   */\n  0x00\n    /* \"#utility.yul\":5044:5050   */\n  dup5\n    /* \"#utility.yul\":5041:5118   */\n  iszero\n  tag_82\n  jumpi\n    /* \"#utility.yul\":5093:5102   */\n  dup3\n    /* \"#utility.yul\":5088:5091   */\n  dup8\n    /* \"#utility.yul\":5084:5103   */\n  add\n    /* \"#utility.yul\":5078:5104   */\n  mload\n    /* \"#utility.yul\":5069:5104   */\n  swap1\n  pop\n    /* \"#utility.yul\":5041:5118   */\ntag_82:\n    /* \"#utility.yul\":5144:5211   */\n  tag_83\n    /* \"#utility.yul\":5204:5210   */\n  dup6\n    /* \"#utility.yul\":5197:5202   */\n  dup3\n    /* \"#utility.yul\":5144:5211   */\n  tag_27\n  jump\t// in\ntag_83:\n    /* \"#utility.yul\":5138:5142   */\n  dup7\n    /* \"#utility.yul\":5131:5212   */\n  sstore\n    /* \"#utility.yul\":5000:5222   */\n  pop\n    /* \"#utility.yul\":4335:5222   */\n  jump(tag_80)\n    /* \"#utility.yul\":4365:4983   */\ntag_81:\n    /* \"#utility.yul\":4417:4421   */\n  0x1f\n    /* \"#utility.yul\":4413:4422   */\n  not\n    /* \"#utility.yul\":4405:4411   */\n  dup5\n    /* \"#utility.yul\":4401:4423   */\n  and\n    /* \"#utility.yul\":4451:4488   */\n  tag_84\n    /* \"#utility.yul\":4483:4487   */\n  dup7\n    /* \"#utility.yul\":4451:4488   */\n  tag_12\n  jump\t// in\ntag_84:\n    /* \"#utility.yul\":4510:4511   */\n  0x00\n    /* \"#utility.yul\":4524:4732   */\ntag_85:\n    /* \"#utility.yul\":4538:4545   */\n  dup3\n    /* \"#utility.yul\":4535:4536   */\n  dup2\n    /* \"#utility.yul\":4532:4546   */\n  lt\n    /* \"#utility.yul\":4524:4732   */\n  iszero\n  tag_87\n  jumpi\n    /* \"#utility.yul\":4617:4626   */\n  dup5\n    /* \"#utility.yul\":4612:4615   */\n  dup10\n    /* \"#utility.yul\":4608:4627   */\n  add\n    /* \"#utility.yul\":4602:4628   */\n  mload\n    /* \"#utility.yul\":4594:4600   */\n  dup3\n    /* \"#utility.yul\":4587:4629   */\n  sstore\n    /* \"#utility.yul\":4668:4669   */\n  0x01\n    /* \"#utility.yul\":4660:4666   */\n  dup3\n    /* \"#utility.yul\":4656:4670   */\n  add\n    /* \"#utility.yul\":4646:4670   */\n  swap2\n  pop\n    /* \"#utility.yul\":4715:4717   */\n  0x20\n    /* \"#utility.yul\":4704:4713   */\n  dup6\n    /* \"#utility.yul\":4700:4718   */\n  add\n    /* \"#utility.yul\":4687:4718   */\n  swap5\n  pop\n    /* \"#utility.yul\":4561:4565   */\n  0x20\n    /* \"#utility.yul\":4558:4559   */\n  dup2\n    /* \"#utility.yul\":4554:4566   */\n  add\n    /* \"#utility.yul\":4549:4566   */\n  swap1\n  pop\n    /* \"#utility.yul\":4524:4732   */\n  jump(tag_85)\ntag_87:\n    /* \"#utility.yul\":4760:4766   */\n  dup7\n    /* \"#utility.yul\":4751:4758   */\n  dup4\n    /* \"#utility.yul\":4748:4767   */\n  lt\n    /* \"#utility.yul\":4745:4924   */\n  iszero\n  tag_88\n  jumpi\n    /* \"#utility.yul\":4818:4827   */\n  dup5\n    /* \"#utility.yul\":4813:4816   */\n  dup10\n    /* \"#utility.yul\":4809:4828   */\n  add\n    /* \"#utility.yul\":4803:4829   */\n  mload\n    /* \"#utility.yul\":4861:4909   */\n  tag_89\n    /* \"#utility.yul\":4903:4907   */\n  0x1f\n    /* \"#utility.yul\":4895:4901   */\n  dup10\n    /* \"#utility.yul\":4891:4908   */\n  and\n    /* \"#utility.yul\":4880:4889   */\n  dup3\n    /* \"#utility.yul\":4861:4909   */\n  tag_26\n  jump\t// in\ntag_89:\n    /* \"#utility.yul\":4853:4859   */\n  dup4\n    /* \"#utility.yul\":4846:4910   */\n  sstore\n    /* \"#utility.yul\":4768:4924   */\n  pop\n    /* \"#utility.yul\":4745:4924   */\ntag_88:\n    /* \"#utility.yul\":4970:4971   */\n  0x01\n    /* \"#utility.yul\":4966:4967   */\n  0x02\n    /* \"#utility.yul\":4958:4964   */\n  dup9\n    /* \"#utility.yul\":4954:4968   */\n  mul\n    /* \"#utility.yul\":4950:4972   */\n  add\n    /* \"#utility.yul\":4944:4948   */\n  dup9\n    /* \"#utility.yul\":4937:4973   */\n  sstore\n    /* \"#utility.yul\":4372:4983   */\n  pop\n  pop\n  pop\n    /* \"#utility.yul\":4335:5222   */\ntag_80:\n  pop\n    /* \"#utility.yul\":3925:5228   */\n  pop\n  pop\n  pop\n    /* \"#utility.yul\":3833:5228   */\n  pop\n  pop\n  jump\t// out\n    /* \"tronweb/contracts/USDTFlash_TRC20.sol\":245:7050  contract USDTFlash is ITRC20, ITRC20Metadata, Context, ITRC20Errors {... */\ntag_7:\n  dataSize(sub_0)\n  dup1\n  dataOffset(sub_0)\n  0x00\n  codecopy\n  0x00\n  return\nstop\n\nsub_0: assembly {\n        /* \"tronweb/contracts/USDTFlash_TRC20.sol\":245:7050  contract USDTFlash is ITRC20, ITRC20Metadata, Context, ITRC20Errors {... */\n      mstore(0x40, 0x80)\n      callvalue\n      dup1\n      iszero\n      tag_1\n      jumpi\n      0x00\n      dup1\n      revert\n    tag_1:\n      pop\n      jumpi(tag_2, lt(calldatasize, 0x04))\n      shr(0xe0, calldataload(0x00))\n      dup1\n      0x70a08231\n      gt\n      tag_22\n      jumpi\n      dup1\n      0xa457c2d7\n      gt\n      tag_23\n      jumpi\n      dup1\n      0xa457c2d7\n      eq\n      tag_17\n      jumpi\n      dup1\n      0xa9059cbb\n      eq\n      tag_18\n      jumpi\n      dup1\n      0xd5abeb01\n      eq\n      tag_19\n      jumpi\n      dup1\n      0xdd62ed3e\n      eq\n      tag_20\n      jumpi\n      dup1\n      0xf2fde38b\n      eq\n      tag_21\n      jumpi\n      jump(tag_2)\n    tag_23:\n      dup1\n      0x70a08231\n      eq\n      tag_12\n      jumpi\n      dup1\n      0x8456cb59\n      eq\n      tag_13\n      jumpi\n      dup1\n      0x8980f11f\n      eq\n      tag_14\n      jumpi\n      dup1\n      0x95d89b41\n      eq\n      tag_15\n      jumpi\n      dup1\n      0xa0712d68\n      eq\n      tag_16\n      jumpi\n      jump(tag_2)\n    tag_22:\n      dup1\n      0x2a52940d\n      gt\n      tag_24\n      jumpi\n      dup1\n      0x2a52940d\n      eq\n      tag_7\n      jumpi\n      dup1\n      0x313ce567\n      eq\n      tag_8\n      jumpi\n      dup1\n      0x39509351\n      eq\n      tag_9\n      jumpi\n      dup1\n      0x3f4ba83a\n      eq\n      tag_10\n      jumpi\n      dup1\n      0x42966c68\n      eq\n      tag_11\n      jumpi\n      jump(tag_2)\n    tag_24:\n      dup1\n      0x06fdde03\n      eq\n      tag_3\n      jumpi\n      dup1\n      0x095ea7b3\n      eq\n      tag_4\n      jumpi\n      dup1\n      0x18160ddd\n      eq\n      tag_5\n      jumpi\n      dup1\n      0x23b872dd\n      eq\n      tag_6\n      jumpi\n    tag_2:\n      0x00\n      dup1\n      revert\n        /* \"tronweb/contracts/USDTFlash_TRC20.sol\":1616:1707  function name() external view virtual returns (string memory) {... */\n    tag_3:\n      tag_25\n      tag_26\n      jump\t// in\n    tag_25:\n      mload(0x40)\n      tag_27\n      swap2\n      swap1\n      tag_28\n      jump\t// in\n    tag_27:\n      mload(0x40)\n      dup1\n      swap2\n      sub\n      swap1\n      return\n        /* \"tronweb/contracts/USDTFlash_TRC20.sol\":2902:3104  function approve(address spender, uint256 value) external virtual whenNotPaused returns (bool) {... */\n    tag_4:\n      tag_29\n      0x04\n      dup1\n      calldatasize\n      sub\n      dup2\n      add\n      swap1\n      tag_30\n      swap2\n      swap1\n      tag_31\n      jump\t// in\n    tag_30:\n      tag_32\n      jump\t// in\n    tag_29:\n      mload(0x40)\n      tag_33\n      swap2\n      swap1\n      tag_34\n      jump\t// in\n    tag_33:\n      mload(0x40)\n      dup1\n      swap2\n      sub\n      swap1\n      return\n        /* \"tronweb/contracts/USDTFlash_TRC20.sol\":1904:1995  function totalSupply() external view returns (uint256) {... */\n    tag_5:\n      tag_35\n      tag_36\n      jump\t// in\n    tag_35:\n      mload(0x40)\n      tag_37\n      swap2\n      swap1\n      tag_38\n      jump\t// in\n    tag_37:\n      mload(0x40)\n      dup1\n      swap2\n      sub\n      swap1\n      return\n        /* \"tronweb/contracts/USDTFlash_TRC20.sol\":3110:3370  function transferFrom(address from, address to, uint256 value) external virtual whenNotPaused returns (bool) {... */\n    tag_6:\n      tag_39\n      0x04\n      dup1\n      calldatasize\n      sub\n      dup2\n      add\n      swap1\n      tag_40\n      swap2\n      swap1\n      tag_41\n      jump\t// in\n    tag_40:\n      tag_42\n      jump\t// in\n    tag_39:\n      mload(0x40)\n      tag_43\n      swap2\n      swap1\n      tag_34\n      jump\t// in\n    tag_43:\n      mload(0x40)\n      dup1\n      swap2\n      sub\n      swap1\n      return\n        /* \"tronweb/contracts/USDTFlash_TRC20.sol\":1330:1461  function setFlashLoanContract(address flashLoanContract) external onlyOwner {... */\n    tag_7:\n      tag_44\n      0x04\n      dup1\n      calldatasize\n      sub\n      dup2\n      add\n      swap1\n      tag_45\n      swap2\n      swap1\n      tag_46\n      jump\t// in\n    tag_45:\n      tag_47\n      jump\t// in\n    tag_44:\n      stop\n        /* \"tronweb/contracts/USDTFlash_TRC20.sol\":1814:1898  function decimals() external view virtual returns (uint8) {... */\n    tag_8:\n      tag_48\n      tag_49\n      jump\t// in\n    tag_48:\n      mload(0x40)\n      tag_50\n      swap2\n      swap1\n      tag_51\n      jump\t// in\n    tag_50:\n      mload(0x40)\n      dup1\n      swap2\n      sub\n      swap1\n      return\n        /* \"tronweb/contracts/USDTFlash_TRC20.sol\":3376:3623  function increaseAllowance(address spender, uint addedValue) external virtual whenNotPaused returns (bool) {... */\n    tag_9:\n      tag_52\n      0x04\n      dup1\n      calldatasize\n      sub\n      dup2\n      add\n      swap1\n      tag_53\n      swap2\n      swap1\n      tag_31\n      jump\t// in\n    tag_53:\n      tag_54\n      jump\t// in\n    tag_52:\n      mload(0x40)\n      tag_55\n      swap2\n      swap1\n      tag_34\n      jump\t// in\n    tag_55:\n      mload(0x40)\n      dup1\n      swap2\n      sub\n      swap1\n      return\n        /* \"tronweb/contracts/USDTFlash_TRC20.sol\":1540:1610  function unpause() external onlyOwner {... */\n    tag_10:\n      tag_56\n      tag_57\n      jump\t// in\n    tag_56:\n      stop\n        /* \"tronweb/contracts/USDTFlash_TRC20.sol\":2677:2758  function burn(uint256 amount) external {... */\n    tag_11:\n      tag_58\n      0x04\n      dup1\n      calldatasize\n      sub\n      dup2\n      add\n      swap1\n      tag_59\n      swap2\n      swap1\n      tag_60\n      jump\t// in\n    tag_59:\n      tag_61\n      jump\t// in\n    tag_58:\n      stop\n        /* \"tronweb/contracts/USDTFlash_TRC20.sol\":2102:2212  function balanceOf(address account) external view returns (uint256) {... */\n    tag_12:\n      tag_62\n      0x04\n      dup1\n      calldatasize\n      sub\n      dup2\n      add\n      swap1\n      tag_63\n      swap2\n      swap1\n      tag_46\n      jump\t// in\n    tag_63:\n      tag_64\n      jump\t// in\n    tag_62:\n      mload(0x40)\n      tag_65\n      swap2\n      swap1\n      tag_38\n      jump\t// in\n    tag_65:\n      mload(0x40)\n      dup1\n      swap2\n      sub\n      swap1\n      return\n        /* \"tronweb/contracts/USDTFlash_TRC20.sol\":1467:1534  function pause() external onlyOwner {... */\n    tag_13:\n      tag_66\n      tag_67\n      jump\t// in\n    tag_66:\n      stop\n        /* \"tronweb/contracts/USDTFlash_TRC20.sol\":4064:4215  function recoverERC20(address tokenAddress, uint256 tokenAmount) external onlyOwner {... */\n    tag_14:\n      tag_68\n      0x04\n      dup1\n      calldatasize\n      sub\n      dup2\n      add\n      swap1\n      tag_69\n      swap2\n      swap1\n      tag_31\n      jump\t// in\n    tag_69:\n      tag_70\n      jump\t// in\n    tag_68:\n      stop\n        /* \"tronweb/contracts/USDTFlash_TRC20.sol\":1713:1808  function symbol() external view virtual returns (string memory) {... */\n    tag_15:\n      tag_71\n      tag_72\n      jump\t// in\n    tag_71:\n      mload(0x40)\n      tag_73\n      swap2\n      swap1\n      tag_28\n      jump\t// in\n    tag_73:\n      mload(0x40)\n      dup1\n      swap2\n      sub\n      swap1\n      return\n        /* \"tronweb/contracts/USDTFlash_TRC20.sol\":2418:2671  function mint(uint256 amount) external returns (bool) {... */\n    tag_16:\n      tag_74\n      0x04\n      dup1\n      calldatasize\n      sub\n      dup2\n      add\n      swap1\n      tag_75\n      swap2\n      swap1\n      tag_60\n      jump\t// in\n    tag_75:\n      tag_76\n      jump\t// in\n    tag_74:\n      mload(0x40)\n      tag_77\n      swap2\n      swap1\n      tag_34\n      jump\t// in\n    tag_77:\n      mload(0x40)\n      dup1\n      swap2\n      sub\n      swap1\n      return\n        /* \"tronweb/contracts/USDTFlash_TRC20.sol\":3629:4058  function decreaseAllowance(address spender, uint subtractedValue) external virtual whenNotPaused returns (bool) {... */\n    tag_17:\n      tag_78\n      0x04\n      dup1\n      calldatasize\n      sub\n      dup2\n      add\n      swap1\n      tag_79\n      swap2\n      swap1\n      tag_31\n      jump\t// in\n    tag_79:\n      tag_80\n      jump\t// in\n    tag_78:\n      mload(0x40)\n      tag_81\n      swap2\n      swap1\n      tag_34\n      jump\t// in\n    tag_81:\n      mload(0x40)\n      dup1\n      swap2\n      sub\n      swap1\n      return\n        /* \"tronweb/contracts/USDTFlash_TRC20.sol\":2218:2412  function transfer(address to, uint256 value) external virtual whenNotPaused returns (bool) {... */\n    tag_18:\n      tag_82\n      0x04\n      dup1\n      calldatasize\n      sub\n      dup2\n      add\n      swap1\n      tag_83\n      swap2\n      swap1\n      tag_31\n      jump\t// in\n    tag_83:\n      tag_84\n      jump\t// in\n    tag_82:\n      mload(0x40)\n      tag_85\n      swap2\n      swap1\n      tag_34\n      jump\t// in\n    tag_85:\n      mload(0x40)\n      dup1\n      swap2\n      sub\n      swap1\n      return\n        /* \"tronweb/contracts/USDTFlash_TRC20.sol\":2001:2096  function maxSupply() external view virtual returns (uint256) {... */\n    tag_19:\n      tag_86\n      tag_87\n      jump\t// in\n    tag_86:\n      mload(0x40)\n      tag_88\n      swap2\n      swap1\n      tag_38\n      jump\t// in\n    tag_88:\n      mload(0x40)\n      dup1\n      swap2\n      sub\n      swap1\n      return\n        /* \"tronweb/contracts/USDTFlash_TRC20.sol\":2764:2896  function allowance(address owner, address spender) public view returns (uint256) {... */\n    tag_20:\n      tag_89\n      0x04\n      dup1\n      calldatasize\n      sub\n      dup2\n      add\n      swap1\n      tag_90\n      swap2\n      swap1\n      tag_91\n      jump\t// in\n    tag_90:\n      tag_92\n      jump\t// in\n    tag_89:\n      mload(0x40)\n      tag_93\n      swap2\n      swap1\n      tag_38\n      jump\t// in\n    tag_93:\n      mload(0x40)\n      dup1\n      swap2\n      sub\n      swap1\n      return\n        /* \"tronweb/contracts/USDTFlash_TRC20.sol\":4221:4393  function transferOwnership(address newOwner) external onlyOwner {... */\n    tag_21:\n      tag_94\n      0x04\n      dup1\n      calldatasize\n      sub\n      dup2\n      add\n      swap1\n      tag_95\n      swap2\n      swap1\n      tag_46\n      jump\t// in\n    tag_95:\n      tag_96\n      jump\t// in\n    tag_94:\n      stop\n        /* \"tronweb/contracts/USDTFlash_TRC20.sol\":1616:1707  function name() external view virtual returns (string memory) {... */\n    tag_26:\n        /* \"tronweb/contracts/USDTFlash_TRC20.sol\":1663:1676  string memory */\n      0x60\n        /* \"tronweb/contracts/USDTFlash_TRC20.sol\":1695:1700  _name */\n      0x04\n        /* \"tronweb/contracts/USDTFlash_TRC20.sol\":1688:1700  return _name */\n      dup1\n      sload\n      tag_98\n      swap1\n      tag_99\n      jump\t// in\n    tag_98:\n      dup1\n      0x1f\n      add\n      0x20\n      dup1\n      swap2\n      div\n      mul\n      0x20\n      add\n      mload(0x40)\n      swap1\n      dup2\n      add\n      0x40\n      mstore\n      dup1\n      swap3\n      swap2\n      swap1\n      dup2\n      dup2\n      mstore\n      0x20\n      add\n      dup3\n      dup1\n      sload\n      tag_100\n      swap1\n      tag_99\n      jump\t// in\n    tag_100:\n      dup1\n      iszero\n      tag_101\n      jumpi\n      dup1\n      0x1f\n      lt\n      tag_102\n      jumpi\n      0x0100\n      dup1\n      dup4\n      sload\n      div\n      mul\n      dup4\n      mstore\n      swap2\n      0x20\n      add\n      swap2\n      jump(tag_101)\n    tag_102:\n      dup3\n      add\n      swap2\n      swap1\n      0x00\n      mstore\n      keccak256(0x00, 0x20)\n      swap1\n    tag_103:\n      dup2\n      sload\n      dup2\n      mstore\n      swap1\n      0x01\n      add\n      swap1\n      0x20\n      add\n      dup1\n      dup4\n      gt\n      tag_103\n      jumpi\n      dup3\n      swap1\n      sub\n      0x1f\n      and\n      dup3\n      add\n      swap2\n    tag_101:\n      pop\n      pop\n      pop\n      pop\n      pop\n      swap1\n      pop\n        /* \"tronweb/contracts/USDTFlash_TRC20.sol\":1616:1707  function name() external view virtual returns (string memory) {... */\n      swap1\n      jump\t// out\n        /* \"tronweb/contracts/USDTFlash_TRC20.sol\":2902:3104  function approve(address spender, uint256 value) external virtual whenNotPaused returns (bool) {... */\n    tag_32:\n        /* \"tronweb/contracts/USDTFlash_TRC20.sol\":2991:2995  bool */\n      0x00\n        /* \"tronweb/contracts/USDTFlash_TRC20.sol\":1278:1285  _paused */\n      0x07\n      0x14\n      swap1\n      sload\n      swap1\n      0x0100\n      exp\n      swap1\n      div\n      0xff\n      and\n        /* \"tronweb/contracts/USDTFlash_TRC20.sol\":1277:1285  !_paused */\n      iszero\n        /* \"tronweb/contracts/USDTFlash_TRC20.sol\":1269:1306  require(!_paused, \"Pausable: paused\") */\n      tag_105\n      jumpi\n      mload(0x40)\n      0x08c379a000000000000000000000000000000000000000000000000000000000\n      dup2\n      mstore\n      0x04\n      add\n      tag_106\n      swap1\n      tag_107\n      jump\t// in\n    tag_106:\n      mload(0x40)\n      dup1\n      swap2\n      sub\n      swap1\n      revert\n    tag_105:\n        /* \"tronweb/contracts/USDTFlash_TRC20.sol\":3007:3020  address owner */\n      0x00\n        /* \"tronweb/contracts/USDTFlash_TRC20.sol\":3023:3035  _msgSender() */\n      tag_109\n        /* \"tronweb/contracts/USDTFlash_TRC20.sol\":3023:3033  _msgSender */\n      tag_110\n        /* \"tronweb/contracts/USDTFlash_TRC20.sol\":3023:3035  _msgSender() */\n      jump\t// in\n    tag_109:\n        /* \"tronweb/contracts/USDTFlash_TRC20.sol\":3007:3035  address owner = _msgSender() */\n      swap1\n      pop\n        /* \"tronweb/contracts/USDTFlash_TRC20.sol\":3045:3076  _approve(owner, spender, value) */\n      tag_111\n        /* \"tronweb/contracts/USDTFlash_TRC20.sol\":3054:3059  owner */\n      dup2\n        /* \"tronweb/contracts/USDTFlash_TRC20.sol\":3061:3068  spender */\n      dup6\n        /* \"tronweb/contracts/USDTFlash_TRC20.sol\":3070:3075  value */\n      dup6\n        /* \"tronweb/contracts/USDTFlash_TRC20.sol\":3045:3053  _approve */\n      tag_112\n        /* \"tronweb/contracts/USDTFlash_TRC20.sol\":3045:3076  _approve(owner, spender, value) */\n      jump\t// in\n    tag_111:\n        /* \"tronweb/contracts/USDTFlash_TRC20.sol\":3093:3097  true */\n      0x01\n        /* \"tronweb/contracts/USDTFlash_TRC20.sol\":3086:3097  return true */\n      swap2\n      pop\n      pop\n        /* \"tronweb/contracts/USDTFlash_TRC20.sol\":2902:3104  function approve(address spender, uint256 value) external virtual whenNotPaused returns (bool) {... */\n      swap3\n      swap2\n      pop\n      pop\n      jump\t// out\n        /* \"tronweb/contracts/USDTFlash_TRC20.sol\":1904:1995  function totalSupply() external view returns (uint256) {... */\n    tag_36:\n        /* \"tronweb/contracts/USDTFlash_TRC20.sol\":1950:1957  uint256 */\n      0x00\n        /* \"tronweb/contracts/USDTFlash_TRC20.sol\":1976:1988  _totalSupply */\n      sload(0x02)\n        /* \"tronweb/contracts/USDTFlash_TRC20.sol\":1969:1988  return _totalSupply */\n      swap1\n      pop\n        /* \"tronweb/contracts/USDTFlash_TRC20.sol\":1904:1995  function totalSupply() external view returns (uint256) {... */\n      swap1\n      jump\t// out\n        /* \"tronweb/contracts/USDTFlash_TRC20.sol\":3110:3370  function transferFrom(address from, address to, uint256 value) external virtual whenNotPaused returns (bool) {... */\n    tag_42:\n        /* \"tronweb/contracts/USDTFlash_TRC20.sol\":3213:3217  bool */\n      0x00\n        /* \"tronweb/contracts/USDTFlash_TRC20.sol\":1278:1285  _paused */\n      0x07\n      0x14\n      swap1\n      sload\n      swap1\n      0x0100\n      exp\n      swap1\n      div\n      0xff\n      and\n        /* \"tronweb/contracts/USDTFlash_TRC20.sol\":1277:1285  !_paused */\n      iszero\n        /* \"tronweb/contracts/USDTFlash_TRC20.sol\":1269:1306  require(!_paused, \"Pausable: paused\") */\n      tag_115\n      jumpi\n      mload(0x40)\n      0x08c379a000000000000000000000000000000000000000000000000000000000\n      dup2\n      mstore\n      0x04\n      add\n      tag_116\n      swap1\n      tag_107\n      jump\t// in\n    tag_116:\n      mload(0x40)\n      dup1\n      swap2\n      sub\n      swap1\n      revert\n    tag_115:\n        /* \"tronweb/contracts/USDTFlash_TRC20.sol\":3229:3244  address spender */\n      0x00\n        /* \"tronweb/contracts/USDTFlash_TRC20.sol\":3247:3259  _msgSender() */\n      tag_118\n        /* \"tronweb/contracts/USDTFlash_TRC20.sol\":3247:3257  _msgSender */\n      tag_110\n        /* \"tronweb/contracts/USDTFlash_TRC20.sol\":3247:3259  _msgSender() */\n      jump\t// in\n    tag_118:\n        /* \"tronweb/contracts/USDTFlash_TRC20.sol\":3229:3259  address spender = _msgSender() */\n      swap1\n      pop\n        /* \"tronweb/contracts/USDTFlash_TRC20.sol\":3269:3306  _spendAllowance(from, spender, value) */\n      tag_119\n        /* \"tronweb/contracts/USDTFlash_TRC20.sol\":3285:3289  from */\n      dup6\n        /* \"tronweb/contracts/USDTFlash_TRC20.sol\":3291:3298  spender */\n      dup3\n        /* \"tronweb/contracts/USDTFlash_TRC20.sol\":3300:3305  value */\n      dup6\n        /* \"tronweb/contracts/USDTFlash_TRC20.sol\":3269:3284  _spendAllowance */\n      tag_120\n        /* \"tronweb/contracts/USDTFlash_TRC20.sol\":3269:3306  _spendAllowance(from, spender, value) */\n      jump\t// in\n    tag_119:\n        /* \"tronweb/contracts/USDTFlash_TRC20.sol\":3316:3342  _transfer(from, to, value) */\n      tag_121\n        /* \"tronweb/contracts/USDTFlash_TRC20.sol\":3326:3330  from */\n      dup6\n        /* \"tronweb/contracts/USDTFlash_TRC20.sol\":3332:3334  to */\n      dup6\n        /* \"tronweb/contracts/USDTFlash_TRC20.sol\":3336:3341  value */\n      dup6\n        /* \"tronweb/contracts/USDTFlash_TRC20.sol\":3316:3325  _transfer */\n      tag_122\n        /* \"tronweb/contracts/USDTFlash_TRC20.sol\":3316:3342  _transfer(from, to, value) */\n      jump\t// in\n    tag_121:\n        /* \"tronweb/contracts/USDTFlash_TRC20.sol\":3359:3363  true */\n      0x01\n        /* \"tronweb/contracts/USDTFlash_TRC20.sol\":3352:3363  return true */\n      swap2\n      pop\n      pop\n        /* \"tronweb/contracts/USDTFlash_TRC20.sol\":3110:3370  function transferFrom(address from, address to, uint256 value) external virtual whenNotPaused returns (bool) {... */\n      swap4\n      swap3\n      pop\n      pop\n      pop\n      jump\t// out\n        /* \"tronweb/contracts/USDTFlash_TRC20.sol\":1330:1461  function setFlashLoanContract(address flashLoanContract) external onlyOwner {... */\n    tag_47:\n        /* \"tronweb/contracts/USDTFlash_TRC20.sol\":990:996  _owner */\n      0x06\n      0x00\n      swap1\n      sload\n      swap1\n      0x0100\n      exp\n      swap1\n      div\n      0xffffffffffffffffffffffffffffffffffffffff\n      and\n        /* \"tronweb/contracts/USDTFlash_TRC20.sol\":976:996  msg.sender == _owner */\n      0xffffffffffffffffffffffffffffffffffffffff\n      and\n        /* \"tronweb/contracts/USDTFlash_TRC20.sol\":976:986  msg.sender */\n      caller\n        /* \"tronweb/contracts/USDTFlash_TRC20.sol\":976:996  msg.sender == _owner */\n      0xffffffffffffffffffffffffffffffffffffffff\n      and\n      eq\n        /* \"tronweb/contracts/USDTFlash_TRC20.sol\":968:1047  require(msg.sender == _owner, \"Only the contract owner can call this function\") */\n      tag_124\n      jumpi\n      mload(0x40)\n      0x08c379a000000000000000000000000000000000000000000000000000000000\n      dup2\n      mstore\n      0x04\n      add\n      tag_125\n      swap1\n      tag_126\n      jump\t// in\n    tag_125:\n      mload(0x40)\n      dup1\n      swap2\n      sub\n      swap1\n      revert\n    tag_124:\n        /* \"tronweb/contracts/USDTFlash_TRC20.sol\":1437:1454  flashLoanContract */\n      dup1\n        /* \"tronweb/contracts/USDTFlash_TRC20.sol\":1416:1434  _flashLoanContract */\n      0x07\n      0x00\n        /* \"tronweb/contracts/USDTFlash_TRC20.sol\":1416:1454  _flashLoanContract = flashLoanContract */\n      0x0100\n      exp\n      dup2\n      sload\n      dup2\n      0xffffffffffffffffffffffffffffffffffffffff\n      mul\n      not\n      and\n      swap1\n      dup4\n      0xffffffffffffffffffffffffffffffffffffffff\n      and\n      mul\n      or\n      swap1\n      sstore\n      pop\n        /* \"tronweb/contracts/USDTFlash_TRC20.sol\":1330:1461  function setFlashLoanContract(address flashLoanContract) external onlyOwner {... */\n      pop\n      jump\t// out\n        /* \"tronweb/contracts/USDTFlash_TRC20.sol\":1814:1898  function decimals() external view virtual returns (uint8) {... */\n    tag_49:\n        /* \"tronweb/contracts/USDTFlash_TRC20.sol\":1865:1870  uint8 */\n      0x00\n        /* \"tronweb/contracts/USDTFlash_TRC20.sol\":1889:1891  18 */\n      0x12\n        /* \"tronweb/contracts/USDTFlash_TRC20.sol\":1882:1891  return 18 */\n      swap1\n      pop\n        /* \"tronweb/contracts/USDTFlash_TRC20.sol\":1814:1898  function decimals() external view virtual returns (uint8) {... */\n      swap1\n      jump\t// out\n        /* \"tronweb/contracts/USDTFlash_TRC20.sol\":3376:3623  function increaseAllowance(address spender, uint addedValue) external virtual whenNotPaused returns (bool) {... */\n    tag_54:\n        /* \"tronweb/contracts/USDTFlash_TRC20.sol\":3477:3481  bool */\n      0x00\n        /* \"tronweb/contracts/USDTFlash_TRC20.sol\":1278:1285  _paused */\n      0x07\n      0x14\n      swap1\n      sload\n      swap1\n      0x0100\n      exp\n      swap1\n      div\n      0xff\n      and\n        /* \"tronweb/contracts/USDTFlash_TRC20.sol\":1277:1285  !_paused */\n      iszero\n        /* \"tronweb/contracts/USDTFlash_TRC20.sol\":1269:1306  require(!_paused, \"Pausable: paused\") */\n      tag_130\n      jumpi\n      mload(0x40)\n      0x08c379a000000000000000000000000000000000000000000000000000000000\n      dup2\n      mstore\n      0x04\n      add\n      tag_131\n      swap1\n      tag_107\n      jump\t// in\n    tag_131:\n      mload(0x40)\n      dup1\n      swap2\n      sub\n      swap1\n      revert\n    tag_130:\n        /* \"tronweb/contracts/USDTFlash_TRC20.sol\":3493:3506  address owner */\n      0x00\n        /* \"tronweb/contracts/USDTFlash_TRC20.sol\":3509:3521  _msgSender() */\n      tag_133\n        /* \"tronweb/contracts/USDTFlash_TRC20.sol\":3509:3519  _msgSender */\n      tag_110\n        /* \"tronweb/contracts/USDTFlash_TRC20.sol\":3509:3521  _msgSender() */\n      jump\t// in\n    tag_133:\n        /* \"tronweb/contracts/USDTFlash_TRC20.sol\":3493:3521  address owner = _msgSender() */\n      swap1\n      pop\n        /* \"tronweb/contracts/USDTFlash_TRC20.sol\":3531:3595  _approve(owner, spender, allowance(owner, spender) + addedValue) */\n      tag_134\n        /* \"tronweb/contracts/USDTFlash_TRC20.sol\":3540:3545  owner */\n      dup2\n        /* \"tronweb/contracts/USDTFlash_TRC20.sol\":3547:3554  spender */\n      dup6\n        /* \"tronweb/contracts/USDTFlash_TRC20.sol\":3584:3594  addedValue */\n      dup6\n        /* \"tronweb/contracts/USDTFlash_TRC20.sol\":3556:3581  allowance(owner, spender) */\n      tag_135\n        /* \"tronweb/contracts/USDTFlash_TRC20.sol\":3566:3571  owner */\n      dup6\n        /* \"tronweb/contracts/USDTFlash_TRC20.sol\":3573:3580  spender */\n      dup10\n        /* \"tronweb/contracts/USDTFlash_TRC20.sol\":3556:3565  allowance */\n      tag_92\n        /* \"tronweb/contracts/USDTFlash_TRC20.sol\":3556:3581  allowance(owner, spender) */\n      jump\t// in\n    tag_135:\n        /* \"tronweb/contracts/USDTFlash_TRC20.sol\":3556:3594  allowance(owner, spender) + addedValue */\n      tag_136\n      swap2\n      swap1\n      tag_137\n      jump\t// in\n    tag_136:\n        /* \"tronweb/contracts/USDTFlash_TRC20.sol\":3531:3539  _approve */\n      tag_112\n        /* \"tronweb/contracts/USDTFlash_TRC20.sol\":3531:3595  _approve(owner, spender, allowance(owner, spender) + addedValue) */\n      jump\t// in\n    tag_134:\n        /* \"tronweb/contracts/USDTFlash_TRC20.sol\":3612:3616  true */\n      0x01\n        /* \"tronweb/contracts/USDTFlash_TRC20.sol\":3605:3616  return true */\n      swap2\n      pop\n      pop\n        /* \"tronweb/contracts/USDTFlash_TRC20.sol\":3376:3623  function increaseAllowance(address spender, uint addedValue) external virtual whenNotPaused returns (bool) {... */\n      swap3\n      swap2\n      pop\n      pop\n      jump\t// out\n        /* \"tronweb/contracts/USDTFlash_TRC20.sol\":1540:1610  function unpause() external onlyOwner {... */\n    tag_57:\n        /* \"tronweb/contracts/USDTFlash_TRC20.sol\":990:996  _owner */\n      0x06\n      0x00\n      swap1\n      sload\n      swap1\n      0x0100\n      exp\n      swap1\n      div\n      0xffffffffffffffffffffffffffffffffffffffff\n      and\n        /* \"tronweb/contracts/USDTFlash_TRC20.sol\":976:996  msg.sender == _owner */\n      0xffffffffffffffffffffffffffffffffffffffff\n      and\n        /* \"tronweb/contracts/USDTFlash_TRC20.sol\":976:986  msg.sender */\n      caller\n        /* \"tronweb/contracts/USDTFlash_TRC20.sol\":976:996  msg.sender == _owner */\n      0xffffffffffffffffffffffffffffffffffffffff\n      and\n      eq\n        /* \"tronweb/contracts/USDTFlash_TRC20.sol\":968:1047  require(msg.sender == _owner, \"Only the contract owner can call this function\") */\n      tag_139\n      jumpi\n      mload(0x40)\n      0x08c379a000000000000000000000000000000000000000000000000000000000\n      dup2\n      mstore\n      0x04\n      add\n      tag_140\n      swap1\n      tag_126\n      jump\t// in\n    tag_140:\n      mload(0x40)\n      dup1\n      swap2\n      sub\n      swap1\n      revert\n    tag_139:\n        /* \"tronweb/contracts/USDTFlash_TRC20.sol\":1598:1603  false */\n      0x00\n        /* \"tronweb/contracts/USDTFlash_TRC20.sol\":1588:1595  _paused */\n      0x07\n      0x14\n        /* \"tronweb/contracts/USDTFlash_TRC20.sol\":1588:1603  _paused = false */\n      0x0100\n      exp\n      dup2\n      sload\n      dup2\n      0xff\n      mul\n      not\n      and\n      swap1\n      dup4\n      iszero\n      iszero\n      mul\n      or\n      swap1\n      sstore\n      pop\n        /* \"tronweb/contracts/USDTFlash_TRC20.sol\":1540:1610  function unpause() external onlyOwner {... */\n      jump\t// out\n        /* \"tronweb/contracts/USDTFlash_TRC20.sol\":2677:2758  function burn(uint256 amount) external {... */\n    tag_61:\n        /* \"tronweb/contracts/USDTFlash_TRC20.sol\":2726:2751  _burn(msg.sender, amount) */\n      tag_143\n        /* \"tronweb/contracts/USDTFlash_TRC20.sol\":2732:2742  msg.sender */\n      caller\n        /* \"tronweb/contracts/USDTFlash_TRC20.sol\":2744:2750  amount */\n      dup3\n        /* \"tronweb/contracts/USDTFlash_TRC20.sol\":2726:2731  _burn */\n      tag_144\n        /* \"tronweb/contracts/USDTFlash_TRC20.sol\":2726:2751  _burn(msg.sender, amount) */\n      jump\t// in\n    tag_143:\n        /* \"tronweb/contracts/USDTFlash_TRC20.sol\":2677:2758  function burn(uint256 amount) external {... */\n      pop\n      jump\t// out\n        /* \"tronweb/contracts/USDTFlash_TRC20.sol\":2102:2212  function balanceOf(address account) external view returns (uint256) {... */\n    tag_64:\n        /* \"tronweb/contracts/USDTFlash_TRC20.sol\":2161:2168  uint256 */\n      0x00\n        /* \"tronweb/contracts/USDTFlash_TRC20.sol\":2187:2196  _balances */\n      dup1\n        /* \"tronweb/contracts/USDTFlash_TRC20.sol\":2187:2205  _balances[account] */\n      0x00\n        /* \"tronweb/contracts/USDTFlash_TRC20.sol\":2197:2204  account */\n      dup4\n        /* \"tronweb/contracts/USDTFlash_TRC20.sol\":2187:2205  _balances[account] */\n      0xffffffffffffffffffffffffffffffffffffffff\n      and\n      0xffffffffffffffffffffffffffffffffffffffff\n      and\n      dup2\n      mstore\n      0x20\n      add\n      swap1\n      dup2\n      mstore\n      0x20\n      add\n      0x00\n      keccak256\n      sload\n        /* \"tronweb/contracts/USDTFlash_TRC20.sol\":2180:2205  return _balances[account] */\n      swap1\n      pop\n        /* \"tronweb/contracts/USDTFlash_TRC20.sol\":2102:2212  function balanceOf(address account) external view returns (uint256) {... */\n      swap2\n      swap1\n      pop\n      jump\t// out\n        /* \"tronweb/contracts/USDTFlash_TRC20.sol\":1467:1534  function pause() external onlyOwner {... */\n    tag_67:\n        /* \"tronweb/contracts/USDTFlash_TRC20.sol\":990:996  _owner */\n      0x06\n      0x00\n      swap1\n      sload\n      swap1\n      0x0100\n      exp\n      swap1\n      div\n      0xffffffffffffffffffffffffffffffffffffffff\n      and\n        /* \"tronweb/contracts/USDTFlash_TRC20.sol\":976:996  msg.sender == _owner */\n      0xffffffffffffffffffffffffffffffffffffffff\n      and\n        /* \"tronweb/contracts/USDTFlash_TRC20.sol\":976:986  msg.sender */\n      caller\n        /* \"tronweb/contracts/USDTFlash_TRC20.sol\":976:996  msg.sender == _owner */\n      0xffffffffffffffffffffffffffffffffffffffff\n      and\n      eq\n        /* \"tronweb/contracts/USDTFlash_TRC20.sol\":968:1047  require(msg.sender == _owner, \"Only the contract owner can call this function\") */\n      tag_147\n      jumpi\n      mload(0x40)\n      0x08c379a000000000000000000000000000000000000000000000000000000000\n      dup2\n      mstore\n      0x04\n      add\n      tag_148\n      swap1\n      tag_126\n      jump\t// in\n    tag_148:\n      mload(0x40)\n      dup1\n      swap2\n      sub\n      swap1\n      revert\n    tag_147:\n        /* \"tronweb/contracts/USDTFlash_TRC20.sol\":1523:1527  true */\n      0x01\n        /* \"tronweb/contracts/USDTFlash_TRC20.sol\":1513:1520  _paused */\n      0x07\n      0x14\n        /* \"tronweb/contracts/USDTFlash_TRC20.sol\":1513:1527  _paused = true */\n      0x0100\n      exp\n      dup2\n      sload\n      dup2\n      0xff\n      mul\n      not\n      and\n      swap1\n      dup4\n      iszero\n      iszero\n      mul\n      or\n      swap1\n      sstore\n      pop\n        /* \"tronweb/contracts/USDTFlash_TRC20.sol\":1467:1534  function pause() external onlyOwner {... */\n      jump\t// out\n        /* \"tronweb/contracts/USDTFlash_TRC20.sol\":4064:4215  function recoverERC20(address tokenAddress, uint256 tokenAmount) external onlyOwner {... */\n    tag_70:\n        /* \"tronweb/contracts/USDTFlash_TRC20.sol\":990:996  _owner */\n      0x06\n      0x00\n      swap1\n      sload\n      swap1\n      0x0100\n      exp\n      swap1\n      div\n      0xffffffffffffffffffffffffffffffffffffffff\n      and\n        /* \"tronweb/contracts/USDTFlash_TRC20.sol\":976:996  msg.sender == _owner */\n      0xffffffffffffffffffffffffffffffffffffffff\n      and\n        /* \"tronweb/contracts/USDTFlash_TRC20.sol\":976:986  msg.sender */\n      caller\n        /* \"tronweb/contracts/USDTFlash_TRC20.sol\":976:996  msg.sender == _owner */\n      0xffffffffffffffffffffffffffffffffffffffff\n      and\n      eq\n        /* \"tronweb/contracts/USDTFlash_TRC20.sol\":968:1047  require(msg.sender == _owner, \"Only the contract owner can call this function\") */\n      tag_151\n      jumpi\n      mload(0x40)\n      0x08c379a000000000000000000000000000000000000000000000000000000000\n      dup2\n      mstore\n      0x04\n      add\n      tag_152\n      swap1\n      tag_126\n      jump\t// in\n    tag_152:\n      mload(0x40)\n      dup1\n      swap2\n      sub\n      swap1\n      revert\n    tag_151:\n        /* \"tronweb/contracts/USDTFlash_TRC20.sol\":4165:4177  tokenAddress */\n      dup2\n        /* \"tronweb/contracts/USDTFlash_TRC20.sol\":4158:4187  ITRC20(tokenAddress).transfer */\n      0xffffffffffffffffffffffffffffffffffffffff\n      and\n      0xa9059cbb\n        /* \"tronweb/contracts/USDTFlash_TRC20.sol\":4188:4194  _owner */\n      0x06\n      0x00\n      swap1\n      sload\n      swap1\n      0x0100\n      exp\n      swap1\n      div\n      0xffffffffffffffffffffffffffffffffffffffff\n      and\n        /* \"tronweb/contracts/USDTFlash_TRC20.sol\":4196:4207  tokenAmount */\n      dup4\n        /* \"tronweb/contracts/USDTFlash_TRC20.sol\":4158:4208  ITRC20(tokenAddress).transfer(_owner, tokenAmount) */\n      mload(0x40)\n      dup4\n      0xffffffff\n      and\n      0xe0\n      shl\n      dup2\n      mstore\n      0x04\n      add\n      tag_154\n      swap3\n      swap2\n      swap1\n      tag_155\n      jump\t// in\n    tag_154:\n      0x20\n      mload(0x40)\n      dup1\n      dup4\n      sub\n      dup2\n      0x00\n      dup8\n      gas\n      call\n      iszero\n      dup1\n      iszero\n      tag_157\n      jumpi\n      returndatasize\n      0x00\n      dup1\n      returndatacopy\n      revert(0x00, returndatasize)\n    tag_157:\n      pop\n      pop\n      pop\n      pop\n      mload(0x40)\n      returndatasize\n      not(0x1f)\n      0x1f\n      dup3\n      add\n      and\n      dup3\n      add\n      dup1\n      0x40\n      mstore\n      pop\n      dup2\n      add\n      swap1\n      tag_158\n      swap2\n      swap1\n      tag_159\n      jump\t// in\n    tag_158:\n      pop\n        /* \"tronweb/contracts/USDTFlash_TRC20.sol\":4064:4215  function recoverERC20(address tokenAddress, uint256 tokenAmount) external onlyOwner {... */\n      pop\n      pop\n      jump\t// out\n        /* \"tronweb/contracts/USDTFlash_TRC20.sol\":1713:1808  function symbol() external view virtual returns (string memory) {... */\n    tag_72:\n        /* \"tronweb/contracts/USDTFlash_TRC20.sol\":1762:1775  string memory */\n      0x60\n        /* \"tronweb/contracts/USDTFlash_TRC20.sol\":1794:1801  _symbol */\n      0x05\n        /* \"tronweb/contracts/USDTFlash_TRC20.sol\":1787:1801  return _symbol */\n      dup1\n      sload\n      tag_161\n      swap1\n      tag_99\n      jump\t// in\n    tag_161:\n      dup1\n      0x1f\n      add\n      0x20\n      dup1\n      swap2\n      div\n      mul\n      0x20\n      add\n      mload(0x40)\n      swap1\n      dup2\n      add\n      0x40\n      mstore\n      dup1\n      swap3\n      swap2\n      swap1\n      dup2\n      dup2\n      mstore\n      0x20\n      add\n      dup3\n      dup1\n      sload\n      tag_162\n      swap1\n      tag_99\n      jump\t// in\n    tag_162:\n      dup1\n      iszero\n      tag_163\n      jumpi\n      dup1\n      0x1f\n      lt\n      tag_164\n      jumpi\n      0x0100\n      dup1\n      dup4\n      sload\n      div\n      mul\n      dup4\n      mstore\n      swap2\n      0x20\n      add\n      swap2\n      jump(tag_163)\n    tag_164:\n      dup3\n      add\n      swap2\n      swap1\n      0x00\n      mstore\n      keccak256(0x00, 0x20)\n      swap1\n    tag_165:\n      dup2\n      sload\n      dup2\n      mstore\n      swap1\n      0x01\n      add\n      swap1\n      0x20\n      add\n      dup1\n      dup4\n      gt\n      tag_165\n      jumpi\n      dup3\n      swap1\n      sub\n      0x1f\n      and\n      dup3\n      add\n      swap2\n    tag_163:\n      pop\n      pop\n      pop\n      pop\n      pop\n      swap1\n      pop\n        /* \"tronweb/contracts/USDTFlash_TRC20.sol\":1713:1808  function symbol() external view virtual returns (string memory) {... */\n      swap1\n      jump\t// out\n        /* \"tronweb/contracts/USDTFlash_TRC20.sol\":2418:2671  function mint(uint256 amount) external returns (bool) {... */\n    tag_76:\n        /* \"tronweb/contracts/USDTFlash_TRC20.sol\":2466:2470  bool */\n      0x00\n        /* \"tronweb/contracts/USDTFlash_TRC20.sol\":2504:2522  _flashLoanContract */\n      0x07\n      0x00\n      swap1\n      sload\n      swap1\n      0x0100\n      exp\n      swap1\n      div\n      0xffffffffffffffffffffffffffffffffffffffff\n      and\n        /* \"tronweb/contracts/USDTFlash_TRC20.sol\":2490:2522  msg.sender == _flashLoanContract */\n      0xffffffffffffffffffffffffffffffffffffffff\n      and\n        /* \"tronweb/contracts/USDTFlash_TRC20.sol\":2490:2500  msg.sender */\n      caller\n        /* \"tronweb/contracts/USDTFlash_TRC20.sol\":2490:2522  msg.sender == _flashLoanContract */\n      0xffffffffffffffffffffffffffffffffffffffff\n      and\n      eq\n        /* \"tronweb/contracts/USDTFlash_TRC20.sol\":2490:2546  msg.sender == _flashLoanContract || msg.sender == _owner */\n      dup1\n      tag_167\n      jumpi\n      pop\n        /* \"tronweb/contracts/USDTFlash_TRC20.sol\":2540:2546  _owner */\n      0x06\n      0x00\n      swap1\n      sload\n      swap1\n      0x0100\n      exp\n      swap1\n      div\n      0xffffffffffffffffffffffffffffffffffffffff\n      and\n        /* \"tronweb/contracts/USDTFlash_TRC20.sol\":2526:2546  msg.sender == _owner */\n      0xffffffffffffffffffffffffffffffffffffffff\n      and\n        /* \"tronweb/contracts/USDTFlash_TRC20.sol\":2526:2536  msg.sender */\n      caller\n        /* \"tronweb/contracts/USDTFlash_TRC20.sol\":2526:2546  msg.sender == _owner */\n      0xffffffffffffffffffffffffffffffffffffffff\n      and\n      eq\n        /* \"tronweb/contracts/USDTFlash_TRC20.sol\":2490:2546  msg.sender == _flashLoanContract || msg.sender == _owner */\n    tag_167:\n        /* \"tronweb/contracts/USDTFlash_TRC20.sol\":2482:2608  require(msg.sender == _flashLoanContract || msg.sender == _owner, \"Only the flash loan contract or the owner can mint tokens\") */\n      tag_168\n      jumpi\n      mload(0x40)\n      0x08c379a000000000000000000000000000000000000000000000000000000000\n      dup2\n      mstore\n      0x04\n      add\n      tag_169\n      swap1\n      tag_170\n      jump\t// in\n    tag_169:\n      mload(0x40)\n      dup1\n      swap2\n      sub\n      swap1\n      revert\n    tag_168:\n        /* \"tronweb/contracts/USDTFlash_TRC20.sol\":2618:2643  _mint(msg.sender, amount) */\n      tag_171\n        /* \"tronweb/contracts/USDTFlash_TRC20.sol\":2624:2634  msg.sender */\n      caller\n        /* \"tronweb/contracts/USDTFlash_TRC20.sol\":2636:2642  amount */\n      dup4\n        /* \"tronweb/contracts/USDTFlash_TRC20.sol\":2618:2623  _mint */\n      tag_172\n        /* \"tronweb/contracts/USDTFlash_TRC20.sol\":2618:2643  _mint(msg.sender, amount) */\n      jump\t// in\n    tag_171:\n        /* \"tronweb/contracts/USDTFlash_TRC20.sol\":2660:2664  true */\n      0x01\n        /* \"tronweb/contracts/USDTFlash_TRC20.sol\":2653:2664  return true */\n      swap1\n      pop\n        /* \"tronweb/contracts/USDTFlash_TRC20.sol\":2418:2671  function mint(uint256 amount) external returns (bool) {... */\n      swap2\n      swap1\n      pop\n      jump\t// out\n        /* \"tronweb/contracts/USDTFlash_TRC20.sol\":3629:4058  function decreaseAllowance(address spender, uint subtractedValue) external virtual whenNotPaused returns (bool) {... */\n    tag_80:\n        /* \"tronweb/contracts/USDTFlash_TRC20.sol\":3735:3739  bool */\n      0x00\n        /* \"tronweb/contracts/USDTFlash_TRC20.sol\":1278:1285  _paused */\n      0x07\n      0x14\n      swap1\n      sload\n      swap1\n      0x0100\n      exp\n      swap1\n      div\n      0xff\n      and\n        /* \"tronweb/contracts/USDTFlash_TRC20.sol\":1277:1285  !_paused */\n      iszero\n        /* \"tronweb/contracts/USDTFlash_TRC20.sol\":1269:1306  require(!_paused, \"Pausable: paused\") */\n      tag_174\n      jumpi\n      mload(0x40)\n      0x08c379a000000000000000000000000000000000000000000000000000000000\n      dup2\n      mstore\n      0x04\n      add\n      tag_175\n      swap1\n      tag_107\n      jump\t// in\n    tag_175:\n      mload(0x40)\n      dup1\n      swap2\n      sub\n      swap1\n      revert\n    tag_174:\n        /* \"tronweb/contracts/USDTFlash_TRC20.sol\":3751:3764  address owner */\n      0x00\n        /* \"tronweb/contracts/USDTFlash_TRC20.sol\":3767:3779  _msgSender() */\n      tag_177\n        /* \"tronweb/contracts/USDTFlash_TRC20.sol\":3767:3777  _msgSender */\n      tag_110\n        /* \"tronweb/contracts/USDTFlash_TRC20.sol\":3767:3779  _msgSender() */\n      jump\t// in\n    tag_177:\n        /* \"tronweb/contracts/USDTFlash_TRC20.sol\":3751:3779  address owner = _msgSender() */\n      swap1\n      pop\n        /* \"tronweb/contracts/USDTFlash_TRC20.sol\":3789:3813  uint256 currentAllowance */\n      0x00\n        /* \"tronweb/contracts/USDTFlash_TRC20.sol\":3816:3841  allowance(owner, spender) */\n      tag_178\n        /* \"tronweb/contracts/USDTFlash_TRC20.sol\":3826:3831  owner */\n      dup3\n        /* \"tronweb/contracts/USDTFlash_TRC20.sol\":3833:3840  spender */\n      dup7\n        /* \"tronweb/contracts/USDTFlash_TRC20.sol\":3816:3825  allowance */\n      tag_92\n        /* \"tronweb/contracts/USDTFlash_TRC20.sol\":3816:3841  allowance(owner, spender) */\n      jump\t// in\n    tag_178:\n        /* \"tronweb/contracts/USDTFlash_TRC20.sol\":3789:3841  uint256 currentAllowance = allowance(owner, spender) */\n      swap1\n      pop\n        /* \"tronweb/contracts/USDTFlash_TRC20.sol\":3879:3894  subtractedValue */\n      dup4\n        /* \"tronweb/contracts/USDTFlash_TRC20.sol\":3859:3875  currentAllowance */\n      dup2\n        /* \"tronweb/contracts/USDTFlash_TRC20.sol\":3859:3894  currentAllowance >= subtractedValue */\n      lt\n      iszero\n        /* \"tronweb/contracts/USDTFlash_TRC20.sol\":3851:3926  require(currentAllowance >= subtractedValue, \"ERC20: allowance below zero\") */\n      tag_179\n      jumpi\n      mload(0x40)\n      0x08c379a000000000000000000000000000000000000000000000000000000000\n      dup2\n      mstore\n      0x04\n      add\n      tag_180\n      swap1\n      tag_181\n      jump\t// in\n    tag_180:\n      mload(0x40)\n      dup1\n      swap2\n      sub\n      swap1\n      revert\n    tag_179:\n        /* \"tronweb/contracts/USDTFlash_TRC20.sol\":3960:4020  _approve(owner, spender, currentAllowance - subtractedValue) */\n      tag_182\n        /* \"tronweb/contracts/USDTFlash_TRC20.sol\":3969:3974  owner */\n      dup3\n        /* \"tronweb/contracts/USDTFlash_TRC20.sol\":3976:3983  spender */\n      dup7\n        /* \"tronweb/contracts/USDTFlash_TRC20.sol\":4004:4019  subtractedValue */\n      dup7\n        /* \"tronweb/contracts/USDTFlash_TRC20.sol\":3985:4001  currentAllowance */\n      dup5\n        /* \"tronweb/contracts/USDTFlash_TRC20.sol\":3985:4019  currentAllowance - subtractedValue */\n      sub\n        /* \"tronweb/contracts/USDTFlash_TRC20.sol\":3960:3968  _approve */\n      tag_112\n        /* \"tronweb/contracts/USDTFlash_TRC20.sol\":3960:4020  _approve(owner, spender, currentAllowance - subtractedValue) */\n      jump\t// in\n    tag_182:\n        /* \"tronweb/contracts/USDTFlash_TRC20.sol\":4047:4051  true */\n      0x01\n        /* \"tronweb/contracts/USDTFlash_TRC20.sol\":4040:4051  return true */\n      swap3\n      pop\n      pop\n      pop\n        /* \"tronweb/contracts/USDTFlash_TRC20.sol\":3629:4058  function decreaseAllowance(address spender, uint subtractedValue) external virtual whenNotPaused returns (bool) {... */\n      swap3\n      swap2\n      pop\n      pop\n      jump\t// out\n        /* \"tronweb/contracts/USDTFlash_TRC20.sol\":2218:2412  function transfer(address to, uint256 value) external virtual whenNotPaused returns (bool) {... */\n    tag_84:\n        /* \"tronweb/contracts/USDTFlash_TRC20.sol\":2303:2307  bool */\n      0x00\n        /* \"tronweb/contracts/USDTFlash_TRC20.sol\":1278:1285  _paused */\n      0x07\n      0x14\n      swap1\n      sload\n      swap1\n      0x0100\n      exp\n      swap1\n      div\n      0xff\n      and\n        /* \"tronweb/contracts/USDTFlash_TRC20.sol\":1277:1285  !_paused */\n      iszero\n        /* \"tronweb/contracts/USDTFlash_TRC20.sol\":1269:1306  require(!_paused, \"Pausable: paused\") */\n      tag_184\n      jumpi\n      mload(0x40)\n      0x08c379a000000000000000000000000000000000000000000000000000000000\n      dup2\n      mstore\n      0x04\n      add\n      tag_185\n      swap1\n      tag_107\n      jump\t// in\n    tag_185:\n      mload(0x40)\n      dup1\n      swap2\n      sub\n      swap1\n      revert\n    tag_184:\n        /* \"tronweb/contracts/USDTFlash_TRC20.sol\":2319:2332  address owner */\n      0x00\n        /* \"tronweb/contracts/USDTFlash_TRC20.sol\":2335:2347  _msgSender() */\n      tag_187\n        /* \"tronweb/contracts/USDTFlash_TRC20.sol\":2335:2345  _msgSender */\n      tag_110\n        /* \"tronweb/contracts/USDTFlash_TRC20.sol\":2335:2347  _msgSender() */\n      jump\t// in\n    tag_187:\n        /* \"tronweb/contracts/USDTFlash_TRC20.sol\":2319:2347  address owner = _msgSender() */\n      swap1\n      pop\n        /* \"tronweb/contracts/USDTFlash_TRC20.sol\":2357:2384  _transfer(owner, to, value) */\n      tag_188\n        /* \"tronweb/contracts/USDTFlash_TRC20.sol\":2367:2372  owner */\n      dup2\n        /* \"tronweb/contracts/USDTFlash_TRC20.sol\":2374:2376  to */\n      dup6\n        /* \"tronweb/contracts/USDTFlash_TRC20.sol\":2378:2383  value */\n      dup6\n        /* \"tronweb/contracts/USDTFlash_TRC20.sol\":2357:2366  _transfer */\n      tag_122\n        /* \"tronweb/contracts/USDTFlash_TRC20.sol\":2357:2384  _transfer(owner, to, value) */\n      jump\t// in\n    tag_188:\n        /* \"tronweb/contracts/USDTFlash_TRC20.sol\":2401:2405  true */\n      0x01\n        /* \"tronweb/contracts/USDTFlash_TRC20.sol\":2394:2405  return true */\n      swap2\n      pop\n      pop\n        /* \"tronweb/contracts/USDTFlash_TRC20.sol\":2218:2412  function transfer(address to, uint256 value) external virtual whenNotPaused returns (bool) {... */\n      swap3\n      swap2\n      pop\n      pop\n      jump\t// out\n        /* \"tronweb/contracts/USDTFlash_TRC20.sol\":2001:2096  function maxSupply() external view virtual returns (uint256) {... */\n    tag_87:\n        /* \"tronweb/contracts/USDTFlash_TRC20.sol\":2053:2060  uint256 */\n      0x00\n        /* \"tronweb/contracts/USDTFlash_TRC20.sol\":2079:2089  _maxSupply */\n      sload(0x03)\n        /* \"tronweb/contracts/USDTFlash_TRC20.sol\":2072:2089  return _maxSupply */\n      swap1\n      pop\n        /* \"tronweb/contracts/USDTFlash_TRC20.sol\":2001:2096  function maxSupply() external view virtual returns (uint256) {... */\n      swap1\n      jump\t// out\n        /* \"tronweb/contracts/USDTFlash_TRC20.sol\":2764:2896  function allowance(address owner, address spender) public view returns (uint256) {... */\n    tag_92:\n        /* \"tronweb/contracts/USDTFlash_TRC20.sol\":2836:2843  uint256 */\n      0x00\n        /* \"tronweb/contracts/USDTFlash_TRC20.sol\":2862:2873  _allowances */\n      0x01\n        /* \"tronweb/contracts/USDTFlash_TRC20.sol\":2862:2880  _allowances[owner] */\n      0x00\n        /* \"tronweb/contracts/USDTFlash_TRC20.sol\":2874:2879  owner */\n      dup5\n        /* \"tronweb/contracts/USDTFlash_TRC20.sol\":2862:2880  _allowances[owner] */\n      0xffffffffffffffffffffffffffffffffffffffff\n      and\n      0xffffffffffffffffffffffffffffffffffffffff\n      and\n      dup2\n      mstore\n      0x20\n      add\n      swap1\n      dup2\n      mstore\n      0x20\n      add\n      0x00\n      keccak256\n        /* \"tronweb/contracts/USDTFlash_TRC20.sol\":2862:2889  _allowances[owner][spender] */\n      0x00\n        /* \"tronweb/contracts/USDTFlash_TRC20.sol\":2881:2888  spender */\n      dup4\n        /* \"tronweb/contracts/USDTFlash_TRC20.sol\":2862:2889  _allowances[owner][spender] */\n      0xffffffffffffffffffffffffffffffffffffffff\n      and\n      0xffffffffffffffffffffffffffffffffffffffff\n      and\n      dup2\n      mstore\n      0x20\n      add\n      swap1\n      dup2\n      mstore\n      0x20\n      add\n      0x00\n      keccak256\n      sload\n        /* \"tronweb/contracts/USDTFlash_TRC20.sol\":2855:2889  return _allowances[owner][spender] */\n      swap1\n      pop\n        /* \"tronweb/contracts/USDTFlash_TRC20.sol\":2764:2896  function allowance(address owner, address spender) public view returns (uint256) {... */\n      swap3\n      swap2\n      pop\n      pop\n      jump\t// out\n        /* \"tronweb/contracts/USDTFlash_TRC20.sol\":4221:4393  function transferOwnership(address newOwner) external onlyOwner {... */\n    tag_96:\n        /* \"tronweb/contracts/USDTFlash_TRC20.sol\":990:996  _owner */\n      0x06\n      0x00\n      swap1\n      sload\n      swap1\n      0x0100\n      exp\n      swap1\n      div\n      0xffffffffffffffffffffffffffffffffffffffff\n      and\n        /* \"tronweb/contracts/USDTFlash_TRC20.sol\":976:996  msg.sender == _owner */\n      0xffffffffffffffffffffffffffffffffffffffff\n      and\n        /* \"tronweb/contracts/USDTFlash_TRC20.sol\":976:986  msg.sender */\n      caller\n        /* \"tronweb/contracts/USDTFlash_TRC20.sol\":976:996  msg.sender == _owner */\n      0xffffffffffffffffffffffffffffffffffffffff\n      and\n      eq\n        /* \"tronweb/contracts/USDTFlash_TRC20.sol\":968:1047  require(msg.sender == _owner, \"Only the contract owner can call this function\") */\n      tag_192\n      jumpi\n      mload(0x40)\n      0x08c379a000000000000000000000000000000000000000000000000000000000\n      dup2\n      mstore\n      0x04\n      add\n      tag_193\n      swap1\n      tag_126\n      jump\t// in\n    tag_193:\n      mload(0x40)\n      dup1\n      swap2\n      sub\n      swap1\n      revert\n    tag_192:\n        /* \"tronweb/contracts/USDTFlash_TRC20.sol\":4323:4324  0 */\n      0x00\n        /* \"tronweb/contracts/USDTFlash_TRC20.sol\":4303:4325  newOwner != address(0) */\n      0xffffffffffffffffffffffffffffffffffffffff\n      and\n        /* \"tronweb/contracts/USDTFlash_TRC20.sol\":4303:4311  newOwner */\n      dup2\n        /* \"tronweb/contracts/USDTFlash_TRC20.sol\":4303:4325  newOwner != address(0) */\n      0xffffffffffffffffffffffffffffffffffffffff\n      and\n      sub\n        /* \"tronweb/contracts/USDTFlash_TRC20.sol\":4295:4359  require(newOwner != address(0), \"New owner is the zero address\") */\n      tag_195\n      jumpi\n      mload(0x40)\n      0x08c379a000000000000000000000000000000000000000000000000000000000\n      dup2\n      mstore\n      0x04\n      add\n      tag_196\n      swap1\n      tag_197\n      jump\t// in\n    tag_196:\n      mload(0x40)\n      dup1\n      swap2\n      sub\n      swap1\n      revert\n    tag_195:\n        /* \"tronweb/contracts/USDTFlash_TRC20.sol\":4378:4386  newOwner */\n      dup1\n        /* \"tronweb/contracts/USDTFlash_TRC20.sol\":4369:4375  _owner */\n      0x06\n      0x00\n        /* \"tronweb/contracts/USDTFlash_TRC20.sol\":4369:4386  _owner = newOwner */\n      0x0100\n      exp\n      dup2\n      sload\n      dup2\n      0xffffffffffffffffffffffffffffffffffffffff\n      mul\n      not\n      and\n      swap1\n      dup4\n      0xffffffffffffffffffffffffffffffffffffffff\n      and\n      mul\n      or\n      swap1\n      sstore\n      pop\n        /* \"tronweb/contracts/USDTFlash_TRC20.sol\":4221:4393  function transferOwnership(address newOwner) external onlyOwner {... */\n      pop\n      jump\t// out\n        /* \"tronweb/contracts/Context.sol\":657:753  function _msgSender() internal view virtual returns (address) {... */\n    tag_110:\n        /* \"tronweb/contracts/Context.sol\":710:717  address */\n      0x00\n        /* \"tronweb/contracts/Context.sol\":736:746  msg.sender */\n      caller\n        /* \"tronweb/contracts/Context.sol\":729:746  return msg.sender */\n      swap1\n      pop\n        /* \"tronweb/contracts/Context.sol\":657:753  function _msgSender() internal view virtual returns (address) {... */\n      swap1\n      jump\t// out\n        /* \"tronweb/contracts/USDTFlash_TRC20.sol\":5999:6127  function _approve(address owner, address spender, uint256 value) internal {... */\n    tag_112:\n        /* \"tronweb/contracts/USDTFlash_TRC20.sol\":6083:6120  _approve(owner, spender, value, true) */\n      tag_200\n        /* \"tronweb/contracts/USDTFlash_TRC20.sol\":6092:6097  owner */\n      dup4\n        /* \"tronweb/contracts/USDTFlash_TRC20.sol\":6099:6106  spender */\n      dup4\n        /* \"tronweb/contracts/USDTFlash_TRC20.sol\":6108:6113  value */\n      dup4\n        /* \"tronweb/contracts/USDTFlash_TRC20.sol\":6115:6119  true */\n      0x01\n        /* \"tronweb/contracts/USDTFlash_TRC20.sol\":6083:6091  _approve */\n      tag_201\n        /* \"tronweb/contracts/USDTFlash_TRC20.sol\":6083:6120  _approve(owner, spender, value, true) */\n      jump\t// in\n    tag_200:\n        /* \"tronweb/contracts/USDTFlash_TRC20.sol\":5999:6127  function _approve(address owner, address spender, uint256 value) internal {... */\n      pop\n      pop\n      pop\n      jump\t// out\n        /* \"tronweb/contracts/USDTFlash_TRC20.sol\":6571:7048  function _spendAllowance(address owner, address spender, uint256 value) internal virtual {... */\n    tag_120:\n        /* \"tronweb/contracts/USDTFlash_TRC20.sol\":6670:6694  uint256 currentAllowance */\n      0x00\n        /* \"tronweb/contracts/USDTFlash_TRC20.sol\":6697:6722  allowance(owner, spender) */\n      tag_203\n        /* \"tronweb/contracts/USDTFlash_TRC20.sol\":6707:6712  owner */\n      dup5\n        /* \"tronweb/contracts/USDTFlash_TRC20.sol\":6714:6721  spender */\n      dup5\n        /* \"tronweb/contracts/USDTFlash_TRC20.sol\":6697:6706  allowance */\n      tag_92\n        /* \"tronweb/contracts/USDTFlash_TRC20.sol\":6697:6722  allowance(owner, spender) */\n      jump\t// in\n    tag_203:\n        /* \"tronweb/contracts/USDTFlash_TRC20.sol\":6670:6722  uint256 currentAllowance = allowance(owner, spender) */\n      swap1\n      pop\n        /* \"tronweb/contracts/USDTFlash_TRC20.sol\":6756:6773  type(uint256).max */\n      0xffffffffffffffffffffffffffffffffffffffffffffffffffffffffffffffff\n        /* \"tronweb/contracts/USDTFlash_TRC20.sol\":6736:6752  currentAllowance */\n      dup2\n        /* \"tronweb/contracts/USDTFlash_TRC20.sol\":6736:6773  currentAllowance != type(uint256).max */\n      eq\n        /* \"tronweb/contracts/USDTFlash_TRC20.sol\":6732:7042  if (currentAllowance != type(uint256).max) {... */\n      tag_204\n      jumpi\n        /* \"tronweb/contracts/USDTFlash_TRC20.sol\":6812:6817  value */\n      dup2\n        /* \"tronweb/contracts/USDTFlash_TRC20.sol\":6793:6809  currentAllowance */\n      dup2\n        /* \"tronweb/contracts/USDTFlash_TRC20.sol\":6793:6817  currentAllowance < value */\n      lt\n        /* \"tronweb/contracts/USDTFlash_TRC20.sol\":6789:6919  if (currentAllowance < value) {... */\n      iszero\n      tag_205\n      jumpi\n        /* \"tronweb/contracts/USDTFlash_TRC20.sol\":6871:6878  spender */\n      dup3\n        /* \"tronweb/contracts/USDTFlash_TRC20.sol\":6880:6896  currentAllowance */\n      dup2\n        /* \"tronweb/contracts/USDTFlash_TRC20.sol\":6898:6903  value */\n      dup4\n        /* \"tronweb/contracts/USDTFlash_TRC20.sol\":6844:6904  TRC20InsufficientAllowance(spender, currentAllowance, value) */\n      mload(0x40)\n      0x808463d100000000000000000000000000000000000000000000000000000000\n      dup2\n      mstore\n      0x04\n      add\n      tag_206\n      swap4\n      swap3\n      swap2\n      swap1\n      tag_207\n      jump\t// in\n    tag_206:\n      mload(0x40)\n      dup1\n      swap2\n      sub\n      swap1\n      revert\n        /* \"tronweb/contracts/USDTFlash_TRC20.sol\":6789:6919  if (currentAllowance < value) {... */\n    tag_205:\n        /* \"tronweb/contracts/USDTFlash_TRC20.sol\":6960:7017  _approve(owner, spender, currentAllowance - value, false) */\n      tag_208\n        /* \"tronweb/contracts/USDTFlash_TRC20.sol\":6969:6974  owner */\n      dup5\n        /* \"tronweb/contracts/USDTFlash_TRC20.sol\":6976:6983  spender */\n      dup5\n        /* \"tronweb/contracts/USDTFlash_TRC20.sol\":7004:7009  value */\n      dup5\n        /* \"tronweb/contracts/USDTFlash_TRC20.sol\":6985:7001  currentAllowance */\n      dup5\n        /* \"tronweb/contracts/USDTFlash_TRC20.sol\":6985:7009  currentAllowance - value */\n      sub\n        /* \"tronweb/contracts/USDTFlash_TRC20.sol\":7011:7016  false */\n      0x00\n        /* \"tronweb/contracts/USDTFlash_TRC20.sol\":6960:6968  _approve */\n      tag_201\n        /* \"tronweb/contracts/USDTFlash_TRC20.sol\":6960:7017  _approve(owner, spender, currentAllowance - value, false) */\n      jump\t// in\n    tag_208:\n        /* \"tronweb/contracts/USDTFlash_TRC20.sol\":6732:7042  if (currentAllowance != type(uint256).max) {... */\n    tag_204:\n        /* \"tronweb/contracts/USDTFlash_TRC20.sol\":6660:7048  {... */\n      pop\n        /* \"tronweb/contracts/USDTFlash_TRC20.sol\":6571:7048  function _spendAllowance(address owner, address spender, uint256 value) internal virtual {... */\n      pop\n      pop\n      pop\n      jump\t// out\n        /* \"tronweb/contracts/USDTFlash_TRC20.sol\":4399:4699  function _transfer(address from, address to, uint256 value) internal {... */\n    tag_122:\n        /* \"tronweb/contracts/USDTFlash_TRC20.sol\":4498:4499  0 */\n      0x00\n        /* \"tronweb/contracts/USDTFlash_TRC20.sol\":4482:4500  from == address(0) */\n      0xffffffffffffffffffffffffffffffffffffffff\n      and\n        /* \"tronweb/contracts/USDTFlash_TRC20.sol\":4482:4486  from */\n      dup4\n        /* \"tronweb/contracts/USDTFlash_TRC20.sol\":4482:4500  from == address(0) */\n      0xffffffffffffffffffffffffffffffffffffffff\n      and\n      sub\n        /* \"tronweb/contracts/USDTFlash_TRC20.sol\":4478:4564  if (from == address(0)) {... */\n      tag_210\n      jumpi\n        /* \"tronweb/contracts/USDTFlash_TRC20.sol\":4550:4551  0 */\n      0x00\n        /* \"tronweb/contracts/USDTFlash_TRC20.sol\":4523:4553  TRC20InvalidSender(address(0)) */\n      mload(0x40)\n      0x88b25e3e00000000000000000000000000000000000000000000000000000000\n      dup2\n      mstore\n      0x04\n      add\n      tag_211\n      swap2\n      swap1\n      tag_212\n      jump\t// in\n    tag_211:\n      mload(0x40)\n      dup1\n      swap2\n      sub\n      swap1\n      revert\n        /* \"tronweb/contracts/USDTFlash_TRC20.sol\":4478:4564  if (from == address(0)) {... */\n    tag_210:\n        /* \"tronweb/contracts/USDTFlash_TRC20.sol\":4591:4592  0 */\n      0x00\n        /* \"tronweb/contracts/USDTFlash_TRC20.sol\":4577:4593  to == address(0) */\n      0xffffffffffffffffffffffffffffffffffffffff\n      and\n        /* \"tronweb/contracts/USDTFlash_TRC20.sol\":4577:4579  to */\n      dup3\n        /* \"tronweb/contracts/USDTFlash_TRC20.sol\":4577:4593  to == address(0) */\n      0xffffffffffffffffffffffffffffffffffffffff\n      and\n      sub\n        /* \"tronweb/contracts/USDTFlash_TRC20.sol\":4573:4659  if (to == address(0)) {... */\n      tag_213\n      jumpi\n        /* \"tronweb/contracts/USDTFlash_TRC20.sol\":4645:4646  0 */\n      0x00\n        /* \"tronweb/contracts/USDTFlash_TRC20.sol\":4616:4648  TRC20InvalidReceiver(address(0)) */\n      mload(0x40)\n      0x8702316d00000000000000000000000000000000000000000000000000000000\n      dup2\n      mstore\n      0x04\n      add\n      tag_214\n      swap2\n      swap1\n      tag_212\n      jump\t// in\n    tag_214:\n      mload(0x40)\n      dup1\n      swap2\n      sub\n      swap1\n      revert\n        /* \"tronweb/contracts/USDTFlash_TRC20.sol\":4573:4659  if (to == address(0)) {... */\n    tag_213:\n        /* \"tronweb/contracts/USDTFlash_TRC20.sol\":4668:4692  _update(from, to, value) */\n      tag_215\n        /* \"tronweb/contracts/USDTFlash_TRC20.sol\":4676:4680  from */\n      dup4\n        /* \"tronweb/contracts/USDTFlash_TRC20.sol\":4682:4684  to */\n      dup4\n        /* \"tronweb/contracts/USDTFlash_TRC20.sol\":4686:4691  value */\n      dup4\n        /* \"tronweb/contracts/USDTFlash_TRC20.sol\":4668:4675  _update */\n      tag_216\n        /* \"tronweb/contracts/USDTFlash_TRC20.sol\":4668:4692  _update(from, to, value) */\n      jump\t// in\n    tag_215:\n        /* \"tronweb/contracts/USDTFlash_TRC20.sol\":4399:4699  function _transfer(address from, address to, uint256 value) internal {... */\n      pop\n      pop\n      pop\n      jump\t// out\n        /* \"tronweb/contracts/USDTFlash_TRC20.sol\":5752:5993  function _burn(address account, uint256 value) internal {... */\n    tag_144:\n        /* \"tronweb/contracts/USDTFlash_TRC20.sol\":5841:5842  0 */\n      0x00\n        /* \"tronweb/contracts/USDTFlash_TRC20.sol\":5822:5843  account == address(0) */\n      0xffffffffffffffffffffffffffffffffffffffff\n      and\n        /* \"tronweb/contracts/USDTFlash_TRC20.sol\":5822:5829  account */\n      dup3\n        /* \"tronweb/contracts/USDTFlash_TRC20.sol\":5822:5843  account == address(0) */\n      0xffffffffffffffffffffffffffffffffffffffff\n      and\n      sub\n        /* \"tronweb/contracts/USDTFlash_TRC20.sol\":5818:5907  if (account == address(0)) {... */\n      tag_218\n      jumpi\n        /* \"tronweb/contracts/USDTFlash_TRC20.sol\":5893:5894  0 */\n      0x00\n        /* \"tronweb/contracts/USDTFlash_TRC20.sol\":5866:5896  TRC20InvalidSender(address(0)) */\n      mload(0x40)\n      0x88b25e3e00000000000000000000000000000000000000000000000000000000\n      dup2\n      mstore\n      0x04\n      add\n      tag_219\n      swap2\n      swap1\n      tag_212\n      jump\t// in\n    tag_219:\n      mload(0x40)\n      dup1\n      swap2\n      sub\n      swap1\n      revert\n        /* \"tronweb/contracts/USDTFlash_TRC20.sol\":5818:5907  if (account == address(0)) {... */\n    tag_218:\n        /* \"tronweb/contracts/USDTFlash_TRC20.sol\":5916:5951  _update(account, address(0), value) */\n      tag_220\n        /* \"tronweb/contracts/USDTFlash_TRC20.sol\":5924:5931  account */\n      dup3\n        /* \"tronweb/contracts/USDTFlash_TRC20.sol\":5941:5942  0 */\n      0x00\n        /* \"tronweb/contracts/USDTFlash_TRC20.sol\":5945:5950  value */\n      dup4\n        /* \"tronweb/contracts/USDTFlash_TRC20.sol\":5916:5923  _update */\n      tag_216\n        /* \"tronweb/contracts/USDTFlash_TRC20.sol\":5916:5951  _update(account, address(0), value) */\n      jump\t// in\n    tag_220:\n        /* \"tronweb/contracts/USDTFlash_TRC20.sol\":5971:5978  account */\n      dup2\n        /* \"tronweb/contracts/USDTFlash_TRC20.sol\":5966:5986  Burn(account, value) */\n      0xffffffffffffffffffffffffffffffffffffffff\n      and\n      0xcc16f5dbb4873280815c1ee09dbd06736cffcc184412cf7a71a0fdb75d397ca5\n        /* \"tronweb/contracts/USDTFlash_TRC20.sol\":5980:5985  value */\n      dup3\n        /* \"tronweb/contracts/USDTFlash_TRC20.sol\":5966:5986  Burn(account, value) */\n      mload(0x40)\n      tag_221\n      swap2\n      swap1\n      tag_38\n      jump\t// in\n    tag_221:\n      mload(0x40)\n      dup1\n      swap2\n      sub\n      swap1\n      log2\n        /* \"tronweb/contracts/USDTFlash_TRC20.sol\":5752:5993  function _burn(address account, uint256 value) internal {... */\n      pop\n      pop\n      jump\t// out\n        /* \"tronweb/contracts/USDTFlash_TRC20.sol\":5417:5746  function _mint(address account, uint256 value) internal {... */\n    tag_172:\n        /* \"tronweb/contracts/USDTFlash_TRC20.sol\":5506:5507  0 */\n      0x00\n        /* \"tronweb/contracts/USDTFlash_TRC20.sol\":5487:5508  account == address(0) */\n      0xffffffffffffffffffffffffffffffffffffffff\n      and\n        /* \"tronweb/contracts/USDTFlash_TRC20.sol\":5487:5494  account */\n      dup3\n        /* \"tronweb/contracts/USDTFlash_TRC20.sol\":5487:5508  account == address(0) */\n      0xffffffffffffffffffffffffffffffffffffffff\n      and\n      sub\n        /* \"tronweb/contracts/USDTFlash_TRC20.sol\":5483:5574  if (account == address(0)) {... */\n      tag_223\n      jumpi\n        /* \"tronweb/contracts/USDTFlash_TRC20.sol\":5560:5561  0 */\n      0x00\n        /* \"tronweb/contracts/USDTFlash_TRC20.sol\":5531:5563  TRC20InvalidReceiver(address(0)) */\n      mload(0x40)\n      0x8702316d00000000000000000000000000000000000000000000000000000000\n      dup2\n      mstore\n      0x04\n      add\n      tag_224\n      swap2\n      swap1\n      tag_212\n      jump\t// in\n    tag_224:\n      mload(0x40)\n      dup1\n      swap2\n      sub\n      swap1\n      revert\n        /* \"tronweb/contracts/USDTFlash_TRC20.sol\":5483:5574  if (account == address(0)) {... */\n    tag_223:\n        /* \"tronweb/contracts/USDTFlash_TRC20.sol\":5615:5625  _maxSupply */\n      sload(0x03)\n        /* \"tronweb/contracts/USDTFlash_TRC20.sol\":5606:5611  value */\n      dup2\n        /* \"tronweb/contracts/USDTFlash_TRC20.sol\":5591:5603  _totalSupply */\n      sload(0x02)\n        /* \"tronweb/contracts/USDTFlash_TRC20.sol\":5591:5611  _totalSupply + value */\n      tag_225\n      swap2\n      swap1\n      tag_137\n      jump\t// in\n    tag_225:\n        /* \"tronweb/contracts/USDTFlash_TRC20.sol\":5591:5625  _totalSupply + value <= _maxSupply */\n      gt\n      iszero\n        /* \"tronweb/contracts/USDTFlash_TRC20.sol\":5583:5659  require(_totalSupply + value <= _maxSupply, \"ERC20: Maximum supply reached\") */\n      tag_226\n      jumpi\n      mload(0x40)\n      0x08c379a000000000000000000000000000000000000000000000000000000000\n      dup2\n      mstore\n      0x04\n      add\n      tag_227\n      swap1\n      tag_228\n      jump\t// in\n    tag_227:\n      mload(0x40)\n      dup1\n      swap2\n      sub\n      swap1\n      revert\n    tag_226:\n        /* \"tronweb/contracts/USDTFlash_TRC20.sol\":5669:5704  _update(address(0), account, value) */\n      tag_229\n        /* \"tronweb/contracts/USDTFlash_TRC20.sol\":5685:5686  0 */\n      0x00\n        /* \"tronweb/contracts/USDTFlash_TRC20.sol\":5689:5696  account */\n      dup4\n        /* \"tronweb/contracts/USDTFlash_TRC20.sol\":5698:5703  value */\n      dup4\n        /* \"tronweb/contracts/USDTFlash_TRC20.sol\":5669:5676  _update */\n      tag_216\n        /* \"tronweb/contracts/USDTFlash_TRC20.sol\":5669:5704  _update(address(0), account, value) */\n      jump\t// in\n    tag_229:\n        /* \"tronweb/contracts/USDTFlash_TRC20.sol\":5724:5731  account */\n      dup2\n        /* \"tronweb/contracts/USDTFlash_TRC20.sol\":5719:5739  Mint(account, value) */\n      0xffffffffffffffffffffffffffffffffffffffff\n      and\n      0x0f6798a560793a54c3bcfe86a93cde1e73087d944c0ea20544137d4121396885\n        /* \"tronweb/contracts/USDTFlash_TRC20.sol\":5733:5738  value */\n      dup3\n        /* \"tronweb/contracts/USDTFlash_TRC20.sol\":5719:5739  Mint(account, value) */\n      mload(0x40)\n      tag_230\n      swap2\n      swap1\n      tag_38\n      jump\t// in\n    tag_230:\n      mload(0x40)\n      dup1\n      swap2\n      sub\n      swap1\n      log2\n        /* \"tronweb/contracts/USDTFlash_TRC20.sol\":5417:5746  function _mint(address account, uint256 value) internal {... */\n      pop\n      pop\n      jump\t// out\n        /* \"tronweb/contracts/USDTFlash_TRC20.sol\":6133:6565  function _approve(address owner, address spender, uint256 value, bool emitEvent) internal virtual {... */\n    tag_201:\n        /* \"tronweb/contracts/USDTFlash_TRC20.sol\":6262:6263  0 */\n      0x00\n        /* \"tronweb/contracts/USDTFlash_TRC20.sol\":6245:6264  owner == address(0) */\n      0xffffffffffffffffffffffffffffffffffffffff\n      and\n        /* \"tronweb/contracts/USDTFlash_TRC20.sol\":6245:6250  owner */\n      dup5\n        /* \"tronweb/contracts/USDTFlash_TRC20.sol\":6245:6264  owner == address(0) */\n      0xffffffffffffffffffffffffffffffffffffffff\n      and\n      sub\n        /* \"tronweb/contracts/USDTFlash_TRC20.sol\":6241:6330  if (owner == address(0)) {... */\n      tag_232\n      jumpi\n        /* \"tronweb/contracts/USDTFlash_TRC20.sol\":6316:6317  0 */\n      0x00\n        /* \"tronweb/contracts/USDTFlash_TRC20.sol\":6287:6319  TRC20InvalidApprover(address(0)) */\n      mload(0x40)\n      0x1e431edf00000000000000000000000000000000000000000000000000000000\n      dup2\n      mstore\n      0x04\n      add\n      tag_233\n      swap2\n      swap1\n      tag_212\n      jump\t// in\n    tag_233:\n      mload(0x40)\n      dup1\n      swap2\n      sub\n      swap1\n      revert\n        /* \"tronweb/contracts/USDTFlash_TRC20.sol\":6241:6330  if (owner == address(0)) {... */\n    tag_232:\n        /* \"tronweb/contracts/USDTFlash_TRC20.sol\":6362:6363  0 */\n      0x00\n        /* \"tronweb/contracts/USDTFlash_TRC20.sol\":6343:6364  spender == address(0) */\n      0xffffffffffffffffffffffffffffffffffffffff\n      and\n        /* \"tronweb/contracts/USDTFlash_TRC20.sol\":6343:6350  spender */\n      dup4\n        /* \"tronweb/contracts/USDTFlash_TRC20.sol\":6343:6364  spender == address(0) */\n      0xffffffffffffffffffffffffffffffffffffffff\n      and\n      sub\n        /* \"tronweb/contracts/USDTFlash_TRC20.sol\":6339:6429  if (spender == address(0)) {... */\n      tag_234\n      jumpi\n        /* \"tronweb/contracts/USDTFlash_TRC20.sol\":6415:6416  0 */\n      0x00\n        /* \"tronweb/contracts/USDTFlash_TRC20.sol\":6387:6418  TRC20InvalidSpender(address(0)) */\n      mload(0x40)\n      0x503ab6af00000000000000000000000000000000000000000000000000000000\n      dup2\n      mstore\n      0x04\n      add\n      tag_235\n      swap2\n      swap1\n      tag_212\n      jump\t// in\n    tag_235:\n      mload(0x40)\n      dup1\n      swap2\n      sub\n      swap1\n      revert\n        /* \"tronweb/contracts/USDTFlash_TRC20.sol\":6339:6429  if (spender == address(0)) {... */\n    tag_234:\n        /* \"tronweb/contracts/USDTFlash_TRC20.sol\":6468:6473  value */\n      dup2\n        /* \"tronweb/contracts/USDTFlash_TRC20.sol\":6438:6449  _allowances */\n      0x01\n        /* \"tronweb/contracts/USDTFlash_TRC20.sol\":6438:6456  _allowances[owner] */\n      0x00\n        /* \"tronweb/contracts/USDTFlash_TRC20.sol\":6450:6455  owner */\n      dup7\n        /* \"tronweb/contracts/USDTFlash_TRC20.sol\":6438:6456  _allowances[owner] */\n      0xffffffffffffffffffffffffffffffffffffffff\n      and\n      0xffffffffffffffffffffffffffffffffffffffff\n      and\n      dup2\n      mstore\n      0x20\n      add\n      swap1\n      dup2\n      mstore\n      0x20\n      add\n      0x00\n      keccak256\n        /* \"tronweb/contracts/USDTFlash_TRC20.sol\":6438:6465  _allowances[owner][spender] */\n      0x00\n        /* \"tronweb/contracts/USDTFlash_TRC20.sol\":6457:6464  spender */\n      dup6\n        /* \"tronweb/contracts/USDTFlash_TRC20.sol\":6438:6465  _allowances[owner][spender] */\n      0xffffffffffffffffffffffffffffffffffffffff\n      and\n      0xffffffffffffffffffffffffffffffffffffffff\n      and\n      dup2\n      mstore\n      0x20\n      add\n      swap1\n      dup2\n      mstore\n      0x20\n      add\n      0x00\n      keccak256\n        /* \"tronweb/contracts/USDTFlash_TRC20.sol\":6438:6473  _allowances[owner][spender] = value */\n      dup2\n      swap1\n      sstore\n      pop\n        /* \"tronweb/contracts/USDTFlash_TRC20.sol\":6487:6496  emitEvent */\n      dup1\n        /* \"tronweb/contracts/USDTFlash_TRC20.sol\":6483:6559  if (emitEvent) {... */\n      iszero\n      tag_236\n      jumpi\n        /* \"tronweb/contracts/USDTFlash_TRC20.sol\":6533:6540  spender */\n      dup3\n        /* \"tronweb/contracts/USDTFlash_TRC20.sol\":6517:6548  Approval(owner, spender, value) */\n      0xffffffffffffffffffffffffffffffffffffffff\n      and\n        /* \"tronweb/contracts/USDTFlash_TRC20.sol\":6526:6531  owner */\n      dup5\n        /* \"tronweb/contracts/USDTFlash_TRC20.sol\":6517:6548  Approval(owner, spender, value) */\n      0xffffffffffffffffffffffffffffffffffffffff\n      and\n      0x8c5be1e5ebec7d5bd14f71427d1e84f3dd0314c0f7b2291e5b200ac8c7c3b925\n        /* \"tronweb/contracts/USDTFlash_TRC20.sol\":6542:6547  value */\n      dup5\n        /* \"tronweb/contracts/USDTFlash_TRC20.sol\":6517:6548  Approval(owner, spender, value) */\n      mload(0x40)\n      tag_237\n      swap2\n      swap1\n      tag_38\n      jump\t// in\n    tag_237:\n      mload(0x40)\n      dup1\n      swap2\n      sub\n      swap1\n      log3\n        /* \"tronweb/contracts/USDTFlash_TRC20.sol\":6483:6559  if (emitEvent) {... */\n    tag_236:\n        /* \"tronweb/contracts/USDTFlash_TRC20.sol\":6133:6565  function _approve(address owner, address spender, uint256 value, bool emitEvent) internal virtual {... */\n      pop\n      pop\n      pop\n      pop\n      jump\t// out\n        /* \"tronweb/contracts/USDTFlash_TRC20.sol\":4705:5411  function _update(address from, address to, uint256 value) internal virtual {... */\n    tag_216:\n        /* \"tronweb/contracts/USDTFlash_TRC20.sol\":4810:4811  0 */\n      0x00\n        /* \"tronweb/contracts/USDTFlash_TRC20.sol\":4794:4812  from == address(0) */\n      0xffffffffffffffffffffffffffffffffffffffff\n      and\n        /* \"tronweb/contracts/USDTFlash_TRC20.sol\":4794:4798  from */\n      dup4\n        /* \"tronweb/contracts/USDTFlash_TRC20.sol\":4794:4812  from == address(0) */\n      0xffffffffffffffffffffffffffffffffffffffff\n      and\n      sub\n        /* \"tronweb/contracts/USDTFlash_TRC20.sol\":4790:5149  if (from == address(0)) {... */\n      tag_239\n      jumpi\n        /* \"tronweb/contracts/USDTFlash_TRC20.sol\":4844:4849  value */\n      dup1\n        /* \"tronweb/contracts/USDTFlash_TRC20.sol\":4828:4840  _totalSupply */\n      0x02\n      0x00\n        /* \"tronweb/contracts/USDTFlash_TRC20.sol\":4828:4849  _totalSupply += value */\n      dup3\n      dup3\n      sload\n      tag_240\n      swap2\n      swap1\n      tag_137\n      jump\t// in\n    tag_240:\n      swap3\n      pop\n      pop\n      dup2\n      swap1\n      sstore\n      pop\n        /* \"tronweb/contracts/USDTFlash_TRC20.sol\":4790:5149  if (from == address(0)) {... */\n      jump(tag_241)\n    tag_239:\n        /* \"tronweb/contracts/USDTFlash_TRC20.sol\":4880:4899  uint256 fromBalance */\n      0x00\n        /* \"tronweb/contracts/USDTFlash_TRC20.sol\":4902:4911  _balances */\n      dup1\n        /* \"tronweb/contracts/USDTFlash_TRC20.sol\":4902:4917  _balances[from] */\n      0x00\n        /* \"tronweb/contracts/USDTFlash_TRC20.sol\":4912:4916  from */\n      dup6\n        /* \"tronweb/contracts/USDTFlash_TRC20.sol\":4902:4917  _balances[from] */\n      0xffffffffffffffffffffffffffffffffffffffff\n      and\n      0xffffffffffffffffffffffffffffffffffffffff\n      and\n      dup2\n      mstore\n      0x20\n      add\n      swap1\n      dup2\n      mstore\n      0x20\n      add\n      0x00\n      keccak256\n      sload\n        /* \"tronweb/contracts/USDTFlash_TRC20.sol\":4880:4917  uint256 fromBalance = _balances[from] */\n      swap1\n      pop\n        /* \"tronweb/contracts/USDTFlash_TRC20.sol\":4949:4954  value */\n      dup2\n        /* \"tronweb/contracts/USDTFlash_TRC20.sol\":4935:4946  fromBalance */\n      dup2\n        /* \"tronweb/contracts/USDTFlash_TRC20.sol\":4935:4954  fromBalance < value */\n      lt\n        /* \"tronweb/contracts/USDTFlash_TRC20.sol\":4931:5046  if (fromBalance < value) {... */\n      iszero\n      tag_242\n      jumpi\n        /* \"tronweb/contracts/USDTFlash_TRC20.sol\":5006:5010  from */\n      dup4\n        /* \"tronweb/contracts/USDTFlash_TRC20.sol\":5012:5023  fromBalance */\n      dup2\n        /* \"tronweb/contracts/USDTFlash_TRC20.sol\":5025:5030  value */\n      dup4\n        /* \"tronweb/contracts/USDTFlash_TRC20.sol\":4981:5031  TRC20InsufficientBalance(from, fromBalance, value) */\n      mload(0x40)\n      0xd79d596700000000000000000000000000000000000000000000000000000000\n      dup2\n      mstore\n      0x04\n      add\n      tag_243\n      swap4\n      swap3\n      swap2\n      swap1\n      tag_207\n      jump\t// in\n    tag_243:\n      mload(0x40)\n      dup1\n      swap2\n      sub\n      swap1\n      revert\n        /* \"tronweb/contracts/USDTFlash_TRC20.sol\":4931:5046  if (fromBalance < value) {... */\n    tag_242:\n        /* \"tronweb/contracts/USDTFlash_TRC20.sol\":5119:5124  value */\n      dup2\n        /* \"tronweb/contracts/USDTFlash_TRC20.sol\":5105:5116  fromBalance */\n      dup2\n        /* \"tronweb/contracts/USDTFlash_TRC20.sol\":5105:5124  fromBalance - value */\n      sub\n        /* \"tronweb/contracts/USDTFlash_TRC20.sol\":5087:5096  _balances */\n      0x00\n        /* \"tronweb/contracts/USDTFlash_TRC20.sol\":5087:5102  _balances[from] */\n      dup1\n        /* \"tronweb/contracts/USDTFlash_TRC20.sol\":5097:5101  from */\n      dup7\n        /* \"tronweb/contracts/USDTFlash_TRC20.sol\":5087:5102  _balances[from] */\n      0xffffffffffffffffffffffffffffffffffffffff\n      and\n      0xffffffffffffffffffffffffffffffffffffffff\n      and\n      dup2\n      mstore\n      0x20\n      add\n      swap1\n      dup2\n      mstore\n      0x20\n      add\n      0x00\n      keccak256\n        /* \"tronweb/contracts/USDTFlash_TRC20.sol\":5087:5124  _balances[from] = fromBalance - value */\n      dup2\n      swap1\n      sstore\n      pop\n        /* \"tronweb/contracts/USDTFlash_TRC20.sol\":4866:5149  {... */\n      pop\n        /* \"tronweb/contracts/USDTFlash_TRC20.sol\":4790:5149  if (from == address(0)) {... */\n    tag_241:\n        /* \"tronweb/contracts/USDTFlash_TRC20.sol\":5177:5178  0 */\n      0x00\n        /* \"tronweb/contracts/USDTFlash_TRC20.sol\":5163:5179  to == address(0) */\n      0xffffffffffffffffffffffffffffffffffffffff\n      and\n        /* \"tronweb/contracts/USDTFlash_TRC20.sol\":5163:5165  to */\n      dup3\n        /* \"tronweb/contracts/USDTFlash_TRC20.sol\":5163:5179  to == address(0) */\n      0xffffffffffffffffffffffffffffffffffffffff\n      and\n      sub\n        /* \"tronweb/contracts/USDTFlash_TRC20.sol\":5159:5364  if (to == address(0)) {... */\n      tag_244\n      jumpi\n        /* \"tronweb/contracts/USDTFlash_TRC20.sol\":5239:5244  value */\n      dup1\n        /* \"tronweb/contracts/USDTFlash_TRC20.sol\":5223:5235  _totalSupply */\n      0x02\n      0x00\n        /* \"tronweb/contracts/USDTFlash_TRC20.sol\":5223:5244  _totalSupply -= value */\n      dup3\n      dup3\n      sload\n      sub\n      swap3\n      pop\n      pop\n      dup2\n      swap1\n      sstore\n      pop\n        /* \"tronweb/contracts/USDTFlash_TRC20.sol\":5159:5364  if (to == address(0)) {... */\n      jump(tag_245)\n    tag_244:\n        /* \"tronweb/contracts/USDTFlash_TRC20.sol\":5334:5339  value */\n      dup1\n        /* \"tronweb/contracts/USDTFlash_TRC20.sol\":5317:5326  _balances */\n      0x00\n        /* \"tronweb/contracts/USDTFlash_TRC20.sol\":5317:5330  _balances[to] */\n      dup1\n        /* \"tronweb/contracts/USDTFlash_TRC20.sol\":5327:5329  to */\n      dup5\n        /* \"tronweb/contracts/USDTFlash_TRC20.sol\":5317:5330  _balances[to] */\n      0xffffffffffffffffffffffffffffffffffffffff\n      and\n      0xffffffffffffffffffffffffffffffffffffffff\n      and\n      dup2\n      mstore\n      0x20\n      add\n      swap1\n      dup2\n      mstore\n      0x20\n      add\n      0x00\n      keccak256\n      0x00\n        /* \"tronweb/contracts/USDTFlash_TRC20.sol\":5317:5339  _balances[to] += value */\n      dup3\n      dup3\n      sload\n      add\n      swap3\n      pop\n      pop\n      dup2\n      swap1\n      sstore\n      pop\n        /* \"tronweb/contracts/USDTFlash_TRC20.sol\":5159:5364  if (to == address(0)) {... */\n    tag_245:\n        /* \"tronweb/contracts/USDTFlash_TRC20.sol\":5394:5396  to */\n      dup2\n        /* \"tronweb/contracts/USDTFlash_TRC20.sol\":5379:5404  Transfer(from, to, value) */\n      0xffffffffffffffffffffffffffffffffffffffff\n      and\n        /* \"tronweb/contracts/USDTFlash_TRC20.sol\":5388:5392  from */\n      dup4\n        /* \"tronweb/contracts/USDTFlash_TRC20.sol\":5379:5404  Transfer(from, to, value) */\n      0xffffffffffffffffffffffffffffffffffffffff\n      and\n      0xddf252ad1be2c89b69c2b068fc378daa952ba7f163c4a11628f55a4df523b3ef\n        /* \"tronweb/contracts/USDTFlash_TRC20.sol\":5398:5403  value */\n      dup4\n        /* \"tronweb/contracts/USDTFlash_TRC20.sol\":5379:5404  Transfer(from, to, value) */\n      mload(0x40)\n      tag_246\n      swap2\n      swap1\n      tag_38\n      jump\t// in\n    tag_246:\n      mload(0x40)\n      dup1\n      swap2\n      sub\n      swap1\n      log3\n        /* \"tronweb/contracts/USDTFlash_TRC20.sol\":4705:5411  function _update(address from, address to, uint256 value) internal virtual {... */\n      pop\n      pop\n      pop\n      jump\t// out\n        /* \"#utility.yul\":7:106   */\n    tag_247:\n        /* \"#utility.yul\":59:65   */\n      0x00\n        /* \"#utility.yul\":93:98   */\n      dup2\n        /* \"#utility.yul\":87:99   */\n      mload\n        /* \"#utility.yul\":77:99   */\n      swap1\n      pop\n        /* \"#utility.yul\":7:106   */\n      swap2\n      swap1\n      pop\n      jump\t// out\n        /* \"#utility.yul\":112:281   */\n    tag_248:\n        /* \"#utility.yul\":196:207   */\n      0x00\n        /* \"#utility.yul\":230:236   */\n      dup3\n        /* \"#utility.yul\":225:228   */\n      dup3\n        /* \"#utility.yul\":218:237   */\n      mstore\n        /* \"#utility.yul\":270:274   */\n      0x20\n        /* \"#utility.yul\":265:268   */\n      dup3\n        /* \"#utility.yul\":261:275   */\n      add\n        /* \"#utility.yul\":246:275   */\n      swap1\n      pop\n        /* \"#utility.yul\":112:281   */\n      swap3\n      swap2\n      pop\n      pop\n      jump\t// out\n        /* \"#utility.yul\":287:535   */\n    tag_249:\n        /* \"#utility.yul\":369:370   */\n      0x00\n        /* \"#utility.yul\":379:492   */\n    tag_288:\n        /* \"#utility.yul\":393:399   */\n      dup4\n        /* \"#utility.yul\":390:391   */\n      dup2\n        /* \"#utility.yul\":387:400   */\n      lt\n        /* \"#utility.yul\":379:492   */\n      iszero\n      tag_290\n      jumpi\n        /* \"#utility.yul\":478:479   */\n      dup1\n        /* \"#utility.yul\":473:476   */\n      dup3\n        /* \"#utility.yul\":469:480   */\n      add\n        /* \"#utility.yul\":463:481   */\n      mload\n        /* \"#utility.yul\":459:460   */\n      dup2\n        /* \"#utility.yul\":454:457   */\n      dup5\n        /* \"#utility.yul\":450:461   */\n      add\n        /* \"#utility.yul\":443:482   */\n      mstore\n        /* \"#utility.yul\":415:417   */\n      0x20\n        /* \"#utility.yul\":412:413   */\n      dup2\n        /* \"#utility.yul\":408:418   */\n      add\n        /* \"#utility.yul\":403:418   */\n      swap1\n      pop\n        /* \"#utility.yul\":379:492   */\n      jump(tag_288)\n    tag_290:\n        /* \"#utility.yul\":526:527   */\n      0x00\n        /* \"#utility.yul\":517:523   */\n      dup5\n        /* \"#utility.yul\":512:515   */\n      dup5\n        /* \"#utility.yul\":508:524   */\n      add\n        /* \"#utility.yul\":501:528   */\n      mstore\n        /* \"#utility.yul\":349:535   */\n      pop\n        /* \"#utility.yul\":287:535   */\n      pop\n      pop\n      pop\n      jump\t// out\n        /* \"#utility.yul\":541:643   */\n    tag_250:\n        /* \"#utility.yul\":582:588   */\n      0x00\n        /* \"#utility.yul\":633:635   */\n      0x1f\n        /* \"#utility.yul\":629:636   */\n      not\n        /* \"#utility.yul\":624:626   */\n      0x1f\n        /* \"#utility.yul\":617:622   */\n      dup4\n        /* \"#utility.yul\":613:627   */\n      add\n        /* \"#utility.yul\":609:637   */\n      and\n        /* \"#utility.yul\":599:637   */\n      swap1\n      pop\n        /* \"#utility.yul\":541:643   */\n      swap2\n      swap1\n      pop\n      jump\t// out\n        /* \"#utility.yul\":649:1026   */\n    tag_251:\n        /* \"#utility.yul\":737:740   */\n      0x00\n        /* \"#utility.yul\":765:804   */\n      tag_293\n        /* \"#utility.yul\":798:803   */\n      dup3\n        /* \"#utility.yul\":765:804   */\n      tag_247\n      jump\t// in\n    tag_293:\n        /* \"#utility.yul\":820:891   */\n      tag_294\n        /* \"#utility.yul\":884:890   */\n      dup2\n        /* \"#utility.yul\":879:882   */\n      dup6\n        /* \"#utility.yul\":820:891   */\n      tag_248\n      jump\t// in\n    tag_294:\n        /* \"#utility.yul\":813:891   */\n      swap4\n      pop\n        /* \"#utility.yul\":900:965   */\n      tag_295\n        /* \"#utility.yul\":958:964   */\n      dup2\n        /* \"#utility.yul\":953:956   */\n      dup6\n        /* \"#utility.yul\":946:950   */\n      0x20\n        /* \"#utility.yul\":939:944   */\n      dup7\n        /* \"#utility.yul\":935:951   */\n      add\n        /* \"#utility.yul\":900:965   */\n      tag_249\n      jump\t// in\n    tag_295:\n        /* \"#utility.yul\":990:1019   */\n      tag_296\n        /* \"#utility.yul\":1012:1018   */\n      dup2\n        /* \"#utility.yul\":990:1019   */\n      tag_250\n      jump\t// in\n    tag_296:\n        /* \"#utility.yul\":985:988   */\n      dup5\n        /* \"#utility.yul\":981:1020   */\n      add\n        /* \"#utility.yul\":974:1020   */\n      swap2\n      pop\n        /* \"#utility.yul\":741:1026   */\n      pop\n        /* \"#utility.yul\":649:1026   */\n      swap3\n      swap2\n      pop\n      pop\n      jump\t// out\n        /* \"#utility.yul\":1032:1345   */\n    tag_28:\n        /* \"#utility.yul\":1145:1149   */\n      0x00\n        /* \"#utility.yul\":1183:1185   */\n      0x20\n        /* \"#utility.yul\":1172:1181   */\n      dup3\n        /* \"#utility.yul\":1168:1186   */\n      add\n        /* \"#utility.yul\":1160:1186   */\n      swap1\n      pop\n        /* \"#utility.yul\":1232:1241   */\n      dup2\n        /* \"#utility.yul\":1226:1230   */\n      dup2\n        /* \"#utility.yul\":1222:1242   */\n      sub\n        /* \"#utility.yul\":1218:1219   */\n      0x00\n        /* \"#utility.yul\":1207:1216   */\n      dup4\n        /* \"#utility.yul\":1203:1220   */\n      add\n        /* \"#utility.yul\":1196:1243   */\n      mstore\n        /* \"#utility.yul\":1260:1338   */\n      tag_298\n        /* \"#utility.yul\":1333:1337   */\n      dup2\n        /* \"#utility.yul\":1324:1330   */\n      dup5\n        /* \"#utility.yul\":1260:1338   */\n      tag_251\n      jump\t// in\n    tag_298:\n        /* \"#utility.yul\":1252:1338   */\n      swap1\n      pop\n        /* \"#utility.yul\":1032:1345   */\n      swap3\n      swap2\n      pop\n      pop\n      jump\t// out\n        /* \"#utility.yul\":1432:1549   */\n    tag_253:\n        /* \"#utility.yul\":1541:1542   */\n      0x00\n        /* \"#utility.yul\":1538:1539   */\n      dup1\n        /* \"#utility.yul\":1531:1543   */\n      revert\n        /* \"#utility.yul\":1678:1804   */\n    tag_255:\n        /* \"#utility.yul\":1715:1722   */\n      0x00\n        /* \"#utility.yul\":1755:1797   */\n      0xffffffffffffffffffffffffffffffffffffffff\n        /* \"#utility.yul\":1748:1753   */\n      dup3\n        /* \"#utility.yul\":1744:1798   */\n      and\n        /* \"#utility.yul\":1733:1798   */\n      swap1\n      pop\n        /* \"#utility.yul\":1678:1804   */\n      swap2\n      swap1\n      pop\n      jump\t// out\n        /* \"#utility.yul\":1810:1906   */\n    tag_256:\n        /* \"#utility.yul\":1847:1854   */\n      0x00\n        /* \"#utility.yul\":1876:1900   */\n      tag_304\n        /* \"#utility.yul\":1894:1899   */\n      dup3\n        /* \"#utility.yul\":1876:1900   */\n      tag_255\n      jump\t// in\n    tag_304:\n        /* \"#utility.yul\":1865:1900   */\n      swap1\n      pop\n        /* \"#utility.yul\":1810:1906   */\n      swap2\n      swap1\n      pop\n      jump\t// out\n        /* \"#utility.yul\":1912:2034   */\n    tag_257:\n        /* \"#utility.yul\":1985:2009   */\n      tag_306\n        /* \"#utility.yul\":2003:2008   */\n      dup2\n        /* \"#utility.yul\":1985:2009   */\n      tag_256\n      jump\t// in\n    tag_306:\n        /* \"#utility.yul\":1978:1983   */\n      dup2\n        /* \"#utility.yul\":1975:2010   */\n      eq\n        /* \"#utility.yul\":1965:2028   */\n      tag_307\n      jumpi\n        /* \"#utility.yul\":2024:2025   */\n      0x00\n        /* \"#utility.yul\":2021:2022   */\n      dup1\n        /* \"#utility.yul\":2014:2026   */\n      revert\n        /* \"#utility.yul\":1965:2028   */\n    tag_307:\n        /* \"#utility.yul\":1912:2034   */\n      pop\n      jump\t// out\n        /* \"#utility.yul\":2040:2179   */\n    tag_258:\n        /* \"#utility.yul\":2086:2091   */\n      0x00\n        /* \"#utility.yul\":2124:2130   */\n      dup2\n        /* \"#utility.yul\":2111:2131   */\n      calldataload\n        /* \"#utility.yul\":2102:2131   */\n      swap1\n      pop\n        /* \"#utility.yul\":2140:2173   */\n      tag_309\n        /* \"#utility.yul\":2167:2172   */\n      dup2\n        /* \"#utility.yul\":2140:2173   */\n      tag_257\n      jump\t// in\n    tag_309:\n        /* \"#utility.yul\":2040:2179   */\n      swap3\n      swap2\n      pop\n      pop\n      jump\t// out\n        /* \"#utility.yul\":2185:2262   */\n    tag_259:\n        /* \"#utility.yul\":2222:2229   */\n      0x00\n        /* \"#utility.yul\":2251:2256   */\n      dup2\n        /* \"#utility.yul\":2240:2256   */\n      swap1\n      pop\n        /* \"#utility.yul\":2185:2262   */\n      swap2\n      swap1\n      pop\n      jump\t// out\n        /* \"#utility.yul\":2268:2390   */\n    tag_260:\n        /* \"#utility.yul\":2341:2365   */\n      tag_312\n        /* \"#utility.yul\":2359:2364   */\n      dup2\n        /* \"#utility.yul\":2341:2365   */\n      tag_259\n      jump\t// in\n    tag_312:\n        /* \"#utility.yul\":2334:2339   */\n      dup2\n        /* \"#utility.yul\":2331:2366   */\n      eq\n        /* \"#utility.yul\":2321:2384   */\n      tag_313\n      jumpi\n        /* \"#utility.yul\":2380:2381   */\n      0x00\n        /* \"#utility.yul\":2377:2378   */\n      dup1\n        /* \"#utility.yul\":2370:2382   */\n      revert\n        /* \"#utility.yul\":2321:2384   */\n    tag_313:\n        /* \"#utility.yul\":2268:2390   */\n      pop\n      jump\t// out\n        /* \"#utility.yul\":2396:2535   */\n    tag_261:\n        /* \"#utility.yul\":2442:2447   */\n      0x00\n        /* \"#utility.yul\":2480:2486   */\n      dup2\n        /* \"#utility.yul\":2467:2487   */\n      calldataload\n        /* \"#utility.yul\":2458:2487   */\n      swap1\n      pop\n        /* \"#utility.yul\":2496:2529   */\n      tag_315\n        /* \"#utility.yul\":2523:2528   */\n      dup2\n        /* \"#utility.yul\":2496:2529   */\n      tag_260\n      jump\t// in\n    tag_315:\n        /* \"#utility.yul\":2396:2535   */\n      swap3\n      swap2\n      pop\n      pop\n      jump\t// out\n        /* \"#utility.yul\":2541:3015   */\n    tag_31:\n        /* \"#utility.yul\":2609:2615   */\n      0x00\n        /* \"#utility.yul\":2617:2623   */\n      dup1\n        /* \"#utility.yul\":2666:2668   */\n      0x40\n        /* \"#utility.yul\":2654:2663   */\n      dup4\n        /* \"#utility.yul\":2645:2652   */\n      dup6\n        /* \"#utility.yul\":2641:2664   */\n      sub\n        /* \"#utility.yul\":2637:2669   */\n      slt\n        /* \"#utility.yul\":2634:2753   */\n      iszero\n      tag_317\n      jumpi\n        /* \"#utility.yul\":2672:2751   */\n      tag_318\n      tag_253\n      jump\t// in\n    tag_318:\n        /* \"#utility.yul\":2634:2753   */\n    tag_317:\n        /* \"#utility.yul\":2792:2793   */\n      0x00\n        /* \"#utility.yul\":2817:2870   */\n      tag_319\n        /* \"#utility.yul\":2862:2869   */\n      dup6\n        /* \"#utility.yul\":2853:2859   */\n      dup3\n        /* \"#utility.yul\":2842:2851   */\n      dup7\n        /* \"#utility.yul\":2838:2860   */\n      add\n        /* \"#utility.yul\":2817:2870   */\n      tag_258\n      jump\t// in\n    tag_319:\n        /* \"#utility.yul\":2807:2870   */\n      swap3\n      pop\n        /* \"#utility.yul\":2763:2880   */\n      pop\n        /* \"#utility.yul\":2919:2921   */\n      0x20\n        /* \"#utility.yul\":2945:2998   */\n      tag_320\n        /* \"#utility.yul\":2990:2997   */\n      dup6\n        /* \"#utility.yul\":2981:2987   */\n      dup3\n        /* \"#utility.yul\":2970:2979   */\n      dup7\n        /* \"#utility.yul\":2966:2988   */\n      add\n        /* \"#utility.yul\":2945:2998   */\n      tag_261\n      jump\t// in\n    tag_320:\n        /* \"#utility.yul\":2935:2998   */\n      swap2\n      pop\n        /* \"#utility.yul\":2890:3008   */\n      pop\n        /* \"#utility.yul\":2541:3015   */\n      swap3\n      pop\n      swap3\n      swap1\n      pop\n      jump\t// out\n        /* \"#utility.yul\":3021:3111   */\n    tag_262:\n        /* \"#utility.yul\":3055:3062   */\n      0x00\n        /* \"#utility.yul\":3098:3103   */\n      dup2\n        /* \"#utility.yul\":3091:3104   */\n      iszero\n        /* \"#utility.yul\":3084:3105   */\n      iszero\n        /* \"#utility.yul\":3073:3105   */\n      swap1\n      pop\n        /* \"#utility.yul\":3021:3111   */\n      swap2\n      swap1\n      pop\n      jump\t// out\n        /* \"#utility.yul\":3117:3226   */\n    tag_263:\n        /* \"#utility.yul\":3198:3219   */\n      tag_323\n        /* \"#utility.yul\":3213:3218   */\n      dup2\n        /* \"#utility.yul\":3198:3219   */\n      tag_262\n      jump\t// in\n    tag_323:\n        /* \"#utility.yul\":3193:3196   */\n      dup3\n        /* \"#utility.yul\":3186:3220   */\n      mstore\n        /* \"#utility.yul\":3117:3226   */\n      pop\n      pop\n      jump\t// out\n        /* \"#utility.yul\":3232:3442   */\n    tag_34:\n        /* \"#utility.yul\":3319:3323   */\n      0x00\n        /* \"#utility.yul\":3357:3359   */\n      0x20\n        /* \"#utility.yul\":3346:3355   */\n      dup3\n        /* \"#utility.yul\":3342:3360   */\n      add\n        /* \"#utility.yul\":3334:3360   */\n      swap1\n      pop\n        /* \"#utility.yul\":3370:3435   */\n      tag_325\n        /* \"#utility.yul\":3432:3433   */\n      0x00\n        /* \"#utility.yul\":3421:3430   */\n      dup4\n        /* \"#utility.yul\":3417:3434   */\n      add\n        /* \"#utility.yul\":3408:3414   */\n      dup5\n        /* \"#utility.yul\":3370:3435   */\n      tag_263\n      jump\t// in\n    tag_325:\n        /* \"#utility.yul\":3232:3442   */\n      swap3\n      swap2\n      pop\n      pop\n      jump\t// out\n        /* \"#utility.yul\":3448:3566   */\n    tag_264:\n        /* \"#utility.yul\":3535:3559   */\n      tag_327\n        /* \"#utility.yul\":3553:3558   */\n      dup2\n        /* \"#utility.yul\":3535:3559   */\n      tag_259\n      jump\t// in\n    tag_327:\n        /* \"#utility.yul\":3530:3533   */\n      dup3\n        /* \"#utility.yul\":3523:3560   */\n      mstore\n        /* \"#utility.yul\":3448:3566   */\n      pop\n      pop\n      jump\t// out\n        /* \"#utility.yul\":3572:3794   */\n    tag_38:\n        /* \"#utility.yul\":3665:3669   */\n      0x00\n        /* \"#utility.yul\":3703:3705   */\n      0x20\n        /* \"#utility.yul\":3692:3701   */\n      dup3\n        /* \"#utility.yul\":3688:3706   */\n      add\n        /* \"#utility.yul\":3680:3706   */\n      swap1\n      pop\n        /* \"#utility.yul\":3716:3787   */\n      tag_329\n        /* \"#utility.yul\":3784:3785   */\n      0x00\n        /* \"#utility.yul\":3773:3782   */\n      dup4\n        /* \"#utility.yul\":3769:3786   */\n      add\n        /* \"#utility.yul\":3760:3766   */\n      dup5\n        /* \"#utility.yul\":3716:3787   */\n      tag_264\n      jump\t// in\n    tag_329:\n        /* \"#utility.yul\":3572:3794   */\n      swap3\n      swap2\n      pop\n      pop\n      jump\t// out\n        /* \"#utility.yul\":3800:4419   */\n    tag_41:\n        /* \"#utility.yul\":3877:3883   */\n      0x00\n        /* \"#utility.yul\":3885:3891   */\n      dup1\n        /* \"#utility.yul\":3893:3899   */\n      0x00\n        /* \"#utility.yul\":3942:3944   */\n      0x60\n        /* \"#utility.yul\":3930:3939   */\n      dup5\n        /* \"#utility.yul\":3921:3928   */\n      dup7\n        /* \"#utility.yul\":3917:3940   */\n      sub\n        /* \"#utility.yul\":3913:3945   */\n      slt\n        /* \"#utility.yul\":3910:4029   */\n      iszero\n      tag_331\n      jumpi\n        /* \"#utility.yul\":3948:4027   */\n      tag_332\n      tag_253\n      jump\t// in\n    tag_332:\n        /* \"#utility.yul\":3910:4029   */\n    tag_331:\n        /* \"#utility.yul\":4068:4069   */\n      0x00\n        /* \"#utility.yul\":4093:4146   */\n      tag_333\n        /* \"#utility.yul\":4138:4145   */\n      dup7\n        /* \"#utility.yul\":4129:4135   */\n      dup3\n        /* \"#utility.yul\":4118:4127   */\n      dup8\n        /* \"#utility.yul\":4114:4136   */\n      add\n        /* \"#utility.yul\":4093:4146   */\n      tag_258\n      jump\t// in\n    tag_333:\n        /* \"#utility.yul\":4083:4146   */\n      swap4\n      pop\n        /* \"#utility.yul\":4039:4156   */\n      pop\n        /* \"#utility.yul\":4195:4197   */\n      0x20\n        /* \"#utility.yul\":4221:4274   */\n      tag_334\n        /* \"#utility.yul\":4266:4273   */\n      dup7\n        /* \"#utility.yul\":4257:4263   */\n      dup3\n        /* \"#utility.yul\":4246:4255   */\n      dup8\n        /* \"#utility.yul\":4242:4264   */\n      add\n        /* \"#utility.yul\":4221:4274   */\n      tag_258\n      jump\t// in\n    tag_334:\n        /* \"#utility.yul\":4211:4274   */\n      swap3\n      pop\n        /* \"#utility.yul\":4166:4284   */\n      pop\n        /* \"#utility.yul\":4323:4325   */\n      0x40\n        /* \"#utility.yul\":4349:4402   */\n      tag_335\n        /* \"#utility.yul\":4394:4401   */\n      dup7\n        /* \"#utility.yul\":4385:4391   */\n      dup3\n        /* \"#utility.yul\":4374:4383   */\n      dup8\n        /* \"#utility.yul\":4370:4392   */\n      add\n        /* \"#utility.yul\":4349:4402   */\n      tag_261\n      jump\t// in\n    tag_335:\n        /* \"#utility.yul\":4339:4402   */\n      swap2\n      pop\n        /* \"#utility.yul\":4294:4412   */\n      pop\n        /* \"#utility.yul\":3800:4419   */\n      swap3\n      pop\n      swap3\n      pop\n      swap3\n      jump\t// out\n        /* \"#utility.yul\":4425:4754   */\n    tag_46:\n        /* \"#utility.yul\":4484:4490   */\n      0x00\n        /* \"#utility.yul\":4533:4535   */\n      0x20\n        /* \"#utility.yul\":4521:4530   */\n      dup3\n        /* \"#utility.yul\":4512:4519   */\n      dup5\n        /* \"#utility.yul\":4508:4531   */\n      sub\n        /* \"#utility.yul\":4504:4536   */\n      slt\n        /* \"#utility.yul\":4501:4620   */\n      iszero\n      tag_337\n      jumpi\n        /* \"#utility.yul\":4539:4618   */\n      tag_338\n      tag_253\n      jump\t// in\n    tag_338:\n        /* \"#utility.yul\":4501:4620   */\n    tag_337:\n        /* \"#utility.yul\":4659:4660   */\n      0x00\n        /* \"#utility.yul\":4684:4737   */\n      tag_339\n        /* \"#utility.yul\":4729:4736   */\n      dup5\n        /* \"#utility.yul\":4720:4726   */\n      dup3\n        /* \"#utility.yul\":4709:4718   */\n      dup6\n        /* \"#utility.yul\":4705:4727   */\n      add\n        /* \"#utility.yul\":4684:4737   */\n      tag_258\n      jump\t// in\n    tag_339:\n        /* \"#utility.yul\":4674:4737   */\n      swap2\n      pop\n        /* \"#utility.yul\":4630:4747   */\n      pop\n        /* \"#utility.yul\":4425:4754   */\n      swap3\n      swap2\n      pop\n      pop\n      jump\t// out\n        /* \"#utility.yul\":4760:4846   */\n    tag_265:\n        /* \"#utility.yul\":4795:4802   */\n      0x00\n        /* \"#utility.yul\":4835:4839   */\n      0xff\n        /* \"#utility.yul\":4828:4833   */\n      dup3\n        /* \"#utility.yul\":4824:4840   */\n      and\n        /* \"#utility.yul\":4813:4840   */\n      swap1\n      pop\n        /* \"#utility.yul\":4760:4846   */\n      swap2\n      swap1\n      pop\n      jump\t// out\n        /* \"#utility.yul\":4852:4964   */\n    tag_266:\n        /* \"#utility.yul\":4935:4957   */\n      tag_342\n        /* \"#utility.yul\":4951:4956   */\n      dup2\n        /* \"#utility.yul\":4935:4957   */\n      tag_265\n      jump\t// in\n    tag_342:\n        /* \"#utility.yul\":4930:4933   */\n      dup3\n        /* \"#utility.yul\":4923:4958   */\n      mstore\n        /* \"#utility.yul\":4852:4964   */\n      pop\n      pop\n      jump\t// out\n        /* \"#utility.yul\":4970:5184   */\n    tag_51:\n        /* \"#utility.yul\":5059:5063   */\n      0x00\n        /* \"#utility.yul\":5097:5099   */\n      0x20\n        /* \"#utility.yul\":5086:5095   */\n      dup3\n        /* \"#utility.yul\":5082:5100   */\n      add\n        /* \"#utility.yul\":5074:5100   */\n      swap1\n      pop\n        /* \"#utility.yul\":5110:5177   */\n      tag_344\n        /* \"#utility.yul\":5174:5175   */\n      0x00\n        /* \"#utility.yul\":5163:5172   */\n      dup4\n        /* \"#utility.yul\":5159:5176   */\n      add\n        /* \"#utility.yul\":5150:5156   */\n      dup5\n        /* \"#utility.yul\":5110:5177   */\n      tag_266\n      jump\t// in\n    tag_344:\n        /* \"#utility.yul\":4970:5184   */\n      swap3\n      swap2\n      pop\n      pop\n      jump\t// out\n        /* \"#utility.yul\":5190:5519   */\n    tag_60:\n        /* \"#utility.yul\":5249:5255   */\n      0x00\n        /* \"#utility.yul\":5298:5300   */\n      0x20\n        /* \"#utility.yul\":5286:5295   */\n      dup3\n        /* \"#utility.yul\":5277:5284   */\n      dup5\n        /* \"#utility.yul\":5273:5296   */\n      sub\n        /* \"#utility.yul\":5269:5301   */\n      slt\n        /* \"#utility.yul\":5266:5385   */\n      iszero\n      tag_346\n      jumpi\n        /* \"#utility.yul\":5304:5383   */\n      tag_347\n      tag_253\n      jump\t// in\n    tag_347:\n        /* \"#utility.yul\":5266:5385   */\n    tag_346:\n        /* \"#utility.yul\":5424:5425   */\n      0x00\n        /* \"#utility.yul\":5449:5502   */\n      tag_348\n        /* \"#utility.yul\":5494:5501   */\n      dup5\n        /* \"#utility.yul\":5485:5491   */\n      dup3\n        /* \"#utility.yul\":5474:5483   */\n      dup6\n        /* \"#utility.yul\":5470:5492   */\n      add\n        /* \"#utility.yul\":5449:5502   */\n      tag_261\n      jump\t// in\n    tag_348:\n        /* \"#utility.yul\":5439:5502   */\n      swap2\n      pop\n        /* \"#utility.yul\":5395:5512   */\n      pop\n        /* \"#utility.yul\":5190:5519   */\n      swap3\n      swap2\n      pop\n      pop\n      jump\t// out\n        /* \"#utility.yul\":5525:5999   */\n    tag_91:\n        /* \"#utility.yul\":5593:5599   */\n      0x00\n        /* \"#utility.yul\":5601:5607   */\n      dup1\n        /* \"#utility.yul\":5650:5652   */\n      0x40\n        /* \"#utility.yul\":5638:5647   */\n      dup4\n        /* \"#utility.yul\":5629:5636   */\n      dup6\n        /* \"#utility.yul\":5625:5648   */\n      sub\n        /* \"#utility.yul\":5621:5653   */\n      slt\n        /* \"#utility.yul\":5618:5737   */\n      iszero\n      tag_350\n      jumpi\n        /* \"#utility.yul\":5656:5735   */\n      tag_351\n      tag_253\n      jump\t// in\n    tag_351:\n        /* \"#utility.yul\":5618:5737   */\n    tag_350:\n        /* \"#utility.yul\":5776:5777   */\n      0x00\n        /* \"#utility.yul\":5801:5854   */\n      tag_352\n        /* \"#utility.yul\":5846:5853   */\n      dup6\n        /* \"#utility.yul\":5837:5843   */\n      dup3\n        /* \"#utility.yul\":5826:5835   */\n      dup7\n        /* \"#utility.yul\":5822:5844   */\n      add\n        /* \"#utility.yul\":5801:5854   */\n      tag_258\n      jump\t// in\n    tag_352:\n        /* \"#utility.yul\":5791:5854   */\n      swap3\n      pop\n        /* \"#utility.yul\":5747:5864   */\n      pop\n        /* \"#utility.yul\":5903:5905   */\n      0x20\n        /* \"#utility.yul\":5929:5982   */\n      tag_353\n        /* \"#utility.yul\":5974:5981   */\n      dup6\n        /* \"#utility.yul\":5965:5971   */\n      dup3\n        /* \"#utility.yul\":5954:5963   */\n      dup7\n        /* \"#utility.yul\":5950:5972   */\n      add\n        /* \"#utility.yul\":5929:5982   */\n      tag_258\n      jump\t// in\n    tag_353:\n        /* \"#utility.yul\":5919:5982   */\n      swap2\n      pop\n        /* \"#utility.yul\":5874:5992   */\n      pop\n        /* \"#utility.yul\":5525:5999   */\n      swap3\n      pop\n      swap3\n      swap1\n      pop\n      jump\t// out\n        /* \"#utility.yul\":6005:6185   */\n    tag_267:\n        /* \"#utility.yul\":6053:6130   */\n      0x4e487b7100000000000000000000000000000000000000000000000000000000\n        /* \"#utility.yul\":6050:6051   */\n      0x00\n        /* \"#utility.yul\":6043:6131   */\n      mstore\n        /* \"#utility.yul\":6150:6154   */\n      0x22\n        /* \"#utility.yul\":6147:6148   */\n      0x04\n        /* \"#utility.yul\":6140:6155   */\n      mstore\n        /* \"#utility.yul\":6174:6178   */\n      0x24\n        /* \"#utility.yul\":6171:6172   */\n      0x00\n        /* \"#utility.yul\":6164:6179   */\n      revert\n        /* \"#utility.yul\":6191:6511   */\n    tag_99:\n        /* \"#utility.yul\":6235:6241   */\n      0x00\n        /* \"#utility.yul\":6272:6273   */\n      0x02\n        /* \"#utility.yul\":6266:6270   */\n      dup3\n        /* \"#utility.yul\":6262:6274   */\n      div\n        /* \"#utility.yul\":6252:6274   */\n      swap1\n      pop\n        /* \"#utility.yul\":6319:6320   */\n      0x01\n        /* \"#utility.yul\":6313:6317   */\n      dup3\n        /* \"#utility.yul\":6309:6321   */\n      and\n        /* \"#utility.yul\":6340:6358   */\n      dup1\n        /* \"#utility.yul\":6330:6411   */\n      tag_356\n      jumpi\n        /* \"#utility.yul\":6396:6400   */\n      0x7f\n        /* \"#utility.yul\":6388:6394   */\n      dup3\n        /* \"#utility.yul\":6384:6401   */\n      and\n        /* \"#utility.yul\":6374:6401   */\n      swap2\n      pop\n        /* \"#utility.yul\":6330:6411   */\n    tag_356:\n        /* \"#utility.yul\":6458:6460   */\n      0x20\n        /* \"#utility.yul\":6450:6456   */\n      dup3\n        /* \"#utility.yul\":6447:6461   */\n      lt\n        /* \"#utility.yul\":6427:6445   */\n      dup2\n        /* \"#utility.yul\":6424:6462   */\n      sub\n        /* \"#utility.yul\":6421:6505   */\n      tag_357\n      jumpi\n        /* \"#utility.yul\":6477:6495   */\n      tag_358\n      tag_267\n      jump\t// in\n    tag_358:\n        /* \"#utility.yul\":6421:6505   */\n    tag_357:\n        /* \"#utility.yul\":6242:6511   */\n      pop\n        /* \"#utility.yul\":6191:6511   */\n      swap2\n      swap1\n      pop\n      jump\t// out\n        /* \"#utility.yul\":6517:6683   */\n    tag_268:\n        /* \"#utility.yul\":6657:6675   */\n      0x5061757361626c653a2070617573656400000000000000000000000000000000\n        /* \"#utility.yul\":6653:6654   */\n      0x00\n        /* \"#utility.yul\":6645:6651   */\n      dup3\n        /* \"#utility.yul\":6641:6655   */\n      add\n        /* \"#utility.yul\":6634:6676   */\n      mstore\n        /* \"#utility.yul\":6517:6683   */\n      pop\n      jump\t// out\n        /* \"#utility.yul\":6689:7055   */\n    tag_269:\n        /* \"#utility.yul\":6831:6834   */\n      0x00\n        /* \"#utility.yul\":6852:6919   */\n      tag_361\n        /* \"#utility.yul\":6916:6918   */\n      0x10\n        /* \"#utility.yul\":6911:6914   */\n      dup4\n        /* \"#utility.yul\":6852:6919   */\n      tag_248\n      jump\t// in\n    tag_361:\n        /* \"#utility.yul\":6845:6919   */\n      swap2\n      pop\n        /* \"#utility.yul\":6928:7021   */\n      tag_362\n        /* \"#utility.yul\":7017:7020   */\n      dup3\n        /* \"#utility.yul\":6928:7021   */\n      tag_268\n      jump\t// in\n    tag_362:\n        /* \"#utility.yul\":7046:7048   */\n      0x20\n        /* \"#utility.yul\":7041:7044   */\n      dup3\n        /* \"#utility.yul\":7037:7049   */\n      add\n        /* \"#utility.yul\":7030:7049   */\n      swap1\n      pop\n        /* \"#utility.yul\":6689:7055   */\n      swap2\n      swap1\n      pop\n      jump\t// out\n        /* \"#utility.yul\":7061:7480   */\n    tag_107:\n        /* \"#utility.yul\":7227:7231   */\n      0x00\n        /* \"#utility.yul\":7265:7267   */\n      0x20\n        /* \"#utility.yul\":7254:7263   */\n      dup3\n        /* \"#utility.yul\":7250:7268   */\n      add\n        /* \"#utility.yul\":7242:7268   */\n      swap1\n      pop\n        /* \"#utility.yul\":7314:7323   */\n      dup2\n        /* \"#utility.yul\":7308:7312   */\n      dup2\n        /* \"#utility.yul\":7304:7324   */\n      sub\n        /* \"#utility.yul\":7300:7301   */\n      0x00\n        /* \"#utility.yul\":7289:7298   */\n      dup4\n        /* \"#utility.yul\":7285:7302   */\n      add\n        /* \"#utility.yul\":7278:7325   */\n      mstore\n        /* \"#utility.yul\":7342:7473   */\n      tag_364\n        /* \"#utility.yul\":7468:7472   */\n      dup2\n        /* \"#utility.yul\":7342:7473   */\n      tag_269\n      jump\t// in\n    tag_364:\n        /* \"#utility.yul\":7334:7473   */\n      swap1\n      pop\n        /* \"#utility.yul\":7061:7480   */\n      swap2\n      swap1\n      pop\n      jump\t// out\n        /* \"#utility.yul\":7486:7719   */\n    tag_270:\n        /* \"#utility.yul\":7626:7660   */\n      0x4f6e6c792074686520636f6e7472616374206f776e65722063616e2063616c6c\n        /* \"#utility.yul\":7622:7623   */\n      0x00\n        /* \"#utility.yul\":7614:7620   */\n      dup3\n        /* \"#utility.yul\":7610:7624   */\n      add\n        /* \"#utility.yul\":7603:7661   */\n      mstore\n        /* \"#utility.yul\":7695:7711   */\n      0x20746869732066756e6374696f6e000000000000000000000000000000000000\n        /* \"#utility.yul\":7690:7692   */\n      0x20\n        /* \"#utility.yul\":7682:7688   */\n      dup3\n        /* \"#utility.yul\":7678:7693   */\n      add\n        /* \"#utility.yul\":7671:7712   */\n      mstore\n        /* \"#utility.yul\":7486:7719   */\n      pop\n      jump\t// out\n        /* \"#utility.yul\":7725:8091   */\n    tag_271:\n        /* \"#utility.yul\":7867:7870   */\n      0x00\n        /* \"#utility.yul\":7888:7955   */\n      tag_367\n        /* \"#utility.yul\":7952:7954   */\n      0x2e\n        /* \"#utility.yul\":7947:7950   */\n      dup4\n        /* \"#utility.yul\":7888:7955   */\n      tag_248\n      jump\t// in\n    tag_367:\n        /* \"#utility.yul\":7881:7955   */\n      swap2\n      pop\n        /* \"#utility.yul\":7964:8057   */\n      tag_368\n        /* \"#utility.yul\":8053:8056   */\n      dup3\n        /* \"#utility.yul\":7964:8057   */\n      tag_270\n      jump\t// in\n    tag_368:\n        /* \"#utility.yul\":8082:8084   */\n      0x40\n        /* \"#utility.yul\":8077:8080   */\n      dup3\n        /* \"#utility.yul\":8073:8085   */\n      add\n        /* \"#utility.yul\":8066:8085   */\n      swap1\n      pop\n        /* \"#utility.yul\":7725:8091   */\n      swap2\n      swap1\n      pop\n      jump\t// out\n        /* \"#utility.yul\":8097:8516   */\n    tag_126:\n        /* \"#utility.yul\":8263:8267   */\n      0x00\n        /* \"#utility.yul\":8301:8303   */\n      0x20\n        /* \"#utility.yul\":8290:8299   */\n      dup3\n        /* \"#utility.yul\":8286:8304   */\n      add\n        /* \"#utility.yul\":8278:8304   */\n      swap1\n      pop\n        /* \"#utility.yul\":8350:8359   */\n      dup2\n        /* \"#utility.yul\":8344:8348   */\n      dup2\n        /* \"#utility.yul\":8340:8360   */\n      sub\n        /* \"#utility.yul\":8336:8337   */\n      0x00\n        /* \"#utility.yul\":8325:8334   */\n      dup4\n        /* \"#utility.yul\":8321:8338   */\n      add\n        /* \"#utility.yul\":8314:8361   */\n      mstore\n        /* \"#utility.yul\":8378:8509   */\n      tag_370\n        /* \"#utility.yul\":8504:8508   */\n      dup2\n        /* \"#utility.yul\":8378:8509   */\n      tag_271\n      jump\t// in\n    tag_370:\n        /* \"#utility.yul\":8370:8509   */\n      swap1\n      pop\n        /* \"#utility.yul\":8097:8516   */\n      swap2\n      swap1\n      pop\n      jump\t// out\n        /* \"#utility.yul\":8522:8702   */\n    tag_272:\n        /* \"#utility.yul\":8570:8647   */\n      0x4e487b7100000000000000000000000000000000000000000000000000000000\n        /* \"#utility.yul\":8567:8568   */\n      0x00\n        /* \"#utility.yul\":8560:8648   */\n      mstore\n        /* \"#utility.yul\":8667:8671   */\n      0x11\n        /* \"#utility.yul\":8664:8665   */\n      0x04\n        /* \"#utility.yul\":8657:8672   */\n      mstore\n        /* \"#utility.yul\":8691:8695   */\n      0x24\n        /* \"#utility.yul\":8688:8689   */\n      0x00\n        /* \"#utility.yul\":8681:8696   */\n      revert\n        /* \"#utility.yul\":8708:8899   */\n    tag_137:\n        /* \"#utility.yul\":8748:8751   */\n      0x00\n        /* \"#utility.yul\":8767:8787   */\n      tag_373\n        /* \"#utility.yul\":8785:8786   */\n      dup3\n        /* \"#utility.yul\":8767:8787   */\n      tag_259\n      jump\t// in\n    tag_373:\n        /* \"#utility.yul\":8762:8787   */\n      swap2\n      pop\n        /* \"#utility.yul\":8801:8821   */\n      tag_374\n        /* \"#utility.yul\":8819:8820   */\n      dup4\n        /* \"#utility.yul\":8801:8821   */\n      tag_259\n      jump\t// in\n    tag_374:\n        /* \"#utility.yul\":8796:8821   */\n      swap3\n      pop\n        /* \"#utility.yul\":8844:8845   */\n      dup3\n        /* \"#utility.yul\":8841:8842   */\n      dup3\n        /* \"#utility.yul\":8837:8846   */\n      add\n        /* \"#utility.yul\":8830:8846   */\n      swap1\n      pop\n        /* \"#utility.yul\":8865:8868   */\n      dup1\n        /* \"#utility.yul\":8862:8863   */\n      dup3\n        /* \"#utility.yul\":8859:8869   */\n      gt\n        /* \"#utility.yul\":8856:8892   */\n      iszero\n      tag_375\n      jumpi\n        /* \"#utility.yul\":8872:8890   */\n      tag_376\n      tag_272\n      jump\t// in\n    tag_376:\n        /* \"#utility.yul\":8856:8892   */\n    tag_375:\n        /* \"#utility.yul\":8708:8899   */\n      swap3\n      swap2\n      pop\n      pop\n      jump\t// out\n        /* \"#utility.yul\":8905:9023   */\n    tag_273:\n        /* \"#utility.yul\":8992:9016   */\n      tag_378\n        /* \"#utility.yul\":9010:9015   */\n      dup2\n        /* \"#utility.yul\":8992:9016   */\n      tag_256\n      jump\t// in\n    tag_378:\n        /* \"#utility.yul\":8987:8990   */\n      dup3\n        /* \"#utility.yul\":8980:9017   */\n      mstore\n        /* \"#utility.yul\":8905:9023   */\n      pop\n      pop\n      jump\t// out\n        /* \"#utility.yul\":9029:9361   */\n    tag_155:\n        /* \"#utility.yul\":9150:9154   */\n      0x00\n        /* \"#utility.yul\":9188:9190   */\n      0x40\n        /* \"#utility.yul\":9177:9186   */\n      dup3\n        /* \"#utility.yul\":9173:9191   */\n      add\n        /* \"#utility.yul\":9165:9191   */\n      swap1\n      pop\n        /* \"#utility.yul\":9201:9272   */\n      tag_380\n        /* \"#utility.yul\":9269:9270   */\n      0x00\n        /* \"#utility.yul\":9258:9267   */\n      dup4\n        /* \"#utility.yul\":9254:9271   */\n      add\n        /* \"#utility.yul\":9245:9251   */\n      dup6\n        /* \"#utility.yul\":9201:9272   */\n      tag_273\n      jump\t// in\n    tag_380:\n        /* \"#utility.yul\":9282:9354   */\n      tag_381\n        /* \"#utility.yul\":9350:9352   */\n      0x20\n        /* \"#utility.yul\":9339:9348   */\n      dup4\n        /* \"#utility.yul\":9335:9353   */\n      add\n        /* \"#utility.yul\":9326:9332   */\n      dup5\n        /* \"#utility.yul\":9282:9354   */\n      tag_264\n      jump\t// in\n    tag_381:\n        /* \"#utility.yul\":9029:9361   */\n      swap4\n      swap3\n      pop\n      pop\n      pop\n      jump\t// out\n        /* \"#utility.yul\":9367:9483   */\n    tag_274:\n        /* \"#utility.yul\":9437:9458   */\n      tag_383\n        /* \"#utility.yul\":9452:9457   */\n      dup2\n        /* \"#utility.yul\":9437:9458   */\n      tag_262\n      jump\t// in\n    tag_383:\n        /* \"#utility.yul\":9430:9435   */\n      dup2\n        /* \"#utility.yul\":9427:9459   */\n      eq\n        /* \"#utility.yul\":9417:9477   */\n      tag_384\n      jumpi\n        /* \"#utility.yul\":9473:9474   */\n      0x00\n        /* \"#utility.yul\":9470:9471   */\n      dup1\n        /* \"#utility.yul\":9463:9475   */\n      revert\n        /* \"#utility.yul\":9417:9477   */\n    tag_384:\n        /* \"#utility.yul\":9367:9483   */\n      pop\n      jump\t// out\n        /* \"#utility.yul\":9489:9626   */\n    tag_275:\n        /* \"#utility.yul\":9543:9548   */\n      0x00\n        /* \"#utility.yul\":9574:9580   */\n      dup2\n        /* \"#utility.yul\":9568:9581   */\n      mload\n        /* \"#utility.yul\":9559:9581   */\n      swap1\n      pop\n        /* \"#utility.yul\":9590:9620   */\n      tag_386\n        /* \"#utility.yul\":9614:9619   */\n      dup2\n        /* \"#utility.yul\":9590:9620   */\n      tag_274\n      jump\t// in\n    tag_386:\n        /* \"#utility.yul\":9489:9626   */\n      swap3\n      swap2\n      pop\n      pop\n      jump\t// out\n        /* \"#utility.yul\":9632:9977   */\n    tag_159:\n        /* \"#utility.yul\":9699:9705   */\n      0x00\n        /* \"#utility.yul\":9748:9750   */\n      0x20\n        /* \"#utility.yul\":9736:9745   */\n      dup3\n        /* \"#utility.yul\":9727:9734   */\n      dup5\n        /* \"#utility.yul\":9723:9746   */\n      sub\n        /* \"#utility.yul\":9719:9751   */\n      slt\n        /* \"#utility.yul\":9716:9835   */\n      iszero\n      tag_388\n      jumpi\n        /* \"#utility.yul\":9754:9833   */\n      tag_389\n      tag_253\n      jump\t// in\n    tag_389:\n        /* \"#utility.yul\":9716:9835   */\n    tag_388:\n        /* \"#utility.yul\":9874:9875   */\n      0x00\n        /* \"#utility.yul\":9899:9960   */\n      tag_390\n        /* \"#utility.yul\":9952:9959   */\n      dup5\n        /* \"#utility.yul\":9943:9949   */\n      dup3\n        /* \"#utility.yul\":9932:9941   */\n      dup6\n        /* \"#utility.yul\":9928:9950   */\n      add\n        /* \"#utility.yul\":9899:9960   */\n      tag_275\n      jump\t// in\n    tag_390:\n        /* \"#utility.yul\":9889:9960   */\n      swap2\n      pop\n        /* \"#utility.yul\":9845:9970   */\n      pop\n        /* \"#utility.yul\":9632:9977   */\n      swap3\n      swap2\n      pop\n      pop\n      jump\t// out\n        /* \"#utility.yul\":9983:10227   */\n    tag_276:\n        /* \"#utility.yul\":10123:10157   */\n      0x4f6e6c792074686520666c617368206c6f616e20636f6e7472616374206f7220\n        /* \"#utility.yul\":10119:10120   */\n      0x00\n        /* \"#utility.yul\":10111:10117   */\n      dup3\n        /* \"#utility.yul\":10107:10121   */\n      add\n        /* \"#utility.yul\":10100:10158   */\n      mstore\n        /* \"#utility.yul\":10192:10219   */\n      0x746865206f776e65722063616e206d696e7420746f6b656e7300000000000000\n        /* \"#utility.yul\":10187:10189   */\n      0x20\n        /* \"#utility.yul\":10179:10185   */\n      dup3\n        /* \"#utility.yul\":10175:10190   */\n      add\n        /* \"#utility.yul\":10168:10220   */\n      mstore\n        /* \"#utility.yul\":9983:10227   */\n      pop\n      jump\t// out\n        /* \"#utility.yul\":10233:10599   */\n    tag_277:\n        /* \"#utility.yul\":10375:10378   */\n      0x00\n        /* \"#utility.yul\":10396:10463   */\n      tag_393\n        /* \"#utility.yul\":10460:10462   */\n      0x39\n        /* \"#utility.yul\":10455:10458   */\n      dup4\n        /* \"#utility.yul\":10396:10463   */\n      tag_248\n      jump\t// in\n    tag_393:\n        /* \"#utility.yul\":10389:10463   */\n      swap2\n      pop\n        /* \"#utility.yul\":10472:10565   */\n      tag_394\n        /* \"#utility.yul\":10561:10564   */\n      dup3\n        /* \"#utility.yul\":10472:10565   */\n      tag_276\n      jump\t// in\n    tag_394:\n        /* \"#utility.yul\":10590:10592   */\n      0x40\n        /* \"#utility.yul\":10585:10588   */\n      dup3\n        /* \"#utility.yul\":10581:10593   */\n      add\n        /* \"#utility.yul\":10574:10593   */\n      swap1\n      pop\n        /* \"#utility.yul\":10233:10599   */\n      swap2\n      swap1\n      pop\n      jump\t// out\n        /* \"#utility.yul\":10605:11024   */\n    tag_170:\n        /* \"#utility.yul\":10771:10775   */\n      0x00\n        /* \"#utility.yul\":10809:10811   */\n      0x20\n        /* \"#utility.yul\":10798:10807   */\n      dup3\n        /* \"#utility.yul\":10794:10812   */\n      add\n        /* \"#utility.yul\":10786:10812   */\n      swap1\n      pop\n        /* \"#utility.yul\":10858:10867   */\n      dup2\n        /* \"#utility.yul\":10852:10856   */\n      dup2\n        /* \"#utility.yul\":10848:10868   */\n      sub\n        /* \"#utility.yul\":10844:10845   */\n      0x00\n        /* \"#utility.yul\":10833:10842   */\n      dup4\n        /* \"#utility.yul\":10829:10846   */\n      add\n        /* \"#utility.yul\":10822:10869   */\n      mstore\n        /* \"#utility.yul\":10886:11017   */\n      tag_396\n        /* \"#utility.yul\":11012:11016   */\n      dup2\n        /* \"#utility.yul\":10886:11017   */\n      tag_277\n      jump\t// in\n    tag_396:\n        /* \"#utility.yul\":10878:11017   */\n      swap1\n      pop\n        /* \"#utility.yul\":10605:11024   */\n      swap2\n      swap1\n      pop\n      jump\t// out\n        /* \"#utility.yul\":11030:11207   */\n    tag_278:\n        /* \"#utility.yul\":11170:11199   */\n      0x45524332303a20616c6c6f77616e63652062656c6f77207a65726f0000000000\n        /* \"#utility.yul\":11166:11167   */\n      0x00\n        /* \"#utility.yul\":11158:11164   */\n      dup3\n        /* \"#utility.yul\":11154:11168   */\n      add\n        /* \"#utility.yul\":11147:11200   */\n      mstore\n        /* \"#utility.yul\":11030:11207   */\n      pop\n      jump\t// out\n        /* \"#utility.yul\":11213:11579   */\n    tag_279:\n        /* \"#utility.yul\":11355:11358   */\n      0x00\n        /* \"#utility.yul\":11376:11443   */\n      tag_399\n        /* \"#utility.yul\":11440:11442   */\n      0x1b\n        /* \"#utility.yul\":11435:11438   */\n      dup4\n        /* \"#utility.yul\":11376:11443   */\n      tag_248\n      jump\t// in\n    tag_399:\n        /* \"#utility.yul\":11369:11443   */\n      swap2\n      pop\n        /* \"#utility.yul\":11452:11545   */\n      tag_400\n        /* \"#utility.yul\":11541:11544   */\n      dup3\n        /* \"#utility.yul\":11452:11545   */\n      tag_278\n      jump\t// in\n    tag_400:\n        /* \"#utility.yul\":11570:11572   */\n      0x20\n        /* \"#utility.yul\":11565:11568   */\n      dup3\n        /* \"#utility.yul\":11561:11573   */\n      add\n        /* \"#utility.yul\":11554:11573   */\n      swap1\n      pop\n        /* \"#utility.yul\":11213:11579   */\n      swap2\n      swap1\n      pop\n      jump\t// out\n        /* \"#utility.yul\":11585:12004   */\n    tag_181:\n        /* \"#utility.yul\":11751:11755   */\n      0x00\n        /* \"#utility.yul\":11789:11791   */\n      0x20\n        /* \"#utility.yul\":11778:11787   */\n      dup3\n        /* \"#utility.yul\":11774:11792   */\n      add\n        /* \"#utility.yul\":11766:11792   */\n      swap1\n      pop\n        /* \"#utility.yul\":11838:11847   */\n      dup2\n        /* \"#utility.yul\":11832:11836   */\n      dup2\n        /* \"#utility.yul\":11828:11848   */\n      sub\n        /* \"#utility.yul\":11824:11825   */\n      0x00\n        /* \"#utility.yul\":11813:11822   */\n      dup4\n        /* \"#utility.yul\":11809:11826   */\n      add\n        /* \"#utility.yul\":11802:11849   */\n      mstore\n        /* \"#utility.yul\":11866:11997   */\n      tag_402\n        /* \"#utility.yul\":11992:11996   */\n      dup2\n        /* \"#utility.yul\":11866:11997   */\n      tag_279\n      jump\t// in\n    tag_402:\n        /* \"#utility.yul\":11858:11997   */\n      swap1\n      pop\n        /* \"#utility.yul\":11585:12004   */\n      swap2\n      swap1\n      pop\n      jump\t// out\n        /* \"#utility.yul\":12010:12189   */\n    tag_280:\n        /* \"#utility.yul\":12150:12181   */\n      0x4e6577206f776e657220697320746865207a65726f2061646472657373000000\n        /* \"#utility.yul\":12146:12147   */\n      0x00\n        /* \"#utility.yul\":12138:12144   */\n      dup3\n        /* \"#utility.yul\":12134:12148   */\n      add\n        /* \"#utility.yul\":12127:12182   */\n      mstore\n        /* \"#utility.yul\":12010:12189   */\n      pop\n      jump\t// out\n        /* \"#utility.yul\":12195:12561   */\n    tag_281:\n        /* \"#utility.yul\":12337:12340   */\n      0x00\n        /* \"#utility.yul\":12358:12425   */\n      tag_405\n        /* \"#utility.yul\":12422:12424   */\n      0x1d\n        /* \"#utility.yul\":12417:12420   */\n      dup4\n        /* \"#utility.yul\":12358:12425   */\n      tag_248\n      jump\t// in\n    tag_405:\n        /* \"#utility.yul\":12351:12425   */\n      swap2\n      pop\n        /* \"#utility.yul\":12434:12527   */\n      tag_406\n        /* \"#utility.yul\":12523:12526   */\n      dup3\n        /* \"#utility.yul\":12434:12527   */\n      tag_280\n      jump\t// in\n    tag_406:\n        /* \"#utility.yul\":12552:12554   */\n      0x20\n        /* \"#utility.yul\":12547:12550   */\n      dup3\n        /* \"#utility.yul\":12543:12555   */\n      add\n        /* \"#utility.yul\":12536:12555   */\n      swap1\n      pop\n        /* \"#utility.yul\":12195:12561   */\n      swap2\n      swap1\n      pop\n      jump\t// out\n        /* \"#utility.yul\":12567:12986   */\n    tag_197:\n        /* \"#utility.yul\":12733:12737   */\n      0x00\n        /* \"#utility.yul\":12771:12773   */\n      0x20\n        /* \"#utility.yul\":12760:12769   */\n      dup3\n        /* \"#utility.yul\":12756:12774   */\n      add\n        /* \"#utility.yul\":12748:12774   */\n      swap1\n      pop\n        /* \"#utility.yul\":12820:12829   */\n      dup2\n        /* \"#utility.yul\":12814:12818   */\n      dup2\n        /* \"#utility.yul\":12810:12830   */\n      sub\n        /* \"#utility.yul\":12806:12807   */\n      0x00\n        /* \"#utility.yul\":12795:12804   */\n      dup4\n        /* \"#utility.yul\":12791:12808   */\n      add\n        /* \"#utility.yul\":12784:12831   */\n      mstore\n        /* \"#utility.yul\":12848:12979   */\n      tag_408\n        /* \"#utility.yul\":12974:12978   */\n      dup2\n        /* \"#utility.yul\":12848:12979   */\n      tag_281\n      jump\t// in\n    tag_408:\n        /* \"#utility.yul\":12840:12979   */\n      swap1\n      pop\n        /* \"#utility.yul\":12567:12986   */\n      swap2\n      swap1\n      pop\n      jump\t// out\n        /* \"#utility.yul\":12992:13434   */\n    tag_207:\n        /* \"#utility.yul\":13141:13145   */\n      0x00\n        /* \"#utility.yul\":13179:13181   */\n      0x60\n        /* \"#utility.yul\":13168:13177   */\n      dup3\n        /* \"#utility.yul\":13164:13182   */\n      add\n        /* \"#utility.yul\":13156:13182   */\n      swap1\n      pop\n        /* \"#utility.yul\":13192:13263   */\n      tag_410\n        /* \"#utility.yul\":13260:13261   */\n      0x00\n        /* \"#utility.yul\":13249:13258   */\n      dup4\n        /* \"#utility.yul\":13245:13262   */\n      add\n        /* \"#utility.yul\":13236:13242   */\n      dup7\n        /* \"#utility.yul\":13192:13263   */\n      tag_273\n      jump\t// in\n    tag_410:\n        /* \"#utility.yul\":13273:13345   */\n      tag_411\n        /* \"#utility.yul\":13341:13343   */\n      0x20\n        /* \"#utility.yul\":13330:13339   */\n      dup4\n        /* \"#utility.yul\":13326:13344   */\n      add\n        /* \"#utility.yul\":13317:13323   */\n      dup6\n        /* \"#utility.yul\":13273:13345   */\n      tag_264\n      jump\t// in\n    tag_411:\n        /* \"#utility.yul\":13355:13427   */\n      tag_412\n        /* \"#utility.yul\":13423:13425   */\n      0x40\n        /* \"#utility.yul\":13412:13421   */\n      dup4\n        /* \"#utility.yul\":13408:13426   */\n      add\n        /* \"#utility.yul\":13399:13405   */\n      dup5\n        /* \"#utility.yul\":13355:13427   */\n      tag_264\n      jump\t// in\n    tag_412:\n        /* \"#utility.yul\":12992:13434   */\n      swap5\n      swap4\n      pop\n      pop\n      pop\n      pop\n      jump\t// out\n        /* \"#utility.yul\":13440:13662   */\n    tag_212:\n        /* \"#utility.yul\":13533:13537   */\n      0x00\n        /* \"#utility.yul\":13571:13573   */\n      0x20\n        /* \"#utility.yul\":13560:13569   */\n      dup3\n        /* \"#utility.yul\":13556:13574   */\n      add\n        /* \"#utility.yul\":13548:13574   */\n      swap1\n      pop\n        /* \"#utility.yul\":13584:13655   */\n      tag_414\n        /* \"#utility.yul\":13652:13653   */\n      0x00\n        /* \"#utility.yul\":13641:13650   */\n      dup4\n        /* \"#utility.yul\":13637:13654   */\n      add\n        /* \"#utility.yul\":13628:13634   */\n      dup5\n        /* \"#utility.yul\":13584:13655   */\n      tag_273\n      jump\t// in\n    tag_414:\n        /* \"#utility.yul\":13440:13662   */\n      swap3\n      swap2\n      pop\n      pop\n      jump\t// out\n        /* \"#utility.yul\":13668:13847   */\n    tag_282:\n        /* \"#utility.yul\":13808:13839   */\n      0x45524332303a204d6178696d756d20737570706c792072656163686564000000\n        /* \"#utility.yul\":13804:13805   */\n      0x00\n        /* \"#utility.yul\":13796:13802   */\n      dup3\n        /* \"#utility.yul\":13792:13806   */\n      add\n        /* \"#utility.yul\":13785:13840   */\n      mstore\n        /* \"#utility.yul\":13668:13847   */\n      pop\n      jump\t// out\n        /* \"#utility.yul\":13853:14219   */\n    tag_283:\n        /* \"#utility.yul\":13995:13998   */\n      0x00\n        /* \"#utility.yul\":14016:14083   */\n      tag_417\n        /* \"#utility.yul\":14080:14082   */\n      0x1d\n        /* \"#utility.yul\":14075:14078   */\n      dup4\n        /* \"#utility.yul\":14016:14083   */\n      tag_248\n      jump\t// in\n    tag_417:\n        /* \"#utility.yul\":14009:14083   */\n      swap2\n      pop\n        /* \"#utility.yul\":14092:14185   */\n      tag_418\n        /* \"#utility.yul\":14181:14184   */\n      dup3\n        /* \"#utility.yul\":14092:14185   */\n      tag_282\n      jump\t// in\n    tag_418:\n        /* \"#utility.yul\":14210:14212   */\n      0x20\n        /* \"#utility.yul\":14205:14208   */\n      dup3\n        /* \"#utility.yul\":14201:14213   */\n      add\n        /* \"#utility.yul\":14194:14213   */\n      swap1\n      pop\n        /* \"#utility.yul\":13853:14219   */\n      swap2\n      swap1\n      pop\n      jump\t// out\n        /* \"#utility.yul\":14225:14644   */\n    tag_228:\n        /* \"#utility.yul\":14391:14395   */\n      0x00\n        /* \"#utility.yul\":14429:14431   */\n      0x20\n        /* \"#utility.yul\":14418:14427   */\n      dup3\n        /* \"#utility.yul\":14414:14432   */\n      add\n        /* \"#utility.yul\":14406:14432   */\n      swap1\n      pop\n        /* \"#utility.yul\":14478:14487   */\n      dup2\n        /* \"#utility.yul\":14472:14476   */\n      dup2\n        /* \"#utility.yul\":14468:14488   */\n      sub\n        /* \"#utility.yul\":14464:14465   */\n      0x00\n        /* \"#utility.yul\":14453:14462   */\n      dup4\n        /* \"#utility.yul\":14449:14466   */\n      add\n        /* \"#utility.yul\":14442:14489   */\n      mstore\n        /* \"#utility.yul\":14506:14637   */\n      tag_420\n        /* \"#utility.yul\":14632:14636   */\n      dup2\n        /* \"#utility.yul\":14506:14637   */\n      tag_283\n      jump\t// in\n    tag_420:\n        /* \"#utility.yul\":14498:14637   */\n      swap1\n      pop\n        /* \"#utility.yul\":14225:14644   */\n      swap2\n      swap1\n      pop\n      jump\t// out\n\n    auxdata: 0xa26469706673582212205a05f92ed1abb67e7f05315ab924506c1105c417eaa1f6b0d8c43795c4ea780d64736f6c634300081b0033\n}\n",
				"bytecode": {
					"linkReferences": {},
					"object": "608060405234801561001057600080fd5b506040518060400160405280600a81526020017f5553445420466c61736800000000000000000000000000000000000000000000815250600490816100559190610344565b506040518060400160405280600481526020017f55534454000000000000000000000000000000000000000000000000000000008152506005908161009a9190610344565b506b01f04ef12cb04cf15800000060038190555033600660006101000a81548173ffffffffffffffffffffffffffffffffffffffff021916908373ffffffffffffffffffffffffffffffffffffffff160217905550610416565b600081519050919050565b7f4e487b7100000000000000000000000000000000000000000000000000000000600052604160045260246000fd5b7f4e487b7100000000000000000000000000000000000000000000000000000000600052602260045260246000fd5b6000600282049050600182168061017557607f821691505b6020821081036101885761018761012e565b5b50919050565b60008190508160005260206000209050919050565b60006020601f8301049050919050565b600082821b905092915050565b6000600883026101f07fffffffffffffffffffffffffffffffffffffffffffffffffffffffffffffffff826101b3565b6101fa86836101b3565b95508019841693508086168417925050509392505050565b6000819050919050565b6000819050919050565b600061024161023c61023784610212565b61021c565b610212565b9050919050565b6000819050919050565b61025b83610226565b61026f61026782610248565b8484546101c0565b825550505050565b600090565b610284610277565b61028f818484610252565b505050565b5b818110156102b3576102a860008261027c565b600181019050610295565b5050565b601f8211156102f8576102c98161018e565b6102d2846101a3565b810160208510156102e1578190505b6102f56102ed856101a3565b830182610294565b50505b505050565b600082821c905092915050565b600061031b600019846008026102fd565b1980831691505092915050565b6000610334838361030a565b9150826002028217905092915050565b61034d826100f4565b67ffffffffffffffff811115610366576103656100ff565b5b610370825461015d565b61037b8282856102b7565b600060209050601f8311600181146103ae576000841561039c578287015190505b6103a68582610328565b86555061040e565b601f1984166103bc8661018e565b60005b828110156103e4578489015182556001820191506020850194506020810190506103bf565b8683101561040157848901516103fd601f89168261030a565b8355505b6001600288020188555050505b505050505050565b611d87806104256000396000f3fe608060405234801561001057600080fd5b50600436106101215760003560e01c806370a08231116100ad578063a457c2d711610071578063a457c2d7146102f6578063a9059cbb14610326578063d5abeb0114610356578063dd62ed3e14610374578063f2fde38b146103a457610121565b806370a08231146102525780638456cb59146102825780638980f11f1461028c57806395d89b41146102a8578063a0712d68146102c657610121565b80632a52940d116100f45780632a52940d146101c2578063313ce567146101de57806339509351146101fc5780633f4ba83a1461022c57806342966c681461023657610121565b806306fdde0314610126578063095ea7b31461014457806318160ddd1461017457806323b872dd14610192575b600080fd5b61012e6103c0565b60405161013b9190611658565b60405180910390f35b61015e60048036038101906101599190611713565b610452565b60405161016b919061176e565b60405180910390f35b61017c6104c6565b6040516101899190611798565b60405180910390f35b6101ac60048036038101906101a791906117b3565b6104d0565b6040516101b9919061176e565b60405180910390f35b6101dc60048036038101906101d79190611806565b610550565b005b6101e6610624565b6040516101f3919061184f565b60405180910390f35b61021660048036038101906102119190611713565b61062d565b604051610223919061176e565b60405180910390f35b6102346106b5565b005b610250600480360381019061024b919061186a565b610762565b005b61026c60048036038101906102679190611806565b61076f565b6040516102799190611798565b60405180910390f35b61028a6107b7565b005b6102a660048036038101906102a19190611713565b610864565b005b6102b0610999565b6040516102bd9190611658565b60405180910390f35b6102e060048036038101906102db919061186a565b610a2b565b6040516102ed919061176e565b60405180910390f35b610310600480360381019061030b9190611713565b610b28565b60405161031d919061176e565b60405180910390f35b610340600480360381019061033b9190611713565b610bf0565b60405161034d919061176e565b60405180910390f35b61035e610c64565b60405161036b9190611798565b60405180910390f35b61038e60048036038101906103899190611897565b610c6e565b60405161039b9190611798565b60405180910390f35b6103be60048036038101906103b99190611806565b610cf5565b005b6060600480546103cf90611906565b80601f01602080910402602001604051908101604052809291908181526020018280546103fb90611906565b80156104485780601f1061041d57610100808354040283529160200191610448565b820191906000526020600020905b81548152906001019060200180831161042b57829003601f168201915b5050505050905090565b6000600760149054906101000a900460ff16156104a4576040517f08c379a000000000000000000000000000000000000000000000000000000000815260040161049b90611983565b60405180910390fd5b60006104ae610e38565b90506104bb818585610e40565b600191505092915050565b6000600254905090565b6000600760149054906101000a900460ff1615610522576040517f08c379a000000000000000000000000000000000000000000000000000000000815260040161051990611983565b60405180910390fd5b600061052c610e38565b9050610539858285610e52565b610544858585610ee6565b60019150509392505050565b600660009054906101000a900473ffffffffffffffffffffffffffffffffffffffff1673ffffffffffffffffffffffffffffffffffffffff163373ffffffffffffffffffffffffffffffffffffffff16146105e0576040517f08c379a00000000000000000000000000000000000000000000000000000000081526004016105d790611a15565b60405180910390fd5b80600760006101000a81548173ffffffffffffffffffffffffffffffffffffffff021916908373ffffffffffffffffffffffffffffffffffffffff16021790555050565b60006012905090565b6000600760149054906101000a900460ff161561067f576040517f08c379a000000000000000000000000000000000000000000000000000000000815260040161067690611983565b60405180910390fd5b6000610689610e38565b90506106aa81858561069b8589610c6e565b6106a59190611a64565b610e40565b600191505092915050565b600660009054906101000a900473ffffffffffffffffffffffffffffffffffffffff1673ffffffffffffffffffffffffffffffffffffffff163373ffffffffffffffffffffffffffffffffffffffff1614610745576040517f08c379a000000000000000000000000000000000000000000000000000000000815260040161073c90611a15565b60405180910390fd5b6000600760146101000a81548160ff021916908315150217905550565b61076c3382610fda565b50565b60008060008373ffffffffffffffffffffffffffffffffffffffff1673ffffffffffffffffffffffffffffffffffffffff168152602001908152602001600020549050919050565b600660009054906101000a900473ffffffffffffffffffffffffffffffffffffffff1673ffffffffffffffffffffffffffffffffffffffff163373ffffffffffffffffffffffffffffffffffffffff1614610847576040517f08c379a000000000000000000000000000000000000000000000000000000000815260040161083e90611a15565b60405180910390fd5b6001600760146101000a81548160ff021916908315150217905550565b600660009054906101000a900473ffffffffffffffffffffffffffffffffffffffff1673ffffffffffffffffffffffffffffffffffffffff163373ffffffffffffffffffffffffffffffffffffffff16146108f4576040517f08c379a00000000000000000000000000000000000000000000000000000000081526004016108eb90611a15565b60405180910390fd5b8173ffffffffffffffffffffffffffffffffffffffff1663a9059cbb600660009054906101000a900473ffffffffffffffffffffffffffffffffffffffff16836040518363ffffffff1660e01b8152600401610951929190611aa7565b6020604051808303816000875af1158015610970573d6000803e3d6000fd5b505050506040513d601f19601f820116820180604052508101906109949190611afc565b505050565b6060600580546109a890611906565b80601f01602080910402602001604051908101604052809291908181526020018280546109d490611906565b8015610a215780601f106109f657610100808354040283529160200191610a21565b820191906000526020600020905b815481529060010190602001808311610a0457829003601f168201915b5050505050905090565b6000600760009054906101000a900473ffffffffffffffffffffffffffffffffffffffff1673ffffffffffffffffffffffffffffffffffffffff163373ffffffffffffffffffffffffffffffffffffffff161480610ad65750600660009054906101000a900473ffffffffffffffffffffffffffffffffffffffff1673ffffffffffffffffffffffffffffffffffffffff163373ffffffffffffffffffffffffffffffffffffffff16145b610b15576040517f08c379a0000000000000000000000000000000000000000000000000000000008152600401610b0c90611b9b565b60405180910390fd5b610b1f33836110aa565b60019050919050565b6000600760149054906101000a900460ff1615610b7a576040517f08c379a0000000000000000000000000000000000000000000000000000000008152600401610b7190611983565b60405180910390fd5b6000610b84610e38565b90506000610b928286610c6e565b905083811015610bd7576040517f08c379a0000000000000000000000000000000000000000000000000000000008152600401610bce90611c07565b60405180910390fd5b610be48286868403610e40565b60019250505092915050565b6000600760149054906101000a900460ff1615610c42576040517f08c379a0000000000000000000000000000000000000000000000000000000008152600401610c3990611983565b60405180910390fd5b6000610c4c610e38565b9050610c59818585610ee6565b600191505092915050565b6000600354905090565b6000600160008473ffffffffffffffffffffffffffffffffffffffff1673ffffffffffffffffffffffffffffffffffffffff16815260200190815260200160002060008373ffffffffffffffffffffffffffffffffffffffff1673ffffffffffffffffffffffffffffffffffffffff16815260200190815260200160002054905092915050565b600660009054906101000a900473ffffffffffffffffffffffffffffffffffffffff1673ffffffffffffffffffffffffffffffffffffffff163373ffffffffffffffffffffffffffffffffffffffff1614610d85576040517f08c379a0000000000000000000000000000000000000000000000000000000008152600401610d7c90611a15565b60405180910390fd5b600073ffffffffffffffffffffffffffffffffffffffff168173ffffffffffffffffffffffffffffffffffffffff1603610df4576040517f08c379a0000000000000000000000000000000000000000000000000000000008152600401610deb90611c73565b60405180910390fd5b80600660006101000a81548173ffffffffffffffffffffffffffffffffffffffff021916908373ffffffffffffffffffffffffffffffffffffffff16021790555050565b600033905090565b610e4d83838360016111cc565b505050565b6000610e5e8484610c6e565b90507fffffffffffffffffffffffffffffffffffffffffffffffffffffffffffffffff8114610ee05781811015610ed0578281836040517f808463d1000000000000000000000000000000000000000000000000000000008152600401610ec793929190611c93565b60405180910390fd5b610edf848484840360006111cc565b5b50505050565b600073ffffffffffffffffffffffffffffffffffffffff168373ffffffffffffffffffffffffffffffffffffffff1603610f585760006040517f88b25e3e000000000000000000000000000000000000000000000000000000008152600401610f4f9190611cca565b60405180910390fd5b600073ffffffffffffffffffffffffffffffffffffffff168273ffffffffffffffffffffffffffffffffffffffff1603610fca5760006040517f8702316d000000000000000000000000000000000000000000000000000000008152600401610fc19190611cca565b60405180910390fd5b610fd58383836113a3565b505050565b600073ffffffffffffffffffffffffffffffffffffffff168273ffffffffffffffffffffffffffffffffffffffff160361104c5760006040517f88b25e3e0000000000000000000000000000000000000000000000000000000081526004016110439190611cca565b60405180910390fd5b611058826000836113a3565b8173ffffffffffffffffffffffffffffffffffffffff167fcc16f5dbb4873280815c1ee09dbd06736cffcc184412cf7a71a0fdb75d397ca58260405161109e9190611798565b60405180910390a25050565b600073ffffffffffffffffffffffffffffffffffffffff168273ffffffffffffffffffffffffffffffffffffffff160361111c5760006040517f8702316d0000000000000000000000000000000000000000000000000000000081526004016111139190611cca565b60405180910390fd5b6003548160025461112d9190611a64565b111561116e576040517f08c379a000000000000000000000000000000000000000000000000000000000815260040161116590611d31565b60405180910390fd5b61117a600083836113a3565b8173ffffffffffffffffffffffffffffffffffffffff167f0f6798a560793a54c3bcfe86a93cde1e73087d944c0ea20544137d4121396885826040516111c09190611798565b60405180910390a25050565b600073ffffffffffffffffffffffffffffffffffffffff168473ffffffffffffffffffffffffffffffffffffffff160361123e5760006040517f1e431edf0000000000000000000000000000000000000000000000000000000081526004016112359190611cca565b60405180910390fd5b600073ffffffffffffffffffffffffffffffffffffffff168373ffffffffffffffffffffffffffffffffffffffff16036112b05760006040517f503ab6af0000000000000000000000000000000000000000000000000000000081526004016112a79190611cca565b60405180910390fd5b81600160008673ffffffffffffffffffffffffffffffffffffffff1673ffffffffffffffffffffffffffffffffffffffff16815260200190815260200160002060008573ffffffffffffffffffffffffffffffffffffffff1673ffffffffffffffffffffffffffffffffffffffff16815260200190815260200160002081905550801561139d578273ffffffffffffffffffffffffffffffffffffffff168473ffffffffffffffffffffffffffffffffffffffff167f8c5be1e5ebec7d5bd14f71427d1e84f3dd0314c0f7b2291e5b200ac8c7c3b925846040516113949190611798565b60405180910390a35b50505050565b600073ffffffffffffffffffffffffffffffffffffffff168373ffffffffffffffffffffffffffffffffffffffff16036113f55780600260008282546113e99190611a64565b925050819055506114c8565b60008060008573ffffffffffffffffffffffffffffffffffffffff1673ffffffffffffffffffffffffffffffffffffffff16815260200190815260200160002054905081811015611481578381836040517fd79d596700000000000000000000000000000000000000000000000000000000815260040161147893929190611c93565b60405180910390fd5b8181036000808673ffffffffffffffffffffffffffffffffffffffff1673ffffffffffffffffffffffffffffffffffffffff16815260200190815260200160002081905550505b600073ffffffffffffffffffffffffffffffffffffffff168273ffffffffffffffffffffffffffffffffffffffff1603611511578060026000828254039250508190555061155e565b806000808473ffffffffffffffffffffffffffffffffffffffff1673ffffffffffffffffffffffffffffffffffffffff168152602001908152602001600020600082825401925050819055505b8173ffffffffffffffffffffffffffffffffffffffff168373ffffffffffffffffffffffffffffffffffffffff167fddf252ad1be2c89b69c2b068fc378daa952ba7f163c4a11628f55a4df523b3ef836040516115bb9190611798565b60405180910390a3505050565b600081519050919050565b600082825260208201905092915050565b60005b838110156116025780820151818401526020810190506115e7565b60008484015250505050565b6000601f19601f8301169050919050565b600061162a826115c8565b61163481856115d3565b93506116448185602086016115e4565b61164d8161160e565b840191505092915050565b60006020820190508181036000830152611672818461161f565b905092915050565b600080fd5b600073ffffffffffffffffffffffffffffffffffffffff82169050919050565b60006116aa8261167f565b9050919050565b6116ba8161169f565b81146116c557600080fd5b50565b6000813590506116d7816116b1565b92915050565b6000819050919050565b6116f0816116dd565b81146116fb57600080fd5b50565b60008135905061170d816116e7565b92915050565b6000806040838503121561172a5761172961167a565b5b6000611738858286016116c8565b9250506020611749858286016116fe565b9150509250929050565b60008115159050919050565b61176881611753565b82525050565b6000602082019050611783600083018461175f565b92915050565b611792816116dd565b82525050565b60006020820190506117ad6000830184611789565b92915050565b6000806000606084860312156117cc576117cb61167a565b5b60006117da868287016116c8565b93505060206117eb868287016116c8565b92505060406117fc868287016116fe565b9150509250925092565b60006020828403121561181c5761181b61167a565b5b600061182a848285016116c8565b91505092915050565b600060ff82169050919050565b61184981611833565b82525050565b60006020820190506118646000830184611840565b92915050565b6000602082840312156118805761187f61167a565b5b600061188e848285016116fe565b91505092915050565b600080604083850312156118ae576118ad61167a565b5b60006118bc858286016116c8565b92505060206118cd858286016116c8565b9150509250929050565b7f4e487b7100000000000000000000000000000000000000000000000000000000600052602260045260246000fd5b6000600282049050600182168061191e57607f821691505b602082108103611931576119306118d7565b5b50919050565b7f5061757361626c653a2070617573656400000000000000000000000000000000600082015250565b600061196d6010836115d3565b915061197882611937565b602082019050919050565b6000602082019050818103600083015261199c81611960565b9050919050565b7f4f6e6c792074686520636f6e7472616374206f776e65722063616e2063616c6c60008201527f20746869732066756e6374696f6e000000000000000000000000000000000000602082015250565b60006119ff602e836115d3565b9150611a0a826119a3565b604082019050919050565b60006020820190508181036000830152611a2e816119f2565b9050919050565b7f4e487b7100000000000000000000000000000000000000000000000000000000600052601160045260246000fd5b6000611a6f826116dd565b9150611a7a836116dd565b9250828201905080821115611a9257611a91611a35565b5b92915050565b611aa18161169f565b82525050565b6000604082019050611abc6000830185611a98565b611ac96020830184611789565b9392505050565b611ad981611753565b8114611ae457600080fd5b50565b600081519050611af681611ad0565b92915050565b600060208284031215611b1257611b1161167a565b5b6000611b2084828501611ae7565b91505092915050565b7f4f6e6c792074686520666c617368206c6f616e20636f6e7472616374206f722060008201527f746865206f776e65722063616e206d696e7420746f6b656e7300000000000000602082015250565b6000611b856039836115d3565b9150611b9082611b29565b604082019050919050565b60006020820190508181036000830152611bb481611b78565b9050919050565b7f45524332303a20616c6c6f77616e63652062656c6f77207a65726f0000000000600082015250565b6000611bf1601b836115d3565b9150611bfc82611bbb565b602082019050919050565b60006020820190508181036000830152611c2081611be4565b9050919050565b7f4e6577206f776e657220697320746865207a65726f2061646472657373000000600082015250565b6000611c5d601d836115d3565b9150611c6882611c27565b602082019050919050565b60006020820190508181036000830152611c8c81611c50565b9050919050565b6000606082019050611ca86000830186611a98565b611cb56020830185611789565b611cc26040830184611789565b949350505050565b6000602082019050611cdf6000830184611a98565b92915050565b7f45524332303a204d6178696d756d20737570706c792072656163686564000000600082015250565b6000611d1b601d836115d3565b9150611d2682611ce5565b602082019050919050565b60006020820190508181036000830152611d4a81611d0e565b905091905056fea26469706673582212205a05f92ed1abb67e7f05315ab924506c1105c417eaa1f6b0d8c43795c4ea780d64736f6c634300081b0033",
					"opcodes": "PUSH1 0x80 PUSH1 0x40 MSTORE CALLVALUE DUP1 ISZERO PUSH2 0x10 JUMPI PUSH1 0x0 DUP1 REVERT JUMPDEST POP PUSH1 0x40 MLOAD DUP1 PUSH1 0x40 ADD PUSH1 0x40 MSTORE DUP1 PUSH1 0xA DUP2 MSTORE PUSH1 0x20 ADD PUSH32 0x5553445420466C61736800000000000000000000000000000000000000000000 DUP2 MSTORE POP PUSH1 0x4 SWAP1 DUP2 PUSH2 0x55 SWAP2 SWAP1 PUSH2 0x344 JUMP JUMPDEST POP PUSH1 0x40 MLOAD DUP1 PUSH1 0x40 ADD PUSH1 0x40 MSTORE DUP1 PUSH1 0x4 DUP2 MSTORE PUSH1 0x20 ADD PUSH32 0x5553445400000000000000000000000000000000000000000000000000000000 DUP2 MSTORE POP PUSH1 0x5 SWAP1 DUP2 PUSH2 0x9A SWAP2 SWAP1 PUSH2 0x344 JUMP JUMPDEST POP PUSH12 0x1F04EF12CB04CF158000000 PUSH1 0x3 DUP2 SWAP1 SSTORE POP CALLER PUSH1 0x6 PUSH1 0x0 PUSH2 0x100 EXP DUP2 SLOAD DUP2 PUSH20 0xFFFFFFFFFFFFFFFFFFFFFFFFFFFFFFFFFFFFFFFF MUL NOT AND SWAP1 DUP4 PUSH20 0xFFFFFFFFFFFFFFFFFFFFFFFFFFFFFFFFFFFFFFFF AND MUL OR SWAP1 SSTORE POP PUSH2 0x416 JUMP JUMPDEST PUSH1 0x0 DUP2 MLOAD SWAP1 POP SWAP2 SWAP1 POP JUMP JUMPDEST PUSH32 0x4E487B7100000000000000000000000000000000000000000000000000000000 PUSH1 0x0 MSTORE PUSH1 0x41 PUSH1 0x4 MSTORE PUSH1 0x24 PUSH1 0x0 REVERT JUMPDEST PUSH32 0x4E487B7100000000000000000000000000000000000000000000000000000000 PUSH1 0x0 MSTORE PUSH1 0x22 PUSH1 0x4 MSTORE PUSH1 0x24 PUSH1 0x0 REVERT JUMPDEST PUSH1 0x0 PUSH1 0x2 DUP3 DIV SWAP1 POP PUSH1 0x1 DUP3 AND DUP1 PUSH2 0x175 JUMPI PUSH1 0x7F DUP3 AND SWAP2 POP JUMPDEST PUSH1 0x20 DUP3 LT DUP2 SUB PUSH2 0x188 JUMPI PUSH2 0x187 PUSH2 0x12E JUMP JUMPDEST JUMPDEST POP SWAP2 SWAP1 POP JUMP JUMPDEST PUSH1 0x0 DUP2 SWAP1 POP DUP2 PUSH1 0x0 MSTORE PUSH1 0x20 PUSH1 0x0 KECCAK256 SWAP1 POP SWAP2 SWAP1 POP JUMP JUMPDEST PUSH1 0x0 PUSH1 0x20 PUSH1 0x1F DUP4 ADD DIV SWAP1 POP SWAP2 SWAP1 POP JUMP JUMPDEST PUSH1 0x0 DUP3 DUP3 SHL SWAP1 POP SWAP3 SWAP2 POP POP JUMP JUMPDEST PUSH1 0x0 PUSH1 0x8 DUP4 MUL PUSH2 0x1F0 PUSH32 0xFFFFFFFFFFFFFFFFFFFFFFFFFFFFFFFFFFFFFFFFFFFFFFFFFFFFFFFFFFFFFFFF DUP3 PUSH2 0x1B3 JUMP JUMPDEST PUSH2 0x1FA DUP7 DUP4 PUSH2 0x1B3 JUMP JUMPDEST SWAP6 POP DUP1 NOT DUP5 AND SWAP4 POP DUP1 DUP7 AND DUP5 OR SWAP3 POP POP POP SWAP4 SWAP3 POP POP POP JUMP JUMPDEST PUSH1 0x0 DUP2 SWAP1 POP SWAP2 SWAP1 POP JUMP JUMPDEST PUSH1 0x0 DUP2 SWAP1 POP SWAP2 SWAP1 POP JUMP JUMPDEST PUSH1 0x0 PUSH2 0x241 PUSH2 0x23C PUSH2 0x237 DUP5 PUSH2 0x212 JUMP JUMPDEST PUSH2 0x21C JUMP JUMPDEST PUSH2 0x212 JUMP JUMPDEST SWAP1 POP SWAP2 SWAP1 POP JUMP JUMPDEST PUSH1 0x0 DUP2 SWAP1 POP SWAP2 SWAP1 POP JUMP JUMPDEST PUSH2 0x25B DUP4 PUSH2 0x226 JUMP JUMPDEST PUSH2 0x26F PUSH2 0x267 DUP3 PUSH2 0x248 JUMP JUMPDEST DUP5 DUP5 SLOAD PUSH2 0x1C0 JUMP JUMPDEST DUP3 SSTORE POP POP POP POP JUMP JUMPDEST PUSH1 0x0 SWAP1 JUMP JUMPDEST PUSH2 0x284 PUSH2 0x277 JUMP JUMPDEST PUSH2 0x28F DUP2 DUP5 DUP5 PUSH2 0x252 JUMP JUMPDEST POP POP POP JUMP JUMPDEST JUMPDEST DUP2 DUP2 LT ISZERO PUSH2 0x2B3 JUMPI PUSH2 0x2A8 PUSH1 0x0 DUP3 PUSH2 0x27C JUMP JUMPDEST PUSH1 0x1 DUP2 ADD SWAP1 POP PUSH2 0x295 JUMP JUMPDEST POP POP JUMP JUMPDEST PUSH1 0x1F DUP3 GT ISZERO PUSH2 0x2F8 JUMPI PUSH2 0x2C9 DUP2 PUSH2 0x18E JUMP JUMPDEST PUSH2 0x2D2 DUP5 PUSH2 0x1A3 JUMP JUMPDEST DUP2 ADD PUSH1 0x20 DUP6 LT ISZERO PUSH2 0x2E1 JUMPI DUP2 SWAP1 POP JUMPDEST PUSH2 0x2F5 PUSH2 0x2ED DUP6 PUSH2 0x1A3 JUMP JUMPDEST DUP4 ADD DUP3 PUSH2 0x294 JUMP JUMPDEST POP POP JUMPDEST POP POP POP JUMP JUMPDEST PUSH1 0x0 DUP3 DUP3 SHR SWAP1 POP SWAP3 SWAP2 POP POP JUMP JUMPDEST PUSH1 0x0 PUSH2 0x31B PUSH1 0x0 NOT DUP5 PUSH1 0x8 MUL PUSH2 0x2FD JUMP JUMPDEST NOT DUP1 DUP4 AND SWAP2 POP POP SWAP3 SWAP2 POP POP JUMP JUMPDEST PUSH1 0x0 PUSH2 0x334 DUP4 DUP4 PUSH2 0x30A JUMP JUMPDEST SWAP2 POP DUP3 PUSH1 0x2 MUL DUP3 OR SWAP1 POP SWAP3 SWAP2 POP POP JUMP JUMPDEST PUSH2 0x34D DUP3 PUSH2 0xF4 JUMP JUMPDEST PUSH8 0xFFFFFFFFFFFFFFFF DUP2 GT ISZERO PUSH2 0x366 JUMPI PUSH2 0x365 PUSH2 0xFF JUMP JUMPDEST JUMPDEST PUSH2 0x370 DUP3 SLOAD PUSH2 0x15D JUMP JUMPDEST PUSH2 0x37B DUP3 DUP3 DUP6 PUSH2 0x2B7 JUMP JUMPDEST PUSH1 0x0 PUSH1 0x20 SWAP1 POP PUSH1 0x1F DUP4 GT PUSH1 0x1 DUP2 EQ PUSH2 0x3AE JUMPI PUSH1 0x0 DUP5 ISZERO PUSH2 0x39C JUMPI DUP3 DUP8 ADD MLOAD SWAP1 POP JUMPDEST PUSH2 0x3A6 DUP6 DUP3 PUSH2 0x328 JUMP JUMPDEST DUP7 SSTORE POP PUSH2 0x40E JUMP JUMPDEST PUSH1 0x1F NOT DUP5 AND PUSH2 0x3BC DUP7 PUSH2 0x18E JUMP JUMPDEST PUSH1 0x0 JUMPDEST DUP3 DUP2 LT ISZERO PUSH2 0x3E4 JUMPI DUP5 DUP10 ADD MLOAD DUP3 SSTORE PUSH1 0x1 DUP3 ADD SWAP2 POP PUSH1 0x20 DUP6 ADD SWAP5 POP PUSH1 0x20 DUP2 ADD SWAP1 POP PUSH2 0x3BF JUMP JUMPDEST DUP7 DUP4 LT ISZERO PUSH2 0x401 JUMPI DUP5 DUP10 ADD MLOAD PUSH2 0x3FD PUSH1 0x1F DUP10 AND DUP3 PUSH2 0x30A JUMP JUMPDEST DUP4 SSTORE POP JUMPDEST PUSH1 0x1 PUSH1 0x2 DUP9 MUL ADD DUP9 SSTORE POP POP POP JUMPDEST POP POP POP POP POP POP JUMP JUMPDEST PUSH2 0x1D87 DUP1 PUSH2 0x425 PUSH1 0x0 CODECOPY PUSH1 0x0 RETURN INVALID PUSH1 0x80 PUSH1 0x40 MSTORE CALLVALUE DUP1 ISZERO PUSH2 0x10 JUMPI PUSH1 0x0 DUP1 REVERT JUMPDEST POP PUSH1 0x4 CALLDATASIZE LT PUSH2 0x121 JUMPI PUSH1 0x0 CALLDATALOAD PUSH1 0xE0 SHR DUP1 PUSH4 0x70A08231 GT PUSH2 0xAD JUMPI DUP1 PUSH4 0xA457C2D7 GT PUSH2 0x71 JUMPI DUP1 PUSH4 0xA457C2D7 EQ PUSH2 0x2F6 JUMPI DUP1 PUSH4 0xA9059CBB EQ PUSH2 0x326 JUMPI DUP1 PUSH4 0xD5ABEB01 EQ PUSH2 0x356 JUMPI DUP1 PUSH4 0xDD62ED3E EQ PUSH2 0x374 JUMPI DUP1 PUSH4 0xF2FDE38B EQ PUSH2 0x3A4 JUMPI PUSH2 0x121 JUMP JUMPDEST DUP1 PUSH4 0x70A08231 EQ PUSH2 0x252 JUMPI DUP1 PUSH4 0x8456CB59 EQ PUSH2 0x282 JUMPI DUP1 PUSH4 0x8980F11F EQ PUSH2 0x28C JUMPI DUP1 PUSH4 0x95D89B41 EQ PUSH2 0x2A8 JUMPI DUP1 PUSH4 0xA0712D68 EQ PUSH2 0x2C6 JUMPI PUSH2 0x121 JUMP JUMPDEST DUP1 PUSH4 0x2A52940D GT PUSH2 0xF4 JUMPI DUP1 PUSH4 0x2A52940D EQ PUSH2 0x1C2 JUMPI DUP1 PUSH4 0x313CE567 EQ PUSH2 0x1DE JUMPI DUP1 PUSH4 0x39509351 EQ PUSH2 0x1FC JUMPI DUP1 PUSH4 0x3F4BA83A EQ PUSH2 0x22C JUMPI DUP1 PUSH4 0x42966C68 EQ PUSH2 0x236 JUMPI PUSH2 0x121 JUMP JUMPDEST DUP1 PUSH4 0x6FDDE03 EQ PUSH2 0x126 JUMPI DUP1 PUSH4 0x95EA7B3 EQ PUSH2 0x144 JUMPI DUP1 PUSH4 0x18160DDD EQ PUSH2 0x174 JUMPI DUP1 PUSH4 0x23B872DD EQ PUSH2 0x192 JUMPI JUMPDEST PUSH1 0x0 DUP1 REVERT JUMPDEST PUSH2 0x12E PUSH2 0x3C0 JUMP JUMPDEST PUSH1 0x40 MLOAD PUSH2 0x13B SWAP2 SWAP1 PUSH2 0x1658 JUMP JUMPDEST PUSH1 0x40 MLOAD DUP1 SWAP2 SUB SWAP1 RETURN JUMPDEST PUSH2 0x15E PUSH1 0x4 DUP1 CALLDATASIZE SUB DUP2 ADD SWAP1 PUSH2 0x159 SWAP2 SWAP1 PUSH2 0x1713 JUMP JUMPDEST PUSH2 0x452 JUMP JUMPDEST PUSH1 0x40 MLOAD PUSH2 0x16B SWAP2 SWAP1 PUSH2 0x176E JUMP JUMPDEST PUSH1 0x40 MLOAD DUP1 SWAP2 SUB SWAP1 RETURN JUMPDEST PUSH2 0x17C PUSH2 0x4C6 JUMP JUMPDEST PUSH1 0x40 MLOAD PUSH2 0x189 SWAP2 SWAP1 PUSH2 0x1798 JUMP JUMPDEST PUSH1 0x40 MLOAD DUP1 SWAP2 SUB SWAP1 RETURN JUMPDEST PUSH2 0x1AC PUSH1 0x4 DUP1 CALLDATASIZE SUB DUP2 ADD SWAP1 PUSH2 0x1A7 SWAP2 SWAP1 PUSH2 0x17B3 JUMP JUMPDEST PUSH2 0x4D0 JUMP JUMPDEST PUSH1 0x40 MLOAD PUSH2 0x1B9 SWAP2 SWAP1 PUSH2 0x176E JUMP JUMPDEST PUSH1 0x40 MLOAD DUP1 SWAP2 SUB SWAP1 RETURN JUMPDEST PUSH2 0x1DC PUSH1 0x4 DUP1 CALLDATASIZE SUB DUP2 ADD SWAP1 PUSH2 0x1D7 SWAP2 SWAP1 PUSH2 0x1806 JUMP JUMPDEST PUSH2 0x550 JUMP JUMPDEST STOP JUMPDEST PUSH2 0x1E6 PUSH2 0x624 JUMP JUMPDEST PUSH1 0x40 MLOAD PUSH2 0x1F3 SWAP2 SWAP1 PUSH2 0x184F JUMP JUMPDEST PUSH1 0x40 MLOAD DUP1 SWAP2 SUB SWAP1 RETURN JUMPDEST PUSH2 0x216 PUSH1 0x4 DUP1 CALLDATASIZE SUB DUP2 ADD SWAP1 PUSH2 0x211 SWAP2 SWAP1 PUSH2 0x1713 JUMP JUMPDEST PUSH2 0x62D JUMP JUMPDEST PUSH1 0x40 MLOAD PUSH2 0x223 SWAP2 SWAP1 PUSH2 0x176E JUMP JUMPDEST PUSH1 0x40 MLOAD DUP1 SWAP2 SUB SWAP1 RETURN JUMPDEST PUSH2 0x234 PUSH2 0x6B5 JUMP JUMPDEST STOP JUMPDEST PUSH2 0x250 PUSH1 0x4 DUP1 CALLDATASIZE SUB DUP2 ADD SWAP1 PUSH2 0x24B SWAP2 SWAP1 PUSH2 0x186A JUMP JUMPDEST PUSH2 0x762 JUMP JUMPDEST STOP JUMPDEST PUSH2 0x26C PUSH1 0x4 DUP1 CALLDATASIZE SUB DUP2 ADD SWAP1 PUSH2 0x267 SWAP2 SWAP1 PUSH2 0x1806 JUMP JUMPDEST PUSH2 0x76F JUMP JUMPDEST PUSH1 0x40 MLOAD PUSH2 0x279 SWAP2 SWAP1 PUSH2 0x1798 JUMP JUMPDEST PUSH1 0x40 MLOAD DUP1 SWAP2 SUB SWAP1 RETURN JUMPDEST PUSH2 0x28A PUSH2 0x7B7 JUMP JUMPDEST STOP JUMPDEST PUSH2 0x2A6 PUSH1 0x4 DUP1 CALLDATASIZE SUB DUP2 ADD SWAP1 PUSH2 0x2A1 SWAP2 SWAP1 PUSH2 0x1713 JUMP JUMPDEST PUSH2 0x864 JUMP JUMPDEST STOP JUMPDEST PUSH2 0x2B0 PUSH2 0x999 JUMP JUMPDEST PUSH1 0x40 MLOAD PUSH2 0x2BD SWAP2 SWAP1 PUSH2 0x1658 JUMP JUMPDEST PUSH1 0x40 MLOAD DUP1 SWAP2 SUB SWAP1 RETURN JUMPDEST PUSH2 0x2E0 PUSH1 0x4 DUP1 CALLDATASIZE SUB DUP2 ADD SWAP1 PUSH2 0x2DB SWAP2 SWAP1 PUSH2 0x186A JUMP JUMPDEST PUSH2 0xA2B JUMP JUMPDEST PUSH1 0x40 MLOAD PUSH2 0x2ED SWAP2 SWAP1 PUSH2 0x176E JUMP JUMPDEST PUSH1 0x40 MLOAD DUP1 SWAP2 SUB SWAP1 RETURN JUMPDEST PUSH2 0x310 PUSH1 0x4 DUP1 CALLDATASIZE SUB DUP2 ADD SWAP1 PUSH2 0x30B SWAP2 SWAP1 PUSH2 0x1713 JUMP JUMPDEST PUSH2 0xB28 JUMP JUMPDEST PUSH1 0x40 MLOAD PUSH2 0x31D SWAP2 SWAP1 PUSH2 0x176E JUMP JUMPDEST PUSH1 0x40 MLOAD DUP1 SWAP2 SUB SWAP1 RETURN JUMPDEST PUSH2 0x340 PUSH1 0x4 DUP1 CALLDATASIZE SUB DUP2 ADD SWAP1 PUSH2 0x33B SWAP2 SWAP1 PUSH2 0x1713 JUMP JUMPDEST PUSH2 0xBF0 JUMP JUMPDEST PUSH1 0x40 MLOAD PUSH2 0x34D SWAP2 SWAP1 PUSH2 0x176E JUMP JUMPDEST PUSH1 0x40 MLOAD DUP1 SWAP2 SUB SWAP1 RETURN JUMPDEST PUSH2 0x35E PUSH2 0xC64 JUMP JUMPDEST PUSH1 0x40 MLOAD PUSH2 0x36B SWAP2 SWAP1 PUSH2 0x1798 JUMP JUMPDEST PUSH1 0x40 MLOAD DUP1 SWAP2 SUB SWAP1 RETURN JUMPDEST PUSH2 0x38E PUSH1 0x4 DUP1 CALLDATASIZE SUB DUP2 ADD SWAP1 PUSH2 0x389 SWAP2 SWAP1 PUSH2 0x1897 JUMP JUMPDEST PUSH2 0xC6E JUMP JUMPDEST PUSH1 0x40 MLOAD PUSH2 0x39B SWAP2 SWAP1 PUSH2 0x1798 JUMP JUMPDEST PUSH1 0x40 MLOAD DUP1 SWAP2 SUB SWAP1 RETURN JUMPDEST PUSH2 0x3BE PUSH1 0x4 DUP1 CALLDATASIZE SUB DUP2 ADD SWAP1 PUSH2 0x3B9 SWAP2 SWAP1 PUSH2 0x1806 JUMP JUMPDEST PUSH2 0xCF5 JUMP JUMPDEST STOP JUMPDEST PUSH1 0x60 PUSH1 0x4 DUP1 SLOAD PUSH2 0x3CF SWAP1 PUSH2 0x1906 JUMP JUMPDEST DUP1 PUSH1 0x1F ADD PUSH1 0x20 DUP1 SWAP2 DIV MUL PUSH1 0x20 ADD PUSH1 0x40 MLOAD SWAP1 DUP2 ADD PUSH1 0x40 MSTORE DUP1 SWAP3 SWAP2 SWAP1 DUP2 DUP2 MSTORE PUSH1 0x20 ADD DUP3 DUP1 SLOAD PUSH2 0x3FB SWAP1 PUSH2 0x1906 JUMP JUMPDEST DUP1 ISZERO PUSH2 0x448 JUMPI DUP1 PUSH1 0x1F LT PUSH2 0x41D JUMPI PUSH2 0x100 DUP1 DUP4 SLOAD DIV MUL DUP4 MSTORE SWAP2 PUSH1 0x20 ADD SWAP2 PUSH2 0x448 JUMP JUMPDEST DUP3 ADD SWAP2 SWAP1 PUSH1 0x0 MSTORE PUSH1 0x20 PUSH1 0x0 KECCAK256 SWAP1 JUMPDEST DUP2 SLOAD DUP2 MSTORE SWAP1 PUSH1 0x1 ADD SWAP1 PUSH1 0x20 ADD DUP1 DUP4 GT PUSH2 0x42B JUMPI DUP3 SWAP1 SUB PUSH1 0x1F AND DUP3 ADD SWAP2 JUMPDEST POP POP POP POP POP SWAP1 POP SWAP1 JUMP JUMPDEST PUSH1 0x0 PUSH1 0x7 PUSH1 0x14 SWAP1 SLOAD SWAP1 PUSH2 0x100 EXP SWAP1 DIV PUSH1 0xFF AND ISZERO PUSH2 0x4A4 JUMPI PUSH1 0x40 MLOAD PUSH32 0x8C379A000000000000000000000000000000000000000000000000000000000 DUP2 MSTORE PUSH1 0x4 ADD PUSH2 0x49B SWAP1 PUSH2 0x1983 JUMP JUMPDEST PUSH1 0x40 MLOAD DUP1 SWAP2 SUB SWAP1 REVERT JUMPDEST PUSH1 0x0 PUSH2 0x4AE PUSH2 0xE38 JUMP JUMPDEST SWAP1 POP PUSH2 0x4BB DUP2 DUP6 DUP6 PUSH2 0xE40 JUMP JUMPDEST PUSH1 0x1 SWAP2 POP POP SWAP3 SWAP2 POP POP JUMP JUMPDEST PUSH1 0x0 PUSH1 0x2 SLOAD SWAP1 POP SWAP1 JUMP JUMPDEST PUSH1 0x0 PUSH1 0x7 PUSH1 0x14 SWAP1 SLOAD SWAP1 PUSH2 0x100 EXP SWAP1 DIV PUSH1 0xFF AND ISZERO PUSH2 0x522 JUMPI PUSH1 0x40 MLOAD PUSH32 0x8C379A000000000000000000000000000000000000000000000000000000000 DUP2 MSTORE PUSH1 0x4 ADD PUSH2 0x519 SWAP1 PUSH2 0x1983 JUMP JUMPDEST PUSH1 0x40 MLOAD DUP1 SWAP2 SUB SWAP1 REVERT JUMPDEST PUSH1 0x0 PUSH2 0x52C PUSH2 0xE38 JUMP JUMPDEST SWAP1 POP PUSH2 0x539 DUP6 DUP3 DUP6 PUSH2 0xE52 JUMP JUMPDEST PUSH2 0x544 DUP6 DUP6 DUP6 PUSH2 0xEE6 JUMP JUMPDEST PUSH1 0x1 SWAP2 POP POP SWAP4 SWAP3 POP POP POP JUMP JUMPDEST PUSH1 0x6 PUSH1 0x0 SWAP1 SLOAD SWAP1 PUSH2 0x100 EXP SWAP1 DIV PUSH20 0xFFFFFFFFFFFFFFFFFFFFFFFFFFFFFFFFFFFFFFFF AND PUSH20 0xFFFFFFFFFFFFFFFFFFFFFFFFFFFFFFFFFFFFFFFF AND CALLER PUSH20 0xFFFFFFFFFFFFFFFFFFFFFFFFFFFFFFFFFFFFFFFF AND EQ PUSH2 0x5E0 JUMPI PUSH1 0x40 MLOAD PUSH32 0x8C379A000000000000000000000000000000000000000000000000000000000 DUP2 MSTORE PUSH1 0x4 ADD PUSH2 0x5D7 SWAP1 PUSH2 0x1A15 JUMP JUMPDEST PUSH1 0x40 MLOAD DUP1 SWAP2 SUB SWAP1 REVERT JUMPDEST DUP1 PUSH1 0x7 PUSH1 0x0 PUSH2 0x100 EXP DUP2 SLOAD DUP2 PUSH20 0xFFFFFFFFFFFFFFFFFFFFFFFFFFFFFFFFFFFFFFFF MUL NOT AND SWAP1 DUP4 PUSH20 0xFFFFFFFFFFFFFFFFFFFFFFFFFFFFFFFFFFFFFFFF AND MUL OR SWAP1 SSTORE POP POP JUMP JUMPDEST PUSH1 0x0 PUSH1 0x12 SWAP1 POP SWAP1 JUMP JUMPDEST PUSH1 0x0 PUSH1 0x7 PUSH1 0x14 SWAP1 SLOAD SWAP1 PUSH2 0x100 EXP SWAP1 DIV PUSH1 0xFF AND ISZERO PUSH2 0x67F JUMPI PUSH1 0x40 MLOAD PUSH32 0x8C379A000000000000000000000000000000000000000000000000000000000 DUP2 MSTORE PUSH1 0x4 ADD PUSH2 0x676 SWAP1 PUSH2 0x1983 JUMP JUMPDEST PUSH1 0x40 MLOAD DUP1 SWAP2 SUB SWAP1 REVERT JUMPDEST PUSH1 0x0 PUSH2 0x689 PUSH2 0xE38 JUMP JUMPDEST SWAP1 POP PUSH2 0x6AA DUP2 DUP6 DUP6 PUSH2 0x69B DUP6 DUP10 PUSH2 0xC6E JUMP JUMPDEST PUSH2 0x6A5 SWAP2 SWAP1 PUSH2 0x1A64 JUMP JUMPDEST PUSH2 0xE40 JUMP JUMPDEST PUSH1 0x1 SWAP2 POP POP SWAP3 SWAP2 POP POP JUMP JUMPDEST PUSH1 0x6 PUSH1 0x0 SWAP1 SLOAD SWAP1 PUSH2 0x100 EXP SWAP1 DIV PUSH20 0xFFFFFFFFFFFFFFFFFFFFFFFFFFFFFFFFFFFFFFFF AND PUSH20 0xFFFFFFFFFFFFFFFFFFFFFFFFFFFFFFFFFFFFFFFF AND CALLER PUSH20 0xFFFFFFFFFFFFFFFFFFFFFFFFFFFFFFFFFFFFFFFF AND EQ PUSH2 0x745 JUMPI PUSH1 0x40 MLOAD PUSH32 0x8C379A000000000000000000000000000000000000000000000000000000000 DUP2 MSTORE PUSH1 0x4 ADD PUSH2 0x73C SWAP1 PUSH2 0x1A15 JUMP JUMPDEST PUSH1 0x40 MLOAD DUP1 SWAP2 SUB SWAP1 REVERT JUMPDEST PUSH1 0x0 PUSH1 0x7 PUSH1 0x14 PUSH2 0x100 EXP DUP2 SLOAD DUP2 PUSH1 0xFF MUL NOT AND SWAP1 DUP4 ISZERO ISZERO MUL OR SWAP1 SSTORE POP JUMP JUMPDEST PUSH2 0x76C CALLER DUP3 PUSH2 0xFDA JUMP JUMPDEST POP JUMP JUMPDEST PUSH1 0x0 DUP1 PUSH1 0x0 DUP4 PUSH20 0xFFFFFFFFFFFFFFFFFFFFFFFFFFFFFFFFFFFFFFFF AND PUSH20 0xFFFFFFFFFFFFFFFFFFFFFFFFFFFFFFFFFFFFFFFF AND DUP2 MSTORE PUSH1 0x20 ADD SWAP1 DUP2 MSTORE PUSH1 0x20 ADD PUSH1 0x0 KECCAK256 SLOAD SWAP1 POP SWAP2 SWAP1 POP JUMP JUMPDEST PUSH1 0x6 PUSH1 0x0 SWAP1 SLOAD SWAP1 PUSH2 0x100 EXP SWAP1 DIV PUSH20 0xFFFFFFFFFFFFFFFFFFFFFFFFFFFFFFFFFFFFFFFF AND PUSH20 0xFFFFFFFFFFFFFFFFFFFFFFFFFFFFFFFFFFFFFFFF AND CALLER PUSH20 0xFFFFFFFFFFFFFFFFFFFFFFFFFFFFFFFFFFFFFFFF AND EQ PUSH2 0x847 JUMPI PUSH1 0x40 MLOAD PUSH32 0x8C379A000000000000000000000000000000000000000000000000000000000 DUP2 MSTORE PUSH1 0x4 ADD PUSH2 0x83E SWAP1 PUSH2 0x1A15 JUMP JUMPDEST PUSH1 0x40 MLOAD DUP1 SWAP2 SUB SWAP1 REVERT JUMPDEST PUSH1 0x1 PUSH1 0x7 PUSH1 0x14 PUSH2 0x100 EXP DUP2 SLOAD DUP2 PUSH1 0xFF MUL NOT AND SWAP1 DUP4 ISZERO ISZERO MUL OR SWAP1 SSTORE POP JUMP JUMPDEST PUSH1 0x6 PUSH1 0x0 SWAP1 SLOAD SWAP1 PUSH2 0x100 EXP SWAP1 DIV PUSH20 0xFFFFFFFFFFFFFFFFFFFFFFFFFFFFFFFFFFFFFFFF AND PUSH20 0xFFFFFFFFFFFFFFFFFFFFFFFFFFFFFFFFFFFFFFFF AND CALLER PUSH20 0xFFFFFFFFFFFFFFFFFFFFFFFFFFFFFFFFFFFFFFFF AND EQ PUSH2 0x8F4 JUMPI PUSH1 0x40 MLOAD PUSH32 0x8C379A000000000000000000000000000000000000000000000000000000000 DUP2 MSTORE PUSH1 0x4 ADD PUSH2 0x8EB SWAP1 PUSH2 0x1A15 JUMP JUMPDEST PUSH1 0x40 MLOAD DUP1 SWAP2 SUB SWAP1 REVERT JUMPDEST DUP2 PUSH20 0xFFFFFFFFFFFFFFFFFFFFFFFFFFFFFFFFFFFFFFFF AND PUSH4 0xA9059CBB PUSH1 0x6 PUSH1 0x0 SWAP1 SLOAD SWAP1 PUSH2 0x100 EXP SWAP1 DIV PUSH20 0xFFFFFFFFFFFFFFFFFFFFFFFFFFFFFFFFFFFFFFFF AND DUP4 PUSH1 0x40 MLOAD DUP4 PUSH4 0xFFFFFFFF AND PUSH1 0xE0 SHL DUP2 MSTORE PUSH1 0x4 ADD PUSH2 0x951 SWAP3 SWAP2 SWAP1 PUSH2 0x1AA7 JUMP JUMPDEST PUSH1 0x20 PUSH1 0x40 MLOAD DUP1 DUP4 SUB DUP2 PUSH1 0x0 DUP8 GAS CALL ISZERO DUP1 ISZERO PUSH2 0x970 JUMPI RETURNDATASIZE PUSH1 0x0 DUP1 RETURNDATACOPY RETURNDATASIZE PUSH1 0x0 REVERT JUMPDEST POP POP POP POP PUSH1 0x40 MLOAD RETURNDATASIZE PUSH1 0x1F NOT PUSH1 0x1F DUP3 ADD AND DUP3 ADD DUP1 PUSH1 0x40 MSTORE POP DUP2 ADD SWAP1 PUSH2 0x994 SWAP2 SWAP1 PUSH2 0x1AFC JUMP JUMPDEST POP POP POP JUMP JUMPDEST PUSH1 0x60 PUSH1 0x5 DUP1 SLOAD PUSH2 0x9A8 SWAP1 PUSH2 0x1906 JUMP JUMPDEST DUP1 PUSH1 0x1F ADD PUSH1 0x20 DUP1 SWAP2 DIV MUL PUSH1 0x20 ADD PUSH1 0x40 MLOAD SWAP1 DUP2 ADD PUSH1 0x40 MSTORE DUP1 SWAP3 SWAP2 SWAP1 DUP2 DUP2 MSTORE PUSH1 0x20 ADD DUP3 DUP1 SLOAD PUSH2 0x9D4 SWAP1 PUSH2 0x1906 JUMP JUMPDEST DUP1 ISZERO PUSH2 0xA21 JUMPI DUP1 PUSH1 0x1F LT PUSH2 0x9F6 JUMPI PUSH2 0x100 DUP1 DUP4 SLOAD DIV MUL DUP4 MSTORE SWAP2 PUSH1 0x20 ADD SWAP2 PUSH2 0xA21 JUMP JUMPDEST DUP3 ADD SWAP2 SWAP1 PUSH1 0x0 MSTORE PUSH1 0x20 PUSH1 0x0 KECCAK256 SWAP1 JUMPDEST DUP2 SLOAD DUP2 MSTORE SWAP1 PUSH1 0x1 ADD SWAP1 PUSH1 0x20 ADD DUP1 DUP4 GT PUSH2 0xA04 JUMPI DUP3 SWAP1 SUB PUSH1 0x1F AND DUP3 ADD SWAP2 JUMPDEST POP POP POP POP POP SWAP1 POP SWAP1 JUMP JUMPDEST PUSH1 0x0 PUSH1 0x7 PUSH1 0x0 SWAP1 SLOAD SWAP1 PUSH2 0x100 EXP SWAP1 DIV PUSH20 0xFFFFFFFFFFFFFFFFFFFFFFFFFFFFFFFFFFFFFFFF AND PUSH20 0xFFFFFFFFFFFFFFFFFFFFFFFFFFFFFFFFFFFFFFFF AND CALLER PUSH20 0xFFFFFFFFFFFFFFFFFFFFFFFFFFFFFFFFFFFFFFFF AND EQ DUP1 PUSH2 0xAD6 JUMPI POP PUSH1 0x6 PUSH1 0x0 SWAP1 SLOAD SWAP1 PUSH2 0x100 EXP SWAP1 DIV PUSH20 0xFFFFFFFFFFFFFFFFFFFFFFFFFFFFFFFFFFFFFFFF AND PUSH20 0xFFFFFFFFFFFFFFFFFFFFFFFFFFFFFFFFFFFFFFFF AND CALLER PUSH20 0xFFFFFFFFFFFFFFFFFFFFFFFFFFFFFFFFFFFFFFFF AND EQ JUMPDEST PUSH2 0xB15 JUMPI PUSH1 0x40 MLOAD PUSH32 0x8C379A000000000000000000000000000000000000000000000000000000000 DUP2 MSTORE PUSH1 0x4 ADD PUSH2 0xB0C SWAP1 PUSH2 0x1B9B JUMP JUMPDEST PUSH1 0x40 MLOAD DUP1 SWAP2 SUB SWAP1 REVERT JUMPDEST PUSH2 0xB1F CALLER DUP4 PUSH2 0x10AA JUMP JUMPDEST PUSH1 0x1 SWAP1 POP SWAP2 SWAP1 POP JUMP JUMPDEST PUSH1 0x0 PUSH1 0x7 PUSH1 0x14 SWAP1 SLOAD SWAP1 PUSH2 0x100 EXP SWAP1 DIV PUSH1 0xFF AND ISZERO PUSH2 0xB7A JUMPI PUSH1 0x40 MLOAD PUSH32 0x8C379A000000000000000000000000000000000000000000000000000000000 DUP2 MSTORE PUSH1 0x4 ADD PUSH2 0xB71 SWAP1 PUSH2 0x1983 JUMP JUMPDEST PUSH1 0x40 MLOAD DUP1 SWAP2 SUB SWAP1 REVERT JUMPDEST PUSH1 0x0 PUSH2 0xB84 PUSH2 0xE38 JUMP JUMPDEST SWAP1 POP PUSH1 0x0 PUSH2 0xB92 DUP3 DUP7 PUSH2 0xC6E JUMP JUMPDEST SWAP1 POP DUP4 DUP2 LT ISZERO PUSH2 0xBD7 JUMPI PUSH1 0x40 MLOAD PUSH32 0x8C379A000000000000000000000000000000000000000000000000000000000 DUP2 MSTORE PUSH1 0x4 ADD PUSH2 0xBCE SWAP1 PUSH2 0x1C07 JUMP JUMPDEST PUSH1 0x40 MLOAD DUP1 SWAP2 SUB SWAP1 REVERT JUMPDEST PUSH2 0xBE4 DUP3 DUP7 DUP7 DUP5 SUB PUSH2 0xE40 JUMP JUMPDEST PUSH1 0x1 SWAP3 POP POP POP SWAP3 SWAP2 POP POP JUMP JUMPDEST PUSH1 0x0 PUSH1 0x7 PUSH1 0x14 SWAP1 SLOAD SWAP1 PUSH2 0x100 EXP SWAP1 DIV PUSH1 0xFF AND ISZERO PUSH2 0xC42 JUMPI PUSH1 0x40 MLOAD PUSH32 0x8C379A000000000000000000000000000000000000000000000000000000000 DUP2 MSTORE PUSH1 0x4 ADD PUSH2 0xC39 SWAP1 PUSH2 0x1983 JUMP JUMPDEST PUSH1 0x40 MLOAD DUP1 SWAP2 SUB SWAP1 REVERT JUMPDEST PUSH1 0x0 PUSH2 0xC4C PUSH2 0xE38 JUMP JUMPDEST SWAP1 POP PUSH2 0xC59 DUP2 DUP6 DUP6 PUSH2 0xEE6 JUMP JUMPDEST PUSH1 0x1 SWAP2 POP POP SWAP3 SWAP2 POP POP JUMP JUMPDEST PUSH1 0x0 PUSH1 0x3 SLOAD SWAP1 POP SWAP1 JUMP JUMPDEST PUSH1 0x0 PUSH1 0x1 PUSH1 0x0 DUP5 PUSH20 0xFFFFFFFFFFFFFFFFFFFFFFFFFFFFFFFFFFFFFFFF AND PUSH20 0xFFFFFFFFFFFFFFFFFFFFFFFFFFFFFFFFFFFFFFFF AND DUP2 MSTORE PUSH1 0x20 ADD SWAP1 DUP2 MSTORE PUSH1 0x20 ADD PUSH1 0x0 KECCAK256 PUSH1 0x0 DUP4 PUSH20 0xFFFFFFFFFFFFFFFFFFFFFFFFFFFFFFFFFFFFFFFF AND PUSH20 0xFFFFFFFFFFFFFFFFFFFFFFFFFFFFFFFFFFFFFFFF AND DUP2 MSTORE PUSH1 0x20 ADD SWAP1 DUP2 MSTORE PUSH1 0x20 ADD PUSH1 0x0 KECCAK256 SLOAD SWAP1 POP SWAP3 SWAP2 POP POP JUMP JUMPDEST PUSH1 0x6 PUSH1 0x0 SWAP1 SLOAD SWAP1 PUSH2 0x100 EXP SWAP1 DIV PUSH20 0xFFFFFFFFFFFFFFFFFFFFFFFFFFFFFFFFFFFFFFFF AND PUSH20 0xFFFFFFFFFFFFFFFFFFFFFFFFFFFFFFFFFFFFFFFF AND CALLER PUSH20 0xFFFFFFFFFFFFFFFFFFFFFFFFFFFFFFFFFFFFFFFF AND EQ PUSH2 0xD85 JUMPI PUSH1 0x40 MLOAD PUSH32 0x8C379A000000000000000000000000000000000000000000000000000000000 DUP2 MSTORE PUSH1 0x4 ADD PUSH2 0xD7C SWAP1 PUSH2 0x1A15 JUMP JUMPDEST PUSH1 0x40 MLOAD DUP1 SWAP2 SUB SWAP1 REVERT JUMPDEST PUSH1 0x0 PUSH20 0xFFFFFFFFFFFFFFFFFFFFFFFFFFFFFFFFFFFFFFFF AND DUP2 PUSH20 0xFFFFFFFFFFFFFFFFFFFFFFFFFFFFFFFFFFFFFFFF AND SUB PUSH2 0xDF4 JUMPI PUSH1 0x40 MLOAD PUSH32 0x8C379A000000000000000000000000000000000000000000000000000000000 DUP2 MSTORE PUSH1 0x4 ADD PUSH2 0xDEB SWAP1 PUSH2 0x1C73 JUMP JUMPDEST PUSH1 0x40 MLOAD DUP1 SWAP2 SUB SWAP1 REVERT JUMPDEST DUP1 PUSH1 0x6 PUSH1 0x0 PUSH2 0x100 EXP DUP2 SLOAD DUP2 PUSH20 0xFFFFFFFFFFFFFFFFFFFFFFFFFFFFFFFFFFFFFFFF MUL NOT AND SWAP1 DUP4 PUSH20 0xFFFFFFFFFFFFFFFFFFFFFFFFFFFFFFFFFFFFFFFF AND MUL OR SWAP1 SSTORE POP POP JUMP JUMPDEST PUSH1 0x0 CALLER SWAP1 POP SWAP1 JUMP JUMPDEST PUSH2 0xE4D DUP4 DUP4 DUP4 PUSH1 0x1 PUSH2 0x11CC JUMP JUMPDEST POP POP POP JUMP JUMPDEST PUSH1 0x0 PUSH2 0xE5E DUP5 DUP5 PUSH2 0xC6E JUMP JUMPDEST SWAP1 POP PUSH32 0xFFFFFFFFFFFFFFFFFFFFFFFFFFFFFFFFFFFFFFFFFFFFFFFFFFFFFFFFFFFFFFFF DUP2 EQ PUSH2 0xEE0 JUMPI DUP2 DUP2 LT ISZERO PUSH2 0xED0 JUMPI DUP3 DUP2 DUP4 PUSH1 0x40 MLOAD PUSH32 0x808463D100000000000000000000000000000000000000000000000000000000 DUP2 MSTORE PUSH1 0x4 ADD PUSH2 0xEC7 SWAP4 SWAP3 SWAP2 SWAP1 PUSH2 0x1C93 JUMP JUMPDEST PUSH1 0x40 MLOAD DUP1 SWAP2 SUB SWAP1 REVERT JUMPDEST PUSH2 0xEDF DUP5 DUP5 DUP5 DUP5 SUB PUSH1 0x0 PUSH2 0x11CC JUMP JUMPDEST JUMPDEST POP POP POP POP JUMP JUMPDEST PUSH1 0x0 PUSH20 0xFFFFFFFFFFFFFFFFFFFFFFFFFFFFFFFFFFFFFFFF AND DUP4 PUSH20 0xFFFFFFFFFFFFFFFFFFFFFFFFFFFFFFFFFFFFFFFF AND SUB PUSH2 0xF58 JUMPI PUSH1 0x0 PUSH1 0x40 MLOAD PUSH32 0x88B25E3E00000000000000000000000000000000000000000000000000000000 DUP2 MSTORE PUSH1 0x4 ADD PUSH2 0xF4F SWAP2 SWAP1 PUSH2 0x1CCA JUMP JUMPDEST PUSH1 0x40 MLOAD DUP1 SWAP2 SUB SWAP1 REVERT JUMPDEST PUSH1 0x0 PUSH20 0xFFFFFFFFFFFFFFFFFFFFFFFFFFFFFFFFFFFFFFFF AND DUP3 PUSH20 0xFFFFFFFFFFFFFFFFFFFFFFFFFFFFFFFFFFFFFFFF AND SUB PUSH2 0xFCA JUMPI PUSH1 0x0 PUSH1 0x40 MLOAD PUSH32 0x8702316D00000000000000000000000000000000000000000000000000000000 DUP2 MSTORE PUSH1 0x4 ADD PUSH2 0xFC1 SWAP2 SWAP1 PUSH2 0x1CCA JUMP JUMPDEST PUSH1 0x40 MLOAD DUP1 SWAP2 SUB SWAP1 REVERT JUMPDEST PUSH2 0xFD5 DUP4 DUP4 DUP4 PUSH2 0x13A3 JUMP JUMPDEST POP POP POP JUMP JUMPDEST PUSH1 0x0 PUSH20 0xFFFFFFFFFFFFFFFFFFFFFFFFFFFFFFFFFFFFFFFF AND DUP3 PUSH20 0xFFFFFFFFFFFFFFFFFFFFFFFFFFFFFFFFFFFFFFFF AND SUB PUSH2 0x104C JUMPI PUSH1 0x0 PUSH1 0x40 MLOAD PUSH32 0x88B25E3E00000000000000000000000000000000000000000000000000000000 DUP2 MSTORE PUSH1 0x4 ADD PUSH2 0x1043 SWAP2 SWAP1 PUSH2 0x1CCA JUMP JUMPDEST PUSH1 0x40 MLOAD DUP1 SWAP2 SUB SWAP1 REVERT JUMPDEST PUSH2 0x1058 DUP3 PUSH1 0x0 DUP4 PUSH2 0x13A3 JUMP JUMPDEST DUP2 PUSH20 0xFFFFFFFFFFFFFFFFFFFFFFFFFFFFFFFFFFFFFFFF AND PUSH32 0xCC16F5DBB4873280815C1EE09DBD06736CFFCC184412CF7A71A0FDB75D397CA5 DUP3 PUSH1 0x40 MLOAD PUSH2 0x109E SWAP2 SWAP1 PUSH2 0x1798 JUMP JUMPDEST PUSH1 0x40 MLOAD DUP1 SWAP2 SUB SWAP1 LOG2 POP POP JUMP JUMPDEST PUSH1 0x0 PUSH20 0xFFFFFFFFFFFFFFFFFFFFFFFFFFFFFFFFFFFFFFFF AND DUP3 PUSH20 0xFFFFFFFFFFFFFFFFFFFFFFFFFFFFFFFFFFFFFFFF AND SUB PUSH2 0x111C JUMPI PUSH1 0x0 PUSH1 0x40 MLOAD PUSH32 0x8702316D00000000000000000000000000000000000000000000000000000000 DUP2 MSTORE PUSH1 0x4 ADD PUSH2 0x1113 SWAP2 SWAP1 PUSH2 0x1CCA JUMP JUMPDEST PUSH1 0x40 MLOAD DUP1 SWAP2 SUB SWAP1 REVERT JUMPDEST PUSH1 0x3 SLOAD DUP2 PUSH1 0x2 SLOAD PUSH2 0x112D SWAP2 SWAP1 PUSH2 0x1A64 JUMP JUMPDEST GT ISZERO PUSH2 0x116E JUMPI PUSH1 0x40 MLOAD PUSH32 0x8C379A000000000000000000000000000000000000000000000000000000000 DUP2 MSTORE PUSH1 0x4 ADD PUSH2 0x1165 SWAP1 PUSH2 0x1D31 JUMP JUMPDEST PUSH1 0x40 MLOAD DUP1 SWAP2 SUB SWAP1 REVERT JUMPDEST PUSH2 0x117A PUSH1 0x0 DUP4 DUP4 PUSH2 0x13A3 JUMP JUMPDEST DUP2 PUSH20 0xFFFFFFFFFFFFFFFFFFFFFFFFFFFFFFFFFFFFFFFF AND PUSH32 0xF6798A560793A54C3BCFE86A93CDE1E73087D944C0EA20544137D4121396885 DUP3 PUSH1 0x40 MLOAD PUSH2 0x11C0 SWAP2 SWAP1 PUSH2 0x1798 JUMP JUMPDEST PUSH1 0x40 MLOAD DUP1 SWAP2 SUB SWAP1 LOG2 POP POP JUMP JUMPDEST PUSH1 0x0 PUSH20 0xFFFFFFFFFFFFFFFFFFFFFFFFFFFFFFFFFFFFFFFF AND DUP5 PUSH20 0xFFFFFFFFFFFFFFFFFFFFFFFFFFFFFFFFFFFFFFFF AND SUB PUSH2 0x123E JUMPI PUSH1 0x0 PUSH1 0x40 MLOAD PUSH32 0x1E431EDF00000000000000000000000000000000000000000000000000000000 DUP2 MSTORE PUSH1 0x4 ADD PUSH2 0x1235 SWAP2 SWAP1 PUSH2 0x1CCA JUMP JUMPDEST PUSH1 0x40 MLOAD DUP1 SWAP2 SUB SWAP1 REVERT JUMPDEST PUSH1 0x0 PUSH20 0xFFFFFFFFFFFFFFFFFFFFFFFFFFFFFFFFFFFFFFFF AND DUP4 PUSH20 0xFFFFFFFFFFFFFFFFFFFFFFFFFFFFFFFFFFFFFFFF AND SUB PUSH2 0x12B0 JUMPI PUSH1 0x0 PUSH1 0x40 MLOAD PUSH32 0x503AB6AF00000000000000000000000000000000000000000000000000000000 DUP2 MSTORE PUSH1 0x4 ADD PUSH2 0x12A7 SWAP2 SWAP1 PUSH2 0x1CCA JUMP JUMPDEST PUSH1 0x40 MLOAD DUP1 SWAP2 SUB SWAP1 REVERT JUMPDEST DUP2 PUSH1 0x1 PUSH1 0x0 DUP7 PUSH20 0xFFFFFFFFFFFFFFFFFFFFFFFFFFFFFFFFFFFFFFFF AND PUSH20 0xFFFFFFFFFFFFFFFFFFFFFFFFFFFFFFFFFFFFFFFF AND DUP2 MSTORE PUSH1 0x20 ADD SWAP1 DUP2 MSTORE PUSH1 0x20 ADD PUSH1 0x0 KECCAK256 PUSH1 0x0 DUP6 PUSH20 0xFFFFFFFFFFFFFFFFFFFFFFFFFFFFFFFFFFFFFFFF AND PUSH20 0xFFFFFFFFFFFFFFFFFFFFFFFFFFFFFFFFFFFFFFFF AND DUP2 MSTORE PUSH1 0x20 ADD SWAP1 DUP2 MSTORE PUSH1 0x20 ADD PUSH1 0x0 KECCAK256 DUP2 SWAP1 SSTORE POP DUP1 ISZERO PUSH2 0x139D JUMPI DUP3 PUSH20 0xFFFFFFFFFFFFFFFFFFFFFFFFFFFFFFFFFFFFFFFF AND DUP5 PUSH20 0xFFFFFFFFFFFFFFFFFFFFFFFFFFFFFFFFFFFFFFFF AND PUSH32 0x8C5BE1E5EBEC7D5BD14F71427D1E84F3DD0314C0F7B2291E5B200AC8C7C3B925 DUP5 PUSH1 0x40 MLOAD PUSH2 0x1394 SWAP2 SWAP1 PUSH2 0x1798 JUMP JUMPDEST PUSH1 0x40 MLOAD DUP1 SWAP2 SUB SWAP1 LOG3 JUMPDEST POP POP POP POP JUMP JUMPDEST PUSH1 0x0 PUSH20 0xFFFFFFFFFFFFFFFFFFFFFFFFFFFFFFFFFFFFFFFF AND DUP4 PUSH20 0xFFFFFFFFFFFFFFFFFFFFFFFFFFFFFFFFFFFFFFFF AND SUB PUSH2 0x13F5 JUMPI DUP1 PUSH1 0x2 PUSH1 0x0 DUP3 DUP3 SLOAD PUSH2 0x13E9 SWAP2 SWAP1 PUSH2 0x1A64 JUMP JUMPDEST SWAP3 POP POP DUP2 SWAP1 SSTORE POP PUSH2 0x14C8 JUMP JUMPDEST PUSH1 0x0 DUP1 PUSH1 0x0 DUP6 PUSH20 0xFFFFFFFFFFFFFFFFFFFFFFFFFFFFFFFFFFFFFFFF AND PUSH20 0xFFFFFFFFFFFFFFFFFFFFFFFFFFFFFFFFFFFFFFFF AND DUP2 MSTORE PUSH1 0x20 ADD SWAP1 DUP2 MSTORE PUSH1 0x20 ADD PUSH1 0x0 KECCAK256 SLOAD SWAP1 POP DUP2 DUP2 LT ISZERO PUSH2 0x1481 JUMPI DUP4 DUP2 DUP4 PUSH1 0x40 MLOAD PUSH32 0xD79D596700000000000000000000000000000000000000000000000000000000 DUP2 MSTORE PUSH1 0x4 ADD PUSH2 0x1478 SWAP4 SWAP3 SWAP2 SWAP1 PUSH2 0x1C93 JUMP JUMPDEST PUSH1 0x40 MLOAD DUP1 SWAP2 SUB SWAP1 REVERT JUMPDEST DUP2 DUP2 SUB PUSH1 0x0 DUP1 DUP7 PUSH20 0xFFFFFFFFFFFFFFFFFFFFFFFFFFFFFFFFFFFFFFFF AND PUSH20 0xFFFFFFFFFFFFFFFFFFFFFFFFFFFFFFFFFFFFFFFF AND DUP2 MSTORE PUSH1 0x20 ADD SWAP1 DUP2 MSTORE PUSH1 0x20 ADD PUSH1 0x0 KECCAK256 DUP2 SWAP1 SSTORE POP POP JUMPDEST PUSH1 0x0 PUSH20 0xFFFFFFFFFFFFFFFFFFFFFFFFFFFFFFFFFFFFFFFF AND DUP3 PUSH20 0xFFFFFFFFFFFFFFFFFFFFFFFFFFFFFFFFFFFFFFFF AND SUB PUSH2 0x1511 JUMPI DUP1 PUSH1 0x2 PUSH1 0x0 DUP3 DUP3 SLOAD SUB SWAP3 POP POP DUP2 SWAP1 SSTORE POP PUSH2 0x155E JUMP JUMPDEST DUP1 PUSH1 0x0 DUP1 DUP5 PUSH20 0xFFFFFFFFFFFFFFFFFFFFFFFFFFFFFFFFFFFFFFFF AND PUSH20 0xFFFFFFFFFFFFFFFFFFFFFFFFFFFFFFFFFFFFFFFF AND DUP2 MSTORE PUSH1 0x20 ADD SWAP1 DUP2 MSTORE PUSH1 0x20 ADD PUSH1 0x0 KECCAK256 PUSH1 0x0 DUP3 DUP3 SLOAD ADD SWAP3 POP POP DUP2 SWAP1 SSTORE POP JUMPDEST DUP2 PUSH20 0xFFFFFFFFFFFFFFFFFFFFFFFFFFFFFFFFFFFFFFFF AND DUP4 PUSH20 0xFFFFFFFFFFFFFFFFFFFFFFFFFFFFFFFFFFFFFFFF AND PUSH32 0xDDF252AD1BE2C89B69C2B068FC378DAA952BA7F163C4A11628F55A4DF523B3EF DUP4 PUSH1 0x40 MLOAD PUSH2 0x15BB SWAP2 SWAP1 PUSH2 0x1798 JUMP JUMPDEST PUSH1 0x40 MLOAD DUP1 SWAP2 SUB SWAP1 LOG3 POP POP POP JUMP JUMPDEST PUSH1 0x0 DUP2 MLOAD SWAP1 POP SWAP2 SWAP1 POP JUMP JUMPDEST PUSH1 0x0 DUP3 DUP3 MSTORE PUSH1 0x20 DUP3 ADD SWAP1 POP SWAP3 SWAP2 POP POP JUMP JUMPDEST PUSH1 0x0 JUMPDEST DUP4 DUP2 LT ISZERO PUSH2 0x1602 JUMPI DUP1 DUP3 ADD MLOAD DUP2 DUP5 ADD MSTORE PUSH1 0x20 DUP2 ADD SWAP1 POP PUSH2 0x15E7 JUMP JUMPDEST PUSH1 0x0 DUP5 DUP5 ADD MSTORE POP POP POP POP JUMP JUMPDEST PUSH1 0x0 PUSH1 0x1F NOT PUSH1 0x1F DUP4 ADD AND SWAP1 POP SWAP2 SWAP1 POP JUMP JUMPDEST PUSH1 0x0 PUSH2 0x162A DUP3 PUSH2 0x15C8 JUMP JUMPDEST PUSH2 0x1634 DUP2 DUP6 PUSH2 0x15D3 JUMP JUMPDEST SWAP4 POP PUSH2 0x1644 DUP2 DUP6 PUSH1 0x20 DUP7 ADD PUSH2 0x15E4 JUMP JUMPDEST PUSH2 0x164D DUP2 PUSH2 0x160E JUMP JUMPDEST DUP5 ADD SWAP2 POP POP SWAP3 SWAP2 POP POP JUMP JUMPDEST PUSH1 0x0 PUSH1 0x20 DUP3 ADD SWAP1 POP DUP2 DUP2 SUB PUSH1 0x0 DUP4 ADD MSTORE PUSH2 0x1672 DUP2 DUP5 PUSH2 0x161F JUMP JUMPDEST SWAP1 POP SWAP3 SWAP2 POP POP JUMP JUMPDEST PUSH1 0x0 DUP1 REVERT JUMPDEST PUSH1 0x0 PUSH20 0xFFFFFFFFFFFFFFFFFFFFFFFFFFFFFFFFFFFFFFFF DUP3 AND SWAP1 POP SWAP2 SWAP1 POP JUMP JUMPDEST PUSH1 0x0 PUSH2 0x16AA DUP3 PUSH2 0x167F JUMP JUMPDEST SWAP1 POP SWAP2 SWAP1 POP JUMP JUMPDEST PUSH2 0x16BA DUP2 PUSH2 0x169F JUMP JUMPDEST DUP2 EQ PUSH2 0x16C5 JUMPI PUSH1 0x0 DUP1 REVERT JUMPDEST POP JUMP JUMPDEST PUSH1 0x0 DUP2 CALLDATALOAD SWAP1 POP PUSH2 0x16D7 DUP2 PUSH2 0x16B1 JUMP JUMPDEST SWAP3 SWAP2 POP POP JUMP JUMPDEST PUSH1 0x0 DUP2 SWAP1 POP SWAP2 SWAP1 POP JUMP JUMPDEST PUSH2 0x16F0 DUP2 PUSH2 0x16DD JUMP JUMPDEST DUP2 EQ PUSH2 0x16FB JUMPI PUSH1 0x0 DUP1 REVERT JUMPDEST POP JUMP JUMPDEST PUSH1 0x0 DUP2 CALLDATALOAD SWAP1 POP PUSH2 0x170D DUP2 PUSH2 0x16E7 JUMP JUMPDEST SWAP3 SWAP2 POP POP JUMP JUMPDEST PUSH1 0x0 DUP1 PUSH1 0x40 DUP4 DUP6 SUB SLT ISZERO PUSH2 0x172A JUMPI PUSH2 0x1729 PUSH2 0x167A JUMP JUMPDEST JUMPDEST PUSH1 0x0 PUSH2 0x1738 DUP6 DUP3 DUP7 ADD PUSH2 0x16C8 JUMP JUMPDEST SWAP3 POP POP PUSH1 0x20 PUSH2 0x1749 DUP6 DUP3 DUP7 ADD PUSH2 0x16FE JUMP JUMPDEST SWAP2 POP POP SWAP3 POP SWAP3 SWAP1 POP JUMP JUMPDEST PUSH1 0x0 DUP2 ISZERO ISZERO SWAP1 POP SWAP2 SWAP1 POP JUMP JUMPDEST PUSH2 0x1768 DUP2 PUSH2 0x1753 JUMP JUMPDEST DUP3 MSTORE POP POP JUMP JUMPDEST PUSH1 0x0 PUSH1 0x20 DUP3 ADD SWAP1 POP PUSH2 0x1783 PUSH1 0x0 DUP4 ADD DUP5 PUSH2 0x175F JUMP JUMPDEST SWAP3 SWAP2 POP POP JUMP JUMPDEST PUSH2 0x1792 DUP2 PUSH2 0x16DD JUMP JUMPDEST DUP3 MSTORE POP POP JUMP JUMPDEST PUSH1 0x0 PUSH1 0x20 DUP3 ADD SWAP1 POP PUSH2 0x17AD PUSH1 0x0 DUP4 ADD DUP5 PUSH2 0x1789 JUMP JUMPDEST SWAP3 SWAP2 POP POP JUMP JUMPDEST PUSH1 0x0 DUP1 PUSH1 0x0 PUSH1 0x60 DUP5 DUP7 SUB SLT ISZERO PUSH2 0x17CC JUMPI PUSH2 0x17CB PUSH2 0x167A JUMP JUMPDEST JUMPDEST PUSH1 0x0 PUSH2 0x17DA DUP7 DUP3 DUP8 ADD PUSH2 0x16C8 JUMP JUMPDEST SWAP4 POP POP PUSH1 0x20 PUSH2 0x17EB DUP7 DUP3 DUP8 ADD PUSH2 0x16C8 JUMP JUMPDEST SWAP3 POP POP PUSH1 0x40 PUSH2 0x17FC DUP7 DUP3 DUP8 ADD PUSH2 0x16FE JUMP JUMPDEST SWAP2 POP POP SWAP3 POP SWAP3 POP SWAP3 JUMP JUMPDEST PUSH1 0x0 PUSH1 0x20 DUP3 DUP5 SUB SLT ISZERO PUSH2 0x181C JUMPI PUSH2 0x181B PUSH2 0x167A JUMP JUMPDEST JUMPDEST PUSH1 0x0 PUSH2 0x182A DUP5 DUP3 DUP6 ADD PUSH2 0x16C8 JUMP JUMPDEST SWAP2 POP POP SWAP3 SWAP2 POP POP JUMP JUMPDEST PUSH1 0x0 PUSH1 0xFF DUP3 AND SWAP1 POP SWAP2 SWAP1 POP JUMP JUMPDEST PUSH2 0x1849 DUP2 PUSH2 0x1833 JUMP JUMPDEST DUP3 MSTORE POP POP JUMP JUMPDEST PUSH1 0x0 PUSH1 0x20 DUP3 ADD SWAP1 POP PUSH2 0x1864 PUSH1 0x0 DUP4 ADD DUP5 PUSH2 0x1840 JUMP JUMPDEST SWAP3 SWAP2 POP POP JUMP JUMPDEST PUSH1 0x0 PUSH1 0x20 DUP3 DUP5 SUB SLT ISZERO PUSH2 0x1880 JUMPI PUSH2 0x187F PUSH2 0x167A JUMP JUMPDEST JUMPDEST PUSH1 0x0 PUSH2 0x188E DUP5 DUP3 DUP6 ADD PUSH2 0x16FE JUMP JUMPDEST SWAP2 POP POP SWAP3 SWAP2 POP POP JUMP JUMPDEST PUSH1 0x0 DUP1 PUSH1 0x40 DUP4 DUP6 SUB SLT ISZERO PUSH2 0x18AE JUMPI PUSH2 0x18AD PUSH2 0x167A JUMP JUMPDEST JUMPDEST PUSH1 0x0 PUSH2 0x18BC DUP6 DUP3 DUP7 ADD PUSH2 0x16C8 JUMP JUMPDEST SWAP3 POP POP PUSH1 0x20 PUSH2 0x18CD DUP6 DUP3 DUP7 ADD PUSH2 0x16C8 JUMP JUMPDEST SWAP2 POP POP SWAP3 POP SWAP3 SWAP1 POP JUMP JUMPDEST PUSH32 0x4E487B7100000000000000000000000000000000000000000000000000000000 PUSH1 0x0 MSTORE PUSH1 0x22 PUSH1 0x4 MSTORE PUSH1 0x24 PUSH1 0x0 REVERT JUMPDEST PUSH1 0x0 PUSH1 0x2 DUP3 DIV SWAP1 POP PUSH1 0x1 DUP3 AND DUP1 PUSH2 0x191E JUMPI PUSH1 0x7F DUP3 AND SWAP2 POP JUMPDEST PUSH1 0x20 DUP3 LT DUP2 SUB PUSH2 0x1931 JUMPI PUSH2 0x1930 PUSH2 0x18D7 JUMP JUMPDEST JUMPDEST POP SWAP2 SWAP1 POP JUMP JUMPDEST PUSH32 0x5061757361626C653A2070617573656400000000000000000000000000000000 PUSH1 0x0 DUP3 ADD MSTORE POP JUMP JUMPDEST PUSH1 0x0 PUSH2 0x196D PUSH1 0x10 DUP4 PUSH2 0x15D3 JUMP JUMPDEST SWAP2 POP PUSH2 0x1978 DUP3 PUSH2 0x1937 JUMP JUMPDEST PUSH1 0x20 DUP3 ADD SWAP1 POP SWAP2 SWAP1 POP JUMP JUMPDEST PUSH1 0x0 PUSH1 0x20 DUP3 ADD SWAP1 POP DUP2 DUP2 SUB PUSH1 0x0 DUP4 ADD MSTORE PUSH2 0x199C DUP2 PUSH2 0x1960 JUMP JUMPDEST SWAP1 POP SWAP2 SWAP1 POP JUMP JUMPDEST PUSH32 0x4F6E6C792074686520636F6E7472616374206F776E65722063616E2063616C6C PUSH1 0x0 DUP3 ADD MSTORE PUSH32 0x20746869732066756E6374696F6E000000000000000000000000000000000000 PUSH1 0x20 DUP3 ADD MSTORE POP JUMP JUMPDEST PUSH1 0x0 PUSH2 0x19FF PUSH1 0x2E DUP4 PUSH2 0x15D3 JUMP JUMPDEST SWAP2 POP PUSH2 0x1A0A DUP3 PUSH2 0x19A3 JUMP JUMPDEST PUSH1 0x40 DUP3 ADD SWAP1 POP SWAP2 SWAP1 POP JUMP JUMPDEST PUSH1 0x0 PUSH1 0x20 DUP3 ADD SWAP1 POP DUP2 DUP2 SUB PUSH1 0x0 DUP4 ADD MSTORE PUSH2 0x1A2E DUP2 PUSH2 0x19F2 JUMP JUMPDEST SWAP1 POP SWAP2 SWAP1 POP JUMP JUMPDEST PUSH32 0x4E487B7100000000000000000000000000000000000000000000000000000000 PUSH1 0x0 MSTORE PUSH1 0x11 PUSH1 0x4 MSTORE PUSH1 0x24 PUSH1 0x0 REVERT JUMPDEST PUSH1 0x0 PUSH2 0x1A6F DUP3 PUSH2 0x16DD JUMP JUMPDEST SWAP2 POP PUSH2 0x1A7A DUP4 PUSH2 0x16DD JUMP JUMPDEST SWAP3 POP DUP3 DUP3 ADD SWAP1 POP DUP1 DUP3 GT ISZERO PUSH2 0x1A92 JUMPI PUSH2 0x1A91 PUSH2 0x1A35 JUMP JUMPDEST JUMPDEST SWAP3 SWAP2 POP POP JUMP JUMPDEST PUSH2 0x1AA1 DUP2 PUSH2 0x169F JUMP JUMPDEST DUP3 MSTORE POP POP JUMP JUMPDEST PUSH1 0x0 PUSH1 0x40 DUP3 ADD SWAP1 POP PUSH2 0x1ABC PUSH1 0x0 DUP4 ADD DUP6 PUSH2 0x1A98 JUMP JUMPDEST PUSH2 0x1AC9 PUSH1 0x20 DUP4 ADD DUP5 PUSH2 0x1789 JUMP JUMPDEST SWAP4 SWAP3 POP POP POP JUMP JUMPDEST PUSH2 0x1AD9 DUP2 PUSH2 0x1753 JUMP JUMPDEST DUP2 EQ PUSH2 0x1AE4 JUMPI PUSH1 0x0 DUP1 REVERT JUMPDEST POP JUMP JUMPDEST PUSH1 0x0 DUP2 MLOAD SWAP1 POP PUSH2 0x1AF6 DUP2 PUSH2 0x1AD0 JUMP JUMPDEST SWAP3 SWAP2 POP POP JUMP JUMPDEST PUSH1 0x0 PUSH1 0x20 DUP3 DUP5 SUB SLT ISZERO PUSH2 0x1B12 JUMPI PUSH2 0x1B11 PUSH2 0x167A JUMP JUMPDEST JUMPDEST PUSH1 0x0 PUSH2 0x1B20 DUP5 DUP3 DUP6 ADD PUSH2 0x1AE7 JUMP JUMPDEST SWAP2 POP POP SWAP3 SWAP2 POP POP JUMP JUMPDEST PUSH32 0x4F6E6C792074686520666C617368206C6F616E20636F6E7472616374206F7220 PUSH1 0x0 DUP3 ADD MSTORE PUSH32 0x746865206F776E65722063616E206D696E7420746F6B656E7300000000000000 PUSH1 0x20 DUP3 ADD MSTORE POP JUMP JUMPDEST PUSH1 0x0 PUSH2 0x1B85 PUSH1 0x39 DUP4 PUSH2 0x15D3 JUMP JUMPDEST SWAP2 POP PUSH2 0x1B90 DUP3 PUSH2 0x1B29 JUMP JUMPDEST PUSH1 0x40 DUP3 ADD SWAP1 POP SWAP2 SWAP1 POP JUMP JUMPDEST PUSH1 0x0 PUSH1 0x20 DUP3 ADD SWAP1 POP DUP2 DUP2 SUB PUSH1 0x0 DUP4 ADD MSTORE PUSH2 0x1BB4 DUP2 PUSH2 0x1B78 JUMP JUMPDEST SWAP1 POP SWAP2 SWAP1 POP JUMP JUMPDEST PUSH32 0x45524332303A20616C6C6F77616E63652062656C6F77207A65726F0000000000 PUSH1 0x0 DUP3 ADD MSTORE POP JUMP JUMPDEST PUSH1 0x0 PUSH2 0x1BF1 PUSH1 0x1B DUP4 PUSH2 0x15D3 JUMP JUMPDEST SWAP2 POP PUSH2 0x1BFC DUP3 PUSH2 0x1BBB JUMP JUMPDEST PUSH1 0x20 DUP3 ADD SWAP1 POP SWAP2 SWAP1 POP JUMP JUMPDEST PUSH1 0x0 PUSH1 0x20 DUP3 ADD SWAP1 POP DUP2 DUP2 SUB PUSH1 0x0 DUP4 ADD MSTORE PUSH2 0x1C20 DUP2 PUSH2 0x1BE4 JUMP JUMPDEST SWAP1 POP SWAP2 SWAP1 POP JUMP JUMPDEST PUSH32 0x4E6577206F776E657220697320746865207A65726F2061646472657373000000 PUSH1 0x0 DUP3 ADD MSTORE POP JUMP JUMPDEST PUSH1 0x0 PUSH2 0x1C5D PUSH1 0x1D DUP4 PUSH2 0x15D3 JUMP JUMPDEST SWAP2 POP PUSH2 0x1C68 DUP3 PUSH2 0x1C27 JUMP JUMPDEST PUSH1 0x20 DUP3 ADD SWAP1 POP SWAP2 SWAP1 POP JUMP JUMPDEST PUSH1 0x0 PUSH1 0x20 DUP3 ADD SWAP1 POP DUP2 DUP2 SUB PUSH1 0x0 DUP4 ADD MSTORE PUSH2 0x1C8C DUP2 PUSH2 0x1C50 JUMP JUMPDEST SWAP1 POP SWAP2 SWAP1 POP JUMP JUMPDEST PUSH1 0x0 PUSH1 0x60 DUP3 ADD SWAP1 POP PUSH2 0x1CA8 PUSH1 0x0 DUP4 ADD DUP7 PUSH2 0x1A98 JUMP JUMPDEST PUSH2 0x1CB5 PUSH1 0x20 DUP4 ADD DUP6 PUSH2 0x1789 JUMP JUMPDEST PUSH2 0x1CC2 PUSH1 0x40 DUP4 ADD DUP5 PUSH2 0x1789 JUMP JUMPDEST SWAP5 SWAP4 POP POP POP POP JUMP JUMPDEST PUSH1 0x0 PUSH1 0x20 DUP3 ADD SWAP1 POP PUSH2 0x1CDF PUSH1 0x0 DUP4 ADD DUP5 PUSH2 0x1A98 JUMP JUMPDEST SWAP3 SWAP2 POP POP JUMP JUMPDEST PUSH32 0x45524332303A204D6178696D756D20737570706C792072656163686564000000 PUSH1 0x0 DUP3 ADD MSTORE POP JUMP JUMPDEST PUSH1 0x0 PUSH2 0x1D1B PUSH1 0x1D DUP4 PUSH2 0x15D3 JUMP JUMPDEST SWAP2 POP PUSH2 0x1D26 DUP3 PUSH2 0x1CE5 JUMP JUMPDEST PUSH1 0x20 DUP3 ADD SWAP1 POP SWAP2 SWAP1 POP JUMP JUMPDEST PUSH1 0x0 PUSH1 0x20 DUP3 ADD SWAP1 POP DUP2 DUP2 SUB PUSH1 0x0 DUP4 ADD MSTORE PUSH2 0x1D4A DUP2 PUSH2 0x1D0E JUMP JUMPDEST SWAP1 POP SWAP2 SWAP1 POP JUMP INVALID LOG2 PUSH5 0x6970667358 0x22 SLT KECCAK256 GAS SDIV 0xF9 0x2E 0xD1 0xAB 0xB6 PUSH31 0x7F05315AB924506C1105C417EAA1F6B0D8C43795C4EA780D64736F6C634300 ADDMOD SHL STOP CALLER "
				},
				"gasEstimates": {
					"creation": {
						"codeDepositCost": "1511800",
						"executionCost": "infinite",
						"totalCost": "infinite"
					},
					"external": {
						"allowance(address,address)": "infinite",
						"approve(address,uint256)": "infinite",
						"balanceOf(address)": "2864",
						"burn(uint256)": "infinite",
						"decimals()": "388",
						"decreaseAllowance(address,uint256)": "infinite",
						"increaseAllowance(address,uint256)": "infinite",
						"maxSupply()": "2503",
						"mint(uint256)": "infinite",
						"name()": "infinite",
						"pause()": "26676",
						"recoverERC20(address,uint256)": "infinite",
						"setFlashLoanContract(address)": "26915",
						"symbol()": "infinite",
						"totalSupply()": "2505",
						"transfer(address,uint256)": "infinite",
						"transferFrom(address,address,uint256)": "infinite",
						"transferOwnership(address)": "27037",
						"unpause()": "26720"
					},
					"internal": {
						"_approve(address,address,uint256)": "infinite",
						"_approve(address,address,uint256,bool)": "infinite",
						"_burn(address,uint256)": "infinite",
						"_mint(address,uint256)": "infinite",
						"_spendAllowance(address,address,uint256)": "infinite",
						"_transfer(address,address,uint256)": "infinite",
						"_update(address,address,uint256)": "infinite"
					}
				},
				"methodIdentifiers": {
					"allowance(address,address)": "dd62ed3e",
					"approve(address,uint256)": "095ea7b3",
					"balanceOf(address)": "70a08231",
					"burn(uint256)": "42966c68",
					"decimals()": "313ce567",
					"decreaseAllowance(address,uint256)": "a457c2d7",
					"increaseAllowance(address,uint256)": "39509351",
					"maxSupply()": "d5abeb01",
					"mint(uint256)": "a0712d68",
					"name()": "06fdde03",
					"pause()": "8456cb59",
					"recoverERC20(address,uint256)": "8980f11f",
					"setFlashLoanContract(address)": "2a52940d",
					"symbol()": "95d89b41",
					"totalSupply()": "18160ddd",
					"transfer(address,uint256)": "a9059cbb",
					"transferFrom(address,address,uint256)": "23b872dd",
					"transferOwnership(address)": "f2fde38b",
					"unpause()": "3f4ba83a"
				}
			},
			"storageLayout": {
				"storage": [
					{
						"astId": 129,
						"contract": "tronweb/contracts/USDTFlash_TRC20.sol:USDTFlash",
						"label": "_balances",
						"offset": 0,
						"slot": "0",
						"type": "t_mapping(t_address,t_uint256)"
					},
					{
						"astId": 135,
						"contract": "tronweb/contracts/USDTFlash_TRC20.sol:USDTFlash",
						"label": "_allowances",
						"offset": 0,
						"slot": "1",
						"type": "t_mapping(t_address,t_mapping(t_address,t_uint256))"
					},
					{
						"astId": 137,
						"contract": "tronweb/contracts/USDTFlash_TRC20.sol:USDTFlash",
						"label": "_totalSupply",
						"offset": 0,
						"slot": "2",
						"type": "t_uint256"
					},
					{
						"astId": 139,
						"contract": "tronweb/contracts/USDTFlash_TRC20.sol:USDTFlash",
						"label": "_maxSupply",
						"offset": 0,
						"slot": "3",
						"type": "t_uint256"
					},
					{
						"astId": 141,
						"contract": "tronweb/contracts/USDTFlash_TRC20.sol:USDTFlash",
						"label": "_name",
						"offset": 0,
						"slot": "4",
						"type": "t_string_storage"
					},
					{
						"astId": 143,
						"contract": "tronweb/contracts/USDTFlash_TRC20.sol:USDTFlash",
						"label": "_symbol",
						"offset": 0,
						"slot": "5",
						"type": "t_string_storage"
					},
					{
						"astId": 145,
						"contract": "tronweb/contracts/USDTFlash_TRC20.sol:USDTFlash",
						"label": "_owner",
						"offset": 0,
						"slot": "6",
						"type": "t_address"
					},
					{
						"astId": 147,
						"contract": "tronweb/contracts/USDTFlash_TRC20.sol:USDTFlash",
						"label": "_flashLoanContract",
						"offset": 0,
						"slot": "7",
						"type": "t_address"
					},
					{
						"astId": 149,
						"contract": "tronweb/contracts/USDTFlash_TRC20.sol:USDTFlash",
						"label": "_paused",
						"offset": 20,
						"slot": "7",
						"type": "t_bool"
					}
				],
				"types": {
					"t_address": {
						"encoding": "inplace",
						"label": "address",
						"numberOfBytes": "20"
					},
					"t_bool": {
						"encoding": "inplace",
						"label": "bool",
						"numberOfBytes": "1"
					},
					"t_mapping(t_address,t_mapping(t_address,t_uint256))": {
						"encoding": "mapping",
						"key": "t_address",
						"label": "mapping(address => mapping(address => uint256))",
						"numberOfBytes": "32",
						"value": "t_mapping(t_address,t_uint256)"
					},
					"t_mapping(t_address,t_uint256)": {
						"encoding": "mapping",
						"key": "t_address",
						"label": "mapping(address => uint256)",
						"numberOfBytes": "32",
						"value": "t_uint256"
					},
					"t_string_storage": {
						"encoding": "bytes",
						"label": "string",
						"numberOfBytes": "32"
					},
					"t_uint256": {
						"encoding": "inplace",
						"label": "uint256",
						"numberOfBytes": "32"
					}
				}
			},
			"userdoc": {
				"kind": "user",
				"methods": {},
				"version": 1
			}
		}
	}
}