{
	"FlashLoanAave/contracts/FlashLoan.sol": {
		"FlashLoanArbitrage": {
			"abi": [
				{
					"inputs": [
						{
							"internalType": "address",
							"name": "_addressProvider",
							"type": "address"
						}
					],
					"stateMutability": "nonpayable",
					"type": "constructor"
				},
				{
					"anonymous": false,
					"inputs": [
						{
							"indexed": false,
							"internalType": "address",
							"name": "owner",
							"type": "address"
						}
					],
					"name": "ContractDeployed",
					"type": "event"
				},
				{
					"inputs": [],
					"name": "ADDRESSES_PROVIDER",
					"outputs": [
						{
							"internalType": "contract IPoolAddressesProvider",
							"name": "",
							"type": "address"
						}
					],
					"stateMutability": "view",
					"type": "function"
				},
				{
					"inputs": [],
					"name": "POOL",
					"outputs": [
						{
							"internalType": "contract IPool",
							"name": "",
							"type": "address"
						}
					],
					"stateMutability": "view",
					"type": "function"
				},
				{
					"inputs": [
						{
							"internalType": "address",
							"name": "asset",
							"type": "address"
						},
						{
							"internalType": "uint256",
							"name": "amount",
							"type": "uint256"
						},
						{
							"internalType": "uint256",
							"name": "premium",
							"type": "uint256"
						},
						{
							"internalType": "address",
							"name": "initiator",
							"type": "address"
						},
						{
							"internalType": "bytes",
							"name": "params",
							"type": "bytes"
						}
					],
					"name": "executeOperation",
					"outputs": [
						{
							"internalType": "bool",
							"name": "",
							"type": "bool"
						}
					],
					"stateMutability": "nonpayable",
					"type": "function"
				},
				{
					"inputs": [
						{
							"internalType": "address",
							"name": "_tokenAddress",
							"type": "address"
						}
					],
					"name": "getBalance",
					"outputs": [
						{
							"internalType": "uint256",
							"name": "",
							"type": "uint256"
						}
					],
					"stateMutability": "view",
					"type": "function"
				},
				{
					"inputs": [
						{
							"internalType": "address",
							"name": "_token",
							"type": "address"
						},
						{
							"internalType": "uint256",
							"name": "_amount",
							"type": "uint256"
						}
					],
					"name": "requestFlashLoan",
					"outputs": [],
					"stateMutability": "nonpayable",
					"type": "function"
				},
				{
					"inputs": [
						{
							"internalType": "address",
							"name": "_tokenAddress",
							"type": "address"
						}
					],
					"name": "withdraw",
					"outputs": [],
					"stateMutability": "nonpayable",
					"type": "function"
				},
				{
					"stateMutability": "payable",
					"type": "receive"
				}
			],
			"devdoc": {
				"kind": "dev",
				"methods": {
					"executeOperation(address,uint256,uint256,address,bytes)": {
						"details": "Ensure that the contract can return the debt + premium, e.g., has      enough funds to repay and has approved the Pool to pull the total amount",
						"params": {
							"amount": "The amount of the flash-borrowed asset",
							"asset": "The address of the flash-borrowed asset",
							"initiator": "The address of the flashloan initiator",
							"params": "The byte-encoded params passed when initiating the flashloan",
							"premium": "The fee of the flash-borrowed asset"
						},
						"returns": {
							"_0": "True if the execution of the operation succeeds, false otherwise"
						}
					}
				},
				"version": 1
			},
			"evm": {
				"assembly": "    /* \"FlashLoanAave/contracts/FlashLoan.sol\":523:2500  contract FlashLoanArbitrage is FlashLoanSimpleReceiverBase {... */\n  mstore(0x40, 0xc0)\n    /* \"FlashLoanAave/contracts/FlashLoan.sol\":660:850  constructor(address _addressProvider) FlashLoanSimpleReceiverBase(IPoolAddressesProvider(_addressProvider)) {... */\n  callvalue\n  dup1\n  iszero\n  tag_1\n  jumpi\n  revert(0x00, 0x00)\ntag_1:\n  pop\n  mload(0x40)\n  sub(codesize, bytecodeSize)\n  dup1\n  bytecodeSize\n  dup4\n  codecopy\n  dup2\n  dup2\n  add\n  0x40\n  mstore\n  dup2\n  add\n  swap1\n  tag_2\n  swap2\n  swap1\n  tag_3\n  jump\t// in\ntag_2:\n    /* \"FlashLoanAave/contracts/FlashLoan.sol\":749:765  _addressProvider */\n  dup1\n    /* \"https://github.com/aave-dao/aave-v3-origin/blob/main/src/core/contracts/flashloan/base/FlashLoanSimpleReceiverBase.sol\":669:677  provider */\n  dup1\n    /* \"https://github.com/aave-dao/aave-v3-origin/blob/main/src/core/contracts/flashloan/base/FlashLoanSimpleReceiverBase.sol\":648:677  ADDRESSES_PROVIDER = provider */\n  0xffffffffffffffffffffffffffffffffffffffff\n  and\n  0x80\n  dup2\n  0xffffffffffffffffffffffffffffffffffffffff\n  and\n  dup2\n  mstore\n  pop\n  pop\n    /* \"https://github.com/aave-dao/aave-v3-origin/blob/main/src/core/contracts/flashloan/base/FlashLoanSimpleReceiverBase.sol\":696:704  provider */\n  dup1\n    /* \"https://github.com/aave-dao/aave-v3-origin/blob/main/src/core/contracts/flashloan/base/FlashLoanSimpleReceiverBase.sol\":696:712  provider.getPool */\n  0xffffffffffffffffffffffffffffffffffffffff\n  and\n  0x026b1d5f\n    /* \"https://github.com/aave-dao/aave-v3-origin/blob/main/src/core/contracts/flashloan/base/FlashLoanSimpleReceiverBase.sol\":696:714  provider.getPool() */\n  mload(0x40)\n  dup2\n  0xffffffff\n  and\n  0xe0\n  shl\n  dup2\n  mstore\n  0x04\n  add\n  0x20\n  mload(0x40)\n  dup1\n  dup4\n  sub\n  dup2\n  dup7\n  gas\n  staticcall\n  iszero\n  dup1\n  iszero\n  tag_8\n  jumpi\n  returndatacopy(0x00, 0x00, returndatasize)\n  revert(0x00, returndatasize)\ntag_8:\n  pop\n  pop\n  pop\n  pop\n  mload(0x40)\n  returndatasize\n  not(0x1f)\n  0x1f\n  dup3\n  add\n  and\n  dup3\n  add\n  dup1\n  0x40\n  mstore\n  pop\n  dup2\n  add\n  swap1\n  tag_9\n  swap2\n  swap1\n  tag_3\n  jump\t// in\ntag_9:\n    /* \"https://github.com/aave-dao/aave-v3-origin/blob/main/src/core/contracts/flashloan/base/FlashLoanSimpleReceiverBase.sol\":683:715  POOL = IPool(provider.getPool()) */\n  0xffffffffffffffffffffffffffffffffffffffff\n  and\n  0xa0\n  dup2\n  0xffffffffffffffffffffffffffffffffffffffff\n  and\n  dup2\n  mstore\n  pop\n  pop\n    /* \"https://github.com/aave-dao/aave-v3-origin/blob/main/src/core/contracts/flashloan/base/FlashLoanSimpleReceiverBase.sol\":597:720  constructor(IPoolAddressesProvider provider) {... */\n  pop\n    /* \"FlashLoanAave/contracts/FlashLoan.sol\":794:804  msg.sender */\n  caller\n    /* \"FlashLoanAave/contracts/FlashLoan.sol\":778:783  owner */\n  0x00\n  0x00\n    /* \"FlashLoanAave/contracts/FlashLoan.sol\":778:805  owner = payable(msg.sender) */\n  0x0100\n  exp\n  dup2\n  sload\n  dup2\n  0xffffffffffffffffffffffffffffffffffffffff\n  mul\n  not\n  and\n  swap1\n  dup4\n  0xffffffffffffffffffffffffffffffffffffffff\n  and\n  mul\n  or\n  swap1\n  sstore\n  pop\n    /* \"FlashLoanAave/contracts/FlashLoan.sol\":820:843  ContractDeployed(owner) */\n  0x8ffcdc15a283d706d38281f500270d8b5a656918f555de0913d7455e3e6bc1bf\n    /* \"FlashLoanAave/contracts/FlashLoan.sol\":837:842  owner */\n  0x00\n  0x00\n  swap1\n  sload\n  swap1\n  0x0100\n  exp\n  swap1\n  div\n  0xffffffffffffffffffffffffffffffffffffffff\n  and\n    /* \"FlashLoanAave/contracts/FlashLoan.sol\":820:843  ContractDeployed(owner) */\n  mload(0x40)\n  tag_11\n  swap2\n  swap1\n  tag_12\n  jump\t// in\ntag_11:\n  mload(0x40)\n  dup1\n  swap2\n  sub\n  swap1\n  log1\n    /* \"FlashLoanAave/contracts/FlashLoan.sol\":660:850  constructor(address _addressProvider) FlashLoanSimpleReceiverBase(IPoolAddressesProvider(_addressProvider)) {... */\n  pop\n    /* \"FlashLoanAave/contracts/FlashLoan.sol\":523:2500  contract FlashLoanArbitrage is FlashLoanSimpleReceiverBase {... */\n  jump(tag_13)\n    /* \"#utility.yul\":88:205   */\ntag_15:\n    /* \"#utility.yul\":197:198   */\n  0x00\n    /* \"#utility.yul\":194:195   */\n  0x00\n    /* \"#utility.yul\":187:199   */\n  revert\n    /* \"#utility.yul\":334:460   */\ntag_17:\n    /* \"#utility.yul\":371:378   */\n  0x00\n    /* \"#utility.yul\":411:453   */\n  0xffffffffffffffffffffffffffffffffffffffff\n    /* \"#utility.yul\":404:409   */\n  dup3\n    /* \"#utility.yul\":400:454   */\n  and\n    /* \"#utility.yul\":389:454   */\n  swap1\n  pop\n    /* \"#utility.yul\":334:460   */\n  swap2\n  swap1\n  pop\n  jump\t// out\n    /* \"#utility.yul\":466:562   */\ntag_18:\n    /* \"#utility.yul\":503:510   */\n  0x00\n    /* \"#utility.yul\":532:556   */\n  tag_32\n    /* \"#utility.yul\":550:555   */\n  dup3\n    /* \"#utility.yul\":532:556   */\n  tag_17\n  jump\t// in\ntag_32:\n    /* \"#utility.yul\":521:556   */\n  swap1\n  pop\n    /* \"#utility.yul\":466:562   */\n  swap2\n  swap1\n  pop\n  jump\t// out\n    /* \"#utility.yul\":568:690   */\ntag_19:\n    /* \"#utility.yul\":641:665   */\n  tag_34\n    /* \"#utility.yul\":659:664   */\n  dup2\n    /* \"#utility.yul\":641:665   */\n  tag_18\n  jump\t// in\ntag_34:\n    /* \"#utility.yul\":634:639   */\n  dup2\n    /* \"#utility.yul\":631:666   */\n  eq\n    /* \"#utility.yul\":621:684   */\n  tag_35\n  jumpi\n    /* \"#utility.yul\":680:681   */\n  0x00\n    /* \"#utility.yul\":677:678   */\n  0x00\n    /* \"#utility.yul\":670:682   */\n  revert\n    /* \"#utility.yul\":621:684   */\ntag_35:\n    /* \"#utility.yul\":568:690   */\n  pop\n  jump\t// out\n    /* \"#utility.yul\":696:839   */\ntag_20:\n    /* \"#utility.yul\":753:758   */\n  0x00\n    /* \"#utility.yul\":784:790   */\n  dup2\n    /* \"#utility.yul\":778:791   */\n  mload\n    /* \"#utility.yul\":769:791   */\n  swap1\n  pop\n    /* \"#utility.yul\":800:833   */\n  tag_37\n    /* \"#utility.yul\":827:832   */\n  dup2\n    /* \"#utility.yul\":800:833   */\n  tag_19\n  jump\t// in\ntag_37:\n    /* \"#utility.yul\":696:839   */\n  swap3\n  swap2\n  pop\n  pop\n  jump\t// out\n    /* \"#utility.yul\":845:1196   */\ntag_3:\n    /* \"#utility.yul\":915:921   */\n  0x00\n    /* \"#utility.yul\":964:966   */\n  0x20\n    /* \"#utility.yul\":952:961   */\n  dup3\n    /* \"#utility.yul\":943:950   */\n  dup5\n    /* \"#utility.yul\":939:962   */\n  sub\n    /* \"#utility.yul\":935:967   */\n  slt\n    /* \"#utility.yul\":932:1051   */\n  iszero\n  tag_39\n  jumpi\n    /* \"#utility.yul\":970:1049   */\n  tag_40\n  tag_15\n  jump\t// in\ntag_40:\n    /* \"#utility.yul\":932:1051   */\ntag_39:\n    /* \"#utility.yul\":1090:1091   */\n  0x00\n    /* \"#utility.yul\":1115:1179   */\n  tag_41\n    /* \"#utility.yul\":1171:1178   */\n  dup5\n    /* \"#utility.yul\":1162:1168   */\n  dup3\n    /* \"#utility.yul\":1151:1160   */\n  dup6\n    /* \"#utility.yul\":1147:1169   */\n  add\n    /* \"#utility.yul\":1115:1179   */\n  tag_20\n  jump\t// in\ntag_41:\n    /* \"#utility.yul\":1105:1179   */\n  swap2\n  pop\n    /* \"#utility.yul\":1061:1189   */\n  pop\n    /* \"#utility.yul\":845:1196   */\n  swap3\n  swap2\n  pop\n  pop\n  jump\t// out\n    /* \"#utility.yul\":1202:1262   */\ntag_21:\n    /* \"#utility.yul\":1230:1233   */\n  0x00\n    /* \"#utility.yul\":1251:1256   */\n  dup2\n    /* \"#utility.yul\":1244:1256   */\n  swap1\n  pop\n    /* \"#utility.yul\":1202:1262   */\n  swap2\n  swap1\n  pop\n  jump\t// out\n    /* \"#utility.yul\":1268:1410   */\ntag_22:\n    /* \"#utility.yul\":1318:1327   */\n  0x00\n    /* \"#utility.yul\":1351:1404   */\n  tag_44\n    /* \"#utility.yul\":1369:1403   */\n  tag_45\n    /* \"#utility.yul\":1378:1402   */\n  tag_46\n    /* \"#utility.yul\":1396:1401   */\n  dup5\n    /* \"#utility.yul\":1378:1402   */\n  tag_17\n  jump\t// in\ntag_46:\n    /* \"#utility.yul\":1369:1403   */\n  tag_21\n  jump\t// in\ntag_45:\n    /* \"#utility.yul\":1351:1404   */\n  tag_17\n  jump\t// in\ntag_44:\n    /* \"#utility.yul\":1338:1404   */\n  swap1\n  pop\n    /* \"#utility.yul\":1268:1410   */\n  swap2\n  swap1\n  pop\n  jump\t// out\n    /* \"#utility.yul\":1416:1542   */\ntag_23:\n    /* \"#utility.yul\":1466:1475   */\n  0x00\n    /* \"#utility.yul\":1499:1536   */\n  tag_48\n    /* \"#utility.yul\":1530:1535   */\n  dup3\n    /* \"#utility.yul\":1499:1536   */\n  tag_22\n  jump\t// in\ntag_48:\n    /* \"#utility.yul\":1486:1536   */\n  swap1\n  pop\n    /* \"#utility.yul\":1416:1542   */\n  swap2\n  swap1\n  pop\n  jump\t// out\n    /* \"#utility.yul\":1548:1682   */\ntag_24:\n    /* \"#utility.yul\":1606:1615   */\n  0x00\n    /* \"#utility.yul\":1639:1676   */\n  tag_50\n    /* \"#utility.yul\":1670:1675   */\n  dup3\n    /* \"#utility.yul\":1639:1676   */\n  tag_23\n  jump\t// in\ntag_50:\n    /* \"#utility.yul\":1626:1676   */\n  swap1\n  pop\n    /* \"#utility.yul\":1548:1682   */\n  swap2\n  swap1\n  pop\n  jump\t// out\n    /* \"#utility.yul\":1688:1835   */\ntag_25:\n    /* \"#utility.yul\":1783:1828   */\n  tag_52\n    /* \"#utility.yul\":1822:1827   */\n  dup2\n    /* \"#utility.yul\":1783:1828   */\n  tag_24\n  jump\t// in\ntag_52:\n    /* \"#utility.yul\":1778:1781   */\n  dup3\n    /* \"#utility.yul\":1771:1829   */\n  mstore\n    /* \"#utility.yul\":1688:1835   */\n  pop\n  pop\n  jump\t// out\n    /* \"#utility.yul\":1841:2079   */\ntag_12:\n    /* \"#utility.yul\":1942:1946   */\n  0x00\n    /* \"#utility.yul\":1980:1982   */\n  0x20\n    /* \"#utility.yul\":1969:1978   */\n  dup3\n    /* \"#utility.yul\":1965:1983   */\n  add\n    /* \"#utility.yul\":1957:1983   */\n  swap1\n  pop\n    /* \"#utility.yul\":1993:2072   */\n  tag_54\n    /* \"#utility.yul\":2069:2070   */\n  0x00\n    /* \"#utility.yul\":2058:2067   */\n  dup4\n    /* \"#utility.yul\":2054:2071   */\n  add\n    /* \"#utility.yul\":2045:2051   */\n  dup5\n    /* \"#utility.yul\":1993:2072   */\n  tag_25\n  jump\t// in\ntag_54:\n    /* \"#utility.yul\":1841:2079   */\n  swap3\n  swap2\n  pop\n  pop\n  jump\t// out\n    /* \"FlashLoanAave/contracts/FlashLoan.sol\":523:2500  contract FlashLoanArbitrage is FlashLoanSimpleReceiverBase {... */\ntag_13:\n  mload(0x80)\n  mload(0xa0)\n  codecopy(0x00, dataOffset(sub_0), dataSize(sub_0))\n  0x00\n  assignImmutable(\"0x0dfd64029272ae1eec371435db3c91654901e378ddb1520c94b2e8119baa40ed\")\n  0x00\n  assignImmutable(\"0x9b801a2221027b095929f4f801195fa7fd110090ffc3a903806fb6e5e621cea9\")\n  return(0x00, dataSize(sub_0))\nstop\n\nsub_0: assembly {\n        /* \"FlashLoanAave/contracts/FlashLoan.sol\":523:2500  contract FlashLoanArbitrage is FlashLoanSimpleReceiverBase {... */\n      mstore(0x40, 0x80)\n      jumpi(tag_1, lt(calldatasize, 0x04))\n      shr(0xe0, calldataload(0x00))\n      dup1\n      0x0542975c\n      eq\n      tag_3\n      jumpi\n      dup1\n      0x1b11d0ff\n      eq\n      tag_4\n      jumpi\n      dup1\n      0x51cff8d9\n      eq\n      tag_5\n      jumpi\n      dup1\n      0x7535d246\n      eq\n      tag_6\n      jumpi\n      dup1\n      0xd54ba954\n      eq\n      tag_7\n      jumpi\n      dup1\n      0xf8b2cb4f\n      eq\n      tag_8\n      jumpi\n      jump(tag_2)\n    tag_1:\n      jumpi(tag_2, calldatasize)\n      stop\n    tag_2:\n      revert(0x00, 0x00)\n        /* \"https://github.com/aave-dao/aave-v3-origin/blob/main/src/core/contracts/flashloan/base/FlashLoanSimpleReceiverBase.sol\":485:552  IPoolAddressesProvider public immutable override ADDRESSES_PROVIDER */\n    tag_3:\n      callvalue\n      dup1\n      iszero\n      tag_11\n      jumpi\n      revert(0x00, 0x00)\n    tag_11:\n      pop\n      tag_12\n      tag_13\n      jump\t// in\n    tag_12:\n      mload(0x40)\n      tag_14\n      swap2\n      swap1\n      tag_15\n      jump\t// in\n    tag_14:\n      mload(0x40)\n      dup1\n      swap2\n      sub\n      swap1\n      return\n        /* \"FlashLoanAave/contracts/FlashLoan.sol\":856:1593  function executeOperation(... */\n    tag_4:\n      callvalue\n      dup1\n      iszero\n      tag_16\n      jumpi\n      revert(0x00, 0x00)\n    tag_16:\n      pop\n      tag_17\n      0x04\n      dup1\n      calldatasize\n      sub\n      dup2\n      add\n      swap1\n      tag_18\n      swap2\n      swap1\n      tag_19\n      jump\t// in\n    tag_18:\n      tag_20\n      jump\t// in\n    tag_17:\n      mload(0x40)\n      tag_21\n      swap2\n      swap1\n      tag_22\n      jump\t// in\n    tag_21:\n      mload(0x40)\n      dup1\n      swap2\n      sub\n      swap1\n      return\n        /* \"FlashLoanAave/contracts/FlashLoan.sol\":2163:2344  function withdraw(address _tokenAddress) external onlyOwner {... */\n    tag_5:\n      callvalue\n      dup1\n      iszero\n      tag_23\n      jumpi\n      revert(0x00, 0x00)\n    tag_23:\n      pop\n      tag_24\n      0x04\n      dup1\n      calldatasize\n      sub\n      dup2\n      add\n      swap1\n      tag_25\n      swap2\n      swap1\n      tag_26\n      jump\t// in\n    tag_25:\n      tag_27\n      jump\t// in\n    tag_24:\n      stop\n        /* \"https://github.com/aave-dao/aave-v3-origin/blob/main/src/core/contracts/flashloan/base/FlashLoanSimpleReceiverBase.sol\":556:592  IPool public immutable override POOL */\n    tag_6:\n      callvalue\n      dup1\n      iszero\n      tag_28\n      jumpi\n      revert(0x00, 0x00)\n    tag_28:\n      pop\n      tag_29\n      tag_30\n      jump\t// in\n    tag_29:\n      mload(0x40)\n      tag_31\n      swap2\n      swap1\n      tag_32\n      jump\t// in\n    tag_31:\n      mload(0x40)\n      dup1\n      swap2\n      sub\n      swap1\n      return\n        /* \"FlashLoanAave/contracts/FlashLoan.sol\":1599:2006  function requestFlashLoan(address _token, uint256 _amount) public {... */\n    tag_7:\n      callvalue\n      dup1\n      iszero\n      tag_33\n      jumpi\n      revert(0x00, 0x00)\n    tag_33:\n      pop\n      tag_34\n      0x04\n      dup1\n      calldatasize\n      sub\n      dup2\n      add\n      swap1\n      tag_35\n      swap2\n      swap1\n      tag_36\n      jump\t// in\n    tag_35:\n      tag_37\n      jump\t// in\n    tag_34:\n      stop\n        /* \"FlashLoanAave/contracts/FlashLoan.sol\":2012:2157  function getBalance(address _tokenAddress) external view returns (uint256) {... */\n    tag_8:\n      callvalue\n      dup1\n      iszero\n      tag_38\n      jumpi\n      revert(0x00, 0x00)\n    tag_38:\n      pop\n      tag_39\n      0x04\n      dup1\n      calldatasize\n      sub\n      dup2\n      add\n      swap1\n      tag_40\n      swap2\n      swap1\n      tag_26\n      jump\t// in\n    tag_40:\n      tag_41\n      jump\t// in\n    tag_39:\n      mload(0x40)\n      tag_42\n      swap2\n      swap1\n      tag_43\n      jump\t// in\n    tag_42:\n      mload(0x40)\n      dup1\n      swap2\n      sub\n      swap1\n      return\n        /* \"https://github.com/aave-dao/aave-v3-origin/blob/main/src/core/contracts/flashloan/base/FlashLoanSimpleReceiverBase.sol\":485:552  IPoolAddressesProvider public immutable override ADDRESSES_PROVIDER */\n    tag_13:\n      immutable(\"0x9b801a2221027b095929f4f801195fa7fd110090ffc3a903806fb6e5e621cea9\")\n      dup2\n      jump\t// out\n        /* \"FlashLoanAave/contracts/FlashLoan.sol\":856:1593  function executeOperation(... */\n    tag_20:\n        /* \"FlashLoanAave/contracts/FlashLoan.sol\":1045:1049  bool */\n      0x00\n        /* \"FlashLoanAave/contracts/FlashLoan.sol\":1102:1128  address[] memory exchanges */\n      0x00\n        /* \"FlashLoanAave/contracts/FlashLoan.sol\":1130:1149  bytes[] memory data */\n      0x00\n        /* \"FlashLoanAave/contracts/FlashLoan.sol\":1164:1170  params */\n      dup5\n      dup5\n        /* \"FlashLoanAave/contracts/FlashLoan.sol\":1153:1193  abi.decode(params, (address[], bytes[])) */\n      dup2\n      add\n      swap1\n      tag_45\n      swap2\n      swap1\n      tag_46\n      jump\t// in\n    tag_45:\n        /* \"FlashLoanAave/contracts/FlashLoan.sol\":1101:1193  (address[] memory exchanges, bytes[] memory data) = abi.decode(params, (address[], bytes[])) */\n      swap2\n      pop\n      swap2\n      pop\n        /* \"FlashLoanAave/contracts/FlashLoan.sol\":1253:1262  uint256 i */\n      0x00\n        /* \"FlashLoanAave/contracts/FlashLoan.sol\":1265:1266  0 */\n      0x00\n        /* \"FlashLoanAave/contracts/FlashLoan.sol\":1253:1266  uint256 i = 0 */\n      swap1\n      pop\n        /* \"FlashLoanAave/contracts/FlashLoan.sol\":1248:1425  for (uint256 i = 0; i < exchanges.length; i++) {... */\n    tag_47:\n        /* \"FlashLoanAave/contracts/FlashLoan.sol\":1272:1281  exchanges */\n      dup3\n        /* \"FlashLoanAave/contracts/FlashLoan.sol\":1272:1288  exchanges.length */\n      mload\n        /* \"FlashLoanAave/contracts/FlashLoan.sol\":1268:1269  i */\n      dup2\n        /* \"FlashLoanAave/contracts/FlashLoan.sol\":1268:1288  i < exchanges.length */\n      lt\n        /* \"FlashLoanAave/contracts/FlashLoan.sol\":1248:1425  for (uint256 i = 0; i < exchanges.length; i++) {... */\n      iszero\n      tag_48\n      jumpi\n        /* \"FlashLoanAave/contracts/FlashLoan.sol\":1310:1322  bool success */\n      0x00\n        /* \"FlashLoanAave/contracts/FlashLoan.sol\":1328:1337  exchanges */\n      dup4\n        /* \"FlashLoanAave/contracts/FlashLoan.sol\":1338:1339  i */\n      dup3\n        /* \"FlashLoanAave/contracts/FlashLoan.sol\":1328:1340  exchanges[i] */\n      dup2\n      mload\n      dup2\n      lt\n      tag_50\n      jumpi\n      tag_51\n      tag_52\n      jump\t// in\n    tag_51:\n    tag_50:\n      0x20\n      mul\n      0x20\n      add\n      add\n      mload\n        /* \"FlashLoanAave/contracts/FlashLoan.sol\":1328:1345  exchanges[i].call */\n      0xffffffffffffffffffffffffffffffffffffffff\n      and\n        /* \"FlashLoanAave/contracts/FlashLoan.sol\":1346:1350  data */\n      dup4\n        /* \"FlashLoanAave/contracts/FlashLoan.sol\":1351:1352  i */\n      dup4\n        /* \"FlashLoanAave/contracts/FlashLoan.sol\":1346:1353  data[i] */\n      dup2\n      mload\n      dup2\n      lt\n      tag_53\n      jumpi\n      tag_54\n      tag_52\n      jump\t// in\n    tag_54:\n    tag_53:\n      0x20\n      mul\n      0x20\n      add\n      add\n      mload\n        /* \"FlashLoanAave/contracts/FlashLoan.sol\":1328:1354  exchanges[i].call(data[i]) */\n      mload(0x40)\n      tag_55\n      swap2\n      swap1\n      tag_56\n      jump\t// in\n    tag_55:\n      0x00\n      mload(0x40)\n      dup1\n      dup4\n      sub\n      dup2\n      0x00\n      dup7\n      gas\n      call\n      swap2\n      pop\n      pop\n      returndatasize\n      dup1\n      0x00\n      dup2\n      eq\n      tag_59\n      jumpi\n      mload(0x40)\n      swap2\n      pop\n      and(add(returndatasize, 0x3f), not(0x1f))\n      dup3\n      add\n      0x40\n      mstore\n      returndatasize\n      dup3\n      mstore\n      returndatasize\n      0x00\n      0x20\n      dup5\n      add\n      returndatacopy\n      jump(tag_58)\n    tag_59:\n      0x60\n      swap2\n      pop\n    tag_58:\n      pop\n        /* \"FlashLoanAave/contracts/FlashLoan.sol\":1309:1354  (bool success, ) = exchanges[i].call(data[i]) */\n      pop\n      swap1\n      pop\n        /* \"FlashLoanAave/contracts/FlashLoan.sol\":1376:1383  success */\n      dup1\n        /* \"FlashLoanAave/contracts/FlashLoan.sol\":1368:1414  require(success, \"Arbitrage operation failed\") */\n      tag_60\n      jumpi\n      mload(0x40)\n      0x08c379a000000000000000000000000000000000000000000000000000000000\n      dup2\n      mstore\n      0x04\n      add\n      tag_61\n      swap1\n      tag_62\n      jump\t// in\n    tag_61:\n      mload(0x40)\n      dup1\n      swap2\n      sub\n      swap1\n      revert\n    tag_60:\n        /* \"FlashLoanAave/contracts/FlashLoan.sol\":1295:1425  {... */\n      pop\n        /* \"FlashLoanAave/contracts/FlashLoan.sol\":1290:1293  i++ */\n      dup1\n      dup1\n      0x01\n      add\n      swap2\n      pop\n      pop\n        /* \"FlashLoanAave/contracts/FlashLoan.sol\":1248:1425  for (uint256 i = 0; i < exchanges.length; i++) {... */\n      jump(tag_47)\n    tag_48:\n      pop\n        /* \"FlashLoanAave/contracts/FlashLoan.sol\":1467:1486  uint256 amountOwned */\n      0x00\n        /* \"FlashLoanAave/contracts/FlashLoan.sol\":1498:1505  premium */\n      dup8\n        /* \"FlashLoanAave/contracts/FlashLoan.sol\":1489:1495  amount */\n      dup10\n        /* \"FlashLoanAave/contracts/FlashLoan.sol\":1489:1505  amount + premium */\n      tag_63\n      swap2\n      swap1\n      tag_64\n      jump\t// in\n    tag_63:\n        /* \"FlashLoanAave/contracts/FlashLoan.sol\":1467:1505  uint256 amountOwned = amount + premium */\n      swap1\n      pop\n        /* \"FlashLoanAave/contracts/FlashLoan.sol\":1522:1527  asset */\n      dup10\n        /* \"FlashLoanAave/contracts/FlashLoan.sol\":1515:1536  IERC20(asset).approve */\n      0xffffffffffffffffffffffffffffffffffffffff\n      and\n      0x095ea7b3\n        /* \"FlashLoanAave/contracts/FlashLoan.sol\":1545:1549  POOL */\n      immutable(\"0x0dfd64029272ae1eec371435db3c91654901e378ddb1520c94b2e8119baa40ed\")\n        /* \"FlashLoanAave/contracts/FlashLoan.sol\":1552:1563  amountOwned */\n      dup4\n        /* \"FlashLoanAave/contracts/FlashLoan.sol\":1515:1564  IERC20(asset).approve(address(POOL), amountOwned) */\n      mload(0x40)\n      dup4\n      0xffffffff\n      and\n      0xe0\n      shl\n      dup2\n      mstore\n      0x04\n      add\n      tag_65\n      swap3\n      swap2\n      swap1\n      tag_66\n      jump\t// in\n    tag_65:\n      0x20\n      mload(0x40)\n      dup1\n      dup4\n      sub\n      dup2\n      0x00\n      dup8\n      gas\n      call\n      iszero\n      dup1\n      iszero\n      tag_68\n      jumpi\n      returndatacopy(0x00, 0x00, returndatasize)\n      revert(0x00, returndatasize)\n    tag_68:\n      pop\n      pop\n      pop\n      pop\n      mload(0x40)\n      returndatasize\n      not(0x1f)\n      0x1f\n      dup3\n      add\n      and\n      dup3\n      add\n      dup1\n      0x40\n      mstore\n      pop\n      dup2\n      add\n      swap1\n      tag_69\n      swap2\n      swap1\n      tag_70\n      jump\t// in\n    tag_69:\n      pop\n        /* \"FlashLoanAave/contracts/FlashLoan.sol\":1582:1586  true */\n      0x01\n        /* \"FlashLoanAave/contracts/FlashLoan.sol\":1575:1586  return true */\n      swap4\n      pop\n      pop\n      pop\n      pop\n        /* \"FlashLoanAave/contracts/FlashLoan.sol\":856:1593  function executeOperation(... */\n      swap7\n      swap6\n      pop\n      pop\n      pop\n      pop\n      pop\n      pop\n      jump\t// out\n        /* \"FlashLoanAave/contracts/FlashLoan.sol\":2163:2344  function withdraw(address _tokenAddress) external onlyOwner {... */\n    tag_27:\n        /* \"FlashLoanAave/contracts/FlashLoan.sol\":2403:2408  owner */\n      0x00\n      0x00\n      swap1\n      sload\n      swap1\n      0x0100\n      exp\n      swap1\n      div\n      0xffffffffffffffffffffffffffffffffffffffff\n      and\n        /* \"FlashLoanAave/contracts/FlashLoan.sol\":2389:2408  msg.sender == owner */\n      0xffffffffffffffffffffffffffffffffffffffff\n      and\n        /* \"FlashLoanAave/contracts/FlashLoan.sol\":2389:2399  msg.sender */\n      caller\n        /* \"FlashLoanAave/contracts/FlashLoan.sol\":2389:2408  msg.sender == owner */\n      0xffffffffffffffffffffffffffffffffffffffff\n      and\n      eq\n        /* \"FlashLoanAave/contracts/FlashLoan.sol\":2381:2445  require(msg.sender == owner, \"Ownable: caller is not the owner\") */\n      tag_72\n      jumpi\n      mload(0x40)\n      0x08c379a000000000000000000000000000000000000000000000000000000000\n      dup2\n      mstore\n      0x04\n      add\n      tag_73\n      swap1\n      tag_74\n      jump\t// in\n    tag_73:\n      mload(0x40)\n      dup1\n      swap2\n      sub\n      swap1\n      revert\n    tag_72:\n        /* \"FlashLoanAave/contracts/FlashLoan.sol\":2233:2245  IERC20 token */\n      0x00\n        /* \"FlashLoanAave/contracts/FlashLoan.sol\":2255:2268  _tokenAddress */\n      dup2\n        /* \"FlashLoanAave/contracts/FlashLoan.sol\":2233:2269  IERC20 token = IERC20(_tokenAddress) */\n      swap1\n      pop\n        /* \"FlashLoanAave/contracts/FlashLoan.sol\":2279:2284  token */\n      dup1\n        /* \"FlashLoanAave/contracts/FlashLoan.sol\":2279:2293  token.transfer */\n      0xffffffffffffffffffffffffffffffffffffffff\n      and\n      0xa9059cbb\n        /* \"FlashLoanAave/contracts/FlashLoan.sol\":2294:2304  msg.sender */\n      caller\n        /* \"FlashLoanAave/contracts/FlashLoan.sol\":2306:2311  token */\n      dup4\n        /* \"FlashLoanAave/contracts/FlashLoan.sol\":2306:2321  token.balanceOf */\n      0xffffffffffffffffffffffffffffffffffffffff\n      and\n      0x70a08231\n        /* \"FlashLoanAave/contracts/FlashLoan.sol\":2330:2334  this */\n      address\n        /* \"FlashLoanAave/contracts/FlashLoan.sol\":2306:2336  token.balanceOf(address(this)) */\n      mload(0x40)\n      dup3\n      0xffffffff\n      and\n      0xe0\n      shl\n      dup2\n      mstore\n      0x04\n      add\n      tag_76\n      swap2\n      swap1\n      tag_77\n      jump\t// in\n    tag_76:\n      0x20\n      mload(0x40)\n      dup1\n      dup4\n      sub\n      dup2\n      dup7\n      gas\n      staticcall\n      iszero\n      dup1\n      iszero\n      tag_79\n      jumpi\n      returndatacopy(0x00, 0x00, returndatasize)\n      revert(0x00, returndatasize)\n    tag_79:\n      pop\n      pop\n      pop\n      pop\n      mload(0x40)\n      returndatasize\n      not(0x1f)\n      0x1f\n      dup3\n      add\n      and\n      dup3\n      add\n      dup1\n      0x40\n      mstore\n      pop\n      dup2\n      add\n      swap1\n      tag_80\n      swap2\n      swap1\n      tag_81\n      jump\t// in\n    tag_80:\n        /* \"FlashLoanAave/contracts/FlashLoan.sol\":2279:2337  token.transfer(msg.sender, token.balanceOf(address(this))) */\n      mload(0x40)\n      dup4\n      0xffffffff\n      and\n      0xe0\n      shl\n      dup2\n      mstore\n      0x04\n      add\n      tag_82\n      swap3\n      swap2\n      swap1\n      tag_66\n      jump\t// in\n    tag_82:\n      0x20\n      mload(0x40)\n      dup1\n      dup4\n      sub\n      dup2\n      0x00\n      dup8\n      gas\n      call\n      iszero\n      dup1\n      iszero\n      tag_84\n      jumpi\n      returndatacopy(0x00, 0x00, returndatasize)\n      revert(0x00, returndatasize)\n    tag_84:\n      pop\n      pop\n      pop\n      pop\n      mload(0x40)\n      returndatasize\n      not(0x1f)\n      0x1f\n      dup3\n      add\n      and\n      dup3\n      add\n      dup1\n      0x40\n      mstore\n      pop\n      dup2\n      add\n      swap1\n      tag_85\n      swap2\n      swap1\n      tag_70\n      jump\t// in\n    tag_85:\n      pop\n        /* \"FlashLoanAave/contracts/FlashLoan.sol\":2223:2344  {... */\n      pop\n        /* \"FlashLoanAave/contracts/FlashLoan.sol\":2163:2344  function withdraw(address _tokenAddress) external onlyOwner {... */\n      pop\n      jump\t// out\n        /* \"https://github.com/aave-dao/aave-v3-origin/blob/main/src/core/contracts/flashloan/base/FlashLoanSimpleReceiverBase.sol\":556:592  IPool public immutable override POOL */\n    tag_30:\n      immutable(\"0x0dfd64029272ae1eec371435db3c91654901e378ddb1520c94b2e8119baa40ed\")\n      dup2\n      jump\t// out\n        /* \"FlashLoanAave/contracts/FlashLoan.sol\":1599:2006  function requestFlashLoan(address _token, uint256 _amount) public {... */\n    tag_37:\n        /* \"FlashLoanAave/contracts/FlashLoan.sol\":1675:1698  address receiverAddress */\n      0x00\n        /* \"FlashLoanAave/contracts/FlashLoan.sol\":1709:1713  this */\n      address\n        /* \"FlashLoanAave/contracts/FlashLoan.sol\":1675:1714  address receiverAddress = address(this) */\n      swap1\n      pop\n        /* \"FlashLoanAave/contracts/FlashLoan.sol\":1724:1737  address asset */\n      0x00\n        /* \"FlashLoanAave/contracts/FlashLoan.sol\":1740:1746  _token */\n      dup4\n        /* \"FlashLoanAave/contracts/FlashLoan.sol\":1724:1746  address asset = _token */\n      swap1\n      pop\n        /* \"FlashLoanAave/contracts/FlashLoan.sol\":1756:1767  uint amount */\n      0x00\n        /* \"FlashLoanAave/contracts/FlashLoan.sol\":1770:1777  _amount */\n      dup4\n        /* \"FlashLoanAave/contracts/FlashLoan.sol\":1756:1777  uint amount = _amount */\n      swap1\n      pop\n        /* \"FlashLoanAave/contracts/FlashLoan.sol\":1787:1806  bytes memory params */\n      0x00\n        /* \"FlashLoanAave/contracts/FlashLoan.sol\":1787:1811  bytes memory params = \"\" */\n      mload(0x40)\n      dup1\n      0x20\n      add\n      0x40\n      mstore\n      dup1\n      0x00\n      dup2\n      mstore\n      pop\n      swap1\n      pop\n        /* \"FlashLoanAave/contracts/FlashLoan.sol\":1821:1840  uint16 referralCode */\n      0x00\n        /* \"FlashLoanAave/contracts/FlashLoan.sol\":1843:1844  0 */\n      0x00\n        /* \"FlashLoanAave/contracts/FlashLoan.sol\":1821:1844  uint16 referralCode = 0 */\n      swap1\n      pop\n        /* \"FlashLoanAave/contracts/FlashLoan.sol\":1855:1859  POOL */\n      immutable(\"0x0dfd64029272ae1eec371435db3c91654901e378ddb1520c94b2e8119baa40ed\")\n        /* \"FlashLoanAave/contracts/FlashLoan.sol\":1855:1875  POOL.flashLoanSimple */\n      0xffffffffffffffffffffffffffffffffffffffff\n      and\n      0x42b0b77c\n        /* \"FlashLoanAave/contracts/FlashLoan.sol\":1889:1904  receiverAddress */\n      dup7\n        /* \"FlashLoanAave/contracts/FlashLoan.sol\":1918:1923  asset */\n      dup7\n        /* \"FlashLoanAave/contracts/FlashLoan.sol\":1937:1943  amount */\n      dup7\n        /* \"FlashLoanAave/contracts/FlashLoan.sol\":1957:1963  params */\n      dup7\n        /* \"FlashLoanAave/contracts/FlashLoan.sol\":1977:1989  referralCode */\n      dup7\n        /* \"FlashLoanAave/contracts/FlashLoan.sol\":1855:1999  POOL.flashLoanSimple(... */\n      mload(0x40)\n      dup7\n      0xffffffff\n      and\n      0xe0\n      shl\n      dup2\n      mstore\n      0x04\n      add\n      tag_87\n      swap6\n      swap5\n      swap4\n      swap3\n      swap2\n      swap1\n      tag_88\n      jump\t// in\n    tag_87:\n      0x00\n      mload(0x40)\n      dup1\n      dup4\n      sub\n      dup2\n      0x00\n      dup8\n      dup1\n      extcodesize\n      iszero\n      dup1\n      iszero\n      tag_89\n      jumpi\n      revert(0x00, 0x00)\n    tag_89:\n      pop\n      gas\n      call\n      iszero\n      dup1\n      iszero\n      tag_91\n      jumpi\n      returndatacopy(0x00, 0x00, returndatasize)\n      revert(0x00, returndatasize)\n    tag_91:\n      pop\n      pop\n      pop\n      pop\n        /* \"FlashLoanAave/contracts/FlashLoan.sol\":1665:2006  {... */\n      pop\n      pop\n      pop\n      pop\n      pop\n        /* \"FlashLoanAave/contracts/FlashLoan.sol\":1599:2006  function requestFlashLoan(address _token, uint256 _amount) public {... */\n      pop\n      pop\n      jump\t// out\n        /* \"FlashLoanAave/contracts/FlashLoan.sol\":2012:2157  function getBalance(address _tokenAddress) external view returns (uint256) {... */\n    tag_41:\n        /* \"FlashLoanAave/contracts/FlashLoan.sol\":2078:2085  uint256 */\n      0x00\n        /* \"FlashLoanAave/contracts/FlashLoan.sol\":2111:2124  _tokenAddress */\n      dup2\n        /* \"FlashLoanAave/contracts/FlashLoan.sol\":2104:2135  IERC20(_tokenAddress).balanceOf */\n      0xffffffffffffffffffffffffffffffffffffffff\n      and\n      0x70a08231\n        /* \"FlashLoanAave/contracts/FlashLoan.sol\":2144:2148  this */\n      address\n        /* \"FlashLoanAave/contracts/FlashLoan.sol\":2104:2150  IERC20(_tokenAddress).balanceOf(address(this)) */\n      mload(0x40)\n      dup3\n      0xffffffff\n      and\n      0xe0\n      shl\n      dup2\n      mstore\n      0x04\n      add\n      tag_93\n      swap2\n      swap1\n      tag_77\n      jump\t// in\n    tag_93:\n      0x20\n      mload(0x40)\n      dup1\n      dup4\n      sub\n      dup2\n      dup7\n      gas\n      staticcall\n      iszero\n      dup1\n      iszero\n      tag_95\n      jumpi\n      returndatacopy(0x00, 0x00, returndatasize)\n      revert(0x00, returndatasize)\n    tag_95:\n      pop\n      pop\n      pop\n      pop\n      mload(0x40)\n      returndatasize\n      not(0x1f)\n      0x1f\n      dup3\n      add\n      and\n      dup3\n      add\n      dup1\n      0x40\n      mstore\n      pop\n      dup2\n      add\n      swap1\n      tag_96\n      swap2\n      swap1\n      tag_81\n      jump\t// in\n    tag_96:\n        /* \"FlashLoanAave/contracts/FlashLoan.sol\":2097:2150  return IERC20(_tokenAddress).balanceOf(address(this)) */\n      swap1\n      pop\n        /* \"FlashLoanAave/contracts/FlashLoan.sol\":2012:2157  function getBalance(address _tokenAddress) external view returns (uint256) {... */\n      swap2\n      swap1\n      pop\n      jump\t// out\n        /* \"#utility.yul\":7:133   */\n    tag_97:\n        /* \"#utility.yul\":44:51   */\n      0x00\n        /* \"#utility.yul\":84:126   */\n      0xffffffffffffffffffffffffffffffffffffffff\n        /* \"#utility.yul\":77:82   */\n      dup3\n        /* \"#utility.yul\":73:127   */\n      and\n        /* \"#utility.yul\":62:127   */\n      swap1\n      pop\n        /* \"#utility.yul\":7:133   */\n      swap2\n      swap1\n      pop\n      jump\t// out\n        /* \"#utility.yul\":139:199   */\n    tag_98:\n        /* \"#utility.yul\":167:170   */\n      0x00\n        /* \"#utility.yul\":188:193   */\n      dup2\n        /* \"#utility.yul\":181:193   */\n      swap1\n      pop\n        /* \"#utility.yul\":139:199   */\n      swap2\n      swap1\n      pop\n      jump\t// out\n        /* \"#utility.yul\":205:347   */\n    tag_99:\n        /* \"#utility.yul\":255:264   */\n      0x00\n        /* \"#utility.yul\":288:341   */\n      tag_158\n        /* \"#utility.yul\":306:340   */\n      tag_159\n        /* \"#utility.yul\":315:339   */\n      tag_160\n        /* \"#utility.yul\":333:338   */\n      dup5\n        /* \"#utility.yul\":315:339   */\n      tag_97\n      jump\t// in\n    tag_160:\n        /* \"#utility.yul\":306:340   */\n      tag_98\n      jump\t// in\n    tag_159:\n        /* \"#utility.yul\":288:341   */\n      tag_97\n      jump\t// in\n    tag_158:\n        /* \"#utility.yul\":275:341   */\n      swap1\n      pop\n        /* \"#utility.yul\":205:347   */\n      swap2\n      swap1\n      pop\n      jump\t// out\n        /* \"#utility.yul\":353:479   */\n    tag_100:\n        /* \"#utility.yul\":403:412   */\n      0x00\n        /* \"#utility.yul\":436:473   */\n      tag_162\n        /* \"#utility.yul\":467:472   */\n      dup3\n        /* \"#utility.yul\":436:473   */\n      tag_99\n      jump\t// in\n    tag_162:\n        /* \"#utility.yul\":423:473   */\n      swap1\n      pop\n        /* \"#utility.yul\":353:479   */\n      swap2\n      swap1\n      pop\n      jump\t// out\n        /* \"#utility.yul\":485:642   */\n    tag_101:\n        /* \"#utility.yul\":566:575   */\n      0x00\n        /* \"#utility.yul\":599:636   */\n      tag_164\n        /* \"#utility.yul\":630:635   */\n      dup3\n        /* \"#utility.yul\":599:636   */\n      tag_100\n      jump\t// in\n    tag_164:\n        /* \"#utility.yul\":586:636   */\n      swap1\n      pop\n        /* \"#utility.yul\":485:642   */\n      swap2\n      swap1\n      pop\n      jump\t// out\n        /* \"#utility.yul\":648:841   */\n    tag_102:\n        /* \"#utility.yul\":766:834   */\n      tag_166\n        /* \"#utility.yul\":828:833   */\n      dup2\n        /* \"#utility.yul\":766:834   */\n      tag_101\n      jump\t// in\n    tag_166:\n        /* \"#utility.yul\":761:764   */\n      dup3\n        /* \"#utility.yul\":754:835   */\n      mstore\n        /* \"#utility.yul\":648:841   */\n      pop\n      pop\n      jump\t// out\n        /* \"#utility.yul\":847:1131   */\n    tag_15:\n        /* \"#utility.yul\":971:975   */\n      0x00\n        /* \"#utility.yul\":1009:1011   */\n      0x20\n        /* \"#utility.yul\":998:1007   */\n      dup3\n        /* \"#utility.yul\":994:1012   */\n      add\n        /* \"#utility.yul\":986:1012   */\n      swap1\n      pop\n        /* \"#utility.yul\":1022:1124   */\n      tag_168\n        /* \"#utility.yul\":1121:1122   */\n      0x00\n        /* \"#utility.yul\":1110:1119   */\n      dup4\n        /* \"#utility.yul\":1106:1123   */\n      add\n        /* \"#utility.yul\":1097:1103   */\n      dup5\n        /* \"#utility.yul\":1022:1124   */\n      tag_102\n      jump\t// in\n    tag_168:\n        /* \"#utility.yul\":847:1131   */\n      swap3\n      swap2\n      pop\n      pop\n      jump\t// out\n        /* \"#utility.yul\":1137:1212   */\n    tag_103:\n        /* \"#utility.yul\":1170:1176   */\n      0x00\n        /* \"#utility.yul\":1203:1205   */\n      0x40\n        /* \"#utility.yul\":1197:1206   */\n      mload\n        /* \"#utility.yul\":1187:1206   */\n      swap1\n      pop\n        /* \"#utility.yul\":1137:1212   */\n      swap1\n      jump\t// out\n        /* \"#utility.yul\":1218:1335   */\n    tag_104:\n        /* \"#utility.yul\":1327:1328   */\n      0x00\n        /* \"#utility.yul\":1324:1325   */\n      0x00\n        /* \"#utility.yul\":1317:1329   */\n      revert\n        /* \"#utility.yul\":1341:1458   */\n    tag_105:\n        /* \"#utility.yul\":1450:1451   */\n      0x00\n        /* \"#utility.yul\":1447:1448   */\n      0x00\n        /* \"#utility.yul\":1440:1452   */\n      revert\n        /* \"#utility.yul\":1464:1560   */\n    tag_106:\n        /* \"#utility.yul\":1501:1508   */\n      0x00\n        /* \"#utility.yul\":1530:1554   */\n      tag_173\n        /* \"#utility.yul\":1548:1553   */\n      dup3\n        /* \"#utility.yul\":1530:1554   */\n      tag_97\n      jump\t// in\n    tag_173:\n        /* \"#utility.yul\":1519:1554   */\n      swap1\n      pop\n        /* \"#utility.yul\":1464:1560   */\n      swap2\n      swap1\n      pop\n      jump\t// out\n        /* \"#utility.yul\":1566:1688   */\n    tag_107:\n        /* \"#utility.yul\":1639:1663   */\n      tag_175\n        /* \"#utility.yul\":1657:1662   */\n      dup2\n        /* \"#utility.yul\":1639:1663   */\n      tag_106\n      jump\t// in\n    tag_175:\n        /* \"#utility.yul\":1632:1637   */\n      dup2\n        /* \"#utility.yul\":1629:1664   */\n      eq\n        /* \"#utility.yul\":1619:1682   */\n      tag_176\n      jumpi\n        /* \"#utility.yul\":1678:1679   */\n      0x00\n        /* \"#utility.yul\":1675:1676   */\n      0x00\n        /* \"#utility.yul\":1668:1680   */\n      revert\n        /* \"#utility.yul\":1619:1682   */\n    tag_176:\n        /* \"#utility.yul\":1566:1688   */\n      pop\n      jump\t// out\n        /* \"#utility.yul\":1694:1833   */\n    tag_108:\n        /* \"#utility.yul\":1740:1745   */\n      0x00\n        /* \"#utility.yul\":1778:1784   */\n      dup2\n        /* \"#utility.yul\":1765:1785   */\n      calldataload\n        /* \"#utility.yul\":1756:1785   */\n      swap1\n      pop\n        /* \"#utility.yul\":1794:1827   */\n      tag_178\n        /* \"#utility.yul\":1821:1826   */\n      dup2\n        /* \"#utility.yul\":1794:1827   */\n      tag_107\n      jump\t// in\n    tag_178:\n        /* \"#utility.yul\":1694:1833   */\n      swap3\n      swap2\n      pop\n      pop\n      jump\t// out\n        /* \"#utility.yul\":1839:1916   */\n    tag_109:\n        /* \"#utility.yul\":1876:1883   */\n      0x00\n        /* \"#utility.yul\":1905:1910   */\n      dup2\n        /* \"#utility.yul\":1894:1910   */\n      swap1\n      pop\n        /* \"#utility.yul\":1839:1916   */\n      swap2\n      swap1\n      pop\n      jump\t// out\n        /* \"#utility.yul\":1922:2044   */\n    tag_110:\n        /* \"#utility.yul\":1995:2019   */\n      tag_181\n        /* \"#utility.yul\":2013:2018   */\n      dup2\n        /* \"#utility.yul\":1995:2019   */\n      tag_109\n      jump\t// in\n    tag_181:\n        /* \"#utility.yul\":1988:1993   */\n      dup2\n        /* \"#utility.yul\":1985:2020   */\n      eq\n        /* \"#utility.yul\":1975:2038   */\n      tag_182\n      jumpi\n        /* \"#utility.yul\":2034:2035   */\n      0x00\n        /* \"#utility.yul\":2031:2032   */\n      0x00\n        /* \"#utility.yul\":2024:2036   */\n      revert\n        /* \"#utility.yul\":1975:2038   */\n    tag_182:\n        /* \"#utility.yul\":1922:2044   */\n      pop\n      jump\t// out\n        /* \"#utility.yul\":2050:2189   */\n    tag_111:\n        /* \"#utility.yul\":2096:2101   */\n      0x00\n        /* \"#utility.yul\":2134:2140   */\n      dup2\n        /* \"#utility.yul\":2121:2141   */\n      calldataload\n        /* \"#utility.yul\":2112:2141   */\n      swap1\n      pop\n        /* \"#utility.yul\":2150:2183   */\n      tag_184\n        /* \"#utility.yul\":2177:2182   */\n      dup2\n        /* \"#utility.yul\":2150:2183   */\n      tag_110\n      jump\t// in\n    tag_184:\n        /* \"#utility.yul\":2050:2189   */\n      swap3\n      swap2\n      pop\n      pop\n      jump\t// out\n        /* \"#utility.yul\":2195:2312   */\n    tag_112:\n        /* \"#utility.yul\":2304:2305   */\n      0x00\n        /* \"#utility.yul\":2301:2302   */\n      0x00\n        /* \"#utility.yul\":2294:2306   */\n      revert\n        /* \"#utility.yul\":2318:2435   */\n    tag_113:\n        /* \"#utility.yul\":2427:2428   */\n      0x00\n        /* \"#utility.yul\":2424:2425   */\n      0x00\n        /* \"#utility.yul\":2417:2429   */\n      revert\n        /* \"#utility.yul\":2441:2558   */\n    tag_114:\n        /* \"#utility.yul\":2550:2551   */\n      0x00\n        /* \"#utility.yul\":2547:2548   */\n      0x00\n        /* \"#utility.yul\":2540:2552   */\n      revert\n        /* \"#utility.yul\":2577:3129   */\n    tag_115:\n        /* \"#utility.yul\":2634:2642   */\n      0x00\n        /* \"#utility.yul\":2644:2650   */\n      0x00\n        /* \"#utility.yul\":2694:2697   */\n      dup4\n        /* \"#utility.yul\":2687:2691   */\n      0x1f\n        /* \"#utility.yul\":2679:2685   */\n      dup5\n        /* \"#utility.yul\":2675:2692   */\n      add\n        /* \"#utility.yul\":2671:2698   */\n      slt\n        /* \"#utility.yul\":2661:2783   */\n      tag_189\n      jumpi\n        /* \"#utility.yul\":2702:2781   */\n      tag_190\n      tag_112\n      jump\t// in\n    tag_190:\n        /* \"#utility.yul\":2661:2783   */\n    tag_189:\n        /* \"#utility.yul\":2815:2821   */\n      dup3\n        /* \"#utility.yul\":2802:2822   */\n      calldataload\n        /* \"#utility.yul\":2792:2822   */\n      swap1\n      pop\n        /* \"#utility.yul\":2845:2863   */\n      0xffffffffffffffff\n        /* \"#utility.yul\":2837:2843   */\n      dup2\n        /* \"#utility.yul\":2834:2864   */\n      gt\n        /* \"#utility.yul\":2831:2948   */\n      iszero\n      tag_191\n      jumpi\n        /* \"#utility.yul\":2867:2946   */\n      tag_192\n      tag_113\n      jump\t// in\n    tag_192:\n        /* \"#utility.yul\":2831:2948   */\n    tag_191:\n        /* \"#utility.yul\":2981:2985   */\n      0x20\n        /* \"#utility.yul\":2973:2979   */\n      dup4\n        /* \"#utility.yul\":2969:2986   */\n      add\n        /* \"#utility.yul\":2957:2986   */\n      swap2\n      pop\n        /* \"#utility.yul\":3035:3038   */\n      dup4\n        /* \"#utility.yul\":3027:3031   */\n      0x01\n        /* \"#utility.yul\":3019:3025   */\n      dup3\n        /* \"#utility.yul\":3015:3032   */\n      mul\n        /* \"#utility.yul\":3005:3013   */\n      dup4\n        /* \"#utility.yul\":3001:3033   */\n      add\n        /* \"#utility.yul\":2998:3039   */\n      gt\n        /* \"#utility.yul\":2995:3123   */\n      iszero\n      tag_193\n      jumpi\n        /* \"#utility.yul\":3042:3121   */\n      tag_194\n      tag_114\n      jump\t// in\n    tag_194:\n        /* \"#utility.yul\":2995:3123   */\n    tag_193:\n        /* \"#utility.yul\":2577:3129   */\n      swap3\n      pop\n      swap3\n      swap1\n      pop\n      jump\t// out\n        /* \"#utility.yul\":3135:4244   */\n    tag_19:\n        /* \"#utility.yul\":3241:3247   */\n      0x00\n        /* \"#utility.yul\":3249:3255   */\n      0x00\n        /* \"#utility.yul\":3257:3263   */\n      0x00\n        /* \"#utility.yul\":3265:3271   */\n      0x00\n        /* \"#utility.yul\":3273:3279   */\n      0x00\n        /* \"#utility.yul\":3281:3287   */\n      0x00\n        /* \"#utility.yul\":3330:3333   */\n      0xa0\n        /* \"#utility.yul\":3318:3327   */\n      dup8\n        /* \"#utility.yul\":3309:3316   */\n      dup10\n        /* \"#utility.yul\":3305:3328   */\n      sub\n        /* \"#utility.yul\":3301:3334   */\n      slt\n        /* \"#utility.yul\":3298:3418   */\n      iszero\n      tag_196\n      jumpi\n        /* \"#utility.yul\":3337:3416   */\n      tag_197\n      tag_104\n      jump\t// in\n    tag_197:\n        /* \"#utility.yul\":3298:3418   */\n    tag_196:\n        /* \"#utility.yul\":3457:3458   */\n      0x00\n        /* \"#utility.yul\":3482:3535   */\n      tag_198\n        /* \"#utility.yul\":3527:3534   */\n      dup10\n        /* \"#utility.yul\":3518:3524   */\n      dup3\n        /* \"#utility.yul\":3507:3516   */\n      dup11\n        /* \"#utility.yul\":3503:3525   */\n      add\n        /* \"#utility.yul\":3482:3535   */\n      tag_108\n      jump\t// in\n    tag_198:\n        /* \"#utility.yul\":3472:3535   */\n      swap7\n      pop\n        /* \"#utility.yul\":3428:3545   */\n      pop\n        /* \"#utility.yul\":3584:3586   */\n      0x20\n        /* \"#utility.yul\":3610:3663   */\n      tag_199\n        /* \"#utility.yul\":3655:3662   */\n      dup10\n        /* \"#utility.yul\":3646:3652   */\n      dup3\n        /* \"#utility.yul\":3635:3644   */\n      dup11\n        /* \"#utility.yul\":3631:3653   */\n      add\n        /* \"#utility.yul\":3610:3663   */\n      tag_111\n      jump\t// in\n    tag_199:\n        /* \"#utility.yul\":3600:3663   */\n      swap6\n      pop\n        /* \"#utility.yul\":3555:3673   */\n      pop\n        /* \"#utility.yul\":3712:3714   */\n      0x40\n        /* \"#utility.yul\":3738:3791   */\n      tag_200\n        /* \"#utility.yul\":3783:3790   */\n      dup10\n        /* \"#utility.yul\":3774:3780   */\n      dup3\n        /* \"#utility.yul\":3763:3772   */\n      dup11\n        /* \"#utility.yul\":3759:3781   */\n      add\n        /* \"#utility.yul\":3738:3791   */\n      tag_111\n      jump\t// in\n    tag_200:\n        /* \"#utility.yul\":3728:3791   */\n      swap5\n      pop\n        /* \"#utility.yul\":3683:3801   */\n      pop\n        /* \"#utility.yul\":3840:3842   */\n      0x60\n        /* \"#utility.yul\":3866:3919   */\n      tag_201\n        /* \"#utility.yul\":3911:3918   */\n      dup10\n        /* \"#utility.yul\":3902:3908   */\n      dup3\n        /* \"#utility.yul\":3891:3900   */\n      dup11\n        /* \"#utility.yul\":3887:3909   */\n      add\n        /* \"#utility.yul\":3866:3919   */\n      tag_108\n      jump\t// in\n    tag_201:\n        /* \"#utility.yul\":3856:3919   */\n      swap4\n      pop\n        /* \"#utility.yul\":3811:3929   */\n      pop\n        /* \"#utility.yul\":3996:3999   */\n      0x80\n        /* \"#utility.yul\":3985:3994   */\n      dup8\n        /* \"#utility.yul\":3981:4000   */\n      add\n        /* \"#utility.yul\":3968:4001   */\n      calldataload\n        /* \"#utility.yul\":4028:4046   */\n      0xffffffffffffffff\n        /* \"#utility.yul\":4020:4026   */\n      dup2\n        /* \"#utility.yul\":4017:4047   */\n      gt\n        /* \"#utility.yul\":4014:4131   */\n      iszero\n      tag_202\n      jumpi\n        /* \"#utility.yul\":4050:4129   */\n      tag_203\n      tag_105\n      jump\t// in\n    tag_203:\n        /* \"#utility.yul\":4014:4131   */\n    tag_202:\n        /* \"#utility.yul\":4163:4227   */\n      tag_204\n        /* \"#utility.yul\":4219:4226   */\n      dup10\n        /* \"#utility.yul\":4210:4216   */\n      dup3\n        /* \"#utility.yul\":4199:4208   */\n      dup11\n        /* \"#utility.yul\":4195:4217   */\n      add\n        /* \"#utility.yul\":4163:4227   */\n      tag_115\n      jump\t// in\n    tag_204:\n        /* \"#utility.yul\":4145:4227   */\n      swap3\n      pop\n      swap3\n      pop\n        /* \"#utility.yul\":3939:4237   */\n      pop\n        /* \"#utility.yul\":3135:4244   */\n      swap3\n      swap6\n      pop\n      swap3\n      swap6\n      pop\n      swap3\n      swap6\n      jump\t// out\n        /* \"#utility.yul\":4250:4340   */\n    tag_116:\n        /* \"#utility.yul\":4284:4291   */\n      0x00\n        /* \"#utility.yul\":4327:4332   */\n      dup2\n        /* \"#utility.yul\":4320:4333   */\n      iszero\n        /* \"#utility.yul\":4313:4334   */\n      iszero\n        /* \"#utility.yul\":4302:4334   */\n      swap1\n      pop\n        /* \"#utility.yul\":4250:4340   */\n      swap2\n      swap1\n      pop\n      jump\t// out\n        /* \"#utility.yul\":4346:4455   */\n    tag_117:\n        /* \"#utility.yul\":4427:4448   */\n      tag_207\n        /* \"#utility.yul\":4442:4447   */\n      dup2\n        /* \"#utility.yul\":4427:4448   */\n      tag_116\n      jump\t// in\n    tag_207:\n        /* \"#utility.yul\":4422:4425   */\n      dup3\n        /* \"#utility.yul\":4415:4449   */\n      mstore\n        /* \"#utility.yul\":4346:4455   */\n      pop\n      pop\n      jump\t// out\n        /* \"#utility.yul\":4461:4671   */\n    tag_22:\n        /* \"#utility.yul\":4548:4552   */\n      0x00\n        /* \"#utility.yul\":4586:4588   */\n      0x20\n        /* \"#utility.yul\":4575:4584   */\n      dup3\n        /* \"#utility.yul\":4571:4589   */\n      add\n        /* \"#utility.yul\":4563:4589   */\n      swap1\n      pop\n        /* \"#utility.yul\":4599:4664   */\n      tag_209\n        /* \"#utility.yul\":4661:4662   */\n      0x00\n        /* \"#utility.yul\":4650:4659   */\n      dup4\n        /* \"#utility.yul\":4646:4663   */\n      add\n        /* \"#utility.yul\":4637:4643   */\n      dup5\n        /* \"#utility.yul\":4599:4664   */\n      tag_117\n      jump\t// in\n    tag_209:\n        /* \"#utility.yul\":4461:4671   */\n      swap3\n      swap2\n      pop\n      pop\n      jump\t// out\n        /* \"#utility.yul\":4677:5006   */\n    tag_26:\n        /* \"#utility.yul\":4736:4742   */\n      0x00\n        /* \"#utility.yul\":4785:4787   */\n      0x20\n        /* \"#utility.yul\":4773:4782   */\n      dup3\n        /* \"#utility.yul\":4764:4771   */\n      dup5\n        /* \"#utility.yul\":4760:4783   */\n      sub\n        /* \"#utility.yul\":4756:4788   */\n      slt\n        /* \"#utility.yul\":4753:4872   */\n      iszero\n      tag_211\n      jumpi\n        /* \"#utility.yul\":4791:4870   */\n      tag_212\n      tag_104\n      jump\t// in\n    tag_212:\n        /* \"#utility.yul\":4753:4872   */\n    tag_211:\n        /* \"#utility.yul\":4911:4912   */\n      0x00\n        /* \"#utility.yul\":4936:4989   */\n      tag_213\n        /* \"#utility.yul\":4981:4988   */\n      dup5\n        /* \"#utility.yul\":4972:4978   */\n      dup3\n        /* \"#utility.yul\":4961:4970   */\n      dup6\n        /* \"#utility.yul\":4957:4979   */\n      add\n        /* \"#utility.yul\":4936:4989   */\n      tag_108\n      jump\t// in\n    tag_213:\n        /* \"#utility.yul\":4926:4989   */\n      swap2\n      pop\n        /* \"#utility.yul\":4882:4999   */\n      pop\n        /* \"#utility.yul\":4677:5006   */\n      swap3\n      swap2\n      pop\n      pop\n      jump\t// out\n        /* \"#utility.yul\":5012:5152   */\n    tag_118:\n        /* \"#utility.yul\":5076:5085   */\n      0x00\n        /* \"#utility.yul\":5109:5146   */\n      tag_215\n        /* \"#utility.yul\":5140:5145   */\n      dup3\n        /* \"#utility.yul\":5109:5146   */\n      tag_100\n      jump\t// in\n    tag_215:\n        /* \"#utility.yul\":5096:5146   */\n      swap1\n      pop\n        /* \"#utility.yul\":5012:5152   */\n      swap2\n      swap1\n      pop\n      jump\t// out\n        /* \"#utility.yul\":5158:5317   */\n    tag_119:\n        /* \"#utility.yul\":5259:5310   */\n      tag_217\n        /* \"#utility.yul\":5304:5309   */\n      dup2\n        /* \"#utility.yul\":5259:5310   */\n      tag_118\n      jump\t// in\n    tag_217:\n        /* \"#utility.yul\":5254:5257   */\n      dup3\n        /* \"#utility.yul\":5247:5311   */\n      mstore\n        /* \"#utility.yul\":5158:5317   */\n      pop\n      pop\n      jump\t// out\n        /* \"#utility.yul\":5323:5573   */\n    tag_32:\n        /* \"#utility.yul\":5430:5434   */\n      0x00\n        /* \"#utility.yul\":5468:5470   */\n      0x20\n        /* \"#utility.yul\":5457:5466   */\n      dup3\n        /* \"#utility.yul\":5453:5471   */\n      add\n        /* \"#utility.yul\":5445:5471   */\n      swap1\n      pop\n        /* \"#utility.yul\":5481:5566   */\n      tag_219\n        /* \"#utility.yul\":5563:5564   */\n      0x00\n        /* \"#utility.yul\":5552:5561   */\n      dup4\n        /* \"#utility.yul\":5548:5565   */\n      add\n        /* \"#utility.yul\":5539:5545   */\n      dup5\n        /* \"#utility.yul\":5481:5566   */\n      tag_119\n      jump\t// in\n    tag_219:\n        /* \"#utility.yul\":5323:5573   */\n      swap3\n      swap2\n      pop\n      pop\n      jump\t// out\n        /* \"#utility.yul\":5579:6053   */\n    tag_36:\n        /* \"#utility.yul\":5647:5653   */\n      0x00\n        /* \"#utility.yul\":5655:5661   */\n      0x00\n        /* \"#utility.yul\":5704:5706   */\n      0x40\n        /* \"#utility.yul\":5692:5701   */\n      dup4\n        /* \"#utility.yul\":5683:5690   */\n      dup6\n        /* \"#utility.yul\":5679:5702   */\n      sub\n        /* \"#utility.yul\":5675:5707   */\n      slt\n        /* \"#utility.yul\":5672:5791   */\n      iszero\n      tag_221\n      jumpi\n        /* \"#utility.yul\":5710:5789   */\n      tag_222\n      tag_104\n      jump\t// in\n    tag_222:\n        /* \"#utility.yul\":5672:5791   */\n    tag_221:\n        /* \"#utility.yul\":5830:5831   */\n      0x00\n        /* \"#utility.yul\":5855:5908   */\n      tag_223\n        /* \"#utility.yul\":5900:5907   */\n      dup6\n        /* \"#utility.yul\":5891:5897   */\n      dup3\n        /* \"#utility.yul\":5880:5889   */\n      dup7\n        /* \"#utility.yul\":5876:5898   */\n      add\n        /* \"#utility.yul\":5855:5908   */\n      tag_108\n      jump\t// in\n    tag_223:\n        /* \"#utility.yul\":5845:5908   */\n      swap3\n      pop\n        /* \"#utility.yul\":5801:5918   */\n      pop\n        /* \"#utility.yul\":5957:5959   */\n      0x20\n        /* \"#utility.yul\":5983:6036   */\n      tag_224\n        /* \"#utility.yul\":6028:6035   */\n      dup6\n        /* \"#utility.yul\":6019:6025   */\n      dup3\n        /* \"#utility.yul\":6008:6017   */\n      dup7\n        /* \"#utility.yul\":6004:6026   */\n      add\n        /* \"#utility.yul\":5983:6036   */\n      tag_111\n      jump\t// in\n    tag_224:\n        /* \"#utility.yul\":5973:6036   */\n      swap2\n      pop\n        /* \"#utility.yul\":5928:6046   */\n      pop\n        /* \"#utility.yul\":5579:6053   */\n      swap3\n      pop\n      swap3\n      swap1\n      pop\n      jump\t// out\n        /* \"#utility.yul\":6059:6177   */\n    tag_120:\n        /* \"#utility.yul\":6146:6170   */\n      tag_226\n        /* \"#utility.yul\":6164:6169   */\n      dup2\n        /* \"#utility.yul\":6146:6170   */\n      tag_109\n      jump\t// in\n    tag_226:\n        /* \"#utility.yul\":6141:6144   */\n      dup3\n        /* \"#utility.yul\":6134:6171   */\n      mstore\n        /* \"#utility.yul\":6059:6177   */\n      pop\n      pop\n      jump\t// out\n        /* \"#utility.yul\":6183:6405   */\n    tag_43:\n        /* \"#utility.yul\":6276:6280   */\n      0x00\n        /* \"#utility.yul\":6314:6316   */\n      0x20\n        /* \"#utility.yul\":6303:6312   */\n      dup3\n        /* \"#utility.yul\":6299:6317   */\n      add\n        /* \"#utility.yul\":6291:6317   */\n      swap1\n      pop\n        /* \"#utility.yul\":6327:6398   */\n      tag_228\n        /* \"#utility.yul\":6395:6396   */\n      0x00\n        /* \"#utility.yul\":6384:6393   */\n      dup4\n        /* \"#utility.yul\":6380:6397   */\n      add\n        /* \"#utility.yul\":6371:6377   */\n      dup5\n        /* \"#utility.yul\":6327:6398   */\n      tag_120\n      jump\t// in\n    tag_228:\n        /* \"#utility.yul\":6183:6405   */\n      swap3\n      swap2\n      pop\n      pop\n      jump\t// out\n        /* \"#utility.yul\":6411:6513   */\n    tag_121:\n        /* \"#utility.yul\":6452:6458   */\n      0x00\n        /* \"#utility.yul\":6503:6505   */\n      0x1f\n        /* \"#utility.yul\":6499:6506   */\n      not\n        /* \"#utility.yul\":6494:6496   */\n      0x1f\n        /* \"#utility.yul\":6487:6492   */\n      dup4\n        /* \"#utility.yul\":6483:6497   */\n      add\n        /* \"#utility.yul\":6479:6507   */\n      and\n        /* \"#utility.yul\":6469:6507   */\n      swap1\n      pop\n        /* \"#utility.yul\":6411:6513   */\n      swap2\n      swap1\n      pop\n      jump\t// out\n        /* \"#utility.yul\":6519:6699   */\n    tag_122:\n        /* \"#utility.yul\":6567:6644   */\n      0x4e487b7100000000000000000000000000000000000000000000000000000000\n        /* \"#utility.yul\":6564:6565   */\n      0x00\n        /* \"#utility.yul\":6557:6645   */\n      mstore\n        /* \"#utility.yul\":6664:6668   */\n      0x41\n        /* \"#utility.yul\":6661:6662   */\n      0x04\n        /* \"#utility.yul\":6654:6669   */\n      mstore\n        /* \"#utility.yul\":6688:6692   */\n      0x24\n        /* \"#utility.yul\":6685:6686   */\n      0x00\n        /* \"#utility.yul\":6678:6693   */\n      revert\n        /* \"#utility.yul\":6705:6986   */\n    tag_123:\n        /* \"#utility.yul\":6788:6815   */\n      tag_232\n        /* \"#utility.yul\":6810:6814   */\n      dup3\n        /* \"#utility.yul\":6788:6815   */\n      tag_121\n      jump\t// in\n    tag_232:\n        /* \"#utility.yul\":6780:6786   */\n      dup2\n        /* \"#utility.yul\":6776:6816   */\n      add\n        /* \"#utility.yul\":6918:6924   */\n      dup2\n        /* \"#utility.yul\":6906:6916   */\n      dup2\n        /* \"#utility.yul\":6903:6925   */\n      lt\n        /* \"#utility.yul\":6882:6900   */\n      0xffffffffffffffff\n        /* \"#utility.yul\":6870:6880   */\n      dup3\n        /* \"#utility.yul\":6867:6901   */\n      gt\n        /* \"#utility.yul\":6864:6926   */\n      or\n        /* \"#utility.yul\":6861:6949   */\n      iszero\n      tag_233\n      jumpi\n        /* \"#utility.yul\":6929:6947   */\n      tag_234\n      tag_122\n      jump\t// in\n    tag_234:\n        /* \"#utility.yul\":6861:6949   */\n    tag_233:\n        /* \"#utility.yul\":6969:6979   */\n      dup1\n        /* \"#utility.yul\":6965:6967   */\n      0x40\n        /* \"#utility.yul\":6958:6980   */\n      mstore\n        /* \"#utility.yul\":6748:6986   */\n      pop\n        /* \"#utility.yul\":6705:6986   */\n      pop\n      pop\n      jump\t// out\n        /* \"#utility.yul\":6992:7121   */\n    tag_124:\n        /* \"#utility.yul\":7026:7032   */\n      0x00\n        /* \"#utility.yul\":7053:7073   */\n      tag_236\n      tag_103\n      jump\t// in\n    tag_236:\n        /* \"#utility.yul\":7043:7073   */\n      swap1\n      pop\n        /* \"#utility.yul\":7082:7115   */\n      tag_237\n        /* \"#utility.yul\":7110:7114   */\n      dup3\n        /* \"#utility.yul\":7102:7108   */\n      dup3\n        /* \"#utility.yul\":7082:7115   */\n      tag_123\n      jump\t// in\n    tag_237:\n        /* \"#utility.yul\":6992:7121   */\n      swap2\n      swap1\n      pop\n      jump\t// out\n        /* \"#utility.yul\":7127:7438   */\n    tag_125:\n        /* \"#utility.yul\":7204:7208   */\n      0x00\n        /* \"#utility.yul\":7294:7312   */\n      0xffffffffffffffff\n        /* \"#utility.yul\":7286:7292   */\n      dup3\n        /* \"#utility.yul\":7283:7313   */\n      gt\n        /* \"#utility.yul\":7280:7336   */\n      iszero\n      tag_239\n      jumpi\n        /* \"#utility.yul\":7316:7334   */\n      tag_240\n      tag_122\n      jump\t// in\n    tag_240:\n        /* \"#utility.yul\":7280:7336   */\n    tag_239:\n        /* \"#utility.yul\":7366:7370   */\n      0x20\n        /* \"#utility.yul\":7358:7364   */\n      dup3\n        /* \"#utility.yul\":7354:7371   */\n      mul\n        /* \"#utility.yul\":7346:7371   */\n      swap1\n      pop\n        /* \"#utility.yul\":7426:7430   */\n      0x20\n        /* \"#utility.yul\":7420:7424   */\n      dup2\n        /* \"#utility.yul\":7416:7431   */\n      add\n        /* \"#utility.yul\":7408:7431   */\n      swap1\n      pop\n        /* \"#utility.yul\":7127:7438   */\n      swap2\n      swap1\n      pop\n      jump\t// out\n        /* \"#utility.yul\":7461:8171   */\n    tag_126:\n        /* \"#utility.yul\":7557:7562   */\n      0x00\n        /* \"#utility.yul\":7582:7663   */\n      tag_242\n        /* \"#utility.yul\":7598:7662   */\n      tag_243\n        /* \"#utility.yul\":7655:7661   */\n      dup5\n        /* \"#utility.yul\":7598:7662   */\n      tag_125\n      jump\t// in\n    tag_243:\n        /* \"#utility.yul\":7582:7663   */\n      tag_124\n      jump\t// in\n    tag_242:\n        /* \"#utility.yul\":7573:7663   */\n      swap1\n      pop\n        /* \"#utility.yul\":7683:7688   */\n      dup1\n        /* \"#utility.yul\":7712:7718   */\n      dup4\n        /* \"#utility.yul\":7705:7710   */\n      dup3\n        /* \"#utility.yul\":7698:7719   */\n      mstore\n        /* \"#utility.yul\":7746:7750   */\n      0x20\n        /* \"#utility.yul\":7739:7744   */\n      dup3\n        /* \"#utility.yul\":7735:7751   */\n      add\n        /* \"#utility.yul\":7728:7751   */\n      swap1\n      pop\n        /* \"#utility.yul\":7799:7803   */\n      0x20\n        /* \"#utility.yul\":7791:7797   */\n      dup5\n        /* \"#utility.yul\":7787:7804   */\n      mul\n        /* \"#utility.yul\":7779:7785   */\n      dup4\n        /* \"#utility.yul\":7775:7805   */\n      add\n        /* \"#utility.yul\":7828:7831   */\n      dup6\n        /* \"#utility.yul\":7820:7826   */\n      dup2\n        /* \"#utility.yul\":7817:7832   */\n      gt\n        /* \"#utility.yul\":7814:7936   */\n      iszero\n      tag_244\n      jumpi\n        /* \"#utility.yul\":7847:7926   */\n      tag_245\n      tag_114\n      jump\t// in\n    tag_245:\n        /* \"#utility.yul\":7814:7936   */\n    tag_244:\n        /* \"#utility.yul\":7962:7968   */\n      dup4\n        /* \"#utility.yul\":7945:8165   */\n    tag_246:\n        /* \"#utility.yul\":7979:7985   */\n      dup2\n        /* \"#utility.yul\":7974:7977   */\n      dup2\n        /* \"#utility.yul\":7971:7986   */\n      lt\n        /* \"#utility.yul\":7945:8165   */\n      iszero\n      tag_248\n      jumpi\n        /* \"#utility.yul\":8054:8057   */\n      dup1\n        /* \"#utility.yul\":8083:8120   */\n      tag_249\n        /* \"#utility.yul\":8116:8119   */\n      dup9\n        /* \"#utility.yul\":8104:8114   */\n      dup3\n        /* \"#utility.yul\":8083:8120   */\n      tag_108\n      jump\t// in\n    tag_249:\n        /* \"#utility.yul\":8078:8081   */\n      dup5\n        /* \"#utility.yul\":8071:8121   */\n      mstore\n        /* \"#utility.yul\":8150:8154   */\n      0x20\n        /* \"#utility.yul\":8145:8148   */\n      dup5\n        /* \"#utility.yul\":8141:8155   */\n      add\n        /* \"#utility.yul\":8134:8155   */\n      swap4\n      pop\n        /* \"#utility.yul\":8021:8165   */\n      pop\n        /* \"#utility.yul\":8005:8009   */\n      0x20\n        /* \"#utility.yul\":8000:8003   */\n      dup2\n        /* \"#utility.yul\":7996:8010   */\n      add\n        /* \"#utility.yul\":7989:8010   */\n      swap1\n      pop\n        /* \"#utility.yul\":7945:8165   */\n      jump(tag_246)\n    tag_248:\n        /* \"#utility.yul\":7949:7970   */\n      pop\n        /* \"#utility.yul\":7563:8171   */\n      pop\n      pop\n        /* \"#utility.yul\":7461:8171   */\n      swap4\n      swap3\n      pop\n      pop\n      pop\n      jump\t// out\n        /* \"#utility.yul\":8194:8564   */\n    tag_127:\n        /* \"#utility.yul\":8265:8270   */\n      0x00\n        /* \"#utility.yul\":8314:8317   */\n      dup3\n        /* \"#utility.yul\":8307:8311   */\n      0x1f\n        /* \"#utility.yul\":8299:8305   */\n      dup4\n        /* \"#utility.yul\":8295:8312   */\n      add\n        /* \"#utility.yul\":8291:8318   */\n      slt\n        /* \"#utility.yul\":8281:8403   */\n      tag_251\n      jumpi\n        /* \"#utility.yul\":8322:8401   */\n      tag_252\n      tag_112\n      jump\t// in\n    tag_252:\n        /* \"#utility.yul\":8281:8403   */\n    tag_251:\n        /* \"#utility.yul\":8439:8445   */\n      dup2\n        /* \"#utility.yul\":8426:8446   */\n      calldataload\n        /* \"#utility.yul\":8464:8558   */\n      tag_253\n        /* \"#utility.yul\":8554:8557   */\n      dup5\n        /* \"#utility.yul\":8546:8552   */\n      dup3\n        /* \"#utility.yul\":8539:8543   */\n      0x20\n        /* \"#utility.yul\":8531:8537   */\n      dup7\n        /* \"#utility.yul\":8527:8544   */\n      add\n        /* \"#utility.yul\":8464:8558   */\n      tag_126\n      jump\t// in\n    tag_253:\n        /* \"#utility.yul\":8455:8558   */\n      swap2\n      pop\n        /* \"#utility.yul\":8271:8564   */\n      pop\n        /* \"#utility.yul\":8194:8564   */\n      swap3\n      swap2\n      pop\n      pop\n      jump\t// out\n        /* \"#utility.yul\":8570:8890   */\n    tag_128:\n        /* \"#utility.yul\":8656:8660   */\n      0x00\n        /* \"#utility.yul\":8746:8764   */\n      0xffffffffffffffff\n        /* \"#utility.yul\":8738:8744   */\n      dup3\n        /* \"#utility.yul\":8735:8765   */\n      gt\n        /* \"#utility.yul\":8732:8788   */\n      iszero\n      tag_255\n      jumpi\n        /* \"#utility.yul\":8768:8786   */\n      tag_256\n      tag_122\n      jump\t// in\n    tag_256:\n        /* \"#utility.yul\":8732:8788   */\n    tag_255:\n        /* \"#utility.yul\":8818:8822   */\n      0x20\n        /* \"#utility.yul\":8810:8816   */\n      dup3\n        /* \"#utility.yul\":8806:8823   */\n      mul\n        /* \"#utility.yul\":8798:8823   */\n      swap1\n      pop\n        /* \"#utility.yul\":8878:8882   */\n      0x20\n        /* \"#utility.yul\":8872:8876   */\n      dup2\n        /* \"#utility.yul\":8868:8883   */\n      add\n        /* \"#utility.yul\":8860:8883   */\n      swap1\n      pop\n        /* \"#utility.yul\":8570:8890   */\n      swap2\n      swap1\n      pop\n      jump\t// out\n        /* \"#utility.yul\":8896:9013   */\n    tag_129:\n        /* \"#utility.yul\":9005:9006   */\n      0x00\n        /* \"#utility.yul\":9002:9003   */\n      0x00\n        /* \"#utility.yul\":8995:9007   */\n      revert\n        /* \"#utility.yul\":9019:9326   */\n    tag_130:\n        /* \"#utility.yul\":9080:9084   */\n      0x00\n        /* \"#utility.yul\":9170:9188   */\n      0xffffffffffffffff\n        /* \"#utility.yul\":9162:9168   */\n      dup3\n        /* \"#utility.yul\":9159:9189   */\n      gt\n        /* \"#utility.yul\":9156:9212   */\n      iszero\n      tag_259\n      jumpi\n        /* \"#utility.yul\":9192:9210   */\n      tag_260\n      tag_122\n      jump\t// in\n    tag_260:\n        /* \"#utility.yul\":9156:9212   */\n    tag_259:\n        /* \"#utility.yul\":9230:9259   */\n      tag_261\n        /* \"#utility.yul\":9252:9258   */\n      dup3\n        /* \"#utility.yul\":9230:9259   */\n      tag_121\n      jump\t// in\n    tag_261:\n        /* \"#utility.yul\":9222:9259   */\n      swap1\n      pop\n        /* \"#utility.yul\":9314:9318   */\n      0x20\n        /* \"#utility.yul\":9308:9312   */\n      dup2\n        /* \"#utility.yul\":9304:9319   */\n      add\n        /* \"#utility.yul\":9296:9319   */\n      swap1\n      pop\n        /* \"#utility.yul\":9019:9326   */\n      swap2\n      swap1\n      pop\n      jump\t// out\n        /* \"#utility.yul\":9332:9480   */\n    tag_131:\n        /* \"#utility.yul\":9430:9436   */\n      dup3\n        /* \"#utility.yul\":9425:9428   */\n      dup2\n        /* \"#utility.yul\":9420:9423   */\n      dup4\n        /* \"#utility.yul\":9407:9437   */\n      calldatacopy\n        /* \"#utility.yul\":9471:9472   */\n      0x00\n        /* \"#utility.yul\":9462:9468   */\n      dup4\n        /* \"#utility.yul\":9457:9460   */\n      dup4\n        /* \"#utility.yul\":9453:9469   */\n      add\n        /* \"#utility.yul\":9446:9473   */\n      mstore\n        /* \"#utility.yul\":9332:9480   */\n      pop\n      pop\n      pop\n      jump\t// out\n        /* \"#utility.yul\":9486:9909   */\n    tag_132:\n        /* \"#utility.yul\":9563:9568   */\n      0x00\n        /* \"#utility.yul\":9588:9653   */\n      tag_264\n        /* \"#utility.yul\":9604:9652   */\n      tag_265\n        /* \"#utility.yul\":9645:9651   */\n      dup5\n        /* \"#utility.yul\":9604:9652   */\n      tag_130\n      jump\t// in\n    tag_265:\n        /* \"#utility.yul\":9588:9653   */\n      tag_124\n      jump\t// in\n    tag_264:\n        /* \"#utility.yul\":9579:9653   */\n      swap1\n      pop\n        /* \"#utility.yul\":9676:9682   */\n      dup3\n        /* \"#utility.yul\":9669:9674   */\n      dup2\n        /* \"#utility.yul\":9662:9683   */\n      mstore\n        /* \"#utility.yul\":9714:9718   */\n      0x20\n        /* \"#utility.yul\":9707:9712   */\n      dup2\n        /* \"#utility.yul\":9703:9719   */\n      add\n        /* \"#utility.yul\":9752:9755   */\n      dup5\n        /* \"#utility.yul\":9743:9749   */\n      dup5\n        /* \"#utility.yul\":9738:9741   */\n      dup5\n        /* \"#utility.yul\":9734:9750   */\n      add\n        /* \"#utility.yul\":9731:9756   */\n      gt\n        /* \"#utility.yul\":9728:9840   */\n      iszero\n      tag_266\n      jumpi\n        /* \"#utility.yul\":9759:9838   */\n      tag_267\n      tag_129\n      jump\t// in\n    tag_267:\n        /* \"#utility.yul\":9728:9840   */\n    tag_266:\n        /* \"#utility.yul\":9849:9903   */\n      tag_268\n        /* \"#utility.yul\":9896:9902   */\n      dup5\n        /* \"#utility.yul\":9891:9894   */\n      dup3\n        /* \"#utility.yul\":9886:9889   */\n      dup6\n        /* \"#utility.yul\":9849:9903   */\n      tag_131\n      jump\t// in\n    tag_268:\n        /* \"#utility.yul\":9569:9909   */\n      pop\n        /* \"#utility.yul\":9486:9909   */\n      swap4\n      swap3\n      pop\n      pop\n      pop\n      jump\t// out\n        /* \"#utility.yul\":9928:10266   */\n    tag_133:\n        /* \"#utility.yul\":9983:9988   */\n      0x00\n        /* \"#utility.yul\":10032:10035   */\n      dup3\n        /* \"#utility.yul\":10025:10029   */\n      0x1f\n        /* \"#utility.yul\":10017:10023   */\n      dup4\n        /* \"#utility.yul\":10013:10030   */\n      add\n        /* \"#utility.yul\":10009:10036   */\n      slt\n        /* \"#utility.yul\":9999:10121   */\n      tag_270\n      jumpi\n        /* \"#utility.yul\":10040:10119   */\n      tag_271\n      tag_112\n      jump\t// in\n    tag_271:\n        /* \"#utility.yul\":9999:10121   */\n    tag_270:\n        /* \"#utility.yul\":10157:10163   */\n      dup2\n        /* \"#utility.yul\":10144:10164   */\n      calldataload\n        /* \"#utility.yul\":10182:10260   */\n      tag_272\n        /* \"#utility.yul\":10256:10259   */\n      dup5\n        /* \"#utility.yul\":10248:10254   */\n      dup3\n        /* \"#utility.yul\":10241:10245   */\n      0x20\n        /* \"#utility.yul\":10233:10239   */\n      dup7\n        /* \"#utility.yul\":10229:10246   */\n      add\n        /* \"#utility.yul\":10182:10260   */\n      tag_132\n      jump\t// in\n    tag_272:\n        /* \"#utility.yul\":10173:10260   */\n      swap2\n      pop\n        /* \"#utility.yul\":9989:10266   */\n      pop\n        /* \"#utility.yul\":9928:10266   */\n      swap3\n      swap2\n      pop\n      pop\n      jump\t// out\n        /* \"#utility.yul\":10287:11229   */\n    tag_134:\n        /* \"#utility.yul\":10392:10397   */\n      0x00\n        /* \"#utility.yul\":10417:10507   */\n      tag_274\n        /* \"#utility.yul\":10433:10506   */\n      tag_275\n        /* \"#utility.yul\":10499:10505   */\n      dup5\n        /* \"#utility.yul\":10433:10506   */\n      tag_128\n      jump\t// in\n    tag_275:\n        /* \"#utility.yul\":10417:10507   */\n      tag_124\n      jump\t// in\n    tag_274:\n        /* \"#utility.yul\":10408:10507   */\n      swap1\n      pop\n        /* \"#utility.yul\":10527:10532   */\n      dup1\n        /* \"#utility.yul\":10556:10562   */\n      dup4\n        /* \"#utility.yul\":10549:10554   */\n      dup3\n        /* \"#utility.yul\":10542:10563   */\n      mstore\n        /* \"#utility.yul\":10590:10594   */\n      0x20\n        /* \"#utility.yul\":10583:10588   */\n      dup3\n        /* \"#utility.yul\":10579:10595   */\n      add\n        /* \"#utility.yul\":10572:10595   */\n      swap1\n      pop\n        /* \"#utility.yul\":10643:10647   */\n      0x20\n        /* \"#utility.yul\":10635:10641   */\n      dup5\n        /* \"#utility.yul\":10631:10648   */\n      mul\n        /* \"#utility.yul\":10623:10629   */\n      dup4\n        /* \"#utility.yul\":10619:10649   */\n      add\n        /* \"#utility.yul\":10672:10675   */\n      dup6\n        /* \"#utility.yul\":10664:10670   */\n      dup2\n        /* \"#utility.yul\":10661:10676   */\n      gt\n        /* \"#utility.yul\":10658:10780   */\n      iszero\n      tag_276\n      jumpi\n        /* \"#utility.yul\":10691:10770   */\n      tag_277\n      tag_114\n      jump\t// in\n    tag_277:\n        /* \"#utility.yul\":10658:10780   */\n    tag_276:\n        /* \"#utility.yul\":10806:10812   */\n      dup4\n        /* \"#utility.yul\":10789:11223   */\n    tag_278:\n        /* \"#utility.yul\":10823:10829   */\n      dup2\n        /* \"#utility.yul\":10818:10821   */\n      dup2\n        /* \"#utility.yul\":10815:10830   */\n      lt\n        /* \"#utility.yul\":10789:11223   */\n      iszero\n      tag_280\n      jumpi\n        /* \"#utility.yul\":10912:10915   */\n      dup1\n        /* \"#utility.yul\":10899:10916   */\n      calldataload\n        /* \"#utility.yul\":10948:10966   */\n      0xffffffffffffffff\n        /* \"#utility.yul\":10935:10946   */\n      dup2\n        /* \"#utility.yul\":10932:10967   */\n      gt\n        /* \"#utility.yul\":10929:11051   */\n      iszero\n      tag_281\n      jumpi\n        /* \"#utility.yul\":10970:11049   */\n      tag_282\n      tag_112\n      jump\t// in\n    tag_282:\n        /* \"#utility.yul\":10929:11051   */\n    tag_281:\n        /* \"#utility.yul\":11094:11105   */\n      dup1\n        /* \"#utility.yul\":11086:11092   */\n      dup7\n        /* \"#utility.yul\":11082:11106   */\n      add\n        /* \"#utility.yul\":11132:11178   */\n      tag_283\n        /* \"#utility.yul\":11174:11177   */\n      dup10\n        /* \"#utility.yul\":11162:11172   */\n      dup3\n        /* \"#utility.yul\":11132:11178   */\n      tag_133\n      jump\t// in\n    tag_283:\n        /* \"#utility.yul\":11127:11130   */\n      dup6\n        /* \"#utility.yul\":11120:11179   */\n      mstore\n        /* \"#utility.yul\":11208:11212   */\n      0x20\n        /* \"#utility.yul\":11203:11206   */\n      dup6\n        /* \"#utility.yul\":11199:11213   */\n      add\n        /* \"#utility.yul\":11192:11213   */\n      swap5\n      pop\n        /* \"#utility.yul\":10865:11223   */\n      pop\n      pop\n        /* \"#utility.yul\":10849:10853   */\n      0x20\n        /* \"#utility.yul\":10844:10847   */\n      dup2\n        /* \"#utility.yul\":10840:10854   */\n      add\n        /* \"#utility.yul\":10833:10854   */\n      swap1\n      pop\n        /* \"#utility.yul\":10789:11223   */\n      jump(tag_278)\n    tag_280:\n        /* \"#utility.yul\":10793:10814   */\n      pop\n        /* \"#utility.yul\":10398:11229   */\n      pop\n      pop\n        /* \"#utility.yul\":10287:11229   */\n      swap4\n      swap3\n      pop\n      pop\n      pop\n      jump\t// out\n        /* \"#utility.yul\":11250:11638   */\n    tag_135:\n        /* \"#utility.yul\":11330:11335   */\n      0x00\n        /* \"#utility.yul\":11379:11382   */\n      dup3\n        /* \"#utility.yul\":11372:11376   */\n      0x1f\n        /* \"#utility.yul\":11364:11370   */\n      dup4\n        /* \"#utility.yul\":11360:11377   */\n      add\n        /* \"#utility.yul\":11356:11383   */\n      slt\n        /* \"#utility.yul\":11346:11468   */\n      tag_285\n      jumpi\n        /* \"#utility.yul\":11387:11466   */\n      tag_286\n      tag_112\n      jump\t// in\n    tag_286:\n        /* \"#utility.yul\":11346:11468   */\n    tag_285:\n        /* \"#utility.yul\":11504:11510   */\n      dup2\n        /* \"#utility.yul\":11491:11511   */\n      calldataload\n        /* \"#utility.yul\":11529:11632   */\n      tag_287\n        /* \"#utility.yul\":11628:11631   */\n      dup5\n        /* \"#utility.yul\":11620:11626   */\n      dup3\n        /* \"#utility.yul\":11613:11617   */\n      0x20\n        /* \"#utility.yul\":11605:11611   */\n      dup7\n        /* \"#utility.yul\":11601:11618   */\n      add\n        /* \"#utility.yul\":11529:11632   */\n      tag_134\n      jump\t// in\n    tag_287:\n        /* \"#utility.yul\":11520:11632   */\n      swap2\n      pop\n        /* \"#utility.yul\":11336:11638   */\n      pop\n        /* \"#utility.yul\":11250:11638   */\n      swap3\n      swap2\n      pop\n      pop\n      jump\t// out\n        /* \"#utility.yul\":11644:12556   */\n    tag_46:\n        /* \"#utility.yul\":11771:11777   */\n      0x00\n        /* \"#utility.yul\":11779:11785   */\n      0x00\n        /* \"#utility.yul\":11828:11830   */\n      0x40\n        /* \"#utility.yul\":11816:11825   */\n      dup4\n        /* \"#utility.yul\":11807:11814   */\n      dup6\n        /* \"#utility.yul\":11803:11826   */\n      sub\n        /* \"#utility.yul\":11799:11831   */\n      slt\n        /* \"#utility.yul\":11796:11915   */\n      iszero\n      tag_289\n      jumpi\n        /* \"#utility.yul\":11834:11913   */\n      tag_290\n      tag_104\n      jump\t// in\n    tag_290:\n        /* \"#utility.yul\":11796:11915   */\n    tag_289:\n        /* \"#utility.yul\":11982:11983   */\n      0x00\n        /* \"#utility.yul\":11971:11980   */\n      dup4\n        /* \"#utility.yul\":11967:11984   */\n      add\n        /* \"#utility.yul\":11954:11985   */\n      calldataload\n        /* \"#utility.yul\":12012:12030   */\n      0xffffffffffffffff\n        /* \"#utility.yul\":12004:12010   */\n      dup2\n        /* \"#utility.yul\":12001:12031   */\n      gt\n        /* \"#utility.yul\":11998:12115   */\n      iszero\n      tag_291\n      jumpi\n        /* \"#utility.yul\":12034:12113   */\n      tag_292\n      tag_105\n      jump\t// in\n    tag_292:\n        /* \"#utility.yul\":11998:12115   */\n    tag_291:\n        /* \"#utility.yul\":12139:12217   */\n      tag_293\n        /* \"#utility.yul\":12209:12216   */\n      dup6\n        /* \"#utility.yul\":12200:12206   */\n      dup3\n        /* \"#utility.yul\":12189:12198   */\n      dup7\n        /* \"#utility.yul\":12185:12207   */\n      add\n        /* \"#utility.yul\":12139:12217   */\n      tag_127\n      jump\t// in\n    tag_293:\n        /* \"#utility.yul\":12129:12217   */\n      swap3\n      pop\n        /* \"#utility.yul\":11925:12227   */\n      pop\n        /* \"#utility.yul\":12294:12296   */\n      0x20\n        /* \"#utility.yul\":12283:12292   */\n      dup4\n        /* \"#utility.yul\":12279:12297   */\n      add\n        /* \"#utility.yul\":12266:12298   */\n      calldataload\n        /* \"#utility.yul\":12325:12343   */\n      0xffffffffffffffff\n        /* \"#utility.yul\":12317:12323   */\n      dup2\n        /* \"#utility.yul\":12314:12344   */\n      gt\n        /* \"#utility.yul\":12311:12428   */\n      iszero\n      tag_294\n      jumpi\n        /* \"#utility.yul\":12347:12426   */\n      tag_295\n      tag_105\n      jump\t// in\n    tag_295:\n        /* \"#utility.yul\":12311:12428   */\n    tag_294:\n        /* \"#utility.yul\":12452:12539   */\n      tag_296\n        /* \"#utility.yul\":12531:12538   */\n      dup6\n        /* \"#utility.yul\":12522:12528   */\n      dup3\n        /* \"#utility.yul\":12511:12520   */\n      dup7\n        /* \"#utility.yul\":12507:12529   */\n      add\n        /* \"#utility.yul\":12452:12539   */\n      tag_135\n      jump\t// in\n    tag_296:\n        /* \"#utility.yul\":12442:12539   */\n      swap2\n      pop\n        /* \"#utility.yul\":12237:12549   */\n      pop\n        /* \"#utility.yul\":11644:12556   */\n      swap3\n      pop\n      swap3\n      swap1\n      pop\n      jump\t// out\n        /* \"#utility.yul\":12562:12742   */\n    tag_52:\n        /* \"#utility.yul\":12610:12687   */\n      0x4e487b7100000000000000000000000000000000000000000000000000000000\n        /* \"#utility.yul\":12607:12608   */\n      0x00\n        /* \"#utility.yul\":12600:12688   */\n      mstore\n        /* \"#utility.yul\":12707:12711   */\n      0x32\n        /* \"#utility.yul\":12704:12705   */\n      0x04\n        /* \"#utility.yul\":12697:12712   */\n      mstore\n        /* \"#utility.yul\":12731:12735   */\n      0x24\n        /* \"#utility.yul\":12728:12729   */\n      0x00\n        /* \"#utility.yul\":12721:12736   */\n      revert\n        /* \"#utility.yul\":12748:12846   */\n    tag_136:\n        /* \"#utility.yul\":12799:12805   */\n      0x00\n        /* \"#utility.yul\":12833:12838   */\n      dup2\n        /* \"#utility.yul\":12827:12839   */\n      mload\n        /* \"#utility.yul\":12817:12839   */\n      swap1\n      pop\n        /* \"#utility.yul\":12748:12846   */\n      swap2\n      swap1\n      pop\n      jump\t// out\n        /* \"#utility.yul\":12852:12999   */\n    tag_137:\n        /* \"#utility.yul\":12953:12964   */\n      0x00\n        /* \"#utility.yul\":12990:12993   */\n      dup2\n        /* \"#utility.yul\":12975:12993   */\n      swap1\n      pop\n        /* \"#utility.yul\":12852:12999   */\n      swap3\n      swap2\n      pop\n      pop\n      jump\t// out\n        /* \"#utility.yul\":13005:13144   */\n    tag_138:\n        /* \"#utility.yul\":13094:13100   */\n      dup3\n        /* \"#utility.yul\":13089:13092   */\n      dup2\n        /* \"#utility.yul\":13084:13087   */\n      dup4\n        /* \"#utility.yul\":13078:13101   */\n      mcopy\n        /* \"#utility.yul\":13135:13136   */\n      0x00\n        /* \"#utility.yul\":13126:13132   */\n      dup4\n        /* \"#utility.yul\":13121:13124   */\n      dup4\n        /* \"#utility.yul\":13117:13133   */\n      add\n        /* \"#utility.yul\":13110:13137   */\n      mstore\n        /* \"#utility.yul\":13005:13144   */\n      pop\n      pop\n      pop\n      jump\t// out\n        /* \"#utility.yul\":13150:13536   */\n    tag_139:\n        /* \"#utility.yul\":13254:13257   */\n      0x00\n        /* \"#utility.yul\":13282:13320   */\n      tag_302\n        /* \"#utility.yul\":13314:13319   */\n      dup3\n        /* \"#utility.yul\":13282:13320   */\n      tag_136\n      jump\t// in\n    tag_302:\n        /* \"#utility.yul\":13336:13424   */\n      tag_303\n        /* \"#utility.yul\":13417:13423   */\n      dup2\n        /* \"#utility.yul\":13412:13415   */\n      dup6\n        /* \"#utility.yul\":13336:13424   */\n      tag_137\n      jump\t// in\n    tag_303:\n        /* \"#utility.yul\":13329:13424   */\n      swap4\n      pop\n        /* \"#utility.yul\":13433:13498   */\n      tag_304\n        /* \"#utility.yul\":13491:13497   */\n      dup2\n        /* \"#utility.yul\":13486:13489   */\n      dup6\n        /* \"#utility.yul\":13479:13483   */\n      0x20\n        /* \"#utility.yul\":13472:13477   */\n      dup7\n        /* \"#utility.yul\":13468:13484   */\n      add\n        /* \"#utility.yul\":13433:13498   */\n      tag_138\n      jump\t// in\n    tag_304:\n        /* \"#utility.yul\":13523:13529   */\n      dup1\n        /* \"#utility.yul\":13518:13521   */\n      dup5\n        /* \"#utility.yul\":13514:13530   */\n      add\n        /* \"#utility.yul\":13507:13530   */\n      swap2\n      pop\n        /* \"#utility.yul\":13258:13536   */\n      pop\n        /* \"#utility.yul\":13150:13536   */\n      swap3\n      swap2\n      pop\n      pop\n      jump\t// out\n        /* \"#utility.yul\":13542:13813   */\n    tag_56:\n        /* \"#utility.yul\":13672:13675   */\n      0x00\n        /* \"#utility.yul\":13694:13787   */\n      tag_306\n        /* \"#utility.yul\":13783:13786   */\n      dup3\n        /* \"#utility.yul\":13774:13780   */\n      dup5\n        /* \"#utility.yul\":13694:13787   */\n      tag_139\n      jump\t// in\n    tag_306:\n        /* \"#utility.yul\":13687:13787   */\n      swap2\n      pop\n        /* \"#utility.yul\":13804:13807   */\n      dup2\n        /* \"#utility.yul\":13797:13807   */\n      swap1\n      pop\n        /* \"#utility.yul\":13542:13813   */\n      swap3\n      swap2\n      pop\n      pop\n      jump\t// out\n        /* \"#utility.yul\":13819:13988   */\n    tag_140:\n        /* \"#utility.yul\":13903:13914   */\n      0x00\n        /* \"#utility.yul\":13937:13943   */\n      dup3\n        /* \"#utility.yul\":13932:13935   */\n      dup3\n        /* \"#utility.yul\":13925:13944   */\n      mstore\n        /* \"#utility.yul\":13977:13981   */\n      0x20\n        /* \"#utility.yul\":13972:13975   */\n      dup3\n        /* \"#utility.yul\":13968:13982   */\n      add\n        /* \"#utility.yul\":13953:13982   */\n      swap1\n      pop\n        /* \"#utility.yul\":13819:13988   */\n      swap3\n      swap2\n      pop\n      pop\n      jump\t// out\n        /* \"#utility.yul\":13994:14170   */\n    tag_141:\n        /* \"#utility.yul\":14134:14162   */\n      0x417262697472616765206f7065726174696f6e206661696c6564000000000000\n        /* \"#utility.yul\":14130:14131   */\n      0x00\n        /* \"#utility.yul\":14122:14128   */\n      dup3\n        /* \"#utility.yul\":14118:14132   */\n      add\n        /* \"#utility.yul\":14111:14163   */\n      mstore\n        /* \"#utility.yul\":13994:14170   */\n      pop\n      jump\t// out\n        /* \"#utility.yul\":14176:14542   */\n    tag_142:\n        /* \"#utility.yul\":14318:14321   */\n      0x00\n        /* \"#utility.yul\":14339:14406   */\n      tag_310\n        /* \"#utility.yul\":14403:14405   */\n      0x1a\n        /* \"#utility.yul\":14398:14401   */\n      dup4\n        /* \"#utility.yul\":14339:14406   */\n      tag_140\n      jump\t// in\n    tag_310:\n        /* \"#utility.yul\":14332:14406   */\n      swap2\n      pop\n        /* \"#utility.yul\":14415:14508   */\n      tag_311\n        /* \"#utility.yul\":14504:14507   */\n      dup3\n        /* \"#utility.yul\":14415:14508   */\n      tag_141\n      jump\t// in\n    tag_311:\n        /* \"#utility.yul\":14533:14535   */\n      0x20\n        /* \"#utility.yul\":14528:14531   */\n      dup3\n        /* \"#utility.yul\":14524:14536   */\n      add\n        /* \"#utility.yul\":14517:14536   */\n      swap1\n      pop\n        /* \"#utility.yul\":14176:14542   */\n      swap2\n      swap1\n      pop\n      jump\t// out\n        /* \"#utility.yul\":14548:14967   */\n    tag_62:\n        /* \"#utility.yul\":14714:14718   */\n      0x00\n        /* \"#utility.yul\":14752:14754   */\n      0x20\n        /* \"#utility.yul\":14741:14750   */\n      dup3\n        /* \"#utility.yul\":14737:14755   */\n      add\n        /* \"#utility.yul\":14729:14755   */\n      swap1\n      pop\n        /* \"#utility.yul\":14801:14810   */\n      dup2\n        /* \"#utility.yul\":14795:14799   */\n      dup2\n        /* \"#utility.yul\":14791:14811   */\n      sub\n        /* \"#utility.yul\":14787:14788   */\n      0x00\n        /* \"#utility.yul\":14776:14785   */\n      dup4\n        /* \"#utility.yul\":14772:14789   */\n      add\n        /* \"#utility.yul\":14765:14812   */\n      mstore\n        /* \"#utility.yul\":14829:14960   */\n      tag_313\n        /* \"#utility.yul\":14955:14959   */\n      dup2\n        /* \"#utility.yul\":14829:14960   */\n      tag_142\n      jump\t// in\n    tag_313:\n        /* \"#utility.yul\":14821:14960   */\n      swap1\n      pop\n        /* \"#utility.yul\":14548:14967   */\n      swap2\n      swap1\n      pop\n      jump\t// out\n        /* \"#utility.yul\":14973:15153   */\n    tag_143:\n        /* \"#utility.yul\":15021:15098   */\n      0x4e487b7100000000000000000000000000000000000000000000000000000000\n        /* \"#utility.yul\":15018:15019   */\n      0x00\n        /* \"#utility.yul\":15011:15099   */\n      mstore\n        /* \"#utility.yul\":15118:15122   */\n      0x11\n        /* \"#utility.yul\":15115:15116   */\n      0x04\n        /* \"#utility.yul\":15108:15123   */\n      mstore\n        /* \"#utility.yul\":15142:15146   */\n      0x24\n        /* \"#utility.yul\":15139:15140   */\n      0x00\n        /* \"#utility.yul\":15132:15147   */\n      revert\n        /* \"#utility.yul\":15159:15350   */\n    tag_64:\n        /* \"#utility.yul\":15199:15202   */\n      0x00\n        /* \"#utility.yul\":15218:15238   */\n      tag_316\n        /* \"#utility.yul\":15236:15237   */\n      dup3\n        /* \"#utility.yul\":15218:15238   */\n      tag_109\n      jump\t// in\n    tag_316:\n        /* \"#utility.yul\":15213:15238   */\n      swap2\n      pop\n        /* \"#utility.yul\":15252:15272   */\n      tag_317\n        /* \"#utility.yul\":15270:15271   */\n      dup4\n        /* \"#utility.yul\":15252:15272   */\n      tag_109\n      jump\t// in\n    tag_317:\n        /* \"#utility.yul\":15247:15272   */\n      swap3\n      pop\n        /* \"#utility.yul\":15295:15296   */\n      dup3\n        /* \"#utility.yul\":15292:15293   */\n      dup3\n        /* \"#utility.yul\":15288:15297   */\n      add\n        /* \"#utility.yul\":15281:15297   */\n      swap1\n      pop\n        /* \"#utility.yul\":15316:15319   */\n      dup1\n        /* \"#utility.yul\":15313:15314   */\n      dup3\n        /* \"#utility.yul\":15310:15320   */\n      gt\n        /* \"#utility.yul\":15307:15343   */\n      iszero\n      tag_318\n      jumpi\n        /* \"#utility.yul\":15323:15341   */\n      tag_319\n      tag_143\n      jump\t// in\n    tag_319:\n        /* \"#utility.yul\":15307:15343   */\n    tag_318:\n        /* \"#utility.yul\":15159:15350   */\n      swap3\n      swap2\n      pop\n      pop\n      jump\t// out\n        /* \"#utility.yul\":15356:15474   */\n    tag_144:\n        /* \"#utility.yul\":15443:15467   */\n      tag_321\n        /* \"#utility.yul\":15461:15466   */\n      dup2\n        /* \"#utility.yul\":15443:15467   */\n      tag_106\n      jump\t// in\n    tag_321:\n        /* \"#utility.yul\":15438:15441   */\n      dup3\n        /* \"#utility.yul\":15431:15468   */\n      mstore\n        /* \"#utility.yul\":15356:15474   */\n      pop\n      pop\n      jump\t// out\n        /* \"#utility.yul\":15480:15812   */\n    tag_66:\n        /* \"#utility.yul\":15601:15605   */\n      0x00\n        /* \"#utility.yul\":15639:15641   */\n      0x40\n        /* \"#utility.yul\":15628:15637   */\n      dup3\n        /* \"#utility.yul\":15624:15642   */\n      add\n        /* \"#utility.yul\":15616:15642   */\n      swap1\n      pop\n        /* \"#utility.yul\":15652:15723   */\n      tag_323\n        /* \"#utility.yul\":15720:15721   */\n      0x00\n        /* \"#utility.yul\":15709:15718   */\n      dup4\n        /* \"#utility.yul\":15705:15722   */\n      add\n        /* \"#utility.yul\":15696:15702   */\n      dup6\n        /* \"#utility.yul\":15652:15723   */\n      tag_144\n      jump\t// in\n    tag_323:\n        /* \"#utility.yul\":15733:15805   */\n      tag_324\n        /* \"#utility.yul\":15801:15803   */\n      0x20\n        /* \"#utility.yul\":15790:15799   */\n      dup4\n        /* \"#utility.yul\":15786:15804   */\n      add\n        /* \"#utility.yul\":15777:15783   */\n      dup5\n        /* \"#utility.yul\":15733:15805   */\n      tag_120\n      jump\t// in\n    tag_324:\n        /* \"#utility.yul\":15480:15812   */\n      swap4\n      swap3\n      pop\n      pop\n      pop\n      jump\t// out\n        /* \"#utility.yul\":15818:15934   */\n    tag_145:\n        /* \"#utility.yul\":15888:15909   */\n      tag_326\n        /* \"#utility.yul\":15903:15908   */\n      dup2\n        /* \"#utility.yul\":15888:15909   */\n      tag_116\n      jump\t// in\n    tag_326:\n        /* \"#utility.yul\":15881:15886   */\n      dup2\n        /* \"#utility.yul\":15878:15910   */\n      eq\n        /* \"#utility.yul\":15868:15928   */\n      tag_327\n      jumpi\n        /* \"#utility.yul\":15924:15925   */\n      0x00\n        /* \"#utility.yul\":15921:15922   */\n      0x00\n        /* \"#utility.yul\":15914:15926   */\n      revert\n        /* \"#utility.yul\":15868:15928   */\n    tag_327:\n        /* \"#utility.yul\":15818:15934   */\n      pop\n      jump\t// out\n        /* \"#utility.yul\":15940:16077   */\n    tag_146:\n        /* \"#utility.yul\":15994:15999   */\n      0x00\n        /* \"#utility.yul\":16025:16031   */\n      dup2\n        /* \"#utility.yul\":16019:16032   */\n      mload\n        /* \"#utility.yul\":16010:16032   */\n      swap1\n      pop\n        /* \"#utility.yul\":16041:16071   */\n      tag_329\n        /* \"#utility.yul\":16065:16070   */\n      dup2\n        /* \"#utility.yul\":16041:16071   */\n      tag_145\n      jump\t// in\n    tag_329:\n        /* \"#utility.yul\":15940:16077   */\n      swap3\n      swap2\n      pop\n      pop\n      jump\t// out\n        /* \"#utility.yul\":16083:16428   */\n    tag_70:\n        /* \"#utility.yul\":16150:16156   */\n      0x00\n        /* \"#utility.yul\":16199:16201   */\n      0x20\n        /* \"#utility.yul\":16187:16196   */\n      dup3\n        /* \"#utility.yul\":16178:16185   */\n      dup5\n        /* \"#utility.yul\":16174:16197   */\n      sub\n        /* \"#utility.yul\":16170:16202   */\n      slt\n        /* \"#utility.yul\":16167:16286   */\n      iszero\n      tag_331\n      jumpi\n        /* \"#utility.yul\":16205:16284   */\n      tag_332\n      tag_104\n      jump\t// in\n    tag_332:\n        /* \"#utility.yul\":16167:16286   */\n    tag_331:\n        /* \"#utility.yul\":16325:16326   */\n      0x00\n        /* \"#utility.yul\":16350:16411   */\n      tag_333\n        /* \"#utility.yul\":16403:16410   */\n      dup5\n        /* \"#utility.yul\":16394:16400   */\n      dup3\n        /* \"#utility.yul\":16383:16392   */\n      dup6\n        /* \"#utility.yul\":16379:16401   */\n      add\n        /* \"#utility.yul\":16350:16411   */\n      tag_146\n      jump\t// in\n    tag_333:\n        /* \"#utility.yul\":16340:16411   */\n      swap2\n      pop\n        /* \"#utility.yul\":16296:16421   */\n      pop\n        /* \"#utility.yul\":16083:16428   */\n      swap3\n      swap2\n      pop\n      pop\n      jump\t// out\n        /* \"#utility.yul\":16434:16616   */\n    tag_147:\n        /* \"#utility.yul\":16574:16608   */\n      0x4f776e61626c653a2063616c6c6572206973206e6f7420746865206f776e6572\n        /* \"#utility.yul\":16570:16571   */\n      0x00\n        /* \"#utility.yul\":16562:16568   */\n      dup3\n        /* \"#utility.yul\":16558:16572   */\n      add\n        /* \"#utility.yul\":16551:16609   */\n      mstore\n        /* \"#utility.yul\":16434:16616   */\n      pop\n      jump\t// out\n        /* \"#utility.yul\":16622:16988   */\n    tag_148:\n        /* \"#utility.yul\":16764:16767   */\n      0x00\n        /* \"#utility.yul\":16785:16852   */\n      tag_336\n        /* \"#utility.yul\":16849:16851   */\n      0x20\n        /* \"#utility.yul\":16844:16847   */\n      dup4\n        /* \"#utility.yul\":16785:16852   */\n      tag_140\n      jump\t// in\n    tag_336:\n        /* \"#utility.yul\":16778:16852   */\n      swap2\n      pop\n        /* \"#utility.yul\":16861:16954   */\n      tag_337\n        /* \"#utility.yul\":16950:16953   */\n      dup3\n        /* \"#utility.yul\":16861:16954   */\n      tag_147\n      jump\t// in\n    tag_337:\n        /* \"#utility.yul\":16979:16981   */\n      0x20\n        /* \"#utility.yul\":16974:16977   */\n      dup3\n        /* \"#utility.yul\":16970:16982   */\n      add\n        /* \"#utility.yul\":16963:16982   */\n      swap1\n      pop\n        /* \"#utility.yul\":16622:16988   */\n      swap2\n      swap1\n      pop\n      jump\t// out\n        /* \"#utility.yul\":16994:17413   */\n    tag_74:\n        /* \"#utility.yul\":17160:17164   */\n      0x00\n        /* \"#utility.yul\":17198:17200   */\n      0x20\n        /* \"#utility.yul\":17187:17196   */\n      dup3\n        /* \"#utility.yul\":17183:17201   */\n      add\n        /* \"#utility.yul\":17175:17201   */\n      swap1\n      pop\n        /* \"#utility.yul\":17247:17256   */\n      dup2\n        /* \"#utility.yul\":17241:17245   */\n      dup2\n        /* \"#utility.yul\":17237:17257   */\n      sub\n        /* \"#utility.yul\":17233:17234   */\n      0x00\n        /* \"#utility.yul\":17222:17231   */\n      dup4\n        /* \"#utility.yul\":17218:17235   */\n      add\n        /* \"#utility.yul\":17211:17258   */\n      mstore\n        /* \"#utility.yul\":17275:17406   */\n      tag_339\n        /* \"#utility.yul\":17401:17405   */\n      dup2\n        /* \"#utility.yul\":17275:17406   */\n      tag_148\n      jump\t// in\n    tag_339:\n        /* \"#utility.yul\":17267:17406   */\n      swap1\n      pop\n        /* \"#utility.yul\":16994:17413   */\n      swap2\n      swap1\n      pop\n      jump\t// out\n        /* \"#utility.yul\":17419:17641   */\n    tag_77:\n        /* \"#utility.yul\":17512:17516   */\n      0x00\n        /* \"#utility.yul\":17550:17552   */\n      0x20\n        /* \"#utility.yul\":17539:17548   */\n      dup3\n        /* \"#utility.yul\":17535:17553   */\n      add\n        /* \"#utility.yul\":17527:17553   */\n      swap1\n      pop\n        /* \"#utility.yul\":17563:17634   */\n      tag_341\n        /* \"#utility.yul\":17631:17632   */\n      0x00\n        /* \"#utility.yul\":17620:17629   */\n      dup4\n        /* \"#utility.yul\":17616:17633   */\n      add\n        /* \"#utility.yul\":17607:17613   */\n      dup5\n        /* \"#utility.yul\":17563:17634   */\n      tag_144\n      jump\t// in\n    tag_341:\n        /* \"#utility.yul\":17419:17641   */\n      swap3\n      swap2\n      pop\n      pop\n      jump\t// out\n        /* \"#utility.yul\":17647:17790   */\n    tag_149:\n        /* \"#utility.yul\":17704:17709   */\n      0x00\n        /* \"#utility.yul\":17735:17741   */\n      dup2\n        /* \"#utility.yul\":17729:17742   */\n      mload\n        /* \"#utility.yul\":17720:17742   */\n      swap1\n      pop\n        /* \"#utility.yul\":17751:17784   */\n      tag_343\n        /* \"#utility.yul\":17778:17783   */\n      dup2\n        /* \"#utility.yul\":17751:17784   */\n      tag_110\n      jump\t// in\n    tag_343:\n        /* \"#utility.yul\":17647:17790   */\n      swap3\n      swap2\n      pop\n      pop\n      jump\t// out\n        /* \"#utility.yul\":17796:18147   */\n    tag_81:\n        /* \"#utility.yul\":17866:17872   */\n      0x00\n        /* \"#utility.yul\":17915:17917   */\n      0x20\n        /* \"#utility.yul\":17903:17912   */\n      dup3\n        /* \"#utility.yul\":17894:17901   */\n      dup5\n        /* \"#utility.yul\":17890:17913   */\n      sub\n        /* \"#utility.yul\":17886:17918   */\n      slt\n        /* \"#utility.yul\":17883:18002   */\n      iszero\n      tag_345\n      jumpi\n        /* \"#utility.yul\":17921:18000   */\n      tag_346\n      tag_104\n      jump\t// in\n    tag_346:\n        /* \"#utility.yul\":17883:18002   */\n    tag_345:\n        /* \"#utility.yul\":18041:18042   */\n      0x00\n        /* \"#utility.yul\":18066:18130   */\n      tag_347\n        /* \"#utility.yul\":18122:18129   */\n      dup5\n        /* \"#utility.yul\":18113:18119   */\n      dup3\n        /* \"#utility.yul\":18102:18111   */\n      dup6\n        /* \"#utility.yul\":18098:18120   */\n      add\n        /* \"#utility.yul\":18066:18130   */\n      tag_149\n      jump\t// in\n    tag_347:\n        /* \"#utility.yul\":18056:18130   */\n      swap2\n      pop\n        /* \"#utility.yul\":18012:18140   */\n      pop\n        /* \"#utility.yul\":17796:18147   */\n      swap3\n      swap2\n      pop\n      pop\n      jump\t// out\n        /* \"#utility.yul\":18153:18321   */\n    tag_150:\n        /* \"#utility.yul\":18236:18247   */\n      0x00\n        /* \"#utility.yul\":18270:18276   */\n      dup3\n        /* \"#utility.yul\":18265:18268   */\n      dup3\n        /* \"#utility.yul\":18258:18277   */\n      mstore\n        /* \"#utility.yul\":18310:18314   */\n      0x20\n        /* \"#utility.yul\":18305:18308   */\n      dup3\n        /* \"#utility.yul\":18301:18315   */\n      add\n        /* \"#utility.yul\":18286:18315   */\n      swap1\n      pop\n        /* \"#utility.yul\":18153:18321   */\n      swap3\n      swap2\n      pop\n      pop\n      jump\t// out\n        /* \"#utility.yul\":18327:18700   */\n    tag_151:\n        /* \"#utility.yul\":18413:18416   */\n      0x00\n        /* \"#utility.yul\":18441:18479   */\n      tag_350\n        /* \"#utility.yul\":18473:18478   */\n      dup3\n        /* \"#utility.yul\":18441:18479   */\n      tag_136\n      jump\t// in\n    tag_350:\n        /* \"#utility.yul\":18495:18565   */\n      tag_351\n        /* \"#utility.yul\":18558:18564   */\n      dup2\n        /* \"#utility.yul\":18553:18556   */\n      dup6\n        /* \"#utility.yul\":18495:18565   */\n      tag_150\n      jump\t// in\n    tag_351:\n        /* \"#utility.yul\":18488:18565   */\n      swap4\n      pop\n        /* \"#utility.yul\":18574:18639   */\n      tag_352\n        /* \"#utility.yul\":18632:18638   */\n      dup2\n        /* \"#utility.yul\":18627:18630   */\n      dup6\n        /* \"#utility.yul\":18620:18624   */\n      0x20\n        /* \"#utility.yul\":18613:18618   */\n      dup7\n        /* \"#utility.yul\":18609:18625   */\n      add\n        /* \"#utility.yul\":18574:18639   */\n      tag_138\n      jump\t// in\n    tag_352:\n        /* \"#utility.yul\":18664:18693   */\n      tag_353\n        /* \"#utility.yul\":18686:18692   */\n      dup2\n        /* \"#utility.yul\":18664:18693   */\n      tag_121\n      jump\t// in\n    tag_353:\n        /* \"#utility.yul\":18659:18662   */\n      dup5\n        /* \"#utility.yul\":18655:18694   */\n      add\n        /* \"#utility.yul\":18648:18694   */\n      swap2\n      pop\n        /* \"#utility.yul\":18417:18700   */\n      pop\n        /* \"#utility.yul\":18327:18700   */\n      swap3\n      swap2\n      pop\n      pop\n      jump\t// out\n        /* \"#utility.yul\":18706:18795   */\n    tag_152:\n        /* \"#utility.yul\":18742:18749   */\n      0x00\n        /* \"#utility.yul\":18782:18788   */\n      0xffff\n        /* \"#utility.yul\":18775:18780   */\n      dup3\n        /* \"#utility.yul\":18771:18789   */\n      and\n        /* \"#utility.yul\":18760:18789   */\n      swap1\n      pop\n        /* \"#utility.yul\":18706:18795   */\n      swap2\n      swap1\n      pop\n      jump\t// out\n        /* \"#utility.yul\":18801:18916   */\n    tag_153:\n        /* \"#utility.yul\":18886:18909   */\n      tag_356\n        /* \"#utility.yul\":18903:18908   */\n      dup2\n        /* \"#utility.yul\":18886:18909   */\n      tag_152\n      jump\t// in\n    tag_356:\n        /* \"#utility.yul\":18881:18884   */\n      dup3\n        /* \"#utility.yul\":18874:18910   */\n      mstore\n        /* \"#utility.yul\":18801:18916   */\n      pop\n      pop\n      jump\t// out\n        /* \"#utility.yul\":18922:19669   */\n    tag_88:\n        /* \"#utility.yul\":19143:19147   */\n      0x00\n        /* \"#utility.yul\":19181:19184   */\n      0xa0\n        /* \"#utility.yul\":19170:19179   */\n      dup3\n        /* \"#utility.yul\":19166:19185   */\n      add\n        /* \"#utility.yul\":19158:19185   */\n      swap1\n      pop\n        /* \"#utility.yul\":19195:19266   */\n      tag_358\n        /* \"#utility.yul\":19263:19264   */\n      0x00\n        /* \"#utility.yul\":19252:19261   */\n      dup4\n        /* \"#utility.yul\":19248:19265   */\n      add\n        /* \"#utility.yul\":19239:19245   */\n      dup9\n        /* \"#utility.yul\":19195:19266   */\n      tag_144\n      jump\t// in\n    tag_358:\n        /* \"#utility.yul\":19276:19348   */\n      tag_359\n        /* \"#utility.yul\":19344:19346   */\n      0x20\n        /* \"#utility.yul\":19333:19342   */\n      dup4\n        /* \"#utility.yul\":19329:19347   */\n      add\n        /* \"#utility.yul\":19320:19326   */\n      dup8\n        /* \"#utility.yul\":19276:19348   */\n      tag_144\n      jump\t// in\n    tag_359:\n        /* \"#utility.yul\":19358:19430   */\n      tag_360\n        /* \"#utility.yul\":19426:19428   */\n      0x40\n        /* \"#utility.yul\":19415:19424   */\n      dup4\n        /* \"#utility.yul\":19411:19429   */\n      add\n        /* \"#utility.yul\":19402:19408   */\n      dup7\n        /* \"#utility.yul\":19358:19430   */\n      tag_120\n      jump\t// in\n    tag_360:\n        /* \"#utility.yul\":19477:19486   */\n      dup2\n        /* \"#utility.yul\":19471:19475   */\n      dup2\n        /* \"#utility.yul\":19467:19487   */\n      sub\n        /* \"#utility.yul\":19462:19464   */\n      0x60\n        /* \"#utility.yul\":19451:19460   */\n      dup4\n        /* \"#utility.yul\":19447:19465   */\n      add\n        /* \"#utility.yul\":19440:19488   */\n      mstore\n        /* \"#utility.yul\":19505:19581   */\n      tag_361\n        /* \"#utility.yul\":19576:19580   */\n      dup2\n        /* \"#utility.yul\":19567:19573   */\n      dup6\n        /* \"#utility.yul\":19505:19581   */\n      tag_151\n      jump\t// in\n    tag_361:\n        /* \"#utility.yul\":19497:19581   */\n      swap1\n      pop\n        /* \"#utility.yul\":19591:19662   */\n      tag_362\n        /* \"#utility.yul\":19657:19660   */\n      0x80\n        /* \"#utility.yul\":19646:19655   */\n      dup4\n        /* \"#utility.yul\":19642:19661   */\n      add\n        /* \"#utility.yul\":19633:19639   */\n      dup5\n        /* \"#utility.yul\":19591:19662   */\n      tag_153\n      jump\t// in\n    tag_362:\n        /* \"#utility.yul\":18922:19669   */\n      swap7\n      swap6\n      pop\n      pop\n      pop\n      pop\n      pop\n      pop\n      jump\t// out\n\n    auxdata: 0xa264697066735822122034e90b9ddaf95664f0b3779131669dc2fa245d5423256f2f33e5ab650db19f0b64736f6c634300081b0033\n}\n",
				"bytecode": {
					"linkReferences": {},
					"object": "60c060405234801561000f575f5ffd5b5060405161131f38038061131f83398181016040528101906100319190610201565b808073ffffffffffffffffffffffffffffffffffffffff1660808173ffffffffffffffffffffffffffffffffffffffff16815250508073ffffffffffffffffffffffffffffffffffffffff1663026b1d5f6040518163ffffffff1660e01b8152600401602060405180830381865afa1580156100af573d5f5f3e3d5ffd5b505050506040513d601f19601f820116820180604052508101906100d39190610201565b73ffffffffffffffffffffffffffffffffffffffff1660a08173ffffffffffffffffffffffffffffffffffffffff168152505050335f5f6101000a81548173ffffffffffffffffffffffffffffffffffffffff021916908373ffffffffffffffffffffffffffffffffffffffff1602179055507f8ffcdc15a283d706d38281f500270d8b5a656918f555de0913d7455e3e6bc1bf5f5f9054906101000a900473ffffffffffffffffffffffffffffffffffffffff166040516101959190610287565b60405180910390a1506102a0565b5f5ffd5b5f73ffffffffffffffffffffffffffffffffffffffff82169050919050565b5f6101d0826101a7565b9050919050565b6101e0816101c6565b81146101ea575f5ffd5b50565b5f815190506101fb816101d7565b92915050565b5f60208284031215610216576102156101a3565b5b5f610223848285016101ed565b91505092915050565b5f819050919050565b5f61024f61024a610245846101a7565b61022c565b6101a7565b9050919050565b5f61026082610235565b9050919050565b5f61027182610256565b9050919050565b61028181610267565b82525050565b5f60208201905061029a5f830184610278565b92915050565b60805160a0516110506102cf5f395f81816102df015281816104f9015261053f01525f61018101526110505ff3fe608060405260043610610058575f3560e01c80630542975c146100635780631b11d0ff1461008d57806351cff8d9146100c95780637535d246146100f1578063d54ba9541461011b578063f8b2cb4f146101435761005f565b3661005f57005b5f5ffd5b34801561006e575f5ffd5b5061007761017f565b60405161008491906106ce565b60405180910390f35b348015610098575f5ffd5b506100b360048036038101906100ae91906107c7565b6101a3565b6040516100c09190610877565b60405180910390f35b3480156100d4575f5ffd5b506100ef60048036038101906100ea9190610890565b61036e565b005b3480156100fc575f5ffd5b506101056104f7565b60405161011291906108db565b60405180910390f35b348015610126575f5ffd5b50610141600480360381019061013c91906108f4565b61051b565b005b34801561014e575f5ffd5b5061016960048036038101906101649190610890565b6105d4565b6040516101769190610941565b60405180910390f35b7f000000000000000000000000000000000000000000000000000000000000000081565b5f5f5f84848101906101b59190610c30565b915091505f5f90505b82518110156102b1575f8382815181106101db576101da610ca6565b5b602002602001015173ffffffffffffffffffffffffffffffffffffffff1683838151811061020c5761020b610ca6565b5b60200260200101516040516102219190610d25565b5f604051808303815f865af19150503d805f811461025a576040519150601f19603f3d011682016040523d82523d5f602084013e61025f565b606091505b50509050806102a3576040517f08c379a000000000000000000000000000000000000000000000000000000000815260040161029a90610d95565b60405180910390fd5b5080806001019150506101be565b505f87896102bf9190610de0565b90508973ffffffffffffffffffffffffffffffffffffffff1663095ea7b37f0000000000000000000000000000000000000000000000000000000000000000836040518363ffffffff1660e01b815260040161031c929190610e22565b6020604051808303815f875af1158015610338573d5f5f3e3d5ffd5b505050506040513d601f19601f8201168201806040525081019061035c9190610e73565b50600193505050509695505050505050565b5f5f9054906101000a900473ffffffffffffffffffffffffffffffffffffffff1673ffffffffffffffffffffffffffffffffffffffff163373ffffffffffffffffffffffffffffffffffffffff16146103fc576040517f08c379a00000000000000000000000000000000000000000000000000000000081526004016103f390610ee8565b60405180910390fd5b5f8190508073ffffffffffffffffffffffffffffffffffffffff1663a9059cbb338373ffffffffffffffffffffffffffffffffffffffff166370a08231306040518263ffffffff1660e01b81526004016104569190610f06565b602060405180830381865afa158015610471573d5f5f3e3d5ffd5b505050506040513d601f19601f820116820180604052508101906104959190610f33565b6040518363ffffffff1660e01b81526004016104b2929190610e22565b6020604051808303815f875af11580156104ce573d5f5f3e3d5ffd5b505050506040513d601f19601f820116820180604052508101906104f29190610e73565b505050565b7f000000000000000000000000000000000000000000000000000000000000000081565b5f3090505f8390505f8390505f60405180602001604052805f81525090505f5f90507f000000000000000000000000000000000000000000000000000000000000000073ffffffffffffffffffffffffffffffffffffffff166342b0b77c86868686866040518663ffffffff1660e01b815260040161059e959493929190610fc2565b5f604051808303815f87803b1580156105b5575f5ffd5b505af11580156105c7573d5f5f3e3d5ffd5b5050505050505050505050565b5f8173ffffffffffffffffffffffffffffffffffffffff166370a08231306040518263ffffffff1660e01b815260040161060e9190610f06565b602060405180830381865afa158015610629573d5f5f3e3d5ffd5b505050506040513d601f19601f8201168201806040525081019061064d9190610f33565b9050919050565b5f73ffffffffffffffffffffffffffffffffffffffff82169050919050565b5f819050919050565b5f61069661069161068c84610654565b610673565b610654565b9050919050565b5f6106a78261067c565b9050919050565b5f6106b88261069d565b9050919050565b6106c8816106ae565b82525050565b5f6020820190506106e15f8301846106bf565b92915050565b5f604051905090565b5f5ffd5b5f5ffd5b5f61070282610654565b9050919050565b610712816106f8565b811461071c575f5ffd5b50565b5f8135905061072d81610709565b92915050565b5f819050919050565b61074581610733565b811461074f575f5ffd5b50565b5f813590506107608161073c565b92915050565b5f5ffd5b5f5ffd5b5f5ffd5b5f5f83601f84011261078757610786610766565b5b8235905067ffffffffffffffff8111156107a4576107a361076a565b5b6020830191508360018202830111156107c0576107bf61076e565b5b9250929050565b5f5f5f5f5f5f60a087890312156107e1576107e06106f0565b5b5f6107ee89828a0161071f565b96505060206107ff89828a01610752565b955050604061081089828a01610752565b945050606061082189828a0161071f565b935050608087013567ffffffffffffffff811115610842576108416106f4565b5b61084e89828a01610772565b92509250509295509295509295565b5f8115159050919050565b6108718161085d565b82525050565b5f60208201905061088a5f830184610868565b92915050565b5f602082840312156108a5576108a46106f0565b5b5f6108b28482850161071f565b91505092915050565b5f6108c58261069d565b9050919050565b6108d5816108bb565b82525050565b5f6020820190506108ee5f8301846108cc565b92915050565b5f5f6040838503121561090a576109096106f0565b5b5f6109178582860161071f565b925050602061092885828601610752565b9150509250929050565b61093b81610733565b82525050565b5f6020820190506109545f830184610932565b92915050565b5f601f19601f8301169050919050565b7f4e487b71000000000000000000000000000000000000000000000000000000005f52604160045260245ffd5b6109a08261095a565b810181811067ffffffffffffffff821117156109bf576109be61096a565b5b80604052505050565b5f6109d16106e7565b90506109dd8282610997565b919050565b5f67ffffffffffffffff8211156109fc576109fb61096a565b5b602082029050602081019050919050565b5f610a1f610a1a846109e2565b6109c8565b90508083825260208201905060208402830185811115610a4257610a4161076e565b5b835b81811015610a6b5780610a57888261071f565b845260208401935050602081019050610a44565b5050509392505050565b5f82601f830112610a8957610a88610766565b5b8135610a99848260208601610a0d565b91505092915050565b5f67ffffffffffffffff821115610abc57610abb61096a565b5b602082029050602081019050919050565b5f5ffd5b5f67ffffffffffffffff821115610aeb57610aea61096a565b5b610af48261095a565b9050602081019050919050565b828183375f83830152505050565b5f610b21610b1c84610ad1565b6109c8565b905082815260208101848484011115610b3d57610b3c610acd565b5b610b48848285610b01565b509392505050565b5f82601f830112610b6457610b63610766565b5b8135610b74848260208601610b0f565b91505092915050565b5f610b8f610b8a84610aa2565b6109c8565b90508083825260208201905060208402830185811115610bb257610bb161076e565b5b835b81811015610bf957803567ffffffffffffffff811115610bd757610bd6610766565b5b808601610be48982610b50565b85526020850194505050602081019050610bb4565b5050509392505050565b5f82601f830112610c1757610c16610766565b5b8135610c27848260208601610b7d565b91505092915050565b5f5f60408385031215610c4657610c456106f0565b5b5f83013567ffffffffffffffff811115610c6357610c626106f4565b5b610c6f85828601610a75565b925050602083013567ffffffffffffffff811115610c9057610c8f6106f4565b5b610c9c85828601610c03565b9150509250929050565b7f4e487b71000000000000000000000000000000000000000000000000000000005f52603260045260245ffd5b5f81519050919050565b5f81905092915050565b8281835e5f83830152505050565b5f610cff82610cd3565b610d098185610cdd565b9350610d19818560208601610ce7565b80840191505092915050565b5f610d308284610cf5565b915081905092915050565b5f82825260208201905092915050565b7f417262697472616765206f7065726174696f6e206661696c65640000000000005f82015250565b5f610d7f601a83610d3b565b9150610d8a82610d4b565b602082019050919050565b5f6020820190508181035f830152610dac81610d73565b9050919050565b7f4e487b71000000000000000000000000000000000000000000000000000000005f52601160045260245ffd5b5f610dea82610733565b9150610df583610733565b9250828201905080821115610e0d57610e0c610db3565b5b92915050565b610e1c816106f8565b82525050565b5f604082019050610e355f830185610e13565b610e426020830184610932565b9392505050565b610e528161085d565b8114610e5c575f5ffd5b50565b5f81519050610e6d81610e49565b92915050565b5f60208284031215610e8857610e876106f0565b5b5f610e9584828501610e5f565b91505092915050565b7f4f776e61626c653a2063616c6c6572206973206e6f7420746865206f776e65725f82015250565b5f610ed2602083610d3b565b9150610edd82610e9e565b602082019050919050565b5f6020820190508181035f830152610eff81610ec6565b9050919050565b5f602082019050610f195f830184610e13565b92915050565b5f81519050610f2d8161073c565b92915050565b5f60208284031215610f4857610f476106f0565b5b5f610f5584828501610f1f565b91505092915050565b5f82825260208201905092915050565b5f610f7882610cd3565b610f828185610f5e565b9350610f92818560208601610ce7565b610f9b8161095a565b840191505092915050565b5f61ffff82169050919050565b610fbc81610fa6565b82525050565b5f60a082019050610fd55f830188610e13565b610fe26020830187610e13565b610fef6040830186610932565b81810360608301526110018185610f6e565b90506110106080830184610fb3565b969550505050505056fea264697066735822122034e90b9ddaf95664f0b3779131669dc2fa245d5423256f2f33e5ab650db19f0b64736f6c634300081b0033",
					"opcodes": "PUSH1 0xC0 PUSH1 0x40 MSTORE CALLVALUE DUP1 ISZERO PUSH2 0xF JUMPI PUSH0 PUSH0 REVERT JUMPDEST POP PUSH1 0x40 MLOAD PUSH2 0x131F CODESIZE SUB DUP1 PUSH2 0x131F DUP4 CODECOPY DUP2 DUP2 ADD PUSH1 0x40 MSTORE DUP2 ADD SWAP1 PUSH2 0x31 SWAP2 SWAP1 PUSH2 0x201 JUMP JUMPDEST DUP1 DUP1 PUSH20 0xFFFFFFFFFFFFFFFFFFFFFFFFFFFFFFFFFFFFFFFF AND PUSH1 0x80 DUP2 PUSH20 0xFFFFFFFFFFFFFFFFFFFFFFFFFFFFFFFFFFFFFFFF AND DUP2 MSTORE POP POP DUP1 PUSH20 0xFFFFFFFFFFFFFFFFFFFFFFFFFFFFFFFFFFFFFFFF AND PUSH4 0x26B1D5F PUSH1 0x40 MLOAD DUP2 PUSH4 0xFFFFFFFF AND PUSH1 0xE0 SHL DUP2 MSTORE PUSH1 0x4 ADD PUSH1 0x20 PUSH1 0x40 MLOAD DUP1 DUP4 SUB DUP2 DUP7 GAS STATICCALL ISZERO DUP1 ISZERO PUSH2 0xAF JUMPI RETURNDATASIZE PUSH0 PUSH0 RETURNDATACOPY RETURNDATASIZE PUSH0 REVERT JUMPDEST POP POP POP POP PUSH1 0x40 MLOAD RETURNDATASIZE PUSH1 0x1F NOT PUSH1 0x1F DUP3 ADD AND DUP3 ADD DUP1 PUSH1 0x40 MSTORE POP DUP2 ADD SWAP1 PUSH2 0xD3 SWAP2 SWAP1 PUSH2 0x201 JUMP JUMPDEST PUSH20 0xFFFFFFFFFFFFFFFFFFFFFFFFFFFFFFFFFFFFFFFF AND PUSH1 0xA0 DUP2 PUSH20 0xFFFFFFFFFFFFFFFFFFFFFFFFFFFFFFFFFFFFFFFF AND DUP2 MSTORE POP POP POP CALLER PUSH0 PUSH0 PUSH2 0x100 EXP DUP2 SLOAD DUP2 PUSH20 0xFFFFFFFFFFFFFFFFFFFFFFFFFFFFFFFFFFFFFFFF MUL NOT AND SWAP1 DUP4 PUSH20 0xFFFFFFFFFFFFFFFFFFFFFFFFFFFFFFFFFFFFFFFF AND MUL OR SWAP1 SSTORE POP PUSH32 0x8FFCDC15A283D706D38281F500270D8B5A656918F555DE0913D7455E3E6BC1BF PUSH0 PUSH0 SWAP1 SLOAD SWAP1 PUSH2 0x100 EXP SWAP1 DIV PUSH20 0xFFFFFFFFFFFFFFFFFFFFFFFFFFFFFFFFFFFFFFFF AND PUSH1 0x40 MLOAD PUSH2 0x195 SWAP2 SWAP1 PUSH2 0x287 JUMP JUMPDEST PUSH1 0x40 MLOAD DUP1 SWAP2 SUB SWAP1 LOG1 POP PUSH2 0x2A0 JUMP JUMPDEST PUSH0 PUSH0 REVERT JUMPDEST PUSH0 PUSH20 0xFFFFFFFFFFFFFFFFFFFFFFFFFFFFFFFFFFFFFFFF DUP3 AND SWAP1 POP SWAP2 SWAP1 POP JUMP JUMPDEST PUSH0 PUSH2 0x1D0 DUP3 PUSH2 0x1A7 JUMP JUMPDEST SWAP1 POP SWAP2 SWAP1 POP JUMP JUMPDEST PUSH2 0x1E0 DUP2 PUSH2 0x1C6 JUMP JUMPDEST DUP2 EQ PUSH2 0x1EA JUMPI PUSH0 PUSH0 REVERT JUMPDEST POP JUMP JUMPDEST PUSH0 DUP2 MLOAD SWAP1 POP PUSH2 0x1FB DUP2 PUSH2 0x1D7 JUMP JUMPDEST SWAP3 SWAP2 POP POP JUMP JUMPDEST PUSH0 PUSH1 0x20 DUP3 DUP5 SUB SLT ISZERO PUSH2 0x216 JUMPI PUSH2 0x215 PUSH2 0x1A3 JUMP JUMPDEST JUMPDEST PUSH0 PUSH2 0x223 DUP5 DUP3 DUP6 ADD PUSH2 0x1ED JUMP JUMPDEST SWAP2 POP POP SWAP3 SWAP2 POP POP JUMP JUMPDEST PUSH0 DUP2 SWAP1 POP SWAP2 SWAP1 POP JUMP JUMPDEST PUSH0 PUSH2 0x24F PUSH2 0x24A PUSH2 0x245 DUP5 PUSH2 0x1A7 JUMP JUMPDEST PUSH2 0x22C JUMP JUMPDEST PUSH2 0x1A7 JUMP JUMPDEST SWAP1 POP SWAP2 SWAP1 POP JUMP JUMPDEST PUSH0 PUSH2 0x260 DUP3 PUSH2 0x235 JUMP JUMPDEST SWAP1 POP SWAP2 SWAP1 POP JUMP JUMPDEST PUSH0 PUSH2 0x271 DUP3 PUSH2 0x256 JUMP JUMPDEST SWAP1 POP SWAP2 SWAP1 POP JUMP JUMPDEST PUSH2 0x281 DUP2 PUSH2 0x267 JUMP JUMPDEST DUP3 MSTORE POP POP JUMP JUMPDEST PUSH0 PUSH1 0x20 DUP3 ADD SWAP1 POP PUSH2 0x29A PUSH0 DUP4 ADD DUP5 PUSH2 0x278 JUMP JUMPDEST SWAP3 SWAP2 POP POP JUMP JUMPDEST PUSH1 0x80 MLOAD PUSH1 0xA0 MLOAD PUSH2 0x1050 PUSH2 0x2CF PUSH0 CODECOPY PUSH0 DUP2 DUP2 PUSH2 0x2DF ADD MSTORE DUP2 DUP2 PUSH2 0x4F9 ADD MSTORE PUSH2 0x53F ADD MSTORE PUSH0 PUSH2 0x181 ADD MSTORE PUSH2 0x1050 PUSH0 RETURN INVALID PUSH1 0x80 PUSH1 0x40 MSTORE PUSH1 0x4 CALLDATASIZE LT PUSH2 0x58 JUMPI PUSH0 CALLDATALOAD PUSH1 0xE0 SHR DUP1 PUSH4 0x542975C EQ PUSH2 0x63 JUMPI DUP1 PUSH4 0x1B11D0FF EQ PUSH2 0x8D JUMPI DUP1 PUSH4 0x51CFF8D9 EQ PUSH2 0xC9 JUMPI DUP1 PUSH4 0x7535D246 EQ PUSH2 0xF1 JUMPI DUP1 PUSH4 0xD54BA954 EQ PUSH2 0x11B JUMPI DUP1 PUSH4 0xF8B2CB4F EQ PUSH2 0x143 JUMPI PUSH2 0x5F JUMP JUMPDEST CALLDATASIZE PUSH2 0x5F JUMPI STOP JUMPDEST PUSH0 PUSH0 REVERT JUMPDEST CALLVALUE DUP1 ISZERO PUSH2 0x6E JUMPI PUSH0 PUSH0 REVERT JUMPDEST POP PUSH2 0x77 PUSH2 0x17F JUMP JUMPDEST PUSH1 0x40 MLOAD PUSH2 0x84 SWAP2 SWAP1 PUSH2 0x6CE JUMP JUMPDEST PUSH1 0x40 MLOAD DUP1 SWAP2 SUB SWAP1 RETURN JUMPDEST CALLVALUE DUP1 ISZERO PUSH2 0x98 JUMPI PUSH0 PUSH0 REVERT JUMPDEST POP PUSH2 0xB3 PUSH1 0x4 DUP1 CALLDATASIZE SUB DUP2 ADD SWAP1 PUSH2 0xAE SWAP2 SWAP1 PUSH2 0x7C7 JUMP JUMPDEST PUSH2 0x1A3 JUMP JUMPDEST PUSH1 0x40 MLOAD PUSH2 0xC0 SWAP2 SWAP1 PUSH2 0x877 JUMP JUMPDEST PUSH1 0x40 MLOAD DUP1 SWAP2 SUB SWAP1 RETURN JUMPDEST CALLVALUE DUP1 ISZERO PUSH2 0xD4 JUMPI PUSH0 PUSH0 REVERT JUMPDEST POP PUSH2 0xEF PUSH1 0x4 DUP1 CALLDATASIZE SUB DUP2 ADD SWAP1 PUSH2 0xEA SWAP2 SWAP1 PUSH2 0x890 JUMP JUMPDEST PUSH2 0x36E JUMP JUMPDEST STOP JUMPDEST CALLVALUE DUP1 ISZERO PUSH2 0xFC JUMPI PUSH0 PUSH0 REVERT JUMPDEST POP PUSH2 0x105 PUSH2 0x4F7 JUMP JUMPDEST PUSH1 0x40 MLOAD PUSH2 0x112 SWAP2 SWAP1 PUSH2 0x8DB JUMP JUMPDEST PUSH1 0x40 MLOAD DUP1 SWAP2 SUB SWAP1 RETURN JUMPDEST CALLVALUE DUP1 ISZERO PUSH2 0x126 JUMPI PUSH0 PUSH0 REVERT JUMPDEST POP PUSH2 0x141 PUSH1 0x4 DUP1 CALLDATASIZE SUB DUP2 ADD SWAP1 PUSH2 0x13C SWAP2 SWAP1 PUSH2 0x8F4 JUMP JUMPDEST PUSH2 0x51B JUMP JUMPDEST STOP JUMPDEST CALLVALUE DUP1 ISZERO PUSH2 0x14E JUMPI PUSH0 PUSH0 REVERT JUMPDEST POP PUSH2 0x169 PUSH1 0x4 DUP1 CALLDATASIZE SUB DUP2 ADD SWAP1 PUSH2 0x164 SWAP2 SWAP1 PUSH2 0x890 JUMP JUMPDEST PUSH2 0x5D4 JUMP JUMPDEST PUSH1 0x40 MLOAD PUSH2 0x176 SWAP2 SWAP1 PUSH2 0x941 JUMP JUMPDEST PUSH1 0x40 MLOAD DUP1 SWAP2 SUB SWAP1 RETURN JUMPDEST PUSH32 0x0 DUP2 JUMP JUMPDEST PUSH0 PUSH0 PUSH0 DUP5 DUP5 DUP2 ADD SWAP1 PUSH2 0x1B5 SWAP2 SWAP1 PUSH2 0xC30 JUMP JUMPDEST SWAP2 POP SWAP2 POP PUSH0 PUSH0 SWAP1 POP JUMPDEST DUP3 MLOAD DUP2 LT ISZERO PUSH2 0x2B1 JUMPI PUSH0 DUP4 DUP3 DUP2 MLOAD DUP2 LT PUSH2 0x1DB JUMPI PUSH2 0x1DA PUSH2 0xCA6 JUMP JUMPDEST JUMPDEST PUSH1 0x20 MUL PUSH1 0x20 ADD ADD MLOAD PUSH20 0xFFFFFFFFFFFFFFFFFFFFFFFFFFFFFFFFFFFFFFFF AND DUP4 DUP4 DUP2 MLOAD DUP2 LT PUSH2 0x20C JUMPI PUSH2 0x20B PUSH2 0xCA6 JUMP JUMPDEST JUMPDEST PUSH1 0x20 MUL PUSH1 0x20 ADD ADD MLOAD PUSH1 0x40 MLOAD PUSH2 0x221 SWAP2 SWAP1 PUSH2 0xD25 JUMP JUMPDEST PUSH0 PUSH1 0x40 MLOAD DUP1 DUP4 SUB DUP2 PUSH0 DUP7 GAS CALL SWAP2 POP POP RETURNDATASIZE DUP1 PUSH0 DUP2 EQ PUSH2 0x25A JUMPI PUSH1 0x40 MLOAD SWAP2 POP PUSH1 0x1F NOT PUSH1 0x3F RETURNDATASIZE ADD AND DUP3 ADD PUSH1 0x40 MSTORE RETURNDATASIZE DUP3 MSTORE RETURNDATASIZE PUSH0 PUSH1 0x20 DUP5 ADD RETURNDATACOPY PUSH2 0x25F JUMP JUMPDEST PUSH1 0x60 SWAP2 POP JUMPDEST POP POP SWAP1 POP DUP1 PUSH2 0x2A3 JUMPI PUSH1 0x40 MLOAD PUSH32 0x8C379A000000000000000000000000000000000000000000000000000000000 DUP2 MSTORE PUSH1 0x4 ADD PUSH2 0x29A SWAP1 PUSH2 0xD95 JUMP JUMPDEST PUSH1 0x40 MLOAD DUP1 SWAP2 SUB SWAP1 REVERT JUMPDEST POP DUP1 DUP1 PUSH1 0x1 ADD SWAP2 POP POP PUSH2 0x1BE JUMP JUMPDEST POP PUSH0 DUP8 DUP10 PUSH2 0x2BF SWAP2 SWAP1 PUSH2 0xDE0 JUMP JUMPDEST SWAP1 POP DUP10 PUSH20 0xFFFFFFFFFFFFFFFFFFFFFFFFFFFFFFFFFFFFFFFF AND PUSH4 0x95EA7B3 PUSH32 0x0 DUP4 PUSH1 0x40 MLOAD DUP4 PUSH4 0xFFFFFFFF AND PUSH1 0xE0 SHL DUP2 MSTORE PUSH1 0x4 ADD PUSH2 0x31C SWAP3 SWAP2 SWAP1 PUSH2 0xE22 JUMP JUMPDEST PUSH1 0x20 PUSH1 0x40 MLOAD DUP1 DUP4 SUB DUP2 PUSH0 DUP8 GAS CALL ISZERO DUP1 ISZERO PUSH2 0x338 JUMPI RETURNDATASIZE PUSH0 PUSH0 RETURNDATACOPY RETURNDATASIZE PUSH0 REVERT JUMPDEST POP POP POP POP PUSH1 0x40 MLOAD RETURNDATASIZE PUSH1 0x1F NOT PUSH1 0x1F DUP3 ADD AND DUP3 ADD DUP1 PUSH1 0x40 MSTORE POP DUP2 ADD SWAP1 PUSH2 0x35C SWAP2 SWAP1 PUSH2 0xE73 JUMP JUMPDEST POP PUSH1 0x1 SWAP4 POP POP POP POP SWAP7 SWAP6 POP POP POP POP POP POP JUMP JUMPDEST PUSH0 PUSH0 SWAP1 SLOAD SWAP1 PUSH2 0x100 EXP SWAP1 DIV PUSH20 0xFFFFFFFFFFFFFFFFFFFFFFFFFFFFFFFFFFFFFFFF AND PUSH20 0xFFFFFFFFFFFFFFFFFFFFFFFFFFFFFFFFFFFFFFFF AND CALLER PUSH20 0xFFFFFFFFFFFFFFFFFFFFFFFFFFFFFFFFFFFFFFFF AND EQ PUSH2 0x3FC JUMPI PUSH1 0x40 MLOAD PUSH32 0x8C379A000000000000000000000000000000000000000000000000000000000 DUP2 MSTORE PUSH1 0x4 ADD PUSH2 0x3F3 SWAP1 PUSH2 0xEE8 JUMP JUMPDEST PUSH1 0x40 MLOAD DUP1 SWAP2 SUB SWAP1 REVERT JUMPDEST PUSH0 DUP2 SWAP1 POP DUP1 PUSH20 0xFFFFFFFFFFFFFFFFFFFFFFFFFFFFFFFFFFFFFFFF AND PUSH4 0xA9059CBB CALLER DUP4 PUSH20 0xFFFFFFFFFFFFFFFFFFFFFFFFFFFFFFFFFFFFFFFF AND PUSH4 0x70A08231 ADDRESS PUSH1 0x40 MLOAD DUP3 PUSH4 0xFFFFFFFF AND PUSH1 0xE0 SHL DUP2 MSTORE PUSH1 0x4 ADD PUSH2 0x456 SWAP2 SWAP1 PUSH2 0xF06 JUMP JUMPDEST PUSH1 0x20 PUSH1 0x40 MLOAD DUP1 DUP4 SUB DUP2 DUP7 GAS STATICCALL ISZERO DUP1 ISZERO PUSH2 0x471 JUMPI RETURNDATASIZE PUSH0 PUSH0 RETURNDATACOPY RETURNDATASIZE PUSH0 REVERT JUMPDEST POP POP POP POP PUSH1 0x40 MLOAD RETURNDATASIZE PUSH1 0x1F NOT PUSH1 0x1F DUP3 ADD AND DUP3 ADD DUP1 PUSH1 0x40 MSTORE POP DUP2 ADD SWAP1 PUSH2 0x495 SWAP2 SWAP1 PUSH2 0xF33 JUMP JUMPDEST PUSH1 0x40 MLOAD DUP4 PUSH4 0xFFFFFFFF AND PUSH1 0xE0 SHL DUP2 MSTORE PUSH1 0x4 ADD PUSH2 0x4B2 SWAP3 SWAP2 SWAP1 PUSH2 0xE22 JUMP JUMPDEST PUSH1 0x20 PUSH1 0x40 MLOAD DUP1 DUP4 SUB DUP2 PUSH0 DUP8 GAS CALL ISZERO DUP1 ISZERO PUSH2 0x4CE JUMPI RETURNDATASIZE PUSH0 PUSH0 RETURNDATACOPY RETURNDATASIZE PUSH0 REVERT JUMPDEST POP POP POP POP PUSH1 0x40 MLOAD RETURNDATASIZE PUSH1 0x1F NOT PUSH1 0x1F DUP3 ADD AND DUP3 ADD DUP1 PUSH1 0x40 MSTORE POP DUP2 ADD SWAP1 PUSH2 0x4F2 SWAP2 SWAP1 PUSH2 0xE73 JUMP JUMPDEST POP POP POP JUMP JUMPDEST PUSH32 0x0 DUP2 JUMP JUMPDEST PUSH0 ADDRESS SWAP1 POP PUSH0 DUP4 SWAP1 POP PUSH0 DUP4 SWAP1 POP PUSH0 PUSH1 0x40 MLOAD DUP1 PUSH1 0x20 ADD PUSH1 0x40 MSTORE DUP1 PUSH0 DUP2 MSTORE POP SWAP1 POP PUSH0 PUSH0 SWAP1 POP PUSH32 0x0 PUSH20 0xFFFFFFFFFFFFFFFFFFFFFFFFFFFFFFFFFFFFFFFF AND PUSH4 0x42B0B77C DUP7 DUP7 DUP7 DUP7 DUP7 PUSH1 0x40 MLOAD DUP7 PUSH4 0xFFFFFFFF AND PUSH1 0xE0 SHL DUP2 MSTORE PUSH1 0x4 ADD PUSH2 0x59E SWAP6 SWAP5 SWAP4 SWAP3 SWAP2 SWAP1 PUSH2 0xFC2 JUMP JUMPDEST PUSH0 PUSH1 0x40 MLOAD DUP1 DUP4 SUB DUP2 PUSH0 DUP8 DUP1 EXTCODESIZE ISZERO DUP1 ISZERO PUSH2 0x5B5 JUMPI PUSH0 PUSH0 REVERT JUMPDEST POP GAS CALL ISZERO DUP1 ISZERO PUSH2 0x5C7 JUMPI RETURNDATASIZE PUSH0 PUSH0 RETURNDATACOPY RETURNDATASIZE PUSH0 REVERT JUMPDEST POP POP POP POP POP POP POP POP POP POP POP JUMP JUMPDEST PUSH0 DUP2 PUSH20 0xFFFFFFFFFFFFFFFFFFFFFFFFFFFFFFFFFFFFFFFF AND PUSH4 0x70A08231 ADDRESS PUSH1 0x40 MLOAD DUP3 PUSH4 0xFFFFFFFF AND PUSH1 0xE0 SHL DUP2 MSTORE PUSH1 0x4 ADD PUSH2 0x60E SWAP2 SWAP1 PUSH2 0xF06 JUMP JUMPDEST PUSH1 0x20 PUSH1 0x40 MLOAD DUP1 DUP4 SUB DUP2 DUP7 GAS STATICCALL ISZERO DUP1 ISZERO PUSH2 0x629 JUMPI RETURNDATASIZE PUSH0 PUSH0 RETURNDATACOPY RETURNDATASIZE PUSH0 REVERT JUMPDEST POP POP POP POP PUSH1 0x40 MLOAD RETURNDATASIZE PUSH1 0x1F NOT PUSH1 0x1F DUP3 ADD AND DUP3 ADD DUP1 PUSH1 0x40 MSTORE POP DUP2 ADD SWAP1 PUSH2 0x64D SWAP2 SWAP1 PUSH2 0xF33 JUMP JUMPDEST SWAP1 POP SWAP2 SWAP1 POP JUMP JUMPDEST PUSH0 PUSH20 0xFFFFFFFFFFFFFFFFFFFFFFFFFFFFFFFFFFFFFFFF DUP3 AND SWAP1 POP SWAP2 SWAP1 POP JUMP JUMPDEST PUSH0 DUP2 SWAP1 POP SWAP2 SWAP1 POP JUMP JUMPDEST PUSH0 PUSH2 0x696 PUSH2 0x691 PUSH2 0x68C DUP5 PUSH2 0x654 JUMP JUMPDEST PUSH2 0x673 JUMP JUMPDEST PUSH2 0x654 JUMP JUMPDEST SWAP1 POP SWAP2 SWAP1 POP JUMP JUMPDEST PUSH0 PUSH2 0x6A7 DUP3 PUSH2 0x67C JUMP JUMPDEST SWAP1 POP SWAP2 SWAP1 POP JUMP JUMPDEST PUSH0 PUSH2 0x6B8 DUP3 PUSH2 0x69D JUMP JUMPDEST SWAP1 POP SWAP2 SWAP1 POP JUMP JUMPDEST PUSH2 0x6C8 DUP2 PUSH2 0x6AE JUMP JUMPDEST DUP3 MSTORE POP POP JUMP JUMPDEST PUSH0 PUSH1 0x20 DUP3 ADD SWAP1 POP PUSH2 0x6E1 PUSH0 DUP4 ADD DUP5 PUSH2 0x6BF JUMP JUMPDEST SWAP3 SWAP2 POP POP JUMP JUMPDEST PUSH0 PUSH1 0x40 MLOAD SWAP1 POP SWAP1 JUMP JUMPDEST PUSH0 PUSH0 REVERT JUMPDEST PUSH0 PUSH0 REVERT JUMPDEST PUSH0 PUSH2 0x702 DUP3 PUSH2 0x654 JUMP JUMPDEST SWAP1 POP SWAP2 SWAP1 POP JUMP JUMPDEST PUSH2 0x712 DUP2 PUSH2 0x6F8 JUMP JUMPDEST DUP2 EQ PUSH2 0x71C JUMPI PUSH0 PUSH0 REVERT JUMPDEST POP JUMP JUMPDEST PUSH0 DUP2 CALLDATALOAD SWAP1 POP PUSH2 0x72D DUP2 PUSH2 0x709 JUMP JUMPDEST SWAP3 SWAP2 POP POP JUMP JUMPDEST PUSH0 DUP2 SWAP1 POP SWAP2 SWAP1 POP JUMP JUMPDEST PUSH2 0x745 DUP2 PUSH2 0x733 JUMP JUMPDEST DUP2 EQ PUSH2 0x74F JUMPI PUSH0 PUSH0 REVERT JUMPDEST POP JUMP JUMPDEST PUSH0 DUP2 CALLDATALOAD SWAP1 POP PUSH2 0x760 DUP2 PUSH2 0x73C JUMP JUMPDEST SWAP3 SWAP2 POP POP JUMP JUMPDEST PUSH0 PUSH0 REVERT JUMPDEST PUSH0 PUSH0 REVERT JUMPDEST PUSH0 PUSH0 REVERT JUMPDEST PUSH0 PUSH0 DUP4 PUSH1 0x1F DUP5 ADD SLT PUSH2 0x787 JUMPI PUSH2 0x786 PUSH2 0x766 JUMP JUMPDEST JUMPDEST DUP3 CALLDATALOAD SWAP1 POP PUSH8 0xFFFFFFFFFFFFFFFF DUP2 GT ISZERO PUSH2 0x7A4 JUMPI PUSH2 0x7A3 PUSH2 0x76A JUMP JUMPDEST JUMPDEST PUSH1 0x20 DUP4 ADD SWAP2 POP DUP4 PUSH1 0x1 DUP3 MUL DUP4 ADD GT ISZERO PUSH2 0x7C0 JUMPI PUSH2 0x7BF PUSH2 0x76E JUMP JUMPDEST JUMPDEST SWAP3 POP SWAP3 SWAP1 POP JUMP JUMPDEST PUSH0 PUSH0 PUSH0 PUSH0 PUSH0 PUSH0 PUSH1 0xA0 DUP8 DUP10 SUB SLT ISZERO PUSH2 0x7E1 JUMPI PUSH2 0x7E0 PUSH2 0x6F0 JUMP JUMPDEST JUMPDEST PUSH0 PUSH2 0x7EE DUP10 DUP3 DUP11 ADD PUSH2 0x71F JUMP JUMPDEST SWAP7 POP POP PUSH1 0x20 PUSH2 0x7FF DUP10 DUP3 DUP11 ADD PUSH2 0x752 JUMP JUMPDEST SWAP6 POP POP PUSH1 0x40 PUSH2 0x810 DUP10 DUP3 DUP11 ADD PUSH2 0x752 JUMP JUMPDEST SWAP5 POP POP PUSH1 0x60 PUSH2 0x821 DUP10 DUP3 DUP11 ADD PUSH2 0x71F JUMP JUMPDEST SWAP4 POP POP PUSH1 0x80 DUP8 ADD CALLDATALOAD PUSH8 0xFFFFFFFFFFFFFFFF DUP2 GT ISZERO PUSH2 0x842 JUMPI PUSH2 0x841 PUSH2 0x6F4 JUMP JUMPDEST JUMPDEST PUSH2 0x84E DUP10 DUP3 DUP11 ADD PUSH2 0x772 JUMP JUMPDEST SWAP3 POP SWAP3 POP POP SWAP3 SWAP6 POP SWAP3 SWAP6 POP SWAP3 SWAP6 JUMP JUMPDEST PUSH0 DUP2 ISZERO ISZERO SWAP1 POP SWAP2 SWAP1 POP JUMP JUMPDEST PUSH2 0x871 DUP2 PUSH2 0x85D JUMP JUMPDEST DUP3 MSTORE POP POP JUMP JUMPDEST PUSH0 PUSH1 0x20 DUP3 ADD SWAP1 POP PUSH2 0x88A PUSH0 DUP4 ADD DUP5 PUSH2 0x868 JUMP JUMPDEST SWAP3 SWAP2 POP POP JUMP JUMPDEST PUSH0 PUSH1 0x20 DUP3 DUP5 SUB SLT ISZERO PUSH2 0x8A5 JUMPI PUSH2 0x8A4 PUSH2 0x6F0 JUMP JUMPDEST JUMPDEST PUSH0 PUSH2 0x8B2 DUP5 DUP3 DUP6 ADD PUSH2 0x71F JUMP JUMPDEST SWAP2 POP POP SWAP3 SWAP2 POP POP JUMP JUMPDEST PUSH0 PUSH2 0x8C5 DUP3 PUSH2 0x69D JUMP JUMPDEST SWAP1 POP SWAP2 SWAP1 POP JUMP JUMPDEST PUSH2 0x8D5 DUP2 PUSH2 0x8BB JUMP JUMPDEST DUP3 MSTORE POP POP JUMP JUMPDEST PUSH0 PUSH1 0x20 DUP3 ADD SWAP1 POP PUSH2 0x8EE PUSH0 DUP4 ADD DUP5 PUSH2 0x8CC JUMP JUMPDEST SWAP3 SWAP2 POP POP JUMP JUMPDEST PUSH0 PUSH0 PUSH1 0x40 DUP4 DUP6 SUB SLT ISZERO PUSH2 0x90A JUMPI PUSH2 0x909 PUSH2 0x6F0 JUMP JUMPDEST JUMPDEST PUSH0 PUSH2 0x917 DUP6 DUP3 DUP7 ADD PUSH2 0x71F JUMP JUMPDEST SWAP3 POP POP PUSH1 0x20 PUSH2 0x928 DUP6 DUP3 DUP7 ADD PUSH2 0x752 JUMP JUMPDEST SWAP2 POP POP SWAP3 POP SWAP3 SWAP1 POP JUMP JUMPDEST PUSH2 0x93B DUP2 PUSH2 0x733 JUMP JUMPDEST DUP3 MSTORE POP POP JUMP JUMPDEST PUSH0 PUSH1 0x20 DUP3 ADD SWAP1 POP PUSH2 0x954 PUSH0 DUP4 ADD DUP5 PUSH2 0x932 JUMP JUMPDEST SWAP3 SWAP2 POP POP JUMP JUMPDEST PUSH0 PUSH1 0x1F NOT PUSH1 0x1F DUP4 ADD AND SWAP1 POP SWAP2 SWAP1 POP JUMP JUMPDEST PUSH32 0x4E487B7100000000000000000000000000000000000000000000000000000000 PUSH0 MSTORE PUSH1 0x41 PUSH1 0x4 MSTORE PUSH1 0x24 PUSH0 REVERT JUMPDEST PUSH2 0x9A0 DUP3 PUSH2 0x95A JUMP JUMPDEST DUP2 ADD DUP2 DUP2 LT PUSH8 0xFFFFFFFFFFFFFFFF DUP3 GT OR ISZERO PUSH2 0x9BF JUMPI PUSH2 0x9BE PUSH2 0x96A JUMP JUMPDEST JUMPDEST DUP1 PUSH1 0x40 MSTORE POP POP POP JUMP JUMPDEST PUSH0 PUSH2 0x9D1 PUSH2 0x6E7 JUMP JUMPDEST SWAP1 POP PUSH2 0x9DD DUP3 DUP3 PUSH2 0x997 JUMP JUMPDEST SWAP2 SWAP1 POP JUMP JUMPDEST PUSH0 PUSH8 0xFFFFFFFFFFFFFFFF DUP3 GT ISZERO PUSH2 0x9FC JUMPI PUSH2 0x9FB PUSH2 0x96A JUMP JUMPDEST JUMPDEST PUSH1 0x20 DUP3 MUL SWAP1 POP PUSH1 0x20 DUP2 ADD SWAP1 POP SWAP2 SWAP1 POP JUMP JUMPDEST PUSH0 PUSH2 0xA1F PUSH2 0xA1A DUP5 PUSH2 0x9E2 JUMP JUMPDEST PUSH2 0x9C8 JUMP JUMPDEST SWAP1 POP DUP1 DUP4 DUP3 MSTORE PUSH1 0x20 DUP3 ADD SWAP1 POP PUSH1 0x20 DUP5 MUL DUP4 ADD DUP6 DUP2 GT ISZERO PUSH2 0xA42 JUMPI PUSH2 0xA41 PUSH2 0x76E JUMP JUMPDEST JUMPDEST DUP4 JUMPDEST DUP2 DUP2 LT ISZERO PUSH2 0xA6B JUMPI DUP1 PUSH2 0xA57 DUP9 DUP3 PUSH2 0x71F JUMP JUMPDEST DUP5 MSTORE PUSH1 0x20 DUP5 ADD SWAP4 POP POP PUSH1 0x20 DUP2 ADD SWAP1 POP PUSH2 0xA44 JUMP JUMPDEST POP POP POP SWAP4 SWAP3 POP POP POP JUMP JUMPDEST PUSH0 DUP3 PUSH1 0x1F DUP4 ADD SLT PUSH2 0xA89 JUMPI PUSH2 0xA88 PUSH2 0x766 JUMP JUMPDEST JUMPDEST DUP2 CALLDATALOAD PUSH2 0xA99 DUP5 DUP3 PUSH1 0x20 DUP7 ADD PUSH2 0xA0D JUMP JUMPDEST SWAP2 POP POP SWAP3 SWAP2 POP POP JUMP JUMPDEST PUSH0 PUSH8 0xFFFFFFFFFFFFFFFF DUP3 GT ISZERO PUSH2 0xABC JUMPI PUSH2 0xABB PUSH2 0x96A JUMP JUMPDEST JUMPDEST PUSH1 0x20 DUP3 MUL SWAP1 POP PUSH1 0x20 DUP2 ADD SWAP1 POP SWAP2 SWAP1 POP JUMP JUMPDEST PUSH0 PUSH0 REVERT JUMPDEST PUSH0 PUSH8 0xFFFFFFFFFFFFFFFF DUP3 GT ISZERO PUSH2 0xAEB JUMPI PUSH2 0xAEA PUSH2 0x96A JUMP JUMPDEST JUMPDEST PUSH2 0xAF4 DUP3 PUSH2 0x95A JUMP JUMPDEST SWAP1 POP PUSH1 0x20 DUP2 ADD SWAP1 POP SWAP2 SWAP1 POP JUMP JUMPDEST DUP3 DUP2 DUP4 CALLDATACOPY PUSH0 DUP4 DUP4 ADD MSTORE POP POP POP JUMP JUMPDEST PUSH0 PUSH2 0xB21 PUSH2 0xB1C DUP5 PUSH2 0xAD1 JUMP JUMPDEST PUSH2 0x9C8 JUMP JUMPDEST SWAP1 POP DUP3 DUP2 MSTORE PUSH1 0x20 DUP2 ADD DUP5 DUP5 DUP5 ADD GT ISZERO PUSH2 0xB3D JUMPI PUSH2 0xB3C PUSH2 0xACD JUMP JUMPDEST JUMPDEST PUSH2 0xB48 DUP5 DUP3 DUP6 PUSH2 0xB01 JUMP JUMPDEST POP SWAP4 SWAP3 POP POP POP JUMP JUMPDEST PUSH0 DUP3 PUSH1 0x1F DUP4 ADD SLT PUSH2 0xB64 JUMPI PUSH2 0xB63 PUSH2 0x766 JUMP JUMPDEST JUMPDEST DUP2 CALLDATALOAD PUSH2 0xB74 DUP5 DUP3 PUSH1 0x20 DUP7 ADD PUSH2 0xB0F JUMP JUMPDEST SWAP2 POP POP SWAP3 SWAP2 POP POP JUMP JUMPDEST PUSH0 PUSH2 0xB8F PUSH2 0xB8A DUP5 PUSH2 0xAA2 JUMP JUMPDEST PUSH2 0x9C8 JUMP JUMPDEST SWAP1 POP DUP1 DUP4 DUP3 MSTORE PUSH1 0x20 DUP3 ADD SWAP1 POP PUSH1 0x20 DUP5 MUL DUP4 ADD DUP6 DUP2 GT ISZERO PUSH2 0xBB2 JUMPI PUSH2 0xBB1 PUSH2 0x76E JUMP JUMPDEST JUMPDEST DUP4 JUMPDEST DUP2 DUP2 LT ISZERO PUSH2 0xBF9 JUMPI DUP1 CALLDATALOAD PUSH8 0xFFFFFFFFFFFFFFFF DUP2 GT ISZERO PUSH2 0xBD7 JUMPI PUSH2 0xBD6 PUSH2 0x766 JUMP JUMPDEST JUMPDEST DUP1 DUP7 ADD PUSH2 0xBE4 DUP10 DUP3 PUSH2 0xB50 JUMP JUMPDEST DUP6 MSTORE PUSH1 0x20 DUP6 ADD SWAP5 POP POP POP PUSH1 0x20 DUP2 ADD SWAP1 POP PUSH2 0xBB4 JUMP JUMPDEST POP POP POP SWAP4 SWAP3 POP POP POP JUMP JUMPDEST PUSH0 DUP3 PUSH1 0x1F DUP4 ADD SLT PUSH2 0xC17 JUMPI PUSH2 0xC16 PUSH2 0x766 JUMP JUMPDEST JUMPDEST DUP2 CALLDATALOAD PUSH2 0xC27 DUP5 DUP3 PUSH1 0x20 DUP7 ADD PUSH2 0xB7D JUMP JUMPDEST SWAP2 POP POP SWAP3 SWAP2 POP POP JUMP JUMPDEST PUSH0 PUSH0 PUSH1 0x40 DUP4 DUP6 SUB SLT ISZERO PUSH2 0xC46 JUMPI PUSH2 0xC45 PUSH2 0x6F0 JUMP JUMPDEST JUMPDEST PUSH0 DUP4 ADD CALLDATALOAD PUSH8 0xFFFFFFFFFFFFFFFF DUP2 GT ISZERO PUSH2 0xC63 JUMPI PUSH2 0xC62 PUSH2 0x6F4 JUMP JUMPDEST JUMPDEST PUSH2 0xC6F DUP6 DUP3 DUP7 ADD PUSH2 0xA75 JUMP JUMPDEST SWAP3 POP POP PUSH1 0x20 DUP4 ADD CALLDATALOAD PUSH8 0xFFFFFFFFFFFFFFFF DUP2 GT ISZERO PUSH2 0xC90 JUMPI PUSH2 0xC8F PUSH2 0x6F4 JUMP JUMPDEST JUMPDEST PUSH2 0xC9C DUP6 DUP3 DUP7 ADD PUSH2 0xC03 JUMP JUMPDEST SWAP2 POP POP SWAP3 POP SWAP3 SWAP1 POP JUMP JUMPDEST PUSH32 0x4E487B7100000000000000000000000000000000000000000000000000000000 PUSH0 MSTORE PUSH1 0x32 PUSH1 0x4 MSTORE PUSH1 0x24 PUSH0 REVERT JUMPDEST PUSH0 DUP2 MLOAD SWAP1 POP SWAP2 SWAP1 POP JUMP JUMPDEST PUSH0 DUP2 SWAP1 POP SWAP3 SWAP2 POP POP JUMP JUMPDEST DUP3 DUP2 DUP4 MCOPY PUSH0 DUP4 DUP4 ADD MSTORE POP POP POP JUMP JUMPDEST PUSH0 PUSH2 0xCFF DUP3 PUSH2 0xCD3 JUMP JUMPDEST PUSH2 0xD09 DUP2 DUP6 PUSH2 0xCDD JUMP JUMPDEST SWAP4 POP PUSH2 0xD19 DUP2 DUP6 PUSH1 0x20 DUP7 ADD PUSH2 0xCE7 JUMP JUMPDEST DUP1 DUP5 ADD SWAP2 POP POP SWAP3 SWAP2 POP POP JUMP JUMPDEST PUSH0 PUSH2 0xD30 DUP3 DUP5 PUSH2 0xCF5 JUMP JUMPDEST SWAP2 POP DUP2 SWAP1 POP SWAP3 SWAP2 POP POP JUMP JUMPDEST PUSH0 DUP3 DUP3 MSTORE PUSH1 0x20 DUP3 ADD SWAP1 POP SWAP3 SWAP2 POP POP JUMP JUMPDEST PUSH32 0x417262697472616765206F7065726174696F6E206661696C6564000000000000 PUSH0 DUP3 ADD MSTORE POP JUMP JUMPDEST PUSH0 PUSH2 0xD7F PUSH1 0x1A DUP4 PUSH2 0xD3B JUMP JUMPDEST SWAP2 POP PUSH2 0xD8A DUP3 PUSH2 0xD4B JUMP JUMPDEST PUSH1 0x20 DUP3 ADD SWAP1 POP SWAP2 SWAP1 POP JUMP JUMPDEST PUSH0 PUSH1 0x20 DUP3 ADD SWAP1 POP DUP2 DUP2 SUB PUSH0 DUP4 ADD MSTORE PUSH2 0xDAC DUP2 PUSH2 0xD73 JUMP JUMPDEST SWAP1 POP SWAP2 SWAP1 POP JUMP JUMPDEST PUSH32 0x4E487B7100000000000000000000000000000000000000000000000000000000 PUSH0 MSTORE PUSH1 0x11 PUSH1 0x4 MSTORE PUSH1 0x24 PUSH0 REVERT JUMPDEST PUSH0 PUSH2 0xDEA DUP3 PUSH2 0x733 JUMP JUMPDEST SWAP2 POP PUSH2 0xDF5 DUP4 PUSH2 0x733 JUMP JUMPDEST SWAP3 POP DUP3 DUP3 ADD SWAP1 POP DUP1 DUP3 GT ISZERO PUSH2 0xE0D JUMPI PUSH2 0xE0C PUSH2 0xDB3 JUMP JUMPDEST JUMPDEST SWAP3 SWAP2 POP POP JUMP JUMPDEST PUSH2 0xE1C DUP2 PUSH2 0x6F8 JUMP JUMPDEST DUP3 MSTORE POP POP JUMP JUMPDEST PUSH0 PUSH1 0x40 DUP3 ADD SWAP1 POP PUSH2 0xE35 PUSH0 DUP4 ADD DUP6 PUSH2 0xE13 JUMP JUMPDEST PUSH2 0xE42 PUSH1 0x20 DUP4 ADD DUP5 PUSH2 0x932 JUMP JUMPDEST SWAP4 SWAP3 POP POP POP JUMP JUMPDEST PUSH2 0xE52 DUP2 PUSH2 0x85D JUMP JUMPDEST DUP2 EQ PUSH2 0xE5C JUMPI PUSH0 PUSH0 REVERT JUMPDEST POP JUMP JUMPDEST PUSH0 DUP2 MLOAD SWAP1 POP PUSH2 0xE6D DUP2 PUSH2 0xE49 JUMP JUMPDEST SWAP3 SWAP2 POP POP JUMP JUMPDEST PUSH0 PUSH1 0x20 DUP3 DUP5 SUB SLT ISZERO PUSH2 0xE88 JUMPI PUSH2 0xE87 PUSH2 0x6F0 JUMP JUMPDEST JUMPDEST PUSH0 PUSH2 0xE95 DUP5 DUP3 DUP6 ADD PUSH2 0xE5F JUMP JUMPDEST SWAP2 POP POP SWAP3 SWAP2 POP POP JUMP JUMPDEST PUSH32 0x4F776E61626C653A2063616C6C6572206973206E6F7420746865206F776E6572 PUSH0 DUP3 ADD MSTORE POP JUMP JUMPDEST PUSH0 PUSH2 0xED2 PUSH1 0x20 DUP4 PUSH2 0xD3B JUMP JUMPDEST SWAP2 POP PUSH2 0xEDD DUP3 PUSH2 0xE9E JUMP JUMPDEST PUSH1 0x20 DUP3 ADD SWAP1 POP SWAP2 SWAP1 POP JUMP JUMPDEST PUSH0 PUSH1 0x20 DUP3 ADD SWAP1 POP DUP2 DUP2 SUB PUSH0 DUP4 ADD MSTORE PUSH2 0xEFF DUP2 PUSH2 0xEC6 JUMP JUMPDEST SWAP1 POP SWAP2 SWAP1 POP JUMP JUMPDEST PUSH0 PUSH1 0x20 DUP3 ADD SWAP1 POP PUSH2 0xF19 PUSH0 DUP4 ADD DUP5 PUSH2 0xE13 JUMP JUMPDEST SWAP3 SWAP2 POP POP JUMP JUMPDEST PUSH0 DUP2 MLOAD SWAP1 POP PUSH2 0xF2D DUP2 PUSH2 0x73C JUMP JUMPDEST SWAP3 SWAP2 POP POP JUMP JUMPDEST PUSH0 PUSH1 0x20 DUP3 DUP5 SUB SLT ISZERO PUSH2 0xF48 JUMPI PUSH2 0xF47 PUSH2 0x6F0 JUMP JUMPDEST JUMPDEST PUSH0 PUSH2 0xF55 DUP5 DUP3 DUP6 ADD PUSH2 0xF1F JUMP JUMPDEST SWAP2 POP POP SWAP3 SWAP2 POP POP JUMP JUMPDEST PUSH0 DUP3 DUP3 MSTORE PUSH1 0x20 DUP3 ADD SWAP1 POP SWAP3 SWAP2 POP POP JUMP JUMPDEST PUSH0 PUSH2 0xF78 DUP3 PUSH2 0xCD3 JUMP JUMPDEST PUSH2 0xF82 DUP2 DUP6 PUSH2 0xF5E JUMP JUMPDEST SWAP4 POP PUSH2 0xF92 DUP2 DUP6 PUSH1 0x20 DUP7 ADD PUSH2 0xCE7 JUMP JUMPDEST PUSH2 0xF9B DUP2 PUSH2 0x95A JUMP JUMPDEST DUP5 ADD SWAP2 POP POP SWAP3 SWAP2 POP POP JUMP JUMPDEST PUSH0 PUSH2 0xFFFF DUP3 AND SWAP1 POP SWAP2 SWAP1 POP JUMP JUMPDEST PUSH2 0xFBC DUP2 PUSH2 0xFA6 JUMP JUMPDEST DUP3 MSTORE POP POP JUMP JUMPDEST PUSH0 PUSH1 0xA0 DUP3 ADD SWAP1 POP PUSH2 0xFD5 PUSH0 DUP4 ADD DUP9 PUSH2 0xE13 JUMP JUMPDEST PUSH2 0xFE2 PUSH1 0x20 DUP4 ADD DUP8 PUSH2 0xE13 JUMP JUMPDEST PUSH2 0xFEF PUSH1 0x40 DUP4 ADD DUP7 PUSH2 0x932 JUMP JUMPDEST DUP2 DUP2 SUB PUSH1 0x60 DUP4 ADD MSTORE PUSH2 0x1001 DUP2 DUP6 PUSH2 0xF6E JUMP JUMPDEST SWAP1 POP PUSH2 0x1010 PUSH1 0x80 DUP4 ADD DUP5 PUSH2 0xFB3 JUMP JUMPDEST SWAP7 SWAP6 POP POP POP POP POP POP JUMP INVALID LOG2 PUSH5 0x6970667358 0x22 SLT KECCAK256 CALLVALUE 0xE9 SIGNEXTEND SWAP14 0xDA 0xF9 JUMP PUSH5 0xF0B3779131 PUSH7 0x9DC2FA245D5423 0x25 PUSH16 0x2F33E5AB650DB19F0B64736F6C634300 ADDMOD SHL STOP CALLER "
				},
				"gasEstimates": {
					"creation": {
						"codeDepositCost": "835200",
						"executionCost": "infinite",
						"totalCost": "infinite"
					},
					"external": {
						"ADDRESSES_PROVIDER()": "infinite",
						"POOL()": "infinite",
						"executeOperation(address,uint256,uint256,address,bytes)": "infinite",
						"getBalance(address)": "infinite",
						"requestFlashLoan(address,uint256)": "infinite",
						"withdraw(address)": "infinite"
					}
				},
				"methodIdentifiers": {
					"ADDRESSES_PROVIDER()": "0542975c",
					"POOL()": "7535d246",
					"executeOperation(address,uint256,uint256,address,bytes)": "1b11d0ff",
					"getBalance(address)": "f8b2cb4f",
					"requestFlashLoan(address,uint256)": "d54ba954",
					"withdraw(address)": "51cff8d9"
				}
			},
			"storageLayout": {
				"storage": [
					{
						"astId": 11,
						"contract": "FlashLoanAave/contracts/FlashLoan.sol:FlashLoanArbitrage",
						"label": "owner",
						"offset": 0,
						"slot": "0",
						"type": "t_address_payable"
					}
				],
				"types": {
					"t_address_payable": {
						"encoding": "inplace",
						"label": "address payable",
						"numberOfBytes": "20"
					}
				}
			},
			"userdoc": {
				"kind": "user",
				"methods": {
					"executeOperation(address,uint256,uint256,address,bytes)": {
						"notice": "Executes an operation after receiving the flash-borrowed asset"
					}
				},
				"version": 1
			}
		}
	}
}