{
	"FlashLoanAave/contracts/FlashLoan.sol": {
		"FlashLoanArbitrage": {
			"abi": [
				{
					"inputs": [
						{
							"internalType": "address",
							"name": "_addressProvider",
							"type": "address"
						}
					],
					"stateMutability": "nonpayable",
					"type": "constructor"
				},
				{
					"anonymous": false,
					"inputs": [
						{
							"indexed": false,
							"internalType": "address",
							"name": "owner",
							"type": "address"
						}
					],
					"name": "ContractDeployed",
					"type": "event"
				},
				{
					"inputs": [],
					"name": "ADDRESSES_PROVIDER",
					"outputs": [
						{
							"internalType": "contract IPoolAddressesProvider",
							"name": "",
							"type": "address"
						}
					],
					"stateMutability": "view",
					"type": "function"
				},
				{
					"inputs": [],
					"name": "POOL",
					"outputs": [
						{
							"internalType": "contract IPool",
							"name": "",
							"type": "address"
						}
					],
					"stateMutability": "view",
					"type": "function"
				},
				{
					"inputs": [
						{
							"internalType": "address",
							"name": "asset",
							"type": "address"
						},
						{
							"internalType": "uint256",
							"name": "amount",
							"type": "uint256"
						},
						{
							"internalType": "uint256",
							"name": "premium",
							"type": "uint256"
						},
						{
							"internalType": "address",
							"name": "initiator",
							"type": "address"
						},
						{
							"internalType": "bytes",
							"name": "params",
							"type": "bytes"
						}
					],
					"name": "executeOperation",
					"outputs": [
						{
							"internalType": "bool",
							"name": "",
							"type": "bool"
						}
					],
					"stateMutability": "nonpayable",
					"type": "function"
				},
				{
					"inputs": [
						{
							"internalType": "address",
							"name": "_tokenAddress",
							"type": "address"
						}
					],
					"name": "getBalance",
					"outputs": [
						{
							"internalType": "uint256",
							"name": "",
							"type": "uint256"
						}
					],
					"stateMutability": "view",
					"type": "function"
				},
				{
					"inputs": [
						{
							"internalType": "address",
							"name": "_token",
							"type": "address"
						},
						{
							"internalType": "uint256",
							"name": "_amount",
							"type": "uint256"
						},
						{
							"internalType": "bytes",
							"name": "_params",
							"type": "bytes"
						}
					],
					"name": "requestFlashLoan",
					"outputs": [],
					"stateMutability": "nonpayable",
					"type": "function"
				},
				{
					"inputs": [
						{
							"internalType": "address",
							"name": "_tokenAddress",
							"type": "address"
						}
					],
					"name": "withdraw",
					"outputs": [],
					"stateMutability": "nonpayable",
					"type": "function"
				},
				{
					"stateMutability": "payable",
					"type": "receive"
				}
			],
			"devdoc": {
				"kind": "dev",
				"methods": {
					"executeOperation(address,uint256,uint256,address,bytes)": {
						"details": "Ensure that the contract can return the debt + premium, e.g., has      enough funds to repay and has approved the Pool to pull the total amount",
						"params": {
							"amount": "The amount of the flash-borrowed asset",
							"asset": "The address of the flash-borrowed asset",
							"initiator": "The address of the flashloan initiator",
							"params": "The byte-encoded params passed when initiating the flashloan",
							"premium": "The fee of the flash-borrowed asset"
						},
						"returns": {
							"_0": "True if the execution of the operation succeeds, false otherwise"
						}
					}
				},
				"version": 1
			},
			"evm": {
				"assembly": "    /* \"FlashLoanAave/contracts/FlashLoan.sol\":373:2377  contract FlashLoanArbitrage is FlashLoanSimpleReceiverBase {... */\n  mstore(0x40, 0xc0)\n    /* \"FlashLoanAave/contracts/FlashLoan.sol\":510:700  constructor(address _addressProvider) FlashLoanSimpleReceiverBase(IPoolAddressesProvider(_addressProvider)) {... */\n  callvalue\n  dup1\n  iszero\n  tag_1\n  jumpi\n  revert(0x00, 0x00)\ntag_1:\n  pop\n  mload(0x40)\n  sub(codesize, bytecodeSize)\n  dup1\n  bytecodeSize\n  dup4\n  codecopy\n  dup2\n  dup2\n  add\n  0x40\n  mstore\n  dup2\n  add\n  swap1\n  tag_2\n  swap2\n  swap1\n  tag_3\n  jump\t// in\ntag_2:\n    /* \"FlashLoanAave/contracts/FlashLoan.sol\":599:615  _addressProvider */\n  dup1\n    /* \"@aave/core-v3/contracts/flashloan/base/FlashLoanSimpleReceiverBase.sol\":673:681  provider */\n  dup1\n    /* \"@aave/core-v3/contracts/flashloan/base/FlashLoanSimpleReceiverBase.sol\":652:681  ADDRESSES_PROVIDER = provider */\n  0xffffffffffffffffffffffffffffffffffffffff\n  and\n  0x80\n  dup2\n  0xffffffffffffffffffffffffffffffffffffffff\n  and\n  dup2\n  mstore\n  pop\n  pop\n    /* \"@aave/core-v3/contracts/flashloan/base/FlashLoanSimpleReceiverBase.sol\":700:708  provider */\n  dup1\n    /* \"@aave/core-v3/contracts/flashloan/base/FlashLoanSimpleReceiverBase.sol\":700:716  provider.getPool */\n  0xffffffffffffffffffffffffffffffffffffffff\n  and\n  0x026b1d5f\n    /* \"@aave/core-v3/contracts/flashloan/base/FlashLoanSimpleReceiverBase.sol\":700:718  provider.getPool() */\n  mload(0x40)\n  dup2\n  0xffffffff\n  and\n  0xe0\n  shl\n  dup2\n  mstore\n  0x04\n  add\n  0x20\n  mload(0x40)\n  dup1\n  dup4\n  sub\n  dup2\n  dup7\n  gas\n  staticcall\n  iszero\n  dup1\n  iszero\n  tag_8\n  jumpi\n  returndatacopy(0x00, 0x00, returndatasize)\n  revert(0x00, returndatasize)\ntag_8:\n  pop\n  pop\n  pop\n  pop\n  mload(0x40)\n  returndatasize\n  not(0x1f)\n  0x1f\n  dup3\n  add\n  and\n  dup3\n  add\n  dup1\n  0x40\n  mstore\n  pop\n  dup2\n  add\n  swap1\n  tag_9\n  swap2\n  swap1\n  tag_3\n  jump\t// in\ntag_9:\n    /* \"@aave/core-v3/contracts/flashloan/base/FlashLoanSimpleReceiverBase.sol\":687:719  POOL = IPool(provider.getPool()) */\n  0xffffffffffffffffffffffffffffffffffffffff\n  and\n  0xa0\n  dup2\n  0xffffffffffffffffffffffffffffffffffffffff\n  and\n  dup2\n  mstore\n  pop\n  pop\n    /* \"@aave/core-v3/contracts/flashloan/base/FlashLoanSimpleReceiverBase.sol\":601:724  constructor(IPoolAddressesProvider provider) {... */\n  pop\n    /* \"FlashLoanAave/contracts/FlashLoan.sol\":644:654  msg.sender */\n  caller\n    /* \"FlashLoanAave/contracts/FlashLoan.sol\":628:633  owner */\n  0x00\n  0x00\n    /* \"FlashLoanAave/contracts/FlashLoan.sol\":628:655  owner = payable(msg.sender) */\n  0x0100\n  exp\n  dup2\n  sload\n  dup2\n  0xffffffffffffffffffffffffffffffffffffffff\n  mul\n  not\n  and\n  swap1\n  dup4\n  0xffffffffffffffffffffffffffffffffffffffff\n  and\n  mul\n  or\n  swap1\n  sstore\n  pop\n    /* \"FlashLoanAave/contracts/FlashLoan.sol\":670:693  ContractDeployed(owner) */\n  0x8ffcdc15a283d706d38281f500270d8b5a656918f555de0913d7455e3e6bc1bf\n    /* \"FlashLoanAave/contracts/FlashLoan.sol\":687:692  owner */\n  0x00\n  0x00\n  swap1\n  sload\n  swap1\n  0x0100\n  exp\n  swap1\n  div\n  0xffffffffffffffffffffffffffffffffffffffff\n  and\n    /* \"FlashLoanAave/contracts/FlashLoan.sol\":670:693  ContractDeployed(owner) */\n  mload(0x40)\n  tag_11\n  swap2\n  swap1\n  tag_12\n  jump\t// in\ntag_11:\n  mload(0x40)\n  dup1\n  swap2\n  sub\n  swap1\n  log1\n    /* \"FlashLoanAave/contracts/FlashLoan.sol\":510:700  constructor(address _addressProvider) FlashLoanSimpleReceiverBase(IPoolAddressesProvider(_addressProvider)) {... */\n  pop\n    /* \"FlashLoanAave/contracts/FlashLoan.sol\":373:2377  contract FlashLoanArbitrage is FlashLoanSimpleReceiverBase {... */\n  jump(tag_13)\n    /* \"#utility.yul\":88:205   */\ntag_15:\n    /* \"#utility.yul\":197:198   */\n  0x00\n    /* \"#utility.yul\":194:195   */\n  0x00\n    /* \"#utility.yul\":187:199   */\n  revert\n    /* \"#utility.yul\":334:460   */\ntag_17:\n    /* \"#utility.yul\":371:378   */\n  0x00\n    /* \"#utility.yul\":411:453   */\n  0xffffffffffffffffffffffffffffffffffffffff\n    /* \"#utility.yul\":404:409   */\n  dup3\n    /* \"#utility.yul\":400:454   */\n  and\n    /* \"#utility.yul\":389:454   */\n  swap1\n  pop\n    /* \"#utility.yul\":334:460   */\n  swap2\n  swap1\n  pop\n  jump\t// out\n    /* \"#utility.yul\":466:562   */\ntag_18:\n    /* \"#utility.yul\":503:510   */\n  0x00\n    /* \"#utility.yul\":532:556   */\n  tag_32\n    /* \"#utility.yul\":550:555   */\n  dup3\n    /* \"#utility.yul\":532:556   */\n  tag_17\n  jump\t// in\ntag_32:\n    /* \"#utility.yul\":521:556   */\n  swap1\n  pop\n    /* \"#utility.yul\":466:562   */\n  swap2\n  swap1\n  pop\n  jump\t// out\n    /* \"#utility.yul\":568:690   */\ntag_19:\n    /* \"#utility.yul\":641:665   */\n  tag_34\n    /* \"#utility.yul\":659:664   */\n  dup2\n    /* \"#utility.yul\":641:665   */\n  tag_18\n  jump\t// in\ntag_34:\n    /* \"#utility.yul\":634:639   */\n  dup2\n    /* \"#utility.yul\":631:666   */\n  eq\n    /* \"#utility.yul\":621:684   */\n  tag_35\n  jumpi\n    /* \"#utility.yul\":680:681   */\n  0x00\n    /* \"#utility.yul\":677:678   */\n  0x00\n    /* \"#utility.yul\":670:682   */\n  revert\n    /* \"#utility.yul\":621:684   */\ntag_35:\n    /* \"#utility.yul\":568:690   */\n  pop\n  jump\t// out\n    /* \"#utility.yul\":696:839   */\ntag_20:\n    /* \"#utility.yul\":753:758   */\n  0x00\n    /* \"#utility.yul\":784:790   */\n  dup2\n    /* \"#utility.yul\":778:791   */\n  mload\n    /* \"#utility.yul\":769:791   */\n  swap1\n  pop\n    /* \"#utility.yul\":800:833   */\n  tag_37\n    /* \"#utility.yul\":827:832   */\n  dup2\n    /* \"#utility.yul\":800:833   */\n  tag_19\n  jump\t// in\ntag_37:\n    /* \"#utility.yul\":696:839   */\n  swap3\n  swap2\n  pop\n  pop\n  jump\t// out\n    /* \"#utility.yul\":845:1196   */\ntag_3:\n    /* \"#utility.yul\":915:921   */\n  0x00\n    /* \"#utility.yul\":964:966   */\n  0x20\n    /* \"#utility.yul\":952:961   */\n  dup3\n    /* \"#utility.yul\":943:950   */\n  dup5\n    /* \"#utility.yul\":939:962   */\n  sub\n    /* \"#utility.yul\":935:967   */\n  slt\n    /* \"#utility.yul\":932:1051   */\n  iszero\n  tag_39\n  jumpi\n    /* \"#utility.yul\":970:1049   */\n  tag_40\n  tag_15\n  jump\t// in\ntag_40:\n    /* \"#utility.yul\":932:1051   */\ntag_39:\n    /* \"#utility.yul\":1090:1091   */\n  0x00\n    /* \"#utility.yul\":1115:1179   */\n  tag_41\n    /* \"#utility.yul\":1171:1178   */\n  dup5\n    /* \"#utility.yul\":1162:1168   */\n  dup3\n    /* \"#utility.yul\":1151:1160   */\n  dup6\n    /* \"#utility.yul\":1147:1169   */\n  add\n    /* \"#utility.yul\":1115:1179   */\n  tag_20\n  jump\t// in\ntag_41:\n    /* \"#utility.yul\":1105:1179   */\n  swap2\n  pop\n    /* \"#utility.yul\":1061:1189   */\n  pop\n    /* \"#utility.yul\":845:1196   */\n  swap3\n  swap2\n  pop\n  pop\n  jump\t// out\n    /* \"#utility.yul\":1202:1262   */\ntag_21:\n    /* \"#utility.yul\":1230:1233   */\n  0x00\n    /* \"#utility.yul\":1251:1256   */\n  dup2\n    /* \"#utility.yul\":1244:1256   */\n  swap1\n  pop\n    /* \"#utility.yul\":1202:1262   */\n  swap2\n  swap1\n  pop\n  jump\t// out\n    /* \"#utility.yul\":1268:1410   */\ntag_22:\n    /* \"#utility.yul\":1318:1327   */\n  0x00\n    /* \"#utility.yul\":1351:1404   */\n  tag_44\n    /* \"#utility.yul\":1369:1403   */\n  tag_45\n    /* \"#utility.yul\":1378:1402   */\n  tag_46\n    /* \"#utility.yul\":1396:1401   */\n  dup5\n    /* \"#utility.yul\":1378:1402   */\n  tag_17\n  jump\t// in\ntag_46:\n    /* \"#utility.yul\":1369:1403   */\n  tag_21\n  jump\t// in\ntag_45:\n    /* \"#utility.yul\":1351:1404   */\n  tag_17\n  jump\t// in\ntag_44:\n    /* \"#utility.yul\":1338:1404   */\n  swap1\n  pop\n    /* \"#utility.yul\":1268:1410   */\n  swap2\n  swap1\n  pop\n  jump\t// out\n    /* \"#utility.yul\":1416:1542   */\ntag_23:\n    /* \"#utility.yul\":1466:1475   */\n  0x00\n    /* \"#utility.yul\":1499:1536   */\n  tag_48\n    /* \"#utility.yul\":1530:1535   */\n  dup3\n    /* \"#utility.yul\":1499:1536   */\n  tag_22\n  jump\t// in\ntag_48:\n    /* \"#utility.yul\":1486:1536   */\n  swap1\n  pop\n    /* \"#utility.yul\":1416:1542   */\n  swap2\n  swap1\n  pop\n  jump\t// out\n    /* \"#utility.yul\":1548:1682   */\ntag_24:\n    /* \"#utility.yul\":1606:1615   */\n  0x00\n    /* \"#utility.yul\":1639:1676   */\n  tag_50\n    /* \"#utility.yul\":1670:1675   */\n  dup3\n    /* \"#utility.yul\":1639:1676   */\n  tag_23\n  jump\t// in\ntag_50:\n    /* \"#utility.yul\":1626:1676   */\n  swap1\n  pop\n    /* \"#utility.yul\":1548:1682   */\n  swap2\n  swap1\n  pop\n  jump\t// out\n    /* \"#utility.yul\":1688:1835   */\ntag_25:\n    /* \"#utility.yul\":1783:1828   */\n  tag_52\n    /* \"#utility.yul\":1822:1827   */\n  dup2\n    /* \"#utility.yul\":1783:1828   */\n  tag_24\n  jump\t// in\ntag_52:\n    /* \"#utility.yul\":1778:1781   */\n  dup3\n    /* \"#utility.yul\":1771:1829   */\n  mstore\n    /* \"#utility.yul\":1688:1835   */\n  pop\n  pop\n  jump\t// out\n    /* \"#utility.yul\":1841:2079   */\ntag_12:\n    /* \"#utility.yul\":1942:1946   */\n  0x00\n    /* \"#utility.yul\":1980:1982   */\n  0x20\n    /* \"#utility.yul\":1969:1978   */\n  dup3\n    /* \"#utility.yul\":1965:1983   */\n  add\n    /* \"#utility.yul\":1957:1983   */\n  swap1\n  pop\n    /* \"#utility.yul\":1993:2072   */\n  tag_54\n    /* \"#utility.yul\":2069:2070   */\n  0x00\n    /* \"#utility.yul\":2058:2067   */\n  dup4\n    /* \"#utility.yul\":2054:2071   */\n  add\n    /* \"#utility.yul\":2045:2051   */\n  dup5\n    /* \"#utility.yul\":1993:2072   */\n  tag_25\n  jump\t// in\ntag_54:\n    /* \"#utility.yul\":1841:2079   */\n  swap3\n  swap2\n  pop\n  pop\n  jump\t// out\n    /* \"FlashLoanAave/contracts/FlashLoan.sol\":373:2377  contract FlashLoanArbitrage is FlashLoanSimpleReceiverBase {... */\ntag_13:\n  mload(0x80)\n  mload(0xa0)\n  codecopy(0x00, dataOffset(sub_0), dataSize(sub_0))\n  0x00\n  assignImmutable(\"0xdab92d3cfd2fb10847c732668f5be4f526313d660461529e6720c950cca9ea28\")\n  0x00\n  assignImmutable(\"0xaf057546d61dd28804ca035e688a36db5f311bb8c4c9d2e1e5e44c0555cfe3bf\")\n  return(0x00, dataSize(sub_0))\nstop\n\nsub_0: assembly {\n        /* \"FlashLoanAave/contracts/FlashLoan.sol\":373:2377  contract FlashLoanArbitrage is FlashLoanSimpleReceiverBase {... */\n      mstore(0x40, 0x80)\n      jumpi(tag_1, lt(calldatasize, 0x04))\n      shr(0xe0, calldataload(0x00))\n      dup1\n      0x0542975c\n      eq\n      tag_3\n      jumpi\n      dup1\n      0x1b11d0ff\n      eq\n      tag_4\n      jumpi\n      dup1\n      0x5107d61e\n      eq\n      tag_5\n      jumpi\n      dup1\n      0x51cff8d9\n      eq\n      tag_6\n      jumpi\n      dup1\n      0x7535d246\n      eq\n      tag_7\n      jumpi\n      dup1\n      0xf8b2cb4f\n      eq\n      tag_8\n      jumpi\n      jump(tag_2)\n    tag_1:\n      jumpi(tag_2, calldatasize)\n      stop\n    tag_2:\n      revert(0x00, 0x00)\n        /* \"@aave/core-v3/contracts/flashloan/base/FlashLoanSimpleReceiverBase.sol\":489:556  IPoolAddressesProvider public immutable override ADDRESSES_PROVIDER */\n    tag_3:\n      callvalue\n      dup1\n      iszero\n      tag_11\n      jumpi\n      revert(0x00, 0x00)\n    tag_11:\n      pop\n      tag_12\n      tag_13\n      jump\t// in\n    tag_12:\n      mload(0x40)\n      tag_14\n      swap2\n      swap1\n      tag_15\n      jump\t// in\n    tag_14:\n      mload(0x40)\n      dup1\n      swap2\n      sub\n      swap1\n      return\n        /* \"FlashLoanAave/contracts/FlashLoan.sol\":706:1443  function executeOperation(... */\n    tag_4:\n      callvalue\n      dup1\n      iszero\n      tag_16\n      jumpi\n      revert(0x00, 0x00)\n    tag_16:\n      pop\n      tag_17\n      0x04\n      dup1\n      calldatasize\n      sub\n      dup2\n      add\n      swap1\n      tag_18\n      swap2\n      swap1\n      tag_19\n      jump\t// in\n    tag_18:\n      tag_20\n      jump\t// in\n    tag_17:\n      mload(0x40)\n      tag_21\n      swap2\n      swap1\n      tag_22\n      jump\t// in\n    tag_21:\n      mload(0x40)\n      dup1\n      swap2\n      sub\n      swap1\n      return\n        /* \"FlashLoanAave/contracts/FlashLoan.sol\":1449:1883  function requestFlashLoan(address _token, uint256 _amount, bytes memory _params) public {... */\n    tag_5:\n      callvalue\n      dup1\n      iszero\n      tag_23\n      jumpi\n      revert(0x00, 0x00)\n    tag_23:\n      pop\n      tag_24\n      0x04\n      dup1\n      calldatasize\n      sub\n      dup2\n      add\n      swap1\n      tag_25\n      swap2\n      swap1\n      tag_26\n      jump\t// in\n    tag_25:\n      tag_27\n      jump\t// in\n    tag_24:\n      stop\n        /* \"FlashLoanAave/contracts/FlashLoan.sol\":2040:2221  function withdraw(address _tokenAddress) external onlyOwner {... */\n    tag_6:\n      callvalue\n      dup1\n      iszero\n      tag_28\n      jumpi\n      revert(0x00, 0x00)\n    tag_28:\n      pop\n      tag_29\n      0x04\n      dup1\n      calldatasize\n      sub\n      dup2\n      add\n      swap1\n      tag_30\n      swap2\n      swap1\n      tag_31\n      jump\t// in\n    tag_30:\n      tag_32\n      jump\t// in\n    tag_29:\n      stop\n        /* \"@aave/core-v3/contracts/flashloan/base/FlashLoanSimpleReceiverBase.sol\":560:596  IPool public immutable override POOL */\n    tag_7:\n      callvalue\n      dup1\n      iszero\n      tag_33\n      jumpi\n      revert(0x00, 0x00)\n    tag_33:\n      pop\n      tag_34\n      tag_35\n      jump\t// in\n    tag_34:\n      mload(0x40)\n      tag_36\n      swap2\n      swap1\n      tag_37\n      jump\t// in\n    tag_36:\n      mload(0x40)\n      dup1\n      swap2\n      sub\n      swap1\n      return\n        /* \"FlashLoanAave/contracts/FlashLoan.sol\":1889:2034  function getBalance(address _tokenAddress) external view returns (uint256) {... */\n    tag_8:\n      callvalue\n      dup1\n      iszero\n      tag_38\n      jumpi\n      revert(0x00, 0x00)\n    tag_38:\n      pop\n      tag_39\n      0x04\n      dup1\n      calldatasize\n      sub\n      dup2\n      add\n      swap1\n      tag_40\n      swap2\n      swap1\n      tag_31\n      jump\t// in\n    tag_40:\n      tag_41\n      jump\t// in\n    tag_39:\n      mload(0x40)\n      tag_42\n      swap2\n      swap1\n      tag_43\n      jump\t// in\n    tag_42:\n      mload(0x40)\n      dup1\n      swap2\n      sub\n      swap1\n      return\n        /* \"@aave/core-v3/contracts/flashloan/base/FlashLoanSimpleReceiverBase.sol\":489:556  IPoolAddressesProvider public immutable override ADDRESSES_PROVIDER */\n    tag_13:\n      immutable(\"0xaf057546d61dd28804ca035e688a36db5f311bb8c4c9d2e1e5e44c0555cfe3bf\")\n      dup2\n      jump\t// out\n        /* \"FlashLoanAave/contracts/FlashLoan.sol\":706:1443  function executeOperation(... */\n    tag_20:\n        /* \"FlashLoanAave/contracts/FlashLoan.sol\":895:899  bool */\n      0x00\n        /* \"FlashLoanAave/contracts/FlashLoan.sol\":952:978  address[] memory exchanges */\n      0x00\n        /* \"FlashLoanAave/contracts/FlashLoan.sol\":980:999  bytes[] memory data */\n      0x00\n        /* \"FlashLoanAave/contracts/FlashLoan.sol\":1014:1020  params */\n      dup5\n      dup5\n        /* \"FlashLoanAave/contracts/FlashLoan.sol\":1003:1043  abi.decode(params, (address[], bytes[])) */\n      dup2\n      add\n      swap1\n      tag_45\n      swap2\n      swap1\n      tag_46\n      jump\t// in\n    tag_45:\n        /* \"FlashLoanAave/contracts/FlashLoan.sol\":951:1043  (address[] memory exchanges, bytes[] memory data) = abi.decode(params, (address[], bytes[])) */\n      swap2\n      pop\n      swap2\n      pop\n        /* \"FlashLoanAave/contracts/FlashLoan.sol\":1103:1112  uint256 i */\n      0x00\n        /* \"FlashLoanAave/contracts/FlashLoan.sol\":1115:1116  0 */\n      0x00\n        /* \"FlashLoanAave/contracts/FlashLoan.sol\":1103:1116  uint256 i = 0 */\n      swap1\n      pop\n        /* \"FlashLoanAave/contracts/FlashLoan.sol\":1098:1275  for (uint256 i = 0; i < exchanges.length; i++) {... */\n    tag_47:\n        /* \"FlashLoanAave/contracts/FlashLoan.sol\":1122:1131  exchanges */\n      dup3\n        /* \"FlashLoanAave/contracts/FlashLoan.sol\":1122:1138  exchanges.length */\n      mload\n        /* \"FlashLoanAave/contracts/FlashLoan.sol\":1118:1119  i */\n      dup2\n        /* \"FlashLoanAave/contracts/FlashLoan.sol\":1118:1138  i < exchanges.length */\n      lt\n        /* \"FlashLoanAave/contracts/FlashLoan.sol\":1098:1275  for (uint256 i = 0; i < exchanges.length; i++) {... */\n      iszero\n      tag_48\n      jumpi\n        /* \"FlashLoanAave/contracts/FlashLoan.sol\":1160:1172  bool success */\n      0x00\n        /* \"FlashLoanAave/contracts/FlashLoan.sol\":1178:1187  exchanges */\n      dup4\n        /* \"FlashLoanAave/contracts/FlashLoan.sol\":1188:1189  i */\n      dup3\n        /* \"FlashLoanAave/contracts/FlashLoan.sol\":1178:1190  exchanges[i] */\n      dup2\n      mload\n      dup2\n      lt\n      tag_50\n      jumpi\n      tag_51\n      tag_52\n      jump\t// in\n    tag_51:\n    tag_50:\n      0x20\n      mul\n      0x20\n      add\n      add\n      mload\n        /* \"FlashLoanAave/contracts/FlashLoan.sol\":1178:1195  exchanges[i].call */\n      0xffffffffffffffffffffffffffffffffffffffff\n      and\n        /* \"FlashLoanAave/contracts/FlashLoan.sol\":1196:1200  data */\n      dup4\n        /* \"FlashLoanAave/contracts/FlashLoan.sol\":1201:1202  i */\n      dup4\n        /* \"FlashLoanAave/contracts/FlashLoan.sol\":1196:1203  data[i] */\n      dup2\n      mload\n      dup2\n      lt\n      tag_53\n      jumpi\n      tag_54\n      tag_52\n      jump\t// in\n    tag_54:\n    tag_53:\n      0x20\n      mul\n      0x20\n      add\n      add\n      mload\n        /* \"FlashLoanAave/contracts/FlashLoan.sol\":1178:1204  exchanges[i].call(data[i]) */\n      mload(0x40)\n      tag_55\n      swap2\n      swap1\n      tag_56\n      jump\t// in\n    tag_55:\n      0x00\n      mload(0x40)\n      dup1\n      dup4\n      sub\n      dup2\n      0x00\n      dup7\n      gas\n      call\n      swap2\n      pop\n      pop\n      returndatasize\n      dup1\n      0x00\n      dup2\n      eq\n      tag_59\n      jumpi\n      mload(0x40)\n      swap2\n      pop\n      and(add(returndatasize, 0x3f), not(0x1f))\n      dup3\n      add\n      0x40\n      mstore\n      returndatasize\n      dup3\n      mstore\n      returndatasize\n      0x00\n      0x20\n      dup5\n      add\n      returndatacopy\n      jump(tag_58)\n    tag_59:\n      0x60\n      swap2\n      pop\n    tag_58:\n      pop\n        /* \"FlashLoanAave/contracts/FlashLoan.sol\":1159:1204  (bool success, ) = exchanges[i].call(data[i]) */\n      pop\n      swap1\n      pop\n        /* \"FlashLoanAave/contracts/FlashLoan.sol\":1226:1233  success */\n      dup1\n        /* \"FlashLoanAave/contracts/FlashLoan.sol\":1218:1264  require(success, \"Arbitrage operation failed\") */\n      tag_60\n      jumpi\n      mload(0x40)\n      0x08c379a000000000000000000000000000000000000000000000000000000000\n      dup2\n      mstore\n      0x04\n      add\n      tag_61\n      swap1\n      tag_62\n      jump\t// in\n    tag_61:\n      mload(0x40)\n      dup1\n      swap2\n      sub\n      swap1\n      revert\n    tag_60:\n        /* \"FlashLoanAave/contracts/FlashLoan.sol\":1145:1275  {... */\n      pop\n        /* \"FlashLoanAave/contracts/FlashLoan.sol\":1140:1143  i++ */\n      dup1\n      dup1\n      0x01\n      add\n      swap2\n      pop\n      pop\n        /* \"FlashLoanAave/contracts/FlashLoan.sol\":1098:1275  for (uint256 i = 0; i < exchanges.length; i++) {... */\n      jump(tag_47)\n    tag_48:\n      pop\n        /* \"FlashLoanAave/contracts/FlashLoan.sol\":1317:1336  uint256 amountOwned */\n      0x00\n        /* \"FlashLoanAave/contracts/FlashLoan.sol\":1348:1355  premium */\n      dup8\n        /* \"FlashLoanAave/contracts/FlashLoan.sol\":1339:1345  amount */\n      dup10\n        /* \"FlashLoanAave/contracts/FlashLoan.sol\":1339:1355  amount + premium */\n      tag_63\n      swap2\n      swap1\n      tag_64\n      jump\t// in\n    tag_63:\n        /* \"FlashLoanAave/contracts/FlashLoan.sol\":1317:1355  uint256 amountOwned = amount + premium */\n      swap1\n      pop\n        /* \"FlashLoanAave/contracts/FlashLoan.sol\":1372:1377  asset */\n      dup10\n        /* \"FlashLoanAave/contracts/FlashLoan.sol\":1365:1386  IERC20(asset).approve */\n      0xffffffffffffffffffffffffffffffffffffffff\n      and\n      0x095ea7b3\n        /* \"FlashLoanAave/contracts/FlashLoan.sol\":1395:1399  POOL */\n      immutable(\"0xdab92d3cfd2fb10847c732668f5be4f526313d660461529e6720c950cca9ea28\")\n        /* \"FlashLoanAave/contracts/FlashLoan.sol\":1402:1413  amountOwned */\n      dup4\n        /* \"FlashLoanAave/contracts/FlashLoan.sol\":1365:1414  IERC20(asset).approve(address(POOL), amountOwned) */\n      mload(0x40)\n      dup4\n      0xffffffff\n      and\n      0xe0\n      shl\n      dup2\n      mstore\n      0x04\n      add\n      tag_65\n      swap3\n      swap2\n      swap1\n      tag_66\n      jump\t// in\n    tag_65:\n      0x20\n      mload(0x40)\n      dup1\n      dup4\n      sub\n      dup2\n      0x00\n      dup8\n      gas\n      call\n      iszero\n      dup1\n      iszero\n      tag_68\n      jumpi\n      returndatacopy(0x00, 0x00, returndatasize)\n      revert(0x00, returndatasize)\n    tag_68:\n      pop\n      pop\n      pop\n      pop\n      mload(0x40)\n      returndatasize\n      not(0x1f)\n      0x1f\n      dup3\n      add\n      and\n      dup3\n      add\n      dup1\n      0x40\n      mstore\n      pop\n      dup2\n      add\n      swap1\n      tag_69\n      swap2\n      swap1\n      tag_70\n      jump\t// in\n    tag_69:\n      pop\n        /* \"FlashLoanAave/contracts/FlashLoan.sol\":1432:1436  true */\n      0x01\n        /* \"FlashLoanAave/contracts/FlashLoan.sol\":1425:1436  return true */\n      swap4\n      pop\n      pop\n      pop\n      pop\n        /* \"FlashLoanAave/contracts/FlashLoan.sol\":706:1443  function executeOperation(... */\n      swap7\n      swap6\n      pop\n      pop\n      pop\n      pop\n      pop\n      pop\n      jump\t// out\n        /* \"FlashLoanAave/contracts/FlashLoan.sol\":1449:1883  function requestFlashLoan(address _token, uint256 _amount, bytes memory _params) public {... */\n    tag_27:\n        /* \"FlashLoanAave/contracts/FlashLoan.sol\":1547:1570  address receiverAddress */\n      0x00\n        /* \"FlashLoanAave/contracts/FlashLoan.sol\":1581:1585  this */\n      address\n        /* \"FlashLoanAave/contracts/FlashLoan.sol\":1547:1586  address receiverAddress = address(this) */\n      swap1\n      pop\n        /* \"FlashLoanAave/contracts/FlashLoan.sol\":1596:1609  address asset */\n      0x00\n        /* \"FlashLoanAave/contracts/FlashLoan.sol\":1612:1618  _token */\n      dup5\n        /* \"FlashLoanAave/contracts/FlashLoan.sol\":1596:1618  address asset = _token */\n      swap1\n      pop\n        /* \"FlashLoanAave/contracts/FlashLoan.sol\":1628:1639  uint amount */\n      0x00\n        /* \"FlashLoanAave/contracts/FlashLoan.sol\":1642:1649  _amount */\n      dup5\n        /* \"FlashLoanAave/contracts/FlashLoan.sol\":1628:1649  uint amount = _amount */\n      swap1\n      pop\n        /* \"FlashLoanAave/contracts/FlashLoan.sol\":1659:1678  bytes memory params */\n      0x00\n        /* \"FlashLoanAave/contracts/FlashLoan.sol\":1681:1688  _params */\n      dup5\n        /* \"FlashLoanAave/contracts/FlashLoan.sol\":1659:1688  bytes memory params = _params */\n      swap1\n      pop\n        /* \"FlashLoanAave/contracts/FlashLoan.sol\":1698:1717  uint16 referralCode */\n      0x00\n        /* \"FlashLoanAave/contracts/FlashLoan.sol\":1720:1721  0 */\n      0x00\n        /* \"FlashLoanAave/contracts/FlashLoan.sol\":1698:1721  uint16 referralCode = 0 */\n      swap1\n      pop\n        /* \"FlashLoanAave/contracts/FlashLoan.sol\":1732:1736  POOL */\n      immutable(\"0xdab92d3cfd2fb10847c732668f5be4f526313d660461529e6720c950cca9ea28\")\n        /* \"FlashLoanAave/contracts/FlashLoan.sol\":1732:1752  POOL.flashLoanSimple */\n      0xffffffffffffffffffffffffffffffffffffffff\n      and\n      0x42b0b77c\n        /* \"FlashLoanAave/contracts/FlashLoan.sol\":1766:1781  receiverAddress */\n      dup7\n        /* \"FlashLoanAave/contracts/FlashLoan.sol\":1795:1800  asset */\n      dup7\n        /* \"FlashLoanAave/contracts/FlashLoan.sol\":1814:1820  amount */\n      dup7\n        /* \"FlashLoanAave/contracts/FlashLoan.sol\":1834:1840  params */\n      dup7\n        /* \"FlashLoanAave/contracts/FlashLoan.sol\":1854:1866  referralCode */\n      dup7\n        /* \"FlashLoanAave/contracts/FlashLoan.sol\":1732:1876  POOL.flashLoanSimple(... */\n      mload(0x40)\n      dup7\n      0xffffffff\n      and\n      0xe0\n      shl\n      dup2\n      mstore\n      0x04\n      add\n      tag_72\n      swap6\n      swap5\n      swap4\n      swap3\n      swap2\n      swap1\n      tag_73\n      jump\t// in\n    tag_72:\n      0x00\n      mload(0x40)\n      dup1\n      dup4\n      sub\n      dup2\n      0x00\n      dup8\n      dup1\n      extcodesize\n      iszero\n      dup1\n      iszero\n      tag_74\n      jumpi\n      revert(0x00, 0x00)\n    tag_74:\n      pop\n      gas\n      call\n      iszero\n      dup1\n      iszero\n      tag_76\n      jumpi\n      returndatacopy(0x00, 0x00, returndatasize)\n      revert(0x00, returndatasize)\n    tag_76:\n      pop\n      pop\n      pop\n      pop\n        /* \"FlashLoanAave/contracts/FlashLoan.sol\":1537:1883  {... */\n      pop\n      pop\n      pop\n      pop\n      pop\n        /* \"FlashLoanAave/contracts/FlashLoan.sol\":1449:1883  function requestFlashLoan(address _token, uint256 _amount, bytes memory _params) public {... */\n      pop\n      pop\n      pop\n      jump\t// out\n        /* \"FlashLoanAave/contracts/FlashLoan.sol\":2040:2221  function withdraw(address _tokenAddress) external onlyOwner {... */\n    tag_32:\n        /* \"FlashLoanAave/contracts/FlashLoan.sol\":2280:2285  owner */\n      0x00\n      0x00\n      swap1\n      sload\n      swap1\n      0x0100\n      exp\n      swap1\n      div\n      0xffffffffffffffffffffffffffffffffffffffff\n      and\n        /* \"FlashLoanAave/contracts/FlashLoan.sol\":2266:2285  msg.sender == owner */\n      0xffffffffffffffffffffffffffffffffffffffff\n      and\n        /* \"FlashLoanAave/contracts/FlashLoan.sol\":2266:2276  msg.sender */\n      caller\n        /* \"FlashLoanAave/contracts/FlashLoan.sol\":2266:2285  msg.sender == owner */\n      0xffffffffffffffffffffffffffffffffffffffff\n      and\n      eq\n        /* \"FlashLoanAave/contracts/FlashLoan.sol\":2258:2322  require(msg.sender == owner, \"Ownable: caller is not the owner\") */\n      tag_78\n      jumpi\n      mload(0x40)\n      0x08c379a000000000000000000000000000000000000000000000000000000000\n      dup2\n      mstore\n      0x04\n      add\n      tag_79\n      swap1\n      tag_80\n      jump\t// in\n    tag_79:\n      mload(0x40)\n      dup1\n      swap2\n      sub\n      swap1\n      revert\n    tag_78:\n        /* \"FlashLoanAave/contracts/FlashLoan.sol\":2110:2122  IERC20 token */\n      0x00\n        /* \"FlashLoanAave/contracts/FlashLoan.sol\":2132:2145  _tokenAddress */\n      dup2\n        /* \"FlashLoanAave/contracts/FlashLoan.sol\":2110:2146  IERC20 token = IERC20(_tokenAddress) */\n      swap1\n      pop\n        /* \"FlashLoanAave/contracts/FlashLoan.sol\":2156:2161  token */\n      dup1\n        /* \"FlashLoanAave/contracts/FlashLoan.sol\":2156:2170  token.transfer */\n      0xffffffffffffffffffffffffffffffffffffffff\n      and\n      0xa9059cbb\n        /* \"FlashLoanAave/contracts/FlashLoan.sol\":2171:2181  msg.sender */\n      caller\n        /* \"FlashLoanAave/contracts/FlashLoan.sol\":2183:2188  token */\n      dup4\n        /* \"FlashLoanAave/contracts/FlashLoan.sol\":2183:2198  token.balanceOf */\n      0xffffffffffffffffffffffffffffffffffffffff\n      and\n      0x70a08231\n        /* \"FlashLoanAave/contracts/FlashLoan.sol\":2207:2211  this */\n      address\n        /* \"FlashLoanAave/contracts/FlashLoan.sol\":2183:2213  token.balanceOf(address(this)) */\n      mload(0x40)\n      dup3\n      0xffffffff\n      and\n      0xe0\n      shl\n      dup2\n      mstore\n      0x04\n      add\n      tag_82\n      swap2\n      swap1\n      tag_83\n      jump\t// in\n    tag_82:\n      0x20\n      mload(0x40)\n      dup1\n      dup4\n      sub\n      dup2\n      dup7\n      gas\n      staticcall\n      iszero\n      dup1\n      iszero\n      tag_85\n      jumpi\n      returndatacopy(0x00, 0x00, returndatasize)\n      revert(0x00, returndatasize)\n    tag_85:\n      pop\n      pop\n      pop\n      pop\n      mload(0x40)\n      returndatasize\n      not(0x1f)\n      0x1f\n      dup3\n      add\n      and\n      dup3\n      add\n      dup1\n      0x40\n      mstore\n      pop\n      dup2\n      add\n      swap1\n      tag_86\n      swap2\n      swap1\n      tag_87\n      jump\t// in\n    tag_86:\n        /* \"FlashLoanAave/contracts/FlashLoan.sol\":2156:2214  token.transfer(msg.sender, token.balanceOf(address(this))) */\n      mload(0x40)\n      dup4\n      0xffffffff\n      and\n      0xe0\n      shl\n      dup2\n      mstore\n      0x04\n      add\n      tag_88\n      swap3\n      swap2\n      swap1\n      tag_66\n      jump\t// in\n    tag_88:\n      0x20\n      mload(0x40)\n      dup1\n      dup4\n      sub\n      dup2\n      0x00\n      dup8\n      gas\n      call\n      iszero\n      dup1\n      iszero\n      tag_90\n      jumpi\n      returndatacopy(0x00, 0x00, returndatasize)\n      revert(0x00, returndatasize)\n    tag_90:\n      pop\n      pop\n      pop\n      pop\n      mload(0x40)\n      returndatasize\n      not(0x1f)\n      0x1f\n      dup3\n      add\n      and\n      dup3\n      add\n      dup1\n      0x40\n      mstore\n      pop\n      dup2\n      add\n      swap1\n      tag_91\n      swap2\n      swap1\n      tag_70\n      jump\t// in\n    tag_91:\n      pop\n        /* \"FlashLoanAave/contracts/FlashLoan.sol\":2100:2221  {... */\n      pop\n        /* \"FlashLoanAave/contracts/FlashLoan.sol\":2040:2221  function withdraw(address _tokenAddress) external onlyOwner {... */\n      pop\n      jump\t// out\n        /* \"@aave/core-v3/contracts/flashloan/base/FlashLoanSimpleReceiverBase.sol\":560:596  IPool public immutable override POOL */\n    tag_35:\n      immutable(\"0xdab92d3cfd2fb10847c732668f5be4f526313d660461529e6720c950cca9ea28\")\n      dup2\n      jump\t// out\n        /* \"FlashLoanAave/contracts/FlashLoan.sol\":1889:2034  function getBalance(address _tokenAddress) external view returns (uint256) {... */\n    tag_41:\n        /* \"FlashLoanAave/contracts/FlashLoan.sol\":1955:1962  uint256 */\n      0x00\n        /* \"FlashLoanAave/contracts/FlashLoan.sol\":1988:2001  _tokenAddress */\n      dup2\n        /* \"FlashLoanAave/contracts/FlashLoan.sol\":1981:2012  IERC20(_tokenAddress).balanceOf */\n      0xffffffffffffffffffffffffffffffffffffffff\n      and\n      0x70a08231\n        /* \"FlashLoanAave/contracts/FlashLoan.sol\":2021:2025  this */\n      address\n        /* \"FlashLoanAave/contracts/FlashLoan.sol\":1981:2027  IERC20(_tokenAddress).balanceOf(address(this)) */\n      mload(0x40)\n      dup3\n      0xffffffff\n      and\n      0xe0\n      shl\n      dup2\n      mstore\n      0x04\n      add\n      tag_93\n      swap2\n      swap1\n      tag_83\n      jump\t// in\n    tag_93:\n      0x20\n      mload(0x40)\n      dup1\n      dup4\n      sub\n      dup2\n      dup7\n      gas\n      staticcall\n      iszero\n      dup1\n      iszero\n      tag_95\n      jumpi\n      returndatacopy(0x00, 0x00, returndatasize)\n      revert(0x00, returndatasize)\n    tag_95:\n      pop\n      pop\n      pop\n      pop\n      mload(0x40)\n      returndatasize\n      not(0x1f)\n      0x1f\n      dup3\n      add\n      and\n      dup3\n      add\n      dup1\n      0x40\n      mstore\n      pop\n      dup2\n      add\n      swap1\n      tag_96\n      swap2\n      swap1\n      tag_87\n      jump\t// in\n    tag_96:\n        /* \"FlashLoanAave/contracts/FlashLoan.sol\":1974:2027  return IERC20(_tokenAddress).balanceOf(address(this)) */\n      swap1\n      pop\n        /* \"FlashLoanAave/contracts/FlashLoan.sol\":1889:2034  function getBalance(address _tokenAddress) external view returns (uint256) {... */\n      swap2\n      swap1\n      pop\n      jump\t// out\n        /* \"#utility.yul\":7:133   */\n    tag_97:\n        /* \"#utility.yul\":44:51   */\n      0x00\n        /* \"#utility.yul\":84:126   */\n      0xffffffffffffffffffffffffffffffffffffffff\n        /* \"#utility.yul\":77:82   */\n      dup3\n        /* \"#utility.yul\":73:127   */\n      and\n        /* \"#utility.yul\":62:127   */\n      swap1\n      pop\n        /* \"#utility.yul\":7:133   */\n      swap2\n      swap1\n      pop\n      jump\t// out\n        /* \"#utility.yul\":139:199   */\n    tag_98:\n        /* \"#utility.yul\":167:170   */\n      0x00\n        /* \"#utility.yul\":188:193   */\n      dup2\n        /* \"#utility.yul\":181:193   */\n      swap1\n      pop\n        /* \"#utility.yul\":139:199   */\n      swap2\n      swap1\n      pop\n      jump\t// out\n        /* \"#utility.yul\":205:347   */\n    tag_99:\n        /* \"#utility.yul\":255:264   */\n      0x00\n        /* \"#utility.yul\":288:341   */\n      tag_158\n        /* \"#utility.yul\":306:340   */\n      tag_159\n        /* \"#utility.yul\":315:339   */\n      tag_160\n        /* \"#utility.yul\":333:338   */\n      dup5\n        /* \"#utility.yul\":315:339   */\n      tag_97\n      jump\t// in\n    tag_160:\n        /* \"#utility.yul\":306:340   */\n      tag_98\n      jump\t// in\n    tag_159:\n        /* \"#utility.yul\":288:341   */\n      tag_97\n      jump\t// in\n    tag_158:\n        /* \"#utility.yul\":275:341   */\n      swap1\n      pop\n        /* \"#utility.yul\":205:347   */\n      swap2\n      swap1\n      pop\n      jump\t// out\n        /* \"#utility.yul\":353:479   */\n    tag_100:\n        /* \"#utility.yul\":403:412   */\n      0x00\n        /* \"#utility.yul\":436:473   */\n      tag_162\n        /* \"#utility.yul\":467:472   */\n      dup3\n        /* \"#utility.yul\":436:473   */\n      tag_99\n      jump\t// in\n    tag_162:\n        /* \"#utility.yul\":423:473   */\n      swap1\n      pop\n        /* \"#utility.yul\":353:479   */\n      swap2\n      swap1\n      pop\n      jump\t// out\n        /* \"#utility.yul\":485:642   */\n    tag_101:\n        /* \"#utility.yul\":566:575   */\n      0x00\n        /* \"#utility.yul\":599:636   */\n      tag_164\n        /* \"#utility.yul\":630:635   */\n      dup3\n        /* \"#utility.yul\":599:636   */\n      tag_100\n      jump\t// in\n    tag_164:\n        /* \"#utility.yul\":586:636   */\n      swap1\n      pop\n        /* \"#utility.yul\":485:642   */\n      swap2\n      swap1\n      pop\n      jump\t// out\n        /* \"#utility.yul\":648:841   */\n    tag_102:\n        /* \"#utility.yul\":766:834   */\n      tag_166\n        /* \"#utility.yul\":828:833   */\n      dup2\n        /* \"#utility.yul\":766:834   */\n      tag_101\n      jump\t// in\n    tag_166:\n        /* \"#utility.yul\":761:764   */\n      dup3\n        /* \"#utility.yul\":754:835   */\n      mstore\n        /* \"#utility.yul\":648:841   */\n      pop\n      pop\n      jump\t// out\n        /* \"#utility.yul\":847:1131   */\n    tag_15:\n        /* \"#utility.yul\":971:975   */\n      0x00\n        /* \"#utility.yul\":1009:1011   */\n      0x20\n        /* \"#utility.yul\":998:1007   */\n      dup3\n        /* \"#utility.yul\":994:1012   */\n      add\n        /* \"#utility.yul\":986:1012   */\n      swap1\n      pop\n        /* \"#utility.yul\":1022:1124   */\n      tag_168\n        /* \"#utility.yul\":1121:1122   */\n      0x00\n        /* \"#utility.yul\":1110:1119   */\n      dup4\n        /* \"#utility.yul\":1106:1123   */\n      add\n        /* \"#utility.yul\":1097:1103   */\n      dup5\n        /* \"#utility.yul\":1022:1124   */\n      tag_102\n      jump\t// in\n    tag_168:\n        /* \"#utility.yul\":847:1131   */\n      swap3\n      swap2\n      pop\n      pop\n      jump\t// out\n        /* \"#utility.yul\":1137:1212   */\n    tag_103:\n        /* \"#utility.yul\":1170:1176   */\n      0x00\n        /* \"#utility.yul\":1203:1205   */\n      0x40\n        /* \"#utility.yul\":1197:1206   */\n      mload\n        /* \"#utility.yul\":1187:1206   */\n      swap1\n      pop\n        /* \"#utility.yul\":1137:1212   */\n      swap1\n      jump\t// out\n        /* \"#utility.yul\":1218:1335   */\n    tag_104:\n        /* \"#utility.yul\":1327:1328   */\n      0x00\n        /* \"#utility.yul\":1324:1325   */\n      0x00\n        /* \"#utility.yul\":1317:1329   */\n      revert\n        /* \"#utility.yul\":1341:1458   */\n    tag_105:\n        /* \"#utility.yul\":1450:1451   */\n      0x00\n        /* \"#utility.yul\":1447:1448   */\n      0x00\n        /* \"#utility.yul\":1440:1452   */\n      revert\n        /* \"#utility.yul\":1464:1560   */\n    tag_106:\n        /* \"#utility.yul\":1501:1508   */\n      0x00\n        /* \"#utility.yul\":1530:1554   */\n      tag_173\n        /* \"#utility.yul\":1548:1553   */\n      dup3\n        /* \"#utility.yul\":1530:1554   */\n      tag_97\n      jump\t// in\n    tag_173:\n        /* \"#utility.yul\":1519:1554   */\n      swap1\n      pop\n        /* \"#utility.yul\":1464:1560   */\n      swap2\n      swap1\n      pop\n      jump\t// out\n        /* \"#utility.yul\":1566:1688   */\n    tag_107:\n        /* \"#utility.yul\":1639:1663   */\n      tag_175\n        /* \"#utility.yul\":1657:1662   */\n      dup2\n        /* \"#utility.yul\":1639:1663   */\n      tag_106\n      jump\t// in\n    tag_175:\n        /* \"#utility.yul\":1632:1637   */\n      dup2\n        /* \"#utility.yul\":1629:1664   */\n      eq\n        /* \"#utility.yul\":1619:1682   */\n      tag_176\n      jumpi\n        /* \"#utility.yul\":1678:1679   */\n      0x00\n        /* \"#utility.yul\":1675:1676   */\n      0x00\n        /* \"#utility.yul\":1668:1680   */\n      revert\n        /* \"#utility.yul\":1619:1682   */\n    tag_176:\n        /* \"#utility.yul\":1566:1688   */\n      pop\n      jump\t// out\n        /* \"#utility.yul\":1694:1833   */\n    tag_108:\n        /* \"#utility.yul\":1740:1745   */\n      0x00\n        /* \"#utility.yul\":1778:1784   */\n      dup2\n        /* \"#utility.yul\":1765:1785   */\n      calldataload\n        /* \"#utility.yul\":1756:1785   */\n      swap1\n      pop\n        /* \"#utility.yul\":1794:1827   */\n      tag_178\n        /* \"#utility.yul\":1821:1826   */\n      dup2\n        /* \"#utility.yul\":1794:1827   */\n      tag_107\n      jump\t// in\n    tag_178:\n        /* \"#utility.yul\":1694:1833   */\n      swap3\n      swap2\n      pop\n      pop\n      jump\t// out\n        /* \"#utility.yul\":1839:1916   */\n    tag_109:\n        /* \"#utility.yul\":1876:1883   */\n      0x00\n        /* \"#utility.yul\":1905:1910   */\n      dup2\n        /* \"#utility.yul\":1894:1910   */\n      swap1\n      pop\n        /* \"#utility.yul\":1839:1916   */\n      swap2\n      swap1\n      pop\n      jump\t// out\n        /* \"#utility.yul\":1922:2044   */\n    tag_110:\n        /* \"#utility.yul\":1995:2019   */\n      tag_181\n        /* \"#utility.yul\":2013:2018   */\n      dup2\n        /* \"#utility.yul\":1995:2019   */\n      tag_109\n      jump\t// in\n    tag_181:\n        /* \"#utility.yul\":1988:1993   */\n      dup2\n        /* \"#utility.yul\":1985:2020   */\n      eq\n        /* \"#utility.yul\":1975:2038   */\n      tag_182\n      jumpi\n        /* \"#utility.yul\":2034:2035   */\n      0x00\n        /* \"#utility.yul\":2031:2032   */\n      0x00\n        /* \"#utility.yul\":2024:2036   */\n      revert\n        /* \"#utility.yul\":1975:2038   */\n    tag_182:\n        /* \"#utility.yul\":1922:2044   */\n      pop\n      jump\t// out\n        /* \"#utility.yul\":2050:2189   */\n    tag_111:\n        /* \"#utility.yul\":2096:2101   */\n      0x00\n        /* \"#utility.yul\":2134:2140   */\n      dup2\n        /* \"#utility.yul\":2121:2141   */\n      calldataload\n        /* \"#utility.yul\":2112:2141   */\n      swap1\n      pop\n        /* \"#utility.yul\":2150:2183   */\n      tag_184\n        /* \"#utility.yul\":2177:2182   */\n      dup2\n        /* \"#utility.yul\":2150:2183   */\n      tag_110\n      jump\t// in\n    tag_184:\n        /* \"#utility.yul\":2050:2189   */\n      swap3\n      swap2\n      pop\n      pop\n      jump\t// out\n        /* \"#utility.yul\":2195:2312   */\n    tag_112:\n        /* \"#utility.yul\":2304:2305   */\n      0x00\n        /* \"#utility.yul\":2301:2302   */\n      0x00\n        /* \"#utility.yul\":2294:2306   */\n      revert\n        /* \"#utility.yul\":2318:2435   */\n    tag_113:\n        /* \"#utility.yul\":2427:2428   */\n      0x00\n        /* \"#utility.yul\":2424:2425   */\n      0x00\n        /* \"#utility.yul\":2417:2429   */\n      revert\n        /* \"#utility.yul\":2441:2558   */\n    tag_114:\n        /* \"#utility.yul\":2550:2551   */\n      0x00\n        /* \"#utility.yul\":2547:2548   */\n      0x00\n        /* \"#utility.yul\":2540:2552   */\n      revert\n        /* \"#utility.yul\":2577:3129   */\n    tag_115:\n        /* \"#utility.yul\":2634:2642   */\n      0x00\n        /* \"#utility.yul\":2644:2650   */\n      0x00\n        /* \"#utility.yul\":2694:2697   */\n      dup4\n        /* \"#utility.yul\":2687:2691   */\n      0x1f\n        /* \"#utility.yul\":2679:2685   */\n      dup5\n        /* \"#utility.yul\":2675:2692   */\n      add\n        /* \"#utility.yul\":2671:2698   */\n      slt\n        /* \"#utility.yul\":2661:2783   */\n      tag_189\n      jumpi\n        /* \"#utility.yul\":2702:2781   */\n      tag_190\n      tag_112\n      jump\t// in\n    tag_190:\n        /* \"#utility.yul\":2661:2783   */\n    tag_189:\n        /* \"#utility.yul\":2815:2821   */\n      dup3\n        /* \"#utility.yul\":2802:2822   */\n      calldataload\n        /* \"#utility.yul\":2792:2822   */\n      swap1\n      pop\n        /* \"#utility.yul\":2845:2863   */\n      0xffffffffffffffff\n        /* \"#utility.yul\":2837:2843   */\n      dup2\n        /* \"#utility.yul\":2834:2864   */\n      gt\n        /* \"#utility.yul\":2831:2948   */\n      iszero\n      tag_191\n      jumpi\n        /* \"#utility.yul\":2867:2946   */\n      tag_192\n      tag_113\n      jump\t// in\n    tag_192:\n        /* \"#utility.yul\":2831:2948   */\n    tag_191:\n        /* \"#utility.yul\":2981:2985   */\n      0x20\n        /* \"#utility.yul\":2973:2979   */\n      dup4\n        /* \"#utility.yul\":2969:2986   */\n      add\n        /* \"#utility.yul\":2957:2986   */\n      swap2\n      pop\n        /* \"#utility.yul\":3035:3038   */\n      dup4\n        /* \"#utility.yul\":3027:3031   */\n      0x01\n        /* \"#utility.yul\":3019:3025   */\n      dup3\n        /* \"#utility.yul\":3015:3032   */\n      mul\n        /* \"#utility.yul\":3005:3013   */\n      dup4\n        /* \"#utility.yul\":3001:3033   */\n      add\n        /* \"#utility.yul\":2998:3039   */\n      gt\n        /* \"#utility.yul\":2995:3123   */\n      iszero\n      tag_193\n      jumpi\n        /* \"#utility.yul\":3042:3121   */\n      tag_194\n      tag_114\n      jump\t// in\n    tag_194:\n        /* \"#utility.yul\":2995:3123   */\n    tag_193:\n        /* \"#utility.yul\":2577:3129   */\n      swap3\n      pop\n      swap3\n      swap1\n      pop\n      jump\t// out\n        /* \"#utility.yul\":3135:4244   */\n    tag_19:\n        /* \"#utility.yul\":3241:3247   */\n      0x00\n        /* \"#utility.yul\":3249:3255   */\n      0x00\n        /* \"#utility.yul\":3257:3263   */\n      0x00\n        /* \"#utility.yul\":3265:3271   */\n      0x00\n        /* \"#utility.yul\":3273:3279   */\n      0x00\n        /* \"#utility.yul\":3281:3287   */\n      0x00\n        /* \"#utility.yul\":3330:3333   */\n      0xa0\n        /* \"#utility.yul\":3318:3327   */\n      dup8\n        /* \"#utility.yul\":3309:3316   */\n      dup10\n        /* \"#utility.yul\":3305:3328   */\n      sub\n        /* \"#utility.yul\":3301:3334   */\n      slt\n        /* \"#utility.yul\":3298:3418   */\n      iszero\n      tag_196\n      jumpi\n        /* \"#utility.yul\":3337:3416   */\n      tag_197\n      tag_104\n      jump\t// in\n    tag_197:\n        /* \"#utility.yul\":3298:3418   */\n    tag_196:\n        /* \"#utility.yul\":3457:3458   */\n      0x00\n        /* \"#utility.yul\":3482:3535   */\n      tag_198\n        /* \"#utility.yul\":3527:3534   */\n      dup10\n        /* \"#utility.yul\":3518:3524   */\n      dup3\n        /* \"#utility.yul\":3507:3516   */\n      dup11\n        /* \"#utility.yul\":3503:3525   */\n      add\n        /* \"#utility.yul\":3482:3535   */\n      tag_108\n      jump\t// in\n    tag_198:\n        /* \"#utility.yul\":3472:3535   */\n      swap7\n      pop\n        /* \"#utility.yul\":3428:3545   */\n      pop\n        /* \"#utility.yul\":3584:3586   */\n      0x20\n        /* \"#utility.yul\":3610:3663   */\n      tag_199\n        /* \"#utility.yul\":3655:3662   */\n      dup10\n        /* \"#utility.yul\":3646:3652   */\n      dup3\n        /* \"#utility.yul\":3635:3644   */\n      dup11\n        /* \"#utility.yul\":3631:3653   */\n      add\n        /* \"#utility.yul\":3610:3663   */\n      tag_111\n      jump\t// in\n    tag_199:\n        /* \"#utility.yul\":3600:3663   */\n      swap6\n      pop\n        /* \"#utility.yul\":3555:3673   */\n      pop\n        /* \"#utility.yul\":3712:3714   */\n      0x40\n        /* \"#utility.yul\":3738:3791   */\n      tag_200\n        /* \"#utility.yul\":3783:3790   */\n      dup10\n        /* \"#utility.yul\":3774:3780   */\n      dup3\n        /* \"#utility.yul\":3763:3772   */\n      dup11\n        /* \"#utility.yul\":3759:3781   */\n      add\n        /* \"#utility.yul\":3738:3791   */\n      tag_111\n      jump\t// in\n    tag_200:\n        /* \"#utility.yul\":3728:3791   */\n      swap5\n      pop\n        /* \"#utility.yul\":3683:3801   */\n      pop\n        /* \"#utility.yul\":3840:3842   */\n      0x60\n        /* \"#utility.yul\":3866:3919   */\n      tag_201\n        /* \"#utility.yul\":3911:3918   */\n      dup10\n        /* \"#utility.yul\":3902:3908   */\n      dup3\n        /* \"#utility.yul\":3891:3900   */\n      dup11\n        /* \"#utility.yul\":3887:3909   */\n      add\n        /* \"#utility.yul\":3866:3919   */\n      tag_108\n      jump\t// in\n    tag_201:\n        /* \"#utility.yul\":3856:3919   */\n      swap4\n      pop\n        /* \"#utility.yul\":3811:3929   */\n      pop\n        /* \"#utility.yul\":3996:3999   */\n      0x80\n        /* \"#utility.yul\":3985:3994   */\n      dup8\n        /* \"#utility.yul\":3981:4000   */\n      add\n        /* \"#utility.yul\":3968:4001   */\n      calldataload\n        /* \"#utility.yul\":4028:4046   */\n      0xffffffffffffffff\n        /* \"#utility.yul\":4020:4026   */\n      dup2\n        /* \"#utility.yul\":4017:4047   */\n      gt\n        /* \"#utility.yul\":4014:4131   */\n      iszero\n      tag_202\n      jumpi\n        /* \"#utility.yul\":4050:4129   */\n      tag_203\n      tag_105\n      jump\t// in\n    tag_203:\n        /* \"#utility.yul\":4014:4131   */\n    tag_202:\n        /* \"#utility.yul\":4163:4227   */\n      tag_204\n        /* \"#utility.yul\":4219:4226   */\n      dup10\n        /* \"#utility.yul\":4210:4216   */\n      dup3\n        /* \"#utility.yul\":4199:4208   */\n      dup11\n        /* \"#utility.yul\":4195:4217   */\n      add\n        /* \"#utility.yul\":4163:4227   */\n      tag_115\n      jump\t// in\n    tag_204:\n        /* \"#utility.yul\":4145:4227   */\n      swap3\n      pop\n      swap3\n      pop\n        /* \"#utility.yul\":3939:4237   */\n      pop\n        /* \"#utility.yul\":3135:4244   */\n      swap3\n      swap6\n      pop\n      swap3\n      swap6\n      pop\n      swap3\n      swap6\n      jump\t// out\n        /* \"#utility.yul\":4250:4340   */\n    tag_116:\n        /* \"#utility.yul\":4284:4291   */\n      0x00\n        /* \"#utility.yul\":4327:4332   */\n      dup2\n        /* \"#utility.yul\":4320:4333   */\n      iszero\n        /* \"#utility.yul\":4313:4334   */\n      iszero\n        /* \"#utility.yul\":4302:4334   */\n      swap1\n      pop\n        /* \"#utility.yul\":4250:4340   */\n      swap2\n      swap1\n      pop\n      jump\t// out\n        /* \"#utility.yul\":4346:4455   */\n    tag_117:\n        /* \"#utility.yul\":4427:4448   */\n      tag_207\n        /* \"#utility.yul\":4442:4447   */\n      dup2\n        /* \"#utility.yul\":4427:4448   */\n      tag_116\n      jump\t// in\n    tag_207:\n        /* \"#utility.yul\":4422:4425   */\n      dup3\n        /* \"#utility.yul\":4415:4449   */\n      mstore\n        /* \"#utility.yul\":4346:4455   */\n      pop\n      pop\n      jump\t// out\n        /* \"#utility.yul\":4461:4671   */\n    tag_22:\n        /* \"#utility.yul\":4548:4552   */\n      0x00\n        /* \"#utility.yul\":4586:4588   */\n      0x20\n        /* \"#utility.yul\":4575:4584   */\n      dup3\n        /* \"#utility.yul\":4571:4589   */\n      add\n        /* \"#utility.yul\":4563:4589   */\n      swap1\n      pop\n        /* \"#utility.yul\":4599:4664   */\n      tag_209\n        /* \"#utility.yul\":4661:4662   */\n      0x00\n        /* \"#utility.yul\":4650:4659   */\n      dup4\n        /* \"#utility.yul\":4646:4663   */\n      add\n        /* \"#utility.yul\":4637:4643   */\n      dup5\n        /* \"#utility.yul\":4599:4664   */\n      tag_117\n      jump\t// in\n    tag_209:\n        /* \"#utility.yul\":4461:4671   */\n      swap3\n      swap2\n      pop\n      pop\n      jump\t// out\n        /* \"#utility.yul\":4677:4794   */\n    tag_118:\n        /* \"#utility.yul\":4786:4787   */\n      0x00\n        /* \"#utility.yul\":4783:4784   */\n      0x00\n        /* \"#utility.yul\":4776:4788   */\n      revert\n        /* \"#utility.yul\":4800:4902   */\n    tag_119:\n        /* \"#utility.yul\":4841:4847   */\n      0x00\n        /* \"#utility.yul\":4892:4894   */\n      0x1f\n        /* \"#utility.yul\":4888:4895   */\n      not\n        /* \"#utility.yul\":4883:4885   */\n      0x1f\n        /* \"#utility.yul\":4876:4881   */\n      dup4\n        /* \"#utility.yul\":4872:4886   */\n      add\n        /* \"#utility.yul\":4868:4896   */\n      and\n        /* \"#utility.yul\":4858:4896   */\n      swap1\n      pop\n        /* \"#utility.yul\":4800:4902   */\n      swap2\n      swap1\n      pop\n      jump\t// out\n        /* \"#utility.yul\":4908:5088   */\n    tag_120:\n        /* \"#utility.yul\":4956:5033   */\n      0x4e487b7100000000000000000000000000000000000000000000000000000000\n        /* \"#utility.yul\":4953:4954   */\n      0x00\n        /* \"#utility.yul\":4946:5034   */\n      mstore\n        /* \"#utility.yul\":5053:5057   */\n      0x41\n        /* \"#utility.yul\":5050:5051   */\n      0x04\n        /* \"#utility.yul\":5043:5058   */\n      mstore\n        /* \"#utility.yul\":5077:5081   */\n      0x24\n        /* \"#utility.yul\":5074:5075   */\n      0x00\n        /* \"#utility.yul\":5067:5082   */\n      revert\n        /* \"#utility.yul\":5094:5375   */\n    tag_121:\n        /* \"#utility.yul\":5177:5204   */\n      tag_214\n        /* \"#utility.yul\":5199:5203   */\n      dup3\n        /* \"#utility.yul\":5177:5204   */\n      tag_119\n      jump\t// in\n    tag_214:\n        /* \"#utility.yul\":5169:5175   */\n      dup2\n        /* \"#utility.yul\":5165:5205   */\n      add\n        /* \"#utility.yul\":5307:5313   */\n      dup2\n        /* \"#utility.yul\":5295:5305   */\n      dup2\n        /* \"#utility.yul\":5292:5314   */\n      lt\n        /* \"#utility.yul\":5271:5289   */\n      0xffffffffffffffff\n        /* \"#utility.yul\":5259:5269   */\n      dup3\n        /* \"#utility.yul\":5256:5290   */\n      gt\n        /* \"#utility.yul\":5253:5315   */\n      or\n        /* \"#utility.yul\":5250:5338   */\n      iszero\n      tag_215\n      jumpi\n        /* \"#utility.yul\":5318:5336   */\n      tag_216\n      tag_120\n      jump\t// in\n    tag_216:\n        /* \"#utility.yul\":5250:5338   */\n    tag_215:\n        /* \"#utility.yul\":5358:5368   */\n      dup1\n        /* \"#utility.yul\":5354:5356   */\n      0x40\n        /* \"#utility.yul\":5347:5369   */\n      mstore\n        /* \"#utility.yul\":5137:5375   */\n      pop\n        /* \"#utility.yul\":5094:5375   */\n      pop\n      pop\n      jump\t// out\n        /* \"#utility.yul\":5381:5510   */\n    tag_122:\n        /* \"#utility.yul\":5415:5421   */\n      0x00\n        /* \"#utility.yul\":5442:5462   */\n      tag_218\n      tag_103\n      jump\t// in\n    tag_218:\n        /* \"#utility.yul\":5432:5462   */\n      swap1\n      pop\n        /* \"#utility.yul\":5471:5504   */\n      tag_219\n        /* \"#utility.yul\":5499:5503   */\n      dup3\n        /* \"#utility.yul\":5491:5497   */\n      dup3\n        /* \"#utility.yul\":5471:5504   */\n      tag_121\n      jump\t// in\n    tag_219:\n        /* \"#utility.yul\":5381:5510   */\n      swap2\n      swap1\n      pop\n      jump\t// out\n        /* \"#utility.yul\":5516:5823   */\n    tag_123:\n        /* \"#utility.yul\":5577:5581   */\n      0x00\n        /* \"#utility.yul\":5667:5685   */\n      0xffffffffffffffff\n        /* \"#utility.yul\":5659:5665   */\n      dup3\n        /* \"#utility.yul\":5656:5686   */\n      gt\n        /* \"#utility.yul\":5653:5709   */\n      iszero\n      tag_221\n      jumpi\n        /* \"#utility.yul\":5689:5707   */\n      tag_222\n      tag_120\n      jump\t// in\n    tag_222:\n        /* \"#utility.yul\":5653:5709   */\n    tag_221:\n        /* \"#utility.yul\":5727:5756   */\n      tag_223\n        /* \"#utility.yul\":5749:5755   */\n      dup3\n        /* \"#utility.yul\":5727:5756   */\n      tag_119\n      jump\t// in\n    tag_223:\n        /* \"#utility.yul\":5719:5756   */\n      swap1\n      pop\n        /* \"#utility.yul\":5811:5815   */\n      0x20\n        /* \"#utility.yul\":5805:5809   */\n      dup2\n        /* \"#utility.yul\":5801:5816   */\n      add\n        /* \"#utility.yul\":5793:5816   */\n      swap1\n      pop\n        /* \"#utility.yul\":5516:5823   */\n      swap2\n      swap1\n      pop\n      jump\t// out\n        /* \"#utility.yul\":5829:5977   */\n    tag_124:\n        /* \"#utility.yul\":5927:5933   */\n      dup3\n        /* \"#utility.yul\":5922:5925   */\n      dup2\n        /* \"#utility.yul\":5917:5920   */\n      dup4\n        /* \"#utility.yul\":5904:5934   */\n      calldatacopy\n        /* \"#utility.yul\":5968:5969   */\n      0x00\n        /* \"#utility.yul\":5959:5965   */\n      dup4\n        /* \"#utility.yul\":5954:5957   */\n      dup4\n        /* \"#utility.yul\":5950:5966   */\n      add\n        /* \"#utility.yul\":5943:5970   */\n      mstore\n        /* \"#utility.yul\":5829:5977   */\n      pop\n      pop\n      pop\n      jump\t// out\n        /* \"#utility.yul\":5983:6406   */\n    tag_125:\n        /* \"#utility.yul\":6060:6065   */\n      0x00\n        /* \"#utility.yul\":6085:6150   */\n      tag_226\n        /* \"#utility.yul\":6101:6149   */\n      tag_227\n        /* \"#utility.yul\":6142:6148   */\n      dup5\n        /* \"#utility.yul\":6101:6149   */\n      tag_123\n      jump\t// in\n    tag_227:\n        /* \"#utility.yul\":6085:6150   */\n      tag_122\n      jump\t// in\n    tag_226:\n        /* \"#utility.yul\":6076:6150   */\n      swap1\n      pop\n        /* \"#utility.yul\":6173:6179   */\n      dup3\n        /* \"#utility.yul\":6166:6171   */\n      dup2\n        /* \"#utility.yul\":6159:6180   */\n      mstore\n        /* \"#utility.yul\":6211:6215   */\n      0x20\n        /* \"#utility.yul\":6204:6209   */\n      dup2\n        /* \"#utility.yul\":6200:6216   */\n      add\n        /* \"#utility.yul\":6249:6252   */\n      dup5\n        /* \"#utility.yul\":6240:6246   */\n      dup5\n        /* \"#utility.yul\":6235:6238   */\n      dup5\n        /* \"#utility.yul\":6231:6247   */\n      add\n        /* \"#utility.yul\":6228:6253   */\n      gt\n        /* \"#utility.yul\":6225:6337   */\n      iszero\n      tag_228\n      jumpi\n        /* \"#utility.yul\":6256:6335   */\n      tag_229\n      tag_118\n      jump\t// in\n    tag_229:\n        /* \"#utility.yul\":6225:6337   */\n    tag_228:\n        /* \"#utility.yul\":6346:6400   */\n      tag_230\n        /* \"#utility.yul\":6393:6399   */\n      dup5\n        /* \"#utility.yul\":6388:6391   */\n      dup3\n        /* \"#utility.yul\":6383:6386   */\n      dup6\n        /* \"#utility.yul\":6346:6400   */\n      tag_124\n      jump\t// in\n    tag_230:\n        /* \"#utility.yul\":6066:6406   */\n      pop\n        /* \"#utility.yul\":5983:6406   */\n      swap4\n      swap3\n      pop\n      pop\n      pop\n      jump\t// out\n        /* \"#utility.yul\":6425:6763   */\n    tag_126:\n        /* \"#utility.yul\":6480:6485   */\n      0x00\n        /* \"#utility.yul\":6529:6532   */\n      dup3\n        /* \"#utility.yul\":6522:6526   */\n      0x1f\n        /* \"#utility.yul\":6514:6520   */\n      dup4\n        /* \"#utility.yul\":6510:6527   */\n      add\n        /* \"#utility.yul\":6506:6533   */\n      slt\n        /* \"#utility.yul\":6496:6618   */\n      tag_232\n      jumpi\n        /* \"#utility.yul\":6537:6616   */\n      tag_233\n      tag_112\n      jump\t// in\n    tag_233:\n        /* \"#utility.yul\":6496:6618   */\n    tag_232:\n        /* \"#utility.yul\":6654:6660   */\n      dup2\n        /* \"#utility.yul\":6641:6661   */\n      calldataload\n        /* \"#utility.yul\":6679:6757   */\n      tag_234\n        /* \"#utility.yul\":6753:6756   */\n      dup5\n        /* \"#utility.yul\":6745:6751   */\n      dup3\n        /* \"#utility.yul\":6738:6742   */\n      0x20\n        /* \"#utility.yul\":6730:6736   */\n      dup7\n        /* \"#utility.yul\":6726:6743   */\n      add\n        /* \"#utility.yul\":6679:6757   */\n      tag_125\n      jump\t// in\n    tag_234:\n        /* \"#utility.yul\":6670:6757   */\n      swap2\n      pop\n        /* \"#utility.yul\":6486:6763   */\n      pop\n        /* \"#utility.yul\":6425:6763   */\n      swap3\n      swap2\n      pop\n      pop\n      jump\t// out\n        /* \"#utility.yul\":6769:7566   */\n    tag_26:\n        /* \"#utility.yul\":6855:6861   */\n      0x00\n        /* \"#utility.yul\":6863:6869   */\n      0x00\n        /* \"#utility.yul\":6871:6877   */\n      0x00\n        /* \"#utility.yul\":6920:6922   */\n      0x60\n        /* \"#utility.yul\":6908:6917   */\n      dup5\n        /* \"#utility.yul\":6899:6906   */\n      dup7\n        /* \"#utility.yul\":6895:6918   */\n      sub\n        /* \"#utility.yul\":6891:6923   */\n      slt\n        /* \"#utility.yul\":6888:7007   */\n      iszero\n      tag_236\n      jumpi\n        /* \"#utility.yul\":6926:7005   */\n      tag_237\n      tag_104\n      jump\t// in\n    tag_237:\n        /* \"#utility.yul\":6888:7007   */\n    tag_236:\n        /* \"#utility.yul\":7046:7047   */\n      0x00\n        /* \"#utility.yul\":7071:7124   */\n      tag_238\n        /* \"#utility.yul\":7116:7123   */\n      dup7\n        /* \"#utility.yul\":7107:7113   */\n      dup3\n        /* \"#utility.yul\":7096:7105   */\n      dup8\n        /* \"#utility.yul\":7092:7114   */\n      add\n        /* \"#utility.yul\":7071:7124   */\n      tag_108\n      jump\t// in\n    tag_238:\n        /* \"#utility.yul\":7061:7124   */\n      swap4\n      pop\n        /* \"#utility.yul\":7017:7134   */\n      pop\n        /* \"#utility.yul\":7173:7175   */\n      0x20\n        /* \"#utility.yul\":7199:7252   */\n      tag_239\n        /* \"#utility.yul\":7244:7251   */\n      dup7\n        /* \"#utility.yul\":7235:7241   */\n      dup3\n        /* \"#utility.yul\":7224:7233   */\n      dup8\n        /* \"#utility.yul\":7220:7242   */\n      add\n        /* \"#utility.yul\":7199:7252   */\n      tag_111\n      jump\t// in\n    tag_239:\n        /* \"#utility.yul\":7189:7252   */\n      swap3\n      pop\n        /* \"#utility.yul\":7144:7262   */\n      pop\n        /* \"#utility.yul\":7329:7331   */\n      0x40\n        /* \"#utility.yul\":7318:7327   */\n      dup5\n        /* \"#utility.yul\":7314:7332   */\n      add\n        /* \"#utility.yul\":7301:7333   */\n      calldataload\n        /* \"#utility.yul\":7360:7378   */\n      0xffffffffffffffff\n        /* \"#utility.yul\":7352:7358   */\n      dup2\n        /* \"#utility.yul\":7349:7379   */\n      gt\n        /* \"#utility.yul\":7346:7463   */\n      iszero\n      tag_240\n      jumpi\n        /* \"#utility.yul\":7382:7461   */\n      tag_241\n      tag_105\n      jump\t// in\n    tag_241:\n        /* \"#utility.yul\":7346:7463   */\n    tag_240:\n        /* \"#utility.yul\":7487:7549   */\n      tag_242\n        /* \"#utility.yul\":7541:7548   */\n      dup7\n        /* \"#utility.yul\":7532:7538   */\n      dup3\n        /* \"#utility.yul\":7521:7530   */\n      dup8\n        /* \"#utility.yul\":7517:7539   */\n      add\n        /* \"#utility.yul\":7487:7549   */\n      tag_126\n      jump\t// in\n    tag_242:\n        /* \"#utility.yul\":7477:7549   */\n      swap2\n      pop\n        /* \"#utility.yul\":7272:7559   */\n      pop\n        /* \"#utility.yul\":6769:7566   */\n      swap3\n      pop\n      swap3\n      pop\n      swap3\n      jump\t// out\n        /* \"#utility.yul\":7572:7901   */\n    tag_31:\n        /* \"#utility.yul\":7631:7637   */\n      0x00\n        /* \"#utility.yul\":7680:7682   */\n      0x20\n        /* \"#utility.yul\":7668:7677   */\n      dup3\n        /* \"#utility.yul\":7659:7666   */\n      dup5\n        /* \"#utility.yul\":7655:7678   */\n      sub\n        /* \"#utility.yul\":7651:7683   */\n      slt\n        /* \"#utility.yul\":7648:7767   */\n      iszero\n      tag_244\n      jumpi\n        /* \"#utility.yul\":7686:7765   */\n      tag_245\n      tag_104\n      jump\t// in\n    tag_245:\n        /* \"#utility.yul\":7648:7767   */\n    tag_244:\n        /* \"#utility.yul\":7806:7807   */\n      0x00\n        /* \"#utility.yul\":7831:7884   */\n      tag_246\n        /* \"#utility.yul\":7876:7883   */\n      dup5\n        /* \"#utility.yul\":7867:7873   */\n      dup3\n        /* \"#utility.yul\":7856:7865   */\n      dup6\n        /* \"#utility.yul\":7852:7874   */\n      add\n        /* \"#utility.yul\":7831:7884   */\n      tag_108\n      jump\t// in\n    tag_246:\n        /* \"#utility.yul\":7821:7884   */\n      swap2\n      pop\n        /* \"#utility.yul\":7777:7894   */\n      pop\n        /* \"#utility.yul\":7572:7901   */\n      swap3\n      swap2\n      pop\n      pop\n      jump\t// out\n        /* \"#utility.yul\":7907:8046   */\n    tag_127:\n        /* \"#utility.yul\":7970:7979   */\n      0x00\n        /* \"#utility.yul\":8003:8040   */\n      tag_248\n        /* \"#utility.yul\":8034:8039   */\n      dup3\n        /* \"#utility.yul\":8003:8040   */\n      tag_100\n      jump\t// in\n    tag_248:\n        /* \"#utility.yul\":7990:8040   */\n      swap1\n      pop\n        /* \"#utility.yul\":7907:8046   */\n      swap2\n      swap1\n      pop\n      jump\t// out\n        /* \"#utility.yul\":8052:8209   */\n    tag_128:\n        /* \"#utility.yul\":8152:8202   */\n      tag_250\n        /* \"#utility.yul\":8196:8201   */\n      dup2\n        /* \"#utility.yul\":8152:8202   */\n      tag_127\n      jump\t// in\n    tag_250:\n        /* \"#utility.yul\":8147:8150   */\n      dup3\n        /* \"#utility.yul\":8140:8203   */\n      mstore\n        /* \"#utility.yul\":8052:8209   */\n      pop\n      pop\n      jump\t// out\n        /* \"#utility.yul\":8215:8463   */\n    tag_37:\n        /* \"#utility.yul\":8321:8325   */\n      0x00\n        /* \"#utility.yul\":8359:8361   */\n      0x20\n        /* \"#utility.yul\":8348:8357   */\n      dup3\n        /* \"#utility.yul\":8344:8362   */\n      add\n        /* \"#utility.yul\":8336:8362   */\n      swap1\n      pop\n        /* \"#utility.yul\":8372:8456   */\n      tag_252\n        /* \"#utility.yul\":8453:8454   */\n      0x00\n        /* \"#utility.yul\":8442:8451   */\n      dup4\n        /* \"#utility.yul\":8438:8455   */\n      add\n        /* \"#utility.yul\":8429:8435   */\n      dup5\n        /* \"#utility.yul\":8372:8456   */\n      tag_128\n      jump\t// in\n    tag_252:\n        /* \"#utility.yul\":8215:8463   */\n      swap3\n      swap2\n      pop\n      pop\n      jump\t// out\n        /* \"#utility.yul\":8469:8587   */\n    tag_129:\n        /* \"#utility.yul\":8556:8580   */\n      tag_254\n        /* \"#utility.yul\":8574:8579   */\n      dup2\n        /* \"#utility.yul\":8556:8580   */\n      tag_109\n      jump\t// in\n    tag_254:\n        /* \"#utility.yul\":8551:8554   */\n      dup3\n        /* \"#utility.yul\":8544:8581   */\n      mstore\n        /* \"#utility.yul\":8469:8587   */\n      pop\n      pop\n      jump\t// out\n        /* \"#utility.yul\":8593:8815   */\n    tag_43:\n        /* \"#utility.yul\":8686:8690   */\n      0x00\n        /* \"#utility.yul\":8724:8726   */\n      0x20\n        /* \"#utility.yul\":8713:8722   */\n      dup3\n        /* \"#utility.yul\":8709:8727   */\n      add\n        /* \"#utility.yul\":8701:8727   */\n      swap1\n      pop\n        /* \"#utility.yul\":8737:8808   */\n      tag_256\n        /* \"#utility.yul\":8805:8806   */\n      0x00\n        /* \"#utility.yul\":8794:8803   */\n      dup4\n        /* \"#utility.yul\":8790:8807   */\n      add\n        /* \"#utility.yul\":8781:8787   */\n      dup5\n        /* \"#utility.yul\":8737:8808   */\n      tag_129\n      jump\t// in\n    tag_256:\n        /* \"#utility.yul\":8593:8815   */\n      swap3\n      swap2\n      pop\n      pop\n      jump\t// out\n        /* \"#utility.yul\":8821:9132   */\n    tag_130:\n        /* \"#utility.yul\":8898:8902   */\n      0x00\n        /* \"#utility.yul\":8988:9006   */\n      0xffffffffffffffff\n        /* \"#utility.yul\":8980:8986   */\n      dup3\n        /* \"#utility.yul\":8977:9007   */\n      gt\n        /* \"#utility.yul\":8974:9030   */\n      iszero\n      tag_258\n      jumpi\n        /* \"#utility.yul\":9010:9028   */\n      tag_259\n      tag_120\n      jump\t// in\n    tag_259:\n        /* \"#utility.yul\":8974:9030   */\n    tag_258:\n        /* \"#utility.yul\":9060:9064   */\n      0x20\n        /* \"#utility.yul\":9052:9058   */\n      dup3\n        /* \"#utility.yul\":9048:9065   */\n      mul\n        /* \"#utility.yul\":9040:9065   */\n      swap1\n      pop\n        /* \"#utility.yul\":9120:9124   */\n      0x20\n        /* \"#utility.yul\":9114:9118   */\n      dup2\n        /* \"#utility.yul\":9110:9125   */\n      add\n        /* \"#utility.yul\":9102:9125   */\n      swap1\n      pop\n        /* \"#utility.yul\":8821:9132   */\n      swap2\n      swap1\n      pop\n      jump\t// out\n        /* \"#utility.yul\":9155:9865   */\n    tag_131:\n        /* \"#utility.yul\":9251:9256   */\n      0x00\n        /* \"#utility.yul\":9276:9357   */\n      tag_261\n        /* \"#utility.yul\":9292:9356   */\n      tag_262\n        /* \"#utility.yul\":9349:9355   */\n      dup5\n        /* \"#utility.yul\":9292:9356   */\n      tag_130\n      jump\t// in\n    tag_262:\n        /* \"#utility.yul\":9276:9357   */\n      tag_122\n      jump\t// in\n    tag_261:\n        /* \"#utility.yul\":9267:9357   */\n      swap1\n      pop\n        /* \"#utility.yul\":9377:9382   */\n      dup1\n        /* \"#utility.yul\":9406:9412   */\n      dup4\n        /* \"#utility.yul\":9399:9404   */\n      dup3\n        /* \"#utility.yul\":9392:9413   */\n      mstore\n        /* \"#utility.yul\":9440:9444   */\n      0x20\n        /* \"#utility.yul\":9433:9438   */\n      dup3\n        /* \"#utility.yul\":9429:9445   */\n      add\n        /* \"#utility.yul\":9422:9445   */\n      swap1\n      pop\n        /* \"#utility.yul\":9493:9497   */\n      0x20\n        /* \"#utility.yul\":9485:9491   */\n      dup5\n        /* \"#utility.yul\":9481:9498   */\n      mul\n        /* \"#utility.yul\":9473:9479   */\n      dup4\n        /* \"#utility.yul\":9469:9499   */\n      add\n        /* \"#utility.yul\":9522:9525   */\n      dup6\n        /* \"#utility.yul\":9514:9520   */\n      dup2\n        /* \"#utility.yul\":9511:9526   */\n      gt\n        /* \"#utility.yul\":9508:9630   */\n      iszero\n      tag_263\n      jumpi\n        /* \"#utility.yul\":9541:9620   */\n      tag_264\n      tag_114\n      jump\t// in\n    tag_264:\n        /* \"#utility.yul\":9508:9630   */\n    tag_263:\n        /* \"#utility.yul\":9656:9662   */\n      dup4\n        /* \"#utility.yul\":9639:9859   */\n    tag_265:\n        /* \"#utility.yul\":9673:9679   */\n      dup2\n        /* \"#utility.yul\":9668:9671   */\n      dup2\n        /* \"#utility.yul\":9665:9680   */\n      lt\n        /* \"#utility.yul\":9639:9859   */\n      iszero\n      tag_267\n      jumpi\n        /* \"#utility.yul\":9748:9751   */\n      dup1\n        /* \"#utility.yul\":9777:9814   */\n      tag_268\n        /* \"#utility.yul\":9810:9813   */\n      dup9\n        /* \"#utility.yul\":9798:9808   */\n      dup3\n        /* \"#utility.yul\":9777:9814   */\n      tag_108\n      jump\t// in\n    tag_268:\n        /* \"#utility.yul\":9772:9775   */\n      dup5\n        /* \"#utility.yul\":9765:9815   */\n      mstore\n        /* \"#utility.yul\":9844:9848   */\n      0x20\n        /* \"#utility.yul\":9839:9842   */\n      dup5\n        /* \"#utility.yul\":9835:9849   */\n      add\n        /* \"#utility.yul\":9828:9849   */\n      swap4\n      pop\n        /* \"#utility.yul\":9715:9859   */\n      pop\n        /* \"#utility.yul\":9699:9703   */\n      0x20\n        /* \"#utility.yul\":9694:9697   */\n      dup2\n        /* \"#utility.yul\":9690:9704   */\n      add\n        /* \"#utility.yul\":9683:9704   */\n      swap1\n      pop\n        /* \"#utility.yul\":9639:9859   */\n      jump(tag_265)\n    tag_267:\n        /* \"#utility.yul\":9643:9664   */\n      pop\n        /* \"#utility.yul\":9257:9865   */\n      pop\n      pop\n        /* \"#utility.yul\":9155:9865   */\n      swap4\n      swap3\n      pop\n      pop\n      pop\n      jump\t// out\n        /* \"#utility.yul\":9888:10258   */\n    tag_132:\n        /* \"#utility.yul\":9959:9964   */\n      0x00\n        /* \"#utility.yul\":10008:10011   */\n      dup3\n        /* \"#utility.yul\":10001:10005   */\n      0x1f\n        /* \"#utility.yul\":9993:9999   */\n      dup4\n        /* \"#utility.yul\":9989:10006   */\n      add\n        /* \"#utility.yul\":9985:10012   */\n      slt\n        /* \"#utility.yul\":9975:10097   */\n      tag_270\n      jumpi\n        /* \"#utility.yul\":10016:10095   */\n      tag_271\n      tag_112\n      jump\t// in\n    tag_271:\n        /* \"#utility.yul\":9975:10097   */\n    tag_270:\n        /* \"#utility.yul\":10133:10139   */\n      dup2\n        /* \"#utility.yul\":10120:10140   */\n      calldataload\n        /* \"#utility.yul\":10158:10252   */\n      tag_272\n        /* \"#utility.yul\":10248:10251   */\n      dup5\n        /* \"#utility.yul\":10240:10246   */\n      dup3\n        /* \"#utility.yul\":10233:10237   */\n      0x20\n        /* \"#utility.yul\":10225:10231   */\n      dup7\n        /* \"#utility.yul\":10221:10238   */\n      add\n        /* \"#utility.yul\":10158:10252   */\n      tag_131\n      jump\t// in\n    tag_272:\n        /* \"#utility.yul\":10149:10252   */\n      swap2\n      pop\n        /* \"#utility.yul\":9965:10258   */\n      pop\n        /* \"#utility.yul\":9888:10258   */\n      swap3\n      swap2\n      pop\n      pop\n      jump\t// out\n        /* \"#utility.yul\":10264:10584   */\n    tag_133:\n        /* \"#utility.yul\":10350:10354   */\n      0x00\n        /* \"#utility.yul\":10440:10458   */\n      0xffffffffffffffff\n        /* \"#utility.yul\":10432:10438   */\n      dup3\n        /* \"#utility.yul\":10429:10459   */\n      gt\n        /* \"#utility.yul\":10426:10482   */\n      iszero\n      tag_274\n      jumpi\n        /* \"#utility.yul\":10462:10480   */\n      tag_275\n      tag_120\n      jump\t// in\n    tag_275:\n        /* \"#utility.yul\":10426:10482   */\n    tag_274:\n        /* \"#utility.yul\":10512:10516   */\n      0x20\n        /* \"#utility.yul\":10504:10510   */\n      dup3\n        /* \"#utility.yul\":10500:10517   */\n      mul\n        /* \"#utility.yul\":10492:10517   */\n      swap1\n      pop\n        /* \"#utility.yul\":10572:10576   */\n      0x20\n        /* \"#utility.yul\":10566:10570   */\n      dup2\n        /* \"#utility.yul\":10562:10577   */\n      add\n        /* \"#utility.yul\":10554:10577   */\n      swap1\n      pop\n        /* \"#utility.yul\":10264:10584   */\n      swap2\n      swap1\n      pop\n      jump\t// out\n        /* \"#utility.yul\":10605:11547   */\n    tag_134:\n        /* \"#utility.yul\":10710:10715   */\n      0x00\n        /* \"#utility.yul\":10735:10825   */\n      tag_277\n        /* \"#utility.yul\":10751:10824   */\n      tag_278\n        /* \"#utility.yul\":10817:10823   */\n      dup5\n        /* \"#utility.yul\":10751:10824   */\n      tag_133\n      jump\t// in\n    tag_278:\n        /* \"#utility.yul\":10735:10825   */\n      tag_122\n      jump\t// in\n    tag_277:\n        /* \"#utility.yul\":10726:10825   */\n      swap1\n      pop\n        /* \"#utility.yul\":10845:10850   */\n      dup1\n        /* \"#utility.yul\":10874:10880   */\n      dup4\n        /* \"#utility.yul\":10867:10872   */\n      dup3\n        /* \"#utility.yul\":10860:10881   */\n      mstore\n        /* \"#utility.yul\":10908:10912   */\n      0x20\n        /* \"#utility.yul\":10901:10906   */\n      dup3\n        /* \"#utility.yul\":10897:10913   */\n      add\n        /* \"#utility.yul\":10890:10913   */\n      swap1\n      pop\n        /* \"#utility.yul\":10961:10965   */\n      0x20\n        /* \"#utility.yul\":10953:10959   */\n      dup5\n        /* \"#utility.yul\":10949:10966   */\n      mul\n        /* \"#utility.yul\":10941:10947   */\n      dup4\n        /* \"#utility.yul\":10937:10967   */\n      add\n        /* \"#utility.yul\":10990:10993   */\n      dup6\n        /* \"#utility.yul\":10982:10988   */\n      dup2\n        /* \"#utility.yul\":10979:10994   */\n      gt\n        /* \"#utility.yul\":10976:11098   */\n      iszero\n      tag_279\n      jumpi\n        /* \"#utility.yul\":11009:11088   */\n      tag_280\n      tag_114\n      jump\t// in\n    tag_280:\n        /* \"#utility.yul\":10976:11098   */\n    tag_279:\n        /* \"#utility.yul\":11124:11130   */\n      dup4\n        /* \"#utility.yul\":11107:11541   */\n    tag_281:\n        /* \"#utility.yul\":11141:11147   */\n      dup2\n        /* \"#utility.yul\":11136:11139   */\n      dup2\n        /* \"#utility.yul\":11133:11148   */\n      lt\n        /* \"#utility.yul\":11107:11541   */\n      iszero\n      tag_283\n      jumpi\n        /* \"#utility.yul\":11230:11233   */\n      dup1\n        /* \"#utility.yul\":11217:11234   */\n      calldataload\n        /* \"#utility.yul\":11266:11284   */\n      0xffffffffffffffff\n        /* \"#utility.yul\":11253:11264   */\n      dup2\n        /* \"#utility.yul\":11250:11285   */\n      gt\n        /* \"#utility.yul\":11247:11369   */\n      iszero\n      tag_284\n      jumpi\n        /* \"#utility.yul\":11288:11367   */\n      tag_285\n      tag_112\n      jump\t// in\n    tag_285:\n        /* \"#utility.yul\":11247:11369   */\n    tag_284:\n        /* \"#utility.yul\":11412:11423   */\n      dup1\n        /* \"#utility.yul\":11404:11410   */\n      dup7\n        /* \"#utility.yul\":11400:11424   */\n      add\n        /* \"#utility.yul\":11450:11496   */\n      tag_286\n        /* \"#utility.yul\":11492:11495   */\n      dup10\n        /* \"#utility.yul\":11480:11490   */\n      dup3\n        /* \"#utility.yul\":11450:11496   */\n      tag_126\n      jump\t// in\n    tag_286:\n        /* \"#utility.yul\":11445:11448   */\n      dup6\n        /* \"#utility.yul\":11438:11497   */\n      mstore\n        /* \"#utility.yul\":11526:11530   */\n      0x20\n        /* \"#utility.yul\":11521:11524   */\n      dup6\n        /* \"#utility.yul\":11517:11531   */\n      add\n        /* \"#utility.yul\":11510:11531   */\n      swap5\n      pop\n        /* \"#utility.yul\":11183:11541   */\n      pop\n      pop\n        /* \"#utility.yul\":11167:11171   */\n      0x20\n        /* \"#utility.yul\":11162:11165   */\n      dup2\n        /* \"#utility.yul\":11158:11172   */\n      add\n        /* \"#utility.yul\":11151:11172   */\n      swap1\n      pop\n        /* \"#utility.yul\":11107:11541   */\n      jump(tag_281)\n    tag_283:\n        /* \"#utility.yul\":11111:11132   */\n      pop\n        /* \"#utility.yul\":10716:11547   */\n      pop\n      pop\n        /* \"#utility.yul\":10605:11547   */\n      swap4\n      swap3\n      pop\n      pop\n      pop\n      jump\t// out\n        /* \"#utility.yul\":11568:11956   */\n    tag_135:\n        /* \"#utility.yul\":11648:11653   */\n      0x00\n        /* \"#utility.yul\":11697:11700   */\n      dup3\n        /* \"#utility.yul\":11690:11694   */\n      0x1f\n        /* \"#utility.yul\":11682:11688   */\n      dup4\n        /* \"#utility.yul\":11678:11695   */\n      add\n        /* \"#utility.yul\":11674:11701   */\n      slt\n        /* \"#utility.yul\":11664:11786   */\n      tag_288\n      jumpi\n        /* \"#utility.yul\":11705:11784   */\n      tag_289\n      tag_112\n      jump\t// in\n    tag_289:\n        /* \"#utility.yul\":11664:11786   */\n    tag_288:\n        /* \"#utility.yul\":11822:11828   */\n      dup2\n        /* \"#utility.yul\":11809:11829   */\n      calldataload\n        /* \"#utility.yul\":11847:11950   */\n      tag_290\n        /* \"#utility.yul\":11946:11949   */\n      dup5\n        /* \"#utility.yul\":11938:11944   */\n      dup3\n        /* \"#utility.yul\":11931:11935   */\n      0x20\n        /* \"#utility.yul\":11923:11929   */\n      dup7\n        /* \"#utility.yul\":11919:11936   */\n      add\n        /* \"#utility.yul\":11847:11950   */\n      tag_134\n      jump\t// in\n    tag_290:\n        /* \"#utility.yul\":11838:11950   */\n      swap2\n      pop\n        /* \"#utility.yul\":11654:11956   */\n      pop\n        /* \"#utility.yul\":11568:11956   */\n      swap3\n      swap2\n      pop\n      pop\n      jump\t// out\n        /* \"#utility.yul\":11962:12874   */\n    tag_46:\n        /* \"#utility.yul\":12089:12095   */\n      0x00\n        /* \"#utility.yul\":12097:12103   */\n      0x00\n        /* \"#utility.yul\":12146:12148   */\n      0x40\n        /* \"#utility.yul\":12134:12143   */\n      dup4\n        /* \"#utility.yul\":12125:12132   */\n      dup6\n        /* \"#utility.yul\":12121:12144   */\n      sub\n        /* \"#utility.yul\":12117:12149   */\n      slt\n        /* \"#utility.yul\":12114:12233   */\n      iszero\n      tag_292\n      jumpi\n        /* \"#utility.yul\":12152:12231   */\n      tag_293\n      tag_104\n      jump\t// in\n    tag_293:\n        /* \"#utility.yul\":12114:12233   */\n    tag_292:\n        /* \"#utility.yul\":12300:12301   */\n      0x00\n        /* \"#utility.yul\":12289:12298   */\n      dup4\n        /* \"#utility.yul\":12285:12302   */\n      add\n        /* \"#utility.yul\":12272:12303   */\n      calldataload\n        /* \"#utility.yul\":12330:12348   */\n      0xffffffffffffffff\n        /* \"#utility.yul\":12322:12328   */\n      dup2\n        /* \"#utility.yul\":12319:12349   */\n      gt\n        /* \"#utility.yul\":12316:12433   */\n      iszero\n      tag_294\n      jumpi\n        /* \"#utility.yul\":12352:12431   */\n      tag_295\n      tag_105\n      jump\t// in\n    tag_295:\n        /* \"#utility.yul\":12316:12433   */\n    tag_294:\n        /* \"#utility.yul\":12457:12535   */\n      tag_296\n        /* \"#utility.yul\":12527:12534   */\n      dup6\n        /* \"#utility.yul\":12518:12524   */\n      dup3\n        /* \"#utility.yul\":12507:12516   */\n      dup7\n        /* \"#utility.yul\":12503:12525   */\n      add\n        /* \"#utility.yul\":12457:12535   */\n      tag_132\n      jump\t// in\n    tag_296:\n        /* \"#utility.yul\":12447:12535   */\n      swap3\n      pop\n        /* \"#utility.yul\":12243:12545   */\n      pop\n        /* \"#utility.yul\":12612:12614   */\n      0x20\n        /* \"#utility.yul\":12601:12610   */\n      dup4\n        /* \"#utility.yul\":12597:12615   */\n      add\n        /* \"#utility.yul\":12584:12616   */\n      calldataload\n        /* \"#utility.yul\":12643:12661   */\n      0xffffffffffffffff\n        /* \"#utility.yul\":12635:12641   */\n      dup2\n        /* \"#utility.yul\":12632:12662   */\n      gt\n        /* \"#utility.yul\":12629:12746   */\n      iszero\n      tag_297\n      jumpi\n        /* \"#utility.yul\":12665:12744   */\n      tag_298\n      tag_105\n      jump\t// in\n    tag_298:\n        /* \"#utility.yul\":12629:12746   */\n    tag_297:\n        /* \"#utility.yul\":12770:12857   */\n      tag_299\n        /* \"#utility.yul\":12849:12856   */\n      dup6\n        /* \"#utility.yul\":12840:12846   */\n      dup3\n        /* \"#utility.yul\":12829:12838   */\n      dup7\n        /* \"#utility.yul\":12825:12847   */\n      add\n        /* \"#utility.yul\":12770:12857   */\n      tag_135\n      jump\t// in\n    tag_299:\n        /* \"#utility.yul\":12760:12857   */\n      swap2\n      pop\n        /* \"#utility.yul\":12555:12867   */\n      pop\n        /* \"#utility.yul\":11962:12874   */\n      swap3\n      pop\n      swap3\n      swap1\n      pop\n      jump\t// out\n        /* \"#utility.yul\":12880:13060   */\n    tag_52:\n        /* \"#utility.yul\":12928:13005   */\n      0x4e487b7100000000000000000000000000000000000000000000000000000000\n        /* \"#utility.yul\":12925:12926   */\n      0x00\n        /* \"#utility.yul\":12918:13006   */\n      mstore\n        /* \"#utility.yul\":13025:13029   */\n      0x32\n        /* \"#utility.yul\":13022:13023   */\n      0x04\n        /* \"#utility.yul\":13015:13030   */\n      mstore\n        /* \"#utility.yul\":13049:13053   */\n      0x24\n        /* \"#utility.yul\":13046:13047   */\n      0x00\n        /* \"#utility.yul\":13039:13054   */\n      revert\n        /* \"#utility.yul\":13066:13164   */\n    tag_136:\n        /* \"#utility.yul\":13117:13123   */\n      0x00\n        /* \"#utility.yul\":13151:13156   */\n      dup2\n        /* \"#utility.yul\":13145:13157   */\n      mload\n        /* \"#utility.yul\":13135:13157   */\n      swap1\n      pop\n        /* \"#utility.yul\":13066:13164   */\n      swap2\n      swap1\n      pop\n      jump\t// out\n        /* \"#utility.yul\":13170:13317   */\n    tag_137:\n        /* \"#utility.yul\":13271:13282   */\n      0x00\n        /* \"#utility.yul\":13308:13311   */\n      dup2\n        /* \"#utility.yul\":13293:13311   */\n      swap1\n      pop\n        /* \"#utility.yul\":13170:13317   */\n      swap3\n      swap2\n      pop\n      pop\n      jump\t// out\n        /* \"#utility.yul\":13323:13462   */\n    tag_138:\n        /* \"#utility.yul\":13412:13418   */\n      dup3\n        /* \"#utility.yul\":13407:13410   */\n      dup2\n        /* \"#utility.yul\":13402:13405   */\n      dup4\n        /* \"#utility.yul\":13396:13419   */\n      mcopy\n        /* \"#utility.yul\":13453:13454   */\n      0x00\n        /* \"#utility.yul\":13444:13450   */\n      dup4\n        /* \"#utility.yul\":13439:13442   */\n      dup4\n        /* \"#utility.yul\":13435:13451   */\n      add\n        /* \"#utility.yul\":13428:13455   */\n      mstore\n        /* \"#utility.yul\":13323:13462   */\n      pop\n      pop\n      pop\n      jump\t// out\n        /* \"#utility.yul\":13468:13854   */\n    tag_139:\n        /* \"#utility.yul\":13572:13575   */\n      0x00\n        /* \"#utility.yul\":13600:13638   */\n      tag_305\n        /* \"#utility.yul\":13632:13637   */\n      dup3\n        /* \"#utility.yul\":13600:13638   */\n      tag_136\n      jump\t// in\n    tag_305:\n        /* \"#utility.yul\":13654:13742   */\n      tag_306\n        /* \"#utility.yul\":13735:13741   */\n      dup2\n        /* \"#utility.yul\":13730:13733   */\n      dup6\n        /* \"#utility.yul\":13654:13742   */\n      tag_137\n      jump\t// in\n    tag_306:\n        /* \"#utility.yul\":13647:13742   */\n      swap4\n      pop\n        /* \"#utility.yul\":13751:13816   */\n      tag_307\n        /* \"#utility.yul\":13809:13815   */\n      dup2\n        /* \"#utility.yul\":13804:13807   */\n      dup6\n        /* \"#utility.yul\":13797:13801   */\n      0x20\n        /* \"#utility.yul\":13790:13795   */\n      dup7\n        /* \"#utility.yul\":13786:13802   */\n      add\n        /* \"#utility.yul\":13751:13816   */\n      tag_138\n      jump\t// in\n    tag_307:\n        /* \"#utility.yul\":13841:13847   */\n      dup1\n        /* \"#utility.yul\":13836:13839   */\n      dup5\n        /* \"#utility.yul\":13832:13848   */\n      add\n        /* \"#utility.yul\":13825:13848   */\n      swap2\n      pop\n        /* \"#utility.yul\":13576:13854   */\n      pop\n        /* \"#utility.yul\":13468:13854   */\n      swap3\n      swap2\n      pop\n      pop\n      jump\t// out\n        /* \"#utility.yul\":13860:14131   */\n    tag_56:\n        /* \"#utility.yul\":13990:13993   */\n      0x00\n        /* \"#utility.yul\":14012:14105   */\n      tag_309\n        /* \"#utility.yul\":14101:14104   */\n      dup3\n        /* \"#utility.yul\":14092:14098   */\n      dup5\n        /* \"#utility.yul\":14012:14105   */\n      tag_139\n      jump\t// in\n    tag_309:\n        /* \"#utility.yul\":14005:14105   */\n      swap2\n      pop\n        /* \"#utility.yul\":14122:14125   */\n      dup2\n        /* \"#utility.yul\":14115:14125   */\n      swap1\n      pop\n        /* \"#utility.yul\":13860:14131   */\n      swap3\n      swap2\n      pop\n      pop\n      jump\t// out\n        /* \"#utility.yul\":14137:14306   */\n    tag_140:\n        /* \"#utility.yul\":14221:14232   */\n      0x00\n        /* \"#utility.yul\":14255:14261   */\n      dup3\n        /* \"#utility.yul\":14250:14253   */\n      dup3\n        /* \"#utility.yul\":14243:14262   */\n      mstore\n        /* \"#utility.yul\":14295:14299   */\n      0x20\n        /* \"#utility.yul\":14290:14293   */\n      dup3\n        /* \"#utility.yul\":14286:14300   */\n      add\n        /* \"#utility.yul\":14271:14300   */\n      swap1\n      pop\n        /* \"#utility.yul\":14137:14306   */\n      swap3\n      swap2\n      pop\n      pop\n      jump\t// out\n        /* \"#utility.yul\":14312:14488   */\n    tag_141:\n        /* \"#utility.yul\":14452:14480   */\n      0x417262697472616765206f7065726174696f6e206661696c6564000000000000\n        /* \"#utility.yul\":14448:14449   */\n      0x00\n        /* \"#utility.yul\":14440:14446   */\n      dup3\n        /* \"#utility.yul\":14436:14450   */\n      add\n        /* \"#utility.yul\":14429:14481   */\n      mstore\n        /* \"#utility.yul\":14312:14488   */\n      pop\n      jump\t// out\n        /* \"#utility.yul\":14494:14860   */\n    tag_142:\n        /* \"#utility.yul\":14636:14639   */\n      0x00\n        /* \"#utility.yul\":14657:14724   */\n      tag_313\n        /* \"#utility.yul\":14721:14723   */\n      0x1a\n        /* \"#utility.yul\":14716:14719   */\n      dup4\n        /* \"#utility.yul\":14657:14724   */\n      tag_140\n      jump\t// in\n    tag_313:\n        /* \"#utility.yul\":14650:14724   */\n      swap2\n      pop\n        /* \"#utility.yul\":14733:14826   */\n      tag_314\n        /* \"#utility.yul\":14822:14825   */\n      dup3\n        /* \"#utility.yul\":14733:14826   */\n      tag_141\n      jump\t// in\n    tag_314:\n        /* \"#utility.yul\":14851:14853   */\n      0x20\n        /* \"#utility.yul\":14846:14849   */\n      dup3\n        /* \"#utility.yul\":14842:14854   */\n      add\n        /* \"#utility.yul\":14835:14854   */\n      swap1\n      pop\n        /* \"#utility.yul\":14494:14860   */\n      swap2\n      swap1\n      pop\n      jump\t// out\n        /* \"#utility.yul\":14866:15285   */\n    tag_62:\n        /* \"#utility.yul\":15032:15036   */\n      0x00\n        /* \"#utility.yul\":15070:15072   */\n      0x20\n        /* \"#utility.yul\":15059:15068   */\n      dup3\n        /* \"#utility.yul\":15055:15073   */\n      add\n        /* \"#utility.yul\":15047:15073   */\n      swap1\n      pop\n        /* \"#utility.yul\":15119:15128   */\n      dup2\n        /* \"#utility.yul\":15113:15117   */\n      dup2\n        /* \"#utility.yul\":15109:15129   */\n      sub\n        /* \"#utility.yul\":15105:15106   */\n      0x00\n        /* \"#utility.yul\":15094:15103   */\n      dup4\n        /* \"#utility.yul\":15090:15107   */\n      add\n        /* \"#utility.yul\":15083:15130   */\n      mstore\n        /* \"#utility.yul\":15147:15278   */\n      tag_316\n        /* \"#utility.yul\":15273:15277   */\n      dup2\n        /* \"#utility.yul\":15147:15278   */\n      tag_142\n      jump\t// in\n    tag_316:\n        /* \"#utility.yul\":15139:15278   */\n      swap1\n      pop\n        /* \"#utility.yul\":14866:15285   */\n      swap2\n      swap1\n      pop\n      jump\t// out\n        /* \"#utility.yul\":15291:15471   */\n    tag_143:\n        /* \"#utility.yul\":15339:15416   */\n      0x4e487b7100000000000000000000000000000000000000000000000000000000\n        /* \"#utility.yul\":15336:15337   */\n      0x00\n        /* \"#utility.yul\":15329:15417   */\n      mstore\n        /* \"#utility.yul\":15436:15440   */\n      0x11\n        /* \"#utility.yul\":15433:15434   */\n      0x04\n        /* \"#utility.yul\":15426:15441   */\n      mstore\n        /* \"#utility.yul\":15460:15464   */\n      0x24\n        /* \"#utility.yul\":15457:15458   */\n      0x00\n        /* \"#utility.yul\":15450:15465   */\n      revert\n        /* \"#utility.yul\":15477:15668   */\n    tag_64:\n        /* \"#utility.yul\":15517:15520   */\n      0x00\n        /* \"#utility.yul\":15536:15556   */\n      tag_319\n        /* \"#utility.yul\":15554:15555   */\n      dup3\n        /* \"#utility.yul\":15536:15556   */\n      tag_109\n      jump\t// in\n    tag_319:\n        /* \"#utility.yul\":15531:15556   */\n      swap2\n      pop\n        /* \"#utility.yul\":15570:15590   */\n      tag_320\n        /* \"#utility.yul\":15588:15589   */\n      dup4\n        /* \"#utility.yul\":15570:15590   */\n      tag_109\n      jump\t// in\n    tag_320:\n        /* \"#utility.yul\":15565:15590   */\n      swap3\n      pop\n        /* \"#utility.yul\":15613:15614   */\n      dup3\n        /* \"#utility.yul\":15610:15611   */\n      dup3\n        /* \"#utility.yul\":15606:15615   */\n      add\n        /* \"#utility.yul\":15599:15615   */\n      swap1\n      pop\n        /* \"#utility.yul\":15634:15637   */\n      dup1\n        /* \"#utility.yul\":15631:15632   */\n      dup3\n        /* \"#utility.yul\":15628:15638   */\n      gt\n        /* \"#utility.yul\":15625:15661   */\n      iszero\n      tag_321\n      jumpi\n        /* \"#utility.yul\":15641:15659   */\n      tag_322\n      tag_143\n      jump\t// in\n    tag_322:\n        /* \"#utility.yul\":15625:15661   */\n    tag_321:\n        /* \"#utility.yul\":15477:15668   */\n      swap3\n      swap2\n      pop\n      pop\n      jump\t// out\n        /* \"#utility.yul\":15674:15792   */\n    tag_144:\n        /* \"#utility.yul\":15761:15785   */\n      tag_324\n        /* \"#utility.yul\":15779:15784   */\n      dup2\n        /* \"#utility.yul\":15761:15785   */\n      tag_106\n      jump\t// in\n    tag_324:\n        /* \"#utility.yul\":15756:15759   */\n      dup3\n        /* \"#utility.yul\":15749:15786   */\n      mstore\n        /* \"#utility.yul\":15674:15792   */\n      pop\n      pop\n      jump\t// out\n        /* \"#utility.yul\":15798:16130   */\n    tag_66:\n        /* \"#utility.yul\":15919:15923   */\n      0x00\n        /* \"#utility.yul\":15957:15959   */\n      0x40\n        /* \"#utility.yul\":15946:15955   */\n      dup3\n        /* \"#utility.yul\":15942:15960   */\n      add\n        /* \"#utility.yul\":15934:15960   */\n      swap1\n      pop\n        /* \"#utility.yul\":15970:16041   */\n      tag_326\n        /* \"#utility.yul\":16038:16039   */\n      0x00\n        /* \"#utility.yul\":16027:16036   */\n      dup4\n        /* \"#utility.yul\":16023:16040   */\n      add\n        /* \"#utility.yul\":16014:16020   */\n      dup6\n        /* \"#utility.yul\":15970:16041   */\n      tag_144\n      jump\t// in\n    tag_326:\n        /* \"#utility.yul\":16051:16123   */\n      tag_327\n        /* \"#utility.yul\":16119:16121   */\n      0x20\n        /* \"#utility.yul\":16108:16117   */\n      dup4\n        /* \"#utility.yul\":16104:16122   */\n      add\n        /* \"#utility.yul\":16095:16101   */\n      dup5\n        /* \"#utility.yul\":16051:16123   */\n      tag_129\n      jump\t// in\n    tag_327:\n        /* \"#utility.yul\":15798:16130   */\n      swap4\n      swap3\n      pop\n      pop\n      pop\n      jump\t// out\n        /* \"#utility.yul\":16136:16252   */\n    tag_145:\n        /* \"#utility.yul\":16206:16227   */\n      tag_329\n        /* \"#utility.yul\":16221:16226   */\n      dup2\n        /* \"#utility.yul\":16206:16227   */\n      tag_116\n      jump\t// in\n    tag_329:\n        /* \"#utility.yul\":16199:16204   */\n      dup2\n        /* \"#utility.yul\":16196:16228   */\n      eq\n        /* \"#utility.yul\":16186:16246   */\n      tag_330\n      jumpi\n        /* \"#utility.yul\":16242:16243   */\n      0x00\n        /* \"#utility.yul\":16239:16240   */\n      0x00\n        /* \"#utility.yul\":16232:16244   */\n      revert\n        /* \"#utility.yul\":16186:16246   */\n    tag_330:\n        /* \"#utility.yul\":16136:16252   */\n      pop\n      jump\t// out\n        /* \"#utility.yul\":16258:16395   */\n    tag_146:\n        /* \"#utility.yul\":16312:16317   */\n      0x00\n        /* \"#utility.yul\":16343:16349   */\n      dup2\n        /* \"#utility.yul\":16337:16350   */\n      mload\n        /* \"#utility.yul\":16328:16350   */\n      swap1\n      pop\n        /* \"#utility.yul\":16359:16389   */\n      tag_332\n        /* \"#utility.yul\":16383:16388   */\n      dup2\n        /* \"#utility.yul\":16359:16389   */\n      tag_145\n      jump\t// in\n    tag_332:\n        /* \"#utility.yul\":16258:16395   */\n      swap3\n      swap2\n      pop\n      pop\n      jump\t// out\n        /* \"#utility.yul\":16401:16746   */\n    tag_70:\n        /* \"#utility.yul\":16468:16474   */\n      0x00\n        /* \"#utility.yul\":16517:16519   */\n      0x20\n        /* \"#utility.yul\":16505:16514   */\n      dup3\n        /* \"#utility.yul\":16496:16503   */\n      dup5\n        /* \"#utility.yul\":16492:16515   */\n      sub\n        /* \"#utility.yul\":16488:16520   */\n      slt\n        /* \"#utility.yul\":16485:16604   */\n      iszero\n      tag_334\n      jumpi\n        /* \"#utility.yul\":16523:16602   */\n      tag_335\n      tag_104\n      jump\t// in\n    tag_335:\n        /* \"#utility.yul\":16485:16604   */\n    tag_334:\n        /* \"#utility.yul\":16643:16644   */\n      0x00\n        /* \"#utility.yul\":16668:16729   */\n      tag_336\n        /* \"#utility.yul\":16721:16728   */\n      dup5\n        /* \"#utility.yul\":16712:16718   */\n      dup3\n        /* \"#utility.yul\":16701:16710   */\n      dup6\n        /* \"#utility.yul\":16697:16719   */\n      add\n        /* \"#utility.yul\":16668:16729   */\n      tag_146\n      jump\t// in\n    tag_336:\n        /* \"#utility.yul\":16658:16729   */\n      swap2\n      pop\n        /* \"#utility.yul\":16614:16739   */\n      pop\n        /* \"#utility.yul\":16401:16746   */\n      swap3\n      swap2\n      pop\n      pop\n      jump\t// out\n        /* \"#utility.yul\":16752:16920   */\n    tag_147:\n        /* \"#utility.yul\":16835:16846   */\n      0x00\n        /* \"#utility.yul\":16869:16875   */\n      dup3\n        /* \"#utility.yul\":16864:16867   */\n      dup3\n        /* \"#utility.yul\":16857:16876   */\n      mstore\n        /* \"#utility.yul\":16909:16913   */\n      0x20\n        /* \"#utility.yul\":16904:16907   */\n      dup3\n        /* \"#utility.yul\":16900:16914   */\n      add\n        /* \"#utility.yul\":16885:16914   */\n      swap1\n      pop\n        /* \"#utility.yul\":16752:16920   */\n      swap3\n      swap2\n      pop\n      pop\n      jump\t// out\n        /* \"#utility.yul\":16926:17299   */\n    tag_148:\n        /* \"#utility.yul\":17012:17015   */\n      0x00\n        /* \"#utility.yul\":17040:17078   */\n      tag_339\n        /* \"#utility.yul\":17072:17077   */\n      dup3\n        /* \"#utility.yul\":17040:17078   */\n      tag_136\n      jump\t// in\n    tag_339:\n        /* \"#utility.yul\":17094:17164   */\n      tag_340\n        /* \"#utility.yul\":17157:17163   */\n      dup2\n        /* \"#utility.yul\":17152:17155   */\n      dup6\n        /* \"#utility.yul\":17094:17164   */\n      tag_147\n      jump\t// in\n    tag_340:\n        /* \"#utility.yul\":17087:17164   */\n      swap4\n      pop\n        /* \"#utility.yul\":17173:17238   */\n      tag_341\n        /* \"#utility.yul\":17231:17237   */\n      dup2\n        /* \"#utility.yul\":17226:17229   */\n      dup6\n        /* \"#utility.yul\":17219:17223   */\n      0x20\n        /* \"#utility.yul\":17212:17217   */\n      dup7\n        /* \"#utility.yul\":17208:17224   */\n      add\n        /* \"#utility.yul\":17173:17238   */\n      tag_138\n      jump\t// in\n    tag_341:\n        /* \"#utility.yul\":17263:17292   */\n      tag_342\n        /* \"#utility.yul\":17285:17291   */\n      dup2\n        /* \"#utility.yul\":17263:17292   */\n      tag_119\n      jump\t// in\n    tag_342:\n        /* \"#utility.yul\":17258:17261   */\n      dup5\n        /* \"#utility.yul\":17254:17293   */\n      add\n        /* \"#utility.yul\":17247:17293   */\n      swap2\n      pop\n        /* \"#utility.yul\":17016:17299   */\n      pop\n        /* \"#utility.yul\":16926:17299   */\n      swap3\n      swap2\n      pop\n      pop\n      jump\t// out\n        /* \"#utility.yul\":17305:17394   */\n    tag_149:\n        /* \"#utility.yul\":17341:17348   */\n      0x00\n        /* \"#utility.yul\":17381:17387   */\n      0xffff\n        /* \"#utility.yul\":17374:17379   */\n      dup3\n        /* \"#utility.yul\":17370:17388   */\n      and\n        /* \"#utility.yul\":17359:17388   */\n      swap1\n      pop\n        /* \"#utility.yul\":17305:17394   */\n      swap2\n      swap1\n      pop\n      jump\t// out\n        /* \"#utility.yul\":17400:17515   */\n    tag_150:\n        /* \"#utility.yul\":17485:17508   */\n      tag_345\n        /* \"#utility.yul\":17502:17507   */\n      dup2\n        /* \"#utility.yul\":17485:17508   */\n      tag_149\n      jump\t// in\n    tag_345:\n        /* \"#utility.yul\":17480:17483   */\n      dup3\n        /* \"#utility.yul\":17473:17509   */\n      mstore\n        /* \"#utility.yul\":17400:17515   */\n      pop\n      pop\n      jump\t// out\n        /* \"#utility.yul\":17521:18268   */\n    tag_73:\n        /* \"#utility.yul\":17742:17746   */\n      0x00\n        /* \"#utility.yul\":17780:17783   */\n      0xa0\n        /* \"#utility.yul\":17769:17778   */\n      dup3\n        /* \"#utility.yul\":17765:17784   */\n      add\n        /* \"#utility.yul\":17757:17784   */\n      swap1\n      pop\n        /* \"#utility.yul\":17794:17865   */\n      tag_347\n        /* \"#utility.yul\":17862:17863   */\n      0x00\n        /* \"#utility.yul\":17851:17860   */\n      dup4\n        /* \"#utility.yul\":17847:17864   */\n      add\n        /* \"#utility.yul\":17838:17844   */\n      dup9\n        /* \"#utility.yul\":17794:17865   */\n      tag_144\n      jump\t// in\n    tag_347:\n        /* \"#utility.yul\":17875:17947   */\n      tag_348\n        /* \"#utility.yul\":17943:17945   */\n      0x20\n        /* \"#utility.yul\":17932:17941   */\n      dup4\n        /* \"#utility.yul\":17928:17946   */\n      add\n        /* \"#utility.yul\":17919:17925   */\n      dup8\n        /* \"#utility.yul\":17875:17947   */\n      tag_144\n      jump\t// in\n    tag_348:\n        /* \"#utility.yul\":17957:18029   */\n      tag_349\n        /* \"#utility.yul\":18025:18027   */\n      0x40\n        /* \"#utility.yul\":18014:18023   */\n      dup4\n        /* \"#utility.yul\":18010:18028   */\n      add\n        /* \"#utility.yul\":18001:18007   */\n      dup7\n        /* \"#utility.yul\":17957:18029   */\n      tag_129\n      jump\t// in\n    tag_349:\n        /* \"#utility.yul\":18076:18085   */\n      dup2\n        /* \"#utility.yul\":18070:18074   */\n      dup2\n        /* \"#utility.yul\":18066:18086   */\n      sub\n        /* \"#utility.yul\":18061:18063   */\n      0x60\n        /* \"#utility.yul\":18050:18059   */\n      dup4\n        /* \"#utility.yul\":18046:18064   */\n      add\n        /* \"#utility.yul\":18039:18087   */\n      mstore\n        /* \"#utility.yul\":18104:18180   */\n      tag_350\n        /* \"#utility.yul\":18175:18179   */\n      dup2\n        /* \"#utility.yul\":18166:18172   */\n      dup6\n        /* \"#utility.yul\":18104:18180   */\n      tag_148\n      jump\t// in\n    tag_350:\n        /* \"#utility.yul\":18096:18180   */\n      swap1\n      pop\n        /* \"#utility.yul\":18190:18261   */\n      tag_351\n        /* \"#utility.yul\":18256:18259   */\n      0x80\n        /* \"#utility.yul\":18245:18254   */\n      dup4\n        /* \"#utility.yul\":18241:18260   */\n      add\n        /* \"#utility.yul\":18232:18238   */\n      dup5\n        /* \"#utility.yul\":18190:18261   */\n      tag_150\n      jump\t// in\n    tag_351:\n        /* \"#utility.yul\":17521:18268   */\n      swap7\n      swap6\n      pop\n      pop\n      pop\n      pop\n      pop\n      pop\n      jump\t// out\n        /* \"#utility.yul\":18274:18456   */\n    tag_151:\n        /* \"#utility.yul\":18414:18448   */\n      0x4f776e61626c653a2063616c6c6572206973206e6f7420746865206f776e6572\n        /* \"#utility.yul\":18410:18411   */\n      0x00\n        /* \"#utility.yul\":18402:18408   */\n      dup3\n        /* \"#utility.yul\":18398:18412   */\n      add\n        /* \"#utility.yul\":18391:18449   */\n      mstore\n        /* \"#utility.yul\":18274:18456   */\n      pop\n      jump\t// out\n        /* \"#utility.yul\":18462:18828   */\n    tag_152:\n        /* \"#utility.yul\":18604:18607   */\n      0x00\n        /* \"#utility.yul\":18625:18692   */\n      tag_354\n        /* \"#utility.yul\":18689:18691   */\n      0x20\n        /* \"#utility.yul\":18684:18687   */\n      dup4\n        /* \"#utility.yul\":18625:18692   */\n      tag_140\n      jump\t// in\n    tag_354:\n        /* \"#utility.yul\":18618:18692   */\n      swap2\n      pop\n        /* \"#utility.yul\":18701:18794   */\n      tag_355\n        /* \"#utility.yul\":18790:18793   */\n      dup3\n        /* \"#utility.yul\":18701:18794   */\n      tag_151\n      jump\t// in\n    tag_355:\n        /* \"#utility.yul\":18819:18821   */\n      0x20\n        /* \"#utility.yul\":18814:18817   */\n      dup3\n        /* \"#utility.yul\":18810:18822   */\n      add\n        /* \"#utility.yul\":18803:18822   */\n      swap1\n      pop\n        /* \"#utility.yul\":18462:18828   */\n      swap2\n      swap1\n      pop\n      jump\t// out\n        /* \"#utility.yul\":18834:19253   */\n    tag_80:\n        /* \"#utility.yul\":19000:19004   */\n      0x00\n        /* \"#utility.yul\":19038:19040   */\n      0x20\n        /* \"#utility.yul\":19027:19036   */\n      dup3\n        /* \"#utility.yul\":19023:19041   */\n      add\n        /* \"#utility.yul\":19015:19041   */\n      swap1\n      pop\n        /* \"#utility.yul\":19087:19096   */\n      dup2\n        /* \"#utility.yul\":19081:19085   */\n      dup2\n        /* \"#utility.yul\":19077:19097   */\n      sub\n        /* \"#utility.yul\":19073:19074   */\n      0x00\n        /* \"#utility.yul\":19062:19071   */\n      dup4\n        /* \"#utility.yul\":19058:19075   */\n      add\n        /* \"#utility.yul\":19051:19098   */\n      mstore\n        /* \"#utility.yul\":19115:19246   */\n      tag_357\n        /* \"#utility.yul\":19241:19245   */\n      dup2\n        /* \"#utility.yul\":19115:19246   */\n      tag_152\n      jump\t// in\n    tag_357:\n        /* \"#utility.yul\":19107:19246   */\n      swap1\n      pop\n        /* \"#utility.yul\":18834:19253   */\n      swap2\n      swap1\n      pop\n      jump\t// out\n        /* \"#utility.yul\":19259:19481   */\n    tag_83:\n        /* \"#utility.yul\":19352:19356   */\n      0x00\n        /* \"#utility.yul\":19390:19392   */\n      0x20\n        /* \"#utility.yul\":19379:19388   */\n      dup3\n        /* \"#utility.yul\":19375:19393   */\n      add\n        /* \"#utility.yul\":19367:19393   */\n      swap1\n      pop\n        /* \"#utility.yul\":19403:19474   */\n      tag_359\n        /* \"#utility.yul\":19471:19472   */\n      0x00\n        /* \"#utility.yul\":19460:19469   */\n      dup4\n        /* \"#utility.yul\":19456:19473   */\n      add\n        /* \"#utility.yul\":19447:19453   */\n      dup5\n        /* \"#utility.yul\":19403:19474   */\n      tag_144\n      jump\t// in\n    tag_359:\n        /* \"#utility.yul\":19259:19481   */\n      swap3\n      swap2\n      pop\n      pop\n      jump\t// out\n        /* \"#utility.yul\":19487:19630   */\n    tag_153:\n        /* \"#utility.yul\":19544:19549   */\n      0x00\n        /* \"#utility.yul\":19575:19581   */\n      dup2\n        /* \"#utility.yul\":19569:19582   */\n      mload\n        /* \"#utility.yul\":19560:19582   */\n      swap1\n      pop\n        /* \"#utility.yul\":19591:19624   */\n      tag_361\n        /* \"#utility.yul\":19618:19623   */\n      dup2\n        /* \"#utility.yul\":19591:19624   */\n      tag_110\n      jump\t// in\n    tag_361:\n        /* \"#utility.yul\":19487:19630   */\n      swap3\n      swap2\n      pop\n      pop\n      jump\t// out\n        /* \"#utility.yul\":19636:19987   */\n    tag_87:\n        /* \"#utility.yul\":19706:19712   */\n      0x00\n        /* \"#utility.yul\":19755:19757   */\n      0x20\n        /* \"#utility.yul\":19743:19752   */\n      dup3\n        /* \"#utility.yul\":19734:19741   */\n      dup5\n        /* \"#utility.yul\":19730:19753   */\n      sub\n        /* \"#utility.yul\":19726:19758   */\n      slt\n        /* \"#utility.yul\":19723:19842   */\n      iszero\n      tag_363\n      jumpi\n        /* \"#utility.yul\":19761:19840   */\n      tag_364\n      tag_104\n      jump\t// in\n    tag_364:\n        /* \"#utility.yul\":19723:19842   */\n    tag_363:\n        /* \"#utility.yul\":19881:19882   */\n      0x00\n        /* \"#utility.yul\":19906:19970   */\n      tag_365\n        /* \"#utility.yul\":19962:19969   */\n      dup5\n        /* \"#utility.yul\":19953:19959   */\n      dup3\n        /* \"#utility.yul\":19942:19951   */\n      dup6\n        /* \"#utility.yul\":19938:19960   */\n      add\n        /* \"#utility.yul\":19906:19970   */\n      tag_153\n      jump\t// in\n    tag_365:\n        /* \"#utility.yul\":19896:19970   */\n      swap2\n      pop\n        /* \"#utility.yul\":19852:19980   */\n      pop\n        /* \"#utility.yul\":19636:19987   */\n      swap3\n      swap2\n      pop\n      pop\n      jump\t// out\n\n    auxdata: 0xa26469706673582212209f917414e1d4e0441fff888ece2371b5eb8d310455ced55b79731b6b31c4a73464736f6c634300081b0033\n}\n",
				"bytecode": {
					"linkReferences": {},
					"object": "60c060405234801561000f575f5ffd5b5060405161134038038061134083398181016040528101906100319190610201565b808073ffffffffffffffffffffffffffffffffffffffff1660808173ffffffffffffffffffffffffffffffffffffffff16815250508073ffffffffffffffffffffffffffffffffffffffff1663026b1d5f6040518163ffffffff1660e01b8152600401602060405180830381865afa1580156100af573d5f5f3e3d5ffd5b505050506040513d601f19601f820116820180604052508101906100d39190610201565b73ffffffffffffffffffffffffffffffffffffffff1660a08173ffffffffffffffffffffffffffffffffffffffff168152505050335f5f6101000a81548173ffffffffffffffffffffffffffffffffffffffff021916908373ffffffffffffffffffffffffffffffffffffffff1602179055507f8ffcdc15a283d706d38281f500270d8b5a656918f555de0913d7455e3e6bc1bf5f5f9054906101000a900473ffffffffffffffffffffffffffffffffffffffff166040516101959190610287565b60405180910390a1506102a0565b5f5ffd5b5f73ffffffffffffffffffffffffffffffffffffffff82169050919050565b5f6101d0826101a7565b9050919050565b6101e0816101c6565b81146101ea575f5ffd5b50565b5f815190506101fb816101d7565b92915050565b5f60208284031215610216576102156101a3565b5b5f610223848285016101ed565b91505092915050565b5f819050919050565b5f61024f61024a610245846101a7565b61022c565b6101a7565b9050919050565b5f61026082610235565b9050919050565b5f61027182610256565b9050919050565b61028181610267565b82525050565b5f60208201905061029a5f830184610278565b92915050565b60805160a0516110716102cf5f395f81816102df0152818161038401526105a501525f61018101526110715ff3fe608060405260043610610058575f3560e01c80630542975c146100635780631b11d0ff1461008d5780635107d61e146100c957806351cff8d9146100f15780637535d24614610119578063f8b2cb4f146101435761005f565b3661005f57005b5f5ffd5b34801561006e575f5ffd5b5061007761017f565b60405161008491906106c1565b60405180910390f35b348015610098575f5ffd5b506100b360048036038101906100ae91906107ba565b6101a3565b6040516100c0919061086a565b60405180910390f35b3480156100d4575f5ffd5b506100ef60048036038101906100ea91906109bb565b61036e565b005b3480156100fc575f5ffd5b5061011760048036038101906101129190610a27565b61041a565b005b348015610124575f5ffd5b5061012d6105a3565b60405161013a9190610a72565b60405180910390f35b34801561014e575f5ffd5b5061016960048036038101906101649190610a27565b6105c7565b6040516101769190610a9a565b60405180910390f35b7f000000000000000000000000000000000000000000000000000000000000000081565b5f5f5f84848101906101b59190610c51565b915091505f5f90505b82518110156102b1575f8382815181106101db576101da610cc7565b5b602002602001015173ffffffffffffffffffffffffffffffffffffffff1683838151811061020c5761020b610cc7565b5b60200260200101516040516102219190610d46565b5f604051808303815f865af19150503d805f811461025a576040519150601f19603f3d011682016040523d82523d5f602084013e61025f565b606091505b50509050806102a3576040517f08c379a000000000000000000000000000000000000000000000000000000000815260040161029a90610db6565b60405180910390fd5b5080806001019150506101be565b505f87896102bf9190610e01565b90508973ffffffffffffffffffffffffffffffffffffffff1663095ea7b37f0000000000000000000000000000000000000000000000000000000000000000836040518363ffffffff1660e01b815260040161031c929190610e43565b6020604051808303815f875af1158015610338573d5f5f3e3d5ffd5b505050506040513d601f19601f8201168201806040525081019061035c9190610e94565b50600193505050509695505050505050565b5f3090505f8490505f8490505f8490505f5f90507f000000000000000000000000000000000000000000000000000000000000000073ffffffffffffffffffffffffffffffffffffffff166342b0b77c86868686866040518663ffffffff1660e01b81526004016103e3959493929190610f23565b5f604051808303815f87803b1580156103fa575f5ffd5b505af115801561040c573d5f5f3e3d5ffd5b505050505050505050505050565b5f5f9054906101000a900473ffffffffffffffffffffffffffffffffffffffff1673ffffffffffffffffffffffffffffffffffffffff163373ffffffffffffffffffffffffffffffffffffffff16146104a8576040517f08c379a000000000000000000000000000000000000000000000000000000000815260040161049f90610fc5565b60405180910390fd5b5f8190508073ffffffffffffffffffffffffffffffffffffffff1663a9059cbb338373ffffffffffffffffffffffffffffffffffffffff166370a08231306040518263ffffffff1660e01b81526004016105029190610fe3565b602060405180830381865afa15801561051d573d5f5f3e3d5ffd5b505050506040513d601f19601f820116820180604052508101906105419190611010565b6040518363ffffffff1660e01b815260040161055e929190610e43565b6020604051808303815f875af115801561057a573d5f5f3e3d5ffd5b505050506040513d601f19601f8201168201806040525081019061059e9190610e94565b505050565b7f000000000000000000000000000000000000000000000000000000000000000081565b5f8173ffffffffffffffffffffffffffffffffffffffff166370a08231306040518263ffffffff1660e01b81526004016106019190610fe3565b602060405180830381865afa15801561061c573d5f5f3e3d5ffd5b505050506040513d601f19601f820116820180604052508101906106409190611010565b9050919050565b5f73ffffffffffffffffffffffffffffffffffffffff82169050919050565b5f819050919050565b5f61068961068461067f84610647565b610666565b610647565b9050919050565b5f61069a8261066f565b9050919050565b5f6106ab82610690565b9050919050565b6106bb816106a1565b82525050565b5f6020820190506106d45f8301846106b2565b92915050565b5f604051905090565b5f5ffd5b5f5ffd5b5f6106f582610647565b9050919050565b610705816106eb565b811461070f575f5ffd5b50565b5f81359050610720816106fc565b92915050565b5f819050919050565b61073881610726565b8114610742575f5ffd5b50565b5f813590506107538161072f565b92915050565b5f5ffd5b5f5ffd5b5f5ffd5b5f5f83601f84011261077a57610779610759565b5b8235905067ffffffffffffffff8111156107975761079661075d565b5b6020830191508360018202830111156107b3576107b2610761565b5b9250929050565b5f5f5f5f5f5f60a087890312156107d4576107d36106e3565b5b5f6107e189828a01610712565b96505060206107f289828a01610745565b955050604061080389828a01610745565b945050606061081489828a01610712565b935050608087013567ffffffffffffffff811115610835576108346106e7565b5b61084189828a01610765565b92509250509295509295509295565b5f8115159050919050565b61086481610850565b82525050565b5f60208201905061087d5f83018461085b565b92915050565b5f5ffd5b5f601f19601f8301169050919050565b7f4e487b71000000000000000000000000000000000000000000000000000000005f52604160045260245ffd5b6108cd82610887565b810181811067ffffffffffffffff821117156108ec576108eb610897565b5b80604052505050565b5f6108fe6106da565b905061090a82826108c4565b919050565b5f67ffffffffffffffff82111561092957610928610897565b5b61093282610887565b9050602081019050919050565b828183375f83830152505050565b5f61095f61095a8461090f565b6108f5565b90508281526020810184848401111561097b5761097a610883565b5b61098684828561093f565b509392505050565b5f82601f8301126109a2576109a1610759565b5b81356109b284826020860161094d565b91505092915050565b5f5f5f606084860312156109d2576109d16106e3565b5b5f6109df86828701610712565b93505060206109f086828701610745565b925050604084013567ffffffffffffffff811115610a1157610a106106e7565b5b610a1d8682870161098e565b9150509250925092565b5f60208284031215610a3c57610a3b6106e3565b5b5f610a4984828501610712565b91505092915050565b5f610a5c82610690565b9050919050565b610a6c81610a52565b82525050565b5f602082019050610a855f830184610a63565b92915050565b610a9481610726565b82525050565b5f602082019050610aad5f830184610a8b565b92915050565b5f67ffffffffffffffff821115610acd57610acc610897565b5b602082029050602081019050919050565b5f610af0610aeb84610ab3565b6108f5565b90508083825260208201905060208402830185811115610b1357610b12610761565b5b835b81811015610b3c5780610b288882610712565b845260208401935050602081019050610b15565b5050509392505050565b5f82601f830112610b5a57610b59610759565b5b8135610b6a848260208601610ade565b91505092915050565b5f67ffffffffffffffff821115610b8d57610b8c610897565b5b602082029050602081019050919050565b5f610bb0610bab84610b73565b6108f5565b90508083825260208201905060208402830185811115610bd357610bd2610761565b5b835b81811015610c1a57803567ffffffffffffffff811115610bf857610bf7610759565b5b808601610c05898261098e565b85526020850194505050602081019050610bd5565b5050509392505050565b5f82601f830112610c3857610c37610759565b5b8135610c48848260208601610b9e565b91505092915050565b5f5f60408385031215610c6757610c666106e3565b5b5f83013567ffffffffffffffff811115610c8457610c836106e7565b5b610c9085828601610b46565b925050602083013567ffffffffffffffff811115610cb157610cb06106e7565b5b610cbd85828601610c24565b9150509250929050565b7f4e487b71000000000000000000000000000000000000000000000000000000005f52603260045260245ffd5b5f81519050919050565b5f81905092915050565b8281835e5f83830152505050565b5f610d2082610cf4565b610d2a8185610cfe565b9350610d3a818560208601610d08565b80840191505092915050565b5f610d518284610d16565b915081905092915050565b5f82825260208201905092915050565b7f417262697472616765206f7065726174696f6e206661696c65640000000000005f82015250565b5f610da0601a83610d5c565b9150610dab82610d6c565b602082019050919050565b5f6020820190508181035f830152610dcd81610d94565b9050919050565b7f4e487b71000000000000000000000000000000000000000000000000000000005f52601160045260245ffd5b5f610e0b82610726565b9150610e1683610726565b9250828201905080821115610e2e57610e2d610dd4565b5b92915050565b610e3d816106eb565b82525050565b5f604082019050610e565f830185610e34565b610e636020830184610a8b565b9392505050565b610e7381610850565b8114610e7d575f5ffd5b50565b5f81519050610e8e81610e6a565b92915050565b5f60208284031215610ea957610ea86106e3565b5b5f610eb684828501610e80565b91505092915050565b5f82825260208201905092915050565b5f610ed982610cf4565b610ee38185610ebf565b9350610ef3818560208601610d08565b610efc81610887565b840191505092915050565b5f61ffff82169050919050565b610f1d81610f07565b82525050565b5f60a082019050610f365f830188610e34565b610f436020830187610e34565b610f506040830186610a8b565b8181036060830152610f628185610ecf565b9050610f716080830184610f14565b9695505050505050565b7f4f776e61626c653a2063616c6c6572206973206e6f7420746865206f776e65725f82015250565b5f610faf602083610d5c565b9150610fba82610f7b565b602082019050919050565b5f6020820190508181035f830152610fdc81610fa3565b9050919050565b5f602082019050610ff65f830184610e34565b92915050565b5f8151905061100a8161072f565b92915050565b5f60208284031215611025576110246106e3565b5b5f61103284828501610ffc565b9150509291505056fea26469706673582212209f917414e1d4e0441fff888ece2371b5eb8d310455ced55b79731b6b31c4a73464736f6c634300081b0033",
					"opcodes": "PUSH1 0xC0 PUSH1 0x40 MSTORE CALLVALUE DUP1 ISZERO PUSH2 0xF JUMPI PUSH0 PUSH0 REVERT JUMPDEST POP PUSH1 0x40 MLOAD PUSH2 0x1340 CODESIZE SUB DUP1 PUSH2 0x1340 DUP4 CODECOPY DUP2 DUP2 ADD PUSH1 0x40 MSTORE DUP2 ADD SWAP1 PUSH2 0x31 SWAP2 SWAP1 PUSH2 0x201 JUMP JUMPDEST DUP1 DUP1 PUSH20 0xFFFFFFFFFFFFFFFFFFFFFFFFFFFFFFFFFFFFFFFF AND PUSH1 0x80 DUP2 PUSH20 0xFFFFFFFFFFFFFFFFFFFFFFFFFFFFFFFFFFFFFFFF AND DUP2 MSTORE POP POP DUP1 PUSH20 0xFFFFFFFFFFFFFFFFFFFFFFFFFFFFFFFFFFFFFFFF AND PUSH4 0x26B1D5F PUSH1 0x40 MLOAD DUP2 PUSH4 0xFFFFFFFF AND PUSH1 0xE0 SHL DUP2 MSTORE PUSH1 0x4 ADD PUSH1 0x20 PUSH1 0x40 MLOAD DUP1 DUP4 SUB DUP2 DUP7 GAS STATICCALL ISZERO DUP1 ISZERO PUSH2 0xAF JUMPI RETURNDATASIZE PUSH0 PUSH0 RETURNDATACOPY RETURNDATASIZE PUSH0 REVERT JUMPDEST POP POP POP POP PUSH1 0x40 MLOAD RETURNDATASIZE PUSH1 0x1F NOT PUSH1 0x1F DUP3 ADD AND DUP3 ADD DUP1 PUSH1 0x40 MSTORE POP DUP2 ADD SWAP1 PUSH2 0xD3 SWAP2 SWAP1 PUSH2 0x201 JUMP JUMPDEST PUSH20 0xFFFFFFFFFFFFFFFFFFFFFFFFFFFFFFFFFFFFFFFF AND PUSH1 0xA0 DUP2 PUSH20 0xFFFFFFFFFFFFFFFFFFFFFFFFFFFFFFFFFFFFFFFF AND DUP2 MSTORE POP POP POP CALLER PUSH0 PUSH0 PUSH2 0x100 EXP DUP2 SLOAD DUP2 PUSH20 0xFFFFFFFFFFFFFFFFFFFFFFFFFFFFFFFFFFFFFFFF MUL NOT AND SWAP1 DUP4 PUSH20 0xFFFFFFFFFFFFFFFFFFFFFFFFFFFFFFFFFFFFFFFF AND MUL OR SWAP1 SSTORE POP PUSH32 0x8FFCDC15A283D706D38281F500270D8B5A656918F555DE0913D7455E3E6BC1BF PUSH0 PUSH0 SWAP1 SLOAD SWAP1 PUSH2 0x100 EXP SWAP1 DIV PUSH20 0xFFFFFFFFFFFFFFFFFFFFFFFFFFFFFFFFFFFFFFFF AND PUSH1 0x40 MLOAD PUSH2 0x195 SWAP2 SWAP1 PUSH2 0x287 JUMP JUMPDEST PUSH1 0x40 MLOAD DUP1 SWAP2 SUB SWAP1 LOG1 POP PUSH2 0x2A0 JUMP JUMPDEST PUSH0 PUSH0 REVERT JUMPDEST PUSH0 PUSH20 0xFFFFFFFFFFFFFFFFFFFFFFFFFFFFFFFFFFFFFFFF DUP3 AND SWAP1 POP SWAP2 SWAP1 POP JUMP JUMPDEST PUSH0 PUSH2 0x1D0 DUP3 PUSH2 0x1A7 JUMP JUMPDEST SWAP1 POP SWAP2 SWAP1 POP JUMP JUMPDEST PUSH2 0x1E0 DUP2 PUSH2 0x1C6 JUMP JUMPDEST DUP2 EQ PUSH2 0x1EA JUMPI PUSH0 PUSH0 REVERT JUMPDEST POP JUMP JUMPDEST PUSH0 DUP2 MLOAD SWAP1 POP PUSH2 0x1FB DUP2 PUSH2 0x1D7 JUMP JUMPDEST SWAP3 SWAP2 POP POP JUMP JUMPDEST PUSH0 PUSH1 0x20 DUP3 DUP5 SUB SLT ISZERO PUSH2 0x216 JUMPI PUSH2 0x215 PUSH2 0x1A3 JUMP JUMPDEST JUMPDEST PUSH0 PUSH2 0x223 DUP5 DUP3 DUP6 ADD PUSH2 0x1ED JUMP JUMPDEST SWAP2 POP POP SWAP3 SWAP2 POP POP JUMP JUMPDEST PUSH0 DUP2 SWAP1 POP SWAP2 SWAP1 POP JUMP JUMPDEST PUSH0 PUSH2 0x24F PUSH2 0x24A PUSH2 0x245 DUP5 PUSH2 0x1A7 JUMP JUMPDEST PUSH2 0x22C JUMP JUMPDEST PUSH2 0x1A7 JUMP JUMPDEST SWAP1 POP SWAP2 SWAP1 POP JUMP JUMPDEST PUSH0 PUSH2 0x260 DUP3 PUSH2 0x235 JUMP JUMPDEST SWAP1 POP SWAP2 SWAP1 POP JUMP JUMPDEST PUSH0 PUSH2 0x271 DUP3 PUSH2 0x256 JUMP JUMPDEST SWAP1 POP SWAP2 SWAP1 POP JUMP JUMPDEST PUSH2 0x281 DUP2 PUSH2 0x267 JUMP JUMPDEST DUP3 MSTORE POP POP JUMP JUMPDEST PUSH0 PUSH1 0x20 DUP3 ADD SWAP1 POP PUSH2 0x29A PUSH0 DUP4 ADD DUP5 PUSH2 0x278 JUMP JUMPDEST SWAP3 SWAP2 POP POP JUMP JUMPDEST PUSH1 0x80 MLOAD PUSH1 0xA0 MLOAD PUSH2 0x1071 PUSH2 0x2CF PUSH0 CODECOPY PUSH0 DUP2 DUP2 PUSH2 0x2DF ADD MSTORE DUP2 DUP2 PUSH2 0x384 ADD MSTORE PUSH2 0x5A5 ADD MSTORE PUSH0 PUSH2 0x181 ADD MSTORE PUSH2 0x1071 PUSH0 RETURN INVALID PUSH1 0x80 PUSH1 0x40 MSTORE PUSH1 0x4 CALLDATASIZE LT PUSH2 0x58 JUMPI PUSH0 CALLDATALOAD PUSH1 0xE0 SHR DUP1 PUSH4 0x542975C EQ PUSH2 0x63 JUMPI DUP1 PUSH4 0x1B11D0FF EQ PUSH2 0x8D JUMPI DUP1 PUSH4 0x5107D61E EQ PUSH2 0xC9 JUMPI DUP1 PUSH4 0x51CFF8D9 EQ PUSH2 0xF1 JUMPI DUP1 PUSH4 0x7535D246 EQ PUSH2 0x119 JUMPI DUP1 PUSH4 0xF8B2CB4F EQ PUSH2 0x143 JUMPI PUSH2 0x5F JUMP JUMPDEST CALLDATASIZE PUSH2 0x5F JUMPI STOP JUMPDEST PUSH0 PUSH0 REVERT JUMPDEST CALLVALUE DUP1 ISZERO PUSH2 0x6E JUMPI PUSH0 PUSH0 REVERT JUMPDEST POP PUSH2 0x77 PUSH2 0x17F JUMP JUMPDEST PUSH1 0x40 MLOAD PUSH2 0x84 SWAP2 SWAP1 PUSH2 0x6C1 JUMP JUMPDEST PUSH1 0x40 MLOAD DUP1 SWAP2 SUB SWAP1 RETURN JUMPDEST CALLVALUE DUP1 ISZERO PUSH2 0x98 JUMPI PUSH0 PUSH0 REVERT JUMPDEST POP PUSH2 0xB3 PUSH1 0x4 DUP1 CALLDATASIZE SUB DUP2 ADD SWAP1 PUSH2 0xAE SWAP2 SWAP1 PUSH2 0x7BA JUMP JUMPDEST PUSH2 0x1A3 JUMP JUMPDEST PUSH1 0x40 MLOAD PUSH2 0xC0 SWAP2 SWAP1 PUSH2 0x86A JUMP JUMPDEST PUSH1 0x40 MLOAD DUP1 SWAP2 SUB SWAP1 RETURN JUMPDEST CALLVALUE DUP1 ISZERO PUSH2 0xD4 JUMPI PUSH0 PUSH0 REVERT JUMPDEST POP PUSH2 0xEF PUSH1 0x4 DUP1 CALLDATASIZE SUB DUP2 ADD SWAP1 PUSH2 0xEA SWAP2 SWAP1 PUSH2 0x9BB JUMP JUMPDEST PUSH2 0x36E JUMP JUMPDEST STOP JUMPDEST CALLVALUE DUP1 ISZERO PUSH2 0xFC JUMPI PUSH0 PUSH0 REVERT JUMPDEST POP PUSH2 0x117 PUSH1 0x4 DUP1 CALLDATASIZE SUB DUP2 ADD SWAP1 PUSH2 0x112 SWAP2 SWAP1 PUSH2 0xA27 JUMP JUMPDEST PUSH2 0x41A JUMP JUMPDEST STOP JUMPDEST CALLVALUE DUP1 ISZERO PUSH2 0x124 JUMPI PUSH0 PUSH0 REVERT JUMPDEST POP PUSH2 0x12D PUSH2 0x5A3 JUMP JUMPDEST PUSH1 0x40 MLOAD PUSH2 0x13A SWAP2 SWAP1 PUSH2 0xA72 JUMP JUMPDEST PUSH1 0x40 MLOAD DUP1 SWAP2 SUB SWAP1 RETURN JUMPDEST CALLVALUE DUP1 ISZERO PUSH2 0x14E JUMPI PUSH0 PUSH0 REVERT JUMPDEST POP PUSH2 0x169 PUSH1 0x4 DUP1 CALLDATASIZE SUB DUP2 ADD SWAP1 PUSH2 0x164 SWAP2 SWAP1 PUSH2 0xA27 JUMP JUMPDEST PUSH2 0x5C7 JUMP JUMPDEST PUSH1 0x40 MLOAD PUSH2 0x176 SWAP2 SWAP1 PUSH2 0xA9A JUMP JUMPDEST PUSH1 0x40 MLOAD DUP1 SWAP2 SUB SWAP1 RETURN JUMPDEST PUSH32 0x0 DUP2 JUMP JUMPDEST PUSH0 PUSH0 PUSH0 DUP5 DUP5 DUP2 ADD SWAP1 PUSH2 0x1B5 SWAP2 SWAP1 PUSH2 0xC51 JUMP JUMPDEST SWAP2 POP SWAP2 POP PUSH0 PUSH0 SWAP1 POP JUMPDEST DUP3 MLOAD DUP2 LT ISZERO PUSH2 0x2B1 JUMPI PUSH0 DUP4 DUP3 DUP2 MLOAD DUP2 LT PUSH2 0x1DB JUMPI PUSH2 0x1DA PUSH2 0xCC7 JUMP JUMPDEST JUMPDEST PUSH1 0x20 MUL PUSH1 0x20 ADD ADD MLOAD PUSH20 0xFFFFFFFFFFFFFFFFFFFFFFFFFFFFFFFFFFFFFFFF AND DUP4 DUP4 DUP2 MLOAD DUP2 LT PUSH2 0x20C JUMPI PUSH2 0x20B PUSH2 0xCC7 JUMP JUMPDEST JUMPDEST PUSH1 0x20 MUL PUSH1 0x20 ADD ADD MLOAD PUSH1 0x40 MLOAD PUSH2 0x221 SWAP2 SWAP1 PUSH2 0xD46 JUMP JUMPDEST PUSH0 PUSH1 0x40 MLOAD DUP1 DUP4 SUB DUP2 PUSH0 DUP7 GAS CALL SWAP2 POP POP RETURNDATASIZE DUP1 PUSH0 DUP2 EQ PUSH2 0x25A JUMPI PUSH1 0x40 MLOAD SWAP2 POP PUSH1 0x1F NOT PUSH1 0x3F RETURNDATASIZE ADD AND DUP3 ADD PUSH1 0x40 MSTORE RETURNDATASIZE DUP3 MSTORE RETURNDATASIZE PUSH0 PUSH1 0x20 DUP5 ADD RETURNDATACOPY PUSH2 0x25F JUMP JUMPDEST PUSH1 0x60 SWAP2 POP JUMPDEST POP POP SWAP1 POP DUP1 PUSH2 0x2A3 JUMPI PUSH1 0x40 MLOAD PUSH32 0x8C379A000000000000000000000000000000000000000000000000000000000 DUP2 MSTORE PUSH1 0x4 ADD PUSH2 0x29A SWAP1 PUSH2 0xDB6 JUMP JUMPDEST PUSH1 0x40 MLOAD DUP1 SWAP2 SUB SWAP1 REVERT JUMPDEST POP DUP1 DUP1 PUSH1 0x1 ADD SWAP2 POP POP PUSH2 0x1BE JUMP JUMPDEST POP PUSH0 DUP8 DUP10 PUSH2 0x2BF SWAP2 SWAP1 PUSH2 0xE01 JUMP JUMPDEST SWAP1 POP DUP10 PUSH20 0xFFFFFFFFFFFFFFFFFFFFFFFFFFFFFFFFFFFFFFFF AND PUSH4 0x95EA7B3 PUSH32 0x0 DUP4 PUSH1 0x40 MLOAD DUP4 PUSH4 0xFFFFFFFF AND PUSH1 0xE0 SHL DUP2 MSTORE PUSH1 0x4 ADD PUSH2 0x31C SWAP3 SWAP2 SWAP1 PUSH2 0xE43 JUMP JUMPDEST PUSH1 0x20 PUSH1 0x40 MLOAD DUP1 DUP4 SUB DUP2 PUSH0 DUP8 GAS CALL ISZERO DUP1 ISZERO PUSH2 0x338 JUMPI RETURNDATASIZE PUSH0 PUSH0 RETURNDATACOPY RETURNDATASIZE PUSH0 REVERT JUMPDEST POP POP POP POP PUSH1 0x40 MLOAD RETURNDATASIZE PUSH1 0x1F NOT PUSH1 0x1F DUP3 ADD AND DUP3 ADD DUP1 PUSH1 0x40 MSTORE POP DUP2 ADD SWAP1 PUSH2 0x35C SWAP2 SWAP1 PUSH2 0xE94 JUMP JUMPDEST POP PUSH1 0x1 SWAP4 POP POP POP POP SWAP7 SWAP6 POP POP POP POP POP POP JUMP JUMPDEST PUSH0 ADDRESS SWAP1 POP PUSH0 DUP5 SWAP1 POP PUSH0 DUP5 SWAP1 POP PUSH0 DUP5 SWAP1 POP PUSH0 PUSH0 SWAP1 POP PUSH32 0x0 PUSH20 0xFFFFFFFFFFFFFFFFFFFFFFFFFFFFFFFFFFFFFFFF AND PUSH4 0x42B0B77C DUP7 DUP7 DUP7 DUP7 DUP7 PUSH1 0x40 MLOAD DUP7 PUSH4 0xFFFFFFFF AND PUSH1 0xE0 SHL DUP2 MSTORE PUSH1 0x4 ADD PUSH2 0x3E3 SWAP6 SWAP5 SWAP4 SWAP3 SWAP2 SWAP1 PUSH2 0xF23 JUMP JUMPDEST PUSH0 PUSH1 0x40 MLOAD DUP1 DUP4 SUB DUP2 PUSH0 DUP8 DUP1 EXTCODESIZE ISZERO DUP1 ISZERO PUSH2 0x3FA JUMPI PUSH0 PUSH0 REVERT JUMPDEST POP GAS CALL ISZERO DUP1 ISZERO PUSH2 0x40C JUMPI RETURNDATASIZE PUSH0 PUSH0 RETURNDATACOPY RETURNDATASIZE PUSH0 REVERT JUMPDEST POP POP POP POP POP POP POP POP POP POP POP POP JUMP JUMPDEST PUSH0 PUSH0 SWAP1 SLOAD SWAP1 PUSH2 0x100 EXP SWAP1 DIV PUSH20 0xFFFFFFFFFFFFFFFFFFFFFFFFFFFFFFFFFFFFFFFF AND PUSH20 0xFFFFFFFFFFFFFFFFFFFFFFFFFFFFFFFFFFFFFFFF AND CALLER PUSH20 0xFFFFFFFFFFFFFFFFFFFFFFFFFFFFFFFFFFFFFFFF AND EQ PUSH2 0x4A8 JUMPI PUSH1 0x40 MLOAD PUSH32 0x8C379A000000000000000000000000000000000000000000000000000000000 DUP2 MSTORE PUSH1 0x4 ADD PUSH2 0x49F SWAP1 PUSH2 0xFC5 JUMP JUMPDEST PUSH1 0x40 MLOAD DUP1 SWAP2 SUB SWAP1 REVERT JUMPDEST PUSH0 DUP2 SWAP1 POP DUP1 PUSH20 0xFFFFFFFFFFFFFFFFFFFFFFFFFFFFFFFFFFFFFFFF AND PUSH4 0xA9059CBB CALLER DUP4 PUSH20 0xFFFFFFFFFFFFFFFFFFFFFFFFFFFFFFFFFFFFFFFF AND PUSH4 0x70A08231 ADDRESS PUSH1 0x40 MLOAD DUP3 PUSH4 0xFFFFFFFF AND PUSH1 0xE0 SHL DUP2 MSTORE PUSH1 0x4 ADD PUSH2 0x502 SWAP2 SWAP1 PUSH2 0xFE3 JUMP JUMPDEST PUSH1 0x20 PUSH1 0x40 MLOAD DUP1 DUP4 SUB DUP2 DUP7 GAS STATICCALL ISZERO DUP1 ISZERO PUSH2 0x51D JUMPI RETURNDATASIZE PUSH0 PUSH0 RETURNDATACOPY RETURNDATASIZE PUSH0 REVERT JUMPDEST POP POP POP POP PUSH1 0x40 MLOAD RETURNDATASIZE PUSH1 0x1F NOT PUSH1 0x1F DUP3 ADD AND DUP3 ADD DUP1 PUSH1 0x40 MSTORE POP DUP2 ADD SWAP1 PUSH2 0x541 SWAP2 SWAP1 PUSH2 0x1010 JUMP JUMPDEST PUSH1 0x40 MLOAD DUP4 PUSH4 0xFFFFFFFF AND PUSH1 0xE0 SHL DUP2 MSTORE PUSH1 0x4 ADD PUSH2 0x55E SWAP3 SWAP2 SWAP1 PUSH2 0xE43 JUMP JUMPDEST PUSH1 0x20 PUSH1 0x40 MLOAD DUP1 DUP4 SUB DUP2 PUSH0 DUP8 GAS CALL ISZERO DUP1 ISZERO PUSH2 0x57A JUMPI RETURNDATASIZE PUSH0 PUSH0 RETURNDATACOPY RETURNDATASIZE PUSH0 REVERT JUMPDEST POP POP POP POP PUSH1 0x40 MLOAD RETURNDATASIZE PUSH1 0x1F NOT PUSH1 0x1F DUP3 ADD AND DUP3 ADD DUP1 PUSH1 0x40 MSTORE POP DUP2 ADD SWAP1 PUSH2 0x59E SWAP2 SWAP1 PUSH2 0xE94 JUMP JUMPDEST POP POP POP JUMP JUMPDEST PUSH32 0x0 DUP2 JUMP JUMPDEST PUSH0 DUP2 PUSH20 0xFFFFFFFFFFFFFFFFFFFFFFFFFFFFFFFFFFFFFFFF AND PUSH4 0x70A08231 ADDRESS PUSH1 0x40 MLOAD DUP3 PUSH4 0xFFFFFFFF AND PUSH1 0xE0 SHL DUP2 MSTORE PUSH1 0x4 ADD PUSH2 0x601 SWAP2 SWAP1 PUSH2 0xFE3 JUMP JUMPDEST PUSH1 0x20 PUSH1 0x40 MLOAD DUP1 DUP4 SUB DUP2 DUP7 GAS STATICCALL ISZERO DUP1 ISZERO PUSH2 0x61C JUMPI RETURNDATASIZE PUSH0 PUSH0 RETURNDATACOPY RETURNDATASIZE PUSH0 REVERT JUMPDEST POP POP POP POP PUSH1 0x40 MLOAD RETURNDATASIZE PUSH1 0x1F NOT PUSH1 0x1F DUP3 ADD AND DUP3 ADD DUP1 PUSH1 0x40 MSTORE POP DUP2 ADD SWAP1 PUSH2 0x640 SWAP2 SWAP1 PUSH2 0x1010 JUMP JUMPDEST SWAP1 POP SWAP2 SWAP1 POP JUMP JUMPDEST PUSH0 PUSH20 0xFFFFFFFFFFFFFFFFFFFFFFFFFFFFFFFFFFFFFFFF DUP3 AND SWAP1 POP SWAP2 SWAP1 POP JUMP JUMPDEST PUSH0 DUP2 SWAP1 POP SWAP2 SWAP1 POP JUMP JUMPDEST PUSH0 PUSH2 0x689 PUSH2 0x684 PUSH2 0x67F DUP5 PUSH2 0x647 JUMP JUMPDEST PUSH2 0x666 JUMP JUMPDEST PUSH2 0x647 JUMP JUMPDEST SWAP1 POP SWAP2 SWAP1 POP JUMP JUMPDEST PUSH0 PUSH2 0x69A DUP3 PUSH2 0x66F JUMP JUMPDEST SWAP1 POP SWAP2 SWAP1 POP JUMP JUMPDEST PUSH0 PUSH2 0x6AB DUP3 PUSH2 0x690 JUMP JUMPDEST SWAP1 POP SWAP2 SWAP1 POP JUMP JUMPDEST PUSH2 0x6BB DUP2 PUSH2 0x6A1 JUMP JUMPDEST DUP3 MSTORE POP POP JUMP JUMPDEST PUSH0 PUSH1 0x20 DUP3 ADD SWAP1 POP PUSH2 0x6D4 PUSH0 DUP4 ADD DUP5 PUSH2 0x6B2 JUMP JUMPDEST SWAP3 SWAP2 POP POP JUMP JUMPDEST PUSH0 PUSH1 0x40 MLOAD SWAP1 POP SWAP1 JUMP JUMPDEST PUSH0 PUSH0 REVERT JUMPDEST PUSH0 PUSH0 REVERT JUMPDEST PUSH0 PUSH2 0x6F5 DUP3 PUSH2 0x647 JUMP JUMPDEST SWAP1 POP SWAP2 SWAP1 POP JUMP JUMPDEST PUSH2 0x705 DUP2 PUSH2 0x6EB JUMP JUMPDEST DUP2 EQ PUSH2 0x70F JUMPI PUSH0 PUSH0 REVERT JUMPDEST POP JUMP JUMPDEST PUSH0 DUP2 CALLDATALOAD SWAP1 POP PUSH2 0x720 DUP2 PUSH2 0x6FC JUMP JUMPDEST SWAP3 SWAP2 POP POP JUMP JUMPDEST PUSH0 DUP2 SWAP1 POP SWAP2 SWAP1 POP JUMP JUMPDEST PUSH2 0x738 DUP2 PUSH2 0x726 JUMP JUMPDEST DUP2 EQ PUSH2 0x742 JUMPI PUSH0 PUSH0 REVERT JUMPDEST POP JUMP JUMPDEST PUSH0 DUP2 CALLDATALOAD SWAP1 POP PUSH2 0x753 DUP2 PUSH2 0x72F JUMP JUMPDEST SWAP3 SWAP2 POP POP JUMP JUMPDEST PUSH0 PUSH0 REVERT JUMPDEST PUSH0 PUSH0 REVERT JUMPDEST PUSH0 PUSH0 REVERT JUMPDEST PUSH0 PUSH0 DUP4 PUSH1 0x1F DUP5 ADD SLT PUSH2 0x77A JUMPI PUSH2 0x779 PUSH2 0x759 JUMP JUMPDEST JUMPDEST DUP3 CALLDATALOAD SWAP1 POP PUSH8 0xFFFFFFFFFFFFFFFF DUP2 GT ISZERO PUSH2 0x797 JUMPI PUSH2 0x796 PUSH2 0x75D JUMP JUMPDEST JUMPDEST PUSH1 0x20 DUP4 ADD SWAP2 POP DUP4 PUSH1 0x1 DUP3 MUL DUP4 ADD GT ISZERO PUSH2 0x7B3 JUMPI PUSH2 0x7B2 PUSH2 0x761 JUMP JUMPDEST JUMPDEST SWAP3 POP SWAP3 SWAP1 POP JUMP JUMPDEST PUSH0 PUSH0 PUSH0 PUSH0 PUSH0 PUSH0 PUSH1 0xA0 DUP8 DUP10 SUB SLT ISZERO PUSH2 0x7D4 JUMPI PUSH2 0x7D3 PUSH2 0x6E3 JUMP JUMPDEST JUMPDEST PUSH0 PUSH2 0x7E1 DUP10 DUP3 DUP11 ADD PUSH2 0x712 JUMP JUMPDEST SWAP7 POP POP PUSH1 0x20 PUSH2 0x7F2 DUP10 DUP3 DUP11 ADD PUSH2 0x745 JUMP JUMPDEST SWAP6 POP POP PUSH1 0x40 PUSH2 0x803 DUP10 DUP3 DUP11 ADD PUSH2 0x745 JUMP JUMPDEST SWAP5 POP POP PUSH1 0x60 PUSH2 0x814 DUP10 DUP3 DUP11 ADD PUSH2 0x712 JUMP JUMPDEST SWAP4 POP POP PUSH1 0x80 DUP8 ADD CALLDATALOAD PUSH8 0xFFFFFFFFFFFFFFFF DUP2 GT ISZERO PUSH2 0x835 JUMPI PUSH2 0x834 PUSH2 0x6E7 JUMP JUMPDEST JUMPDEST PUSH2 0x841 DUP10 DUP3 DUP11 ADD PUSH2 0x765 JUMP JUMPDEST SWAP3 POP SWAP3 POP POP SWAP3 SWAP6 POP SWAP3 SWAP6 POP SWAP3 SWAP6 JUMP JUMPDEST PUSH0 DUP2 ISZERO ISZERO SWAP1 POP SWAP2 SWAP1 POP JUMP JUMPDEST PUSH2 0x864 DUP2 PUSH2 0x850 JUMP JUMPDEST DUP3 MSTORE POP POP JUMP JUMPDEST PUSH0 PUSH1 0x20 DUP3 ADD SWAP1 POP PUSH2 0x87D PUSH0 DUP4 ADD DUP5 PUSH2 0x85B JUMP JUMPDEST SWAP3 SWAP2 POP POP JUMP JUMPDEST PUSH0 PUSH0 REVERT JUMPDEST PUSH0 PUSH1 0x1F NOT PUSH1 0x1F DUP4 ADD AND SWAP1 POP SWAP2 SWAP1 POP JUMP JUMPDEST PUSH32 0x4E487B7100000000000000000000000000000000000000000000000000000000 PUSH0 MSTORE PUSH1 0x41 PUSH1 0x4 MSTORE PUSH1 0x24 PUSH0 REVERT JUMPDEST PUSH2 0x8CD DUP3 PUSH2 0x887 JUMP JUMPDEST DUP2 ADD DUP2 DUP2 LT PUSH8 0xFFFFFFFFFFFFFFFF DUP3 GT OR ISZERO PUSH2 0x8EC JUMPI PUSH2 0x8EB PUSH2 0x897 JUMP JUMPDEST JUMPDEST DUP1 PUSH1 0x40 MSTORE POP POP POP JUMP JUMPDEST PUSH0 PUSH2 0x8FE PUSH2 0x6DA JUMP JUMPDEST SWAP1 POP PUSH2 0x90A DUP3 DUP3 PUSH2 0x8C4 JUMP JUMPDEST SWAP2 SWAP1 POP JUMP JUMPDEST PUSH0 PUSH8 0xFFFFFFFFFFFFFFFF DUP3 GT ISZERO PUSH2 0x929 JUMPI PUSH2 0x928 PUSH2 0x897 JUMP JUMPDEST JUMPDEST PUSH2 0x932 DUP3 PUSH2 0x887 JUMP JUMPDEST SWAP1 POP PUSH1 0x20 DUP2 ADD SWAP1 POP SWAP2 SWAP1 POP JUMP JUMPDEST DUP3 DUP2 DUP4 CALLDATACOPY PUSH0 DUP4 DUP4 ADD MSTORE POP POP POP JUMP JUMPDEST PUSH0 PUSH2 0x95F PUSH2 0x95A DUP5 PUSH2 0x90F JUMP JUMPDEST PUSH2 0x8F5 JUMP JUMPDEST SWAP1 POP DUP3 DUP2 MSTORE PUSH1 0x20 DUP2 ADD DUP5 DUP5 DUP5 ADD GT ISZERO PUSH2 0x97B JUMPI PUSH2 0x97A PUSH2 0x883 JUMP JUMPDEST JUMPDEST PUSH2 0x986 DUP5 DUP3 DUP6 PUSH2 0x93F JUMP JUMPDEST POP SWAP4 SWAP3 POP POP POP JUMP JUMPDEST PUSH0 DUP3 PUSH1 0x1F DUP4 ADD SLT PUSH2 0x9A2 JUMPI PUSH2 0x9A1 PUSH2 0x759 JUMP JUMPDEST JUMPDEST DUP2 CALLDATALOAD PUSH2 0x9B2 DUP5 DUP3 PUSH1 0x20 DUP7 ADD PUSH2 0x94D JUMP JUMPDEST SWAP2 POP POP SWAP3 SWAP2 POP POP JUMP JUMPDEST PUSH0 PUSH0 PUSH0 PUSH1 0x60 DUP5 DUP7 SUB SLT ISZERO PUSH2 0x9D2 JUMPI PUSH2 0x9D1 PUSH2 0x6E3 JUMP JUMPDEST JUMPDEST PUSH0 PUSH2 0x9DF DUP7 DUP3 DUP8 ADD PUSH2 0x712 JUMP JUMPDEST SWAP4 POP POP PUSH1 0x20 PUSH2 0x9F0 DUP7 DUP3 DUP8 ADD PUSH2 0x745 JUMP JUMPDEST SWAP3 POP POP PUSH1 0x40 DUP5 ADD CALLDATALOAD PUSH8 0xFFFFFFFFFFFFFFFF DUP2 GT ISZERO PUSH2 0xA11 JUMPI PUSH2 0xA10 PUSH2 0x6E7 JUMP JUMPDEST JUMPDEST PUSH2 0xA1D DUP7 DUP3 DUP8 ADD PUSH2 0x98E JUMP JUMPDEST SWAP2 POP POP SWAP3 POP SWAP3 POP SWAP3 JUMP JUMPDEST PUSH0 PUSH1 0x20 DUP3 DUP5 SUB SLT ISZERO PUSH2 0xA3C JUMPI PUSH2 0xA3B PUSH2 0x6E3 JUMP JUMPDEST JUMPDEST PUSH0 PUSH2 0xA49 DUP5 DUP3 DUP6 ADD PUSH2 0x712 JUMP JUMPDEST SWAP2 POP POP SWAP3 SWAP2 POP POP JUMP JUMPDEST PUSH0 PUSH2 0xA5C DUP3 PUSH2 0x690 JUMP JUMPDEST SWAP1 POP SWAP2 SWAP1 POP JUMP JUMPDEST PUSH2 0xA6C DUP2 PUSH2 0xA52 JUMP JUMPDEST DUP3 MSTORE POP POP JUMP JUMPDEST PUSH0 PUSH1 0x20 DUP3 ADD SWAP1 POP PUSH2 0xA85 PUSH0 DUP4 ADD DUP5 PUSH2 0xA63 JUMP JUMPDEST SWAP3 SWAP2 POP POP JUMP JUMPDEST PUSH2 0xA94 DUP2 PUSH2 0x726 JUMP JUMPDEST DUP3 MSTORE POP POP JUMP JUMPDEST PUSH0 PUSH1 0x20 DUP3 ADD SWAP1 POP PUSH2 0xAAD PUSH0 DUP4 ADD DUP5 PUSH2 0xA8B JUMP JUMPDEST SWAP3 SWAP2 POP POP JUMP JUMPDEST PUSH0 PUSH8 0xFFFFFFFFFFFFFFFF DUP3 GT ISZERO PUSH2 0xACD JUMPI PUSH2 0xACC PUSH2 0x897 JUMP JUMPDEST JUMPDEST PUSH1 0x20 DUP3 MUL SWAP1 POP PUSH1 0x20 DUP2 ADD SWAP1 POP SWAP2 SWAP1 POP JUMP JUMPDEST PUSH0 PUSH2 0xAF0 PUSH2 0xAEB DUP5 PUSH2 0xAB3 JUMP JUMPDEST PUSH2 0x8F5 JUMP JUMPDEST SWAP1 POP DUP1 DUP4 DUP3 MSTORE PUSH1 0x20 DUP3 ADD SWAP1 POP PUSH1 0x20 DUP5 MUL DUP4 ADD DUP6 DUP2 GT ISZERO PUSH2 0xB13 JUMPI PUSH2 0xB12 PUSH2 0x761 JUMP JUMPDEST JUMPDEST DUP4 JUMPDEST DUP2 DUP2 LT ISZERO PUSH2 0xB3C JUMPI DUP1 PUSH2 0xB28 DUP9 DUP3 PUSH2 0x712 JUMP JUMPDEST DUP5 MSTORE PUSH1 0x20 DUP5 ADD SWAP4 POP POP PUSH1 0x20 DUP2 ADD SWAP1 POP PUSH2 0xB15 JUMP JUMPDEST POP POP POP SWAP4 SWAP3 POP POP POP JUMP JUMPDEST PUSH0 DUP3 PUSH1 0x1F DUP4 ADD SLT PUSH2 0xB5A JUMPI PUSH2 0xB59 PUSH2 0x759 JUMP JUMPDEST JUMPDEST DUP2 CALLDATALOAD PUSH2 0xB6A DUP5 DUP3 PUSH1 0x20 DUP7 ADD PUSH2 0xADE JUMP JUMPDEST SWAP2 POP POP SWAP3 SWAP2 POP POP JUMP JUMPDEST PUSH0 PUSH8 0xFFFFFFFFFFFFFFFF DUP3 GT ISZERO PUSH2 0xB8D JUMPI PUSH2 0xB8C PUSH2 0x897 JUMP JUMPDEST JUMPDEST PUSH1 0x20 DUP3 MUL SWAP1 POP PUSH1 0x20 DUP2 ADD SWAP1 POP SWAP2 SWAP1 POP JUMP JUMPDEST PUSH0 PUSH2 0xBB0 PUSH2 0xBAB DUP5 PUSH2 0xB73 JUMP JUMPDEST PUSH2 0x8F5 JUMP JUMPDEST SWAP1 POP DUP1 DUP4 DUP3 MSTORE PUSH1 0x20 DUP3 ADD SWAP1 POP PUSH1 0x20 DUP5 MUL DUP4 ADD DUP6 DUP2 GT ISZERO PUSH2 0xBD3 JUMPI PUSH2 0xBD2 PUSH2 0x761 JUMP JUMPDEST JUMPDEST DUP4 JUMPDEST DUP2 DUP2 LT ISZERO PUSH2 0xC1A JUMPI DUP1 CALLDATALOAD PUSH8 0xFFFFFFFFFFFFFFFF DUP2 GT ISZERO PUSH2 0xBF8 JUMPI PUSH2 0xBF7 PUSH2 0x759 JUMP JUMPDEST JUMPDEST DUP1 DUP7 ADD PUSH2 0xC05 DUP10 DUP3 PUSH2 0x98E JUMP JUMPDEST DUP6 MSTORE PUSH1 0x20 DUP6 ADD SWAP5 POP POP POP PUSH1 0x20 DUP2 ADD SWAP1 POP PUSH2 0xBD5 JUMP JUMPDEST POP POP POP SWAP4 SWAP3 POP POP POP JUMP JUMPDEST PUSH0 DUP3 PUSH1 0x1F DUP4 ADD SLT PUSH2 0xC38 JUMPI PUSH2 0xC37 PUSH2 0x759 JUMP JUMPDEST JUMPDEST DUP2 CALLDATALOAD PUSH2 0xC48 DUP5 DUP3 PUSH1 0x20 DUP7 ADD PUSH2 0xB9E JUMP JUMPDEST SWAP2 POP POP SWAP3 SWAP2 POP POP JUMP JUMPDEST PUSH0 PUSH0 PUSH1 0x40 DUP4 DUP6 SUB SLT ISZERO PUSH2 0xC67 JUMPI PUSH2 0xC66 PUSH2 0x6E3 JUMP JUMPDEST JUMPDEST PUSH0 DUP4 ADD CALLDATALOAD PUSH8 0xFFFFFFFFFFFFFFFF DUP2 GT ISZERO PUSH2 0xC84 JUMPI PUSH2 0xC83 PUSH2 0x6E7 JUMP JUMPDEST JUMPDEST PUSH2 0xC90 DUP6 DUP3 DUP7 ADD PUSH2 0xB46 JUMP JUMPDEST SWAP3 POP POP PUSH1 0x20 DUP4 ADD CALLDATALOAD PUSH8 0xFFFFFFFFFFFFFFFF DUP2 GT ISZERO PUSH2 0xCB1 JUMPI PUSH2 0xCB0 PUSH2 0x6E7 JUMP JUMPDEST JUMPDEST PUSH2 0xCBD DUP6 DUP3 DUP7 ADD PUSH2 0xC24 JUMP JUMPDEST SWAP2 POP POP SWAP3 POP SWAP3 SWAP1 POP JUMP JUMPDEST PUSH32 0x4E487B7100000000000000000000000000000000000000000000000000000000 PUSH0 MSTORE PUSH1 0x32 PUSH1 0x4 MSTORE PUSH1 0x24 PUSH0 REVERT JUMPDEST PUSH0 DUP2 MLOAD SWAP1 POP SWAP2 SWAP1 POP JUMP JUMPDEST PUSH0 DUP2 SWAP1 POP SWAP3 SWAP2 POP POP JUMP JUMPDEST DUP3 DUP2 DUP4 MCOPY PUSH0 DUP4 DUP4 ADD MSTORE POP POP POP JUMP JUMPDEST PUSH0 PUSH2 0xD20 DUP3 PUSH2 0xCF4 JUMP JUMPDEST PUSH2 0xD2A DUP2 DUP6 PUSH2 0xCFE JUMP JUMPDEST SWAP4 POP PUSH2 0xD3A DUP2 DUP6 PUSH1 0x20 DUP7 ADD PUSH2 0xD08 JUMP JUMPDEST DUP1 DUP5 ADD SWAP2 POP POP SWAP3 SWAP2 POP POP JUMP JUMPDEST PUSH0 PUSH2 0xD51 DUP3 DUP5 PUSH2 0xD16 JUMP JUMPDEST SWAP2 POP DUP2 SWAP1 POP SWAP3 SWAP2 POP POP JUMP JUMPDEST PUSH0 DUP3 DUP3 MSTORE PUSH1 0x20 DUP3 ADD SWAP1 POP SWAP3 SWAP2 POP POP JUMP JUMPDEST PUSH32 0x417262697472616765206F7065726174696F6E206661696C6564000000000000 PUSH0 DUP3 ADD MSTORE POP JUMP JUMPDEST PUSH0 PUSH2 0xDA0 PUSH1 0x1A DUP4 PUSH2 0xD5C JUMP JUMPDEST SWAP2 POP PUSH2 0xDAB DUP3 PUSH2 0xD6C JUMP JUMPDEST PUSH1 0x20 DUP3 ADD SWAP1 POP SWAP2 SWAP1 POP JUMP JUMPDEST PUSH0 PUSH1 0x20 DUP3 ADD SWAP1 POP DUP2 DUP2 SUB PUSH0 DUP4 ADD MSTORE PUSH2 0xDCD DUP2 PUSH2 0xD94 JUMP JUMPDEST SWAP1 POP SWAP2 SWAP1 POP JUMP JUMPDEST PUSH32 0x4E487B7100000000000000000000000000000000000000000000000000000000 PUSH0 MSTORE PUSH1 0x11 PUSH1 0x4 MSTORE PUSH1 0x24 PUSH0 REVERT JUMPDEST PUSH0 PUSH2 0xE0B DUP3 PUSH2 0x726 JUMP JUMPDEST SWAP2 POP PUSH2 0xE16 DUP4 PUSH2 0x726 JUMP JUMPDEST SWAP3 POP DUP3 DUP3 ADD SWAP1 POP DUP1 DUP3 GT ISZERO PUSH2 0xE2E JUMPI PUSH2 0xE2D PUSH2 0xDD4 JUMP JUMPDEST JUMPDEST SWAP3 SWAP2 POP POP JUMP JUMPDEST PUSH2 0xE3D DUP2 PUSH2 0x6EB JUMP JUMPDEST DUP3 MSTORE POP POP JUMP JUMPDEST PUSH0 PUSH1 0x40 DUP3 ADD SWAP1 POP PUSH2 0xE56 PUSH0 DUP4 ADD DUP6 PUSH2 0xE34 JUMP JUMPDEST PUSH2 0xE63 PUSH1 0x20 DUP4 ADD DUP5 PUSH2 0xA8B JUMP JUMPDEST SWAP4 SWAP3 POP POP POP JUMP JUMPDEST PUSH2 0xE73 DUP2 PUSH2 0x850 JUMP JUMPDEST DUP2 EQ PUSH2 0xE7D JUMPI PUSH0 PUSH0 REVERT JUMPDEST POP JUMP JUMPDEST PUSH0 DUP2 MLOAD SWAP1 POP PUSH2 0xE8E DUP2 PUSH2 0xE6A JUMP JUMPDEST SWAP3 SWAP2 POP POP JUMP JUMPDEST PUSH0 PUSH1 0x20 DUP3 DUP5 SUB SLT ISZERO PUSH2 0xEA9 JUMPI PUSH2 0xEA8 PUSH2 0x6E3 JUMP JUMPDEST JUMPDEST PUSH0 PUSH2 0xEB6 DUP5 DUP3 DUP6 ADD PUSH2 0xE80 JUMP JUMPDEST SWAP2 POP POP SWAP3 SWAP2 POP POP JUMP JUMPDEST PUSH0 DUP3 DUP3 MSTORE PUSH1 0x20 DUP3 ADD SWAP1 POP SWAP3 SWAP2 POP POP JUMP JUMPDEST PUSH0 PUSH2 0xED9 DUP3 PUSH2 0xCF4 JUMP JUMPDEST PUSH2 0xEE3 DUP2 DUP6 PUSH2 0xEBF JUMP JUMPDEST SWAP4 POP PUSH2 0xEF3 DUP2 DUP6 PUSH1 0x20 DUP7 ADD PUSH2 0xD08 JUMP JUMPDEST PUSH2 0xEFC DUP2 PUSH2 0x887 JUMP JUMPDEST DUP5 ADD SWAP2 POP POP SWAP3 SWAP2 POP POP JUMP JUMPDEST PUSH0 PUSH2 0xFFFF DUP3 AND SWAP1 POP SWAP2 SWAP1 POP JUMP JUMPDEST PUSH2 0xF1D DUP2 PUSH2 0xF07 JUMP JUMPDEST DUP3 MSTORE POP POP JUMP JUMPDEST PUSH0 PUSH1 0xA0 DUP3 ADD SWAP1 POP PUSH2 0xF36 PUSH0 DUP4 ADD DUP9 PUSH2 0xE34 JUMP JUMPDEST PUSH2 0xF43 PUSH1 0x20 DUP4 ADD DUP8 PUSH2 0xE34 JUMP JUMPDEST PUSH2 0xF50 PUSH1 0x40 DUP4 ADD DUP7 PUSH2 0xA8B JUMP JUMPDEST DUP2 DUP2 SUB PUSH1 0x60 DUP4 ADD MSTORE PUSH2 0xF62 DUP2 DUP6 PUSH2 0xECF JUMP JUMPDEST SWAP1 POP PUSH2 0xF71 PUSH1 0x80 DUP4 ADD DUP5 PUSH2 0xF14 JUMP JUMPDEST SWAP7 SWAP6 POP POP POP POP POP POP JUMP JUMPDEST PUSH32 0x4F776E61626C653A2063616C6C6572206973206E6F7420746865206F776E6572 PUSH0 DUP3 ADD MSTORE POP JUMP JUMPDEST PUSH0 PUSH2 0xFAF PUSH1 0x20 DUP4 PUSH2 0xD5C JUMP JUMPDEST SWAP2 POP PUSH2 0xFBA DUP3 PUSH2 0xF7B JUMP JUMPDEST PUSH1 0x20 DUP3 ADD SWAP1 POP SWAP2 SWAP1 POP JUMP JUMPDEST PUSH0 PUSH1 0x20 DUP3 ADD SWAP1 POP DUP2 DUP2 SUB PUSH0 DUP4 ADD MSTORE PUSH2 0xFDC DUP2 PUSH2 0xFA3 JUMP JUMPDEST SWAP1 POP SWAP2 SWAP1 POP JUMP JUMPDEST PUSH0 PUSH1 0x20 DUP3 ADD SWAP1 POP PUSH2 0xFF6 PUSH0 DUP4 ADD DUP5 PUSH2 0xE34 JUMP JUMPDEST SWAP3 SWAP2 POP POP JUMP JUMPDEST PUSH0 DUP2 MLOAD SWAP1 POP PUSH2 0x100A DUP2 PUSH2 0x72F JUMP JUMPDEST SWAP3 SWAP2 POP POP JUMP JUMPDEST PUSH0 PUSH1 0x20 DUP3 DUP5 SUB SLT ISZERO PUSH2 0x1025 JUMPI PUSH2 0x1024 PUSH2 0x6E3 JUMP JUMPDEST JUMPDEST PUSH0 PUSH2 0x1032 DUP5 DUP3 DUP6 ADD PUSH2 0xFFC JUMP JUMPDEST SWAP2 POP POP SWAP3 SWAP2 POP POP JUMP INVALID LOG2 PUSH5 0x6970667358 0x22 SLT KECCAK256 SWAP16 SWAP2 PUSH21 0x14E1D4E0441FFF888ECE2371B5EB8D310455CED55B PUSH26 0x731B6B31C4A73464736F6C634300081B00330000000000000000 "
				},
				"gasEstimates": {
					"creation": {
						"codeDepositCost": "841800",
						"executionCost": "infinite",
						"totalCost": "infinite"
					},
					"external": {
						"ADDRESSES_PROVIDER()": "infinite",
						"POOL()": "infinite",
						"executeOperation(address,uint256,uint256,address,bytes)": "infinite",
						"getBalance(address)": "infinite",
						"requestFlashLoan(address,uint256,bytes)": "infinite",
						"withdraw(address)": "infinite"
					}
				},
				"methodIdentifiers": {
					"ADDRESSES_PROVIDER()": "0542975c",
					"POOL()": "7535d246",
					"executeOperation(address,uint256,uint256,address,bytes)": "1b11d0ff",
					"getBalance(address)": "f8b2cb4f",
					"requestFlashLoan(address,uint256,bytes)": "5107d61e",
					"withdraw(address)": "51cff8d9"
				}
			},
			"storageLayout": {
				"storage": [
					{
						"astId": 1364,
						"contract": "FlashLoanAave/contracts/FlashLoan.sol:FlashLoanArbitrage",
						"label": "owner",
						"offset": 0,
						"slot": "0",
						"type": "t_address_payable"
					}
				],
				"types": {
					"t_address_payable": {
						"encoding": "inplace",
						"label": "address payable",
						"numberOfBytes": "20"
					}
				}
			},
			"userdoc": {
				"kind": "user",
				"methods": {
					"executeOperation(address,uint256,uint256,address,bytes)": {
						"notice": "Executes an operation after receiving the flash-borrowed asset"
					}
				},
				"version": 1
			}
		}
	}
}